
T11_L27_RTOS_SemaphoreBinary.elf:     file format elf32-littlearm

Sections:
Idx Name          Size      VMA       LMA       File off  Algn
  0 .isr_vector   00000198  08000000  08000000  00010000  2**0
                  CONTENTS, ALLOC, LOAD, READONLY, DATA
  1 .text         00008254  080001a0  080001a0  000101a0  2**4
                  CONTENTS, ALLOC, LOAD, READONLY, CODE
  2 .rodata       00000228  080083f8  080083f8  000183f8  2**3
                  CONTENTS, ALLOC, LOAD, READONLY, DATA
  3 .ARM.extab    00000000  08008620  08008620  00020010  2**0
                  CONTENTS
  4 .ARM          00000008  08008620  08008620  00018620  2**2
                  CONTENTS, ALLOC, LOAD, READONLY, DATA
  5 .preinit_array 00000000  08008628  08008628  00020010  2**0
                  CONTENTS, ALLOC, LOAD, DATA
  6 .init_array   00000004  08008628  08008628  00018628  2**2
                  CONTENTS, ALLOC, LOAD, DATA
  7 .fini_array   00000004  0800862c  0800862c  0001862c  2**2
                  CONTENTS, ALLOC, LOAD, DATA
  8 .data         00000010  20000000  08008630  00020000  2**2
                  CONTENTS, ALLOC, LOAD, DATA
  9 .bss          00004a1c  20000010  08008640  00020010  2**2
                  ALLOC
 10 ._user_heap_stack 00000604  20004a2c  08008640  00024a2c  2**0
                  ALLOC
 11 .ARM.attributes 00000030  00000000  00000000  00020010  2**0
                  CONTENTS, READONLY
 12 .debug_info   000198d3  00000000  00000000  00020040  2**0
                  CONTENTS, READONLY, DEBUGGING
 13 .debug_abbrev 0000372a  00000000  00000000  00039913  2**0
                  CONTENTS, READONLY, DEBUGGING
 14 .debug_aranges 000015b0  00000000  00000000  0003d040  2**3
                  CONTENTS, READONLY, DEBUGGING
 15 .debug_ranges 00001408  00000000  00000000  0003e5f0  2**3
                  CONTENTS, READONLY, DEBUGGING
 16 .debug_macro  000184ba  00000000  00000000  0003f9f8  2**0
                  CONTENTS, READONLY, DEBUGGING
 17 .debug_line   00011927  00000000  00000000  00057eb2  2**0
                  CONTENTS, READONLY, DEBUGGING
 18 .debug_str    00096e82  00000000  00000000  000697d9  2**0
                  CONTENTS, READONLY, DEBUGGING
 19 .comment      0000007b  00000000  00000000  0010065b  2**0
                  CONTENTS, READONLY
 20 .debug_frame  00005bf4  00000000  00000000  001006d8  2**2
                  CONTENTS, READONLY, DEBUGGING

Disassembly of section .text:

080001a0 <__do_global_dtors_aux>:
 80001a0:	b510      	push	{r4, lr}
 80001a2:	4c05      	ldr	r4, [pc, #20]	; (80001b8 <__do_global_dtors_aux+0x18>)
 80001a4:	7823      	ldrb	r3, [r4, #0]
 80001a6:	b933      	cbnz	r3, 80001b6 <__do_global_dtors_aux+0x16>
 80001a8:	4b04      	ldr	r3, [pc, #16]	; (80001bc <__do_global_dtors_aux+0x1c>)
 80001aa:	b113      	cbz	r3, 80001b2 <__do_global_dtors_aux+0x12>
 80001ac:	4804      	ldr	r0, [pc, #16]	; (80001c0 <__do_global_dtors_aux+0x20>)
 80001ae:	f3af 8000 	nop.w
 80001b2:	2301      	movs	r3, #1
 80001b4:	7023      	strb	r3, [r4, #0]
 80001b6:	bd10      	pop	{r4, pc}
 80001b8:	20000010 	.word	0x20000010
 80001bc:	00000000 	.word	0x00000000
 80001c0:	080083dc 	.word	0x080083dc

080001c4 <frame_dummy>:
 80001c4:	b508      	push	{r3, lr}
 80001c6:	4b03      	ldr	r3, [pc, #12]	; (80001d4 <frame_dummy+0x10>)
 80001c8:	b11b      	cbz	r3, 80001d2 <frame_dummy+0xe>
 80001ca:	4903      	ldr	r1, [pc, #12]	; (80001d8 <frame_dummy+0x14>)
 80001cc:	4803      	ldr	r0, [pc, #12]	; (80001dc <frame_dummy+0x18>)
 80001ce:	f3af 8000 	nop.w
 80001d2:	bd08      	pop	{r3, pc}
 80001d4:	00000000 	.word	0x00000000
 80001d8:	20000014 	.word	0x20000014
 80001dc:	080083dc 	.word	0x080083dc

080001e0 <__aeabi_drsub>:
 80001e0:	f081 4100 	eor.w	r1, r1, #2147483648	; 0x80000000
 80001e4:	e002      	b.n	80001ec <__adddf3>
 80001e6:	bf00      	nop

080001e8 <__aeabi_dsub>:
 80001e8:	f083 4300 	eor.w	r3, r3, #2147483648	; 0x80000000

080001ec <__adddf3>:
 80001ec:	b530      	push	{r4, r5, lr}
 80001ee:	ea4f 0441 	mov.w	r4, r1, lsl #1
 80001f2:	ea4f 0543 	mov.w	r5, r3, lsl #1
 80001f6:	ea94 0f05 	teq	r4, r5
 80001fa:	bf08      	it	eq
 80001fc:	ea90 0f02 	teqeq	r0, r2
 8000200:	bf1f      	itttt	ne
 8000202:	ea54 0c00 	orrsne.w	ip, r4, r0
 8000206:	ea55 0c02 	orrsne.w	ip, r5, r2
 800020a:	ea7f 5c64 	mvnsne.w	ip, r4, asr #21
 800020e:	ea7f 5c65 	mvnsne.w	ip, r5, asr #21
 8000212:	f000 80e2 	beq.w	80003da <__adddf3+0x1ee>
 8000216:	ea4f 5454 	mov.w	r4, r4, lsr #21
 800021a:	ebd4 5555 	rsbs	r5, r4, r5, lsr #21
 800021e:	bfb8      	it	lt
 8000220:	426d      	neglt	r5, r5
 8000222:	dd0c      	ble.n	800023e <__adddf3+0x52>
 8000224:	442c      	add	r4, r5
 8000226:	ea80 0202 	eor.w	r2, r0, r2
 800022a:	ea81 0303 	eor.w	r3, r1, r3
 800022e:	ea82 0000 	eor.w	r0, r2, r0
 8000232:	ea83 0101 	eor.w	r1, r3, r1
 8000236:	ea80 0202 	eor.w	r2, r0, r2
 800023a:	ea81 0303 	eor.w	r3, r1, r3
 800023e:	2d36      	cmp	r5, #54	; 0x36
 8000240:	bf88      	it	hi
 8000242:	bd30      	pophi	{r4, r5, pc}
 8000244:	f011 4f00 	tst.w	r1, #2147483648	; 0x80000000
 8000248:	ea4f 3101 	mov.w	r1, r1, lsl #12
 800024c:	f44f 1c80 	mov.w	ip, #1048576	; 0x100000
 8000250:	ea4c 3111 	orr.w	r1, ip, r1, lsr #12
 8000254:	d002      	beq.n	800025c <__adddf3+0x70>
 8000256:	4240      	negs	r0, r0
 8000258:	eb61 0141 	sbc.w	r1, r1, r1, lsl #1
 800025c:	f013 4f00 	tst.w	r3, #2147483648	; 0x80000000
 8000260:	ea4f 3303 	mov.w	r3, r3, lsl #12
 8000264:	ea4c 3313 	orr.w	r3, ip, r3, lsr #12
 8000268:	d002      	beq.n	8000270 <__adddf3+0x84>
 800026a:	4252      	negs	r2, r2
 800026c:	eb63 0343 	sbc.w	r3, r3, r3, lsl #1
 8000270:	ea94 0f05 	teq	r4, r5
 8000274:	f000 80a7 	beq.w	80003c6 <__adddf3+0x1da>
 8000278:	f1a4 0401 	sub.w	r4, r4, #1
 800027c:	f1d5 0e20 	rsbs	lr, r5, #32
 8000280:	db0d      	blt.n	800029e <__adddf3+0xb2>
 8000282:	fa02 fc0e 	lsl.w	ip, r2, lr
 8000286:	fa22 f205 	lsr.w	r2, r2, r5
 800028a:	1880      	adds	r0, r0, r2
 800028c:	f141 0100 	adc.w	r1, r1, #0
 8000290:	fa03 f20e 	lsl.w	r2, r3, lr
 8000294:	1880      	adds	r0, r0, r2
 8000296:	fa43 f305 	asr.w	r3, r3, r5
 800029a:	4159      	adcs	r1, r3
 800029c:	e00e      	b.n	80002bc <__adddf3+0xd0>
 800029e:	f1a5 0520 	sub.w	r5, r5, #32
 80002a2:	f10e 0e20 	add.w	lr, lr, #32
 80002a6:	2a01      	cmp	r2, #1
 80002a8:	fa03 fc0e 	lsl.w	ip, r3, lr
 80002ac:	bf28      	it	cs
 80002ae:	f04c 0c02 	orrcs.w	ip, ip, #2
 80002b2:	fa43 f305 	asr.w	r3, r3, r5
 80002b6:	18c0      	adds	r0, r0, r3
 80002b8:	eb51 71e3 	adcs.w	r1, r1, r3, asr #31
 80002bc:	f001 4500 	and.w	r5, r1, #2147483648	; 0x80000000
 80002c0:	d507      	bpl.n	80002d2 <__adddf3+0xe6>
 80002c2:	f04f 0e00 	mov.w	lr, #0
 80002c6:	f1dc 0c00 	rsbs	ip, ip, #0
 80002ca:	eb7e 0000 	sbcs.w	r0, lr, r0
 80002ce:	eb6e 0101 	sbc.w	r1, lr, r1
 80002d2:	f5b1 1f80 	cmp.w	r1, #1048576	; 0x100000
 80002d6:	d31b      	bcc.n	8000310 <__adddf3+0x124>
 80002d8:	f5b1 1f00 	cmp.w	r1, #2097152	; 0x200000
 80002dc:	d30c      	bcc.n	80002f8 <__adddf3+0x10c>
 80002de:	0849      	lsrs	r1, r1, #1
 80002e0:	ea5f 0030 	movs.w	r0, r0, rrx
 80002e4:	ea4f 0c3c 	mov.w	ip, ip, rrx
 80002e8:	f104 0401 	add.w	r4, r4, #1
 80002ec:	ea4f 5244 	mov.w	r2, r4, lsl #21
 80002f0:	f512 0f80 	cmn.w	r2, #4194304	; 0x400000
 80002f4:	f080 809a 	bcs.w	800042c <__adddf3+0x240>
 80002f8:	f1bc 4f00 	cmp.w	ip, #2147483648	; 0x80000000
 80002fc:	bf08      	it	eq
 80002fe:	ea5f 0c50 	movseq.w	ip, r0, lsr #1
 8000302:	f150 0000 	adcs.w	r0, r0, #0
 8000306:	eb41 5104 	adc.w	r1, r1, r4, lsl #20
 800030a:	ea41 0105 	orr.w	r1, r1, r5
 800030e:	bd30      	pop	{r4, r5, pc}
 8000310:	ea5f 0c4c 	movs.w	ip, ip, lsl #1
 8000314:	4140      	adcs	r0, r0
 8000316:	eb41 0101 	adc.w	r1, r1, r1
 800031a:	f411 1f80 	tst.w	r1, #1048576	; 0x100000
 800031e:	f1a4 0401 	sub.w	r4, r4, #1
 8000322:	d1e9      	bne.n	80002f8 <__adddf3+0x10c>
 8000324:	f091 0f00 	teq	r1, #0
 8000328:	bf04      	itt	eq
 800032a:	4601      	moveq	r1, r0
 800032c:	2000      	moveq	r0, #0
 800032e:	fab1 f381 	clz	r3, r1
 8000332:	bf08      	it	eq
 8000334:	3320      	addeq	r3, #32
 8000336:	f1a3 030b 	sub.w	r3, r3, #11
 800033a:	f1b3 0220 	subs.w	r2, r3, #32
 800033e:	da0c      	bge.n	800035a <__adddf3+0x16e>
 8000340:	320c      	adds	r2, #12
 8000342:	dd08      	ble.n	8000356 <__adddf3+0x16a>
 8000344:	f102 0c14 	add.w	ip, r2, #20
 8000348:	f1c2 020c 	rsb	r2, r2, #12
 800034c:	fa01 f00c 	lsl.w	r0, r1, ip
 8000350:	fa21 f102 	lsr.w	r1, r1, r2
 8000354:	e00c      	b.n	8000370 <__adddf3+0x184>
 8000356:	f102 0214 	add.w	r2, r2, #20
 800035a:	bfd8      	it	le
 800035c:	f1c2 0c20 	rsble	ip, r2, #32
 8000360:	fa01 f102 	lsl.w	r1, r1, r2
 8000364:	fa20 fc0c 	lsr.w	ip, r0, ip
 8000368:	bfdc      	itt	le
 800036a:	ea41 010c 	orrle.w	r1, r1, ip
 800036e:	4090      	lslle	r0, r2
 8000370:	1ae4      	subs	r4, r4, r3
 8000372:	bfa2      	ittt	ge
 8000374:	eb01 5104 	addge.w	r1, r1, r4, lsl #20
 8000378:	4329      	orrge	r1, r5
 800037a:	bd30      	popge	{r4, r5, pc}
 800037c:	ea6f 0404 	mvn.w	r4, r4
 8000380:	3c1f      	subs	r4, #31
 8000382:	da1c      	bge.n	80003be <__adddf3+0x1d2>
 8000384:	340c      	adds	r4, #12
 8000386:	dc0e      	bgt.n	80003a6 <__adddf3+0x1ba>
 8000388:	f104 0414 	add.w	r4, r4, #20
 800038c:	f1c4 0220 	rsb	r2, r4, #32
 8000390:	fa20 f004 	lsr.w	r0, r0, r4
 8000394:	fa01 f302 	lsl.w	r3, r1, r2
 8000398:	ea40 0003 	orr.w	r0, r0, r3
 800039c:	fa21 f304 	lsr.w	r3, r1, r4
 80003a0:	ea45 0103 	orr.w	r1, r5, r3
 80003a4:	bd30      	pop	{r4, r5, pc}
 80003a6:	f1c4 040c 	rsb	r4, r4, #12
 80003aa:	f1c4 0220 	rsb	r2, r4, #32
 80003ae:	fa20 f002 	lsr.w	r0, r0, r2
 80003b2:	fa01 f304 	lsl.w	r3, r1, r4
 80003b6:	ea40 0003 	orr.w	r0, r0, r3
 80003ba:	4629      	mov	r1, r5
 80003bc:	bd30      	pop	{r4, r5, pc}
 80003be:	fa21 f004 	lsr.w	r0, r1, r4
 80003c2:	4629      	mov	r1, r5
 80003c4:	bd30      	pop	{r4, r5, pc}
 80003c6:	f094 0f00 	teq	r4, #0
 80003ca:	f483 1380 	eor.w	r3, r3, #1048576	; 0x100000
 80003ce:	bf06      	itte	eq
 80003d0:	f481 1180 	eoreq.w	r1, r1, #1048576	; 0x100000
 80003d4:	3401      	addeq	r4, #1
 80003d6:	3d01      	subne	r5, #1
 80003d8:	e74e      	b.n	8000278 <__adddf3+0x8c>
 80003da:	ea7f 5c64 	mvns.w	ip, r4, asr #21
 80003de:	bf18      	it	ne
 80003e0:	ea7f 5c65 	mvnsne.w	ip, r5, asr #21
 80003e4:	d029      	beq.n	800043a <__adddf3+0x24e>
 80003e6:	ea94 0f05 	teq	r4, r5
 80003ea:	bf08      	it	eq
 80003ec:	ea90 0f02 	teqeq	r0, r2
 80003f0:	d005      	beq.n	80003fe <__adddf3+0x212>
 80003f2:	ea54 0c00 	orrs.w	ip, r4, r0
 80003f6:	bf04      	itt	eq
 80003f8:	4619      	moveq	r1, r3
 80003fa:	4610      	moveq	r0, r2
 80003fc:	bd30      	pop	{r4, r5, pc}
 80003fe:	ea91 0f03 	teq	r1, r3
 8000402:	bf1e      	ittt	ne
 8000404:	2100      	movne	r1, #0
 8000406:	2000      	movne	r0, #0
 8000408:	bd30      	popne	{r4, r5, pc}
 800040a:	ea5f 5c54 	movs.w	ip, r4, lsr #21
 800040e:	d105      	bne.n	800041c <__adddf3+0x230>
 8000410:	0040      	lsls	r0, r0, #1
 8000412:	4149      	adcs	r1, r1
 8000414:	bf28      	it	cs
 8000416:	f041 4100 	orrcs.w	r1, r1, #2147483648	; 0x80000000
 800041a:	bd30      	pop	{r4, r5, pc}
 800041c:	f514 0480 	adds.w	r4, r4, #4194304	; 0x400000
 8000420:	bf3c      	itt	cc
 8000422:	f501 1180 	addcc.w	r1, r1, #1048576	; 0x100000
 8000426:	bd30      	popcc	{r4, r5, pc}
 8000428:	f001 4500 	and.w	r5, r1, #2147483648	; 0x80000000
 800042c:	f045 41fe 	orr.w	r1, r5, #2130706432	; 0x7f000000
 8000430:	f441 0170 	orr.w	r1, r1, #15728640	; 0xf00000
 8000434:	f04f 0000 	mov.w	r0, #0
 8000438:	bd30      	pop	{r4, r5, pc}
 800043a:	ea7f 5c64 	mvns.w	ip, r4, asr #21
 800043e:	bf1a      	itte	ne
 8000440:	4619      	movne	r1, r3
 8000442:	4610      	movne	r0, r2
 8000444:	ea7f 5c65 	mvnseq.w	ip, r5, asr #21
 8000448:	bf1c      	itt	ne
 800044a:	460b      	movne	r3, r1
 800044c:	4602      	movne	r2, r0
 800044e:	ea50 3401 	orrs.w	r4, r0, r1, lsl #12
 8000452:	bf06      	itte	eq
 8000454:	ea52 3503 	orrseq.w	r5, r2, r3, lsl #12
 8000458:	ea91 0f03 	teqeq	r1, r3
 800045c:	f441 2100 	orrne.w	r1, r1, #524288	; 0x80000
 8000460:	bd30      	pop	{r4, r5, pc}
 8000462:	bf00      	nop

08000464 <__aeabi_ui2d>:
 8000464:	f090 0f00 	teq	r0, #0
 8000468:	bf04      	itt	eq
 800046a:	2100      	moveq	r1, #0
 800046c:	4770      	bxeq	lr
 800046e:	b530      	push	{r4, r5, lr}
 8000470:	f44f 6480 	mov.w	r4, #1024	; 0x400
 8000474:	f104 0432 	add.w	r4, r4, #50	; 0x32
 8000478:	f04f 0500 	mov.w	r5, #0
 800047c:	f04f 0100 	mov.w	r1, #0
 8000480:	e750      	b.n	8000324 <__adddf3+0x138>
 8000482:	bf00      	nop

08000484 <__aeabi_i2d>:
 8000484:	f090 0f00 	teq	r0, #0
 8000488:	bf04      	itt	eq
 800048a:	2100      	moveq	r1, #0
 800048c:	4770      	bxeq	lr
 800048e:	b530      	push	{r4, r5, lr}
 8000490:	f44f 6480 	mov.w	r4, #1024	; 0x400
 8000494:	f104 0432 	add.w	r4, r4, #50	; 0x32
 8000498:	f010 4500 	ands.w	r5, r0, #2147483648	; 0x80000000
 800049c:	bf48      	it	mi
 800049e:	4240      	negmi	r0, r0
 80004a0:	f04f 0100 	mov.w	r1, #0
 80004a4:	e73e      	b.n	8000324 <__adddf3+0x138>
 80004a6:	bf00      	nop

080004a8 <__aeabi_f2d>:
 80004a8:	0042      	lsls	r2, r0, #1
 80004aa:	ea4f 01e2 	mov.w	r1, r2, asr #3
 80004ae:	ea4f 0131 	mov.w	r1, r1, rrx
 80004b2:	ea4f 7002 	mov.w	r0, r2, lsl #28
 80004b6:	bf1f      	itttt	ne
 80004b8:	f012 437f 	andsne.w	r3, r2, #4278190080	; 0xff000000
 80004bc:	f093 4f7f 	teqne	r3, #4278190080	; 0xff000000
 80004c0:	f081 5160 	eorne.w	r1, r1, #939524096	; 0x38000000
 80004c4:	4770      	bxne	lr
 80004c6:	f032 427f 	bics.w	r2, r2, #4278190080	; 0xff000000
 80004ca:	bf08      	it	eq
 80004cc:	4770      	bxeq	lr
 80004ce:	f093 4f7f 	teq	r3, #4278190080	; 0xff000000
 80004d2:	bf04      	itt	eq
 80004d4:	f441 2100 	orreq.w	r1, r1, #524288	; 0x80000
 80004d8:	4770      	bxeq	lr
 80004da:	b530      	push	{r4, r5, lr}
 80004dc:	f44f 7460 	mov.w	r4, #896	; 0x380
 80004e0:	f001 4500 	and.w	r5, r1, #2147483648	; 0x80000000
 80004e4:	f021 4100 	bic.w	r1, r1, #2147483648	; 0x80000000
 80004e8:	e71c      	b.n	8000324 <__adddf3+0x138>
 80004ea:	bf00      	nop

080004ec <__aeabi_ul2d>:
 80004ec:	ea50 0201 	orrs.w	r2, r0, r1
 80004f0:	bf08      	it	eq
 80004f2:	4770      	bxeq	lr
 80004f4:	b530      	push	{r4, r5, lr}
 80004f6:	f04f 0500 	mov.w	r5, #0
 80004fa:	e00a      	b.n	8000512 <__aeabi_l2d+0x16>

080004fc <__aeabi_l2d>:
 80004fc:	ea50 0201 	orrs.w	r2, r0, r1
 8000500:	bf08      	it	eq
 8000502:	4770      	bxeq	lr
 8000504:	b530      	push	{r4, r5, lr}
 8000506:	f011 4500 	ands.w	r5, r1, #2147483648	; 0x80000000
 800050a:	d502      	bpl.n	8000512 <__aeabi_l2d+0x16>
 800050c:	4240      	negs	r0, r0
 800050e:	eb61 0141 	sbc.w	r1, r1, r1, lsl #1
 8000512:	f44f 6480 	mov.w	r4, #1024	; 0x400
 8000516:	f104 0432 	add.w	r4, r4, #50	; 0x32
 800051a:	ea5f 5c91 	movs.w	ip, r1, lsr #22
 800051e:	f43f aed8 	beq.w	80002d2 <__adddf3+0xe6>
 8000522:	f04f 0203 	mov.w	r2, #3
 8000526:	ea5f 0cdc 	movs.w	ip, ip, lsr #3
 800052a:	bf18      	it	ne
 800052c:	3203      	addne	r2, #3
 800052e:	ea5f 0cdc 	movs.w	ip, ip, lsr #3
 8000532:	bf18      	it	ne
 8000534:	3203      	addne	r2, #3
 8000536:	eb02 02dc 	add.w	r2, r2, ip, lsr #3
 800053a:	f1c2 0320 	rsb	r3, r2, #32
 800053e:	fa00 fc03 	lsl.w	ip, r0, r3
 8000542:	fa20 f002 	lsr.w	r0, r0, r2
 8000546:	fa01 fe03 	lsl.w	lr, r1, r3
 800054a:	ea40 000e 	orr.w	r0, r0, lr
 800054e:	fa21 f102 	lsr.w	r1, r1, r2
 8000552:	4414      	add	r4, r2
 8000554:	e6bd      	b.n	80002d2 <__adddf3+0xe6>
 8000556:	bf00      	nop

08000558 <__aeabi_dmul>:
 8000558:	b570      	push	{r4, r5, r6, lr}
 800055a:	f04f 0cff 	mov.w	ip, #255	; 0xff
 800055e:	f44c 6ce0 	orr.w	ip, ip, #1792	; 0x700
 8000562:	ea1c 5411 	ands.w	r4, ip, r1, lsr #20
 8000566:	bf1d      	ittte	ne
 8000568:	ea1c 5513 	andsne.w	r5, ip, r3, lsr #20
 800056c:	ea94 0f0c 	teqne	r4, ip
 8000570:	ea95 0f0c 	teqne	r5, ip
 8000574:	f000 f8de 	bleq	8000734 <__aeabi_dmul+0x1dc>
 8000578:	442c      	add	r4, r5
 800057a:	ea81 0603 	eor.w	r6, r1, r3
 800057e:	ea21 514c 	bic.w	r1, r1, ip, lsl #21
 8000582:	ea23 534c 	bic.w	r3, r3, ip, lsl #21
 8000586:	ea50 3501 	orrs.w	r5, r0, r1, lsl #12
 800058a:	bf18      	it	ne
 800058c:	ea52 3503 	orrsne.w	r5, r2, r3, lsl #12
 8000590:	f441 1180 	orr.w	r1, r1, #1048576	; 0x100000
 8000594:	f443 1380 	orr.w	r3, r3, #1048576	; 0x100000
 8000598:	d038      	beq.n	800060c <__aeabi_dmul+0xb4>
 800059a:	fba0 ce02 	umull	ip, lr, r0, r2
 800059e:	f04f 0500 	mov.w	r5, #0
 80005a2:	fbe1 e502 	umlal	lr, r5, r1, r2
 80005a6:	f006 4200 	and.w	r2, r6, #2147483648	; 0x80000000
 80005aa:	fbe0 e503 	umlal	lr, r5, r0, r3
 80005ae:	f04f 0600 	mov.w	r6, #0
 80005b2:	fbe1 5603 	umlal	r5, r6, r1, r3
 80005b6:	f09c 0f00 	teq	ip, #0
 80005ba:	bf18      	it	ne
 80005bc:	f04e 0e01 	orrne.w	lr, lr, #1
 80005c0:	f1a4 04ff 	sub.w	r4, r4, #255	; 0xff
 80005c4:	f5b6 7f00 	cmp.w	r6, #512	; 0x200
 80005c8:	f564 7440 	sbc.w	r4, r4, #768	; 0x300
 80005cc:	d204      	bcs.n	80005d8 <__aeabi_dmul+0x80>
 80005ce:	ea5f 0e4e 	movs.w	lr, lr, lsl #1
 80005d2:	416d      	adcs	r5, r5
 80005d4:	eb46 0606 	adc.w	r6, r6, r6
 80005d8:	ea42 21c6 	orr.w	r1, r2, r6, lsl #11
 80005dc:	ea41 5155 	orr.w	r1, r1, r5, lsr #21
 80005e0:	ea4f 20c5 	mov.w	r0, r5, lsl #11
 80005e4:	ea40 505e 	orr.w	r0, r0, lr, lsr #21
 80005e8:	ea4f 2ece 	mov.w	lr, lr, lsl #11
 80005ec:	f1b4 0cfd 	subs.w	ip, r4, #253	; 0xfd
 80005f0:	bf88      	it	hi
 80005f2:	f5bc 6fe0 	cmphi.w	ip, #1792	; 0x700
 80005f6:	d81e      	bhi.n	8000636 <__aeabi_dmul+0xde>
 80005f8:	f1be 4f00 	cmp.w	lr, #2147483648	; 0x80000000
 80005fc:	bf08      	it	eq
 80005fe:	ea5f 0e50 	movseq.w	lr, r0, lsr #1
 8000602:	f150 0000 	adcs.w	r0, r0, #0
 8000606:	eb41 5104 	adc.w	r1, r1, r4, lsl #20
 800060a:	bd70      	pop	{r4, r5, r6, pc}
 800060c:	f006 4600 	and.w	r6, r6, #2147483648	; 0x80000000
 8000610:	ea46 0101 	orr.w	r1, r6, r1
 8000614:	ea40 0002 	orr.w	r0, r0, r2
 8000618:	ea81 0103 	eor.w	r1, r1, r3
 800061c:	ebb4 045c 	subs.w	r4, r4, ip, lsr #1
 8000620:	bfc2      	ittt	gt
 8000622:	ebd4 050c 	rsbsgt	r5, r4, ip
 8000626:	ea41 5104 	orrgt.w	r1, r1, r4, lsl #20
 800062a:	bd70      	popgt	{r4, r5, r6, pc}
 800062c:	f441 1180 	orr.w	r1, r1, #1048576	; 0x100000
 8000630:	f04f 0e00 	mov.w	lr, #0
 8000634:	3c01      	subs	r4, #1
 8000636:	f300 80ab 	bgt.w	8000790 <__aeabi_dmul+0x238>
 800063a:	f114 0f36 	cmn.w	r4, #54	; 0x36
 800063e:	bfde      	ittt	le
 8000640:	2000      	movle	r0, #0
 8000642:	f001 4100 	andle.w	r1, r1, #2147483648	; 0x80000000
 8000646:	bd70      	pople	{r4, r5, r6, pc}
 8000648:	f1c4 0400 	rsb	r4, r4, #0
 800064c:	3c20      	subs	r4, #32
 800064e:	da35      	bge.n	80006bc <__aeabi_dmul+0x164>
 8000650:	340c      	adds	r4, #12
 8000652:	dc1b      	bgt.n	800068c <__aeabi_dmul+0x134>
 8000654:	f104 0414 	add.w	r4, r4, #20
 8000658:	f1c4 0520 	rsb	r5, r4, #32
 800065c:	fa00 f305 	lsl.w	r3, r0, r5
 8000660:	fa20 f004 	lsr.w	r0, r0, r4
 8000664:	fa01 f205 	lsl.w	r2, r1, r5
 8000668:	ea40 0002 	orr.w	r0, r0, r2
 800066c:	f001 4200 	and.w	r2, r1, #2147483648	; 0x80000000
 8000670:	f021 4100 	bic.w	r1, r1, #2147483648	; 0x80000000
 8000674:	eb10 70d3 	adds.w	r0, r0, r3, lsr #31
 8000678:	fa21 f604 	lsr.w	r6, r1, r4
 800067c:	eb42 0106 	adc.w	r1, r2, r6
 8000680:	ea5e 0e43 	orrs.w	lr, lr, r3, lsl #1
 8000684:	bf08      	it	eq
 8000686:	ea20 70d3 	biceq.w	r0, r0, r3, lsr #31
 800068a:	bd70      	pop	{r4, r5, r6, pc}
 800068c:	f1c4 040c 	rsb	r4, r4, #12
 8000690:	f1c4 0520 	rsb	r5, r4, #32
 8000694:	fa00 f304 	lsl.w	r3, r0, r4
 8000698:	fa20 f005 	lsr.w	r0, r0, r5
 800069c:	fa01 f204 	lsl.w	r2, r1, r4
 80006a0:	ea40 0002 	orr.w	r0, r0, r2
 80006a4:	f001 4100 	and.w	r1, r1, #2147483648	; 0x80000000
 80006a8:	eb10 70d3 	adds.w	r0, r0, r3, lsr #31
 80006ac:	f141 0100 	adc.w	r1, r1, #0
 80006b0:	ea5e 0e43 	orrs.w	lr, lr, r3, lsl #1
 80006b4:	bf08      	it	eq
 80006b6:	ea20 70d3 	biceq.w	r0, r0, r3, lsr #31
 80006ba:	bd70      	pop	{r4, r5, r6, pc}
 80006bc:	f1c4 0520 	rsb	r5, r4, #32
 80006c0:	fa00 f205 	lsl.w	r2, r0, r5
 80006c4:	ea4e 0e02 	orr.w	lr, lr, r2
 80006c8:	fa20 f304 	lsr.w	r3, r0, r4
 80006cc:	fa01 f205 	lsl.w	r2, r1, r5
 80006d0:	ea43 0302 	orr.w	r3, r3, r2
 80006d4:	fa21 f004 	lsr.w	r0, r1, r4
 80006d8:	f001 4100 	and.w	r1, r1, #2147483648	; 0x80000000
 80006dc:	fa21 f204 	lsr.w	r2, r1, r4
 80006e0:	ea20 0002 	bic.w	r0, r0, r2
 80006e4:	eb00 70d3 	add.w	r0, r0, r3, lsr #31
 80006e8:	ea5e 0e43 	orrs.w	lr, lr, r3, lsl #1
 80006ec:	bf08      	it	eq
 80006ee:	ea20 70d3 	biceq.w	r0, r0, r3, lsr #31
 80006f2:	bd70      	pop	{r4, r5, r6, pc}
 80006f4:	f094 0f00 	teq	r4, #0
 80006f8:	d10f      	bne.n	800071a <__aeabi_dmul+0x1c2>
 80006fa:	f001 4600 	and.w	r6, r1, #2147483648	; 0x80000000
 80006fe:	0040      	lsls	r0, r0, #1
 8000700:	eb41 0101 	adc.w	r1, r1, r1
 8000704:	f411 1f80 	tst.w	r1, #1048576	; 0x100000
 8000708:	bf08      	it	eq
 800070a:	3c01      	subeq	r4, #1
 800070c:	d0f7      	beq.n	80006fe <__aeabi_dmul+0x1a6>
 800070e:	ea41 0106 	orr.w	r1, r1, r6
 8000712:	f095 0f00 	teq	r5, #0
 8000716:	bf18      	it	ne
 8000718:	4770      	bxne	lr
 800071a:	f003 4600 	and.w	r6, r3, #2147483648	; 0x80000000
 800071e:	0052      	lsls	r2, r2, #1
 8000720:	eb43 0303 	adc.w	r3, r3, r3
 8000724:	f413 1f80 	tst.w	r3, #1048576	; 0x100000
 8000728:	bf08      	it	eq
 800072a:	3d01      	subeq	r5, #1
 800072c:	d0f7      	beq.n	800071e <__aeabi_dmul+0x1c6>
 800072e:	ea43 0306 	orr.w	r3, r3, r6
 8000732:	4770      	bx	lr
 8000734:	ea94 0f0c 	teq	r4, ip
 8000738:	ea0c 5513 	and.w	r5, ip, r3, lsr #20
 800073c:	bf18      	it	ne
 800073e:	ea95 0f0c 	teqne	r5, ip
 8000742:	d00c      	beq.n	800075e <__aeabi_dmul+0x206>
 8000744:	ea50 0641 	orrs.w	r6, r0, r1, lsl #1
 8000748:	bf18      	it	ne
 800074a:	ea52 0643 	orrsne.w	r6, r2, r3, lsl #1
 800074e:	d1d1      	bne.n	80006f4 <__aeabi_dmul+0x19c>
 8000750:	ea81 0103 	eor.w	r1, r1, r3
 8000754:	f001 4100 	and.w	r1, r1, #2147483648	; 0x80000000
 8000758:	f04f 0000 	mov.w	r0, #0
 800075c:	bd70      	pop	{r4, r5, r6, pc}
 800075e:	ea50 0641 	orrs.w	r6, r0, r1, lsl #1
 8000762:	bf06      	itte	eq
 8000764:	4610      	moveq	r0, r2
 8000766:	4619      	moveq	r1, r3
 8000768:	ea52 0643 	orrsne.w	r6, r2, r3, lsl #1
 800076c:	d019      	beq.n	80007a2 <__aeabi_dmul+0x24a>
 800076e:	ea94 0f0c 	teq	r4, ip
 8000772:	d102      	bne.n	800077a <__aeabi_dmul+0x222>
 8000774:	ea50 3601 	orrs.w	r6, r0, r1, lsl #12
 8000778:	d113      	bne.n	80007a2 <__aeabi_dmul+0x24a>
 800077a:	ea95 0f0c 	teq	r5, ip
 800077e:	d105      	bne.n	800078c <__aeabi_dmul+0x234>
 8000780:	ea52 3603 	orrs.w	r6, r2, r3, lsl #12
 8000784:	bf1c      	itt	ne
 8000786:	4610      	movne	r0, r2
 8000788:	4619      	movne	r1, r3
 800078a:	d10a      	bne.n	80007a2 <__aeabi_dmul+0x24a>
 800078c:	ea81 0103 	eor.w	r1, r1, r3
 8000790:	f001 4100 	and.w	r1, r1, #2147483648	; 0x80000000
 8000794:	f041 41fe 	orr.w	r1, r1, #2130706432	; 0x7f000000
 8000798:	f441 0170 	orr.w	r1, r1, #15728640	; 0xf00000
 800079c:	f04f 0000 	mov.w	r0, #0
 80007a0:	bd70      	pop	{r4, r5, r6, pc}
 80007a2:	f041 41fe 	orr.w	r1, r1, #2130706432	; 0x7f000000
 80007a6:	f441 0178 	orr.w	r1, r1, #16252928	; 0xf80000
 80007aa:	bd70      	pop	{r4, r5, r6, pc}

080007ac <__aeabi_ddiv>:
 80007ac:	b570      	push	{r4, r5, r6, lr}
 80007ae:	f04f 0cff 	mov.w	ip, #255	; 0xff
 80007b2:	f44c 6ce0 	orr.w	ip, ip, #1792	; 0x700
 80007b6:	ea1c 5411 	ands.w	r4, ip, r1, lsr #20
 80007ba:	bf1d      	ittte	ne
 80007bc:	ea1c 5513 	andsne.w	r5, ip, r3, lsr #20
 80007c0:	ea94 0f0c 	teqne	r4, ip
 80007c4:	ea95 0f0c 	teqne	r5, ip
 80007c8:	f000 f8a7 	bleq	800091a <__aeabi_ddiv+0x16e>
 80007cc:	eba4 0405 	sub.w	r4, r4, r5
 80007d0:	ea81 0e03 	eor.w	lr, r1, r3
 80007d4:	ea52 3503 	orrs.w	r5, r2, r3, lsl #12
 80007d8:	ea4f 3101 	mov.w	r1, r1, lsl #12
 80007dc:	f000 8088 	beq.w	80008f0 <__aeabi_ddiv+0x144>
 80007e0:	ea4f 3303 	mov.w	r3, r3, lsl #12
 80007e4:	f04f 5580 	mov.w	r5, #268435456	; 0x10000000
 80007e8:	ea45 1313 	orr.w	r3, r5, r3, lsr #4
 80007ec:	ea43 6312 	orr.w	r3, r3, r2, lsr #24
 80007f0:	ea4f 2202 	mov.w	r2, r2, lsl #8
 80007f4:	ea45 1511 	orr.w	r5, r5, r1, lsr #4
 80007f8:	ea45 6510 	orr.w	r5, r5, r0, lsr #24
 80007fc:	ea4f 2600 	mov.w	r6, r0, lsl #8
 8000800:	f00e 4100 	and.w	r1, lr, #2147483648	; 0x80000000
 8000804:	429d      	cmp	r5, r3
 8000806:	bf08      	it	eq
 8000808:	4296      	cmpeq	r6, r2
 800080a:	f144 04fd 	adc.w	r4, r4, #253	; 0xfd
 800080e:	f504 7440 	add.w	r4, r4, #768	; 0x300
 8000812:	d202      	bcs.n	800081a <__aeabi_ddiv+0x6e>
 8000814:	085b      	lsrs	r3, r3, #1
 8000816:	ea4f 0232 	mov.w	r2, r2, rrx
 800081a:	1ab6      	subs	r6, r6, r2
 800081c:	eb65 0503 	sbc.w	r5, r5, r3
 8000820:	085b      	lsrs	r3, r3, #1
 8000822:	ea4f 0232 	mov.w	r2, r2, rrx
 8000826:	f44f 1080 	mov.w	r0, #1048576	; 0x100000
 800082a:	f44f 2c00 	mov.w	ip, #524288	; 0x80000
 800082e:	ebb6 0e02 	subs.w	lr, r6, r2
 8000832:	eb75 0e03 	sbcs.w	lr, r5, r3
 8000836:	bf22      	ittt	cs
 8000838:	1ab6      	subcs	r6, r6, r2
 800083a:	4675      	movcs	r5, lr
 800083c:	ea40 000c 	orrcs.w	r0, r0, ip
 8000840:	085b      	lsrs	r3, r3, #1
 8000842:	ea4f 0232 	mov.w	r2, r2, rrx
 8000846:	ebb6 0e02 	subs.w	lr, r6, r2
 800084a:	eb75 0e03 	sbcs.w	lr, r5, r3
 800084e:	bf22      	ittt	cs
 8000850:	1ab6      	subcs	r6, r6, r2
 8000852:	4675      	movcs	r5, lr
 8000854:	ea40 005c 	orrcs.w	r0, r0, ip, lsr #1
 8000858:	085b      	lsrs	r3, r3, #1
 800085a:	ea4f 0232 	mov.w	r2, r2, rrx
 800085e:	ebb6 0e02 	subs.w	lr, r6, r2
 8000862:	eb75 0e03 	sbcs.w	lr, r5, r3
 8000866:	bf22      	ittt	cs
 8000868:	1ab6      	subcs	r6, r6, r2
 800086a:	4675      	movcs	r5, lr
 800086c:	ea40 009c 	orrcs.w	r0, r0, ip, lsr #2
 8000870:	085b      	lsrs	r3, r3, #1
 8000872:	ea4f 0232 	mov.w	r2, r2, rrx
 8000876:	ebb6 0e02 	subs.w	lr, r6, r2
 800087a:	eb75 0e03 	sbcs.w	lr, r5, r3
 800087e:	bf22      	ittt	cs
 8000880:	1ab6      	subcs	r6, r6, r2
 8000882:	4675      	movcs	r5, lr
 8000884:	ea40 00dc 	orrcs.w	r0, r0, ip, lsr #3
 8000888:	ea55 0e06 	orrs.w	lr, r5, r6
 800088c:	d018      	beq.n	80008c0 <__aeabi_ddiv+0x114>
 800088e:	ea4f 1505 	mov.w	r5, r5, lsl #4
 8000892:	ea45 7516 	orr.w	r5, r5, r6, lsr #28
 8000896:	ea4f 1606 	mov.w	r6, r6, lsl #4
 800089a:	ea4f 03c3 	mov.w	r3, r3, lsl #3
 800089e:	ea43 7352 	orr.w	r3, r3, r2, lsr #29
 80008a2:	ea4f 02c2 	mov.w	r2, r2, lsl #3
 80008a6:	ea5f 1c1c 	movs.w	ip, ip, lsr #4
 80008aa:	d1c0      	bne.n	800082e <__aeabi_ddiv+0x82>
 80008ac:	f411 1f80 	tst.w	r1, #1048576	; 0x100000
 80008b0:	d10b      	bne.n	80008ca <__aeabi_ddiv+0x11e>
 80008b2:	ea41 0100 	orr.w	r1, r1, r0
 80008b6:	f04f 0000 	mov.w	r0, #0
 80008ba:	f04f 4c00 	mov.w	ip, #2147483648	; 0x80000000
 80008be:	e7b6      	b.n	800082e <__aeabi_ddiv+0x82>
 80008c0:	f411 1f80 	tst.w	r1, #1048576	; 0x100000
 80008c4:	bf04      	itt	eq
 80008c6:	4301      	orreq	r1, r0
 80008c8:	2000      	moveq	r0, #0
 80008ca:	f1b4 0cfd 	subs.w	ip, r4, #253	; 0xfd
 80008ce:	bf88      	it	hi
 80008d0:	f5bc 6fe0 	cmphi.w	ip, #1792	; 0x700
 80008d4:	f63f aeaf 	bhi.w	8000636 <__aeabi_dmul+0xde>
 80008d8:	ebb5 0c03 	subs.w	ip, r5, r3
 80008dc:	bf04      	itt	eq
 80008de:	ebb6 0c02 	subseq.w	ip, r6, r2
 80008e2:	ea5f 0c50 	movseq.w	ip, r0, lsr #1
 80008e6:	f150 0000 	adcs.w	r0, r0, #0
 80008ea:	eb41 5104 	adc.w	r1, r1, r4, lsl #20
 80008ee:	bd70      	pop	{r4, r5, r6, pc}
 80008f0:	f00e 4e00 	and.w	lr, lr, #2147483648	; 0x80000000
 80008f4:	ea4e 3111 	orr.w	r1, lr, r1, lsr #12
 80008f8:	eb14 045c 	adds.w	r4, r4, ip, lsr #1
 80008fc:	bfc2      	ittt	gt
 80008fe:	ebd4 050c 	rsbsgt	r5, r4, ip
 8000902:	ea41 5104 	orrgt.w	r1, r1, r4, lsl #20
 8000906:	bd70      	popgt	{r4, r5, r6, pc}
 8000908:	f441 1180 	orr.w	r1, r1, #1048576	; 0x100000
 800090c:	f04f 0e00 	mov.w	lr, #0
 8000910:	3c01      	subs	r4, #1
 8000912:	e690      	b.n	8000636 <__aeabi_dmul+0xde>
 8000914:	ea45 0e06 	orr.w	lr, r5, r6
 8000918:	e68d      	b.n	8000636 <__aeabi_dmul+0xde>
 800091a:	ea0c 5513 	and.w	r5, ip, r3, lsr #20
 800091e:	ea94 0f0c 	teq	r4, ip
 8000922:	bf08      	it	eq
 8000924:	ea95 0f0c 	teqeq	r5, ip
 8000928:	f43f af3b 	beq.w	80007a2 <__aeabi_dmul+0x24a>
 800092c:	ea94 0f0c 	teq	r4, ip
 8000930:	d10a      	bne.n	8000948 <__aeabi_ddiv+0x19c>
 8000932:	ea50 3401 	orrs.w	r4, r0, r1, lsl #12
 8000936:	f47f af34 	bne.w	80007a2 <__aeabi_dmul+0x24a>
 800093a:	ea95 0f0c 	teq	r5, ip
 800093e:	f47f af25 	bne.w	800078c <__aeabi_dmul+0x234>
 8000942:	4610      	mov	r0, r2
 8000944:	4619      	mov	r1, r3
 8000946:	e72c      	b.n	80007a2 <__aeabi_dmul+0x24a>
 8000948:	ea95 0f0c 	teq	r5, ip
 800094c:	d106      	bne.n	800095c <__aeabi_ddiv+0x1b0>
 800094e:	ea52 3503 	orrs.w	r5, r2, r3, lsl #12
 8000952:	f43f aefd 	beq.w	8000750 <__aeabi_dmul+0x1f8>
 8000956:	4610      	mov	r0, r2
 8000958:	4619      	mov	r1, r3
 800095a:	e722      	b.n	80007a2 <__aeabi_dmul+0x24a>
 800095c:	ea50 0641 	orrs.w	r6, r0, r1, lsl #1
 8000960:	bf18      	it	ne
 8000962:	ea52 0643 	orrsne.w	r6, r2, r3, lsl #1
 8000966:	f47f aec5 	bne.w	80006f4 <__aeabi_dmul+0x19c>
 800096a:	ea50 0441 	orrs.w	r4, r0, r1, lsl #1
 800096e:	f47f af0d 	bne.w	800078c <__aeabi_dmul+0x234>
 8000972:	ea52 0543 	orrs.w	r5, r2, r3, lsl #1
 8000976:	f47f aeeb 	bne.w	8000750 <__aeabi_dmul+0x1f8>
 800097a:	e712      	b.n	80007a2 <__aeabi_dmul+0x24a>

0800097c <__gedf2>:
 800097c:	f04f 3cff 	mov.w	ip, #4294967295
 8000980:	e006      	b.n	8000990 <__cmpdf2+0x4>
 8000982:	bf00      	nop

08000984 <__ledf2>:
 8000984:	f04f 0c01 	mov.w	ip, #1
 8000988:	e002      	b.n	8000990 <__cmpdf2+0x4>
 800098a:	bf00      	nop

0800098c <__cmpdf2>:
 800098c:	f04f 0c01 	mov.w	ip, #1
 8000990:	f84d cd04 	str.w	ip, [sp, #-4]!
 8000994:	ea4f 0c41 	mov.w	ip, r1, lsl #1
 8000998:	ea7f 5c6c 	mvns.w	ip, ip, asr #21
 800099c:	ea4f 0c43 	mov.w	ip, r3, lsl #1
 80009a0:	bf18      	it	ne
 80009a2:	ea7f 5c6c 	mvnsne.w	ip, ip, asr #21
 80009a6:	d01b      	beq.n	80009e0 <__cmpdf2+0x54>
 80009a8:	b001      	add	sp, #4
 80009aa:	ea50 0c41 	orrs.w	ip, r0, r1, lsl #1
 80009ae:	bf0c      	ite	eq
 80009b0:	ea52 0c43 	orrseq.w	ip, r2, r3, lsl #1
 80009b4:	ea91 0f03 	teqne	r1, r3
 80009b8:	bf02      	ittt	eq
 80009ba:	ea90 0f02 	teqeq	r0, r2
 80009be:	2000      	moveq	r0, #0
 80009c0:	4770      	bxeq	lr
 80009c2:	f110 0f00 	cmn.w	r0, #0
 80009c6:	ea91 0f03 	teq	r1, r3
 80009ca:	bf58      	it	pl
 80009cc:	4299      	cmppl	r1, r3
 80009ce:	bf08      	it	eq
 80009d0:	4290      	cmpeq	r0, r2
 80009d2:	bf2c      	ite	cs
 80009d4:	17d8      	asrcs	r0, r3, #31
 80009d6:	ea6f 70e3 	mvncc.w	r0, r3, asr #31
 80009da:	f040 0001 	orr.w	r0, r0, #1
 80009de:	4770      	bx	lr
 80009e0:	ea4f 0c41 	mov.w	ip, r1, lsl #1
 80009e4:	ea7f 5c6c 	mvns.w	ip, ip, asr #21
 80009e8:	d102      	bne.n	80009f0 <__cmpdf2+0x64>
 80009ea:	ea50 3c01 	orrs.w	ip, r0, r1, lsl #12
 80009ee:	d107      	bne.n	8000a00 <__cmpdf2+0x74>
 80009f0:	ea4f 0c43 	mov.w	ip, r3, lsl #1
 80009f4:	ea7f 5c6c 	mvns.w	ip, ip, asr #21
 80009f8:	d1d6      	bne.n	80009a8 <__cmpdf2+0x1c>
 80009fa:	ea52 3c03 	orrs.w	ip, r2, r3, lsl #12
 80009fe:	d0d3      	beq.n	80009a8 <__cmpdf2+0x1c>
 8000a00:	f85d 0b04 	ldr.w	r0, [sp], #4
 8000a04:	4770      	bx	lr
 8000a06:	bf00      	nop

08000a08 <__aeabi_cdrcmple>:
 8000a08:	4684      	mov	ip, r0
 8000a0a:	4610      	mov	r0, r2
 8000a0c:	4662      	mov	r2, ip
 8000a0e:	468c      	mov	ip, r1
 8000a10:	4619      	mov	r1, r3
 8000a12:	4663      	mov	r3, ip
 8000a14:	e000      	b.n	8000a18 <__aeabi_cdcmpeq>
 8000a16:	bf00      	nop

08000a18 <__aeabi_cdcmpeq>:
 8000a18:	b501      	push	{r0, lr}
 8000a1a:	f7ff ffb7 	bl	800098c <__cmpdf2>
 8000a1e:	2800      	cmp	r0, #0
 8000a20:	bf48      	it	mi
 8000a22:	f110 0f00 	cmnmi.w	r0, #0
 8000a26:	bd01      	pop	{r0, pc}

08000a28 <__aeabi_dcmpeq>:
 8000a28:	f84d ed08 	str.w	lr, [sp, #-8]!
 8000a2c:	f7ff fff4 	bl	8000a18 <__aeabi_cdcmpeq>
 8000a30:	bf0c      	ite	eq
 8000a32:	2001      	moveq	r0, #1
 8000a34:	2000      	movne	r0, #0
 8000a36:	f85d fb08 	ldr.w	pc, [sp], #8
 8000a3a:	bf00      	nop

08000a3c <__aeabi_dcmplt>:
 8000a3c:	f84d ed08 	str.w	lr, [sp, #-8]!
 8000a40:	f7ff ffea 	bl	8000a18 <__aeabi_cdcmpeq>
 8000a44:	bf34      	ite	cc
 8000a46:	2001      	movcc	r0, #1
 8000a48:	2000      	movcs	r0, #0
 8000a4a:	f85d fb08 	ldr.w	pc, [sp], #8
 8000a4e:	bf00      	nop

08000a50 <__aeabi_dcmple>:
 8000a50:	f84d ed08 	str.w	lr, [sp, #-8]!
 8000a54:	f7ff ffe0 	bl	8000a18 <__aeabi_cdcmpeq>
 8000a58:	bf94      	ite	ls
 8000a5a:	2001      	movls	r0, #1
 8000a5c:	2000      	movhi	r0, #0
 8000a5e:	f85d fb08 	ldr.w	pc, [sp], #8
 8000a62:	bf00      	nop

08000a64 <__aeabi_dcmpge>:
 8000a64:	f84d ed08 	str.w	lr, [sp, #-8]!
 8000a68:	f7ff ffce 	bl	8000a08 <__aeabi_cdrcmple>
 8000a6c:	bf94      	ite	ls
 8000a6e:	2001      	movls	r0, #1
 8000a70:	2000      	movhi	r0, #0
 8000a72:	f85d fb08 	ldr.w	pc, [sp], #8
 8000a76:	bf00      	nop

08000a78 <__aeabi_dcmpgt>:
 8000a78:	f84d ed08 	str.w	lr, [sp, #-8]!
 8000a7c:	f7ff ffc4 	bl	8000a08 <__aeabi_cdrcmple>
 8000a80:	bf34      	ite	cc
 8000a82:	2001      	movcc	r0, #1
 8000a84:	2000      	movcs	r0, #0
 8000a86:	f85d fb08 	ldr.w	pc, [sp], #8
 8000a8a:	bf00      	nop

08000a8c <__aeabi_d2iz>:
 8000a8c:	ea4f 0241 	mov.w	r2, r1, lsl #1
 8000a90:	f512 1200 	adds.w	r2, r2, #2097152	; 0x200000
 8000a94:	d215      	bcs.n	8000ac2 <__aeabi_d2iz+0x36>
 8000a96:	d511      	bpl.n	8000abc <__aeabi_d2iz+0x30>
 8000a98:	f46f 7378 	mvn.w	r3, #992	; 0x3e0
 8000a9c:	ebb3 5262 	subs.w	r2, r3, r2, asr #21
 8000aa0:	d912      	bls.n	8000ac8 <__aeabi_d2iz+0x3c>
 8000aa2:	ea4f 23c1 	mov.w	r3, r1, lsl #11
 8000aa6:	f043 4300 	orr.w	r3, r3, #2147483648	; 0x80000000
 8000aaa:	ea43 5350 	orr.w	r3, r3, r0, lsr #21
 8000aae:	f011 4f00 	tst.w	r1, #2147483648	; 0x80000000
 8000ab2:	fa23 f002 	lsr.w	r0, r3, r2
 8000ab6:	bf18      	it	ne
 8000ab8:	4240      	negne	r0, r0
 8000aba:	4770      	bx	lr
 8000abc:	f04f 0000 	mov.w	r0, #0
 8000ac0:	4770      	bx	lr
 8000ac2:	ea50 3001 	orrs.w	r0, r0, r1, lsl #12
 8000ac6:	d105      	bne.n	8000ad4 <__aeabi_d2iz+0x48>
 8000ac8:	f011 4000 	ands.w	r0, r1, #2147483648	; 0x80000000
 8000acc:	bf08      	it	eq
 8000ace:	f06f 4000 	mvneq.w	r0, #2147483648	; 0x80000000
 8000ad2:	4770      	bx	lr
 8000ad4:	f04f 0000 	mov.w	r0, #0
 8000ad8:	4770      	bx	lr
 8000ada:	bf00      	nop

08000adc <__aeabi_d2uiz>:
 8000adc:	004a      	lsls	r2, r1, #1
 8000ade:	d211      	bcs.n	8000b04 <__aeabi_d2uiz+0x28>
 8000ae0:	f512 1200 	adds.w	r2, r2, #2097152	; 0x200000
 8000ae4:	d211      	bcs.n	8000b0a <__aeabi_d2uiz+0x2e>
 8000ae6:	d50d      	bpl.n	8000b04 <__aeabi_d2uiz+0x28>
 8000ae8:	f46f 7378 	mvn.w	r3, #992	; 0x3e0
 8000aec:	ebb3 5262 	subs.w	r2, r3, r2, asr #21
 8000af0:	d40e      	bmi.n	8000b10 <__aeabi_d2uiz+0x34>
 8000af2:	ea4f 23c1 	mov.w	r3, r1, lsl #11
 8000af6:	f043 4300 	orr.w	r3, r3, #2147483648	; 0x80000000
 8000afa:	ea43 5350 	orr.w	r3, r3, r0, lsr #21
 8000afe:	fa23 f002 	lsr.w	r0, r3, r2
 8000b02:	4770      	bx	lr
 8000b04:	f04f 0000 	mov.w	r0, #0
 8000b08:	4770      	bx	lr
 8000b0a:	ea50 3001 	orrs.w	r0, r0, r1, lsl #12
 8000b0e:	d102      	bne.n	8000b16 <__aeabi_d2uiz+0x3a>
 8000b10:	f04f 30ff 	mov.w	r0, #4294967295
 8000b14:	4770      	bx	lr
 8000b16:	f04f 0000 	mov.w	r0, #0
 8000b1a:	4770      	bx	lr

08000b1c <__aeabi_uldivmod>:
 8000b1c:	b953      	cbnz	r3, 8000b34 <__aeabi_uldivmod+0x18>
 8000b1e:	b94a      	cbnz	r2, 8000b34 <__aeabi_uldivmod+0x18>
 8000b20:	2900      	cmp	r1, #0
 8000b22:	bf08      	it	eq
 8000b24:	2800      	cmpeq	r0, #0
 8000b26:	bf1c      	itt	ne
 8000b28:	f04f 31ff 	movne.w	r1, #4294967295
 8000b2c:	f04f 30ff 	movne.w	r0, #4294967295
 8000b30:	f000 b972 	b.w	8000e18 <__aeabi_idiv0>
 8000b34:	f1ad 0c08 	sub.w	ip, sp, #8
 8000b38:	e96d ce04 	strd	ip, lr, [sp, #-16]!
 8000b3c:	f000 f806 	bl	8000b4c <__udivmoddi4>
 8000b40:	f8dd e004 	ldr.w	lr, [sp, #4]
 8000b44:	e9dd 2302 	ldrd	r2, r3, [sp, #8]
 8000b48:	b004      	add	sp, #16
 8000b4a:	4770      	bx	lr

08000b4c <__udivmoddi4>:
 8000b4c:	e92d 47f0 	stmdb	sp!, {r4, r5, r6, r7, r8, r9, sl, lr}
 8000b50:	9e08      	ldr	r6, [sp, #32]
 8000b52:	4604      	mov	r4, r0
 8000b54:	4688      	mov	r8, r1
 8000b56:	2b00      	cmp	r3, #0
 8000b58:	d14b      	bne.n	8000bf2 <__udivmoddi4+0xa6>
 8000b5a:	428a      	cmp	r2, r1
 8000b5c:	4615      	mov	r5, r2
 8000b5e:	d967      	bls.n	8000c30 <__udivmoddi4+0xe4>
 8000b60:	fab2 f282 	clz	r2, r2
 8000b64:	b14a      	cbz	r2, 8000b7a <__udivmoddi4+0x2e>
 8000b66:	f1c2 0720 	rsb	r7, r2, #32
 8000b6a:	fa01 f302 	lsl.w	r3, r1, r2
 8000b6e:	fa20 f707 	lsr.w	r7, r0, r7
 8000b72:	4095      	lsls	r5, r2
 8000b74:	ea47 0803 	orr.w	r8, r7, r3
 8000b78:	4094      	lsls	r4, r2
 8000b7a:	ea4f 4e15 	mov.w	lr, r5, lsr #16
 8000b7e:	0c23      	lsrs	r3, r4, #16
 8000b80:	fbb8 f7fe 	udiv	r7, r8, lr
 8000b84:	fa1f fc85 	uxth.w	ip, r5
 8000b88:	fb0e 8817 	mls	r8, lr, r7, r8
 8000b8c:	ea43 4308 	orr.w	r3, r3, r8, lsl #16
 8000b90:	fb07 f10c 	mul.w	r1, r7, ip
 8000b94:	4299      	cmp	r1, r3
 8000b96:	d909      	bls.n	8000bac <__udivmoddi4+0x60>
 8000b98:	18eb      	adds	r3, r5, r3
 8000b9a:	f107 30ff 	add.w	r0, r7, #4294967295
 8000b9e:	f080 811b 	bcs.w	8000dd8 <__udivmoddi4+0x28c>
 8000ba2:	4299      	cmp	r1, r3
 8000ba4:	f240 8118 	bls.w	8000dd8 <__udivmoddi4+0x28c>
 8000ba8:	3f02      	subs	r7, #2
 8000baa:	442b      	add	r3, r5
 8000bac:	1a5b      	subs	r3, r3, r1
 8000bae:	b2a4      	uxth	r4, r4
 8000bb0:	fbb3 f0fe 	udiv	r0, r3, lr
 8000bb4:	fb0e 3310 	mls	r3, lr, r0, r3
 8000bb8:	ea44 4403 	orr.w	r4, r4, r3, lsl #16
 8000bbc:	fb00 fc0c 	mul.w	ip, r0, ip
 8000bc0:	45a4      	cmp	ip, r4
 8000bc2:	d909      	bls.n	8000bd8 <__udivmoddi4+0x8c>
 8000bc4:	192c      	adds	r4, r5, r4
 8000bc6:	f100 33ff 	add.w	r3, r0, #4294967295
 8000bca:	f080 8107 	bcs.w	8000ddc <__udivmoddi4+0x290>
 8000bce:	45a4      	cmp	ip, r4
 8000bd0:	f240 8104 	bls.w	8000ddc <__udivmoddi4+0x290>
 8000bd4:	3802      	subs	r0, #2
 8000bd6:	442c      	add	r4, r5
 8000bd8:	ea40 4007 	orr.w	r0, r0, r7, lsl #16
 8000bdc:	eba4 040c 	sub.w	r4, r4, ip
 8000be0:	2700      	movs	r7, #0
 8000be2:	b11e      	cbz	r6, 8000bec <__udivmoddi4+0xa0>
 8000be4:	40d4      	lsrs	r4, r2
 8000be6:	2300      	movs	r3, #0
 8000be8:	e9c6 4300 	strd	r4, r3, [r6]
 8000bec:	4639      	mov	r1, r7
 8000bee:	e8bd 87f0 	ldmia.w	sp!, {r4, r5, r6, r7, r8, r9, sl, pc}
 8000bf2:	428b      	cmp	r3, r1
 8000bf4:	d909      	bls.n	8000c0a <__udivmoddi4+0xbe>
 8000bf6:	2e00      	cmp	r6, #0
 8000bf8:	f000 80eb 	beq.w	8000dd2 <__udivmoddi4+0x286>
 8000bfc:	2700      	movs	r7, #0
 8000bfe:	e9c6 0100 	strd	r0, r1, [r6]
 8000c02:	4638      	mov	r0, r7
 8000c04:	4639      	mov	r1, r7
 8000c06:	e8bd 87f0 	ldmia.w	sp!, {r4, r5, r6, r7, r8, r9, sl, pc}
 8000c0a:	fab3 f783 	clz	r7, r3
 8000c0e:	2f00      	cmp	r7, #0
 8000c10:	d147      	bne.n	8000ca2 <__udivmoddi4+0x156>
 8000c12:	428b      	cmp	r3, r1
 8000c14:	d302      	bcc.n	8000c1c <__udivmoddi4+0xd0>
 8000c16:	4282      	cmp	r2, r0
 8000c18:	f200 80fa 	bhi.w	8000e10 <__udivmoddi4+0x2c4>
 8000c1c:	1a84      	subs	r4, r0, r2
 8000c1e:	eb61 0303 	sbc.w	r3, r1, r3
 8000c22:	2001      	movs	r0, #1
 8000c24:	4698      	mov	r8, r3
 8000c26:	2e00      	cmp	r6, #0
 8000c28:	d0e0      	beq.n	8000bec <__udivmoddi4+0xa0>
 8000c2a:	e9c6 4800 	strd	r4, r8, [r6]
 8000c2e:	e7dd      	b.n	8000bec <__udivmoddi4+0xa0>
 8000c30:	b902      	cbnz	r2, 8000c34 <__udivmoddi4+0xe8>
 8000c32:	deff      	udf	#255	; 0xff
 8000c34:	fab2 f282 	clz	r2, r2
 8000c38:	2a00      	cmp	r2, #0
 8000c3a:	f040 808f 	bne.w	8000d5c <__udivmoddi4+0x210>
 8000c3e:	1b49      	subs	r1, r1, r5
 8000c40:	ea4f 4e15 	mov.w	lr, r5, lsr #16
 8000c44:	fa1f f885 	uxth.w	r8, r5
 8000c48:	2701      	movs	r7, #1
 8000c4a:	fbb1 fcfe 	udiv	ip, r1, lr
 8000c4e:	0c23      	lsrs	r3, r4, #16
 8000c50:	fb0e 111c 	mls	r1, lr, ip, r1
 8000c54:	ea43 4301 	orr.w	r3, r3, r1, lsl #16
 8000c58:	fb08 f10c 	mul.w	r1, r8, ip
 8000c5c:	4299      	cmp	r1, r3
 8000c5e:	d907      	bls.n	8000c70 <__udivmoddi4+0x124>
 8000c60:	18eb      	adds	r3, r5, r3
 8000c62:	f10c 30ff 	add.w	r0, ip, #4294967295
 8000c66:	d202      	bcs.n	8000c6e <__udivmoddi4+0x122>
 8000c68:	4299      	cmp	r1, r3
 8000c6a:	f200 80cd 	bhi.w	8000e08 <__udivmoddi4+0x2bc>
 8000c6e:	4684      	mov	ip, r0
 8000c70:	1a59      	subs	r1, r3, r1
 8000c72:	b2a3      	uxth	r3, r4
 8000c74:	fbb1 f0fe 	udiv	r0, r1, lr
 8000c78:	fb0e 1410 	mls	r4, lr, r0, r1
 8000c7c:	ea43 4404 	orr.w	r4, r3, r4, lsl #16
 8000c80:	fb08 f800 	mul.w	r8, r8, r0
 8000c84:	45a0      	cmp	r8, r4
 8000c86:	d907      	bls.n	8000c98 <__udivmoddi4+0x14c>
 8000c88:	192c      	adds	r4, r5, r4
 8000c8a:	f100 33ff 	add.w	r3, r0, #4294967295
 8000c8e:	d202      	bcs.n	8000c96 <__udivmoddi4+0x14a>
 8000c90:	45a0      	cmp	r8, r4
 8000c92:	f200 80b6 	bhi.w	8000e02 <__udivmoddi4+0x2b6>
 8000c96:	4618      	mov	r0, r3
 8000c98:	eba4 0408 	sub.w	r4, r4, r8
 8000c9c:	ea40 400c 	orr.w	r0, r0, ip, lsl #16
 8000ca0:	e79f      	b.n	8000be2 <__udivmoddi4+0x96>
 8000ca2:	f1c7 0c20 	rsb	ip, r7, #32
 8000ca6:	40bb      	lsls	r3, r7
 8000ca8:	fa22 fe0c 	lsr.w	lr, r2, ip
 8000cac:	ea4e 0e03 	orr.w	lr, lr, r3
 8000cb0:	fa01 f407 	lsl.w	r4, r1, r7
 8000cb4:	fa20 f50c 	lsr.w	r5, r0, ip
 8000cb8:	fa21 f30c 	lsr.w	r3, r1, ip
 8000cbc:	ea4f 481e 	mov.w	r8, lr, lsr #16
 8000cc0:	4325      	orrs	r5, r4
 8000cc2:	fbb3 f9f8 	udiv	r9, r3, r8
 8000cc6:	0c2c      	lsrs	r4, r5, #16
 8000cc8:	fb08 3319 	mls	r3, r8, r9, r3
 8000ccc:	fa1f fa8e 	uxth.w	sl, lr
 8000cd0:	ea44 4303 	orr.w	r3, r4, r3, lsl #16
 8000cd4:	fb09 f40a 	mul.w	r4, r9, sl
 8000cd8:	429c      	cmp	r4, r3
 8000cda:	fa02 f207 	lsl.w	r2, r2, r7
 8000cde:	fa00 f107 	lsl.w	r1, r0, r7
 8000ce2:	d90b      	bls.n	8000cfc <__udivmoddi4+0x1b0>
 8000ce4:	eb1e 0303 	adds.w	r3, lr, r3
 8000ce8:	f109 30ff 	add.w	r0, r9, #4294967295
 8000cec:	f080 8087 	bcs.w	8000dfe <__udivmoddi4+0x2b2>
 8000cf0:	429c      	cmp	r4, r3
 8000cf2:	f240 8084 	bls.w	8000dfe <__udivmoddi4+0x2b2>
 8000cf6:	f1a9 0902 	sub.w	r9, r9, #2
 8000cfa:	4473      	add	r3, lr
 8000cfc:	1b1b      	subs	r3, r3, r4
 8000cfe:	b2ad      	uxth	r5, r5
 8000d00:	fbb3 f0f8 	udiv	r0, r3, r8
 8000d04:	fb08 3310 	mls	r3, r8, r0, r3
 8000d08:	ea45 4403 	orr.w	r4, r5, r3, lsl #16
 8000d0c:	fb00 fa0a 	mul.w	sl, r0, sl
 8000d10:	45a2      	cmp	sl, r4
 8000d12:	d908      	bls.n	8000d26 <__udivmoddi4+0x1da>
 8000d14:	eb1e 0404 	adds.w	r4, lr, r4
 8000d18:	f100 33ff 	add.w	r3, r0, #4294967295
 8000d1c:	d26b      	bcs.n	8000df6 <__udivmoddi4+0x2aa>
 8000d1e:	45a2      	cmp	sl, r4
 8000d20:	d969      	bls.n	8000df6 <__udivmoddi4+0x2aa>
 8000d22:	3802      	subs	r0, #2
 8000d24:	4474      	add	r4, lr
 8000d26:	ea40 4009 	orr.w	r0, r0, r9, lsl #16
 8000d2a:	fba0 8902 	umull	r8, r9, r0, r2
 8000d2e:	eba4 040a 	sub.w	r4, r4, sl
 8000d32:	454c      	cmp	r4, r9
 8000d34:	46c2      	mov	sl, r8
 8000d36:	464b      	mov	r3, r9
 8000d38:	d354      	bcc.n	8000de4 <__udivmoddi4+0x298>
 8000d3a:	d051      	beq.n	8000de0 <__udivmoddi4+0x294>
 8000d3c:	2e00      	cmp	r6, #0
 8000d3e:	d069      	beq.n	8000e14 <__udivmoddi4+0x2c8>
 8000d40:	ebb1 050a 	subs.w	r5, r1, sl
 8000d44:	eb64 0403 	sbc.w	r4, r4, r3
 8000d48:	fa04 fc0c 	lsl.w	ip, r4, ip
 8000d4c:	40fd      	lsrs	r5, r7
 8000d4e:	40fc      	lsrs	r4, r7
 8000d50:	ea4c 0505 	orr.w	r5, ip, r5
 8000d54:	e9c6 5400 	strd	r5, r4, [r6]
 8000d58:	2700      	movs	r7, #0
 8000d5a:	e747      	b.n	8000bec <__udivmoddi4+0xa0>
 8000d5c:	f1c2 0320 	rsb	r3, r2, #32
 8000d60:	fa20 f703 	lsr.w	r7, r0, r3
 8000d64:	4095      	lsls	r5, r2
 8000d66:	fa01 f002 	lsl.w	r0, r1, r2
 8000d6a:	fa21 f303 	lsr.w	r3, r1, r3
 8000d6e:	ea4f 4e15 	mov.w	lr, r5, lsr #16
 8000d72:	4338      	orrs	r0, r7
 8000d74:	0c01      	lsrs	r1, r0, #16
 8000d76:	fbb3 f7fe 	udiv	r7, r3, lr
 8000d7a:	fa1f f885 	uxth.w	r8, r5
 8000d7e:	fb0e 3317 	mls	r3, lr, r7, r3
 8000d82:	ea41 4103 	orr.w	r1, r1, r3, lsl #16
 8000d86:	fb07 f308 	mul.w	r3, r7, r8
 8000d8a:	428b      	cmp	r3, r1
 8000d8c:	fa04 f402 	lsl.w	r4, r4, r2
 8000d90:	d907      	bls.n	8000da2 <__udivmoddi4+0x256>
 8000d92:	1869      	adds	r1, r5, r1
 8000d94:	f107 3cff 	add.w	ip, r7, #4294967295
 8000d98:	d22f      	bcs.n	8000dfa <__udivmoddi4+0x2ae>
 8000d9a:	428b      	cmp	r3, r1
 8000d9c:	d92d      	bls.n	8000dfa <__udivmoddi4+0x2ae>
 8000d9e:	3f02      	subs	r7, #2
 8000da0:	4429      	add	r1, r5
 8000da2:	1acb      	subs	r3, r1, r3
 8000da4:	b281      	uxth	r1, r0
 8000da6:	fbb3 f0fe 	udiv	r0, r3, lr
 8000daa:	fb0e 3310 	mls	r3, lr, r0, r3
 8000dae:	ea41 4103 	orr.w	r1, r1, r3, lsl #16
 8000db2:	fb00 f308 	mul.w	r3, r0, r8
 8000db6:	428b      	cmp	r3, r1
 8000db8:	d907      	bls.n	8000dca <__udivmoddi4+0x27e>
 8000dba:	1869      	adds	r1, r5, r1
 8000dbc:	f100 3cff 	add.w	ip, r0, #4294967295
 8000dc0:	d217      	bcs.n	8000df2 <__udivmoddi4+0x2a6>
 8000dc2:	428b      	cmp	r3, r1
 8000dc4:	d915      	bls.n	8000df2 <__udivmoddi4+0x2a6>
 8000dc6:	3802      	subs	r0, #2
 8000dc8:	4429      	add	r1, r5
 8000dca:	1ac9      	subs	r1, r1, r3
 8000dcc:	ea40 4707 	orr.w	r7, r0, r7, lsl #16
 8000dd0:	e73b      	b.n	8000c4a <__udivmoddi4+0xfe>
 8000dd2:	4637      	mov	r7, r6
 8000dd4:	4630      	mov	r0, r6
 8000dd6:	e709      	b.n	8000bec <__udivmoddi4+0xa0>
 8000dd8:	4607      	mov	r7, r0
 8000dda:	e6e7      	b.n	8000bac <__udivmoddi4+0x60>
 8000ddc:	4618      	mov	r0, r3
 8000dde:	e6fb      	b.n	8000bd8 <__udivmoddi4+0x8c>
 8000de0:	4541      	cmp	r1, r8
 8000de2:	d2ab      	bcs.n	8000d3c <__udivmoddi4+0x1f0>
 8000de4:	ebb8 0a02 	subs.w	sl, r8, r2
 8000de8:	eb69 020e 	sbc.w	r2, r9, lr
 8000dec:	3801      	subs	r0, #1
 8000dee:	4613      	mov	r3, r2
 8000df0:	e7a4      	b.n	8000d3c <__udivmoddi4+0x1f0>
 8000df2:	4660      	mov	r0, ip
 8000df4:	e7e9      	b.n	8000dca <__udivmoddi4+0x27e>
 8000df6:	4618      	mov	r0, r3
 8000df8:	e795      	b.n	8000d26 <__udivmoddi4+0x1da>
 8000dfa:	4667      	mov	r7, ip
 8000dfc:	e7d1      	b.n	8000da2 <__udivmoddi4+0x256>
 8000dfe:	4681      	mov	r9, r0
 8000e00:	e77c      	b.n	8000cfc <__udivmoddi4+0x1b0>
 8000e02:	3802      	subs	r0, #2
 8000e04:	442c      	add	r4, r5
 8000e06:	e747      	b.n	8000c98 <__udivmoddi4+0x14c>
 8000e08:	f1ac 0c02 	sub.w	ip, ip, #2
 8000e0c:	442b      	add	r3, r5
 8000e0e:	e72f      	b.n	8000c70 <__udivmoddi4+0x124>
 8000e10:	4638      	mov	r0, r7
 8000e12:	e708      	b.n	8000c26 <__udivmoddi4+0xda>
 8000e14:	4637      	mov	r7, r6
 8000e16:	e6e9      	b.n	8000bec <__udivmoddi4+0xa0>

08000e18 <__aeabi_idiv0>:
 8000e18:	4770      	bx	lr
 8000e1a:	bf00      	nop

08000e1c <MX_FREERTOS_Init>:
/**
 * @brief  FreeRTOS initialization
 * @param  None
 * @retval None
 */
void MX_FREERTOS_Init(void) {
 8000e1c:	b580      	push	{r7, lr}
 8000e1e:	af00      	add	r7, sp, #0
	/* add mutexes, ... */
	/* USER CODE END RTOS_MUTEX */

	/* Create the semaphores(s) */
	/* creation of PrintSemaphore */
	PrintSemaphoreHandle = osSemaphoreNew(1, 1, &PrintSemaphore_attributes);
 8000e20:	4a14      	ldr	r2, [pc, #80]	; (8000e74 <MX_FREERTOS_Init+0x58>)
 8000e22:	2101      	movs	r1, #1
 8000e24:	2001      	movs	r0, #1
 8000e26:	f004 f91f 	bl	8005068 <osSemaphoreNew>
 8000e2a:	4602      	mov	r2, r0
 8000e2c:	4b12      	ldr	r3, [pc, #72]	; (8000e78 <MX_FREERTOS_Init+0x5c>)
 8000e2e:	601a      	str	r2, [r3, #0]

	/* creation of BinarySem01 */
	BinarySem01Handle = osSemaphoreNew(1, 1, &BinarySem01_attributes);
 8000e30:	4a12      	ldr	r2, [pc, #72]	; (8000e7c <MX_FREERTOS_Init+0x60>)
 8000e32:	2101      	movs	r1, #1
 8000e34:	2001      	movs	r0, #1
 8000e36:	f004 f917 	bl	8005068 <osSemaphoreNew>
 8000e3a:	4602      	mov	r2, r0
 8000e3c:	4b10      	ldr	r3, [pc, #64]	; (8000e80 <MX_FREERTOS_Init+0x64>)
 8000e3e:	601a      	str	r2, [r3, #0]
	/* add queues, ... */
	/* USER CODE END RTOS_QUEUES */

	/* Create the thread(s) */
	/* creation of Led2Task */
	Led2TaskHandle = osThreadNew(StartLed2Task, NULL, &Led2Task_attributes);
 8000e40:	4a10      	ldr	r2, [pc, #64]	; (8000e84 <MX_FREERTOS_Init+0x68>)
 8000e42:	2100      	movs	r1, #0
 8000e44:	4810      	ldr	r0, [pc, #64]	; (8000e88 <MX_FREERTOS_Init+0x6c>)
 8000e46:	f004 f83b 	bl	8004ec0 <osThreadNew>
 8000e4a:	4602      	mov	r2, r0
 8000e4c:	4b0f      	ldr	r3, [pc, #60]	; (8000e8c <MX_FREERTOS_Init+0x70>)
 8000e4e:	601a      	str	r2, [r3, #0]

	/* creation of Led3Task */
	Led3TaskHandle = osThreadNew(StartLed3Task, NULL, &Led3Task_attributes);
 8000e50:	4a0f      	ldr	r2, [pc, #60]	; (8000e90 <MX_FREERTOS_Init+0x74>)
 8000e52:	2100      	movs	r1, #0
 8000e54:	480f      	ldr	r0, [pc, #60]	; (8000e94 <MX_FREERTOS_Init+0x78>)
 8000e56:	f004 f833 	bl	8004ec0 <osThreadNew>
 8000e5a:	4602      	mov	r2, r0
 8000e5c:	4b0e      	ldr	r3, [pc, #56]	; (8000e98 <MX_FREERTOS_Init+0x7c>)
 8000e5e:	601a      	str	r2, [r3, #0]

	/* creation of Led4Task */
	Led4TaskHandle = osThreadNew(StartLed4Task, NULL, &Led4Task_attributes);
 8000e60:	4a0e      	ldr	r2, [pc, #56]	; (8000e9c <MX_FREERTOS_Init+0x80>)
 8000e62:	2100      	movs	r1, #0
 8000e64:	480e      	ldr	r0, [pc, #56]	; (8000ea0 <MX_FREERTOS_Init+0x84>)
 8000e66:	f004 f82b 	bl	8004ec0 <osThreadNew>
 8000e6a:	4602      	mov	r2, r0
 8000e6c:	4b0d      	ldr	r3, [pc, #52]	; (8000ea4 <MX_FREERTOS_Init+0x88>)
 8000e6e:	601a      	str	r2, [r3, #0]

	/* USER CODE BEGIN RTOS_EVENTS */
	/* add events, ... */
	/* USER CODE END RTOS_EVENTS */

}
 8000e70:	bf00      	nop
 8000e72:	bd80      	pop	{r7, pc}
 8000e74:	08008598 	.word	0x08008598
 8000e78:	20004944 	.word	0x20004944
 8000e7c:	080085a8 	.word	0x080085a8
 8000e80:	20004938 	.word	0x20004938
 8000e84:	0800852c 	.word	0x0800852c
 8000e88:	08000ea9 	.word	0x08000ea9
 8000e8c:	20004934 	.word	0x20004934
 8000e90:	08008550 	.word	0x08008550
 8000e94:	08000ee1 	.word	0x08000ee1
 8000e98:	20004940 	.word	0x20004940
 8000e9c:	08008574 	.word	0x08008574
 8000ea0:	08000f55 	.word	0x08000f55
 8000ea4:	2000493c 	.word	0x2000493c

08000ea8 <StartLed2Task>:
 * @brief  Function implementing the Led2Task thread.
 * @param  argument: Not used
 * @retval None
 */
/* USER CODE END Header_StartLed2Task */
void StartLed2Task(void *argument) {
 8000ea8:	b580      	push	{r7, lr}
 8000eaa:	b084      	sub	sp, #16
 8000eac:	af00      	add	r7, sp, #0
 8000eae:	6078      	str	r0, [r7, #4]
	/* USER CODE BEGIN StartLed2Task */
	uint32_t tick;

	tick = osKernelGetTickCount();        // retrieve the number of system ticks
 8000eb0:	f003 ffde 	bl	8004e70 <osKernelGetTickCount>
 8000eb4:	60f8      	str	r0, [r7, #12]
	/* Infinite loop */
	for (;;) {
		printf("Led2 Task Enter \n\r");
 8000eb6:	4807      	ldr	r0, [pc, #28]	; (8000ed4 <StartLed2Task+0x2c>)
 8000eb8:	f001 fdd0 	bl	8002a5c <printf_>
		HAL_GPIO_TogglePin(LD2_GPIO_Port, LD2_Pin);
 8000ebc:	2120      	movs	r1, #32
 8000ebe:	4806      	ldr	r0, [pc, #24]	; (8000ed8 <StartLed2Task+0x30>)
 8000ec0:	f002 fbd1 	bl	8003666 <HAL_GPIO_TogglePin>
		printf("Led2 Task Exit \n\r");
 8000ec4:	4805      	ldr	r0, [pc, #20]	; (8000edc <StartLed2Task+0x34>)
 8000ec6:	f001 fdc9 	bl	8002a5c <printf_>
		osDelay(1000);
 8000eca:	f44f 707a 	mov.w	r0, #1000	; 0x3e8
 8000ece:	f004 f89d 	bl	800500c <osDelay>
		printf("Led2 Task Enter \n\r");
 8000ed2:	e7f0      	b.n	8000eb6 <StartLed2Task+0xe>
 8000ed4:	08008438 	.word	0x08008438
 8000ed8:	40020000 	.word	0x40020000
 8000edc:	0800844c 	.word	0x0800844c

08000ee0 <StartLed3Task>:
 * @brief Function implementing the Led3Task thread.
 * @param argument: Not used
 * @retval None
 */
/* USER CODE END Header_StartLed3Task */
void StartLed3Task(void *argument) {
 8000ee0:	b580      	push	{r7, lr}
 8000ee2:	b084      	sub	sp, #16
 8000ee4:	af00      	add	r7, sp, #0
 8000ee6:	6078      	str	r0, [r7, #4]
	/* USER CODE BEGIN StartLed3Task */
	uint32_t tick;

	tick = osKernelGetTickCount();        // retrieve the number of system ticks
 8000ee8:	f003 ffc2 	bl	8004e70 <osKernelGetTickCount>
 8000eec:	60f8      	str	r0, [r7, #12]
	tick = xTaskGetTickCount();
 8000eee:	f005 fdcd 	bl	8006a8c <xTaskGetTickCount>
 8000ef2:	60f8      	str	r0, [r7, #12]
	/* Infinite loop */
	for (;;) {
		printf("Led3 Task Enter \n\r");
 8000ef4:	4811      	ldr	r0, [pc, #68]	; (8000f3c <StartLed3Task+0x5c>)
 8000ef6:	f001 fdb1 	bl	8002a5c <printf_>

		printf("Led3 Semaphore Wait n\r");
 8000efa:	4811      	ldr	r0, [pc, #68]	; (8000f40 <StartLed3Task+0x60>)
 8000efc:	f001 fdae 	bl	8002a5c <printf_>
		if (osOK == osSemaphoreAcquire(BinarySem01Handle, osWaitForever))
 8000f00:	4b10      	ldr	r3, [pc, #64]	; (8000f44 <StartLed3Task+0x64>)
 8000f02:	681b      	ldr	r3, [r3, #0]
 8000f04:	f04f 31ff 	mov.w	r1, #4294967295
 8000f08:	4618      	mov	r0, r3
 8000f0a:	f004 f94b 	bl	80051a4 <osSemaphoreAcquire>
 8000f0e:	4603      	mov	r3, r0
 8000f10:	2b00      	cmp	r3, #0
 8000f12:	d106      	bne.n	8000f22 <StartLed3Task+0x42>
		{
			printf("Led3 Semaphore Taken n\r");
 8000f14:	480c      	ldr	r0, [pc, #48]	; (8000f48 <StartLed3Task+0x68>)
 8000f16:	f001 fda1 	bl	8002a5c <printf_>
			HAL_GPIO_TogglePin(LD3_GPIO_Port, LD3_Pin);
 8000f1a:	2140      	movs	r1, #64	; 0x40
 8000f1c:	480b      	ldr	r0, [pc, #44]	; (8000f4c <StartLed3Task+0x6c>)
 8000f1e:	f002 fba2 	bl	8003666 <HAL_GPIO_TogglePin>

		}
		HAL_GPIO_TogglePin(LD3_GPIO_Port, LD3_Pin);
 8000f22:	2140      	movs	r1, #64	; 0x40
 8000f24:	4809      	ldr	r0, [pc, #36]	; (8000f4c <StartLed3Task+0x6c>)
 8000f26:	f002 fb9e 	bl	8003666 <HAL_GPIO_TogglePin>
		printf("Led3 Task Exit \n\r");
 8000f2a:	4809      	ldr	r0, [pc, #36]	; (8000f50 <StartLed3Task+0x70>)
 8000f2c:	f001 fd96 	bl	8002a5c <printf_>
		osDelay(1000);
 8000f30:	f44f 707a 	mov.w	r0, #1000	; 0x3e8
 8000f34:	f004 f86a 	bl	800500c <osDelay>
		printf("Led3 Task Enter \n\r");
 8000f38:	e7dc      	b.n	8000ef4 <StartLed3Task+0x14>
 8000f3a:	bf00      	nop
 8000f3c:	08008460 	.word	0x08008460
 8000f40:	08008474 	.word	0x08008474
 8000f44:	20004938 	.word	0x20004938
 8000f48:	0800848c 	.word	0x0800848c
 8000f4c:	40020000 	.word	0x40020000
 8000f50:	080084a4 	.word	0x080084a4

08000f54 <StartLed4Task>:
 * @brief Function implementing the Led4Task thread.
 * @param argument: Not used
 * @retval None
 */
/* USER CODE END Header_StartLed4Task */
void StartLed4Task(void *argument) {
 8000f54:	b580      	push	{r7, lr}
 8000f56:	b084      	sub	sp, #16
 8000f58:	af00      	add	r7, sp, #0
 8000f5a:	6078      	str	r0, [r7, #4]
	/* USER CODE BEGIN StartLed4Task */
	uint32_t tick;

	tick = osKernelGetTickCount();        // retrieve the number of system ticks
 8000f5c:	f003 ff88 	bl	8004e70 <osKernelGetTickCount>
 8000f60:	60f8      	str	r0, [r7, #12]
	/* Infinite loop */
	for (;;) {
		printf("Led4 Task Enter \n\r");
 8000f62:	480d      	ldr	r0, [pc, #52]	; (8000f98 <StartLed4Task+0x44>)
 8000f64:	f001 fd7a 	bl	8002a5c <printf_>

		if (osOK == osSemaphoreRelease(BinarySem01Handle))
 8000f68:	4b0c      	ldr	r3, [pc, #48]	; (8000f9c <StartLed4Task+0x48>)
 8000f6a:	681b      	ldr	r3, [r3, #0]
 8000f6c:	4618      	mov	r0, r3
 8000f6e:	f004 f97f 	bl	8005270 <osSemaphoreRelease>
 8000f72:	4603      	mov	r3, r0
 8000f74:	2b00      	cmp	r3, #0
 8000f76:	d102      	bne.n	8000f7e <StartLed4Task+0x2a>
		{
			printf("Led3 Semaphore Released n\r");
 8000f78:	4809      	ldr	r0, [pc, #36]	; (8000fa0 <StartLed4Task+0x4c>)
 8000f7a:	f001 fd6f 	bl	8002a5c <printf_>
		}

		HAL_GPIO_TogglePin(LD4_GPIO_Port, LD4_Pin);
 8000f7e:	2180      	movs	r1, #128	; 0x80
 8000f80:	4808      	ldr	r0, [pc, #32]	; (8000fa4 <StartLed4Task+0x50>)
 8000f82:	f002 fb70 	bl	8003666 <HAL_GPIO_TogglePin>
		printf("Led4 Task Exit \n\r");
 8000f86:	4808      	ldr	r0, [pc, #32]	; (8000fa8 <StartLed4Task+0x54>)
 8000f88:	f001 fd68 	bl	8002a5c <printf_>
		osDelay(1000);
 8000f8c:	f44f 707a 	mov.w	r0, #1000	; 0x3e8
 8000f90:	f004 f83c 	bl	800500c <osDelay>
		printf("Led4 Task Enter \n\r");
 8000f94:	e7e5      	b.n	8000f62 <StartLed4Task+0xe>
 8000f96:	bf00      	nop
 8000f98:	080084b8 	.word	0x080084b8
 8000f9c:	20004938 	.word	0x20004938
 8000fa0:	080084cc 	.word	0x080084cc
 8000fa4:	40020000 	.word	0x40020000
 8000fa8:	080084e8 	.word	0x080084e8

08000fac <_putchar>:
	/* USER CODE END StartLed4Task */
}

/* Private application code --------------------------------------------------*/
/* USER CODE BEGIN Application */
void _putchar(char character) {
 8000fac:	b580      	push	{r7, lr}
 8000fae:	b082      	sub	sp, #8
 8000fb0:	af00      	add	r7, sp, #0
 8000fb2:	4603      	mov	r3, r0
 8000fb4:	71fb      	strb	r3, [r7, #7]
	osSemaphoreAcquire(PrintSemaphoreHandle, osWaitForever);
 8000fb6:	4b0b      	ldr	r3, [pc, #44]	; (8000fe4 <_putchar+0x38>)
 8000fb8:	681b      	ldr	r3, [r3, #0]
 8000fba:	f04f 31ff 	mov.w	r1, #4294967295
 8000fbe:	4618      	mov	r0, r3
 8000fc0:	f004 f8f0 	bl	80051a4 <osSemaphoreAcquire>
	HAL_UART_Transmit(&huart2, (uint8_t*) &character, 1, 1000);
 8000fc4:	1df9      	adds	r1, r7, #7
 8000fc6:	f44f 737a 	mov.w	r3, #1000	; 0x3e8
 8000fca:	2201      	movs	r2, #1
 8000fcc:	4806      	ldr	r0, [pc, #24]	; (8000fe8 <_putchar+0x3c>)
 8000fce:	f003 fa7e 	bl	80044ce <HAL_UART_Transmit>

	osSemaphoreRelease(PrintSemaphoreHandle);
 8000fd2:	4b04      	ldr	r3, [pc, #16]	; (8000fe4 <_putchar+0x38>)
 8000fd4:	681b      	ldr	r3, [r3, #0]
 8000fd6:	4618      	mov	r0, r3
 8000fd8:	f004 f94a 	bl	8005270 <osSemaphoreRelease>

}
 8000fdc:	bf00      	nop
 8000fde:	3708      	adds	r7, #8
 8000fe0:	46bd      	mov	sp, r7
 8000fe2:	bd80      	pop	{r7, pc}
 8000fe4:	20004944 	.word	0x20004944
 8000fe8:	20004988 	.word	0x20004988

08000fec <MX_GPIO_Init>:
        * Output
        * EVENT_OUT
        * EXTI
*/
void MX_GPIO_Init(void)
{
 8000fec:	b580      	push	{r7, lr}
 8000fee:	b08a      	sub	sp, #40	; 0x28
 8000ff0:	af00      	add	r7, sp, #0

  GPIO_InitTypeDef GPIO_InitStruct = {0};
 8000ff2:	f107 0314 	add.w	r3, r7, #20
 8000ff6:	2200      	movs	r2, #0
 8000ff8:	601a      	str	r2, [r3, #0]
 8000ffa:	605a      	str	r2, [r3, #4]
 8000ffc:	609a      	str	r2, [r3, #8]
 8000ffe:	60da      	str	r2, [r3, #12]
 8001000:	611a      	str	r2, [r3, #16]

  /* GPIO Ports Clock Enable */
  __HAL_RCC_GPIOC_CLK_ENABLE();
 8001002:	2300      	movs	r3, #0
 8001004:	613b      	str	r3, [r7, #16]
 8001006:	4b2d      	ldr	r3, [pc, #180]	; (80010bc <MX_GPIO_Init+0xd0>)
 8001008:	6b1b      	ldr	r3, [r3, #48]	; 0x30
 800100a:	4a2c      	ldr	r2, [pc, #176]	; (80010bc <MX_GPIO_Init+0xd0>)
 800100c:	f043 0304 	orr.w	r3, r3, #4
 8001010:	6313      	str	r3, [r2, #48]	; 0x30
 8001012:	4b2a      	ldr	r3, [pc, #168]	; (80010bc <MX_GPIO_Init+0xd0>)
 8001014:	6b1b      	ldr	r3, [r3, #48]	; 0x30
 8001016:	f003 0304 	and.w	r3, r3, #4
 800101a:	613b      	str	r3, [r7, #16]
 800101c:	693b      	ldr	r3, [r7, #16]
  __HAL_RCC_GPIOH_CLK_ENABLE();
 800101e:	2300      	movs	r3, #0
 8001020:	60fb      	str	r3, [r7, #12]
 8001022:	4b26      	ldr	r3, [pc, #152]	; (80010bc <MX_GPIO_Init+0xd0>)
 8001024:	6b1b      	ldr	r3, [r3, #48]	; 0x30
 8001026:	4a25      	ldr	r2, [pc, #148]	; (80010bc <MX_GPIO_Init+0xd0>)
 8001028:	f043 0380 	orr.w	r3, r3, #128	; 0x80
 800102c:	6313      	str	r3, [r2, #48]	; 0x30
 800102e:	4b23      	ldr	r3, [pc, #140]	; (80010bc <MX_GPIO_Init+0xd0>)
 8001030:	6b1b      	ldr	r3, [r3, #48]	; 0x30
 8001032:	f003 0380 	and.w	r3, r3, #128	; 0x80
 8001036:	60fb      	str	r3, [r7, #12]
 8001038:	68fb      	ldr	r3, [r7, #12]
  __HAL_RCC_GPIOA_CLK_ENABLE();
 800103a:	2300      	movs	r3, #0
 800103c:	60bb      	str	r3, [r7, #8]
 800103e:	4b1f      	ldr	r3, [pc, #124]	; (80010bc <MX_GPIO_Init+0xd0>)
 8001040:	6b1b      	ldr	r3, [r3, #48]	; 0x30
 8001042:	4a1e      	ldr	r2, [pc, #120]	; (80010bc <MX_GPIO_Init+0xd0>)
 8001044:	f043 0301 	orr.w	r3, r3, #1
 8001048:	6313      	str	r3, [r2, #48]	; 0x30
 800104a:	4b1c      	ldr	r3, [pc, #112]	; (80010bc <MX_GPIO_Init+0xd0>)
 800104c:	6b1b      	ldr	r3, [r3, #48]	; 0x30
 800104e:	f003 0301 	and.w	r3, r3, #1
 8001052:	60bb      	str	r3, [r7, #8]
 8001054:	68bb      	ldr	r3, [r7, #8]
  __HAL_RCC_GPIOB_CLK_ENABLE();
 8001056:	2300      	movs	r3, #0
 8001058:	607b      	str	r3, [r7, #4]
 800105a:	4b18      	ldr	r3, [pc, #96]	; (80010bc <MX_GPIO_Init+0xd0>)
 800105c:	6b1b      	ldr	r3, [r3, #48]	; 0x30
 800105e:	4a17      	ldr	r2, [pc, #92]	; (80010bc <MX_GPIO_Init+0xd0>)
 8001060:	f043 0302 	orr.w	r3, r3, #2
 8001064:	6313      	str	r3, [r2, #48]	; 0x30
 8001066:	4b15      	ldr	r3, [pc, #84]	; (80010bc <MX_GPIO_Init+0xd0>)
 8001068:	6b1b      	ldr	r3, [r3, #48]	; 0x30
 800106a:	f003 0302 	and.w	r3, r3, #2
 800106e:	607b      	str	r3, [r7, #4]
 8001070:	687b      	ldr	r3, [r7, #4]

  /*Configure GPIO pin Output Level */
  HAL_GPIO_WritePin(GPIOA, LD2_Pin|LD3_Pin|LD4_Pin, GPIO_PIN_RESET);
 8001072:	2200      	movs	r2, #0
 8001074:	21e0      	movs	r1, #224	; 0xe0
 8001076:	4812      	ldr	r0, [pc, #72]	; (80010c0 <MX_GPIO_Init+0xd4>)
 8001078:	f002 fadc 	bl	8003634 <HAL_GPIO_WritePin>

  /*Configure GPIO pin : PtPin */
  GPIO_InitStruct.Pin = B1_Pin;
 800107c:	f44f 5300 	mov.w	r3, #8192	; 0x2000
 8001080:	617b      	str	r3, [r7, #20]
  GPIO_InitStruct.Mode = GPIO_MODE_IT_FALLING;
 8001082:	4b10      	ldr	r3, [pc, #64]	; (80010c4 <MX_GPIO_Init+0xd8>)
 8001084:	61bb      	str	r3, [r7, #24]
  GPIO_InitStruct.Pull = GPIO_NOPULL;
 8001086:	2300      	movs	r3, #0
 8001088:	61fb      	str	r3, [r7, #28]
  HAL_GPIO_Init(B1_GPIO_Port, &GPIO_InitStruct);
 800108a:	f107 0314 	add.w	r3, r7, #20
 800108e:	4619      	mov	r1, r3
 8001090:	480d      	ldr	r0, [pc, #52]	; (80010c8 <MX_GPIO_Init+0xdc>)
 8001092:	f002 f94d 	bl	8003330 <HAL_GPIO_Init>

  /*Configure GPIO pins : PAPin PAPin PAPin */
  GPIO_InitStruct.Pin = LD2_Pin|LD3_Pin|LD4_Pin;
 8001096:	23e0      	movs	r3, #224	; 0xe0
 8001098:	617b      	str	r3, [r7, #20]
  GPIO_InitStruct.Mode = GPIO_MODE_OUTPUT_PP;
 800109a:	2301      	movs	r3, #1
 800109c:	61bb      	str	r3, [r7, #24]
  GPIO_InitStruct.Pull = GPIO_NOPULL;
 800109e:	2300      	movs	r3, #0
 80010a0:	61fb      	str	r3, [r7, #28]
  GPIO_InitStruct.Speed = GPIO_SPEED_FREQ_LOW;
 80010a2:	2300      	movs	r3, #0
 80010a4:	623b      	str	r3, [r7, #32]
  HAL_GPIO_Init(GPIOA, &GPIO_InitStruct);
 80010a6:	f107 0314 	add.w	r3, r7, #20
 80010aa:	4619      	mov	r1, r3
 80010ac:	4804      	ldr	r0, [pc, #16]	; (80010c0 <MX_GPIO_Init+0xd4>)
 80010ae:	f002 f93f 	bl	8003330 <HAL_GPIO_Init>

}
 80010b2:	bf00      	nop
 80010b4:	3728      	adds	r7, #40	; 0x28
 80010b6:	46bd      	mov	sp, r7
 80010b8:	bd80      	pop	{r7, pc}
 80010ba:	bf00      	nop
 80010bc:	40023800 	.word	0x40023800
 80010c0:	40020000 	.word	0x40020000
 80010c4:	10210000 	.word	0x10210000
 80010c8:	40020800 	.word	0x40020800

080010cc <main>:
/**
  * @brief  The application entry point.
  * @retval int
  */
int main(void)
{
 80010cc:	b580      	push	{r7, lr}
 80010ce:	af00      	add	r7, sp, #0
  /* USER CODE END 1 */

  /* MCU Configuration--------------------------------------------------------*/

  /* Reset of all peripherals, Initializes the Flash interface and the Systick. */
  HAL_Init();
 80010d0:	f001 fe62 	bl	8002d98 <HAL_Init>
  /* USER CODE BEGIN Init */

  /* USER CODE END Init */

  /* Configure the system clock */
  SystemClock_Config();
 80010d4:	f000 f80c 	bl	80010f0 <SystemClock_Config>
  /* USER CODE BEGIN SysInit */

  /* USER CODE END SysInit */

  /* Initialize all configured peripherals */
  MX_GPIO_Init();
 80010d8:	f7ff ff88 	bl	8000fec <MX_GPIO_Init>
  MX_USART2_UART_Init();
 80010dc:	f001 fdc0 	bl	8002c60 <MX_USART2_UART_Init>
  /* USER CODE BEGIN 2 */

  /* USER CODE END 2 */

  /* Init scheduler */
  osKernelInitialize();  /* Call init function for freertos objects (in freertos.c) */
 80010e0:	f003 fe5c 	bl	8004d9c <osKernelInitialize>
  MX_FREERTOS_Init();
 80010e4:	f7ff fe9a 	bl	8000e1c <MX_FREERTOS_Init>
  /* Start scheduler */
  osKernelStart();
 80010e8:	f003 fe8c 	bl	8004e04 <osKernelStart>

  /* We should never get here as control is now taken by the scheduler */
  /* Infinite loop */
  /* USER CODE BEGIN WHILE */
  while (1)
 80010ec:	e7fe      	b.n	80010ec <main+0x20>
	...

080010f0 <SystemClock_Config>:
/**
  * @brief System Clock Configuration
  * @retval None
  */
void SystemClock_Config(void)
{
 80010f0:	b580      	push	{r7, lr}
 80010f2:	b094      	sub	sp, #80	; 0x50
 80010f4:	af00      	add	r7, sp, #0
  RCC_OscInitTypeDef RCC_OscInitStruct = {0};
 80010f6:	f107 0320 	add.w	r3, r7, #32
 80010fa:	2230      	movs	r2, #48	; 0x30
 80010fc:	2100      	movs	r1, #0
 80010fe:	4618      	mov	r0, r3
 8001100:	f007 f963 	bl	80083ca <memset>
  RCC_ClkInitTypeDef RCC_ClkInitStruct = {0};
 8001104:	f107 030c 	add.w	r3, r7, #12
 8001108:	2200      	movs	r2, #0
 800110a:	601a      	str	r2, [r3, #0]
 800110c:	605a      	str	r2, [r3, #4]
 800110e:	609a      	str	r2, [r3, #8]
 8001110:	60da      	str	r2, [r3, #12]
 8001112:	611a      	str	r2, [r3, #16]

  /** Configure the main internal regulator output voltage
  */
  __HAL_RCC_PWR_CLK_ENABLE();
 8001114:	2300      	movs	r3, #0
 8001116:	60bb      	str	r3, [r7, #8]
 8001118:	4b28      	ldr	r3, [pc, #160]	; (80011bc <SystemClock_Config+0xcc>)
 800111a:	6c1b      	ldr	r3, [r3, #64]	; 0x40
 800111c:	4a27      	ldr	r2, [pc, #156]	; (80011bc <SystemClock_Config+0xcc>)
 800111e:	f043 5380 	orr.w	r3, r3, #268435456	; 0x10000000
 8001122:	6413      	str	r3, [r2, #64]	; 0x40
 8001124:	4b25      	ldr	r3, [pc, #148]	; (80011bc <SystemClock_Config+0xcc>)
 8001126:	6c1b      	ldr	r3, [r3, #64]	; 0x40
 8001128:	f003 5380 	and.w	r3, r3, #268435456	; 0x10000000
 800112c:	60bb      	str	r3, [r7, #8]
 800112e:	68bb      	ldr	r3, [r7, #8]
  __HAL_PWR_VOLTAGESCALING_CONFIG(PWR_REGULATOR_VOLTAGE_SCALE1);
 8001130:	2300      	movs	r3, #0
 8001132:	607b      	str	r3, [r7, #4]
 8001134:	4b22      	ldr	r3, [pc, #136]	; (80011c0 <SystemClock_Config+0xd0>)
 8001136:	681b      	ldr	r3, [r3, #0]
 8001138:	4a21      	ldr	r2, [pc, #132]	; (80011c0 <SystemClock_Config+0xd0>)
 800113a:	f443 4340 	orr.w	r3, r3, #49152	; 0xc000
 800113e:	6013      	str	r3, [r2, #0]
 8001140:	4b1f      	ldr	r3, [pc, #124]	; (80011c0 <SystemClock_Config+0xd0>)
 8001142:	681b      	ldr	r3, [r3, #0]
 8001144:	f403 4340 	and.w	r3, r3, #49152	; 0xc000
 8001148:	607b      	str	r3, [r7, #4]
 800114a:	687b      	ldr	r3, [r7, #4]
  /** Initializes the RCC Oscillators according to the specified parameters
  * in the RCC_OscInitTypeDef structure.
  */
  RCC_OscInitStruct.OscillatorType = RCC_OSCILLATORTYPE_HSI;
 800114c:	2302      	movs	r3, #2
 800114e:	623b      	str	r3, [r7, #32]
  RCC_OscInitStruct.HSIState = RCC_HSI_ON;
 8001150:	2301      	movs	r3, #1
 8001152:	62fb      	str	r3, [r7, #44]	; 0x2c
  RCC_OscInitStruct.HSICalibrationValue = RCC_HSICALIBRATION_DEFAULT;
 8001154:	2310      	movs	r3, #16
 8001156:	633b      	str	r3, [r7, #48]	; 0x30
  RCC_OscInitStruct.PLL.PLLState = RCC_PLL_ON;
 8001158:	2302      	movs	r3, #2
 800115a:	63bb      	str	r3, [r7, #56]	; 0x38
  RCC_OscInitStruct.PLL.PLLSource = RCC_PLLSOURCE_HSI;
 800115c:	2300      	movs	r3, #0
 800115e:	63fb      	str	r3, [r7, #60]	; 0x3c
  RCC_OscInitStruct.PLL.PLLM = 16;
 8001160:	2310      	movs	r3, #16
 8001162:	643b      	str	r3, [r7, #64]	; 0x40
  RCC_OscInitStruct.PLL.PLLN = 336;
 8001164:	f44f 73a8 	mov.w	r3, #336	; 0x150
 8001168:	647b      	str	r3, [r7, #68]	; 0x44
  RCC_OscInitStruct.PLL.PLLP = RCC_PLLP_DIV4;
 800116a:	2304      	movs	r3, #4
 800116c:	64bb      	str	r3, [r7, #72]	; 0x48
  RCC_OscInitStruct.PLL.PLLQ = 4;
 800116e:	2304      	movs	r3, #4
 8001170:	64fb      	str	r3, [r7, #76]	; 0x4c
  if (HAL_RCC_OscConfig(&RCC_OscInitStruct) != HAL_OK)
 8001172:	f107 0320 	add.w	r3, r7, #32
 8001176:	4618      	mov	r0, r3
 8001178:	f002 faaa 	bl	80036d0 <HAL_RCC_OscConfig>
 800117c:	4603      	mov	r3, r0
 800117e:	2b00      	cmp	r3, #0
 8001180:	d001      	beq.n	8001186 <SystemClock_Config+0x96>
  {
    Error_Handler();
 8001182:	f000 f831 	bl	80011e8 <Error_Handler>
  }
  /** Initializes the CPU, AHB and APB buses clocks
  */
  RCC_ClkInitStruct.ClockType = RCC_CLOCKTYPE_HCLK|RCC_CLOCKTYPE_SYSCLK
 8001186:	230f      	movs	r3, #15
 8001188:	60fb      	str	r3, [r7, #12]
                              |RCC_CLOCKTYPE_PCLK1|RCC_CLOCKTYPE_PCLK2;
  RCC_ClkInitStruct.SYSCLKSource = RCC_SYSCLKSOURCE_PLLCLK;
 800118a:	2302      	movs	r3, #2
 800118c:	613b      	str	r3, [r7, #16]
  RCC_ClkInitStruct.AHBCLKDivider = RCC_SYSCLK_DIV1;
 800118e:	2300      	movs	r3, #0
 8001190:	617b      	str	r3, [r7, #20]
  RCC_ClkInitStruct.APB1CLKDivider = RCC_HCLK_DIV2;
 8001192:	f44f 5380 	mov.w	r3, #4096	; 0x1000
 8001196:	61bb      	str	r3, [r7, #24]
  RCC_ClkInitStruct.APB2CLKDivider = RCC_HCLK_DIV1;
 8001198:	2300      	movs	r3, #0
 800119a:	61fb      	str	r3, [r7, #28]

  if (HAL_RCC_ClockConfig(&RCC_ClkInitStruct, FLASH_LATENCY_2) != HAL_OK)
 800119c:	f107 030c 	add.w	r3, r7, #12
 80011a0:	2102      	movs	r1, #2
 80011a2:	4618      	mov	r0, r3
 80011a4:	f002 fd04 	bl	8003bb0 <HAL_RCC_ClockConfig>
 80011a8:	4603      	mov	r3, r0
 80011aa:	2b00      	cmp	r3, #0
 80011ac:	d001      	beq.n	80011b2 <SystemClock_Config+0xc2>
  {
    Error_Handler();
 80011ae:	f000 f81b 	bl	80011e8 <Error_Handler>
  }
}
 80011b2:	bf00      	nop
 80011b4:	3750      	adds	r7, #80	; 0x50
 80011b6:	46bd      	mov	sp, r7
 80011b8:	bd80      	pop	{r7, pc}
 80011ba:	bf00      	nop
 80011bc:	40023800 	.word	0x40023800
 80011c0:	40007000 	.word	0x40007000

080011c4 <HAL_TIM_PeriodElapsedCallback>:
  * a global variable "uwTick" used as application time base.
  * @param  htim : TIM handle
  * @retval None
  */
void HAL_TIM_PeriodElapsedCallback(TIM_HandleTypeDef *htim)
{
 80011c4:	b580      	push	{r7, lr}
 80011c6:	b082      	sub	sp, #8
 80011c8:	af00      	add	r7, sp, #0
 80011ca:	6078      	str	r0, [r7, #4]
  /* USER CODE BEGIN Callback 0 */

  /* USER CODE END Callback 0 */
  if (htim->Instance == TIM10) {
 80011cc:	687b      	ldr	r3, [r7, #4]
 80011ce:	681b      	ldr	r3, [r3, #0]
 80011d0:	4a04      	ldr	r2, [pc, #16]	; (80011e4 <HAL_TIM_PeriodElapsedCallback+0x20>)
 80011d2:	4293      	cmp	r3, r2
 80011d4:	d101      	bne.n	80011da <HAL_TIM_PeriodElapsedCallback+0x16>
    HAL_IncTick();
 80011d6:	f001 fe01 	bl	8002ddc <HAL_IncTick>
  }
  /* USER CODE BEGIN Callback 1 */

  /* USER CODE END Callback 1 */
}
 80011da:	bf00      	nop
 80011dc:	3708      	adds	r7, #8
 80011de:	46bd      	mov	sp, r7
 80011e0:	bd80      	pop	{r7, pc}
 80011e2:	bf00      	nop
 80011e4:	40014400 	.word	0x40014400

080011e8 <Error_Handler>:
/**
  * @brief  This function is executed in case of error occurrence.
  * @retval None
  */
void Error_Handler(void)
{
 80011e8:	b480      	push	{r7}
 80011ea:	af00      	add	r7, sp, #0
  \details Disables IRQ interrupts by setting the I-bit in the CPSR.
           Can only be executed in Privileged modes.
 */
__STATIC_FORCEINLINE void __disable_irq(void)
{
  __ASM volatile ("cpsid i" : : : "memory");
 80011ec:	b672      	cpsid	i
  /* USER CODE BEGIN Error_Handler_Debug */
  /* User can add his own implementation to report the HAL error return state */
  __disable_irq();
  while (1)
 80011ee:	e7fe      	b.n	80011ee <Error_Handler+0x6>

080011f0 <_out_null>:
}


// internal null output
static inline void _out_null(char character, void* buffer, size_t idx, size_t maxlen)
{
 80011f0:	b480      	push	{r7}
 80011f2:	b085      	sub	sp, #20
 80011f4:	af00      	add	r7, sp, #0
 80011f6:	60b9      	str	r1, [r7, #8]
 80011f8:	607a      	str	r2, [r7, #4]
 80011fa:	603b      	str	r3, [r7, #0]
 80011fc:	4603      	mov	r3, r0
 80011fe:	73fb      	strb	r3, [r7, #15]
  (void)character; (void)buffer; (void)idx; (void)maxlen;
}
 8001200:	bf00      	nop
 8001202:	3714      	adds	r7, #20
 8001204:	46bd      	mov	sp, r7
 8001206:	f85d 7b04 	ldr.w	r7, [sp], #4
 800120a:	4770      	bx	lr

0800120c <_out_char>:


// internal _putchar wrapper
static inline void _out_char(char character, void* buffer, size_t idx, size_t maxlen)
{
 800120c:	b580      	push	{r7, lr}
 800120e:	b084      	sub	sp, #16
 8001210:	af00      	add	r7, sp, #0
 8001212:	60b9      	str	r1, [r7, #8]
 8001214:	607a      	str	r2, [r7, #4]
 8001216:	603b      	str	r3, [r7, #0]
 8001218:	4603      	mov	r3, r0
 800121a:	73fb      	strb	r3, [r7, #15]
  (void)buffer; (void)idx; (void)maxlen;
  if (character) {
 800121c:	7bfb      	ldrb	r3, [r7, #15]
 800121e:	2b00      	cmp	r3, #0
 8001220:	d003      	beq.n	800122a <_out_char+0x1e>
    _putchar(character);
 8001222:	7bfb      	ldrb	r3, [r7, #15]
 8001224:	4618      	mov	r0, r3
 8001226:	f7ff fec1 	bl	8000fac <_putchar>
  }
}
 800122a:	bf00      	nop
 800122c:	3710      	adds	r7, #16
 800122e:	46bd      	mov	sp, r7
 8001230:	bd80      	pop	{r7, pc}

08001232 <_strnlen_s>:


// internal secure strlen
// \return The length of the string (excluding the terminating 0) limited by 'maxsize'
static inline unsigned int _strnlen_s(const char* str, size_t maxsize)
{
 8001232:	b480      	push	{r7}
 8001234:	b085      	sub	sp, #20
 8001236:	af00      	add	r7, sp, #0
 8001238:	6078      	str	r0, [r7, #4]
 800123a:	6039      	str	r1, [r7, #0]
  const char* s;
  for (s = str; *s && maxsize--; ++s);
 800123c:	687b      	ldr	r3, [r7, #4]
 800123e:	60fb      	str	r3, [r7, #12]
 8001240:	e002      	b.n	8001248 <_strnlen_s+0x16>
 8001242:	68fb      	ldr	r3, [r7, #12]
 8001244:	3301      	adds	r3, #1
 8001246:	60fb      	str	r3, [r7, #12]
 8001248:	68fb      	ldr	r3, [r7, #12]
 800124a:	781b      	ldrb	r3, [r3, #0]
 800124c:	2b00      	cmp	r3, #0
 800124e:	d004      	beq.n	800125a <_strnlen_s+0x28>
 8001250:	683b      	ldr	r3, [r7, #0]
 8001252:	1e5a      	subs	r2, r3, #1
 8001254:	603a      	str	r2, [r7, #0]
 8001256:	2b00      	cmp	r3, #0
 8001258:	d1f3      	bne.n	8001242 <_strnlen_s+0x10>
  return (unsigned int)(s - str);
 800125a:	68fa      	ldr	r2, [r7, #12]
 800125c:	687b      	ldr	r3, [r7, #4]
 800125e:	1ad3      	subs	r3, r2, r3
}
 8001260:	4618      	mov	r0, r3
 8001262:	3714      	adds	r7, #20
 8001264:	46bd      	mov	sp, r7
 8001266:	f85d 7b04 	ldr.w	r7, [sp], #4
 800126a:	4770      	bx	lr

0800126c <_is_digit>:


// internal test if char is a digit (0-9)
// \return true if char is a digit
static inline bool _is_digit(char ch)
{
 800126c:	b480      	push	{r7}
 800126e:	b083      	sub	sp, #12
 8001270:	af00      	add	r7, sp, #0
 8001272:	4603      	mov	r3, r0
 8001274:	71fb      	strb	r3, [r7, #7]
  return (ch >= '0') && (ch <= '9');
 8001276:	79fb      	ldrb	r3, [r7, #7]
 8001278:	2b2f      	cmp	r3, #47	; 0x2f
 800127a:	d904      	bls.n	8001286 <_is_digit+0x1a>
 800127c:	79fb      	ldrb	r3, [r7, #7]
 800127e:	2b39      	cmp	r3, #57	; 0x39
 8001280:	d801      	bhi.n	8001286 <_is_digit+0x1a>
 8001282:	2301      	movs	r3, #1
 8001284:	e000      	b.n	8001288 <_is_digit+0x1c>
 8001286:	2300      	movs	r3, #0
 8001288:	f003 0301 	and.w	r3, r3, #1
 800128c:	b2db      	uxtb	r3, r3
}
 800128e:	4618      	mov	r0, r3
 8001290:	370c      	adds	r7, #12
 8001292:	46bd      	mov	sp, r7
 8001294:	f85d 7b04 	ldr.w	r7, [sp], #4
 8001298:	4770      	bx	lr

0800129a <_atoi>:


// internal ASCII string to unsigned int conversion
static unsigned int _atoi(const char** str)
{
 800129a:	b580      	push	{r7, lr}
 800129c:	b084      	sub	sp, #16
 800129e:	af00      	add	r7, sp, #0
 80012a0:	6078      	str	r0, [r7, #4]
  unsigned int i = 0U;
 80012a2:	2300      	movs	r3, #0
 80012a4:	60fb      	str	r3, [r7, #12]
  while (_is_digit(**str)) {
 80012a6:	e00e      	b.n	80012c6 <_atoi+0x2c>
    i = i * 10U + (unsigned int)(*((*str)++) - '0');
 80012a8:	68fa      	ldr	r2, [r7, #12]
 80012aa:	4613      	mov	r3, r2
 80012ac:	009b      	lsls	r3, r3, #2
 80012ae:	4413      	add	r3, r2
 80012b0:	005b      	lsls	r3, r3, #1
 80012b2:	4618      	mov	r0, r3
 80012b4:	687b      	ldr	r3, [r7, #4]
 80012b6:	681b      	ldr	r3, [r3, #0]
 80012b8:	1c59      	adds	r1, r3, #1
 80012ba:	687a      	ldr	r2, [r7, #4]
 80012bc:	6011      	str	r1, [r2, #0]
 80012be:	781b      	ldrb	r3, [r3, #0]
 80012c0:	4403      	add	r3, r0
 80012c2:	3b30      	subs	r3, #48	; 0x30
 80012c4:	60fb      	str	r3, [r7, #12]
  while (_is_digit(**str)) {
 80012c6:	687b      	ldr	r3, [r7, #4]
 80012c8:	681b      	ldr	r3, [r3, #0]
 80012ca:	781b      	ldrb	r3, [r3, #0]
 80012cc:	4618      	mov	r0, r3
 80012ce:	f7ff ffcd 	bl	800126c <_is_digit>
 80012d2:	4603      	mov	r3, r0
 80012d4:	2b00      	cmp	r3, #0
 80012d6:	d1e7      	bne.n	80012a8 <_atoi+0xe>
  }
  return i;
 80012d8:	68fb      	ldr	r3, [r7, #12]
}
 80012da:	4618      	mov	r0, r3
 80012dc:	3710      	adds	r7, #16
 80012de:	46bd      	mov	sp, r7
 80012e0:	bd80      	pop	{r7, pc}

080012e2 <_out_rev>:


// output the specified string in reverse, taking care of any zero-padding
static size_t _out_rev(out_fct_type out, char* buffer, size_t idx, size_t maxlen, const char* buf, size_t len, unsigned int width, unsigned int flags)
{
 80012e2:	b590      	push	{r4, r7, lr}
 80012e4:	b087      	sub	sp, #28
 80012e6:	af00      	add	r7, sp, #0
 80012e8:	60f8      	str	r0, [r7, #12]
 80012ea:	60b9      	str	r1, [r7, #8]
 80012ec:	607a      	str	r2, [r7, #4]
 80012ee:	603b      	str	r3, [r7, #0]
  const size_t start_idx = idx;
 80012f0:	687b      	ldr	r3, [r7, #4]
 80012f2:	613b      	str	r3, [r7, #16]

  // pad spaces up to given width
  if (!(flags & FLAGS_LEFT) && !(flags & FLAGS_ZEROPAD)) {
 80012f4:	6b7b      	ldr	r3, [r7, #52]	; 0x34
 80012f6:	f003 0302 	and.w	r3, r3, #2
 80012fa:	2b00      	cmp	r3, #0
 80012fc:	d125      	bne.n	800134a <_out_rev+0x68>
 80012fe:	6b7b      	ldr	r3, [r7, #52]	; 0x34
 8001300:	f003 0301 	and.w	r3, r3, #1
 8001304:	2b00      	cmp	r3, #0
 8001306:	d120      	bne.n	800134a <_out_rev+0x68>
    for (size_t i = len; i < width; i++) {
 8001308:	6afb      	ldr	r3, [r7, #44]	; 0x2c
 800130a:	617b      	str	r3, [r7, #20]
 800130c:	e00a      	b.n	8001324 <_out_rev+0x42>
      out(' ', buffer, idx++, maxlen);
 800130e:	687a      	ldr	r2, [r7, #4]
 8001310:	1c53      	adds	r3, r2, #1
 8001312:	607b      	str	r3, [r7, #4]
 8001314:	68fc      	ldr	r4, [r7, #12]
 8001316:	683b      	ldr	r3, [r7, #0]
 8001318:	68b9      	ldr	r1, [r7, #8]
 800131a:	2020      	movs	r0, #32
 800131c:	47a0      	blx	r4
    for (size_t i = len; i < width; i++) {
 800131e:	697b      	ldr	r3, [r7, #20]
 8001320:	3301      	adds	r3, #1
 8001322:	617b      	str	r3, [r7, #20]
 8001324:	697a      	ldr	r2, [r7, #20]
 8001326:	6b3b      	ldr	r3, [r7, #48]	; 0x30
 8001328:	429a      	cmp	r2, r3
 800132a:	d3f0      	bcc.n	800130e <_out_rev+0x2c>
    }
  }

  // reverse string
  while (len) {
 800132c:	e00d      	b.n	800134a <_out_rev+0x68>
    out(buf[--len], buffer, idx++, maxlen);
 800132e:	6afb      	ldr	r3, [r7, #44]	; 0x2c
 8001330:	3b01      	subs	r3, #1
 8001332:	62fb      	str	r3, [r7, #44]	; 0x2c
 8001334:	6aba      	ldr	r2, [r7, #40]	; 0x28
 8001336:	6afb      	ldr	r3, [r7, #44]	; 0x2c
 8001338:	4413      	add	r3, r2
 800133a:	7818      	ldrb	r0, [r3, #0]
 800133c:	687a      	ldr	r2, [r7, #4]
 800133e:	1c53      	adds	r3, r2, #1
 8001340:	607b      	str	r3, [r7, #4]
 8001342:	68fc      	ldr	r4, [r7, #12]
 8001344:	683b      	ldr	r3, [r7, #0]
 8001346:	68b9      	ldr	r1, [r7, #8]
 8001348:	47a0      	blx	r4
  while (len) {
 800134a:	6afb      	ldr	r3, [r7, #44]	; 0x2c
 800134c:	2b00      	cmp	r3, #0
 800134e:	d1ee      	bne.n	800132e <_out_rev+0x4c>
  }

  // append pad spaces up to given width
  if (flags & FLAGS_LEFT) {
 8001350:	6b7b      	ldr	r3, [r7, #52]	; 0x34
 8001352:	f003 0302 	and.w	r3, r3, #2
 8001356:	2b00      	cmp	r3, #0
 8001358:	d00e      	beq.n	8001378 <_out_rev+0x96>
    while (idx - start_idx < width) {
 800135a:	e007      	b.n	800136c <_out_rev+0x8a>
      out(' ', buffer, idx++, maxlen);
 800135c:	687a      	ldr	r2, [r7, #4]
 800135e:	1c53      	adds	r3, r2, #1
 8001360:	607b      	str	r3, [r7, #4]
 8001362:	68fc      	ldr	r4, [r7, #12]
 8001364:	683b      	ldr	r3, [r7, #0]
 8001366:	68b9      	ldr	r1, [r7, #8]
 8001368:	2020      	movs	r0, #32
 800136a:	47a0      	blx	r4
    while (idx - start_idx < width) {
 800136c:	687a      	ldr	r2, [r7, #4]
 800136e:	693b      	ldr	r3, [r7, #16]
 8001370:	1ad3      	subs	r3, r2, r3
 8001372:	6b3a      	ldr	r2, [r7, #48]	; 0x30
 8001374:	429a      	cmp	r2, r3
 8001376:	d8f1      	bhi.n	800135c <_out_rev+0x7a>
    }
  }

  return idx;
 8001378:	687b      	ldr	r3, [r7, #4]
}
 800137a:	4618      	mov	r0, r3
 800137c:	371c      	adds	r7, #28
 800137e:	46bd      	mov	sp, r7
 8001380:	bd90      	pop	{r4, r7, pc}

08001382 <_ntoa_format>:


// internal itoa format
static size_t _ntoa_format(out_fct_type out, char* buffer, size_t idx, size_t maxlen, char* buf, size_t len, bool negative, unsigned int base, unsigned int prec, unsigned int width, unsigned int flags)
{
 8001382:	b580      	push	{r7, lr}
 8001384:	b088      	sub	sp, #32
 8001386:	af04      	add	r7, sp, #16
 8001388:	60f8      	str	r0, [r7, #12]
 800138a:	60b9      	str	r1, [r7, #8]
 800138c:	607a      	str	r2, [r7, #4]
 800138e:	603b      	str	r3, [r7, #0]
  // pad leading zeros
  if (!(flags & FLAGS_LEFT)) {
 8001390:	6b3b      	ldr	r3, [r7, #48]	; 0x30
 8001392:	f003 0302 	and.w	r3, r3, #2
 8001396:	2b00      	cmp	r3, #0
 8001398:	d136      	bne.n	8001408 <_ntoa_format+0x86>
    if (width && (flags & FLAGS_ZEROPAD) && (negative || (flags & (FLAGS_PLUS | FLAGS_SPACE)))) {
 800139a:	6afb      	ldr	r3, [r7, #44]	; 0x2c
 800139c:	2b00      	cmp	r3, #0
 800139e:	d018      	beq.n	80013d2 <_ntoa_format+0x50>
 80013a0:	6b3b      	ldr	r3, [r7, #48]	; 0x30
 80013a2:	f003 0301 	and.w	r3, r3, #1
 80013a6:	2b00      	cmp	r3, #0
 80013a8:	d013      	beq.n	80013d2 <_ntoa_format+0x50>
 80013aa:	f897 3020 	ldrb.w	r3, [r7, #32]
 80013ae:	2b00      	cmp	r3, #0
 80013b0:	d104      	bne.n	80013bc <_ntoa_format+0x3a>
 80013b2:	6b3b      	ldr	r3, [r7, #48]	; 0x30
 80013b4:	f003 030c 	and.w	r3, r3, #12
 80013b8:	2b00      	cmp	r3, #0
 80013ba:	d00a      	beq.n	80013d2 <_ntoa_format+0x50>
      width--;
 80013bc:	6afb      	ldr	r3, [r7, #44]	; 0x2c
 80013be:	3b01      	subs	r3, #1
 80013c0:	62fb      	str	r3, [r7, #44]	; 0x2c
    }
    while ((len < prec) && (len < PRINTF_NTOA_BUFFER_SIZE)) {
 80013c2:	e006      	b.n	80013d2 <_ntoa_format+0x50>
      buf[len++] = '0';
 80013c4:	69fb      	ldr	r3, [r7, #28]
 80013c6:	1c5a      	adds	r2, r3, #1
 80013c8:	61fa      	str	r2, [r7, #28]
 80013ca:	69ba      	ldr	r2, [r7, #24]
 80013cc:	4413      	add	r3, r2
 80013ce:	2230      	movs	r2, #48	; 0x30
 80013d0:	701a      	strb	r2, [r3, #0]
    while ((len < prec) && (len < PRINTF_NTOA_BUFFER_SIZE)) {
 80013d2:	69fa      	ldr	r2, [r7, #28]
 80013d4:	6abb      	ldr	r3, [r7, #40]	; 0x28
 80013d6:	429a      	cmp	r2, r3
 80013d8:	d20a      	bcs.n	80013f0 <_ntoa_format+0x6e>
 80013da:	69fb      	ldr	r3, [r7, #28]
 80013dc:	2b1f      	cmp	r3, #31
 80013de:	d9f1      	bls.n	80013c4 <_ntoa_format+0x42>
    }
    while ((flags & FLAGS_ZEROPAD) && (len < width) && (len < PRINTF_NTOA_BUFFER_SIZE)) {
 80013e0:	e006      	b.n	80013f0 <_ntoa_format+0x6e>
      buf[len++] = '0';
 80013e2:	69fb      	ldr	r3, [r7, #28]
 80013e4:	1c5a      	adds	r2, r3, #1
 80013e6:	61fa      	str	r2, [r7, #28]
 80013e8:	69ba      	ldr	r2, [r7, #24]
 80013ea:	4413      	add	r3, r2
 80013ec:	2230      	movs	r2, #48	; 0x30
 80013ee:	701a      	strb	r2, [r3, #0]
    while ((flags & FLAGS_ZEROPAD) && (len < width) && (len < PRINTF_NTOA_BUFFER_SIZE)) {
 80013f0:	6b3b      	ldr	r3, [r7, #48]	; 0x30
 80013f2:	f003 0301 	and.w	r3, r3, #1
 80013f6:	2b00      	cmp	r3, #0
 80013f8:	d006      	beq.n	8001408 <_ntoa_format+0x86>
 80013fa:	69fa      	ldr	r2, [r7, #28]
 80013fc:	6afb      	ldr	r3, [r7, #44]	; 0x2c
 80013fe:	429a      	cmp	r2, r3
 8001400:	d202      	bcs.n	8001408 <_ntoa_format+0x86>
 8001402:	69fb      	ldr	r3, [r7, #28]
 8001404:	2b1f      	cmp	r3, #31
 8001406:	d9ec      	bls.n	80013e2 <_ntoa_format+0x60>
    }
  }

  // handle hash
  if (flags & FLAGS_HASH) {
 8001408:	6b3b      	ldr	r3, [r7, #48]	; 0x30
 800140a:	f003 0310 	and.w	r3, r3, #16
 800140e:	2b00      	cmp	r3, #0
 8001410:	d058      	beq.n	80014c4 <_ntoa_format+0x142>
    if (!(flags & FLAGS_PRECISION) && len && ((len == prec) || (len == width))) {
 8001412:	6b3b      	ldr	r3, [r7, #48]	; 0x30
 8001414:	f403 6380 	and.w	r3, r3, #1024	; 0x400
 8001418:	2b00      	cmp	r3, #0
 800141a:	d116      	bne.n	800144a <_ntoa_format+0xc8>
 800141c:	69fb      	ldr	r3, [r7, #28]
 800141e:	2b00      	cmp	r3, #0
 8001420:	d013      	beq.n	800144a <_ntoa_format+0xc8>
 8001422:	69fa      	ldr	r2, [r7, #28]
 8001424:	6abb      	ldr	r3, [r7, #40]	; 0x28
 8001426:	429a      	cmp	r2, r3
 8001428:	d003      	beq.n	8001432 <_ntoa_format+0xb0>
 800142a:	69fa      	ldr	r2, [r7, #28]
 800142c:	6afb      	ldr	r3, [r7, #44]	; 0x2c
 800142e:	429a      	cmp	r2, r3
 8001430:	d10b      	bne.n	800144a <_ntoa_format+0xc8>
      len--;
 8001432:	69fb      	ldr	r3, [r7, #28]
 8001434:	3b01      	subs	r3, #1
 8001436:	61fb      	str	r3, [r7, #28]
      if (len && (base == 16U)) {
 8001438:	69fb      	ldr	r3, [r7, #28]
 800143a:	2b00      	cmp	r3, #0
 800143c:	d005      	beq.n	800144a <_ntoa_format+0xc8>
 800143e:	6a7b      	ldr	r3, [r7, #36]	; 0x24
 8001440:	2b10      	cmp	r3, #16
 8001442:	d102      	bne.n	800144a <_ntoa_format+0xc8>
        len--;
 8001444:	69fb      	ldr	r3, [r7, #28]
 8001446:	3b01      	subs	r3, #1
 8001448:	61fb      	str	r3, [r7, #28]
      }
    }
    if ((base == 16U) && !(flags & FLAGS_UPPERCASE) && (len < PRINTF_NTOA_BUFFER_SIZE)) {
 800144a:	6a7b      	ldr	r3, [r7, #36]	; 0x24
 800144c:	2b10      	cmp	r3, #16
 800144e:	d10f      	bne.n	8001470 <_ntoa_format+0xee>
 8001450:	6b3b      	ldr	r3, [r7, #48]	; 0x30
 8001452:	f003 0320 	and.w	r3, r3, #32
 8001456:	2b00      	cmp	r3, #0
 8001458:	d10a      	bne.n	8001470 <_ntoa_format+0xee>
 800145a:	69fb      	ldr	r3, [r7, #28]
 800145c:	2b1f      	cmp	r3, #31
 800145e:	d807      	bhi.n	8001470 <_ntoa_format+0xee>
      buf[len++] = 'x';
 8001460:	69fb      	ldr	r3, [r7, #28]
 8001462:	1c5a      	adds	r2, r3, #1
 8001464:	61fa      	str	r2, [r7, #28]
 8001466:	69ba      	ldr	r2, [r7, #24]
 8001468:	4413      	add	r3, r2
 800146a:	2278      	movs	r2, #120	; 0x78
 800146c:	701a      	strb	r2, [r3, #0]
 800146e:	e01f      	b.n	80014b0 <_ntoa_format+0x12e>
    }
    else if ((base == 16U) && (flags & FLAGS_UPPERCASE) && (len < PRINTF_NTOA_BUFFER_SIZE)) {
 8001470:	6a7b      	ldr	r3, [r7, #36]	; 0x24
 8001472:	2b10      	cmp	r3, #16
 8001474:	d10f      	bne.n	8001496 <_ntoa_format+0x114>
 8001476:	6b3b      	ldr	r3, [r7, #48]	; 0x30
 8001478:	f003 0320 	and.w	r3, r3, #32
 800147c:	2b00      	cmp	r3, #0
 800147e:	d00a      	beq.n	8001496 <_ntoa_format+0x114>
 8001480:	69fb      	ldr	r3, [r7, #28]
 8001482:	2b1f      	cmp	r3, #31
 8001484:	d807      	bhi.n	8001496 <_ntoa_format+0x114>
      buf[len++] = 'X';
 8001486:	69fb      	ldr	r3, [r7, #28]
 8001488:	1c5a      	adds	r2, r3, #1
 800148a:	61fa      	str	r2, [r7, #28]
 800148c:	69ba      	ldr	r2, [r7, #24]
 800148e:	4413      	add	r3, r2
 8001490:	2258      	movs	r2, #88	; 0x58
 8001492:	701a      	strb	r2, [r3, #0]
 8001494:	e00c      	b.n	80014b0 <_ntoa_format+0x12e>
    }
    else if ((base == 2U) && (len < PRINTF_NTOA_BUFFER_SIZE)) {
 8001496:	6a7b      	ldr	r3, [r7, #36]	; 0x24
 8001498:	2b02      	cmp	r3, #2
 800149a:	d109      	bne.n	80014b0 <_ntoa_format+0x12e>
 800149c:	69fb      	ldr	r3, [r7, #28]
 800149e:	2b1f      	cmp	r3, #31
 80014a0:	d806      	bhi.n	80014b0 <_ntoa_format+0x12e>
      buf[len++] = 'b';
 80014a2:	69fb      	ldr	r3, [r7, #28]
 80014a4:	1c5a      	adds	r2, r3, #1
 80014a6:	61fa      	str	r2, [r7, #28]
 80014a8:	69ba      	ldr	r2, [r7, #24]
 80014aa:	4413      	add	r3, r2
 80014ac:	2262      	movs	r2, #98	; 0x62
 80014ae:	701a      	strb	r2, [r3, #0]
    }
    if (len < PRINTF_NTOA_BUFFER_SIZE) {
 80014b0:	69fb      	ldr	r3, [r7, #28]
 80014b2:	2b1f      	cmp	r3, #31
 80014b4:	d806      	bhi.n	80014c4 <_ntoa_format+0x142>
      buf[len++] = '0';
 80014b6:	69fb      	ldr	r3, [r7, #28]
 80014b8:	1c5a      	adds	r2, r3, #1
 80014ba:	61fa      	str	r2, [r7, #28]
 80014bc:	69ba      	ldr	r2, [r7, #24]
 80014be:	4413      	add	r3, r2
 80014c0:	2230      	movs	r2, #48	; 0x30
 80014c2:	701a      	strb	r2, [r3, #0]
    }
  }

  if (len < PRINTF_NTOA_BUFFER_SIZE) {
 80014c4:	69fb      	ldr	r3, [r7, #28]
 80014c6:	2b1f      	cmp	r3, #31
 80014c8:	d824      	bhi.n	8001514 <_ntoa_format+0x192>
    if (negative) {
 80014ca:	f897 3020 	ldrb.w	r3, [r7, #32]
 80014ce:	2b00      	cmp	r3, #0
 80014d0:	d007      	beq.n	80014e2 <_ntoa_format+0x160>
      buf[len++] = '-';
 80014d2:	69fb      	ldr	r3, [r7, #28]
 80014d4:	1c5a      	adds	r2, r3, #1
 80014d6:	61fa      	str	r2, [r7, #28]
 80014d8:	69ba      	ldr	r2, [r7, #24]
 80014da:	4413      	add	r3, r2
 80014dc:	222d      	movs	r2, #45	; 0x2d
 80014de:	701a      	strb	r2, [r3, #0]
 80014e0:	e018      	b.n	8001514 <_ntoa_format+0x192>
    }
    else if (flags & FLAGS_PLUS) {
 80014e2:	6b3b      	ldr	r3, [r7, #48]	; 0x30
 80014e4:	f003 0304 	and.w	r3, r3, #4
 80014e8:	2b00      	cmp	r3, #0
 80014ea:	d007      	beq.n	80014fc <_ntoa_format+0x17a>
      buf[len++] = '+';  // ignore the space if the '+' exists
 80014ec:	69fb      	ldr	r3, [r7, #28]
 80014ee:	1c5a      	adds	r2, r3, #1
 80014f0:	61fa      	str	r2, [r7, #28]
 80014f2:	69ba      	ldr	r2, [r7, #24]
 80014f4:	4413      	add	r3, r2
 80014f6:	222b      	movs	r2, #43	; 0x2b
 80014f8:	701a      	strb	r2, [r3, #0]
 80014fa:	e00b      	b.n	8001514 <_ntoa_format+0x192>
    }
    else if (flags & FLAGS_SPACE) {
 80014fc:	6b3b      	ldr	r3, [r7, #48]	; 0x30
 80014fe:	f003 0308 	and.w	r3, r3, #8
 8001502:	2b00      	cmp	r3, #0
 8001504:	d006      	beq.n	8001514 <_ntoa_format+0x192>
      buf[len++] = ' ';
 8001506:	69fb      	ldr	r3, [r7, #28]
 8001508:	1c5a      	adds	r2, r3, #1
 800150a:	61fa      	str	r2, [r7, #28]
 800150c:	69ba      	ldr	r2, [r7, #24]
 800150e:	4413      	add	r3, r2
 8001510:	2220      	movs	r2, #32
 8001512:	701a      	strb	r2, [r3, #0]
    }
  }

  return _out_rev(out, buffer, idx, maxlen, buf, len, width, flags);
 8001514:	6b3b      	ldr	r3, [r7, #48]	; 0x30
 8001516:	9303      	str	r3, [sp, #12]
 8001518:	6afb      	ldr	r3, [r7, #44]	; 0x2c
 800151a:	9302      	str	r3, [sp, #8]
 800151c:	69fb      	ldr	r3, [r7, #28]
 800151e:	9301      	str	r3, [sp, #4]
 8001520:	69bb      	ldr	r3, [r7, #24]
 8001522:	9300      	str	r3, [sp, #0]
 8001524:	683b      	ldr	r3, [r7, #0]
 8001526:	687a      	ldr	r2, [r7, #4]
 8001528:	68b9      	ldr	r1, [r7, #8]
 800152a:	68f8      	ldr	r0, [r7, #12]
 800152c:	f7ff fed9 	bl	80012e2 <_out_rev>
 8001530:	4603      	mov	r3, r0
}
 8001532:	4618      	mov	r0, r3
 8001534:	3710      	adds	r7, #16
 8001536:	46bd      	mov	sp, r7
 8001538:	bd80      	pop	{r7, pc}

0800153a <_ntoa_long>:


// internal itoa for 'long' type
static size_t _ntoa_long(out_fct_type out, char* buffer, size_t idx, size_t maxlen, unsigned long value, bool negative, unsigned long base, unsigned int prec, unsigned int width, unsigned int flags)
{
 800153a:	b580      	push	{r7, lr}
 800153c:	b096      	sub	sp, #88	; 0x58
 800153e:	af08      	add	r7, sp, #32
 8001540:	60f8      	str	r0, [r7, #12]
 8001542:	60b9      	str	r1, [r7, #8]
 8001544:	607a      	str	r2, [r7, #4]
 8001546:	603b      	str	r3, [r7, #0]
  char buf[PRINTF_NTOA_BUFFER_SIZE];
  size_t len = 0U;
 8001548:	2300      	movs	r3, #0
 800154a:	637b      	str	r3, [r7, #52]	; 0x34

  // no hash for 0 values
  if (!value) {
 800154c:	6c3b      	ldr	r3, [r7, #64]	; 0x40
 800154e:	2b00      	cmp	r3, #0
 8001550:	d103      	bne.n	800155a <_ntoa_long+0x20>
    flags &= ~FLAGS_HASH;
 8001552:	6d7b      	ldr	r3, [r7, #84]	; 0x54
 8001554:	f023 0310 	bic.w	r3, r3, #16
 8001558:	657b      	str	r3, [r7, #84]	; 0x54
  }

  // write if precision != 0 and value is != 0
  if (!(flags & FLAGS_PRECISION) || value) {
 800155a:	6d7b      	ldr	r3, [r7, #84]	; 0x54
 800155c:	f403 6380 	and.w	r3, r3, #1024	; 0x400
 8001560:	2b00      	cmp	r3, #0
 8001562:	d002      	beq.n	800156a <_ntoa_long+0x30>
 8001564:	6c3b      	ldr	r3, [r7, #64]	; 0x40
 8001566:	2b00      	cmp	r3, #0
 8001568:	d033      	beq.n	80015d2 <_ntoa_long+0x98>
    do {
      const char digit = (char)(value % base);
 800156a:	6c3b      	ldr	r3, [r7, #64]	; 0x40
 800156c:	6cba      	ldr	r2, [r7, #72]	; 0x48
 800156e:	fbb3 f2f2 	udiv	r2, r3, r2
 8001572:	6cb9      	ldr	r1, [r7, #72]	; 0x48
 8001574:	fb01 f202 	mul.w	r2, r1, r2
 8001578:	1a9b      	subs	r3, r3, r2
 800157a:	f887 3033 	strb.w	r3, [r7, #51]	; 0x33
      buf[len++] = digit < 10 ? '0' + digit : (flags & FLAGS_UPPERCASE ? 'A' : 'a') + digit - 10;
 800157e:	f897 3033 	ldrb.w	r3, [r7, #51]	; 0x33
 8001582:	2b09      	cmp	r3, #9
 8001584:	d804      	bhi.n	8001590 <_ntoa_long+0x56>
 8001586:	f897 3033 	ldrb.w	r3, [r7, #51]	; 0x33
 800158a:	3330      	adds	r3, #48	; 0x30
 800158c:	b2da      	uxtb	r2, r3
 800158e:	e00d      	b.n	80015ac <_ntoa_long+0x72>
 8001590:	6d7b      	ldr	r3, [r7, #84]	; 0x54
 8001592:	f003 0320 	and.w	r3, r3, #32
 8001596:	2b00      	cmp	r3, #0
 8001598:	d001      	beq.n	800159e <_ntoa_long+0x64>
 800159a:	2241      	movs	r2, #65	; 0x41
 800159c:	e000      	b.n	80015a0 <_ntoa_long+0x66>
 800159e:	2261      	movs	r2, #97	; 0x61
 80015a0:	f897 3033 	ldrb.w	r3, [r7, #51]	; 0x33
 80015a4:	4413      	add	r3, r2
 80015a6:	b2db      	uxtb	r3, r3
 80015a8:	3b0a      	subs	r3, #10
 80015aa:	b2da      	uxtb	r2, r3
 80015ac:	6b7b      	ldr	r3, [r7, #52]	; 0x34
 80015ae:	1c59      	adds	r1, r3, #1
 80015b0:	6379      	str	r1, [r7, #52]	; 0x34
 80015b2:	f107 0138 	add.w	r1, r7, #56	; 0x38
 80015b6:	440b      	add	r3, r1
 80015b8:	f803 2c28 	strb.w	r2, [r3, #-40]
      value /= base;
 80015bc:	6c3a      	ldr	r2, [r7, #64]	; 0x40
 80015be:	6cbb      	ldr	r3, [r7, #72]	; 0x48
 80015c0:	fbb2 f3f3 	udiv	r3, r2, r3
 80015c4:	643b      	str	r3, [r7, #64]	; 0x40
    } while (value && (len < PRINTF_NTOA_BUFFER_SIZE));
 80015c6:	6c3b      	ldr	r3, [r7, #64]	; 0x40
 80015c8:	2b00      	cmp	r3, #0
 80015ca:	d002      	beq.n	80015d2 <_ntoa_long+0x98>
 80015cc:	6b7b      	ldr	r3, [r7, #52]	; 0x34
 80015ce:	2b1f      	cmp	r3, #31
 80015d0:	d9cb      	bls.n	800156a <_ntoa_long+0x30>
  }

  return _ntoa_format(out, buffer, idx, maxlen, buf, len, negative, (unsigned int)base, prec, width, flags);
 80015d2:	6d7b      	ldr	r3, [r7, #84]	; 0x54
 80015d4:	9306      	str	r3, [sp, #24]
 80015d6:	6d3b      	ldr	r3, [r7, #80]	; 0x50
 80015d8:	9305      	str	r3, [sp, #20]
 80015da:	6cfb      	ldr	r3, [r7, #76]	; 0x4c
 80015dc:	9304      	str	r3, [sp, #16]
 80015de:	6cbb      	ldr	r3, [r7, #72]	; 0x48
 80015e0:	9303      	str	r3, [sp, #12]
 80015e2:	f897 3044 	ldrb.w	r3, [r7, #68]	; 0x44
 80015e6:	9302      	str	r3, [sp, #8]
 80015e8:	6b7b      	ldr	r3, [r7, #52]	; 0x34
 80015ea:	9301      	str	r3, [sp, #4]
 80015ec:	f107 0310 	add.w	r3, r7, #16
 80015f0:	9300      	str	r3, [sp, #0]
 80015f2:	683b      	ldr	r3, [r7, #0]
 80015f4:	687a      	ldr	r2, [r7, #4]
 80015f6:	68b9      	ldr	r1, [r7, #8]
 80015f8:	68f8      	ldr	r0, [r7, #12]
 80015fa:	f7ff fec2 	bl	8001382 <_ntoa_format>
 80015fe:	4603      	mov	r3, r0
}
 8001600:	4618      	mov	r0, r3
 8001602:	3738      	adds	r7, #56	; 0x38
 8001604:	46bd      	mov	sp, r7
 8001606:	bd80      	pop	{r7, pc}

08001608 <_ntoa_long_long>:


// internal itoa for 'long long' type
#if defined(PRINTF_SUPPORT_LONG_LONG)
static size_t _ntoa_long_long(out_fct_type out, char* buffer, size_t idx, size_t maxlen, unsigned long long value, bool negative, unsigned long long base, unsigned int prec, unsigned int width, unsigned int flags)
{
 8001608:	b590      	push	{r4, r7, lr}
 800160a:	b097      	sub	sp, #92	; 0x5c
 800160c:	af08      	add	r7, sp, #32
 800160e:	60f8      	str	r0, [r7, #12]
 8001610:	60b9      	str	r1, [r7, #8]
 8001612:	607a      	str	r2, [r7, #4]
 8001614:	603b      	str	r3, [r7, #0]
  char buf[PRINTF_NTOA_BUFFER_SIZE];
  size_t len = 0U;
 8001616:	2300      	movs	r3, #0
 8001618:	637b      	str	r3, [r7, #52]	; 0x34

  // no hash for 0 values
  if (!value) {
 800161a:	e9d7 3412 	ldrd	r3, r4, [r7, #72]	; 0x48
 800161e:	4323      	orrs	r3, r4
 8001620:	d103      	bne.n	800162a <_ntoa_long_long+0x22>
    flags &= ~FLAGS_HASH;
 8001622:	6ebb      	ldr	r3, [r7, #104]	; 0x68
 8001624:	f023 0310 	bic.w	r3, r3, #16
 8001628:	66bb      	str	r3, [r7, #104]	; 0x68
  }

  // write if precision != 0 and value is != 0
  if (!(flags & FLAGS_PRECISION) || value) {
 800162a:	6ebb      	ldr	r3, [r7, #104]	; 0x68
 800162c:	f403 6380 	and.w	r3, r3, #1024	; 0x400
 8001630:	2b00      	cmp	r3, #0
 8001632:	d003      	beq.n	800163c <_ntoa_long_long+0x34>
 8001634:	e9d7 3412 	ldrd	r3, r4, [r7, #72]	; 0x48
 8001638:	4323      	orrs	r3, r4
 800163a:	d039      	beq.n	80016b0 <_ntoa_long_long+0xa8>
    do {
      const char digit = (char)(value % base);
 800163c:	e9d7 0112 	ldrd	r0, r1, [r7, #72]	; 0x48
 8001640:	e9d7 2316 	ldrd	r2, r3, [r7, #88]	; 0x58
 8001644:	f7ff fa6a 	bl	8000b1c <__aeabi_uldivmod>
 8001648:	461c      	mov	r4, r3
 800164a:	4613      	mov	r3, r2
 800164c:	f887 3033 	strb.w	r3, [r7, #51]	; 0x33
      buf[len++] = digit < 10 ? '0' + digit : (flags & FLAGS_UPPERCASE ? 'A' : 'a') + digit - 10;
 8001650:	f897 3033 	ldrb.w	r3, [r7, #51]	; 0x33
 8001654:	2b09      	cmp	r3, #9
 8001656:	d804      	bhi.n	8001662 <_ntoa_long_long+0x5a>
 8001658:	f897 3033 	ldrb.w	r3, [r7, #51]	; 0x33
 800165c:	3330      	adds	r3, #48	; 0x30
 800165e:	b2da      	uxtb	r2, r3
 8001660:	e00d      	b.n	800167e <_ntoa_long_long+0x76>
 8001662:	6ebb      	ldr	r3, [r7, #104]	; 0x68
 8001664:	f003 0320 	and.w	r3, r3, #32
 8001668:	2b00      	cmp	r3, #0
 800166a:	d001      	beq.n	8001670 <_ntoa_long_long+0x68>
 800166c:	2241      	movs	r2, #65	; 0x41
 800166e:	e000      	b.n	8001672 <_ntoa_long_long+0x6a>
 8001670:	2261      	movs	r2, #97	; 0x61
 8001672:	f897 3033 	ldrb.w	r3, [r7, #51]	; 0x33
 8001676:	4413      	add	r3, r2
 8001678:	b2db      	uxtb	r3, r3
 800167a:	3b0a      	subs	r3, #10
 800167c:	b2da      	uxtb	r2, r3
 800167e:	6b7b      	ldr	r3, [r7, #52]	; 0x34
 8001680:	1c59      	adds	r1, r3, #1
 8001682:	6379      	str	r1, [r7, #52]	; 0x34
 8001684:	f107 0138 	add.w	r1, r7, #56	; 0x38
 8001688:	440b      	add	r3, r1
 800168a:	f803 2c28 	strb.w	r2, [r3, #-40]
      value /= base;
 800168e:	e9d7 2316 	ldrd	r2, r3, [r7, #88]	; 0x58
 8001692:	e9d7 0112 	ldrd	r0, r1, [r7, #72]	; 0x48
 8001696:	f7ff fa41 	bl	8000b1c <__aeabi_uldivmod>
 800169a:	4603      	mov	r3, r0
 800169c:	460c      	mov	r4, r1
 800169e:	e9c7 3412 	strd	r3, r4, [r7, #72]	; 0x48
    } while (value && (len < PRINTF_NTOA_BUFFER_SIZE));
 80016a2:	e9d7 3412 	ldrd	r3, r4, [r7, #72]	; 0x48
 80016a6:	4323      	orrs	r3, r4
 80016a8:	d002      	beq.n	80016b0 <_ntoa_long_long+0xa8>
 80016aa:	6b7b      	ldr	r3, [r7, #52]	; 0x34
 80016ac:	2b1f      	cmp	r3, #31
 80016ae:	d9c5      	bls.n	800163c <_ntoa_long_long+0x34>
  }

  return _ntoa_format(out, buffer, idx, maxlen, buf, len, negative, (unsigned int)base, prec, width, flags);
 80016b0:	6dbb      	ldr	r3, [r7, #88]	; 0x58
 80016b2:	6eba      	ldr	r2, [r7, #104]	; 0x68
 80016b4:	9206      	str	r2, [sp, #24]
 80016b6:	6e7a      	ldr	r2, [r7, #100]	; 0x64
 80016b8:	9205      	str	r2, [sp, #20]
 80016ba:	6e3a      	ldr	r2, [r7, #96]	; 0x60
 80016bc:	9204      	str	r2, [sp, #16]
 80016be:	9303      	str	r3, [sp, #12]
 80016c0:	f897 3050 	ldrb.w	r3, [r7, #80]	; 0x50
 80016c4:	9302      	str	r3, [sp, #8]
 80016c6:	6b7b      	ldr	r3, [r7, #52]	; 0x34
 80016c8:	9301      	str	r3, [sp, #4]
 80016ca:	f107 0310 	add.w	r3, r7, #16
 80016ce:	9300      	str	r3, [sp, #0]
 80016d0:	683b      	ldr	r3, [r7, #0]
 80016d2:	687a      	ldr	r2, [r7, #4]
 80016d4:	68b9      	ldr	r1, [r7, #8]
 80016d6:	68f8      	ldr	r0, [r7, #12]
 80016d8:	f7ff fe53 	bl	8001382 <_ntoa_format>
 80016dc:	4603      	mov	r3, r0
}
 80016de:	4618      	mov	r0, r3
 80016e0:	373c      	adds	r7, #60	; 0x3c
 80016e2:	46bd      	mov	sp, r7
 80016e4:	bd90      	pop	{r4, r7, pc}
	...

080016e8 <_ftoa>:
#endif


// internal ftoa for fixed decimal floating point
static size_t _ftoa(out_fct_type out, char* buffer, size_t idx, size_t maxlen, double value, unsigned int prec, unsigned int width, unsigned int flags)
{
 80016e8:	b590      	push	{r4, r7, lr}
 80016ea:	b09d      	sub	sp, #116	; 0x74
 80016ec:	af04      	add	r7, sp, #16
 80016ee:	6178      	str	r0, [r7, #20]
 80016f0:	6139      	str	r1, [r7, #16]
 80016f2:	60fa      	str	r2, [r7, #12]
 80016f4:	60bb      	str	r3, [r7, #8]
 80016f6:	ed87 0b00 	vstr	d0, [r7]
  char buf[PRINTF_FTOA_BUFFER_SIZE];
  size_t len  = 0U;
 80016fa:	2300      	movs	r3, #0
 80016fc:	65fb      	str	r3, [r7, #92]	; 0x5c
  double diff = 0.0;
 80016fe:	f04f 0300 	mov.w	r3, #0
 8001702:	f04f 0400 	mov.w	r4, #0
 8001706:	e9c7 3410 	strd	r3, r4, [r7, #64]	; 0x40

  // powers of 10
  static const double pow10[] = { 1, 10, 100, 1000, 10000, 100000, 1000000, 10000000, 100000000, 1000000000 };

  // test for special values
  if (value != value)
 800170a:	e9d7 2300 	ldrd	r2, r3, [r7]
 800170e:	e9d7 0100 	ldrd	r0, r1, [r7]
 8001712:	f7ff f989 	bl	8000a28 <__aeabi_dcmpeq>
 8001716:	4603      	mov	r3, r0
 8001718:	2b00      	cmp	r3, #0
 800171a:	d10f      	bne.n	800173c <_ftoa+0x54>
    return _out_rev(out, buffer, idx, maxlen, "nan", 3, width, flags);
 800171c:	6fbb      	ldr	r3, [r7, #120]	; 0x78
 800171e:	9303      	str	r3, [sp, #12]
 8001720:	6f7b      	ldr	r3, [r7, #116]	; 0x74
 8001722:	9302      	str	r3, [sp, #8]
 8001724:	2303      	movs	r3, #3
 8001726:	9301      	str	r3, [sp, #4]
 8001728:	4baf      	ldr	r3, [pc, #700]	; (80019e8 <_ftoa+0x300>)
 800172a:	9300      	str	r3, [sp, #0]
 800172c:	68bb      	ldr	r3, [r7, #8]
 800172e:	68fa      	ldr	r2, [r7, #12]
 8001730:	6939      	ldr	r1, [r7, #16]
 8001732:	6978      	ldr	r0, [r7, #20]
 8001734:	f7ff fdd5 	bl	80012e2 <_out_rev>
 8001738:	4603      	mov	r3, r0
 800173a:	e237      	b.n	8001bac <_ftoa+0x4c4>
  if (value < -DBL_MAX)
 800173c:	f04f 32ff 	mov.w	r2, #4294967295
 8001740:	f46f 1380 	mvn.w	r3, #1048576	; 0x100000
 8001744:	e9d7 0100 	ldrd	r0, r1, [r7]
 8001748:	f7ff f978 	bl	8000a3c <__aeabi_dcmplt>
 800174c:	4603      	mov	r3, r0
 800174e:	2b00      	cmp	r3, #0
 8001750:	d00f      	beq.n	8001772 <_ftoa+0x8a>
    return _out_rev(out, buffer, idx, maxlen, "fni-", 4, width, flags);
 8001752:	6fbb      	ldr	r3, [r7, #120]	; 0x78
 8001754:	9303      	str	r3, [sp, #12]
 8001756:	6f7b      	ldr	r3, [r7, #116]	; 0x74
 8001758:	9302      	str	r3, [sp, #8]
 800175a:	2304      	movs	r3, #4
 800175c:	9301      	str	r3, [sp, #4]
 800175e:	4ba3      	ldr	r3, [pc, #652]	; (80019ec <_ftoa+0x304>)
 8001760:	9300      	str	r3, [sp, #0]
 8001762:	68bb      	ldr	r3, [r7, #8]
 8001764:	68fa      	ldr	r2, [r7, #12]
 8001766:	6939      	ldr	r1, [r7, #16]
 8001768:	6978      	ldr	r0, [r7, #20]
 800176a:	f7ff fdba 	bl	80012e2 <_out_rev>
 800176e:	4603      	mov	r3, r0
 8001770:	e21c      	b.n	8001bac <_ftoa+0x4c4>
  if (value > DBL_MAX)
 8001772:	f04f 32ff 	mov.w	r2, #4294967295
 8001776:	4b9e      	ldr	r3, [pc, #632]	; (80019f0 <_ftoa+0x308>)
 8001778:	e9d7 0100 	ldrd	r0, r1, [r7]
 800177c:	f7ff f97c 	bl	8000a78 <__aeabi_dcmpgt>
 8001780:	4603      	mov	r3, r0
 8001782:	2b00      	cmp	r3, #0
 8001784:	d01d      	beq.n	80017c2 <_ftoa+0xda>
    return _out_rev(out, buffer, idx, maxlen, (flags & FLAGS_PLUS) ? "fni+" : "fni", (flags & FLAGS_PLUS) ? 4U : 3U, width, flags);
 8001786:	6fbb      	ldr	r3, [r7, #120]	; 0x78
 8001788:	f003 0304 	and.w	r3, r3, #4
 800178c:	2b00      	cmp	r3, #0
 800178e:	d001      	beq.n	8001794 <_ftoa+0xac>
 8001790:	4b98      	ldr	r3, [pc, #608]	; (80019f4 <_ftoa+0x30c>)
 8001792:	e000      	b.n	8001796 <_ftoa+0xae>
 8001794:	4b98      	ldr	r3, [pc, #608]	; (80019f8 <_ftoa+0x310>)
 8001796:	6fba      	ldr	r2, [r7, #120]	; 0x78
 8001798:	f002 0204 	and.w	r2, r2, #4
 800179c:	2a00      	cmp	r2, #0
 800179e:	d001      	beq.n	80017a4 <_ftoa+0xbc>
 80017a0:	2204      	movs	r2, #4
 80017a2:	e000      	b.n	80017a6 <_ftoa+0xbe>
 80017a4:	2203      	movs	r2, #3
 80017a6:	6fb9      	ldr	r1, [r7, #120]	; 0x78
 80017a8:	9103      	str	r1, [sp, #12]
 80017aa:	6f79      	ldr	r1, [r7, #116]	; 0x74
 80017ac:	9102      	str	r1, [sp, #8]
 80017ae:	9201      	str	r2, [sp, #4]
 80017b0:	9300      	str	r3, [sp, #0]
 80017b2:	68bb      	ldr	r3, [r7, #8]
 80017b4:	68fa      	ldr	r2, [r7, #12]
 80017b6:	6939      	ldr	r1, [r7, #16]
 80017b8:	6978      	ldr	r0, [r7, #20]
 80017ba:	f7ff fd92 	bl	80012e2 <_out_rev>
 80017be:	4603      	mov	r3, r0
 80017c0:	e1f4      	b.n	8001bac <_ftoa+0x4c4>

  // test for very large values
  // standard printf behavior is to print EVERY whole number digit -- which could be 100s of characters overflowing your buffers == bad
  if ((value > PRINTF_MAX_FLOAT) || (value < -PRINTF_MAX_FLOAT)) {
 80017c2:	a385      	add	r3, pc, #532	; (adr r3, 80019d8 <_ftoa+0x2f0>)
 80017c4:	e9d3 2300 	ldrd	r2, r3, [r3]
 80017c8:	e9d7 0100 	ldrd	r0, r1, [r7]
 80017cc:	f7ff f954 	bl	8000a78 <__aeabi_dcmpgt>
 80017d0:	4603      	mov	r3, r0
 80017d2:	2b00      	cmp	r3, #0
 80017d4:	d109      	bne.n	80017ea <_ftoa+0x102>
 80017d6:	a382      	add	r3, pc, #520	; (adr r3, 80019e0 <_ftoa+0x2f8>)
 80017d8:	e9d3 2300 	ldrd	r2, r3, [r3]
 80017dc:	e9d7 0100 	ldrd	r0, r1, [r7]
 80017e0:	f7ff f92c 	bl	8000a3c <__aeabi_dcmplt>
 80017e4:	4603      	mov	r3, r0
 80017e6:	2b00      	cmp	r3, #0
 80017e8:	d00f      	beq.n	800180a <_ftoa+0x122>
#if defined(PRINTF_SUPPORT_EXPONENTIAL)
    return _etoa(out, buffer, idx, maxlen, value, prec, width, flags);
 80017ea:	6fbb      	ldr	r3, [r7, #120]	; 0x78
 80017ec:	9302      	str	r3, [sp, #8]
 80017ee:	6f7b      	ldr	r3, [r7, #116]	; 0x74
 80017f0:	9301      	str	r3, [sp, #4]
 80017f2:	6f3b      	ldr	r3, [r7, #112]	; 0x70
 80017f4:	9300      	str	r3, [sp, #0]
 80017f6:	ed97 0b00 	vldr	d0, [r7]
 80017fa:	68bb      	ldr	r3, [r7, #8]
 80017fc:	68fa      	ldr	r2, [r7, #12]
 80017fe:	6939      	ldr	r1, [r7, #16]
 8001800:	6978      	ldr	r0, [r7, #20]
 8001802:	f000 f9dd 	bl	8001bc0 <_etoa>
 8001806:	4603      	mov	r3, r0
 8001808:	e1d0      	b.n	8001bac <_ftoa+0x4c4>
    return 0U;
#endif
  }

  // test for negative
  bool negative = false;
 800180a:	2300      	movs	r3, #0
 800180c:	f887 305b 	strb.w	r3, [r7, #91]	; 0x5b
  if (value < 0) {
 8001810:	f04f 0200 	mov.w	r2, #0
 8001814:	f04f 0300 	mov.w	r3, #0
 8001818:	e9d7 0100 	ldrd	r0, r1, [r7]
 800181c:	f7ff f90e 	bl	8000a3c <__aeabi_dcmplt>
 8001820:	4603      	mov	r3, r0
 8001822:	2b00      	cmp	r3, #0
 8001824:	d00e      	beq.n	8001844 <_ftoa+0x15c>
    negative = true;
 8001826:	2301      	movs	r3, #1
 8001828:	f887 305b 	strb.w	r3, [r7, #91]	; 0x5b
    value = 0 - value;
 800182c:	e9d7 2300 	ldrd	r2, r3, [r7]
 8001830:	f04f 0000 	mov.w	r0, #0
 8001834:	f04f 0100 	mov.w	r1, #0
 8001838:	f7fe fcd6 	bl	80001e8 <__aeabi_dsub>
 800183c:	4603      	mov	r3, r0
 800183e:	460c      	mov	r4, r1
 8001840:	e9c7 3400 	strd	r3, r4, [r7]
  }

  // set default precision, if not set explicitly
  if (!(flags & FLAGS_PRECISION)) {
 8001844:	6fbb      	ldr	r3, [r7, #120]	; 0x78
 8001846:	f403 6380 	and.w	r3, r3, #1024	; 0x400
 800184a:	2b00      	cmp	r3, #0
 800184c:	d10e      	bne.n	800186c <_ftoa+0x184>
    prec = PRINTF_DEFAULT_FLOAT_PRECISION;
 800184e:	2306      	movs	r3, #6
 8001850:	673b      	str	r3, [r7, #112]	; 0x70
  }
  // limit precision to 9, cause a prec >= 10 can lead to overflow errors
  while ((len < PRINTF_FTOA_BUFFER_SIZE) && (prec > 9U)) {
 8001852:	e00b      	b.n	800186c <_ftoa+0x184>
    buf[len++] = '0';
 8001854:	6dfb      	ldr	r3, [r7, #92]	; 0x5c
 8001856:	1c5a      	adds	r2, r3, #1
 8001858:	65fa      	str	r2, [r7, #92]	; 0x5c
 800185a:	f107 0260 	add.w	r2, r7, #96	; 0x60
 800185e:	4413      	add	r3, r2
 8001860:	2230      	movs	r2, #48	; 0x30
 8001862:	f803 2c48 	strb.w	r2, [r3, #-72]
    prec--;
 8001866:	6f3b      	ldr	r3, [r7, #112]	; 0x70
 8001868:	3b01      	subs	r3, #1
 800186a:	673b      	str	r3, [r7, #112]	; 0x70
  while ((len < PRINTF_FTOA_BUFFER_SIZE) && (prec > 9U)) {
 800186c:	6dfb      	ldr	r3, [r7, #92]	; 0x5c
 800186e:	2b1f      	cmp	r3, #31
 8001870:	d802      	bhi.n	8001878 <_ftoa+0x190>
 8001872:	6f3b      	ldr	r3, [r7, #112]	; 0x70
 8001874:	2b09      	cmp	r3, #9
 8001876:	d8ed      	bhi.n	8001854 <_ftoa+0x16c>
  }

  int whole = (int)value;
 8001878:	e9d7 0100 	ldrd	r0, r1, [r7]
 800187c:	f7ff f906 	bl	8000a8c <__aeabi_d2iz>
 8001880:	4603      	mov	r3, r0
 8001882:	657b      	str	r3, [r7, #84]	; 0x54
  double tmp = (value - whole) * pow10[prec];
 8001884:	6d78      	ldr	r0, [r7, #84]	; 0x54
 8001886:	f7fe fdfd 	bl	8000484 <__aeabi_i2d>
 800188a:	4603      	mov	r3, r0
 800188c:	460c      	mov	r4, r1
 800188e:	461a      	mov	r2, r3
 8001890:	4623      	mov	r3, r4
 8001892:	e9d7 0100 	ldrd	r0, r1, [r7]
 8001896:	f7fe fca7 	bl	80001e8 <__aeabi_dsub>
 800189a:	4603      	mov	r3, r0
 800189c:	460c      	mov	r4, r1
 800189e:	4618      	mov	r0, r3
 80018a0:	4621      	mov	r1, r4
 80018a2:	4a56      	ldr	r2, [pc, #344]	; (80019fc <_ftoa+0x314>)
 80018a4:	6f3b      	ldr	r3, [r7, #112]	; 0x70
 80018a6:	00db      	lsls	r3, r3, #3
 80018a8:	4413      	add	r3, r2
 80018aa:	e9d3 3400 	ldrd	r3, r4, [r3]
 80018ae:	461a      	mov	r2, r3
 80018b0:	4623      	mov	r3, r4
 80018b2:	f7fe fe51 	bl	8000558 <__aeabi_dmul>
 80018b6:	4603      	mov	r3, r0
 80018b8:	460c      	mov	r4, r1
 80018ba:	e9c7 340e 	strd	r3, r4, [r7, #56]	; 0x38
  unsigned long frac = (unsigned long)tmp;
 80018be:	e9d7 010e 	ldrd	r0, r1, [r7, #56]	; 0x38
 80018c2:	f7ff f90b 	bl	8000adc <__aeabi_d2uiz>
 80018c6:	4603      	mov	r3, r0
 80018c8:	653b      	str	r3, [r7, #80]	; 0x50
  diff = tmp - frac;
 80018ca:	6d38      	ldr	r0, [r7, #80]	; 0x50
 80018cc:	f7fe fdca 	bl	8000464 <__aeabi_ui2d>
 80018d0:	4603      	mov	r3, r0
 80018d2:	460c      	mov	r4, r1
 80018d4:	461a      	mov	r2, r3
 80018d6:	4623      	mov	r3, r4
 80018d8:	e9d7 010e 	ldrd	r0, r1, [r7, #56]	; 0x38
 80018dc:	f7fe fc84 	bl	80001e8 <__aeabi_dsub>
 80018e0:	4603      	mov	r3, r0
 80018e2:	460c      	mov	r4, r1
 80018e4:	e9c7 3410 	strd	r3, r4, [r7, #64]	; 0x40

  if (diff > 0.5) {
 80018e8:	f04f 0200 	mov.w	r2, #0
 80018ec:	4b44      	ldr	r3, [pc, #272]	; (8001a00 <_ftoa+0x318>)
 80018ee:	e9d7 0110 	ldrd	r0, r1, [r7, #64]	; 0x40
 80018f2:	f7ff f8c1 	bl	8000a78 <__aeabi_dcmpgt>
 80018f6:	4603      	mov	r3, r0
 80018f8:	2b00      	cmp	r3, #0
 80018fa:	d018      	beq.n	800192e <_ftoa+0x246>
    ++frac;
 80018fc:	6d3b      	ldr	r3, [r7, #80]	; 0x50
 80018fe:	3301      	adds	r3, #1
 8001900:	653b      	str	r3, [r7, #80]	; 0x50
    // handle rollover, e.g. case 0.99 with prec 1 is 1.0
    if (frac >= pow10[prec]) {
 8001902:	6d38      	ldr	r0, [r7, #80]	; 0x50
 8001904:	f7fe fdae 	bl	8000464 <__aeabi_ui2d>
 8001908:	4a3c      	ldr	r2, [pc, #240]	; (80019fc <_ftoa+0x314>)
 800190a:	6f3b      	ldr	r3, [r7, #112]	; 0x70
 800190c:	00db      	lsls	r3, r3, #3
 800190e:	4413      	add	r3, r2
 8001910:	e9d3 3400 	ldrd	r3, r4, [r3]
 8001914:	461a      	mov	r2, r3
 8001916:	4623      	mov	r3, r4
 8001918:	f7ff f8a4 	bl	8000a64 <__aeabi_dcmpge>
 800191c:	4603      	mov	r3, r0
 800191e:	2b00      	cmp	r3, #0
 8001920:	d01a      	beq.n	8001958 <_ftoa+0x270>
      frac = 0;
 8001922:	2300      	movs	r3, #0
 8001924:	653b      	str	r3, [r7, #80]	; 0x50
      ++whole;
 8001926:	6d7b      	ldr	r3, [r7, #84]	; 0x54
 8001928:	3301      	adds	r3, #1
 800192a:	657b      	str	r3, [r7, #84]	; 0x54
 800192c:	e014      	b.n	8001958 <_ftoa+0x270>
    }
  }
  else if (diff < 0.5) {
 800192e:	f04f 0200 	mov.w	r2, #0
 8001932:	4b33      	ldr	r3, [pc, #204]	; (8001a00 <_ftoa+0x318>)
 8001934:	e9d7 0110 	ldrd	r0, r1, [r7, #64]	; 0x40
 8001938:	f7ff f880 	bl	8000a3c <__aeabi_dcmplt>
 800193c:	4603      	mov	r3, r0
 800193e:	2b00      	cmp	r3, #0
 8001940:	d10a      	bne.n	8001958 <_ftoa+0x270>
  }
  else if ((frac == 0U) || (frac & 1U)) {
 8001942:	6d3b      	ldr	r3, [r7, #80]	; 0x50
 8001944:	2b00      	cmp	r3, #0
 8001946:	d004      	beq.n	8001952 <_ftoa+0x26a>
 8001948:	6d3b      	ldr	r3, [r7, #80]	; 0x50
 800194a:	f003 0301 	and.w	r3, r3, #1
 800194e:	2b00      	cmp	r3, #0
 8001950:	d002      	beq.n	8001958 <_ftoa+0x270>
    // if halfway, round up if odd OR if last digit is 0
    ++frac;
 8001952:	6d3b      	ldr	r3, [r7, #80]	; 0x50
 8001954:	3301      	adds	r3, #1
 8001956:	653b      	str	r3, [r7, #80]	; 0x50
  }

  if (prec == 0U) {
 8001958:	6f3b      	ldr	r3, [r7, #112]	; 0x70
 800195a:	2b00      	cmp	r3, #0
 800195c:	d136      	bne.n	80019cc <_ftoa+0x2e4>
    diff = value - (double)whole;
 800195e:	6d78      	ldr	r0, [r7, #84]	; 0x54
 8001960:	f7fe fd90 	bl	8000484 <__aeabi_i2d>
 8001964:	4603      	mov	r3, r0
 8001966:	460c      	mov	r4, r1
 8001968:	461a      	mov	r2, r3
 800196a:	4623      	mov	r3, r4
 800196c:	e9d7 0100 	ldrd	r0, r1, [r7]
 8001970:	f7fe fc3a 	bl	80001e8 <__aeabi_dsub>
 8001974:	4603      	mov	r3, r0
 8001976:	460c      	mov	r4, r1
 8001978:	e9c7 3410 	strd	r3, r4, [r7, #64]	; 0x40
    if ((!(diff < 0.5) || (diff > 0.5)) && (whole & 1)) {
 800197c:	2301      	movs	r3, #1
 800197e:	461c      	mov	r4, r3
 8001980:	f04f 0200 	mov.w	r2, #0
 8001984:	4b1e      	ldr	r3, [pc, #120]	; (8001a00 <_ftoa+0x318>)
 8001986:	e9d7 0110 	ldrd	r0, r1, [r7, #64]	; 0x40
 800198a:	f7ff f857 	bl	8000a3c <__aeabi_dcmplt>
 800198e:	4603      	mov	r3, r0
 8001990:	2b00      	cmp	r3, #0
 8001992:	d101      	bne.n	8001998 <_ftoa+0x2b0>
 8001994:	2300      	movs	r3, #0
 8001996:	461c      	mov	r4, r3
 8001998:	b2e3      	uxtb	r3, r4
 800199a:	f083 0301 	eor.w	r3, r3, #1
 800199e:	b2db      	uxtb	r3, r3
 80019a0:	2b00      	cmp	r3, #0
 80019a2:	d109      	bne.n	80019b8 <_ftoa+0x2d0>
 80019a4:	f04f 0200 	mov.w	r2, #0
 80019a8:	4b15      	ldr	r3, [pc, #84]	; (8001a00 <_ftoa+0x318>)
 80019aa:	e9d7 0110 	ldrd	r0, r1, [r7, #64]	; 0x40
 80019ae:	f7ff f863 	bl	8000a78 <__aeabi_dcmpgt>
 80019b2:	4603      	mov	r3, r0
 80019b4:	2b00      	cmp	r3, #0
 80019b6:	d069      	beq.n	8001a8c <_ftoa+0x3a4>
 80019b8:	6d7b      	ldr	r3, [r7, #84]	; 0x54
 80019ba:	f003 0301 	and.w	r3, r3, #1
 80019be:	2b00      	cmp	r3, #0
 80019c0:	f000 8087 	beq.w	8001ad2 <_ftoa+0x3ea>
      // exactly 0.5 and ODD, then round up
      // 1.5 -> 2, but 2.5 -> 2
      ++whole;
 80019c4:	6d7b      	ldr	r3, [r7, #84]	; 0x54
 80019c6:	3301      	adds	r3, #1
 80019c8:	657b      	str	r3, [r7, #84]	; 0x54
 80019ca:	e082      	b.n	8001ad2 <_ftoa+0x3ea>
    }
  }
  else {
    unsigned int count = prec;
 80019cc:	6f3b      	ldr	r3, [r7, #112]	; 0x70
 80019ce:	64fb      	str	r3, [r7, #76]	; 0x4c
    // now do fractional part, as an unsigned number
    while (len < PRINTF_FTOA_BUFFER_SIZE) {
 80019d0:	e039      	b.n	8001a46 <_ftoa+0x35e>
 80019d2:	bf00      	nop
 80019d4:	f3af 8000 	nop.w
 80019d8:	00000000 	.word	0x00000000
 80019dc:	41cdcd65 	.word	0x41cdcd65
 80019e0:	00000000 	.word	0x00000000
 80019e4:	c1cdcd65 	.word	0xc1cdcd65
 80019e8:	080084fc 	.word	0x080084fc
 80019ec:	08008500 	.word	0x08008500
 80019f0:	7fefffff 	.word	0x7fefffff
 80019f4:	08008508 	.word	0x08008508
 80019f8:	08008510 	.word	0x08008510
 80019fc:	080085b8 	.word	0x080085b8
 8001a00:	3fe00000 	.word	0x3fe00000
      --count;
 8001a04:	6cfb      	ldr	r3, [r7, #76]	; 0x4c
 8001a06:	3b01      	subs	r3, #1
 8001a08:	64fb      	str	r3, [r7, #76]	; 0x4c
      buf[len++] = (char)(48U + (frac % 10U));
 8001a0a:	6d39      	ldr	r1, [r7, #80]	; 0x50
 8001a0c:	4b69      	ldr	r3, [pc, #420]	; (8001bb4 <_ftoa+0x4cc>)
 8001a0e:	fba3 2301 	umull	r2, r3, r3, r1
 8001a12:	08da      	lsrs	r2, r3, #3
 8001a14:	4613      	mov	r3, r2
 8001a16:	009b      	lsls	r3, r3, #2
 8001a18:	4413      	add	r3, r2
 8001a1a:	005b      	lsls	r3, r3, #1
 8001a1c:	1aca      	subs	r2, r1, r3
 8001a1e:	b2d2      	uxtb	r2, r2
 8001a20:	6dfb      	ldr	r3, [r7, #92]	; 0x5c
 8001a22:	1c59      	adds	r1, r3, #1
 8001a24:	65f9      	str	r1, [r7, #92]	; 0x5c
 8001a26:	3230      	adds	r2, #48	; 0x30
 8001a28:	b2d2      	uxtb	r2, r2
 8001a2a:	f107 0160 	add.w	r1, r7, #96	; 0x60
 8001a2e:	440b      	add	r3, r1
 8001a30:	f803 2c48 	strb.w	r2, [r3, #-72]
      if (!(frac /= 10U)) {
 8001a34:	6d3b      	ldr	r3, [r7, #80]	; 0x50
 8001a36:	4a5f      	ldr	r2, [pc, #380]	; (8001bb4 <_ftoa+0x4cc>)
 8001a38:	fba2 2303 	umull	r2, r3, r2, r3
 8001a3c:	08db      	lsrs	r3, r3, #3
 8001a3e:	653b      	str	r3, [r7, #80]	; 0x50
 8001a40:	6d3b      	ldr	r3, [r7, #80]	; 0x50
 8001a42:	2b00      	cmp	r3, #0
 8001a44:	d003      	beq.n	8001a4e <_ftoa+0x366>
    while (len < PRINTF_FTOA_BUFFER_SIZE) {
 8001a46:	6dfb      	ldr	r3, [r7, #92]	; 0x5c
 8001a48:	2b1f      	cmp	r3, #31
 8001a4a:	d9db      	bls.n	8001a04 <_ftoa+0x31c>
 8001a4c:	e00a      	b.n	8001a64 <_ftoa+0x37c>
        break;
 8001a4e:	bf00      	nop
      }
    }
    // add extra 0s
    while ((len < PRINTF_FTOA_BUFFER_SIZE) && (count-- > 0U)) {
 8001a50:	e008      	b.n	8001a64 <_ftoa+0x37c>
      buf[len++] = '0';
 8001a52:	6dfb      	ldr	r3, [r7, #92]	; 0x5c
 8001a54:	1c5a      	adds	r2, r3, #1
 8001a56:	65fa      	str	r2, [r7, #92]	; 0x5c
 8001a58:	f107 0260 	add.w	r2, r7, #96	; 0x60
 8001a5c:	4413      	add	r3, r2
 8001a5e:	2230      	movs	r2, #48	; 0x30
 8001a60:	f803 2c48 	strb.w	r2, [r3, #-72]
    while ((len < PRINTF_FTOA_BUFFER_SIZE) && (count-- > 0U)) {
 8001a64:	6dfb      	ldr	r3, [r7, #92]	; 0x5c
 8001a66:	2b1f      	cmp	r3, #31
 8001a68:	d804      	bhi.n	8001a74 <_ftoa+0x38c>
 8001a6a:	6cfb      	ldr	r3, [r7, #76]	; 0x4c
 8001a6c:	1e5a      	subs	r2, r3, #1
 8001a6e:	64fa      	str	r2, [r7, #76]	; 0x4c
 8001a70:	2b00      	cmp	r3, #0
 8001a72:	d1ee      	bne.n	8001a52 <_ftoa+0x36a>
    }
    if (len < PRINTF_FTOA_BUFFER_SIZE) {
 8001a74:	6dfb      	ldr	r3, [r7, #92]	; 0x5c
 8001a76:	2b1f      	cmp	r3, #31
 8001a78:	d82b      	bhi.n	8001ad2 <_ftoa+0x3ea>
      // add decimal
      buf[len++] = '.';
 8001a7a:	6dfb      	ldr	r3, [r7, #92]	; 0x5c
 8001a7c:	1c5a      	adds	r2, r3, #1
 8001a7e:	65fa      	str	r2, [r7, #92]	; 0x5c
 8001a80:	f107 0260 	add.w	r2, r7, #96	; 0x60
 8001a84:	4413      	add	r3, r2
 8001a86:	222e      	movs	r2, #46	; 0x2e
 8001a88:	f803 2c48 	strb.w	r2, [r3, #-72]
    }
  }

  // do whole part, number is reversed
  while (len < PRINTF_FTOA_BUFFER_SIZE) {
 8001a8c:	e021      	b.n	8001ad2 <_ftoa+0x3ea>
    buf[len++] = (char)(48 + (whole % 10));
 8001a8e:	6d7a      	ldr	r2, [r7, #84]	; 0x54
 8001a90:	4b49      	ldr	r3, [pc, #292]	; (8001bb8 <_ftoa+0x4d0>)
 8001a92:	fb83 1302 	smull	r1, r3, r3, r2
 8001a96:	1099      	asrs	r1, r3, #2
 8001a98:	17d3      	asrs	r3, r2, #31
 8001a9a:	1ac9      	subs	r1, r1, r3
 8001a9c:	460b      	mov	r3, r1
 8001a9e:	009b      	lsls	r3, r3, #2
 8001aa0:	440b      	add	r3, r1
 8001aa2:	005b      	lsls	r3, r3, #1
 8001aa4:	1ad1      	subs	r1, r2, r3
 8001aa6:	b2ca      	uxtb	r2, r1
 8001aa8:	6dfb      	ldr	r3, [r7, #92]	; 0x5c
 8001aaa:	1c59      	adds	r1, r3, #1
 8001aac:	65f9      	str	r1, [r7, #92]	; 0x5c
 8001aae:	3230      	adds	r2, #48	; 0x30
 8001ab0:	b2d2      	uxtb	r2, r2
 8001ab2:	f107 0160 	add.w	r1, r7, #96	; 0x60
 8001ab6:	440b      	add	r3, r1
 8001ab8:	f803 2c48 	strb.w	r2, [r3, #-72]
    if (!(whole /= 10)) {
 8001abc:	6d7b      	ldr	r3, [r7, #84]	; 0x54
 8001abe:	4a3e      	ldr	r2, [pc, #248]	; (8001bb8 <_ftoa+0x4d0>)
 8001ac0:	fb82 1203 	smull	r1, r2, r2, r3
 8001ac4:	1092      	asrs	r2, r2, #2
 8001ac6:	17db      	asrs	r3, r3, #31
 8001ac8:	1ad3      	subs	r3, r2, r3
 8001aca:	657b      	str	r3, [r7, #84]	; 0x54
 8001acc:	6d7b      	ldr	r3, [r7, #84]	; 0x54
 8001ace:	2b00      	cmp	r3, #0
 8001ad0:	d003      	beq.n	8001ada <_ftoa+0x3f2>
  while (len < PRINTF_FTOA_BUFFER_SIZE) {
 8001ad2:	6dfb      	ldr	r3, [r7, #92]	; 0x5c
 8001ad4:	2b1f      	cmp	r3, #31
 8001ad6:	d9da      	bls.n	8001a8e <_ftoa+0x3a6>
 8001ad8:	e000      	b.n	8001adc <_ftoa+0x3f4>
      break;
 8001ada:	bf00      	nop
    }
  }

  // pad leading zeros
  if (!(flags & FLAGS_LEFT) && (flags & FLAGS_ZEROPAD)) {
 8001adc:	6fbb      	ldr	r3, [r7, #120]	; 0x78
 8001ade:	f003 0302 	and.w	r3, r3, #2
 8001ae2:	2b00      	cmp	r3, #0
 8001ae4:	d124      	bne.n	8001b30 <_ftoa+0x448>
 8001ae6:	6fbb      	ldr	r3, [r7, #120]	; 0x78
 8001ae8:	f003 0301 	and.w	r3, r3, #1
 8001aec:	2b00      	cmp	r3, #0
 8001aee:	d01f      	beq.n	8001b30 <_ftoa+0x448>
    if (width && (negative || (flags & (FLAGS_PLUS | FLAGS_SPACE)))) {
 8001af0:	6f7b      	ldr	r3, [r7, #116]	; 0x74
 8001af2:	2b00      	cmp	r3, #0
 8001af4:	d015      	beq.n	8001b22 <_ftoa+0x43a>
 8001af6:	f897 305b 	ldrb.w	r3, [r7, #91]	; 0x5b
 8001afa:	2b00      	cmp	r3, #0
 8001afc:	d104      	bne.n	8001b08 <_ftoa+0x420>
 8001afe:	6fbb      	ldr	r3, [r7, #120]	; 0x78
 8001b00:	f003 030c 	and.w	r3, r3, #12
 8001b04:	2b00      	cmp	r3, #0
 8001b06:	d00c      	beq.n	8001b22 <_ftoa+0x43a>
      width--;
 8001b08:	6f7b      	ldr	r3, [r7, #116]	; 0x74
 8001b0a:	3b01      	subs	r3, #1
 8001b0c:	677b      	str	r3, [r7, #116]	; 0x74
    }
    while ((len < width) && (len < PRINTF_FTOA_BUFFER_SIZE)) {
 8001b0e:	e008      	b.n	8001b22 <_ftoa+0x43a>
      buf[len++] = '0';
 8001b10:	6dfb      	ldr	r3, [r7, #92]	; 0x5c
 8001b12:	1c5a      	adds	r2, r3, #1
 8001b14:	65fa      	str	r2, [r7, #92]	; 0x5c
 8001b16:	f107 0260 	add.w	r2, r7, #96	; 0x60
 8001b1a:	4413      	add	r3, r2
 8001b1c:	2230      	movs	r2, #48	; 0x30
 8001b1e:	f803 2c48 	strb.w	r2, [r3, #-72]
    while ((len < width) && (len < PRINTF_FTOA_BUFFER_SIZE)) {
 8001b22:	6dfa      	ldr	r2, [r7, #92]	; 0x5c
 8001b24:	6f7b      	ldr	r3, [r7, #116]	; 0x74
 8001b26:	429a      	cmp	r2, r3
 8001b28:	d202      	bcs.n	8001b30 <_ftoa+0x448>
 8001b2a:	6dfb      	ldr	r3, [r7, #92]	; 0x5c
 8001b2c:	2b1f      	cmp	r3, #31
 8001b2e:	d9ef      	bls.n	8001b10 <_ftoa+0x428>
    }
  }

  if (len < PRINTF_FTOA_BUFFER_SIZE) {
 8001b30:	6dfb      	ldr	r3, [r7, #92]	; 0x5c
 8001b32:	2b1f      	cmp	r3, #31
 8001b34:	d82a      	bhi.n	8001b8c <_ftoa+0x4a4>
    if (negative) {
 8001b36:	f897 305b 	ldrb.w	r3, [r7, #91]	; 0x5b
 8001b3a:	2b00      	cmp	r3, #0
 8001b3c:	d009      	beq.n	8001b52 <_ftoa+0x46a>
      buf[len++] = '-';
 8001b3e:	6dfb      	ldr	r3, [r7, #92]	; 0x5c
 8001b40:	1c5a      	adds	r2, r3, #1
 8001b42:	65fa      	str	r2, [r7, #92]	; 0x5c
 8001b44:	f107 0260 	add.w	r2, r7, #96	; 0x60
 8001b48:	4413      	add	r3, r2
 8001b4a:	222d      	movs	r2, #45	; 0x2d
 8001b4c:	f803 2c48 	strb.w	r2, [r3, #-72]
 8001b50:	e01c      	b.n	8001b8c <_ftoa+0x4a4>
    }
    else if (flags & FLAGS_PLUS) {
 8001b52:	6fbb      	ldr	r3, [r7, #120]	; 0x78
 8001b54:	f003 0304 	and.w	r3, r3, #4
 8001b58:	2b00      	cmp	r3, #0
 8001b5a:	d009      	beq.n	8001b70 <_ftoa+0x488>
      buf[len++] = '+';  // ignore the space if the '+' exists
 8001b5c:	6dfb      	ldr	r3, [r7, #92]	; 0x5c
 8001b5e:	1c5a      	adds	r2, r3, #1
 8001b60:	65fa      	str	r2, [r7, #92]	; 0x5c
 8001b62:	f107 0260 	add.w	r2, r7, #96	; 0x60
 8001b66:	4413      	add	r3, r2
 8001b68:	222b      	movs	r2, #43	; 0x2b
 8001b6a:	f803 2c48 	strb.w	r2, [r3, #-72]
 8001b6e:	e00d      	b.n	8001b8c <_ftoa+0x4a4>
    }
    else if (flags & FLAGS_SPACE) {
 8001b70:	6fbb      	ldr	r3, [r7, #120]	; 0x78
 8001b72:	f003 0308 	and.w	r3, r3, #8
 8001b76:	2b00      	cmp	r3, #0
 8001b78:	d008      	beq.n	8001b8c <_ftoa+0x4a4>
      buf[len++] = ' ';
 8001b7a:	6dfb      	ldr	r3, [r7, #92]	; 0x5c
 8001b7c:	1c5a      	adds	r2, r3, #1
 8001b7e:	65fa      	str	r2, [r7, #92]	; 0x5c
 8001b80:	f107 0260 	add.w	r2, r7, #96	; 0x60
 8001b84:	4413      	add	r3, r2
 8001b86:	2220      	movs	r2, #32
 8001b88:	f803 2c48 	strb.w	r2, [r3, #-72]
    }
  }

  return _out_rev(out, buffer, idx, maxlen, buf, len, width, flags);
 8001b8c:	6fbb      	ldr	r3, [r7, #120]	; 0x78
 8001b8e:	9303      	str	r3, [sp, #12]
 8001b90:	6f7b      	ldr	r3, [r7, #116]	; 0x74
 8001b92:	9302      	str	r3, [sp, #8]
 8001b94:	6dfb      	ldr	r3, [r7, #92]	; 0x5c
 8001b96:	9301      	str	r3, [sp, #4]
 8001b98:	f107 0318 	add.w	r3, r7, #24
 8001b9c:	9300      	str	r3, [sp, #0]
 8001b9e:	68bb      	ldr	r3, [r7, #8]
 8001ba0:	68fa      	ldr	r2, [r7, #12]
 8001ba2:	6939      	ldr	r1, [r7, #16]
 8001ba4:	6978      	ldr	r0, [r7, #20]
 8001ba6:	f7ff fb9c 	bl	80012e2 <_out_rev>
 8001baa:	4603      	mov	r3, r0
}
 8001bac:	4618      	mov	r0, r3
 8001bae:	3764      	adds	r7, #100	; 0x64
 8001bb0:	46bd      	mov	sp, r7
 8001bb2:	bd90      	pop	{r4, r7, pc}
 8001bb4:	cccccccd 	.word	0xcccccccd
 8001bb8:	66666667 	.word	0x66666667
 8001bbc:	00000000 	.word	0x00000000

08001bc0 <_etoa>:


#if defined(PRINTF_SUPPORT_EXPONENTIAL)
// internal ftoa variant for exponential floating-point type, contributed by Martijn Jasperse <m.jasperse@gmail.com>
static size_t _etoa(out_fct_type out, char* buffer, size_t idx, size_t maxlen, double value, unsigned int prec, unsigned int width, unsigned int flags)
{
 8001bc0:	e92d 4ff0 	stmdb	sp!, {r4, r5, r6, r7, r8, r9, sl, fp, lr}
 8001bc4:	b09d      	sub	sp, #116	; 0x74
 8001bc6:	af06      	add	r7, sp, #24
 8001bc8:	61f8      	str	r0, [r7, #28]
 8001bca:	61b9      	str	r1, [r7, #24]
 8001bcc:	617a      	str	r2, [r7, #20]
 8001bce:	613b      	str	r3, [r7, #16]
 8001bd0:	ed87 0b02 	vstr	d0, [r7, #8]
  // check for NaN and special values
  if ((value != value) || (value > DBL_MAX) || (value < -DBL_MAX)) {
 8001bd4:	e9d7 2302 	ldrd	r2, r3, [r7, #8]
 8001bd8:	e9d7 0102 	ldrd	r0, r1, [r7, #8]
 8001bdc:	f7fe ff24 	bl	8000a28 <__aeabi_dcmpeq>
 8001be0:	4603      	mov	r3, r0
 8001be2:	2b00      	cmp	r3, #0
 8001be4:	d014      	beq.n	8001c10 <_etoa+0x50>
 8001be6:	f04f 32ff 	mov.w	r2, #4294967295
 8001bea:	4bc9      	ldr	r3, [pc, #804]	; (8001f10 <_etoa+0x350>)
 8001bec:	e9d7 0102 	ldrd	r0, r1, [r7, #8]
 8001bf0:	f7fe ff42 	bl	8000a78 <__aeabi_dcmpgt>
 8001bf4:	4603      	mov	r3, r0
 8001bf6:	2b00      	cmp	r3, #0
 8001bf8:	d10a      	bne.n	8001c10 <_etoa+0x50>
 8001bfa:	f04f 32ff 	mov.w	r2, #4294967295
 8001bfe:	f46f 1380 	mvn.w	r3, #1048576	; 0x100000
 8001c02:	e9d7 0102 	ldrd	r0, r1, [r7, #8]
 8001c06:	f7fe ff19 	bl	8000a3c <__aeabi_dcmplt>
 8001c0a:	4603      	mov	r3, r0
 8001c0c:	2b00      	cmp	r3, #0
 8001c0e:	d012      	beq.n	8001c36 <_etoa+0x76>
    return _ftoa(out, buffer, idx, maxlen, value, prec, width, flags);
 8001c10:	f8d7 3088 	ldr.w	r3, [r7, #136]	; 0x88
 8001c14:	9302      	str	r3, [sp, #8]
 8001c16:	f8d7 3084 	ldr.w	r3, [r7, #132]	; 0x84
 8001c1a:	9301      	str	r3, [sp, #4]
 8001c1c:	f8d7 3080 	ldr.w	r3, [r7, #128]	; 0x80
 8001c20:	9300      	str	r3, [sp, #0]
 8001c22:	ed97 0b02 	vldr	d0, [r7, #8]
 8001c26:	693b      	ldr	r3, [r7, #16]
 8001c28:	697a      	ldr	r2, [r7, #20]
 8001c2a:	69b9      	ldr	r1, [r7, #24]
 8001c2c:	69f8      	ldr	r0, [r7, #28]
 8001c2e:	f7ff fd5b 	bl	80016e8 <_ftoa>
 8001c32:	4603      	mov	r3, r0
 8001c34:	e24f      	b.n	80020d6 <_etoa+0x516>
  }

  // determine the sign
  const bool negative = value < 0;
 8001c36:	2301      	movs	r3, #1
 8001c38:	461c      	mov	r4, r3
 8001c3a:	f04f 0200 	mov.w	r2, #0
 8001c3e:	f04f 0300 	mov.w	r3, #0
 8001c42:	e9d7 0102 	ldrd	r0, r1, [r7, #8]
 8001c46:	f7fe fef9 	bl	8000a3c <__aeabi_dcmplt>
 8001c4a:	4603      	mov	r3, r0
 8001c4c:	2b00      	cmp	r3, #0
 8001c4e:	d101      	bne.n	8001c54 <_etoa+0x94>
 8001c50:	2300      	movs	r3, #0
 8001c52:	461c      	mov	r4, r3
 8001c54:	f887 404b 	strb.w	r4, [r7, #75]	; 0x4b
  if (negative) {
 8001c58:	f897 304b 	ldrb.w	r3, [r7, #75]	; 0x4b
 8001c5c:	2b00      	cmp	r3, #0
 8001c5e:	d005      	beq.n	8001c6c <_etoa+0xac>
    value = -value;
 8001c60:	68bb      	ldr	r3, [r7, #8]
 8001c62:	60bb      	str	r3, [r7, #8]
 8001c64:	68fb      	ldr	r3, [r7, #12]
 8001c66:	f083 4300 	eor.w	r3, r3, #2147483648	; 0x80000000
 8001c6a:	60fb      	str	r3, [r7, #12]
  }

  // default precision
  if (!(flags & FLAGS_PRECISION)) {
 8001c6c:	f8d7 3088 	ldr.w	r3, [r7, #136]	; 0x88
 8001c70:	f403 6380 	and.w	r3, r3, #1024	; 0x400
 8001c74:	2b00      	cmp	r3, #0
 8001c76:	d102      	bne.n	8001c7e <_etoa+0xbe>
    prec = PRINTF_DEFAULT_FLOAT_PRECISION;
 8001c78:	2306      	movs	r3, #6
 8001c7a:	f8c7 3080 	str.w	r3, [r7, #128]	; 0x80
  union {
    uint64_t U;
    double   F;
  } conv;

  conv.F = value;
 8001c7e:	e9d7 3402 	ldrd	r3, r4, [r7, #8]
 8001c82:	e9c7 3408 	strd	r3, r4, [r7, #32]
  int exp2 = (int)((conv.U >> 52U) & 0x07FFU) - 1023;           // effectively log2
 8001c86:	e9d7 1208 	ldrd	r1, r2, [r7, #32]
 8001c8a:	f04f 0300 	mov.w	r3, #0
 8001c8e:	f04f 0400 	mov.w	r4, #0
 8001c92:	0d13      	lsrs	r3, r2, #20
 8001c94:	2400      	movs	r4, #0
 8001c96:	f3c3 030a 	ubfx	r3, r3, #0, #11
 8001c9a:	f2a3 33ff 	subw	r3, r3, #1023	; 0x3ff
 8001c9e:	647b      	str	r3, [r7, #68]	; 0x44
  conv.U = (conv.U & ((1ULL << 52U) - 1U)) | (1023ULL << 52U);  // drop the exponent so conv.F is now in [1,2)
 8001ca0:	e9d7 3408 	ldrd	r3, r4, [r7, #32]
 8001ca4:	f04f 31ff 	mov.w	r1, #4294967295
 8001ca8:	4a9a      	ldr	r2, [pc, #616]	; (8001f14 <_etoa+0x354>)
 8001caa:	ea03 0801 	and.w	r8, r3, r1
 8001cae:	ea04 0902 	and.w	r9, r4, r2
 8001cb2:	f04f 0100 	mov.w	r1, #0
 8001cb6:	4a98      	ldr	r2, [pc, #608]	; (8001f18 <_etoa+0x358>)
 8001cb8:	ea48 0301 	orr.w	r3, r8, r1
 8001cbc:	ea49 0402 	orr.w	r4, r9, r2
 8001cc0:	e9c7 3408 	strd	r3, r4, [r7, #32]
  // now approximate log10 from the log2 integer part and an expansion of ln around 1.5
  int expval = (int)(0.1760912590558 + exp2 * 0.301029995663981 + (conv.F - 1.5) * 0.289529654602168);
 8001cc4:	6c78      	ldr	r0, [r7, #68]	; 0x44
 8001cc6:	f7fe fbdd 	bl	8000484 <__aeabi_i2d>
 8001cca:	a385      	add	r3, pc, #532	; (adr r3, 8001ee0 <_etoa+0x320>)
 8001ccc:	e9d3 2300 	ldrd	r2, r3, [r3]
 8001cd0:	f7fe fc42 	bl	8000558 <__aeabi_dmul>
 8001cd4:	4603      	mov	r3, r0
 8001cd6:	460c      	mov	r4, r1
 8001cd8:	4618      	mov	r0, r3
 8001cda:	4621      	mov	r1, r4
 8001cdc:	a382      	add	r3, pc, #520	; (adr r3, 8001ee8 <_etoa+0x328>)
 8001cde:	e9d3 2300 	ldrd	r2, r3, [r3]
 8001ce2:	f7fe fa83 	bl	80001ec <__adddf3>
 8001ce6:	4603      	mov	r3, r0
 8001ce8:	460c      	mov	r4, r1
 8001cea:	4698      	mov	r8, r3
 8001cec:	46a1      	mov	r9, r4
 8001cee:	e9d7 0108 	ldrd	r0, r1, [r7, #32]
 8001cf2:	f04f 0200 	mov.w	r2, #0
 8001cf6:	4b89      	ldr	r3, [pc, #548]	; (8001f1c <_etoa+0x35c>)
 8001cf8:	f7fe fa76 	bl	80001e8 <__aeabi_dsub>
 8001cfc:	4603      	mov	r3, r0
 8001cfe:	460c      	mov	r4, r1
 8001d00:	4618      	mov	r0, r3
 8001d02:	4621      	mov	r1, r4
 8001d04:	a37a      	add	r3, pc, #488	; (adr r3, 8001ef0 <_etoa+0x330>)
 8001d06:	e9d3 2300 	ldrd	r2, r3, [r3]
 8001d0a:	f7fe fc25 	bl	8000558 <__aeabi_dmul>
 8001d0e:	4603      	mov	r3, r0
 8001d10:	460c      	mov	r4, r1
 8001d12:	461a      	mov	r2, r3
 8001d14:	4623      	mov	r3, r4
 8001d16:	4640      	mov	r0, r8
 8001d18:	4649      	mov	r1, r9
 8001d1a:	f7fe fa67 	bl	80001ec <__adddf3>
 8001d1e:	4603      	mov	r3, r0
 8001d20:	460c      	mov	r4, r1
 8001d22:	4618      	mov	r0, r3
 8001d24:	4621      	mov	r1, r4
 8001d26:	f7fe feb1 	bl	8000a8c <__aeabi_d2iz>
 8001d2a:	4603      	mov	r3, r0
 8001d2c:	657b      	str	r3, [r7, #84]	; 0x54
  // now we want to compute 10^expval but we want to be sure it won't overflow
  exp2 = (int)(expval * 3.321928094887362 + 0.5);
 8001d2e:	6d78      	ldr	r0, [r7, #84]	; 0x54
 8001d30:	f7fe fba8 	bl	8000484 <__aeabi_i2d>
 8001d34:	a370      	add	r3, pc, #448	; (adr r3, 8001ef8 <_etoa+0x338>)
 8001d36:	e9d3 2300 	ldrd	r2, r3, [r3]
 8001d3a:	f7fe fc0d 	bl	8000558 <__aeabi_dmul>
 8001d3e:	4603      	mov	r3, r0
 8001d40:	460c      	mov	r4, r1
 8001d42:	4618      	mov	r0, r3
 8001d44:	4621      	mov	r1, r4
 8001d46:	f04f 0200 	mov.w	r2, #0
 8001d4a:	4b75      	ldr	r3, [pc, #468]	; (8001f20 <_etoa+0x360>)
 8001d4c:	f7fe fa4e 	bl	80001ec <__adddf3>
 8001d50:	4603      	mov	r3, r0
 8001d52:	460c      	mov	r4, r1
 8001d54:	4618      	mov	r0, r3
 8001d56:	4621      	mov	r1, r4
 8001d58:	f7fe fe98 	bl	8000a8c <__aeabi_d2iz>
 8001d5c:	4603      	mov	r3, r0
 8001d5e:	647b      	str	r3, [r7, #68]	; 0x44
  const double z  = expval * 2.302585092994046 - exp2 * 0.6931471805599453;
 8001d60:	6d78      	ldr	r0, [r7, #84]	; 0x54
 8001d62:	f7fe fb8f 	bl	8000484 <__aeabi_i2d>
 8001d66:	a366      	add	r3, pc, #408	; (adr r3, 8001f00 <_etoa+0x340>)
 8001d68:	e9d3 2300 	ldrd	r2, r3, [r3]
 8001d6c:	f7fe fbf4 	bl	8000558 <__aeabi_dmul>
 8001d70:	4603      	mov	r3, r0
 8001d72:	460c      	mov	r4, r1
 8001d74:	4698      	mov	r8, r3
 8001d76:	46a1      	mov	r9, r4
 8001d78:	6c78      	ldr	r0, [r7, #68]	; 0x44
 8001d7a:	f7fe fb83 	bl	8000484 <__aeabi_i2d>
 8001d7e:	a362      	add	r3, pc, #392	; (adr r3, 8001f08 <_etoa+0x348>)
 8001d80:	e9d3 2300 	ldrd	r2, r3, [r3]
 8001d84:	f7fe fbe8 	bl	8000558 <__aeabi_dmul>
 8001d88:	4603      	mov	r3, r0
 8001d8a:	460c      	mov	r4, r1
 8001d8c:	461a      	mov	r2, r3
 8001d8e:	4623      	mov	r3, r4
 8001d90:	4640      	mov	r0, r8
 8001d92:	4649      	mov	r1, r9
 8001d94:	f7fe fa28 	bl	80001e8 <__aeabi_dsub>
 8001d98:	4603      	mov	r3, r0
 8001d9a:	460c      	mov	r4, r1
 8001d9c:	e9c7 340e 	strd	r3, r4, [r7, #56]	; 0x38
  const double z2 = z * z;
 8001da0:	e9d7 230e 	ldrd	r2, r3, [r7, #56]	; 0x38
 8001da4:	e9d7 010e 	ldrd	r0, r1, [r7, #56]	; 0x38
 8001da8:	f7fe fbd6 	bl	8000558 <__aeabi_dmul>
 8001dac:	4603      	mov	r3, r0
 8001dae:	460c      	mov	r4, r1
 8001db0:	e9c7 340c 	strd	r3, r4, [r7, #48]	; 0x30
  conv.U = (uint64_t)(exp2 + 1023) << 52U;
 8001db4:	6c7b      	ldr	r3, [r7, #68]	; 0x44
 8001db6:	f203 33ff 	addw	r3, r3, #1023	; 0x3ff
 8001dba:	4619      	mov	r1, r3
 8001dbc:	ea4f 72e1 	mov.w	r2, r1, asr #31
 8001dc0:	f04f 0300 	mov.w	r3, #0
 8001dc4:	f04f 0400 	mov.w	r4, #0
 8001dc8:	050c      	lsls	r4, r1, #20
 8001dca:	2300      	movs	r3, #0
 8001dcc:	e9c7 3408 	strd	r3, r4, [r7, #32]
  // compute exp(z) using continued fractions, see https://en.wikipedia.org/wiki/Exponential_function#Continued_fractions_for_ex
  conv.F *= 1 + 2 * z / (2 - z + (z2 / (6 + (z2 / (10 + z2 / 14)))));
 8001dd0:	e9d7 8908 	ldrd	r8, r9, [r7, #32]
 8001dd4:	e9d7 010e 	ldrd	r0, r1, [r7, #56]	; 0x38
 8001dd8:	4602      	mov	r2, r0
 8001dda:	460b      	mov	r3, r1
 8001ddc:	f7fe fa06 	bl	80001ec <__adddf3>
 8001de0:	4603      	mov	r3, r0
 8001de2:	460c      	mov	r4, r1
 8001de4:	469a      	mov	sl, r3
 8001de6:	46a3      	mov	fp, r4
 8001de8:	e9d7 230e 	ldrd	r2, r3, [r7, #56]	; 0x38
 8001dec:	f04f 0000 	mov.w	r0, #0
 8001df0:	f04f 4180 	mov.w	r1, #1073741824	; 0x40000000
 8001df4:	f7fe f9f8 	bl	80001e8 <__aeabi_dsub>
 8001df8:	4603      	mov	r3, r0
 8001dfa:	460c      	mov	r4, r1
 8001dfc:	e9c7 3400 	strd	r3, r4, [r7]
 8001e00:	f04f 0200 	mov.w	r2, #0
 8001e04:	4b47      	ldr	r3, [pc, #284]	; (8001f24 <_etoa+0x364>)
 8001e06:	e9d7 010c 	ldrd	r0, r1, [r7, #48]	; 0x30
 8001e0a:	f7fe fccf 	bl	80007ac <__aeabi_ddiv>
 8001e0e:	4603      	mov	r3, r0
 8001e10:	460c      	mov	r4, r1
 8001e12:	4618      	mov	r0, r3
 8001e14:	4621      	mov	r1, r4
 8001e16:	f04f 0200 	mov.w	r2, #0
 8001e1a:	4b43      	ldr	r3, [pc, #268]	; (8001f28 <_etoa+0x368>)
 8001e1c:	f7fe f9e6 	bl	80001ec <__adddf3>
 8001e20:	4603      	mov	r3, r0
 8001e22:	460c      	mov	r4, r1
 8001e24:	461a      	mov	r2, r3
 8001e26:	4623      	mov	r3, r4
 8001e28:	e9d7 010c 	ldrd	r0, r1, [r7, #48]	; 0x30
 8001e2c:	f7fe fcbe 	bl	80007ac <__aeabi_ddiv>
 8001e30:	4603      	mov	r3, r0
 8001e32:	460c      	mov	r4, r1
 8001e34:	4618      	mov	r0, r3
 8001e36:	4621      	mov	r1, r4
 8001e38:	f04f 0200 	mov.w	r2, #0
 8001e3c:	4b3b      	ldr	r3, [pc, #236]	; (8001f2c <_etoa+0x36c>)
 8001e3e:	f7fe f9d5 	bl	80001ec <__adddf3>
 8001e42:	4603      	mov	r3, r0
 8001e44:	460c      	mov	r4, r1
 8001e46:	461a      	mov	r2, r3
 8001e48:	4623      	mov	r3, r4
 8001e4a:	e9d7 010c 	ldrd	r0, r1, [r7, #48]	; 0x30
 8001e4e:	f7fe fcad 	bl	80007ac <__aeabi_ddiv>
 8001e52:	4603      	mov	r3, r0
 8001e54:	460c      	mov	r4, r1
 8001e56:	461a      	mov	r2, r3
 8001e58:	4623      	mov	r3, r4
 8001e5a:	e9d7 0100 	ldrd	r0, r1, [r7]
 8001e5e:	f7fe f9c5 	bl	80001ec <__adddf3>
 8001e62:	4603      	mov	r3, r0
 8001e64:	460c      	mov	r4, r1
 8001e66:	461a      	mov	r2, r3
 8001e68:	4623      	mov	r3, r4
 8001e6a:	4650      	mov	r0, sl
 8001e6c:	4659      	mov	r1, fp
 8001e6e:	f7fe fc9d 	bl	80007ac <__aeabi_ddiv>
 8001e72:	4603      	mov	r3, r0
 8001e74:	460c      	mov	r4, r1
 8001e76:	4618      	mov	r0, r3
 8001e78:	4621      	mov	r1, r4
 8001e7a:	f04f 0200 	mov.w	r2, #0
 8001e7e:	4b26      	ldr	r3, [pc, #152]	; (8001f18 <_etoa+0x358>)
 8001e80:	f7fe f9b4 	bl	80001ec <__adddf3>
 8001e84:	4603      	mov	r3, r0
 8001e86:	460c      	mov	r4, r1
 8001e88:	461a      	mov	r2, r3
 8001e8a:	4623      	mov	r3, r4
 8001e8c:	4640      	mov	r0, r8
 8001e8e:	4649      	mov	r1, r9
 8001e90:	f7fe fb62 	bl	8000558 <__aeabi_dmul>
 8001e94:	4603      	mov	r3, r0
 8001e96:	460c      	mov	r4, r1
 8001e98:	e9c7 3408 	strd	r3, r4, [r7, #32]
  // correct for rounding errors
  if (value < conv.F) {
 8001e9c:	e9d7 3408 	ldrd	r3, r4, [r7, #32]
 8001ea0:	461a      	mov	r2, r3
 8001ea2:	4623      	mov	r3, r4
 8001ea4:	e9d7 0102 	ldrd	r0, r1, [r7, #8]
 8001ea8:	f7fe fdc8 	bl	8000a3c <__aeabi_dcmplt>
 8001eac:	4603      	mov	r3, r0
 8001eae:	2b00      	cmp	r3, #0
 8001eb0:	d00d      	beq.n	8001ece <_etoa+0x30e>
    expval--;
 8001eb2:	6d7b      	ldr	r3, [r7, #84]	; 0x54
 8001eb4:	3b01      	subs	r3, #1
 8001eb6:	657b      	str	r3, [r7, #84]	; 0x54
    conv.F /= 10;
 8001eb8:	e9d7 0108 	ldrd	r0, r1, [r7, #32]
 8001ebc:	f04f 0200 	mov.w	r2, #0
 8001ec0:	4b19      	ldr	r3, [pc, #100]	; (8001f28 <_etoa+0x368>)
 8001ec2:	f7fe fc73 	bl	80007ac <__aeabi_ddiv>
 8001ec6:	4603      	mov	r3, r0
 8001ec8:	460c      	mov	r4, r1
 8001eca:	e9c7 3408 	strd	r3, r4, [r7, #32]
  }

  // the exponent format is "%+03d" and largest value is "307", so set aside 4-5 characters
  unsigned int minwidth = ((expval < 100) && (expval > -100)) ? 4U : 5U;
 8001ece:	6d7b      	ldr	r3, [r7, #84]	; 0x54
 8001ed0:	2b63      	cmp	r3, #99	; 0x63
 8001ed2:	dc2d      	bgt.n	8001f30 <_etoa+0x370>
 8001ed4:	6d7b      	ldr	r3, [r7, #84]	; 0x54
 8001ed6:	f113 0f63 	cmn.w	r3, #99	; 0x63
 8001eda:	db29      	blt.n	8001f30 <_etoa+0x370>
 8001edc:	2304      	movs	r3, #4
 8001ede:	e028      	b.n	8001f32 <_etoa+0x372>
 8001ee0:	509f79fb 	.word	0x509f79fb
 8001ee4:	3fd34413 	.word	0x3fd34413
 8001ee8:	8b60c8b3 	.word	0x8b60c8b3
 8001eec:	3fc68a28 	.word	0x3fc68a28
 8001ef0:	636f4361 	.word	0x636f4361
 8001ef4:	3fd287a7 	.word	0x3fd287a7
 8001ef8:	0979a371 	.word	0x0979a371
 8001efc:	400a934f 	.word	0x400a934f
 8001f00:	bbb55516 	.word	0xbbb55516
 8001f04:	40026bb1 	.word	0x40026bb1
 8001f08:	fefa39ef 	.word	0xfefa39ef
 8001f0c:	3fe62e42 	.word	0x3fe62e42
 8001f10:	7fefffff 	.word	0x7fefffff
 8001f14:	000fffff 	.word	0x000fffff
 8001f18:	3ff00000 	.word	0x3ff00000
 8001f1c:	3ff80000 	.word	0x3ff80000
 8001f20:	3fe00000 	.word	0x3fe00000
 8001f24:	402c0000 	.word	0x402c0000
 8001f28:	40240000 	.word	0x40240000
 8001f2c:	40180000 	.word	0x40180000
 8001f30:	2305      	movs	r3, #5
 8001f32:	653b      	str	r3, [r7, #80]	; 0x50

  // in "%g" mode, "prec" is the number of *significant figures* not decimals
  if (flags & FLAGS_ADAPT_EXP) {
 8001f34:	f8d7 3088 	ldr.w	r3, [r7, #136]	; 0x88
 8001f38:	f403 6300 	and.w	r3, r3, #2048	; 0x800
 8001f3c:	2b00      	cmp	r3, #0
 8001f3e:	d03d      	beq.n	8001fbc <_etoa+0x3fc>
    // do we want to fall-back to "%f" mode?
    if ((value >= 1e-4) && (value < 1e6)) {
 8001f40:	a367      	add	r3, pc, #412	; (adr r3, 80020e0 <_etoa+0x520>)
 8001f42:	e9d3 2300 	ldrd	r2, r3, [r3]
 8001f46:	e9d7 0102 	ldrd	r0, r1, [r7, #8]
 8001f4a:	f7fe fd8b 	bl	8000a64 <__aeabi_dcmpge>
 8001f4e:	4603      	mov	r3, r0
 8001f50:	2b00      	cmp	r3, #0
 8001f52:	d024      	beq.n	8001f9e <_etoa+0x3de>
 8001f54:	a364      	add	r3, pc, #400	; (adr r3, 80020e8 <_etoa+0x528>)
 8001f56:	e9d3 2300 	ldrd	r2, r3, [r3]
 8001f5a:	e9d7 0102 	ldrd	r0, r1, [r7, #8]
 8001f5e:	f7fe fd6d 	bl	8000a3c <__aeabi_dcmplt>
 8001f62:	4603      	mov	r3, r0
 8001f64:	2b00      	cmp	r3, #0
 8001f66:	d01a      	beq.n	8001f9e <_etoa+0x3de>
      if ((int)prec > expval) {
 8001f68:	f8d7 3080 	ldr.w	r3, [r7, #128]	; 0x80
 8001f6c:	6d7a      	ldr	r2, [r7, #84]	; 0x54
 8001f6e:	429a      	cmp	r2, r3
 8001f70:	da07      	bge.n	8001f82 <_etoa+0x3c2>
        prec = (unsigned)((int)prec - expval - 1);
 8001f72:	f8d7 2080 	ldr.w	r2, [r7, #128]	; 0x80
 8001f76:	6d7b      	ldr	r3, [r7, #84]	; 0x54
 8001f78:	1ad3      	subs	r3, r2, r3
 8001f7a:	3b01      	subs	r3, #1
 8001f7c:	f8c7 3080 	str.w	r3, [r7, #128]	; 0x80
 8001f80:	e002      	b.n	8001f88 <_etoa+0x3c8>
      }
      else {
        prec = 0;
 8001f82:	2300      	movs	r3, #0
 8001f84:	f8c7 3080 	str.w	r3, [r7, #128]	; 0x80
      }
      flags |= FLAGS_PRECISION;   // make sure _ftoa respects precision
 8001f88:	f8d7 3088 	ldr.w	r3, [r7, #136]	; 0x88
 8001f8c:	f443 6380 	orr.w	r3, r3, #1024	; 0x400
 8001f90:	f8c7 3088 	str.w	r3, [r7, #136]	; 0x88
      // no characters in exponent
      minwidth = 0U;
 8001f94:	2300      	movs	r3, #0
 8001f96:	653b      	str	r3, [r7, #80]	; 0x50
      expval   = 0;
 8001f98:	2300      	movs	r3, #0
 8001f9a:	657b      	str	r3, [r7, #84]	; 0x54
 8001f9c:	e00e      	b.n	8001fbc <_etoa+0x3fc>
    }
    else {
      // we use one sigfig for the whole part
      if ((prec > 0) && (flags & FLAGS_PRECISION)) {
 8001f9e:	f8d7 3080 	ldr.w	r3, [r7, #128]	; 0x80
 8001fa2:	2b00      	cmp	r3, #0
 8001fa4:	d00a      	beq.n	8001fbc <_etoa+0x3fc>
 8001fa6:	f8d7 3088 	ldr.w	r3, [r7, #136]	; 0x88
 8001faa:	f403 6380 	and.w	r3, r3, #1024	; 0x400
 8001fae:	2b00      	cmp	r3, #0
 8001fb0:	d004      	beq.n	8001fbc <_etoa+0x3fc>
        --prec;
 8001fb2:	f8d7 3080 	ldr.w	r3, [r7, #128]	; 0x80
 8001fb6:	3b01      	subs	r3, #1
 8001fb8:	f8c7 3080 	str.w	r3, [r7, #128]	; 0x80
      }
    }
  }

  // will everything fit?
  unsigned int fwidth = width;
 8001fbc:	f8d7 3084 	ldr.w	r3, [r7, #132]	; 0x84
 8001fc0:	64fb      	str	r3, [r7, #76]	; 0x4c
  if (width > minwidth) {
 8001fc2:	f8d7 2084 	ldr.w	r2, [r7, #132]	; 0x84
 8001fc6:	6d3b      	ldr	r3, [r7, #80]	; 0x50
 8001fc8:	429a      	cmp	r2, r3
 8001fca:	d904      	bls.n	8001fd6 <_etoa+0x416>
    // we didn't fall-back so subtract the characters required for the exponent
    fwidth -= minwidth;
 8001fcc:	6cfa      	ldr	r2, [r7, #76]	; 0x4c
 8001fce:	6d3b      	ldr	r3, [r7, #80]	; 0x50
 8001fd0:	1ad3      	subs	r3, r2, r3
 8001fd2:	64fb      	str	r3, [r7, #76]	; 0x4c
 8001fd4:	e001      	b.n	8001fda <_etoa+0x41a>
  } else {
    // not enough characters, so go back to default sizing
    fwidth = 0U;
 8001fd6:	2300      	movs	r3, #0
 8001fd8:	64fb      	str	r3, [r7, #76]	; 0x4c
  }
  if ((flags & FLAGS_LEFT) && minwidth) {
 8001fda:	f8d7 3088 	ldr.w	r3, [r7, #136]	; 0x88
 8001fde:	f003 0302 	and.w	r3, r3, #2
 8001fe2:	2b00      	cmp	r3, #0
 8001fe4:	d004      	beq.n	8001ff0 <_etoa+0x430>
 8001fe6:	6d3b      	ldr	r3, [r7, #80]	; 0x50
 8001fe8:	2b00      	cmp	r3, #0
 8001fea:	d001      	beq.n	8001ff0 <_etoa+0x430>
    // if we're padding on the right, DON'T pad the floating part
    fwidth = 0U;
 8001fec:	2300      	movs	r3, #0
 8001fee:	64fb      	str	r3, [r7, #76]	; 0x4c
  }

  // rescale the float value
  if (expval) {
 8001ff0:	6d7b      	ldr	r3, [r7, #84]	; 0x54
 8001ff2:	2b00      	cmp	r3, #0
 8001ff4:	d00b      	beq.n	800200e <_etoa+0x44e>
    value /= conv.F;
 8001ff6:	e9d7 3408 	ldrd	r3, r4, [r7, #32]
 8001ffa:	461a      	mov	r2, r3
 8001ffc:	4623      	mov	r3, r4
 8001ffe:	e9d7 0102 	ldrd	r0, r1, [r7, #8]
 8002002:	f7fe fbd3 	bl	80007ac <__aeabi_ddiv>
 8002006:	4603      	mov	r3, r0
 8002008:	460c      	mov	r4, r1
 800200a:	e9c7 3402 	strd	r3, r4, [r7, #8]
  }

  // output the floating part
  const size_t start_idx = idx;
 800200e:	697b      	ldr	r3, [r7, #20]
 8002010:	62fb      	str	r3, [r7, #44]	; 0x2c
  idx = _ftoa(out, buffer, idx, maxlen, negative ? -value : value, prec, fwidth, flags & ~FLAGS_ADAPT_EXP);
 8002012:	f897 304b 	ldrb.w	r3, [r7, #75]	; 0x4b
 8002016:	2b00      	cmp	r3, #0
 8002018:	d004      	beq.n	8002024 <_etoa+0x464>
 800201a:	68bd      	ldr	r5, [r7, #8]
 800201c:	68fb      	ldr	r3, [r7, #12]
 800201e:	f083 4600 	eor.w	r6, r3, #2147483648	; 0x80000000
 8002022:	e001      	b.n	8002028 <_etoa+0x468>
 8002024:	e9d7 5602 	ldrd	r5, r6, [r7, #8]
 8002028:	f8d7 3088 	ldr.w	r3, [r7, #136]	; 0x88
 800202c:	f423 6300 	bic.w	r3, r3, #2048	; 0x800
 8002030:	9302      	str	r3, [sp, #8]
 8002032:	6cfb      	ldr	r3, [r7, #76]	; 0x4c
 8002034:	9301      	str	r3, [sp, #4]
 8002036:	f8d7 3080 	ldr.w	r3, [r7, #128]	; 0x80
 800203a:	9300      	str	r3, [sp, #0]
 800203c:	ec46 5b10 	vmov	d0, r5, r6
 8002040:	693b      	ldr	r3, [r7, #16]
 8002042:	697a      	ldr	r2, [r7, #20]
 8002044:	69b9      	ldr	r1, [r7, #24]
 8002046:	69f8      	ldr	r0, [r7, #28]
 8002048:	f7ff fb4e 	bl	80016e8 <_ftoa>
 800204c:	6178      	str	r0, [r7, #20]

  // output the exponent part
  if (minwidth) {
 800204e:	6d3b      	ldr	r3, [r7, #80]	; 0x50
 8002050:	2b00      	cmp	r3, #0
 8002052:	d03f      	beq.n	80020d4 <_etoa+0x514>
    // output the exponential symbol
    out((flags & FLAGS_UPPERCASE) ? 'E' : 'e', buffer, idx++, maxlen);
 8002054:	f8d7 3088 	ldr.w	r3, [r7, #136]	; 0x88
 8002058:	f003 0320 	and.w	r3, r3, #32
 800205c:	2b00      	cmp	r3, #0
 800205e:	d001      	beq.n	8002064 <_etoa+0x4a4>
 8002060:	2045      	movs	r0, #69	; 0x45
 8002062:	e000      	b.n	8002066 <_etoa+0x4a6>
 8002064:	2065      	movs	r0, #101	; 0x65
 8002066:	697a      	ldr	r2, [r7, #20]
 8002068:	1c53      	adds	r3, r2, #1
 800206a:	617b      	str	r3, [r7, #20]
 800206c:	69fc      	ldr	r4, [r7, #28]
 800206e:	693b      	ldr	r3, [r7, #16]
 8002070:	69b9      	ldr	r1, [r7, #24]
 8002072:	47a0      	blx	r4
    // output the exponent value
    idx = _ntoa_long(out, buffer, idx, maxlen, (expval < 0) ? -expval : expval, expval < 0, 10, 0, minwidth-1, FLAGS_ZEROPAD | FLAGS_PLUS);
 8002074:	6d7b      	ldr	r3, [r7, #84]	; 0x54
 8002076:	2b00      	cmp	r3, #0
 8002078:	bfb8      	it	lt
 800207a:	425b      	neglt	r3, r3
 800207c:	4618      	mov	r0, r3
 800207e:	6d7b      	ldr	r3, [r7, #84]	; 0x54
 8002080:	0fdb      	lsrs	r3, r3, #31
 8002082:	b2db      	uxtb	r3, r3
 8002084:	6d3a      	ldr	r2, [r7, #80]	; 0x50
 8002086:	3a01      	subs	r2, #1
 8002088:	2105      	movs	r1, #5
 800208a:	9105      	str	r1, [sp, #20]
 800208c:	9204      	str	r2, [sp, #16]
 800208e:	2200      	movs	r2, #0
 8002090:	9203      	str	r2, [sp, #12]
 8002092:	220a      	movs	r2, #10
 8002094:	9202      	str	r2, [sp, #8]
 8002096:	9301      	str	r3, [sp, #4]
 8002098:	9000      	str	r0, [sp, #0]
 800209a:	693b      	ldr	r3, [r7, #16]
 800209c:	697a      	ldr	r2, [r7, #20]
 800209e:	69b9      	ldr	r1, [r7, #24]
 80020a0:	69f8      	ldr	r0, [r7, #28]
 80020a2:	f7ff fa4a 	bl	800153a <_ntoa_long>
 80020a6:	6178      	str	r0, [r7, #20]
    // might need to right-pad spaces
    if (flags & FLAGS_LEFT) {
 80020a8:	f8d7 3088 	ldr.w	r3, [r7, #136]	; 0x88
 80020ac:	f003 0302 	and.w	r3, r3, #2
 80020b0:	2b00      	cmp	r3, #0
 80020b2:	d00f      	beq.n	80020d4 <_etoa+0x514>
      while (idx - start_idx < width) out(' ', buffer, idx++, maxlen);
 80020b4:	e007      	b.n	80020c6 <_etoa+0x506>
 80020b6:	697a      	ldr	r2, [r7, #20]
 80020b8:	1c53      	adds	r3, r2, #1
 80020ba:	617b      	str	r3, [r7, #20]
 80020bc:	69fc      	ldr	r4, [r7, #28]
 80020be:	693b      	ldr	r3, [r7, #16]
 80020c0:	69b9      	ldr	r1, [r7, #24]
 80020c2:	2020      	movs	r0, #32
 80020c4:	47a0      	blx	r4
 80020c6:	697a      	ldr	r2, [r7, #20]
 80020c8:	6afb      	ldr	r3, [r7, #44]	; 0x2c
 80020ca:	1ad3      	subs	r3, r2, r3
 80020cc:	f8d7 2084 	ldr.w	r2, [r7, #132]	; 0x84
 80020d0:	429a      	cmp	r2, r3
 80020d2:	d8f0      	bhi.n	80020b6 <_etoa+0x4f6>
    }
  }
  return idx;
 80020d4:	697b      	ldr	r3, [r7, #20]
}
 80020d6:	4618      	mov	r0, r3
 80020d8:	375c      	adds	r7, #92	; 0x5c
 80020da:	46bd      	mov	sp, r7
 80020dc:	e8bd 8ff0 	ldmia.w	sp!, {r4, r5, r6, r7, r8, r9, sl, fp, pc}
 80020e0:	eb1c432d 	.word	0xeb1c432d
 80020e4:	3f1a36e2 	.word	0x3f1a36e2
 80020e8:	00000000 	.word	0x00000000
 80020ec:	412e8480 	.word	0x412e8480

080020f0 <_vsnprintf>:
#endif  // PRINTF_SUPPORT_FLOAT


// internal vsnprintf
static int _vsnprintf(out_fct_type out, char* buffer, const size_t maxlen, const char* format, va_list va)
{
 80020f0:	b5b0      	push	{r4, r5, r7, lr}
 80020f2:	b0a0      	sub	sp, #128	; 0x80
 80020f4:	af0a      	add	r7, sp, #40	; 0x28
 80020f6:	60f8      	str	r0, [r7, #12]
 80020f8:	60b9      	str	r1, [r7, #8]
 80020fa:	607a      	str	r2, [r7, #4]
 80020fc:	603b      	str	r3, [r7, #0]
  unsigned int flags, width, precision, n;
  size_t idx = 0U;
 80020fe:	2300      	movs	r3, #0
 8002100:	647b      	str	r3, [r7, #68]	; 0x44

  if (!buffer) {
 8002102:	68bb      	ldr	r3, [r7, #8]
 8002104:	2b00      	cmp	r3, #0
 8002106:	f040 8492 	bne.w	8002a2e <_vsnprintf+0x93e>
    // use null output function
    out = _out_null;
 800210a:	4ba0      	ldr	r3, [pc, #640]	; (800238c <_vsnprintf+0x29c>)
 800210c:	60fb      	str	r3, [r7, #12]
  }

  while (*format)
 800210e:	f000 bc8e 	b.w	8002a2e <_vsnprintf+0x93e>
  {
    // format specifier?  %[flags][width][.precision][length]
    if (*format != '%') {
 8002112:	683b      	ldr	r3, [r7, #0]
 8002114:	781b      	ldrb	r3, [r3, #0]
 8002116:	2b25      	cmp	r3, #37	; 0x25
 8002118:	d00d      	beq.n	8002136 <_vsnprintf+0x46>
      // no
      out(*format, buffer, idx++, maxlen);
 800211a:	683b      	ldr	r3, [r7, #0]
 800211c:	7818      	ldrb	r0, [r3, #0]
 800211e:	6c7a      	ldr	r2, [r7, #68]	; 0x44
 8002120:	1c53      	adds	r3, r2, #1
 8002122:	647b      	str	r3, [r7, #68]	; 0x44
 8002124:	68fc      	ldr	r4, [r7, #12]
 8002126:	687b      	ldr	r3, [r7, #4]
 8002128:	68b9      	ldr	r1, [r7, #8]
 800212a:	47a0      	blx	r4
      format++;
 800212c:	683b      	ldr	r3, [r7, #0]
 800212e:	3301      	adds	r3, #1
 8002130:	603b      	str	r3, [r7, #0]
      continue;
 8002132:	f000 bc7c 	b.w	8002a2e <_vsnprintf+0x93e>
    }
    else {
      // yes, evaluate it
      format++;
 8002136:	683b      	ldr	r3, [r7, #0]
 8002138:	3301      	adds	r3, #1
 800213a:	603b      	str	r3, [r7, #0]
    }

    // evaluate flags
    flags = 0U;
 800213c:	2300      	movs	r3, #0
 800213e:	657b      	str	r3, [r7, #84]	; 0x54
    do {
      switch (*format) {
 8002140:	683b      	ldr	r3, [r7, #0]
 8002142:	781b      	ldrb	r3, [r3, #0]
 8002144:	3b20      	subs	r3, #32
 8002146:	2b10      	cmp	r3, #16
 8002148:	d856      	bhi.n	80021f8 <_vsnprintf+0x108>
 800214a:	a201      	add	r2, pc, #4	; (adr r2, 8002150 <_vsnprintf+0x60>)
 800214c:	f852 f023 	ldr.w	pc, [r2, r3, lsl #2]
 8002150:	080021d1 	.word	0x080021d1
 8002154:	080021f9 	.word	0x080021f9
 8002158:	080021f9 	.word	0x080021f9
 800215c:	080021e5 	.word	0x080021e5
 8002160:	080021f9 	.word	0x080021f9
 8002164:	080021f9 	.word	0x080021f9
 8002168:	080021f9 	.word	0x080021f9
 800216c:	080021f9 	.word	0x080021f9
 8002170:	080021f9 	.word	0x080021f9
 8002174:	080021f9 	.word	0x080021f9
 8002178:	080021f9 	.word	0x080021f9
 800217c:	080021bd 	.word	0x080021bd
 8002180:	080021f9 	.word	0x080021f9
 8002184:	080021a9 	.word	0x080021a9
 8002188:	080021f9 	.word	0x080021f9
 800218c:	080021f9 	.word	0x080021f9
 8002190:	08002195 	.word	0x08002195
        case '0': flags |= FLAGS_ZEROPAD; format++; n = 1U; break;
 8002194:	6d7b      	ldr	r3, [r7, #84]	; 0x54
 8002196:	f043 0301 	orr.w	r3, r3, #1
 800219a:	657b      	str	r3, [r7, #84]	; 0x54
 800219c:	683b      	ldr	r3, [r7, #0]
 800219e:	3301      	adds	r3, #1
 80021a0:	603b      	str	r3, [r7, #0]
 80021a2:	2301      	movs	r3, #1
 80021a4:	64bb      	str	r3, [r7, #72]	; 0x48
 80021a6:	e02a      	b.n	80021fe <_vsnprintf+0x10e>
        case '-': flags |= FLAGS_LEFT;    format++; n = 1U; break;
 80021a8:	6d7b      	ldr	r3, [r7, #84]	; 0x54
 80021aa:	f043 0302 	orr.w	r3, r3, #2
 80021ae:	657b      	str	r3, [r7, #84]	; 0x54
 80021b0:	683b      	ldr	r3, [r7, #0]
 80021b2:	3301      	adds	r3, #1
 80021b4:	603b      	str	r3, [r7, #0]
 80021b6:	2301      	movs	r3, #1
 80021b8:	64bb      	str	r3, [r7, #72]	; 0x48
 80021ba:	e020      	b.n	80021fe <_vsnprintf+0x10e>
        case '+': flags |= FLAGS_PLUS;    format++; n = 1U; break;
 80021bc:	6d7b      	ldr	r3, [r7, #84]	; 0x54
 80021be:	f043 0304 	orr.w	r3, r3, #4
 80021c2:	657b      	str	r3, [r7, #84]	; 0x54
 80021c4:	683b      	ldr	r3, [r7, #0]
 80021c6:	3301      	adds	r3, #1
 80021c8:	603b      	str	r3, [r7, #0]
 80021ca:	2301      	movs	r3, #1
 80021cc:	64bb      	str	r3, [r7, #72]	; 0x48
 80021ce:	e016      	b.n	80021fe <_vsnprintf+0x10e>
        case ' ': flags |= FLAGS_SPACE;   format++; n = 1U; break;
 80021d0:	6d7b      	ldr	r3, [r7, #84]	; 0x54
 80021d2:	f043 0308 	orr.w	r3, r3, #8
 80021d6:	657b      	str	r3, [r7, #84]	; 0x54
 80021d8:	683b      	ldr	r3, [r7, #0]
 80021da:	3301      	adds	r3, #1
 80021dc:	603b      	str	r3, [r7, #0]
 80021de:	2301      	movs	r3, #1
 80021e0:	64bb      	str	r3, [r7, #72]	; 0x48
 80021e2:	e00c      	b.n	80021fe <_vsnprintf+0x10e>
        case '#': flags |= FLAGS_HASH;    format++; n = 1U; break;
 80021e4:	6d7b      	ldr	r3, [r7, #84]	; 0x54
 80021e6:	f043 0310 	orr.w	r3, r3, #16
 80021ea:	657b      	str	r3, [r7, #84]	; 0x54
 80021ec:	683b      	ldr	r3, [r7, #0]
 80021ee:	3301      	adds	r3, #1
 80021f0:	603b      	str	r3, [r7, #0]
 80021f2:	2301      	movs	r3, #1
 80021f4:	64bb      	str	r3, [r7, #72]	; 0x48
 80021f6:	e002      	b.n	80021fe <_vsnprintf+0x10e>
        default :                                   n = 0U; break;
 80021f8:	2300      	movs	r3, #0
 80021fa:	64bb      	str	r3, [r7, #72]	; 0x48
 80021fc:	bf00      	nop
      }
    } while (n);
 80021fe:	6cbb      	ldr	r3, [r7, #72]	; 0x48
 8002200:	2b00      	cmp	r3, #0
 8002202:	d19d      	bne.n	8002140 <_vsnprintf+0x50>

    // evaluate width field
    width = 0U;
 8002204:	2300      	movs	r3, #0
 8002206:	653b      	str	r3, [r7, #80]	; 0x50
    if (_is_digit(*format)) {
 8002208:	683b      	ldr	r3, [r7, #0]
 800220a:	781b      	ldrb	r3, [r3, #0]
 800220c:	4618      	mov	r0, r3
 800220e:	f7ff f82d 	bl	800126c <_is_digit>
 8002212:	4603      	mov	r3, r0
 8002214:	2b00      	cmp	r3, #0
 8002216:	d005      	beq.n	8002224 <_vsnprintf+0x134>
      width = _atoi(&format);
 8002218:	463b      	mov	r3, r7
 800221a:	4618      	mov	r0, r3
 800221c:	f7ff f83d 	bl	800129a <_atoi>
 8002220:	6538      	str	r0, [r7, #80]	; 0x50
 8002222:	e018      	b.n	8002256 <_vsnprintf+0x166>
    }
    else if (*format == '*') {
 8002224:	683b      	ldr	r3, [r7, #0]
 8002226:	781b      	ldrb	r3, [r3, #0]
 8002228:	2b2a      	cmp	r3, #42	; 0x2a
 800222a:	d114      	bne.n	8002256 <_vsnprintf+0x166>
      const int w = va_arg(va, int);
 800222c:	6ebb      	ldr	r3, [r7, #104]	; 0x68
 800222e:	1d1a      	adds	r2, r3, #4
 8002230:	66ba      	str	r2, [r7, #104]	; 0x68
 8002232:	681b      	ldr	r3, [r3, #0]
 8002234:	633b      	str	r3, [r7, #48]	; 0x30
      if (w < 0) {
 8002236:	6b3b      	ldr	r3, [r7, #48]	; 0x30
 8002238:	2b00      	cmp	r3, #0
 800223a:	da07      	bge.n	800224c <_vsnprintf+0x15c>
        flags |= FLAGS_LEFT;    // reverse padding
 800223c:	6d7b      	ldr	r3, [r7, #84]	; 0x54
 800223e:	f043 0302 	orr.w	r3, r3, #2
 8002242:	657b      	str	r3, [r7, #84]	; 0x54
        width = (unsigned int)-w;
 8002244:	6b3b      	ldr	r3, [r7, #48]	; 0x30
 8002246:	425b      	negs	r3, r3
 8002248:	653b      	str	r3, [r7, #80]	; 0x50
 800224a:	e001      	b.n	8002250 <_vsnprintf+0x160>
      }
      else {
        width = (unsigned int)w;
 800224c:	6b3b      	ldr	r3, [r7, #48]	; 0x30
 800224e:	653b      	str	r3, [r7, #80]	; 0x50
      }
      format++;
 8002250:	683b      	ldr	r3, [r7, #0]
 8002252:	3301      	adds	r3, #1
 8002254:	603b      	str	r3, [r7, #0]
    }

    // evaluate precision field
    precision = 0U;
 8002256:	2300      	movs	r3, #0
 8002258:	64fb      	str	r3, [r7, #76]	; 0x4c
    if (*format == '.') {
 800225a:	683b      	ldr	r3, [r7, #0]
 800225c:	781b      	ldrb	r3, [r3, #0]
 800225e:	2b2e      	cmp	r3, #46	; 0x2e
 8002260:	d124      	bne.n	80022ac <_vsnprintf+0x1bc>
      flags |= FLAGS_PRECISION;
 8002262:	6d7b      	ldr	r3, [r7, #84]	; 0x54
 8002264:	f443 6380 	orr.w	r3, r3, #1024	; 0x400
 8002268:	657b      	str	r3, [r7, #84]	; 0x54
      format++;
 800226a:	683b      	ldr	r3, [r7, #0]
 800226c:	3301      	adds	r3, #1
 800226e:	603b      	str	r3, [r7, #0]
      if (_is_digit(*format)) {
 8002270:	683b      	ldr	r3, [r7, #0]
 8002272:	781b      	ldrb	r3, [r3, #0]
 8002274:	4618      	mov	r0, r3
 8002276:	f7fe fff9 	bl	800126c <_is_digit>
 800227a:	4603      	mov	r3, r0
 800227c:	2b00      	cmp	r3, #0
 800227e:	d005      	beq.n	800228c <_vsnprintf+0x19c>
        precision = _atoi(&format);
 8002280:	463b      	mov	r3, r7
 8002282:	4618      	mov	r0, r3
 8002284:	f7ff f809 	bl	800129a <_atoi>
 8002288:	64f8      	str	r0, [r7, #76]	; 0x4c
 800228a:	e00f      	b.n	80022ac <_vsnprintf+0x1bc>
      }
      else if (*format == '*') {
 800228c:	683b      	ldr	r3, [r7, #0]
 800228e:	781b      	ldrb	r3, [r3, #0]
 8002290:	2b2a      	cmp	r3, #42	; 0x2a
 8002292:	d10b      	bne.n	80022ac <_vsnprintf+0x1bc>
        const int prec = (int)va_arg(va, int);
 8002294:	6ebb      	ldr	r3, [r7, #104]	; 0x68
 8002296:	1d1a      	adds	r2, r3, #4
 8002298:	66ba      	str	r2, [r7, #104]	; 0x68
 800229a:	681b      	ldr	r3, [r3, #0]
 800229c:	62fb      	str	r3, [r7, #44]	; 0x2c
        precision = prec > 0 ? (unsigned int)prec : 0U;
 800229e:	6afb      	ldr	r3, [r7, #44]	; 0x2c
 80022a0:	ea23 73e3 	bic.w	r3, r3, r3, asr #31
 80022a4:	64fb      	str	r3, [r7, #76]	; 0x4c
        format++;
 80022a6:	683b      	ldr	r3, [r7, #0]
 80022a8:	3301      	adds	r3, #1
 80022aa:	603b      	str	r3, [r7, #0]
      }
    }

    // evaluate length field
    switch (*format) {
 80022ac:	683b      	ldr	r3, [r7, #0]
 80022ae:	781b      	ldrb	r3, [r3, #0]
 80022b0:	3b68      	subs	r3, #104	; 0x68
 80022b2:	2b12      	cmp	r3, #18
 80022b4:	d866      	bhi.n	8002384 <_vsnprintf+0x294>
 80022b6:	a201      	add	r2, pc, #4	; (adr r2, 80022bc <_vsnprintf+0x1cc>)
 80022b8:	f852 f023 	ldr.w	pc, [r2, r3, lsl #2]
 80022bc:	0800232f 	.word	0x0800232f
 80022c0:	08002385 	.word	0x08002385
 80022c4:	08002365 	.word	0x08002365
 80022c8:	08002385 	.word	0x08002385
 80022cc:	08002309 	.word	0x08002309
 80022d0:	08002385 	.word	0x08002385
 80022d4:	08002385 	.word	0x08002385
 80022d8:	08002385 	.word	0x08002385
 80022dc:	08002385 	.word	0x08002385
 80022e0:	08002385 	.word	0x08002385
 80022e4:	08002385 	.word	0x08002385
 80022e8:	08002385 	.word	0x08002385
 80022ec:	08002355 	.word	0x08002355
 80022f0:	08002385 	.word	0x08002385
 80022f4:	08002385 	.word	0x08002385
 80022f8:	08002385 	.word	0x08002385
 80022fc:	08002385 	.word	0x08002385
 8002300:	08002385 	.word	0x08002385
 8002304:	08002375 	.word	0x08002375
      case 'l' :
        flags |= FLAGS_LONG;
 8002308:	6d7b      	ldr	r3, [r7, #84]	; 0x54
 800230a:	f443 7380 	orr.w	r3, r3, #256	; 0x100
 800230e:	657b      	str	r3, [r7, #84]	; 0x54
        format++;
 8002310:	683b      	ldr	r3, [r7, #0]
 8002312:	3301      	adds	r3, #1
 8002314:	603b      	str	r3, [r7, #0]
        if (*format == 'l') {
 8002316:	683b      	ldr	r3, [r7, #0]
 8002318:	781b      	ldrb	r3, [r3, #0]
 800231a:	2b6c      	cmp	r3, #108	; 0x6c
 800231c:	d134      	bne.n	8002388 <_vsnprintf+0x298>
          flags |= FLAGS_LONG_LONG;
 800231e:	6d7b      	ldr	r3, [r7, #84]	; 0x54
 8002320:	f443 7300 	orr.w	r3, r3, #512	; 0x200
 8002324:	657b      	str	r3, [r7, #84]	; 0x54
          format++;
 8002326:	683b      	ldr	r3, [r7, #0]
 8002328:	3301      	adds	r3, #1
 800232a:	603b      	str	r3, [r7, #0]
        }
        break;
 800232c:	e02c      	b.n	8002388 <_vsnprintf+0x298>
      case 'h' :
        flags |= FLAGS_SHORT;
 800232e:	6d7b      	ldr	r3, [r7, #84]	; 0x54
 8002330:	f043 0380 	orr.w	r3, r3, #128	; 0x80
 8002334:	657b      	str	r3, [r7, #84]	; 0x54
        format++;
 8002336:	683b      	ldr	r3, [r7, #0]
 8002338:	3301      	adds	r3, #1
 800233a:	603b      	str	r3, [r7, #0]
        if (*format == 'h') {
 800233c:	683b      	ldr	r3, [r7, #0]
 800233e:	781b      	ldrb	r3, [r3, #0]
 8002340:	2b68      	cmp	r3, #104	; 0x68
 8002342:	d125      	bne.n	8002390 <_vsnprintf+0x2a0>
          flags |= FLAGS_CHAR;
 8002344:	6d7b      	ldr	r3, [r7, #84]	; 0x54
 8002346:	f043 0340 	orr.w	r3, r3, #64	; 0x40
 800234a:	657b      	str	r3, [r7, #84]	; 0x54
          format++;
 800234c:	683b      	ldr	r3, [r7, #0]
 800234e:	3301      	adds	r3, #1
 8002350:	603b      	str	r3, [r7, #0]
        }
        break;
 8002352:	e01d      	b.n	8002390 <_vsnprintf+0x2a0>
#if defined(PRINTF_SUPPORT_PTRDIFF_T)
      case 't' :
        flags |= (sizeof(ptrdiff_t) == sizeof(long) ? FLAGS_LONG : FLAGS_LONG_LONG);
 8002354:	6d7b      	ldr	r3, [r7, #84]	; 0x54
 8002356:	f443 7380 	orr.w	r3, r3, #256	; 0x100
 800235a:	657b      	str	r3, [r7, #84]	; 0x54
        format++;
 800235c:	683b      	ldr	r3, [r7, #0]
 800235e:	3301      	adds	r3, #1
 8002360:	603b      	str	r3, [r7, #0]
        break;
 8002362:	e016      	b.n	8002392 <_vsnprintf+0x2a2>
#endif
      case 'j' :
        flags |= (sizeof(intmax_t) == sizeof(long) ? FLAGS_LONG : FLAGS_LONG_LONG);
 8002364:	6d7b      	ldr	r3, [r7, #84]	; 0x54
 8002366:	f443 7300 	orr.w	r3, r3, #512	; 0x200
 800236a:	657b      	str	r3, [r7, #84]	; 0x54
        format++;
 800236c:	683b      	ldr	r3, [r7, #0]
 800236e:	3301      	adds	r3, #1
 8002370:	603b      	str	r3, [r7, #0]
        break;
 8002372:	e00e      	b.n	8002392 <_vsnprintf+0x2a2>
      case 'z' :
        flags |= (sizeof(size_t) == sizeof(long) ? FLAGS_LONG : FLAGS_LONG_LONG);
 8002374:	6d7b      	ldr	r3, [r7, #84]	; 0x54
 8002376:	f443 7380 	orr.w	r3, r3, #256	; 0x100
 800237a:	657b      	str	r3, [r7, #84]	; 0x54
        format++;
 800237c:	683b      	ldr	r3, [r7, #0]
 800237e:	3301      	adds	r3, #1
 8002380:	603b      	str	r3, [r7, #0]
        break;
 8002382:	e006      	b.n	8002392 <_vsnprintf+0x2a2>
      default :
        break;
 8002384:	bf00      	nop
 8002386:	e004      	b.n	8002392 <_vsnprintf+0x2a2>
        break;
 8002388:	bf00      	nop
 800238a:	e002      	b.n	8002392 <_vsnprintf+0x2a2>
 800238c:	080011f1 	.word	0x080011f1
        break;
 8002390:	bf00      	nop
    }

    // evaluate specifier
    switch (*format) {
 8002392:	683b      	ldr	r3, [r7, #0]
 8002394:	781b      	ldrb	r3, [r3, #0]
 8002396:	3b25      	subs	r3, #37	; 0x25
 8002398:	2b53      	cmp	r3, #83	; 0x53
 800239a:	f200 833b 	bhi.w	8002a14 <_vsnprintf+0x924>
 800239e:	a201      	add	r2, pc, #4	; (adr r2, 80023a4 <_vsnprintf+0x2b4>)
 80023a0:	f852 f023 	ldr.w	pc, [r2, r3, lsl #2]
 80023a4:	080029fd 	.word	0x080029fd
 80023a8:	08002a15 	.word	0x08002a15
 80023ac:	08002a15 	.word	0x08002a15
 80023b0:	08002a15 	.word	0x08002a15
 80023b4:	08002a15 	.word	0x08002a15
 80023b8:	08002a15 	.word	0x08002a15
 80023bc:	08002a15 	.word	0x08002a15
 80023c0:	08002a15 	.word	0x08002a15
 80023c4:	08002a15 	.word	0x08002a15
 80023c8:	08002a15 	.word	0x08002a15
 80023cc:	08002a15 	.word	0x08002a15
 80023d0:	08002a15 	.word	0x08002a15
 80023d4:	08002a15 	.word	0x08002a15
 80023d8:	08002a15 	.word	0x08002a15
 80023dc:	08002a15 	.word	0x08002a15
 80023e0:	08002a15 	.word	0x08002a15
 80023e4:	08002a15 	.word	0x08002a15
 80023e8:	08002a15 	.word	0x08002a15
 80023ec:	08002a15 	.word	0x08002a15
 80023f0:	08002a15 	.word	0x08002a15
 80023f4:	08002a15 	.word	0x08002a15
 80023f8:	08002a15 	.word	0x08002a15
 80023fc:	08002a15 	.word	0x08002a15
 8002400:	08002a15 	.word	0x08002a15
 8002404:	08002a15 	.word	0x08002a15
 8002408:	08002a15 	.word	0x08002a15
 800240c:	08002a15 	.word	0x08002a15
 8002410:	08002a15 	.word	0x08002a15
 8002414:	08002a15 	.word	0x08002a15
 8002418:	08002a15 	.word	0x08002a15
 800241c:	08002a15 	.word	0x08002a15
 8002420:	08002a15 	.word	0x08002a15
 8002424:	080027cd 	.word	0x080027cd
 8002428:	08002781 	.word	0x08002781
 800242c:	080027cd 	.word	0x080027cd
 8002430:	08002a15 	.word	0x08002a15
 8002434:	08002a15 	.word	0x08002a15
 8002438:	08002a15 	.word	0x08002a15
 800243c:	08002a15 	.word	0x08002a15
 8002440:	08002a15 	.word	0x08002a15
 8002444:	08002a15 	.word	0x08002a15
 8002448:	08002a15 	.word	0x08002a15
 800244c:	08002a15 	.word	0x08002a15
 8002450:	08002a15 	.word	0x08002a15
 8002454:	08002a15 	.word	0x08002a15
 8002458:	08002a15 	.word	0x08002a15
 800245c:	08002a15 	.word	0x08002a15
 8002460:	08002a15 	.word	0x08002a15
 8002464:	08002a15 	.word	0x08002a15
 8002468:	08002a15 	.word	0x08002a15
 800246c:	08002a15 	.word	0x08002a15
 8002470:	080024f5 	.word	0x080024f5
 8002474:	08002a15 	.word	0x08002a15
 8002478:	08002a15 	.word	0x08002a15
 800247c:	08002a15 	.word	0x08002a15
 8002480:	08002a15 	.word	0x08002a15
 8002484:	08002a15 	.word	0x08002a15
 8002488:	08002a15 	.word	0x08002a15
 800248c:	08002a15 	.word	0x08002a15
 8002490:	08002a15 	.word	0x08002a15
 8002494:	08002a15 	.word	0x08002a15
 8002498:	080024f5 	.word	0x080024f5
 800249c:	08002839 	.word	0x08002839
 80024a0:	080024f5 	.word	0x080024f5
 80024a4:	080027cd 	.word	0x080027cd
 80024a8:	08002781 	.word	0x08002781
 80024ac:	080027cd 	.word	0x080027cd
 80024b0:	08002a15 	.word	0x08002a15
 80024b4:	080024f5 	.word	0x080024f5
 80024b8:	08002a15 	.word	0x08002a15
 80024bc:	08002a15 	.word	0x08002a15
 80024c0:	08002a15 	.word	0x08002a15
 80024c4:	08002a15 	.word	0x08002a15
 80024c8:	08002a15 	.word	0x08002a15
 80024cc:	080024f5 	.word	0x080024f5
 80024d0:	08002971 	.word	0x08002971
 80024d4:	08002a15 	.word	0x08002a15
 80024d8:	08002a15 	.word	0x08002a15
 80024dc:	080028ad 	.word	0x080028ad
 80024e0:	08002a15 	.word	0x08002a15
 80024e4:	080024f5 	.word	0x080024f5
 80024e8:	08002a15 	.word	0x08002a15
 80024ec:	08002a15 	.word	0x08002a15
 80024f0:	080024f5 	.word	0x080024f5
      case 'X' :
      case 'o' :
      case 'b' : {
        // set the base
        unsigned int base;
        if (*format == 'x' || *format == 'X') {
 80024f4:	683b      	ldr	r3, [r7, #0]
 80024f6:	781b      	ldrb	r3, [r3, #0]
 80024f8:	2b78      	cmp	r3, #120	; 0x78
 80024fa:	d003      	beq.n	8002504 <_vsnprintf+0x414>
 80024fc:	683b      	ldr	r3, [r7, #0]
 80024fe:	781b      	ldrb	r3, [r3, #0]
 8002500:	2b58      	cmp	r3, #88	; 0x58
 8002502:	d102      	bne.n	800250a <_vsnprintf+0x41a>
          base = 16U;
 8002504:	2310      	movs	r3, #16
 8002506:	643b      	str	r3, [r7, #64]	; 0x40
 8002508:	e013      	b.n	8002532 <_vsnprintf+0x442>
        }
        else if (*format == 'o') {
 800250a:	683b      	ldr	r3, [r7, #0]
 800250c:	781b      	ldrb	r3, [r3, #0]
 800250e:	2b6f      	cmp	r3, #111	; 0x6f
 8002510:	d102      	bne.n	8002518 <_vsnprintf+0x428>
          base =  8U;
 8002512:	2308      	movs	r3, #8
 8002514:	643b      	str	r3, [r7, #64]	; 0x40
 8002516:	e00c      	b.n	8002532 <_vsnprintf+0x442>
        }
        else if (*format == 'b') {
 8002518:	683b      	ldr	r3, [r7, #0]
 800251a:	781b      	ldrb	r3, [r3, #0]
 800251c:	2b62      	cmp	r3, #98	; 0x62
 800251e:	d102      	bne.n	8002526 <_vsnprintf+0x436>
          base =  2U;
 8002520:	2302      	movs	r3, #2
 8002522:	643b      	str	r3, [r7, #64]	; 0x40
 8002524:	e005      	b.n	8002532 <_vsnprintf+0x442>
        }
        else {
          base = 10U;
 8002526:	230a      	movs	r3, #10
 8002528:	643b      	str	r3, [r7, #64]	; 0x40
          flags &= ~FLAGS_HASH;   // no hash for dec format
 800252a:	6d7b      	ldr	r3, [r7, #84]	; 0x54
 800252c:	f023 0310 	bic.w	r3, r3, #16
 8002530:	657b      	str	r3, [r7, #84]	; 0x54
        }
        // uppercase
        if (*format == 'X') {
 8002532:	683b      	ldr	r3, [r7, #0]
 8002534:	781b      	ldrb	r3, [r3, #0]
 8002536:	2b58      	cmp	r3, #88	; 0x58
 8002538:	d103      	bne.n	8002542 <_vsnprintf+0x452>
          flags |= FLAGS_UPPERCASE;
 800253a:	6d7b      	ldr	r3, [r7, #84]	; 0x54
 800253c:	f043 0320 	orr.w	r3, r3, #32
 8002540:	657b      	str	r3, [r7, #84]	; 0x54
        }

        // no plus or space flag for u, x, X, o, b
        if ((*format != 'i') && (*format != 'd')) {
 8002542:	683b      	ldr	r3, [r7, #0]
 8002544:	781b      	ldrb	r3, [r3, #0]
 8002546:	2b69      	cmp	r3, #105	; 0x69
 8002548:	d007      	beq.n	800255a <_vsnprintf+0x46a>
 800254a:	683b      	ldr	r3, [r7, #0]
 800254c:	781b      	ldrb	r3, [r3, #0]
 800254e:	2b64      	cmp	r3, #100	; 0x64
 8002550:	d003      	beq.n	800255a <_vsnprintf+0x46a>
          flags &= ~(FLAGS_PLUS | FLAGS_SPACE);
 8002552:	6d7b      	ldr	r3, [r7, #84]	; 0x54
 8002554:	f023 030c 	bic.w	r3, r3, #12
 8002558:	657b      	str	r3, [r7, #84]	; 0x54
        }

        // ignore '0' flag when precision is given
        if (flags & FLAGS_PRECISION) {
 800255a:	6d7b      	ldr	r3, [r7, #84]	; 0x54
 800255c:	f403 6380 	and.w	r3, r3, #1024	; 0x400
 8002560:	2b00      	cmp	r3, #0
 8002562:	d003      	beq.n	800256c <_vsnprintf+0x47c>
          flags &= ~FLAGS_ZEROPAD;
 8002564:	6d7b      	ldr	r3, [r7, #84]	; 0x54
 8002566:	f023 0301 	bic.w	r3, r3, #1
 800256a:	657b      	str	r3, [r7, #84]	; 0x54
        }

        // convert the integer
        if ((*format == 'i') || (*format == 'd')) {
 800256c:	683b      	ldr	r3, [r7, #0]
 800256e:	781b      	ldrb	r3, [r3, #0]
 8002570:	2b69      	cmp	r3, #105	; 0x69
 8002572:	d004      	beq.n	800257e <_vsnprintf+0x48e>
 8002574:	683b      	ldr	r3, [r7, #0]
 8002576:	781b      	ldrb	r3, [r3, #0]
 8002578:	2b64      	cmp	r3, #100	; 0x64
 800257a:	f040 808d 	bne.w	8002698 <_vsnprintf+0x5a8>
          // signed
          if (flags & FLAGS_LONG_LONG) {
 800257e:	6d7b      	ldr	r3, [r7, #84]	; 0x54
 8002580:	f403 7300 	and.w	r3, r3, #512	; 0x200
 8002584:	2b00      	cmp	r3, #0
 8002586:	d02e      	beq.n	80025e6 <_vsnprintf+0x4f6>
#if defined(PRINTF_SUPPORT_LONG_LONG)
            const long long value = va_arg(va, long long);
 8002588:	6ebb      	ldr	r3, [r7, #104]	; 0x68
 800258a:	3307      	adds	r3, #7
 800258c:	f023 0307 	bic.w	r3, r3, #7
 8002590:	f103 0208 	add.w	r2, r3, #8
 8002594:	66ba      	str	r2, [r7, #104]	; 0x68
 8002596:	e9d3 3400 	ldrd	r3, r4, [r3]
 800259a:	e9c7 3404 	strd	r3, r4, [r7, #16]
            idx = _ntoa_long_long(out, buffer, idx, maxlen, (unsigned long long)(value > 0 ? value : 0 - value), value < 0, base, precision, width, flags);
 800259e:	e9d7 3404 	ldrd	r3, r4, [r7, #16]
 80025a2:	2b00      	cmp	r3, #0
 80025a4:	f174 0200 	sbcs.w	r2, r4, #0
 80025a8:	da02      	bge.n	80025b0 <_vsnprintf+0x4c0>
 80025aa:	425b      	negs	r3, r3
 80025ac:	eb64 0444 	sbc.w	r4, r4, r4, lsl #1
 80025b0:	4619      	mov	r1, r3
 80025b2:	4622      	mov	r2, r4
 80025b4:	697b      	ldr	r3, [r7, #20]
 80025b6:	0fdb      	lsrs	r3, r3, #31
 80025b8:	b2d8      	uxtb	r0, r3
 80025ba:	6c3b      	ldr	r3, [r7, #64]	; 0x40
 80025bc:	f04f 0400 	mov.w	r4, #0
 80025c0:	6d7d      	ldr	r5, [r7, #84]	; 0x54
 80025c2:	9508      	str	r5, [sp, #32]
 80025c4:	6d3d      	ldr	r5, [r7, #80]	; 0x50
 80025c6:	9507      	str	r5, [sp, #28]
 80025c8:	6cfd      	ldr	r5, [r7, #76]	; 0x4c
 80025ca:	9506      	str	r5, [sp, #24]
 80025cc:	e9cd 3404 	strd	r3, r4, [sp, #16]
 80025d0:	9002      	str	r0, [sp, #8]
 80025d2:	e9cd 1200 	strd	r1, r2, [sp]
 80025d6:	687b      	ldr	r3, [r7, #4]
 80025d8:	6c7a      	ldr	r2, [r7, #68]	; 0x44
 80025da:	68b9      	ldr	r1, [r7, #8]
 80025dc:	68f8      	ldr	r0, [r7, #12]
 80025de:	f7ff f813 	bl	8001608 <_ntoa_long_long>
 80025e2:	6478      	str	r0, [r7, #68]	; 0x44
          if (flags & FLAGS_LONG_LONG) {
 80025e4:	e0c8      	b.n	8002778 <_vsnprintf+0x688>
#endif
          }
          else if (flags & FLAGS_LONG) {
 80025e6:	6d7b      	ldr	r3, [r7, #84]	; 0x54
 80025e8:	f403 7380 	and.w	r3, r3, #256	; 0x100
 80025ec:	2b00      	cmp	r3, #0
 80025ee:	d01e      	beq.n	800262e <_vsnprintf+0x53e>
            const long value = va_arg(va, long);
 80025f0:	6ebb      	ldr	r3, [r7, #104]	; 0x68
 80025f2:	1d1a      	adds	r2, r3, #4
 80025f4:	66ba      	str	r2, [r7, #104]	; 0x68
 80025f6:	681b      	ldr	r3, [r3, #0]
 80025f8:	61fb      	str	r3, [r7, #28]
            idx = _ntoa_long(out, buffer, idx, maxlen, (unsigned long)(value > 0 ? value : 0 - value), value < 0, base, precision, width, flags);
 80025fa:	69fb      	ldr	r3, [r7, #28]
 80025fc:	2b00      	cmp	r3, #0
 80025fe:	bfb8      	it	lt
 8002600:	425b      	neglt	r3, r3
 8002602:	4619      	mov	r1, r3
 8002604:	69fb      	ldr	r3, [r7, #28]
 8002606:	0fdb      	lsrs	r3, r3, #31
 8002608:	b2db      	uxtb	r3, r3
 800260a:	6d7a      	ldr	r2, [r7, #84]	; 0x54
 800260c:	9205      	str	r2, [sp, #20]
 800260e:	6d3a      	ldr	r2, [r7, #80]	; 0x50
 8002610:	9204      	str	r2, [sp, #16]
 8002612:	6cfa      	ldr	r2, [r7, #76]	; 0x4c
 8002614:	9203      	str	r2, [sp, #12]
 8002616:	6c3a      	ldr	r2, [r7, #64]	; 0x40
 8002618:	9202      	str	r2, [sp, #8]
 800261a:	9301      	str	r3, [sp, #4]
 800261c:	9100      	str	r1, [sp, #0]
 800261e:	687b      	ldr	r3, [r7, #4]
 8002620:	6c7a      	ldr	r2, [r7, #68]	; 0x44
 8002622:	68b9      	ldr	r1, [r7, #8]
 8002624:	68f8      	ldr	r0, [r7, #12]
 8002626:	f7fe ff88 	bl	800153a <_ntoa_long>
 800262a:	6478      	str	r0, [r7, #68]	; 0x44
          if (flags & FLAGS_LONG_LONG) {
 800262c:	e0a4      	b.n	8002778 <_vsnprintf+0x688>
          }
          else {
            const int value = (flags & FLAGS_CHAR) ? (char)va_arg(va, int) : (flags & FLAGS_SHORT) ? (short int)va_arg(va, int) : va_arg(va, int);
 800262e:	6d7b      	ldr	r3, [r7, #84]	; 0x54
 8002630:	f003 0340 	and.w	r3, r3, #64	; 0x40
 8002634:	2b00      	cmp	r3, #0
 8002636:	d005      	beq.n	8002644 <_vsnprintf+0x554>
 8002638:	6ebb      	ldr	r3, [r7, #104]	; 0x68
 800263a:	1d1a      	adds	r2, r3, #4
 800263c:	66ba      	str	r2, [r7, #104]	; 0x68
 800263e:	681b      	ldr	r3, [r3, #0]
 8002640:	b2db      	uxtb	r3, r3
 8002642:	e00e      	b.n	8002662 <_vsnprintf+0x572>
 8002644:	6d7b      	ldr	r3, [r7, #84]	; 0x54
 8002646:	f003 0380 	and.w	r3, r3, #128	; 0x80
 800264a:	2b00      	cmp	r3, #0
 800264c:	d005      	beq.n	800265a <_vsnprintf+0x56a>
 800264e:	6ebb      	ldr	r3, [r7, #104]	; 0x68
 8002650:	1d1a      	adds	r2, r3, #4
 8002652:	66ba      	str	r2, [r7, #104]	; 0x68
 8002654:	681b      	ldr	r3, [r3, #0]
 8002656:	b21b      	sxth	r3, r3
 8002658:	e003      	b.n	8002662 <_vsnprintf+0x572>
 800265a:	6ebb      	ldr	r3, [r7, #104]	; 0x68
 800265c:	1d1a      	adds	r2, r3, #4
 800265e:	66ba      	str	r2, [r7, #104]	; 0x68
 8002660:	681b      	ldr	r3, [r3, #0]
 8002662:	623b      	str	r3, [r7, #32]
            idx = _ntoa_long(out, buffer, idx, maxlen, (unsigned int)(value > 0 ? value : 0 - value), value < 0, base, precision, width, flags);
 8002664:	6a3b      	ldr	r3, [r7, #32]
 8002666:	2b00      	cmp	r3, #0
 8002668:	bfb8      	it	lt
 800266a:	425b      	neglt	r3, r3
 800266c:	4619      	mov	r1, r3
 800266e:	6a3b      	ldr	r3, [r7, #32]
 8002670:	0fdb      	lsrs	r3, r3, #31
 8002672:	b2db      	uxtb	r3, r3
 8002674:	6d7a      	ldr	r2, [r7, #84]	; 0x54
 8002676:	9205      	str	r2, [sp, #20]
 8002678:	6d3a      	ldr	r2, [r7, #80]	; 0x50
 800267a:	9204      	str	r2, [sp, #16]
 800267c:	6cfa      	ldr	r2, [r7, #76]	; 0x4c
 800267e:	9203      	str	r2, [sp, #12]
 8002680:	6c3a      	ldr	r2, [r7, #64]	; 0x40
 8002682:	9202      	str	r2, [sp, #8]
 8002684:	9301      	str	r3, [sp, #4]
 8002686:	9100      	str	r1, [sp, #0]
 8002688:	687b      	ldr	r3, [r7, #4]
 800268a:	6c7a      	ldr	r2, [r7, #68]	; 0x44
 800268c:	68b9      	ldr	r1, [r7, #8]
 800268e:	68f8      	ldr	r0, [r7, #12]
 8002690:	f7fe ff53 	bl	800153a <_ntoa_long>
 8002694:	6478      	str	r0, [r7, #68]	; 0x44
          if (flags & FLAGS_LONG_LONG) {
 8002696:	e06f      	b.n	8002778 <_vsnprintf+0x688>
          }
        }
        else {
          // unsigned
          if (flags & FLAGS_LONG_LONG) {
 8002698:	6d7b      	ldr	r3, [r7, #84]	; 0x54
 800269a:	f403 7300 	and.w	r3, r3, #512	; 0x200
 800269e:	2b00      	cmp	r3, #0
 80026a0:	d020      	beq.n	80026e4 <_vsnprintf+0x5f4>
#if defined(PRINTF_SUPPORT_LONG_LONG)
            idx = _ntoa_long_long(out, buffer, idx, maxlen, va_arg(va, unsigned long long), false, base, precision, width, flags);
 80026a2:	6ebb      	ldr	r3, [r7, #104]	; 0x68
 80026a4:	3307      	adds	r3, #7
 80026a6:	f023 0307 	bic.w	r3, r3, #7
 80026aa:	f103 0208 	add.w	r2, r3, #8
 80026ae:	66ba      	str	r2, [r7, #104]	; 0x68
 80026b0:	e9d3 3400 	ldrd	r3, r4, [r3]
 80026b4:	6c3a      	ldr	r2, [r7, #64]	; 0x40
 80026b6:	4611      	mov	r1, r2
 80026b8:	f04f 0200 	mov.w	r2, #0
 80026bc:	6d78      	ldr	r0, [r7, #84]	; 0x54
 80026be:	9008      	str	r0, [sp, #32]
 80026c0:	6d38      	ldr	r0, [r7, #80]	; 0x50
 80026c2:	9007      	str	r0, [sp, #28]
 80026c4:	6cf8      	ldr	r0, [r7, #76]	; 0x4c
 80026c6:	9006      	str	r0, [sp, #24]
 80026c8:	e9cd 1204 	strd	r1, r2, [sp, #16]
 80026cc:	2200      	movs	r2, #0
 80026ce:	9202      	str	r2, [sp, #8]
 80026d0:	e9cd 3400 	strd	r3, r4, [sp]
 80026d4:	687b      	ldr	r3, [r7, #4]
 80026d6:	6c7a      	ldr	r2, [r7, #68]	; 0x44
 80026d8:	68b9      	ldr	r1, [r7, #8]
 80026da:	68f8      	ldr	r0, [r7, #12]
 80026dc:	f7fe ff94 	bl	8001608 <_ntoa_long_long>
 80026e0:	6478      	str	r0, [r7, #68]	; 0x44
 80026e2:	e049      	b.n	8002778 <_vsnprintf+0x688>
#endif
          }
          else if (flags & FLAGS_LONG) {
 80026e4:	6d7b      	ldr	r3, [r7, #84]	; 0x54
 80026e6:	f403 7380 	and.w	r3, r3, #256	; 0x100
 80026ea:	2b00      	cmp	r3, #0
 80026ec:	d016      	beq.n	800271c <_vsnprintf+0x62c>
            idx = _ntoa_long(out, buffer, idx, maxlen, va_arg(va, unsigned long), false, base, precision, width, flags);
 80026ee:	6ebb      	ldr	r3, [r7, #104]	; 0x68
 80026f0:	1d1a      	adds	r2, r3, #4
 80026f2:	66ba      	str	r2, [r7, #104]	; 0x68
 80026f4:	681b      	ldr	r3, [r3, #0]
 80026f6:	6d7a      	ldr	r2, [r7, #84]	; 0x54
 80026f8:	9205      	str	r2, [sp, #20]
 80026fa:	6d3a      	ldr	r2, [r7, #80]	; 0x50
 80026fc:	9204      	str	r2, [sp, #16]
 80026fe:	6cfa      	ldr	r2, [r7, #76]	; 0x4c
 8002700:	9203      	str	r2, [sp, #12]
 8002702:	6c3a      	ldr	r2, [r7, #64]	; 0x40
 8002704:	9202      	str	r2, [sp, #8]
 8002706:	2200      	movs	r2, #0
 8002708:	9201      	str	r2, [sp, #4]
 800270a:	9300      	str	r3, [sp, #0]
 800270c:	687b      	ldr	r3, [r7, #4]
 800270e:	6c7a      	ldr	r2, [r7, #68]	; 0x44
 8002710:	68b9      	ldr	r1, [r7, #8]
 8002712:	68f8      	ldr	r0, [r7, #12]
 8002714:	f7fe ff11 	bl	800153a <_ntoa_long>
 8002718:	6478      	str	r0, [r7, #68]	; 0x44
 800271a:	e02d      	b.n	8002778 <_vsnprintf+0x688>
          }
          else {
            const unsigned int value = (flags & FLAGS_CHAR) ? (unsigned char)va_arg(va, unsigned int) : (flags & FLAGS_SHORT) ? (unsigned short int)va_arg(va, unsigned int) : va_arg(va, unsigned int);
 800271c:	6d7b      	ldr	r3, [r7, #84]	; 0x54
 800271e:	f003 0340 	and.w	r3, r3, #64	; 0x40
 8002722:	2b00      	cmp	r3, #0
 8002724:	d005      	beq.n	8002732 <_vsnprintf+0x642>
 8002726:	6ebb      	ldr	r3, [r7, #104]	; 0x68
 8002728:	1d1a      	adds	r2, r3, #4
 800272a:	66ba      	str	r2, [r7, #104]	; 0x68
 800272c:	681b      	ldr	r3, [r3, #0]
 800272e:	b2db      	uxtb	r3, r3
 8002730:	e00e      	b.n	8002750 <_vsnprintf+0x660>
 8002732:	6d7b      	ldr	r3, [r7, #84]	; 0x54
 8002734:	f003 0380 	and.w	r3, r3, #128	; 0x80
 8002738:	2b00      	cmp	r3, #0
 800273a:	d005      	beq.n	8002748 <_vsnprintf+0x658>
 800273c:	6ebb      	ldr	r3, [r7, #104]	; 0x68
 800273e:	1d1a      	adds	r2, r3, #4
 8002740:	66ba      	str	r2, [r7, #104]	; 0x68
 8002742:	681b      	ldr	r3, [r3, #0]
 8002744:	b29b      	uxth	r3, r3
 8002746:	e003      	b.n	8002750 <_vsnprintf+0x660>
 8002748:	6ebb      	ldr	r3, [r7, #104]	; 0x68
 800274a:	1d1a      	adds	r2, r3, #4
 800274c:	66ba      	str	r2, [r7, #104]	; 0x68
 800274e:	681b      	ldr	r3, [r3, #0]
 8002750:	627b      	str	r3, [r7, #36]	; 0x24
            idx = _ntoa_long(out, buffer, idx, maxlen, value, false, base, precision, width, flags);
 8002752:	6d7b      	ldr	r3, [r7, #84]	; 0x54
 8002754:	9305      	str	r3, [sp, #20]
 8002756:	6d3b      	ldr	r3, [r7, #80]	; 0x50
 8002758:	9304      	str	r3, [sp, #16]
 800275a:	6cfb      	ldr	r3, [r7, #76]	; 0x4c
 800275c:	9303      	str	r3, [sp, #12]
 800275e:	6c3b      	ldr	r3, [r7, #64]	; 0x40
 8002760:	9302      	str	r3, [sp, #8]
 8002762:	2300      	movs	r3, #0
 8002764:	9301      	str	r3, [sp, #4]
 8002766:	6a7b      	ldr	r3, [r7, #36]	; 0x24
 8002768:	9300      	str	r3, [sp, #0]
 800276a:	687b      	ldr	r3, [r7, #4]
 800276c:	6c7a      	ldr	r2, [r7, #68]	; 0x44
 800276e:	68b9      	ldr	r1, [r7, #8]
 8002770:	68f8      	ldr	r0, [r7, #12]
 8002772:	f7fe fee2 	bl	800153a <_ntoa_long>
 8002776:	6478      	str	r0, [r7, #68]	; 0x44
          }
        }
        format++;
 8002778:	683b      	ldr	r3, [r7, #0]
 800277a:	3301      	adds	r3, #1
 800277c:	603b      	str	r3, [r7, #0]
        break;
 800277e:	e156      	b.n	8002a2e <_vsnprintf+0x93e>
      }
#if defined(PRINTF_SUPPORT_FLOAT)
      case 'f' :
      case 'F' :
        if (*format == 'F') flags |= FLAGS_UPPERCASE;
 8002780:	683b      	ldr	r3, [r7, #0]
 8002782:	781b      	ldrb	r3, [r3, #0]
 8002784:	2b46      	cmp	r3, #70	; 0x46
 8002786:	d103      	bne.n	8002790 <_vsnprintf+0x6a0>
 8002788:	6d7b      	ldr	r3, [r7, #84]	; 0x54
 800278a:	f043 0320 	orr.w	r3, r3, #32
 800278e:	657b      	str	r3, [r7, #84]	; 0x54
        idx = _ftoa(out, buffer, idx, maxlen, va_arg(va, double), precision, width, flags);
 8002790:	6ebb      	ldr	r3, [r7, #104]	; 0x68
 8002792:	3307      	adds	r3, #7
 8002794:	f023 0307 	bic.w	r3, r3, #7
 8002798:	f103 0208 	add.w	r2, r3, #8
 800279c:	66ba      	str	r2, [r7, #104]	; 0x68
 800279e:	ed93 7b00 	vldr	d7, [r3]
 80027a2:	6d7b      	ldr	r3, [r7, #84]	; 0x54
 80027a4:	9302      	str	r3, [sp, #8]
 80027a6:	6d3b      	ldr	r3, [r7, #80]	; 0x50
 80027a8:	9301      	str	r3, [sp, #4]
 80027aa:	6cfb      	ldr	r3, [r7, #76]	; 0x4c
 80027ac:	9300      	str	r3, [sp, #0]
 80027ae:	eeb0 0a47 	vmov.f32	s0, s14
 80027b2:	eef0 0a67 	vmov.f32	s1, s15
 80027b6:	687b      	ldr	r3, [r7, #4]
 80027b8:	6c7a      	ldr	r2, [r7, #68]	; 0x44
 80027ba:	68b9      	ldr	r1, [r7, #8]
 80027bc:	68f8      	ldr	r0, [r7, #12]
 80027be:	f7fe ff93 	bl	80016e8 <_ftoa>
 80027c2:	6478      	str	r0, [r7, #68]	; 0x44
        format++;
 80027c4:	683b      	ldr	r3, [r7, #0]
 80027c6:	3301      	adds	r3, #1
 80027c8:	603b      	str	r3, [r7, #0]
        break;
 80027ca:	e130      	b.n	8002a2e <_vsnprintf+0x93e>
#if defined(PRINTF_SUPPORT_EXPONENTIAL)
      case 'e':
      case 'E':
      case 'g':
      case 'G':
        if ((*format == 'g')||(*format == 'G')) flags |= FLAGS_ADAPT_EXP;
 80027cc:	683b      	ldr	r3, [r7, #0]
 80027ce:	781b      	ldrb	r3, [r3, #0]
 80027d0:	2b67      	cmp	r3, #103	; 0x67
 80027d2:	d003      	beq.n	80027dc <_vsnprintf+0x6ec>
 80027d4:	683b      	ldr	r3, [r7, #0]
 80027d6:	781b      	ldrb	r3, [r3, #0]
 80027d8:	2b47      	cmp	r3, #71	; 0x47
 80027da:	d103      	bne.n	80027e4 <_vsnprintf+0x6f4>
 80027dc:	6d7b      	ldr	r3, [r7, #84]	; 0x54
 80027de:	f443 6300 	orr.w	r3, r3, #2048	; 0x800
 80027e2:	657b      	str	r3, [r7, #84]	; 0x54
        if ((*format == 'E')||(*format == 'G')) flags |= FLAGS_UPPERCASE;
 80027e4:	683b      	ldr	r3, [r7, #0]
 80027e6:	781b      	ldrb	r3, [r3, #0]
 80027e8:	2b45      	cmp	r3, #69	; 0x45
 80027ea:	d003      	beq.n	80027f4 <_vsnprintf+0x704>
 80027ec:	683b      	ldr	r3, [r7, #0]
 80027ee:	781b      	ldrb	r3, [r3, #0]
 80027f0:	2b47      	cmp	r3, #71	; 0x47
 80027f2:	d103      	bne.n	80027fc <_vsnprintf+0x70c>
 80027f4:	6d7b      	ldr	r3, [r7, #84]	; 0x54
 80027f6:	f043 0320 	orr.w	r3, r3, #32
 80027fa:	657b      	str	r3, [r7, #84]	; 0x54
        idx = _etoa(out, buffer, idx, maxlen, va_arg(va, double), precision, width, flags);
 80027fc:	6ebb      	ldr	r3, [r7, #104]	; 0x68
 80027fe:	3307      	adds	r3, #7
 8002800:	f023 0307 	bic.w	r3, r3, #7
 8002804:	f103 0208 	add.w	r2, r3, #8
 8002808:	66ba      	str	r2, [r7, #104]	; 0x68
 800280a:	ed93 7b00 	vldr	d7, [r3]
 800280e:	6d7b      	ldr	r3, [r7, #84]	; 0x54
 8002810:	9302      	str	r3, [sp, #8]
 8002812:	6d3b      	ldr	r3, [r7, #80]	; 0x50
 8002814:	9301      	str	r3, [sp, #4]
 8002816:	6cfb      	ldr	r3, [r7, #76]	; 0x4c
 8002818:	9300      	str	r3, [sp, #0]
 800281a:	eeb0 0a47 	vmov.f32	s0, s14
 800281e:	eef0 0a67 	vmov.f32	s1, s15
 8002822:	687b      	ldr	r3, [r7, #4]
 8002824:	6c7a      	ldr	r2, [r7, #68]	; 0x44
 8002826:	68b9      	ldr	r1, [r7, #8]
 8002828:	68f8      	ldr	r0, [r7, #12]
 800282a:	f7ff f9c9 	bl	8001bc0 <_etoa>
 800282e:	6478      	str	r0, [r7, #68]	; 0x44
        format++;
 8002830:	683b      	ldr	r3, [r7, #0]
 8002832:	3301      	adds	r3, #1
 8002834:	603b      	str	r3, [r7, #0]
        break;
 8002836:	e0fa      	b.n	8002a2e <_vsnprintf+0x93e>
#endif  // PRINTF_SUPPORT_EXPONENTIAL
#endif  // PRINTF_SUPPORT_FLOAT
      case 'c' : {
        unsigned int l = 1U;
 8002838:	2301      	movs	r3, #1
 800283a:	63fb      	str	r3, [r7, #60]	; 0x3c
        // pre padding
        if (!(flags & FLAGS_LEFT)) {
 800283c:	6d7b      	ldr	r3, [r7, #84]	; 0x54
 800283e:	f003 0302 	and.w	r3, r3, #2
 8002842:	2b00      	cmp	r3, #0
 8002844:	d10e      	bne.n	8002864 <_vsnprintf+0x774>
          while (l++ < width) {
 8002846:	e007      	b.n	8002858 <_vsnprintf+0x768>
            out(' ', buffer, idx++, maxlen);
 8002848:	6c7a      	ldr	r2, [r7, #68]	; 0x44
 800284a:	1c53      	adds	r3, r2, #1
 800284c:	647b      	str	r3, [r7, #68]	; 0x44
 800284e:	68fc      	ldr	r4, [r7, #12]
 8002850:	687b      	ldr	r3, [r7, #4]
 8002852:	68b9      	ldr	r1, [r7, #8]
 8002854:	2020      	movs	r0, #32
 8002856:	47a0      	blx	r4
          while (l++ < width) {
 8002858:	6bfb      	ldr	r3, [r7, #60]	; 0x3c
 800285a:	1c5a      	adds	r2, r3, #1
 800285c:	63fa      	str	r2, [r7, #60]	; 0x3c
 800285e:	6d3a      	ldr	r2, [r7, #80]	; 0x50
 8002860:	429a      	cmp	r2, r3
 8002862:	d8f1      	bhi.n	8002848 <_vsnprintf+0x758>
          }
        }
        // char output
        out((char)va_arg(va, int), buffer, idx++, maxlen);
 8002864:	6ebb      	ldr	r3, [r7, #104]	; 0x68
 8002866:	1d1a      	adds	r2, r3, #4
 8002868:	66ba      	str	r2, [r7, #104]	; 0x68
 800286a:	681b      	ldr	r3, [r3, #0]
 800286c:	b2d8      	uxtb	r0, r3
 800286e:	6c7a      	ldr	r2, [r7, #68]	; 0x44
 8002870:	1c53      	adds	r3, r2, #1
 8002872:	647b      	str	r3, [r7, #68]	; 0x44
 8002874:	68fc      	ldr	r4, [r7, #12]
 8002876:	687b      	ldr	r3, [r7, #4]
 8002878:	68b9      	ldr	r1, [r7, #8]
 800287a:	47a0      	blx	r4
        // post padding
        if (flags & FLAGS_LEFT) {
 800287c:	6d7b      	ldr	r3, [r7, #84]	; 0x54
 800287e:	f003 0302 	and.w	r3, r3, #2
 8002882:	2b00      	cmp	r3, #0
 8002884:	d00e      	beq.n	80028a4 <_vsnprintf+0x7b4>
          while (l++ < width) {
 8002886:	e007      	b.n	8002898 <_vsnprintf+0x7a8>
            out(' ', buffer, idx++, maxlen);
 8002888:	6c7a      	ldr	r2, [r7, #68]	; 0x44
 800288a:	1c53      	adds	r3, r2, #1
 800288c:	647b      	str	r3, [r7, #68]	; 0x44
 800288e:	68fc      	ldr	r4, [r7, #12]
 8002890:	687b      	ldr	r3, [r7, #4]
 8002892:	68b9      	ldr	r1, [r7, #8]
 8002894:	2020      	movs	r0, #32
 8002896:	47a0      	blx	r4
          while (l++ < width) {
 8002898:	6bfb      	ldr	r3, [r7, #60]	; 0x3c
 800289a:	1c5a      	adds	r2, r3, #1
 800289c:	63fa      	str	r2, [r7, #60]	; 0x3c
 800289e:	6d3a      	ldr	r2, [r7, #80]	; 0x50
 80028a0:	429a      	cmp	r2, r3
 80028a2:	d8f1      	bhi.n	8002888 <_vsnprintf+0x798>
          }
        }
        format++;
 80028a4:	683b      	ldr	r3, [r7, #0]
 80028a6:	3301      	adds	r3, #1
 80028a8:	603b      	str	r3, [r7, #0]
        break;
 80028aa:	e0c0      	b.n	8002a2e <_vsnprintf+0x93e>
      }

      case 's' : {
        const char* p = va_arg(va, char*);
 80028ac:	6ebb      	ldr	r3, [r7, #104]	; 0x68
 80028ae:	1d1a      	adds	r2, r3, #4
 80028b0:	66ba      	str	r2, [r7, #104]	; 0x68
 80028b2:	681b      	ldr	r3, [r3, #0]
 80028b4:	63bb      	str	r3, [r7, #56]	; 0x38
        unsigned int l = _strnlen_s(p, precision ? precision : (size_t)-1);
 80028b6:	6cfb      	ldr	r3, [r7, #76]	; 0x4c
 80028b8:	2b00      	cmp	r3, #0
 80028ba:	d001      	beq.n	80028c0 <_vsnprintf+0x7d0>
 80028bc:	6cfb      	ldr	r3, [r7, #76]	; 0x4c
 80028be:	e001      	b.n	80028c4 <_vsnprintf+0x7d4>
 80028c0:	f04f 33ff 	mov.w	r3, #4294967295
 80028c4:	4619      	mov	r1, r3
 80028c6:	6bb8      	ldr	r0, [r7, #56]	; 0x38
 80028c8:	f7fe fcb3 	bl	8001232 <_strnlen_s>
 80028cc:	6378      	str	r0, [r7, #52]	; 0x34
        // pre padding
        if (flags & FLAGS_PRECISION) {
 80028ce:	6d7b      	ldr	r3, [r7, #84]	; 0x54
 80028d0:	f403 6380 	and.w	r3, r3, #1024	; 0x400
 80028d4:	2b00      	cmp	r3, #0
 80028d6:	d005      	beq.n	80028e4 <_vsnprintf+0x7f4>
          l = (l < precision ? l : precision);
 80028d8:	6b7a      	ldr	r2, [r7, #52]	; 0x34
 80028da:	6cfb      	ldr	r3, [r7, #76]	; 0x4c
 80028dc:	4293      	cmp	r3, r2
 80028de:	bf28      	it	cs
 80028e0:	4613      	movcs	r3, r2
 80028e2:	637b      	str	r3, [r7, #52]	; 0x34
        }
        if (!(flags & FLAGS_LEFT)) {
 80028e4:	6d7b      	ldr	r3, [r7, #84]	; 0x54
 80028e6:	f003 0302 	and.w	r3, r3, #2
 80028ea:	2b00      	cmp	r3, #0
 80028ec:	d11a      	bne.n	8002924 <_vsnprintf+0x834>
          while (l++ < width) {
 80028ee:	e007      	b.n	8002900 <_vsnprintf+0x810>
            out(' ', buffer, idx++, maxlen);
 80028f0:	6c7a      	ldr	r2, [r7, #68]	; 0x44
 80028f2:	1c53      	adds	r3, r2, #1
 80028f4:	647b      	str	r3, [r7, #68]	; 0x44
 80028f6:	68fc      	ldr	r4, [r7, #12]
 80028f8:	687b      	ldr	r3, [r7, #4]
 80028fa:	68b9      	ldr	r1, [r7, #8]
 80028fc:	2020      	movs	r0, #32
 80028fe:	47a0      	blx	r4
          while (l++ < width) {
 8002900:	6b7b      	ldr	r3, [r7, #52]	; 0x34
 8002902:	1c5a      	adds	r2, r3, #1
 8002904:	637a      	str	r2, [r7, #52]	; 0x34
 8002906:	6d3a      	ldr	r2, [r7, #80]	; 0x50
 8002908:	429a      	cmp	r2, r3
 800290a:	d8f1      	bhi.n	80028f0 <_vsnprintf+0x800>
          }
        }
        // string output
        while ((*p != 0) && (!(flags & FLAGS_PRECISION) || precision--)) {
 800290c:	e00a      	b.n	8002924 <_vsnprintf+0x834>
          out(*(p++), buffer, idx++, maxlen);
 800290e:	6bbb      	ldr	r3, [r7, #56]	; 0x38
 8002910:	1c5a      	adds	r2, r3, #1
 8002912:	63ba      	str	r2, [r7, #56]	; 0x38
 8002914:	7818      	ldrb	r0, [r3, #0]
 8002916:	6c7a      	ldr	r2, [r7, #68]	; 0x44
 8002918:	1c53      	adds	r3, r2, #1
 800291a:	647b      	str	r3, [r7, #68]	; 0x44
 800291c:	68fc      	ldr	r4, [r7, #12]
 800291e:	687b      	ldr	r3, [r7, #4]
 8002920:	68b9      	ldr	r1, [r7, #8]
 8002922:	47a0      	blx	r4
        while ((*p != 0) && (!(flags & FLAGS_PRECISION) || precision--)) {
 8002924:	6bbb      	ldr	r3, [r7, #56]	; 0x38
 8002926:	781b      	ldrb	r3, [r3, #0]
 8002928:	2b00      	cmp	r3, #0
 800292a:	d009      	beq.n	8002940 <_vsnprintf+0x850>
 800292c:	6d7b      	ldr	r3, [r7, #84]	; 0x54
 800292e:	f403 6380 	and.w	r3, r3, #1024	; 0x400
 8002932:	2b00      	cmp	r3, #0
 8002934:	d0eb      	beq.n	800290e <_vsnprintf+0x81e>
 8002936:	6cfb      	ldr	r3, [r7, #76]	; 0x4c
 8002938:	1e5a      	subs	r2, r3, #1
 800293a:	64fa      	str	r2, [r7, #76]	; 0x4c
 800293c:	2b00      	cmp	r3, #0
 800293e:	d1e6      	bne.n	800290e <_vsnprintf+0x81e>
        }
        // post padding
        if (flags & FLAGS_LEFT) {
 8002940:	6d7b      	ldr	r3, [r7, #84]	; 0x54
 8002942:	f003 0302 	and.w	r3, r3, #2
 8002946:	2b00      	cmp	r3, #0
 8002948:	d00e      	beq.n	8002968 <_vsnprintf+0x878>
          while (l++ < width) {
 800294a:	e007      	b.n	800295c <_vsnprintf+0x86c>
            out(' ', buffer, idx++, maxlen);
 800294c:	6c7a      	ldr	r2, [r7, #68]	; 0x44
 800294e:	1c53      	adds	r3, r2, #1
 8002950:	647b      	str	r3, [r7, #68]	; 0x44
 8002952:	68fc      	ldr	r4, [r7, #12]
 8002954:	687b      	ldr	r3, [r7, #4]
 8002956:	68b9      	ldr	r1, [r7, #8]
 8002958:	2020      	movs	r0, #32
 800295a:	47a0      	blx	r4
          while (l++ < width) {
 800295c:	6b7b      	ldr	r3, [r7, #52]	; 0x34
 800295e:	1c5a      	adds	r2, r3, #1
 8002960:	637a      	str	r2, [r7, #52]	; 0x34
 8002962:	6d3a      	ldr	r2, [r7, #80]	; 0x50
 8002964:	429a      	cmp	r2, r3
 8002966:	d8f1      	bhi.n	800294c <_vsnprintf+0x85c>
          }
        }
        format++;
 8002968:	683b      	ldr	r3, [r7, #0]
 800296a:	3301      	adds	r3, #1
 800296c:	603b      	str	r3, [r7, #0]
        break;
 800296e:	e05e      	b.n	8002a2e <_vsnprintf+0x93e>
      }

      case 'p' : {
        width = sizeof(void*) * 2U;
 8002970:	2308      	movs	r3, #8
 8002972:	653b      	str	r3, [r7, #80]	; 0x50
        flags |= FLAGS_ZEROPAD | FLAGS_UPPERCASE;
 8002974:	6d7b      	ldr	r3, [r7, #84]	; 0x54
 8002976:	f043 0321 	orr.w	r3, r3, #33	; 0x21
 800297a:	657b      	str	r3, [r7, #84]	; 0x54
#if defined(PRINTF_SUPPORT_LONG_LONG)
        const bool is_ll = sizeof(uintptr_t) == sizeof(long long);
 800297c:	2300      	movs	r3, #0
 800297e:	f887 302b 	strb.w	r3, [r7, #43]	; 0x2b
        if (is_ll) {
 8002982:	f897 302b 	ldrb.w	r3, [r7, #43]	; 0x2b
 8002986:	2b00      	cmp	r3, #0
 8002988:	d01d      	beq.n	80029c6 <_vsnprintf+0x8d6>
          idx = _ntoa_long_long(out, buffer, idx, maxlen, (uintptr_t)va_arg(va, void*), false, 16U, precision, width, flags);
 800298a:	6ebb      	ldr	r3, [r7, #104]	; 0x68
 800298c:	1d1a      	adds	r2, r3, #4
 800298e:	66ba      	str	r2, [r7, #104]	; 0x68
 8002990:	681b      	ldr	r3, [r3, #0]
 8002992:	f04f 0400 	mov.w	r4, #0
 8002996:	6d7a      	ldr	r2, [r7, #84]	; 0x54
 8002998:	9208      	str	r2, [sp, #32]
 800299a:	6d3a      	ldr	r2, [r7, #80]	; 0x50
 800299c:	9207      	str	r2, [sp, #28]
 800299e:	6cfa      	ldr	r2, [r7, #76]	; 0x4c
 80029a0:	9206      	str	r2, [sp, #24]
 80029a2:	f04f 0110 	mov.w	r1, #16
 80029a6:	f04f 0200 	mov.w	r2, #0
 80029aa:	e9cd 1204 	strd	r1, r2, [sp, #16]
 80029ae:	2200      	movs	r2, #0
 80029b0:	9202      	str	r2, [sp, #8]
 80029b2:	e9cd 3400 	strd	r3, r4, [sp]
 80029b6:	687b      	ldr	r3, [r7, #4]
 80029b8:	6c7a      	ldr	r2, [r7, #68]	; 0x44
 80029ba:	68b9      	ldr	r1, [r7, #8]
 80029bc:	68f8      	ldr	r0, [r7, #12]
 80029be:	f7fe fe23 	bl	8001608 <_ntoa_long_long>
 80029c2:	6478      	str	r0, [r7, #68]	; 0x44
 80029c4:	e016      	b.n	80029f4 <_vsnprintf+0x904>
        }
        else {
#endif
          idx = _ntoa_long(out, buffer, idx, maxlen, (unsigned long)((uintptr_t)va_arg(va, void*)), false, 16U, precision, width, flags);
 80029c6:	6ebb      	ldr	r3, [r7, #104]	; 0x68
 80029c8:	1d1a      	adds	r2, r3, #4
 80029ca:	66ba      	str	r2, [r7, #104]	; 0x68
 80029cc:	681b      	ldr	r3, [r3, #0]
 80029ce:	461a      	mov	r2, r3
 80029d0:	6d7b      	ldr	r3, [r7, #84]	; 0x54
 80029d2:	9305      	str	r3, [sp, #20]
 80029d4:	6d3b      	ldr	r3, [r7, #80]	; 0x50
 80029d6:	9304      	str	r3, [sp, #16]
 80029d8:	6cfb      	ldr	r3, [r7, #76]	; 0x4c
 80029da:	9303      	str	r3, [sp, #12]
 80029dc:	2310      	movs	r3, #16
 80029de:	9302      	str	r3, [sp, #8]
 80029e0:	2300      	movs	r3, #0
 80029e2:	9301      	str	r3, [sp, #4]
 80029e4:	9200      	str	r2, [sp, #0]
 80029e6:	687b      	ldr	r3, [r7, #4]
 80029e8:	6c7a      	ldr	r2, [r7, #68]	; 0x44
 80029ea:	68b9      	ldr	r1, [r7, #8]
 80029ec:	68f8      	ldr	r0, [r7, #12]
 80029ee:	f7fe fda4 	bl	800153a <_ntoa_long>
 80029f2:	6478      	str	r0, [r7, #68]	; 0x44
#if defined(PRINTF_SUPPORT_LONG_LONG)
        }
#endif
        format++;
 80029f4:	683b      	ldr	r3, [r7, #0]
 80029f6:	3301      	adds	r3, #1
 80029f8:	603b      	str	r3, [r7, #0]
        break;
 80029fa:	e018      	b.n	8002a2e <_vsnprintf+0x93e>
      }

      case '%' :
        out('%', buffer, idx++, maxlen);
 80029fc:	6c7a      	ldr	r2, [r7, #68]	; 0x44
 80029fe:	1c53      	adds	r3, r2, #1
 8002a00:	647b      	str	r3, [r7, #68]	; 0x44
 8002a02:	68fc      	ldr	r4, [r7, #12]
 8002a04:	687b      	ldr	r3, [r7, #4]
 8002a06:	68b9      	ldr	r1, [r7, #8]
 8002a08:	2025      	movs	r0, #37	; 0x25
 8002a0a:	47a0      	blx	r4
        format++;
 8002a0c:	683b      	ldr	r3, [r7, #0]
 8002a0e:	3301      	adds	r3, #1
 8002a10:	603b      	str	r3, [r7, #0]
        break;
 8002a12:	e00c      	b.n	8002a2e <_vsnprintf+0x93e>

      default :
        out(*format, buffer, idx++, maxlen);
 8002a14:	683b      	ldr	r3, [r7, #0]
 8002a16:	7818      	ldrb	r0, [r3, #0]
 8002a18:	6c7a      	ldr	r2, [r7, #68]	; 0x44
 8002a1a:	1c53      	adds	r3, r2, #1
 8002a1c:	647b      	str	r3, [r7, #68]	; 0x44
 8002a1e:	68fc      	ldr	r4, [r7, #12]
 8002a20:	687b      	ldr	r3, [r7, #4]
 8002a22:	68b9      	ldr	r1, [r7, #8]
 8002a24:	47a0      	blx	r4
        format++;
 8002a26:	683b      	ldr	r3, [r7, #0]
 8002a28:	3301      	adds	r3, #1
 8002a2a:	603b      	str	r3, [r7, #0]
        break;
 8002a2c:	bf00      	nop
  while (*format)
 8002a2e:	683b      	ldr	r3, [r7, #0]
 8002a30:	781b      	ldrb	r3, [r3, #0]
 8002a32:	2b00      	cmp	r3, #0
 8002a34:	f47f ab6d 	bne.w	8002112 <_vsnprintf+0x22>
    }
  }

  // termination
  out((char)0, buffer, idx < maxlen ? idx : maxlen - 1U, maxlen);
 8002a38:	6c7a      	ldr	r2, [r7, #68]	; 0x44
 8002a3a:	687b      	ldr	r3, [r7, #4]
 8002a3c:	429a      	cmp	r2, r3
 8002a3e:	d302      	bcc.n	8002a46 <_vsnprintf+0x956>
 8002a40:	687b      	ldr	r3, [r7, #4]
 8002a42:	1e5a      	subs	r2, r3, #1
 8002a44:	e000      	b.n	8002a48 <_vsnprintf+0x958>
 8002a46:	6c7a      	ldr	r2, [r7, #68]	; 0x44
 8002a48:	68fc      	ldr	r4, [r7, #12]
 8002a4a:	687b      	ldr	r3, [r7, #4]
 8002a4c:	68b9      	ldr	r1, [r7, #8]
 8002a4e:	2000      	movs	r0, #0
 8002a50:	47a0      	blx	r4

  // return written chars without terminating \0
  return (int)idx;
 8002a52:	6c7b      	ldr	r3, [r7, #68]	; 0x44
}
 8002a54:	4618      	mov	r0, r3
 8002a56:	3758      	adds	r7, #88	; 0x58
 8002a58:	46bd      	mov	sp, r7
 8002a5a:	bdb0      	pop	{r4, r5, r7, pc}

08002a5c <printf_>:


///////////////////////////////////////////////////////////////////////////////

int printf_(const char* format, ...)
{
 8002a5c:	b40f      	push	{r0, r1, r2, r3}
 8002a5e:	b580      	push	{r7, lr}
 8002a60:	b086      	sub	sp, #24
 8002a62:	af02      	add	r7, sp, #8
  va_list va;
  va_start(va, format);
 8002a64:	f107 031c 	add.w	r3, r7, #28
 8002a68:	60bb      	str	r3, [r7, #8]
  char buffer[1];
  const int ret = _vsnprintf(_out_char, buffer, (size_t)-1, format, va);
 8002a6a:	1d39      	adds	r1, r7, #4
 8002a6c:	68bb      	ldr	r3, [r7, #8]
 8002a6e:	9300      	str	r3, [sp, #0]
 8002a70:	69bb      	ldr	r3, [r7, #24]
 8002a72:	f04f 32ff 	mov.w	r2, #4294967295
 8002a76:	4806      	ldr	r0, [pc, #24]	; (8002a90 <printf_+0x34>)
 8002a78:	f7ff fb3a 	bl	80020f0 <_vsnprintf>
 8002a7c:	60f8      	str	r0, [r7, #12]
  va_end(va);
  return ret;
 8002a7e:	68fb      	ldr	r3, [r7, #12]
}
 8002a80:	4618      	mov	r0, r3
 8002a82:	3710      	adds	r7, #16
 8002a84:	46bd      	mov	sp, r7
 8002a86:	e8bd 4080 	ldmia.w	sp!, {r7, lr}
 8002a8a:	b004      	add	sp, #16
 8002a8c:	4770      	bx	lr
 8002a8e:	bf00      	nop
 8002a90:	0800120d 	.word	0x0800120d

08002a94 <HAL_MspInit>:
/* USER CODE END 0 */
/**
  * Initializes the Global MSP.
  */
void HAL_MspInit(void)
{
 8002a94:	b580      	push	{r7, lr}
 8002a96:	b082      	sub	sp, #8
 8002a98:	af00      	add	r7, sp, #0
  /* USER CODE BEGIN MspInit 0 */

  /* USER CODE END MspInit 0 */

  __HAL_RCC_SYSCFG_CLK_ENABLE();
 8002a9a:	2300      	movs	r3, #0
 8002a9c:	607b      	str	r3, [r7, #4]
 8002a9e:	4b1e      	ldr	r3, [pc, #120]	; (8002b18 <HAL_MspInit+0x84>)
 8002aa0:	6c5b      	ldr	r3, [r3, #68]	; 0x44
 8002aa2:	4a1d      	ldr	r2, [pc, #116]	; (8002b18 <HAL_MspInit+0x84>)
 8002aa4:	f443 4380 	orr.w	r3, r3, #16384	; 0x4000
 8002aa8:	6453      	str	r3, [r2, #68]	; 0x44
 8002aaa:	4b1b      	ldr	r3, [pc, #108]	; (8002b18 <HAL_MspInit+0x84>)
 8002aac:	6c5b      	ldr	r3, [r3, #68]	; 0x44
 8002aae:	f403 4380 	and.w	r3, r3, #16384	; 0x4000
 8002ab2:	607b      	str	r3, [r7, #4]
 8002ab4:	687b      	ldr	r3, [r7, #4]
  __HAL_RCC_PWR_CLK_ENABLE();
 8002ab6:	2300      	movs	r3, #0
 8002ab8:	603b      	str	r3, [r7, #0]
 8002aba:	4b17      	ldr	r3, [pc, #92]	; (8002b18 <HAL_MspInit+0x84>)
 8002abc:	6c1b      	ldr	r3, [r3, #64]	; 0x40
 8002abe:	4a16      	ldr	r2, [pc, #88]	; (8002b18 <HAL_MspInit+0x84>)
 8002ac0:	f043 5380 	orr.w	r3, r3, #268435456	; 0x10000000
 8002ac4:	6413      	str	r3, [r2, #64]	; 0x40
 8002ac6:	4b14      	ldr	r3, [pc, #80]	; (8002b18 <HAL_MspInit+0x84>)
 8002ac8:	6c1b      	ldr	r3, [r3, #64]	; 0x40
 8002aca:	f003 5380 	and.w	r3, r3, #268435456	; 0x10000000
 8002ace:	603b      	str	r3, [r7, #0]
 8002ad0:	683b      	ldr	r3, [r7, #0]

  /* System interrupt init*/
  /* PendSV_IRQn interrupt configuration */
  HAL_NVIC_SetPriority(PendSV_IRQn, 15, 0);
 8002ad2:	2200      	movs	r2, #0
 8002ad4:	210f      	movs	r1, #15
 8002ad6:	f06f 0001 	mvn.w	r0, #1
 8002ada:	f000 fa57 	bl	8002f8c <HAL_NVIC_SetPriority>

  /* Peripheral interrupt init */
  /* PVD_IRQn interrupt configuration */
  HAL_NVIC_SetPriority(PVD_IRQn, 5, 0);
 8002ade:	2200      	movs	r2, #0
 8002ae0:	2105      	movs	r1, #5
 8002ae2:	2001      	movs	r0, #1
 8002ae4:	f000 fa52 	bl	8002f8c <HAL_NVIC_SetPriority>
  HAL_NVIC_EnableIRQ(PVD_IRQn);
 8002ae8:	2001      	movs	r0, #1
 8002aea:	f000 fa6b 	bl	8002fc4 <HAL_NVIC_EnableIRQ>
  /* FLASH_IRQn interrupt configuration */
  HAL_NVIC_SetPriority(FLASH_IRQn, 5, 0);
 8002aee:	2200      	movs	r2, #0
 8002af0:	2105      	movs	r1, #5
 8002af2:	2004      	movs	r0, #4
 8002af4:	f000 fa4a 	bl	8002f8c <HAL_NVIC_SetPriority>
  HAL_NVIC_EnableIRQ(FLASH_IRQn);
 8002af8:	2004      	movs	r0, #4
 8002afa:	f000 fa63 	bl	8002fc4 <HAL_NVIC_EnableIRQ>
  /* RCC_IRQn interrupt configuration */
  HAL_NVIC_SetPriority(RCC_IRQn, 5, 0);
 8002afe:	2200      	movs	r2, #0
 8002b00:	2105      	movs	r1, #5
 8002b02:	2005      	movs	r0, #5
 8002b04:	f000 fa42 	bl	8002f8c <HAL_NVIC_SetPriority>
  HAL_NVIC_EnableIRQ(RCC_IRQn);
