
T11_L17_RTOS_printf.elf:     file format elf32-littlearm

Sections:
Idx Name          Size      VMA       LMA       File off  Algn
  0 .isr_vector   00000198  08000000  08000000  00010000  2**0
                  CONTENTS, ALLOC, LOAD, READONLY, DATA
  1 .text         000076b4  080001a0  080001a0  000101a0  2**4
                  CONTENTS, ALLOC, LOAD, READONLY, CODE
  2 .rodata       00000140  08007858  08007858  00017858  2**3
                  CONTENTS, ALLOC, LOAD, READONLY, DATA
  3 .ARM.extab    00000000  08007998  08007998  00020010  2**0
                  CONTENTS
  4 .ARM          00000008  08007998  08007998  00017998  2**2
                  CONTENTS, ALLOC, LOAD, READONLY, DATA
  5 .preinit_array 00000000  080079a0  080079a0  00020010  2**0
                  CONTENTS, ALLOC, LOAD, DATA
  6 .init_array   00000004  080079a0  080079a0  000179a0  2**2
                  CONTENTS, ALLOC, LOAD, DATA
  7 .fini_array   00000004  080079a4  080079a4  000179a4  2**2
                  CONTENTS, ALLOC, LOAD, DATA
  8 .data         00000010  20000000  080079a8  00020000  2**2
                  CONTENTS, ALLOC, LOAD, DATA
  9 .bss          00004a14  20000010  080079b8  00020010  2**2
                  ALLOC
 10 ._user_heap_stack 00000604  20004a24  080079b8  00024a24  2**0
                  ALLOC
 11 .ARM.attributes 00000030  00000000  00000000  00020010  2**0
                  CONTENTS, READONLY
 12 .debug_info   000197f5  00000000  00000000  00020040  2**0
                  CONTENTS, READONLY, DEBUGGING
 13 .debug_abbrev 0000372a  00000000  00000000  00039835  2**0
                  CONTENTS, READONLY, DEBUGGING
 14 .debug_aranges 000015b0  00000000  00000000  0003cf60  2**3
                  CONTENTS, READONLY, DEBUGGING
 15 .debug_ranges 00001408  00000000  00000000  0003e510  2**3
                  CONTENTS, READONLY, DEBUGGING
 16 .debug_macro  000184ba  00000000  00000000  0003f918  2**0
                  CONTENTS, READONLY, DEBUGGING
 17 .debug_line   00011930  00000000  00000000  00057dd2  2**0
                  CONTENTS, READONLY, DEBUGGING
 18 .debug_str    00096e70  00000000  00000000  00069702  2**0
                  CONTENTS, READONLY, DEBUGGING
 19 .comment      0000007b  00000000  00000000  00100572  2**0
                  CONTENTS, READONLY
 20 .debug_frame  00005bf4  00000000  00000000  001005f0  2**2
                  CONTENTS, READONLY, DEBUGGING

Disassembly of section .text:

080001a0 <__do_global_dtors_aux>:
 80001a0:	b510      	push	{r4, lr}
 80001a2:	4c05      	ldr	r4, [pc, #20]	; (80001b8 <__do_global_dtors_aux+0x18>)
 80001a4:	7823      	ldrb	r3, [r4, #0]
 80001a6:	b933      	cbnz	r3, 80001b6 <__do_global_dtors_aux+0x16>
 80001a8:	4b04      	ldr	r3, [pc, #16]	; (80001bc <__do_global_dtors_aux+0x1c>)
 80001aa:	b113      	cbz	r3, 80001b2 <__do_global_dtors_aux+0x12>
 80001ac:	4804      	ldr	r0, [pc, #16]	; (80001c0 <__do_global_dtors_aux+0x20>)
 80001ae:	f3af 8000 	nop.w
 80001b2:	2301      	movs	r3, #1
 80001b4:	7023      	strb	r3, [r4, #0]
 80001b6:	bd10      	pop	{r4, pc}
 80001b8:	20000010 	.word	0x20000010
 80001bc:	00000000 	.word	0x00000000
 80001c0:	0800783c 	.word	0x0800783c

080001c4 <frame_dummy>:
 80001c4:	b508      	push	{r3, lr}
 80001c6:	4b03      	ldr	r3, [pc, #12]	; (80001d4 <frame_dummy+0x10>)
 80001c8:	b11b      	cbz	r3, 80001d2 <frame_dummy+0xe>
 80001ca:	4903      	ldr	r1, [pc, #12]	; (80001d8 <frame_dummy+0x14>)
 80001cc:	4803      	ldr	r0, [pc, #12]	; (80001dc <frame_dummy+0x18>)
 80001ce:	f3af 8000 	nop.w
 80001d2:	bd08      	pop	{r3, pc}
 80001d4:	00000000 	.word	0x00000000
 80001d8:	20000014 	.word	0x20000014
 80001dc:	0800783c 	.word	0x0800783c

080001e0 <__aeabi_drsub>:
 80001e0:	f081 4100 	eor.w	r1, r1, #2147483648	; 0x80000000
 80001e4:	e002      	b.n	80001ec <__adddf3>
 80001e6:	bf00      	nop

080001e8 <__aeabi_dsub>:
 80001e8:	f083 4300 	eor.w	r3, r3, #2147483648	; 0x80000000

080001ec <__adddf3>:
 80001ec:	b530      	push	{r4, r5, lr}
 80001ee:	ea4f 0441 	mov.w	r4, r1, lsl #1
 80001f2:	ea4f 0543 	mov.w	r5, r3, lsl #1
 80001f6:	ea94 0f05 	teq	r4, r5
 80001fa:	bf08      	it	eq
 80001fc:	ea90 0f02 	teqeq	r0, r2
 8000200:	bf1f      	itttt	ne
 8000202:	ea54 0c00 	orrsne.w	ip, r4, r0
 8000206:	ea55 0c02 	orrsne.w	ip, r5, r2
 800020a:	ea7f 5c64 	mvnsne.w	ip, r4, asr #21
 800020e:	ea7f 5c65 	mvnsne.w	ip, r5, asr #21
 8000212:	f000 80e2 	beq.w	80003da <__adddf3+0x1ee>
 8000216:	ea4f 5454 	mov.w	r4, r4, lsr #21
 800021a:	ebd4 5555 	rsbs	r5, r4, r5, lsr #21
 800021e:	bfb8      	it	lt
 8000220:	426d      	neglt	r5, r5
 8000222:	dd0c      	ble.n	800023e <__adddf3+0x52>
 8000224:	442c      	add	r4, r5
 8000226:	ea80 0202 	eor.w	r2, r0, r2
 800022a:	ea81 0303 	eor.w	r3, r1, r3
 800022e:	ea82 0000 	eor.w	r0, r2, r0
 8000232:	ea83 0101 	eor.w	r1, r3, r1
 8000236:	ea80 0202 	eor.w	r2, r0, r2
 800023a:	ea81 0303 	eor.w	r3, r1, r3
 800023e:	2d36      	cmp	r5, #54	; 0x36
 8000240:	bf88      	it	hi
 8000242:	bd30      	pophi	{r4, r5, pc}
 8000244:	f011 4f00 	tst.w	r1, #2147483648	; 0x80000000
 8000248:	ea4f 3101 	mov.w	r1, r1, lsl #12
 800024c:	f44f 1c80 	mov.w	ip, #1048576	; 0x100000
 8000250:	ea4c 3111 	orr.w	r1, ip, r1, lsr #12
 8000254:	d002      	beq.n	800025c <__adddf3+0x70>
 8000256:	4240      	negs	r0, r0
 8000258:	eb61 0141 	sbc.w	r1, r1, r1, lsl #1
 800025c:	f013 4f00 	tst.w	r3, #2147483648	; 0x80000000
 8000260:	ea4f 3303 	mov.w	r3, r3, lsl #12
 8000264:	ea4c 3313 	orr.w	r3, ip, r3, lsr #12
 8000268:	d002      	beq.n	8000270 <__adddf3+0x84>
 800026a:	4252      	negs	r2, r2
 800026c:	eb63 0343 	sbc.w	r3, r3, r3, lsl #1
 8000270:	ea94 0f05 	teq	r4, r5
 8000274:	f000 80a7 	beq.w	80003c6 <__adddf3+0x1da>
 8000278:	f1a4 0401 	sub.w	r4, r4, #1
 800027c:	f1d5 0e20 	rsbs	lr, r5, #32
 8000280:	db0d      	blt.n	800029e <__adddf3+0xb2>
 8000282:	fa02 fc0e 	lsl.w	ip, r2, lr
 8000286:	fa22 f205 	lsr.w	r2, r2, r5
 800028a:	1880      	adds	r0, r0, r2
 800028c:	f141 0100 	adc.w	r1, r1, #0
 8000290:	fa03 f20e 	lsl.w	r2, r3, lr
 8000294:	1880      	adds	r0, r0, r2
 8000296:	fa43 f305 	asr.w	r3, r3, r5
 800029a:	4159      	adcs	r1, r3
 800029c:	e00e      	b.n	80002bc <__adddf3+0xd0>
 800029e:	f1a5 0520 	sub.w	r5, r5, #32
 80002a2:	f10e 0e20 	add.w	lr, lr, #32
 80002a6:	2a01      	cmp	r2, #1
 80002a8:	fa03 fc0e 	lsl.w	ip, r3, lr
 80002ac:	bf28      	it	cs
 80002ae:	f04c 0c02 	orrcs.w	ip, ip, #2
 80002b2:	fa43 f305 	asr.w	r3, r3, r5
 80002b6:	18c0      	adds	r0, r0, r3
 80002b8:	eb51 71e3 	adcs.w	r1, r1, r3, asr #31
 80002bc:	f001 4500 	and.w	r5, r1, #2147483648	; 0x80000000
 80002c0:	d507      	bpl.n	80002d2 <__adddf3+0xe6>
 80002c2:	f04f 0e00 	mov.w	lr, #0
 80002c6:	f1dc 0c00 	rsbs	ip, ip, #0
 80002ca:	eb7e 0000 	sbcs.w	r0, lr, r0
 80002ce:	eb6e 0101 	sbc.w	r1, lr, r1
 80002d2:	f5b1 1f80 	cmp.w	r1, #1048576	; 0x100000
 80002d6:	d31b      	bcc.n	8000310 <__adddf3+0x124>
 80002d8:	f5b1 1f00 	cmp.w	r1, #2097152	; 0x200000
 80002dc:	d30c      	bcc.n	80002f8 <__adddf3+0x10c>
 80002de:	0849      	lsrs	r1, r1, #1
 80002e0:	ea5f 0030 	movs.w	r0, r0, rrx
 80002e4:	ea4f 0c3c 	mov.w	ip, ip, rrx
 80002e8:	f104 0401 	add.w	r4, r4, #1
 80002ec:	ea4f 5244 	mov.w	r2, r4, lsl #21
 80002f0:	f512 0f80 	cmn.w	r2, #4194304	; 0x400000
 80002f4:	f080 809a 	bcs.w	800042c <__adddf3+0x240>
 80002f8:	f1bc 4f00 	cmp.w	ip, #2147483648	; 0x80000000
 80002fc:	bf08      	it	eq
 80002fe:	ea5f 0c50 	movseq.w	ip, r0, lsr #1
 8000302:	f150 0000 	adcs.w	r0, r0, #0
 8000306:	eb41 5104 	adc.w	r1, r1, r4, lsl #20
 800030a:	ea41 0105 	orr.w	r1, r1, r5
 800030e:	bd30      	pop	{r4, r5, pc}
 8000310:	ea5f 0c4c 	movs.w	ip, ip, lsl #1
 8000314:	4140      	adcs	r0, r0
 8000316:	eb41 0101 	adc.w	r1, r1, r1
 800031a:	f411 1f80 	tst.w	r1, #1048576	; 0x100000
 800031e:	f1a4 0401 	sub.w	r4, r4, #1
 8000322:	d1e9      	bne.n	80002f8 <__adddf3+0x10c>
 8000324:	f091 0f00 	teq	r1, #0
 8000328:	bf04      	itt	eq
 800032a:	4601      	moveq	r1, r0
 800032c:	2000      	moveq	r0, #0
 800032e:	fab1 f381 	clz	r3, r1
 8000332:	bf08      	it	eq
 8000334:	3320      	addeq	r3, #32
 8000336:	f1a3 030b 	sub.w	r3, r3, #11
 800033a:	f1b3 0220 	subs.w	r2, r3, #32
 800033e:	da0c      	bge.n	800035a <__adddf3+0x16e>
 8000340:	320c      	adds	r2, #12
 8000342:	dd08      	ble.n	8000356 <__adddf3+0x16a>
 8000344:	f102 0c14 	add.w	ip, r2, #20
 8000348:	f1c2 020c 	rsb	r2, r2, #12
 800034c:	fa01 f00c 	lsl.w	r0, r1, ip
 8000350:	fa21 f102 	lsr.w	r1, r1, r2
 8000354:	e00c      	b.n	8000370 <__adddf3+0x184>
 8000356:	f102 0214 	add.w	r2, r2, #20
 800035a:	bfd8      	it	le
 800035c:	f1c2 0c20 	rsble	ip, r2, #32
 8000360:	fa01 f102 	lsl.w	r1, r1, r2
 8000364:	fa20 fc0c 	lsr.w	ip, r0, ip
 8000368:	bfdc      	itt	le
 800036a:	ea41 010c 	orrle.w	r1, r1, ip
 800036e:	4090      	lslle	r0, r2
 8000370:	1ae4      	subs	r4, r4, r3
 8000372:	bfa2      	ittt	ge
 8000374:	eb01 5104 	addge.w	r1, r1, r4, lsl #20
 8000378:	4329      	orrge	r1, r5
 800037a:	bd30      	popge	{r4, r5, pc}
 800037c:	ea6f 0404 	mvn.w	r4, r4
 8000380:	3c1f      	subs	r4, #31
 8000382:	da1c      	bge.n	80003be <__adddf3+0x1d2>
 8000384:	340c      	adds	r4, #12
 8000386:	dc0e      	bgt.n	80003a6 <__adddf3+0x1ba>
 8000388:	f104 0414 	add.w	r4, r4, #20
 800038c:	f1c4 0220 	rsb	r2, r4, #32
 8000390:	fa20 f004 	lsr.w	r0, r0, r4
 8000394:	fa01 f302 	lsl.w	r3, r1, r2
 8000398:	ea40 0003 	orr.w	r0, r0, r3
 800039c:	fa21 f304 	lsr.w	r3, r1, r4
 80003a0:	ea45 0103 	orr.w	r1, r5, r3
 80003a4:	bd30      	pop	{r4, r5, pc}
 80003a6:	f1c4 040c 	rsb	r4, r4, #12
 80003aa:	f1c4 0220 	rsb	r2, r4, #32
 80003ae:	fa20 f002 	lsr.w	r0, r0, r2
 80003b2:	fa01 f304 	lsl.w	r3, r1, r4
 80003b6:	ea40 0003 	orr.w	r0, r0, r3
 80003ba:	4629      	mov	r1, r5
 80003bc:	bd30      	pop	{r4, r5, pc}
 80003be:	fa21 f004 	lsr.w	r0, r1, r4
 80003c2:	4629      	mov	r1, r5
 80003c4:	bd30      	pop	{r4, r5, pc}
 80003c6:	f094 0f00 	teq	r4, #0
 80003ca:	f483 1380 	eor.w	r3, r3, #1048576	; 0x100000
 80003ce:	bf06      	itte	eq
 80003d0:	f481 1180 	eoreq.w	r1, r1, #1048576	; 0x100000
 80003d4:	3401      	addeq	r4, #1
 80003d6:	3d01      	subne	r5, #1
 80003d8:	e74e      	b.n	8000278 <__adddf3+0x8c>
 80003da:	ea7f 5c64 	mvns.w	ip, r4, asr #21
 80003de:	bf18      	it	ne
 80003e0:	ea7f 5c65 	mvnsne.w	ip, r5, asr #21
 80003e4:	d029      	beq.n	800043a <__adddf3+0x24e>
 80003e6:	ea94 0f05 	teq	r4, r5
 80003ea:	bf08      	it	eq
 80003ec:	ea90 0f02 	teqeq	r0, r2
 80003f0:	d005      	beq.n	80003fe <__adddf3+0x212>
 80003f2:	ea54 0c00 	orrs.w	ip, r4, r0
 80003f6:	bf04      	itt	eq
 80003f8:	4619      	moveq	r1, r3
 80003fa:	4610      	moveq	r0, r2
 80003fc:	bd30      	pop	{r4, r5, pc}
 80003fe:	ea91 0f03 	teq	r1, r3
 8000402:	bf1e      	ittt	ne
 8000404:	2100      	movne	r1, #0
 8000406:	2000      	movne	r0, #0
 8000408:	bd30      	popne	{r4, r5, pc}
 800040a:	ea5f 5c54 	movs.w	ip, r4, lsr #21
 800040e:	d105      	bne.n	800041c <__adddf3+0x230>
 8000410:	0040      	lsls	r0, r0, #1
 8000412:	4149      	adcs	r1, r1
 8000414:	bf28      	it	cs
 8000416:	f041 4100 	orrcs.w	r1, r1, #2147483648	; 0x80000000
 800041a:	bd30      	pop	{r4, r5, pc}
 800041c:	f514 0480 	adds.w	r4, r4, #4194304	; 0x400000
 8000420:	bf3c      	itt	cc
 8000422:	f501 1180 	addcc.w	r1, r1, #1048576	; 0x100000
 8000426:	bd30      	popcc	{r4, r5, pc}
 8000428:	f001 4500 	and.w	r5, r1, #2147483648	; 0x80000000
 800042c:	f045 41fe 	orr.w	r1, r5, #2130706432	; 0x7f000000
 8000430:	f441 0170 	orr.w	r1, r1, #15728640	; 0xf00000
 8000434:	f04f 0000 	mov.w	r0, #0
 8000438:	bd30      	pop	{r4, r5, pc}
 800043a:	ea7f 5c64 	mvns.w	ip, r4, asr #21
 800043e:	bf1a      	itte	ne
 8000440:	4619      	movne	r1, r3
 8000442:	4610      	movne	r0, r2
 8000444:	ea7f 5c65 	mvnseq.w	ip, r5, asr #21
 8000448:	bf1c      	itt	ne
 800044a:	460b      	movne	r3, r1
 800044c:	4602      	movne	r2, r0
 800044e:	ea50 3401 	orrs.w	r4, r0, r1, lsl #12
 8000452:	bf06      	itte	eq
 8000454:	ea52 3503 	orrseq.w	r5, r2, r3, lsl #12
 8000458:	ea91 0f03 	teqeq	r1, r3
 800045c:	f441 2100 	orrne.w	r1, r1, #524288	; 0x80000
 8000460:	bd30      	pop	{r4, r5, pc}
 8000462:	bf00      	nop

08000464 <__aeabi_ui2d>:
 8000464:	f090 0f00 	teq	r0, #0
 8000468:	bf04      	itt	eq
 800046a:	2100      	moveq	r1, #0
 800046c:	4770      	bxeq	lr
 800046e:	b530      	push	{r4, r5, lr}
 8000470:	f44f 6480 	mov.w	r4, #1024	; 0x400
 8000474:	f104 0432 	add.w	r4, r4, #50	; 0x32
 8000478:	f04f 0500 	mov.w	r5, #0
 800047c:	f04f 0100 	mov.w	r1, #0
 8000480:	e750      	b.n	8000324 <__adddf3+0x138>
 8000482:	bf00      	nop

08000484 <__aeabi_i2d>:
 8000484:	f090 0f00 	teq	r0, #0
 8000488:	bf04      	itt	eq
 800048a:	2100      	moveq	r1, #0
 800048c:	4770      	bxeq	lr
 800048e:	b530      	push	{r4, r5, lr}
 8000490:	f44f 6480 	mov.w	r4, #1024	; 0x400
 8000494:	f104 0432 	add.w	r4, r4, #50	; 0x32
 8000498:	f010 4500 	ands.w	r5, r0, #2147483648	; 0x80000000
 800049c:	bf48      	it	mi
 800049e:	4240      	negmi	r0, r0
 80004a0:	f04f 0100 	mov.w	r1, #0
 80004a4:	e73e      	b.n	8000324 <__adddf3+0x138>
 80004a6:	bf00      	nop

080004a8 <__aeabi_f2d>:
 80004a8:	0042      	lsls	r2, r0, #1
 80004aa:	ea4f 01e2 	mov.w	r1, r2, asr #3
 80004ae:	ea4f 0131 	mov.w	r1, r1, rrx
 80004b2:	ea4f 7002 	mov.w	r0, r2, lsl #28
 80004b6:	bf1f      	itttt	ne
 80004b8:	f012 437f 	andsne.w	r3, r2, #4278190080	; 0xff000000
 80004bc:	f093 4f7f 	teqne	r3, #4278190080	; 0xff000000
 80004c0:	f081 5160 	eorne.w	r1, r1, #939524096	; 0x38000000
 80004c4:	4770      	bxne	lr
 80004c6:	f032 427f 	bics.w	r2, r2, #4278190080	; 0xff000000
 80004ca:	bf08      	it	eq
 80004cc:	4770      	bxeq	lr
 80004ce:	f093 4f7f 	teq	r3, #4278190080	; 0xff000000
 80004d2:	bf04      	itt	eq
 80004d4:	f441 2100 	orreq.w	r1, r1, #524288	; 0x80000
 80004d8:	4770      	bxeq	lr
 80004da:	b530      	push	{r4, r5, lr}
 80004dc:	f44f 7460 	mov.w	r4, #896	; 0x380
 80004e0:	f001 4500 	and.w	r5, r1, #2147483648	; 0x80000000
 80004e4:	f021 4100 	bic.w	r1, r1, #2147483648	; 0x80000000
 80004e8:	e71c      	b.n	8000324 <__adddf3+0x138>
 80004ea:	bf00      	nop

080004ec <__aeabi_ul2d>:
 80004ec:	ea50 0201 	orrs.w	r2, r0, r1
 80004f0:	bf08      	it	eq
 80004f2:	4770      	bxeq	lr
 80004f4:	b530      	push	{r4, r5, lr}
 80004f6:	f04f 0500 	mov.w	r5, #0
 80004fa:	e00a      	b.n	8000512 <__aeabi_l2d+0x16>

080004fc <__aeabi_l2d>:
 80004fc:	ea50 0201 	orrs.w	r2, r0, r1
 8000500:	bf08      	it	eq
 8000502:	4770      	bxeq	lr
 8000504:	b530      	push	{r4, r5, lr}
 8000506:	f011 4500 	ands.w	r5, r1, #2147483648	; 0x80000000
 800050a:	d502      	bpl.n	8000512 <__aeabi_l2d+0x16>
 800050c:	4240      	negs	r0, r0
 800050e:	eb61 0141 	sbc.w	r1, r1, r1, lsl #1
 8000512:	f44f 6480 	mov.w	r4, #1024	; 0x400
 8000516:	f104 0432 	add.w	r4, r4, #50	; 0x32
 800051a:	ea5f 5c91 	movs.w	ip, r1, lsr #22
 800051e:	f43f aed8 	beq.w	80002d2 <__adddf3+0xe6>
 8000522:	f04f 0203 	mov.w	r2, #3
 8000526:	ea5f 0cdc 	movs.w	ip, ip, lsr #3
 800052a:	bf18      	it	ne
 800052c:	3203      	addne	r2, #3
 800052e:	ea5f 0cdc 	movs.w	ip, ip, lsr #3
 8000532:	bf18      	it	ne
 8000534:	3203      	addne	r2, #3
 8000536:	eb02 02dc 	add.w	r2, r2, ip, lsr #3
 800053a:	f1c2 0320 	rsb	r3, r2, #32
 800053e:	fa00 fc03 	lsl.w	ip, r0, r3
 8000542:	fa20 f002 	lsr.w	r0, r0, r2
 8000546:	fa01 fe03 	lsl.w	lr, r1, r3
 800054a:	ea40 000e 	orr.w	r0, r0, lr
 800054e:	fa21 f102 	lsr.w	r1, r1, r2
 8000552:	4414      	add	r4, r2
 8000554:	e6bd      	b.n	80002d2 <__adddf3+0xe6>
 8000556:	bf00      	nop

08000558 <__aeabi_dmul>:
 8000558:	b570      	push	{r4, r5, r6, lr}
 800055a:	f04f 0cff 	mov.w	ip, #255	; 0xff
 800055e:	f44c 6ce0 	orr.w	ip, ip, #1792	; 0x700
 8000562:	ea1c 5411 	ands.w	r4, ip, r1, lsr #20
 8000566:	bf1d      	ittte	ne
 8000568:	ea1c 5513 	andsne.w	r5, ip, r3, lsr #20
 800056c:	ea94 0f0c 	teqne	r4, ip
 8000570:	ea95 0f0c 	teqne	r5, ip
 8000574:	f000 f8de 	bleq	8000734 <__aeabi_dmul+0x1dc>
 8000578:	442c      	add	r4, r5
 800057a:	ea81 0603 	eor.w	r6, r1, r3
 800057e:	ea21 514c 	bic.w	r1, r1, ip, lsl #21
 8000582:	ea23 534c 	bic.w	r3, r3, ip, lsl #21
 8000586:	ea50 3501 	orrs.w	r5, r0, r1, lsl #12
 800058a:	bf18      	it	ne
 800058c:	ea52 3503 	orrsne.w	r5, r2, r3, lsl #12
 8000590:	f441 1180 	orr.w	r1, r1, #1048576	; 0x100000
 8000594:	f443 1380 	orr.w	r3, r3, #1048576	; 0x100000
 8000598:	d038      	beq.n	800060c <__aeabi_dmul+0xb4>
 800059a:	fba0 ce02 	umull	ip, lr, r0, r2
 800059e:	f04f 0500 	mov.w	r5, #0
 80005a2:	fbe1 e502 	umlal	lr, r5, r1, r2
 80005a6:	f006 4200 	and.w	r2, r6, #2147483648	; 0x80000000
 80005aa:	fbe0 e503 	umlal	lr, r5, r0, r3
 80005ae:	f04f 0600 	mov.w	r6, #0
 80005b2:	fbe1 5603 	umlal	r5, r6, r1, r3
 80005b6:	f09c 0f00 	teq	ip, #0
 80005ba:	bf18      	it	ne
 80005bc:	f04e 0e01 	orrne.w	lr, lr, #1
 80005c0:	f1a4 04ff 	sub.w	r4, r4, #255	; 0xff
 80005c4:	f5b6 7f00 	cmp.w	r6, #512	; 0x200
 80005c8:	f564 7440 	sbc.w	r4, r4, #768	; 0x300
 80005cc:	d204      	bcs.n	80005d8 <__aeabi_dmul+0x80>
 80005ce:	ea5f 0e4e 	movs.w	lr, lr, lsl #1
 80005d2:	416d      	adcs	r5, r5
 80005d4:	eb46 0606 	adc.w	r6, r6, r6
 80005d8:	ea42 21c6 	orr.w	r1, r2, r6, lsl #11
 80005dc:	ea41 5155 	orr.w	r1, r1, r5, lsr #21
 80005e0:	ea4f 20c5 	mov.w	r0, r5, lsl #11
 80005e4:	ea40 505e 	orr.w	r0, r0, lr, lsr #21
 80005e8:	ea4f 2ece 	mov.w	lr, lr, lsl #11
 80005ec:	f1b4 0cfd 	subs.w	ip, r4, #253	; 0xfd
 80005f0:	bf88      	it	hi
 80005f2:	f5bc 6fe0 	cmphi.w	ip, #1792	; 0x700
 80005f6:	d81e      	bhi.n	8000636 <__aeabi_dmul+0xde>
 80005f8:	f1be 4f00 	cmp.w	lr, #2147483648	; 0x80000000
 80005fc:	bf08      	it	eq
 80005fe:	ea5f 0e50 	movseq.w	lr, r0, lsr #1
 8000602:	f150 0000 	adcs.w	r0, r0, #0
 8000606:	eb41 5104 	adc.w	r1, r1, r4, lsl #20
 800060a:	bd70      	pop	{r4, r5, r6, pc}
 800060c:	f006 4600 	and.w	r6, r6, #2147483648	; 0x80000000
 8000610:	ea46 0101 	orr.w	r1, r6, r1
 8000614:	ea40 0002 	orr.w	r0, r0, r2
 8000618:	ea81 0103 	eor.w	r1, r1, r3
 800061c:	ebb4 045c 	subs.w	r4, r4, ip, lsr #1
 8000620:	bfc2      	ittt	gt
 8000622:	ebd4 050c 	rsbsgt	r5, r4, ip
 8000626:	ea41 5104 	orrgt.w	r1, r1, r4, lsl #20
 800062a:	bd70      	popgt	{r4, r5, r6, pc}
 800062c:	f441 1180 	orr.w	r1, r1, #1048576	; 0x100000
 8000630:	f04f 0e00 	mov.w	lr, #0
 8000634:	3c01      	subs	r4, #1
 8000636:	f300 80ab 	bgt.w	8000790 <__aeabi_dmul+0x238>
 800063a:	f114 0f36 	cmn.w	r4, #54	; 0x36
 800063e:	bfde      	ittt	le
 8000640:	2000      	movle	r0, #0
 8000642:	f001 4100 	andle.w	r1, r1, #2147483648	; 0x80000000
 8000646:	bd70      	pople	{r4, r5, r6, pc}
 8000648:	f1c4 0400 	rsb	r4, r4, #0
 800064c:	3c20      	subs	r4, #32
 800064e:	da35      	bge.n	80006bc <__aeabi_dmul+0x164>
 8000650:	340c      	adds	r4, #12
 8000652:	dc1b      	bgt.n	800068c <__aeabi_dmul+0x134>
 8000654:	f104 0414 	add.w	r4, r4, #20
 8000658:	f1c4 0520 	rsb	r5, r4, #32
 800065c:	fa00 f305 	lsl.w	r3, r0, r5
 8000660:	fa20 f004 	lsr.w	r0, r0, r4
 8000664:	fa01 f205 	lsl.w	r2, r1, r5
 8000668:	ea40 0002 	orr.w	r0, r0, r2
 800066c:	f001 4200 	and.w	r2, r1, #2147483648	; 0x80000000
 8000670:	f021 4100 	bic.w	r1, r1, #2147483648	; 0x80000000
 8000674:	eb10 70d3 	adds.w	r0, r0, r3, lsr #31
 8000678:	fa21 f604 	lsr.w	r6, r1, r4
 800067c:	eb42 0106 	adc.w	r1, r2, r6
 8000680:	ea5e 0e43 	orrs.w	lr, lr, r3, lsl #1
 8000684:	bf08      	it	eq
 8000686:	ea20 70d3 	biceq.w	r0, r0, r3, lsr #31
 800068a:	bd70      	pop	{r4, r5, r6, pc}
 800068c:	f1c4 040c 	rsb	r4, r4, #12
 8000690:	f1c4 0520 	rsb	r5, r4, #32
 8000694:	fa00 f304 	lsl.w	r3, r0, r4
 8000698:	fa20 f005 	lsr.w	r0, r0, r5
 800069c:	fa01 f204 	lsl.w	r2, r1, r4
 80006a0:	ea40 0002 	orr.w	r0, r0, r2
 80006a4:	f001 4100 	and.w	r1, r1, #2147483648	; 0x80000000
 80006a8:	eb10 70d3 	adds.w	r0, r0, r3, lsr #31
 80006ac:	f141 0100 	adc.w	r1, r1, #0
 80006b0:	ea5e 0e43 	orrs.w	lr, lr, r3, lsl #1
 80006b4:	bf08      	it	eq
 80006b6:	ea20 70d3 	biceq.w	r0, r0, r3, lsr #31
 80006ba:	bd70      	pop	{r4, r5, r6, pc}
 80006bc:	f1c4 0520 	rsb	r5, r4, #32
 80006c0:	fa00 f205 	lsl.w	r2, r0, r5
 80006c4:	ea4e 0e02 	orr.w	lr, lr, r2
 80006c8:	fa20 f304 	lsr.w	r3, r0, r4
 80006cc:	fa01 f205 	lsl.w	r2, r1, r5
 80006d0:	ea43 0302 	orr.w	r3, r3, r2
 80006d4:	fa21 f004 	lsr.w	r0, r1, r4
 80006d8:	f001 4100 	and.w	r1, r1, #2147483648	; 0x80000000
 80006dc:	fa21 f204 	lsr.w	r2, r1, r4
 80006e0:	ea20 0002 	bic.w	r0, r0, r2
 80006e4:	eb00 70d3 	add.w	r0, r0, r3, lsr #31
 80006e8:	ea5e 0e43 	orrs.w	lr, lr, r3, lsl #1
 80006ec:	bf08      	it	eq
 80006ee:	ea20 70d3 	biceq.w	r0, r0, r3, lsr #31
 80006f2:	bd70      	pop	{r4, r5, r6, pc}
 80006f4:	f094 0f00 	teq	r4, #0
 80006f8:	d10f      	bne.n	800071a <__aeabi_dmul+0x1c2>
 80006fa:	f001 4600 	and.w	r6, r1, #2147483648	; 0x80000000
 80006fe:	0040      	lsls	r0, r0, #1
 8000700:	eb41 0101 	adc.w	r1, r1, r1
 8000704:	f411 1f80 	tst.w	r1, #1048576	; 0x100000
 8000708:	bf08      	it	eq
 800070a:	3c01      	subeq	r4, #1
 800070c:	d0f7      	beq.n	80006fe <__aeabi_dmul+0x1a6>
 800070e:	ea41 0106 	orr.w	r1, r1, r6
 8000712:	f095 0f00 	teq	r5, #0
 8000716:	bf18      	it	ne
 8000718:	4770      	bxne	lr
 800071a:	f003 4600 	and.w	r6, r3, #2147483648	; 0x80000000
 800071e:	0052      	lsls	r2, r2, #1
 8000720:	eb43 0303 	adc.w	r3, r3, r3
 8000724:	f413 1f80 	tst.w	r3, #1048576	; 0x100000
 8000728:	bf08      	it	eq
 800072a:	3d01      	subeq	r5, #1
 800072c:	d0f7      	beq.n	800071e <__aeabi_dmul+0x1c6>
 800072e:	ea43 0306 	orr.w	r3, r3, r6
 8000732:	4770      	bx	lr
 8000734:	ea94 0f0c 	teq	r4, ip
 8000738:	ea0c 5513 	and.w	r5, ip, r3, lsr #20
 800073c:	bf18      	it	ne
 800073e:	ea95 0f0c 	teqne	r5, ip
 8000742:	d00c      	beq.n	800075e <__aeabi_dmul+0x206>
 8000744:	ea50 0641 	orrs.w	r6, r0, r1, lsl #1
 8000748:	bf18      	it	ne
 800074a:	ea52 0643 	orrsne.w	r6, r2, r3, lsl #1
 800074e:	d1d1      	bne.n	80006f4 <__aeabi_dmul+0x19c>
 8000750:	ea81 0103 	eor.w	r1, r1, r3
 8000754:	f001 4100 	and.w	r1, r1, #2147483648	; 0x80000000
 8000758:	f04f 0000 	mov.w	r0, #0
 800075c:	bd70      	pop	{r4, r5, r6, pc}
 800075e:	ea50 0641 	orrs.w	r6, r0, r1, lsl #1
 8000762:	bf06      	itte	eq
 8000764:	4610      	moveq	r0, r2
 8000766:	4619      	moveq	r1, r3
 8000768:	ea52 0643 	orrsne.w	r6, r2, r3, lsl #1
 800076c:	d019      	beq.n	80007a2 <__aeabi_dmul+0x24a>
 800076e:	ea94 0f0c 	teq	r4, ip
 8000772:	d102      	bne.n	800077a <__aeabi_dmul+0x222>
 8000774:	ea50 3601 	orrs.w	r6, r0, r1, lsl #12
 8000778:	d113      	bne.n	80007a2 <__aeabi_dmul+0x24a>
 800077a:	ea95 0f0c 	teq	r5, ip
 800077e:	d105      	bne.n	800078c <__aeabi_dmul+0x234>
 8000780:	ea52 3603 	orrs.w	r6, r2, r3, lsl #12
 8000784:	bf1c      	itt	ne
 8000786:	4610      	movne	r0, r2
 8000788:	4619      	movne	r1, r3
 800078a:	d10a      	bne.n	80007a2 <__aeabi_dmul+0x24a>
 800078c:	ea81 0103 	eor.w	r1, r1, r3
 8000790:	f001 4100 	and.w	r1, r1, #2147483648	; 0x80000000
 8000794:	f041 41fe 	orr.w	r1, r1, #2130706432	; 0x7f000000
 8000798:	f441 0170 	orr.w	r1, r1, #15728640	; 0xf00000
 800079c:	f04f 0000 	mov.w	r0, #0
 80007a0:	bd70      	pop	{r4, r5, r6, pc}
 80007a2:	f041 41fe 	orr.w	r1, r1, #2130706432	; 0x7f000000
 80007a6:	f441 0178 	orr.w	r1, r1, #16252928	; 0xf80000
 80007aa:	bd70      	pop	{r4, r5, r6, pc}

080007ac <__aeabi_ddiv>:
 80007ac:	b570      	push	{r4, r5, r6, lr}
 80007ae:	f04f 0cff 	mov.w	ip, #255	; 0xff
 80007b2:	f44c 6ce0 	orr.w	ip, ip, #1792	; 0x700
 80007b6:	ea1c 5411 	ands.w	r4, ip, r1, lsr #20
 80007ba:	bf1d      	ittte	ne
 80007bc:	ea1c 5513 	andsne.w	r5, ip, r3, lsr #20
 80007c0:	ea94 0f0c 	teqne	r4, ip
 80007c4:	ea95 0f0c 	teqne	r5, ip
 80007c8:	f000 f8a7 	bleq	800091a <__aeabi_ddiv+0x16e>
 80007cc:	eba4 0405 	sub.w	r4, r4, r5
 80007d0:	ea81 0e03 	eor.w	lr, r1, r3
 80007d4:	ea52 3503 	orrs.w	r5, r2, r3, lsl #12
 80007d8:	ea4f 3101 	mov.w	r1, r1, lsl #12
 80007dc:	f000 8088 	beq.w	80008f0 <__aeabi_ddiv+0x144>
 80007e0:	ea4f 3303 	mov.w	r3, r3, lsl #12
 80007e4:	f04f 5580 	mov.w	r5, #268435456	; 0x10000000
 80007e8:	ea45 1313 	orr.w	r3, r5, r3, lsr #4
 80007ec:	ea43 6312 	orr.w	r3, r3, r2, lsr #24
 80007f0:	ea4f 2202 	mov.w	r2, r2, lsl #8
 80007f4:	ea45 1511 	orr.w	r5, r5, r1, lsr #4
 80007f8:	ea45 6510 	orr.w	r5, r5, r0, lsr #24
 80007fc:	ea4f 2600 	mov.w	r6, r0, lsl #8
 8000800:	f00e 4100 	and.w	r1, lr, #2147483648	; 0x80000000
 8000804:	429d      	cmp	r5, r3
 8000806:	bf08      	it	eq
 8000808:	4296      	cmpeq	r6, r2
 800080a:	f144 04fd 	adc.w	r4, r4, #253	; 0xfd
 800080e:	f504 7440 	add.w	r4, r4, #768	; 0x300
 8000812:	d202      	bcs.n	800081a <__aeabi_ddiv+0x6e>
 8000814:	085b      	lsrs	r3, r3, #1
 8000816:	ea4f 0232 	mov.w	r2, r2, rrx
 800081a:	1ab6      	subs	r6, r6, r2
 800081c:	eb65 0503 	sbc.w	r5, r5, r3
 8000820:	085b      	lsrs	r3, r3, #1
 8000822:	ea4f 0232 	mov.w	r2, r2, rrx
 8000826:	f44f 1080 	mov.w	r0, #1048576	; 0x100000
 800082a:	f44f 2c00 	mov.w	ip, #524288	; 0x80000
 800082e:	ebb6 0e02 	subs.w	lr, r6, r2
 8000832:	eb75 0e03 	sbcs.w	lr, r5, r3
 8000836:	bf22      	ittt	cs
 8000838:	1ab6      	subcs	r6, r6, r2
 800083a:	4675      	movcs	r5, lr
 800083c:	ea40 000c 	orrcs.w	r0, r0, ip
 8000840:	085b      	lsrs	r3, r3, #1
 8000842:	ea4f 0232 	mov.w	r2, r2, rrx
 8000846:	ebb6 0e02 	subs.w	lr, r6, r2
 800084a:	eb75 0e03 	sbcs.w	lr, r5, r3
 800084e:	bf22      	ittt	cs
 8000850:	1ab6      	subcs	r6, r6, r2
 8000852:	4675      	movcs	r5, lr
 8000854:	ea40 005c 	orrcs.w	r0, r0, ip, lsr #1
 8000858:	085b      	lsrs	r3, r3, #1
 800085a:	ea4f 0232 	mov.w	r2, r2, rrx
 800085e:	ebb6 0e02 	subs.w	lr, r6, r2
 8000862:	eb75 0e03 	sbcs.w	lr, r5, r3
 8000866:	bf22      	ittt	cs
 8000868:	1ab6      	subcs	r6, r6, r2
 800086a:	4675      	movcs	r5, lr
 800086c:	ea40 009c 	orrcs.w	r0, r0, ip, lsr #2
 8000870:	085b      	lsrs	r3, r3, #1
 8000872:	ea4f 0232 	mov.w	r2, r2, rrx
 8000876:	ebb6 0e02 	subs.w	lr, r6, r2
 800087a:	eb75 0e03 	sbcs.w	lr, r5, r3
 800087e:	bf22      	ittt	cs
 8000880:	1ab6      	subcs	r6, r6, r2
 8000882:	4675      	movcs	r5, lr
 8000884:	ea40 00dc 	orrcs.w	r0, r0, ip, lsr #3
 8000888:	ea55 0e06 	orrs.w	lr, r5, r6
 800088c:	d018      	beq.n	80008c0 <__aeabi_ddiv+0x114>
 800088e:	ea4f 1505 	mov.w	r5, r5, lsl #4
 8000892:	ea45 7516 	orr.w	r5, r5, r6, lsr #28
 8000896:	ea4f 1606 	mov.w	r6, r6, lsl #4
 800089a:	ea4f 03c3 	mov.w	r3, r3, lsl #3
 800089e:	ea43 7352 	orr.w	r3, r3, r2, lsr #29
 80008a2:	ea4f 02c2 	mov.w	r2, r2, lsl #3
 80008a6:	ea5f 1c1c 	movs.w	ip, ip, lsr #4
 80008aa:	d1c0      	bne.n	800082e <__aeabi_ddiv+0x82>
 80008ac:	f411 1f80 	tst.w	r1, #1048576	; 0x100000
 80008b0:	d10b      	bne.n	80008ca <__aeabi_ddiv+0x11e>
 80008b2:	ea41 0100 	orr.w	r1, r1, r0
 80008b6:	f04f 0000 	mov.w	r0, #0
 80008ba:	f04f 4c00 	mov.w	ip, #2147483648	; 0x80000000
 80008be:	e7b6      	b.n	800082e <__aeabi_ddiv+0x82>
 80008c0:	f411 1f80 	tst.w	r1, #1048576	; 0x100000
 80008c4:	bf04      	itt	eq
 80008c6:	4301      	orreq	r1, r0
 80008c8:	2000      	moveq	r0, #0
 80008ca:	f1b4 0cfd 	subs.w	ip, r4, #253	; 0xfd
 80008ce:	bf88      	it	hi
 80008d0:	f5bc 6fe0 	cmphi.w	ip, #1792	; 0x700
 80008d4:	f63f aeaf 	bhi.w	8000636 <__aeabi_dmul+0xde>
 80008d8:	ebb5 0c03 	subs.w	ip, r5, r3
 80008dc:	bf04      	itt	eq
 80008de:	ebb6 0c02 	subseq.w	ip, r6, r2
 80008e2:	ea5f 0c50 	movseq.w	ip, r0, lsr #1
 80008e6:	f150 0000 	adcs.w	r0, r0, #0
 80008ea:	eb41 5104 	adc.w	r1, r1, r4, lsl #20
 80008ee:	bd70      	pop	{r4, r5, r6, pc}
 80008f0:	f00e 4e00 	and.w	lr, lr, #2147483648	; 0x80000000
 80008f4:	ea4e 3111 	orr.w	r1, lr, r1, lsr #12
 80008f8:	eb14 045c 	adds.w	r4, r4, ip, lsr #1
 80008fc:	bfc2      	ittt	gt
 80008fe:	ebd4 050c 	rsbsgt	r5, r4, ip
 8000902:	ea41 5104 	orrgt.w	r1, r1, r4, lsl #20
 8000906:	bd70      	popgt	{r4, r5, r6, pc}
 8000908:	f441 1180 	orr.w	r1, r1, #1048576	; 0x100000
 800090c:	f04f 0e00 	mov.w	lr, #0
 8000910:	3c01      	subs	r4, #1
 8000912:	e690      	b.n	8000636 <__aeabi_dmul+0xde>
 8000914:	ea45 0e06 	orr.w	lr, r5, r6
 8000918:	e68d      	b.n	8000636 <__aeabi_dmul+0xde>
 800091a:	ea0c 5513 	and.w	r5, ip, r3, lsr #20
 800091e:	ea94 0f0c 	teq	r4, ip
 8000922:	bf08      	it	eq
 8000924:	ea95 0f0c 	teqeq	r5, ip
 8000928:	f43f af3b 	beq.w	80007a2 <__aeabi_dmul+0x24a>
 800092c:	ea94 0f0c 	teq	r4, ip
 8000930:	d10a      	bne.n	8000948 <__aeabi_ddiv+0x19c>
 8000932:	ea50 3401 	orrs.w	r4, r0, r1, lsl #12
 8000936:	f47f af34 	bne.w	80007a2 <__aeabi_dmul+0x24a>
 800093a:	ea95 0f0c 	teq	r5, ip
 800093e:	f47f af25 	bne.w	800078c <__aeabi_dmul+0x234>
 8000942:	4610      	mov	r0, r2
 8000944:	4619      	mov	r1, r3
 8000946:	e72c      	b.n	80007a2 <__aeabi_dmul+0x24a>
 8000948:	ea95 0f0c 	teq	r5, ip
 800094c:	d106      	bne.n	800095c <__aeabi_ddiv+0x1b0>
 800094e:	ea52 3503 	orrs.w	r5, r2, r3, lsl #12
 8000952:	f43f aefd 	beq.w	8000750 <__aeabi_dmul+0x1f8>
 8000956:	4610      	mov	r0, r2
 8000958:	4619      	mov	r1, r3
 800095a:	e722      	b.n	80007a2 <__aeabi_dmul+0x24a>
 800095c:	ea50 0641 	orrs.w	r6, r0, r1, lsl #1
 8000960:	bf18      	it	ne
 8000962:	ea52 0643 	orrsne.w	r6, r2, r3, lsl #1
 8000966:	f47f aec5 	bne.w	80006f4 <__aeabi_dmul+0x19c>
 800096a:	ea50 0441 	orrs.w	r4, r0, r1, lsl #1
 800096e:	f47f af0d 	bne.w	800078c <__aeabi_dmul+0x234>
 8000972:	ea52 0543 	orrs.w	r5, r2, r3, lsl #1
 8000976:	f47f aeeb 	bne.w	8000750 <__aeabi_dmul+0x1f8>
 800097a:	e712      	b.n	80007a2 <__aeabi_dmul+0x24a>

0800097c <__gedf2>:
 800097c:	f04f 3cff 	mov.w	ip, #4294967295
 8000980:	e006      	b.n	8000990 <__cmpdf2+0x4>
 8000982:	bf00      	nop

08000984 <__ledf2>:
 8000984:	f04f 0c01 	mov.w	ip, #1
 8000988:	e002      	b.n	8000990 <__cmpdf2+0x4>
 800098a:	bf00      	nop

0800098c <__cmpdf2>:
 800098c:	f04f 0c01 	mov.w	ip, #1
 8000990:	f84d cd04 	str.w	ip, [sp, #-4]!
 8000994:	ea4f 0c41 	mov.w	ip, r1, lsl #1
 8000998:	ea7f 5c6c 	mvns.w	ip, ip, asr #21
 800099c:	ea4f 0c43 	mov.w	ip, r3, lsl #1
 80009a0:	bf18      	it	ne
 80009a2:	ea7f 5c6c 	mvnsne.w	ip, ip, asr #21
 80009a6:	d01b      	beq.n	80009e0 <__cmpdf2+0x54>
 80009a8:	b001      	add	sp, #4
 80009aa:	ea50 0c41 	orrs.w	ip, r0, r1, lsl #1
 80009ae:	bf0c      	ite	eq
 80009b0:	ea52 0c43 	orrseq.w	ip, r2, r3, lsl #1
 80009b4:	ea91 0f03 	teqne	r1, r3
 80009b8:	bf02      	ittt	eq
 80009ba:	ea90 0f02 	teqeq	r0, r2
 80009be:	2000      	moveq	r0, #0
 80009c0:	4770      	bxeq	lr
 80009c2:	f110 0f00 	cmn.w	r0, #0
 80009c6:	ea91 0f03 	teq	r1, r3
 80009ca:	bf58      	it	pl
 80009cc:	4299      	cmppl	r1, r3
 80009ce:	bf08      	it	eq
 80009d0:	4290      	cmpeq	r0, r2
 80009d2:	bf2c      	ite	cs
 80009d4:	17d8      	asrcs	r0, r3, #31
 80009d6:	ea6f 70e3 	mvncc.w	r0, r3, asr #31
 80009da:	f040 0001 	orr.w	r0, r0, #1
 80009de:	4770      	bx	lr
 80009e0:	ea4f 0c41 	mov.w	ip, r1, lsl #1
 80009e4:	ea7f 5c6c 	mvns.w	ip, ip, asr #21
 80009e8:	d102      	bne.n	80009f0 <__cmpdf2+0x64>
 80009ea:	ea50 3c01 	orrs.w	ip, r0, r1, lsl #12
 80009ee:	d107      	bne.n	8000a00 <__cmpdf2+0x74>
 80009f0:	ea4f 0c43 	mov.w	ip, r3, lsl #1
 80009f4:	ea7f 5c6c 	mvns.w	ip, ip, asr #21
 80009f8:	d1d6      	bne.n	80009a8 <__cmpdf2+0x1c>
 80009fa:	ea52 3c03 	orrs.w	ip, r2, r3, lsl #12
 80009fe:	d0d3      	beq.n	80009a8 <__cmpdf2+0x1c>
 8000a00:	f85d 0b04 	ldr.w	r0, [sp], #4
 8000a04:	4770      	bx	lr
 8000a06:	bf00      	nop

08000a08 <__aeabi_cdrcmple>:
 8000a08:	4684      	mov	ip, r0
 8000a0a:	4610      	mov	r0, r2
 8000a0c:	4662      	mov	r2, ip
 8000a0e:	468c      	mov	ip, r1
 8000a10:	4619      	mov	r1, r3
 8000a12:	4663      	mov	r3, ip
 8000a14:	e000      	b.n	8000a18 <__aeabi_cdcmpeq>
 8000a16:	bf00      	nop

08000a18 <__aeabi_cdcmpeq>:
 8000a18:	b501      	push	{r0, lr}
 8000a1a:	f7ff ffb7 	bl	800098c <__cmpdf2>
 8000a1e:	2800      	cmp	r0, #0
 8000a20:	bf48      	it	mi
 8000a22:	f110 0f00 	cmnmi.w	r0, #0
 8000a26:	bd01      	pop	{r0, pc}

08000a28 <__aeabi_dcmpeq>:
 8000a28:	f84d ed08 	str.w	lr, [sp, #-8]!
 8000a2c:	f7ff fff4 	bl	8000a18 <__aeabi_cdcmpeq>
 8000a30:	bf0c      	ite	eq
 8000a32:	2001      	moveq	r0, #1
 8000a34:	2000      	movne	r0, #0
 8000a36:	f85d fb08 	ldr.w	pc, [sp], #8
 8000a3a:	bf00      	nop

08000a3c <__aeabi_dcmplt>:
 8000a3c:	f84d ed08 	str.w	lr, [sp, #-8]!
 8000a40:	f7ff ffea 	bl	8000a18 <__aeabi_cdcmpeq>
 8000a44:	bf34      	ite	cc
 8000a46:	2001      	movcc	r0, #1
 8000a48:	2000      	movcs	r0, #0
 8000a4a:	f85d fb08 	ldr.w	pc, [sp], #8
 8000a4e:	bf00      	nop

08000a50 <__aeabi_dcmple>:
 8000a50:	f84d ed08 	str.w	lr, [sp, #-8]!
 8000a54:	f7ff ffe0 	bl	8000a18 <__aeabi_cdcmpeq>
 8000a58:	bf94      	ite	ls
 8000a5a:	2001      	movls	r0, #1
 8000a5c:	2000      	movhi	r0, #0
 8000a5e:	f85d fb08 	ldr.w	pc, [sp], #8
 8000a62:	bf00      	nop

08000a64 <__aeabi_dcmpge>:
 8000a64:	f84d ed08 	str.w	lr, [sp, #-8]!
 8000a68:	f7ff ffce 	bl	8000a08 <__aeabi_cdrcmple>
 8000a6c:	bf94      	ite	ls
 8000a6e:	2001      	movls	r0, #1
 8000a70:	2000      	movhi	r0, #0
 8000a72:	f85d fb08 	ldr.w	pc, [sp], #8
 8000a76:	bf00      	nop

08000a78 <__aeabi_dcmpgt>:
 8000a78:	f84d ed08 	str.w	lr, [sp, #-8]!
 8000a7c:	f7ff ffc4 	bl	8000a08 <__aeabi_cdrcmple>
 8000a80:	bf34      	ite	cc
 8000a82:	2001      	movcc	r0, #1
 8000a84:	2000      	movcs	r0, #0
 8000a86:	f85d fb08 	ldr.w	pc, [sp], #8
 8000a8a:	bf00      	nop

08000a8c <__aeabi_d2iz>:
 8000a8c:	ea4f 0241 	mov.w	r2, r1, lsl #1
 8000a90:	f512 1200 	adds.w	r2, r2, #2097152	; 0x200000
 8000a94:	d215      	bcs.n	8000ac2 <__aeabi_d2iz+0x36>
 8000a96:	d511      	bpl.n	8000abc <__aeabi_d2iz+0x30>
 8000a98:	f46f 7378 	mvn.w	r3, #992	; 0x3e0
 8000a9c:	ebb3 5262 	subs.w	r2, r3, r2, asr #21
 8000aa0:	d912      	bls.n	8000ac8 <__aeabi_d2iz+0x3c>
 8000aa2:	ea4f 23c1 	mov.w	r3, r1, lsl #11
 8000aa6:	f043 4300 	orr.w	r3, r3, #2147483648	; 0x80000000
 8000aaa:	ea43 5350 	orr.w	r3, r3, r0, lsr #21
 8000aae:	f011 4f00 	tst.w	r1, #2147483648	; 0x80000000
 8000ab2:	fa23 f002 	lsr.w	r0, r3, r2
 8000ab6:	bf18      	it	ne
 8000ab8:	4240      	negne	r0, r0
 8000aba:	4770      	bx	lr
 8000abc:	f04f 0000 	mov.w	r0, #0
 8000ac0:	4770      	bx	lr
 8000ac2:	ea50 3001 	orrs.w	r0, r0, r1, lsl #12
 8000ac6:	d105      	bne.n	8000ad4 <__aeabi_d2iz+0x48>
 8000ac8:	f011 4000 	ands.w	r0, r1, #2147483648	; 0x80000000
 8000acc:	bf08      	it	eq
 8000ace:	f06f 4000 	mvneq.w	r0, #2147483648	; 0x80000000
 8000ad2:	4770      	bx	lr
 8000ad4:	f04f 0000 	mov.w	r0, #0
 8000ad8:	4770      	bx	lr
 8000ada:	bf00      	nop

08000adc <__aeabi_d2uiz>:
 8000adc:	004a      	lsls	r2, r1, #1
 8000ade:	d211      	bcs.n	8000b04 <__aeabi_d2uiz+0x28>
 8000ae0:	f512 1200 	adds.w	r2, r2, #2097152	; 0x200000
 8000ae4:	d211      	bcs.n	8000b0a <__aeabi_d2uiz+0x2e>
 8000ae6:	d50d      	bpl.n	8000b04 <__aeabi_d2uiz+0x28>
 8000ae8:	f46f 7378 	mvn.w	r3, #992	; 0x3e0
 8000aec:	ebb3 5262 	subs.w	r2, r3, r2, asr #21
 8000af0:	d40e      	bmi.n	8000b10 <__aeabi_d2uiz+0x34>
 8000af2:	ea4f 23c1 	mov.w	r3, r1, lsl #11
 8000af6:	f043 4300 	orr.w	r3, r3, #2147483648	; 0x80000000
 8000afa:	ea43 5350 	orr.w	r3, r3, r0, lsr #21
 8000afe:	fa23 f002 	lsr.w	r0, r3, r2
 8000b02:	4770      	bx	lr
 8000b04:	f04f 0000 	mov.w	r0, #0
 8000b08:	4770      	bx	lr
 8000b0a:	ea50 3001 	orrs.w	r0, r0, r1, lsl #12
 8000b0e:	d102      	bne.n	8000b16 <__aeabi_d2uiz+0x3a>
 8000b10:	f04f 30ff 	mov.w	r0, #4294967295
 8000b14:	4770      	bx	lr
 8000b16:	f04f 0000 	mov.w	r0, #0
 8000b1a:	4770      	bx	lr

08000b1c <__aeabi_uldivmod>:
 8000b1c:	b953      	cbnz	r3, 8000b34 <__aeabi_uldivmod+0x18>
 8000b1e:	b94a      	cbnz	r2, 8000b34 <__aeabi_uldivmod+0x18>
 8000b20:	2900      	cmp	r1, #0
 8000b22:	bf08      	it	eq
 8000b24:	2800      	cmpeq	r0, #0
 8000b26:	bf1c      	itt	ne
 8000b28:	f04f 31ff 	movne.w	r1, #4294967295
 8000b2c:	f04f 30ff 	movne.w	r0, #4294967295
 8000b30:	f000 b972 	b.w	8000e18 <__aeabi_idiv0>
 8000b34:	f1ad 0c08 	sub.w	ip, sp, #8
 8000b38:	e96d ce04 	strd	ip, lr, [sp, #-16]!
 8000b3c:	f000 f806 	bl	8000b4c <__udivmoddi4>
 8000b40:	f8dd e004 	ldr.w	lr, [sp, #4]
 8000b44:	e9dd 2302 	ldrd	r2, r3, [sp, #8]
 8000b48:	b004      	add	sp, #16
 8000b4a:	4770      	bx	lr

08000b4c <__udivmoddi4>:
 8000b4c:	e92d 47f0 	stmdb	sp!, {r4, r5, r6, r7, r8, r9, sl, lr}
 8000b50:	9e08      	ldr	r6, [sp, #32]
 8000b52:	4604      	mov	r4, r0
 8000b54:	4688      	mov	r8, r1
 8000b56:	2b00      	cmp	r3, #0
 8000b58:	d14b      	bne.n	8000bf2 <__udivmoddi4+0xa6>
 8000b5a:	428a      	cmp	r2, r1
 8000b5c:	4615      	mov	r5, r2
 8000b5e:	d967      	bls.n	8000c30 <__udivmoddi4+0xe4>
 8000b60:	fab2 f282 	clz	r2, r2
 8000b64:	b14a      	cbz	r2, 8000b7a <__udivmoddi4+0x2e>
 8000b66:	f1c2 0720 	rsb	r7, r2, #32
 8000b6a:	fa01 f302 	lsl.w	r3, r1, r2
 8000b6e:	fa20 f707 	lsr.w	r7, r0, r7
 8000b72:	4095      	lsls	r5, r2
 8000b74:	ea47 0803 	orr.w	r8, r7, r3
 8000b78:	4094      	lsls	r4, r2
 8000b7a:	ea4f 4e15 	mov.w	lr, r5, lsr #16
 8000b7e:	0c23      	lsrs	r3, r4, #16
 8000b80:	fbb8 f7fe 	udiv	r7, r8, lr
 8000b84:	fa1f fc85 	uxth.w	ip, r5
 8000b88:	fb0e 8817 	mls	r8, lr, r7, r8
 8000b8c:	ea43 4308 	orr.w	r3, r3, r8, lsl #16
 8000b90:	fb07 f10c 	mul.w	r1, r7, ip
 8000b94:	4299      	cmp	r1, r3
 8000b96:	d909      	bls.n	8000bac <__udivmoddi4+0x60>
 8000b98:	18eb      	adds	r3, r5, r3
 8000b9a:	f107 30ff 	add.w	r0, r7, #4294967295
 8000b9e:	f080 811b 	bcs.w	8000dd8 <__udivmoddi4+0x28c>
 8000ba2:	4299      	cmp	r1, r3
 8000ba4:	f240 8118 	bls.w	8000dd8 <__udivmoddi4+0x28c>
 8000ba8:	3f02      	subs	r7, #2
 8000baa:	442b      	add	r3, r5
 8000bac:	1a5b      	subs	r3, r3, r1
 8000bae:	b2a4      	uxth	r4, r4
 8000bb0:	fbb3 f0fe 	udiv	r0, r3, lr
 8000bb4:	fb0e 3310 	mls	r3, lr, r0, r3
 8000bb8:	ea44 4403 	orr.w	r4, r4, r3, lsl #16
 8000bbc:	fb00 fc0c 	mul.w	ip, r0, ip
 8000bc0:	45a4      	cmp	ip, r4
 8000bc2:	d909      	bls.n	8000bd8 <__udivmoddi4+0x8c>
 8000bc4:	192c      	adds	r4, r5, r4
 8000bc6:	f100 33ff 	add.w	r3, r0, #4294967295
 8000bca:	f080 8107 	bcs.w	8000ddc <__udivmoddi4+0x290>
 8000bce:	45a4      	cmp	ip, r4
 8000bd0:	f240 8104 	bls.w	8000ddc <__udivmoddi4+0x290>
 8000bd4:	3802      	subs	r0, #2
 8000bd6:	442c      	add	r4, r5
 8000bd8:	ea40 4007 	orr.w	r0, r0, r7, lsl #16
 8000bdc:	eba4 040c 	sub.w	r4, r4, ip
 8000be0:	2700      	movs	r7, #0
 8000be2:	b11e      	cbz	r6, 8000bec <__udivmoddi4+0xa0>
 8000be4:	40d4      	lsrs	r4, r2
 8000be6:	2300      	movs	r3, #0
 8000be8:	e9c6 4300 	strd	r4, r3, [r6]
 8000bec:	4639      	mov	r1, r7
 8000bee:	e8bd 87f0 	ldmia.w	sp!, {r4, r5, r6, r7, r8, r9, sl, pc}
 8000bf2:	428b      	cmp	r3, r1
 8000bf4:	d909      	bls.n	8000c0a <__udivmoddi4+0xbe>
 8000bf6:	2e00      	cmp	r6, #0
 8000bf8:	f000 80eb 	beq.w	8000dd2 <__udivmoddi4+0x286>
 8000bfc:	2700      	movs	r7, #0
 8000bfe:	e9c6 0100 	strd	r0, r1, [r6]
 8000c02:	4638      	mov	r0, r7
 8000c04:	4639      	mov	r1, r7
 8000c06:	e8bd 87f0 	ldmia.w	sp!, {r4, r5, r6, r7, r8, r9, sl, pc}
 8000c0a:	fab3 f783 	clz	r7, r3
 8000c0e:	2f00      	cmp	r7, #0
 8000c10:	d147      	bne.n	8000ca2 <__udivmoddi4+0x156>
 8000c12:	428b      	cmp	r3, r1
 8000c14:	d302      	bcc.n	8000c1c <__udivmoddi4+0xd0>
 8000c16:	4282      	cmp	r2, r0
 8000c18:	f200 80fa 	bhi.w	8000e10 <__udivmoddi4+0x2c4>
 8000c1c:	1a84      	subs	r4, r0, r2
 8000c1e:	eb61 0303 	sbc.w	r3, r1, r3
 8000c22:	2001      	movs	r0, #1
 8000c24:	4698      	mov	r8, r3
 8000c26:	2e00      	cmp	r6, #0
 8000c28:	d0e0      	beq.n	8000bec <__udivmoddi4+0xa0>
 8000c2a:	e9c6 4800 	strd	r4, r8, [r6]
 8000c2e:	e7dd      	b.n	8000bec <__udivmoddi4+0xa0>
 8000c30:	b902      	cbnz	r2, 8000c34 <__udivmoddi4+0xe8>
 8000c32:	deff      	udf	#255	; 0xff
 8000c34:	fab2 f282 	clz	r2, r2
 8000c38:	2a00      	cmp	r2, #0
 8000c3a:	f040 808f 	bne.w	8000d5c <__udivmoddi4+0x210>
 8000c3e:	1b49      	subs	r1, r1, r5
 8000c40:	ea4f 4e15 	mov.w	lr, r5, lsr #16
 8000c44:	fa1f f885 	uxth.w	r8, r5
 8000c48:	2701      	movs	r7, #1
 8000c4a:	fbb1 fcfe 	udiv	ip, r1, lr
 8000c4e:	0c23      	lsrs	r3, r4, #16
 8000c50:	fb0e 111c 	mls	r1, lr, ip, r1
 8000c54:	ea43 4301 	orr.w	r3, r3, r1, lsl #16
 8000c58:	fb08 f10c 	mul.w	r1, r8, ip
 8000c5c:	4299      	cmp	r1, r3
 8000c5e:	d907      	bls.n	8000c70 <__udivmoddi4+0x124>
 8000c60:	18eb      	adds	r3, r5, r3
 8000c62:	f10c 30ff 	add.w	r0, ip, #4294967295
 8000c66:	d202      	bcs.n	8000c6e <__udivmoddi4+0x122>
 8000c68:	4299      	cmp	r1, r3
 8000c6a:	f200 80cd 	bhi.w	8000e08 <__udivmoddi4+0x2bc>
 8000c6e:	4684      	mov	ip, r0
 8000c70:	1a59      	subs	r1, r3, r1
 8000c72:	b2a3      	uxth	r3, r4
 8000c74:	fbb1 f0fe 	udiv	r0, r1, lr
 8000c78:	fb0e 1410 	mls	r4, lr, r0, r1
 8000c7c:	ea43 4404 	orr.w	r4, r3, r4, lsl #16
 8000c80:	fb08 f800 	mul.w	r8, r8, r0
 8000c84:	45a0      	cmp	r8, r4
 8000c86:	d907      	bls.n	8000c98 <__udivmoddi4+0x14c>
 8000c88:	192c      	adds	r4, r5, r4
 8000c8a:	f100 33ff 	add.w	r3, r0, #4294967295
 8000c8e:	d202      	bcs.n	8000c96 <__udivmoddi4+0x14a>
 8000c90:	45a0      	cmp	r8, r4
 8000c92:	f200 80b6 	bhi.w	8000e02 <__udivmoddi4+0x2b6>
 8000c96:	4618      	mov	r0, r3
 8000c98:	eba4 0408 	sub.w	r4, r4, r8
 8000c9c:	ea40 400c 	orr.w	r0, r0, ip, lsl #16
 8000ca0:	e79f      	b.n	8000be2 <__udivmoddi4+0x96>
 8000ca2:	f1c7 0c20 	rsb	ip, r7, #32
 8000ca6:	40bb      	lsls	r3, r7
 8000ca8:	fa22 fe0c 	lsr.w	lr, r2, ip
 8000cac:	ea4e 0e03 	orr.w	lr, lr, r3
 8000cb0:	fa01 f407 	lsl.w	r4, r1, r7
 8000cb4:	fa20 f50c 	lsr.w	r5, r0, ip
 8000cb8:	fa21 f30c 	lsr.w	r3, r1, ip
 8000cbc:	ea4f 481e 	mov.w	r8, lr, lsr #16
 8000cc0:	4325      	orrs	r5, r4
 8000cc2:	fbb3 f9f8 	udiv	r9, r3, r8
 8000cc6:	0c2c      	lsrs	r4, r5, #16
 8000cc8:	fb08 3319 	mls	r3, r8, r9, r3
 8000ccc:	fa1f fa8e 	uxth.w	sl, lr
 8000cd0:	ea44 4303 	orr.w	r3, r4, r3, lsl #16
 8000cd4:	fb09 f40a 	mul.w	r4, r9, sl
 8000cd8:	429c      	cmp	r4, r3
 8000cda:	fa02 f207 	lsl.w	r2, r2, r7
 8000cde:	fa00 f107 	lsl.w	r1, r0, r7
 8000ce2:	d90b      	bls.n	8000cfc <__udivmoddi4+0x1b0>
 8000ce4:	eb1e 0303 	adds.w	r3, lr, r3
 8000ce8:	f109 30ff 	add.w	r0, r9, #4294967295
 8000cec:	f080 8087 	bcs.w	8000dfe <__udivmoddi4+0x2b2>
 8000cf0:	429c      	cmp	r4, r3
 8000cf2:	f240 8084 	bls.w	8000dfe <__udivmoddi4+0x2b2>
 8000cf6:	f1a9 0902 	sub.w	r9, r9, #2
 8000cfa:	4473      	add	r3, lr
 8000cfc:	1b1b      	subs	r3, r3, r4
 8000cfe:	b2ad      	uxth	r5, r5
 8000d00:	fbb3 f0f8 	udiv	r0, r3, r8
 8000d04:	fb08 3310 	mls	r3, r8, r0, r3
 8000d08:	ea45 4403 	orr.w	r4, r5, r3, lsl #16
 8000d0c:	fb00 fa0a 	mul.w	sl, r0, sl
 8000d10:	45a2      	cmp	sl, r4
 8000d12:	d908      	bls.n	8000d26 <__udivmoddi4+0x1da>
 8000d14:	eb1e 0404 	adds.w	r4, lr, r4
 8000d18:	f100 33ff 	add.w	r3, r0, #4294967295
 8000d1c:	d26b      	bcs.n	8000df6 <__udivmoddi4+0x2aa>
 8000d1e:	45a2      	cmp	sl, r4
 8000d20:	d969      	bls.n	8000df6 <__udivmoddi4+0x2aa>
 8000d22:	3802      	subs	r0, #2
 8000d24:	4474      	add	r4, lr
 8000d26:	ea40 4009 	orr.w	r0, r0, r9, lsl #16
 8000d2a:	fba0 8902 	umull	r8, r9, r0, r2
 8000d2e:	eba4 040a 	sub.w	r4, r4, sl
 8000d32:	454c      	cmp	r4, r9
 8000d34:	46c2      	mov	sl, r8
 8000d36:	464b      	mov	r3, r9
 8000d38:	d354      	bcc.n	8000de4 <__udivmoddi4+0x298>
 8000d3a:	d051      	beq.n	8000de0 <__udivmoddi4+0x294>
 8000d3c:	2e00      	cmp	r6, #0
 8000d3e:	d069      	beq.n	8000e14 <__udivmoddi4+0x2c8>
 8000d40:	ebb1 050a 	subs.w	r5, r1, sl
 8000d44:	eb64 0403 	sbc.w	r4, r4, r3
 8000d48:	fa04 fc0c 	lsl.w	ip, r4, ip
 8000d4c:	40fd      	lsrs	r5, r7
 8000d4e:	40fc      	lsrs	r4, r7
 8000d50:	ea4c 0505 	orr.w	r5, ip, r5
 8000d54:	e9c6 5400 	strd	r5, r4, [r6]
 8000d58:	2700      	movs	r7, #0
 8000d5a:	e747      	b.n	8000bec <__udivmoddi4+0xa0>
 8000d5c:	f1c2 0320 	rsb	r3, r2, #32
 8000d60:	fa20 f703 	lsr.w	r7, r0, r3
 8000d64:	4095      	lsls	r5, r2
 8000d66:	fa01 f002 	lsl.w	r0, r1, r2
 8000d6a:	fa21 f303 	lsr.w	r3, r1, r3
 8000d6e:	ea4f 4e15 	mov.w	lr, r5, lsr #16
 8000d72:	4338      	orrs	r0, r7
 8000d74:	0c01      	lsrs	r1, r0, #16
 8000d76:	fbb3 f7fe 	udiv	r7, r3, lr
 8000d7a:	fa1f f885 	uxth.w	r8, r5
 8000d7e:	fb0e 3317 	mls	r3, lr, r7, r3
 8000d82:	ea41 4103 	orr.w	r1, r1, r3, lsl #16
 8000d86:	fb07 f308 	mul.w	r3, r7, r8
 8000d8a:	428b      	cmp	r3, r1
 8000d8c:	fa04 f402 	lsl.w	r4, r4, r2
 8000d90:	d907      	bls.n	8000da2 <__udivmoddi4+0x256>
 8000d92:	1869      	adds	r1, r5, r1
 8000d94:	f107 3cff 	add.w	ip, r7, #4294967295
 8000d98:	d22f      	bcs.n	8000dfa <__udivmoddi4+0x2ae>
 8000d9a:	428b      	cmp	r3, r1
 8000d9c:	d92d      	bls.n	8000dfa <__udivmoddi4+0x2ae>
 8000d9e:	3f02      	subs	r7, #2
 8000da0:	4429      	add	r1, r5
 8000da2:	1acb      	subs	r3, r1, r3
 8000da4:	b281      	uxth	r1, r0
 8000da6:	fbb3 f0fe 	udiv	r0, r3, lr
 8000daa:	fb0e 3310 	mls	r3, lr, r0, r3
 8000dae:	ea41 4103 	orr.w	r1, r1, r3, lsl #16
 8000db2:	fb00 f308 	mul.w	r3, r0, r8
 8000db6:	428b      	cmp	r3, r1
 8000db8:	d907      	bls.n	8000dca <__udivmoddi4+0x27e>
 8000dba:	1869      	adds	r1, r5, r1
 8000dbc:	f100 3cff 	add.w	ip, r0, #4294967295
 8000dc0:	d217      	bcs.n	8000df2 <__udivmoddi4+0x2a6>
 8000dc2:	428b      	cmp	r3, r1
 8000dc4:	d915      	bls.n	8000df2 <__udivmoddi4+0x2a6>
 8000dc6:	3802      	subs	r0, #2
 8000dc8:	4429      	add	r1, r5
 8000dca:	1ac9      	subs	r1, r1, r3
 8000dcc:	ea40 4707 	orr.w	r7, r0, r7, lsl #16
 8000dd0:	e73b      	b.n	8000c4a <__udivmoddi4+0xfe>
 8000dd2:	4637      	mov	r7, r6
 8000dd4:	4630      	mov	r0, r6
 8000dd6:	e709      	b.n	8000bec <__udivmoddi4+0xa0>
 8000dd8:	4607      	mov	r7, r0
 8000dda:	e6e7      	b.n	8000bac <__udivmoddi4+0x60>
 8000ddc:	4618      	mov	r0, r3
 8000dde:	e6fb      	b.n	8000bd8 <__udivmoddi4+0x8c>
 8000de0:	4541      	cmp	r1, r8
 8000de2:	d2ab      	bcs.n	8000d3c <__udivmoddi4+0x1f0>
 8000de4:	ebb8 0a02 	subs.w	sl, r8, r2
 8000de8:	eb69 020e 	sbc.w	r2, r9, lr
 8000dec:	3801      	subs	r0, #1
 8000dee:	4613      	mov	r3, r2
 8000df0:	e7a4      	b.n	8000d3c <__udivmoddi4+0x1f0>
 8000df2:	4660      	mov	r0, ip
 8000df4:	e7e9      	b.n	8000dca <__udivmoddi4+0x27e>
 8000df6:	4618      	mov	r0, r3
 8000df8:	e795      	b.n	8000d26 <__udivmoddi4+0x1da>
 8000dfa:	4667      	mov	r7, ip
 8000dfc:	e7d1      	b.n	8000da2 <__udivmoddi4+0x256>
 8000dfe:	4681      	mov	r9, r0
 8000e00:	e77c      	b.n	8000cfc <__udivmoddi4+0x1b0>
 8000e02:	3802      	subs	r0, #2
 8000e04:	442c      	add	r4, r5
 8000e06:	e747      	b.n	8000c98 <__udivmoddi4+0x14c>
 8000e08:	f1ac 0c02 	sub.w	ip, ip, #2
 8000e0c:	442b      	add	r3, r5
 8000e0e:	e72f      	b.n	8000c70 <__udivmoddi4+0x124>
 8000e10:	4638      	mov	r0, r7
 8000e12:	e708      	b.n	8000c26 <__udivmoddi4+0xda>
 8000e14:	4637      	mov	r7, r6
 8000e16:	e6e9      	b.n	8000bec <__udivmoddi4+0xa0>

08000e18 <__aeabi_idiv0>:
 8000e18:	4770      	bx	lr
 8000e1a:	bf00      	nop

08000e1c <MX_FREERTOS_Init>:
/**
  * @brief  FreeRTOS initialization
  * @param  None
  * @retval None
  */
void MX_FREERTOS_Init(void) {
 8000e1c:	b580      	push	{r7, lr}
 8000e1e:	af00      	add	r7, sp, #0
  /* add queues, ... */
  /* USER CODE END RTOS_QUEUES */

  /* Create the thread(s) */
  /* creation of Led2Task */
  Led2TaskHandle = osThreadNew(StartLed2Task, NULL, &Led2Task_attributes);
 8000e20:	4a0c      	ldr	r2, [pc, #48]	; (8000e54 <MX_FREERTOS_Init+0x38>)
 8000e22:	2100      	movs	r1, #0
 8000e24:	480c      	ldr	r0, [pc, #48]	; (8000e58 <MX_FREERTOS_Init+0x3c>)
 8000e26:	f003 ffef 	bl	8004e08 <osThreadNew>
 8000e2a:	4602      	mov	r2, r0
 8000e2c:	4b0b      	ldr	r3, [pc, #44]	; (8000e5c <MX_FREERTOS_Init+0x40>)
 8000e2e:	601a      	str	r2, [r3, #0]

  /* creation of Led3Task */
  Led3TaskHandle = osThreadNew(StartLed3Task, NULL, &Led3Task_attributes);
 8000e30:	4a0b      	ldr	r2, [pc, #44]	; (8000e60 <MX_FREERTOS_Init+0x44>)
 8000e32:	2100      	movs	r1, #0
 8000e34:	480b      	ldr	r0, [pc, #44]	; (8000e64 <MX_FREERTOS_Init+0x48>)
 8000e36:	f003 ffe7 	bl	8004e08 <osThreadNew>
 8000e3a:	4602      	mov	r2, r0
 8000e3c:	4b0a      	ldr	r3, [pc, #40]	; (8000e68 <MX_FREERTOS_Init+0x4c>)
 8000e3e:	601a      	str	r2, [r3, #0]

  /* creation of Led4Task */
  Led4TaskHandle = osThreadNew(StartLed4Task, NULL, &Led4Task_attributes);
 8000e40:	4a0a      	ldr	r2, [pc, #40]	; (8000e6c <MX_FREERTOS_Init+0x50>)
 8000e42:	2100      	movs	r1, #0
 8000e44:	480a      	ldr	r0, [pc, #40]	; (8000e70 <MX_FREERTOS_Init+0x54>)
 8000e46:	f003 ffdf 	bl	8004e08 <osThreadNew>
 8000e4a:	4602      	mov	r2, r0
 8000e4c:	4b09      	ldr	r3, [pc, #36]	; (8000e74 <MX_FREERTOS_Init+0x58>)
 8000e4e:	601a      	str	r2, [r3, #0]

  /* USER CODE BEGIN RTOS_EVENTS */
  /* add events, ... */
  /* USER CODE END RTOS_EVENTS */

}
 8000e50:	bf00      	nop
 8000e52:	bd80      	pop	{r7, pc}
 8000e54:	080078c4 	.word	0x080078c4
 8000e58:	08000e79 	.word	0x08000e79
 8000e5c:	20004934 	.word	0x20004934
 8000e60:	080078e8 	.word	0x080078e8
 8000e64:	08000ea9 	.word	0x08000ea9
 8000e68:	2000493c 	.word	0x2000493c
 8000e6c:	0800790c 	.word	0x0800790c
 8000e70:	08000edd 	.word	0x08000edd
 8000e74:	20004938 	.word	0x20004938

08000e78 <StartLed2Task>:
  * @param  argument: Not used
  * @retval None
  */
/* USER CODE END Header_StartLed2Task */
void StartLed2Task(void *argument)
{
 8000e78:	b580      	push	{r7, lr}
 8000e7a:	b084      	sub	sp, #16
 8000e7c:	af00      	add	r7, sp, #0
 8000e7e:	6078      	str	r0, [r7, #4]
  /* USER CODE BEGIN StartLed2Task */
	uint32_t tick;

	tick = osKernelGetTickCount();        // retrieve the number of system ticks
 8000e80:	f003 ff9a 	bl	8004db8 <osKernelGetTickCount>
 8000e84:	60f8      	str	r0, [r7, #12]
  /* Infinite loop */
  for(;;)
  {
	  HAL_GPIO_TogglePin(LD2_GPIO_Port, LD2_Pin);
 8000e86:	2120      	movs	r1, #32
 8000e88:	4805      	ldr	r0, [pc, #20]	; (8000ea0 <StartLed2Task+0x28>)
 8000e8a:	f002 fb90 	bl	80035ae <HAL_GPIO_TogglePin>
	  printf("Led2\n\r");
 8000e8e:	4805      	ldr	r0, [pc, #20]	; (8000ea4 <StartLed2Task+0x2c>)
 8000e90:	f001 fd88 	bl	80029a4 <printf_>
	  osDelay(500);
 8000e94:	f44f 70fa 	mov.w	r0, #500	; 0x1f4
 8000e98:	f004 f85c 	bl	8004f54 <osDelay>
	  HAL_GPIO_TogglePin(LD2_GPIO_Port, LD2_Pin);
 8000e9c:	e7f3      	b.n	8000e86 <StartLed2Task+0xe>
 8000e9e:	bf00      	nop
 8000ea0:	40020000 	.word	0x40020000
 8000ea4:	0800787c 	.word	0x0800787c

08000ea8 <StartLed3Task>:
* @param argument: Not used
* @retval None
*/
/* USER CODE END Header_StartLed3Task */
void StartLed3Task(void *argument)
{
 8000ea8:	b580      	push	{r7, lr}
 8000eaa:	b084      	sub	sp, #16
 8000eac:	af00      	add	r7, sp, #0
 8000eae:	6078      	str	r0, [r7, #4]
  /* USER CODE BEGIN StartLed3Task */
	uint32_t tick;

	tick = osKernelGetTickCount();        // retrieve the number of system ticks
 8000eb0:	f003 ff82 	bl	8004db8 <osKernelGetTickCount>
 8000eb4:	60f8      	str	r0, [r7, #12]
	tick = xTaskGetTickCount();
 8000eb6:	f005 f917 	bl	80060e8 <xTaskGetTickCount>
 8000eba:	60f8      	str	r0, [r7, #12]
  /* Infinite loop */
  for(;;)
  {
	  HAL_GPIO_TogglePin(LD3_GPIO_Port, LD3_Pin);
 8000ebc:	2140      	movs	r1, #64	; 0x40
 8000ebe:	4805      	ldr	r0, [pc, #20]	; (8000ed4 <StartLed3Task+0x2c>)
 8000ec0:	f002 fb75 	bl	80035ae <HAL_GPIO_TogglePin>
	  printf("Led3\n\r");
 8000ec4:	4804      	ldr	r0, [pc, #16]	; (8000ed8 <StartLed3Task+0x30>)
 8000ec6:	f001 fd6d 	bl	80029a4 <printf_>
	  osDelay(300);
 8000eca:	f44f 7096 	mov.w	r0, #300	; 0x12c
 8000ece:	f004 f841 	bl	8004f54 <osDelay>
	  HAL_GPIO_TogglePin(LD3_GPIO_Port, LD3_Pin);
 8000ed2:	e7f3      	b.n	8000ebc <StartLed3Task+0x14>
 8000ed4:	40020000 	.word	0x40020000
 8000ed8:	08007884 	.word	0x08007884

08000edc <StartLed4Task>:
* @param argument: Not used
* @retval None
*/
/* USER CODE END Header_StartLed4Task */
void StartLed4Task(void *argument)
{
 8000edc:	b580      	push	{r7, lr}
 8000ede:	b084      	sub	sp, #16
 8000ee0:	af00      	add	r7, sp, #0
 8000ee2:	6078      	str	r0, [r7, #4]
  /* USER CODE BEGIN StartLed4Task */
	uint32_t tick;

	tick = osKernelGetTickCount();        // retrieve the number of system ticks
 8000ee4:	f003 ff68 	bl	8004db8 <osKernelGetTickCount>
 8000ee8:	60f8      	str	r0, [r7, #12]
  /* Infinite loop */
  for(;;)
  {
	  HAL_GPIO_TogglePin(LD4_GPIO_Port, LD4_Pin);
 8000eea:	2180      	movs	r1, #128	; 0x80
 8000eec:	4805      	ldr	r0, [pc, #20]	; (8000f04 <StartLed4Task+0x28>)
 8000eee:	f002 fb5e 	bl	80035ae <HAL_GPIO_TogglePin>
	  printf("Led4\n\r");
 8000ef2:	4805      	ldr	r0, [pc, #20]	; (8000f08 <StartLed4Task+0x2c>)
 8000ef4:	f001 fd56 	bl	80029a4 <printf_>
	  osDelay(1000);
 8000ef8:	f44f 707a 	mov.w	r0, #1000	; 0x3e8
 8000efc:	f004 f82a 	bl	8004f54 <osDelay>
	  HAL_GPIO_TogglePin(LD4_GPIO_Port, LD4_Pin);
 8000f00:	e7f3      	b.n	8000eea <StartLed4Task+0xe>
 8000f02:	bf00      	nop
 8000f04:	40020000 	.word	0x40020000
 8000f08:	0800788c 	.word	0x0800788c

08000f0c <_putchar>:
}

/* Private application code --------------------------------------------------*/
/* USER CODE BEGIN Application */
void _putchar(char character)
{
 8000f0c:	b580      	push	{r7, lr}
 8000f0e:	b082      	sub	sp, #8
 8000f10:	af00      	add	r7, sp, #0
 8000f12:	4603      	mov	r3, r0
 8000f14:	71fb      	strb	r3, [r7, #7]
	HAL_UART_Transmit(&huart2, (uint8_t*)&character, 1, 1000);
 8000f16:	1df9      	adds	r1, r7, #7
 8000f18:	f44f 737a 	mov.w	r3, #1000	; 0x3e8
 8000f1c:	2201      	movs	r2, #1
 8000f1e:	4803      	ldr	r0, [pc, #12]	; (8000f2c <_putchar+0x20>)
 8000f20:	f003 fa79 	bl	8004416 <HAL_UART_Transmit>
}
 8000f24:	bf00      	nop
 8000f26:	3708      	adds	r7, #8
 8000f28:	46bd      	mov	sp, r7
 8000f2a:	bd80      	pop	{r7, pc}
 8000f2c:	20004980 	.word	0x20004980

08000f30 <MX_GPIO_Init>:
        * Output
        * EVENT_OUT
        * EXTI
*/
void MX_GPIO_Init(void)
{
 8000f30:	b580      	push	{r7, lr}
 8000f32:	b08a      	sub	sp, #40	; 0x28
 8000f34:	af00      	add	r7, sp, #0

  GPIO_InitTypeDef GPIO_InitStruct = {0};
 8000f36:	f107 0314 	add.w	r3, r7, #20
 8000f3a:	2200      	movs	r2, #0
 8000f3c:	601a      	str	r2, [r3, #0]
 8000f3e:	605a      	str	r2, [r3, #4]
 8000f40:	609a      	str	r2, [r3, #8]
 8000f42:	60da      	str	r2, [r3, #12]
 8000f44:	611a      	str	r2, [r3, #16]

  /* GPIO Ports Clock Enable */
  __HAL_RCC_GPIOC_CLK_ENABLE();
 8000f46:	2300      	movs	r3, #0
 8000f48:	613b      	str	r3, [r7, #16]
 8000f4a:	4b2d      	ldr	r3, [pc, #180]	; (8001000 <MX_GPIO_Init+0xd0>)
 8000f4c:	6b1b      	ldr	r3, [r3, #48]	; 0x30
 8000f4e:	4a2c      	ldr	r2, [pc, #176]	; (8001000 <MX_GPIO_Init+0xd0>)
 8000f50:	f043 0304 	orr.w	r3, r3, #4
 8000f54:	6313      	str	r3, [r2, #48]	; 0x30
 8000f56:	4b2a      	ldr	r3, [pc, #168]	; (8001000 <MX_GPIO_Init+0xd0>)
 8000f58:	6b1b      	ldr	r3, [r3, #48]	; 0x30
 8000f5a:	f003 0304 	and.w	r3, r3, #4
 8000f5e:	613b      	str	r3, [r7, #16]
 8000f60:	693b      	ldr	r3, [r7, #16]
  __HAL_RCC_GPIOH_CLK_ENABLE();
 8000f62:	2300      	movs	r3, #0
 8000f64:	60fb      	str	r3, [r7, #12]
 8000f66:	4b26      	ldr	r3, [pc, #152]	; (8001000 <MX_GPIO_Init+0xd0>)
 8000f68:	6b1b      	ldr	r3, [r3, #48]	; 0x30
 8000f6a:	4a25      	ldr	r2, [pc, #148]	; (8001000 <MX_GPIO_Init+0xd0>)
 8000f6c:	f043 0380 	orr.w	r3, r3, #128	; 0x80
 8000f70:	6313      	str	r3, [r2, #48]	; 0x30
 8000f72:	4b23      	ldr	r3, [pc, #140]	; (8001000 <MX_GPIO_Init+0xd0>)
 8000f74:	6b1b      	ldr	r3, [r3, #48]	; 0x30
 8000f76:	f003 0380 	and.w	r3, r3, #128	; 0x80
 8000f7a:	60fb      	str	r3, [r7, #12]
 8000f7c:	68fb      	ldr	r3, [r7, #12]
  __HAL_RCC_GPIOA_CLK_ENABLE();
 8000f7e:	2300      	movs	r3, #0
 8000f80:	60bb      	str	r3, [r7, #8]
 8000f82:	4b1f      	ldr	r3, [pc, #124]	; (8001000 <MX_GPIO_Init+0xd0>)
 8000f84:	6b1b      	ldr	r3, [r3, #48]	; 0x30
 8000f86:	4a1e      	ldr	r2, [pc, #120]	; (8001000 <MX_GPIO_Init+0xd0>)
 8000f88:	f043 0301 	orr.w	r3, r3, #1
 8000f8c:	6313      	str	r3, [r2, #48]	; 0x30
 8000f8e:	4b1c      	ldr	r3, [pc, #112]	; (8001000 <MX_GPIO_Init+0xd0>)
 8000f90:	6b1b      	ldr	r3, [r3, #48]	; 0x30
 8000f92:	f003 0301 	and.w	r3, r3, #1
 8000f96:	60bb      	str	r3, [r7, #8]
 8000f98:	68bb      	ldr	r3, [r7, #8]
  __HAL_RCC_GPIOB_CLK_ENABLE();
 8000f9a:	2300      	movs	r3, #0
 8000f9c:	607b      	str	r3, [r7, #4]
 8000f9e:	4b18      	ldr	r3, [pc, #96]	; (8001000 <MX_GPIO_Init+0xd0>)
 8000fa0:	6b1b      	ldr	r3, [r3, #48]	; 0x30
 8000fa2:	4a17      	ldr	r2, [pc, #92]	; (8001000 <MX_GPIO_Init+0xd0>)
 8000fa4:	f043 0302 	orr.w	r3, r3, #2
 8000fa8:	6313      	str	r3, [r2, #48]	; 0x30
 8000faa:	4b15      	ldr	r3, [pc, #84]	; (8001000 <MX_GPIO_Init+0xd0>)
 8000fac:	6b1b      	ldr	r3, [r3, #48]	; 0x30
 8000fae:	f003 0302 	and.w	r3, r3, #2
 8000fb2:	607b      	str	r3, [r7, #4]
 8000fb4:	687b      	ldr	r3, [r7, #4]

  /*Configure GPIO pin Output Level */
  HAL_GPIO_WritePin(GPIOA, LD2_Pin|LD3_Pin|LD4_Pin, GPIO_PIN_RESET);
 8000fb6:	2200      	movs	r2, #0
 8000fb8:	21e0      	movs	r1, #224	; 0xe0
 8000fba:	4812      	ldr	r0, [pc, #72]	; (8001004 <MX_GPIO_Init+0xd4>)
 8000fbc:	f002 fade 	bl	800357c <HAL_GPIO_WritePin>

  /*Configure GPIO pin : PtPin */
  GPIO_InitStruct.Pin = B1_Pin;
 8000fc0:	f44f 5300 	mov.w	r3, #8192	; 0x2000
 8000fc4:	617b      	str	r3, [r7, #20]
  GPIO_InitStruct.Mode = GPIO_MODE_IT_FALLING;
 8000fc6:	4b10      	ldr	r3, [pc, #64]	; (8001008 <MX_GPIO_Init+0xd8>)
 8000fc8:	61bb      	str	r3, [r7, #24]
  GPIO_InitStruct.Pull = GPIO_NOPULL;
 8000fca:	2300      	movs	r3, #0
 8000fcc:	61fb      	str	r3, [r7, #28]
  HAL_GPIO_Init(B1_GPIO_Port, &GPIO_InitStruct);
 8000fce:	f107 0314 	add.w	r3, r7, #20
 8000fd2:	4619      	mov	r1, r3
 8000fd4:	480d      	ldr	r0, [pc, #52]	; (800100c <MX_GPIO_Init+0xdc>)
 8000fd6:	f002 f94f 	bl	8003278 <HAL_GPIO_Init>

  /*Configure GPIO pins : PAPin PAPin PAPin */
  GPIO_InitStruct.Pin = LD2_Pin|LD3_Pin|LD4_Pin;
 8000fda:	23e0      	movs	r3, #224	; 0xe0
 8000fdc:	617b      	str	r3, [r7, #20]
  GPIO_InitStruct.Mode = GPIO_MODE_OUTPUT_PP;
 8000fde:	2301      	movs	r3, #1
 8000fe0:	61bb      	str	r3, [r7, #24]
  GPIO_InitStruct.Pull = GPIO_NOPULL;
 8000fe2:	2300      	movs	r3, #0
 8000fe4:	61fb      	str	r3, [r7, #28]
  GPIO_InitStruct.Speed = GPIO_SPEED_FREQ_LOW;
 8000fe6:	2300      	movs	r3, #0
 8000fe8:	623b      	str	r3, [r7, #32]
  HAL_GPIO_Init(GPIOA, &GPIO_InitStruct);
 8000fea:	f107 0314 	add.w	r3, r7, #20
 8000fee:	4619      	mov	r1, r3
 8000ff0:	4804      	ldr	r0, [pc, #16]	; (8001004 <MX_GPIO_Init+0xd4>)
 8000ff2:	f002 f941 	bl	8003278 <HAL_GPIO_Init>

}
 8000ff6:	bf00      	nop
 8000ff8:	3728      	adds	r7, #40	; 0x28
 8000ffa:	46bd      	mov	sp, r7
 8000ffc:	bd80      	pop	{r7, pc}
 8000ffe:	bf00      	nop
 8001000:	40023800 	.word	0x40023800
 8001004:	40020000 	.word	0x40020000
 8001008:	10210000 	.word	0x10210000
 800100c:	40020800 	.word	0x40020800

08001010 <main>:
/**
  * @brief  The application entry point.
  * @retval int
  */
int main(void)
{
 8001010:	b580      	push	{r7, lr}
 8001012:	af00      	add	r7, sp, #0
  /* USER CODE END 1 */

  /* MCU Configuration--------------------------------------------------------*/

  /* Reset of all peripherals, Initializes the Flash interface and the Systick. */
  HAL_Init();
 8001014:	f001 fe64 	bl	8002ce0 <HAL_Init>
  /* USER CODE BEGIN Init */

  /* USER CODE END Init */

  /* Configure the system clock */
  SystemClock_Config();
 8001018:	f000 f80c 	bl	8001034 <SystemClock_Config>
  /* USER CODE BEGIN SysInit */

  /* USER CODE END SysInit */

  /* Initialize all configured peripherals */
  MX_GPIO_Init();
 800101c:	f7ff ff88 	bl	8000f30 <MX_GPIO_Init>
  MX_USART2_UART_Init();
 8001020:	f001 fdc2 	bl	8002ba8 <MX_USART2_UART_Init>
  /* USER CODE BEGIN 2 */

  /* USER CODE END 2 */

  /* Init scheduler */
  osKernelInitialize();  /* Call init function for freertos objects (in freertos.c) */
 8001024:	f003 fe5e 	bl	8004ce4 <osKernelInitialize>
  MX_FREERTOS_Init();
 8001028:	f7ff fef8 	bl	8000e1c <MX_FREERTOS_Init>
  /* Start scheduler */
  osKernelStart();
 800102c:	f003 fe8e 	bl	8004d4c <osKernelStart>

  /* We should never get here as control is now taken by the scheduler */
  /* Infinite loop */
  /* USER CODE BEGIN WHILE */
  while (1)
 8001030:	e7fe      	b.n	8001030 <main+0x20>
	...

08001034 <SystemClock_Config>:
/**
  * @brief System Clock Configuration
  * @retval None
  */
void SystemClock_Config(void)
{
 8001034:	b580      	push	{r7, lr}
 8001036:	b094      	sub	sp, #80	; 0x50
 8001038:	af00      	add	r7, sp, #0
  RCC_OscInitTypeDef RCC_OscInitStruct = {0};
 800103a:	f107 0320 	add.w	r3, r7, #32
 800103e:	2230      	movs	r2, #48	; 0x30
 8001040:	2100      	movs	r1, #0
 8001042:	4618      	mov	r0, r3
 8001044:	f006 fbf1 	bl	800782a <memset>
  RCC_ClkInitTypeDef RCC_ClkInitStruct = {0};
 8001048:	f107 030c 	add.w	r3, r7, #12
 800104c:	2200      	movs	r2, #0
 800104e:	601a      	str	r2, [r3, #0]
 8001050:	605a      	str	r2, [r3, #4]
 8001052:	609a      	str	r2, [r3, #8]
 8001054:	60da      	str	r2, [r3, #12]
 8001056:	611a      	str	r2, [r3, #16]

  /** Configure the main internal regulator output voltage
  */
  __HAL_RCC_PWR_CLK_ENABLE();
 8001058:	2300      	movs	r3, #0
 800105a:	60bb      	str	r3, [r7, #8]
 800105c:	4b28      	ldr	r3, [pc, #160]	; (8001100 <SystemClock_Config+0xcc>)
 800105e:	6c1b      	ldr	r3, [r3, #64]	; 0x40
 8001060:	4a27      	ldr	r2, [pc, #156]	; (8001100 <SystemClock_Config+0xcc>)
 8001062:	f043 5380 	orr.w	r3, r3, #268435456	; 0x10000000
 8001066:	6413      	str	r3, [r2, #64]	; 0x40
 8001068:	4b25      	ldr	r3, [pc, #148]	; (8001100 <SystemClock_Config+0xcc>)
 800106a:	6c1b      	ldr	r3, [r3, #64]	; 0x40
 800106c:	f003 5380 	and.w	r3, r3, #268435456	; 0x10000000
 8001070:	60bb      	str	r3, [r7, #8]
 8001072:	68bb      	ldr	r3, [r7, #8]
  __HAL_PWR_VOLTAGESCALING_CONFIG(PWR_REGULATOR_VOLTAGE_SCALE1);
 8001074:	2300      	movs	r3, #0
 8001076:	607b      	str	r3, [r7, #4]
 8001078:	4b22      	ldr	r3, [pc, #136]	; (8001104 <SystemClock_Config+0xd0>)
 800107a:	681b      	ldr	r3, [r3, #0]
 800107c:	4a21      	ldr	r2, [pc, #132]	; (8001104 <SystemClock_Config+0xd0>)
 800107e:	f443 4340 	orr.w	r3, r3, #49152	; 0xc000
 8001082:	6013      	str	r3, [r2, #0]
 8001084:	4b1f      	ldr	r3, [pc, #124]	; (8001104 <SystemClock_Config+0xd0>)
 8001086:	681b      	ldr	r3, [r3, #0]
 8001088:	f403 4340 	and.w	r3, r3, #49152	; 0xc000
 800108c:	607b      	str	r3, [r7, #4]
 800108e:	687b      	ldr	r3, [r7, #4]
  /** Initializes the RCC Oscillators according to the specified parameters
  * in the RCC_OscInitTypeDef structure.
  */
  RCC_OscInitStruct.OscillatorType = RCC_OSCILLATORTYPE_HSI;
 8001090:	2302      	movs	r3, #2
 8001092:	623b      	str	r3, [r7, #32]
  RCC_OscInitStruct.HSIState = RCC_HSI_ON;
 8001094:	2301      	movs	r3, #1
 8001096:	62fb      	str	r3, [r7, #44]	; 0x2c
  RCC_OscInitStruct.HSICalibrationValue = RCC_HSICALIBRATION_DEFAULT;
 8001098:	2310      	movs	r3, #16
 800109a:	633b      	str	r3, [r7, #48]	; 0x30
  RCC_OscInitStruct.PLL.PLLState = RCC_PLL_ON;
 800109c:	2302      	movs	r3, #2
 800109e:	63bb      	str	r3, [r7, #56]	; 0x38
  RCC_OscInitStruct.PLL.PLLSource = RCC_PLLSOURCE_HSI;
 80010a0:	2300      	movs	r3, #0
 80010a2:	63fb      	str	r3, [r7, #60]	; 0x3c
  RCC_OscInitStruct.PLL.PLLM = 16;
 80010a4:	2310      	movs	r3, #16
 80010a6:	643b      	str	r3, [r7, #64]	; 0x40
  RCC_OscInitStruct.PLL.PLLN = 336;
 80010a8:	f44f 73a8 	mov.w	r3, #336	; 0x150
 80010ac:	647b      	str	r3, [r7, #68]	; 0x44
  RCC_OscInitStruct.PLL.PLLP = RCC_PLLP_DIV4;
 80010ae:	2304      	movs	r3, #4
 80010b0:	64bb      	str	r3, [r7, #72]	; 0x48
  RCC_OscInitStruct.PLL.PLLQ = 4;
 80010b2:	2304      	movs	r3, #4
 80010b4:	64fb      	str	r3, [r7, #76]	; 0x4c
  if (HAL_RCC_OscConfig(&RCC_OscInitStruct) != HAL_OK)
 80010b6:	f107 0320 	add.w	r3, r7, #32
 80010ba:	4618      	mov	r0, r3
 80010bc:	f002 faac 	bl	8003618 <HAL_RCC_OscConfig>
 80010c0:	4603      	mov	r3, r0
 80010c2:	2b00      	cmp	r3, #0
 80010c4:	d001      	beq.n	80010ca <SystemClock_Config+0x96>
  {
    Error_Handler();
 80010c6:	f000 f831 	bl	800112c <Error_Handler>
  }
  /** Initializes the CPU, AHB and APB buses clocks
  */
  RCC_ClkInitStruct.ClockType = RCC_CLOCKTYPE_HCLK|RCC_CLOCKTYPE_SYSCLK
 80010ca:	230f      	movs	r3, #15
 80010cc:	60fb      	str	r3, [r7, #12]
                              |RCC_CLOCKTYPE_PCLK1|RCC_CLOCKTYPE_PCLK2;
  RCC_ClkInitStruct.SYSCLKSource = RCC_SYSCLKSOURCE_PLLCLK;
 80010ce:	2302      	movs	r3, #2
 80010d0:	613b      	str	r3, [r7, #16]
  RCC_ClkInitStruct.AHBCLKDivider = RCC_SYSCLK_DIV1;
 80010d2:	2300      	movs	r3, #0
 80010d4:	617b      	str	r3, [r7, #20]
  RCC_ClkInitStruct.APB1CLKDivider = RCC_HCLK_DIV2;
 80010d6:	f44f 5380 	mov.w	r3, #4096	; 0x1000
 80010da:	61bb      	str	r3, [r7, #24]
  RCC_ClkInitStruct.APB2CLKDivider = RCC_HCLK_DIV1;
 80010dc:	2300      	movs	r3, #0
 80010de:	61fb      	str	r3, [r7, #28]

  if (HAL_RCC_ClockConfig(&RCC_ClkInitStruct, FLASH_LATENCY_2) != HAL_OK)
 80010e0:	f107 030c 	add.w	r3, r7, #12
 80010e4:	2102      	movs	r1, #2
 80010e6:	4618      	mov	r0, r3
 80010e8:	f002 fd06 	bl	8003af8 <HAL_RCC_ClockConfig>
 80010ec:	4603      	mov	r3, r0
 80010ee:	2b00      	cmp	r3, #0
 80010f0:	d001      	beq.n	80010f6 <SystemClock_Config+0xc2>
  {
    Error_Handler();
 80010f2:	f000 f81b 	bl	800112c <Error_Handler>
  }
}
 80010f6:	bf00      	nop
 80010f8:	3750      	adds	r7, #80	; 0x50
 80010fa:	46bd      	mov	sp, r7
 80010fc:	bd80      	pop	{r7, pc}
 80010fe:	bf00      	nop
 8001100:	40023800 	.word	0x40023800
 8001104:	40007000 	.word	0x40007000

08001108 <HAL_TIM_PeriodElapsedCallback>:
  * a global variable "uwTick" used as application time base.
  * @param  htim : TIM handle
  * @retval None
  */
void HAL_TIM_PeriodElapsedCallback(TIM_HandleTypeDef *htim)
{
 8001108:	b580      	push	{r7, lr}
 800110a:	b082      	sub	sp, #8
 800110c:	af00      	add	r7, sp, #0
 800110e:	6078      	str	r0, [r7, #4]
  /* USER CODE BEGIN Callback 0 */

  /* USER CODE END Callback 0 */
  if (htim->Instance == TIM10) {
 8001110:	687b      	ldr	r3, [r7, #4]
 8001112:	681b      	ldr	r3, [r3, #0]
 8001114:	4a04      	ldr	r2, [pc, #16]	; (8001128 <HAL_TIM_PeriodElapsedCallback+0x20>)
 8001116:	4293      	cmp	r3, r2
 8001118:	d101      	bne.n	800111e <HAL_TIM_PeriodElapsedCallback+0x16>
    HAL_IncTick();
 800111a:	f001 fe03 	bl	8002d24 <HAL_IncTick>
  }
  /* USER CODE BEGIN Callback 1 */

  /* USER CODE END Callback 1 */
}
 800111e:	bf00      	nop
 8001120:	3708      	adds	r7, #8
 8001122:	46bd      	mov	sp, r7
 8001124:	bd80      	pop	{r7, pc}
 8001126:	bf00      	nop
 8001128:	40014400 	.word	0x40014400

0800112c <Error_Handler>:
/**
  * @brief  This function is executed in case of error occurrence.
  * @retval None
  */
void Error_Handler(void)
{
 800112c:	b480      	push	{r7}
 800112e:	af00      	add	r7, sp, #0
  \details Disables IRQ interrupts by setting the I-bit in the CPSR.
           Can only be executed in Privileged modes.
 */
__STATIC_FORCEINLINE void __disable_irq(void)
{
  __ASM volatile ("cpsid i" : : : "memory");
 8001130:	b672      	cpsid	i
  /* USER CODE BEGIN Error_Handler_Debug */
  /* User can add his own implementation to report the HAL error return state */
  __disable_irq();
  while (1)
 8001132:	e7fe      	b.n	8001132 <Error_Handler+0x6>

08001134 <_out_null>:
}


// internal null output
static inline void _out_null(char character, void* buffer, size_t idx, size_t maxlen)
{
 8001134:	b480      	push	{r7}
 8001136:	b085      	sub	sp, #20
 8001138:	af00      	add	r7, sp, #0
 800113a:	60b9      	str	r1, [r7, #8]
 800113c:	607a      	str	r2, [r7, #4]
 800113e:	603b      	str	r3, [r7, #0]
 8001140:	4603      	mov	r3, r0
 8001142:	73fb      	strb	r3, [r7, #15]
  (void)character; (void)buffer; (void)idx; (void)maxlen;
}
 8001144:	bf00      	nop
 8001146:	3714      	adds	r7, #20
 8001148:	46bd      	mov	sp, r7
 800114a:	f85d 7b04 	ldr.w	r7, [sp], #4
 800114e:	4770      	bx	lr

08001150 <_out_char>:


// internal _putchar wrapper
static inline void _out_char(char character, void* buffer, size_t idx, size_t maxlen)
{
 8001150:	b580      	push	{r7, lr}
 8001152:	b084      	sub	sp, #16
 8001154:	af00      	add	r7, sp, #0
 8001156:	60b9      	str	r1, [r7, #8]
 8001158:	607a      	str	r2, [r7, #4]
 800115a:	603b      	str	r3, [r7, #0]
 800115c:	4603      	mov	r3, r0
 800115e:	73fb      	strb	r3, [r7, #15]
  (void)buffer; (void)idx; (void)maxlen;
  if (character) {
 8001160:	7bfb      	ldrb	r3, [r7, #15]
 8001162:	2b00      	cmp	r3, #0
 8001164:	d003      	beq.n	800116e <_out_char+0x1e>
    _putchar(character);
 8001166:	7bfb      	ldrb	r3, [r7, #15]
 8001168:	4618      	mov	r0, r3
 800116a:	f7ff fecf 	bl	8000f0c <_putchar>
  }
}
 800116e:	bf00      	nop
 8001170:	3710      	adds	r7, #16
 8001172:	46bd      	mov	sp, r7
 8001174:	bd80      	pop	{r7, pc}

08001176 <_strnlen_s>:


// internal secure strlen
// \return The length of the string (excluding the terminating 0) limited by 'maxsize'
static inline unsigned int _strnlen_s(const char* str, size_t maxsize)
{
 8001176:	b480      	push	{r7}
 8001178:	b085      	sub	sp, #20
 800117a:	af00      	add	r7, sp, #0
 800117c:	6078      	str	r0, [r7, #4]
 800117e:	6039      	str	r1, [r7, #0]
  const char* s;
  for (s = str; *s && maxsize--; ++s);
 8001180:	687b      	ldr	r3, [r7, #4]
 8001182:	60fb      	str	r3, [r7, #12]
 8001184:	e002      	b.n	800118c <_strnlen_s+0x16>
 8001186:	68fb      	ldr	r3, [r7, #12]
 8001188:	3301      	adds	r3, #1
 800118a:	60fb      	str	r3, [r7, #12]
 800118c:	68fb      	ldr	r3, [r7, #12]
 800118e:	781b      	ldrb	r3, [r3, #0]
 8001190:	2b00      	cmp	r3, #0
 8001192:	d004      	beq.n	800119e <_strnlen_s+0x28>
 8001194:	683b      	ldr	r3, [r7, #0]
 8001196:	1e5a      	subs	r2, r3, #1
 8001198:	603a      	str	r2, [r7, #0]
 800119a:	2b00      	cmp	r3, #0
 800119c:	d1f3      	bne.n	8001186 <_strnlen_s+0x10>
  return (unsigned int)(s - str);
 800119e:	68fa      	ldr	r2, [r7, #12]
 80011a0:	687b      	ldr	r3, [r7, #4]
 80011a2:	1ad3      	subs	r3, r2, r3
}
 80011a4:	4618      	mov	r0, r3
 80011a6:	3714      	adds	r7, #20
 80011a8:	46bd      	mov	sp, r7
 80011aa:	f85d 7b04 	ldr.w	r7, [sp], #4
 80011ae:	4770      	bx	lr

080011b0 <_is_digit>:


// internal test if char is a digit (0-9)
// \return true if char is a digit
static inline bool _is_digit(char ch)
{
 80011b0:	b480      	push	{r7}
 80011b2:	b083      	sub	sp, #12
 80011b4:	af00      	add	r7, sp, #0
 80011b6:	4603      	mov	r3, r0
 80011b8:	71fb      	strb	r3, [r7, #7]
  return (ch >= '0') && (ch <= '9');
 80011ba:	79fb      	ldrb	r3, [r7, #7]
 80011bc:	2b2f      	cmp	r3, #47	; 0x2f
 80011be:	d904      	bls.n	80011ca <_is_digit+0x1a>
 80011c0:	79fb      	ldrb	r3, [r7, #7]
 80011c2:	2b39      	cmp	r3, #57	; 0x39
 80011c4:	d801      	bhi.n	80011ca <_is_digit+0x1a>
 80011c6:	2301      	movs	r3, #1
 80011c8:	e000      	b.n	80011cc <_is_digit+0x1c>
 80011ca:	2300      	movs	r3, #0
 80011cc:	f003 0301 	and.w	r3, r3, #1
 80011d0:	b2db      	uxtb	r3, r3
}
 80011d2:	4618      	mov	r0, r3
 80011d4:	370c      	adds	r7, #12
 80011d6:	46bd      	mov	sp, r7
 80011d8:	f85d 7b04 	ldr.w	r7, [sp], #4
 80011dc:	4770      	bx	lr

080011de <_atoi>:


// internal ASCII string to unsigned int conversion
static unsigned int _atoi(const char** str)
{
 80011de:	b580      	push	{r7, lr}
 80011e0:	b084      	sub	sp, #16
 80011e2:	af00      	add	r7, sp, #0
 80011e4:	6078      	str	r0, [r7, #4]
  unsigned int i = 0U;
 80011e6:	2300      	movs	r3, #0
 80011e8:	60fb      	str	r3, [r7, #12]
  while (_is_digit(**str)) {
 80011ea:	e00e      	b.n	800120a <_atoi+0x2c>
    i = i * 10U + (unsigned int)(*((*str)++) - '0');
 80011ec:	68fa      	ldr	r2, [r7, #12]
 80011ee:	4613      	mov	r3, r2
 80011f0:	009b      	lsls	r3, r3, #2
 80011f2:	4413      	add	r3, r2
 80011f4:	005b      	lsls	r3, r3, #1
 80011f6:	4618      	mov	r0, r3
 80011f8:	687b      	ldr	r3, [r7, #4]
 80011fa:	681b      	ldr	r3, [r3, #0]
 80011fc:	1c59      	adds	r1, r3, #1
 80011fe:	687a      	ldr	r2, [r7, #4]
 8001200:	6011      	str	r1, [r2, #0]
 8001202:	781b      	ldrb	r3, [r3, #0]
 8001204:	4403      	add	r3, r0
 8001206:	3b30      	subs	r3, #48	; 0x30
 8001208:	60fb      	str	r3, [r7, #12]
  while (_is_digit(**str)) {
 800120a:	687b      	ldr	r3, [r7, #4]
 800120c:	681b      	ldr	r3, [r3, #0]
 800120e:	781b      	ldrb	r3, [r3, #0]
 8001210:	4618      	mov	r0, r3
 8001212:	f7ff ffcd 	bl	80011b0 <_is_digit>
 8001216:	4603      	mov	r3, r0
 8001218:	2b00      	cmp	r3, #0
 800121a:	d1e7      	bne.n	80011ec <_atoi+0xe>
  }
  return i;
 800121c:	68fb      	ldr	r3, [r7, #12]
}
 800121e:	4618      	mov	r0, r3
 8001220:	3710      	adds	r7, #16
 8001222:	46bd      	mov	sp, r7
 8001224:	bd80      	pop	{r7, pc}

08001226 <_out_rev>:


// output the specified string in reverse, taking care of any zero-padding
static size_t _out_rev(out_fct_type out, char* buffer, size_t idx, size_t maxlen, const char* buf, size_t len, unsigned int width, unsigned int flags)
{
 8001226:	b590      	push	{r4, r7, lr}
 8001228:	b087      	sub	sp, #28
 800122a:	af00      	add	r7, sp, #0
 800122c:	60f8      	str	r0, [r7, #12]
 800122e:	60b9      	str	r1, [r7, #8]
 8001230:	607a      	str	r2, [r7, #4]
 8001232:	603b      	str	r3, [r7, #0]
  const size_t start_idx = idx;
 8001234:	687b      	ldr	r3, [r7, #4]
 8001236:	613b      	str	r3, [r7, #16]

  // pad spaces up to given width
  if (!(flags & FLAGS_LEFT) && !(flags & FLAGS_ZEROPAD)) {
 8001238:	6b7b      	ldr	r3, [r7, #52]	; 0x34
 800123a:	f003 0302 	and.w	r3, r3, #2
 800123e:	2b00      	cmp	r3, #0
 8001240:	d125      	bne.n	800128e <_out_rev+0x68>
 8001242:	6b7b      	ldr	r3, [r7, #52]	; 0x34
 8001244:	f003 0301 	and.w	r3, r3, #1
 8001248:	2b00      	cmp	r3, #0
 800124a:	d120      	bne.n	800128e <_out_rev+0x68>
    for (size_t i = len; i < width; i++) {
 800124c:	6afb      	ldr	r3, [r7, #44]	; 0x2c
 800124e:	617b      	str	r3, [r7, #20]
 8001250:	e00a      	b.n	8001268 <_out_rev+0x42>
      out(' ', buffer, idx++, maxlen);
 8001252:	687a      	ldr	r2, [r7, #4]
 8001254:	1c53      	adds	r3, r2, #1
 8001256:	607b      	str	r3, [r7, #4]
 8001258:	68fc      	ldr	r4, [r7, #12]
 800125a:	683b      	ldr	r3, [r7, #0]
 800125c:	68b9      	ldr	r1, [r7, #8]
 800125e:	2020      	movs	r0, #32
 8001260:	47a0      	blx	r4
    for (size_t i = len; i < width; i++) {
 8001262:	697b      	ldr	r3, [r7, #20]
 8001264:	3301      	adds	r3, #1
 8001266:	617b      	str	r3, [r7, #20]
 8001268:	697a      	ldr	r2, [r7, #20]
 800126a:	6b3b      	ldr	r3, [r7, #48]	; 0x30
 800126c:	429a      	cmp	r2, r3
 800126e:	d3f0      	bcc.n	8001252 <_out_rev+0x2c>
    }
  }

  // reverse string
  while (len) {
 8001270:	e00d      	b.n	800128e <_out_rev+0x68>
    out(buf[--len], buffer, idx++, maxlen);
 8001272:	6afb      	ldr	r3, [r7, #44]	; 0x2c
 8001274:	3b01      	subs	r3, #1
 8001276:	62fb      	str	r3, [r7, #44]	; 0x2c
 8001278:	6aba      	ldr	r2, [r7, #40]	; 0x28
 800127a:	6afb      	ldr	r3, [r7, #44]	; 0x2c
 800127c:	4413      	add	r3, r2
 800127e:	7818      	ldrb	r0, [r3, #0]
 8001280:	687a      	ldr	r2, [r7, #4]
 8001282:	1c53      	adds	r3, r2, #1
 8001284:	607b      	str	r3, [r7, #4]
 8001286:	68fc      	ldr	r4, [r7, #12]
 8001288:	683b      	ldr	r3, [r7, #0]
 800128a:	68b9      	ldr	r1, [r7, #8]
 800128c:	47a0      	blx	r4
  while (len) {
 800128e:	6afb      	ldr	r3, [r7, #44]	; 0x2c
 8001290:	2b00      	cmp	r3, #0
 8001292:	d1ee      	bne.n	8001272 <_out_rev+0x4c>
  }

  // append pad spaces up to given width
  if (flags & FLAGS_LEFT) {
 8001294:	6b7b      	ldr	r3, [r7, #52]	; 0x34
 8001296:	f003 0302 	and.w	r3, r3, #2
 800129a:	2b00      	cmp	r3, #0
 800129c:	d00e      	beq.n	80012bc <_out_rev+0x96>
    while (idx - start_idx < width) {
 800129e:	e007      	b.n	80012b0 <_out_rev+0x8a>
      out(' ', buffer, idx++, maxlen);
 80012a0:	687a      	ldr	r2, [r7, #4]
 80012a2:	1c53      	adds	r3, r2, #1
 80012a4:	607b      	str	r3, [r7, #4]
 80012a6:	68fc      	ldr	r4, [r7, #12]
 80012a8:	683b      	ldr	r3, [r7, #0]
 80012aa:	68b9      	ldr	r1, [r7, #8]
 80012ac:	2020      	movs	r0, #32
 80012ae:	47a0      	blx	r4
    while (idx - start_idx < width) {
 80012b0:	687a      	ldr	r2, [r7, #4]
 80012b2:	693b      	ldr	r3, [r7, #16]
 80012b4:	1ad3      	subs	r3, r2, r3
 80012b6:	6b3a      	ldr	r2, [r7, #48]	; 0x30
 80012b8:	429a      	cmp	r2, r3
 80012ba:	d8f1      	bhi.n	80012a0 <_out_rev+0x7a>
    }
  }

  return idx;
 80012bc:	687b      	ldr	r3, [r7, #4]
}
 80012be:	4618      	mov	r0, r3
 80012c0:	371c      	adds	r7, #28
 80012c2:	46bd      	mov	sp, r7
 80012c4:	bd90      	pop	{r4, r7, pc}

080012c6 <_ntoa_format>:


// internal itoa format
static size_t _ntoa_format(out_fct_type out, char* buffer, size_t idx, size_t maxlen, char* buf, size_t len, bool negative, unsigned int base, unsigned int prec, unsigned int width, unsigned int flags)
{
 80012c6:	b580      	push	{r7, lr}
 80012c8:	b088      	sub	sp, #32
 80012ca:	af04      	add	r7, sp, #16
 80012cc:	60f8      	str	r0, [r7, #12]
 80012ce:	60b9      	str	r1, [r7, #8]
 80012d0:	607a      	str	r2, [r7, #4]
 80012d2:	603b      	str	r3, [r7, #0]
  // pad leading zeros
  if (!(flags & FLAGS_LEFT)) {
 80012d4:	6b3b      	ldr	r3, [r7, #48]	; 0x30
 80012d6:	f003 0302 	and.w	r3, r3, #2
 80012da:	2b00      	cmp	r3, #0
 80012dc:	d136      	bne.n	800134c <_ntoa_format+0x86>
    if (width && (flags & FLAGS_ZEROPAD) && (negative || (flags & (FLAGS_PLUS | FLAGS_SPACE)))) {
 80012de:	6afb      	ldr	r3, [r7, #44]	; 0x2c
 80012e0:	2b00      	cmp	r3, #0
 80012e2:	d018      	beq.n	8001316 <_ntoa_format+0x50>
 80012e4:	6b3b      	ldr	r3, [r7, #48]	; 0x30
 80012e6:	f003 0301 	and.w	r3, r3, #1
 80012ea:	2b00      	cmp	r3, #0
 80012ec:	d013      	beq.n	8001316 <_ntoa_format+0x50>
 80012ee:	f897 3020 	ldrb.w	r3, [r7, #32]
 80012f2:	2b00      	cmp	r3, #0
 80012f4:	d104      	bne.n	8001300 <_ntoa_format+0x3a>
 80012f6:	6b3b      	ldr	r3, [r7, #48]	; 0x30
 80012f8:	f003 030c 	and.w	r3, r3, #12
 80012fc:	2b00      	cmp	r3, #0
 80012fe:	d00a      	beq.n	8001316 <_ntoa_format+0x50>
      width--;
 8001300:	6afb      	ldr	r3, [r7, #44]	; 0x2c
 8001302:	3b01      	subs	r3, #1
 8001304:	62fb      	str	r3, [r7, #44]	; 0x2c
    }
    while ((len < prec) && (len < PRINTF_NTOA_BUFFER_SIZE)) {
 8001306:	e006      	b.n	8001316 <_ntoa_format+0x50>
      buf[len++] = '0';
 8001308:	69fb      	ldr	r3, [r7, #28]
 800130a:	1c5a      	adds	r2, r3, #1
 800130c:	61fa      	str	r2, [r7, #28]
 800130e:	69ba      	ldr	r2, [r7, #24]
 8001310:	4413      	add	r3, r2
 8001312:	2230      	movs	r2, #48	; 0x30
 8001314:	701a      	strb	r2, [r3, #0]
    while ((len < prec) && (len < PRINTF_NTOA_BUFFER_SIZE)) {
 8001316:	69fa      	ldr	r2, [r7, #28]
 8001318:	6abb      	ldr	r3, [r7, #40]	; 0x28
 800131a:	429a      	cmp	r2, r3
 800131c:	d20a      	bcs.n	8001334 <_ntoa_format+0x6e>
 800131e:	69fb      	ldr	r3, [r7, #28]
 8001320:	2b1f      	cmp	r3, #31
 8001322:	d9f1      	bls.n	8001308 <_ntoa_format+0x42>
    }
    while ((flags & FLAGS_ZEROPAD) && (len < width) && (len < PRINTF_NTOA_BUFFER_SIZE)) {
 8001324:	e006      	b.n	8001334 <_ntoa_format+0x6e>
      buf[len++] = '0';
 8001326:	69fb      	ldr	r3, [r7, #28]
 8001328:	1c5a      	adds	r2, r3, #1
 800132a:	61fa      	str	r2, [r7, #28]
 800132c:	69ba      	ldr	r2, [r7, #24]
 800132e:	4413      	add	r3, r2
 8001330:	2230      	movs	r2, #48	; 0x30
 8001332:	701a      	strb	r2, [r3, #0]
    while ((flags & FLAGS_ZEROPAD) && (len < width) && (len < PRINTF_NTOA_BUFFER_SIZE)) {
 8001334:	6b3b      	ldr	r3, [r7, #48]	; 0x30
 8001336:	f003 0301 	and.w	r3, r3, #1
 800133a:	2b00      	cmp	r3, #0
 800133c:	d006      	beq.n	800134c <_ntoa_format+0x86>
 800133e:	69fa      	ldr	r2, [r7, #28]
 8001340:	6afb      	ldr	r3, [r7, #44]	; 0x2c
 8001342:	429a      	cmp	r2, r3
 8001344:	d202      	bcs.n	800134c <_ntoa_format+0x86>
 8001346:	69fb      	ldr	r3, [r7, #28]
 8001348:	2b1f      	cmp	r3, #31
 800134a:	d9ec      	bls.n	8001326 <_ntoa_format+0x60>
    }
  }

  // handle hash
  if (flags & FLAGS_HASH) {
 800134c:	6b3b      	ldr	r3, [r7, #48]	; 0x30
 800134e:	f003 0310 	and.w	r3, r3, #16
 8001352:	2b00      	cmp	r3, #0
 8001354:	d058      	beq.n	8001408 <_ntoa_format+0x142>
    if (!(flags & FLAGS_PRECISION) && len && ((len == prec) || (len == width))) {
 8001356:	6b3b      	ldr	r3, [r7, #48]	; 0x30
 8001358:	f403 6380 	and.w	r3, r3, #1024	; 0x400
 800135c:	2b00      	cmp	r3, #0
 800135e:	d116      	bne.n	800138e <_ntoa_format+0xc8>
 8001360:	69fb      	ldr	r3, [r7, #28]
 8001362:	2b00      	cmp	r3, #0
 8001364:	d013      	beq.n	800138e <_ntoa_format+0xc8>
 8001366:	69fa      	ldr	r2, [r7, #28]
 8001368:	6abb      	ldr	r3, [r7, #40]	; 0x28
 800136a:	429a      	cmp	r2, r3
 800136c:	d003      	beq.n	8001376 <_ntoa_format+0xb0>
 800136e:	69fa      	ldr	r2, [r7, #28]
 8001370:	6afb      	ldr	r3, [r7, #44]	; 0x2c
 8001372:	429a      	cmp	r2, r3
 8001374:	d10b      	bne.n	800138e <_ntoa_format+0xc8>
      len--;
 8001376:	69fb      	ldr	r3, [r7, #28]
 8001378:	3b01      	subs	r3, #1
 800137a:	61fb      	str	r3, [r7, #28]
      if (len && (base == 16U)) {
 800137c:	69fb      	ldr	r3, [r7, #28]
 800137e:	2b00      	cmp	r3, #0
 8001380:	d005      	beq.n	800138e <_ntoa_format+0xc8>
 8001382:	6a7b      	ldr	r3, [r7, #36]	; 0x24
 8001384:	2b10      	cmp	r3, #16
 8001386:	d102      	bne.n	800138e <_ntoa_format+0xc8>
        len--;
 8001388:	69fb      	ldr	r3, [r7, #28]
 800138a:	3b01      	subs	r3, #1
 800138c:	61fb      	str	r3, [r7, #28]
      }
    }
    if ((base == 16U) && !(flags & FLAGS_UPPERCASE) && (len < PRINTF_NTOA_BUFFER_SIZE)) {
 800138e:	6a7b      	ldr	r3, [r7, #36]	; 0x24
 8001390:	2b10      	cmp	r3, #16
 8001392:	d10f      	bne.n	80013b4 <_ntoa_format+0xee>
 8001394:	6b3b      	ldr	r3, [r7, #48]	; 0x30
 8001396:	f003 0320 	and.w	r3, r3, #32
 800139a:	2b00      	cmp	r3, #0
 800139c:	d10a      	bne.n	80013b4 <_ntoa_format+0xee>
 800139e:	69fb      	ldr	r3, [r7, #28]
 80013a0:	2b1f      	cmp	r3, #31
 80013a2:	d807      	bhi.n	80013b4 <_ntoa_format+0xee>
      buf[len++] = 'x';
 80013a4:	69fb      	ldr	r3, [r7, #28]
 80013a6:	1c5a      	adds	r2, r3, #1
 80013a8:	61fa      	str	r2, [r7, #28]
 80013aa:	69ba      	ldr	r2, [r7, #24]
 80013ac:	4413      	add	r3, r2
 80013ae:	2278      	movs	r2, #120	; 0x78
 80013b0:	701a      	strb	r2, [r3, #0]
 80013b2:	e01f      	b.n	80013f4 <_ntoa_format+0x12e>
    }
    else if ((base == 16U) && (flags & FLAGS_UPPERCASE) && (len < PRINTF_NTOA_BUFFER_SIZE)) {
 80013b4:	6a7b      	ldr	r3, [r7, #36]	; 0x24
 80013b6:	2b10      	cmp	r3, #16
 80013b8:	d10f      	bne.n	80013da <_ntoa_format+0x114>
 80013ba:	6b3b      	ldr	r3, [r7, #48]	; 0x30
 80013bc:	f003 0320 	and.w	r3, r3, #32
 80013c0:	2b00      	cmp	r3, #0
 80013c2:	d00a      	beq.n	80013da <_ntoa_format+0x114>
 80013c4:	69fb      	ldr	r3, [r7, #28]
 80013c6:	2b1f      	cmp	r3, #31
 80013c8:	d807      	bhi.n	80013da <_ntoa_format+0x114>
      buf[len++] = 'X';
 80013ca:	69fb      	ldr	r3, [r7, #28]
 80013cc:	1c5a      	adds	r2, r3, #1
 80013ce:	61fa      	str	r2, [r7, #28]
 80013d0:	69ba      	ldr	r2, [r7, #24]
 80013d2:	4413      	add	r3, r2
 80013d4:	2258      	movs	r2, #88	; 0x58
 80013d6:	701a      	strb	r2, [r3, #0]
 80013d8:	e00c      	b.n	80013f4 <_ntoa_format+0x12e>
    }
    else if ((base == 2U) && (len < PRINTF_NTOA_BUFFER_SIZE)) {
 80013da:	6a7b      	ldr	r3, [r7, #36]	; 0x24
 80013dc:	2b02      	cmp	r3, #2
 80013de:	d109      	bne.n	80013f4 <_ntoa_format+0x12e>
 80013e0:	69fb      	ldr	r3, [r7, #28]
 80013e2:	2b1f      	cmp	r3, #31
 80013e4:	d806      	bhi.n	80013f4 <_ntoa_format+0x12e>
      buf[len++] = 'b';
 80013e6:	69fb      	ldr	r3, [r7, #28]
 80013e8:	1c5a      	adds	r2, r3, #1
 80013ea:	61fa      	str	r2, [r7, #28]
 80013ec:	69ba      	ldr	r2, [r7, #24]
 80013ee:	4413      	add	r3, r2
 80013f0:	2262      	movs	r2, #98	; 0x62
 80013f2:	701a      	strb	r2, [r3, #0]
    }
    if (len < PRINTF_NTOA_BUFFER_SIZE) {
 80013f4:	69fb      	ldr	r3, [r7, #28]
 80013f6:	2b1f      	cmp	r3, #31
 80013f8:	d806      	bhi.n	8001408 <_ntoa_format+0x142>
      buf[len++] = '0';
 80013fa:	69fb      	ldr	r3, [r7, #28]
 80013fc:	1c5a      	adds	r2, r3, #1
 80013fe:	61fa      	str	r2, [r7, #28]
 8001400:	69ba      	ldr	r2, [r7, #24]
 8001402:	4413      	add	r3, r2
 8001404:	2230      	movs	r2, #48	; 0x30
 8001406:	701a      	strb	r2, [r3, #0]
    }
  }

  if (len < PRINTF_NTOA_BUFFER_SIZE) {
 8001408:	69fb      	ldr	r3, [r7, #28]
 800140a:	2b1f      	cmp	r3, #31
 800140c:	d824      	bhi.n	8001458 <_ntoa_format+0x192>
    if (negative) {
 800140e:	f897 3020 	ldrb.w	r3, [r7, #32]
 8001412:	2b00      	cmp	r3, #0
 8001414:	d007      	beq.n	8001426 <_ntoa_format+0x160>
      buf[len++] = '-';
 8001416:	69fb      	ldr	r3, [r7, #28]
 8001418:	1c5a      	adds	r2, r3, #1
 800141a:	61fa      	str	r2, [r7, #28]
 800141c:	69ba      	ldr	r2, [r7, #24]
 800141e:	4413      	add	r3, r2
 8001420:	222d      	movs	r2, #45	; 0x2d
 8001422:	701a      	strb	r2, [r3, #0]
 8001424:	e018      	b.n	8001458 <_ntoa_format+0x192>
    }
    else if (flags & FLAGS_PLUS) {
 8001426:	6b3b      	ldr	r3, [r7, #48]	; 0x30
 8001428:	f003 0304 	and.w	r3, r3, #4
 800142c:	2b00      	cmp	r3, #0
 800142e:	d007      	beq.n	8001440 <_ntoa_format+0x17a>
      buf[len++] = '+';  // ignore the space if the '+' exists
 8001430:	69fb      	ldr	r3, [r7, #28]
 8001432:	1c5a      	adds	r2, r3, #1
 8001434:	61fa      	str	r2, [r7, #28]
 8001436:	69ba      	ldr	r2, [r7, #24]
 8001438:	4413      	add	r3, r2
 800143a:	222b      	movs	r2, #43	; 0x2b
 800143c:	701a      	strb	r2, [r3, #0]
 800143e:	e00b      	b.n	8001458 <_ntoa_format+0x192>
    }
    else if (flags & FLAGS_SPACE) {
 8001440:	6b3b      	ldr	r3, [r7, #48]	; 0x30
 8001442:	f003 0308 	and.w	r3, r3, #8
 8001446:	2b00      	cmp	r3, #0
 8001448:	d006      	beq.n	8001458 <_ntoa_format+0x192>
      buf[len++] = ' ';
 800144a:	69fb      	ldr	r3, [r7, #28]
 800144c:	1c5a      	adds	r2, r3, #1
 800144e:	61fa      	str	r2, [r7, #28]
 8001450:	69ba      	ldr	r2, [r7, #24]
 8001452:	4413      	add	r3, r2
 8001454:	2220      	movs	r2, #32
 8001456:	701a      	strb	r2, [r3, #0]
    }
  }

  return _out_rev(out, buffer, idx, maxlen, buf, len, width, flags);
 8001458:	6b3b      	ldr	r3, [r7, #48]	; 0x30
 800145a:	9303      	str	r3, [sp, #12]
 800145c:	6afb      	ldr	r3, [r7, #44]	; 0x2c
 800145e:	9302      	str	r3, [sp, #8]
 8001460:	69fb      	ldr	r3, [r7, #28]
 8001462:	9301      	str	r3, [sp, #4]
 8001464:	69bb      	ldr	r3, [r7, #24]
 8001466:	9300      	str	r3, [sp, #0]
 8001468:	683b      	ldr	r3, [r7, #0]
 800146a:	687a      	ldr	r2, [r7, #4]
 800146c:	68b9      	ldr	r1, [r7, #8]
 800146e:	68f8      	ldr	r0, [r7, #12]
 8001470:	f7ff fed9 	bl	8001226 <_out_rev>
 8001474:	4603      	mov	r3, r0
}
 8001476:	4618      	mov	r0, r3
 8001478:	3710      	adds	r7, #16
 800147a:	46bd      	mov	sp, r7
 800147c:	bd80      	pop	{r7, pc}

0800147e <_ntoa_long>:


// internal itoa for 'long' type
static size_t _ntoa_long(out_fct_type out, char* buffer, size_t idx, size_t maxlen, unsigned long value, bool negative, unsigned long base, unsigned int prec, unsigned int width, unsigned int flags)
{
 800147e:	b580      	push	{r7, lr}
 8001480:	b096      	sub	sp, #88	; 0x58
 8001482:	af08      	add	r7, sp, #32
 8001484:	60f8      	str	r0, [r7, #12]
 8001486:	60b9      	str	r1, [r7, #8]
 8001488:	607a      	str	r2, [r7, #4]
 800148a:	603b      	str	r3, [r7, #0]
  char buf[PRINTF_NTOA_BUFFER_SIZE];
  size_t len = 0U;
 800148c:	2300      	movs	r3, #0
 800148e:	637b      	str	r3, [r7, #52]	; 0x34

  // no hash for 0 values
  if (!value) {
 8001490:	6c3b      	ldr	r3, [r7, #64]	; 0x40
 8001492:	2b00      	cmp	r3, #0
 8001494:	d103      	bne.n	800149e <_ntoa_long+0x20>
    flags &= ~FLAGS_HASH;
 8001496:	6d7b      	ldr	r3, [r7, #84]	; 0x54
 8001498:	f023 0310 	bic.w	r3, r3, #16
 800149c:	657b      	str	r3, [r7, #84]	; 0x54
  }

  // write if precision != 0 and value is != 0
  if (!(flags & FLAGS_PRECISION) || value) {
 800149e:	6d7b      	ldr	r3, [r7, #84]	; 0x54
 80014a0:	f403 6380 	and.w	r3, r3, #1024	; 0x400
 80014a4:	2b00      	cmp	r3, #0
 80014a6:	d002      	beq.n	80014ae <_ntoa_long+0x30>
 80014a8:	6c3b      	ldr	r3, [r7, #64]	; 0x40
 80014aa:	2b00      	cmp	r3, #0
 80014ac:	d033      	beq.n	8001516 <_ntoa_long+0x98>
    do {
      const char digit = (char)(value % base);
 80014ae:	6c3b      	ldr	r3, [r7, #64]	; 0x40
 80014b0:	6cba      	ldr	r2, [r7, #72]	; 0x48
 80014b2:	fbb3 f2f2 	udiv	r2, r3, r2
 80014b6:	6cb9      	ldr	r1, [r7, #72]	; 0x48
 80014b8:	fb01 f202 	mul.w	r2, r1, r2
 80014bc:	1a9b      	subs	r3, r3, r2
 80014be:	f887 3033 	strb.w	r3, [r7, #51]	; 0x33
      buf[len++] = digit < 10 ? '0' + digit : (flags & FLAGS_UPPERCASE ? 'A' : 'a') + digit - 10;
 80014c2:	f897 3033 	ldrb.w	r3, [r7, #51]	; 0x33
 80014c6:	2b09      	cmp	r3, #9
 80014c8:	d804      	bhi.n	80014d4 <_ntoa_long+0x56>
 80014ca:	f897 3033 	ldrb.w	r3, [r7, #51]	; 0x33
 80014ce:	3330      	adds	r3, #48	; 0x30
 80014d0:	b2da      	uxtb	r2, r3
 80014d2:	e00d      	b.n	80014f0 <_ntoa_long+0x72>
 80014d4:	6d7b      	ldr	r3, [r7, #84]	; 0x54
 80014d6:	f003 0320 	and.w	r3, r3, #32
 80014da:	2b00      	cmp	r3, #0
 80014dc:	d001      	beq.n	80014e2 <_ntoa_long+0x64>
 80014de:	2241      	movs	r2, #65	; 0x41
 80014e0:	e000      	b.n	80014e4 <_ntoa_long+0x66>
 80014e2:	2261      	movs	r2, #97	; 0x61
 80014e4:	f897 3033 	ldrb.w	r3, [r7, #51]	; 0x33
 80014e8:	4413      	add	r3, r2
 80014ea:	b2db      	uxtb	r3, r3
 80014ec:	3b0a      	subs	r3, #10
 80014ee:	b2da      	uxtb	r2, r3
 80014f0:	6b7b      	ldr	r3, [r7, #52]	; 0x34
 80014f2:	1c59      	adds	r1, r3, #1
 80014f4:	6379      	str	r1, [r7, #52]	; 0x34
 80014f6:	f107 0138 	add.w	r1, r7, #56	; 0x38
 80014fa:	440b      	add	r3, r1
 80014fc:	f803 2c28 	strb.w	r2, [r3, #-40]
      value /= base;
 8001500:	6c3a      	ldr	r2, [r7, #64]	; 0x40
 8001502:	6cbb      	ldr	r3, [r7, #72]	; 0x48
 8001504:	fbb2 f3f3 	udiv	r3, r2, r3
 8001508:	643b      	str	r3, [r7, #64]	; 0x40
    } while (value && (len < PRINTF_NTOA_BUFFER_SIZE));
 800150a:	6c3b      	ldr	r3, [r7, #64]	; 0x40
 800150c:	2b00      	cmp	r3, #0
 800150e:	d002      	beq.n	8001516 <_ntoa_long+0x98>
 8001510:	6b7b      	ldr	r3, [r7, #52]	; 0x34
 8001512:	2b1f      	cmp	r3, #31
 8001514:	d9cb      	bls.n	80014ae <_ntoa_long+0x30>
  }

  return _ntoa_format(out, buffer, idx, maxlen, buf, len, negative, (unsigned int)base, prec, width, flags);
 8001516:	6d7b      	ldr	r3, [r7, #84]	; 0x54
 8001518:	9306      	str	r3, [sp, #24]
 800151a:	6d3b      	ldr	r3, [r7, #80]	; 0x50
 800151c:	9305      	str	r3, [sp, #20]
 800151e:	6cfb      	ldr	r3, [r7, #76]	; 0x4c
 8001520:	9304      	str	r3, [sp, #16]
 8001522:	6cbb      	ldr	r3, [r7, #72]	; 0x48
 8001524:	9303      	str	r3, [sp, #12]
 8001526:	f897 3044 	ldrb.w	r3, [r7, #68]	; 0x44
 800152a:	9302      	str	r3, [sp, #8]
 800152c:	6b7b      	ldr	r3, [r7, #52]	; 0x34
 800152e:	9301      	str	r3, [sp, #4]
 8001530:	f107 0310 	add.w	r3, r7, #16
 8001534:	9300      	str	r3, [sp, #0]
 8001536:	683b      	ldr	r3, [r7, #0]
 8001538:	687a      	ldr	r2, [r7, #4]
 800153a:	68b9      	ldr	r1, [r7, #8]
 800153c:	68f8      	ldr	r0, [r7, #12]
 800153e:	f7ff fec2 	bl	80012c6 <_ntoa_format>
 8001542:	4603      	mov	r3, r0
}
 8001544:	4618      	mov	r0, r3
 8001546:	3738      	adds	r7, #56	; 0x38
 8001548:	46bd      	mov	sp, r7
 800154a:	bd80      	pop	{r7, pc}

0800154c <_ntoa_long_long>:


// internal itoa for 'long long' type
#if defined(PRINTF_SUPPORT_LONG_LONG)
static size_t _ntoa_long_long(out_fct_type out, char* buffer, size_t idx, size_t maxlen, unsigned long long value, bool negative, unsigned long long base, unsigned int prec, unsigned int width, unsigned int flags)
{
 800154c:	b590      	push	{r4, r7, lr}
 800154e:	b097      	sub	sp, #92	; 0x5c
 8001550:	af08      	add	r7, sp, #32
 8001552:	60f8      	str	r0, [r7, #12]
 8001554:	60b9      	str	r1, [r7, #8]
 8001556:	607a      	str	r2, [r7, #4]
 8001558:	603b      	str	r3, [r7, #0]
  char buf[PRINTF_NTOA_BUFFER_SIZE];
  size_t len = 0U;
 800155a:	2300      	movs	r3, #0
 800155c:	637b      	str	r3, [r7, #52]	; 0x34

  // no hash for 0 values
  if (!value) {
 800155e:	e9d7 3412 	ldrd	r3, r4, [r7, #72]	; 0x48
 8001562:	4323      	orrs	r3, r4
 8001564:	d103      	bne.n	800156e <_ntoa_long_long+0x22>
    flags &= ~FLAGS_HASH;
 8001566:	6ebb      	ldr	r3, [r7, #104]	; 0x68
 8001568:	f023 0310 	bic.w	r3, r3, #16
 800156c:	66bb      	str	r3, [r7, #104]	; 0x68
  }

  // write if precision != 0 and value is != 0
  if (!(flags & FLAGS_PRECISION) || value) {
 800156e:	6ebb      	ldr	r3, [r7, #104]	; 0x68
 8001570:	f403 6380 	and.w	r3, r3, #1024	; 0x400
 8001574:	2b00      	cmp	r3, #0
 8001576:	d003      	beq.n	8001580 <_ntoa_long_long+0x34>
 8001578:	e9d7 3412 	ldrd	r3, r4, [r7, #72]	; 0x48
 800157c:	4323      	orrs	r3, r4
 800157e:	d039      	beq.n	80015f4 <_ntoa_long_long+0xa8>
    do {
      const char digit = (char)(value % base);
 8001580:	e9d7 0112 	ldrd	r0, r1, [r7, #72]	; 0x48
 8001584:	e9d7 2316 	ldrd	r2, r3, [r7, #88]	; 0x58
 8001588:	f7ff fac8 	bl	8000b1c <__aeabi_uldivmod>
 800158c:	461c      	mov	r4, r3
 800158e:	4613      	mov	r3, r2
 8001590:	f887 3033 	strb.w	r3, [r7, #51]	; 0x33
      buf[len++] = digit < 10 ? '0' + digit : (flags & FLAGS_UPPERCASE ? 'A' : 'a') + digit - 10;
 8001594:	f897 3033 	ldrb.w	r3, [r7, #51]	; 0x33
 8001598:	2b09      	cmp	r3, #9
 800159a:	d804      	bhi.n	80015a6 <_ntoa_long_long+0x5a>
 800159c:	f897 3033 	ldrb.w	r3, [r7, #51]	; 0x33
 80015a0:	3330      	adds	r3, #48	; 0x30
 80015a2:	b2da      	uxtb	r2, r3
 80015a4:	e00d      	b.n	80015c2 <_ntoa_long_long+0x76>
 80015a6:	6ebb      	ldr	r3, [r7, #104]	; 0x68
 80015a8:	f003 0320 	and.w	r3, r3, #32
 80015ac:	2b00      	cmp	r3, #0
 80015ae:	d001      	beq.n	80015b4 <_ntoa_long_long+0x68>
 80015b0:	2241      	movs	r2, #65	; 0x41
 80015b2:	e000      	b.n	80015b6 <_ntoa_long_long+0x6a>
 80015b4:	2261      	movs	r2, #97	; 0x61
 80015b6:	f897 3033 	ldrb.w	r3, [r7, #51]	; 0x33
 80015ba:	4413      	add	r3, r2
 80015bc:	b2db      	uxtb	r3, r3
 80015be:	3b0a      	subs	r3, #10
 80015c0:	b2da      	uxtb	r2, r3
 80015c2:	6b7b      	ldr	r3, [r7, #52]	; 0x34
 80015c4:	1c59      	adds	r1, r3, #1
 80015c6:	6379      	str	r1, [r7, #52]	; 0x34
 80015c8:	f107 0138 	add.w	r1, r7, #56	; 0x38
 80015cc:	440b      	add	r3, r1
 80015ce:	f803 2c28 	strb.w	r2, [r3, #-40]
      value /= base;
 80015d2:	e9d7 2316 	ldrd	r2, r3, [r7, #88]	; 0x58
 80015d6:	e9d7 0112 	ldrd	r0, r1, [r7, #72]	; 0x48
 80015da:	f7ff fa9f 	bl	8000b1c <__aeabi_uldivmod>
 80015de:	4603      	mov	r3, r0
 80015e0:	460c      	mov	r4, r1
 80015e2:	e9c7 3412 	strd	r3, r4, [r7, #72]	; 0x48
    } while (value && (len < PRINTF_NTOA_BUFFER_SIZE));
 80015e6:	e9d7 3412 	ldrd	r3, r4, [r7, #72]	; 0x48
 80015ea:	4323      	orrs	r3, r4
 80015ec:	d002      	beq.n	80015f4 <_ntoa_long_long+0xa8>
 80015ee:	6b7b      	ldr	r3, [r7, #52]	; 0x34
 80015f0:	2b1f      	cmp	r3, #31
 80015f2:	d9c5      	bls.n	8001580 <_ntoa_long_long+0x34>
  }

  return _ntoa_format(out, buffer, idx, maxlen, buf, len, negative, (unsigned int)base, prec, width, flags);
 80015f4:	6dbb      	ldr	r3, [r7, #88]	; 0x58
 80015f6:	6eba      	ldr	r2, [r7, #104]	; 0x68
 80015f8:	9206      	str	r2, [sp, #24]
 80015fa:	6e7a      	ldr	r2, [r7, #100]	; 0x64
 80015fc:	9205      	str	r2, [sp, #20]
 80015fe:	6e3a      	ldr	r2, [r7, #96]	; 0x60
 8001600:	9204      	str	r2, [sp, #16]
 8001602:	9303      	str	r3, [sp, #12]
 8001604:	f897 3050 	ldrb.w	r3, [r7, #80]	; 0x50
 8001608:	9302      	str	r3, [sp, #8]
 800160a:	6b7b      	ldr	r3, [r7, #52]	; 0x34
 800160c:	9301      	str	r3, [sp, #4]
 800160e:	f107 0310 	add.w	r3, r7, #16
 8001612:	9300      	str	r3, [sp, #0]
 8001614:	683b      	ldr	r3, [r7, #0]
 8001616:	687a      	ldr	r2, [r7, #4]
 8001618:	68b9      	ldr	r1, [r7, #8]
 800161a:	68f8      	ldr	r0, [r7, #12]
 800161c:	f7ff fe53 	bl	80012c6 <_ntoa_format>
 8001620:	4603      	mov	r3, r0
}
 8001622:	4618      	mov	r0, r3
 8001624:	373c      	adds	r7, #60	; 0x3c
 8001626:	46bd      	mov	sp, r7
 8001628:	bd90      	pop	{r4, r7, pc}
 800162a:	0000      	movs	r0, r0
 800162c:	0000      	movs	r0, r0
	...

08001630 <_ftoa>:
#endif


// internal ftoa for fixed decimal floating point
static size_t _ftoa(out_fct_type out, char* buffer, size_t idx, size_t maxlen, double value, unsigned int prec, unsigned int width, unsigned int flags)
{
 8001630:	b590      	push	{r4, r7, lr}
 8001632:	b09d      	sub	sp, #116	; 0x74
 8001634:	af04      	add	r7, sp, #16
 8001636:	6178      	str	r0, [r7, #20]
 8001638:	6139      	str	r1, [r7, #16]
 800163a:	60fa      	str	r2, [r7, #12]
 800163c:	60bb      	str	r3, [r7, #8]
 800163e:	ed87 0b00 	vstr	d0, [r7]
  char buf[PRINTF_FTOA_BUFFER_SIZE];
  size_t len  = 0U;
 8001642:	2300      	movs	r3, #0
 8001644:	65fb      	str	r3, [r7, #92]	; 0x5c
  double diff = 0.0;
 8001646:	f04f 0300 	mov.w	r3, #0
 800164a:	f04f 0400 	mov.w	r4, #0
 800164e:	e9c7 3410 	strd	r3, r4, [r7, #64]	; 0x40

  // powers of 10
  static const double pow10[] = { 1, 10, 100, 1000, 10000, 100000, 1000000, 10000000, 100000000, 1000000000 };

  // test for special values
  if (value != value)
 8001652:	e9d7 2300 	ldrd	r2, r3, [r7]
 8001656:	e9d7 0100 	ldrd	r0, r1, [r7]
 800165a:	f7ff f9e5 	bl	8000a28 <__aeabi_dcmpeq>
 800165e:	4603      	mov	r3, r0
 8001660:	2b00      	cmp	r3, #0
 8001662:	d10f      	bne.n	8001684 <_ftoa+0x54>
    return _out_rev(out, buffer, idx, maxlen, "nan", 3, width, flags);
 8001664:	6fbb      	ldr	r3, [r7, #120]	; 0x78
 8001666:	9303      	str	r3, [sp, #12]
 8001668:	6f7b      	ldr	r3, [r7, #116]	; 0x74
 800166a:	9302      	str	r3, [sp, #8]
 800166c:	2303      	movs	r3, #3
 800166e:	9301      	str	r3, [sp, #4]
 8001670:	4baf      	ldr	r3, [pc, #700]	; (8001930 <_ftoa+0x300>)
 8001672:	9300      	str	r3, [sp, #0]
 8001674:	68bb      	ldr	r3, [r7, #8]
 8001676:	68fa      	ldr	r2, [r7, #12]
 8001678:	6939      	ldr	r1, [r7, #16]
 800167a:	6978      	ldr	r0, [r7, #20]
 800167c:	f7ff fdd3 	bl	8001226 <_out_rev>
 8001680:	4603      	mov	r3, r0
 8001682:	e237      	b.n	8001af4 <_ftoa+0x4c4>
  if (value < -DBL_MAX)
 8001684:	f04f 32ff 	mov.w	r2, #4294967295
 8001688:	f46f 1380 	mvn.w	r3, #1048576	; 0x100000
 800168c:	e9d7 0100 	ldrd	r0, r1, [r7]
 8001690:	f7ff f9d4 	bl	8000a3c <__aeabi_dcmplt>
 8001694:	4603      	mov	r3, r0
 8001696:	2b00      	cmp	r3, #0
 8001698:	d00f      	beq.n	80016ba <_ftoa+0x8a>
    return _out_rev(out, buffer, idx, maxlen, "fni-", 4, width, flags);
 800169a:	6fbb      	ldr	r3, [r7, #120]	; 0x78
 800169c:	9303      	str	r3, [sp, #12]
 800169e:	6f7b      	ldr	r3, [r7, #116]	; 0x74
 80016a0:	9302      	str	r3, [sp, #8]
 80016a2:	2304      	movs	r3, #4
 80016a4:	9301      	str	r3, [sp, #4]
 80016a6:	4ba3      	ldr	r3, [pc, #652]	; (8001934 <_ftoa+0x304>)
 80016a8:	9300      	str	r3, [sp, #0]
 80016aa:	68bb      	ldr	r3, [r7, #8]
 80016ac:	68fa      	ldr	r2, [r7, #12]
 80016ae:	6939      	ldr	r1, [r7, #16]
 80016b0:	6978      	ldr	r0, [r7, #20]
 80016b2:	f7ff fdb8 	bl	8001226 <_out_rev>
 80016b6:	4603      	mov	r3, r0
 80016b8:	e21c      	b.n	8001af4 <_ftoa+0x4c4>
  if (value > DBL_MAX)
 80016ba:	f04f 32ff 	mov.w	r2, #4294967295
 80016be:	4b9e      	ldr	r3, [pc, #632]	; (8001938 <_ftoa+0x308>)
 80016c0:	e9d7 0100 	ldrd	r0, r1, [r7]
 80016c4:	f7ff f9d8 	bl	8000a78 <__aeabi_dcmpgt>
 80016c8:	4603      	mov	r3, r0
 80016ca:	2b00      	cmp	r3, #0
 80016cc:	d01d      	beq.n	800170a <_ftoa+0xda>
    return _out_rev(out, buffer, idx, maxlen, (flags & FLAGS_PLUS) ? "fni+" : "fni", (flags & FLAGS_PLUS) ? 4U : 3U, width, flags);
 80016ce:	6fbb      	ldr	r3, [r7, #120]	; 0x78
 80016d0:	f003 0304 	and.w	r3, r3, #4
 80016d4:	2b00      	cmp	r3, #0
 80016d6:	d001      	beq.n	80016dc <_ftoa+0xac>
 80016d8:	4b98      	ldr	r3, [pc, #608]	; (800193c <_ftoa+0x30c>)
 80016da:	e000      	b.n	80016de <_ftoa+0xae>
 80016dc:	4b98      	ldr	r3, [pc, #608]	; (8001940 <_ftoa+0x310>)
 80016de:	6fba      	ldr	r2, [r7, #120]	; 0x78
 80016e0:	f002 0204 	and.w	r2, r2, #4
 80016e4:	2a00      	cmp	r2, #0
 80016e6:	d001      	beq.n	80016ec <_ftoa+0xbc>
 80016e8:	2204      	movs	r2, #4
 80016ea:	e000      	b.n	80016ee <_ftoa+0xbe>
 80016ec:	2203      	movs	r2, #3
 80016ee:	6fb9      	ldr	r1, [r7, #120]	; 0x78
 80016f0:	9103      	str	r1, [sp, #12]
 80016f2:	6f79      	ldr	r1, [r7, #116]	; 0x74
 80016f4:	9102      	str	r1, [sp, #8]
 80016f6:	9201      	str	r2, [sp, #4]
 80016f8:	9300      	str	r3, [sp, #0]
 80016fa:	68bb      	ldr	r3, [r7, #8]
 80016fc:	68fa      	ldr	r2, [r7, #12]
 80016fe:	6939      	ldr	r1, [r7, #16]
 8001700:	6978      	ldr	r0, [r7, #20]
 8001702:	f7ff fd90 	bl	8001226 <_out_rev>
 8001706:	4603      	mov	r3, r0
 8001708:	e1f4      	b.n	8001af4 <_ftoa+0x4c4>

  // test for very large values
  // standard printf behavior is to print EVERY whole number digit -- which could be 100s of characters overflowing your buffers == bad
  if ((value > PRINTF_MAX_FLOAT) || (value < -PRINTF_MAX_FLOAT)) {
 800170a:	a385      	add	r3, pc, #532	; (adr r3, 8001920 <_ftoa+0x2f0>)
 800170c:	e9d3 2300 	ldrd	r2, r3, [r3]
 8001710:	e9d7 0100 	ldrd	r0, r1, [r7]
 8001714:	f7ff f9b0 	bl	8000a78 <__aeabi_dcmpgt>
 8001718:	4603      	mov	r3, r0
 800171a:	2b00      	cmp	r3, #0
 800171c:	d109      	bne.n	8001732 <_ftoa+0x102>
 800171e:	a382      	add	r3, pc, #520	; (adr r3, 8001928 <_ftoa+0x2f8>)
 8001720:	e9d3 2300 	ldrd	r2, r3, [r3]
 8001724:	e9d7 0100 	ldrd	r0, r1, [r7]
 8001728:	f7ff f988 	bl	8000a3c <__aeabi_dcmplt>
 800172c:	4603      	mov	r3, r0
 800172e:	2b00      	cmp	r3, #0
 8001730:	d00f      	beq.n	8001752 <_ftoa+0x122>
#if defined(PRINTF_SUPPORT_EXPONENTIAL)
    return _etoa(out, buffer, idx, maxlen, value, prec, width, flags);
 8001732:	6fbb      	ldr	r3, [r7, #120]	; 0x78
 8001734:	9302      	str	r3, [sp, #8]
 8001736:	6f7b      	ldr	r3, [r7, #116]	; 0x74
 8001738:	9301      	str	r3, [sp, #4]
 800173a:	6f3b      	ldr	r3, [r7, #112]	; 0x70
 800173c:	9300      	str	r3, [sp, #0]
 800173e:	ed97 0b00 	vldr	d0, [r7]
 8001742:	68bb      	ldr	r3, [r7, #8]
 8001744:	68fa      	ldr	r2, [r7, #12]
 8001746:	6939      	ldr	r1, [r7, #16]
 8001748:	6978      	ldr	r0, [r7, #20]
 800174a:	f000 f9dd 	bl	8001b08 <_etoa>
 800174e:	4603      	mov	r3, r0
 8001750:	e1d0      	b.n	8001af4 <_ftoa+0x4c4>
    return 0U;
#endif
  }

  // test for negative
  bool negative = false;
 8001752:	2300      	movs	r3, #0
 8001754:	f887 305b 	strb.w	r3, [r7, #91]	; 0x5b
  if (value < 0) {
 8001758:	f04f 0200 	mov.w	r2, #0
 800175c:	f04f 0300 	mov.w	r3, #0
 8001760:	e9d7 0100 	ldrd	r0, r1, [r7]
 8001764:	f7ff f96a 	bl	8000a3c <__aeabi_dcmplt>
 8001768:	4603      	mov	r3, r0
 800176a:	2b00      	cmp	r3, #0
 800176c:	d00e      	beq.n	800178c <_ftoa+0x15c>
    negative = true;
 800176e:	2301      	movs	r3, #1
 8001770:	f887 305b 	strb.w	r3, [r7, #91]	; 0x5b
    value = 0 - value;
 8001774:	e9d7 2300 	ldrd	r2, r3, [r7]
 8001778:	f04f 0000 	mov.w	r0, #0
 800177c:	f04f 0100 	mov.w	r1, #0
 8001780:	f7fe fd32 	bl	80001e8 <__aeabi_dsub>
 8001784:	4603      	mov	r3, r0
 8001786:	460c      	mov	r4, r1
 8001788:	e9c7 3400 	strd	r3, r4, [r7]
  }

  // set default precision, if not set explicitly
  if (!(flags & FLAGS_PRECISION)) {
 800178c:	6fbb      	ldr	r3, [r7, #120]	; 0x78
 800178e:	f403 6380 	and.w	r3, r3, #1024	; 0x400
 8001792:	2b00      	cmp	r3, #0
 8001794:	d10e      	bne.n	80017b4 <_ftoa+0x184>
    prec = PRINTF_DEFAULT_FLOAT_PRECISION;
 8001796:	2306      	movs	r3, #6
 8001798:	673b      	str	r3, [r7, #112]	; 0x70
  }
  // limit precision to 9, cause a prec >= 10 can lead to overflow errors
  while ((len < PRINTF_FTOA_BUFFER_SIZE) && (prec > 9U)) {
 800179a:	e00b      	b.n	80017b4 <_ftoa+0x184>
    buf[len++] = '0';
 800179c:	6dfb      	ldr	r3, [r7, #92]	; 0x5c
 800179e:	1c5a      	adds	r2, r3, #1
 80017a0:	65fa      	str	r2, [r7, #92]	; 0x5c
 80017a2:	f107 0260 	add.w	r2, r7, #96	; 0x60
 80017a6:	4413      	add	r3, r2
 80017a8:	2230      	movs	r2, #48	; 0x30
 80017aa:	f803 2c48 	strb.w	r2, [r3, #-72]
    prec--;
 80017ae:	6f3b      	ldr	r3, [r7, #112]	; 0x70
 80017b0:	3b01      	subs	r3, #1
 80017b2:	673b      	str	r3, [r7, #112]	; 0x70
  while ((len < PRINTF_FTOA_BUFFER_SIZE) && (prec > 9U)) {
 80017b4:	6dfb      	ldr	r3, [r7, #92]	; 0x5c
 80017b6:	2b1f      	cmp	r3, #31
 80017b8:	d802      	bhi.n	80017c0 <_ftoa+0x190>
 80017ba:	6f3b      	ldr	r3, [r7, #112]	; 0x70
 80017bc:	2b09      	cmp	r3, #9
 80017be:	d8ed      	bhi.n	800179c <_ftoa+0x16c>
  }

  int whole = (int)value;
 80017c0:	e9d7 0100 	ldrd	r0, r1, [r7]
 80017c4:	f7ff f962 	bl	8000a8c <__aeabi_d2iz>
 80017c8:	4603      	mov	r3, r0
 80017ca:	657b      	str	r3, [r7, #84]	; 0x54
  double tmp = (value - whole) * pow10[prec];
 80017cc:	6d78      	ldr	r0, [r7, #84]	; 0x54
 80017ce:	f7fe fe59 	bl	8000484 <__aeabi_i2d>
 80017d2:	4603      	mov	r3, r0
 80017d4:	460c      	mov	r4, r1
 80017d6:	461a      	mov	r2, r3
 80017d8:	4623      	mov	r3, r4
 80017da:	e9d7 0100 	ldrd	r0, r1, [r7]
 80017de:	f7fe fd03 	bl	80001e8 <__aeabi_dsub>
 80017e2:	4603      	mov	r3, r0
 80017e4:	460c      	mov	r4, r1
 80017e6:	4618      	mov	r0, r3
 80017e8:	4621      	mov	r1, r4
 80017ea:	4a56      	ldr	r2, [pc, #344]	; (8001944 <_ftoa+0x314>)
 80017ec:	6f3b      	ldr	r3, [r7, #112]	; 0x70
 80017ee:	00db      	lsls	r3, r3, #3
 80017f0:	4413      	add	r3, r2
 80017f2:	e9d3 3400 	ldrd	r3, r4, [r3]
 80017f6:	461a      	mov	r2, r3
 80017f8:	4623      	mov	r3, r4
 80017fa:	f7fe fead 	bl	8000558 <__aeabi_dmul>
 80017fe:	4603      	mov	r3, r0
 8001800:	460c      	mov	r4, r1
 8001802:	e9c7 340e 	strd	r3, r4, [r7, #56]	; 0x38
  unsigned long frac = (unsigned long)tmp;
 8001806:	e9d7 010e 	ldrd	r0, r1, [r7, #56]	; 0x38
 800180a:	f7ff f967 	bl	8000adc <__aeabi_d2uiz>
 800180e:	4603      	mov	r3, r0
 8001810:	653b      	str	r3, [r7, #80]	; 0x50
  diff = tmp - frac;
 8001812:	6d38      	ldr	r0, [r7, #80]	; 0x50
 8001814:	f7fe fe26 	bl	8000464 <__aeabi_ui2d>
 8001818:	4603      	mov	r3, r0
 800181a:	460c      	mov	r4, r1
 800181c:	461a      	mov	r2, r3
 800181e:	4623      	mov	r3, r4
 8001820:	e9d7 010e 	ldrd	r0, r1, [r7, #56]	; 0x38
 8001824:	f7fe fce0 	bl	80001e8 <__aeabi_dsub>
 8001828:	4603      	mov	r3, r0
 800182a:	460c      	mov	r4, r1
 800182c:	e9c7 3410 	strd	r3, r4, [r7, #64]	; 0x40

  if (diff > 0.5) {
 8001830:	f04f 0200 	mov.w	r2, #0
 8001834:	4b44      	ldr	r3, [pc, #272]	; (8001948 <_ftoa+0x318>)
 8001836:	e9d7 0110 	ldrd	r0, r1, [r7, #64]	; 0x40
 800183a:	f7ff f91d 	bl	8000a78 <__aeabi_dcmpgt>
 800183e:	4603      	mov	r3, r0
 8001840:	2b00      	cmp	r3, #0
 8001842:	d018      	beq.n	8001876 <_ftoa+0x246>
    ++frac;
 8001844:	6d3b      	ldr	r3, [r7, #80]	; 0x50
 8001846:	3301      	adds	r3, #1
 8001848:	653b      	str	r3, [r7, #80]	; 0x50
    // handle rollover, e.g. case 0.99 with prec 1 is 1.0
    if (frac >= pow10[prec]) {
 800184a:	6d38      	ldr	r0, [r7, #80]	; 0x50
 800184c:	f7fe fe0a 	bl	8000464 <__aeabi_ui2d>
 8001850:	4a3c      	ldr	r2, [pc, #240]	; (8001944 <_ftoa+0x314>)
 8001852:	6f3b      	ldr	r3, [r7, #112]	; 0x70
 8001854:	00db      	lsls	r3, r3, #3
 8001856:	4413      	add	r3, r2
 8001858:	e9d3 3400 	ldrd	r3, r4, [r3]
 800185c:	461a      	mov	r2, r3
 800185e:	4623      	mov	r3, r4
 8001860:	f7ff f900 	bl	8000a64 <__aeabi_dcmpge>
 8001864:	4603      	mov	r3, r0
 8001866:	2b00      	cmp	r3, #0
 8001868:	d01a      	beq.n	80018a0 <_ftoa+0x270>
      frac = 0;
 800186a:	2300      	movs	r3, #0
 800186c:	653b      	str	r3, [r7, #80]	; 0x50
      ++whole;
 800186e:	6d7b      	ldr	r3, [r7, #84]	; 0x54
 8001870:	3301      	adds	r3, #1
 8001872:	657b      	str	r3, [r7, #84]	; 0x54
 8001874:	e014      	b.n	80018a0 <_ftoa+0x270>
    }
  }
  else if (diff < 0.5) {
 8001876:	f04f 0200 	mov.w	r2, #0
 800187a:	4b33      	ldr	r3, [pc, #204]	; (8001948 <_ftoa+0x318>)
 800187c:	e9d7 0110 	ldrd	r0, r1, [r7, #64]	; 0x40
 8001880:	f7ff f8dc 	bl	8000a3c <__aeabi_dcmplt>
 8001884:	4603      	mov	r3, r0
 8001886:	2b00      	cmp	r3, #0
 8001888:	d10a      	bne.n	80018a0 <_ftoa+0x270>
  }
  else if ((frac == 0U) || (frac & 1U)) {
 800188a:	6d3b      	ldr	r3, [r7, #80]	; 0x50
 800188c:	2b00      	cmp	r3, #0
 800188e:	d004      	beq.n	800189a <_ftoa+0x26a>
 8001890:	6d3b      	ldr	r3, [r7, #80]	; 0x50
 8001892:	f003 0301 	and.w	r3, r3, #1
 8001896:	2b00      	cmp	r3, #0
 8001898:	d002      	beq.n	80018a0 <_ftoa+0x270>
    // if halfway, round up if odd OR if last digit is 0
    ++frac;
 800189a:	6d3b      	ldr	r3, [r7, #80]	; 0x50
 800189c:	3301      	adds	r3, #1
 800189e:	653b      	str	r3, [r7, #80]	; 0x50
  }

  if (prec == 0U) {
 80018a0:	6f3b      	ldr	r3, [r7, #112]	; 0x70
 80018a2:	2b00      	cmp	r3, #0
 80018a4:	d136      	bne.n	8001914 <_ftoa+0x2e4>
    diff = value - (double)whole;
 80018a6:	6d78      	ldr	r0, [r7, #84]	; 0x54
 80018a8:	f7fe fdec 	bl	8000484 <__aeabi_i2d>
 80018ac:	4603      	mov	r3, r0
 80018ae:	460c      	mov	r4, r1
 80018b0:	461a      	mov	r2, r3
 80018b2:	4623      	mov	r3, r4
 80018b4:	e9d7 0100 	ldrd	r0, r1, [r7]
 80018b8:	f7fe fc96 	bl	80001e8 <__aeabi_dsub>
 80018bc:	4603      	mov	r3, r0
 80018be:	460c      	mov	r4, r1
 80018c0:	e9c7 3410 	strd	r3, r4, [r7, #64]	; 0x40
    if ((!(diff < 0.5) || (diff > 0.5)) && (whole & 1)) {
 80018c4:	2301      	movs	r3, #1
 80018c6:	461c      	mov	r4, r3
 80018c8:	f04f 0200 	mov.w	r2, #0
 80018cc:	4b1e      	ldr	r3, [pc, #120]	; (8001948 <_ftoa+0x318>)
 80018ce:	e9d7 0110 	ldrd	r0, r1, [r7, #64]	; 0x40
 80018d2:	f7ff f8b3 	bl	8000a3c <__aeabi_dcmplt>
 80018d6:	4603      	mov	r3, r0
 80018d8:	2b00      	cmp	r3, #0
 80018da:	d101      	bne.n	80018e0 <_ftoa+0x2b0>
 80018dc:	2300      	movs	r3, #0
 80018de:	461c      	mov	r4, r3
 80018e0:	b2e3      	uxtb	r3, r4
 80018e2:	f083 0301 	eor.w	r3, r3, #1
 80018e6:	b2db      	uxtb	r3, r3
 80018e8:	2b00      	cmp	r3, #0
 80018ea:	d109      	bne.n	8001900 <_ftoa+0x2d0>
 80018ec:	f04f 0200 	mov.w	r2, #0
 80018f0:	4b15      	ldr	r3, [pc, #84]	; (8001948 <_ftoa+0x318>)
 80018f2:	e9d7 0110 	ldrd	r0, r1, [r7, #64]	; 0x40
 80018f6:	f7ff f8bf 	bl	8000a78 <__aeabi_dcmpgt>
 80018fa:	4603      	mov	r3, r0
 80018fc:	2b00      	cmp	r3, #0
 80018fe:	d069      	beq.n	80019d4 <_ftoa+0x3a4>
 8001900:	6d7b      	ldr	r3, [r7, #84]	; 0x54
 8001902:	f003 0301 	and.w	r3, r3, #1
 8001906:	2b00      	cmp	r3, #0
 8001908:	f000 8087 	beq.w	8001a1a <_ftoa+0x3ea>
      // exactly 0.5 and ODD, then round up
      // 1.5 -> 2, but 2.5 -> 2
      ++whole;
 800190c:	6d7b      	ldr	r3, [r7, #84]	; 0x54
 800190e:	3301      	adds	r3, #1
 8001910:	657b      	str	r3, [r7, #84]	; 0x54
 8001912:	e082      	b.n	8001a1a <_ftoa+0x3ea>
    }
  }
  else {
    unsigned int count = prec;
 8001914:	6f3b      	ldr	r3, [r7, #112]	; 0x70
 8001916:	64fb      	str	r3, [r7, #76]	; 0x4c
    // now do fractional part, as an unsigned number
    while (len < PRINTF_FTOA_BUFFER_SIZE) {
 8001918:	e039      	b.n	800198e <_ftoa+0x35e>
 800191a:	bf00      	nop
 800191c:	f3af 8000 	nop.w
 8001920:	00000000 	.word	0x00000000
 8001924:	41cdcd65 	.word	0x41cdcd65
 8001928:	00000000 	.word	0x00000000
 800192c:	c1cdcd65 	.word	0xc1cdcd65
 8001930:	08007894 	.word	0x08007894
 8001934:	08007898 	.word	0x08007898
 8001938:	7fefffff 	.word	0x7fefffff
 800193c:	080078a0 	.word	0x080078a0
 8001940:	080078a8 	.word	0x080078a8
 8001944:	08007930 	.word	0x08007930
 8001948:	3fe00000 	.word	0x3fe00000
      --count;
 800194c:	6cfb      	ldr	r3, [r7, #76]	; 0x4c
 800194e:	3b01      	subs	r3, #1
 8001950:	64fb      	str	r3, [r7, #76]	; 0x4c
      buf[len++] = (char)(48U + (frac % 10U));
 8001952:	6d39      	ldr	r1, [r7, #80]	; 0x50
 8001954:	4b69      	ldr	r3, [pc, #420]	; (8001afc <_ftoa+0x4cc>)
 8001956:	fba3 2301 	umull	r2, r3, r3, r1
 800195a:	08da      	lsrs	r2, r3, #3
 800195c:	4613      	mov	r3, r2
 800195e:	009b      	lsls	r3, r3, #2
 8001960:	4413      	add	r3, r2
 8001962:	005b      	lsls	r3, r3, #1
 8001964:	1aca      	subs	r2, r1, r3
 8001966:	b2d2      	uxtb	r2, r2
 8001968:	6dfb      	ldr	r3, [r7, #92]	; 0x5c
 800196a:	1c59      	adds	r1, r3, #1
 800196c:	65f9      	str	r1, [r7, #92]	; 0x5c
 800196e:	3230      	adds	r2, #48	; 0x30
 8001970:	b2d2      	uxtb	r2, r2
 8001972:	f107 0160 	add.w	r1, r7, #96	; 0x60
 8001976:	440b      	add	r3, r1
 8001978:	f803 2c48 	strb.w	r2, [r3, #-72]
      if (!(frac /= 10U)) {
 800197c:	6d3b      	ldr	r3, [r7, #80]	; 0x50
 800197e:	4a5f      	ldr	r2, [pc, #380]	; (8001afc <_ftoa+0x4cc>)
 8001980:	fba2 2303 	umull	r2, r3, r2, r3
 8001984:	08db      	lsrs	r3, r3, #3
 8001986:	653b      	str	r3, [r7, #80]	; 0x50
 8001988:	6d3b      	ldr	r3, [r7, #80]	; 0x50
 800198a:	2b00      	cmp	r3, #0
 800198c:	d003      	beq.n	8001996 <_ftoa+0x366>
    while (len < PRINTF_FTOA_BUFFER_SIZE) {
 800198e:	6dfb      	ldr	r3, [r7, #92]	; 0x5c
 8001990:	2b1f      	cmp	r3, #31
 8001992:	d9db      	bls.n	800194c <_ftoa+0x31c>
 8001994:	e00a      	b.n	80019ac <_ftoa+0x37c>
        break;
 8001996:	bf00      	nop
      }
    }
    // add extra 0s
    while ((len < PRINTF_FTOA_BUFFER_SIZE) && (count-- > 0U)) {
 8001998:	e008      	b.n	80019ac <_ftoa+0x37c>
      buf[len++] = '0';
 800199a:	6dfb      	ldr	r3, [r7, #92]	; 0x5c
 800199c:	1c5a      	adds	r2, r3, #1
 800199e:	65fa      	str	r2, [r7, #92]	; 0x5c
 80019a0:	f107 0260 	add.w	r2, r7, #96	; 0x60
 80019a4:	4413      	add	r3, r2
 80019a6:	2230      	movs	r2, #48	; 0x30
 80019a8:	f803 2c48 	strb.w	r2, [r3, #-72]
    while ((len < PRINTF_FTOA_BUFFER_SIZE) && (count-- > 0U)) {
 80019ac:	6dfb      	ldr	r3, [r7, #92]	; 0x5c
 80019ae:	2b1f      	cmp	r3, #31
 80019b0:	d804      	bhi.n	80019bc <_ftoa+0x38c>
 80019b2:	6cfb      	ldr	r3, [r7, #76]	; 0x4c
 80019b4:	1e5a      	subs	r2, r3, #1
 80019b6:	64fa      	str	r2, [r7, #76]	; 0x4c
 80019b8:	2b00      	cmp	r3, #0
 80019ba:	d1ee      	bne.n	800199a <_ftoa+0x36a>
    }
    if (len < PRINTF_FTOA_BUFFER_SIZE) {
 80019bc:	6dfb      	ldr	r3, [r7, #92]	; 0x5c
 80019be:	2b1f      	cmp	r3, #31
 80019c0:	d82b      	bhi.n	8001a1a <_ftoa+0x3ea>
      // add decimal
      buf[len++] = '.';
 80019c2:	6dfb      	ldr	r3, [r7, #92]	; 0x5c
 80019c4:	1c5a      	adds	r2, r3, #1
 80019c6:	65fa      	str	r2, [r7, #92]	; 0x5c
 80019c8:	f107 0260 	add.w	r2, r7, #96	; 0x60
 80019cc:	4413      	add	r3, r2
 80019ce:	222e      	movs	r2, #46	; 0x2e
 80019d0:	f803 2c48 	strb.w	r2, [r3, #-72]
    }
  }

  // do whole part, number is reversed
  while (len < PRINTF_FTOA_BUFFER_SIZE) {
 80019d4:	e021      	b.n	8001a1a <_ftoa+0x3ea>
    buf[len++] = (char)(48 + (whole % 10));
 80019d6:	6d7a      	ldr	r2, [r7, #84]	; 0x54
 80019d8:	4b49      	ldr	r3, [pc, #292]	; (8001b00 <_ftoa+0x4d0>)
 80019da:	fb83 1302 	smull	r1, r3, r3, r2
 80019de:	1099      	asrs	r1, r3, #2
 80019e0:	17d3      	asrs	r3, r2, #31
 80019e2:	1ac9      	subs	r1, r1, r3
 80019e4:	460b      	mov	r3, r1
 80019e6:	009b      	lsls	r3, r3, #2
 80019e8:	440b      	add	r3, r1
 80019ea:	005b      	lsls	r3, r3, #1
 80019ec:	1ad1      	subs	r1, r2, r3
 80019ee:	b2ca      	uxtb	r2, r1
 80019f0:	6dfb      	ldr	r3, [r7, #92]	; 0x5c
 80019f2:	1c59      	adds	r1, r3, #1
 80019f4:	65f9      	str	r1, [r7, #92]	; 0x5c
 80019f6:	3230      	adds	r2, #48	; 0x30
 80019f8:	b2d2      	uxtb	r2, r2
 80019fa:	f107 0160 	add.w	r1, r7, #96	; 0x60
 80019fe:	440b      	add	r3, r1
 8001a00:	f803 2c48 	strb.w	r2, [r3, #-72]
    if (!(whole /= 10)) {
 8001a04:	6d7b      	ldr	r3, [r7, #84]	; 0x54
 8001a06:	4a3e      	ldr	r2, [pc, #248]	; (8001b00 <_ftoa+0x4d0>)
 8001a08:	fb82 1203 	smull	r1, r2, r2, r3
 8001a0c:	1092      	asrs	r2, r2, #2
 8001a0e:	17db      	asrs	r3, r3, #31
 8001a10:	1ad3      	subs	r3, r2, r3
 8001a12:	657b      	str	r3, [r7, #84]	; 0x54
 8001a14:	6d7b      	ldr	r3, [r7, #84]	; 0x54
 8001a16:	2b00      	cmp	r3, #0
 8001a18:	d003      	beq.n	8001a22 <_ftoa+0x3f2>
  while (len < PRINTF_FTOA_BUFFER_SIZE) {
 8001a1a:	6dfb      	ldr	r3, [r7, #92]	; 0x5c
 8001a1c:	2b1f      	cmp	r3, #31
 8001a1e:	d9da      	bls.n	80019d6 <_ftoa+0x3a6>
 8001a20:	e000      	b.n	8001a24 <_ftoa+0x3f4>
      break;
 8001a22:	bf00      	nop
    }
  }

  // pad leading zeros
  if (!(flags & FLAGS_LEFT) && (flags & FLAGS_ZEROPAD)) {
 8001a24:	6fbb      	ldr	r3, [r7, #120]	; 0x78
 8001a26:	f003 0302 	and.w	r3, r3, #2
 8001a2a:	2b00      	cmp	r3, #0
 8001a2c:	d124      	bne.n	8001a78 <_ftoa+0x448>
 8001a2e:	6fbb      	ldr	r3, [r7, #120]	; 0x78
 8001a30:	f003 0301 	and.w	r3, r3, #1
 8001a34:	2b00      	cmp	r3, #0
 8001a36:	d01f      	beq.n	8001a78 <_ftoa+0x448>
    if (width && (negative || (flags & (FLAGS_PLUS | FLAGS_SPACE)))) {
 8001a38:	6f7b      	ldr	r3, [r7, #116]	; 0x74
 8001a3a:	2b00      	cmp	r3, #0
 8001a3c:	d015      	beq.n	8001a6a <_ftoa+0x43a>
 8001a3e:	f897 305b 	ldrb.w	r3, [r7, #91]	; 0x5b
 8001a42:	2b00      	cmp	r3, #0
 8001a44:	d104      	bne.n	8001a50 <_ftoa+0x420>
 8001a46:	6fbb      	ldr	r3, [r7, #120]	; 0x78
 8001a48:	f003 030c 	and.w	r3, r3, #12
 8001a4c:	2b00      	cmp	r3, #0
 8001a4e:	d00c      	beq.n	8001a6a <_ftoa+0x43a>
      width--;
 8001a50:	6f7b      	ldr	r3, [r7, #116]	; 0x74
 8001a52:	3b01      	subs	r3, #1
 8001a54:	677b      	str	r3, [r7, #116]	; 0x74
    }
    while ((len < width) && (len < PRINTF_FTOA_BUFFER_SIZE)) {
 8001a56:	e008      	b.n	8001a6a <_ftoa+0x43a>
      buf[len++] = '0';
 8001a58:	6dfb      	ldr	r3, [r7, #92]	; 0x5c
 8001a5a:	1c5a      	adds	r2, r3, #1
 8001a5c:	65fa      	str	r2, [r7, #92]	; 0x5c
 8001a5e:	f107 0260 	add.w	r2, r7, #96	; 0x60
 8001a62:	4413      	add	r3, r2
 8001a64:	2230      	movs	r2, #48	; 0x30
 8001a66:	f803 2c48 	strb.w	r2, [r3, #-72]
    while ((len < width) && (len < PRINTF_FTOA_BUFFER_SIZE)) {
 8001a6a:	6dfa      	ldr	r2, [r7, #92]	; 0x5c
 8001a6c:	6f7b      	ldr	r3, [r7, #116]	; 0x74
 8001a6e:	429a      	cmp	r2, r3
 8001a70:	d202      	bcs.n	8001a78 <_ftoa+0x448>
 8001a72:	6dfb      	ldr	r3, [r7, #92]	; 0x5c
 8001a74:	2b1f      	cmp	r3, #31
 8001a76:	d9ef      	bls.n	8001a58 <_ftoa+0x428>
    }
  }

  if (len < PRINTF_FTOA_BUFFER_SIZE) {
 8001a78:	6dfb      	ldr	r3, [r7, #92]	; 0x5c
 8001a7a:	2b1f      	cmp	r3, #31
 8001a7c:	d82a      	bhi.n	8001ad4 <_ftoa+0x4a4>
    if (negative) {
 8001a7e:	f897 305b 	ldrb.w	r3, [r7, #91]	; 0x5b
 8001a82:	2b00      	cmp	r3, #0
 8001a84:	d009      	beq.n	8001a9a <_ftoa+0x46a>
      buf[len++] = '-';
 8001a86:	6dfb      	ldr	r3, [r7, #92]	; 0x5c
 8001a88:	1c5a      	adds	r2, r3, #1
 8001a8a:	65fa      	str	r2, [r7, #92]	; 0x5c
 8001a8c:	f107 0260 	add.w	r2, r7, #96	; 0x60
 8001a90:	4413      	add	r3, r2
 8001a92:	222d      	movs	r2, #45	; 0x2d
 8001a94:	f803 2c48 	strb.w	r2, [r3, #-72]
 8001a98:	e01c      	b.n	8001ad4 <_ftoa+0x4a4>
    }
    else if (flags & FLAGS_PLUS) {
 8001a9a:	6fbb      	ldr	r3, [r7, #120]	; 0x78
 8001a9c:	f003 0304 	and.w	r3, r3, #4
 8001aa0:	2b00      	cmp	r3, #0
 8001aa2:	d009      	beq.n	8001ab8 <_ftoa+0x488>
      buf[len++] = '+';  // ignore the space if the '+' exists
 8001aa4:	6dfb      	ldr	r3, [r7, #92]	; 0x5c
 8001aa6:	1c5a      	adds	r2, r3, #1
 8001aa8:	65fa      	str	r2, [r7, #92]	; 0x5c
 8001aaa:	f107 0260 	add.w	r2, r7, #96	; 0x60
 8001aae:	4413      	add	r3, r2
 8001ab0:	222b      	movs	r2, #43	; 0x2b
 8001ab2:	f803 2c48 	strb.w	r2, [r3, #-72]
 8001ab6:	e00d      	b.n	8001ad4 <_ftoa+0x4a4>
    }
    else if (flags & FLAGS_SPACE) {
 8001ab8:	6fbb      	ldr	r3, [r7, #120]	; 0x78
 8001aba:	f003 0308 	and.w	r3, r3, #8
 8001abe:	2b00      	cmp	r3, #0
 8001ac0:	d008      	beq.n	8001ad4 <_ftoa+0x4a4>
      buf[len++] = ' ';
 8001ac2:	6dfb      	ldr	r3, [r7, #92]	; 0x5c
 8001ac4:	1c5a      	adds	r2, r3, #1
 8001ac6:	65fa      	str	r2, [r7, #92]	; 0x5c
 8001ac8:	f107 0260 	add.w	r2, r7, #96	; 0x60
 8001acc:	4413      	add	r3, r2
 8001ace:	2220      	movs	r2, #32
 8001ad0:	f803 2c48 	strb.w	r2, [r3, #-72]
    }
  }

  return _out_rev(out, buffer, idx, maxlen, buf, len, width, flags);
 8001ad4:	6fbb      	ldr	r3, [r7, #120]	; 0x78
 8001ad6:	9303      	str	r3, [sp, #12]
 8001ad8:	6f7b      	ldr	r3, [r7, #116]	; 0x74
 8001ada:	9302      	str	r3, [sp, #8]
 8001adc:	6dfb      	ldr	r3, [r7, #92]	; 0x5c
 8001ade:	9301      	str	r3, [sp, #4]
 8001ae0:	f107 0318 	add.w	r3, r7, #24
 8001ae4:	9300      	str	r3, [sp, #0]
 8001ae6:	68bb      	ldr	r3, [r7, #8]
 8001ae8:	68fa      	ldr	r2, [r7, #12]
 8001aea:	6939      	ldr	r1, [r7, #16]
 8001aec:	6978      	ldr	r0, [r7, #20]
 8001aee:	f7ff fb9a 	bl	8001226 <_out_rev>
 8001af2:	4603      	mov	r3, r0
}
 8001af4:	4618      	mov	r0, r3
 8001af6:	3764      	adds	r7, #100	; 0x64
 8001af8:	46bd      	mov	sp, r7
 8001afa:	bd90      	pop	{r4, r7, pc}
 8001afc:	cccccccd 	.word	0xcccccccd
 8001b00:	66666667 	.word	0x66666667
 8001b04:	00000000 	.word	0x00000000

08001b08 <_etoa>:


#if defined(PRINTF_SUPPORT_EXPONENTIAL)
// internal ftoa variant for exponential floating-point type, contributed by Martijn Jasperse <m.jasperse@gmail.com>
static size_t _etoa(out_fct_type out, char* buffer, size_t idx, size_t maxlen, double value, unsigned int prec, unsigned int width, unsigned int flags)
{
 8001b08:	e92d 4ff0 	stmdb	sp!, {r4, r5, r6, r7, r8, r9, sl, fp, lr}
 8001b0c:	b09d      	sub	sp, #116	; 0x74
 8001b0e:	af06      	add	r7, sp, #24
 8001b10:	61f8      	str	r0, [r7, #28]
 8001b12:	61b9      	str	r1, [r7, #24]
 8001b14:	617a      	str	r2, [r7, #20]
 8001b16:	613b      	str	r3, [r7, #16]
 8001b18:	ed87 0b02 	vstr	d0, [r7, #8]
  // check for NaN and special values
  if ((value != value) || (value > DBL_MAX) || (value < -DBL_MAX)) {
 8001b1c:	e9d7 2302 	ldrd	r2, r3, [r7, #8]
 8001b20:	e9d7 0102 	ldrd	r0, r1, [r7, #8]
 8001b24:	f7fe ff80 	bl	8000a28 <__aeabi_dcmpeq>
 8001b28:	4603      	mov	r3, r0
 8001b2a:	2b00      	cmp	r3, #0
 8001b2c:	d014      	beq.n	8001b58 <_etoa+0x50>
 8001b2e:	f04f 32ff 	mov.w	r2, #4294967295
 8001b32:	4bc9      	ldr	r3, [pc, #804]	; (8001e58 <_etoa+0x350>)
 8001b34:	e9d7 0102 	ldrd	r0, r1, [r7, #8]
 8001b38:	f7fe ff9e 	bl	8000a78 <__aeabi_dcmpgt>
 8001b3c:	4603      	mov	r3, r0
 8001b3e:	2b00      	cmp	r3, #0
 8001b40:	d10a      	bne.n	8001b58 <_etoa+0x50>
 8001b42:	f04f 32ff 	mov.w	r2, #4294967295
 8001b46:	f46f 1380 	mvn.w	r3, #1048576	; 0x100000
 8001b4a:	e9d7 0102 	ldrd	r0, r1, [r7, #8]
 8001b4e:	f7fe ff75 	bl	8000a3c <__aeabi_dcmplt>
 8001b52:	4603      	mov	r3, r0
 8001b54:	2b00      	cmp	r3, #0
 8001b56:	d012      	beq.n	8001b7e <_etoa+0x76>
    return _ftoa(out, buffer, idx, maxlen, value, prec, width, flags);
 8001b58:	f8d7 3088 	ldr.w	r3, [r7, #136]	; 0x88
 8001b5c:	9302      	str	r3, [sp, #8]
 8001b5e:	f8d7 3084 	ldr.w	r3, [r7, #132]	; 0x84
 8001b62:	9301      	str	r3, [sp, #4]
 8001b64:	f8d7 3080 	ldr.w	r3, [r7, #128]	; 0x80
 8001b68:	9300      	str	r3, [sp, #0]
 8001b6a:	ed97 0b02 	vldr	d0, [r7, #8]
 8001b6e:	693b      	ldr	r3, [r7, #16]
 8001b70:	697a      	ldr	r2, [r7, #20]
 8001b72:	69b9      	ldr	r1, [r7, #24]
 8001b74:	69f8      	ldr	r0, [r7, #28]
 8001b76:	f7ff fd5b 	bl	8001630 <_ftoa>
 8001b7a:	4603      	mov	r3, r0
 8001b7c:	e24f      	b.n	800201e <_etoa+0x516>
  }

  // determine the sign
  const bool negative = value < 0;
 8001b7e:	2301      	movs	r3, #1
 8001b80:	461c      	mov	r4, r3
 8001b82:	f04f 0200 	mov.w	r2, #0
 8001b86:	f04f 0300 	mov.w	r3, #0
 8001b8a:	e9d7 0102 	ldrd	r0, r1, [r7, #8]
 8001b8e:	f7fe ff55 	bl	8000a3c <__aeabi_dcmplt>
 8001b92:	4603      	mov	r3, r0
 8001b94:	2b00      	cmp	r3, #0
 8001b96:	d101      	bne.n	8001b9c <_etoa+0x94>
 8001b98:	2300      	movs	r3, #0
 8001b9a:	461c      	mov	r4, r3
 8001b9c:	f887 404b 	strb.w	r4, [r7, #75]	; 0x4b
  if (negative) {
 8001ba0:	f897 304b 	ldrb.w	r3, [r7, #75]	; 0x4b
 8001ba4:	2b00      	cmp	r3, #0
 8001ba6:	d005      	beq.n	8001bb4 <_etoa+0xac>
    value = -value;
 8001ba8:	68bb      	ldr	r3, [r7, #8]
 8001baa:	60bb      	str	r3, [r7, #8]
 8001bac:	68fb      	ldr	r3, [r7, #12]
 8001bae:	f083 4300 	eor.w	r3, r3, #2147483648	; 0x80000000
 8001bb2:	60fb      	str	r3, [r7, #12]
  }

  // default precision
  if (!(flags & FLAGS_PRECISION)) {
 8001bb4:	f8d7 3088 	ldr.w	r3, [r7, #136]	; 0x88
 8001bb8:	f403 6380 	and.w	r3, r3, #1024	; 0x400
 8001bbc:	2b00      	cmp	r3, #0
 8001bbe:	d102      	bne.n	8001bc6 <_etoa+0xbe>
    prec = PRINTF_DEFAULT_FLOAT_PRECISION;
 8001bc0:	2306      	movs	r3, #6
 8001bc2:	f8c7 3080 	str.w	r3, [r7, #128]	; 0x80
  union {
    uint64_t U;
    double   F;
  } conv;

  conv.F = value;
 8001bc6:	e9d7 3402 	ldrd	r3, r4, [r7, #8]
 8001bca:	e9c7 3408 	strd	r3, r4, [r7, #32]
  int exp2 = (int)((conv.U >> 52U) & 0x07FFU) - 1023;           // effectively log2
 8001bce:	e9d7 1208 	ldrd	r1, r2, [r7, #32]
 8001bd2:	f04f 0300 	mov.w	r3, #0
 8001bd6:	f04f 0400 	mov.w	r4, #0
 8001bda:	0d13      	lsrs	r3, r2, #20
 8001bdc:	2400      	movs	r4, #0
 8001bde:	f3c3 030a 	ubfx	r3, r3, #0, #11
 8001be2:	f2a3 33ff 	subw	r3, r3, #1023	; 0x3ff
 8001be6:	647b      	str	r3, [r7, #68]	; 0x44
  conv.U = (conv.U & ((1ULL << 52U) - 1U)) | (1023ULL << 52U);  // drop the exponent so conv.F is now in [1,2)
 8001be8:	e9d7 3408 	ldrd	r3, r4, [r7, #32]
 8001bec:	f04f 31ff 	mov.w	r1, #4294967295
 8001bf0:	4a9a      	ldr	r2, [pc, #616]	; (8001e5c <_etoa+0x354>)
 8001bf2:	ea03 0801 	and.w	r8, r3, r1
 8001bf6:	ea04 0902 	and.w	r9, r4, r2
 8001bfa:	f04f 0100 	mov.w	r1, #0
 8001bfe:	4a98      	ldr	r2, [pc, #608]	; (8001e60 <_etoa+0x358>)
 8001c00:	ea48 0301 	orr.w	r3, r8, r1
 8001c04:	ea49 0402 	orr.w	r4, r9, r2
 8001c08:	e9c7 3408 	strd	r3, r4, [r7, #32]
  // now approximate log10 from the log2 integer part and an expansion of ln around 1.5
  int expval = (int)(0.1760912590558 + exp2 * 0.301029995663981 + (conv.F - 1.5) * 0.289529654602168);
 8001c0c:	6c78      	ldr	r0, [r7, #68]	; 0x44
 8001c0e:	f7fe fc39 	bl	8000484 <__aeabi_i2d>
 8001c12:	a385      	add	r3, pc, #532	; (adr r3, 8001e28 <_etoa+0x320>)
 8001c14:	e9d3 2300 	ldrd	r2, r3, [r3]
 8001c18:	f7fe fc9e 	bl	8000558 <__aeabi_dmul>
 8001c1c:	4603      	mov	r3, r0
 8001c1e:	460c      	mov	r4, r1
 8001c20:	4618      	mov	r0, r3
 8001c22:	4621      	mov	r1, r4
 8001c24:	a382      	add	r3, pc, #520	; (adr r3, 8001e30 <_etoa+0x328>)
 8001c26:	e9d3 2300 	ldrd	r2, r3, [r3]
 8001c2a:	f7fe fadf 	bl	80001ec <__adddf3>
 8001c2e:	4603      	mov	r3, r0
 8001c30:	460c      	mov	r4, r1
 8001c32:	4698      	mov	r8, r3
 8001c34:	46a1      	mov	r9, r4
 8001c36:	e9d7 0108 	ldrd	r0, r1, [r7, #32]
 8001c3a:	f04f 0200 	mov.w	r2, #0
 8001c3e:	4b89      	ldr	r3, [pc, #548]	; (8001e64 <_etoa+0x35c>)
 8001c40:	f7fe fad2 	bl	80001e8 <__aeabi_dsub>
 8001c44:	4603      	mov	r3, r0
 8001c46:	460c      	mov	r4, r1
 8001c48:	4618      	mov	r0, r3
 8001c4a:	4621      	mov	r1, r4
 8001c4c:	a37a      	add	r3, pc, #488	; (adr r3, 8001e38 <_etoa+0x330>)
 8001c4e:	e9d3 2300 	ldrd	r2, r3, [r3]
 8001c52:	f7fe fc81 	bl	8000558 <__aeabi_dmul>
 8001c56:	4603      	mov	r3, r0
 8001c58:	460c      	mov	r4, r1
 8001c5a:	461a      	mov	r2, r3
 8001c5c:	4623      	mov	r3, r4
 8001c5e:	4640      	mov	r0, r8
 8001c60:	4649      	mov	r1, r9
 8001c62:	f7fe fac3 	bl	80001ec <__adddf3>
 8001c66:	4603      	mov	r3, r0
 8001c68:	460c      	mov	r4, r1
 8001c6a:	4618      	mov	r0, r3
 8001c6c:	4621      	mov	r1, r4
 8001c6e:	f7fe ff0d 	bl	8000a8c <__aeabi_d2iz>
 8001c72:	4603      	mov	r3, r0
 8001c74:	657b      	str	r3, [r7, #84]	; 0x54
  // now we want to compute 10^expval but we want to be sure it won't overflow
  exp2 = (int)(expval * 3.321928094887362 + 0.5);
 8001c76:	6d78      	ldr	r0, [r7, #84]	; 0x54
 8001c78:	f7fe fc04 	bl	8000484 <__aeabi_i2d>
 8001c7c:	a370      	add	r3, pc, #448	; (adr r3, 8001e40 <_etoa+0x338>)
 8001c7e:	e9d3 2300 	ldrd	r2, r3, [r3]
 8001c82:	f7fe fc69 	bl	8000558 <__aeabi_dmul>
 8001c86:	4603      	mov	r3, r0
 8001c88:	460c      	mov	r4, r1
 8001c8a:	4618      	mov	r0, r3
 8001c8c:	4621      	mov	r1, r4
 8001c8e:	f04f 0200 	mov.w	r2, #0
 8001c92:	4b75      	ldr	r3, [pc, #468]	; (8001e68 <_etoa+0x360>)
 8001c94:	f7fe faaa 	bl	80001ec <__adddf3>
 8001c98:	4603      	mov	r3, r0
 8001c9a:	460c      	mov	r4, r1
 8001c9c:	4618      	mov	r0, r3
 8001c9e:	4621      	mov	r1, r4
 8001ca0:	f7fe fef4 	bl	8000a8c <__aeabi_d2iz>
 8001ca4:	4603      	mov	r3, r0
 8001ca6:	647b      	str	r3, [r7, #68]	; 0x44
  const double z  = expval * 2.302585092994046 - exp2 * 0.6931471805599453;
 8001ca8:	6d78      	ldr	r0, [r7, #84]	; 0x54
 8001caa:	f7fe fbeb 	bl	8000484 <__aeabi_i2d>
 8001cae:	a366      	add	r3, pc, #408	; (adr r3, 8001e48 <_etoa+0x340>)
 8001cb0:	e9d3 2300 	ldrd	r2, r3, [r3]
 8001cb4:	f7fe fc50 	bl	8000558 <__aeabi_dmul>
 8001cb8:	4603      	mov	r3, r0
 8001cba:	460c      	mov	r4, r1
 8001cbc:	4698      	mov	r8, r3
 8001cbe:	46a1      	mov	r9, r4
 8001cc0:	6c78      	ldr	r0, [r7, #68]	; 0x44
 8001cc2:	f7fe fbdf 	bl	8000484 <__aeabi_i2d>
 8001cc6:	a362      	add	r3, pc, #392	; (adr r3, 8001e50 <_etoa+0x348>)
 8001cc8:	e9d3 2300 	ldrd	r2, r3, [r3]
 8001ccc:	f7fe fc44 	bl	8000558 <__aeabi_dmul>
 8001cd0:	4603      	mov	r3, r0
 8001cd2:	460c      	mov	r4, r1
 8001cd4:	461a      	mov	r2, r3
 8001cd6:	4623      	mov	r3, r4
 8001cd8:	4640      	mov	r0, r8
 8001cda:	4649      	mov	r1, r9
 8001cdc:	f7fe fa84 	bl	80001e8 <__aeabi_dsub>
 8001ce0:	4603      	mov	r3, r0
 8001ce2:	460c      	mov	r4, r1
 8001ce4:	e9c7 340e 	strd	r3, r4, [r7, #56]	; 0x38
  const double z2 = z * z;
 8001ce8:	e9d7 230e 	ldrd	r2, r3, [r7, #56]	; 0x38
 8001cec:	e9d7 010e 	ldrd	r0, r1, [r7, #56]	; 0x38
 8001cf0:	f7fe fc32 	bl	8000558 <__aeabi_dmul>
 8001cf4:	4603      	mov	r3, r0
 8001cf6:	460c      	mov	r4, r1
 8001cf8:	e9c7 340c 	strd	r3, r4, [r7, #48]	; 0x30
  conv.U = (uint64_t)(exp2 + 1023) << 52U;
 8001cfc:	6c7b      	ldr	r3, [r7, #68]	; 0x44
 8001cfe:	f203 33ff 	addw	r3, r3, #1023	; 0x3ff
 8001d02:	4619      	mov	r1, r3
 8001d04:	ea4f 72e1 	mov.w	r2, r1, asr #31
 8001d08:	f04f 0300 	mov.w	r3, #0
 8001d0c:	f04f 0400 	mov.w	r4, #0
 8001d10:	050c      	lsls	r4, r1, #20
 8001d12:	2300      	movs	r3, #0
 8001d14:	e9c7 3408 	strd	r3, r4, [r7, #32]
  // compute exp(z) using continued fractions, see https://en.wikipedia.org/wiki/Exponential_function#Continued_fractions_for_ex
  conv.F *= 1 + 2 * z / (2 - z + (z2 / (6 + (z2 / (10 + z2 / 14)))));
 8001d18:	e9d7 8908 	ldrd	r8, r9, [r7, #32]
 8001d1c:	e9d7 010e 	ldrd	r0, r1, [r7, #56]	; 0x38
 8001d20:	4602      	mov	r2, r0
 8001d22:	460b      	mov	r3, r1
 8001d24:	f7fe fa62 	bl	80001ec <__adddf3>
 8001d28:	4603      	mov	r3, r0
 8001d2a:	460c      	mov	r4, r1
 8001d2c:	469a      	mov	sl, r3
 8001d2e:	46a3      	mov	fp, r4
 8001d30:	e9d7 230e 	ldrd	r2, r3, [r7, #56]	; 0x38
 8001d34:	f04f 0000 	mov.w	r0, #0
 8001d38:	f04f 4180 	mov.w	r1, #1073741824	; 0x40000000
 8001d3c:	f7fe fa54 	bl	80001e8 <__aeabi_dsub>
 8001d40:	4603      	mov	r3, r0
 8001d42:	460c      	mov	r4, r1
 8001d44:	e9c7 3400 	strd	r3, r4, [r7]
 8001d48:	f04f 0200 	mov.w	r2, #0
 8001d4c:	4b47      	ldr	r3, [pc, #284]	; (8001e6c <_etoa+0x364>)
 8001d4e:	e9d7 010c 	ldrd	r0, r1, [r7, #48]	; 0x30
 8001d52:	f7fe fd2b 	bl	80007ac <__aeabi_ddiv>
 8001d56:	4603      	mov	r3, r0
 8001d58:	460c      	mov	r4, r1
 8001d5a:	4618      	mov	r0, r3
 8001d5c:	4621      	mov	r1, r4
 8001d5e:	f04f 0200 	mov.w	r2, #0
 8001d62:	4b43      	ldr	r3, [pc, #268]	; (8001e70 <_etoa+0x368>)
 8001d64:	f7fe fa42 	bl	80001ec <__adddf3>
 8001d68:	4603      	mov	r3, r0
 8001d6a:	460c      	mov	r4, r1
 8001d6c:	461a      	mov	r2, r3
 8001d6e:	4623      	mov	r3, r4
 8001d70:	e9d7 010c 	ldrd	r0, r1, [r7, #48]	; 0x30
 8001d74:	f7fe fd1a 	bl	80007ac <__aeabi_ddiv>
 8001d78:	4603      	mov	r3, r0
 8001d7a:	460c      	mov	r4, r1
 8001d7c:	4618      	mov	r0, r3
 8001d7e:	4621      	mov	r1, r4
 8001d80:	f04f 0200 	mov.w	r2, #0
 8001d84:	4b3b      	ldr	r3, [pc, #236]	; (8001e74 <_etoa+0x36c>)
 8001d86:	f7fe fa31 	bl	80001ec <__adddf3>
 8001d8a:	4603      	mov	r3, r0
 8001d8c:	460c      	mov	r4, r1
 8001d8e:	461a      	mov	r2, r3
 8001d90:	4623      	mov	r3, r4
 8001d92:	e9d7 010c 	ldrd	r0, r1, [r7, #48]	; 0x30
 8001d96:	f7fe fd09 	bl	80007ac <__aeabi_ddiv>
 8001d9a:	4603      	mov	r3, r0
 8001d9c:	460c      	mov	r4, r1
 8001d9e:	461a      	mov	r2, r3
 8001da0:	4623      	mov	r3, r4
 8001da2:	e9d7 0100 	ldrd	r0, r1, [r7]
 8001da6:	f7fe fa21 	bl	80001ec <__adddf3>
 8001daa:	4603      	mov	r3, r0
 8001dac:	460c      	mov	r4, r1
 8001dae:	461a      	mov	r2, r3
 8001db0:	4623      	mov	r3, r4
 8001db2:	4650      	mov	r0, sl
 8001db4:	4659      	mov	r1, fp
 8001db6:	f7fe fcf9 	bl	80007ac <__aeabi_ddiv>
 8001dba:	4603      	mov	r3, r0
 8001dbc:	460c      	mov	r4, r1
 8001dbe:	4618      	mov	r0, r3
 8001dc0:	4621      	mov	r1, r4
 8001dc2:	f04f 0200 	mov.w	r2, #0
 8001dc6:	4b26      	ldr	r3, [pc, #152]	; (8001e60 <_etoa+0x358>)
 8001dc8:	f7fe fa10 	bl	80001ec <__adddf3>
 8001dcc:	4603      	mov	r3, r0
 8001dce:	460c      	mov	r4, r1
 8001dd0:	461a      	mov	r2, r3
 8001dd2:	4623      	mov	r3, r4
 8001dd4:	4640      	mov	r0, r8
 8001dd6:	4649      	mov	r1, r9
 8001dd8:	f7fe fbbe 	bl	8000558 <__aeabi_dmul>
 8001ddc:	4603      	mov	r3, r0
 8001dde:	460c      	mov	r4, r1
 8001de0:	e9c7 3408 	strd	r3, r4, [r7, #32]
  // correct for rounding errors
  if (value < conv.F) {
 8001de4:	e9d7 3408 	ldrd	r3, r4, [r7, #32]
 8001de8:	461a      	mov	r2, r3
 8001dea:	4623      	mov	r3, r4
 8001dec:	e9d7 0102 	ldrd	r0, r1, [r7, #8]
 8001df0:	f7fe fe24 	bl	8000a3c <__aeabi_dcmplt>
 8001df4:	4603      	mov	r3, r0
 8001df6:	2b00      	cmp	r3, #0
 8001df8:	d00d      	beq.n	8001e16 <_etoa+0x30e>
    expval--;
 8001dfa:	6d7b      	ldr	r3, [r7, #84]	; 0x54
 8001dfc:	3b01      	subs	r3, #1
 8001dfe:	657b      	str	r3, [r7, #84]	; 0x54
    conv.F /= 10;
 8001e00:	e9d7 0108 	ldrd	r0, r1, [r7, #32]
 8001e04:	f04f 0200 	mov.w	r2, #0
 8001e08:	4b19      	ldr	r3, [pc, #100]	; (8001e70 <_etoa+0x368>)
 8001e0a:	f7fe fccf 	bl	80007ac <__aeabi_ddiv>
 8001e0e:	4603      	mov	r3, r0
 8001e10:	460c      	mov	r4, r1
 8001e12:	e9c7 3408 	strd	r3, r4, [r7, #32]
  }

  // the exponent format is "%+03d" and largest value is "307", so set aside 4-5 characters
  unsigned int minwidth = ((expval < 100) && (expval > -100)) ? 4U : 5U;
 8001e16:	6d7b      	ldr	r3, [r7, #84]	; 0x54
 8001e18:	2b63      	cmp	r3, #99	; 0x63
 8001e1a:	dc2d      	bgt.n	8001e78 <_etoa+0x370>
 8001e1c:	6d7b      	ldr	r3, [r7, #84]	; 0x54
 8001e1e:	f113 0f63 	cmn.w	r3, #99	; 0x63
 8001e22:	db29      	blt.n	8001e78 <_etoa+0x370>
 8001e24:	2304      	movs	r3, #4
 8001e26:	e028      	b.n	8001e7a <_etoa+0x372>
 8001e28:	509f79fb 	.word	0x509f79fb
 8001e2c:	3fd34413 	.word	0x3fd34413
 8001e30:	8b60c8b3 	.word	0x8b60c8b3
 8001e34:	3fc68a28 	.word	0x3fc68a28
 8001e38:	636f4361 	.word	0x636f4361
 8001e3c:	3fd287a7 	.word	0x3fd287a7
 8001e40:	0979a371 	.word	0x0979a371
 8001e44:	400a934f 	.word	0x400a934f
 8001e48:	bbb55516 	.word	0xbbb55516
 8001e4c:	40026bb1 	.word	0x40026bb1
 8001e50:	fefa39ef 	.word	0xfefa39ef
 8001e54:	3fe62e42 	.word	0x3fe62e42
 8001e58:	7fefffff 	.word	0x7fefffff
 8001e5c:	000fffff 	.word	0x000fffff
 8001e60:	3ff00000 	.word	0x3ff00000
 8001e64:	3ff80000 	.word	0x3ff80000
 8001e68:	3fe00000 	.word	0x3fe00000
 8001e6c:	402c0000 	.word	0x402c0000
 8001e70:	40240000 	.word	0x40240000
 8001e74:	40180000 	.word	0x40180000
 8001e78:	2305      	movs	r3, #5
 8001e7a:	653b      	str	r3, [r7, #80]	; 0x50

  // in "%g" mode, "prec" is the number of *significant figures* not decimals
  if (flags & FLAGS_ADAPT_EXP) {
 8001e7c:	f8d7 3088 	ldr.w	r3, [r7, #136]	; 0x88
 8001e80:	f403 6300 	and.w	r3, r3, #2048	; 0x800
 8001e84:	2b00      	cmp	r3, #0
 8001e86:	d03d      	beq.n	8001f04 <_etoa+0x3fc>
    // do we want to fall-back to "%f" mode?
    if ((value >= 1e-4) && (value < 1e6)) {
 8001e88:	a367      	add	r3, pc, #412	; (adr r3, 8002028 <_etoa+0x520>)
 8001e8a:	e9d3 2300 	ldrd	r2, r3, [r3]
 8001e8e:	e9d7 0102 	ldrd	r0, r1, [r7, #8]
 8001e92:	f7fe fde7 	bl	8000a64 <__aeabi_dcmpge>
 8001e96:	4603      	mov	r3, r0
 8001e98:	2b00      	cmp	r3, #0
 8001e9a:	d024      	beq.n	8001ee6 <_etoa+0x3de>
 8001e9c:	a364      	add	r3, pc, #400	; (adr r3, 8002030 <_etoa+0x528>)
 8001e9e:	e9d3 2300 	ldrd	r2, r3, [r3]
 8001ea2:	e9d7 0102 	ldrd	r0, r1, [r7, #8]
 8001ea6:	f7fe fdc9 	bl	8000a3c <__aeabi_dcmplt>
 8001eaa:	4603      	mov	r3, r0
 8001eac:	2b00      	cmp	r3, #0
 8001eae:	d01a      	beq.n	8001ee6 <_etoa+0x3de>
      if ((int)prec > expval) {
 8001eb0:	f8d7 3080 	ldr.w	r3, [r7, #128]	; 0x80
 8001eb4:	6d7a      	ldr	r2, [r7, #84]	; 0x54
 8001eb6:	429a      	cmp	r2, r3
 8001eb8:	da07      	bge.n	8001eca <_etoa+0x3c2>
        prec = (unsigned)((int)prec - expval - 1);
 8001eba:	f8d7 2080 	ldr.w	r2, [r7, #128]	; 0x80
 8001ebe:	6d7b      	ldr	r3, [r7, #84]	; 0x54
 8001ec0:	1ad3      	subs	r3, r2, r3
 8001ec2:	3b01      	subs	r3, #1
 8001ec4:	f8c7 3080 	str.w	r3, [r7, #128]	; 0x80
 8001ec8:	e002      	b.n	8001ed0 <_etoa+0x3c8>
      }
      else {
        prec = 0;
 8001eca:	2300      	movs	r3, #0
 8001ecc:	f8c7 3080 	str.w	r3, [r7, #128]	; 0x80
      }
      flags |= FLAGS_PRECISION;   // make sure _ftoa respects precision
 8001ed0:	f8d7 3088 	ldr.w	r3, [r7, #136]	; 0x88
 8001ed4:	f443 6380 	orr.w	r3, r3, #1024	; 0x400
 8001ed8:	f8c7 3088 	str.w	r3, [r7, #136]	; 0x88
      // no characters in exponent
      minwidth = 0U;
 8001edc:	2300      	movs	r3, #0
 8001ede:	653b      	str	r3, [r7, #80]	; 0x50
      expval   = 0;
 8001ee0:	2300      	movs	r3, #0
 8001ee2:	657b      	str	r3, [r7, #84]	; 0x54
 8001ee4:	e00e      	b.n	8001f04 <_etoa+0x3fc>
    }
    else {
      // we use one sigfig for the whole part
      if ((prec > 0) && (flags & FLAGS_PRECISION)) {
 8001ee6:	f8d7 3080 	ldr.w	r3, [r7, #128]	; 0x80
 8001eea:	2b00      	cmp	r3, #0
 8001eec:	d00a      	beq.n	8001f04 <_etoa+0x3fc>
 8001eee:	f8d7 3088 	ldr.w	r3, [r7, #136]	; 0x88
 8001ef2:	f403 6380 	and.w	r3, r3, #1024	; 0x400
 8001ef6:	2b00      	cmp	r3, #0
 8001ef8:	d004      	beq.n	8001f04 <_etoa+0x3fc>
        --prec;
 8001efa:	f8d7 3080 	ldr.w	r3, [r7, #128]	; 0x80
 8001efe:	3b01      	subs	r3, #1
 8001f00:	f8c7 3080 	str.w	r3, [r7, #128]	; 0x80
      }
    }
  }

  // will everything fit?
  unsigned int fwidth = width;
 8001f04:	f8d7 3084 	ldr.w	r3, [r7, #132]	; 0x84
 8001f08:	64fb      	str	r3, [r7, #76]	; 0x4c
  if (width > minwidth) {
 8001f0a:	f8d7 2084 	ldr.w	r2, [r7, #132]	; 0x84
 8001f0e:	6d3b      	ldr	r3, [r7, #80]	; 0x50
 8001f10:	429a      	cmp	r2, r3
 8001f12:	d904      	bls.n	8001f1e <_etoa+0x416>
    // we didn't fall-back so subtract the characters required for the exponent
    fwidth -= minwidth;
 8001f14:	6cfa      	ldr	r2, [r7, #76]	; 0x4c
 8001f16:	6d3b      	ldr	r3, [r7, #80]	; 0x50
 8001f18:	1ad3      	subs	r3, r2, r3
 8001f1a:	64fb      	str	r3, [r7, #76]	; 0x4c
 8001f1c:	e001      	b.n	8001f22 <_etoa+0x41a>
  } else {
    // not enough characters, so go back to default sizing
    fwidth = 0U;
 8001f1e:	2300      	movs	r3, #0
 8001f20:	64fb      	str	r3, [r7, #76]	; 0x4c
  }
  if ((flags & FLAGS_LEFT) && minwidth) {
 8001f22:	f8d7 3088 	ldr.w	r3, [r7, #136]	; 0x88
 8001f26:	f003 0302 	and.w	r3, r3, #2
 8001f2a:	2b00      	cmp	r3, #0
 8001f2c:	d004      	beq.n	8001f38 <_etoa+0x430>
 8001f2e:	6d3b      	ldr	r3, [r7, #80]	; 0x50
 8001f30:	2b00      	cmp	r3, #0
 8001f32:	d001      	beq.n	8001f38 <_etoa+0x430>
    // if we're padding on the right, DON'T pad the floating part
    fwidth = 0U;
 8001f34:	2300      	movs	r3, #0
 8001f36:	64fb      	str	r3, [r7, #76]	; 0x4c
  }

  // rescale the float value
  if (expval) {
 8001f38:	6d7b      	ldr	r3, [r7, #84]	; 0x54
 8001f3a:	2b00      	cmp	r3, #0
 8001f3c:	d00b      	beq.n	8001f56 <_etoa+0x44e>
    value /= conv.F;
 8001f3e:	e9d7 3408 	ldrd	r3, r4, [r7, #32]
 8001f42:	461a      	mov	r2, r3
 8001f44:	4623      	mov	r3, r4
 8001f46:	e9d7 0102 	ldrd	r0, r1, [r7, #8]
 8001f4a:	f7fe fc2f 	bl	80007ac <__aeabi_ddiv>
 8001f4e:	4603      	mov	r3, r0
 8001f50:	460c      	mov	r4, r1
 8001f52:	e9c7 3402 	strd	r3, r4, [r7, #8]
  }

  // output the floating part
  const size_t start_idx = idx;
 8001f56:	697b      	ldr	r3, [r7, #20]
 8001f58:	62fb      	str	r3, [r7, #44]	; 0x2c
  idx = _ftoa(out, buffer, idx, maxlen, negative ? -value : value, prec, fwidth, flags & ~FLAGS_ADAPT_EXP);
 8001f5a:	f897 304b 	ldrb.w	r3, [r7, #75]	; 0x4b
 8001f5e:	2b00      	cmp	r3, #0
 8001f60:	d004      	beq.n	8001f6c <_etoa+0x464>
 8001f62:	68bd      	ldr	r5, [r7, #8]
 8001f64:	68fb      	ldr	r3, [r7, #12]
 8001f66:	f083 4600 	eor.w	r6, r3, #2147483648	; 0x80000000
 8001f6a:	e001      	b.n	8001f70 <_etoa+0x468>
 8001f6c:	e9d7 5602 	ldrd	r5, r6, [r7, #8]
 8001f70:	f8d7 3088 	ldr.w	r3, [r7, #136]	; 0x88
 8001f74:	f423 6300 	bic.w	r3, r3, #2048	; 0x800
 8001f78:	9302      	str	r3, [sp, #8]
 8001f7a:	6cfb      	ldr	r3, [r7, #76]	; 0x4c
 8001f7c:	9301      	str	r3, [sp, #4]
 8001f7e:	f8d7 3080 	ldr.w	r3, [r7, #128]	; 0x80
 8001f82:	9300      	str	r3, [sp, #0]
 8001f84:	ec46 5b10 	vmov	d0, r5, r6
 8001f88:	693b      	ldr	r3, [r7, #16]
 8001f8a:	697a      	ldr	r2, [r7, #20]
 8001f8c:	69b9      	ldr	r1, [r7, #24]
 8001f8e:	69f8      	ldr	r0, [r7, #28]
 8001f90:	f7ff fb4e 	bl	8001630 <_ftoa>
 8001f94:	6178      	str	r0, [r7, #20]

  // output the exponent part
  if (minwidth) {
 8001f96:	6d3b      	ldr	r3, [r7, #80]	; 0x50
 8001f98:	2b00      	cmp	r3, #0
 8001f9a:	d03f      	beq.n	800201c <_etoa+0x514>
    // output the exponential symbol
    out((flags & FLAGS_UPPERCASE) ? 'E' : 'e', buffer, idx++, maxlen);
 8001f9c:	f8d7 3088 	ldr.w	r3, [r7, #136]	; 0x88
 8001fa0:	f003 0320 	and.w	r3, r3, #32
 8001fa4:	2b00      	cmp	r3, #0
 8001fa6:	d001      	beq.n	8001fac <_etoa+0x4a4>
 8001fa8:	2045      	movs	r0, #69	; 0x45
 8001faa:	e000      	b.n	8001fae <_etoa+0x4a6>
 8001fac:	2065      	movs	r0, #101	; 0x65
 8001fae:	697a      	ldr	r2, [r7, #20]
 8001fb0:	1c53      	adds	r3, r2, #1
 8001fb2:	617b      	str	r3, [r7, #20]
 8001fb4:	69fc      	ldr	r4, [r7, #28]
 8001fb6:	693b      	ldr	r3, [r7, #16]
 8001fb8:	69b9      	ldr	r1, [r7, #24]
 8001fba:	47a0      	blx	r4
    // output the exponent value
    idx = _ntoa_long(out, buffer, idx, maxlen, (expval < 0) ? -expval : expval, expval < 0, 10, 0, minwidth-1, FLAGS_ZEROPAD | FLAGS_PLUS);
 8001fbc:	6d7b      	ldr	r3, [r7, #84]	; 0x54
 8001fbe:	2b00      	cmp	r3, #0
 8001fc0:	bfb8      	it	lt
 8001fc2:	425b      	neglt	r3, r3
 8001fc4:	4618      	mov	r0, r3
 8001fc6:	6d7b      	ldr	r3, [r7, #84]	; 0x54
 8001fc8:	0fdb      	lsrs	r3, r3, #31
 8001fca:	b2db      	uxtb	r3, r3
 8001fcc:	6d3a      	ldr	r2, [r7, #80]	; 0x50
 8001fce:	3a01      	subs	r2, #1
 8001fd0:	2105      	movs	r1, #5
 8001fd2:	9105      	str	r1, [sp, #20]
 8001fd4:	9204      	str	r2, [sp, #16]
 8001fd6:	2200      	movs	r2, #0
 8001fd8:	9203      	str	r2, [sp, #12]
 8001fda:	220a      	movs	r2, #10
 8001fdc:	9202      	str	r2, [sp, #8]
 8001fde:	9301      	str	r3, [sp, #4]
 8001fe0:	9000      	str	r0, [sp, #0]
 8001fe2:	693b      	ldr	r3, [r7, #16]
 8001fe4:	697a      	ldr	r2, [r7, #20]
 8001fe6:	69b9      	ldr	r1, [r7, #24]
 8001fe8:	69f8      	ldr	r0, [r7, #28]
 8001fea:	f7ff fa48 	bl	800147e <_ntoa_long>
 8001fee:	6178      	str	r0, [r7, #20]
    // might need to right-pad spaces
    if (flags & FLAGS_LEFT) {
 8001ff0:	f8d7 3088 	ldr.w	r3, [r7, #136]	; 0x88
 8001ff4:	f003 0302 	and.w	r3, r3, #2
 8001ff8:	2b00      	cmp	r3, #0
 8001ffa:	d00f      	beq.n	800201c <_etoa+0x514>
      while (idx - start_idx < width) out(' ', buffer, idx++, maxlen);
 8001ffc:	e007      	b.n	800200e <_etoa+0x506>
 8001ffe:	697a      	ldr	r2, [r7, #20]
 8002000:	1c53      	adds	r3, r2, #1
 8002002:	617b      	str	r3, [r7, #20]
 8002004:	69fc      	ldr	r4, [r7, #28]
 8002006:	693b      	ldr	r3, [r7, #16]
 8002008:	69b9      	ldr	r1, [r7, #24]
 800200a:	2020      	movs	r0, #32
 800200c:	47a0      	blx	r4
 800200e:	697a      	ldr	r2, [r7, #20]
 8002010:	6afb      	ldr	r3, [r7, #44]	; 0x2c
 8002012:	1ad3      	subs	r3, r2, r3
 8002014:	f8d7 2084 	ldr.w	r2, [r7, #132]	; 0x84
 8002018:	429a      	cmp	r2, r3
 800201a:	d8f0      	bhi.n	8001ffe <_etoa+0x4f6>
    }
  }
  return idx;
 800201c:	697b      	ldr	r3, [r7, #20]
}
 800201e:	4618      	mov	r0, r3
 8002020:	375c      	adds	r7, #92	; 0x5c
 8002022:	46bd      	mov	sp, r7
 8002024:	e8bd 8ff0 	ldmia.w	sp!, {r4, r5, r6, r7, r8, r9, sl, fp, pc}
 8002028:	eb1c432d 	.word	0xeb1c432d
 800202c:	3f1a36e2 	.word	0x3f1a36e2
 8002030:	00000000 	.word	0x00000000
 8002034:	412e8480 	.word	0x412e8480

08002038 <_vsnprintf>:
#endif  // PRINTF_SUPPORT_FLOAT


// internal vsnprintf
static int _vsnprintf(out_fct_type out, char* buffer, const size_t maxlen, const char* format, va_list va)
{
 8002038:	b5b0      	push	{r4, r5, r7, lr}
 800203a:	b0a0      	sub	sp, #128	; 0x80
 800203c:	af0a      	add	r7, sp, #40	; 0x28
 800203e:	60f8      	str	r0, [r7, #12]
 8002040:	60b9      	str	r1, [r7, #8]
 8002042:	607a      	str	r2, [r7, #4]
 8002044:	603b      	str	r3, [r7, #0]
  unsigned int flags, width, precision, n;
  size_t idx = 0U;
 8002046:	2300      	movs	r3, #0
 8002048:	647b      	str	r3, [r7, #68]	; 0x44

  if (!buffer) {
 800204a:	68bb      	ldr	r3, [r7, #8]
 800204c:	2b00      	cmp	r3, #0
 800204e:	f040 8492 	bne.w	8002976 <_vsnprintf+0x93e>
    // use null output function
    out = _out_null;
 8002052:	4ba0      	ldr	r3, [pc, #640]	; (80022d4 <_vsnprintf+0x29c>)
 8002054:	60fb      	str	r3, [r7, #12]
  }

  while (*format)
 8002056:	f000 bc8e 	b.w	8002976 <_vsnprintf+0x93e>
  {
    // format specifier?  %[flags][width][.precision][length]
    if (*format != '%') {
 800205a:	683b      	ldr	r3, [r7, #0]
 800205c:	781b      	ldrb	r3, [r3, #0]
 800205e:	2b25      	cmp	r3, #37	; 0x25
 8002060:	d00d      	beq.n	800207e <_vsnprintf+0x46>
      // no
      out(*format, buffer, idx++, maxlen);
 8002062:	683b      	ldr	r3, [r7, #0]
 8002064:	7818      	ldrb	r0, [r3, #0]
 8002066:	6c7a      	ldr	r2, [r7, #68]	; 0x44
 8002068:	1c53      	adds	r3, r2, #1
 800206a:	647b      	str	r3, [r7, #68]	; 0x44
 800206c:	68fc      	ldr	r4, [r7, #12]
 800206e:	687b      	ldr	r3, [r7, #4]
 8002070:	68b9      	ldr	r1, [r7, #8]
 8002072:	47a0      	blx	r4
      format++;
 8002074:	683b      	ldr	r3, [r7, #0]
 8002076:	3301      	adds	r3, #1
 8002078:	603b      	str	r3, [r7, #0]
      continue;
 800207a:	f000 bc7c 	b.w	8002976 <_vsnprintf+0x93e>
    }
    else {
      // yes, evaluate it
      format++;
 800207e:	683b      	ldr	r3, [r7, #0]
 8002080:	3301      	adds	r3, #1
 8002082:	603b      	str	r3, [r7, #0]
    }

    // evaluate flags
    flags = 0U;
 8002084:	2300      	movs	r3, #0
 8002086:	657b      	str	r3, [r7, #84]	; 0x54
    do {
      switch (*format) {
 8002088:	683b      	ldr	r3, [r7, #0]
 800208a:	781b      	ldrb	r3, [r3, #0]
 800208c:	3b20      	subs	r3, #32
 800208e:	2b10      	cmp	r3, #16
 8002090:	d856      	bhi.n	8002140 <_vsnprintf+0x108>
 8002092:	a201      	add	r2, pc, #4	; (adr r2, 8002098 <_vsnprintf+0x60>)
 8002094:	f852 f023 	ldr.w	pc, [r2, r3, lsl #2]
 8002098:	08002119 	.word	0x08002119
 800209c:	08002141 	.word	0x08002141
 80020a0:	08002141 	.word	0x08002141
 80020a4:	0800212d 	.word	0x0800212d
 80020a8:	08002141 	.word	0x08002141
 80020ac:	08002141 	.word	0x08002141
 80020b0:	08002141 	.word	0x08002141
 80020b4:	08002141 	.word	0x08002141
 80020b8:	08002141 	.word	0x08002141
 80020bc:	08002141 	.word	0x08002141
 80020c0:	08002141 	.word	0x08002141
 80020c4:	08002105 	.word	0x08002105
 80020c8:	08002141 	.word	0x08002141
 80020cc:	080020f1 	.word	0x080020f1
 80020d0:	08002141 	.word	0x08002141
 80020d4:	08002141 	.word	0x08002141
 80020d8:	080020dd 	.word	0x080020dd
        case '0': flags |= FLAGS_ZEROPAD; format++; n = 1U; break;
 80020dc:	6d7b      	ldr	r3, [r7, #84]	; 0x54
 80020de:	f043 0301 	orr.w	r3, r3, #1
 80020e2:	657b      	str	r3, [r7, #84]	; 0x54
 80020e4:	683b      	ldr	r3, [r7, #0]
 80020e6:	3301      	adds	r3, #1
 80020e8:	603b      	str	r3, [r7, #0]
 80020ea:	2301      	movs	r3, #1
 80020ec:	64bb      	str	r3, [r7, #72]	; 0x48
 80020ee:	e02a      	b.n	8002146 <_vsnprintf+0x10e>
        case '-': flags |= FLAGS_LEFT;    format++; n = 1U; break;
 80020f0:	6d7b      	ldr	r3, [r7, #84]	; 0x54
 80020f2:	f043 0302 	orr.w	r3, r3, #2
 80020f6:	657b      	str	r3, [r7, #84]	; 0x54
 80020f8:	683b      	ldr	r3, [r7, #0]
 80020fa:	3301      	adds	r3, #1
 80020fc:	603b      	str	r3, [r7, #0]
 80020fe:	2301      	movs	r3, #1
 8002100:	64bb      	str	r3, [r7, #72]	; 0x48
 8002102:	e020      	b.n	8002146 <_vsnprintf+0x10e>
        case '+': flags |= FLAGS_PLUS;    format++; n = 1U; break;
 8002104:	6d7b      	ldr	r3, [r7, #84]	; 0x54
 8002106:	f043 0304 	orr.w	r3, r3, #4
 800210a:	657b      	str	r3, [r7, #84]	; 0x54
 800210c:	683b      	ldr	r3, [r7, #0]
 800210e:	3301      	adds	r3, #1
 8002110:	603b      	str	r3, [r7, #0]
 8002112:	2301      	movs	r3, #1
 8002114:	64bb      	str	r3, [r7, #72]	; 0x48
 8002116:	e016      	b.n	8002146 <_vsnprintf+0x10e>
        case ' ': flags |= FLAGS_SPACE;   format++; n = 1U; break;
 8002118:	6d7b      	ldr	r3, [r7, #84]	; 0x54
 800211a:	f043 0308 	orr.w	r3, r3, #8
 800211e:	657b      	str	r3, [r7, #84]	; 0x54
 8002120:	683b      	ldr	r3, [r7, #0]
 8002122:	3301      	adds	r3, #1
 8002124:	603b      	str	r3, [r7, #0]
 8002126:	2301      	movs	r3, #1
 8002128:	64bb      	str	r3, [r7, #72]	; 0x48
 800212a:	e00c      	b.n	8002146 <_vsnprintf+0x10e>
        case '#': flags |= FLAGS_HASH;    format++; n = 1U; break;
 800212c:	6d7b      	ldr	r3, [r7, #84]	; 0x54
 800212e:	f043 0310 	orr.w	r3, r3, #16
 8002132:	657b      	str	r3, [r7, #84]	; 0x54
 8002134:	683b      	ldr	r3, [r7, #0]
 8002136:	3301      	adds	r3, #1
 8002138:	603b      	str	r3, [r7, #0]
 800213a:	2301      	movs	r3, #1
 800213c:	64bb      	str	r3, [r7, #72]	; 0x48
 800213e:	e002      	b.n	8002146 <_vsnprintf+0x10e>
        default :                                   n = 0U; break;
 8002140:	2300      	movs	r3, #0
 8002142:	64bb      	str	r3, [r7, #72]	; 0x48
 8002144:	bf00      	nop
      }
    } while (n);
 8002146:	6cbb      	ldr	r3, [r7, #72]	; 0x48
 8002148:	2b00      	cmp	r3, #0
 800214a:	d19d      	bne.n	8002088 <_vsnprintf+0x50>

    // evaluate width field
    width = 0U;
 800214c:	2300      	movs	r3, #0
 800214e:	653b      	str	r3, [r7, #80]	; 0x50
    if (_is_digit(*format)) {
 8002150:	683b      	ldr	r3, [r7, #0]
 8002152:	781b      	ldrb	r3, [r3, #0]
 8002154:	4618      	mov	r0, r3
 8002156:	f7ff f82b 	bl	80011b0 <_is_digit>
 800215a:	4603      	mov	r3, r0
 800215c:	2b00      	cmp	r3, #0
 800215e:	d005      	beq.n	800216c <_vsnprintf+0x134>
      width = _atoi(&format);
 8002160:	463b      	mov	r3, r7
 8002162:	4618      	mov	r0, r3
 8002164:	f7ff f83b 	bl	80011de <_atoi>
 8002168:	6538      	str	r0, [r7, #80]	; 0x50
 800216a:	e018      	b.n	800219e <_vsnprintf+0x166>
    }
    else if (*format == '*') {
 800216c:	683b      	ldr	r3, [r7, #0]
 800216e:	781b      	ldrb	r3, [r3, #0]
 8002170:	2b2a      	cmp	r3, #42	; 0x2a
 8002172:	d114      	bne.n	800219e <_vsnprintf+0x166>
      const int w = va_arg(va, int);
 8002174:	6ebb      	ldr	r3, [r7, #104]	; 0x68
 8002176:	1d1a      	adds	r2, r3, #4
 8002178:	66ba      	str	r2, [r7, #104]	; 0x68
 800217a:	681b      	ldr	r3, [r3, #0]
 800217c:	633b      	str	r3, [r7, #48]	; 0x30
      if (w < 0) {
 800217e:	6b3b      	ldr	r3, [r7, #48]	; 0x30
 8002180:	2b00      	cmp	r3, #0
 8002182:	da07      	bge.n	8002194 <_vsnprintf+0x15c>
        flags |= FLAGS_LEFT;    // reverse padding
 8002184:	6d7b      	ldr	r3, [r7, #84]	; 0x54
 8002186:	f043 0302 	orr.w	r3, r3, #2
 800218a:	657b      	str	r3, [r7, #84]	; 0x54
        width = (unsigned int)-w;
 800218c:	6b3b      	ldr	r3, [r7, #48]	; 0x30
 800218e:	425b      	negs	r3, r3
 8002190:	653b      	str	r3, [r7, #80]	; 0x50
 8002192:	e001      	b.n	8002198 <_vsnprintf+0x160>
      }
      else {
        width = (unsigned int)w;
 8002194:	6b3b      	ldr	r3, [r7, #48]	; 0x30
 8002196:	653b      	str	r3, [r7, #80]	; 0x50
      }
      format++;
 8002198:	683b      	ldr	r3, [r7, #0]
 800219a:	3301      	adds	r3, #1
 800219c:	603b      	str	r3, [r7, #0]
    }

    // evaluate precision field
    precision = 0U;
 800219e:	2300      	movs	r3, #0
 80021a0:	64fb      	str	r3, [r7, #76]	; 0x4c
    if (*format == '.') {
 80021a2:	683b      	ldr	r3, [r7, #0]
 80021a4:	781b      	ldrb	r3, [r3, #0]
 80021a6:	2b2e      	cmp	r3, #46	; 0x2e
 80021a8:	d124      	bne.n	80021f4 <_vsnprintf+0x1bc>
      flags |= FLAGS_PRECISION;
 80021aa:	6d7b      	ldr	r3, [r7, #84]	; 0x54
 80021ac:	f443 6380 	orr.w	r3, r3, #1024	; 0x400
 80021b0:	657b      	str	r3, [r7, #84]	; 0x54
      format++;
 80021b2:	683b      	ldr	r3, [r7, #0]
 80021b4:	3301      	adds	r3, #1
 80021b6:	603b      	str	r3, [r7, #0]
      if (_is_digit(*format)) {
 80021b8:	683b      	ldr	r3, [r7, #0]
 80021ba:	781b      	ldrb	r3, [r3, #0]
 80021bc:	4618      	mov	r0, r3
 80021be:	f7fe fff7 	bl	80011b0 <_is_digit>
 80021c2:	4603      	mov	r3, r0
 80021c4:	2b00      	cmp	r3, #0
 80021c6:	d005      	beq.n	80021d4 <_vsnprintf+0x19c>
        precision = _atoi(&format);
 80021c8:	463b      	mov	r3, r7
 80021ca:	4618      	mov	r0, r3
 80021cc:	f7ff f807 	bl	80011de <_atoi>
 80021d0:	64f8      	str	r0, [r7, #76]	; 0x4c
 80021d2:	e00f      	b.n	80021f4 <_vsnprintf+0x1bc>
      }
      else if (*format == '*') {
 80021d4:	683b      	ldr	r3, [r7, #0]
 80021d6:	781b      	ldrb	r3, [r3, #0]
 80021d8:	2b2a      	cmp	r3, #42	; 0x2a
 80021da:	d10b      	bne.n	80021f4 <_vsnprintf+0x1bc>
        const int prec = (int)va_arg(va, int);
 80021dc:	6ebb      	ldr	r3, [r7, #104]	; 0x68
 80021de:	1d1a      	adds	r2, r3, #4
 80021e0:	66ba      	str	r2, [r7, #104]	; 0x68
 80021e2:	681b      	ldr	r3, [r3, #0]
 80021e4:	62fb      	str	r3, [r7, #44]	; 0x2c
        precision = prec > 0 ? (unsigned int)prec : 0U;
 80021e6:	6afb      	ldr	r3, [r7, #44]	; 0x2c
 80021e8:	ea23 73e3 	bic.w	r3, r3, r3, asr #31
 80021ec:	64fb      	str	r3, [r7, #76]	; 0x4c
        format++;
 80021ee:	683b      	ldr	r3, [r7, #0]
 80021f0:	3301      	adds	r3, #1
 80021f2:	603b      	str	r3, [r7, #0]
      }
    }

    // evaluate length field
    switch (*format) {
 80021f4:	683b      	ldr	r3, [r7, #0]
 80021f6:	781b      	ldrb	r3, [r3, #0]
 80021f8:	3b68      	subs	r3, #104	; 0x68
 80021fa:	2b12      	cmp	r3, #18
 80021fc:	d866      	bhi.n	80022cc <_vsnprintf+0x294>
 80021fe:	a201      	add	r2, pc, #4	; (adr r2, 8002204 <_vsnprintf+0x1cc>)
 8002200:	f852 f023 	ldr.w	pc, [r2, r3, lsl #2]
 8002204:	08002277 	.word	0x08002277
 8002208:	080022cd 	.word	0x080022cd
 800220c:	080022ad 	.word	0x080022ad
 8002210:	080022cd 	.word	0x080022cd
 8002214:	08002251 	.word	0x08002251
 8002218:	080022cd 	.word	0x080022cd
 800221c:	080022cd 	.word	0x080022cd
 8002220:	080022cd 	.word	0x080022cd
 8002224:	080022cd 	.word	0x080022cd
 8002228:	080022cd 	.word	0x080022cd
 800222c:	080022cd 	.word	0x080022cd
 8002230:	080022cd 	.word	0x080022cd
 8002234:	0800229d 	.word	0x0800229d
 8002238:	080022cd 	.word	0x080022cd
 800223c:	080022cd 	.word	0x080022cd
 8002240:	080022cd 	.word	0x080022cd
 8002244:	080022cd 	.word	0x080022cd
 8002248:	080022cd 	.word	0x080022cd
 800224c:	080022bd 	.word	0x080022bd
      case 'l' :
        flags |= FLAGS_LONG;
 8002250:	6d7b      	ldr	r3, [r7, #84]	; 0x54
 8002252:	f443 7380 	orr.w	r3, r3, #256	; 0x100
 8002256:	657b      	str	r3, [r7, #84]	; 0x54
        format++;
 8002258:	683b      	ldr	r3, [r7, #0]
 800225a:	3301      	adds	r3, #1
 800225c:	603b      	str	r3, [r7, #0]
        if (*format == 'l') {
 800225e:	683b      	ldr	r3, [r7, #0]
 8002260:	781b      	ldrb	r3, [r3, #0]
 8002262:	2b6c      	cmp	r3, #108	; 0x6c
 8002264:	d134      	bne.n	80022d0 <_vsnprintf+0x298>
          flags |= FLAGS_LONG_LONG;
 8002266:	6d7b      	ldr	r3, [r7, #84]	; 0x54
 8002268:	f443 7300 	orr.w	r3, r3, #512	; 0x200
 800226c:	657b      	str	r3, [r7, #84]	; 0x54
          format++;
 800226e:	683b      	ldr	r3, [r7, #0]
 8002270:	3301      	adds	r3, #1
 8002272:	603b      	str	r3, [r7, #0]
        }
        break;
 8002274:	e02c      	b.n	80022d0 <_vsnprintf+0x298>
      case 'h' :
        flags |= FLAGS_SHORT;
 8002276:	6d7b      	ldr	r3, [r7, #84]	; 0x54
 8002278:	f043 0380 	orr.w	r3, r3, #128	; 0x80
 800227c:	657b      	str	r3, [r7, #84]	; 0x54
        format++;
 800227e:	683b      	ldr	r3, [r7, #0]
 8002280:	3301      	adds	r3, #1
 8002282:	603b      	str	r3, [r7, #0]
        if (*format == 'h') {
 8002284:	683b      	ldr	r3, [r7, #0]
 8002286:	781b      	ldrb	r3, [r3, #0]
 8002288:	2b68      	cmp	r3, #104	; 0x68
 800228a:	d125      	bne.n	80022d8 <_vsnprintf+0x2a0>
          flags |= FLAGS_CHAR;
 800228c:	6d7b      	ldr	r3, [r7, #84]	; 0x54
 800228e:	f043 0340 	orr.w	r3, r3, #64	; 0x40
 8002292:	657b      	str	r3, [r7, #84]	; 0x54
          format++;
 8002294:	683b      	ldr	r3, [r7, #0]
 8002296:	3301      	adds	r3, #1
 8002298:	603b      	str	r3, [r7, #0]
        }
        break;
 800229a:	e01d      	b.n	80022d8 <_vsnprintf+0x2a0>
#if defined(PRINTF_SUPPORT_PTRDIFF_T)
      case 't' :
        flags |= (sizeof(ptrdiff_t) == sizeof(long) ? FLAGS_LONG : FLAGS_LONG_LONG);
 800229c:	6d7b      	ldr	r3, [r7, #84]	; 0x54
 800229e:	f443 7380 	orr.w	r3, r3, #256	; 0x100
 80022a2:	657b      	str	r3, [r7, #84]	; 0x54
        format++;
 80022a4:	683b      	ldr	r3, [r7, #0]
 80022a6:	3301      	adds	r3, #1
 80022a8:	603b      	str	r3, [r7, #0]
        break;
 80022aa:	e016      	b.n	80022da <_vsnprintf+0x2a2>
#endif
      case 'j' :
        flags |= (sizeof(intmax_t) == sizeof(long) ? FLAGS_LONG : FLAGS_LONG_LONG);
 80022ac:	6d7b      	ldr	r3, [r7, #84]	; 0x54
 80022ae:	f443 7300 	orr.w	r3, r3, #512	; 0x200
 80022b2:	657b      	str	r3, [r7, #84]	; 0x54
        format++;
 80022b4:	683b      	ldr	r3, [r7, #0]
 80022b6:	3301      	adds	r3, #1
 80022b8:	603b      	str	r3, [r7, #0]
        break;
 80022ba:	e00e      	b.n	80022da <_vsnprintf+0x2a2>
      case 'z' :
        flags |= (sizeof(size_t) == sizeof(long) ? FLAGS_LONG : FLAGS_LONG_LONG);
 80022bc:	6d7b      	ldr	r3, [r7, #84]	; 0x54
 80022be:	f443 7380 	orr.w	r3, r3, #256	; 0x100
 80022c2:	657b      	str	r3, [r7, #84]	; 0x54
        format++;
 80022c4:	683b      	ldr	r3, [r7, #0]
 80022c6:	3301      	adds	r3, #1
 80022c8:	603b      	str	r3, [r7, #0]
        break;
 80022ca:	e006      	b.n	80022da <_vsnprintf+0x2a2>
      default :
        break;
 80022cc:	bf00      	nop
 80022ce:	e004      	b.n	80022da <_vsnprintf+0x2a2>
        break;
 80022d0:	bf00      	nop
 80022d2:	e002      	b.n	80022da <_vsnprintf+0x2a2>
 80022d4:	08001135 	.word	0x08001135
        break;
 80022d8:	bf00      	nop
    }

    // evaluate specifier
    switch (*format) {
 80022da:	683b      	ldr	r3, [r7, #0]
 80022dc:	781b      	ldrb	r3, [r3, #0]
 80022de:	3b25      	subs	r3, #37	; 0x25
 80022e0:	2b53      	cmp	r3, #83	; 0x53
 80022e2:	f200 833b 	bhi.w	800295c <_vsnprintf+0x924>
 80022e6:	a201      	add	r2, pc, #4	; (adr r2, 80022ec <_vsnprintf+0x2b4>)
 80022e8:	f852 f023 	ldr.w	pc, [r2, r3, lsl #2]
 80022ec:	08002945 	.word	0x08002945
 80022f0:	0800295d 	.word	0x0800295d
 80022f4:	0800295d 	.word	0x0800295d
 80022f8:	0800295d 	.word	0x0800295d
 80022fc:	0800295d 	.word	0x0800295d
 8002300:	0800295d 	.word	0x0800295d
 8002304:	0800295d 	.word	0x0800295d
 8002308:	0800295d 	.word	0x0800295d
 800230c:	0800295d 	.word	0x0800295d
 8002310:	0800295d 	.word	0x0800295d
 8002314:	0800295d 	.word	0x0800295d
 8002318:	0800295d 	.word	0x0800295d
 800231c:	0800295d 	.word	0x0800295d
 8002320:	0800295d 	.word	0x0800295d
 8002324:	0800295d 	.word	0x0800295d
 8002328:	0800295d 	.word	0x0800295d
 800232c:	0800295d 	.word	0x0800295d
 8002330:	0800295d 	.word	0x0800295d
 8002334:	0800295d 	.word	0x0800295d
 8002338:	0800295d 	.word	0x0800295d
 800233c:	0800295d 	.word	0x0800295d
 8002340:	0800295d 	.word	0x0800295d
 8002344:	0800295d 	.word	0x0800295d
 8002348:	0800295d 	.word	0x0800295d
 800234c:	0800295d 	.word	0x0800295d
 8002350:	0800295d 	.word	0x0800295d
 8002354:	0800295d 	.word	0x0800295d
 8002358:	0800295d 	.word	0x0800295d
 800235c:	0800295d 	.word	0x0800295d
 8002360:	0800295d 	.word	0x0800295d
 8002364:	0800295d 	.word	0x0800295d
 8002368:	0800295d 	.word	0x0800295d
 800236c:	08002715 	.word	0x08002715
 8002370:	080026c9 	.word	0x080026c9
 8002374:	08002715 	.word	0x08002715
 8002378:	0800295d 	.word	0x0800295d
 800237c:	0800295d 	.word	0x0800295d
 8002380:	0800295d 	.word	0x0800295d
 8002384:	0800295d 	.word	0x0800295d
 8002388:	0800295d 	.word	0x0800295d
 800238c:	0800295d 	.word	0x0800295d
 8002390:	0800295d 	.word	0x0800295d
 8002394:	0800295d 	.word	0x0800295d
 8002398:	0800295d 	.word	0x0800295d
 800239c:	0800295d 	.word	0x0800295d
 80023a0:	0800295d 	.word	0x0800295d
 80023a4:	0800295d 	.word	0x0800295d
 80023a8:	0800295d 	.word	0x0800295d
 80023ac:	0800295d 	.word	0x0800295d
 80023b0:	0800295d 	.word	0x0800295d
 80023b4:	0800295d 	.word	0x0800295d
 80023b8:	0800243d 	.word	0x0800243d
 80023bc:	0800295d 	.word	0x0800295d
 80023c0:	0800295d 	.word	0x0800295d
 80023c4:	0800295d 	.word	0x0800295d
 80023c8:	0800295d 	.word	0x0800295d
 80023cc:	0800295d 	.word	0x0800295d
 80023d0:	0800295d 	.word	0x0800295d
 80023d4:	0800295d 	.word	0x0800295d
 80023d8:	0800295d 	.word	0x0800295d
 80023dc:	0800295d 	.word	0x0800295d
 80023e0:	0800243d 	.word	0x0800243d
 80023e4:	08002781 	.word	0x08002781
 80023e8:	0800243d 	.word	0x0800243d
 80023ec:	08002715 	.word	0x08002715
 80023f0:	080026c9 	.word	0x080026c9
 80023f4:	08002715 	.word	0x08002715
 80023f8:	0800295d 	.word	0x0800295d
 80023fc:	0800243d 	.word	0x0800243d
 8002400:	0800295d 	.word	0x0800295d
 8002404:	0800295d 	.word	0x0800295d
 8002408:	0800295d 	.word	0x0800295d
 800240c:	0800295d 	.word	0x0800295d
 8002410:	0800295d 	.word	0x0800295d
 8002414:	0800243d 	.word	0x0800243d
 8002418:	080028b9 	.word	0x080028b9
 800241c:	0800295d 	.word	0x0800295d
 8002420:	0800295d 	.word	0x0800295d
 8002424:	080027f5 	.word	0x080027f5
 8002428:	0800295d 	.word	0x0800295d
 800242c:	0800243d 	.word	0x0800243d
 8002430:	0800295d 	.word	0x0800295d
 8002434:	0800295d 	.word	0x0800295d
 8002438:	0800243d 	.word	0x0800243d
      case 'X' :
      case 'o' :
      case 'b' : {
        // set the base
        unsigned int base;
        if (*format == 'x' || *format == 'X') {
 800243c:	683b      	ldr	r3, [r7, #0]
 800243e:	781b      	ldrb	r3, [r3, #0]
 8002440:	2b78      	cmp	r3, #120	; 0x78
 8002442:	d003      	beq.n	800244c <_vsnprintf+0x414>
 8002444:	683b      	ldr	r3, [r7, #0]
 8002446:	781b      	ldrb	r3, [r3, #0]
 8002448:	2b58      	cmp	r3, #88	; 0x58
 800244a:	d102      	bne.n	8002452 <_vsnprintf+0x41a>
          base = 16U;
 800244c:	2310      	movs	r3, #16
 800244e:	643b      	str	r3, [r7, #64]	; 0x40
 8002450:	e013      	b.n	800247a <_vsnprintf+0x442>
        }
        else if (*format == 'o') {
 8002452:	683b      	ldr	r3, [r7, #0]
 8002454:	781b      	ldrb	r3, [r3, #0]
 8002456:	2b6f      	cmp	r3, #111	; 0x6f
 8002458:	d102      	bne.n	8002460 <_vsnprintf+0x428>
          base =  8U;
 800245a:	2308      	movs	r3, #8
 800245c:	643b      	str	r3, [r7, #64]	; 0x40
 800245e:	e00c      	b.n	800247a <_vsnprintf+0x442>
        }
        else if (*format == 'b') {
 8002460:	683b      	ldr	r3, [r7, #0]
 8002462:	781b      	ldrb	r3, [r3, #0]
 8002464:	2b62      	cmp	r3, #98	; 0x62
 8002466:	d102      	bne.n	800246e <_vsnprintf+0x436>
          base =  2U;
 8002468:	2302      	movs	r3, #2
 800246a:	643b      	str	r3, [r7, #64]	; 0x40
 800246c:	e005      	b.n	800247a <_vsnprintf+0x442>
        }
        else {
          base = 10U;
 800246e:	230a      	movs	r3, #10
 8002470:	643b      	str	r3, [r7, #64]	; 0x40
          flags &= ~FLAGS_HASH;   // no hash for dec format
 8002472:	6d7b      	ldr	r3, [r7, #84]	; 0x54
 8002474:	f023 0310 	bic.w	r3, r3, #16
 8002478:	657b      	str	r3, [r7, #84]	; 0x54
        }
        // uppercase
        if (*format == 'X') {
 800247a:	683b      	ldr	r3, [r7, #0]
 800247c:	781b      	ldrb	r3, [r3, #0]
 800247e:	2b58      	cmp	r3, #88	; 0x58
 8002480:	d103      	bne.n	800248a <_vsnprintf+0x452>
          flags |= FLAGS_UPPERCASE;
 8002482:	6d7b      	ldr	r3, [r7, #84]	; 0x54
 8002484:	f043 0320 	orr.w	r3, r3, #32
 8002488:	657b      	str	r3, [r7, #84]	; 0x54
        }

        // no plus or space flag for u, x, X, o, b
        if ((*format != 'i') && (*format != 'd')) {
 800248a:	683b      	ldr	r3, [r7, #0]
 800248c:	781b      	ldrb	r3, [r3, #0]
 800248e:	2b69      	cmp	r3, #105	; 0x69
 8002490:	d007      	beq.n	80024a2 <_vsnprintf+0x46a>
 8002492:	683b      	ldr	r3, [r7, #0]
 8002494:	781b      	ldrb	r3, [r3, #0]
 8002496:	2b64      	cmp	r3, #100	; 0x64
 8002498:	d003      	beq.n	80024a2 <_vsnprintf+0x46a>
          flags &= ~(FLAGS_PLUS | FLAGS_SPACE);
 800249a:	6d7b      	ldr	r3, [r7, #84]	; 0x54
 800249c:	f023 030c 	bic.w	r3, r3, #12
 80024a0:	657b      	str	r3, [r7, #84]	; 0x54
        }

        // ignore '0' flag when precision is given
        if (flags & FLAGS_PRECISION) {
 80024a2:	6d7b      	ldr	r3, [r7, #84]	; 0x54
 80024a4:	f403 6380 	and.w	r3, r3, #1024	; 0x400
 80024a8:	2b00      	cmp	r3, #0
 80024aa:	d003      	beq.n	80024b4 <_vsnprintf+0x47c>
          flags &= ~FLAGS_ZEROPAD;
 80024ac:	6d7b      	ldr	r3, [r7, #84]	; 0x54
 80024ae:	f023 0301 	bic.w	r3, r3, #1
 80024b2:	657b      	str	r3, [r7, #84]	; 0x54
        }

        // convert the integer
        if ((*format == 'i') || (*format == 'd')) {
 80024b4:	683b      	ldr	r3, [r7, #0]
 80024b6:	781b      	ldrb	r3, [r3, #0]
 80024b8:	2b69      	cmp	r3, #105	; 0x69
 80024ba:	d004      	beq.n	80024c6 <_vsnprintf+0x48e>
 80024bc:	683b      	ldr	r3, [r7, #0]
 80024be:	781b      	ldrb	r3, [r3, #0]
 80024c0:	2b64      	cmp	r3, #100	; 0x64
 80024c2:	f040 808d 	bne.w	80025e0 <_vsnprintf+0x5a8>
          // signed
          if (flags & FLAGS_LONG_LONG) {
 80024c6:	6d7b      	ldr	r3, [r7, #84]	; 0x54
 80024c8:	f403 7300 	and.w	r3, r3, #512	; 0x200
 80024cc:	2b00      	cmp	r3, #0
 80024ce:	d02e      	beq.n	800252e <_vsnprintf+0x4f6>
#if defined(PRINTF_SUPPORT_LONG_LONG)
            const long long value = va_arg(va, long long);
 80024d0:	6ebb      	ldr	r3, [r7, #104]	; 0x68
 80024d2:	3307      	adds	r3, #7
 80024d4:	f023 0307 	bic.w	r3, r3, #7
 80024d8:	f103 0208 	add.w	r2, r3, #8
 80024dc:	66ba      	str	r2, [r7, #104]	; 0x68
 80024de:	e9d3 3400 	ldrd	r3, r4, [r3]
 80024e2:	e9c7 3404 	strd	r3, r4, [r7, #16]
            idx = _ntoa_long_long(out, buffer, idx, maxlen, (unsigned long long)(value > 0 ? value : 0 - value), value < 0, base, precision, width, flags);
 80024e6:	e9d7 3404 	ldrd	r3, r4, [r7, #16]
 80024ea:	2b00      	cmp	r3, #0
 80024ec:	f174 0200 	sbcs.w	r2, r4, #0
 80024f0:	da02      	bge.n	80024f8 <_vsnprintf+0x4c0>
 80024f2:	425b      	negs	r3, r3
 80024f4:	eb64 0444 	sbc.w	r4, r4, r4, lsl #1
 80024f8:	4619      	mov	r1, r3
 80024fa:	4622      	mov	r2, r4
 80024fc:	697b      	ldr	r3, [r7, #20]
 80024fe:	0fdb      	lsrs	r3, r3, #31
 8002500:	b2d8      	uxtb	r0, r3
 8002502:	6c3b      	ldr	r3, [r7, #64]	; 0x40
 8002504:	f04f 0400 	mov.w	r4, #0
 8002508:	6d7d      	ldr	r5, [r7, #84]	; 0x54
 800250a:	9508      	str	r5, [sp, #32]
 800250c:	6d3d      	ldr	r5, [r7, #80]	; 0x50
 800250e:	9507      	str	r5, [sp, #28]
 8002510:	6cfd      	ldr	r5, [r7, #76]	; 0x4c
 8002512:	9506      	str	r5, [sp, #24]
 8002514:	e9cd 3404 	strd	r3, r4, [sp, #16]
 8002518:	9002      	str	r0, [sp, #8]
 800251a:	e9cd 1200 	strd	r1, r2, [sp]
 800251e:	687b      	ldr	r3, [r7, #4]
 8002520:	6c7a      	ldr	r2, [r7, #68]	; 0x44
 8002522:	68b9      	ldr	r1, [r7, #8]
 8002524:	68f8      	ldr	r0, [r7, #12]
 8002526:	f7ff f811 	bl	800154c <_ntoa_long_long>
 800252a:	6478      	str	r0, [r7, #68]	; 0x44
          if (flags & FLAGS_LONG_LONG) {
 800252c:	e0c8      	b.n	80026c0 <_vsnprintf+0x688>
#endif
          }
          else if (flags & FLAGS_LONG) {
 800252e:	6d7b      	ldr	r3, [r7, #84]	; 0x54
 8002530:	f403 7380 	and.w	r3, r3, #256	; 0x100
 8002534:	2b00      	cmp	r3, #0
 8002536:	d01e      	beq.n	8002576 <_vsnprintf+0x53e>
            const long value = va_arg(va, long);
 8002538:	6ebb      	ldr	r3, [r7, #104]	; 0x68
 800253a:	1d1a      	adds	r2, r3, #4
 800253c:	66ba      	str	r2, [r7, #104]	; 0x68
 800253e:	681b      	ldr	r3, [r3, #0]
 8002540:	61fb      	str	r3, [r7, #28]
            idx = _ntoa_long(out, buffer, idx, maxlen, (unsigned long)(value > 0 ? value : 0 - value), value < 0, base, precision, width, flags);
 8002542:	69fb      	ldr	r3, [r7, #28]
 8002544:	2b00      	cmp	r3, #0
 8002546:	bfb8      	it	lt
 8002548:	425b      	neglt	r3, r3
 800254a:	4619      	mov	r1, r3
 800254c:	69fb      	ldr	r3, [r7, #28]
 800254e:	0fdb      	lsrs	r3, r3, #31
 8002550:	b2db      	uxtb	r3, r3
 8002552:	6d7a      	ldr	r2, [r7, #84]	; 0x54
 8002554:	9205      	str	r2, [sp, #20]
 8002556:	6d3a      	ldr	r2, [r7, #80]	; 0x50
 8002558:	9204      	str	r2, [sp, #16]
 800255a:	6cfa      	ldr	r2, [r7, #76]	; 0x4c
 800255c:	9203      	str	r2, [sp, #12]
 800255e:	6c3a      	ldr	r2, [r7, #64]	; 0x40
 8002560:	9202      	str	r2, [sp, #8]
 8002562:	9301      	str	r3, [sp, #4]
 8002564:	9100      	str	r1, [sp, #0]
 8002566:	687b      	ldr	r3, [r7, #4]
 8002568:	6c7a      	ldr	r2, [r7, #68]	; 0x44
 800256a:	68b9      	ldr	r1, [r7, #8]
 800256c:	68f8      	ldr	r0, [r7, #12]
 800256e:	f7fe ff86 	bl	800147e <_ntoa_long>
 8002572:	6478      	str	r0, [r7, #68]	; 0x44
          if (flags & FLAGS_LONG_LONG) {
 8002574:	e0a4      	b.n	80026c0 <_vsnprintf+0x688>
          }
          else {
            const int value = (flags & FLAGS_CHAR) ? (char)va_arg(va, int) : (flags & FLAGS_SHORT) ? (short int)va_arg(va, int) : va_arg(va, int);
 8002576:	6d7b      	ldr	r3, [r7, #84]	; 0x54
 8002578:	f003 0340 	and.w	r3, r3, #64	; 0x40
 800257c:	2b00      	cmp	r3, #0
 800257e:	d005      	beq.n	800258c <_vsnprintf+0x554>
 8002580:	6ebb      	ldr	r3, [r7, #104]	; 0x68
 8002582:	1d1a      	adds	r2, r3, #4
 8002584:	66ba      	str	r2, [r7, #104]	; 0x68
 8002586:	681b      	ldr	r3, [r3, #0]
 8002588:	b2db      	uxtb	r3, r3
 800258a:	e00e      	b.n	80025aa <_vsnprintf+0x572>
 800258c:	6d7b      	ldr	r3, [r7, #84]	; 0x54
 800258e:	f003 0380 	and.w	r3, r3, #128	; 0x80
 8002592:	2b00      	cmp	r3, #0
 8002594:	d005      	beq.n	80025a2 <_vsnprintf+0x56a>
 8002596:	6ebb      	ldr	r3, [r7, #104]	; 0x68
 8002598:	1d1a      	adds	r2, r3, #4
 800259a:	66ba      	str	r2, [r7, #104]	; 0x68
 800259c:	681b      	ldr	r3, [r3, #0]
 800259e:	b21b      	sxth	r3, r3
 80025a0:	e003      	b.n	80025aa <_vsnprintf+0x572>
 80025a2:	6ebb      	ldr	r3, [r7, #104]	; 0x68
 80025a4:	1d1a      	adds	r2, r3, #4
 80025a6:	66ba      	str	r2, [r7, #104]	; 0x68
 80025a8:	681b      	ldr	r3, [r3, #0]
 80025aa:	623b      	str	r3, [r7, #32]
            idx = _ntoa_long(out, buffer, idx, maxlen, (unsigned int)(value > 0 ? value : 0 - value), value < 0, base, precision, width, flags);
 80025ac:	6a3b      	ldr	r3, [r7, #32]
 80025ae:	2b00      	cmp	r3, #0
 80025b0:	bfb8      	it	lt
 80025b2:	425b      	neglt	r3, r3
 80025b4:	4619      	mov	r1, r3
 80025b6:	6a3b      	ldr	r3, [r7, #32]
 80025b8:	0fdb      	lsrs	r3, r3, #31
 80025ba:	b2db      	uxtb	r3, r3
 80025bc:	6d7a      	ldr	r2, [r7, #84]	; 0x54
 80025be:	9205      	str	r2, [sp, #20]
 80025c0:	6d3a      	ldr	r2, [r7, #80]	; 0x50
 80025c2:	9204      	str	r2, [sp, #16]
 80025c4:	6cfa      	ldr	r2, [r7, #76]	; 0x4c
 80025c6:	9203      	str	r2, [sp, #12]
 80025c8:	6c3a      	ldr	r2, [r7, #64]	; 0x40
 80025ca:	9202      	str	r2, [sp, #8]
 80025cc:	9301      	str	r3, [sp, #4]
 80025ce:	9100      	str	r1, [sp, #0]
 80025d0:	687b      	ldr	r3, [r7, #4]
 80025d2:	6c7a      	ldr	r2, [r7, #68]	; 0x44
 80025d4:	68b9      	ldr	r1, [r7, #8]
 80025d6:	68f8      	ldr	r0, [r7, #12]
 80025d8:	f7fe ff51 	bl	800147e <_ntoa_long>
 80025dc:	6478      	str	r0, [r7, #68]	; 0x44
          if (flags & FLAGS_LONG_LONG) {
 80025de:	e06f      	b.n	80026c0 <_vsnprintf+0x688>
          }
        }
        else {
          // unsigned
          if (flags & FLAGS_LONG_LONG) {
 80025e0:	6d7b      	ldr	r3, [r7, #84]	; 0x54
 80025e2:	f403 7300 	and.w	r3, r3, #512	; 0x200
 80025e6:	2b00      	cmp	r3, #0
 80025e8:	d020      	beq.n	800262c <_vsnprintf+0x5f4>
#if defined(PRINTF_SUPPORT_LONG_LONG)
            idx = _ntoa_long_long(out, buffer, idx, maxlen, va_arg(va, unsigned long long), false, base, precision, width, flags);
 80025ea:	6ebb      	ldr	r3, [r7, #104]	; 0x68
 80025ec:	3307      	adds	r3, #7
 80025ee:	f023 0307 	bic.w	r3, r3, #7
 80025f2:	f103 0208 	add.w	r2, r3, #8
 80025f6:	66ba      	str	r2, [r7, #104]	; 0x68
 80025f8:	e9d3 3400 	ldrd	r3, r4, [r3]
 80025fc:	6c3a      	ldr	r2, [r7, #64]	; 0x40
 80025fe:	4611      	mov	r1, r2
 8002600:	f04f 0200 	mov.w	r2, #0
 8002604:	6d78      	ldr	r0, [r7, #84]	; 0x54
 8002606:	9008      	str	r0, [sp, #32]
 8002608:	6d38      	ldr	r0, [r7, #80]	; 0x50
 800260a:	9007      	str	r0, [sp, #28]
 800260c:	6cf8      	ldr	r0, [r7, #76]	; 0x4c
 800260e:	9006      	str	r0, [sp, #24]
 8002610:	e9cd 1204 	strd	r1, r2, [sp, #16]
 8002614:	2200      	movs	r2, #0
 8002616:	9202      	str	r2, [sp, #8]
 8002618:	e9cd 3400 	strd	r3, r4, [sp]
 800261c:	687b      	ldr	r3, [r7, #4]
 800261e:	6c7a      	ldr	r2, [r7, #68]	; 0x44
 8002620:	68b9      	ldr	r1, [r7, #8]
 8002622:	68f8      	ldr	r0, [r7, #12]
 8002624:	f7fe ff92 	bl	800154c <_ntoa_long_long>
 8002628:	6478      	str	r0, [r7, #68]	; 0x44
 800262a:	e049      	b.n	80026c0 <_vsnprintf+0x688>
#endif
          }
          else if (flags & FLAGS_LONG) {
 800262c:	6d7b      	ldr	r3, [r7, #84]	; 0x54
 800262e:	f403 7380 	and.w	r3, r3, #256	; 0x100
 8002632:	2b00      	cmp	r3, #0
 8002634:	d016      	beq.n	8002664 <_vsnprintf+0x62c>
            idx = _ntoa_long(out, buffer, idx, maxlen, va_arg(va, unsigned long), false, base, precision, width, flags);
 8002636:	6ebb      	ldr	r3, [r7, #104]	; 0x68
 8002638:	1d1a      	adds	r2, r3, #4
 800263a:	66ba      	str	r2, [r7, #104]	; 0x68
 800263c:	681b      	ldr	r3, [r3, #0]
 800263e:	6d7a      	ldr	r2, [r7, #84]	; 0x54
 8002640:	9205      	str	r2, [sp, #20]
 8002642:	6d3a      	ldr	r2, [r7, #80]	; 0x50
 8002644:	9204      	str	r2, [sp, #16]
 8002646:	6cfa      	ldr	r2, [r7, #76]	; 0x4c
 8002648:	9203      	str	r2, [sp, #12]
 800264a:	6c3a      	ldr	r2, [r7, #64]	; 0x40
 800264c:	9202      	str	r2, [sp, #8]
 800264e:	2200      	movs	r2, #0
 8002650:	9201      	str	r2, [sp, #4]
 8002652:	9300      	str	r3, [sp, #0]
 8002654:	687b      	ldr	r3, [r7, #4]
 8002656:	6c7a      	ldr	r2, [r7, #68]	; 0x44
 8002658:	68b9      	ldr	r1, [r7, #8]
 800265a:	68f8      	ldr	r0, [r7, #12]
 800265c:	f7fe ff0f 	bl	800147e <_ntoa_long>
 8002660:	6478      	str	r0, [r7, #68]	; 0x44
 8002662:	e02d      	b.n	80026c0 <_vsnprintf+0x688>
          }
          else {
            const unsigned int value = (flags & FLAGS_CHAR) ? (unsigned char)va_arg(va, unsigned int) : (flags & FLAGS_SHORT) ? (unsigned short int)va_arg(va, unsigned int) : va_arg(va, unsigned int);
 8002664:	6d7b      	ldr	r3, [r7, #84]	; 0x54
 8002666:	f003 0340 	and.w	r3, r3, #64	; 0x40
 800266a:	2b00      	cmp	r3, #0
 800266c:	d005      	beq.n	800267a <_vsnprintf+0x642>
 800266e:	6ebb      	ldr	r3, [r7, #104]	; 0x68
 8002670:	1d1a      	adds	r2, r3, #4
 8002672:	66ba      	str	r2, [r7, #104]	; 0x68
 8002674:	681b      	ldr	r3, [r3, #0]
 8002676:	b2db      	uxtb	r3, r3
 8002678:	e00e      	b.n	8002698 <_vsnprintf+0x660>
 800267a:	6d7b      	ldr	r3, [r7, #84]	; 0x54
 800267c:	f003 0380 	and.w	r3, r3, #128	; 0x80
 8002680:	2b00      	cmp	r3, #0
 8002682:	d005      	beq.n	8002690 <_vsnprintf+0x658>
 8002684:	6ebb      	ldr	r3, [r7, #104]	; 0x68
 8002686:	1d1a      	adds	r2, r3, #4
 8002688:	66ba      	str	r2, [r7, #104]	; 0x68
 800268a:	681b      	ldr	r3, [r3, #0]
 800268c:	b29b      	uxth	r3, r3
 800268e:	e003      	b.n	8002698 <_vsnprintf+0x660>
 8002690:	6ebb      	ldr	r3, [r7, #104]	; 0x68
 8002692:	1d1a      	adds	r2, r3, #4
 8002694:	66ba      	str	r2, [r7, #104]	; 0x68
 8002696:	681b      	ldr	r3, [r3, #0]
 8002698:	627b      	str	r3, [r7, #36]	; 0x24
            idx = _ntoa_long(out, buffer, idx, maxlen, value, false, base, precision, width, flags);
 800269a:	6d7b      	ldr	r3, [r7, #84]	; 0x54
 800269c:	9305      	str	r3, [sp, #20]
 800269e:	6d3b      	ldr	r3, [r7, #80]	; 0x50
 80026a0:	9304      	str	r3, [sp, #16]
 80026a2:	6cfb      	ldr	r3, [r7, #76]	; 0x4c
 80026a4:	9303      	str	r3, [sp, #12]
 80026a6:	6c3b      	ldr	r3, [r7, #64]	; 0x40
 80026a8:	9302      	str	r3, [sp, #8]
 80026aa:	2300      	movs	r3, #0
 80026ac:	9301      	str	r3, [sp, #4]
 80026ae:	6a7b      	ldr	r3, [r7, #36]	; 0x24
 80026b0:	9300      	str	r3, [sp, #0]
 80026b2:	687b      	ldr	r3, [r7, #4]
 80026b4:	6c7a      	ldr	r2, [r7, #68]	; 0x44
 80026b6:	68b9      	ldr	r1, [r7, #8]
 80026b8:	68f8      	ldr	r0, [r7, #12]
 80026ba:	f7fe fee0 	bl	800147e <_ntoa_long>
 80026be:	6478      	str	r0, [r7, #68]	; 0x44
          }
        }
        format++;
 80026c0:	683b      	ldr	r3, [r7, #0]
 80026c2:	3301      	adds	r3, #1
 80026c4:	603b      	str	r3, [r7, #0]
        break;
 80026c6:	e156      	b.n	8002976 <_vsnprintf+0x93e>
      }
#if defined(PRINTF_SUPPORT_FLOAT)
      case 'f' :
      case 'F' :
        if (*format == 'F') flags |= FLAGS_UPPERCASE;
 80026c8:	683b      	ldr	r3, [r7, #0]
 80026ca:	781b      	ldrb	r3, [r3, #0]
 80026cc:	2b46      	cmp	r3, #70	; 0x46
 80026ce:	d103      	bne.n	80026d8 <_vsnprintf+0x6a0>
 80026d0:	6d7b      	ldr	r3, [r7, #84]	; 0x54
 80026d2:	f043 0320 	orr.w	r3, r3, #32
 80026d6:	657b      	str	r3, [r7, #84]	; 0x54
        idx = _ftoa(out, buffer, idx, maxlen, va_arg(va, double), precision, width, flags);
 80026d8:	6ebb      	ldr	r3, [r7, #104]	; 0x68
 80026da:	3307      	adds	r3, #7
 80026dc:	f023 0307 	bic.w	r3, r3, #7
 80026e0:	f103 0208 	add.w	r2, r3, #8
 80026e4:	66ba      	str	r2, [r7, #104]	; 0x68
 80026e6:	ed93 7b00 	vldr	d7, [r3]
 80026ea:	6d7b      	ldr	r3, [r7, #84]	; 0x54
 80026ec:	9302      	str	r3, [sp, #8]
 80026ee:	6d3b      	ldr	r3, [r7, #80]	; 0x50
 80026f0:	9301      	str	r3, [sp, #4]
 80026f2:	6cfb      	ldr	r3, [r7, #76]	; 0x4c
 80026f4:	9300      	str	r3, [sp, #0]
 80026f6:	eeb0 0a47 	vmov.f32	s0, s14
 80026fa:	eef0 0a67 	vmov.f32	s1, s15
 80026fe:	687b      	ldr	r3, [r7, #4]
 8002700:	6c7a      	ldr	r2, [r7, #68]	; 0x44
 8002702:	68b9      	ldr	r1, [r7, #8]
 8002704:	68f8      	ldr	r0, [r7, #12]
 8002706:	f7fe ff93 	bl	8001630 <_ftoa>
 800270a:	6478      	str	r0, [r7, #68]	; 0x44
        format++;
 800270c:	683b      	ldr	r3, [r7, #0]
 800270e:	3301      	adds	r3, #1
 8002710:	603b      	str	r3, [r7, #0]
        break;
 8002712:	e130      	b.n	8002976 <_vsnprintf+0x93e>
#if defined(PRINTF_SUPPORT_EXPONENTIAL)
      case 'e':
      case 'E':
      case 'g':
      case 'G':
        if ((*format == 'g')||(*format == 'G')) flags |= FLAGS_ADAPT_EXP;
 8002714:	683b      	ldr	r3, [r7, #0]
 8002716:	781b      	ldrb	r3, [r3, #0]
 8002718:	2b67      	cmp	r3, #103	; 0x67
 800271a:	d003      	beq.n	8002724 <_vsnprintf+0x6ec>
 800271c:	683b      	ldr	r3, [r7, #0]
 800271e:	781b      	ldrb	r3, [r3, #0]
 8002720:	2b47      	cmp	r3, #71	; 0x47
 8002722:	d103      	bne.n	800272c <_vsnprintf+0x6f4>
 8002724:	6d7b      	ldr	r3, [r7, #84]	; 0x54
 8002726:	f443 6300 	orr.w	r3, r3, #2048	; 0x800
 800272a:	657b      	str	r3, [r7, #84]	; 0x54
        if ((*format == 'E')||(*format == 'G')) flags |= FLAGS_UPPERCASE;
 800272c:	683b      	ldr	r3, [r7, #0]
 800272e:	781b      	ldrb	r3, [r3, #0]
 8002730:	2b45      	cmp	r3, #69	; 0x45
 8002732:	d003      	beq.n	800273c <_vsnprintf+0x704>
 8002734:	683b      	ldr	r3, [r7, #0]
 8002736:	781b      	ldrb	r3, [r3, #0]
 8002738:	2b47      	cmp	r3, #71	; 0x47
 800273a:	d103      	bne.n	8002744 <_vsnprintf+0x70c>
 800273c:	6d7b      	ldr	r3, [r7, #84]	; 0x54
 800273e:	f043 0320 	orr.w	r3, r3, #32
 8002742:	657b      	str	r3, [r7, #84]	; 0x54
        idx = _etoa(out, buffer, idx, maxlen, va_arg(va, double), precision, width, flags);
 8002744:	6ebb      	ldr	r3, [r7, #104]	; 0x68
 8002746:	3307      	adds	r3, #7
 8002748:	f023 0307 	bic.w	r3, r3, #7
 800274c:	f103 0208 	add.w	r2, r3, #8
 8002750:	66ba      	str	r2, [r7, #104]	; 0x68
 8002752:	ed93 7b00 	vldr	d7, [r3]
 8002756:	6d7b      	ldr	r3, [r7, #84]	; 0x54
 8002758:	9302      	str	r3, [sp, #8]
 800275a:	6d3b      	ldr	r3, [r7, #80]	; 0x50
 800275c:	9301      	str	r3, [sp, #4]
 800275e:	6cfb      	ldr	r3, [r7, #76]	; 0x4c
 8002760:	9300      	str	r3, [sp, #0]
 8002762:	eeb0 0a47 	vmov.f32	s0, s14
 8002766:	eef0 0a67 	vmov.f32	s1, s15
 800276a:	687b      	ldr	r3, [r7, #4]
 800276c:	6c7a      	ldr	r2, [r7, #68]	; 0x44
 800276e:	68b9      	ldr	r1, [r7, #8]
 8002770:	68f8      	ldr	r0, [r7, #12]
 8002772:	f7ff f9c9 	bl	8001b08 <_etoa>
 8002776:	6478      	str	r0, [r7, #68]	; 0x44
        format++;
 8002778:	683b      	ldr	r3, [r7, #0]
 800277a:	3301      	adds	r3, #1
 800277c:	603b      	str	r3, [r7, #0]
        break;
 800277e:	e0fa      	b.n	8002976 <_vsnprintf+0x93e>
#endif  // PRINTF_SUPPORT_EXPONENTIAL
#endif  // PRINTF_SUPPORT_FLOAT
      case 'c' : {
        unsigned int l = 1U;
 8002780:	2301      	movs	r3, #1
 8002782:	63fb      	str	r3, [r7, #60]	; 0x3c
        // pre padding
        if (!(flags & FLAGS_LEFT)) {
 8002784:	6d7b      	ldr	r3, [r7, #84]	; 0x54
 8002786:	f003 0302 	and.w	r3, r3, #2
 800278a:	2b00      	cmp	r3, #0
 800278c:	d10e      	bne.n	80027ac <_vsnprintf+0x774>
          while (l++ < width) {
 800278e:	e007      	b.n	80027a0 <_vsnprintf+0x768>
            out(' ', buffer, idx++, maxlen);
 8002790:	6c7a      	ldr	r2, [r7, #68]	; 0x44
 8002792:	1c53      	adds	r3, r2, #1
 8002794:	647b      	str	r3, [r7, #68]	; 0x44
 8002796:	68fc      	ldr	r4, [r7, #12]
 8002798:	687b      	ldr	r3, [r7, #4]
 800279a:	68b9      	ldr	r1, [r7, #8]
 800279c:	2020      	movs	r0, #32
 800279e:	47a0      	blx	r4
          while (l++ < width) {
 80027a0:	6bfb      	ldr	r3, [r7, #60]	; 0x3c
 80027a2:	1c5a      	adds	r2, r3, #1
 80027a4:	63fa      	str	r2, [r7, #60]	; 0x3c
 80027a6:	6d3a      	ldr	r2, [r7, #80]	; 0x50
 80027a8:	429a      	cmp	r2, r3
 80027aa:	d8f1      	bhi.n	8002790 <_vsnprintf+0x758>
          }
        }
        // char output
        out((char)va_arg(va, int), buffer, idx++, maxlen);
 80027ac:	6ebb      	ldr	r3, [r7, #104]	; 0x68
 80027ae:	1d1a      	adds	r2, r3, #4
 80027b0:	66ba      	str	r2, [r7, #104]	; 0x68
 80027b2:	681b      	ldr	r3, [r3, #0]
 80027b4:	b2d8      	uxtb	r0, r3
 80027b6:	6c7a      	ldr	r2, [r7, #68]	; 0x44
 80027b8:	1c53      	adds	r3, r2, #1
 80027ba:	647b      	str	r3, [r7, #68]	; 0x44
 80027bc:	68fc      	ldr	r4, [r7, #12]
 80027be:	687b      	ldr	r3, [r7, #4]
 80027c0:	68b9      	ldr	r1, [r7, #8]
 80027c2:	47a0      	blx	r4
        // post padding
        if (flags & FLAGS_LEFT) {
 80027c4:	6d7b      	ldr	r3, [r7, #84]	; 0x54
 80027c6:	f003 0302 	and.w	r3, r3, #2
 80027ca:	2b00      	cmp	r3, #0
 80027cc:	d00e      	beq.n	80027ec <_vsnprintf+0x7b4>
          while (l++ < width) {
 80027ce:	e007      	b.n	80027e0 <_vsnprintf+0x7a8>
            out(' ', buffer, idx++, maxlen);
 80027d0:	6c7a      	ldr	r2, [r7, #68]	; 0x44
 80027d2:	1c53      	adds	r3, r2, #1
 80027d4:	647b      	str	r3, [r7, #68]	; 0x44
 80027d6:	68fc      	ldr	r4, [r7, #12]
 80027d8:	687b      	ldr	r3, [r7, #4]
 80027da:	68b9      	ldr	r1, [r7, #8]
 80027dc:	2020      	movs	r0, #32
 80027de:	47a0      	blx	r4
          while (l++ < width) {
 80027e0:	6bfb      	ldr	r3, [r7, #60]	; 0x3c
 80027e2:	1c5a      	adds	r2, r3, #1
 80027e4:	63fa      	str	r2, [r7, #60]	; 0x3c
 80027e6:	6d3a      	ldr	r2, [r7, #80]	; 0x50
 80027e8:	429a      	cmp	r2, r3
 80027ea:	d8f1      	bhi.n	80027d0 <_vsnprintf+0x798>
          }
        }
        format++;
 80027ec:	683b      	ldr	r3, [r7, #0]
 80027ee:	3301      	adds	r3, #1
 80027f0:	603b      	str	r3, [r7, #0]
        break;
 80027f2:	e0c0      	b.n	8002976 <_vsnprintf+0x93e>
      }

      case 's' : {
        const char* p = va_arg(va, char*);
 80027f4:	6ebb      	ldr	r3, [r7, #104]	; 0x68
 80027f6:	1d1a      	adds	r2, r3, #4
 80027f8:	66ba      	str	r2, [r7, #104]	; 0x68
 80027fa:	681b      	ldr	r3, [r3, #0]
 80027fc:	63bb      	str	r3, [r7, #56]	; 0x38
        unsigned int l = _strnlen_s(p, precision ? precision : (size_t)-1);
 80027fe:	6cfb      	ldr	r3, [r7, #76]	; 0x4c
 8002800:	2b00      	cmp	r3, #0
 8002802:	d001      	beq.n	8002808 <_vsnprintf+0x7d0>
 8002804:	6cfb      	ldr	r3, [r7, #76]	; 0x4c
 8002806:	e001      	b.n	800280c <_vsnprintf+0x7d4>
 8002808:	f04f 33ff 	mov.w	r3, #4294967295
 800280c:	4619      	mov	r1, r3
 800280e:	6bb8      	ldr	r0, [r7, #56]	; 0x38
 8002810:	f7fe fcb1 	bl	8001176 <_strnlen_s>
 8002814:	6378      	str	r0, [r7, #52]	; 0x34
        // pre padding
        if (flags & FLAGS_PRECISION) {
 8002816:	6d7b      	ldr	r3, [r7, #84]	; 0x54
 8002818:	f403 6380 	and.w	r3, r3, #1024	; 0x400
 800281c:	2b00      	cmp	r3, #0
 800281e:	d005      	beq.n	800282c <_vsnprintf+0x7f4>
          l = (l < precision ? l : precision);
 8002820:	6b7a      	ldr	r2, [r7, #52]	; 0x34
 8002822:	6cfb      	ldr	r3, [r7, #76]	; 0x4c
 8002824:	4293      	cmp	r3, r2
 8002826:	bf28      	it	cs
 8002828:	4613      	movcs	r3, r2
 800282a:	637b      	str	r3, [r7, #52]	; 0x34
        }
        if (!(flags & FLAGS_LEFT)) {
 800282c:	6d7b      	ldr	r3, [r7, #84]	; 0x54
 800282e:	f003 0302 	and.w	r3, r3, #2
 8002832:	2b00      	cmp	r3, #0
 8002834:	d11a      	bne.n	800286c <_vsnprintf+0x834>
          while (l++ < width) {
 8002836:	e007      	b.n	8002848 <_vsnprintf+0x810>
            out(' ', buffer, idx++, maxlen);
 8002838:	6c7a      	ldr	r2, [r7, #68]	; 0x44
 800283a:	1c53      	adds	r3, r2, #1
 800283c:	647b      	str	r3, [r7, #68]	; 0x44
 800283e:	68fc      	ldr	r4, [r7, #12]
 8002840:	687b      	ldr	r3, [r7, #4]
 8002842:	68b9      	ldr	r1, [r7, #8]
 8002844:	2020      	movs	r0, #32
 8002846:	47a0      	blx	r4
          while (l++ < width) {
 8002848:	6b7b      	ldr	r3, [r7, #52]	; 0x34
 800284a:	1c5a      	adds	r2, r3, #1
 800284c:	637a      	str	r2, [r7, #52]	; 0x34
 800284e:	6d3a      	ldr	r2, [r7, #80]	; 0x50
 8002850:	429a      	cmp	r2, r3
 8002852:	d8f1      	bhi.n	8002838 <_vsnprintf+0x800>
          }
        }
        // string output
        while ((*p != 0) && (!(flags & FLAGS_PRECISION) || precision--)) {
 8002854:	e00a      	b.n	800286c <_vsnprintf+0x834>
          out(*(p++), buffer, idx++, maxlen);
 8002856:	6bbb      	ldr	r3, [r7, #56]	; 0x38
 8002858:	1c5a      	adds	r2, r3, #1
 800285a:	63ba      	str	r2, [r7, #56]	; 0x38
 800285c:	7818      	ldrb	r0, [r3, #0]
 800285e:	6c7a      	ldr	r2, [r7, #68]	; 0x44
 8002860:	1c53      	adds	r3, r2, #1
 8002862:	647b      	str	r3, [r7, #68]	; 0x44
 8002864:	68fc      	ldr	r4, [r7, #12]
 8002866:	687b      	ldr	r3, [r7, #4]
 8002868:	68b9      	ldr	r1, [r7, #8]
 800286a:	47a0      	blx	r4
        while ((*p != 0) && (!(flags & FLAGS_PRECISION) || precision--)) {
 800286c:	6bbb      	ldr	r3, [r7, #56]	; 0x38
 800286e:	781b      	ldrb	r3, [r3, #0]
 8002870:	2b00      	cmp	r3, #0
 8002872:	d009      	beq.n	8002888 <_vsnprintf+0x850>
 8002874:	6d7b      	ldr	r3, [r7, #84]	; 0x54
 8002876:	f403 6380 	and.w	r3, r3, #1024	; 0x400
 800287a:	2b00      	cmp	r3, #0
 800287c:	d0eb      	beq.n	8002856 <_vsnprintf+0x81e>
 800287e:	6cfb      	ldr	r3, [r7, #76]	; 0x4c
 8002880:	1e5a      	subs	r2, r3, #1
 8002882:	64fa      	str	r2, [r7, #76]	; 0x4c
 8002884:	2b00      	cmp	r3, #0
 8002886:	d1e6      	bne.n	8002856 <_vsnprintf+0x81e>
        }
        // post padding
        if (flags & FLAGS_LEFT) {
 8002888:	6d7b      	ldr	r3, [r7, #84]	; 0x54
 800288a:	f003 0302 	and.w	r3, r3, #2
 800288e:	2b00      	cmp	r3, #0
 8002890:	d00e      	beq.n	80028b0 <_vsnprintf+0x878>
          while (l++ < width) {
 8002892:	e007      	b.n	80028a4 <_vsnprintf+0x86c>
            out(' ', buffer, idx++, maxlen);
 8002894:	6c7a      	ldr	r2, [r7, #68]	; 0x44
 8002896:	1c53      	adds	r3, r2, #1
 8002898:	647b      	str	r3, [r7, #68]	; 0x44
 800289a:	68fc      	ldr	r4, [r7, #12]
 800289c:	687b      	ldr	r3, [r7, #4]
 800289e:	68b9      	ldr	r1, [r7, #8]
 80028a0:	2020      	movs	r0, #32
 80028a2:	47a0      	blx	r4
          while (l++ < width) {
 80028a4:	6b7b      	ldr	r3, [r7, #52]	; 0x34
 80028a6:	1c5a      	adds	r2, r3, #1
 80028a8:	637a      	str	r2, [r7, #52]	; 0x34
 80028aa:	6d3a      	ldr	r2, [r7, #80]	; 0x50
 80028ac:	429a      	cmp	r2, r3
 80028ae:	d8f1      	bhi.n	8002894 <_vsnprintf+0x85c>
          }
        }
        format++;
 80028b0:	683b      	ldr	r3, [r7, #0]
 80028b2:	3301      	adds	r3, #1
 80028b4:	603b      	str	r3, [r7, #0]
        break;
 80028b6:	e05e      	b.n	8002976 <_vsnprintf+0x93e>
      }

      case 'p' : {
        width = sizeof(void*) * 2U;
 80028b8:	2308      	movs	r3, #8
 80028ba:	653b      	str	r3, [r7, #80]	; 0x50
        flags |= FLAGS_ZEROPAD | FLAGS_UPPERCASE;
 80028bc:	6d7b      	ldr	r3, [r7, #84]	; 0x54
 80028be:	f043 0321 	orr.w	r3, r3, #33	; 0x21
 80028c2:	657b      	str	r3, [r7, #84]	; 0x54
#if defined(PRINTF_SUPPORT_LONG_LONG)
        const bool is_ll = sizeof(uintptr_t) == sizeof(long long);
 80028c4:	2300      	movs	r3, #0
 80028c6:	f887 302b 	strb.w	r3, [r7, #43]	; 0x2b
        if (is_ll) {
 80028ca:	f897 302b 	ldrb.w	r3, [r7, #43]	; 0x2b
 80028ce:	2b00      	cmp	r3, #0
 80028d0:	d01d      	beq.n	800290e <_vsnprintf+0x8d6>
          idx = _ntoa_long_long(out, buffer, idx, maxlen, (uintptr_t)va_arg(va, void*), false, 16U, precision, width, flags);
 80028d2:	6ebb      	ldr	r3, [r7, #104]	; 0x68
 80028d4:	1d1a      	adds	r2, r3, #4
 80028d6:	66ba      	str	r2, [r7, #104]	; 0x68
 80028d8:	681b      	ldr	r3, [r3, #0]
 80028da:	f04f 0400 	mov.w	r4, #0
 80028de:	6d7a      	ldr	r2, [r7, #84]	; 0x54
 80028e0:	9208      	str	r2, [sp, #32]
 80028e2:	6d3a      	ldr	r2, [r7, #80]	; 0x50
 80028e4:	9207      	str	r2, [sp, #28]
 80028e6:	6cfa      	ldr	r2, [r7, #76]	; 0x4c
 80028e8:	9206      	str	r2, [sp, #24]
 80028ea:	f04f 0110 	mov.w	r1, #16
 80028ee:	f04f 0200 	mov.w	r2, #0
 80028f2:	e9cd 1204 	strd	r1, r2, [sp, #16]
 80028f6:	2200      	movs	r2, #0
 80028f8:	9202      	str	r2, [sp, #8]
 80028fa:	e9cd 3400 	strd	r3, r4, [sp]
 80028fe:	687b      	ldr	r3, [r7, #4]
 8002900:	6c7a      	ldr	r2, [r7, #68]	; 0x44
 8002902:	68b9      	ldr	r1, [r7, #8]
 8002904:	68f8      	ldr	r0, [r7, #12]
 8002906:	f7fe fe21 	bl	800154c <_ntoa_long_long>
 800290a:	6478      	str	r0, [r7, #68]	; 0x44
 800290c:	e016      	b.n	800293c <_vsnprintf+0x904>
        }
        else {
#endif
          idx = _ntoa_long(out, buffer, idx, maxlen, (unsigned long)((uintptr_t)va_arg(va, void*)), false, 16U, precision, width, flags);
 800290e:	6ebb      	ldr	r3, [r7, #104]	; 0x68
 8002910:	1d1a      	adds	r2, r3, #4
 8002912:	66ba      	str	r2, [r7, #104]	; 0x68
 8002914:	681b      	ldr	r3, [r3, #0]
 8002916:	461a      	mov	r2, r3
 8002918:	6d7b      	ldr	r3, [r7, #84]	; 0x54
 800291a:	9305      	str	r3, [sp, #20]
 800291c:	6d3b      	ldr	r3, [r7, #80]	; 0x50
 800291e:	9304      	str	r3, [sp, #16]
 8002920:	6cfb      	ldr	r3, [r7, #76]	; 0x4c
 8002922:	9303      	str	r3, [sp, #12]
 8002924:	2310      	movs	r3, #16
 8002926:	9302      	str	r3, [sp, #8]
 8002928:	2300      	movs	r3, #0
 800292a:	9301      	str	r3, [sp, #4]
 800292c:	9200      	str	r2, [sp, #0]
 800292e:	687b      	ldr	r3, [r7, #4]
 8002930:	6c7a      	ldr	r2, [r7, #68]	; 0x44
 8002932:	68b9      	ldr	r1, [r7, #8]
 8002934:	68f8      	ldr	r0, [r7, #12]
 8002936:	f7fe fda2 	bl	800147e <_ntoa_long>
 800293a:	6478      	str	r0, [r7, #68]	; 0x44
#if defined(PRINTF_SUPPORT_LONG_LONG)
        }
#endif
        format++;
 800293c:	683b      	ldr	r3, [r7, #0]
 800293e:	3301      	adds	r3, #1
 8002940:	603b      	str	r3, [r7, #0]
        break;
 8002942:	e018      	b.n	8002976 <_vsnprintf+0x93e>
      }

      case '%' :
        out('%', buffer, idx++, maxlen);
 8002944:	6c7a      	ldr	r2, [r7, #68]	; 0x44
 8002946:	1c53      	adds	r3, r2, #1
 8002948:	647b      	str	r3, [r7, #68]	; 0x44
 800294a:	68fc      	ldr	r4, [r7, #12]
 800294c:	687b      	ldr	r3, [r7, #4]
 800294e:	68b9      	ldr	r1, [r7, #8]
 8002950:	2025      	movs	r0, #37	; 0x25
 8002952:	47a0      	blx	r4
        format++;
 8002954:	683b      	ldr	r3, [r7, #0]
 8002956:	3301      	adds	r3, #1
 8002958:	603b      	str	r3, [r7, #0]
        break;
 800295a:	e00c      	b.n	8002976 <_vsnprintf+0x93e>

      default :
        out(*format, buffer, idx++, maxlen);
 800295c:	683b      	ldr	r3, [r7, #0]
 800295e:	7818      	ldrb	r0, [r3, #0]
 8002960:	6c7a      	ldr	r2, [r7, #68]	; 0x44
 8002962:	1c53      	adds	r3, r2, #1
 8002964:	647b      	str	r3, [r7, #68]	; 0x44
 8002966:	68fc      	ldr	r4, [r7, #12]
 8002968:	687b      	ldr	r3, [r7, #4]
 800296a:	68b9      	ldr	r1, [r7, #8]
 800296c:	47a0      	blx	r4
        format++;
 800296e:	683b      	ldr	r3, [r7, #0]
 8002970:	3301      	adds	r3, #1
 8002972:	603b      	str	r3, [r7, #0]
        break;
 8002974:	bf00      	nop
  while (*format)
 8002976:	683b      	ldr	r3, [r7, #0]
 8002978:	781b      	ldrb	r3, [r3, #0]
 800297a:	2b00      	cmp	r3, #0
 800297c:	f47f ab6d 	bne.w	800205a <_vsnprintf+0x22>
    }
  }

  // termination
  out((char)0, buffer, idx < maxlen ? idx : maxlen - 1U, maxlen);
 8002980:	6c7a      	ldr	r2, [r7, #68]	; 0x44
 8002982:	687b      	ldr	r3, [r7, #4]
 8002984:	429a      	cmp	r2, r3
 8002986:	d302      	bcc.n	800298e <_vsnprintf+0x956>
 8002988:	687b      	ldr	r3, [r7, #4]
 800298a:	1e5a      	subs	r2, r3, #1
 800298c:	e000      	b.n	8002990 <_vsnprintf+0x958>
 800298e:	6c7a      	ldr	r2, [r7, #68]	; 0x44
 8002990:	68fc      	ldr	r4, [r7, #12]
 8002992:	687b      	ldr	r3, [r7, #4]
 8002994:	68b9      	ldr	r1, [r7, #8]
 8002996:	2000      	movs	r0, #0
 8002998:	47a0      	blx	r4

  // return written chars without terminating \0
  return (int)idx;
 800299a:	6c7b      	ldr	r3, [r7, #68]	; 0x44
}
 800299c:	4618      	mov	r0, r3
 800299e:	3758      	adds	r7, #88	; 0x58
 80029a0:	46bd      	mov	sp, r7
 80029a2:	bdb0      	pop	{r4, r5, r7, pc}

080029a4 <printf_>:


///////////////////////////////////////////////////////////////////////////////

int printf_(const char* format, ...)
{
 80029a4:	b40f      	push	{r0, r1, r2, r3}
 80029a6:	b580      	push	{r7, lr}
 80029a8:	b086      	sub	sp, #24
 80029aa:	af02      	add	r7, sp, #8
  va_list va;
  va_start(va, format);
 80029ac:	f107 031c 	add.w	r3, r7, #28
 80029b0:	60bb      	str	r3, [r7, #8]
  char buffer[1];
  const int ret = _vsnprintf(_out_char, buffer, (size_t)-1, format, va);
 80029b2:	1d39      	adds	r1, r7, #4
 80029b4:	68bb      	ldr	r3, [r7, #8]
 80029b6:	9300      	str	r3, [sp, #0]
 80029b8:	69bb      	ldr	r3, [r7, #24]
 80029ba:	f04f 32ff 	mov.w	r2, #4294967295
 80029be:	4806      	ldr	r0, [pc, #24]	; (80029d8 <printf_+0x34>)
 80029c0:	f7ff fb3a 	bl	8002038 <_vsnprintf>
 80029c4:	60f8      	str	r0, [r7, #12]
  va_end(va);
  return ret;
 80029c6:	68fb      	ldr	r3, [r7, #12]
}
 80029c8:	4618      	mov	r0, r3
 80029ca:	3710      	adds	r7, #16
 80029cc:	46bd      	mov	sp, r7
 80029ce:	e8bd 4080 	ldmia.w	sp!, {r7, lr}
 80029d2:	b004      	add	sp, #16
 80029d4:	4770      	bx	lr
 80029d6:	bf00      	nop
 80029d8:	08001151 	.word	0x08001151

080029dc <HAL_MspInit>:
/* USER CODE END 0 */
/**
  * Initializes the Global MSP.
  */
void HAL_MspInit(void)
{
 80029dc:	b580      	push	{r7, lr}
 80029de:	b082      	sub	sp, #8
 80029e0:	af00      	add	r7, sp, #0
  /* USER CODE BEGIN MspInit 0 */

  /* USER CODE END MspInit 0 */

  __HAL_RCC_SYSCFG_CLK_ENABLE();
 80029e2:	2300      	movs	r3, #0
 80029e4:	607b      	str	r3, [r7, #4]
 80029e6:	4b1e      	ldr	r3, [pc, #120]	; (8002a60 <HAL_MspInit+0x84>)
 80029e8:	6c5b      	ldr	r3, [r3, #68]	; 0x44
 80029ea:	4a1d      	ldr	r2, [pc, #116]	; (8002a60 <HAL_MspInit+0x84>)
 80029ec:	f443 4380 	orr.w	r3, r3, #16384	; 0x4000
 80029f0:	6453      	str	r3, [r2, #68]	; 0x44
 80029f2:	4b1b      	ldr	r3, [pc, #108]	; (8002a60 <HAL_MspInit+0x84>)
 80029f4:	6c5b      	ldr	r3, [r3, #68]	; 0x44
 80029f6:	f403 4380 	and.w	r3, r3, #16384	; 0x4000
 80029fa:	607b      	str	r3, [r7, #4]
 80029fc:	687b      	ldr	r3, [r7, #4]
  __HAL_RCC_PWR_CLK_ENABLE();
 80029fe:	2300      	movs	r3, #0
 8002a00:	603b      	str	r3, [r7, #0]
 8002a02:	4b17      	ldr	r3, [pc, #92]	; (8002a60 <HAL_MspInit+0x84>)
 8002a04:	6c1b      	ldr	r3, [r3, #64]	; 0x40
 8002a06:	4a16      	ldr	r2, [pc, #88]	; (8002a60 <HAL_MspInit+0x84>)
 8002a08:	f043 5380 	orr.w	r3, r3, #268435456	; 0x10000000
 8002a0c:	6413      	str	r3, [r2, #64]	; 0x40
 8002a0e:	4b14      	ldr	r3, [pc, #80]	; (8002a60 <HAL_MspInit+0x84>)
 8002a10:	6c1b      	ldr	r3, [r3, #64]	; 0x40
 8002a12:	f003 5380 	and.w	r3, r3, #268435456	; 0x10000000
 8002a16:	603b      	str	r3, [r7, #0]
 8002a18:	683b      	ldr	r3, [r7, #0]

  /* System interrupt init*/
  /* PendSV_IRQn interrupt configuration */
  HAL_NVIC_SetPriority(PendSV_IRQn, 15, 0);
 8002a1a:	2200      	movs	r2, #0
 8002a1c:	210f      	movs	r1, #15
 8002a1e:	f06f 0001 	mvn.w	r0, #1
 8002a22:	f000 fa57 	bl	8002ed4 <HAL_NVIC_SetPriority>

  /* Peripheral interrupt init */
  /* PVD_IRQn interrupt configuration */
  HAL_NVIC_SetPriority(PVD_IRQn, 5, 0);
 8002a26:	2200      	movs	r2, #0
 8002a28:	2105      	movs	r1, #5
 8002a2a:	2001      	movs	r0, #1
 8002a2c:	f000 fa52 	bl	8002ed4 <HAL_NVIC_SetPriority>
  HAL_NVIC_EnableIRQ(PVD_IRQn);
 8002a30:	2001      	movs	r0, #1
 8002a32:	f000 fa6b 	bl	8002f0c <HAL_NVIC_EnableIRQ>
  /* FLASH_IRQn interrupt configuration */
  HAL_NVIC_SetPriority(FLASH_IRQn, 5, 0);
 8002a36:	2200      	movs	r2, #0
 8002a38:	2105      	movs	r1, #5
 8002a3a:	2004      	movs	r0, #4
 8002a3c:	f000 fa4a 	bl	8002ed4 <HAL_NVIC_SetPriority>
  HAL_NVIC_EnableIRQ(FLASH_IRQn);
 8002a40:	2004      	movs	r0, #4
 8002a42:	f000 fa63 	bl	8002f0c <HAL_NVIC_EnableIRQ>
  /* RCC_IRQn interrupt configuration */
  HAL_NVIC_SetPriority(RCC_IRQn, 5, 0);
 8002a46:	2200      	movs	r2, #0
 8002a48:	2105      	movs	r1, #5
 8002a4a:	2005      	movs	r0, #5
 8002a4c:	f000 fa42 	bl	8002ed4 <HAL_NVIC_SetPriority>
  HAL_NVIC_EnableIRQ(RCC_IRQn);
 8002a50:	2005      	movs	r0, #5
 8002a52:	f000 fa5b 	bl	8002f0c <HAL_NVIC_EnableIRQ>

  /* USER CODE BEGIN MspInit 1 */

  /* USER CODE END MspInit 1 */
}
 8002a56:	bf00      	nop
 8002a58:	3708      	adds	r7, #8
 8002a5a:	46bd      	mov	sp, r7
 8002a5c:	bd80      	pop	{r7, pc}
 8002a5e:	bf00      	nop
 8002a60:	40023800 	.word	0x40023800

08002a64 <HAL_InitTick>:
  *         reset by HAL_Init() or at any time when clock is configured, by HAL_RCC_ClockConfig().
  * @param  TickPriority: Tick interrupt priority.
  * @retval HAL status
  */
HAL_StatusTypeDef HAL_InitTick(uint32_t TickPriority)
{
 8002a64:	b580      	push	{r7, lr}
 8002a66:	b08c      	sub	sp, #48	; 0x30
 8002a68:	af00      	add	r7, sp, #0
 8002a6a:	6078      	str	r0, [r7, #4]
  RCC_ClkInitTypeDef    clkconfig;
  uint32_t              uwTimclock = 0;
 8002a6c:	2300      	movs	r3, #0
 8002a6e:	62fb      	str	r3, [r7, #44]	; 0x2c
  uint32_t              uwPrescalerValue = 0;
 8002a70:	2300      	movs	r3, #0
 8002a72:	62bb      	str	r3, [r7, #40]	; 0x28
  uint32_t              pFLatency;
  /*Configure the TIM10 IRQ priority */
  HAL_NVIC_SetPriority(TIM1_UP_TIM10_IRQn, TickPriority ,0);
 8002a74:	2200      	movs	r2, #0
 8002a76:	6879      	ldr	r1, [r7, #4]
 8002a78:	2019      	movs	r0, #25
 8002a7a:	f000 fa2b 	bl	8002ed4 <HAL_NVIC_SetPriority>

  /* Enable the TIM10 global Interrupt */
  HAL_NVIC_EnableIRQ(TIM1_UP_TIM10_IRQn);
 8002a7e:	2019      	movs	r0, #25
 8002a80:	f000 fa44 	bl	8002f0c <HAL_NVIC_EnableIRQ>
  /* Enable TIM10 clock */
  __HAL_RCC_TIM10_CLK_ENABLE();
 8002a84:	2300      	movs	r3, #0
 8002a86:	60fb      	str	r3, [r7, #12]
 8002a88:	4b1e      	ldr	r3, [pc, #120]	; (8002b04 <HAL_InitTick+0xa0>)
 8002a8a:	6c5b      	ldr	r3, [r3, #68]	; 0x44
 8002a8c:	4a1d      	ldr	r2, [pc, #116]	; (8002b04 <HAL_InitTick+0xa0>)
 8002a8e:	f443 3300 	orr.w	r3, r3, #131072	; 0x20000
 8002a92:	6453      	str	r3, [r2, #68]	; 0x44
 8002a94:	4b1b      	ldr	r3, [pc, #108]	; (8002b04 <HAL_InitTick+0xa0>)
 8002a96:	6c5b      	ldr	r3, [r3, #68]	; 0x44
 8002a98:	f403 3300 	and.w	r3, r3, #131072	; 0x20000
 8002a9c:	60fb      	str	r3, [r7, #12]
 8002a9e:	68fb      	ldr	r3, [r7, #12]

  /* Get clock configuration */
  HAL_RCC_GetClockConfig(&clkconfig, &pFLatency);
 8002aa0:	f107 0210 	add.w	r2, r7, #16
 8002aa4:	f107 0314 	add.w	r3, r7, #20
 8002aa8:	4611      	mov	r1, r2
 8002aaa:	4618      	mov	r0, r3
 8002aac:	f001 fa16 	bl	8003edc <HAL_RCC_GetClockConfig>

  /* Compute TIM10 clock */
  uwTimclock = HAL_RCC_GetPCLK2Freq();
 8002ab0:	f001 fa00 	bl	8003eb4 <HAL_RCC_GetPCLK2Freq>
 8002ab4:	62f8      	str	r0, [r7, #44]	; 0x2c
  /* Compute the prescaler value to have TIM10 counter clock equal to 1MHz */
  uwPrescalerValue = (uint32_t) ((uwTimclock / 1000000U) - 1U);
 8002ab6:	6afb      	ldr	r3, [r7, #44]	; 0x2c
 8002ab8:	4a13      	ldr	r2, [pc, #76]	; (8002b08 <HAL_InitTick+0xa4>)
 8002aba:	fba2 2303 	umull	r2, r3, r2, r3
 8002abe:	0c9b      	lsrs	r3, r3, #18
 8002ac0:	3b01      	subs	r3, #1
 8002ac2:	62bb      	str	r3, [r7, #40]	; 0x28

  /* Initialize TIM10 */
  htim10.Instance = TIM10;
 8002ac4:	4b11      	ldr	r3, [pc, #68]	; (8002b0c <HAL_InitTick+0xa8>)
 8002ac6:	4a12      	ldr	r2, [pc, #72]	; (8002b10 <HAL_InitTick+0xac>)
 8002ac8:	601a      	str	r2, [r3, #0]
  + Period = [(TIM10CLK/1000) - 1]. to have a (1/1000) s time base.
  + Prescaler = (uwTimclock/1000000 - 1) to have a 1MHz counter clock.
  + ClockDivision = 0
  + Counter direction = Up
  */
  htim10.Init.Period = (1000000U / 1000U) - 1U;
 8002aca:	4b10      	ldr	r3, [pc, #64]	; (8002b0c <HAL_InitTick+0xa8>)
 8002acc:	f240 32e7 	movw	r2, #999	; 0x3e7
 8002ad0:	60da      	str	r2, [r3, #12]
  htim10.Init.Prescaler = uwPrescalerValue;
 8002ad2:	4a0e      	ldr	r2, [pc, #56]	; (8002b0c <HAL_InitTick+0xa8>)
 8002ad4:	6abb      	ldr	r3, [r7, #40]	; 0x28
 8002ad6:	6053      	str	r3, [r2, #4]
  htim10.Init.ClockDivision = 0;
 8002ad8:	4b0c      	ldr	r3, [pc, #48]	; (8002b0c <HAL_InitTick+0xa8>)
 8002ada:	2200      	movs	r2, #0
