
T11_L42_RTOS_TaskNotification.elf:     file format elf32-littlearm

Sections:
Idx Name          Size      VMA       LMA       File off  Algn
  0 .isr_vector   00000198  08000000  08000000  00010000  2**0
                  CONTENTS, ALLOC, LOAD, READONLY, DATA
  1 .text         000085b4  080001a0  080001a0  000101a0  2**4
                  CONTENTS, ALLOC, LOAD, READONLY, CODE
  2 .rodata       000001b8  08008758  08008758  00018758  2**3
                  CONTENTS, ALLOC, LOAD, READONLY, DATA
  3 .ARM.extab    00000000  08008910  08008910  00020010  2**0
                  CONTENTS
  4 .ARM          00000008  08008910  08008910  00018910  2**2
                  CONTENTS, ALLOC, LOAD, READONLY, DATA
  5 .preinit_array 00000000  08008918  08008918  00020010  2**0
                  CONTENTS, ALLOC, LOAD, DATA
  6 .init_array   00000004  08008918  08008918  00018918  2**2
                  CONTENTS, ALLOC, LOAD, DATA
  7 .fini_array   00000004  0800891c  0800891c  0001891c  2**2
                  CONTENTS, ALLOC, LOAD, DATA
  8 .data         00000010  20000000  08008920  00020000  2**2
                  CONTENTS, ALLOC, LOAD, DATA
  9 .bss          00004a18  20000010  08008930  00020010  2**2
                  ALLOC
 10 ._user_heap_stack 00000600  20004a28  08008930  00024a28  2**0
                  ALLOC
 11 .ARM.attributes 00000030  00000000  00000000  00020010  2**0
                  CONTENTS, READONLY
 12 .debug_info   0001986b  00000000  00000000  00020040  2**0
                  CONTENTS, READONLY, DEBUGGING
 13 .debug_abbrev 0000372a  00000000  00000000  000398ab  2**0
                  CONTENTS, READONLY, DEBUGGING
 14 .debug_aranges 000015b0  00000000  00000000  0003cfd8  2**3
                  CONTENTS, READONLY, DEBUGGING
 15 .debug_ranges 00001408  00000000  00000000  0003e588  2**3
                  CONTENTS, READONLY, DEBUGGING
 16 .debug_macro  000184ba  00000000  00000000  0003f990  2**0
                  CONTENTS, READONLY, DEBUGGING
 17 .debug_line   00011951  00000000  00000000  00057e4a  2**0
                  CONTENTS, READONLY, DEBUGGING
 18 .debug_str    00096e54  00000000  00000000  0006979b  2**0
                  CONTENTS, READONLY, DEBUGGING
 19 .comment      0000007b  00000000  00000000  001005ef  2**0
                  CONTENTS, READONLY
 20 .debug_frame  00005bf4  00000000  00000000  0010066c  2**2
                  CONTENTS, READONLY, DEBUGGING

Disassembly of section .text:

080001a0 <__do_global_dtors_aux>:
 80001a0:	b510      	push	{r4, lr}
 80001a2:	4c05      	ldr	r4, [pc, #20]	; (80001b8 <__do_global_dtors_aux+0x18>)
 80001a4:	7823      	ldrb	r3, [r4, #0]
 80001a6:	b933      	cbnz	r3, 80001b6 <__do_global_dtors_aux+0x16>
 80001a8:	4b04      	ldr	r3, [pc, #16]	; (80001bc <__do_global_dtors_aux+0x1c>)
 80001aa:	b113      	cbz	r3, 80001b2 <__do_global_dtors_aux+0x12>
 80001ac:	4804      	ldr	r0, [pc, #16]	; (80001c0 <__do_global_dtors_aux+0x20>)
 80001ae:	f3af 8000 	nop.w
 80001b2:	2301      	movs	r3, #1
 80001b4:	7023      	strb	r3, [r4, #0]
 80001b6:	bd10      	pop	{r4, pc}
 80001b8:	20000010 	.word	0x20000010
 80001bc:	00000000 	.word	0x00000000
 80001c0:	0800873c 	.word	0x0800873c

080001c4 <frame_dummy>:
 80001c4:	b508      	push	{r3, lr}
 80001c6:	4b03      	ldr	r3, [pc, #12]	; (80001d4 <frame_dummy+0x10>)
 80001c8:	b11b      	cbz	r3, 80001d2 <frame_dummy+0xe>
 80001ca:	4903      	ldr	r1, [pc, #12]	; (80001d8 <frame_dummy+0x14>)
 80001cc:	4803      	ldr	r0, [pc, #12]	; (80001dc <frame_dummy+0x18>)
 80001ce:	f3af 8000 	nop.w
 80001d2:	bd08      	pop	{r3, pc}
 80001d4:	00000000 	.word	0x00000000
 80001d8:	20000014 	.word	0x20000014
 80001dc:	0800873c 	.word	0x0800873c

080001e0 <__aeabi_drsub>:
 80001e0:	f081 4100 	eor.w	r1, r1, #2147483648	; 0x80000000
 80001e4:	e002      	b.n	80001ec <__adddf3>
 80001e6:	bf00      	nop

080001e8 <__aeabi_dsub>:
 80001e8:	f083 4300 	eor.w	r3, r3, #2147483648	; 0x80000000

080001ec <__adddf3>:
 80001ec:	b530      	push	{r4, r5, lr}
 80001ee:	ea4f 0441 	mov.w	r4, r1, lsl #1
 80001f2:	ea4f 0543 	mov.w	r5, r3, lsl #1
 80001f6:	ea94 0f05 	teq	r4, r5
 80001fa:	bf08      	it	eq
 80001fc:	ea90 0f02 	teqeq	r0, r2
 8000200:	bf1f      	itttt	ne
 8000202:	ea54 0c00 	orrsne.w	ip, r4, r0
 8000206:	ea55 0c02 	orrsne.w	ip, r5, r2
 800020a:	ea7f 5c64 	mvnsne.w	ip, r4, asr #21
 800020e:	ea7f 5c65 	mvnsne.w	ip, r5, asr #21
 8000212:	f000 80e2 	beq.w	80003da <__adddf3+0x1ee>
 8000216:	ea4f 5454 	mov.w	r4, r4, lsr #21
 800021a:	ebd4 5555 	rsbs	r5, r4, r5, lsr #21
 800021e:	bfb8      	it	lt
 8000220:	426d      	neglt	r5, r5
 8000222:	dd0c      	ble.n	800023e <__adddf3+0x52>
 8000224:	442c      	add	r4, r5
 8000226:	ea80 0202 	eor.w	r2, r0, r2
 800022a:	ea81 0303 	eor.w	r3, r1, r3
 800022e:	ea82 0000 	eor.w	r0, r2, r0
 8000232:	ea83 0101 	eor.w	r1, r3, r1
 8000236:	ea80 0202 	eor.w	r2, r0, r2
 800023a:	ea81 0303 	eor.w	r3, r1, r3
 800023e:	2d36      	cmp	r5, #54	; 0x36
 8000240:	bf88      	it	hi
 8000242:	bd30      	pophi	{r4, r5, pc}
 8000244:	f011 4f00 	tst.w	r1, #2147483648	; 0x80000000
 8000248:	ea4f 3101 	mov.w	r1, r1, lsl #12
 800024c:	f44f 1c80 	mov.w	ip, #1048576	; 0x100000
 8000250:	ea4c 3111 	orr.w	r1, ip, r1, lsr #12
 8000254:	d002      	beq.n	800025c <__adddf3+0x70>
 8000256:	4240      	negs	r0, r0
 8000258:	eb61 0141 	sbc.w	r1, r1, r1, lsl #1
 800025c:	f013 4f00 	tst.w	r3, #2147483648	; 0x80000000
 8000260:	ea4f 3303 	mov.w	r3, r3, lsl #12
 8000264:	ea4c 3313 	orr.w	r3, ip, r3, lsr #12
 8000268:	d002      	beq.n	8000270 <__adddf3+0x84>
 800026a:	4252      	negs	r2, r2
 800026c:	eb63 0343 	sbc.w	r3, r3, r3, lsl #1
 8000270:	ea94 0f05 	teq	r4, r5
 8000274:	f000 80a7 	beq.w	80003c6 <__adddf3+0x1da>
 8000278:	f1a4 0401 	sub.w	r4, r4, #1
 800027c:	f1d5 0e20 	rsbs	lr, r5, #32
 8000280:	db0d      	blt.n	800029e <__adddf3+0xb2>
 8000282:	fa02 fc0e 	lsl.w	ip, r2, lr
 8000286:	fa22 f205 	lsr.w	r2, r2, r5
 800028a:	1880      	adds	r0, r0, r2
 800028c:	f141 0100 	adc.w	r1, r1, #0
 8000290:	fa03 f20e 	lsl.w	r2, r3, lr
 8000294:	1880      	adds	r0, r0, r2
 8000296:	fa43 f305 	asr.w	r3, r3, r5
 800029a:	4159      	adcs	r1, r3
 800029c:	e00e      	b.n	80002bc <__adddf3+0xd0>
 800029e:	f1a5 0520 	sub.w	r5, r5, #32
 80002a2:	f10e 0e20 	add.w	lr, lr, #32
 80002a6:	2a01      	cmp	r2, #1
 80002a8:	fa03 fc0e 	lsl.w	ip, r3, lr
 80002ac:	bf28      	it	cs
 80002ae:	f04c 0c02 	orrcs.w	ip, ip, #2
 80002b2:	fa43 f305 	asr.w	r3, r3, r5
 80002b6:	18c0      	adds	r0, r0, r3
 80002b8:	eb51 71e3 	adcs.w	r1, r1, r3, asr #31
 80002bc:	f001 4500 	and.w	r5, r1, #2147483648	; 0x80000000
 80002c0:	d507      	bpl.n	80002d2 <__adddf3+0xe6>
 80002c2:	f04f 0e00 	mov.w	lr, #0
 80002c6:	f1dc 0c00 	rsbs	ip, ip, #0
 80002ca:	eb7e 0000 	sbcs.w	r0, lr, r0
 80002ce:	eb6e 0101 	sbc.w	r1, lr, r1
 80002d2:	f5b1 1f80 	cmp.w	r1, #1048576	; 0x100000
 80002d6:	d31b      	bcc.n	8000310 <__adddf3+0x124>
 80002d8:	f5b1 1f00 	cmp.w	r1, #2097152	; 0x200000
 80002dc:	d30c      	bcc.n	80002f8 <__adddf3+0x10c>
 80002de:	0849      	lsrs	r1, r1, #1
 80002e0:	ea5f 0030 	movs.w	r0, r0, rrx
 80002e4:	ea4f 0c3c 	mov.w	ip, ip, rrx
 80002e8:	f104 0401 	add.w	r4, r4, #1
 80002ec:	ea4f 5244 	mov.w	r2, r4, lsl #21
 80002f0:	f512 0f80 	cmn.w	r2, #4194304	; 0x400000
 80002f4:	f080 809a 	bcs.w	800042c <__adddf3+0x240>
 80002f8:	f1bc 4f00 	cmp.w	ip, #2147483648	; 0x80000000
 80002fc:	bf08      	it	eq
 80002fe:	ea5f 0c50 	movseq.w	ip, r0, lsr #1
 8000302:	f150 0000 	adcs.w	r0, r0, #0
 8000306:	eb41 5104 	adc.w	r1, r1, r4, lsl #20
 800030a:	ea41 0105 	orr.w	r1, r1, r5
 800030e:	bd30      	pop	{r4, r5, pc}
 8000310:	ea5f 0c4c 	movs.w	ip, ip, lsl #1
 8000314:	4140      	adcs	r0, r0
 8000316:	eb41 0101 	adc.w	r1, r1, r1
 800031a:	f411 1f80 	tst.w	r1, #1048576	; 0x100000
 800031e:	f1a4 0401 	sub.w	r4, r4, #1
 8000322:	d1e9      	bne.n	80002f8 <__adddf3+0x10c>
 8000324:	f091 0f00 	teq	r1, #0
 8000328:	bf04      	itt	eq
 800032a:	4601      	moveq	r1, r0
 800032c:	2000      	moveq	r0, #0
 800032e:	fab1 f381 	clz	r3, r1
 8000332:	bf08      	it	eq
 8000334:	3320      	addeq	r3, #32
 8000336:	f1a3 030b 	sub.w	r3, r3, #11
 800033a:	f1b3 0220 	subs.w	r2, r3, #32
 800033e:	da0c      	bge.n	800035a <__adddf3+0x16e>
 8000340:	320c      	adds	r2, #12
 8000342:	dd08      	ble.n	8000356 <__adddf3+0x16a>
 8000344:	f102 0c14 	add.w	ip, r2, #20
 8000348:	f1c2 020c 	rsb	r2, r2, #12
 800034c:	fa01 f00c 	lsl.w	r0, r1, ip
 8000350:	fa21 f102 	lsr.w	r1, r1, r2
 8000354:	e00c      	b.n	8000370 <__adddf3+0x184>
 8000356:	f102 0214 	add.w	r2, r2, #20
 800035a:	bfd8      	it	le
 800035c:	f1c2 0c20 	rsble	ip, r2, #32
 8000360:	fa01 f102 	lsl.w	r1, r1, r2
 8000364:	fa20 fc0c 	lsr.w	ip, r0, ip
 8000368:	bfdc      	itt	le
 800036a:	ea41 010c 	orrle.w	r1, r1, ip
 800036e:	4090      	lslle	r0, r2
 8000370:	1ae4      	subs	r4, r4, r3
 8000372:	bfa2      	ittt	ge
 8000374:	eb01 5104 	addge.w	r1, r1, r4, lsl #20
 8000378:	4329      	orrge	r1, r5
 800037a:	bd30      	popge	{r4, r5, pc}
 800037c:	ea6f 0404 	mvn.w	r4, r4
 8000380:	3c1f      	subs	r4, #31
 8000382:	da1c      	bge.n	80003be <__adddf3+0x1d2>
 8000384:	340c      	adds	r4, #12
 8000386:	dc0e      	bgt.n	80003a6 <__adddf3+0x1ba>
 8000388:	f104 0414 	add.w	r4, r4, #20
 800038c:	f1c4 0220 	rsb	r2, r4, #32
 8000390:	fa20 f004 	lsr.w	r0, r0, r4
 8000394:	fa01 f302 	lsl.w	r3, r1, r2
 8000398:	ea40 0003 	orr.w	r0, r0, r3
 800039c:	fa21 f304 	lsr.w	r3, r1, r4
 80003a0:	ea45 0103 	orr.w	r1, r5, r3
 80003a4:	bd30      	pop	{r4, r5, pc}
 80003a6:	f1c4 040c 	rsb	r4, r4, #12
 80003aa:	f1c4 0220 	rsb	r2, r4, #32
 80003ae:	fa20 f002 	lsr.w	r0, r0, r2
 80003b2:	fa01 f304 	lsl.w	r3, r1, r4
 80003b6:	ea40 0003 	orr.w	r0, r0, r3
 80003ba:	4629      	mov	r1, r5
 80003bc:	bd30      	pop	{r4, r5, pc}
 80003be:	fa21 f004 	lsr.w	r0, r1, r4
 80003c2:	4629      	mov	r1, r5
 80003c4:	bd30      	pop	{r4, r5, pc}
 80003c6:	f094 0f00 	teq	r4, #0
 80003ca:	f483 1380 	eor.w	r3, r3, #1048576	; 0x100000
 80003ce:	bf06      	itte	eq
 80003d0:	f481 1180 	eoreq.w	r1, r1, #1048576	; 0x100000
 80003d4:	3401      	addeq	r4, #1
 80003d6:	3d01      	subne	r5, #1
 80003d8:	e74e      	b.n	8000278 <__adddf3+0x8c>
 80003da:	ea7f 5c64 	mvns.w	ip, r4, asr #21
 80003de:	bf18      	it	ne
 80003e0:	ea7f 5c65 	mvnsne.w	ip, r5, asr #21
 80003e4:	d029      	beq.n	800043a <__adddf3+0x24e>
 80003e6:	ea94 0f05 	teq	r4, r5
 80003ea:	bf08      	it	eq
 80003ec:	ea90 0f02 	teqeq	r0, r2
 80003f0:	d005      	beq.n	80003fe <__adddf3+0x212>
 80003f2:	ea54 0c00 	orrs.w	ip, r4, r0
 80003f6:	bf04      	itt	eq
 80003f8:	4619      	moveq	r1, r3
 80003fa:	4610      	moveq	r0, r2
 80003fc:	bd30      	pop	{r4, r5, pc}
 80003fe:	ea91 0f03 	teq	r1, r3
 8000402:	bf1e      	ittt	ne
 8000404:	2100      	movne	r1, #0
 8000406:	2000      	movne	r0, #0
 8000408:	bd30      	popne	{r4, r5, pc}
 800040a:	ea5f 5c54 	movs.w	ip, r4, lsr #21
 800040e:	d105      	bne.n	800041c <__adddf3+0x230>
 8000410:	0040      	lsls	r0, r0, #1
 8000412:	4149      	adcs	r1, r1
 8000414:	bf28      	it	cs
 8000416:	f041 4100 	orrcs.w	r1, r1, #2147483648	; 0x80000000
 800041a:	bd30      	pop	{r4, r5, pc}
 800041c:	f514 0480 	adds.w	r4, r4, #4194304	; 0x400000
 8000420:	bf3c      	itt	cc
 8000422:	f501 1180 	addcc.w	r1, r1, #1048576	; 0x100000
 8000426:	bd30      	popcc	{r4, r5, pc}
 8000428:	f001 4500 	and.w	r5, r1, #2147483648	; 0x80000000
 800042c:	f045 41fe 	orr.w	r1, r5, #2130706432	; 0x7f000000
 8000430:	f441 0170 	orr.w	r1, r1, #15728640	; 0xf00000
 8000434:	f04f 0000 	mov.w	r0, #0
 8000438:	bd30      	pop	{r4, r5, pc}
 800043a:	ea7f 5c64 	mvns.w	ip, r4, asr #21
 800043e:	bf1a      	itte	ne
 8000440:	4619      	movne	r1, r3
 8000442:	4610      	movne	r0, r2
 8000444:	ea7f 5c65 	mvnseq.w	ip, r5, asr #21
 8000448:	bf1c      	itt	ne
 800044a:	460b      	movne	r3, r1
 800044c:	4602      	movne	r2, r0
 800044e:	ea50 3401 	orrs.w	r4, r0, r1, lsl #12
 8000452:	bf06      	itte	eq
 8000454:	ea52 3503 	orrseq.w	r5, r2, r3, lsl #12
 8000458:	ea91 0f03 	teqeq	r1, r3
 800045c:	f441 2100 	orrne.w	r1, r1, #524288	; 0x80000
 8000460:	bd30      	pop	{r4, r5, pc}
 8000462:	bf00      	nop

08000464 <__aeabi_ui2d>:
 8000464:	f090 0f00 	teq	r0, #0
 8000468:	bf04      	itt	eq
 800046a:	2100      	moveq	r1, #0
 800046c:	4770      	bxeq	lr
 800046e:	b530      	push	{r4, r5, lr}
 8000470:	f44f 6480 	mov.w	r4, #1024	; 0x400
 8000474:	f104 0432 	add.w	r4, r4, #50	; 0x32
 8000478:	f04f 0500 	mov.w	r5, #0
 800047c:	f04f 0100 	mov.w	r1, #0
 8000480:	e750      	b.n	8000324 <__adddf3+0x138>
 8000482:	bf00      	nop

08000484 <__aeabi_i2d>:
 8000484:	f090 0f00 	teq	r0, #0
 8000488:	bf04      	itt	eq
 800048a:	2100      	moveq	r1, #0
 800048c:	4770      	bxeq	lr
 800048e:	b530      	push	{r4, r5, lr}
 8000490:	f44f 6480 	mov.w	r4, #1024	; 0x400
 8000494:	f104 0432 	add.w	r4, r4, #50	; 0x32
 8000498:	f010 4500 	ands.w	r5, r0, #2147483648	; 0x80000000
 800049c:	bf48      	it	mi
 800049e:	4240      	negmi	r0, r0
 80004a0:	f04f 0100 	mov.w	r1, #0
 80004a4:	e73e      	b.n	8000324 <__adddf3+0x138>
 80004a6:	bf00      	nop

080004a8 <__aeabi_f2d>:
 80004a8:	0042      	lsls	r2, r0, #1
 80004aa:	ea4f 01e2 	mov.w	r1, r2, asr #3
 80004ae:	ea4f 0131 	mov.w	r1, r1, rrx
 80004b2:	ea4f 7002 	mov.w	r0, r2, lsl #28
 80004b6:	bf1f      	itttt	ne
 80004b8:	f012 437f 	andsne.w	r3, r2, #4278190080	; 0xff000000
 80004bc:	f093 4f7f 	teqne	r3, #4278190080	; 0xff000000
 80004c0:	f081 5160 	eorne.w	r1, r1, #939524096	; 0x38000000
 80004c4:	4770      	bxne	lr
 80004c6:	f032 427f 	bics.w	r2, r2, #4278190080	; 0xff000000
 80004ca:	bf08      	it	eq
 80004cc:	4770      	bxeq	lr
 80004ce:	f093 4f7f 	teq	r3, #4278190080	; 0xff000000
 80004d2:	bf04      	itt	eq
 80004d4:	f441 2100 	orreq.w	r1, r1, #524288	; 0x80000
 80004d8:	4770      	bxeq	lr
 80004da:	b530      	push	{r4, r5, lr}
 80004dc:	f44f 7460 	mov.w	r4, #896	; 0x380
 80004e0:	f001 4500 	and.w	r5, r1, #2147483648	; 0x80000000
 80004e4:	f021 4100 	bic.w	r1, r1, #2147483648	; 0x80000000
 80004e8:	e71c      	b.n	8000324 <__adddf3+0x138>
 80004ea:	bf00      	nop

080004ec <__aeabi_ul2d>:
 80004ec:	ea50 0201 	orrs.w	r2, r0, r1
 80004f0:	bf08      	it	eq
 80004f2:	4770      	bxeq	lr
 80004f4:	b530      	push	{r4, r5, lr}
 80004f6:	f04f 0500 	mov.w	r5, #0
 80004fa:	e00a      	b.n	8000512 <__aeabi_l2d+0x16>

080004fc <__aeabi_l2d>:
 80004fc:	ea50 0201 	orrs.w	r2, r0, r1
 8000500:	bf08      	it	eq
 8000502:	4770      	bxeq	lr
 8000504:	b530      	push	{r4, r5, lr}
 8000506:	f011 4500 	ands.w	r5, r1, #2147483648	; 0x80000000
 800050a:	d502      	bpl.n	8000512 <__aeabi_l2d+0x16>
 800050c:	4240      	negs	r0, r0
 800050e:	eb61 0141 	sbc.w	r1, r1, r1, lsl #1
 8000512:	f44f 6480 	mov.w	r4, #1024	; 0x400
 8000516:	f104 0432 	add.w	r4, r4, #50	; 0x32
 800051a:	ea5f 5c91 	movs.w	ip, r1, lsr #22
 800051e:	f43f aed8 	beq.w	80002d2 <__adddf3+0xe6>
 8000522:	f04f 0203 	mov.w	r2, #3
 8000526:	ea5f 0cdc 	movs.w	ip, ip, lsr #3
 800052a:	bf18      	it	ne
 800052c:	3203      	addne	r2, #3
 800052e:	ea5f 0cdc 	movs.w	ip, ip, lsr #3
 8000532:	bf18      	it	ne
 8000534:	3203      	addne	r2, #3
 8000536:	eb02 02dc 	add.w	r2, r2, ip, lsr #3
 800053a:	f1c2 0320 	rsb	r3, r2, #32
 800053e:	fa00 fc03 	lsl.w	ip, r0, r3
 8000542:	fa20 f002 	lsr.w	r0, r0, r2
 8000546:	fa01 fe03 	lsl.w	lr, r1, r3
 800054a:	ea40 000e 	orr.w	r0, r0, lr
 800054e:	fa21 f102 	lsr.w	r1, r1, r2
 8000552:	4414      	add	r4, r2
 8000554:	e6bd      	b.n	80002d2 <__adddf3+0xe6>
 8000556:	bf00      	nop

08000558 <__aeabi_dmul>:
 8000558:	b570      	push	{r4, r5, r6, lr}
 800055a:	f04f 0cff 	mov.w	ip, #255	; 0xff
 800055e:	f44c 6ce0 	orr.w	ip, ip, #1792	; 0x700
 8000562:	ea1c 5411 	ands.w	r4, ip, r1, lsr #20
 8000566:	bf1d      	ittte	ne
 8000568:	ea1c 5513 	andsne.w	r5, ip, r3, lsr #20
 800056c:	ea94 0f0c 	teqne	r4, ip
 8000570:	ea95 0f0c 	teqne	r5, ip
 8000574:	f000 f8de 	bleq	8000734 <__aeabi_dmul+0x1dc>
 8000578:	442c      	add	r4, r5
 800057a:	ea81 0603 	eor.w	r6, r1, r3
 800057e:	ea21 514c 	bic.w	r1, r1, ip, lsl #21
 8000582:	ea23 534c 	bic.w	r3, r3, ip, lsl #21
 8000586:	ea50 3501 	orrs.w	r5, r0, r1, lsl #12
 800058a:	bf18      	it	ne
 800058c:	ea52 3503 	orrsne.w	r5, r2, r3, lsl #12
 8000590:	f441 1180 	orr.w	r1, r1, #1048576	; 0x100000
 8000594:	f443 1380 	orr.w	r3, r3, #1048576	; 0x100000
 8000598:	d038      	beq.n	800060c <__aeabi_dmul+0xb4>
 800059a:	fba0 ce02 	umull	ip, lr, r0, r2
 800059e:	f04f 0500 	mov.w	r5, #0
 80005a2:	fbe1 e502 	umlal	lr, r5, r1, r2
 80005a6:	f006 4200 	and.w	r2, r6, #2147483648	; 0x80000000
 80005aa:	fbe0 e503 	umlal	lr, r5, r0, r3
 80005ae:	f04f 0600 	mov.w	r6, #0
 80005b2:	fbe1 5603 	umlal	r5, r6, r1, r3
 80005b6:	f09c 0f00 	teq	ip, #0
 80005ba:	bf18      	it	ne
 80005bc:	f04e 0e01 	orrne.w	lr, lr, #1
 80005c0:	f1a4 04ff 	sub.w	r4, r4, #255	; 0xff
 80005c4:	f5b6 7f00 	cmp.w	r6, #512	; 0x200
 80005c8:	f564 7440 	sbc.w	r4, r4, #768	; 0x300
 80005cc:	d204      	bcs.n	80005d8 <__aeabi_dmul+0x80>
 80005ce:	ea5f 0e4e 	movs.w	lr, lr, lsl #1
 80005d2:	416d      	adcs	r5, r5
 80005d4:	eb46 0606 	adc.w	r6, r6, r6
 80005d8:	ea42 21c6 	orr.w	r1, r2, r6, lsl #11
 80005dc:	ea41 5155 	orr.w	r1, r1, r5, lsr #21
 80005e0:	ea4f 20c5 	mov.w	r0, r5, lsl #11
 80005e4:	ea40 505e 	orr.w	r0, r0, lr, lsr #21
 80005e8:	ea4f 2ece 	mov.w	lr, lr, lsl #11
 80005ec:	f1b4 0cfd 	subs.w	ip, r4, #253	; 0xfd
 80005f0:	bf88      	it	hi
 80005f2:	f5bc 6fe0 	cmphi.w	ip, #1792	; 0x700
 80005f6:	d81e      	bhi.n	8000636 <__aeabi_dmul+0xde>
 80005f8:	f1be 4f00 	cmp.w	lr, #2147483648	; 0x80000000
 80005fc:	bf08      	it	eq
 80005fe:	ea5f 0e50 	movseq.w	lr, r0, lsr #1
 8000602:	f150 0000 	adcs.w	r0, r0, #0
 8000606:	eb41 5104 	adc.w	r1, r1, r4, lsl #20
 800060a:	bd70      	pop	{r4, r5, r6, pc}
 800060c:	f006 4600 	and.w	r6, r6, #2147483648	; 0x80000000
 8000610:	ea46 0101 	orr.w	r1, r6, r1
 8000614:	ea40 0002 	orr.w	r0, r0, r2
 8000618:	ea81 0103 	eor.w	r1, r1, r3
 800061c:	ebb4 045c 	subs.w	r4, r4, ip, lsr #1
 8000620:	bfc2      	ittt	gt
 8000622:	ebd4 050c 	rsbsgt	r5, r4, ip
 8000626:	ea41 5104 	orrgt.w	r1, r1, r4, lsl #20
 800062a:	bd70      	popgt	{r4, r5, r6, pc}
 800062c:	f441 1180 	orr.w	r1, r1, #1048576	; 0x100000
 8000630:	f04f 0e00 	mov.w	lr, #0
 8000634:	3c01      	subs	r4, #1
 8000636:	f300 80ab 	bgt.w	8000790 <__aeabi_dmul+0x238>
 800063a:	f114 0f36 	cmn.w	r4, #54	; 0x36
 800063e:	bfde      	ittt	le
 8000640:	2000      	movle	r0, #0
 8000642:	f001 4100 	andle.w	r1, r1, #2147483648	; 0x80000000
 8000646:	bd70      	pople	{r4, r5, r6, pc}
 8000648:	f1c4 0400 	rsb	r4, r4, #0
 800064c:	3c20      	subs	r4, #32
 800064e:	da35      	bge.n	80006bc <__aeabi_dmul+0x164>
 8000650:	340c      	adds	r4, #12
 8000652:	dc1b      	bgt.n	800068c <__aeabi_dmul+0x134>
 8000654:	f104 0414 	add.w	r4, r4, #20
 8000658:	f1c4 0520 	rsb	r5, r4, #32
 800065c:	fa00 f305 	lsl.w	r3, r0, r5
 8000660:	fa20 f004 	lsr.w	r0, r0, r4
 8000664:	fa01 f205 	lsl.w	r2, r1, r5
 8000668:	ea40 0002 	orr.w	r0, r0, r2
 800066c:	f001 4200 	and.w	r2, r1, #2147483648	; 0x80000000
 8000670:	f021 4100 	bic.w	r1, r1, #2147483648	; 0x80000000
 8000674:	eb10 70d3 	adds.w	r0, r0, r3, lsr #31
 8000678:	fa21 f604 	lsr.w	r6, r1, r4
 800067c:	eb42 0106 	adc.w	r1, r2, r6
 8000680:	ea5e 0e43 	orrs.w	lr, lr, r3, lsl #1
 8000684:	bf08      	it	eq
 8000686:	ea20 70d3 	biceq.w	r0, r0, r3, lsr #31
 800068a:	bd70      	pop	{r4, r5, r6, pc}
 800068c:	f1c4 040c 	rsb	r4, r4, #12
 8000690:	f1c4 0520 	rsb	r5, r4, #32
 8000694:	fa00 f304 	lsl.w	r3, r0, r4
 8000698:	fa20 f005 	lsr.w	r0, r0, r5
 800069c:	fa01 f204 	lsl.w	r2, r1, r4
 80006a0:	ea40 0002 	orr.w	r0, r0, r2
 80006a4:	f001 4100 	and.w	r1, r1, #2147483648	; 0x80000000
 80006a8:	eb10 70d3 	adds.w	r0, r0, r3, lsr #31
 80006ac:	f141 0100 	adc.w	r1, r1, #0
 80006b0:	ea5e 0e43 	orrs.w	lr, lr, r3, lsl #1
 80006b4:	bf08      	it	eq
 80006b6:	ea20 70d3 	biceq.w	r0, r0, r3, lsr #31
 80006ba:	bd70      	pop	{r4, r5, r6, pc}
 80006bc:	f1c4 0520 	rsb	r5, r4, #32
 80006c0:	fa00 f205 	lsl.w	r2, r0, r5
 80006c4:	ea4e 0e02 	orr.w	lr, lr, r2
 80006c8:	fa20 f304 	lsr.w	r3, r0, r4
 80006cc:	fa01 f205 	lsl.w	r2, r1, r5
 80006d0:	ea43 0302 	orr.w	r3, r3, r2
 80006d4:	fa21 f004 	lsr.w	r0, r1, r4
 80006d8:	f001 4100 	and.w	r1, r1, #2147483648	; 0x80000000
 80006dc:	fa21 f204 	lsr.w	r2, r1, r4
 80006e0:	ea20 0002 	bic.w	r0, r0, r2
 80006e4:	eb00 70d3 	add.w	r0, r0, r3, lsr #31
 80006e8:	ea5e 0e43 	orrs.w	lr, lr, r3, lsl #1
 80006ec:	bf08      	it	eq
 80006ee:	ea20 70d3 	biceq.w	r0, r0, r3, lsr #31
 80006f2:	bd70      	pop	{r4, r5, r6, pc}
 80006f4:	f094 0f00 	teq	r4, #0
 80006f8:	d10f      	bne.n	800071a <__aeabi_dmul+0x1c2>
 80006fa:	f001 4600 	and.w	r6, r1, #2147483648	; 0x80000000
 80006fe:	0040      	lsls	r0, r0, #1
 8000700:	eb41 0101 	adc.w	r1, r1, r1
 8000704:	f411 1f80 	tst.w	r1, #1048576	; 0x100000
 8000708:	bf08      	it	eq
 800070a:	3c01      	subeq	r4, #1
 800070c:	d0f7      	beq.n	80006fe <__aeabi_dmul+0x1a6>
 800070e:	ea41 0106 	orr.w	r1, r1, r6
 8000712:	f095 0f00 	teq	r5, #0
 8000716:	bf18      	it	ne
 8000718:	4770      	bxne	lr
 800071a:	f003 4600 	and.w	r6, r3, #2147483648	; 0x80000000
 800071e:	0052      	lsls	r2, r2, #1
 8000720:	eb43 0303 	adc.w	r3, r3, r3
 8000724:	f413 1f80 	tst.w	r3, #1048576	; 0x100000
 8000728:	bf08      	it	eq
 800072a:	3d01      	subeq	r5, #1
 800072c:	d0f7      	beq.n	800071e <__aeabi_dmul+0x1c6>
 800072e:	ea43 0306 	orr.w	r3, r3, r6
 8000732:	4770      	bx	lr
 8000734:	ea94 0f0c 	teq	r4, ip
 8000738:	ea0c 5513 	and.w	r5, ip, r3, lsr #20
 800073c:	bf18      	it	ne
 800073e:	ea95 0f0c 	teqne	r5, ip
 8000742:	d00c      	beq.n	800075e <__aeabi_dmul+0x206>
 8000744:	ea50 0641 	orrs.w	r6, r0, r1, lsl #1
 8000748:	bf18      	it	ne
 800074a:	ea52 0643 	orrsne.w	r6, r2, r3, lsl #1
 800074e:	d1d1      	bne.n	80006f4 <__aeabi_dmul+0x19c>
 8000750:	ea81 0103 	eor.w	r1, r1, r3
 8000754:	f001 4100 	and.w	r1, r1, #2147483648	; 0x80000000
 8000758:	f04f 0000 	mov.w	r0, #0
 800075c:	bd70      	pop	{r4, r5, r6, pc}
 800075e:	ea50 0641 	orrs.w	r6, r0, r1, lsl #1
 8000762:	bf06      	itte	eq
 8000764:	4610      	moveq	r0, r2
 8000766:	4619      	moveq	r1, r3
 8000768:	ea52 0643 	orrsne.w	r6, r2, r3, lsl #1
 800076c:	d019      	beq.n	80007a2 <__aeabi_dmul+0x24a>
 800076e:	ea94 0f0c 	teq	r4, ip
 8000772:	d102      	bne.n	800077a <__aeabi_dmul+0x222>
 8000774:	ea50 3601 	orrs.w	r6, r0, r1, lsl #12
 8000778:	d113      	bne.n	80007a2 <__aeabi_dmul+0x24a>
 800077a:	ea95 0f0c 	teq	r5, ip
 800077e:	d105      	bne.n	800078c <__aeabi_dmul+0x234>
 8000780:	ea52 3603 	orrs.w	r6, r2, r3, lsl #12
 8000784:	bf1c      	itt	ne
 8000786:	4610      	movne	r0, r2
 8000788:	4619      	movne	r1, r3
 800078a:	d10a      	bne.n	80007a2 <__aeabi_dmul+0x24a>
 800078c:	ea81 0103 	eor.w	r1, r1, r3
 8000790:	f001 4100 	and.w	r1, r1, #2147483648	; 0x80000000
 8000794:	f041 41fe 	orr.w	r1, r1, #2130706432	; 0x7f000000
 8000798:	f441 0170 	orr.w	r1, r1, #15728640	; 0xf00000
 800079c:	f04f 0000 	mov.w	r0, #0
 80007a0:	bd70      	pop	{r4, r5, r6, pc}
 80007a2:	f041 41fe 	orr.w	r1, r1, #2130706432	; 0x7f000000
 80007a6:	f441 0178 	orr.w	r1, r1, #16252928	; 0xf80000
 80007aa:	bd70      	pop	{r4, r5, r6, pc}

080007ac <__aeabi_ddiv>:
 80007ac:	b570      	push	{r4, r5, r6, lr}
 80007ae:	f04f 0cff 	mov.w	ip, #255	; 0xff
 80007b2:	f44c 6ce0 	orr.w	ip, ip, #1792	; 0x700
 80007b6:	ea1c 5411 	ands.w	r4, ip, r1, lsr #20
 80007ba:	bf1d      	ittte	ne
 80007bc:	ea1c 5513 	andsne.w	r5, ip, r3, lsr #20
 80007c0:	ea94 0f0c 	teqne	r4, ip
 80007c4:	ea95 0f0c 	teqne	r5, ip
 80007c8:	f000 f8a7 	bleq	800091a <__aeabi_ddiv+0x16e>
 80007cc:	eba4 0405 	sub.w	r4, r4, r5
 80007d0:	ea81 0e03 	eor.w	lr, r1, r3
 80007d4:	ea52 3503 	orrs.w	r5, r2, r3, lsl #12
 80007d8:	ea4f 3101 	mov.w	r1, r1, lsl #12
 80007dc:	f000 8088 	beq.w	80008f0 <__aeabi_ddiv+0x144>
 80007e0:	ea4f 3303 	mov.w	r3, r3, lsl #12
 80007e4:	f04f 5580 	mov.w	r5, #268435456	; 0x10000000
 80007e8:	ea45 1313 	orr.w	r3, r5, r3, lsr #4
 80007ec:	ea43 6312 	orr.w	r3, r3, r2, lsr #24
 80007f0:	ea4f 2202 	mov.w	r2, r2, lsl #8
 80007f4:	ea45 1511 	orr.w	r5, r5, r1, lsr #4
 80007f8:	ea45 6510 	orr.w	r5, r5, r0, lsr #24
 80007fc:	ea4f 2600 	mov.w	r6, r0, lsl #8
 8000800:	f00e 4100 	and.w	r1, lr, #2147483648	; 0x80000000
 8000804:	429d      	cmp	r5, r3
 8000806:	bf08      	it	eq
 8000808:	4296      	cmpeq	r6, r2
 800080a:	f144 04fd 	adc.w	r4, r4, #253	; 0xfd
 800080e:	f504 7440 	add.w	r4, r4, #768	; 0x300
 8000812:	d202      	bcs.n	800081a <__aeabi_ddiv+0x6e>
 8000814:	085b      	lsrs	r3, r3, #1
 8000816:	ea4f 0232 	mov.w	r2, r2, rrx
 800081a:	1ab6      	subs	r6, r6, r2
 800081c:	eb65 0503 	sbc.w	r5, r5, r3
 8000820:	085b      	lsrs	r3, r3, #1
 8000822:	ea4f 0232 	mov.w	r2, r2, rrx
 8000826:	f44f 1080 	mov.w	r0, #1048576	; 0x100000
 800082a:	f44f 2c00 	mov.w	ip, #524288	; 0x80000
 800082e:	ebb6 0e02 	subs.w	lr, r6, r2
 8000832:	eb75 0e03 	sbcs.w	lr, r5, r3
 8000836:	bf22      	ittt	cs
 8000838:	1ab6      	subcs	r6, r6, r2
 800083a:	4675      	movcs	r5, lr
 800083c:	ea40 000c 	orrcs.w	r0, r0, ip
 8000840:	085b      	lsrs	r3, r3, #1
 8000842:	ea4f 0232 	mov.w	r2, r2, rrx
 8000846:	ebb6 0e02 	subs.w	lr, r6, r2
 800084a:	eb75 0e03 	sbcs.w	lr, r5, r3
 800084e:	bf22      	ittt	cs
 8000850:	1ab6      	subcs	r6, r6, r2
 8000852:	4675      	movcs	r5, lr
 8000854:	ea40 005c 	orrcs.w	r0, r0, ip, lsr #1
 8000858:	085b      	lsrs	r3, r3, #1
 800085a:	ea4f 0232 	mov.w	r2, r2, rrx
 800085e:	ebb6 0e02 	subs.w	lr, r6, r2
 8000862:	eb75 0e03 	sbcs.w	lr, r5, r3
 8000866:	bf22      	ittt	cs
 8000868:	1ab6      	subcs	r6, r6, r2
 800086a:	4675      	movcs	r5, lr
 800086c:	ea40 009c 	orrcs.w	r0, r0, ip, lsr #2
 8000870:	085b      	lsrs	r3, r3, #1
 8000872:	ea4f 0232 	mov.w	r2, r2, rrx
 8000876:	ebb6 0e02 	subs.w	lr, r6, r2
 800087a:	eb75 0e03 	sbcs.w	lr, r5, r3
 800087e:	bf22      	ittt	cs
 8000880:	1ab6      	subcs	r6, r6, r2
 8000882:	4675      	movcs	r5, lr
 8000884:	ea40 00dc 	orrcs.w	r0, r0, ip, lsr #3
 8000888:	ea55 0e06 	orrs.w	lr, r5, r6
 800088c:	d018      	beq.n	80008c0 <__aeabi_ddiv+0x114>
 800088e:	ea4f 1505 	mov.w	r5, r5, lsl #4
 8000892:	ea45 7516 	orr.w	r5, r5, r6, lsr #28
 8000896:	ea4f 1606 	mov.w	r6, r6, lsl #4
 800089a:	ea4f 03c3 	mov.w	r3, r3, lsl #3
 800089e:	ea43 7352 	orr.w	r3, r3, r2, lsr #29
 80008a2:	ea4f 02c2 	mov.w	r2, r2, lsl #3
 80008a6:	ea5f 1c1c 	movs.w	ip, ip, lsr #4
 80008aa:	d1c0      	bne.n	800082e <__aeabi_ddiv+0x82>
 80008ac:	f411 1f80 	tst.w	r1, #1048576	; 0x100000
 80008b0:	d10b      	bne.n	80008ca <__aeabi_ddiv+0x11e>
 80008b2:	ea41 0100 	orr.w	r1, r1, r0
 80008b6:	f04f 0000 	mov.w	r0, #0
 80008ba:	f04f 4c00 	mov.w	ip, #2147483648	; 0x80000000
 80008be:	e7b6      	b.n	800082e <__aeabi_ddiv+0x82>
 80008c0:	f411 1f80 	tst.w	r1, #1048576	; 0x100000
 80008c4:	bf04      	itt	eq
 80008c6:	4301      	orreq	r1, r0
 80008c8:	2000      	moveq	r0, #0
 80008ca:	f1b4 0cfd 	subs.w	ip, r4, #253	; 0xfd
 80008ce:	bf88      	it	hi
 80008d0:	f5bc 6fe0 	cmphi.w	ip, #1792	; 0x700
 80008d4:	f63f aeaf 	bhi.w	8000636 <__aeabi_dmul+0xde>
 80008d8:	ebb5 0c03 	subs.w	ip, r5, r3
 80008dc:	bf04      	itt	eq
 80008de:	ebb6 0c02 	subseq.w	ip, r6, r2
 80008e2:	ea5f 0c50 	movseq.w	ip, r0, lsr #1
 80008e6:	f150 0000 	adcs.w	r0, r0, #0
 80008ea:	eb41 5104 	adc.w	r1, r1, r4, lsl #20
 80008ee:	bd70      	pop	{r4, r5, r6, pc}
 80008f0:	f00e 4e00 	and.w	lr, lr, #2147483648	; 0x80000000
 80008f4:	ea4e 3111 	orr.w	r1, lr, r1, lsr #12
 80008f8:	eb14 045c 	adds.w	r4, r4, ip, lsr #1
 80008fc:	bfc2      	ittt	gt
 80008fe:	ebd4 050c 	rsbsgt	r5, r4, ip
 8000902:	ea41 5104 	orrgt.w	r1, r1, r4, lsl #20
 8000906:	bd70      	popgt	{r4, r5, r6, pc}
 8000908:	f441 1180 	orr.w	r1, r1, #1048576	; 0x100000
 800090c:	f04f 0e00 	mov.w	lr, #0
 8000910:	3c01      	subs	r4, #1
 8000912:	e690      	b.n	8000636 <__aeabi_dmul+0xde>
 8000914:	ea45 0e06 	orr.w	lr, r5, r6
 8000918:	e68d      	b.n	8000636 <__aeabi_dmul+0xde>
 800091a:	ea0c 5513 	and.w	r5, ip, r3, lsr #20
 800091e:	ea94 0f0c 	teq	r4, ip
 8000922:	bf08      	it	eq
 8000924:	ea95 0f0c 	teqeq	r5, ip
 8000928:	f43f af3b 	beq.w	80007a2 <__aeabi_dmul+0x24a>
 800092c:	ea94 0f0c 	teq	r4, ip
 8000930:	d10a      	bne.n	8000948 <__aeabi_ddiv+0x19c>
 8000932:	ea50 3401 	orrs.w	r4, r0, r1, lsl #12
 8000936:	f47f af34 	bne.w	80007a2 <__aeabi_dmul+0x24a>
 800093a:	ea95 0f0c 	teq	r5, ip
 800093e:	f47f af25 	bne.w	800078c <__aeabi_dmul+0x234>
 8000942:	4610      	mov	r0, r2
 8000944:	4619      	mov	r1, r3
 8000946:	e72c      	b.n	80007a2 <__aeabi_dmul+0x24a>
 8000948:	ea95 0f0c 	teq	r5, ip
 800094c:	d106      	bne.n	800095c <__aeabi_ddiv+0x1b0>
 800094e:	ea52 3503 	orrs.w	r5, r2, r3, lsl #12
 8000952:	f43f aefd 	beq.w	8000750 <__aeabi_dmul+0x1f8>
 8000956:	4610      	mov	r0, r2
 8000958:	4619      	mov	r1, r3
 800095a:	e722      	b.n	80007a2 <__aeabi_dmul+0x24a>
 800095c:	ea50 0641 	orrs.w	r6, r0, r1, lsl #1
 8000960:	bf18      	it	ne
 8000962:	ea52 0643 	orrsne.w	r6, r2, r3, lsl #1
 8000966:	f47f aec5 	bne.w	80006f4 <__aeabi_dmul+0x19c>
 800096a:	ea50 0441 	orrs.w	r4, r0, r1, lsl #1
 800096e:	f47f af0d 	bne.w	800078c <__aeabi_dmul+0x234>
 8000972:	ea52 0543 	orrs.w	r5, r2, r3, lsl #1
 8000976:	f47f aeeb 	bne.w	8000750 <__aeabi_dmul+0x1f8>
 800097a:	e712      	b.n	80007a2 <__aeabi_dmul+0x24a>

0800097c <__gedf2>:
 800097c:	f04f 3cff 	mov.w	ip, #4294967295
 8000980:	e006      	b.n	8000990 <__cmpdf2+0x4>
 8000982:	bf00      	nop

08000984 <__ledf2>:
 8000984:	f04f 0c01 	mov.w	ip, #1
 8000988:	e002      	b.n	8000990 <__cmpdf2+0x4>
 800098a:	bf00      	nop

0800098c <__cmpdf2>:
 800098c:	f04f 0c01 	mov.w	ip, #1
 8000990:	f84d cd04 	str.w	ip, [sp, #-4]!
 8000994:	ea4f 0c41 	mov.w	ip, r1, lsl #1
 8000998:	ea7f 5c6c 	mvns.w	ip, ip, asr #21
 800099c:	ea4f 0c43 	mov.w	ip, r3, lsl #1
 80009a0:	bf18      	it	ne
 80009a2:	ea7f 5c6c 	mvnsne.w	ip, ip, asr #21
 80009a6:	d01b      	beq.n	80009e0 <__cmpdf2+0x54>
 80009a8:	b001      	add	sp, #4
 80009aa:	ea50 0c41 	orrs.w	ip, r0, r1, lsl #1
 80009ae:	bf0c      	ite	eq
 80009b0:	ea52 0c43 	orrseq.w	ip, r2, r3, lsl #1
 80009b4:	ea91 0f03 	teqne	r1, r3
 80009b8:	bf02      	ittt	eq
 80009ba:	ea90 0f02 	teqeq	r0, r2
 80009be:	2000      	moveq	r0, #0
 80009c0:	4770      	bxeq	lr
 80009c2:	f110 0f00 	cmn.w	r0, #0
 80009c6:	ea91 0f03 	teq	r1, r3
 80009ca:	bf58      	it	pl
 80009cc:	4299      	cmppl	r1, r3
 80009ce:	bf08      	it	eq
 80009d0:	4290      	cmpeq	r0, r2
 80009d2:	bf2c      	ite	cs
 80009d4:	17d8      	asrcs	r0, r3, #31
 80009d6:	ea6f 70e3 	mvncc.w	r0, r3, asr #31
 80009da:	f040 0001 	orr.w	r0, r0, #1
 80009de:	4770      	bx	lr
 80009e0:	ea4f 0c41 	mov.w	ip, r1, lsl #1
 80009e4:	ea7f 5c6c 	mvns.w	ip, ip, asr #21
 80009e8:	d102      	bne.n	80009f0 <__cmpdf2+0x64>
 80009ea:	ea50 3c01 	orrs.w	ip, r0, r1, lsl #12
 80009ee:	d107      	bne.n	8000a00 <__cmpdf2+0x74>
 80009f0:	ea4f 0c43 	mov.w	ip, r3, lsl #1
 80009f4:	ea7f 5c6c 	mvns.w	ip, ip, asr #21
 80009f8:	d1d6      	bne.n	80009a8 <__cmpdf2+0x1c>
 80009fa:	ea52 3c03 	orrs.w	ip, r2, r3, lsl #12
 80009fe:	d0d3      	beq.n	80009a8 <__cmpdf2+0x1c>
 8000a00:	f85d 0b04 	ldr.w	r0, [sp], #4
 8000a04:	4770      	bx	lr
 8000a06:	bf00      	nop

08000a08 <__aeabi_cdrcmple>:
 8000a08:	4684      	mov	ip, r0
 8000a0a:	4610      	mov	r0, r2
 8000a0c:	4662      	mov	r2, ip
 8000a0e:	468c      	mov	ip, r1
 8000a10:	4619      	mov	r1, r3
 8000a12:	4663      	mov	r3, ip
 8000a14:	e000      	b.n	8000a18 <__aeabi_cdcmpeq>
 8000a16:	bf00      	nop

08000a18 <__aeabi_cdcmpeq>:
 8000a18:	b501      	push	{r0, lr}
 8000a1a:	f7ff ffb7 	bl	800098c <__cmpdf2>
 8000a1e:	2800      	cmp	r0, #0
 8000a20:	bf48      	it	mi
 8000a22:	f110 0f00 	cmnmi.w	r0, #0
 8000a26:	bd01      	pop	{r0, pc}

08000a28 <__aeabi_dcmpeq>:
 8000a28:	f84d ed08 	str.w	lr, [sp, #-8]!
 8000a2c:	f7ff fff4 	bl	8000a18 <__aeabi_cdcmpeq>
 8000a30:	bf0c      	ite	eq
 8000a32:	2001      	moveq	r0, #1
 8000a34:	2000      	movne	r0, #0
 8000a36:	f85d fb08 	ldr.w	pc, [sp], #8
 8000a3a:	bf00      	nop

08000a3c <__aeabi_dcmplt>:
 8000a3c:	f84d ed08 	str.w	lr, [sp, #-8]!
 8000a40:	f7ff ffea 	bl	8000a18 <__aeabi_cdcmpeq>
 8000a44:	bf34      	ite	cc
 8000a46:	2001      	movcc	r0, #1
 8000a48:	2000      	movcs	r0, #0
 8000a4a:	f85d fb08 	ldr.w	pc, [sp], #8
 8000a4e:	bf00      	nop

08000a50 <__aeabi_dcmple>:
 8000a50:	f84d ed08 	str.w	lr, [sp, #-8]!
 8000a54:	f7ff ffe0 	bl	8000a18 <__aeabi_cdcmpeq>
 8000a58:	bf94      	ite	ls
 8000a5a:	2001      	movls	r0, #1
 8000a5c:	2000      	movhi	r0, #0
 8000a5e:	f85d fb08 	ldr.w	pc, [sp], #8
 8000a62:	bf00      	nop

08000a64 <__aeabi_dcmpge>:
 8000a64:	f84d ed08 	str.w	lr, [sp, #-8]!
 8000a68:	f7ff ffce 	bl	8000a08 <__aeabi_cdrcmple>
 8000a6c:	bf94      	ite	ls
 8000a6e:	2001      	movls	r0, #1
 8000a70:	2000      	movhi	r0, #0
 8000a72:	f85d fb08 	ldr.w	pc, [sp], #8
 8000a76:	bf00      	nop

08000a78 <__aeabi_dcmpgt>:
 8000a78:	f84d ed08 	str.w	lr, [sp, #-8]!
 8000a7c:	f7ff ffc4 	bl	8000a08 <__aeabi_cdrcmple>
 8000a80:	bf34      	ite	cc
 8000a82:	2001      	movcc	r0, #1
 8000a84:	2000      	movcs	r0, #0
 8000a86:	f85d fb08 	ldr.w	pc, [sp], #8
 8000a8a:	bf00      	nop

08000a8c <__aeabi_d2iz>:
 8000a8c:	ea4f 0241 	mov.w	r2, r1, lsl #1
 8000a90:	f512 1200 	adds.w	r2, r2, #2097152	; 0x200000
 8000a94:	d215      	bcs.n	8000ac2 <__aeabi_d2iz+0x36>
 8000a96:	d511      	bpl.n	8000abc <__aeabi_d2iz+0x30>
 8000a98:	f46f 7378 	mvn.w	r3, #992	; 0x3e0
 8000a9c:	ebb3 5262 	subs.w	r2, r3, r2, asr #21
 8000aa0:	d912      	bls.n	8000ac8 <__aeabi_d2iz+0x3c>
 8000aa2:	ea4f 23c1 	mov.w	r3, r1, lsl #11
 8000aa6:	f043 4300 	orr.w	r3, r3, #2147483648	; 0x80000000
 8000aaa:	ea43 5350 	orr.w	r3, r3, r0, lsr #21
 8000aae:	f011 4f00 	tst.w	r1, #2147483648	; 0x80000000
 8000ab2:	fa23 f002 	lsr.w	r0, r3, r2
 8000ab6:	bf18      	it	ne
 8000ab8:	4240      	negne	r0, r0
 8000aba:	4770      	bx	lr
 8000abc:	f04f 0000 	mov.w	r0, #0
 8000ac0:	4770      	bx	lr
 8000ac2:	ea50 3001 	orrs.w	r0, r0, r1, lsl #12
 8000ac6:	d105      	bne.n	8000ad4 <__aeabi_d2iz+0x48>
 8000ac8:	f011 4000 	ands.w	r0, r1, #2147483648	; 0x80000000
 8000acc:	bf08      	it	eq
 8000ace:	f06f 4000 	mvneq.w	r0, #2147483648	; 0x80000000
 8000ad2:	4770      	bx	lr
 8000ad4:	f04f 0000 	mov.w	r0, #0
 8000ad8:	4770      	bx	lr
 8000ada:	bf00      	nop

08000adc <__aeabi_d2uiz>:
 8000adc:	004a      	lsls	r2, r1, #1
 8000ade:	d211      	bcs.n	8000b04 <__aeabi_d2uiz+0x28>
 8000ae0:	f512 1200 	adds.w	r2, r2, #2097152	; 0x200000
 8000ae4:	d211      	bcs.n	8000b0a <__aeabi_d2uiz+0x2e>
 8000ae6:	d50d      	bpl.n	8000b04 <__aeabi_d2uiz+0x28>
 8000ae8:	f46f 7378 	mvn.w	r3, #992	; 0x3e0
 8000aec:	ebb3 5262 	subs.w	r2, r3, r2, asr #21
 8000af0:	d40e      	bmi.n	8000b10 <__aeabi_d2uiz+0x34>
 8000af2:	ea4f 23c1 	mov.w	r3, r1, lsl #11
 8000af6:	f043 4300 	orr.w	r3, r3, #2147483648	; 0x80000000
 8000afa:	ea43 5350 	orr.w	r3, r3, r0, lsr #21
 8000afe:	fa23 f002 	lsr.w	r0, r3, r2
 8000b02:	4770      	bx	lr
 8000b04:	f04f 0000 	mov.w	r0, #0
 8000b08:	4770      	bx	lr
 8000b0a:	ea50 3001 	orrs.w	r0, r0, r1, lsl #12
 8000b0e:	d102      	bne.n	8000b16 <__aeabi_d2uiz+0x3a>
 8000b10:	f04f 30ff 	mov.w	r0, #4294967295
 8000b14:	4770      	bx	lr
 8000b16:	f04f 0000 	mov.w	r0, #0
 8000b1a:	4770      	bx	lr

08000b1c <__aeabi_uldivmod>:
 8000b1c:	b953      	cbnz	r3, 8000b34 <__aeabi_uldivmod+0x18>
 8000b1e:	b94a      	cbnz	r2, 8000b34 <__aeabi_uldivmod+0x18>
 8000b20:	2900      	cmp	r1, #0
 8000b22:	bf08      	it	eq
 8000b24:	2800      	cmpeq	r0, #0
 8000b26:	bf1c      	itt	ne
 8000b28:	f04f 31ff 	movne.w	r1, #4294967295
 8000b2c:	f04f 30ff 	movne.w	r0, #4294967295
 8000b30:	f000 b972 	b.w	8000e18 <__aeabi_idiv0>
 8000b34:	f1ad 0c08 	sub.w	ip, sp, #8
 8000b38:	e96d ce04 	strd	ip, lr, [sp, #-16]!
 8000b3c:	f000 f806 	bl	8000b4c <__udivmoddi4>
 8000b40:	f8dd e004 	ldr.w	lr, [sp, #4]
 8000b44:	e9dd 2302 	ldrd	r2, r3, [sp, #8]
 8000b48:	b004      	add	sp, #16
 8000b4a:	4770      	bx	lr

08000b4c <__udivmoddi4>:
 8000b4c:	e92d 47f0 	stmdb	sp!, {r4, r5, r6, r7, r8, r9, sl, lr}
 8000b50:	9e08      	ldr	r6, [sp, #32]
 8000b52:	4604      	mov	r4, r0
 8000b54:	4688      	mov	r8, r1
 8000b56:	2b00      	cmp	r3, #0
 8000b58:	d14b      	bne.n	8000bf2 <__udivmoddi4+0xa6>
 8000b5a:	428a      	cmp	r2, r1
 8000b5c:	4615      	mov	r5, r2
 8000b5e:	d967      	bls.n	8000c30 <__udivmoddi4+0xe4>
 8000b60:	fab2 f282 	clz	r2, r2
 8000b64:	b14a      	cbz	r2, 8000b7a <__udivmoddi4+0x2e>
 8000b66:	f1c2 0720 	rsb	r7, r2, #32
 8000b6a:	fa01 f302 	lsl.w	r3, r1, r2
 8000b6e:	fa20 f707 	lsr.w	r7, r0, r7
 8000b72:	4095      	lsls	r5, r2
 8000b74:	ea47 0803 	orr.w	r8, r7, r3
 8000b78:	4094      	lsls	r4, r2
 8000b7a:	ea4f 4e15 	mov.w	lr, r5, lsr #16
 8000b7e:	0c23      	lsrs	r3, r4, #16
 8000b80:	fbb8 f7fe 	udiv	r7, r8, lr
 8000b84:	fa1f fc85 	uxth.w	ip, r5
 8000b88:	fb0e 8817 	mls	r8, lr, r7, r8
 8000b8c:	ea43 4308 	orr.w	r3, r3, r8, lsl #16
 8000b90:	fb07 f10c 	mul.w	r1, r7, ip
 8000b94:	4299      	cmp	r1, r3
 8000b96:	d909      	bls.n	8000bac <__udivmoddi4+0x60>
 8000b98:	18eb      	adds	r3, r5, r3
 8000b9a:	f107 30ff 	add.w	r0, r7, #4294967295
 8000b9e:	f080 811b 	bcs.w	8000dd8 <__udivmoddi4+0x28c>
 8000ba2:	4299      	cmp	r1, r3
 8000ba4:	f240 8118 	bls.w	8000dd8 <__udivmoddi4+0x28c>
 8000ba8:	3f02      	subs	r7, #2
 8000baa:	442b      	add	r3, r5
 8000bac:	1a5b      	subs	r3, r3, r1
 8000bae:	b2a4      	uxth	r4, r4
 8000bb0:	fbb3 f0fe 	udiv	r0, r3, lr
 8000bb4:	fb0e 3310 	mls	r3, lr, r0, r3
 8000bb8:	ea44 4403 	orr.w	r4, r4, r3, lsl #16
 8000bbc:	fb00 fc0c 	mul.w	ip, r0, ip
 8000bc0:	45a4      	cmp	ip, r4
 8000bc2:	d909      	bls.n	8000bd8 <__udivmoddi4+0x8c>
 8000bc4:	192c      	adds	r4, r5, r4
 8000bc6:	f100 33ff 	add.w	r3, r0, #4294967295
 8000bca:	f080 8107 	bcs.w	8000ddc <__udivmoddi4+0x290>
 8000bce:	45a4      	cmp	ip, r4
 8000bd0:	f240 8104 	bls.w	8000ddc <__udivmoddi4+0x290>
 8000bd4:	3802      	subs	r0, #2
 8000bd6:	442c      	add	r4, r5
 8000bd8:	ea40 4007 	orr.w	r0, r0, r7, lsl #16
 8000bdc:	eba4 040c 	sub.w	r4, r4, ip
 8000be0:	2700      	movs	r7, #0
 8000be2:	b11e      	cbz	r6, 8000bec <__udivmoddi4+0xa0>
 8000be4:	40d4      	lsrs	r4, r2
 8000be6:	2300      	movs	r3, #0
 8000be8:	e9c6 4300 	strd	r4, r3, [r6]
 8000bec:	4639      	mov	r1, r7
 8000bee:	e8bd 87f0 	ldmia.w	sp!, {r4, r5, r6, r7, r8, r9, sl, pc}
 8000bf2:	428b      	cmp	r3, r1
 8000bf4:	d909      	bls.n	8000c0a <__udivmoddi4+0xbe>
 8000bf6:	2e00      	cmp	r6, #0
 8000bf8:	f000 80eb 	beq.w	8000dd2 <__udivmoddi4+0x286>
 8000bfc:	2700      	movs	r7, #0
 8000bfe:	e9c6 0100 	strd	r0, r1, [r6]
 8000c02:	4638      	mov	r0, r7
 8000c04:	4639      	mov	r1, r7
 8000c06:	e8bd 87f0 	ldmia.w	sp!, {r4, r5, r6, r7, r8, r9, sl, pc}
 8000c0a:	fab3 f783 	clz	r7, r3
 8000c0e:	2f00      	cmp	r7, #0
 8000c10:	d147      	bne.n	8000ca2 <__udivmoddi4+0x156>
 8000c12:	428b      	cmp	r3, r1
 8000c14:	d302      	bcc.n	8000c1c <__udivmoddi4+0xd0>
 8000c16:	4282      	cmp	r2, r0
 8000c18:	f200 80fa 	bhi.w	8000e10 <__udivmoddi4+0x2c4>
 8000c1c:	1a84      	subs	r4, r0, r2
 8000c1e:	eb61 0303 	sbc.w	r3, r1, r3
 8000c22:	2001      	movs	r0, #1
 8000c24:	4698      	mov	r8, r3
 8000c26:	2e00      	cmp	r6, #0
 8000c28:	d0e0      	beq.n	8000bec <__udivmoddi4+0xa0>
 8000c2a:	e9c6 4800 	strd	r4, r8, [r6]
 8000c2e:	e7dd      	b.n	8000bec <__udivmoddi4+0xa0>
 8000c30:	b902      	cbnz	r2, 8000c34 <__udivmoddi4+0xe8>
 8000c32:	deff      	udf	#255	; 0xff
 8000c34:	fab2 f282 	clz	r2, r2
 8000c38:	2a00      	cmp	r2, #0
 8000c3a:	f040 808f 	bne.w	8000d5c <__udivmoddi4+0x210>
 8000c3e:	1b49      	subs	r1, r1, r5
 8000c40:	ea4f 4e15 	mov.w	lr, r5, lsr #16
 8000c44:	fa1f f885 	uxth.w	r8, r5
 8000c48:	2701      	movs	r7, #1
 8000c4a:	fbb1 fcfe 	udiv	ip, r1, lr
 8000c4e:	0c23      	lsrs	r3, r4, #16
 8000c50:	fb0e 111c 	mls	r1, lr, ip, r1
 8000c54:	ea43 4301 	orr.w	r3, r3, r1, lsl #16
 8000c58:	fb08 f10c 	mul.w	r1, r8, ip
 8000c5c:	4299      	cmp	r1, r3
 8000c5e:	d907      	bls.n	8000c70 <__udivmoddi4+0x124>
 8000c60:	18eb      	adds	r3, r5, r3
 8000c62:	f10c 30ff 	add.w	r0, ip, #4294967295
 8000c66:	d202      	bcs.n	8000c6e <__udivmoddi4+0x122>
 8000c68:	4299      	cmp	r1, r3
 8000c6a:	f200 80cd 	bhi.w	8000e08 <__udivmoddi4+0x2bc>
 8000c6e:	4684      	mov	ip, r0
 8000c70:	1a59      	subs	r1, r3, r1
 8000c72:	b2a3      	uxth	r3, r4
 8000c74:	fbb1 f0fe 	udiv	r0, r1, lr
 8000c78:	fb0e 1410 	mls	r4, lr, r0, r1
 8000c7c:	ea43 4404 	orr.w	r4, r3, r4, lsl #16
 8000c80:	fb08 f800 	mul.w	r8, r8, r0
 8000c84:	45a0      	cmp	r8, r4
 8000c86:	d907      	bls.n	8000c98 <__udivmoddi4+0x14c>
 8000c88:	192c      	adds	r4, r5, r4
 8000c8a:	f100 33ff 	add.w	r3, r0, #4294967295
 8000c8e:	d202      	bcs.n	8000c96 <__udivmoddi4+0x14a>
 8000c90:	45a0      	cmp	r8, r4
 8000c92:	f200 80b6 	bhi.w	8000e02 <__udivmoddi4+0x2b6>
 8000c96:	4618      	mov	r0, r3
 8000c98:	eba4 0408 	sub.w	r4, r4, r8
 8000c9c:	ea40 400c 	orr.w	r0, r0, ip, lsl #16
 8000ca0:	e79f      	b.n	8000be2 <__udivmoddi4+0x96>
 8000ca2:	f1c7 0c20 	rsb	ip, r7, #32
 8000ca6:	40bb      	lsls	r3, r7
 8000ca8:	fa22 fe0c 	lsr.w	lr, r2, ip
 8000cac:	ea4e 0e03 	orr.w	lr, lr, r3
 8000cb0:	fa01 f407 	lsl.w	r4, r1, r7
 8000cb4:	fa20 f50c 	lsr.w	r5, r0, ip
 8000cb8:	fa21 f30c 	lsr.w	r3, r1, ip
 8000cbc:	ea4f 481e 	mov.w	r8, lr, lsr #16
 8000cc0:	4325      	orrs	r5, r4
 8000cc2:	fbb3 f9f8 	udiv	r9, r3, r8
 8000cc6:	0c2c      	lsrs	r4, r5, #16
 8000cc8:	fb08 3319 	mls	r3, r8, r9, r3
 8000ccc:	fa1f fa8e 	uxth.w	sl, lr
 8000cd0:	ea44 4303 	orr.w	r3, r4, r3, lsl #16
 8000cd4:	fb09 f40a 	mul.w	r4, r9, sl
 8000cd8:	429c      	cmp	r4, r3
 8000cda:	fa02 f207 	lsl.w	r2, r2, r7
 8000cde:	fa00 f107 	lsl.w	r1, r0, r7
 8000ce2:	d90b      	bls.n	8000cfc <__udivmoddi4+0x1b0>
 8000ce4:	eb1e 0303 	adds.w	r3, lr, r3
 8000ce8:	f109 30ff 	add.w	r0, r9, #4294967295
 8000cec:	f080 8087 	bcs.w	8000dfe <__udivmoddi4+0x2b2>
 8000cf0:	429c      	cmp	r4, r3
 8000cf2:	f240 8084 	bls.w	8000dfe <__udivmoddi4+0x2b2>
 8000cf6:	f1a9 0902 	sub.w	r9, r9, #2
 8000cfa:	4473      	add	r3, lr
 8000cfc:	1b1b      	subs	r3, r3, r4
 8000cfe:	b2ad      	uxth	r5, r5
 8000d00:	fbb3 f0f8 	udiv	r0, r3, r8
 8000d04:	fb08 3310 	mls	r3, r8, r0, r3
 8000d08:	ea45 4403 	orr.w	r4, r5, r3, lsl #16
 8000d0c:	fb00 fa0a 	mul.w	sl, r0, sl
 8000d10:	45a2      	cmp	sl, r4
 8000d12:	d908      	bls.n	8000d26 <__udivmoddi4+0x1da>
 8000d14:	eb1e 0404 	adds.w	r4, lr, r4
 8000d18:	f100 33ff 	add.w	r3, r0, #4294967295
 8000d1c:	d26b      	bcs.n	8000df6 <__udivmoddi4+0x2aa>
 8000d1e:	45a2      	cmp	sl, r4
 8000d20:	d969      	bls.n	8000df6 <__udivmoddi4+0x2aa>
 8000d22:	3802      	subs	r0, #2
 8000d24:	4474      	add	r4, lr
 8000d26:	ea40 4009 	orr.w	r0, r0, r9, lsl #16
 8000d2a:	fba0 8902 	umull	r8, r9, r0, r2
 8000d2e:	eba4 040a 	sub.w	r4, r4, sl
 8000d32:	454c      	cmp	r4, r9
 8000d34:	46c2      	mov	sl, r8
 8000d36:	464b      	mov	r3, r9
 8000d38:	d354      	bcc.n	8000de4 <__udivmoddi4+0x298>
 8000d3a:	d051      	beq.n	8000de0 <__udivmoddi4+0x294>
 8000d3c:	2e00      	cmp	r6, #0
 8000d3e:	d069      	beq.n	8000e14 <__udivmoddi4+0x2c8>
 8000d40:	ebb1 050a 	subs.w	r5, r1, sl
 8000d44:	eb64 0403 	sbc.w	r4, r4, r3
 8000d48:	fa04 fc0c 	lsl.w	ip, r4, ip
 8000d4c:	40fd      	lsrs	r5, r7
 8000d4e:	40fc      	lsrs	r4, r7
 8000d50:	ea4c 0505 	orr.w	r5, ip, r5
 8000d54:	e9c6 5400 	strd	r5, r4, [r6]
 8000d58:	2700      	movs	r7, #0
 8000d5a:	e747      	b.n	8000bec <__udivmoddi4+0xa0>
 8000d5c:	f1c2 0320 	rsb	r3, r2, #32
 8000d60:	fa20 f703 	lsr.w	r7, r0, r3
 8000d64:	4095      	lsls	r5, r2
 8000d66:	fa01 f002 	lsl.w	r0, r1, r2
 8000d6a:	fa21 f303 	lsr.w	r3, r1, r3
 8000d6e:	ea4f 4e15 	mov.w	lr, r5, lsr #16
 8000d72:	4338      	orrs	r0, r7
 8000d74:	0c01      	lsrs	r1, r0, #16
 8000d76:	fbb3 f7fe 	udiv	r7, r3, lr
 8000d7a:	fa1f f885 	uxth.w	r8, r5
 8000d7e:	fb0e 3317 	mls	r3, lr, r7, r3
 8000d82:	ea41 4103 	orr.w	r1, r1, r3, lsl #16
 8000d86:	fb07 f308 	mul.w	r3, r7, r8
 8000d8a:	428b      	cmp	r3, r1
 8000d8c:	fa04 f402 	lsl.w	r4, r4, r2
 8000d90:	d907      	bls.n	8000da2 <__udivmoddi4+0x256>
 8000d92:	1869      	adds	r1, r5, r1
 8000d94:	f107 3cff 	add.w	ip, r7, #4294967295
 8000d98:	d22f      	bcs.n	8000dfa <__udivmoddi4+0x2ae>
 8000d9a:	428b      	cmp	r3, r1
 8000d9c:	d92d      	bls.n	8000dfa <__udivmoddi4+0x2ae>
 8000d9e:	3f02      	subs	r7, #2
 8000da0:	4429      	add	r1, r5
 8000da2:	1acb      	subs	r3, r1, r3
 8000da4:	b281      	uxth	r1, r0
 8000da6:	fbb3 f0fe 	udiv	r0, r3, lr
 8000daa:	fb0e 3310 	mls	r3, lr, r0, r3
 8000dae:	ea41 4103 	orr.w	r1, r1, r3, lsl #16
 8000db2:	fb00 f308 	mul.w	r3, r0, r8
 8000db6:	428b      	cmp	r3, r1
 8000db8:	d907      	bls.n	8000dca <__udivmoddi4+0x27e>
 8000dba:	1869      	adds	r1, r5, r1
 8000dbc:	f100 3cff 	add.w	ip, r0, #4294967295
 8000dc0:	d217      	bcs.n	8000df2 <__udivmoddi4+0x2a6>
 8000dc2:	428b      	cmp	r3, r1
 8000dc4:	d915      	bls.n	8000df2 <__udivmoddi4+0x2a6>
 8000dc6:	3802      	subs	r0, #2
 8000dc8:	4429      	add	r1, r5
 8000dca:	1ac9      	subs	r1, r1, r3
 8000dcc:	ea40 4707 	orr.w	r7, r0, r7, lsl #16
 8000dd0:	e73b      	b.n	8000c4a <__udivmoddi4+0xfe>
 8000dd2:	4637      	mov	r7, r6
 8000dd4:	4630      	mov	r0, r6
 8000dd6:	e709      	b.n	8000bec <__udivmoddi4+0xa0>
 8000dd8:	4607      	mov	r7, r0
 8000dda:	e6e7      	b.n	8000bac <__udivmoddi4+0x60>
 8000ddc:	4618      	mov	r0, r3
 8000dde:	e6fb      	b.n	8000bd8 <__udivmoddi4+0x8c>
 8000de0:	4541      	cmp	r1, r8
 8000de2:	d2ab      	bcs.n	8000d3c <__udivmoddi4+0x1f0>
 8000de4:	ebb8 0a02 	subs.w	sl, r8, r2
 8000de8:	eb69 020e 	sbc.w	r2, r9, lr
 8000dec:	3801      	subs	r0, #1
 8000dee:	4613      	mov	r3, r2
 8000df0:	e7a4      	b.n	8000d3c <__udivmoddi4+0x1f0>
 8000df2:	4660      	mov	r0, ip
 8000df4:	e7e9      	b.n	8000dca <__udivmoddi4+0x27e>
 8000df6:	4618      	mov	r0, r3
 8000df8:	e795      	b.n	8000d26 <__udivmoddi4+0x1da>
 8000dfa:	4667      	mov	r7, ip
 8000dfc:	e7d1      	b.n	8000da2 <__udivmoddi4+0x256>
 8000dfe:	4681      	mov	r9, r0
 8000e00:	e77c      	b.n	8000cfc <__udivmoddi4+0x1b0>
 8000e02:	3802      	subs	r0, #2
 8000e04:	442c      	add	r4, r5
 8000e06:	e747      	b.n	8000c98 <__udivmoddi4+0x14c>
 8000e08:	f1ac 0c02 	sub.w	ip, ip, #2
 8000e0c:	442b      	add	r3, r5
 8000e0e:	e72f      	b.n	8000c70 <__udivmoddi4+0x124>
 8000e10:	4638      	mov	r0, r7
 8000e12:	e708      	b.n	8000c26 <__udivmoddi4+0xda>
 8000e14:	4637      	mov	r7, r6
 8000e16:	e6e9      	b.n	8000bec <__udivmoddi4+0xa0>

08000e18 <__aeabi_idiv0>:
 8000e18:	4770      	bx	lr
 8000e1a:	bf00      	nop

08000e1c <MX_FREERTOS_Init>:
/**
  * @brief  FreeRTOS initialization
  * @param  None
  * @retval None
  */
void MX_FREERTOS_Init(void) {
 8000e1c:	b580      	push	{r7, lr}
 8000e1e:	af00      	add	r7, sp, #0
  /* USER CODE BEGIN Init */

  /* USER CODE END Init */
  /* Create the mutex(es) */
  /* creation of MutexPrintf */
  MutexPrintfHandle = osMutexNew(&MutexPrintf_attributes);
 8000e20:	480f      	ldr	r0, [pc, #60]	; (8000e60 <MX_FREERTOS_Init+0x44>)
 8000e22:	f004 f9f3 	bl	800520c <osMutexNew>
 8000e26:	4602      	mov	r2, r0
 8000e28:	4b0e      	ldr	r3, [pc, #56]	; (8000e64 <MX_FREERTOS_Init+0x48>)
 8000e2a:	601a      	str	r2, [r3, #0]
  /* add queues, ... */
  /* USER CODE END RTOS_QUEUES */

  /* Create the thread(s) */
  /* creation of Led2Task */
  Led2TaskHandle = osThreadNew(StartLed2Task, NULL, &Led2Task_attributes);
 8000e2c:	4a0e      	ldr	r2, [pc, #56]	; (8000e68 <MX_FREERTOS_Init+0x4c>)
 8000e2e:	2100      	movs	r1, #0
 8000e30:	480e      	ldr	r0, [pc, #56]	; (8000e6c <MX_FREERTOS_Init+0x50>)
 8000e32:	f004 f821 	bl	8004e78 <osThreadNew>
 8000e36:	4602      	mov	r2, r0
 8000e38:	4b0d      	ldr	r3, [pc, #52]	; (8000e70 <MX_FREERTOS_Init+0x54>)
 8000e3a:	601a      	str	r2, [r3, #0]

  /* creation of Led3Task */
  Led3TaskHandle = osThreadNew(StartLed3Task, NULL, &Led3Task_attributes);
 8000e3c:	4a0d      	ldr	r2, [pc, #52]	; (8000e74 <MX_FREERTOS_Init+0x58>)
 8000e3e:	2100      	movs	r1, #0
 8000e40:	480d      	ldr	r0, [pc, #52]	; (8000e78 <MX_FREERTOS_Init+0x5c>)
 8000e42:	f004 f819 	bl	8004e78 <osThreadNew>
 8000e46:	4602      	mov	r2, r0
 8000e48:	4b0c      	ldr	r3, [pc, #48]	; (8000e7c <MX_FREERTOS_Init+0x60>)
 8000e4a:	601a      	str	r2, [r3, #0]

  /* creation of Led4Task */
  Led4TaskHandle = osThreadNew(StartLed4Task, NULL, &Led4Task_attributes);
 8000e4c:	4a0c      	ldr	r2, [pc, #48]	; (8000e80 <MX_FREERTOS_Init+0x64>)
 8000e4e:	2100      	movs	r1, #0
 8000e50:	480c      	ldr	r0, [pc, #48]	; (8000e84 <MX_FREERTOS_Init+0x68>)
 8000e52:	f004 f811 	bl	8004e78 <osThreadNew>
 8000e56:	4602      	mov	r2, r0
 8000e58:	4b0b      	ldr	r3, [pc, #44]	; (8000e88 <MX_FREERTOS_Init+0x6c>)
 8000e5a:	601a      	str	r2, [r3, #0]

  /* USER CODE BEGIN RTOS_EVENTS */
  /* add events, ... */
  /* USER CODE END RTOS_EVENTS */

}
 8000e5c:	bf00      	nop
 8000e5e:	bd80      	pop	{r7, pc}
 8000e60:	08008894 	.word	0x08008894
 8000e64:	20004938 	.word	0x20004938
 8000e68:	08008828 	.word	0x08008828
 8000e6c:	08000e8d 	.word	0x08000e8d
 8000e70:	20004934 	.word	0x20004934
 8000e74:	0800884c 	.word	0x0800884c
 8000e78:	08000ebd 	.word	0x08000ebd
 8000e7c:	20004940 	.word	0x20004940
 8000e80:	08008870 	.word	0x08008870
 8000e84:	08000f15 	.word	0x08000f15
 8000e88:	2000493c 	.word	0x2000493c

08000e8c <StartLed2Task>:
  * @param  argument: Not used
  * @retval None
  */
/* USER CODE END Header_StartLed2Task */
void StartLed2Task(void *argument)
{
 8000e8c:	b580      	push	{r7, lr}
 8000e8e:	b084      	sub	sp, #16
 8000e90:	af00      	add	r7, sp, #0
 8000e92:	6078      	str	r0, [r7, #4]
  /* USER CODE BEGIN StartLed2Task */
	uint32_t tick;

	tick = osKernelGetTickCount();        // retrieve the number of system ticks
 8000e94:	f003 ffc8 	bl	8004e28 <osKernelGetTickCount>
 8000e98:	60f8      	str	r0, [r7, #12]
  /* Infinite loop */
  for(;;)
  {
	  HAL_GPIO_TogglePin(LD2_GPIO_Port, LD2_Pin);
 8000e9a:	2120      	movs	r1, #32
 8000e9c:	4805      	ldr	r0, [pc, #20]	; (8000eb4 <StartLed2Task+0x28>)
 8000e9e:	f002 fbbe 	bl	800361e <HAL_GPIO_TogglePin>
	  printf("Led2\n\r");
 8000ea2:	4805      	ldr	r0, [pc, #20]	; (8000eb8 <StartLed2Task+0x2c>)
 8000ea4:	f001 fdb6 	bl	8002a14 <printf_>
	  osDelay(500);
 8000ea8:	f44f 70fa 	mov.w	r0, #500	; 0x1f4
 8000eac:	f004 f980 	bl	80051b0 <osDelay>
	  HAL_GPIO_TogglePin(LD2_GPIO_Port, LD2_Pin);
 8000eb0:	e7f3      	b.n	8000e9a <StartLed2Task+0xe>
 8000eb2:	bf00      	nop
 8000eb4:	40020000 	.word	0x40020000
 8000eb8:	08008788 	.word	0x08008788

08000ebc <StartLed3Task>:
* @param argument: Not used
* @retval None
*/
/* USER CODE END Header_StartLed3Task */
void StartLed3Task(void *argument)
{
 8000ebc:	b580      	push	{r7, lr}
 8000ebe:	b084      	sub	sp, #16
 8000ec0:	af00      	add	r7, sp, #0
 8000ec2:	6078      	str	r0, [r7, #4]
  /* USER CODE BEGIN StartLed3Task */
	uint32_t tick;

	tick = osKernelGetTickCount();        // retrieve the number of system ticks
 8000ec4:	f003 ffb0 	bl	8004e28 <osKernelGetTickCount>
 8000ec8:	60f8      	str	r0, [r7, #12]
	tick = xTaskGetTickCount();
 8000eca:	f005 fd97 	bl	80069fc <xTaskGetTickCount>
 8000ece:	60f8      	str	r0, [r7, #12]
  /* Infinite loop */
  for(;;)
  {
	  printf("Led3 enter\n\r");
 8000ed0:	480b      	ldr	r0, [pc, #44]	; (8000f00 <StartLed3Task+0x44>)
 8000ed2:	f001 fd9f 	bl	8002a14 <printf_>
	  osThreadFlagsSet(Led4TaskHandle, 0x00000001);
 8000ed6:	4b0b      	ldr	r3, [pc, #44]	; (8000f04 <StartLed3Task+0x48>)
 8000ed8:	681b      	ldr	r3, [r3, #0]
 8000eda:	2101      	movs	r1, #1
 8000edc:	4618      	mov	r0, r3
 8000ede:	f004 f871 	bl	8004fc4 <osThreadFlagsSet>
	  printf("Led3 flag set\n\r");
 8000ee2:	4809      	ldr	r0, [pc, #36]	; (8000f08 <StartLed3Task+0x4c>)
 8000ee4:	f001 fd96 	bl	8002a14 <printf_>
	  HAL_GPIO_TogglePin(LD3_GPIO_Port, LD3_Pin);
 8000ee8:	2140      	movs	r1, #64	; 0x40
 8000eea:	4808      	ldr	r0, [pc, #32]	; (8000f0c <StartLed3Task+0x50>)
 8000eec:	f002 fb97 	bl	800361e <HAL_GPIO_TogglePin>
	  printf("Led3 exit\n\r");
 8000ef0:	4807      	ldr	r0, [pc, #28]	; (8000f10 <StartLed3Task+0x54>)
 8000ef2:	f001 fd8f 	bl	8002a14 <printf_>
	  osDelay(300);
 8000ef6:	f44f 7096 	mov.w	r0, #300	; 0x12c
 8000efa:	f004 f959 	bl	80051b0 <osDelay>
	  printf("Led3 enter\n\r");
 8000efe:	e7e7      	b.n	8000ed0 <StartLed3Task+0x14>
 8000f00:	08008790 	.word	0x08008790
 8000f04:	2000493c 	.word	0x2000493c
 8000f08:	080087a0 	.word	0x080087a0
 8000f0c:	40020000 	.word	0x40020000
 8000f10:	080087b0 	.word	0x080087b0

08000f14 <StartLed4Task>:
* @param argument: Not used
* @retval None
*/
/* USER CODE END Header_StartLed4Task */
void StartLed4Task(void *argument)
{
 8000f14:	b580      	push	{r7, lr}
 8000f16:	b084      	sub	sp, #16
 8000f18:	af00      	add	r7, sp, #0
 8000f1a:	6078      	str	r0, [r7, #4]
  /* USER CODE BEGIN StartLed4Task */
	uint32_t tick;

	tick = osKernelGetTickCount();        // retrieve the number of system ticks
 8000f1c:	f003 ff84 	bl	8004e28 <osKernelGetTickCount>
 8000f20:	60f8      	str	r0, [r7, #12]
  /* Infinite loop */
  for(;;)
  {
	  printf("Led4 enter\n\r");
 8000f22:	480b      	ldr	r0, [pc, #44]	; (8000f50 <StartLed4Task+0x3c>)
 8000f24:	f001 fd76 	bl	8002a14 <printf_>
	  printf("Led4 flag wait\n\r");
 8000f28:	480a      	ldr	r0, [pc, #40]	; (8000f54 <StartLed4Task+0x40>)
 8000f2a:	f001 fd73 	bl	8002a14 <printf_>
	  osThreadFlagsWait(0x00000001, osFlagsWaitAll, osWaitForever);
 8000f2e:	f04f 32ff 	mov.w	r2, #4294967295
 8000f32:	2101      	movs	r1, #1
 8000f34:	2001      	movs	r0, #1
 8000f36:	f004 f8a7 	bl	8005088 <osThreadFlagsWait>
	  printf("Led4 flag get\n\r");
 8000f3a:	4807      	ldr	r0, [pc, #28]	; (8000f58 <StartLed4Task+0x44>)
 8000f3c:	f001 fd6a 	bl	8002a14 <printf_>
	  HAL_GPIO_TogglePin(LD4_GPIO_Port, LD4_Pin);
 8000f40:	2180      	movs	r1, #128	; 0x80
 8000f42:	4806      	ldr	r0, [pc, #24]	; (8000f5c <StartLed4Task+0x48>)
 8000f44:	f002 fb6b 	bl	800361e <HAL_GPIO_TogglePin>
	  printf("Led4\n\r");
 8000f48:	4805      	ldr	r0, [pc, #20]	; (8000f60 <StartLed4Task+0x4c>)
 8000f4a:	f001 fd63 	bl	8002a14 <printf_>
	  printf("Led4 enter\n\r");
 8000f4e:	e7e8      	b.n	8000f22 <StartLed4Task+0xe>
 8000f50:	080087bc 	.word	0x080087bc
 8000f54:	080087cc 	.word	0x080087cc
 8000f58:	080087e0 	.word	0x080087e0
 8000f5c:	40020000 	.word	0x40020000
 8000f60:	080087f0 	.word	0x080087f0

08000f64 <_putchar>:
}

/* Private application code --------------------------------------------------*/
/* USER CODE BEGIN Application */
void _putchar(char character)
{
 8000f64:	b580      	push	{r7, lr}
 8000f66:	b082      	sub	sp, #8
 8000f68:	af00      	add	r7, sp, #0
 8000f6a:	4603      	mov	r3, r0
 8000f6c:	71fb      	strb	r3, [r7, #7]
	osMutexAcquire(MutexPrintfHandle, osWaitForever);
 8000f6e:	4b0b      	ldr	r3, [pc, #44]	; (8000f9c <_putchar+0x38>)
 8000f70:	681b      	ldr	r3, [r3, #0]
 8000f72:	f04f 31ff 	mov.w	r1, #4294967295
 8000f76:	4618      	mov	r0, r3
 8000f78:	f004 f9e2 	bl	8005340 <osMutexAcquire>
	HAL_UART_Transmit(&huart2, (uint8_t*)&character, 1, 1000);
 8000f7c:	1df9      	adds	r1, r7, #7
 8000f7e:	f44f 737a 	mov.w	r3, #1000	; 0x3e8
 8000f82:	2201      	movs	r2, #1
 8000f84:	4806      	ldr	r0, [pc, #24]	; (8000fa0 <_putchar+0x3c>)
 8000f86:	f003 fa7e 	bl	8004486 <HAL_UART_Transmit>
	osMutexRelease(MutexPrintfHandle);
 8000f8a:	4b04      	ldr	r3, [pc, #16]	; (8000f9c <_putchar+0x38>)
 8000f8c:	681b      	ldr	r3, [r3, #0]
 8000f8e:	4618      	mov	r0, r3
 8000f90:	f004 fa34 	bl	80053fc <osMutexRelease>
}
 8000f94:	bf00      	nop
 8000f96:	3708      	adds	r7, #8
 8000f98:	46bd      	mov	sp, r7
 8000f9a:	bd80      	pop	{r7, pc}
 8000f9c:	20004938 	.word	0x20004938
 8000fa0:	20004984 	.word	0x20004984

08000fa4 <MX_GPIO_Init>:
        * Output
        * EVENT_OUT
        * EXTI
*/
void MX_GPIO_Init(void)
{
 8000fa4:	b580      	push	{r7, lr}
 8000fa6:	b08a      	sub	sp, #40	; 0x28
 8000fa8:	af00      	add	r7, sp, #0

  GPIO_InitTypeDef GPIO_InitStruct = {0};
 8000faa:	f107 0314 	add.w	r3, r7, #20
 8000fae:	2200      	movs	r2, #0
 8000fb0:	601a      	str	r2, [r3, #0]
 8000fb2:	605a      	str	r2, [r3, #4]
 8000fb4:	609a      	str	r2, [r3, #8]
 8000fb6:	60da      	str	r2, [r3, #12]
 8000fb8:	611a      	str	r2, [r3, #16]

  /* GPIO Ports Clock Enable */
  __HAL_RCC_GPIOC_CLK_ENABLE();
 8000fba:	2300      	movs	r3, #0
 8000fbc:	613b      	str	r3, [r7, #16]
 8000fbe:	4b2d      	ldr	r3, [pc, #180]	; (8001074 <MX_GPIO_Init+0xd0>)
 8000fc0:	6b1b      	ldr	r3, [r3, #48]	; 0x30
 8000fc2:	4a2c      	ldr	r2, [pc, #176]	; (8001074 <MX_GPIO_Init+0xd0>)
 8000fc4:	f043 0304 	orr.w	r3, r3, #4
 8000fc8:	6313      	str	r3, [r2, #48]	; 0x30
 8000fca:	4b2a      	ldr	r3, [pc, #168]	; (8001074 <MX_GPIO_Init+0xd0>)
 8000fcc:	6b1b      	ldr	r3, [r3, #48]	; 0x30
 8000fce:	f003 0304 	and.w	r3, r3, #4
 8000fd2:	613b      	str	r3, [r7, #16]
 8000fd4:	693b      	ldr	r3, [r7, #16]
  __HAL_RCC_GPIOH_CLK_ENABLE();
 8000fd6:	2300      	movs	r3, #0
 8000fd8:	60fb      	str	r3, [r7, #12]
 8000fda:	4b26      	ldr	r3, [pc, #152]	; (8001074 <MX_GPIO_Init+0xd0>)
 8000fdc:	6b1b      	ldr	r3, [r3, #48]	; 0x30
 8000fde:	4a25      	ldr	r2, [pc, #148]	; (8001074 <MX_GPIO_Init+0xd0>)
 8000fe0:	f043 0380 	orr.w	r3, r3, #128	; 0x80
 8000fe4:	6313      	str	r3, [r2, #48]	; 0x30
 8000fe6:	4b23      	ldr	r3, [pc, #140]	; (8001074 <MX_GPIO_Init+0xd0>)
 8000fe8:	6b1b      	ldr	r3, [r3, #48]	; 0x30
 8000fea:	f003 0380 	and.w	r3, r3, #128	; 0x80
 8000fee:	60fb      	str	r3, [r7, #12]
 8000ff0:	68fb      	ldr	r3, [r7, #12]
  __HAL_RCC_GPIOA_CLK_ENABLE();
 8000ff2:	2300      	movs	r3, #0
 8000ff4:	60bb      	str	r3, [r7, #8]
 8000ff6:	4b1f      	ldr	r3, [pc, #124]	; (8001074 <MX_GPIO_Init+0xd0>)
 8000ff8:	6b1b      	ldr	r3, [r3, #48]	; 0x30
 8000ffa:	4a1e      	ldr	r2, [pc, #120]	; (8001074 <MX_GPIO_Init+0xd0>)
 8000ffc:	f043 0301 	orr.w	r3, r3, #1
 8001000:	6313      	str	r3, [r2, #48]	; 0x30
 8001002:	4b1c      	ldr	r3, [pc, #112]	; (8001074 <MX_GPIO_Init+0xd0>)
 8001004:	6b1b      	ldr	r3, [r3, #48]	; 0x30
 8001006:	f003 0301 	and.w	r3, r3, #1
 800100a:	60bb      	str	r3, [r7, #8]
 800100c:	68bb      	ldr	r3, [r7, #8]
  __HAL_RCC_GPIOB_CLK_ENABLE();
 800100e:	2300      	movs	r3, #0
 8001010:	607b      	str	r3, [r7, #4]
 8001012:	4b18      	ldr	r3, [pc, #96]	; (8001074 <MX_GPIO_Init+0xd0>)
 8001014:	6b1b      	ldr	r3, [r3, #48]	; 0x30
 8001016:	4a17      	ldr	r2, [pc, #92]	; (8001074 <MX_GPIO_Init+0xd0>)
 8001018:	f043 0302 	orr.w	r3, r3, #2
 800101c:	6313      	str	r3, [r2, #48]	; 0x30
 800101e:	4b15      	ldr	r3, [pc, #84]	; (8001074 <MX_GPIO_Init+0xd0>)
 8001020:	6b1b      	ldr	r3, [r3, #48]	; 0x30
 8001022:	f003 0302 	and.w	r3, r3, #2
 8001026:	607b      	str	r3, [r7, #4]
 8001028:	687b      	ldr	r3, [r7, #4]

  /*Configure GPIO pin Output Level */
  HAL_GPIO_WritePin(GPIOA, LD2_Pin|LD3_Pin|LD4_Pin, GPIO_PIN_RESET);
 800102a:	2200      	movs	r2, #0
 800102c:	21e0      	movs	r1, #224	; 0xe0
 800102e:	4812      	ldr	r0, [pc, #72]	; (8001078 <MX_GPIO_Init+0xd4>)
 8001030:	f002 fadc 	bl	80035ec <HAL_GPIO_WritePin>

  /*Configure GPIO pin : PtPin */
  GPIO_InitStruct.Pin = B1_Pin;
 8001034:	f44f 5300 	mov.w	r3, #8192	; 0x2000
 8001038:	617b      	str	r3, [r7, #20]
  GPIO_InitStruct.Mode = GPIO_MODE_IT_FALLING;
 800103a:	4b10      	ldr	r3, [pc, #64]	; (800107c <MX_GPIO_Init+0xd8>)
 800103c:	61bb      	str	r3, [r7, #24]
  GPIO_InitStruct.Pull = GPIO_NOPULL;
 800103e:	2300      	movs	r3, #0
 8001040:	61fb      	str	r3, [r7, #28]
  HAL_GPIO_Init(B1_GPIO_Port, &GPIO_InitStruct);
 8001042:	f107 0314 	add.w	r3, r7, #20
 8001046:	4619      	mov	r1, r3
 8001048:	480d      	ldr	r0, [pc, #52]	; (8001080 <MX_GPIO_Init+0xdc>)
 800104a:	f002 f94d 	bl	80032e8 <HAL_GPIO_Init>

  /*Configure GPIO pins : PAPin PAPin PAPin */
  GPIO_InitStruct.Pin = LD2_Pin|LD3_Pin|LD4_Pin;
 800104e:	23e0      	movs	r3, #224	; 0xe0
 8001050:	617b      	str	r3, [r7, #20]
  GPIO_InitStruct.Mode = GPIO_MODE_OUTPUT_PP;
 8001052:	2301      	movs	r3, #1
 8001054:	61bb      	str	r3, [r7, #24]
  GPIO_InitStruct.Pull = GPIO_NOPULL;
 8001056:	2300      	movs	r3, #0
 8001058:	61fb      	str	r3, [r7, #28]
  GPIO_InitStruct.Speed = GPIO_SPEED_FREQ_LOW;
 800105a:	2300      	movs	r3, #0
 800105c:	623b      	str	r3, [r7, #32]
  HAL_GPIO_Init(GPIOA, &GPIO_InitStruct);
 800105e:	f107 0314 	add.w	r3, r7, #20
 8001062:	4619      	mov	r1, r3
 8001064:	4804      	ldr	r0, [pc, #16]	; (8001078 <MX_GPIO_Init+0xd4>)
 8001066:	f002 f93f 	bl	80032e8 <HAL_GPIO_Init>

}
 800106a:	bf00      	nop
 800106c:	3728      	adds	r7, #40	; 0x28
 800106e:	46bd      	mov	sp, r7
 8001070:	bd80      	pop	{r7, pc}
 8001072:	bf00      	nop
 8001074:	40023800 	.word	0x40023800
 8001078:	40020000 	.word	0x40020000
 800107c:	10210000 	.word	0x10210000
 8001080:	40020800 	.word	0x40020800

08001084 <main>:
/**
  * @brief  The application entry point.
  * @retval int
  */
int main(void)
{
 8001084:	b580      	push	{r7, lr}
 8001086:	af00      	add	r7, sp, #0
  /* USER CODE END 1 */

  /* MCU Configuration--------------------------------------------------------*/

  /* Reset of all peripherals, Initializes the Flash interface and the Systick. */
  HAL_Init();
 8001088:	f001 fe62 	bl	8002d50 <HAL_Init>
  /* USER CODE BEGIN Init */

  /* USER CODE END Init */

  /* Configure the system clock */
  SystemClock_Config();
 800108c:	f000 f80c 	bl	80010a8 <SystemClock_Config>
  /* USER CODE BEGIN SysInit */

  /* USER CODE END SysInit */

  /* Initialize all configured peripherals */
  MX_GPIO_Init();
 8001090:	f7ff ff88 	bl	8000fa4 <MX_GPIO_Init>
  MX_USART2_UART_Init();
 8001094:	f001 fdc0 	bl	8002c18 <MX_USART2_UART_Init>
  /* USER CODE BEGIN 2 */

  /* USER CODE END 2 */

  /* Init scheduler */
  osKernelInitialize();  /* Call init function for freertos objects (in freertos.c) */
 8001098:	f003 fe5c 	bl	8004d54 <osKernelInitialize>
  MX_FREERTOS_Init();
 800109c:	f7ff febe 	bl	8000e1c <MX_FREERTOS_Init>
  /* Start scheduler */
  osKernelStart();
 80010a0:	f003 fe8c 	bl	8004dbc <osKernelStart>

  /* We should never get here as control is now taken by the scheduler */
  /* Infinite loop */
  /* USER CODE BEGIN WHILE */
  while (1)
 80010a4:	e7fe      	b.n	80010a4 <main+0x20>
	...

080010a8 <SystemClock_Config>:
/**
  * @brief System Clock Configuration
  * @retval None
  */
void SystemClock_Config(void)
{
 80010a8:	b580      	push	{r7, lr}
 80010aa:	b094      	sub	sp, #80	; 0x50
 80010ac:	af00      	add	r7, sp, #0
  RCC_OscInitTypeDef RCC_OscInitStruct = {0};
 80010ae:	f107 0320 	add.w	r3, r7, #32
 80010b2:	2230      	movs	r2, #48	; 0x30
 80010b4:	2100      	movs	r1, #0
 80010b6:	4618      	mov	r0, r3
 80010b8:	f007 fb37 	bl	800872a <memset>
  RCC_ClkInitTypeDef RCC_ClkInitStruct = {0};
 80010bc:	f107 030c 	add.w	r3, r7, #12
 80010c0:	2200      	movs	r2, #0
 80010c2:	601a      	str	r2, [r3, #0]
 80010c4:	605a      	str	r2, [r3, #4]
 80010c6:	609a      	str	r2, [r3, #8]
 80010c8:	60da      	str	r2, [r3, #12]
 80010ca:	611a      	str	r2, [r3, #16]

  /** Configure the main internal regulator output voltage
  */
  __HAL_RCC_PWR_CLK_ENABLE();
 80010cc:	2300      	movs	r3, #0
 80010ce:	60bb      	str	r3, [r7, #8]
 80010d0:	4b28      	ldr	r3, [pc, #160]	; (8001174 <SystemClock_Config+0xcc>)
 80010d2:	6c1b      	ldr	r3, [r3, #64]	; 0x40
 80010d4:	4a27      	ldr	r2, [pc, #156]	; (8001174 <SystemClock_Config+0xcc>)
 80010d6:	f043 5380 	orr.w	r3, r3, #268435456	; 0x10000000
 80010da:	6413      	str	r3, [r2, #64]	; 0x40
 80010dc:	4b25      	ldr	r3, [pc, #148]	; (8001174 <SystemClock_Config+0xcc>)
 80010de:	6c1b      	ldr	r3, [r3, #64]	; 0x40
 80010e0:	f003 5380 	and.w	r3, r3, #268435456	; 0x10000000
 80010e4:	60bb      	str	r3, [r7, #8]
 80010e6:	68bb      	ldr	r3, [r7, #8]
  __HAL_PWR_VOLTAGESCALING_CONFIG(PWR_REGULATOR_VOLTAGE_SCALE1);
 80010e8:	2300      	movs	r3, #0
 80010ea:	607b      	str	r3, [r7, #4]
 80010ec:	4b22      	ldr	r3, [pc, #136]	; (8001178 <SystemClock_Config+0xd0>)
 80010ee:	681b      	ldr	r3, [r3, #0]
 80010f0:	4a21      	ldr	r2, [pc, #132]	; (8001178 <SystemClock_Config+0xd0>)
 80010f2:	f443 4340 	orr.w	r3, r3, #49152	; 0xc000
 80010f6:	6013      	str	r3, [r2, #0]
 80010f8:	4b1f      	ldr	r3, [pc, #124]	; (8001178 <SystemClock_Config+0xd0>)
 80010fa:	681b      	ldr	r3, [r3, #0]
 80010fc:	f403 4340 	and.w	r3, r3, #49152	; 0xc000
 8001100:	607b      	str	r3, [r7, #4]
 8001102:	687b      	ldr	r3, [r7, #4]
  /** Initializes the RCC Oscillators according to the specified parameters
  * in the RCC_OscInitTypeDef structure.
  */
  RCC_OscInitStruct.OscillatorType = RCC_OSCILLATORTYPE_HSI;
 8001104:	2302      	movs	r3, #2
 8001106:	623b      	str	r3, [r7, #32]
  RCC_OscInitStruct.HSIState = RCC_HSI_ON;
 8001108:	2301      	movs	r3, #1
 800110a:	62fb      	str	r3, [r7, #44]	; 0x2c
  RCC_OscInitStruct.HSICalibrationValue = RCC_HSICALIBRATION_DEFAULT;
 800110c:	2310      	movs	r3, #16
 800110e:	633b      	str	r3, [r7, #48]	; 0x30
  RCC_OscInitStruct.PLL.PLLState = RCC_PLL_ON;
 8001110:	2302      	movs	r3, #2
 8001112:	63bb      	str	r3, [r7, #56]	; 0x38
  RCC_OscInitStruct.PLL.PLLSource = RCC_PLLSOURCE_HSI;
 8001114:	2300      	movs	r3, #0
 8001116:	63fb      	str	r3, [r7, #60]	; 0x3c
  RCC_OscInitStruct.PLL.PLLM = 16;
 8001118:	2310      	movs	r3, #16
 800111a:	643b      	str	r3, [r7, #64]	; 0x40
  RCC_OscInitStruct.PLL.PLLN = 336;
 800111c:	f44f 73a8 	mov.w	r3, #336	; 0x150
 8001120:	647b      	str	r3, [r7, #68]	; 0x44
  RCC_OscInitStruct.PLL.PLLP = RCC_PLLP_DIV4;
 8001122:	2304      	movs	r3, #4
 8001124:	64bb      	str	r3, [r7, #72]	; 0x48
  RCC_OscInitStruct.PLL.PLLQ = 4;
 8001126:	2304      	movs	r3, #4
 8001128:	64fb      	str	r3, [r7, #76]	; 0x4c
  if (HAL_RCC_OscConfig(&RCC_OscInitStruct) != HAL_OK)
 800112a:	f107 0320 	add.w	r3, r7, #32
 800112e:	4618      	mov	r0, r3
 8001130:	f002 faaa 	bl	8003688 <HAL_RCC_OscConfig>
 8001134:	4603      	mov	r3, r0
 8001136:	2b00      	cmp	r3, #0
 8001138:	d001      	beq.n	800113e <SystemClock_Config+0x96>
  {
    Error_Handler();
 800113a:	f000 f831 	bl	80011a0 <Error_Handler>
  }
  /** Initializes the CPU, AHB and APB buses clocks
  */
  RCC_ClkInitStruct.ClockType = RCC_CLOCKTYPE_HCLK|RCC_CLOCKTYPE_SYSCLK
 800113e:	230f      	movs	r3, #15
 8001140:	60fb      	str	r3, [r7, #12]
                              |RCC_CLOCKTYPE_PCLK1|RCC_CLOCKTYPE_PCLK2;
  RCC_ClkInitStruct.SYSCLKSource = RCC_SYSCLKSOURCE_PLLCLK;
 8001142:	2302      	movs	r3, #2
 8001144:	613b      	str	r3, [r7, #16]
  RCC_ClkInitStruct.AHBCLKDivider = RCC_SYSCLK_DIV1;
 8001146:	2300      	movs	r3, #0
 8001148:	617b      	str	r3, [r7, #20]
  RCC_ClkInitStruct.APB1CLKDivider = RCC_HCLK_DIV2;
 800114a:	f44f 5380 	mov.w	r3, #4096	; 0x1000
 800114e:	61bb      	str	r3, [r7, #24]
  RCC_ClkInitStruct.APB2CLKDivider = RCC_HCLK_DIV1;
 8001150:	2300      	movs	r3, #0
 8001152:	61fb      	str	r3, [r7, #28]

  if (HAL_RCC_ClockConfig(&RCC_ClkInitStruct, FLASH_LATENCY_2) != HAL_OK)
 8001154:	f107 030c 	add.w	r3, r7, #12
 8001158:	2102      	movs	r1, #2
 800115a:	4618      	mov	r0, r3
 800115c:	f002 fd04 	bl	8003b68 <HAL_RCC_ClockConfig>
 8001160:	4603      	mov	r3, r0
 8001162:	2b00      	cmp	r3, #0
 8001164:	d001      	beq.n	800116a <SystemClock_Config+0xc2>
  {
    Error_Handler();
 8001166:	f000 f81b 	bl	80011a0 <Error_Handler>
  }
}
 800116a:	bf00      	nop
 800116c:	3750      	adds	r7, #80	; 0x50
 800116e:	46bd      	mov	sp, r7
 8001170:	bd80      	pop	{r7, pc}
 8001172:	bf00      	nop
 8001174:	40023800 	.word	0x40023800
 8001178:	40007000 	.word	0x40007000

0800117c <HAL_TIM_PeriodElapsedCallback>:
  * a global variable "uwTick" used as application time base.
  * @param  htim : TIM handle
  * @retval None
  */
void HAL_TIM_PeriodElapsedCallback(TIM_HandleTypeDef *htim)
{
 800117c:	b580      	push	{r7, lr}
 800117e:	b082      	sub	sp, #8
 8001180:	af00      	add	r7, sp, #0
 8001182:	6078      	str	r0, [r7, #4]
  /* USER CODE BEGIN Callback 0 */

  /* USER CODE END Callback 0 */
  if (htim->Instance == TIM10) {
 8001184:	687b      	ldr	r3, [r7, #4]
 8001186:	681b      	ldr	r3, [r3, #0]
 8001188:	4a04      	ldr	r2, [pc, #16]	; (800119c <HAL_TIM_PeriodElapsedCallback+0x20>)
 800118a:	4293      	cmp	r3, r2
 800118c:	d101      	bne.n	8001192 <HAL_TIM_PeriodElapsedCallback+0x16>
    HAL_IncTick();
 800118e:	f001 fe01 	bl	8002d94 <HAL_IncTick>
  }
  /* USER CODE BEGIN Callback 1 */

  /* USER CODE END Callback 1 */
}
 8001192:	bf00      	nop
 8001194:	3708      	adds	r7, #8
 8001196:	46bd      	mov	sp, r7
 8001198:	bd80      	pop	{r7, pc}
 800119a:	bf00      	nop
 800119c:	40014400 	.word	0x40014400

080011a0 <Error_Handler>:
/**
  * @brief  This function is executed in case of error occurrence.
  * @retval None
  */
void Error_Handler(void)
{
 80011a0:	b480      	push	{r7}
 80011a2:	af00      	add	r7, sp, #0
  \details Disables IRQ interrupts by setting the I-bit in the CPSR.
           Can only be executed in Privileged modes.
 */
__STATIC_FORCEINLINE void __disable_irq(void)
{
  __ASM volatile ("cpsid i" : : : "memory");
 80011a4:	b672      	cpsid	i
  /* USER CODE BEGIN Error_Handler_Debug */
  /* User can add his own implementation to report the HAL error return state */
  __disable_irq();
  while (1)
 80011a6:	e7fe      	b.n	80011a6 <Error_Handler+0x6>

080011a8 <_out_null>:
}


// internal null output
static inline void _out_null(char character, void* buffer, size_t idx, size_t maxlen)
{
 80011a8:	b480      	push	{r7}
 80011aa:	b085      	sub	sp, #20
 80011ac:	af00      	add	r7, sp, #0
 80011ae:	60b9      	str	r1, [r7, #8]
 80011b0:	607a      	str	r2, [r7, #4]
 80011b2:	603b      	str	r3, [r7, #0]
 80011b4:	4603      	mov	r3, r0
 80011b6:	73fb      	strb	r3, [r7, #15]
  (void)character; (void)buffer; (void)idx; (void)maxlen;
}
 80011b8:	bf00      	nop
 80011ba:	3714      	adds	r7, #20
 80011bc:	46bd      	mov	sp, r7
 80011be:	f85d 7b04 	ldr.w	r7, [sp], #4
 80011c2:	4770      	bx	lr

080011c4 <_out_char>:


// internal _putchar wrapper
static inline void _out_char(char character, void* buffer, size_t idx, size_t maxlen)
{
 80011c4:	b580      	push	{r7, lr}
 80011c6:	b084      	sub	sp, #16
 80011c8:	af00      	add	r7, sp, #0
 80011ca:	60b9      	str	r1, [r7, #8]
 80011cc:	607a      	str	r2, [r7, #4]
 80011ce:	603b      	str	r3, [r7, #0]
 80011d0:	4603      	mov	r3, r0
 80011d2:	73fb      	strb	r3, [r7, #15]
  (void)buffer; (void)idx; (void)maxlen;
  if (character) {
 80011d4:	7bfb      	ldrb	r3, [r7, #15]
 80011d6:	2b00      	cmp	r3, #0
 80011d8:	d003      	beq.n	80011e2 <_out_char+0x1e>
    _putchar(character);
 80011da:	7bfb      	ldrb	r3, [r7, #15]
 80011dc:	4618      	mov	r0, r3
 80011de:	f7ff fec1 	bl	8000f64 <_putchar>
  }
}
 80011e2:	bf00      	nop
 80011e4:	3710      	adds	r7, #16
 80011e6:	46bd      	mov	sp, r7
 80011e8:	bd80      	pop	{r7, pc}

080011ea <_strnlen_s>:


// internal secure strlen
// \return The length of the string (excluding the terminating 0) limited by 'maxsize'
static inline unsigned int _strnlen_s(const char* str, size_t maxsize)
{
 80011ea:	b480      	push	{r7}
 80011ec:	b085      	sub	sp, #20
 80011ee:	af00      	add	r7, sp, #0
 80011f0:	6078      	str	r0, [r7, #4]
 80011f2:	6039      	str	r1, [r7, #0]
  const char* s;
  for (s = str; *s && maxsize--; ++s);
 80011f4:	687b      	ldr	r3, [r7, #4]
 80011f6:	60fb      	str	r3, [r7, #12]
 80011f8:	e002      	b.n	8001200 <_strnlen_s+0x16>
 80011fa:	68fb      	ldr	r3, [r7, #12]
 80011fc:	3301      	adds	r3, #1
 80011fe:	60fb      	str	r3, [r7, #12]
 8001200:	68fb      	ldr	r3, [r7, #12]
 8001202:	781b      	ldrb	r3, [r3, #0]
 8001204:	2b00      	cmp	r3, #0
 8001206:	d004      	beq.n	8001212 <_strnlen_s+0x28>
 8001208:	683b      	ldr	r3, [r7, #0]
 800120a:	1e5a      	subs	r2, r3, #1
 800120c:	603a      	str	r2, [r7, #0]
 800120e:	2b00      	cmp	r3, #0
 8001210:	d1f3      	bne.n	80011fa <_strnlen_s+0x10>
  return (unsigned int)(s - str);
 8001212:	68fa      	ldr	r2, [r7, #12]
 8001214:	687b      	ldr	r3, [r7, #4]
 8001216:	1ad3      	subs	r3, r2, r3
}
 8001218:	4618      	mov	r0, r3
 800121a:	3714      	adds	r7, #20
 800121c:	46bd      	mov	sp, r7
 800121e:	f85d 7b04 	ldr.w	r7, [sp], #4
 8001222:	4770      	bx	lr

08001224 <_is_digit>:


// internal test if char is a digit (0-9)
// \return true if char is a digit
static inline bool _is_digit(char ch)
{
 8001224:	b480      	push	{r7}
 8001226:	b083      	sub	sp, #12
 8001228:	af00      	add	r7, sp, #0
 800122a:	4603      	mov	r3, r0
 800122c:	71fb      	strb	r3, [r7, #7]
  return (ch >= '0') && (ch <= '9');
 800122e:	79fb      	ldrb	r3, [r7, #7]
 8001230:	2b2f      	cmp	r3, #47	; 0x2f
 8001232:	d904      	bls.n	800123e <_is_digit+0x1a>
 8001234:	79fb      	ldrb	r3, [r7, #7]
 8001236:	2b39      	cmp	r3, #57	; 0x39
 8001238:	d801      	bhi.n	800123e <_is_digit+0x1a>
 800123a:	2301      	movs	r3, #1
 800123c:	e000      	b.n	8001240 <_is_digit+0x1c>
 800123e:	2300      	movs	r3, #0
 8001240:	f003 0301 	and.w	r3, r3, #1
 8001244:	b2db      	uxtb	r3, r3
}
 8001246:	4618      	mov	r0, r3
 8001248:	370c      	adds	r7, #12
 800124a:	46bd      	mov	sp, r7
 800124c:	f85d 7b04 	ldr.w	r7, [sp], #4
 8001250:	4770      	bx	lr

08001252 <_atoi>:


// internal ASCII string to unsigned int conversion
static unsigned int _atoi(const char** str)
{
 8001252:	b580      	push	{r7, lr}
 8001254:	b084      	sub	sp, #16
 8001256:	af00      	add	r7, sp, #0
 8001258:	6078      	str	r0, [r7, #4]
  unsigned int i = 0U;
 800125a:	2300      	movs	r3, #0
 800125c:	60fb      	str	r3, [r7, #12]
  while (_is_digit(**str)) {
 800125e:	e00e      	b.n	800127e <_atoi+0x2c>
    i = i * 10U + (unsigned int)(*((*str)++) - '0');
 8001260:	68fa      	ldr	r2, [r7, #12]
 8001262:	4613      	mov	r3, r2
 8001264:	009b      	lsls	r3, r3, #2
 8001266:	4413      	add	r3, r2
 8001268:	005b      	lsls	r3, r3, #1
 800126a:	4618      	mov	r0, r3
 800126c:	687b      	ldr	r3, [r7, #4]
 800126e:	681b      	ldr	r3, [r3, #0]
 8001270:	1c59      	adds	r1, r3, #1
 8001272:	687a      	ldr	r2, [r7, #4]
 8001274:	6011      	str	r1, [r2, #0]
 8001276:	781b      	ldrb	r3, [r3, #0]
 8001278:	4403      	add	r3, r0
 800127a:	3b30      	subs	r3, #48	; 0x30
 800127c:	60fb      	str	r3, [r7, #12]
  while (_is_digit(**str)) {
 800127e:	687b      	ldr	r3, [r7, #4]
 8001280:	681b      	ldr	r3, [r3, #0]
 8001282:	781b      	ldrb	r3, [r3, #0]
 8001284:	4618      	mov	r0, r3
 8001286:	f7ff ffcd 	bl	8001224 <_is_digit>
 800128a:	4603      	mov	r3, r0
 800128c:	2b00      	cmp	r3, #0
 800128e:	d1e7      	bne.n	8001260 <_atoi+0xe>
  }
  return i;
 8001290:	68fb      	ldr	r3, [r7, #12]
}
 8001292:	4618      	mov	r0, r3
 8001294:	3710      	adds	r7, #16
 8001296:	46bd      	mov	sp, r7
 8001298:	bd80      	pop	{r7, pc}

0800129a <_out_rev>:


// output the specified string in reverse, taking care of any zero-padding
static size_t _out_rev(out_fct_type out, char* buffer, size_t idx, size_t maxlen, const char* buf, size_t len, unsigned int width, unsigned int flags)
{
 800129a:	b590      	push	{r4, r7, lr}
 800129c:	b087      	sub	sp, #28
 800129e:	af00      	add	r7, sp, #0
 80012a0:	60f8      	str	r0, [r7, #12]
 80012a2:	60b9      	str	r1, [r7, #8]
 80012a4:	607a      	str	r2, [r7, #4]
 80012a6:	603b      	str	r3, [r7, #0]
  const size_t start_idx = idx;
 80012a8:	687b      	ldr	r3, [r7, #4]
 80012aa:	613b      	str	r3, [r7, #16]

  // pad spaces up to given width
  if (!(flags & FLAGS_LEFT) && !(flags & FLAGS_ZEROPAD)) {
 80012ac:	6b7b      	ldr	r3, [r7, #52]	; 0x34
 80012ae:	f003 0302 	and.w	r3, r3, #2
 80012b2:	2b00      	cmp	r3, #0
 80012b4:	d125      	bne.n	8001302 <_out_rev+0x68>
 80012b6:	6b7b      	ldr	r3, [r7, #52]	; 0x34
 80012b8:	f003 0301 	and.w	r3, r3, #1
 80012bc:	2b00      	cmp	r3, #0
 80012be:	d120      	bne.n	8001302 <_out_rev+0x68>
    for (size_t i = len; i < width; i++) {
 80012c0:	6afb      	ldr	r3, [r7, #44]	; 0x2c
 80012c2:	617b      	str	r3, [r7, #20]
 80012c4:	e00a      	b.n	80012dc <_out_rev+0x42>
      out(' ', buffer, idx++, maxlen);
 80012c6:	687a      	ldr	r2, [r7, #4]
 80012c8:	1c53      	adds	r3, r2, #1
 80012ca:	607b      	str	r3, [r7, #4]
 80012cc:	68fc      	ldr	r4, [r7, #12]
 80012ce:	683b      	ldr	r3, [r7, #0]
 80012d0:	68b9      	ldr	r1, [r7, #8]
 80012d2:	2020      	movs	r0, #32
 80012d4:	47a0      	blx	r4
    for (size_t i = len; i < width; i++) {
 80012d6:	697b      	ldr	r3, [r7, #20]
 80012d8:	3301      	adds	r3, #1
 80012da:	617b      	str	r3, [r7, #20]
 80012dc:	697a      	ldr	r2, [r7, #20]
 80012de:	6b3b      	ldr	r3, [r7, #48]	; 0x30
 80012e0:	429a      	cmp	r2, r3
 80012e2:	d3f0      	bcc.n	80012c6 <_out_rev+0x2c>
    }
  }

  // reverse string
  while (len) {
 80012e4:	e00d      	b.n	8001302 <_out_rev+0x68>
    out(buf[--len], buffer, idx++, maxlen);
 80012e6:	6afb      	ldr	r3, [r7, #44]	; 0x2c
 80012e8:	3b01      	subs	r3, #1
 80012ea:	62fb      	str	r3, [r7, #44]	; 0x2c
 80012ec:	6aba      	ldr	r2, [r7, #40]	; 0x28
 80012ee:	6afb      	ldr	r3, [r7, #44]	; 0x2c
 80012f0:	4413      	add	r3, r2
 80012f2:	7818      	ldrb	r0, [r3, #0]
 80012f4:	687a      	ldr	r2, [r7, #4]
 80012f6:	1c53      	adds	r3, r2, #1
 80012f8:	607b      	str	r3, [r7, #4]
 80012fa:	68fc      	ldr	r4, [r7, #12]
 80012fc:	683b      	ldr	r3, [r7, #0]
 80012fe:	68b9      	ldr	r1, [r7, #8]
 8001300:	47a0      	blx	r4
  while (len) {
 8001302:	6afb      	ldr	r3, [r7, #44]	; 0x2c
 8001304:	2b00      	cmp	r3, #0
 8001306:	d1ee      	bne.n	80012e6 <_out_rev+0x4c>
  }

  // append pad spaces up to given width
  if (flags & FLAGS_LEFT) {
 8001308:	6b7b      	ldr	r3, [r7, #52]	; 0x34
 800130a:	f003 0302 	and.w	r3, r3, #2
 800130e:	2b00      	cmp	r3, #0
 8001310:	d00e      	beq.n	8001330 <_out_rev+0x96>
    while (idx - start_idx < width) {
 8001312:	e007      	b.n	8001324 <_out_rev+0x8a>
      out(' ', buffer, idx++, maxlen);
 8001314:	687a      	ldr	r2, [r7, #4]
 8001316:	1c53      	adds	r3, r2, #1
 8001318:	607b      	str	r3, [r7, #4]
 800131a:	68fc      	ldr	r4, [r7, #12]
 800131c:	683b      	ldr	r3, [r7, #0]
 800131e:	68b9      	ldr	r1, [r7, #8]
 8001320:	2020      	movs	r0, #32
 8001322:	47a0      	blx	r4
    while (idx - start_idx < width) {
 8001324:	687a      	ldr	r2, [r7, #4]
 8001326:	693b      	ldr	r3, [r7, #16]
 8001328:	1ad3      	subs	r3, r2, r3
 800132a:	6b3a      	ldr	r2, [r7, #48]	; 0x30
 800132c:	429a      	cmp	r2, r3
 800132e:	d8f1      	bhi.n	8001314 <_out_rev+0x7a>
    }
  }

  return idx;
 8001330:	687b      	ldr	r3, [r7, #4]
}
 8001332:	4618      	mov	r0, r3
 8001334:	371c      	adds	r7, #28
 8001336:	46bd      	mov	sp, r7
 8001338:	bd90      	pop	{r4, r7, pc}

0800133a <_ntoa_format>:


// internal itoa format
static size_t _ntoa_format(out_fct_type out, char* buffer, size_t idx, size_t maxlen, char* buf, size_t len, bool negative, unsigned int base, unsigned int prec, unsigned int width, unsigned int flags)
{
 800133a:	b580      	push	{r7, lr}
 800133c:	b088      	sub	sp, #32
 800133e:	af04      	add	r7, sp, #16
 8001340:	60f8      	str	r0, [r7, #12]
 8001342:	60b9      	str	r1, [r7, #8]
 8001344:	607a      	str	r2, [r7, #4]
 8001346:	603b      	str	r3, [r7, #0]
  // pad leading zeros
  if (!(flags & FLAGS_LEFT)) {
 8001348:	6b3b      	ldr	r3, [r7, #48]	; 0x30
 800134a:	f003 0302 	and.w	r3, r3, #2
 800134e:	2b00      	cmp	r3, #0
 8001350:	d136      	bne.n	80013c0 <_ntoa_format+0x86>
    if (width && (flags & FLAGS_ZEROPAD) && (negative || (flags & (FLAGS_PLUS | FLAGS_SPACE)))) {
 8001352:	6afb      	ldr	r3, [r7, #44]	; 0x2c
 8001354:	2b00      	cmp	r3, #0
 8001356:	d018      	beq.n	800138a <_ntoa_format+0x50>
 8001358:	6b3b      	ldr	r3, [r7, #48]	; 0x30
 800135a:	f003 0301 	and.w	r3, r3, #1
 800135e:	2b00      	cmp	r3, #0
 8001360:	d013      	beq.n	800138a <_ntoa_format+0x50>
 8001362:	f897 3020 	ldrb.w	r3, [r7, #32]
 8001366:	2b00      	cmp	r3, #0
 8001368:	d104      	bne.n	8001374 <_ntoa_format+0x3a>
 800136a:	6b3b      	ldr	r3, [r7, #48]	; 0x30
 800136c:	f003 030c 	and.w	r3, r3, #12
 8001370:	2b00      	cmp	r3, #0
 8001372:	d00a      	beq.n	800138a <_ntoa_format+0x50>
      width--;
 8001374:	6afb      	ldr	r3, [r7, #44]	; 0x2c
 8001376:	3b01      	subs	r3, #1
 8001378:	62fb      	str	r3, [r7, #44]	; 0x2c
    }
    while ((len < prec) && (len < PRINTF_NTOA_BUFFER_SIZE)) {
 800137a:	e006      	b.n	800138a <_ntoa_format+0x50>
      buf[len++] = '0';
 800137c:	69fb      	ldr	r3, [r7, #28]
 800137e:	1c5a      	adds	r2, r3, #1
 8001380:	61fa      	str	r2, [r7, #28]
 8001382:	69ba      	ldr	r2, [r7, #24]
 8001384:	4413      	add	r3, r2
 8001386:	2230      	movs	r2, #48	; 0x30
 8001388:	701a      	strb	r2, [r3, #0]
    while ((len < prec) && (len < PRINTF_NTOA_BUFFER_SIZE)) {
 800138a:	69fa      	ldr	r2, [r7, #28]
 800138c:	6abb      	ldr	r3, [r7, #40]	; 0x28
 800138e:	429a      	cmp	r2, r3
 8001390:	d20a      	bcs.n	80013a8 <_ntoa_format+0x6e>
 8001392:	69fb      	ldr	r3, [r7, #28]
 8001394:	2b1f      	cmp	r3, #31
 8001396:	d9f1      	bls.n	800137c <_ntoa_format+0x42>
    }
    while ((flags & FLAGS_ZEROPAD) && (len < width) && (len < PRINTF_NTOA_BUFFER_SIZE)) {
 8001398:	e006      	b.n	80013a8 <_ntoa_format+0x6e>
      buf[len++] = '0';
 800139a:	69fb      	ldr	r3, [r7, #28]
 800139c:	1c5a      	adds	r2, r3, #1
 800139e:	61fa      	str	r2, [r7, #28]
 80013a0:	69ba      	ldr	r2, [r7, #24]
 80013a2:	4413      	add	r3, r2
 80013a4:	2230      	movs	r2, #48	; 0x30
 80013a6:	701a      	strb	r2, [r3, #0]
    while ((flags & FLAGS_ZEROPAD) && (len < width) && (len < PRINTF_NTOA_BUFFER_SIZE)) {
 80013a8:	6b3b      	ldr	r3, [r7, #48]	; 0x30
 80013aa:	f003 0301 	and.w	r3, r3, #1
 80013ae:	2b00      	cmp	r3, #0
 80013b0:	d006      	beq.n	80013c0 <_ntoa_format+0x86>
 80013b2:	69fa      	ldr	r2, [r7, #28]
 80013b4:	6afb      	ldr	r3, [r7, #44]	; 0x2c
 80013b6:	429a      	cmp	r2, r3
 80013b8:	d202      	bcs.n	80013c0 <_ntoa_format+0x86>
 80013ba:	69fb      	ldr	r3, [r7, #28]
 80013bc:	2b1f      	cmp	r3, #31
 80013be:	d9ec      	bls.n	800139a <_ntoa_format+0x60>
    }
  }

  // handle hash
  if (flags & FLAGS_HASH) {
 80013c0:	6b3b      	ldr	r3, [r7, #48]	; 0x30
 80013c2:	f003 0310 	and.w	r3, r3, #16
 80013c6:	2b00      	cmp	r3, #0
 80013c8:	d058      	beq.n	800147c <_ntoa_format+0x142>
    if (!(flags & FLAGS_PRECISION) && len && ((len == prec) || (len == width))) {
 80013ca:	6b3b      	ldr	r3, [r7, #48]	; 0x30
 80013cc:	f403 6380 	and.w	r3, r3, #1024	; 0x400
 80013d0:	2b00      	cmp	r3, #0
 80013d2:	d116      	bne.n	8001402 <_ntoa_format+0xc8>
 80013d4:	69fb      	ldr	r3, [r7, #28]
 80013d6:	2b00      	cmp	r3, #0
 80013d8:	d013      	beq.n	8001402 <_ntoa_format+0xc8>
 80013da:	69fa      	ldr	r2, [r7, #28]
 80013dc:	6abb      	ldr	r3, [r7, #40]	; 0x28
 80013de:	429a      	cmp	r2, r3
 80013e0:	d003      	beq.n	80013ea <_ntoa_format+0xb0>
 80013e2:	69fa      	ldr	r2, [r7, #28]
 80013e4:	6afb      	ldr	r3, [r7, #44]	; 0x2c
 80013e6:	429a      	cmp	r2, r3
 80013e8:	d10b      	bne.n	8001402 <_ntoa_format+0xc8>
      len--;
 80013ea:	69fb      	ldr	r3, [r7, #28]
 80013ec:	3b01      	subs	r3, #1
 80013ee:	61fb      	str	r3, [r7, #28]
      if (len && (base == 16U)) {
 80013f0:	69fb      	ldr	r3, [r7, #28]
 80013f2:	2b00      	cmp	r3, #0
 80013f4:	d005      	beq.n	8001402 <_ntoa_format+0xc8>
 80013f6:	6a7b      	ldr	r3, [r7, #36]	; 0x24
 80013f8:	2b10      	cmp	r3, #16
 80013fa:	d102      	bne.n	8001402 <_ntoa_format+0xc8>
        len--;
 80013fc:	69fb      	ldr	r3, [r7, #28]
 80013fe:	3b01      	subs	r3, #1
 8001400:	61fb      	str	r3, [r7, #28]
      }
    }
    if ((base == 16U) && !(flags & FLAGS_UPPERCASE) && (len < PRINTF_NTOA_BUFFER_SIZE)) {
 8001402:	6a7b      	ldr	r3, [r7, #36]	; 0x24
 8001404:	2b10      	cmp	r3, #16
 8001406:	d10f      	bne.n	8001428 <_ntoa_format+0xee>
 8001408:	6b3b      	ldr	r3, [r7, #48]	; 0x30
 800140a:	f003 0320 	and.w	r3, r3, #32
 800140e:	2b00      	cmp	r3, #0
 8001410:	d10a      	bne.n	8001428 <_ntoa_format+0xee>
 8001412:	69fb      	ldr	r3, [r7, #28]
 8001414:	2b1f      	cmp	r3, #31
 8001416:	d807      	bhi.n	8001428 <_ntoa_format+0xee>
      buf[len++] = 'x';
 8001418:	69fb      	ldr	r3, [r7, #28]
 800141a:	1c5a      	adds	r2, r3, #1
 800141c:	61fa      	str	r2, [r7, #28]
 800141e:	69ba      	ldr	r2, [r7, #24]
 8001420:	4413      	add	r3, r2
 8001422:	2278      	movs	r2, #120	; 0x78
 8001424:	701a      	strb	r2, [r3, #0]
 8001426:	e01f      	b.n	8001468 <_ntoa_format+0x12e>
    }
    else if ((base == 16U) && (flags & FLAGS_UPPERCASE) && (len < PRINTF_NTOA_BUFFER_SIZE)) {
 8001428:	6a7b      	ldr	r3, [r7, #36]	; 0x24
 800142a:	2b10      	cmp	r3, #16
 800142c:	d10f      	bne.n	800144e <_ntoa_format+0x114>
 800142e:	6b3b      	ldr	r3, [r7, #48]	; 0x30
 8001430:	f003 0320 	and.w	r3, r3, #32
 8001434:	2b00      	cmp	r3, #0
 8001436:	d00a      	beq.n	800144e <_ntoa_format+0x114>
 8001438:	69fb      	ldr	r3, [r7, #28]
 800143a:	2b1f      	cmp	r3, #31
 800143c:	d807      	bhi.n	800144e <_ntoa_format+0x114>
      buf[len++] = 'X';
 800143e:	69fb      	ldr	r3, [r7, #28]
 8001440:	1c5a      	adds	r2, r3, #1
 8001442:	61fa      	str	r2, [r7, #28]
 8001444:	69ba      	ldr	r2, [r7, #24]
 8001446:	4413      	add	r3, r2
 8001448:	2258      	movs	r2, #88	; 0x58
 800144a:	701a      	strb	r2, [r3, #0]
 800144c:	e00c      	b.n	8001468 <_ntoa_format+0x12e>
    }
    else if ((base == 2U) && (len < PRINTF_NTOA_BUFFER_SIZE)) {
 800144e:	6a7b      	ldr	r3, [r7, #36]	; 0x24
 8001450:	2b02      	cmp	r3, #2
 8001452:	d109      	bne.n	8001468 <_ntoa_format+0x12e>
 8001454:	69fb      	ldr	r3, [r7, #28]
 8001456:	2b1f      	cmp	r3, #31
 8001458:	d806      	bhi.n	8001468 <_ntoa_format+0x12e>
      buf[len++] = 'b';
 800145a:	69fb      	ldr	r3, [r7, #28]
 800145c:	1c5a      	adds	r2, r3, #1
 800145e:	61fa      	str	r2, [r7, #28]
 8001460:	69ba      	ldr	r2, [r7, #24]
 8001462:	4413      	add	r3, r2
 8001464:	2262      	movs	r2, #98	; 0x62
 8001466:	701a      	strb	r2, [r3, #0]
    }
    if (len < PRINTF_NTOA_BUFFER_SIZE) {
 8001468:	69fb      	ldr	r3, [r7, #28]
 800146a:	2b1f      	cmp	r3, #31
 800146c:	d806      	bhi.n	800147c <_ntoa_format+0x142>
      buf[len++] = '0';
 800146e:	69fb      	ldr	r3, [r7, #28]
 8001470:	1c5a      	adds	r2, r3, #1
 8001472:	61fa      	str	r2, [r7, #28]
 8001474:	69ba      	ldr	r2, [r7, #24]
 8001476:	4413      	add	r3, r2
 8001478:	2230      	movs	r2, #48	; 0x30
 800147a:	701a      	strb	r2, [r3, #0]
    }
  }

  if (len < PRINTF_NTOA_BUFFER_SIZE) {
 800147c:	69fb      	ldr	r3, [r7, #28]
 800147e:	2b1f      	cmp	r3, #31
 8001480:	d824      	bhi.n	80014cc <_ntoa_format+0x192>
    if (negative) {
 8001482:	f897 3020 	ldrb.w	r3, [r7, #32]
 8001486:	2b00      	cmp	r3, #0
 8001488:	d007      	beq.n	800149a <_ntoa_format+0x160>
      buf[len++] = '-';
 800148a:	69fb      	ldr	r3, [r7, #28]
 800148c:	1c5a      	adds	r2, r3, #1
 800148e:	61fa      	str	r2, [r7, #28]
 8001490:	69ba      	ldr	r2, [r7, #24]
 8001492:	4413      	add	r3, r2
 8001494:	222d      	movs	r2, #45	; 0x2d
 8001496:	701a      	strb	r2, [r3, #0]
 8001498:	e018      	b.n	80014cc <_ntoa_format+0x192>
    }
    else if (flags & FLAGS_PLUS) {
 800149a:	6b3b      	ldr	r3, [r7, #48]	; 0x30
 800149c:	f003 0304 	and.w	r3, r3, #4
 80014a0:	2b00      	cmp	r3, #0
 80014a2:	d007      	beq.n	80014b4 <_ntoa_format+0x17a>
      buf[len++] = '+';  // ignore the space if the '+' exists
 80014a4:	69fb      	ldr	r3, [r7, #28]
 80014a6:	1c5a      	adds	r2, r3, #1
 80014a8:	61fa      	str	r2, [r7, #28]
 80014aa:	69ba      	ldr	r2, [r7, #24]
 80014ac:	4413      	add	r3, r2
 80014ae:	222b      	movs	r2, #43	; 0x2b
 80014b0:	701a      	strb	r2, [r3, #0]
 80014b2:	e00b      	b.n	80014cc <_ntoa_format+0x192>
    }
    else if (flags & FLAGS_SPACE) {
 80014b4:	6b3b      	ldr	r3, [r7, #48]	; 0x30
 80014b6:	f003 0308 	and.w	r3, r3, #8
 80014ba:	2b00      	cmp	r3, #0
 80014bc:	d006      	beq.n	80014cc <_ntoa_format+0x192>
      buf[len++] = ' ';
 80014be:	69fb      	ldr	r3, [r7, #28]
 80014c0:	1c5a      	adds	r2, r3, #1
 80014c2:	61fa      	str	r2, [r7, #28]
 80014c4:	69ba      	ldr	r2, [r7, #24]
 80014c6:	4413      	add	r3, r2
 80014c8:	2220      	movs	r2, #32
 80014ca:	701a      	strb	r2, [r3, #0]
    }
  }

  return _out_rev(out, buffer, idx, maxlen, buf, len, width, flags);
 80014cc:	6b3b      	ldr	r3, [r7, #48]	; 0x30
 80014ce:	9303      	str	r3, [sp, #12]
 80014d0:	6afb      	ldr	r3, [r7, #44]	; 0x2c
 80014d2:	9302      	str	r3, [sp, #8]
 80014d4:	69fb      	ldr	r3, [r7, #28]
 80014d6:	9301      	str	r3, [sp, #4]
 80014d8:	69bb      	ldr	r3, [r7, #24]
 80014da:	9300      	str	r3, [sp, #0]
 80014dc:	683b      	ldr	r3, [r7, #0]
 80014de:	687a      	ldr	r2, [r7, #4]
 80014e0:	68b9      	ldr	r1, [r7, #8]
 80014e2:	68f8      	ldr	r0, [r7, #12]
 80014e4:	f7ff fed9 	bl	800129a <_out_rev>
 80014e8:	4603      	mov	r3, r0
}
 80014ea:	4618      	mov	r0, r3
 80014ec:	3710      	adds	r7, #16
 80014ee:	46bd      	mov	sp, r7
 80014f0:	bd80      	pop	{r7, pc}

080014f2 <_ntoa_long>:


// internal itoa for 'long' type
static size_t _ntoa_long(out_fct_type out, char* buffer, size_t idx, size_t maxlen, unsigned long value, bool negative, unsigned long base, unsigned int prec, unsigned int width, unsigned int flags)
{
 80014f2:	b580      	push	{r7, lr}
 80014f4:	b096      	sub	sp, #88	; 0x58
 80014f6:	af08      	add	r7, sp, #32
 80014f8:	60f8      	str	r0, [r7, #12]
 80014fa:	60b9      	str	r1, [r7, #8]
 80014fc:	607a      	str	r2, [r7, #4]
 80014fe:	603b      	str	r3, [r7, #0]
  char buf[PRINTF_NTOA_BUFFER_SIZE];
  size_t len = 0U;
 8001500:	2300      	movs	r3, #0
 8001502:	637b      	str	r3, [r7, #52]	; 0x34

  // no hash for 0 values
  if (!value) {
 8001504:	6c3b      	ldr	r3, [r7, #64]	; 0x40
 8001506:	2b00      	cmp	r3, #0
 8001508:	d103      	bne.n	8001512 <_ntoa_long+0x20>
    flags &= ~FLAGS_HASH;
 800150a:	6d7b      	ldr	r3, [r7, #84]	; 0x54
 800150c:	f023 0310 	bic.w	r3, r3, #16
 8001510:	657b      	str	r3, [r7, #84]	; 0x54
  }

  // write if precision != 0 and value is != 0
  if (!(flags & FLAGS_PRECISION) || value) {
 8001512:	6d7b      	ldr	r3, [r7, #84]	; 0x54
 8001514:	f403 6380 	and.w	r3, r3, #1024	; 0x400
 8001518:	2b00      	cmp	r3, #0
 800151a:	d002      	beq.n	8001522 <_ntoa_long+0x30>
 800151c:	6c3b      	ldr	r3, [r7, #64]	; 0x40
 800151e:	2b00      	cmp	r3, #0
 8001520:	d033      	beq.n	800158a <_ntoa_long+0x98>
    do {
      const char digit = (char)(value % base);
 8001522:	6c3b      	ldr	r3, [r7, #64]	; 0x40
 8001524:	6cba      	ldr	r2, [r7, #72]	; 0x48
 8001526:	fbb3 f2f2 	udiv	r2, r3, r2
 800152a:	6cb9      	ldr	r1, [r7, #72]	; 0x48
 800152c:	fb01 f202 	mul.w	r2, r1, r2
 8001530:	1a9b      	subs	r3, r3, r2
 8001532:	f887 3033 	strb.w	r3, [r7, #51]	; 0x33
      buf[len++] = digit < 10 ? '0' + digit : (flags & FLAGS_UPPERCASE ? 'A' : 'a') + digit - 10;
 8001536:	f897 3033 	ldrb.w	r3, [r7, #51]	; 0x33
 800153a:	2b09      	cmp	r3, #9
 800153c:	d804      	bhi.n	8001548 <_ntoa_long+0x56>
 800153e:	f897 3033 	ldrb.w	r3, [r7, #51]	; 0x33
 8001542:	3330      	adds	r3, #48	; 0x30
 8001544:	b2da      	uxtb	r2, r3
 8001546:	e00d      	b.n	8001564 <_ntoa_long+0x72>
 8001548:	6d7b      	ldr	r3, [r7, #84]	; 0x54
 800154a:	f003 0320 	and.w	r3, r3, #32
 800154e:	2b00      	cmp	r3, #0
 8001550:	d001      	beq.n	8001556 <_ntoa_long+0x64>
 8001552:	2241      	movs	r2, #65	; 0x41
 8001554:	e000      	b.n	8001558 <_ntoa_long+0x66>
 8001556:	2261      	movs	r2, #97	; 0x61
 8001558:	f897 3033 	ldrb.w	r3, [r7, #51]	; 0x33
 800155c:	4413      	add	r3, r2
 800155e:	b2db      	uxtb	r3, r3
 8001560:	3b0a      	subs	r3, #10
 8001562:	b2da      	uxtb	r2, r3
 8001564:	6b7b      	ldr	r3, [r7, #52]	; 0x34
 8001566:	1c59      	adds	r1, r3, #1
 8001568:	6379      	str	r1, [r7, #52]	; 0x34
 800156a:	f107 0138 	add.w	r1, r7, #56	; 0x38
 800156e:	440b      	add	r3, r1
 8001570:	f803 2c28 	strb.w	r2, [r3, #-40]
      value /= base;
 8001574:	6c3a      	ldr	r2, [r7, #64]	; 0x40
 8001576:	6cbb      	ldr	r3, [r7, #72]	; 0x48
 8001578:	fbb2 f3f3 	udiv	r3, r2, r3
 800157c:	643b      	str	r3, [r7, #64]	; 0x40
    } while (value && (len < PRINTF_NTOA_BUFFER_SIZE));
 800157e:	6c3b      	ldr	r3, [r7, #64]	; 0x40
 8001580:	2b00      	cmp	r3, #0
 8001582:	d002      	beq.n	800158a <_ntoa_long+0x98>
 8001584:	6b7b      	ldr	r3, [r7, #52]	; 0x34
 8001586:	2b1f      	cmp	r3, #31
 8001588:	d9cb      	bls.n	8001522 <_ntoa_long+0x30>
  }

  return _ntoa_format(out, buffer, idx, maxlen, buf, len, negative, (unsigned int)base, prec, width, flags);
 800158a:	6d7b      	ldr	r3, [r7, #84]	; 0x54
 800158c:	9306      	str	r3, [sp, #24]
 800158e:	6d3b      	ldr	r3, [r7, #80]	; 0x50
 8001590:	9305      	str	r3, [sp, #20]
 8001592:	6cfb      	ldr	r3, [r7, #76]	; 0x4c
 8001594:	9304      	str	r3, [sp, #16]
 8001596:	6cbb      	ldr	r3, [r7, #72]	; 0x48
 8001598:	9303      	str	r3, [sp, #12]
 800159a:	f897 3044 	ldrb.w	r3, [r7, #68]	; 0x44
 800159e:	9302      	str	r3, [sp, #8]
 80015a0:	6b7b      	ldr	r3, [r7, #52]	; 0x34
 80015a2:	9301      	str	r3, [sp, #4]
 80015a4:	f107 0310 	add.w	r3, r7, #16
 80015a8:	9300      	str	r3, [sp, #0]
 80015aa:	683b      	ldr	r3, [r7, #0]
 80015ac:	687a      	ldr	r2, [r7, #4]
 80015ae:	68b9      	ldr	r1, [r7, #8]
 80015b0:	68f8      	ldr	r0, [r7, #12]
 80015b2:	f7ff fec2 	bl	800133a <_ntoa_format>
 80015b6:	4603      	mov	r3, r0
}
 80015b8:	4618      	mov	r0, r3
 80015ba:	3738      	adds	r7, #56	; 0x38
 80015bc:	46bd      	mov	sp, r7
 80015be:	bd80      	pop	{r7, pc}

080015c0 <_ntoa_long_long>:


// internal itoa for 'long long' type
#if defined(PRINTF_SUPPORT_LONG_LONG)
static size_t _ntoa_long_long(out_fct_type out, char* buffer, size_t idx, size_t maxlen, unsigned long long value, bool negative, unsigned long long base, unsigned int prec, unsigned int width, unsigned int flags)
{
 80015c0:	b590      	push	{r4, r7, lr}
 80015c2:	b097      	sub	sp, #92	; 0x5c
 80015c4:	af08      	add	r7, sp, #32
 80015c6:	60f8      	str	r0, [r7, #12]
 80015c8:	60b9      	str	r1, [r7, #8]
 80015ca:	607a      	str	r2, [r7, #4]
 80015cc:	603b      	str	r3, [r7, #0]
  char buf[PRINTF_NTOA_BUFFER_SIZE];
  size_t len = 0U;
 80015ce:	2300      	movs	r3, #0
 80015d0:	637b      	str	r3, [r7, #52]	; 0x34

  // no hash for 0 values
  if (!value) {
 80015d2:	e9d7 3412 	ldrd	r3, r4, [r7, #72]	; 0x48
 80015d6:	4323      	orrs	r3, r4
 80015d8:	d103      	bne.n	80015e2 <_ntoa_long_long+0x22>
    flags &= ~FLAGS_HASH;
 80015da:	6ebb      	ldr	r3, [r7, #104]	; 0x68
 80015dc:	f023 0310 	bic.w	r3, r3, #16
 80015e0:	66bb      	str	r3, [r7, #104]	; 0x68
  }

  // write if precision != 0 and value is != 0
  if (!(flags & FLAGS_PRECISION) || value) {
 80015e2:	6ebb      	ldr	r3, [r7, #104]	; 0x68
 80015e4:	f403 6380 	and.w	r3, r3, #1024	; 0x400
 80015e8:	2b00      	cmp	r3, #0
 80015ea:	d003      	beq.n	80015f4 <_ntoa_long_long+0x34>
 80015ec:	e9d7 3412 	ldrd	r3, r4, [r7, #72]	; 0x48
 80015f0:	4323      	orrs	r3, r4
 80015f2:	d039      	beq.n	8001668 <_ntoa_long_long+0xa8>
    do {
      const char digit = (char)(value % base);
 80015f4:	e9d7 0112 	ldrd	r0, r1, [r7, #72]	; 0x48
 80015f8:	e9d7 2316 	ldrd	r2, r3, [r7, #88]	; 0x58
 80015fc:	f7ff fa8e 	bl	8000b1c <__aeabi_uldivmod>
 8001600:	461c      	mov	r4, r3
 8001602:	4613      	mov	r3, r2
 8001604:	f887 3033 	strb.w	r3, [r7, #51]	; 0x33
      buf[len++] = digit < 10 ? '0' + digit : (flags & FLAGS_UPPERCASE ? 'A' : 'a') + digit - 10;
 8001608:	f897 3033 	ldrb.w	r3, [r7, #51]	; 0x33
 800160c:	2b09      	cmp	r3, #9
 800160e:	d804      	bhi.n	800161a <_ntoa_long_long+0x5a>
 8001610:	f897 3033 	ldrb.w	r3, [r7, #51]	; 0x33
 8001614:	3330      	adds	r3, #48	; 0x30
 8001616:	b2da      	uxtb	r2, r3
 8001618:	e00d      	b.n	8001636 <_ntoa_long_long+0x76>
 800161a:	6ebb      	ldr	r3, [r7, #104]	; 0x68
 800161c:	f003 0320 	and.w	r3, r3, #32
 8001620:	2b00      	cmp	r3, #0
 8001622:	d001      	beq.n	8001628 <_ntoa_long_long+0x68>
 8001624:	2241      	movs	r2, #65	; 0x41
 8001626:	e000      	b.n	800162a <_ntoa_long_long+0x6a>
 8001628:	2261      	movs	r2, #97	; 0x61
 800162a:	f897 3033 	ldrb.w	r3, [r7, #51]	; 0x33
 800162e:	4413      	add	r3, r2
 8001630:	b2db      	uxtb	r3, r3
 8001632:	3b0a      	subs	r3, #10
 8001634:	b2da      	uxtb	r2, r3
 8001636:	6b7b      	ldr	r3, [r7, #52]	; 0x34
 8001638:	1c59      	adds	r1, r3, #1
 800163a:	6379      	str	r1, [r7, #52]	; 0x34
 800163c:	f107 0138 	add.w	r1, r7, #56	; 0x38
 8001640:	440b      	add	r3, r1
 8001642:	f803 2c28 	strb.w	r2, [r3, #-40]
      value /= base;
 8001646:	e9d7 2316 	ldrd	r2, r3, [r7, #88]	; 0x58
 800164a:	e9d7 0112 	ldrd	r0, r1, [r7, #72]	; 0x48
 800164e:	f7ff fa65 	bl	8000b1c <__aeabi_uldivmod>
 8001652:	4603      	mov	r3, r0
 8001654:	460c      	mov	r4, r1
 8001656:	e9c7 3412 	strd	r3, r4, [r7, #72]	; 0x48
    } while (value && (len < PRINTF_NTOA_BUFFER_SIZE));
 800165a:	e9d7 3412 	ldrd	r3, r4, [r7, #72]	; 0x48
 800165e:	4323      	orrs	r3, r4
 8001660:	d002      	beq.n	8001668 <_ntoa_long_long+0xa8>
 8001662:	6b7b      	ldr	r3, [r7, #52]	; 0x34
 8001664:	2b1f      	cmp	r3, #31
 8001666:	d9c5      	bls.n	80015f4 <_ntoa_long_long+0x34>
  }

  return _ntoa_format(out, buffer, idx, maxlen, buf, len, negative, (unsigned int)base, prec, width, flags);
 8001668:	6dbb      	ldr	r3, [r7, #88]	; 0x58
 800166a:	6eba      	ldr	r2, [r7, #104]	; 0x68
 800166c:	9206      	str	r2, [sp, #24]
 800166e:	6e7a      	ldr	r2, [r7, #100]	; 0x64
 8001670:	9205      	str	r2, [sp, #20]
 8001672:	6e3a      	ldr	r2, [r7, #96]	; 0x60
 8001674:	9204      	str	r2, [sp, #16]
 8001676:	9303      	str	r3, [sp, #12]
 8001678:	f897 3050 	ldrb.w	r3, [r7, #80]	; 0x50
 800167c:	9302      	str	r3, [sp, #8]
 800167e:	6b7b      	ldr	r3, [r7, #52]	; 0x34
 8001680:	9301      	str	r3, [sp, #4]
 8001682:	f107 0310 	add.w	r3, r7, #16
 8001686:	9300      	str	r3, [sp, #0]
 8001688:	683b      	ldr	r3, [r7, #0]
 800168a:	687a      	ldr	r2, [r7, #4]
 800168c:	68b9      	ldr	r1, [r7, #8]
 800168e:	68f8      	ldr	r0, [r7, #12]
 8001690:	f7ff fe53 	bl	800133a <_ntoa_format>
 8001694:	4603      	mov	r3, r0
}
 8001696:	4618      	mov	r0, r3
 8001698:	373c      	adds	r7, #60	; 0x3c
 800169a:	46bd      	mov	sp, r7
 800169c:	bd90      	pop	{r4, r7, pc}
	...

080016a0 <_ftoa>:
#endif


// internal ftoa for fixed decimal floating point
static size_t _ftoa(out_fct_type out, char* buffer, size_t idx, size_t maxlen, double value, unsigned int prec, unsigned int width, unsigned int flags)
{
 80016a0:	b590      	push	{r4, r7, lr}
 80016a2:	b09d      	sub	sp, #116	; 0x74
 80016a4:	af04      	add	r7, sp, #16
 80016a6:	6178      	str	r0, [r7, #20]
 80016a8:	6139      	str	r1, [r7, #16]
 80016aa:	60fa      	str	r2, [r7, #12]
 80016ac:	60bb      	str	r3, [r7, #8]
 80016ae:	ed87 0b00 	vstr	d0, [r7]
  char buf[PRINTF_FTOA_BUFFER_SIZE];
  size_t len  = 0U;
 80016b2:	2300      	movs	r3, #0
 80016b4:	65fb      	str	r3, [r7, #92]	; 0x5c
  double diff = 0.0;
 80016b6:	f04f 0300 	mov.w	r3, #0
 80016ba:	f04f 0400 	mov.w	r4, #0
 80016be:	e9c7 3410 	strd	r3, r4, [r7, #64]	; 0x40

  // powers of 10
  static const double pow10[] = { 1, 10, 100, 1000, 10000, 100000, 1000000, 10000000, 100000000, 1000000000 };

  // test for special values
  if (value != value)
 80016c2:	e9d7 2300 	ldrd	r2, r3, [r7]
 80016c6:	e9d7 0100 	ldrd	r0, r1, [r7]
 80016ca:	f7ff f9ad 	bl	8000a28 <__aeabi_dcmpeq>
 80016ce:	4603      	mov	r3, r0
 80016d0:	2b00      	cmp	r3, #0
 80016d2:	d10f      	bne.n	80016f4 <_ftoa+0x54>
    return _out_rev(out, buffer, idx, maxlen, "nan", 3, width, flags);
 80016d4:	6fbb      	ldr	r3, [r7, #120]	; 0x78
 80016d6:	9303      	str	r3, [sp, #12]
 80016d8:	6f7b      	ldr	r3, [r7, #116]	; 0x74
 80016da:	9302      	str	r3, [sp, #8]
 80016dc:	2303      	movs	r3, #3
 80016de:	9301      	str	r3, [sp, #4]
 80016e0:	4baf      	ldr	r3, [pc, #700]	; (80019a0 <_ftoa+0x300>)
 80016e2:	9300      	str	r3, [sp, #0]
 80016e4:	68bb      	ldr	r3, [r7, #8]
 80016e6:	68fa      	ldr	r2, [r7, #12]
 80016e8:	6939      	ldr	r1, [r7, #16]
 80016ea:	6978      	ldr	r0, [r7, #20]
 80016ec:	f7ff fdd5 	bl	800129a <_out_rev>
 80016f0:	4603      	mov	r3, r0
 80016f2:	e237      	b.n	8001b64 <_ftoa+0x4c4>
  if (value < -DBL_MAX)
 80016f4:	f04f 32ff 	mov.w	r2, #4294967295
 80016f8:	f46f 1380 	mvn.w	r3, #1048576	; 0x100000
 80016fc:	e9d7 0100 	ldrd	r0, r1, [r7]
 8001700:	f7ff f99c 	bl	8000a3c <__aeabi_dcmplt>
 8001704:	4603      	mov	r3, r0
 8001706:	2b00      	cmp	r3, #0
 8001708:	d00f      	beq.n	800172a <_ftoa+0x8a>
    return _out_rev(out, buffer, idx, maxlen, "fni-", 4, width, flags);
 800170a:	6fbb      	ldr	r3, [r7, #120]	; 0x78
 800170c:	9303      	str	r3, [sp, #12]
 800170e:	6f7b      	ldr	r3, [r7, #116]	; 0x74
 8001710:	9302      	str	r3, [sp, #8]
 8001712:	2304      	movs	r3, #4
 8001714:	9301      	str	r3, [sp, #4]
 8001716:	4ba3      	ldr	r3, [pc, #652]	; (80019a4 <_ftoa+0x304>)
 8001718:	9300      	str	r3, [sp, #0]
 800171a:	68bb      	ldr	r3, [r7, #8]
 800171c:	68fa      	ldr	r2, [r7, #12]
 800171e:	6939      	ldr	r1, [r7, #16]
 8001720:	6978      	ldr	r0, [r7, #20]
 8001722:	f7ff fdba 	bl	800129a <_out_rev>
 8001726:	4603      	mov	r3, r0
 8001728:	e21c      	b.n	8001b64 <_ftoa+0x4c4>
  if (value > DBL_MAX)
 800172a:	f04f 32ff 	mov.w	r2, #4294967295
 800172e:	4b9e      	ldr	r3, [pc, #632]	; (80019a8 <_ftoa+0x308>)
 8001730:	e9d7 0100 	ldrd	r0, r1, [r7]
 8001734:	f7ff f9a0 	bl	8000a78 <__aeabi_dcmpgt>
 8001738:	4603      	mov	r3, r0
 800173a:	2b00      	cmp	r3, #0
 800173c:	d01d      	beq.n	800177a <_ftoa+0xda>
    return _out_rev(out, buffer, idx, maxlen, (flags & FLAGS_PLUS) ? "fni+" : "fni", (flags & FLAGS_PLUS) ? 4U : 3U, width, flags);
 800173e:	6fbb      	ldr	r3, [r7, #120]	; 0x78
 8001740:	f003 0304 	and.w	r3, r3, #4
 8001744:	2b00      	cmp	r3, #0
 8001746:	d001      	beq.n	800174c <_ftoa+0xac>
 8001748:	4b98      	ldr	r3, [pc, #608]	; (80019ac <_ftoa+0x30c>)
 800174a:	e000      	b.n	800174e <_ftoa+0xae>
 800174c:	4b98      	ldr	r3, [pc, #608]	; (80019b0 <_ftoa+0x310>)
 800174e:	6fba      	ldr	r2, [r7, #120]	; 0x78
 8001750:	f002 0204 	and.w	r2, r2, #4
 8001754:	2a00      	cmp	r2, #0
 8001756:	d001      	beq.n	800175c <_ftoa+0xbc>
 8001758:	2204      	movs	r2, #4
 800175a:	e000      	b.n	800175e <_ftoa+0xbe>
 800175c:	2203      	movs	r2, #3
 800175e:	6fb9      	ldr	r1, [r7, #120]	; 0x78
 8001760:	9103      	str	r1, [sp, #12]
 8001762:	6f79      	ldr	r1, [r7, #116]	; 0x74
 8001764:	9102      	str	r1, [sp, #8]
 8001766:	9201      	str	r2, [sp, #4]
 8001768:	9300      	str	r3, [sp, #0]
 800176a:	68bb      	ldr	r3, [r7, #8]
 800176c:	68fa      	ldr	r2, [r7, #12]
 800176e:	6939      	ldr	r1, [r7, #16]
 8001770:	6978      	ldr	r0, [r7, #20]
 8001772:	f7ff fd92 	bl	800129a <_out_rev>
 8001776:	4603      	mov	r3, r0
 8001778:	e1f4      	b.n	8001b64 <_ftoa+0x4c4>

  // test for very large values
  // standard printf behavior is to print EVERY whole number digit -- which could be 100s of characters overflowing your buffers == bad
  if ((value > PRINTF_MAX_FLOAT) || (value < -PRINTF_MAX_FLOAT)) {
 800177a:	a385      	add	r3, pc, #532	; (adr r3, 8001990 <_ftoa+0x2f0>)
 800177c:	e9d3 2300 	ldrd	r2, r3, [r3]
 8001780:	e9d7 0100 	ldrd	r0, r1, [r7]
 8001784:	f7ff f978 	bl	8000a78 <__aeabi_dcmpgt>
 8001788:	4603      	mov	r3, r0
 800178a:	2b00      	cmp	r3, #0
 800178c:	d109      	bne.n	80017a2 <_ftoa+0x102>
 800178e:	a382      	add	r3, pc, #520	; (adr r3, 8001998 <_ftoa+0x2f8>)
 8001790:	e9d3 2300 	ldrd	r2, r3, [r3]
 8001794:	e9d7 0100 	ldrd	r0, r1, [r7]
 8001798:	f7ff f950 	bl	8000a3c <__aeabi_dcmplt>
 800179c:	4603      	mov	r3, r0
 800179e:	2b00      	cmp	r3, #0
 80017a0:	d00f      	beq.n	80017c2 <_ftoa+0x122>
#if defined(PRINTF_SUPPORT_EXPONENTIAL)
    return _etoa(out, buffer, idx, maxlen, value, prec, width, flags);
 80017a2:	6fbb      	ldr	r3, [r7, #120]	; 0x78
 80017a4:	9302      	str	r3, [sp, #8]
 80017a6:	6f7b      	ldr	r3, [r7, #116]	; 0x74
 80017a8:	9301      	str	r3, [sp, #4]
 80017aa:	6f3b      	ldr	r3, [r7, #112]	; 0x70
 80017ac:	9300      	str	r3, [sp, #0]
 80017ae:	ed97 0b00 	vldr	d0, [r7]
 80017b2:	68bb      	ldr	r3, [r7, #8]
 80017b4:	68fa      	ldr	r2, [r7, #12]
 80017b6:	6939      	ldr	r1, [r7, #16]
 80017b8:	6978      	ldr	r0, [r7, #20]
 80017ba:	f000 f9dd 	bl	8001b78 <_etoa>
 80017be:	4603      	mov	r3, r0
 80017c0:	e1d0      	b.n	8001b64 <_ftoa+0x4c4>
    return 0U;
#endif
  }

  // test for negative
  bool negative = false;
 80017c2:	2300      	movs	r3, #0
 80017c4:	f887 305b 	strb.w	r3, [r7, #91]	; 0x5b
  if (value < 0) {
 80017c8:	f04f 0200 	mov.w	r2, #0
 80017cc:	f04f 0300 	mov.w	r3, #0
 80017d0:	e9d7 0100 	ldrd	r0, r1, [r7]
 80017d4:	f7ff f932 	bl	8000a3c <__aeabi_dcmplt>
 80017d8:	4603      	mov	r3, r0
 80017da:	2b00      	cmp	r3, #0
 80017dc:	d00e      	beq.n	80017fc <_ftoa+0x15c>
    negative = true;
 80017de:	2301      	movs	r3, #1
 80017e0:	f887 305b 	strb.w	r3, [r7, #91]	; 0x5b
    value = 0 - value;
 80017e4:	e9d7 2300 	ldrd	r2, r3, [r7]
 80017e8:	f04f 0000 	mov.w	r0, #0
 80017ec:	f04f 0100 	mov.w	r1, #0
 80017f0:	f7fe fcfa 	bl	80001e8 <__aeabi_dsub>
 80017f4:	4603      	mov	r3, r0
 80017f6:	460c      	mov	r4, r1
 80017f8:	e9c7 3400 	strd	r3, r4, [r7]
  }

  // set default precision, if not set explicitly
  if (!(flags & FLAGS_PRECISION)) {
 80017fc:	6fbb      	ldr	r3, [r7, #120]	; 0x78
 80017fe:	f403 6380 	and.w	r3, r3, #1024	; 0x400
 8001802:	2b00      	cmp	r3, #0
 8001804:	d10e      	bne.n	8001824 <_ftoa+0x184>
    prec = PRINTF_DEFAULT_FLOAT_PRECISION;
 8001806:	2306      	movs	r3, #6
 8001808:	673b      	str	r3, [r7, #112]	; 0x70
  }
  // limit precision to 9, cause a prec >= 10 can lead to overflow errors
  while ((len < PRINTF_FTOA_BUFFER_SIZE) && (prec > 9U)) {
 800180a:	e00b      	b.n	8001824 <_ftoa+0x184>
    buf[len++] = '0';
 800180c:	6dfb      	ldr	r3, [r7, #92]	; 0x5c
 800180e:	1c5a      	adds	r2, r3, #1
 8001810:	65fa      	str	r2, [r7, #92]	; 0x5c
 8001812:	f107 0260 	add.w	r2, r7, #96	; 0x60
 8001816:	4413      	add	r3, r2
 8001818:	2230      	movs	r2, #48	; 0x30
 800181a:	f803 2c48 	strb.w	r2, [r3, #-72]
    prec--;
 800181e:	6f3b      	ldr	r3, [r7, #112]	; 0x70
 8001820:	3b01      	subs	r3, #1
 8001822:	673b      	str	r3, [r7, #112]	; 0x70
  while ((len < PRINTF_FTOA_BUFFER_SIZE) && (prec > 9U)) {
 8001824:	6dfb      	ldr	r3, [r7, #92]	; 0x5c
 8001826:	2b1f      	cmp	r3, #31
 8001828:	d802      	bhi.n	8001830 <_ftoa+0x190>
 800182a:	6f3b      	ldr	r3, [r7, #112]	; 0x70
 800182c:	2b09      	cmp	r3, #9
 800182e:	d8ed      	bhi.n	800180c <_ftoa+0x16c>
  }

  int whole = (int)value;
 8001830:	e9d7 0100 	ldrd	r0, r1, [r7]
 8001834:	f7ff f92a 	bl	8000a8c <__aeabi_d2iz>
 8001838:	4603      	mov	r3, r0
 800183a:	657b      	str	r3, [r7, #84]	; 0x54
  double tmp = (value - whole) * pow10[prec];
 800183c:	6d78      	ldr	r0, [r7, #84]	; 0x54
 800183e:	f7fe fe21 	bl	8000484 <__aeabi_i2d>
 8001842:	4603      	mov	r3, r0
 8001844:	460c      	mov	r4, r1
 8001846:	461a      	mov	r2, r3
 8001848:	4623      	mov	r3, r4
 800184a:	e9d7 0100 	ldrd	r0, r1, [r7]
 800184e:	f7fe fccb 	bl	80001e8 <__aeabi_dsub>
 8001852:	4603      	mov	r3, r0
 8001854:	460c      	mov	r4, r1
 8001856:	4618      	mov	r0, r3
 8001858:	4621      	mov	r1, r4
 800185a:	4a56      	ldr	r2, [pc, #344]	; (80019b4 <_ftoa+0x314>)
 800185c:	6f3b      	ldr	r3, [r7, #112]	; 0x70
 800185e:	00db      	lsls	r3, r3, #3
 8001860:	4413      	add	r3, r2
 8001862:	e9d3 3400 	ldrd	r3, r4, [r3]
 8001866:	461a      	mov	r2, r3
 8001868:	4623      	mov	r3, r4
 800186a:	f7fe fe75 	bl	8000558 <__aeabi_dmul>
 800186e:	4603      	mov	r3, r0
 8001870:	460c      	mov	r4, r1
 8001872:	e9c7 340e 	strd	r3, r4, [r7, #56]	; 0x38
  unsigned long frac = (unsigned long)tmp;
 8001876:	e9d7 010e 	ldrd	r0, r1, [r7, #56]	; 0x38
 800187a:	f7ff f92f 	bl	8000adc <__aeabi_d2uiz>
 800187e:	4603      	mov	r3, r0
 8001880:	653b      	str	r3, [r7, #80]	; 0x50
  diff = tmp - frac;
 8001882:	6d38      	ldr	r0, [r7, #80]	; 0x50
 8001884:	f7fe fdee 	bl	8000464 <__aeabi_ui2d>
 8001888:	4603      	mov	r3, r0
 800188a:	460c      	mov	r4, r1
 800188c:	461a      	mov	r2, r3
 800188e:	4623      	mov	r3, r4
 8001890:	e9d7 010e 	ldrd	r0, r1, [r7, #56]	; 0x38
 8001894:	f7fe fca8 	bl	80001e8 <__aeabi_dsub>
 8001898:	4603      	mov	r3, r0
 800189a:	460c      	mov	r4, r1
 800189c:	e9c7 3410 	strd	r3, r4, [r7, #64]	; 0x40

  if (diff > 0.5) {
 80018a0:	f04f 0200 	mov.w	r2, #0
 80018a4:	4b44      	ldr	r3, [pc, #272]	; (80019b8 <_ftoa+0x318>)
 80018a6:	e9d7 0110 	ldrd	r0, r1, [r7, #64]	; 0x40
 80018aa:	f7ff f8e5 	bl	8000a78 <__aeabi_dcmpgt>
 80018ae:	4603      	mov	r3, r0
 80018b0:	2b00      	cmp	r3, #0
 80018b2:	d018      	beq.n	80018e6 <_ftoa+0x246>
    ++frac;
 80018b4:	6d3b      	ldr	r3, [r7, #80]	; 0x50
 80018b6:	3301      	adds	r3, #1
 80018b8:	653b      	str	r3, [r7, #80]	; 0x50
    // handle rollover, e.g. case 0.99 with prec 1 is 1.0
    if (frac >= pow10[prec]) {
 80018ba:	6d38      	ldr	r0, [r7, #80]	; 0x50
 80018bc:	f7fe fdd2 	bl	8000464 <__aeabi_ui2d>
 80018c0:	4a3c      	ldr	r2, [pc, #240]	; (80019b4 <_ftoa+0x314>)
 80018c2:	6f3b      	ldr	r3, [r7, #112]	; 0x70
 80018c4:	00db      	lsls	r3, r3, #3
 80018c6:	4413      	add	r3, r2
 80018c8:	e9d3 3400 	ldrd	r3, r4, [r3]
 80018cc:	461a      	mov	r2, r3
 80018ce:	4623      	mov	r3, r4
 80018d0:	f7ff f8c8 	bl	8000a64 <__aeabi_dcmpge>
 80018d4:	4603      	mov	r3, r0
 80018d6:	2b00      	cmp	r3, #0
 80018d8:	d01a      	beq.n	8001910 <_ftoa+0x270>
      frac = 0;
 80018da:	2300      	movs	r3, #0
 80018dc:	653b      	str	r3, [r7, #80]	; 0x50
      ++whole;
 80018de:	6d7b      	ldr	r3, [r7, #84]	; 0x54
 80018e0:	3301      	adds	r3, #1
 80018e2:	657b      	str	r3, [r7, #84]	; 0x54
 80018e4:	e014      	b.n	8001910 <_ftoa+0x270>
    }
  }
  else if (diff < 0.5) {
 80018e6:	f04f 0200 	mov.w	r2, #0
 80018ea:	4b33      	ldr	r3, [pc, #204]	; (80019b8 <_ftoa+0x318>)
 80018ec:	e9d7 0110 	ldrd	r0, r1, [r7, #64]	; 0x40
 80018f0:	f7ff f8a4 	bl	8000a3c <__aeabi_dcmplt>
 80018f4:	4603      	mov	r3, r0
 80018f6:	2b00      	cmp	r3, #0
 80018f8:	d10a      	bne.n	8001910 <_ftoa+0x270>
  }
  else if ((frac == 0U) || (frac & 1U)) {
 80018fa:	6d3b      	ldr	r3, [r7, #80]	; 0x50
 80018fc:	2b00      	cmp	r3, #0
 80018fe:	d004      	beq.n	800190a <_ftoa+0x26a>
 8001900:	6d3b      	ldr	r3, [r7, #80]	; 0x50
 8001902:	f003 0301 	and.w	r3, r3, #1
 8001906:	2b00      	cmp	r3, #0
 8001908:	d002      	beq.n	8001910 <_ftoa+0x270>
    // if halfway, round up if odd OR if last digit is 0
    ++frac;
 800190a:	6d3b      	ldr	r3, [r7, #80]	; 0x50
 800190c:	3301      	adds	r3, #1
 800190e:	653b      	str	r3, [r7, #80]	; 0x50
  }

  if (prec == 0U) {
 8001910:	6f3b      	ldr	r3, [r7, #112]	; 0x70
 8001912:	2b00      	cmp	r3, #0
 8001914:	d136      	bne.n	8001984 <_ftoa+0x2e4>
    diff = value - (double)whole;
 8001916:	6d78      	ldr	r0, [r7, #84]	; 0x54
 8001918:	f7fe fdb4 	bl	8000484 <__aeabi_i2d>
 800191c:	4603      	mov	r3, r0
 800191e:	460c      	mov	r4, r1
 8001920:	461a      	mov	r2, r3
 8001922:	4623      	mov	r3, r4
 8001924:	e9d7 0100 	ldrd	r0, r1, [r7]
 8001928:	f7fe fc5e 	bl	80001e8 <__aeabi_dsub>
 800192c:	4603      	mov	r3, r0
 800192e:	460c      	mov	r4, r1
 8001930:	e9c7 3410 	strd	r3, r4, [r7, #64]	; 0x40
    if ((!(diff < 0.5) || (diff > 0.5)) && (whole & 1)) {
 8001934:	2301      	movs	r3, #1
 8001936:	461c      	mov	r4, r3
 8001938:	f04f 0200 	mov.w	r2, #0
 800193c:	4b1e      	ldr	r3, [pc, #120]	; (80019b8 <_ftoa+0x318>)
 800193e:	e9d7 0110 	ldrd	r0, r1, [r7, #64]	; 0x40
 8001942:	f7ff f87b 	bl	8000a3c <__aeabi_dcmplt>
 8001946:	4603      	mov	r3, r0
 8001948:	2b00      	cmp	r3, #0
 800194a:	d101      	bne.n	8001950 <_ftoa+0x2b0>
 800194c:	2300      	movs	r3, #0
 800194e:	461c      	mov	r4, r3
 8001950:	b2e3      	uxtb	r3, r4
 8001952:	f083 0301 	eor.w	r3, r3, #1
 8001956:	b2db      	uxtb	r3, r3
 8001958:	2b00      	cmp	r3, #0
 800195a:	d109      	bne.n	8001970 <_ftoa+0x2d0>
 800195c:	f04f 0200 	mov.w	r2, #0
 8001960:	4b15      	ldr	r3, [pc, #84]	; (80019b8 <_ftoa+0x318>)
 8001962:	e9d7 0110 	ldrd	r0, r1, [r7, #64]	; 0x40
 8001966:	f7ff f887 	bl	8000a78 <__aeabi_dcmpgt>
 800196a:	4603      	mov	r3, r0
 800196c:	2b00      	cmp	r3, #0
 800196e:	d069      	beq.n	8001a44 <_ftoa+0x3a4>
 8001970:	6d7b      	ldr	r3, [r7, #84]	; 0x54
 8001972:	f003 0301 	and.w	r3, r3, #1
 8001976:	2b00      	cmp	r3, #0
 8001978:	f000 8087 	beq.w	8001a8a <_ftoa+0x3ea>
      // exactly 0.5 and ODD, then round up
      // 1.5 -> 2, but 2.5 -> 2
      ++whole;
 800197c:	6d7b      	ldr	r3, [r7, #84]	; 0x54
 800197e:	3301      	adds	r3, #1
 8001980:	657b      	str	r3, [r7, #84]	; 0x54
 8001982:	e082      	b.n	8001a8a <_ftoa+0x3ea>
    }
  }
  else {
    unsigned int count = prec;
 8001984:	6f3b      	ldr	r3, [r7, #112]	; 0x70
 8001986:	64fb      	str	r3, [r7, #76]	; 0x4c
    // now do fractional part, as an unsigned number
    while (len < PRINTF_FTOA_BUFFER_SIZE) {
 8001988:	e039      	b.n	80019fe <_ftoa+0x35e>
 800198a:	bf00      	nop
 800198c:	f3af 8000 	nop.w
 8001990:	00000000 	.word	0x00000000
 8001994:	41cdcd65 	.word	0x41cdcd65
 8001998:	00000000 	.word	0x00000000
 800199c:	c1cdcd65 	.word	0xc1cdcd65
 80019a0:	080087f8 	.word	0x080087f8
 80019a4:	080087fc 	.word	0x080087fc
 80019a8:	7fefffff 	.word	0x7fefffff
 80019ac:	08008804 	.word	0x08008804
 80019b0:	0800880c 	.word	0x0800880c
 80019b4:	080088a8 	.word	0x080088a8
 80019b8:	3fe00000 	.word	0x3fe00000
      --count;
 80019bc:	6cfb      	ldr	r3, [r7, #76]	; 0x4c
 80019be:	3b01      	subs	r3, #1
 80019c0:	64fb      	str	r3, [r7, #76]	; 0x4c
      buf[len++] = (char)(48U + (frac % 10U));
 80019c2:	6d39      	ldr	r1, [r7, #80]	; 0x50
 80019c4:	4b69      	ldr	r3, [pc, #420]	; (8001b6c <_ftoa+0x4cc>)
 80019c6:	fba3 2301 	umull	r2, r3, r3, r1
 80019ca:	08da      	lsrs	r2, r3, #3
 80019cc:	4613      	mov	r3, r2
 80019ce:	009b      	lsls	r3, r3, #2
 80019d0:	4413      	add	r3, r2
 80019d2:	005b      	lsls	r3, r3, #1
 80019d4:	1aca      	subs	r2, r1, r3
 80019d6:	b2d2      	uxtb	r2, r2
 80019d8:	6dfb      	ldr	r3, [r7, #92]	; 0x5c
 80019da:	1c59      	adds	r1, r3, #1
 80019dc:	65f9      	str	r1, [r7, #92]	; 0x5c
 80019de:	3230      	adds	r2, #48	; 0x30
 80019e0:	b2d2      	uxtb	r2, r2
 80019e2:	f107 0160 	add.w	r1, r7, #96	; 0x60
 80019e6:	440b      	add	r3, r1
 80019e8:	f803 2c48 	strb.w	r2, [r3, #-72]
      if (!(frac /= 10U)) {
 80019ec:	6d3b      	ldr	r3, [r7, #80]	; 0x50
 80019ee:	4a5f      	ldr	r2, [pc, #380]	; (8001b6c <_ftoa+0x4cc>)
 80019f0:	fba2 2303 	umull	r2, r3, r2, r3
 80019f4:	08db      	lsrs	r3, r3, #3
 80019f6:	653b      	str	r3, [r7, #80]	; 0x50
 80019f8:	6d3b      	ldr	r3, [r7, #80]	; 0x50
 80019fa:	2b00      	cmp	r3, #0
 80019fc:	d003      	beq.n	8001a06 <_ftoa+0x366>
    while (len < PRINTF_FTOA_BUFFER_SIZE) {
 80019fe:	6dfb      	ldr	r3, [r7, #92]	; 0x5c
 8001a00:	2b1f      	cmp	r3, #31
 8001a02:	d9db      	bls.n	80019bc <_ftoa+0x31c>
 8001a04:	e00a      	b.n	8001a1c <_ftoa+0x37c>
        break;
 8001a06:	bf00      	nop
      }
    }
    // add extra 0s
    while ((len < PRINTF_FTOA_BUFFER_SIZE) && (count-- > 0U)) {
 8001a08:	e008      	b.n	8001a1c <_ftoa+0x37c>
      buf[len++] = '0';
 8001a0a:	6dfb      	ldr	r3, [r7, #92]	; 0x5c
 8001a0c:	1c5a      	adds	r2, r3, #1
 8001a0e:	65fa      	str	r2, [r7, #92]	; 0x5c
 8001a10:	f107 0260 	add.w	r2, r7, #96	; 0x60
 8001a14:	4413      	add	r3, r2
 8001a16:	2230      	movs	r2, #48	; 0x30
 8001a18:	f803 2c48 	strb.w	r2, [r3, #-72]
    while ((len < PRINTF_FTOA_BUFFER_SIZE) && (count-- > 0U)) {
 8001a1c:	6dfb      	ldr	r3, [r7, #92]	; 0x5c
 8001a1e:	2b1f      	cmp	r3, #31
 8001a20:	d804      	bhi.n	8001a2c <_ftoa+0x38c>
 8001a22:	6cfb      	ldr	r3, [r7, #76]	; 0x4c
 8001a24:	1e5a      	subs	r2, r3, #1
 8001a26:	64fa      	str	r2, [r7, #76]	; 0x4c
 8001a28:	2b00      	cmp	r3, #0
 8001a2a:	d1ee      	bne.n	8001a0a <_ftoa+0x36a>
    }
    if (len < PRINTF_FTOA_BUFFER_SIZE) {
 8001a2c:	6dfb      	ldr	r3, [r7, #92]	; 0x5c
 8001a2e:	2b1f      	cmp	r3, #31
 8001a30:	d82b      	bhi.n	8001a8a <_ftoa+0x3ea>
      // add decimal
      buf[len++] = '.';
 8001a32:	6dfb      	ldr	r3, [r7, #92]	; 0x5c
 8001a34:	1c5a      	adds	r2, r3, #1
 8001a36:	65fa      	str	r2, [r7, #92]	; 0x5c
 8001a38:	f107 0260 	add.w	r2, r7, #96	; 0x60
 8001a3c:	4413      	add	r3, r2
 8001a3e:	222e      	movs	r2, #46	; 0x2e
 8001a40:	f803 2c48 	strb.w	r2, [r3, #-72]
    }
  }

  // do whole part, number is reversed
  while (len < PRINTF_FTOA_BUFFER_SIZE) {
 8001a44:	e021      	b.n	8001a8a <_ftoa+0x3ea>
    buf[len++] = (char)(48 + (whole % 10));
 8001a46:	6d7a      	ldr	r2, [r7, #84]	; 0x54
 8001a48:	4b49      	ldr	r3, [pc, #292]	; (8001b70 <_ftoa+0x4d0>)
 8001a4a:	fb83 1302 	smull	r1, r3, r3, r2
 8001a4e:	1099      	asrs	r1, r3, #2
 8001a50:	17d3      	asrs	r3, r2, #31
 8001a52:	1ac9      	subs	r1, r1, r3
 8001a54:	460b      	mov	r3, r1
 8001a56:	009b      	lsls	r3, r3, #2
 8001a58:	440b      	add	r3, r1
 8001a5a:	005b      	lsls	r3, r3, #1
 8001a5c:	1ad1      	subs	r1, r2, r3
 8001a5e:	b2ca      	uxtb	r2, r1
 8001a60:	6dfb      	ldr	r3, [r7, #92]	; 0x5c
 8001a62:	1c59      	adds	r1, r3, #1
 8001a64:	65f9      	str	r1, [r7, #92]	; 0x5c
 8001a66:	3230      	adds	r2, #48	; 0x30
 8001a68:	b2d2      	uxtb	r2, r2
 8001a6a:	f107 0160 	add.w	r1, r7, #96	; 0x60
 8001a6e:	440b      	add	r3, r1
 8001a70:	f803 2c48 	strb.w	r2, [r3, #-72]
    if (!(whole /= 10)) {
 8001a74:	6d7b      	ldr	r3, [r7, #84]	; 0x54
 8001a76:	4a3e      	ldr	r2, [pc, #248]	; (8001b70 <_ftoa+0x4d0>)
 8001a78:	fb82 1203 	smull	r1, r2, r2, r3
 8001a7c:	1092      	asrs	r2, r2, #2
 8001a7e:	17db      	asrs	r3, r3, #31
 8001a80:	1ad3      	subs	r3, r2, r3
 8001a82:	657b      	str	r3, [r7, #84]	; 0x54
 8001a84:	6d7b      	ldr	r3, [r7, #84]	; 0x54
 8001a86:	2b00      	cmp	r3, #0
 8001a88:	d003      	beq.n	8001a92 <_ftoa+0x3f2>
  while (len < PRINTF_FTOA_BUFFER_SIZE) {
 8001a8a:	6dfb      	ldr	r3, [r7, #92]	; 0x5c
 8001a8c:	2b1f      	cmp	r3, #31
 8001a8e:	d9da      	bls.n	8001a46 <_ftoa+0x3a6>
 8001a90:	e000      	b.n	8001a94 <_ftoa+0x3f4>
      break;
 8001a92:	bf00      	nop
    }
  }

  // pad leading zeros
  if (!(flags & FLAGS_LEFT) && (flags & FLAGS_ZEROPAD)) {
 8001a94:	6fbb      	ldr	r3, [r7, #120]	; 0x78
 8001a96:	f003 0302 	and.w	r3, r3, #2
 8001a9a:	2b00      	cmp	r3, #0
 8001a9c:	d124      	bne.n	8001ae8 <_ftoa+0x448>
 8001a9e:	6fbb      	ldr	r3, [r7, #120]	; 0x78
 8001aa0:	f003 0301 	and.w	r3, r3, #1
 8001aa4:	2b00      	cmp	r3, #0
 8001aa6:	d01f      	beq.n	8001ae8 <_ftoa+0x448>
    if (width && (negative || (flags & (FLAGS_PLUS | FLAGS_SPACE)))) {
 8001aa8:	6f7b      	ldr	r3, [r7, #116]	; 0x74
 8001aaa:	2b00      	cmp	r3, #0
 8001aac:	d015      	beq.n	8001ada <_ftoa+0x43a>
 8001aae:	f897 305b 	ldrb.w	r3, [r7, #91]	; 0x5b
 8001ab2:	2b00      	cmp	r3, #0
 8001ab4:	d104      	bne.n	8001ac0 <_ftoa+0x420>
 8001ab6:	6fbb      	ldr	r3, [r7, #120]	; 0x78
 8001ab8:	f003 030c 	and.w	r3, r3, #12
 8001abc:	2b00      	cmp	r3, #0
 8001abe:	d00c      	beq.n	8001ada <_ftoa+0x43a>
      width--;
 8001ac0:	6f7b      	ldr	r3, [r7, #116]	; 0x74
 8001ac2:	3b01      	subs	r3, #1
 8001ac4:	677b      	str	r3, [r7, #116]	; 0x74
    }
    while ((len < width) && (len < PRINTF_FTOA_BUFFER_SIZE)) {
 8001ac6:	e008      	b.n	8001ada <_ftoa+0x43a>
      buf[len++] = '0';
 8001ac8:	6dfb      	ldr	r3, [r7, #92]	; 0x5c
 8001aca:	1c5a      	adds	r2, r3, #1
 8001acc:	65fa      	str	r2, [r7, #92]	; 0x5c
 8001ace:	f107 0260 	add.w	r2, r7, #96	; 0x60
 8001ad2:	4413      	add	r3, r2
 8001ad4:	2230      	movs	r2, #48	; 0x30
 8001ad6:	f803 2c48 	strb.w	r2, [r3, #-72]
    while ((len < width) && (len < PRINTF_FTOA_BUFFER_SIZE)) {
 8001ada:	6dfa      	ldr	r2, [r7, #92]	; 0x5c
 8001adc:	6f7b      	ldr	r3, [r7, #116]	; 0x74
 8001ade:	429a      	cmp	r2, r3
 8001ae0:	d202      	bcs.n	8001ae8 <_ftoa+0x448>
 8001ae2:	6dfb      	ldr	r3, [r7, #92]	; 0x5c
 8001ae4:	2b1f      	cmp	r3, #31
 8001ae6:	d9ef      	bls.n	8001ac8 <_ftoa+0x428>
    }
  }

  if (len < PRINTF_FTOA_BUFFER_SIZE) {
 8001ae8:	6dfb      	ldr	r3, [r7, #92]	; 0x5c
 8001aea:	2b1f      	cmp	r3, #31
 8001aec:	d82a      	bhi.n	8001b44 <_ftoa+0x4a4>
    if (negative) {
 8001aee:	f897 305b 	ldrb.w	r3, [r7, #91]	; 0x5b
 8001af2:	2b00      	cmp	r3, #0
 8001af4:	d009      	beq.n	8001b0a <_ftoa+0x46a>
      buf[len++] = '-';
 8001af6:	6dfb      	ldr	r3, [r7, #92]	; 0x5c
 8001af8:	1c5a      	adds	r2, r3, #1
 8001afa:	65fa      	str	r2, [r7, #92]	; 0x5c
 8001afc:	f107 0260 	add.w	r2, r7, #96	; 0x60
 8001b00:	4413      	add	r3, r2
 8001b02:	222d      	movs	r2, #45	; 0x2d
 8001b04:	f803 2c48 	strb.w	r2, [r3, #-72]
 8001b08:	e01c      	b.n	8001b44 <_ftoa+0x4a4>
    }
    else if (flags & FLAGS_PLUS) {
 8001b0a:	6fbb      	ldr	r3, [r7, #120]	; 0x78
 8001b0c:	f003 0304 	and.w	r3, r3, #4
 8001b10:	2b00      	cmp	r3, #0
 8001b12:	d009      	beq.n	8001b28 <_ftoa+0x488>
      buf[len++] = '+';  // ignore the space if the '+' exists
 8001b14:	6dfb      	ldr	r3, [r7, #92]	; 0x5c
 8001b16:	1c5a      	adds	r2, r3, #1
 8001b18:	65fa      	str	r2, [r7, #92]	; 0x5c
 8001b1a:	f107 0260 	add.w	r2, r7, #96	; 0x60
 8001b1e:	4413      	add	r3, r2
 8001b20:	222b      	movs	r2, #43	; 0x2b
 8001b22:	f803 2c48 	strb.w	r2, [r3, #-72]
 8001b26:	e00d      	b.n	8001b44 <_ftoa+0x4a4>
    }
    else if (flags & FLAGS_SPACE) {
 8001b28:	6fbb      	ldr	r3, [r7, #120]	; 0x78
 8001b2a:	f003 0308 	and.w	r3, r3, #8
 8001b2e:	2b00      	cmp	r3, #0
 8001b30:	d008      	beq.n	8001b44 <_ftoa+0x4a4>
      buf[len++] = ' ';
 8001b32:	6dfb      	ldr	r3, [r7, #92]	; 0x5c
 8001b34:	1c5a      	adds	r2, r3, #1
 8001b36:	65fa      	str	r2, [r7, #92]	; 0x5c
 8001b38:	f107 0260 	add.w	r2, r7, #96	; 0x60
 8001b3c:	4413      	add	r3, r2
 8001b3e:	2220      	movs	r2, #32
 8001b40:	f803 2c48 	strb.w	r2, [r3, #-72]
    }
  }

  return _out_rev(out, buffer, idx, maxlen, buf, len, width, flags);
 8001b44:	6fbb      	ldr	r3, [r7, #120]	; 0x78
 8001b46:	9303      	str	r3, [sp, #12]
 8001b48:	6f7b      	ldr	r3, [r7, #116]	; 0x74
 8001b4a:	9302      	str	r3, [sp, #8]
 8001b4c:	6dfb      	ldr	r3, [r7, #92]	; 0x5c
 8001b4e:	9301      	str	r3, [sp, #4]
 8001b50:	f107 0318 	add.w	r3, r7, #24
 8001b54:	9300      	str	r3, [sp, #0]
 8001b56:	68bb      	ldr	r3, [r7, #8]
 8001b58:	68fa      	ldr	r2, [r7, #12]
 8001b5a:	6939      	ldr	r1, [r7, #16]
 8001b5c:	6978      	ldr	r0, [r7, #20]
 8001b5e:	f7ff fb9c 	bl	800129a <_out_rev>
 8001b62:	4603      	mov	r3, r0
}
 8001b64:	4618      	mov	r0, r3
 8001b66:	3764      	adds	r7, #100	; 0x64
 8001b68:	46bd      	mov	sp, r7
 8001b6a:	bd90      	pop	{r4, r7, pc}
 8001b6c:	cccccccd 	.word	0xcccccccd
 8001b70:	66666667 	.word	0x66666667
 8001b74:	00000000 	.word	0x00000000

08001b78 <_etoa>:


#if defined(PRINTF_SUPPORT_EXPONENTIAL)
// internal ftoa variant for exponential floating-point type, contributed by Martijn Jasperse <m.jasperse@gmail.com>
static size_t _etoa(out_fct_type out, char* buffer, size_t idx, size_t maxlen, double value, unsigned int prec, unsigned int width, unsigned int flags)
{
 8001b78:	e92d 4ff0 	stmdb	sp!, {r4, r5, r6, r7, r8, r9, sl, fp, lr}
 8001b7c:	b09d      	sub	sp, #116	; 0x74
 8001b7e:	af06      	add	r7, sp, #24
 8001b80:	61f8      	str	r0, [r7, #28]
 8001b82:	61b9      	str	r1, [r7, #24]
 8001b84:	617a      	str	r2, [r7, #20]
 8001b86:	613b      	str	r3, [r7, #16]
 8001b88:	ed87 0b02 	vstr	d0, [r7, #8]
  // check for NaN and special values
  if ((value != value) || (value > DBL_MAX) || (value < -DBL_MAX)) {
 8001b8c:	e9d7 2302 	ldrd	r2, r3, [r7, #8]
 8001b90:	e9d7 0102 	ldrd	r0, r1, [r7, #8]
 8001b94:	f7fe ff48 	bl	8000a28 <__aeabi_dcmpeq>
 8001b98:	4603      	mov	r3, r0
 8001b9a:	2b00      	cmp	r3, #0
 8001b9c:	d014      	beq.n	8001bc8 <_etoa+0x50>
 8001b9e:	f04f 32ff 	mov.w	r2, #4294967295
 8001ba2:	4bc9      	ldr	r3, [pc, #804]	; (8001ec8 <_etoa+0x350>)
 8001ba4:	e9d7 0102 	ldrd	r0, r1, [r7, #8]
 8001ba8:	f7fe ff66 	bl	8000a78 <__aeabi_dcmpgt>
 8001bac:	4603      	mov	r3, r0
 8001bae:	2b00      	cmp	r3, #0
 8001bb0:	d10a      	bne.n	8001bc8 <_etoa+0x50>
 8001bb2:	f04f 32ff 	mov.w	r2, #4294967295
 8001bb6:	f46f 1380 	mvn.w	r3, #1048576	; 0x100000
 8001bba:	e9d7 0102 	ldrd	r0, r1, [r7, #8]
 8001bbe:	f7fe ff3d 	bl	8000a3c <__aeabi_dcmplt>
 8001bc2:	4603      	mov	r3, r0
 8001bc4:	2b00      	cmp	r3, #0
 8001bc6:	d012      	beq.n	8001bee <_etoa+0x76>
    return _ftoa(out, buffer, idx, maxlen, value, prec, width, flags);
 8001bc8:	f8d7 3088 	ldr.w	r3, [r7, #136]	; 0x88
 8001bcc:	9302      	str	r3, [sp, #8]
 8001bce:	f8d7 3084 	ldr.w	r3, [r7, #132]	; 0x84
 8001bd2:	9301      	str	r3, [sp, #4]
 8001bd4:	f8d7 3080 	ldr.w	r3, [r7, #128]	; 0x80
 8001bd8:	9300      	str	r3, [sp, #0]
 8001bda:	ed97 0b02 	vldr	d0, [r7, #8]
 8001bde:	693b      	ldr	r3, [r7, #16]
 8001be0:	697a      	ldr	r2, [r7, #20]
 8001be2:	69b9      	ldr	r1, [r7, #24]
 8001be4:	69f8      	ldr	r0, [r7, #28]
 8001be6:	f7ff fd5b 	bl	80016a0 <_ftoa>
 8001bea:	4603      	mov	r3, r0
 8001bec:	e24f      	b.n	800208e <_etoa+0x516>
  }

  // determine the sign
  const bool negative = value < 0;
 8001bee:	2301      	movs	r3, #1
 8001bf0:	461c      	mov	r4, r3
 8001bf2:	f04f 0200 	mov.w	r2, #0
 8001bf6:	f04f 0300 	mov.w	r3, #0
 8001bfa:	e9d7 0102 	ldrd	r0, r1, [r7, #8]
 8001bfe:	f7fe ff1d 	bl	8000a3c <__aeabi_dcmplt>
 8001c02:	4603      	mov	r3, r0
 8001c04:	2b00      	cmp	r3, #0
 8001c06:	d101      	bne.n	8001c0c <_etoa+0x94>
 8001c08:	2300      	movs	r3, #0
 8001c0a:	461c      	mov	r4, r3
 8001c0c:	f887 404b 	strb.w	r4, [r7, #75]	; 0x4b
  if (negative) {
 8001c10:	f897 304b 	ldrb.w	r3, [r7, #75]	; 0x4b
 8001c14:	2b00      	cmp	r3, #0
 8001c16:	d005      	beq.n	8001c24 <_etoa+0xac>
    value = -value;
 8001c18:	68bb      	ldr	r3, [r7, #8]
 8001c1a:	60bb      	str	r3, [r7, #8]
 8001c1c:	68fb      	ldr	r3, [r7, #12]
 8001c1e:	f083 4300 	eor.w	r3, r3, #2147483648	; 0x80000000
 8001c22:	60fb      	str	r3, [r7, #12]
  }

  // default precision
  if (!(flags & FLAGS_PRECISION)) {
 8001c24:	f8d7 3088 	ldr.w	r3, [r7, #136]	; 0x88
 8001c28:	f403 6380 	and.w	r3, r3, #1024	; 0x400
 8001c2c:	2b00      	cmp	r3, #0
 8001c2e:	d102      	bne.n	8001c36 <_etoa+0xbe>
    prec = PRINTF_DEFAULT_FLOAT_PRECISION;
 8001c30:	2306      	movs	r3, #6
 8001c32:	f8c7 3080 	str.w	r3, [r7, #128]	; 0x80
  union {
    uint64_t U;
    double   F;
  } conv;

  conv.F = value;
 8001c36:	e9d7 3402 	ldrd	r3, r4, [r7, #8]
 8001c3a:	e9c7 3408 	strd	r3, r4, [r7, #32]
  int exp2 = (int)((conv.U >> 52U) & 0x07FFU) - 1023;           // effectively log2
 8001c3e:	e9d7 1208 	ldrd	r1, r2, [r7, #32]
 8001c42:	f04f 0300 	mov.w	r3, #0
 8001c46:	f04f 0400 	mov.w	r4, #0
 8001c4a:	0d13      	lsrs	r3, r2, #20
 8001c4c:	2400      	movs	r4, #0
 8001c4e:	f3c3 030a 	ubfx	r3, r3, #0, #11
 8001c52:	f2a3 33ff 	subw	r3, r3, #1023	; 0x3ff
 8001c56:	647b      	str	r3, [r7, #68]	; 0x44
  conv.U = (conv.U & ((1ULL << 52U) - 1U)) | (1023ULL << 52U);  // drop the exponent so conv.F is now in [1,2)
 8001c58:	e9d7 3408 	ldrd	r3, r4, [r7, #32]
 8001c5c:	f04f 31ff 	mov.w	r1, #4294967295
 8001c60:	4a9a      	ldr	r2, [pc, #616]	; (8001ecc <_etoa+0x354>)
 8001c62:	ea03 0801 	and.w	r8, r3, r1
 8001c66:	ea04 0902 	and.w	r9, r4, r2
 8001c6a:	f04f 0100 	mov.w	r1, #0
 8001c6e:	4a98      	ldr	r2, [pc, #608]	; (8001ed0 <_etoa+0x358>)
 8001c70:	ea48 0301 	orr.w	r3, r8, r1
 8001c74:	ea49 0402 	orr.w	r4, r9, r2
 8001c78:	e9c7 3408 	strd	r3, r4, [r7, #32]
  // now approximate log10 from the log2 integer part and an expansion of ln around 1.5
  int expval = (int)(0.1760912590558 + exp2 * 0.301029995663981 + (conv.F - 1.5) * 0.289529654602168);
 8001c7c:	6c78      	ldr	r0, [r7, #68]	; 0x44
 8001c7e:	f7fe fc01 	bl	8000484 <__aeabi_i2d>
 8001c82:	a385      	add	r3, pc, #532	; (adr r3, 8001e98 <_etoa+0x320>)
 8001c84:	e9d3 2300 	ldrd	r2, r3, [r3]
 8001c88:	f7fe fc66 	bl	8000558 <__aeabi_dmul>
 8001c8c:	4603      	mov	r3, r0
 8001c8e:	460c      	mov	r4, r1
 8001c90:	4618      	mov	r0, r3
 8001c92:	4621      	mov	r1, r4
 8001c94:	a382      	add	r3, pc, #520	; (adr r3, 8001ea0 <_etoa+0x328>)
 8001c96:	e9d3 2300 	ldrd	r2, r3, [r3]
 8001c9a:	f7fe faa7 	bl	80001ec <__adddf3>
 8001c9e:	4603      	mov	r3, r0
 8001ca0:	460c      	mov	r4, r1
 8001ca2:	4698      	mov	r8, r3
 8001ca4:	46a1      	mov	r9, r4
 8001ca6:	e9d7 0108 	ldrd	r0, r1, [r7, #32]
 8001caa:	f04f 0200 	mov.w	r2, #0
 8001cae:	4b89      	ldr	r3, [pc, #548]	; (8001ed4 <_etoa+0x35c>)
 8001cb0:	f7fe fa9a 	bl	80001e8 <__aeabi_dsub>
 8001cb4:	4603      	mov	r3, r0
 8001cb6:	460c      	mov	r4, r1
 8001cb8:	4618      	mov	r0, r3
 8001cba:	4621      	mov	r1, r4
 8001cbc:	a37a      	add	r3, pc, #488	; (adr r3, 8001ea8 <_etoa+0x330>)
 8001cbe:	e9d3 2300 	ldrd	r2, r3, [r3]
 8001cc2:	f7fe fc49 	bl	8000558 <__aeabi_dmul>
 8001cc6:	4603      	mov	r3, r0
 8001cc8:	460c      	mov	r4, r1
 8001cca:	461a      	mov	r2, r3
 8001ccc:	4623      	mov	r3, r4
 8001cce:	4640      	mov	r0, r8
 8001cd0:	4649      	mov	r1, r9
 8001cd2:	f7fe fa8b 	bl	80001ec <__adddf3>
 8001cd6:	4603      	mov	r3, r0
 8001cd8:	460c      	mov	r4, r1
 8001cda:	4618      	mov	r0, r3
 8001cdc:	4621      	mov	r1, r4
 8001cde:	f7fe fed5 	bl	8000a8c <__aeabi_d2iz>
 8001ce2:	4603      	mov	r3, r0
 8001ce4:	657b      	str	r3, [r7, #84]	; 0x54
  // now we want to compute 10^expval but we want to be sure it won't overflow
  exp2 = (int)(expval * 3.321928094887362 + 0.5);
 8001ce6:	6d78      	ldr	r0, [r7, #84]	; 0x54
 8001ce8:	f7fe fbcc 	bl	8000484 <__aeabi_i2d>
 8001cec:	a370      	add	r3, pc, #448	; (adr r3, 8001eb0 <_etoa+0x338>)
 8001cee:	e9d3 2300 	ldrd	r2, r3, [r3]
 8001cf2:	f7fe fc31 	bl	8000558 <__aeabi_dmul>
 8001cf6:	4603      	mov	r3, r0
 8001cf8:	460c      	mov	r4, r1
 8001cfa:	4618      	mov	r0, r3
 8001cfc:	4621      	mov	r1, r4
 8001cfe:	f04f 0200 	mov.w	r2, #0
 8001d02:	4b75      	ldr	r3, [pc, #468]	; (8001ed8 <_etoa+0x360>)
 8001d04:	f7fe fa72 	bl	80001ec <__adddf3>
 8001d08:	4603      	mov	r3, r0
 8001d0a:	460c      	mov	r4, r1
 8001d0c:	4618      	mov	r0, r3
 8001d0e:	4621      	mov	r1, r4
 8001d10:	f7fe febc 	bl	8000a8c <__aeabi_d2iz>
 8001d14:	4603      	mov	r3, r0
 8001d16:	647b      	str	r3, [r7, #68]	; 0x44
  const double z  = expval * 2.302585092994046 - exp2 * 0.6931471805599453;
 8001d18:	6d78      	ldr	r0, [r7, #84]	; 0x54
 8001d1a:	f7fe fbb3 	bl	8000484 <__aeabi_i2d>
 8001d1e:	a366      	add	r3, pc, #408	; (adr r3, 8001eb8 <_etoa+0x340>)
 8001d20:	e9d3 2300 	ldrd	r2, r3, [r3]
 8001d24:	f7fe fc18 	bl	8000558 <__aeabi_dmul>
 8001d28:	4603      	mov	r3, r0
 8001d2a:	460c      	mov	r4, r1
 8001d2c:	4698      	mov	r8, r3
 8001d2e:	46a1      	mov	r9, r4
 8001d30:	6c78      	ldr	r0, [r7, #68]	; 0x44
 8001d32:	f7fe fba7 	bl	8000484 <__aeabi_i2d>
 8001d36:	a362      	add	r3, pc, #392	; (adr r3, 8001ec0 <_etoa+0x348>)
 8001d38:	e9d3 2300 	ldrd	r2, r3, [r3]
 8001d3c:	f7fe fc0c 	bl	8000558 <__aeabi_dmul>
 8001d40:	4603      	mov	r3, r0
 8001d42:	460c      	mov	r4, r1
 8001d44:	461a      	mov	r2, r3
 8001d46:	4623      	mov	r3, r4
 8001d48:	4640      	mov	r0, r8
 8001d4a:	4649      	mov	r1, r9
 8001d4c:	f7fe fa4c 	bl	80001e8 <__aeabi_dsub>
 8001d50:	4603      	mov	r3, r0
 8001d52:	460c      	mov	r4, r1
 8001d54:	e9c7 340e 	strd	r3, r4, [r7, #56]	; 0x38
  const double z2 = z * z;
 8001d58:	e9d7 230e 	ldrd	r2, r3, [r7, #56]	; 0x38
 8001d5c:	e9d7 010e 	ldrd	r0, r1, [r7, #56]	; 0x38
 8001d60:	f7fe fbfa 	bl	8000558 <__aeabi_dmul>
 8001d64:	4603      	mov	r3, r0
 8001d66:	460c      	mov	r4, r1
 8001d68:	e9c7 340c 	strd	r3, r4, [r7, #48]	; 0x30
  conv.U = (uint64_t)(exp2 + 1023) << 52U;
 8001d6c:	6c7b      	ldr	r3, [r7, #68]	; 0x44
 8001d6e:	f203 33ff 	addw	r3, r3, #1023	; 0x3ff
 8001d72:	4619      	mov	r1, r3
 8001d74:	ea4f 72e1 	mov.w	r2, r1, asr #31
 8001d78:	f04f 0300 	mov.w	r3, #0
 8001d7c:	f04f 0400 	mov.w	r4, #0
 8001d80:	050c      	lsls	r4, r1, #20
 8001d82:	2300      	movs	r3, #0
 8001d84:	e9c7 3408 	strd	r3, r4, [r7, #32]
  // compute exp(z) using continued fractions, see https://en.wikipedia.org/wiki/Exponential_function#Continued_fractions_for_ex
  conv.F *= 1 + 2 * z / (2 - z + (z2 / (6 + (z2 / (10 + z2 / 14)))));
 8001d88:	e9d7 8908 	ldrd	r8, r9, [r7, #32]
 8001d8c:	e9d7 010e 	ldrd	r0, r1, [r7, #56]	; 0x38
 8001d90:	4602      	mov	r2, r0
 8001d92:	460b      	mov	r3, r1
 8001d94:	f7fe fa2a 	bl	80001ec <__adddf3>
 8001d98:	4603      	mov	r3, r0
 8001d9a:	460c      	mov	r4, r1
 8001d9c:	469a      	mov	sl, r3
 8001d9e:	46a3      	mov	fp, r4
 8001da0:	e9d7 230e 	ldrd	r2, r3, [r7, #56]	; 0x38
 8001da4:	f04f 0000 	mov.w	r0, #0
 8001da8:	f04f 4180 	mov.w	r1, #1073741824	; 0x40000000
 8001dac:	f7fe fa1c 	bl	80001e8 <__aeabi_dsub>
 8001db0:	4603      	mov	r3, r0
 8001db2:	460c      	mov	r4, r1
 8001db4:	e9c7 3400 	strd	r3, r4, [r7]
 8001db8:	f04f 0200 	mov.w	r2, #0
 8001dbc:	4b47      	ldr	r3, [pc, #284]	; (8001edc <_etoa+0x364>)
 8001dbe:	e9d7 010c 	ldrd	r0, r1, [r7, #48]	; 0x30
 8001dc2:	f7fe fcf3 	bl	80007ac <__aeabi_ddiv>
 8001dc6:	4603      	mov	r3, r0
 8001dc8:	460c      	mov	r4, r1
 8001dca:	4618      	mov	r0, r3
 8001dcc:	4621      	mov	r1, r4
 8001dce:	f04f 0200 	mov.w	r2, #0
 8001dd2:	4b43      	ldr	r3, [pc, #268]	; (8001ee0 <_etoa+0x368>)
 8001dd4:	f7fe fa0a 	bl	80001ec <__adddf3>
 8001dd8:	4603      	mov	r3, r0
 8001dda:	460c      	mov	r4, r1
 8001ddc:	461a      	mov	r2, r3
 8001dde:	4623      	mov	r3, r4
 8001de0:	e9d7 010c 	ldrd	r0, r1, [r7, #48]	; 0x30
 8001de4:	f7fe fce2 	bl	80007ac <__aeabi_ddiv>
 8001de8:	4603      	mov	r3, r0
 8001dea:	460c      	mov	r4, r1
 8001dec:	4618      	mov	r0, r3
 8001dee:	4621      	mov	r1, r4
 8001df0:	f04f 0200 	mov.w	r2, #0
 8001df4:	4b3b      	ldr	r3, [pc, #236]	; (8001ee4 <_etoa+0x36c>)
 8001df6:	f7fe f9f9 	bl	80001ec <__adddf3>
 8001dfa:	4603      	mov	r3, r0
 8001dfc:	460c      	mov	r4, r1
 8001dfe:	461a      	mov	r2, r3
 8001e00:	4623      	mov	r3, r4
 8001e02:	e9d7 010c 	ldrd	r0, r1, [r7, #48]	; 0x30
 8001e06:	f7fe fcd1 	bl	80007ac <__aeabi_ddiv>
 8001e0a:	4603      	mov	r3, r0
 8001e0c:	460c      	mov	r4, r1
 8001e0e:	461a      	mov	r2, r3
 8001e10:	4623      	mov	r3, r4
 8001e12:	e9d7 0100 	ldrd	r0, r1, [r7]
 8001e16:	f7fe f9e9 	bl	80001ec <__adddf3>
 8001e1a:	4603      	mov	r3, r0
 8001e1c:	460c      	mov	r4, r1
 8001e1e:	461a      	mov	r2, r3
 8001e20:	4623      	mov	r3, r4
 8001e22:	4650      	mov	r0, sl
 8001e24:	4659      	mov	r1, fp
 8001e26:	f7fe fcc1 	bl	80007ac <__aeabi_ddiv>
 8001e2a:	4603      	mov	r3, r0
 8001e2c:	460c      	mov	r4, r1
 8001e2e:	4618      	mov	r0, r3
 8001e30:	4621      	mov	r1, r4
 8001e32:	f04f 0200 	mov.w	r2, #0
 8001e36:	4b26      	ldr	r3, [pc, #152]	; (8001ed0 <_etoa+0x358>)
 8001e38:	f7fe f9d8 	bl	80001ec <__adddf3>
 8001e3c:	4603      	mov	r3, r0
 8001e3e:	460c      	mov	r4, r1
 8001e40:	461a      	mov	r2, r3
 8001e42:	4623      	mov	r3, r4
 8001e44:	4640      	mov	r0, r8
 8001e46:	4649      	mov	r1, r9
 8001e48:	f7fe fb86 	bl	8000558 <__aeabi_dmul>
 8001e4c:	4603      	mov	r3, r0
 8001e4e:	460c      	mov	r4, r1
 8001e50:	e9c7 3408 	strd	r3, r4, [r7, #32]
  // correct for rounding errors
  if (value < conv.F) {
 8001e54:	e9d7 3408 	ldrd	r3, r4, [r7, #32]
 8001e58:	461a      	mov	r2, r3
 8001e5a:	4623      	mov	r3, r4
 8001e5c:	e9d7 0102 	ldrd	r0, r1, [r7, #8]
 8001e60:	f7fe fdec 	bl	8000a3c <__aeabi_dcmplt>
 8001e64:	4603      	mov	r3, r0
 8001e66:	2b00      	cmp	r3, #0
 8001e68:	d00d      	beq.n	8001e86 <_etoa+0x30e>
    expval--;
 8001e6a:	6d7b      	ldr	r3, [r7, #84]	; 0x54
 8001e6c:	3b01      	subs	r3, #1
 8001e6e:	657b      	str	r3, [r7, #84]	; 0x54
    conv.F /= 10;
 8001e70:	e9d7 0108 	ldrd	r0, r1, [r7, #32]
 8001e74:	f04f 0200 	mov.w	r2, #0
 8001e78:	4b19      	ldr	r3, [pc, #100]	; (8001ee0 <_etoa+0x368>)
 8001e7a:	f7fe fc97 	bl	80007ac <__aeabi_ddiv>
 8001e7e:	4603      	mov	r3, r0
 8001e80:	460c      	mov	r4, r1
 8001e82:	e9c7 3408 	strd	r3, r4, [r7, #32]
  }

  // the exponent format is "%+03d" and largest value is "307", so set aside 4-5 characters
  unsigned int minwidth = ((expval < 100) && (expval > -100)) ? 4U : 5U;
 8001e86:	6d7b      	ldr	r3, [r7, #84]	; 0x54
 8001e88:	2b63      	cmp	r3, #99	; 0x63
 8001e8a:	dc2d      	bgt.n	8001ee8 <_etoa+0x370>
 8001e8c:	6d7b      	ldr	r3, [r7, #84]	; 0x54
 8001e8e:	f113 0f63 	cmn.w	r3, #99	; 0x63
 8001e92:	db29      	blt.n	8001ee8 <_etoa+0x370>
 8001e94:	2304      	movs	r3, #4
 8001e96:	e028      	b.n	8001eea <_etoa+0x372>
 8001e98:	509f79fb 	.word	0x509f79fb
 8001e9c:	3fd34413 	.word	0x3fd34413
 8001ea0:	8b60c8b3 	.word	0x8b60c8b3
 8001ea4:	3fc68a28 	.word	0x3fc68a28
 8001ea8:	636f4361 	.word	0x636f4361
 8001eac:	3fd287a7 	.word	0x3fd287a7
 8001eb0:	0979a371 	.word	0x0979a371
 8001eb4:	400a934f 	.word	0x400a934f
 8001eb8:	bbb55516 	.word	0xbbb55516
 8001ebc:	40026bb1 	.word	0x40026bb1
 8001ec0:	fefa39ef 	.word	0xfefa39ef
 8001ec4:	3fe62e42 	.word	0x3fe62e42
 8001ec8:	7fefffff 	.word	0x7fefffff
 8001ecc:	000fffff 	.word	0x000fffff
 8001ed0:	3ff00000 	.word	0x3ff00000
 8001ed4:	3ff80000 	.word	0x3ff80000
 8001ed8:	3fe00000 	.word	0x3fe00000
 8001edc:	402c0000 	.word	0x402c0000
 8001ee0:	40240000 	.word	0x40240000
 8001ee4:	40180000 	.word	0x40180000
 8001ee8:	2305      	movs	r3, #5
 8001eea:	653b      	str	r3, [r7, #80]	; 0x50

  // in "%g" mode, "prec" is the number of *significant figures* not decimals
  if (flags & FLAGS_ADAPT_EXP) {
 8001eec:	f8d7 3088 	ldr.w	r3, [r7, #136]	; 0x88
 8001ef0:	f403 6300 	and.w	r3, r3, #2048	; 0x800
 8001ef4:	2b00      	cmp	r3, #0
 8001ef6:	d03d      	beq.n	8001f74 <_etoa+0x3fc>
    // do we want to fall-back to "%f" mode?
    if ((value >= 1e-4) && (value < 1e6)) {
 8001ef8:	a367      	add	r3, pc, #412	; (adr r3, 8002098 <_etoa+0x520>)
 8001efa:	e9d3 2300 	ldrd	r2, r3, [r3]
 8001efe:	e9d7 0102 	ldrd	r0, r1, [r7, #8]
 8001f02:	f7fe fdaf 	bl	8000a64 <__aeabi_dcmpge>
 8001f06:	4603      	mov	r3, r0
 8001f08:	2b00      	cmp	r3, #0
 8001f0a:	d024      	beq.n	8001f56 <_etoa+0x3de>
 8001f0c:	a364      	add	r3, pc, #400	; (adr r3, 80020a0 <_etoa+0x528>)
 8001f0e:	e9d3 2300 	ldrd	r2, r3, [r3]
 8001f12:	e9d7 0102 	ldrd	r0, r1, [r7, #8]
 8001f16:	f7fe fd91 	bl	8000a3c <__aeabi_dcmplt>
 8001f1a:	4603      	mov	r3, r0
 8001f1c:	2b00      	cmp	r3, #0
 8001f1e:	d01a      	beq.n	8001f56 <_etoa+0x3de>
      if ((int)prec > expval) {
 8001f20:	f8d7 3080 	ldr.w	r3, [r7, #128]	; 0x80
 8001f24:	6d7a      	ldr	r2, [r7, #84]	; 0x54
 8001f26:	429a      	cmp	r2, r3
 8001f28:	da07      	bge.n	8001f3a <_etoa+0x3c2>
        prec = (unsigned)((int)prec - expval - 1);
 8001f2a:	f8d7 2080 	ldr.w	r2, [r7, #128]	; 0x80
 8001f2e:	6d7b      	ldr	r3, [r7, #84]	; 0x54
 8001f30:	1ad3      	subs	r3, r2, r3
 8001f32:	3b01      	subs	r3, #1
 8001f34:	f8c7 3080 	str.w	r3, [r7, #128]	; 0x80
 8001f38:	e002      	b.n	8001f40 <_etoa+0x3c8>
      }
      else {
        prec = 0;
 8001f3a:	2300      	movs	r3, #0
 8001f3c:	f8c7 3080 	str.w	r3, [r7, #128]	; 0x80
      }
      flags |= FLAGS_PRECISION;   // make sure _ftoa respects precision
 8001f40:	f8d7 3088 	ldr.w	r3, [r7, #136]	; 0x88
 8001f44:	f443 6380 	orr.w	r3, r3, #1024	; 0x400
 8001f48:	f8c7 3088 	str.w	r3, [r7, #136]	; 0x88
      // no characters in exponent
      minwidth = 0U;
 8001f4c:	2300      	movs	r3, #0
 8001f4e:	653b      	str	r3, [r7, #80]	; 0x50
      expval   = 0;
 8001f50:	2300      	movs	r3, #0
 8001f52:	657b      	str	r3, [r7, #84]	; 0x54
 8001f54:	e00e      	b.n	8001f74 <_etoa+0x3fc>
    }
    else {
      // we use one sigfig for the whole part
      if ((prec > 0) && (flags & FLAGS_PRECISION)) {
 8001f56:	f8d7 3080 	ldr.w	r3, [r7, #128]	; 0x80
 8001f5a:	2b00      	cmp	r3, #0
 8001f5c:	d00a      	beq.n	8001f74 <_etoa+0x3fc>
 8001f5e:	f8d7 3088 	ldr.w	r3, [r7, #136]	; 0x88
 8001f62:	f403 6380 	and.w	r3, r3, #1024	; 0x400
 8001f66:	2b00      	cmp	r3, #0
 8001f68:	d004      	beq.n	8001f74 <_etoa+0x3fc>
        --prec;
 8001f6a:	f8d7 3080 	ldr.w	r3, [r7, #128]	; 0x80
 8001f6e:	3b01      	subs	r3, #1
 8001f70:	f8c7 3080 	str.w	r3, [r7, #128]	; 0x80
      }
    }
  }

  // will everything fit?
  unsigned int fwidth = width;
 8001f74:	f8d7 3084 	ldr.w	r3, [r7, #132]	; 0x84
 8001f78:	64fb      	str	r3, [r7, #76]	; 0x4c
  if (width > minwidth) {
 8001f7a:	f8d7 2084 	ldr.w	r2, [r7, #132]	; 0x84
 8001f7e:	6d3b      	ldr	r3, [r7, #80]	; 0x50
 8001f80:	429a      	cmp	r2, r3
 8001f82:	d904      	bls.n	8001f8e <_etoa+0x416>
    // we didn't fall-back so subtract the characters required for the exponent
    fwidth -= minwidth;
 8001f84:	6cfa      	ldr	r2, [r7, #76]	; 0x4c
 8001f86:	6d3b      	ldr	r3, [r7, #80]	; 0x50
 8001f88:	1ad3      	subs	r3, r2, r3
 8001f8a:	64fb      	str	r3, [r7, #76]	; 0x4c
 8001f8c:	e001      	b.n	8001f92 <_etoa+0x41a>
  } else {
    // not enough characters, so go back to default sizing
    fwidth = 0U;
 8001f8e:	2300      	movs	r3, #0
 8001f90:	64fb      	str	r3, [r7, #76]	; 0x4c
  }
  if ((flags & FLAGS_LEFT) && minwidth) {
 8001f92:	f8d7 3088 	ldr.w	r3, [r7, #136]	; 0x88
 8001f96:	f003 0302 	and.w	r3, r3, #2
 8001f9a:	2b00      	cmp	r3, #0
 8001f9c:	d004      	beq.n	8001fa8 <_etoa+0x430>
 8001f9e:	6d3b      	ldr	r3, [r7, #80]	; 0x50
 8001fa0:	2b00      	cmp	r3, #0
 8001fa2:	d001      	beq.n	8001fa8 <_etoa+0x430>
    // if we're padding on the right, DON'T pad the floating part
    fwidth = 0U;
 8001fa4:	2300      	movs	r3, #0
 8001fa6:	64fb      	str	r3, [r7, #76]	; 0x4c
  }

  // rescale the float value
  if (expval) {
 8001fa8:	6d7b      	ldr	r3, [r7, #84]	; 0x54
 8001faa:	2b00      	cmp	r3, #0
 8001fac:	d00b      	beq.n	8001fc6 <_etoa+0x44e>
    value /= conv.F;
 8001fae:	e9d7 3408 	ldrd	r3, r4, [r7, #32]
 8001fb2:	461a      	mov	r2, r3
 8001fb4:	4623      	mov	r3, r4
 8001fb6:	e9d7 0102 	ldrd	r0, r1, [r7, #8]
 8001fba:	f7fe fbf7 	bl	80007ac <__aeabi_ddiv>
 8001fbe:	4603      	mov	r3, r0
 8001fc0:	460c      	mov	r4, r1
 8001fc2:	e9c7 3402 	strd	r3, r4, [r7, #8]
  }

  // output the floating part
  const size_t start_idx = idx;
 8001fc6:	697b      	ldr	r3, [r7, #20]
 8001fc8:	62fb      	str	r3, [r7, #44]	; 0x2c
  idx = _ftoa(out, buffer, idx, maxlen, negative ? -value : value, prec, fwidth, flags & ~FLAGS_ADAPT_EXP);
 8001fca:	f897 304b 	ldrb.w	r3, [r7, #75]	; 0x4b
 8001fce:	2b00      	cmp	r3, #0
 8001fd0:	d004      	beq.n	8001fdc <_etoa+0x464>
 8001fd2:	68bd      	ldr	r5, [r7, #8]
 8001fd4:	68fb      	ldr	r3, [r7, #12]
 8001fd6:	f083 4600 	eor.w	r6, r3, #2147483648	; 0x80000000
 8001fda:	e001      	b.n	8001fe0 <_etoa+0x468>
 8001fdc:	e9d7 5602 	ldrd	r5, r6, [r7, #8]
 8001fe0:	f8d7 3088 	ldr.w	r3, [r7, #136]	; 0x88
 8001fe4:	f423 6300 	bic.w	r3, r3, #2048	; 0x800
 8001fe8:	9302      	str	r3, [sp, #8]
 8001fea:	6cfb      	ldr	r3, [r7, #76]	; 0x4c
 8001fec:	9301      	str	r3, [sp, #4]
 8001fee:	f8d7 3080 	ldr.w	r3, [r7, #128]	; 0x80
 8001ff2:	9300      	str	r3, [sp, #0]
 8001ff4:	ec46 5b10 	vmov	d0, r5, r6
 8001ff8:	693b      	ldr	r3, [r7, #16]
 8001ffa:	697a      	ldr	r2, [r7, #20]
 8001ffc:	69b9      	ldr	r1, [r7, #24]
 8001ffe:	69f8      	ldr	r0, [r7, #28]
 8002000:	f7ff fb4e 	bl	80016a0 <_ftoa>
 8002004:	6178      	str	r0, [r7, #20]

  // output the exponent part
  if (minwidth) {
 8002006:	6d3b      	ldr	r3, [r7, #80]	; 0x50
 8002008:	2b00      	cmp	r3, #0
 800200a:	d03f      	beq.n	800208c <_etoa+0x514>
    // output the exponential symbol
    out((flags & FLAGS_UPPERCASE) ? 'E' : 'e', buffer, idx++, maxlen);
 800200c:	f8d7 3088 	ldr.w	r3, [r7, #136]	; 0x88
 8002010:	f003 0320 	and.w	r3, r3, #32
 8002014:	2b00      	cmp	r3, #0
 8002016:	d001      	beq.n	800201c <_etoa+0x4a4>
 8002018:	2045      	movs	r0, #69	; 0x45
 800201a:	e000      	b.n	800201e <_etoa+0x4a6>
 800201c:	2065      	movs	r0, #101	; 0x65
 800201e:	697a      	ldr	r2, [r7, #20]
 8002020:	1c53      	adds	r3, r2, #1
 8002022:	617b      	str	r3, [r7, #20]
 8002024:	69fc      	ldr	r4, [r7, #28]
 8002026:	693b      	ldr	r3, [r7, #16]
 8002028:	69b9      	ldr	r1, [r7, #24]
 800202a:	47a0      	blx	r4
    // output the exponent value
    idx = _ntoa_long(out, buffer, idx, maxlen, (expval < 0) ? -expval : expval, expval < 0, 10, 0, minwidth-1, FLAGS_ZEROPAD | FLAGS_PLUS);
 800202c:	6d7b      	ldr	r3, [r7, #84]	; 0x54
 800202e:	2b00      	cmp	r3, #0
 8002030:	bfb8      	it	lt
 8002032:	425b      	neglt	r3, r3
 8002034:	4618      	mov	r0, r3
 8002036:	6d7b      	ldr	r3, [r7, #84]	; 0x54
 8002038:	0fdb      	lsrs	r3, r3, #31
 800203a:	b2db      	uxtb	r3, r3
 800203c:	6d3a      	ldr	r2, [r7, #80]	; 0x50
 800203e:	3a01      	subs	r2, #1
 8002040:	2105      	movs	r1, #5
 8002042:	9105      	str	r1, [sp, #20]
 8002044:	9204      	str	r2, [sp, #16]
 8002046:	2200      	movs	r2, #0
 8002048:	9203      	str	r2, [sp, #12]
 800204a:	220a      	movs	r2, #10
 800204c:	9202      	str	r2, [sp, #8]
 800204e:	9301      	str	r3, [sp, #4]
 8002050:	9000      	str	r0, [sp, #0]
 8002052:	693b      	ldr	r3, [r7, #16]
 8002054:	697a      	ldr	r2, [r7, #20]
 8002056:	69b9      	ldr	r1, [r7, #24]
 8002058:	69f8      	ldr	r0, [r7, #28]
 800205a:	f7ff fa4a 	bl	80014f2 <_ntoa_long>
 800205e:	6178      	str	r0, [r7, #20]
    // might need to right-pad spaces
    if (flags & FLAGS_LEFT) {
 8002060:	f8d7 3088 	ldr.w	r3, [r7, #136]	; 0x88
 8002064:	f003 0302 	and.w	r3, r3, #2
 8002068:	2b00      	cmp	r3, #0
 800206a:	d00f      	beq.n	800208c <_etoa+0x514>
      while (idx - start_idx < width) out(' ', buffer, idx++, maxlen);
 800206c:	e007      	b.n	800207e <_etoa+0x506>
 800206e:	697a      	ldr	r2, [r7, #20]
 8002070:	1c53      	adds	r3, r2, #1
 8002072:	617b      	str	r3, [r7, #20]
 8002074:	69fc      	ldr	r4, [r7, #28]
 8002076:	693b      	ldr	r3, [r7, #16]
 8002078:	69b9      	ldr	r1, [r7, #24]
 800207a:	2020      	movs	r0, #32
 800207c:	47a0      	blx	r4
 800207e:	697a      	ldr	r2, [r7, #20]
 8002080:	6afb      	ldr	r3, [r7, #44]	; 0x2c
 8002082:	1ad3      	subs	r3, r2, r3
 8002084:	f8d7 2084 	ldr.w	r2, [r7, #132]	; 0x84
 8002088:	429a      	cmp	r2, r3
 800208a:	d8f0      	bhi.n	800206e <_etoa+0x4f6>
    }
  }
  return idx;
 800208c:	697b      	ldr	r3, [r7, #20]
}
 800208e:	4618      	mov	r0, r3
 8002090:	375c      	adds	r7, #92	; 0x5c
 8002092:	46bd      	mov	sp, r7
 8002094:	e8bd 8ff0 	ldmia.w	sp!, {r4, r5, r6, r7, r8, r9, sl, fp, pc}
 8002098:	eb1c432d 	.word	0xeb1c432d
 800209c:	3f1a36e2 	.word	0x3f1a36e2
 80020a0:	00000000 	.word	0x00000000
 80020a4:	412e8480 	.word	0x412e8480

080020a8 <_vsnprintf>:
#endif  // PRINTF_SUPPORT_FLOAT


// internal vsnprintf
static int _vsnprintf(out_fct_type out, char* buffer, const size_t maxlen, const char* format, va_list va)
{
 80020a8:	b5b0      	push	{r4, r5, r7, lr}
 80020aa:	b0a0      	sub	sp, #128	; 0x80
 80020ac:	af0a      	add	r7, sp, #40	; 0x28
 80020ae:	60f8      	str	r0, [r7, #12]
 80020b0:	60b9      	str	r1, [r7, #8]
 80020b2:	607a      	str	r2, [r7, #4]
 80020b4:	603b      	str	r3, [r7, #0]
  unsigned int flags, width, precision, n;
  size_t idx = 0U;
 80020b6:	2300      	movs	r3, #0
 80020b8:	647b      	str	r3, [r7, #68]	; 0x44

  if (!buffer) {
 80020ba:	68bb      	ldr	r3, [r7, #8]
 80020bc:	2b00      	cmp	r3, #0
 80020be:	f040 8492 	bne.w	80029e6 <_vsnprintf+0x93e>
    // use null output function
    out = _out_null;
 80020c2:	4ba0      	ldr	r3, [pc, #640]	; (8002344 <_vsnprintf+0x29c>)
 80020c4:	60fb      	str	r3, [r7, #12]
  }

  while (*format)
 80020c6:	f000 bc8e 	b.w	80029e6 <_vsnprintf+0x93e>
  {
    // format specifier?  %[flags][width][.precision][length]
    if (*format != '%') {
 80020ca:	683b      	ldr	r3, [r7, #0]
 80020cc:	781b      	ldrb	r3, [r3, #0]
 80020ce:	2b25      	cmp	r3, #37	; 0x25
 80020d0:	d00d      	beq.n	80020ee <_vsnprintf+0x46>
      // no
      out(*format, buffer, idx++, maxlen);
 80020d2:	683b      	ldr	r3, [r7, #0]
 80020d4:	7818      	ldrb	r0, [r3, #0]
 80020d6:	6c7a      	ldr	r2, [r7, #68]	; 0x44
 80020d8:	1c53      	adds	r3, r2, #1
 80020da:	647b      	str	r3, [r7, #68]	; 0x44
 80020dc:	68fc      	ldr	r4, [r7, #12]
 80020de:	687b      	ldr	r3, [r7, #4]
 80020e0:	68b9      	ldr	r1, [r7, #8]
 80020e2:	47a0      	blx	r4
      format++;
 80020e4:	683b      	ldr	r3, [r7, #0]
 80020e6:	3301      	adds	r3, #1
 80020e8:	603b      	str	r3, [r7, #0]
      continue;
 80020ea:	f000 bc7c 	b.w	80029e6 <_vsnprintf+0x93e>
    }
    else {
      // yes, evaluate it
      format++;
 80020ee:	683b      	ldr	r3, [r7, #0]
 80020f0:	3301      	adds	r3, #1
 80020f2:	603b      	str	r3, [r7, #0]
    }

    // evaluate flags
    flags = 0U;
 80020f4:	2300      	movs	r3, #0
 80020f6:	657b      	str	r3, [r7, #84]	; 0x54
    do {
      switch (*format) {
 80020f8:	683b      	ldr	r3, [r7, #0]
 80020fa:	781b      	ldrb	r3, [r3, #0]
 80020fc:	3b20      	subs	r3, #32
 80020fe:	2b10      	cmp	r3, #16
 8002100:	d856      	bhi.n	80021b0 <_vsnprintf+0x108>
 8002102:	a201      	add	r2, pc, #4	; (adr r2, 8002108 <_vsnprintf+0x60>)
 8002104:	f852 f023 	ldr.w	pc, [r2, r3, lsl #2]
 8002108:	08002189 	.word	0x08002189
 800210c:	080021b1 	.word	0x080021b1
 8002110:	080021b1 	.word	0x080021b1
 8002114:	0800219d 	.word	0x0800219d
 8002118:	080021b1 	.word	0x080021b1
 800211c:	080021b1 	.word	0x080021b1
 8002120:	080021b1 	.word	0x080021b1
 8002124:	080021b1 	.word	0x080021b1
 8002128:	080021b1 	.word	0x080021b1
 800212c:	080021b1 	.word	0x080021b1
 8002130:	080021b1 	.word	0x080021b1
 8002134:	08002175 	.word	0x08002175
 8002138:	080021b1 	.word	0x080021b1
 800213c:	08002161 	.word	0x08002161
 8002140:	080021b1 	.word	0x080021b1
 8002144:	080021b1 	.word	0x080021b1
 8002148:	0800214d 	.word	0x0800214d
        case '0': flags |= FLAGS_ZEROPAD; format++; n = 1U; break;
 800214c:	6d7b      	ldr	r3, [r7, #84]	; 0x54
 800214e:	f043 0301 	orr.w	r3, r3, #1
 8002152:	657b      	str	r3, [r7, #84]	; 0x54
 8002154:	683b      	ldr	r3, [r7, #0]
 8002156:	3301      	adds	r3, #1
 8002158:	603b      	str	r3, [r7, #0]
 800215a:	2301      	movs	r3, #1
 800215c:	64bb      	str	r3, [r7, #72]	; 0x48
 800215e:	e02a      	b.n	80021b6 <_vsnprintf+0x10e>
        case '-': flags |= FLAGS_LEFT;    format++; n = 1U; break;
 8002160:	6d7b      	ldr	r3, [r7, #84]	; 0x54
 8002162:	f043 0302 	orr.w	r3, r3, #2
 8002166:	657b      	str	r3, [r7, #84]	; 0x54
 8002168:	683b      	ldr	r3, [r7, #0]
 800216a:	3301      	adds	r3, #1
 800216c:	603b      	str	r3, [r7, #0]
 800216e:	2301      	movs	r3, #1
 8002170:	64bb      	str	r3, [r7, #72]	; 0x48
 8002172:	e020      	b.n	80021b6 <_vsnprintf+0x10e>
        case '+': flags |= FLAGS_PLUS;    format++; n = 1U; break;
 8002174:	6d7b      	ldr	r3, [r7, #84]	; 0x54
 8002176:	f043 0304 	orr.w	r3, r3, #4
 800217a:	657b      	str	r3, [r7, #84]	; 0x54
 800217c:	683b      	ldr	r3, [r7, #0]
 800217e:	3301      	adds	r3, #1
 8002180:	603b      	str	r3, [r7, #0]
 8002182:	2301      	movs	r3, #1
 8002184:	64bb      	str	r3, [r7, #72]	; 0x48
 8002186:	e016      	b.n	80021b6 <_vsnprintf+0x10e>
        case ' ': flags |= FLAGS_SPACE;   format++; n = 1U; break;
 8002188:	6d7b      	ldr	r3, [r7, #84]	; 0x54
 800218a:	f043 0308 	orr.w	r3, r3, #8
 800218e:	657b      	str	r3, [r7, #84]	; 0x54
 8002190:	683b      	ldr	r3, [r7, #0]
 8002192:	3301      	adds	r3, #1
 8002194:	603b      	str	r3, [r7, #0]
 8002196:	2301      	movs	r3, #1
 8002198:	64bb      	str	r3, [r7, #72]	; 0x48
 800219a:	e00c      	b.n	80021b6 <_vsnprintf+0x10e>
        case '#': flags |= FLAGS_HASH;    format++; n = 1U; break;
 800219c:	6d7b      	ldr	r3, [r7, #84]	; 0x54
 800219e:	f043 0310 	orr.w	r3, r3, #16
 80021a2:	657b      	str	r3, [r7, #84]	; 0x54
 80021a4:	683b      	ldr	r3, [r7, #0]
 80021a6:	3301      	adds	r3, #1
 80021a8:	603b      	str	r3, [r7, #0]
 80021aa:	2301      	movs	r3, #1
 80021ac:	64bb      	str	r3, [r7, #72]	; 0x48
 80021ae:	e002      	b.n	80021b6 <_vsnprintf+0x10e>
        default :                                   n = 0U; break;
 80021b0:	2300      	movs	r3, #0
 80021b2:	64bb      	str	r3, [r7, #72]	; 0x48
 80021b4:	bf00      	nop
      }
    } while (n);
 80021b6:	6cbb      	ldr	r3, [r7, #72]	; 0x48
 80021b8:	2b00      	cmp	r3, #0
 80021ba:	d19d      	bne.n	80020f8 <_vsnprintf+0x50>

    // evaluate width field
    width = 0U;
 80021bc:	2300      	movs	r3, #0
 80021be:	653b      	str	r3, [r7, #80]	; 0x50
    if (_is_digit(*format)) {
 80021c0:	683b      	ldr	r3, [r7, #0]
 80021c2:	781b      	ldrb	r3, [r3, #0]
 80021c4:	4618      	mov	r0, r3
 80021c6:	f7ff f82d 	bl	8001224 <_is_digit>
 80021ca:	4603      	mov	r3, r0
 80021cc:	2b00      	cmp	r3, #0
 80021ce:	d005      	beq.n	80021dc <_vsnprintf+0x134>
      width = _atoi(&format);
 80021d0:	463b      	mov	r3, r7
 80021d2:	4618      	mov	r0, r3
 80021d4:	f7ff f83d 	bl	8001252 <_atoi>
 80021d8:	6538      	str	r0, [r7, #80]	; 0x50
 80021da:	e018      	b.n	800220e <_vsnprintf+0x166>
    }
    else if (*format == '*') {
 80021dc:	683b      	ldr	r3, [r7, #0]
 80021de:	781b      	ldrb	r3, [r3, #0]
 80021e0:	2b2a      	cmp	r3, #42	; 0x2a
 80021e2:	d114      	bne.n	800220e <_vsnprintf+0x166>
      const int w = va_arg(va, int);
 80021e4:	6ebb      	ldr	r3, [r7, #104]	; 0x68
 80021e6:	1d1a      	adds	r2, r3, #4
 80021e8:	66ba      	str	r2, [r7, #104]	; 0x68
 80021ea:	681b      	ldr	r3, [r3, #0]
 80021ec:	633b      	str	r3, [r7, #48]	; 0x30
      if (w < 0) {
 80021ee:	6b3b      	ldr	r3, [r7, #48]	; 0x30
 80021f0:	2b00      	cmp	r3, #0
 80021f2:	da07      	bge.n	8002204 <_vsnprintf+0x15c>
        flags |= FLAGS_LEFT;    // reverse padding
 80021f4:	6d7b      	ldr	r3, [r7, #84]	; 0x54
 80021f6:	f043 0302 	orr.w	r3, r3, #2
 80021fa:	657b      	str	r3, [r7, #84]	; 0x54
        width = (unsigned int)-w;
 80021fc:	6b3b      	ldr	r3, [r7, #48]	; 0x30
 80021fe:	425b      	negs	r3, r3
 8002200:	653b      	str	r3, [r7, #80]	; 0x50
 8002202:	e001      	b.n	8002208 <_vsnprintf+0x160>
      }
      else {
        width = (unsigned int)w;
 8002204:	6b3b      	ldr	r3, [r7, #48]	; 0x30
 8002206:	653b      	str	r3, [r7, #80]	; 0x50
      }
      format++;
 8002208:	683b      	ldr	r3, [r7, #0]
 800220a:	3301      	adds	r3, #1
 800220c:	603b      	str	r3, [r7, #0]
    }

    // evaluate precision field
    precision = 0U;
 800220e:	2300      	movs	r3, #0
 8002210:	64fb      	str	r3, [r7, #76]	; 0x4c
    if (*format == '.') {
 8002212:	683b      	ldr	r3, [r7, #0]
 8002214:	781b      	ldrb	r3, [r3, #0]
 8002216:	2b2e      	cmp	r3, #46	; 0x2e
 8002218:	d124      	bne.n	8002264 <_vsnprintf+0x1bc>
      flags |= FLAGS_PRECISION;
 800221a:	6d7b      	ldr	r3, [r7, #84]	; 0x54
 800221c:	f443 6380 	orr.w	r3, r3, #1024	; 0x400
 8002220:	657b      	str	r3, [r7, #84]	; 0x54
      format++;
 8002222:	683b      	ldr	r3, [r7, #0]
 8002224:	3301      	adds	r3, #1
 8002226:	603b      	str	r3, [r7, #0]
      if (_is_digit(*format)) {
 8002228:	683b      	ldr	r3, [r7, #0]
 800222a:	781b      	ldrb	r3, [r3, #0]
 800222c:	4618      	mov	r0, r3
 800222e:	f7fe fff9 	bl	8001224 <_is_digit>
 8002232:	4603      	mov	r3, r0
 8002234:	2b00      	cmp	r3, #0
 8002236:	d005      	beq.n	8002244 <_vsnprintf+0x19c>
        precision = _atoi(&format);
 8002238:	463b      	mov	r3, r7
 800223a:	4618      	mov	r0, r3
 800223c:	f7ff f809 	bl	8001252 <_atoi>
 8002240:	64f8      	str	r0, [r7, #76]	; 0x4c
 8002242:	e00f      	b.n	8002264 <_vsnprintf+0x1bc>
      }
      else if (*format == '*') {
 8002244:	683b      	ldr	r3, [r7, #0]
 8002246:	781b      	ldrb	r3, [r3, #0]
 8002248:	2b2a      	cmp	r3, #42	; 0x2a
 800224a:	d10b      	bne.n	8002264 <_vsnprintf+0x1bc>
        const int prec = (int)va_arg(va, int);
 800224c:	6ebb      	ldr	r3, [r7, #104]	; 0x68
 800224e:	1d1a      	adds	r2, r3, #4
 8002250:	66ba      	str	r2, [r7, #104]	; 0x68
 8002252:	681b      	ldr	r3, [r3, #0]
 8002254:	62fb      	str	r3, [r7, #44]	; 0x2c
        precision = prec > 0 ? (unsigned int)prec : 0U;
 8002256:	6afb      	ldr	r3, [r7, #44]	; 0x2c
 8002258:	ea23 73e3 	bic.w	r3, r3, r3, asr #31
 800225c:	64fb      	str	r3, [r7, #76]	; 0x4c
        format++;
 800225e:	683b      	ldr	r3, [r7, #0]
 8002260:	3301      	adds	r3, #1
 8002262:	603b      	str	r3, [r7, #0]
      }
    }

    // evaluate length field
    switch (*format) {
 8002264:	683b      	ldr	r3, [r7, #0]
 8002266:	781b      	ldrb	r3, [r3, #0]
 8002268:	3b68      	subs	r3, #104	; 0x68
 800226a:	2b12      	cmp	r3, #18
 800226c:	d866      	bhi.n	800233c <_vsnprintf+0x294>
 800226e:	a201      	add	r2, pc, #4	; (adr r2, 8002274 <_vsnprintf+0x1cc>)
 8002270:	f852 f023 	ldr.w	pc, [r2, r3, lsl #2]
 8002274:	080022e7 	.word	0x080022e7
 8002278:	0800233d 	.word	0x0800233d
 800227c:	0800231d 	.word	0x0800231d
 8002280:	0800233d 	.word	0x0800233d
 8002284:	080022c1 	.word	0x080022c1
 8002288:	0800233d 	.word	0x0800233d
 800228c:	0800233d 	.word	0x0800233d
 8002290:	0800233d 	.word	0x0800233d
 8002294:	0800233d 	.word	0x0800233d
 8002298:	0800233d 	.word	0x0800233d
 800229c:	0800233d 	.word	0x0800233d
 80022a0:	0800233d 	.word	0x0800233d
 80022a4:	0800230d 	.word	0x0800230d
 80022a8:	0800233d 	.word	0x0800233d
 80022ac:	0800233d 	.word	0x0800233d
 80022b0:	0800233d 	.word	0x0800233d
 80022b4:	0800233d 	.word	0x0800233d
 80022b8:	0800233d 	.word	0x0800233d
 80022bc:	0800232d 	.word	0x0800232d
      case 'l' :
        flags |= FLAGS_LONG;
 80022c0:	6d7b      	ldr	r3, [r7, #84]	; 0x54
 80022c2:	f443 7380 	orr.w	r3, r3, #256	; 0x100
 80022c6:	657b      	str	r3, [r7, #84]	; 0x54
        format++;
 80022c8:	683b      	ldr	r3, [r7, #0]
 80022ca:	3301      	adds	r3, #1
 80022cc:	603b      	str	r3, [r7, #0]
        if (*format == 'l') {
 80022ce:	683b      	ldr	r3, [r7, #0]
 80022d0:	781b      	ldrb	r3, [r3, #0]
 80022d2:	2b6c      	cmp	r3, #108	; 0x6c
 80022d4:	d134      	bne.n	8002340 <_vsnprintf+0x298>
          flags |= FLAGS_LONG_LONG;
 80022d6:	6d7b      	ldr	r3, [r7, #84]	; 0x54
 80022d8:	f443 7300 	orr.w	r3, r3, #512	; 0x200
 80022dc:	657b      	str	r3, [r7, #84]	; 0x54
          format++;
 80022de:	683b      	ldr	r3, [r7, #0]
 80022e0:	3301      	adds	r3, #1
 80022e2:	603b      	str	r3, [r7, #0]
        }
        break;
 80022e4:	e02c      	b.n	8002340 <_vsnprintf+0x298>
      case 'h' :
        flags |= FLAGS_SHORT;
 80022e6:	6d7b      	ldr	r3, [r7, #84]	; 0x54
 80022e8:	f043 0380 	orr.w	r3, r3, #128	; 0x80
 80022ec:	657b      	str	r3, [r7, #84]	; 0x54
        format++;
 80022ee:	683b      	ldr	r3, [r7, #0]
 80022f0:	3301      	adds	r3, #1
 80022f2:	603b      	str	r3, [r7, #0]
        if (*format == 'h') {
 80022f4:	683b      	ldr	r3, [r7, #0]
 80022f6:	781b      	ldrb	r3, [r3, #0]
 80022f8:	2b68      	cmp	r3, #104	; 0x68
 80022fa:	d125      	bne.n	8002348 <_vsnprintf+0x2a0>
          flags |= FLAGS_CHAR;
 80022fc:	6d7b      	ldr	r3, [r7, #84]	; 0x54
 80022fe:	f043 0340 	orr.w	r3, r3, #64	; 0x40
 8002302:	657b      	str	r3, [r7, #84]	; 0x54
          format++;
 8002304:	683b      	ldr	r3, [r7, #0]
 8002306:	3301      	adds	r3, #1
 8002308:	603b      	str	r3, [r7, #0]
        }
        break;
 800230a:	e01d      	b.n	8002348 <_vsnprintf+0x2a0>
#if defined(PRINTF_SUPPORT_PTRDIFF_T)
      case 't' :
        flags |= (sizeof(ptrdiff_t) == sizeof(long) ? FLAGS_LONG : FLAGS_LONG_LONG);
 800230c:	6d7b      	ldr	r3, [r7, #84]	; 0x54
 800230e:	f443 7380 	orr.w	r3, r3, #256	; 0x100
 8002312:	657b      	str	r3, [r7, #84]	; 0x54
        format++;
 8002314:	683b      	ldr	r3, [r7, #0]
 8002316:	3301      	adds	r3, #1
 8002318:	603b      	str	r3, [r7, #0]
        break;
 800231a:	e016      	b.n	800234a <_vsnprintf+0x2a2>
#endif
      case 'j' :
        flags |= (sizeof(intmax_t) == sizeof(long) ? FLAGS_LONG : FLAGS_LONG_LONG);
 800231c:	6d7b      	ldr	r3, [r7, #84]	; 0x54
 800231e:	f443 7300 	orr.w	r3, r3, #512	; 0x200
 8002322:	657b      	str	r3, [r7, #84]	; 0x54
        format++;
 8002324:	683b      	ldr	r3, [r7, #0]
 8002326:	3301      	adds	r3, #1
 8002328:	603b      	str	r3, [r7, #0]
        break;
 800232a:	e00e      	b.n	800234a <_vsnprintf+0x2a2>
      case 'z' :
        flags |= (sizeof(size_t) == sizeof(long) ? FLAGS_LONG : FLAGS_LONG_LONG);
 800232c:	6d7b      	ldr	r3, [r7, #84]	; 0x54
 800232e:	f443 7380 	orr.w	r3, r3, #256	; 0x100
 8002332:	657b      	str	r3, [r7, #84]	; 0x54
        format++;
 8002334:	683b      	ldr	r3, [r7, #0]
 8002336:	3301      	adds	r3, #1
 8002338:	603b      	str	r3, [r7, #0]
        break;
 800233a:	e006      	b.n	800234a <_vsnprintf+0x2a2>
      default :
        break;
 800233c:	bf00      	nop
 800233e:	e004      	b.n	800234a <_vsnprintf+0x2a2>
        break;
 8002340:	bf00      	nop
 8002342:	e002      	b.n	800234a <_vsnprintf+0x2a2>
 8002344:	080011a9 	.word	0x080011a9
        break;
 8002348:	bf00      	nop
    }

    // evaluate specifier
    switch (*format) {
 800234a:	683b      	ldr	r3, [r7, #0]
 800234c:	781b      	ldrb	r3, [r3, #0]
 800234e:	3b25      	subs	r3, #37	; 0x25
 8002350:	2b53      	cmp	r3, #83	; 0x53
 8002352:	f200 833b 	bhi.w	80029cc <_vsnprintf+0x924>
 8002356:	a201      	add	r2, pc, #4	; (adr r2, 800235c <_vsnprintf+0x2b4>)
 8002358:	f852 f023 	ldr.w	pc, [r2, r3, lsl #2]
 800235c:	080029b5 	.word	0x080029b5
 8002360:	080029cd 	.word	0x080029cd
 8002364:	080029cd 	.word	0x080029cd
 8002368:	080029cd 	.word	0x080029cd
 800236c:	080029cd 	.word	0x080029cd
 8002370:	080029cd 	.word	0x080029cd
 8002374:	080029cd 	.word	0x080029cd
 8002378:	080029cd 	.word	0x080029cd
 800237c:	080029cd 	.word	0x080029cd
 8002380:	080029cd 	.word	0x080029cd
 8002384:	080029cd 	.word	0x080029cd
 8002388:	080029cd 	.word	0x080029cd
 800238c:	080029cd 	.word	0x080029cd
 8002390:	080029cd 	.word	0x080029cd
 8002394:	080029cd 	.word	0x080029cd
 8002398:	080029cd 	.word	0x080029cd
 800239c:	080029cd 	.word	0x080029cd
 80023a0:	080029cd 	.word	0x080029cd
 80023a4:	080029cd 	.word	0x080029cd
 80023a8:	080029cd 	.word	0x080029cd
 80023ac:	080029cd 	.word	0x080029cd
 80023b0:	080029cd 	.word	0x080029cd
 80023b4:	080029cd 	.word	0x080029cd
 80023b8:	080029cd 	.word	0x080029cd
 80023bc:	080029cd 	.word	0x080029cd
 80023c0:	080029cd 	.word	0x080029cd
 80023c4:	080029cd 	.word	0x080029cd
 80023c8:	080029cd 	.word	0x080029cd
 80023cc:	080029cd 	.word	0x080029cd
 80023d0:	080029cd 	.word	0x080029cd
 80023d4:	080029cd 	.word	0x080029cd
 80023d8:	080029cd 	.word	0x080029cd
 80023dc:	08002785 	.word	0x08002785
 80023e0:	08002739 	.word	0x08002739
 80023e4:	08002785 	.word	0x08002785
 80023e8:	080029cd 	.word	0x080029cd
 80023ec:	080029cd 	.word	0x080029cd
 80023f0:	080029cd 	.word	0x080029cd
 80023f4:	080029cd 	.word	0x080029cd
 80023f8:	080029cd 	.word	0x080029cd
 80023fc:	080029cd 	.word	0x080029cd
 8002400:	080029cd 	.word	0x080029cd
 8002404:	080029cd 	.word	0x080029cd
 8002408:	080029cd 	.word	0x080029cd
 800240c:	080029cd 	.word	0x080029cd
 8002410:	080029cd 	.word	0x080029cd
 8002414:	080029cd 	.word	0x080029cd
 8002418:	080029cd 	.word	0x080029cd
 800241c:	080029cd 	.word	0x080029cd
 8002420:	080029cd 	.word	0x080029cd
 8002424:	080029cd 	.word	0x080029cd
 8002428:	080024ad 	.word	0x080024ad
 800242c:	080029cd 	.word	0x080029cd
 8002430:	080029cd 	.word	0x080029cd
 8002434:	080029cd 	.word	0x080029cd
 8002438:	080029cd 	.word	0x080029cd
 800243c:	080029cd 	.word	0x080029cd
 8002440:	080029cd 	.word	0x080029cd
 8002444:	080029cd 	.word	0x080029cd
 8002448:	080029cd 	.word	0x080029cd
 800244c:	080029cd 	.word	0x080029cd
 8002450:	080024ad 	.word	0x080024ad
 8002454:	080027f1 	.word	0x080027f1
 8002458:	080024ad 	.word	0x080024ad
 800245c:	08002785 	.word	0x08002785
 8002460:	08002739 	.word	0x08002739
 8002464:	08002785 	.word	0x08002785
 8002468:	080029cd 	.word	0x080029cd
 800246c:	080024ad 	.word	0x080024ad
 8002470:	080029cd 	.word	0x080029cd
 8002474:	080029cd 	.word	0x080029cd
 8002478:	080029cd 	.word	0x080029cd
 800247c:	080029cd 	.word	0x080029cd
 8002480:	080029cd 	.word	0x080029cd
 8002484:	080024ad 	.word	0x080024ad
 8002488:	08002929 	.word	0x08002929
 800248c:	080029cd 	.word	0x080029cd
 8002490:	080029cd 	.word	0x080029cd
 8002494:	08002865 	.word	0x08002865
 8002498:	080029cd 	.word	0x080029cd
 800249c:	080024ad 	.word	0x080024ad
 80024a0:	080029cd 	.word	0x080029cd
 80024a4:	080029cd 	.word	0x080029cd
 80024a8:	080024ad 	.word	0x080024ad
      case 'X' :
      case 'o' :
      case 'b' : {
        // set the base
        unsigned int base;
        if (*format == 'x' || *format == 'X') {
 80024ac:	683b      	ldr	r3, [r7, #0]
 80024ae:	781b      	ldrb	r3, [r3, #0]
 80024b0:	2b78      	cmp	r3, #120	; 0x78
 80024b2:	d003      	beq.n	80024bc <_vsnprintf+0x414>
 80024b4:	683b      	ldr	r3, [r7, #0]
 80024b6:	781b      	ldrb	r3, [r3, #0]
 80024b8:	2b58      	cmp	r3, #88	; 0x58
 80024ba:	d102      	bne.n	80024c2 <_vsnprintf+0x41a>
          base = 16U;
 80024bc:	2310      	movs	r3, #16
 80024be:	643b      	str	r3, [r7, #64]	; 0x40
 80024c0:	e013      	b.n	80024ea <_vsnprintf+0x442>
        }
        else if (*format == 'o') {
 80024c2:	683b      	ldr	r3, [r7, #0]
 80024c4:	781b      	ldrb	r3, [r3, #0]
 80024c6:	2b6f      	cmp	r3, #111	; 0x6f
 80024c8:	d102      	bne.n	80024d0 <_vsnprintf+0x428>
          base =  8U;
 80024ca:	2308      	movs	r3, #8
 80024cc:	643b      	str	r3, [r7, #64]	; 0x40
 80024ce:	e00c      	b.n	80024ea <_vsnprintf+0x442>
        }
        else if (*format == 'b') {
 80024d0:	683b      	ldr	r3, [r7, #0]
 80024d2:	781b      	ldrb	r3, [r3, #0]
 80024d4:	2b62      	cmp	r3, #98	; 0x62
 80024d6:	d102      	bne.n	80024de <_vsnprintf+0x436>
          base =  2U;
 80024d8:	2302      	movs	r3, #2
 80024da:	643b      	str	r3, [r7, #64]	; 0x40
 80024dc:	e005      	b.n	80024ea <_vsnprintf+0x442>
        }
        else {
          base = 10U;
 80024de:	230a      	movs	r3, #10
 80024e0:	643b      	str	r3, [r7, #64]	; 0x40
          flags &= ~FLAGS_HASH;   // no hash for dec format
 80024e2:	6d7b      	ldr	r3, [r7, #84]	; 0x54
 80024e4:	f023 0310 	bic.w	r3, r3, #16
 80024e8:	657b      	str	r3, [r7, #84]	; 0x54
        }
        // uppercase
        if (*format == 'X') {
 80024ea:	683b      	ldr	r3, [r7, #0]
 80024ec:	781b      	ldrb	r3, [r3, #0]
 80024ee:	2b58      	cmp	r3, #88	; 0x58
 80024f0:	d103      	bne.n	80024fa <_vsnprintf+0x452>
          flags |= FLAGS_UPPERCASE;
 80024f2:	6d7b      	ldr	r3, [r7, #84]	; 0x54
 80024f4:	f043 0320 	orr.w	r3, r3, #32
 80024f8:	657b      	str	r3, [r7, #84]	; 0x54
        }

        // no plus or space flag for u, x, X, o, b
        if ((*format != 'i') && (*format != 'd')) {
 80024fa:	683b      	ldr	r3, [r7, #0]
 80024fc:	781b      	ldrb	r3, [r3, #0]
 80024fe:	2b69      	cmp	r3, #105	; 0x69
 8002500:	d007      	beq.n	8002512 <_vsnprintf+0x46a>
 8002502:	683b      	ldr	r3, [r7, #0]
 8002504:	781b      	ldrb	r3, [r3, #0]
 8002506:	2b64      	cmp	r3, #100	; 0x64
 8002508:	d003      	beq.n	8002512 <_vsnprintf+0x46a>
          flags &= ~(FLAGS_PLUS | FLAGS_SPACE);
 800250a:	6d7b      	ldr	r3, [r7, #84]	; 0x54
 800250c:	f023 030c 	bic.w	r3, r3, #12
 8002510:	657b      	str	r3, [r7, #84]	; 0x54
        }

        // ignore '0' flag when precision is given
        if (flags & FLAGS_PRECISION) {
 8002512:	6d7b      	ldr	r3, [r7, #84]	; 0x54
 8002514:	f403 6380 	and.w	r3, r3, #1024	; 0x400
 8002518:	2b00      	cmp	r3, #0
 800251a:	d003      	beq.n	8002524 <_vsnprintf+0x47c>
          flags &= ~FLAGS_ZEROPAD;
 800251c:	6d7b      	ldr	r3, [r7, #84]	; 0x54
 800251e:	f023 0301 	bic.w	r3, r3, #1
 8002522:	657b      	str	r3, [r7, #84]	; 0x54
        }

        // convert the integer
        if ((*format == 'i') || (*format == 'd')) {
 8002524:	683b      	ldr	r3, [r7, #0]
 8002526:	781b      	ldrb	r3, [r3, #0]
 8002528:	2b69      	cmp	r3, #105	; 0x69
 800252a:	d004      	beq.n	8002536 <_vsnprintf+0x48e>
 800252c:	683b      	ldr	r3, [r7, #0]
 800252e:	781b      	ldrb	r3, [r3, #0]
 8002530:	2b64      	cmp	r3, #100	; 0x64
 8002532:	f040 808d 	bne.w	8002650 <_vsnprintf+0x5a8>
          // signed
          if (flags & FLAGS_LONG_LONG) {
 8002536:	6d7b      	ldr	r3, [r7, #84]	; 0x54
 8002538:	f403 7300 	and.w	r3, r3, #512	; 0x200
 800253c:	2b00      	cmp	r3, #0
 800253e:	d02e      	beq.n	800259e <_vsnprintf+0x4f6>
#if defined(PRINTF_SUPPORT_LONG_LONG)
            const long long value = va_arg(va, long long);
 8002540:	6ebb      	ldr	r3, [r7, #104]	; 0x68
 8002542:	3307      	adds	r3, #7
 8002544:	f023 0307 	bic.w	r3, r3, #7
 8002548:	f103 0208 	add.w	r2, r3, #8
 800254c:	66ba      	str	r2, [r7, #104]	; 0x68
 800254e:	e9d3 3400 	ldrd	r3, r4, [r3]
 8002552:	e9c7 3404 	strd	r3, r4, [r7, #16]
            idx = _ntoa_long_long(out, buffer, idx, maxlen, (unsigned long long)(value > 0 ? value : 0 - value), value < 0, base, precision, width, flags);
 8002556:	e9d7 3404 	ldrd	r3, r4, [r7, #16]
 800255a:	2b00      	cmp	r3, #0
 800255c:	f174 0200 	sbcs.w	r2, r4, #0
 8002560:	da02      	bge.n	8002568 <_vsnprintf+0x4c0>
 8002562:	425b      	negs	r3, r3
 8002564:	eb64 0444 	sbc.w	r4, r4, r4, lsl #1
 8002568:	4619      	mov	r1, r3
 800256a:	4622      	mov	r2, r4
 800256c:	697b      	ldr	r3, [r7, #20]
 800256e:	0fdb      	lsrs	r3, r3, #31
 8002570:	b2d8      	uxtb	r0, r3
 8002572:	6c3b      	ldr	r3, [r7, #64]	; 0x40
 8002574:	f04f 0400 	mov.w	r4, #0
 8002578:	6d7d      	ldr	r5, [r7, #84]	; 0x54
 800257a:	9508      	str	r5, [sp, #32]
 800257c:	6d3d      	ldr	r5, [r7, #80]	; 0x50
 800257e:	9507      	str	r5, [sp, #28]
 8002580:	6cfd      	ldr	r5, [r7, #76]	; 0x4c
 8002582:	9506      	str	r5, [sp, #24]
 8002584:	e9cd 3404 	strd	r3, r4, [sp, #16]
 8002588:	9002      	str	r0, [sp, #8]
 800258a:	e9cd 1200 	strd	r1, r2, [sp]
 800258e:	687b      	ldr	r3, [r7, #4]
 8002590:	6c7a      	ldr	r2, [r7, #68]	; 0x44
 8002592:	68b9      	ldr	r1, [r7, #8]
 8002594:	68f8      	ldr	r0, [r7, #12]
 8002596:	f7ff f813 	bl	80015c0 <_ntoa_long_long>
 800259a:	6478      	str	r0, [r7, #68]	; 0x44
          if (flags & FLAGS_LONG_LONG) {
 800259c:	e0c8      	b.n	8002730 <_vsnprintf+0x688>
#endif
          }
          else if (flags & FLAGS_LONG) {
 800259e:	6d7b      	ldr	r3, [r7, #84]	; 0x54
 80025a0:	f403 7380 	and.w	r3, r3, #256	; 0x100
 80025a4:	2b00      	cmp	r3, #0
 80025a6:	d01e      	beq.n	80025e6 <_vsnprintf+0x53e>
            const long value = va_arg(va, long);
 80025a8:	6ebb      	ldr	r3, [r7, #104]	; 0x68
 80025aa:	1d1a      	adds	r2, r3, #4
 80025ac:	66ba      	str	r2, [r7, #104]	; 0x68
 80025ae:	681b      	ldr	r3, [r3, #0]
 80025b0:	61fb      	str	r3, [r7, #28]
            idx = _ntoa_long(out, buffer, idx, maxlen, (unsigned long)(value > 0 ? value : 0 - value), value < 0, base, precision, width, flags);
 80025b2:	69fb      	ldr	r3, [r7, #28]
 80025b4:	2b00      	cmp	r3, #0
 80025b6:	bfb8      	it	lt
 80025b8:	425b      	neglt	r3, r3
 80025ba:	4619      	mov	r1, r3
 80025bc:	69fb      	ldr	r3, [r7, #28]
 80025be:	0fdb      	lsrs	r3, r3, #31
 80025c0:	b2db      	uxtb	r3, r3
 80025c2:	6d7a      	ldr	r2, [r7, #84]	; 0x54
 80025c4:	9205      	str	r2, [sp, #20]
 80025c6:	6d3a      	ldr	r2, [r7, #80]	; 0x50
 80025c8:	9204      	str	r2, [sp, #16]
 80025ca:	6cfa      	ldr	r2, [r7, #76]	; 0x4c
 80025cc:	9203      	str	r2, [sp, #12]
 80025ce:	6c3a      	ldr	r2, [r7, #64]	; 0x40
 80025d0:	9202      	str	r2, [sp, #8]
 80025d2:	9301      	str	r3, [sp, #4]
 80025d4:	9100      	str	r1, [sp, #0]
 80025d6:	687b      	ldr	r3, [r7, #4]
 80025d8:	6c7a      	ldr	r2, [r7, #68]	; 0x44
 80025da:	68b9      	ldr	r1, [r7, #8]
 80025dc:	68f8      	ldr	r0, [r7, #12]
 80025de:	f7fe ff88 	bl	80014f2 <_ntoa_long>
 80025e2:	6478      	str	r0, [r7, #68]	; 0x44
          if (flags & FLAGS_LONG_LONG) {
 80025e4:	e0a4      	b.n	8002730 <_vsnprintf+0x688>
          }
          else {
            const int value = (flags & FLAGS_CHAR) ? (char)va_arg(va, int) : (flags & FLAGS_SHORT) ? (short int)va_arg(va, int) : va_arg(va, int);
 80025e6:	6d7b      	ldr	r3, [r7, #84]	; 0x54
 80025e8:	f003 0340 	and.w	r3, r3, #64	; 0x40
 80025ec:	2b00      	cmp	r3, #0
 80025ee:	d005      	beq.n	80025fc <_vsnprintf+0x554>
 80025f0:	6ebb      	ldr	r3, [r7, #104]	; 0x68
 80025f2:	1d1a      	adds	r2, r3, #4
 80025f4:	66ba      	str	r2, [r7, #104]	; 0x68
 80025f6:	681b      	ldr	r3, [r3, #0]
 80025f8:	b2db      	uxtb	r3, r3
 80025fa:	e00e      	b.n	800261a <_vsnprintf+0x572>
 80025fc:	6d7b      	ldr	r3, [r7, #84]	; 0x54
 80025fe:	f003 0380 	and.w	r3, r3, #128	; 0x80
 8002602:	2b00      	cmp	r3, #0
 8002604:	d005      	beq.n	8002612 <_vsnprintf+0x56a>
 8002606:	6ebb      	ldr	r3, [r7, #104]	; 0x68
 8002608:	1d1a      	adds	r2, r3, #4
 800260a:	66ba      	str	r2, [r7, #104]	; 0x68
 800260c:	681b      	ldr	r3, [r3, #0]
 800260e:	b21b      	sxth	r3, r3
 8002610:	e003      	b.n	800261a <_vsnprintf+0x572>
 8002612:	6ebb      	ldr	r3, [r7, #104]	; 0x68
 8002614:	1d1a      	adds	r2, r3, #4
 8002616:	66ba      	str	r2, [r7, #104]	; 0x68
 8002618:	681b      	ldr	r3, [r3, #0]
 800261a:	623b      	str	r3, [r7, #32]
            idx = _ntoa_long(out, buffer, idx, maxlen, (unsigned int)(value > 0 ? value : 0 - value), value < 0, base, precision, width, flags);
 800261c:	6a3b      	ldr	r3, [r7, #32]
 800261e:	2b00      	cmp	r3, #0
 8002620:	bfb8      	it	lt
 8002622:	425b      	neglt	r3, r3
 8002624:	4619      	mov	r1, r3
 8002626:	6a3b      	ldr	r3, [r7, #32]
 8002628:	0fdb      	lsrs	r3, r3, #31
 800262a:	b2db      	uxtb	r3, r3
 800262c:	6d7a      	ldr	r2, [r7, #84]	; 0x54
 800262e:	9205      	str	r2, [sp, #20]
 8002630:	6d3a      	ldr	r2, [r7, #80]	; 0x50
 8002632:	9204      	str	r2, [sp, #16]
 8002634:	6cfa      	ldr	r2, [r7, #76]	; 0x4c
 8002636:	9203      	str	r2, [sp, #12]
 8002638:	6c3a      	ldr	r2, [r7, #64]	; 0x40
 800263a:	9202      	str	r2, [sp, #8]
 800263c:	9301      	str	r3, [sp, #4]
 800263e:	9100      	str	r1, [sp, #0]
 8002640:	687b      	ldr	r3, [r7, #4]
 8002642:	6c7a      	ldr	r2, [r7, #68]	; 0x44
 8002644:	68b9      	ldr	r1, [r7, #8]
 8002646:	68f8      	ldr	r0, [r7, #12]
 8002648:	f7fe ff53 	bl	80014f2 <_ntoa_long>
 800264c:	6478      	str	r0, [r7, #68]	; 0x44
          if (flags & FLAGS_LONG_LONG) {
 800264e:	e06f      	b.n	8002730 <_vsnprintf+0x688>
          }
        }
        else {
          // unsigned
          if (flags & FLAGS_LONG_LONG) {
 8002650:	6d7b      	ldr	r3, [r7, #84]	; 0x54
 8002652:	f403 7300 	and.w	r3, r3, #512	; 0x200
 8002656:	2b00      	cmp	r3, #0
 8002658:	d020      	beq.n	800269c <_vsnprintf+0x5f4>
#if defined(PRINTF_SUPPORT_LONG_LONG)
            idx = _ntoa_long_long(out, buffer, idx, maxlen, va_arg(va, unsigned long long), false, base, precision, width, flags);
 800265a:	6ebb      	ldr	r3, [r7, #104]	; 0x68
 800265c:	3307      	adds	r3, #7
 800265e:	f023 0307 	bic.w	r3, r3, #7
 8002662:	f103 0208 	add.w	r2, r3, #8
 8002666:	66ba      	str	r2, [r7, #104]	; 0x68
 8002668:	e9d3 3400 	ldrd	r3, r4, [r3]
 800266c:	6c3a      	ldr	r2, [r7, #64]	; 0x40
 800266e:	4611      	mov	r1, r2
 8002670:	f04f 0200 	mov.w	r2, #0
 8002674:	6d78      	ldr	r0, [r7, #84]	; 0x54
 8002676:	9008      	str	r0, [sp, #32]
 8002678:	6d38      	ldr	r0, [r7, #80]	; 0x50
 800267a:	9007      	str	r0, [sp, #28]
 800267c:	6cf8      	ldr	r0, [r7, #76]	; 0x4c
 800267e:	9006      	str	r0, [sp, #24]
 8002680:	e9cd 1204 	strd	r1, r2, [sp, #16]
 8002684:	2200      	movs	r2, #0
 8002686:	9202      	str	r2, [sp, #8]
 8002688:	e9cd 3400 	strd	r3, r4, [sp]
 800268c:	687b      	ldr	r3, [r7, #4]
 800268e:	6c7a      	ldr	r2, [r7, #68]	; 0x44
 8002690:	68b9      	ldr	r1, [r7, #8]
 8002692:	68f8      	ldr	r0, [r7, #12]
 8002694:	f7fe ff94 	bl	80015c0 <_ntoa_long_long>
 8002698:	6478      	str	r0, [r7, #68]	; 0x44
 800269a:	e049      	b.n	8002730 <_vsnprintf+0x688>
#endif
          }
          else if (flags & FLAGS_LONG) {
 800269c:	6d7b      	ldr	r3, [r7, #84]	; 0x54
 800269e:	f403 7380 	and.w	r3, r3, #256	; 0x100
 80026a2:	2b00      	cmp	r3, #0
 80026a4:	d016      	beq.n	80026d4 <_vsnprintf+0x62c>
            idx = _ntoa_long(out, buffer, idx, maxlen, va_arg(va, unsigned long), false, base, precision, width, flags);
 80026a6:	6ebb      	ldr	r3, [r7, #104]	; 0x68
 80026a8:	1d1a      	adds	r2, r3, #4
 80026aa:	66ba      	str	r2, [r7, #104]	; 0x68
 80026ac:	681b      	ldr	r3, [r3, #0]
 80026ae:	6d7a      	ldr	r2, [r7, #84]	; 0x54
 80026b0:	9205      	str	r2, [sp, #20]
 80026b2:	6d3a      	ldr	r2, [r7, #80]	; 0x50
 80026b4:	9204      	str	r2, [sp, #16]
 80026b6:	6cfa      	ldr	r2, [r7, #76]	; 0x4c
 80026b8:	9203      	str	r2, [sp, #12]
 80026ba:	6c3a      	ldr	r2, [r7, #64]	; 0x40
 80026bc:	9202      	str	r2, [sp, #8]
 80026be:	2200      	movs	r2, #0
 80026c0:	9201      	str	r2, [sp, #4]
 80026c2:	9300      	str	r3, [sp, #0]
 80026c4:	687b      	ldr	r3, [r7, #4]
 80026c6:	6c7a      	ldr	r2, [r7, #68]	; 0x44
 80026c8:	68b9      	ldr	r1, [r7, #8]
 80026ca:	68f8      	ldr	r0, [r7, #12]
 80026cc:	f7fe ff11 	bl	80014f2 <_ntoa_long>
 80026d0:	6478      	str	r0, [r7, #68]	; 0x44
 80026d2:	e02d      	b.n	8002730 <_vsnprintf+0x688>
          }
          else {
            const unsigned int value = (flags & FLAGS_CHAR) ? (unsigned char)va_arg(va, unsigned int) : (flags & FLAGS_SHORT) ? (unsigned short int)va_arg(va, unsigned int) : va_arg(va, unsigned int);
 80026d4:	6d7b      	ldr	r3, [r7, #84]	; 0x54
 80026d6:	f003 0340 	and.w	r3, r3, #64	; 0x40
 80026da:	2b00      	cmp	r3, #0
 80026dc:	d005      	beq.n	80026ea <_vsnprintf+0x642>
 80026de:	6ebb      	ldr	r3, [r7, #104]	; 0x68
 80026e0:	1d1a      	adds	r2, r3, #4
 80026e2:	66ba      	str	r2, [r7, #104]	; 0x68
 80026e4:	681b      	ldr	r3, [r3, #0]
 80026e6:	b2db      	uxtb	r3, r3
 80026e8:	e00e      	b.n	8002708 <_vsnprintf+0x660>
 80026ea:	6d7b      	ldr	r3, [r7, #84]	; 0x54
 80026ec:	f003 0380 	and.w	r3, r3, #128	; 0x80
 80026f0:	2b00      	cmp	r3, #0
 80026f2:	d005      	beq.n	8002700 <_vsnprintf+0x658>
 80026f4:	6ebb      	ldr	r3, [r7, #104]	; 0x68
 80026f6:	1d1a      	adds	r2, r3, #4
 80026f8:	66ba      	str	r2, [r7, #104]	; 0x68
 80026fa:	681b      	ldr	r3, [r3, #0]
 80026fc:	b29b      	uxth	r3, r3
 80026fe:	e003      	b.n	8002708 <_vsnprintf+0x660>
 8002700:	6ebb      	ldr	r3, [r7, #104]	; 0x68
 8002702:	1d1a      	adds	r2, r3, #4
 8002704:	66ba      	str	r2, [r7, #104]	; 0x68
 8002706:	681b      	ldr	r3, [r3, #0]
 8002708:	627b      	str	r3, [r7, #36]	; 0x24
            idx = _ntoa_long(out, buffer, idx, maxlen, value, false, base, precision, width, flags);
 800270a:	6d7b      	ldr	r3, [r7, #84]	; 0x54
 800270c:	9305      	str	r3, [sp, #20]
 800270e:	6d3b      	ldr	r3, [r7, #80]	; 0x50
 8002710:	9304      	str	r3, [sp, #16]
 8002712:	6cfb      	ldr	r3, [r7, #76]	; 0x4c
 8002714:	9303      	str	r3, [sp, #12]
 8002716:	6c3b      	ldr	r3, [r7, #64]	; 0x40
 8002718:	9302      	str	r3, [sp, #8]
 800271a:	2300      	movs	r3, #0
 800271c:	9301      	str	r3, [sp, #4]
 800271e:	6a7b      	ldr	r3, [r7, #36]	; 0x24
 8002720:	9300      	str	r3, [sp, #0]
 8002722:	687b      	ldr	r3, [r7, #4]
 8002724:	6c7a      	ldr	r2, [r7, #68]	; 0x44
 8002726:	68b9      	ldr	r1, [r7, #8]
 8002728:	68f8      	ldr	r0, [r7, #12]
 800272a:	f7fe fee2 	bl	80014f2 <_ntoa_long>
 800272e:	6478      	str	r0, [r7, #68]	; 0x44
          }
        }
        format++;
 8002730:	683b      	ldr	r3, [r7, #0]
 8002732:	3301      	adds	r3, #1
 8002734:	603b      	str	r3, [r7, #0]
        break;
 8002736:	e156      	b.n	80029e6 <_vsnprintf+0x93e>
      }
#if defined(PRINTF_SUPPORT_FLOAT)
      case 'f' :
      case 'F' :
        if (*format == 'F') flags |= FLAGS_UPPERCASE;
 8002738:	683b      	ldr	r3, [r7, #0]
 800273a:	781b      	ldrb	r3, [r3, #0]
 800273c:	2b46      	cmp	r3, #70	; 0x46
 800273e:	d103      	bne.n	8002748 <_vsnprintf+0x6a0>
 8002740:	6d7b      	ldr	r3, [r7, #84]	; 0x54
 8002742:	f043 0320 	orr.w	r3, r3, #32
 8002746:	657b      	str	r3, [r7, #84]	; 0x54
        idx = _ftoa(out, buffer, idx, maxlen, va_arg(va, double), precision, width, flags);
 8002748:	6ebb      	ldr	r3, [r7, #104]	; 0x68
 800274a:	3307      	adds	r3, #7
 800274c:	f023 0307 	bic.w	r3, r3, #7
 8002750:	f103 0208 	add.w	r2, r3, #8
 8002754:	66ba      	str	r2, [r7, #104]	; 0x68
 8002756:	ed93 7b00 	vldr	d7, [r3]
 800275a:	6d7b      	ldr	r3, [r7, #84]	; 0x54
 800275c:	9302      	str	r3, [sp, #8]
 800275e:	6d3b      	ldr	r3, [r7, #80]	; 0x50
 8002760:	9301      	str	r3, [sp, #4]
 8002762:	6cfb      	ldr	r3, [r7, #76]	; 0x4c
 8002764:	9300      	str	r3, [sp, #0]
 8002766:	eeb0 0a47 	vmov.f32	s0, s14
 800276a:	eef0 0a67 	vmov.f32	s1, s15
 800276e:	687b      	ldr	r3, [r7, #4]
 8002770:	6c7a      	ldr	r2, [r7, #68]	; 0x44
 8002772:	68b9      	ldr	r1, [r7, #8]
 8002774:	68f8      	ldr	r0, [r7, #12]
 8002776:	f7fe ff93 	bl	80016a0 <_ftoa>
 800277a:	6478      	str	r0, [r7, #68]	; 0x44
        format++;
 800277c:	683b      	ldr	r3, [r7, #0]
 800277e:	3301      	adds	r3, #1
 8002780:	603b      	str	r3, [r7, #0]
        break;
 8002782:	e130      	b.n	80029e6 <_vsnprintf+0x93e>
#if defined(PRINTF_SUPPORT_EXPONENTIAL)
      case 'e':
      case 'E':
      case 'g':
      case 'G':
        if ((*format == 'g')||(*format == 'G')) flags |= FLAGS_ADAPT_EXP;
 8002784:	683b      	ldr	r3, [r7, #0]
 8002786:	781b      	ldrb	r3, [r3, #0]
 8002788:	2b67      	cmp	r3, #103	; 0x67
 800278a:	d003      	beq.n	8002794 <_vsnprintf+0x6ec>
 800278c:	683b      	ldr	r3, [r7, #0]
 800278e:	781b      	ldrb	r3, [r3, #0]
 8002790:	2b47      	cmp	r3, #71	; 0x47
 8002792:	d103      	bne.n	800279c <_vsnprintf+0x6f4>
 8002794:	6d7b      	ldr	r3, [r7, #84]	; 0x54
 8002796:	f443 6300 	orr.w	r3, r3, #2048	; 0x800
 800279a:	657b      	str	r3, [r7, #84]	; 0x54
        if ((*format == 'E')||(*format == 'G')) flags |= FLAGS_UPPERCASE;
 800279c:	683b      	ldr	r3, [r7, #0]
 800279e:	781b      	ldrb	r3, [r3, #0]
 80027a0:	2b45      	cmp	r3, #69	; 0x45
 80027a2:	d003      	beq.n	80027ac <_vsnprintf+0x704>
 80027a4:	683b      	ldr	r3, [r7, #0]
 80027a6:	781b      	ldrb	r3, [r3, #0]
 80027a8:	2b47      	cmp	r3, #71	; 0x47
 80027aa:	d103      	bne.n	80027b4 <_vsnprintf+0x70c>
 80027ac:	6d7b      	ldr	r3, [r7, #84]	; 0x54
 80027ae:	f043 0320 	orr.w	r3, r3, #32
 80027b2:	657b      	str	r3, [r7, #84]	; 0x54
        idx = _etoa(out, buffer, idx, maxlen, va_arg(va, double), precision, width, flags);
 80027b4:	6ebb      	ldr	r3, [r7, #104]	; 0x68
 80027b6:	3307      	adds	r3, #7
 80027b8:	f023 0307 	bic.w	r3, r3, #7
 80027bc:	f103 0208 	add.w	r2, r3, #8
 80027c0:	66ba      	str	r2, [r7, #104]	; 0x68
 80027c2:	ed93 7b00 	vldr	d7, [r3]
 80027c6:	6d7b      	ldr	r3, [r7, #84]	; 0x54
 80027c8:	9302      	str	r3, [sp, #8]
 80027ca:	6d3b      	ldr	r3, [r7, #80]	; 0x50
 80027cc:	9301      	str	r3, [sp, #4]
 80027ce:	6cfb      	ldr	r3, [r7, #76]	; 0x4c
 80027d0:	9300      	str	r3, [sp, #0]
 80027d2:	eeb0 0a47 	vmov.f32	s0, s14
 80027d6:	eef0 0a67 	vmov.f32	s1, s15
 80027da:	687b      	ldr	r3, [r7, #4]
 80027dc:	6c7a      	ldr	r2, [r7, #68]	; 0x44
 80027de:	68b9      	ldr	r1, [r7, #8]
 80027e0:	68f8      	ldr	r0, [r7, #12]
 80027e2:	f7ff f9c9 	bl	8001b78 <_etoa>
 80027e6:	6478      	str	r0, [r7, #68]	; 0x44
        format++;
 80027e8:	683b      	ldr	r3, [r7, #0]
 80027ea:	3301      	adds	r3, #1
 80027ec:	603b      	str	r3, [r7, #0]
        break;
 80027ee:	e0fa      	b.n	80029e6 <_vsnprintf+0x93e>
#endif  // PRINTF_SUPPORT_EXPONENTIAL
#endif  // PRINTF_SUPPORT_FLOAT
      case 'c' : {
        unsigned int l = 1U;
 80027f0:	2301      	movs	r3, #1
 80027f2:	63fb      	str	r3, [r7, #60]	; 0x3c
        // pre padding
        if (!(flags & FLAGS_LEFT)) {
 80027f4:	6d7b      	ldr	r3, [r7, #84]	; 0x54
 80027f6:	f003 0302 	and.w	r3, r3, #2
 80027fa:	2b00      	cmp	r3, #0
 80027fc:	d10e      	bne.n	800281c <_vsnprintf+0x774>
          while (l++ < width) {
 80027fe:	e007      	b.n	8002810 <_vsnprintf+0x768>
            out(' ', buffer, idx++, maxlen);
 8002800:	6c7a      	ldr	r2, [r7, #68]	; 0x44
 8002802:	1c53      	adds	r3, r2, #1
 8002804:	647b      	str	r3, [r7, #68]	; 0x44
 8002806:	68fc      	ldr	r4, [r7, #12]
 8002808:	687b      	ldr	r3, [r7, #4]
 800280a:	68b9      	ldr	r1, [r7, #8]
 800280c:	2020      	movs	r0, #32
 800280e:	47a0      	blx	r4
          while (l++ < width) {
 8002810:	6bfb      	ldr	r3, [r7, #60]	; 0x3c
 8002812:	1c5a      	adds	r2, r3, #1
 8002814:	63fa      	str	r2, [r7, #60]	; 0x3c
 8002816:	6d3a      	ldr	r2, [r7, #80]	; 0x50
 8002818:	429a      	cmp	r2, r3
 800281a:	d8f1      	bhi.n	8002800 <_vsnprintf+0x758>
          }
        }
        // char output
        out((char)va_arg(va, int), buffer, idx++, maxlen);
 800281c:	6ebb      	ldr	r3, [r7, #104]	; 0x68
 800281e:	1d1a      	adds	r2, r3, #4
 8002820:	66ba      	str	r2, [r7, #104]	; 0x68
 8002822:	681b      	ldr	r3, [r3, #0]
 8002824:	b2d8      	uxtb	r0, r3
 8002826:	6c7a      	ldr	r2, [r7, #68]	; 0x44
 8002828:	1c53      	adds	r3, r2, #1
 800282a:	647b      	str	r3, [r7, #68]	; 0x44
 800282c:	68fc      	ldr	r4, [r7, #12]
 800282e:	687b      	ldr	r3, [r7, #4]
 8002830:	68b9      	ldr	r1, [r7, #8]
 8002832:	47a0      	blx	r4
        // post padding
        if (flags & FLAGS_LEFT) {
 8002834:	6d7b      	ldr	r3, [r7, #84]	; 0x54
 8002836:	f003 0302 	and.w	r3, r3, #2
 800283a:	2b00      	cmp	r3, #0
 800283c:	d00e      	beq.n	800285c <_vsnprintf+0x7b4>
          while (l++ < width) {
 800283e:	e007      	b.n	8002850 <_vsnprintf+0x7a8>
            out(' ', buffer, idx++, maxlen);
 8002840:	6c7a      	ldr	r2, [r7, #68]	; 0x44
 8002842:	1c53      	adds	r3, r2, #1
 8002844:	647b      	str	r3, [r7, #68]	; 0x44
 8002846:	68fc      	ldr	r4, [r7, #12]
 8002848:	687b      	ldr	r3, [r7, #4]
 800284a:	68b9      	ldr	r1, [r7, #8]
 800284c:	2020      	movs	r0, #32
 800284e:	47a0      	blx	r4
          while (l++ < width) {
 8002850:	6bfb      	ldr	r3, [r7, #60]	; 0x3c
 8002852:	1c5a      	adds	r2, r3, #1
 8002854:	63fa      	str	r2, [r7, #60]	; 0x3c
 8002856:	6d3a      	ldr	r2, [r7, #80]	; 0x50
 8002858:	429a      	cmp	r2, r3
 800285a:	d8f1      	bhi.n	8002840 <_vsnprintf+0x798>
          }
        }
        format++;
 800285c:	683b      	ldr	r3, [r7, #0]
 800285e:	3301      	adds	r3, #1
 8002860:	603b      	str	r3, [r7, #0]
        break;
 8002862:	e0c0      	b.n	80029e6 <_vsnprintf+0x93e>
      }

      case 's' : {
        const char* p = va_arg(va, char*);
 8002864:	6ebb      	ldr	r3, [r7, #104]	; 0x68
 8002866:	1d1a      	adds	r2, r3, #4
 8002868:	66ba      	str	r2, [r7, #104]	; 0x68
 800286a:	681b      	ldr	r3, [r3, #0]
 800286c:	63bb      	str	r3, [r7, #56]	; 0x38
        unsigned int l = _strnlen_s(p, precision ? precision : (size_t)-1);
 800286e:	6cfb      	ldr	r3, [r7, #76]	; 0x4c
 8002870:	2b00      	cmp	r3, #0
 8002872:	d001      	beq.n	8002878 <_vsnprintf+0x7d0>
 8002874:	6cfb      	ldr	r3, [r7, #76]	; 0x4c
 8002876:	e001      	b.n	800287c <_vsnprintf+0x7d4>
 8002878:	f04f 33ff 	mov.w	r3, #4294967295
 800287c:	4619      	mov	r1, r3
 800287e:	6bb8      	ldr	r0, [r7, #56]	; 0x38
 8002880:	f7fe fcb3 	bl	80011ea <_strnlen_s>
 8002884:	6378      	str	r0, [r7, #52]	; 0x34
        // pre padding
        if (flags & FLAGS_PRECISION) {
 8002886:	6d7b      	ldr	r3, [r7, #84]	; 0x54
 8002888:	f403 6380 	and.w	r3, r3, #1024	; 0x400
 800288c:	2b00      	cmp	r3, #0
 800288e:	d005      	beq.n	800289c <_vsnprintf+0x7f4>
          l = (l < precision ? l : precision);
 8002890:	6b7a      	ldr	r2, [r7, #52]	; 0x34
 8002892:	6cfb      	ldr	r3, [r7, #76]	; 0x4c
 8002894:	4293      	cmp	r3, r2
 8002896:	bf28      	it	cs
 8002898:	4613      	movcs	r3, r2
 800289a:	637b      	str	r3, [r7, #52]	; 0x34
        }
        if (!(flags & FLAGS_LEFT)) {
 800289c:	6d7b      	ldr	r3, [r7, #84]	; 0x54
 800289e:	f003 0302 	and.w	r3, r3, #2
 80028a2:	2b00      	cmp	r3, #0
 80028a4:	d11a      	bne.n	80028dc <_vsnprintf+0x834>
          while (l++ < width) {
 80028a6:	e007      	b.n	80028b8 <_vsnprintf+0x810>
            out(' ', buffer, idx++, maxlen);
 80028a8:	6c7a      	ldr	r2, [r7, #68]	; 0x44
 80028aa:	1c53      	adds	r3, r2, #1
 80028ac:	647b      	str	r3, [r7, #68]	; 0x44
 80028ae:	68fc      	ldr	r4, [r7, #12]
 80028b0:	687b      	ldr	r3, [r7, #4]
 80028b2:	68b9      	ldr	r1, [r7, #8]
 80028b4:	2020      	movs	r0, #32
 80028b6:	47a0      	blx	r4
          while (l++ < width) {
 80028b8:	6b7b      	ldr	r3, [r7, #52]	; 0x34
 80028ba:	1c5a      	adds	r2, r3, #1
 80028bc:	637a      	str	r2, [r7, #52]	; 0x34
 80028be:	6d3a      	ldr	r2, [r7, #80]	; 0x50
 80028c0:	429a      	cmp	r2, r3
 80028c2:	d8f1      	bhi.n	80028a8 <_vsnprintf+0x800>
          }
        }
        // string output
        while ((*p != 0) && (!(flags & FLAGS_PRECISION) || precision--)) {
 80028c4:	e00a      	b.n	80028dc <_vsnprintf+0x834>
          out(*(p++), buffer, idx++, maxlen);
 80028c6:	6bbb      	ldr	r3, [r7, #56]	; 0x38
 80028c8:	1c5a      	adds	r2, r3, #1
 80028ca:	63ba      	str	r2, [r7, #56]	; 0x38
 80028cc:	7818      	ldrb	r0, [r3, #0]
 80028ce:	6c7a      	ldr	r2, [r7, #68]	; 0x44
 80028d0:	1c53      	adds	r3, r2, #1
 80028d2:	647b      	str	r3, [r7, #68]	; 0x44
 80028d4:	68fc      	ldr	r4, [r7, #12]
 80028d6:	687b      	ldr	r3, [r7, #4]
 80028d8:	68b9      	ldr	r1, [r7, #8]
 80028da:	47a0      	blx	r4
        while ((*p != 0) && (!(flags & FLAGS_PRECISION) || precision--)) {
 80028dc:	6bbb      	ldr	r3, [r7, #56]	; 0x38
 80028de:	781b      	ldrb	r3, [r3, #0]
 80028e0:	2b00      	cmp	r3, #0
 80028e2:	d009      	beq.n	80028f8 <_vsnprintf+0x850>
 80028e4:	6d7b      	ldr	r3, [r7, #84]	; 0x54
 80028e6:	f403 6380 	and.w	r3, r3, #1024	; 0x400
 80028ea:	2b00      	cmp	r3, #0
 80028ec:	d0eb      	beq.n	80028c6 <_vsnprintf+0x81e>
 80028ee:	6cfb      	ldr	r3, [r7, #76]	; 0x4c
 80028f0:	1e5a      	subs	r2, r3, #1
 80028f2:	64fa      	str	r2, [r7, #76]	; 0x4c
 80028f4:	2b00      	cmp	r3, #0
 80028f6:	d1e6      	bne.n	80028c6 <_vsnprintf+0x81e>
        }
        // post padding
        if (flags & FLAGS_LEFT) {
 80028f8:	6d7b      	ldr	r3, [r7, #84]	; 0x54
 80028fa:	f003 0302 	and.w	r3, r3, #2
 80028fe:	2b00      	cmp	r3, #0
 8002900:	d00e      	beq.n	8002920 <_vsnprintf+0x878>
          while (l++ < width) {
 8002902:	e007      	b.n	8002914 <_vsnprintf+0x86c>
            out(' ', buffer, idx++, maxlen);
 8002904:	6c7a      	ldr	r2, [r7, #68]	; 0x44
 8002906:	1c53      	adds	r3, r2, #1
 8002908:	647b      	str	r3, [r7, #68]	; 0x44
 800290a:	68fc      	ldr	r4, [r7, #12]
 800290c:	687b      	ldr	r3, [r7, #4]
 800290e:	68b9      	ldr	r1, [r7, #8]
 8002910:	2020      	movs	r0, #32
 8002912:	47a0      	blx	r4
          while (l++ < width) {
 8002914:	6b7b      	ldr	r3, [r7, #52]	; 0x34
 8002916:	1c5a      	adds	r2, r3, #1
 8002918:	637a      	str	r2, [r7, #52]	; 0x34
 800291a:	6d3a      	ldr	r2, [r7, #80]	; 0x50
 800291c:	429a      	cmp	r2, r3
 800291e:	d8f1      	bhi.n	8002904 <_vsnprintf+0x85c>
          }
        }
        format++;
 8002920:	683b      	ldr	r3, [r7, #0]
 8002922:	3301      	adds	r3, #1
 8002924:	603b      	str	r3, [r7, #0]
        break;
 8002926:	e05e      	b.n	80029e6 <_vsnprintf+0x93e>
      }

      case 'p' : {
        width = sizeof(void*) * 2U;
 8002928:	2308      	movs	r3, #8
 800292a:	653b      	str	r3, [r7, #80]	; 0x50
        flags |= FLAGS_ZEROPAD | FLAGS_UPPERCASE;
 800292c:	6d7b      	ldr	r3, [r7, #84]	; 0x54
 800292e:	f043 0321 	orr.w	r3, r3, #33	; 0x21
 8002932:	657b      	str	r3, [r7, #84]	; 0x54
#if defined(PRINTF_SUPPORT_LONG_LONG)
        const bool is_ll = sizeof(uintptr_t) == sizeof(long long);
 8002934:	2300      	movs	r3, #0
 8002936:	f887 302b 	strb.w	r3, [r7, #43]	; 0x2b
        if (is_ll) {
 800293a:	f897 302b 	ldrb.w	r3, [r7, #43]	; 0x2b
 800293e:	2b00      	cmp	r3, #0
 8002940:	d01d      	beq.n	800297e <_vsnprintf+0x8d6>
          idx = _ntoa_long_long(out, buffer, idx, maxlen, (uintptr_t)va_arg(va, void*), false, 16U, precision, width, flags);
 8002942:	6ebb      	ldr	r3, [r7, #104]	; 0x68
 8002944:	1d1a      	adds	r2, r3, #4
 8002946:	66ba      	str	r2, [r7, #104]	; 0x68
 8002948:	681b      	ldr	r3, [r3, #0]
 800294a:	f04f 0400 	mov.w	r4, #0
 800294e:	6d7a      	ldr	r2, [r7, #84]	; 0x54
 8002950:	9208      	str	r2, [sp, #32]
 8002952:	6d3a      	ldr	r2, [r7, #80]	; 0x50
 8002954:	9207      	str	r2, [sp, #28]
 8002956:	6cfa      	ldr	r2, [r7, #76]	; 0x4c
 8002958:	9206      	str	r2, [sp, #24]
 800295a:	f04f 0110 	mov.w	r1, #16
 800295e:	f04f 0200 	mov.w	r2, #0
 8002962:	e9cd 1204 	strd	r1, r2, [sp, #16]
 8002966:	2200      	movs	r2, #0
 8002968:	9202      	str	r2, [sp, #8]
 800296a:	e9cd 3400 	strd	r3, r4, [sp]
 800296e:	687b      	ldr	r3, [r7, #4]
 8002970:	6c7a      	ldr	r2, [r7, #68]	; 0x44
 8002972:	68b9      	ldr	r1, [r7, #8]
 8002974:	68f8      	ldr	r0, [r7, #12]
 8002976:	f7fe fe23 	bl	80015c0 <_ntoa_long_long>
 800297a:	6478      	str	r0, [r7, #68]	; 0x44
 800297c:	e016      	b.n	80029ac <_vsnprintf+0x904>
        }
        else {
#endif
          idx = _ntoa_long(out, buffer, idx, maxlen, (unsigned long)((uintptr_t)va_arg(va, void*)), false, 16U, precision, width, flags);
 800297e:	6ebb      	ldr	r3, [r7, #104]	; 0x68
 8002980:	1d1a      	adds	r2, r3, #4
 8002982:	66ba      	str	r2, [r7, #104]	; 0x68
 8002984:	681b      	ldr	r3, [r3, #0]
 8002986:	461a      	mov	r2, r3
 8002988:	6d7b      	ldr	r3, [r7, #84]	; 0x54
 800298a:	9305      	str	r3, [sp, #20]
 800298c:	6d3b      	ldr	r3, [r7, #80]	; 0x50
 800298e:	9304      	str	r3, [sp, #16]
 8002990:	6cfb      	ldr	r3, [r7, #76]	; 0x4c
 8002992:	9303      	str	r3, [sp, #12]
 8002994:	2310      	movs	r3, #16
 8002996:	9302      	str	r3, [sp, #8]
 8002998:	2300      	movs	r3, #0
 800299a:	9301      	str	r3, [sp, #4]
 800299c:	9200      	str	r2, [sp, #0]
 800299e:	687b      	ldr	r3, [r7, #4]
 80029a0:	6c7a      	ldr	r2, [r7, #68]	; 0x44
 80029a2:	68b9      	ldr	r1, [r7, #8]
 80029a4:	68f8      	ldr	r0, [r7, #12]
 80029a6:	f7fe fda4 	bl	80014f2 <_ntoa_long>
 80029aa:	6478      	str	r0, [r7, #68]	; 0x44
#if defined(PRINTF_SUPPORT_LONG_LONG)
        }
#endif
        format++;
 80029ac:	683b      	ldr	r3, [r7, #0]
 80029ae:	3301      	adds	r3, #1
 80029b0:	603b      	str	r3, [r7, #0]
        break;
 80029b2:	e018      	b.n	80029e6 <_vsnprintf+0x93e>
      }

      case '%' :
        out('%', buffer, idx++, maxlen);
 80029b4:	6c7a      	ldr	r2, [r7, #68]	; 0x44
 80029b6:	1c53      	adds	r3, r2, #1
 80029b8:	647b      	str	r3, [r7, #68]	; 0x44
 80029ba:	68fc      	ldr	r4, [r7, #12]
 80029bc:	687b      	ldr	r3, [r7, #4]
 80029be:	68b9      	ldr	r1, [r7, #8]
 80029c0:	2025      	movs	r0, #37	; 0x25
 80029c2:	47a0      	blx	r4
        format++;
 80029c4:	683b      	ldr	r3, [r7, #0]
 80029c6:	3301      	adds	r3, #1
 80029c8:	603b      	str	r3, [r7, #0]
        break;
 80029ca:	e00c      	b.n	80029e6 <_vsnprintf+0x93e>

      default :
        out(*format, buffer, idx++, maxlen);
 80029cc:	683b      	ldr	r3, [r7, #0]
 80029ce:	7818      	ldrb	r0, [r3, #0]
 80029d0:	6c7a      	ldr	r2, [r7, #68]	; 0x44
 80029d2:	1c53      	adds	r3, r2, #1
 80029d4:	647b      	str	r3, [r7, #68]	; 0x44
 80029d6:	68fc      	ldr	r4, [r7, #12]
 80029d8:	687b      	ldr	r3, [r7, #4]
 80029da:	68b9      	ldr	r1, [r7, #8]
 80029dc:	47a0      	blx	r4
        format++;
 80029de:	683b      	ldr	r3, [r7, #0]
 80029e0:	3301      	adds	r3, #1
 80029e2:	603b      	str	r3, [r7, #0]
        break;
 80029e4:	bf00      	nop
  while (*format)
 80029e6:	683b      	ldr	r3, [r7, #0]
 80029e8:	781b      	ldrb	r3, [r3, #0]
 80029ea:	2b00      	cmp	r3, #0
 80029ec:	f47f ab6d 	bne.w	80020ca <_vsnprintf+0x22>
    }
  }

  // termination
  out((char)0, buffer, idx < maxlen ? idx : maxlen - 1U, maxlen);
 80029f0:	6c7a      	ldr	r2, [r7, #68]	; 0x44
 80029f2:	687b      	ldr	r3, [r7, #4]
 80029f4:	429a      	cmp	r2, r3
 80029f6:	d302      	bcc.n	80029fe <_vsnprintf+0x956>
 80029f8:	687b      	ldr	r3, [r7, #4]
 80029fa:	1e5a      	subs	r2, r3, #1
 80029fc:	e000      	b.n	8002a00 <_vsnprintf+0x958>
 80029fe:	6c7a      	ldr	r2, [r7, #68]	; 0x44
 8002a00:	68fc      	ldr	r4, [r7, #12]
 8002a02:	687b      	ldr	r3, [r7, #4]
 8002a04:	68b9      	ldr	r1, [r7, #8]
 8002a06:	2000      	movs	r0, #0
 8002a08:	47a0      	blx	r4

  // return written chars without terminating \0
  return (int)idx;
 8002a0a:	6c7b      	ldr	r3, [r7, #68]	; 0x44
}
 8002a0c:	4618      	mov	r0, r3
 8002a0e:	3758      	adds	r7, #88	; 0x58
 8002a10:	46bd      	mov	sp, r7
 8002a12:	bdb0      	pop	{r4, r5, r7, pc}

08002a14 <printf_>:


///////////////////////////////////////////////////////////////////////////////

int printf_(const char* format, ...)
{
 8002a14:	b40f      	push	{r0, r1, r2, r3}
 8002a16:	b580      	push	{r7, lr}
 8002a18:	b086      	sub	sp, #24
 8002a1a:	af02      	add	r7, sp, #8
  va_list va;
  va_start(va, format);
 8002a1c:	f107 031c 	add.w	r3, r7, #28
 8002a20:	60bb      	str	r3, [r7, #8]
  char buffer[1];
  const int ret = _vsnprintf(_out_char, buffer, (size_t)-1, format, va);
 8002a22:	1d39      	adds	r1, r7, #4
 8002a24:	68bb      	ldr	r3, [r7, #8]
 8002a26:	9300      	str	r3, [sp, #0]
 8002a28:	69bb      	ldr	r3, [r7, #24]
 8002a2a:	f04f 32ff 	mov.w	r2, #4294967295
 8002a2e:	4806      	ldr	r0, [pc, #24]	; (8002a48 <printf_+0x34>)
 8002a30:	f7ff fb3a 	bl	80020a8 <_vsnprintf>
 8002a34:	60f8      	str	r0, [r7, #12]
  va_end(va);
  return ret;
 8002a36:	68fb      	ldr	r3, [r7, #12]
}
 8002a38:	4618      	mov	r0, r3
 8002a3a:	3710      	adds	r7, #16
 8002a3c:	46bd      	mov	sp, r7
 8002a3e:	e8bd 4080 	ldmia.w	sp!, {r7, lr}
 8002a42:	b004      	add	sp, #16
 8002a44:	4770      	bx	lr
 8002a46:	bf00      	nop
 8002a48:	080011c5 	.word	0x080011c5

08002a4c <HAL_MspInit>:
/* USER CODE END 0 */
/**
  * Initializes the Global MSP.
  */
void HAL_MspInit(void)
{
 8002a4c:	b580      	push	{r7, lr}
 8002a4e:	b082      	sub	sp, #8
 8002a50:	af00      	add	r7, sp, #0
  /* USER CODE BEGIN MspInit 0 */

  /* USER CODE END MspInit 0 */

  __HAL_RCC_SYSCFG_CLK_ENABLE();
 8002a52:	2300      	movs	r3, #0
 8002a54:	607b      	str	r3, [r7, #4]
 8002a56:	4b1e      	ldr	r3, [pc, #120]	; (8002ad0 <HAL_MspInit+0x84>)
 8002a58:	6c5b      	ldr	r3, [r3, #68]	; 0x44
 8002a5a:	4a1d      	ldr	r2, [pc, #116]	; (8002ad0 <HAL_MspInit+0x84>)
 8002a5c:	f443 4380 	orr.w	r3, r3, #16384	; 0x4000
 8002a60:	6453      	str	r3, [r2, #68]	; 0x44
 8002a62:	4b1b      	ldr	r3, [pc, #108]	; (8002ad0 <HAL_MspInit+0x84>)
 8002a64:	6c5b      	ldr	r3, [r3, #68]	; 0x44
 8002a66:	f403 4380 	and.w	r3, r3, #16384	; 0x4000
 8002a6a:	607b      	str	r3, [r7, #4]
 8002a6c:	687b      	ldr	r3, [r7, #4]
  __HAL_RCC_PWR_CLK_ENABLE();
 8002a6e:	2300      	movs	r3, #0
 8002a70:	603b      	str	r3, [r7, #0]
 8002a72:	4b17      	ldr	r3, [pc, #92]	; (8002ad0 <HAL_MspInit+0x84>)
 8002a74:	6c1b      	ldr	r3, [r3, #64]	; 0x40
 8002a76:	4a16      	ldr	r2, [pc, #88]	; (8002ad0 <HAL_MspInit+0x84>)
 8002a78:	f043 5380 	orr.w	r3, r3, #268435456	; 0x10000000
 8002a7c:	6413      	str	r3, [r2, #64]	; 0x40
 8002a7e:	4b14      	ldr	r3, [pc, #80]	; (8002ad0 <HAL_MspInit+0x84>)
 8002a80:	6c1b      	ldr	r3, [r3, #64]	; 0x40
 8002a82:	f003 5380 	and.w	r3, r3, #268435456	; 0x10000000
 8002a86:	603b      	str	r3, [r7, #0]
 8002a88:	683b      	ldr	r3, [r7, #0]

  /* System interrupt init*/
  /* PendSV_IRQn interrupt configuration */
  HAL_NVIC_SetPriority(PendSV_IRQn, 15, 0);
 8002a8a:	2200      	movs	r2, #0
 8002a8c:	210f      	movs	r1, #15
 8002a8e:	f06f 0001 	mvn.w	r0, #1
 8002a92:	f000 fa57 	bl	8002f44 <HAL_NVIC_SetPriority>

  /* Peripheral interrupt init */
  /* PVD_IRQn interrupt configuration */
  HAL_NVIC_SetPriority(PVD_IRQn, 5, 0);
 8002a96:	2200      	movs	r2, #0
 8002a98:	2105      	movs	r1, #5
 8002a9a:	2001      	movs	r0, #1
 8002a9c:	f000 fa52 	bl	8002f44 <HAL_NVIC_SetPriority>
  HAL_NVIC_EnableIRQ(PVD_IRQn);
 8002aa0:	2001      	movs	r0, #1
 8002aa2:	f000 fa6b 	bl	8002f7c <HAL_NVIC_EnableIRQ>
  /* FLASH_IRQn interrupt configuration */
  HAL_NVIC_SetPriority(FLASH_IRQn, 5, 0);
 8002aa6:	2200      	movs	r2, #0
 8002aa8:	2105      	movs	r1, #5
 8002aaa:	2004      	movs	r0, #4
 8002aac:	f000 fa4a 	bl	8002f44 <HAL_NVIC_SetPriority>
  HAL_NVIC_EnableIRQ(FLASH_IRQn);
 8002ab0:	2004      	movs	r0, #4
 8002ab2:	f000 fa63 	bl	8002f7c <HAL_NVIC_EnableIRQ>
  /* RCC_IRQn interrupt configuration */
  HAL_NVIC_SetPriority(RCC_IRQn, 5, 0);
 8002ab6:	2200      	movs	r2, #0
 8002ab8:	2105      	movs	r1, #5
 8002aba:	2005      	movs	r0, #5
 8002abc:	f000 fa42 	bl	8002f44 <HAL_NVIC_SetPriority>
  HAL_NVIC_EnableIRQ(RCC_IRQn);
 8002ac0:	2005      	movs	r0, #5
 8002ac2:	f000 fa5b 	bl	8002f7c <HAL_NVIC_EnableIRQ>

  /* USER CODE BEGIN MspInit 1 */

  /* USER CODE END MspInit 1 */
}
 8002ac6:	bf00      	nop
 8002ac8:	3708      	adds	r7, #8
 8002aca:	46bd      	mov	sp, r7
 8002acc:	bd80      	pop	{r7, pc}
 8002ace:	bf00      	nop
 8002ad0:	40023800 	.word	0x40023800

08002ad4 <HAL_InitTick>:
  *         reset by HAL_Init() or at any time when clock is configured, by HAL_RCC_ClockConfig().
  * @param  TickPriority: Tick interrupt priority.
  * @retval HAL status
  */
HAL_StatusTypeDef HAL_InitTick(uint32_t TickPriority)
{
 8002ad4:	b580      	push	{r7, lr}
 8002ad6:	b08c      	sub	sp, #48	; 0x30
 8002ad8:	af00      	add	r7, sp, #0
 8002ada:	6078      	str	r0, [r7, #4]
  RCC_ClkInitTypeDef    clkconfig;
  uint32_t              uwTimclock = 0;
 8002adc:	2300      	movs	r3, #0
 8002ade:	62fb      	str	r3, [r7, #44]	; 0x2c
  uint32_t              uwPrescalerValue = 0;
 8002ae0:	2300      	movs	r3, #0
 8002ae2:	62bb      	str	r3, [r7, #40]	; 0x28
  uint32_t              pFLatency;
  /*Configure the TIM10 IRQ priority */
  HAL_NVIC_SetPriority(TIM1_UP_TIM10_IRQn, TickPriority ,0);
 8002ae4:	2200      	movs	r2, #0
 8002ae6:	6879      	ldr	r1, [r7, #4]
 8002ae8:	2019      	movs	r0, #25
 8002aea:	f000 fa2b 	bl	8002f44 <HAL_NVIC_SetPriority>

  /* Enable the TIM10 global Interrupt */
  HAL_NVIC_EnableIRQ(TIM1_UP_TIM10_IRQn);
 8002aee:	2019      	movs	r0, #25
 8002af0:	f000 fa44 	bl	8002f7c <HAL_NVIC_EnableIRQ>
  /* Enable TIM10 clock */
  __HAL_RCC_TIM10_CLK_ENABLE();
 8002af4:	2300      	movs	r3, #0
 8002af6:	60fb      	str	r3, [r7, #12]
 8002af8:	4b1e      	ldr	r3, [pc, #120]	; (8002b74 <HAL_InitTick+0xa0>)
 8002afa:	6c5b      	ldr	r3, [r3, #68]	; 0x44
