
T11_L55_RTOS_SimpleProject_ParitalOLED.elf:     file format elf32-littlearm

Sections:
Idx Name          Size      VMA       LMA       File off  Algn
  0 .isr_vector   00000198  08000000  08000000  00010000  2**0
                  CONTENTS, ALLOC, LOAD, READONLY, DATA
  1 .text         0000e518  080001a0  080001a0  000101a0  2**4
                  CONTENTS, ALLOC, LOAD, READONLY, CODE
  2 .rodata       000006d0  0800e6b8  0800e6b8  0001e6b8  2**3
                  CONTENTS, ALLOC, LOAD, READONLY, DATA
  3 .ARM.extab    00000000  0800ed88  0800ed88  000201e4  2**0
                  CONTENTS
  4 .ARM          00000008  0800ed88  0800ed88  0001ed88  2**2
                  CONTENTS, ALLOC, LOAD, READONLY, DATA
  5 .preinit_array 00000000  0800ed90  0800ed90  000201e4  2**0
                  CONTENTS, ALLOC, LOAD, DATA
  6 .init_array   00000004  0800ed90  0800ed90  0001ed90  2**2
                  CONTENTS, ALLOC, LOAD, DATA
  7 .fini_array   00000004  0800ed94  0800ed94  0001ed94  2**2
                  CONTENTS, ALLOC, LOAD, DATA
  8 .data         000001e4  20000000  0800ed98  00020000  2**2
                  CONTENTS, ALLOC, LOAD, DATA
  9 .bss          00004e78  200001e4  0800ef7c  000201e4  2**2
                  ALLOC
 10 ._user_heap_stack 00000604  2000505c  0800ef7c  0002505c  2**0
                  ALLOC
 11 .ARM.attributes 00000030  00000000  00000000  000201e4  2**0
                  CONTENTS, READONLY
 12 .debug_info   0001f1d2  00000000  00000000  00020214  2**0
                  CONTENTS, READONLY, DEBUGGING
 13 .debug_abbrev 00003d7f  00000000  00000000  0003f3e6  2**0
                  CONTENTS, READONLY, DEBUGGING
 14 .debug_aranges 00001810  00000000  00000000  00043168  2**3
                  CONTENTS, READONLY, DEBUGGING
 15 .debug_ranges 00001660  00000000  00000000  00044978  2**3
                  CONTENTS, READONLY, DEBUGGING
 16 .debug_macro  00019ccc  00000000  00000000  00045fd8  2**0
                  CONTENTS, READONLY, DEBUGGING
 17 .debug_line   00014817  00000000  00000000  0005fca4  2**0
                  CONTENTS, READONLY, DEBUGGING
 18 .debug_str    0009a0a5  00000000  00000000  000744bb  2**0
                  CONTENTS, READONLY, DEBUGGING
 19 .comment      0000007b  00000000  00000000  0010e560  2**0
                  CONTENTS, READONLY
 20 .debug_frame  00007200  00000000  00000000  0010e5dc  2**2
                  CONTENTS, READONLY, DEBUGGING

Disassembly of section .text:

080001a0 <__do_global_dtors_aux>:
 80001a0:	b510      	push	{r4, lr}
 80001a2:	4c05      	ldr	r4, [pc, #20]	; (80001b8 <__do_global_dtors_aux+0x18>)
 80001a4:	7823      	ldrb	r3, [r4, #0]
 80001a6:	b933      	cbnz	r3, 80001b6 <__do_global_dtors_aux+0x16>
 80001a8:	4b04      	ldr	r3, [pc, #16]	; (80001bc <__do_global_dtors_aux+0x1c>)
 80001aa:	b113      	cbz	r3, 80001b2 <__do_global_dtors_aux+0x12>
 80001ac:	4804      	ldr	r0, [pc, #16]	; (80001c0 <__do_global_dtors_aux+0x20>)
 80001ae:	f3af 8000 	nop.w
 80001b2:	2301      	movs	r3, #1
 80001b4:	7023      	strb	r3, [r4, #0]
 80001b6:	bd10      	pop	{r4, pc}
 80001b8:	200001e4 	.word	0x200001e4
 80001bc:	00000000 	.word	0x00000000
 80001c0:	0800e6a0 	.word	0x0800e6a0

080001c4 <frame_dummy>:
 80001c4:	b508      	push	{r3, lr}
 80001c6:	4b03      	ldr	r3, [pc, #12]	; (80001d4 <frame_dummy+0x10>)
 80001c8:	b11b      	cbz	r3, 80001d2 <frame_dummy+0xe>
 80001ca:	4903      	ldr	r1, [pc, #12]	; (80001d8 <frame_dummy+0x14>)
 80001cc:	4803      	ldr	r0, [pc, #12]	; (80001dc <frame_dummy+0x18>)
 80001ce:	f3af 8000 	nop.w
 80001d2:	bd08      	pop	{r3, pc}
 80001d4:	00000000 	.word	0x00000000
 80001d8:	200001e8 	.word	0x200001e8
 80001dc:	0800e6a0 	.word	0x0800e6a0

080001e0 <strlen>:
 80001e0:	4603      	mov	r3, r0
 80001e2:	f813 2b01 	ldrb.w	r2, [r3], #1
 80001e6:	2a00      	cmp	r2, #0
 80001e8:	d1fb      	bne.n	80001e2 <strlen+0x2>
 80001ea:	1a18      	subs	r0, r3, r0
 80001ec:	3801      	subs	r0, #1
 80001ee:	4770      	bx	lr

080001f0 <memchr>:
 80001f0:	f001 01ff 	and.w	r1, r1, #255	; 0xff
 80001f4:	2a10      	cmp	r2, #16
 80001f6:	db2b      	blt.n	8000250 <memchr+0x60>
 80001f8:	f010 0f07 	tst.w	r0, #7
 80001fc:	d008      	beq.n	8000210 <memchr+0x20>
 80001fe:	f810 3b01 	ldrb.w	r3, [r0], #1
 8000202:	3a01      	subs	r2, #1
 8000204:	428b      	cmp	r3, r1
 8000206:	d02d      	beq.n	8000264 <memchr+0x74>
 8000208:	f010 0f07 	tst.w	r0, #7
 800020c:	b342      	cbz	r2, 8000260 <memchr+0x70>
 800020e:	d1f6      	bne.n	80001fe <memchr+0xe>
 8000210:	b4f0      	push	{r4, r5, r6, r7}
 8000212:	ea41 2101 	orr.w	r1, r1, r1, lsl #8
 8000216:	ea41 4101 	orr.w	r1, r1, r1, lsl #16
 800021a:	f022 0407 	bic.w	r4, r2, #7
 800021e:	f07f 0700 	mvns.w	r7, #0
 8000222:	2300      	movs	r3, #0
 8000224:	e8f0 5602 	ldrd	r5, r6, [r0], #8
 8000228:	3c08      	subs	r4, #8
 800022a:	ea85 0501 	eor.w	r5, r5, r1
 800022e:	ea86 0601 	eor.w	r6, r6, r1
 8000232:	fa85 f547 	uadd8	r5, r5, r7
 8000236:	faa3 f587 	sel	r5, r3, r7
 800023a:	fa86 f647 	uadd8	r6, r6, r7
 800023e:	faa5 f687 	sel	r6, r5, r7
 8000242:	b98e      	cbnz	r6, 8000268 <memchr+0x78>
 8000244:	d1ee      	bne.n	8000224 <memchr+0x34>
 8000246:	bcf0      	pop	{r4, r5, r6, r7}
 8000248:	f001 01ff 	and.w	r1, r1, #255	; 0xff
 800024c:	f002 0207 	and.w	r2, r2, #7
 8000250:	b132      	cbz	r2, 8000260 <memchr+0x70>
 8000252:	f810 3b01 	ldrb.w	r3, [r0], #1
 8000256:	3a01      	subs	r2, #1
 8000258:	ea83 0301 	eor.w	r3, r3, r1
 800025c:	b113      	cbz	r3, 8000264 <memchr+0x74>
 800025e:	d1f8      	bne.n	8000252 <memchr+0x62>
 8000260:	2000      	movs	r0, #0
 8000262:	4770      	bx	lr
 8000264:	3801      	subs	r0, #1
 8000266:	4770      	bx	lr
 8000268:	2d00      	cmp	r5, #0
 800026a:	bf06      	itte	eq
 800026c:	4635      	moveq	r5, r6
 800026e:	3803      	subeq	r0, #3
 8000270:	3807      	subne	r0, #7
 8000272:	f015 0f01 	tst.w	r5, #1
 8000276:	d107      	bne.n	8000288 <memchr+0x98>
 8000278:	3001      	adds	r0, #1
 800027a:	f415 7f80 	tst.w	r5, #256	; 0x100
 800027e:	bf02      	ittt	eq
 8000280:	3001      	addeq	r0, #1
 8000282:	f415 3fc0 	tsteq.w	r5, #98304	; 0x18000
 8000286:	3001      	addeq	r0, #1
 8000288:	bcf0      	pop	{r4, r5, r6, r7}
 800028a:	3801      	subs	r0, #1
 800028c:	4770      	bx	lr
 800028e:	bf00      	nop

08000290 <__aeabi_drsub>:
 8000290:	f081 4100 	eor.w	r1, r1, #2147483648	; 0x80000000
 8000294:	e002      	b.n	800029c <__adddf3>
 8000296:	bf00      	nop

08000298 <__aeabi_dsub>:
 8000298:	f083 4300 	eor.w	r3, r3, #2147483648	; 0x80000000

0800029c <__adddf3>:
 800029c:	b530      	push	{r4, r5, lr}
 800029e:	ea4f 0441 	mov.w	r4, r1, lsl #1
 80002a2:	ea4f 0543 	mov.w	r5, r3, lsl #1
 80002a6:	ea94 0f05 	teq	r4, r5
 80002aa:	bf08      	it	eq
 80002ac:	ea90 0f02 	teqeq	r0, r2
 80002b0:	bf1f      	itttt	ne
 80002b2:	ea54 0c00 	orrsne.w	ip, r4, r0
 80002b6:	ea55 0c02 	orrsne.w	ip, r5, r2
 80002ba:	ea7f 5c64 	mvnsne.w	ip, r4, asr #21
 80002be:	ea7f 5c65 	mvnsne.w	ip, r5, asr #21
 80002c2:	f000 80e2 	beq.w	800048a <__adddf3+0x1ee>
 80002c6:	ea4f 5454 	mov.w	r4, r4, lsr #21
 80002ca:	ebd4 5555 	rsbs	r5, r4, r5, lsr #21
 80002ce:	bfb8      	it	lt
 80002d0:	426d      	neglt	r5, r5
 80002d2:	dd0c      	ble.n	80002ee <__adddf3+0x52>
 80002d4:	442c      	add	r4, r5
 80002d6:	ea80 0202 	eor.w	r2, r0, r2
 80002da:	ea81 0303 	eor.w	r3, r1, r3
 80002de:	ea82 0000 	eor.w	r0, r2, r0
 80002e2:	ea83 0101 	eor.w	r1, r3, r1
 80002e6:	ea80 0202 	eor.w	r2, r0, r2
 80002ea:	ea81 0303 	eor.w	r3, r1, r3
 80002ee:	2d36      	cmp	r5, #54	; 0x36
 80002f0:	bf88      	it	hi
 80002f2:	bd30      	pophi	{r4, r5, pc}
 80002f4:	f011 4f00 	tst.w	r1, #2147483648	; 0x80000000
 80002f8:	ea4f 3101 	mov.w	r1, r1, lsl #12
 80002fc:	f44f 1c80 	mov.w	ip, #1048576	; 0x100000
 8000300:	ea4c 3111 	orr.w	r1, ip, r1, lsr #12
 8000304:	d002      	beq.n	800030c <__adddf3+0x70>
 8000306:	4240      	negs	r0, r0
 8000308:	eb61 0141 	sbc.w	r1, r1, r1, lsl #1
 800030c:	f013 4f00 	tst.w	r3, #2147483648	; 0x80000000
 8000310:	ea4f 3303 	mov.w	r3, r3, lsl #12
 8000314:	ea4c 3313 	orr.w	r3, ip, r3, lsr #12
 8000318:	d002      	beq.n	8000320 <__adddf3+0x84>
 800031a:	4252      	negs	r2, r2
 800031c:	eb63 0343 	sbc.w	r3, r3, r3, lsl #1
 8000320:	ea94 0f05 	teq	r4, r5
 8000324:	f000 80a7 	beq.w	8000476 <__adddf3+0x1da>
 8000328:	f1a4 0401 	sub.w	r4, r4, #1
 800032c:	f1d5 0e20 	rsbs	lr, r5, #32
 8000330:	db0d      	blt.n	800034e <__adddf3+0xb2>
 8000332:	fa02 fc0e 	lsl.w	ip, r2, lr
 8000336:	fa22 f205 	lsr.w	r2, r2, r5
 800033a:	1880      	adds	r0, r0, r2
 800033c:	f141 0100 	adc.w	r1, r1, #0
 8000340:	fa03 f20e 	lsl.w	r2, r3, lr
 8000344:	1880      	adds	r0, r0, r2
 8000346:	fa43 f305 	asr.w	r3, r3, r5
 800034a:	4159      	adcs	r1, r3
 800034c:	e00e      	b.n	800036c <__adddf3+0xd0>
 800034e:	f1a5 0520 	sub.w	r5, r5, #32
 8000352:	f10e 0e20 	add.w	lr, lr, #32
 8000356:	2a01      	cmp	r2, #1
 8000358:	fa03 fc0e 	lsl.w	ip, r3, lr
 800035c:	bf28      	it	cs
 800035e:	f04c 0c02 	orrcs.w	ip, ip, #2
 8000362:	fa43 f305 	asr.w	r3, r3, r5
 8000366:	18c0      	adds	r0, r0, r3
 8000368:	eb51 71e3 	adcs.w	r1, r1, r3, asr #31
 800036c:	f001 4500 	and.w	r5, r1, #2147483648	; 0x80000000
 8000370:	d507      	bpl.n	8000382 <__adddf3+0xe6>
 8000372:	f04f 0e00 	mov.w	lr, #0
 8000376:	f1dc 0c00 	rsbs	ip, ip, #0
 800037a:	eb7e 0000 	sbcs.w	r0, lr, r0
 800037e:	eb6e 0101 	sbc.w	r1, lr, r1
 8000382:	f5b1 1f80 	cmp.w	r1, #1048576	; 0x100000
 8000386:	d31b      	bcc.n	80003c0 <__adddf3+0x124>
 8000388:	f5b1 1f00 	cmp.w	r1, #2097152	; 0x200000
 800038c:	d30c      	bcc.n	80003a8 <__adddf3+0x10c>
 800038e:	0849      	lsrs	r1, r1, #1
 8000390:	ea5f 0030 	movs.w	r0, r0, rrx
 8000394:	ea4f 0c3c 	mov.w	ip, ip, rrx
 8000398:	f104 0401 	add.w	r4, r4, #1
 800039c:	ea4f 5244 	mov.w	r2, r4, lsl #21
 80003a0:	f512 0f80 	cmn.w	r2, #4194304	; 0x400000
 80003a4:	f080 809a 	bcs.w	80004dc <__adddf3+0x240>
 80003a8:	f1bc 4f00 	cmp.w	ip, #2147483648	; 0x80000000
 80003ac:	bf08      	it	eq
 80003ae:	ea5f 0c50 	movseq.w	ip, r0, lsr #1
 80003b2:	f150 0000 	adcs.w	r0, r0, #0
 80003b6:	eb41 5104 	adc.w	r1, r1, r4, lsl #20
 80003ba:	ea41 0105 	orr.w	r1, r1, r5
 80003be:	bd30      	pop	{r4, r5, pc}
 80003c0:	ea5f 0c4c 	movs.w	ip, ip, lsl #1
 80003c4:	4140      	adcs	r0, r0
 80003c6:	eb41 0101 	adc.w	r1, r1, r1
 80003ca:	f411 1f80 	tst.w	r1, #1048576	; 0x100000
 80003ce:	f1a4 0401 	sub.w	r4, r4, #1
 80003d2:	d1e9      	bne.n	80003a8 <__adddf3+0x10c>
 80003d4:	f091 0f00 	teq	r1, #0
 80003d8:	bf04      	itt	eq
 80003da:	4601      	moveq	r1, r0
 80003dc:	2000      	moveq	r0, #0
 80003de:	fab1 f381 	clz	r3, r1
 80003e2:	bf08      	it	eq
 80003e4:	3320      	addeq	r3, #32
 80003e6:	f1a3 030b 	sub.w	r3, r3, #11
 80003ea:	f1b3 0220 	subs.w	r2, r3, #32
 80003ee:	da0c      	bge.n	800040a <__adddf3+0x16e>
 80003f0:	320c      	adds	r2, #12
 80003f2:	dd08      	ble.n	8000406 <__adddf3+0x16a>
 80003f4:	f102 0c14 	add.w	ip, r2, #20
 80003f8:	f1c2 020c 	rsb	r2, r2, #12
 80003fc:	fa01 f00c 	lsl.w	r0, r1, ip
 8000400:	fa21 f102 	lsr.w	r1, r1, r2
 8000404:	e00c      	b.n	8000420 <__adddf3+0x184>
 8000406:	f102 0214 	add.w	r2, r2, #20
 800040a:	bfd8      	it	le
 800040c:	f1c2 0c20 	rsble	ip, r2, #32
 8000410:	fa01 f102 	lsl.w	r1, r1, r2
 8000414:	fa20 fc0c 	lsr.w	ip, r0, ip
 8000418:	bfdc      	itt	le
 800041a:	ea41 010c 	orrle.w	r1, r1, ip
 800041e:	4090      	lslle	r0, r2
 8000420:	1ae4      	subs	r4, r4, r3
 8000422:	bfa2      	ittt	ge
 8000424:	eb01 5104 	addge.w	r1, r1, r4, lsl #20
 8000428:	4329      	orrge	r1, r5
 800042a:	bd30      	popge	{r4, r5, pc}
 800042c:	ea6f 0404 	mvn.w	r4, r4
 8000430:	3c1f      	subs	r4, #31
 8000432:	da1c      	bge.n	800046e <__adddf3+0x1d2>
 8000434:	340c      	adds	r4, #12
 8000436:	dc0e      	bgt.n	8000456 <__adddf3+0x1ba>
 8000438:	f104 0414 	add.w	r4, r4, #20
 800043c:	f1c4 0220 	rsb	r2, r4, #32
 8000440:	fa20 f004 	lsr.w	r0, r0, r4
 8000444:	fa01 f302 	lsl.w	r3, r1, r2
 8000448:	ea40 0003 	orr.w	r0, r0, r3
 800044c:	fa21 f304 	lsr.w	r3, r1, r4
 8000450:	ea45 0103 	orr.w	r1, r5, r3
 8000454:	bd30      	pop	{r4, r5, pc}
 8000456:	f1c4 040c 	rsb	r4, r4, #12
 800045a:	f1c4 0220 	rsb	r2, r4, #32
 800045e:	fa20 f002 	lsr.w	r0, r0, r2
 8000462:	fa01 f304 	lsl.w	r3, r1, r4
 8000466:	ea40 0003 	orr.w	r0, r0, r3
 800046a:	4629      	mov	r1, r5
 800046c:	bd30      	pop	{r4, r5, pc}
 800046e:	fa21 f004 	lsr.w	r0, r1, r4
 8000472:	4629      	mov	r1, r5
 8000474:	bd30      	pop	{r4, r5, pc}
 8000476:	f094 0f00 	teq	r4, #0
 800047a:	f483 1380 	eor.w	r3, r3, #1048576	; 0x100000
 800047e:	bf06      	itte	eq
 8000480:	f481 1180 	eoreq.w	r1, r1, #1048576	; 0x100000
 8000484:	3401      	addeq	r4, #1
 8000486:	3d01      	subne	r5, #1
 8000488:	e74e      	b.n	8000328 <__adddf3+0x8c>
 800048a:	ea7f 5c64 	mvns.w	ip, r4, asr #21
 800048e:	bf18      	it	ne
 8000490:	ea7f 5c65 	mvnsne.w	ip, r5, asr #21
 8000494:	d029      	beq.n	80004ea <__adddf3+0x24e>
 8000496:	ea94 0f05 	teq	r4, r5
 800049a:	bf08      	it	eq
 800049c:	ea90 0f02 	teqeq	r0, r2
 80004a0:	d005      	beq.n	80004ae <__adddf3+0x212>
 80004a2:	ea54 0c00 	orrs.w	ip, r4, r0
 80004a6:	bf04      	itt	eq
 80004a8:	4619      	moveq	r1, r3
 80004aa:	4610      	moveq	r0, r2
 80004ac:	bd30      	pop	{r4, r5, pc}
 80004ae:	ea91 0f03 	teq	r1, r3
 80004b2:	bf1e      	ittt	ne
 80004b4:	2100      	movne	r1, #0
 80004b6:	2000      	movne	r0, #0
 80004b8:	bd30      	popne	{r4, r5, pc}
 80004ba:	ea5f 5c54 	movs.w	ip, r4, lsr #21
 80004be:	d105      	bne.n	80004cc <__adddf3+0x230>
 80004c0:	0040      	lsls	r0, r0, #1
 80004c2:	4149      	adcs	r1, r1
 80004c4:	bf28      	it	cs
 80004c6:	f041 4100 	orrcs.w	r1, r1, #2147483648	; 0x80000000
 80004ca:	bd30      	pop	{r4, r5, pc}
 80004cc:	f514 0480 	adds.w	r4, r4, #4194304	; 0x400000
 80004d0:	bf3c      	itt	cc
 80004d2:	f501 1180 	addcc.w	r1, r1, #1048576	; 0x100000
 80004d6:	bd30      	popcc	{r4, r5, pc}
 80004d8:	f001 4500 	and.w	r5, r1, #2147483648	; 0x80000000
 80004dc:	f045 41fe 	orr.w	r1, r5, #2130706432	; 0x7f000000
 80004e0:	f441 0170 	orr.w	r1, r1, #15728640	; 0xf00000
 80004e4:	f04f 0000 	mov.w	r0, #0
 80004e8:	bd30      	pop	{r4, r5, pc}
 80004ea:	ea7f 5c64 	mvns.w	ip, r4, asr #21
 80004ee:	bf1a      	itte	ne
 80004f0:	4619      	movne	r1, r3
 80004f2:	4610      	movne	r0, r2
 80004f4:	ea7f 5c65 	mvnseq.w	ip, r5, asr #21
 80004f8:	bf1c      	itt	ne
 80004fa:	460b      	movne	r3, r1
 80004fc:	4602      	movne	r2, r0
 80004fe:	ea50 3401 	orrs.w	r4, r0, r1, lsl #12
 8000502:	bf06      	itte	eq
 8000504:	ea52 3503 	orrseq.w	r5, r2, r3, lsl #12
 8000508:	ea91 0f03 	teqeq	r1, r3
 800050c:	f441 2100 	orrne.w	r1, r1, #524288	; 0x80000
 8000510:	bd30      	pop	{r4, r5, pc}
 8000512:	bf00      	nop

08000514 <__aeabi_ui2d>:
 8000514:	f090 0f00 	teq	r0, #0
 8000518:	bf04      	itt	eq
 800051a:	2100      	moveq	r1, #0
 800051c:	4770      	bxeq	lr
 800051e:	b530      	push	{r4, r5, lr}
 8000520:	f44f 6480 	mov.w	r4, #1024	; 0x400
 8000524:	f104 0432 	add.w	r4, r4, #50	; 0x32
 8000528:	f04f 0500 	mov.w	r5, #0
 800052c:	f04f 0100 	mov.w	r1, #0
 8000530:	e750      	b.n	80003d4 <__adddf3+0x138>
 8000532:	bf00      	nop

08000534 <__aeabi_i2d>:
 8000534:	f090 0f00 	teq	r0, #0
 8000538:	bf04      	itt	eq
 800053a:	2100      	moveq	r1, #0
 800053c:	4770      	bxeq	lr
 800053e:	b530      	push	{r4, r5, lr}
 8000540:	f44f 6480 	mov.w	r4, #1024	; 0x400
 8000544:	f104 0432 	add.w	r4, r4, #50	; 0x32
 8000548:	f010 4500 	ands.w	r5, r0, #2147483648	; 0x80000000
 800054c:	bf48      	it	mi
 800054e:	4240      	negmi	r0, r0
 8000550:	f04f 0100 	mov.w	r1, #0
 8000554:	e73e      	b.n	80003d4 <__adddf3+0x138>
 8000556:	bf00      	nop

08000558 <__aeabi_f2d>:
 8000558:	0042      	lsls	r2, r0, #1
 800055a:	ea4f 01e2 	mov.w	r1, r2, asr #3
 800055e:	ea4f 0131 	mov.w	r1, r1, rrx
 8000562:	ea4f 7002 	mov.w	r0, r2, lsl #28
 8000566:	bf1f      	itttt	ne
 8000568:	f012 437f 	andsne.w	r3, r2, #4278190080	; 0xff000000
 800056c:	f093 4f7f 	teqne	r3, #4278190080	; 0xff000000
 8000570:	f081 5160 	eorne.w	r1, r1, #939524096	; 0x38000000
 8000574:	4770      	bxne	lr
 8000576:	f032 427f 	bics.w	r2, r2, #4278190080	; 0xff000000
 800057a:	bf08      	it	eq
 800057c:	4770      	bxeq	lr
 800057e:	f093 4f7f 	teq	r3, #4278190080	; 0xff000000
 8000582:	bf04      	itt	eq
 8000584:	f441 2100 	orreq.w	r1, r1, #524288	; 0x80000
 8000588:	4770      	bxeq	lr
 800058a:	b530      	push	{r4, r5, lr}
 800058c:	f44f 7460 	mov.w	r4, #896	; 0x380
 8000590:	f001 4500 	and.w	r5, r1, #2147483648	; 0x80000000
 8000594:	f021 4100 	bic.w	r1, r1, #2147483648	; 0x80000000
 8000598:	e71c      	b.n	80003d4 <__adddf3+0x138>
 800059a:	bf00      	nop

0800059c <__aeabi_ul2d>:
 800059c:	ea50 0201 	orrs.w	r2, r0, r1
 80005a0:	bf08      	it	eq
 80005a2:	4770      	bxeq	lr
 80005a4:	b530      	push	{r4, r5, lr}
 80005a6:	f04f 0500 	mov.w	r5, #0
 80005aa:	e00a      	b.n	80005c2 <__aeabi_l2d+0x16>

080005ac <__aeabi_l2d>:
 80005ac:	ea50 0201 	orrs.w	r2, r0, r1
 80005b0:	bf08      	it	eq
 80005b2:	4770      	bxeq	lr
 80005b4:	b530      	push	{r4, r5, lr}
 80005b6:	f011 4500 	ands.w	r5, r1, #2147483648	; 0x80000000
 80005ba:	d502      	bpl.n	80005c2 <__aeabi_l2d+0x16>
 80005bc:	4240      	negs	r0, r0
 80005be:	eb61 0141 	sbc.w	r1, r1, r1, lsl #1
 80005c2:	f44f 6480 	mov.w	r4, #1024	; 0x400
 80005c6:	f104 0432 	add.w	r4, r4, #50	; 0x32
 80005ca:	ea5f 5c91 	movs.w	ip, r1, lsr #22
 80005ce:	f43f aed8 	beq.w	8000382 <__adddf3+0xe6>
 80005d2:	f04f 0203 	mov.w	r2, #3
 80005d6:	ea5f 0cdc 	movs.w	ip, ip, lsr #3
 80005da:	bf18      	it	ne
 80005dc:	3203      	addne	r2, #3
 80005de:	ea5f 0cdc 	movs.w	ip, ip, lsr #3
 80005e2:	bf18      	it	ne
 80005e4:	3203      	addne	r2, #3
 80005e6:	eb02 02dc 	add.w	r2, r2, ip, lsr #3
 80005ea:	f1c2 0320 	rsb	r3, r2, #32
 80005ee:	fa00 fc03 	lsl.w	ip, r0, r3
 80005f2:	fa20 f002 	lsr.w	r0, r0, r2
 80005f6:	fa01 fe03 	lsl.w	lr, r1, r3
 80005fa:	ea40 000e 	orr.w	r0, r0, lr
 80005fe:	fa21 f102 	lsr.w	r1, r1, r2
 8000602:	4414      	add	r4, r2
 8000604:	e6bd      	b.n	8000382 <__adddf3+0xe6>
 8000606:	bf00      	nop

08000608 <__aeabi_dmul>:
 8000608:	b570      	push	{r4, r5, r6, lr}
 800060a:	f04f 0cff 	mov.w	ip, #255	; 0xff
 800060e:	f44c 6ce0 	orr.w	ip, ip, #1792	; 0x700
 8000612:	ea1c 5411 	ands.w	r4, ip, r1, lsr #20
 8000616:	bf1d      	ittte	ne
 8000618:	ea1c 5513 	andsne.w	r5, ip, r3, lsr #20
 800061c:	ea94 0f0c 	teqne	r4, ip
 8000620:	ea95 0f0c 	teqne	r5, ip
 8000624:	f000 f8de 	bleq	80007e4 <__aeabi_dmul+0x1dc>
 8000628:	442c      	add	r4, r5
 800062a:	ea81 0603 	eor.w	r6, r1, r3
 800062e:	ea21 514c 	bic.w	r1, r1, ip, lsl #21
 8000632:	ea23 534c 	bic.w	r3, r3, ip, lsl #21
 8000636:	ea50 3501 	orrs.w	r5, r0, r1, lsl #12
 800063a:	bf18      	it	ne
 800063c:	ea52 3503 	orrsne.w	r5, r2, r3, lsl #12
 8000640:	f441 1180 	orr.w	r1, r1, #1048576	; 0x100000
 8000644:	f443 1380 	orr.w	r3, r3, #1048576	; 0x100000
 8000648:	d038      	beq.n	80006bc <__aeabi_dmul+0xb4>
 800064a:	fba0 ce02 	umull	ip, lr, r0, r2
 800064e:	f04f 0500 	mov.w	r5, #0
 8000652:	fbe1 e502 	umlal	lr, r5, r1, r2
 8000656:	f006 4200 	and.w	r2, r6, #2147483648	; 0x80000000
 800065a:	fbe0 e503 	umlal	lr, r5, r0, r3
 800065e:	f04f 0600 	mov.w	r6, #0
 8000662:	fbe1 5603 	umlal	r5, r6, r1, r3
 8000666:	f09c 0f00 	teq	ip, #0
 800066a:	bf18      	it	ne
 800066c:	f04e 0e01 	orrne.w	lr, lr, #1
 8000670:	f1a4 04ff 	sub.w	r4, r4, #255	; 0xff
 8000674:	f5b6 7f00 	cmp.w	r6, #512	; 0x200
 8000678:	f564 7440 	sbc.w	r4, r4, #768	; 0x300
 800067c:	d204      	bcs.n	8000688 <__aeabi_dmul+0x80>
 800067e:	ea5f 0e4e 	movs.w	lr, lr, lsl #1
 8000682:	416d      	adcs	r5, r5
 8000684:	eb46 0606 	adc.w	r6, r6, r6
 8000688:	ea42 21c6 	orr.w	r1, r2, r6, lsl #11
 800068c:	ea41 5155 	orr.w	r1, r1, r5, lsr #21
 8000690:	ea4f 20c5 	mov.w	r0, r5, lsl #11
 8000694:	ea40 505e 	orr.w	r0, r0, lr, lsr #21
 8000698:	ea4f 2ece 	mov.w	lr, lr, lsl #11
 800069c:	f1b4 0cfd 	subs.w	ip, r4, #253	; 0xfd
 80006a0:	bf88      	it	hi
 80006a2:	f5bc 6fe0 	cmphi.w	ip, #1792	; 0x700
 80006a6:	d81e      	bhi.n	80006e6 <__aeabi_dmul+0xde>
 80006a8:	f1be 4f00 	cmp.w	lr, #2147483648	; 0x80000000
 80006ac:	bf08      	it	eq
 80006ae:	ea5f 0e50 	movseq.w	lr, r0, lsr #1
 80006b2:	f150 0000 	adcs.w	r0, r0, #0
 80006b6:	eb41 5104 	adc.w	r1, r1, r4, lsl #20
 80006ba:	bd70      	pop	{r4, r5, r6, pc}
 80006bc:	f006 4600 	and.w	r6, r6, #2147483648	; 0x80000000
 80006c0:	ea46 0101 	orr.w	r1, r6, r1
 80006c4:	ea40 0002 	orr.w	r0, r0, r2
 80006c8:	ea81 0103 	eor.w	r1, r1, r3
 80006cc:	ebb4 045c 	subs.w	r4, r4, ip, lsr #1
 80006d0:	bfc2      	ittt	gt
 80006d2:	ebd4 050c 	rsbsgt	r5, r4, ip
 80006d6:	ea41 5104 	orrgt.w	r1, r1, r4, lsl #20
 80006da:	bd70      	popgt	{r4, r5, r6, pc}
 80006dc:	f441 1180 	orr.w	r1, r1, #1048576	; 0x100000
 80006e0:	f04f 0e00 	mov.w	lr, #0
 80006e4:	3c01      	subs	r4, #1
 80006e6:	f300 80ab 	bgt.w	8000840 <__aeabi_dmul+0x238>
 80006ea:	f114 0f36 	cmn.w	r4, #54	; 0x36
 80006ee:	bfde      	ittt	le
 80006f0:	2000      	movle	r0, #0
 80006f2:	f001 4100 	andle.w	r1, r1, #2147483648	; 0x80000000
 80006f6:	bd70      	pople	{r4, r5, r6, pc}
 80006f8:	f1c4 0400 	rsb	r4, r4, #0
 80006fc:	3c20      	subs	r4, #32
 80006fe:	da35      	bge.n	800076c <__aeabi_dmul+0x164>
 8000700:	340c      	adds	r4, #12
 8000702:	dc1b      	bgt.n	800073c <__aeabi_dmul+0x134>
 8000704:	f104 0414 	add.w	r4, r4, #20
 8000708:	f1c4 0520 	rsb	r5, r4, #32
 800070c:	fa00 f305 	lsl.w	r3, r0, r5
 8000710:	fa20 f004 	lsr.w	r0, r0, r4
 8000714:	fa01 f205 	lsl.w	r2, r1, r5
 8000718:	ea40 0002 	orr.w	r0, r0, r2
 800071c:	f001 4200 	and.w	r2, r1, #2147483648	; 0x80000000
 8000720:	f021 4100 	bic.w	r1, r1, #2147483648	; 0x80000000
 8000724:	eb10 70d3 	adds.w	r0, r0, r3, lsr #31
 8000728:	fa21 f604 	lsr.w	r6, r1, r4
 800072c:	eb42 0106 	adc.w	r1, r2, r6
 8000730:	ea5e 0e43 	orrs.w	lr, lr, r3, lsl #1
 8000734:	bf08      	it	eq
 8000736:	ea20 70d3 	biceq.w	r0, r0, r3, lsr #31
 800073a:	bd70      	pop	{r4, r5, r6, pc}
 800073c:	f1c4 040c 	rsb	r4, r4, #12
 8000740:	f1c4 0520 	rsb	r5, r4, #32
 8000744:	fa00 f304 	lsl.w	r3, r0, r4
 8000748:	fa20 f005 	lsr.w	r0, r0, r5
 800074c:	fa01 f204 	lsl.w	r2, r1, r4
 8000750:	ea40 0002 	orr.w	r0, r0, r2
 8000754:	f001 4100 	and.w	r1, r1, #2147483648	; 0x80000000
 8000758:	eb10 70d3 	adds.w	r0, r0, r3, lsr #31
 800075c:	f141 0100 	adc.w	r1, r1, #0
 8000760:	ea5e 0e43 	orrs.w	lr, lr, r3, lsl #1
 8000764:	bf08      	it	eq
 8000766:	ea20 70d3 	biceq.w	r0, r0, r3, lsr #31
 800076a:	bd70      	pop	{r4, r5, r6, pc}
 800076c:	f1c4 0520 	rsb	r5, r4, #32
 8000770:	fa00 f205 	lsl.w	r2, r0, r5
 8000774:	ea4e 0e02 	orr.w	lr, lr, r2
 8000778:	fa20 f304 	lsr.w	r3, r0, r4
 800077c:	fa01 f205 	lsl.w	r2, r1, r5
 8000780:	ea43 0302 	orr.w	r3, r3, r2
 8000784:	fa21 f004 	lsr.w	r0, r1, r4
 8000788:	f001 4100 	and.w	r1, r1, #2147483648	; 0x80000000
 800078c:	fa21 f204 	lsr.w	r2, r1, r4
 8000790:	ea20 0002 	bic.w	r0, r0, r2
 8000794:	eb00 70d3 	add.w	r0, r0, r3, lsr #31
 8000798:	ea5e 0e43 	orrs.w	lr, lr, r3, lsl #1
 800079c:	bf08      	it	eq
 800079e:	ea20 70d3 	biceq.w	r0, r0, r3, lsr #31
 80007a2:	bd70      	pop	{r4, r5, r6, pc}
 80007a4:	f094 0f00 	teq	r4, #0
 80007a8:	d10f      	bne.n	80007ca <__aeabi_dmul+0x1c2>
 80007aa:	f001 4600 	and.w	r6, r1, #2147483648	; 0x80000000
 80007ae:	0040      	lsls	r0, r0, #1
 80007b0:	eb41 0101 	adc.w	r1, r1, r1
 80007b4:	f411 1f80 	tst.w	r1, #1048576	; 0x100000
 80007b8:	bf08      	it	eq
 80007ba:	3c01      	subeq	r4, #1
 80007bc:	d0f7      	beq.n	80007ae <__aeabi_dmul+0x1a6>
 80007be:	ea41 0106 	orr.w	r1, r1, r6
 80007c2:	f095 0f00 	teq	r5, #0
 80007c6:	bf18      	it	ne
 80007c8:	4770      	bxne	lr
 80007ca:	f003 4600 	and.w	r6, r3, #2147483648	; 0x80000000
 80007ce:	0052      	lsls	r2, r2, #1
 80007d0:	eb43 0303 	adc.w	r3, r3, r3
 80007d4:	f413 1f80 	tst.w	r3, #1048576	; 0x100000
 80007d8:	bf08      	it	eq
 80007da:	3d01      	subeq	r5, #1
 80007dc:	d0f7      	beq.n	80007ce <__aeabi_dmul+0x1c6>
 80007de:	ea43 0306 	orr.w	r3, r3, r6
 80007e2:	4770      	bx	lr
 80007e4:	ea94 0f0c 	teq	r4, ip
 80007e8:	ea0c 5513 	and.w	r5, ip, r3, lsr #20
 80007ec:	bf18      	it	ne
 80007ee:	ea95 0f0c 	teqne	r5, ip
 80007f2:	d00c      	beq.n	800080e <__aeabi_dmul+0x206>
 80007f4:	ea50 0641 	orrs.w	r6, r0, r1, lsl #1
 80007f8:	bf18      	it	ne
 80007fa:	ea52 0643 	orrsne.w	r6, r2, r3, lsl #1
 80007fe:	d1d1      	bne.n	80007a4 <__aeabi_dmul+0x19c>
 8000800:	ea81 0103 	eor.w	r1, r1, r3
 8000804:	f001 4100 	and.w	r1, r1, #2147483648	; 0x80000000
 8000808:	f04f 0000 	mov.w	r0, #0
 800080c:	bd70      	pop	{r4, r5, r6, pc}
 800080e:	ea50 0641 	orrs.w	r6, r0, r1, lsl #1
 8000812:	bf06      	itte	eq
 8000814:	4610      	moveq	r0, r2
 8000816:	4619      	moveq	r1, r3
 8000818:	ea52 0643 	orrsne.w	r6, r2, r3, lsl #1
 800081c:	d019      	beq.n	8000852 <__aeabi_dmul+0x24a>
 800081e:	ea94 0f0c 	teq	r4, ip
 8000822:	d102      	bne.n	800082a <__aeabi_dmul+0x222>
 8000824:	ea50 3601 	orrs.w	r6, r0, r1, lsl #12
 8000828:	d113      	bne.n	8000852 <__aeabi_dmul+0x24a>
 800082a:	ea95 0f0c 	teq	r5, ip
 800082e:	d105      	bne.n	800083c <__aeabi_dmul+0x234>
 8000830:	ea52 3603 	orrs.w	r6, r2, r3, lsl #12
 8000834:	bf1c      	itt	ne
 8000836:	4610      	movne	r0, r2
 8000838:	4619      	movne	r1, r3
 800083a:	d10a      	bne.n	8000852 <__aeabi_dmul+0x24a>
 800083c:	ea81 0103 	eor.w	r1, r1, r3
 8000840:	f001 4100 	and.w	r1, r1, #2147483648	; 0x80000000
 8000844:	f041 41fe 	orr.w	r1, r1, #2130706432	; 0x7f000000
 8000848:	f441 0170 	orr.w	r1, r1, #15728640	; 0xf00000
 800084c:	f04f 0000 	mov.w	r0, #0
 8000850:	bd70      	pop	{r4, r5, r6, pc}
 8000852:	f041 41fe 	orr.w	r1, r1, #2130706432	; 0x7f000000
 8000856:	f441 0178 	orr.w	r1, r1, #16252928	; 0xf80000
 800085a:	bd70      	pop	{r4, r5, r6, pc}

0800085c <__aeabi_ddiv>:
 800085c:	b570      	push	{r4, r5, r6, lr}
 800085e:	f04f 0cff 	mov.w	ip, #255	; 0xff
 8000862:	f44c 6ce0 	orr.w	ip, ip, #1792	; 0x700
 8000866:	ea1c 5411 	ands.w	r4, ip, r1, lsr #20
 800086a:	bf1d      	ittte	ne
 800086c:	ea1c 5513 	andsne.w	r5, ip, r3, lsr #20
 8000870:	ea94 0f0c 	teqne	r4, ip
 8000874:	ea95 0f0c 	teqne	r5, ip
 8000878:	f000 f8a7 	bleq	80009ca <__aeabi_ddiv+0x16e>
 800087c:	eba4 0405 	sub.w	r4, r4, r5
 8000880:	ea81 0e03 	eor.w	lr, r1, r3
 8000884:	ea52 3503 	orrs.w	r5, r2, r3, lsl #12
 8000888:	ea4f 3101 	mov.w	r1, r1, lsl #12
 800088c:	f000 8088 	beq.w	80009a0 <__aeabi_ddiv+0x144>
 8000890:	ea4f 3303 	mov.w	r3, r3, lsl #12
 8000894:	f04f 5580 	mov.w	r5, #268435456	; 0x10000000
 8000898:	ea45 1313 	orr.w	r3, r5, r3, lsr #4
 800089c:	ea43 6312 	orr.w	r3, r3, r2, lsr #24
 80008a0:	ea4f 2202 	mov.w	r2, r2, lsl #8
 80008a4:	ea45 1511 	orr.w	r5, r5, r1, lsr #4
 80008a8:	ea45 6510 	orr.w	r5, r5, r0, lsr #24
 80008ac:	ea4f 2600 	mov.w	r6, r0, lsl #8
 80008b0:	f00e 4100 	and.w	r1, lr, #2147483648	; 0x80000000
 80008b4:	429d      	cmp	r5, r3
 80008b6:	bf08      	it	eq
 80008b8:	4296      	cmpeq	r6, r2
 80008ba:	f144 04fd 	adc.w	r4, r4, #253	; 0xfd
 80008be:	f504 7440 	add.w	r4, r4, #768	; 0x300
 80008c2:	d202      	bcs.n	80008ca <__aeabi_ddiv+0x6e>
 80008c4:	085b      	lsrs	r3, r3, #1
 80008c6:	ea4f 0232 	mov.w	r2, r2, rrx
 80008ca:	1ab6      	subs	r6, r6, r2
 80008cc:	eb65 0503 	sbc.w	r5, r5, r3
 80008d0:	085b      	lsrs	r3, r3, #1
 80008d2:	ea4f 0232 	mov.w	r2, r2, rrx
 80008d6:	f44f 1080 	mov.w	r0, #1048576	; 0x100000
 80008da:	f44f 2c00 	mov.w	ip, #524288	; 0x80000
 80008de:	ebb6 0e02 	subs.w	lr, r6, r2
 80008e2:	eb75 0e03 	sbcs.w	lr, r5, r3
 80008e6:	bf22      	ittt	cs
 80008e8:	1ab6      	subcs	r6, r6, r2
 80008ea:	4675      	movcs	r5, lr
 80008ec:	ea40 000c 	orrcs.w	r0, r0, ip
 80008f0:	085b      	lsrs	r3, r3, #1
 80008f2:	ea4f 0232 	mov.w	r2, r2, rrx
 80008f6:	ebb6 0e02 	subs.w	lr, r6, r2
 80008fa:	eb75 0e03 	sbcs.w	lr, r5, r3
 80008fe:	bf22      	ittt	cs
 8000900:	1ab6      	subcs	r6, r6, r2
 8000902:	4675      	movcs	r5, lr
 8000904:	ea40 005c 	orrcs.w	r0, r0, ip, lsr #1
 8000908:	085b      	lsrs	r3, r3, #1
 800090a:	ea4f 0232 	mov.w	r2, r2, rrx
 800090e:	ebb6 0e02 	subs.w	lr, r6, r2
 8000912:	eb75 0e03 	sbcs.w	lr, r5, r3
 8000916:	bf22      	ittt	cs
 8000918:	1ab6      	subcs	r6, r6, r2
 800091a:	4675      	movcs	r5, lr
 800091c:	ea40 009c 	orrcs.w	r0, r0, ip, lsr #2
 8000920:	085b      	lsrs	r3, r3, #1
 8000922:	ea4f 0232 	mov.w	r2, r2, rrx
 8000926:	ebb6 0e02 	subs.w	lr, r6, r2
 800092a:	eb75 0e03 	sbcs.w	lr, r5, r3
 800092e:	bf22      	ittt	cs
 8000930:	1ab6      	subcs	r6, r6, r2
 8000932:	4675      	movcs	r5, lr
 8000934:	ea40 00dc 	orrcs.w	r0, r0, ip, lsr #3
 8000938:	ea55 0e06 	orrs.w	lr, r5, r6
 800093c:	d018      	beq.n	8000970 <__aeabi_ddiv+0x114>
 800093e:	ea4f 1505 	mov.w	r5, r5, lsl #4
 8000942:	ea45 7516 	orr.w	r5, r5, r6, lsr #28
 8000946:	ea4f 1606 	mov.w	r6, r6, lsl #4
 800094a:	ea4f 03c3 	mov.w	r3, r3, lsl #3
 800094e:	ea43 7352 	orr.w	r3, r3, r2, lsr #29
 8000952:	ea4f 02c2 	mov.w	r2, r2, lsl #3
 8000956:	ea5f 1c1c 	movs.w	ip, ip, lsr #4
 800095a:	d1c0      	bne.n	80008de <__aeabi_ddiv+0x82>
 800095c:	f411 1f80 	tst.w	r1, #1048576	; 0x100000
 8000960:	d10b      	bne.n	800097a <__aeabi_ddiv+0x11e>
 8000962:	ea41 0100 	orr.w	r1, r1, r0
 8000966:	f04f 0000 	mov.w	r0, #0
 800096a:	f04f 4c00 	mov.w	ip, #2147483648	; 0x80000000
 800096e:	e7b6      	b.n	80008de <__aeabi_ddiv+0x82>
 8000970:	f411 1f80 	tst.w	r1, #1048576	; 0x100000
 8000974:	bf04      	itt	eq
 8000976:	4301      	orreq	r1, r0
 8000978:	2000      	moveq	r0, #0
 800097a:	f1b4 0cfd 	subs.w	ip, r4, #253	; 0xfd
 800097e:	bf88      	it	hi
 8000980:	f5bc 6fe0 	cmphi.w	ip, #1792	; 0x700
 8000984:	f63f aeaf 	bhi.w	80006e6 <__aeabi_dmul+0xde>
 8000988:	ebb5 0c03 	subs.w	ip, r5, r3
 800098c:	bf04      	itt	eq
 800098e:	ebb6 0c02 	subseq.w	ip, r6, r2
 8000992:	ea5f 0c50 	movseq.w	ip, r0, lsr #1
 8000996:	f150 0000 	adcs.w	r0, r0, #0
 800099a:	eb41 5104 	adc.w	r1, r1, r4, lsl #20
 800099e:	bd70      	pop	{r4, r5, r6, pc}
 80009a0:	f00e 4e00 	and.w	lr, lr, #2147483648	; 0x80000000
 80009a4:	ea4e 3111 	orr.w	r1, lr, r1, lsr #12
 80009a8:	eb14 045c 	adds.w	r4, r4, ip, lsr #1
 80009ac:	bfc2      	ittt	gt
 80009ae:	ebd4 050c 	rsbsgt	r5, r4, ip
 80009b2:	ea41 5104 	orrgt.w	r1, r1, r4, lsl #20
 80009b6:	bd70      	popgt	{r4, r5, r6, pc}
 80009b8:	f441 1180 	orr.w	r1, r1, #1048576	; 0x100000
 80009bc:	f04f 0e00 	mov.w	lr, #0
 80009c0:	3c01      	subs	r4, #1
 80009c2:	e690      	b.n	80006e6 <__aeabi_dmul+0xde>
 80009c4:	ea45 0e06 	orr.w	lr, r5, r6
 80009c8:	e68d      	b.n	80006e6 <__aeabi_dmul+0xde>
 80009ca:	ea0c 5513 	and.w	r5, ip, r3, lsr #20
 80009ce:	ea94 0f0c 	teq	r4, ip
 80009d2:	bf08      	it	eq
 80009d4:	ea95 0f0c 	teqeq	r5, ip
 80009d8:	f43f af3b 	beq.w	8000852 <__aeabi_dmul+0x24a>
 80009dc:	ea94 0f0c 	teq	r4, ip
 80009e0:	d10a      	bne.n	80009f8 <__aeabi_ddiv+0x19c>
 80009e2:	ea50 3401 	orrs.w	r4, r0, r1, lsl #12
 80009e6:	f47f af34 	bne.w	8000852 <__aeabi_dmul+0x24a>
 80009ea:	ea95 0f0c 	teq	r5, ip
 80009ee:	f47f af25 	bne.w	800083c <__aeabi_dmul+0x234>
 80009f2:	4610      	mov	r0, r2
 80009f4:	4619      	mov	r1, r3
 80009f6:	e72c      	b.n	8000852 <__aeabi_dmul+0x24a>
 80009f8:	ea95 0f0c 	teq	r5, ip
 80009fc:	d106      	bne.n	8000a0c <__aeabi_ddiv+0x1b0>
 80009fe:	ea52 3503 	orrs.w	r5, r2, r3, lsl #12
 8000a02:	f43f aefd 	beq.w	8000800 <__aeabi_dmul+0x1f8>
 8000a06:	4610      	mov	r0, r2
 8000a08:	4619      	mov	r1, r3
 8000a0a:	e722      	b.n	8000852 <__aeabi_dmul+0x24a>
 8000a0c:	ea50 0641 	orrs.w	r6, r0, r1, lsl #1
 8000a10:	bf18      	it	ne
 8000a12:	ea52 0643 	orrsne.w	r6, r2, r3, lsl #1
 8000a16:	f47f aec5 	bne.w	80007a4 <__aeabi_dmul+0x19c>
 8000a1a:	ea50 0441 	orrs.w	r4, r0, r1, lsl #1
 8000a1e:	f47f af0d 	bne.w	800083c <__aeabi_dmul+0x234>
 8000a22:	ea52 0543 	orrs.w	r5, r2, r3, lsl #1
 8000a26:	f47f aeeb 	bne.w	8000800 <__aeabi_dmul+0x1f8>
 8000a2a:	e712      	b.n	8000852 <__aeabi_dmul+0x24a>

08000a2c <__gedf2>:
 8000a2c:	f04f 3cff 	mov.w	ip, #4294967295
 8000a30:	e006      	b.n	8000a40 <__cmpdf2+0x4>
 8000a32:	bf00      	nop

08000a34 <__ledf2>:
 8000a34:	f04f 0c01 	mov.w	ip, #1
 8000a38:	e002      	b.n	8000a40 <__cmpdf2+0x4>
 8000a3a:	bf00      	nop

08000a3c <__cmpdf2>:
 8000a3c:	f04f 0c01 	mov.w	ip, #1
 8000a40:	f84d cd04 	str.w	ip, [sp, #-4]!
 8000a44:	ea4f 0c41 	mov.w	ip, r1, lsl #1
 8000a48:	ea7f 5c6c 	mvns.w	ip, ip, asr #21
 8000a4c:	ea4f 0c43 	mov.w	ip, r3, lsl #1
 8000a50:	bf18      	it	ne
 8000a52:	ea7f 5c6c 	mvnsne.w	ip, ip, asr #21
 8000a56:	d01b      	beq.n	8000a90 <__cmpdf2+0x54>
 8000a58:	b001      	add	sp, #4
 8000a5a:	ea50 0c41 	orrs.w	ip, r0, r1, lsl #1
 8000a5e:	bf0c      	ite	eq
 8000a60:	ea52 0c43 	orrseq.w	ip, r2, r3, lsl #1
 8000a64:	ea91 0f03 	teqne	r1, r3
 8000a68:	bf02      	ittt	eq
 8000a6a:	ea90 0f02 	teqeq	r0, r2
 8000a6e:	2000      	moveq	r0, #0
 8000a70:	4770      	bxeq	lr
 8000a72:	f110 0f00 	cmn.w	r0, #0
 8000a76:	ea91 0f03 	teq	r1, r3
 8000a7a:	bf58      	it	pl
 8000a7c:	4299      	cmppl	r1, r3
 8000a7e:	bf08      	it	eq
 8000a80:	4290      	cmpeq	r0, r2
 8000a82:	bf2c      	ite	cs
 8000a84:	17d8      	asrcs	r0, r3, #31
 8000a86:	ea6f 70e3 	mvncc.w	r0, r3, asr #31
 8000a8a:	f040 0001 	orr.w	r0, r0, #1
 8000a8e:	4770      	bx	lr
 8000a90:	ea4f 0c41 	mov.w	ip, r1, lsl #1
 8000a94:	ea7f 5c6c 	mvns.w	ip, ip, asr #21
 8000a98:	d102      	bne.n	8000aa0 <__cmpdf2+0x64>
 8000a9a:	ea50 3c01 	orrs.w	ip, r0, r1, lsl #12
 8000a9e:	d107      	bne.n	8000ab0 <__cmpdf2+0x74>
 8000aa0:	ea4f 0c43 	mov.w	ip, r3, lsl #1
 8000aa4:	ea7f 5c6c 	mvns.w	ip, ip, asr #21
 8000aa8:	d1d6      	bne.n	8000a58 <__cmpdf2+0x1c>
 8000aaa:	ea52 3c03 	orrs.w	ip, r2, r3, lsl #12
 8000aae:	d0d3      	beq.n	8000a58 <__cmpdf2+0x1c>
 8000ab0:	f85d 0b04 	ldr.w	r0, [sp], #4
 8000ab4:	4770      	bx	lr
 8000ab6:	bf00      	nop

08000ab8 <__aeabi_cdrcmple>:
 8000ab8:	4684      	mov	ip, r0
 8000aba:	4610      	mov	r0, r2
 8000abc:	4662      	mov	r2, ip
 8000abe:	468c      	mov	ip, r1
 8000ac0:	4619      	mov	r1, r3
 8000ac2:	4663      	mov	r3, ip
 8000ac4:	e000      	b.n	8000ac8 <__aeabi_cdcmpeq>
 8000ac6:	bf00      	nop

08000ac8 <__aeabi_cdcmpeq>:
 8000ac8:	b501      	push	{r0, lr}
 8000aca:	f7ff ffb7 	bl	8000a3c <__cmpdf2>
 8000ace:	2800      	cmp	r0, #0
 8000ad0:	bf48      	it	mi
 8000ad2:	f110 0f00 	cmnmi.w	r0, #0
 8000ad6:	bd01      	pop	{r0, pc}

08000ad8 <__aeabi_dcmpeq>:
 8000ad8:	f84d ed08 	str.w	lr, [sp, #-8]!
 8000adc:	f7ff fff4 	bl	8000ac8 <__aeabi_cdcmpeq>
 8000ae0:	bf0c      	ite	eq
 8000ae2:	2001      	moveq	r0, #1
 8000ae4:	2000      	movne	r0, #0
 8000ae6:	f85d fb08 	ldr.w	pc, [sp], #8
 8000aea:	bf00      	nop

08000aec <__aeabi_dcmplt>:
 8000aec:	f84d ed08 	str.w	lr, [sp, #-8]!
 8000af0:	f7ff ffea 	bl	8000ac8 <__aeabi_cdcmpeq>
 8000af4:	bf34      	ite	cc
 8000af6:	2001      	movcc	r0, #1
 8000af8:	2000      	movcs	r0, #0
 8000afa:	f85d fb08 	ldr.w	pc, [sp], #8
 8000afe:	bf00      	nop

08000b00 <__aeabi_dcmple>:
 8000b00:	f84d ed08 	str.w	lr, [sp, #-8]!
 8000b04:	f7ff ffe0 	bl	8000ac8 <__aeabi_cdcmpeq>
 8000b08:	bf94      	ite	ls
 8000b0a:	2001      	movls	r0, #1
 8000b0c:	2000      	movhi	r0, #0
 8000b0e:	f85d fb08 	ldr.w	pc, [sp], #8
 8000b12:	bf00      	nop

08000b14 <__aeabi_dcmpge>:
 8000b14:	f84d ed08 	str.w	lr, [sp, #-8]!
 8000b18:	f7ff ffce 	bl	8000ab8 <__aeabi_cdrcmple>
 8000b1c:	bf94      	ite	ls
 8000b1e:	2001      	movls	r0, #1
 8000b20:	2000      	movhi	r0, #0
 8000b22:	f85d fb08 	ldr.w	pc, [sp], #8
 8000b26:	bf00      	nop

08000b28 <__aeabi_dcmpgt>:
 8000b28:	f84d ed08 	str.w	lr, [sp, #-8]!
 8000b2c:	f7ff ffc4 	bl	8000ab8 <__aeabi_cdrcmple>
 8000b30:	bf34      	ite	cc
 8000b32:	2001      	movcc	r0, #1
 8000b34:	2000      	movcs	r0, #0
 8000b36:	f85d fb08 	ldr.w	pc, [sp], #8
 8000b3a:	bf00      	nop

08000b3c <__aeabi_dcmpun>:
 8000b3c:	ea4f 0c41 	mov.w	ip, r1, lsl #1
 8000b40:	ea7f 5c6c 	mvns.w	ip, ip, asr #21
 8000b44:	d102      	bne.n	8000b4c <__aeabi_dcmpun+0x10>
 8000b46:	ea50 3c01 	orrs.w	ip, r0, r1, lsl #12
 8000b4a:	d10a      	bne.n	8000b62 <__aeabi_dcmpun+0x26>
 8000b4c:	ea4f 0c43 	mov.w	ip, r3, lsl #1
 8000b50:	ea7f 5c6c 	mvns.w	ip, ip, asr #21
 8000b54:	d102      	bne.n	8000b5c <__aeabi_dcmpun+0x20>
 8000b56:	ea52 3c03 	orrs.w	ip, r2, r3, lsl #12
 8000b5a:	d102      	bne.n	8000b62 <__aeabi_dcmpun+0x26>
 8000b5c:	f04f 0000 	mov.w	r0, #0
 8000b60:	4770      	bx	lr
 8000b62:	f04f 0001 	mov.w	r0, #1
 8000b66:	4770      	bx	lr

08000b68 <__aeabi_d2iz>:
 8000b68:	ea4f 0241 	mov.w	r2, r1, lsl #1
 8000b6c:	f512 1200 	adds.w	r2, r2, #2097152	; 0x200000
 8000b70:	d215      	bcs.n	8000b9e <__aeabi_d2iz+0x36>
 8000b72:	d511      	bpl.n	8000b98 <__aeabi_d2iz+0x30>
 8000b74:	f46f 7378 	mvn.w	r3, #992	; 0x3e0
 8000b78:	ebb3 5262 	subs.w	r2, r3, r2, asr #21
 8000b7c:	d912      	bls.n	8000ba4 <__aeabi_d2iz+0x3c>
 8000b7e:	ea4f 23c1 	mov.w	r3, r1, lsl #11
 8000b82:	f043 4300 	orr.w	r3, r3, #2147483648	; 0x80000000
 8000b86:	ea43 5350 	orr.w	r3, r3, r0, lsr #21
 8000b8a:	f011 4f00 	tst.w	r1, #2147483648	; 0x80000000
 8000b8e:	fa23 f002 	lsr.w	r0, r3, r2
 8000b92:	bf18      	it	ne
 8000b94:	4240      	negne	r0, r0
 8000b96:	4770      	bx	lr
 8000b98:	f04f 0000 	mov.w	r0, #0
 8000b9c:	4770      	bx	lr
 8000b9e:	ea50 3001 	orrs.w	r0, r0, r1, lsl #12
 8000ba2:	d105      	bne.n	8000bb0 <__aeabi_d2iz+0x48>
 8000ba4:	f011 4000 	ands.w	r0, r1, #2147483648	; 0x80000000
 8000ba8:	bf08      	it	eq
 8000baa:	f06f 4000 	mvneq.w	r0, #2147483648	; 0x80000000
 8000bae:	4770      	bx	lr
 8000bb0:	f04f 0000 	mov.w	r0, #0
 8000bb4:	4770      	bx	lr
 8000bb6:	bf00      	nop

08000bb8 <__aeabi_d2uiz>:
 8000bb8:	004a      	lsls	r2, r1, #1
 8000bba:	d211      	bcs.n	8000be0 <__aeabi_d2uiz+0x28>
 8000bbc:	f512 1200 	adds.w	r2, r2, #2097152	; 0x200000
 8000bc0:	d211      	bcs.n	8000be6 <__aeabi_d2uiz+0x2e>
 8000bc2:	d50d      	bpl.n	8000be0 <__aeabi_d2uiz+0x28>
 8000bc4:	f46f 7378 	mvn.w	r3, #992	; 0x3e0
 8000bc8:	ebb3 5262 	subs.w	r2, r3, r2, asr #21
 8000bcc:	d40e      	bmi.n	8000bec <__aeabi_d2uiz+0x34>
 8000bce:	ea4f 23c1 	mov.w	r3, r1, lsl #11
 8000bd2:	f043 4300 	orr.w	r3, r3, #2147483648	; 0x80000000
 8000bd6:	ea43 5350 	orr.w	r3, r3, r0, lsr #21
 8000bda:	fa23 f002 	lsr.w	r0, r3, r2
 8000bde:	4770      	bx	lr
 8000be0:	f04f 0000 	mov.w	r0, #0
 8000be4:	4770      	bx	lr
 8000be6:	ea50 3001 	orrs.w	r0, r0, r1, lsl #12
 8000bea:	d102      	bne.n	8000bf2 <__aeabi_d2uiz+0x3a>
 8000bec:	f04f 30ff 	mov.w	r0, #4294967295
 8000bf0:	4770      	bx	lr
 8000bf2:	f04f 0000 	mov.w	r0, #0
 8000bf6:	4770      	bx	lr

08000bf8 <__aeabi_d2f>:
 8000bf8:	ea4f 0241 	mov.w	r2, r1, lsl #1
 8000bfc:	f1b2 43e0 	subs.w	r3, r2, #1879048192	; 0x70000000
 8000c00:	bf24      	itt	cs
 8000c02:	f5b3 1c00 	subscs.w	ip, r3, #2097152	; 0x200000
 8000c06:	f1dc 5cfe 	rsbscs	ip, ip, #532676608	; 0x1fc00000
 8000c0a:	d90d      	bls.n	8000c28 <__aeabi_d2f+0x30>
 8000c0c:	f001 4c00 	and.w	ip, r1, #2147483648	; 0x80000000
 8000c10:	ea4f 02c0 	mov.w	r2, r0, lsl #3
 8000c14:	ea4c 7050 	orr.w	r0, ip, r0, lsr #29
 8000c18:	f1b2 4f00 	cmp.w	r2, #2147483648	; 0x80000000
 8000c1c:	eb40 0083 	adc.w	r0, r0, r3, lsl #2
 8000c20:	bf08      	it	eq
 8000c22:	f020 0001 	biceq.w	r0, r0, #1
 8000c26:	4770      	bx	lr
 8000c28:	f011 4f80 	tst.w	r1, #1073741824	; 0x40000000
 8000c2c:	d121      	bne.n	8000c72 <__aeabi_d2f+0x7a>
 8000c2e:	f113 7238 	adds.w	r2, r3, #48234496	; 0x2e00000
 8000c32:	bfbc      	itt	lt
 8000c34:	f001 4000 	andlt.w	r0, r1, #2147483648	; 0x80000000
 8000c38:	4770      	bxlt	lr
 8000c3a:	f441 1180 	orr.w	r1, r1, #1048576	; 0x100000
 8000c3e:	ea4f 5252 	mov.w	r2, r2, lsr #21
 8000c42:	f1c2 0218 	rsb	r2, r2, #24
 8000c46:	f1c2 0c20 	rsb	ip, r2, #32
 8000c4a:	fa10 f30c 	lsls.w	r3, r0, ip
 8000c4e:	fa20 f002 	lsr.w	r0, r0, r2
 8000c52:	bf18      	it	ne
 8000c54:	f040 0001 	orrne.w	r0, r0, #1
 8000c58:	ea4f 23c1 	mov.w	r3, r1, lsl #11
 8000c5c:	ea4f 23d3 	mov.w	r3, r3, lsr #11
 8000c60:	fa03 fc0c 	lsl.w	ip, r3, ip
 8000c64:	ea40 000c 	orr.w	r0, r0, ip
 8000c68:	fa23 f302 	lsr.w	r3, r3, r2
 8000c6c:	ea4f 0343 	mov.w	r3, r3, lsl #1
 8000c70:	e7cc      	b.n	8000c0c <__aeabi_d2f+0x14>
 8000c72:	ea7f 5362 	mvns.w	r3, r2, asr #21
 8000c76:	d107      	bne.n	8000c88 <__aeabi_d2f+0x90>
 8000c78:	ea50 3301 	orrs.w	r3, r0, r1, lsl #12
 8000c7c:	bf1e      	ittt	ne
 8000c7e:	f04f 40fe 	movne.w	r0, #2130706432	; 0x7f000000
 8000c82:	f440 0040 	orrne.w	r0, r0, #12582912	; 0xc00000
 8000c86:	4770      	bxne	lr
 8000c88:	f001 4000 	and.w	r0, r1, #2147483648	; 0x80000000
 8000c8c:	f040 40fe 	orr.w	r0, r0, #2130706432	; 0x7f000000
 8000c90:	f440 0000 	orr.w	r0, r0, #8388608	; 0x800000
 8000c94:	4770      	bx	lr
 8000c96:	bf00      	nop

08000c98 <__aeabi_uldivmod>:
 8000c98:	b953      	cbnz	r3, 8000cb0 <__aeabi_uldivmod+0x18>
 8000c9a:	b94a      	cbnz	r2, 8000cb0 <__aeabi_uldivmod+0x18>
 8000c9c:	2900      	cmp	r1, #0
 8000c9e:	bf08      	it	eq
 8000ca0:	2800      	cmpeq	r0, #0
 8000ca2:	bf1c      	itt	ne
 8000ca4:	f04f 31ff 	movne.w	r1, #4294967295
 8000ca8:	f04f 30ff 	movne.w	r0, #4294967295
 8000cac:	f000 b972 	b.w	8000f94 <__aeabi_idiv0>
 8000cb0:	f1ad 0c08 	sub.w	ip, sp, #8
 8000cb4:	e96d ce04 	strd	ip, lr, [sp, #-16]!
 8000cb8:	f000 f806 	bl	8000cc8 <__udivmoddi4>
 8000cbc:	f8dd e004 	ldr.w	lr, [sp, #4]
 8000cc0:	e9dd 2302 	ldrd	r2, r3, [sp, #8]
 8000cc4:	b004      	add	sp, #16
 8000cc6:	4770      	bx	lr

08000cc8 <__udivmoddi4>:
 8000cc8:	e92d 47f0 	stmdb	sp!, {r4, r5, r6, r7, r8, r9, sl, lr}
 8000ccc:	9e08      	ldr	r6, [sp, #32]
 8000cce:	4604      	mov	r4, r0
 8000cd0:	4688      	mov	r8, r1
 8000cd2:	2b00      	cmp	r3, #0
 8000cd4:	d14b      	bne.n	8000d6e <__udivmoddi4+0xa6>
 8000cd6:	428a      	cmp	r2, r1
 8000cd8:	4615      	mov	r5, r2
 8000cda:	d967      	bls.n	8000dac <__udivmoddi4+0xe4>
 8000cdc:	fab2 f282 	clz	r2, r2
 8000ce0:	b14a      	cbz	r2, 8000cf6 <__udivmoddi4+0x2e>
 8000ce2:	f1c2 0720 	rsb	r7, r2, #32
 8000ce6:	fa01 f302 	lsl.w	r3, r1, r2
 8000cea:	fa20 f707 	lsr.w	r7, r0, r7
 8000cee:	4095      	lsls	r5, r2
 8000cf0:	ea47 0803 	orr.w	r8, r7, r3
 8000cf4:	4094      	lsls	r4, r2
 8000cf6:	ea4f 4e15 	mov.w	lr, r5, lsr #16
 8000cfa:	0c23      	lsrs	r3, r4, #16
 8000cfc:	fbb8 f7fe 	udiv	r7, r8, lr
 8000d00:	fa1f fc85 	uxth.w	ip, r5
 8000d04:	fb0e 8817 	mls	r8, lr, r7, r8
 8000d08:	ea43 4308 	orr.w	r3, r3, r8, lsl #16
 8000d0c:	fb07 f10c 	mul.w	r1, r7, ip
 8000d10:	4299      	cmp	r1, r3
 8000d12:	d909      	bls.n	8000d28 <__udivmoddi4+0x60>
 8000d14:	18eb      	adds	r3, r5, r3
 8000d16:	f107 30ff 	add.w	r0, r7, #4294967295
 8000d1a:	f080 811b 	bcs.w	8000f54 <__udivmoddi4+0x28c>
 8000d1e:	4299      	cmp	r1, r3
 8000d20:	f240 8118 	bls.w	8000f54 <__udivmoddi4+0x28c>
 8000d24:	3f02      	subs	r7, #2
 8000d26:	442b      	add	r3, r5
 8000d28:	1a5b      	subs	r3, r3, r1
 8000d2a:	b2a4      	uxth	r4, r4
 8000d2c:	fbb3 f0fe 	udiv	r0, r3, lr
 8000d30:	fb0e 3310 	mls	r3, lr, r0, r3
 8000d34:	ea44 4403 	orr.w	r4, r4, r3, lsl #16
 8000d38:	fb00 fc0c 	mul.w	ip, r0, ip
 8000d3c:	45a4      	cmp	ip, r4
 8000d3e:	d909      	bls.n	8000d54 <__udivmoddi4+0x8c>
 8000d40:	192c      	adds	r4, r5, r4
 8000d42:	f100 33ff 	add.w	r3, r0, #4294967295
 8000d46:	f080 8107 	bcs.w	8000f58 <__udivmoddi4+0x290>
 8000d4a:	45a4      	cmp	ip, r4
 8000d4c:	f240 8104 	bls.w	8000f58 <__udivmoddi4+0x290>
 8000d50:	3802      	subs	r0, #2
 8000d52:	442c      	add	r4, r5
 8000d54:	ea40 4007 	orr.w	r0, r0, r7, lsl #16
 8000d58:	eba4 040c 	sub.w	r4, r4, ip
 8000d5c:	2700      	movs	r7, #0
 8000d5e:	b11e      	cbz	r6, 8000d68 <__udivmoddi4+0xa0>
 8000d60:	40d4      	lsrs	r4, r2
 8000d62:	2300      	movs	r3, #0
 8000d64:	e9c6 4300 	strd	r4, r3, [r6]
 8000d68:	4639      	mov	r1, r7
 8000d6a:	e8bd 87f0 	ldmia.w	sp!, {r4, r5, r6, r7, r8, r9, sl, pc}
 8000d6e:	428b      	cmp	r3, r1
 8000d70:	d909      	bls.n	8000d86 <__udivmoddi4+0xbe>
 8000d72:	2e00      	cmp	r6, #0
 8000d74:	f000 80eb 	beq.w	8000f4e <__udivmoddi4+0x286>
 8000d78:	2700      	movs	r7, #0
 8000d7a:	e9c6 0100 	strd	r0, r1, [r6]
 8000d7e:	4638      	mov	r0, r7
 8000d80:	4639      	mov	r1, r7
 8000d82:	e8bd 87f0 	ldmia.w	sp!, {r4, r5, r6, r7, r8, r9, sl, pc}
 8000d86:	fab3 f783 	clz	r7, r3
 8000d8a:	2f00      	cmp	r7, #0
 8000d8c:	d147      	bne.n	8000e1e <__udivmoddi4+0x156>
 8000d8e:	428b      	cmp	r3, r1
 8000d90:	d302      	bcc.n	8000d98 <__udivmoddi4+0xd0>
 8000d92:	4282      	cmp	r2, r0
 8000d94:	f200 80fa 	bhi.w	8000f8c <__udivmoddi4+0x2c4>
 8000d98:	1a84      	subs	r4, r0, r2
 8000d9a:	eb61 0303 	sbc.w	r3, r1, r3
 8000d9e:	2001      	movs	r0, #1
 8000da0:	4698      	mov	r8, r3
 8000da2:	2e00      	cmp	r6, #0
 8000da4:	d0e0      	beq.n	8000d68 <__udivmoddi4+0xa0>
 8000da6:	e9c6 4800 	strd	r4, r8, [r6]
 8000daa:	e7dd      	b.n	8000d68 <__udivmoddi4+0xa0>
 8000dac:	b902      	cbnz	r2, 8000db0 <__udivmoddi4+0xe8>
 8000dae:	deff      	udf	#255	; 0xff
 8000db0:	fab2 f282 	clz	r2, r2
 8000db4:	2a00      	cmp	r2, #0
 8000db6:	f040 808f 	bne.w	8000ed8 <__udivmoddi4+0x210>
 8000dba:	1b49      	subs	r1, r1, r5
 8000dbc:	ea4f 4e15 	mov.w	lr, r5, lsr #16
 8000dc0:	fa1f f885 	uxth.w	r8, r5
 8000dc4:	2701      	movs	r7, #1
 8000dc6:	fbb1 fcfe 	udiv	ip, r1, lr
 8000dca:	0c23      	lsrs	r3, r4, #16
 8000dcc:	fb0e 111c 	mls	r1, lr, ip, r1
 8000dd0:	ea43 4301 	orr.w	r3, r3, r1, lsl #16
 8000dd4:	fb08 f10c 	mul.w	r1, r8, ip
 8000dd8:	4299      	cmp	r1, r3
 8000dda:	d907      	bls.n	8000dec <__udivmoddi4+0x124>
 8000ddc:	18eb      	adds	r3, r5, r3
 8000dde:	f10c 30ff 	add.w	r0, ip, #4294967295
 8000de2:	d202      	bcs.n	8000dea <__udivmoddi4+0x122>
 8000de4:	4299      	cmp	r1, r3
 8000de6:	f200 80cd 	bhi.w	8000f84 <__udivmoddi4+0x2bc>
 8000dea:	4684      	mov	ip, r0
 8000dec:	1a59      	subs	r1, r3, r1
 8000dee:	b2a3      	uxth	r3, r4
 8000df0:	fbb1 f0fe 	udiv	r0, r1, lr
 8000df4:	fb0e 1410 	mls	r4, lr, r0, r1
 8000df8:	ea43 4404 	orr.w	r4, r3, r4, lsl #16
 8000dfc:	fb08 f800 	mul.w	r8, r8, r0
 8000e00:	45a0      	cmp	r8, r4
 8000e02:	d907      	bls.n	8000e14 <__udivmoddi4+0x14c>
 8000e04:	192c      	adds	r4, r5, r4
 8000e06:	f100 33ff 	add.w	r3, r0, #4294967295
 8000e0a:	d202      	bcs.n	8000e12 <__udivmoddi4+0x14a>
 8000e0c:	45a0      	cmp	r8, r4
 8000e0e:	f200 80b6 	bhi.w	8000f7e <__udivmoddi4+0x2b6>
 8000e12:	4618      	mov	r0, r3
 8000e14:	eba4 0408 	sub.w	r4, r4, r8
 8000e18:	ea40 400c 	orr.w	r0, r0, ip, lsl #16
 8000e1c:	e79f      	b.n	8000d5e <__udivmoddi4+0x96>
 8000e1e:	f1c7 0c20 	rsb	ip, r7, #32
 8000e22:	40bb      	lsls	r3, r7
 8000e24:	fa22 fe0c 	lsr.w	lr, r2, ip
 8000e28:	ea4e 0e03 	orr.w	lr, lr, r3
 8000e2c:	fa01 f407 	lsl.w	r4, r1, r7
 8000e30:	fa20 f50c 	lsr.w	r5, r0, ip
 8000e34:	fa21 f30c 	lsr.w	r3, r1, ip
 8000e38:	ea4f 481e 	mov.w	r8, lr, lsr #16
 8000e3c:	4325      	orrs	r5, r4
 8000e3e:	fbb3 f9f8 	udiv	r9, r3, r8
 8000e42:	0c2c      	lsrs	r4, r5, #16
 8000e44:	fb08 3319 	mls	r3, r8, r9, r3
 8000e48:	fa1f fa8e 	uxth.w	sl, lr
 8000e4c:	ea44 4303 	orr.w	r3, r4, r3, lsl #16
 8000e50:	fb09 f40a 	mul.w	r4, r9, sl
 8000e54:	429c      	cmp	r4, r3
 8000e56:	fa02 f207 	lsl.w	r2, r2, r7
 8000e5a:	fa00 f107 	lsl.w	r1, r0, r7
 8000e5e:	d90b      	bls.n	8000e78 <__udivmoddi4+0x1b0>
 8000e60:	eb1e 0303 	adds.w	r3, lr, r3
 8000e64:	f109 30ff 	add.w	r0, r9, #4294967295
 8000e68:	f080 8087 	bcs.w	8000f7a <__udivmoddi4+0x2b2>
 8000e6c:	429c      	cmp	r4, r3
 8000e6e:	f240 8084 	bls.w	8000f7a <__udivmoddi4+0x2b2>
 8000e72:	f1a9 0902 	sub.w	r9, r9, #2
 8000e76:	4473      	add	r3, lr
 8000e78:	1b1b      	subs	r3, r3, r4
 8000e7a:	b2ad      	uxth	r5, r5
 8000e7c:	fbb3 f0f8 	udiv	r0, r3, r8
 8000e80:	fb08 3310 	mls	r3, r8, r0, r3
 8000e84:	ea45 4403 	orr.w	r4, r5, r3, lsl #16
 8000e88:	fb00 fa0a 	mul.w	sl, r0, sl
 8000e8c:	45a2      	cmp	sl, r4
 8000e8e:	d908      	bls.n	8000ea2 <__udivmoddi4+0x1da>
 8000e90:	eb1e 0404 	adds.w	r4, lr, r4
 8000e94:	f100 33ff 	add.w	r3, r0, #4294967295
 8000e98:	d26b      	bcs.n	8000f72 <__udivmoddi4+0x2aa>
 8000e9a:	45a2      	cmp	sl, r4
 8000e9c:	d969      	bls.n	8000f72 <__udivmoddi4+0x2aa>
 8000e9e:	3802      	subs	r0, #2
 8000ea0:	4474      	add	r4, lr
 8000ea2:	ea40 4009 	orr.w	r0, r0, r9, lsl #16
 8000ea6:	fba0 8902 	umull	r8, r9, r0, r2
 8000eaa:	eba4 040a 	sub.w	r4, r4, sl
 8000eae:	454c      	cmp	r4, r9
 8000eb0:	46c2      	mov	sl, r8
 8000eb2:	464b      	mov	r3, r9
 8000eb4:	d354      	bcc.n	8000f60 <__udivmoddi4+0x298>
 8000eb6:	d051      	beq.n	8000f5c <__udivmoddi4+0x294>
 8000eb8:	2e00      	cmp	r6, #0
 8000eba:	d069      	beq.n	8000f90 <__udivmoddi4+0x2c8>
 8000ebc:	ebb1 050a 	subs.w	r5, r1, sl
 8000ec0:	eb64 0403 	sbc.w	r4, r4, r3
 8000ec4:	fa04 fc0c 	lsl.w	ip, r4, ip
 8000ec8:	40fd      	lsrs	r5, r7
 8000eca:	40fc      	lsrs	r4, r7
 8000ecc:	ea4c 0505 	orr.w	r5, ip, r5
 8000ed0:	e9c6 5400 	strd	r5, r4, [r6]
 8000ed4:	2700      	movs	r7, #0
 8000ed6:	e747      	b.n	8000d68 <__udivmoddi4+0xa0>
 8000ed8:	f1c2 0320 	rsb	r3, r2, #32
 8000edc:	fa20 f703 	lsr.w	r7, r0, r3
 8000ee0:	4095      	lsls	r5, r2
 8000ee2:	fa01 f002 	lsl.w	r0, r1, r2
 8000ee6:	fa21 f303 	lsr.w	r3, r1, r3
 8000eea:	ea4f 4e15 	mov.w	lr, r5, lsr #16
 8000eee:	4338      	orrs	r0, r7
 8000ef0:	0c01      	lsrs	r1, r0, #16
 8000ef2:	fbb3 f7fe 	udiv	r7, r3, lr
 8000ef6:	fa1f f885 	uxth.w	r8, r5
 8000efa:	fb0e 3317 	mls	r3, lr, r7, r3
 8000efe:	ea41 4103 	orr.w	r1, r1, r3, lsl #16
 8000f02:	fb07 f308 	mul.w	r3, r7, r8
 8000f06:	428b      	cmp	r3, r1
 8000f08:	fa04 f402 	lsl.w	r4, r4, r2
 8000f0c:	d907      	bls.n	8000f1e <__udivmoddi4+0x256>
 8000f0e:	1869      	adds	r1, r5, r1
 8000f10:	f107 3cff 	add.w	ip, r7, #4294967295
 8000f14:	d22f      	bcs.n	8000f76 <__udivmoddi4+0x2ae>
 8000f16:	428b      	cmp	r3, r1
 8000f18:	d92d      	bls.n	8000f76 <__udivmoddi4+0x2ae>
 8000f1a:	3f02      	subs	r7, #2
 8000f1c:	4429      	add	r1, r5
 8000f1e:	1acb      	subs	r3, r1, r3
 8000f20:	b281      	uxth	r1, r0
 8000f22:	fbb3 f0fe 	udiv	r0, r3, lr
 8000f26:	fb0e 3310 	mls	r3, lr, r0, r3
 8000f2a:	ea41 4103 	orr.w	r1, r1, r3, lsl #16
 8000f2e:	fb00 f308 	mul.w	r3, r0, r8
 8000f32:	428b      	cmp	r3, r1
 8000f34:	d907      	bls.n	8000f46 <__udivmoddi4+0x27e>
 8000f36:	1869      	adds	r1, r5, r1
 8000f38:	f100 3cff 	add.w	ip, r0, #4294967295
 8000f3c:	d217      	bcs.n	8000f6e <__udivmoddi4+0x2a6>
 8000f3e:	428b      	cmp	r3, r1
 8000f40:	d915      	bls.n	8000f6e <__udivmoddi4+0x2a6>
 8000f42:	3802      	subs	r0, #2
 8000f44:	4429      	add	r1, r5
 8000f46:	1ac9      	subs	r1, r1, r3
 8000f48:	ea40 4707 	orr.w	r7, r0, r7, lsl #16
 8000f4c:	e73b      	b.n	8000dc6 <__udivmoddi4+0xfe>
 8000f4e:	4637      	mov	r7, r6
 8000f50:	4630      	mov	r0, r6
 8000f52:	e709      	b.n	8000d68 <__udivmoddi4+0xa0>
 8000f54:	4607      	mov	r7, r0
 8000f56:	e6e7      	b.n	8000d28 <__udivmoddi4+0x60>
 8000f58:	4618      	mov	r0, r3
 8000f5a:	e6fb      	b.n	8000d54 <__udivmoddi4+0x8c>
 8000f5c:	4541      	cmp	r1, r8
 8000f5e:	d2ab      	bcs.n	8000eb8 <__udivmoddi4+0x1f0>
 8000f60:	ebb8 0a02 	subs.w	sl, r8, r2
 8000f64:	eb69 020e 	sbc.w	r2, r9, lr
 8000f68:	3801      	subs	r0, #1
 8000f6a:	4613      	mov	r3, r2
 8000f6c:	e7a4      	b.n	8000eb8 <__udivmoddi4+0x1f0>
 8000f6e:	4660      	mov	r0, ip
 8000f70:	e7e9      	b.n	8000f46 <__udivmoddi4+0x27e>
 8000f72:	4618      	mov	r0, r3
 8000f74:	e795      	b.n	8000ea2 <__udivmoddi4+0x1da>
 8000f76:	4667      	mov	r7, ip
 8000f78:	e7d1      	b.n	8000f1e <__udivmoddi4+0x256>
 8000f7a:	4681      	mov	r9, r0
 8000f7c:	e77c      	b.n	8000e78 <__udivmoddi4+0x1b0>
 8000f7e:	3802      	subs	r0, #2
 8000f80:	442c      	add	r4, r5
 8000f82:	e747      	b.n	8000e14 <__udivmoddi4+0x14c>
 8000f84:	f1ac 0c02 	sub.w	ip, ip, #2
 8000f88:	442b      	add	r3, r5
 8000f8a:	e72f      	b.n	8000dec <__udivmoddi4+0x124>
 8000f8c:	4638      	mov	r0, r7
 8000f8e:	e708      	b.n	8000da2 <__udivmoddi4+0xda>
 8000f90:	4637      	mov	r7, r6
 8000f92:	e6e9      	b.n	8000d68 <__udivmoddi4+0xa0>

08000f94 <__aeabi_idiv0>:
 8000f94:	4770      	bx	lr
 8000f96:	bf00      	nop

08000f98 <GFX_SetFont>:
#if  USING_STRINGS == 1
const uint8_t* font;
uint8_t size = 1;

void GFX_SetFont(const uint8_t* font_t)
{
 8000f98:	b480      	push	{r7}
 8000f9a:	b083      	sub	sp, #12
 8000f9c:	af00      	add	r7, sp, #0
 8000f9e:	6078      	str	r0, [r7, #4]
	font = font_t;
 8000fa0:	4a04      	ldr	r2, [pc, #16]	; (8000fb4 <GFX_SetFont+0x1c>)
 8000fa2:	687b      	ldr	r3, [r7, #4]
 8000fa4:	6013      	str	r3, [r2, #0]
}
 8000fa6:	bf00      	nop
 8000fa8:	370c      	adds	r7, #12
 8000faa:	46bd      	mov	sp, r7
 8000fac:	f85d 7b04 	ldr.w	r7, [sp], #4
 8000fb0:	4770      	bx	lr
 8000fb2:	bf00      	nop
 8000fb4:	20004f14 	.word	0x20004f14

08000fb8 <GFX_DrawChar>:
{
	return size;
}

void GFX_DrawChar(int x, int y, char chr, uint8_t color, uint8_t background)
{
 8000fb8:	b590      	push	{r4, r7, lr}
 8000fba:	b089      	sub	sp, #36	; 0x24
 8000fbc:	af02      	add	r7, sp, #8
 8000fbe:	60f8      	str	r0, [r7, #12]
 8000fc0:	60b9      	str	r1, [r7, #8]
 8000fc2:	4611      	mov	r1, r2
 8000fc4:	461a      	mov	r2, r3
 8000fc6:	460b      	mov	r3, r1
 8000fc8:	71fb      	strb	r3, [r7, #7]
 8000fca:	4613      	mov	r3, r2
 8000fcc:	71bb      	strb	r3, [r7, #6]
	if(chr > 0x7E) return; // chr > '~'
 8000fce:	79fb      	ldrb	r3, [r7, #7]
 8000fd0:	2b7e      	cmp	r3, #126	; 0x7e
 8000fd2:	f200 80a3 	bhi.w	800111c <GFX_DrawChar+0x164>

	for(uint8_t i=0; i<font[1]; i++ ) // Each column (Width)
 8000fd6:	2300      	movs	r3, #0
 8000fd8:	75fb      	strb	r3, [r7, #23]
 8000fda:	e096      	b.n	800110a <GFX_DrawChar+0x152>
	{
        uint8_t line = (uint8_t)font[(chr-0x20) * font[1] + i + 2]; // Takie this line, (chr-0x20) = move 20 chars back,
 8000fdc:	4b51      	ldr	r3, [pc, #324]	; (8001124 <GFX_DrawChar+0x16c>)
 8000fde:	681a      	ldr	r2, [r3, #0]
 8000fe0:	79fb      	ldrb	r3, [r7, #7]
 8000fe2:	3b20      	subs	r3, #32
 8000fe4:	494f      	ldr	r1, [pc, #316]	; (8001124 <GFX_DrawChar+0x16c>)
 8000fe6:	6809      	ldr	r1, [r1, #0]
 8000fe8:	3101      	adds	r1, #1
 8000fea:	7809      	ldrb	r1, [r1, #0]
 8000fec:	fb01 f103 	mul.w	r1, r1, r3
 8000ff0:	7dfb      	ldrb	r3, [r7, #23]
 8000ff2:	440b      	add	r3, r1
 8000ff4:	3302      	adds	r3, #2
 8000ff6:	4413      	add	r3, r2
 8000ff8:	781b      	ldrb	r3, [r3, #0]
 8000ffa:	75bb      	strb	r3, [r7, #22]

        for(int8_t j=0; j<font[0]; j++, line >>= 1) // For each pixel in column
 8000ffc:	2300      	movs	r3, #0
 8000ffe:	757b      	strb	r3, [r7, #21]
 8001000:	e078      	b.n	80010f4 <GFX_DrawChar+0x13c>
        {
            if(line & 1) // Check last pixel in line
 8001002:	7dbb      	ldrb	r3, [r7, #22]
 8001004:	f003 0301 	and.w	r3, r3, #1
 8001008:	2b00      	cmp	r3, #0
 800100a:	d032      	beq.n	8001072 <GFX_DrawChar+0xba>
            {
            	if(size == 1)
 800100c:	4b46      	ldr	r3, [pc, #280]	; (8001128 <GFX_DrawChar+0x170>)
 800100e:	781b      	ldrb	r3, [r3, #0]
 8001010:	2b01      	cmp	r3, #1
 8001012:	d113      	bne.n	800103c <GFX_DrawChar+0x84>
            		GFX_DrawPixel(x+i, y+j, color); // Draw this pixel
 8001014:	7dfb      	ldrb	r3, [r7, #23]
 8001016:	b29a      	uxth	r2, r3
 8001018:	68fb      	ldr	r3, [r7, #12]
 800101a:	b29b      	uxth	r3, r3
 800101c:	4413      	add	r3, r2
 800101e:	b29b      	uxth	r3, r3
 8001020:	b218      	sxth	r0, r3
 8001022:	f997 3015 	ldrsb.w	r3, [r7, #21]
 8001026:	b29a      	uxth	r2, r3
 8001028:	68bb      	ldr	r3, [r7, #8]
 800102a:	b29b      	uxth	r3, r3
 800102c:	4413      	add	r3, r2
 800102e:	b29b      	uxth	r3, r3
 8001030:	b21b      	sxth	r3, r3
 8001032:	79ba      	ldrb	r2, [r7, #6]
 8001034:	4619      	mov	r1, r3
 8001036:	f000 f9cf 	bl	80013d8 <SSD1306_DrawPixel>
 800103a:	e052      	b.n	80010e2 <GFX_DrawChar+0x12a>
            	else
            		GFX_DrawFillRectangle(x+i*size, y+j*size, size, size, color); // Or bigger pixel
 800103c:	7dfb      	ldrb	r3, [r7, #23]
 800103e:	4a3a      	ldr	r2, [pc, #232]	; (8001128 <GFX_DrawChar+0x170>)
 8001040:	7812      	ldrb	r2, [r2, #0]
 8001042:	fb02 f203 	mul.w	r2, r2, r3
 8001046:	68fb      	ldr	r3, [r7, #12]
 8001048:	18d0      	adds	r0, r2, r3
 800104a:	f997 3015 	ldrsb.w	r3, [r7, #21]
 800104e:	4a36      	ldr	r2, [pc, #216]	; (8001128 <GFX_DrawChar+0x170>)
 8001050:	7812      	ldrb	r2, [r2, #0]
 8001052:	fb02 f203 	mul.w	r2, r2, r3
 8001056:	68bb      	ldr	r3, [r7, #8]
 8001058:	18d1      	adds	r1, r2, r3
 800105a:	4b33      	ldr	r3, [pc, #204]	; (8001128 <GFX_DrawChar+0x170>)
 800105c:	781b      	ldrb	r3, [r3, #0]
 800105e:	b29a      	uxth	r2, r3
 8001060:	4b31      	ldr	r3, [pc, #196]	; (8001128 <GFX_DrawChar+0x170>)
 8001062:	781b      	ldrb	r3, [r3, #0]
 8001064:	b29c      	uxth	r4, r3
 8001066:	79bb      	ldrb	r3, [r7, #6]
 8001068:	9300      	str	r3, [sp, #0]
 800106a:	4623      	mov	r3, r4
 800106c:	f000 f95d 	bl	800132a <GFX_DrawFillRectangle>
 8001070:	e037      	b.n	80010e2 <GFX_DrawChar+0x12a>
            }
            else if(background == 0)
 8001072:	f897 3028 	ldrb.w	r3, [r7, #40]	; 0x28
 8001076:	2b00      	cmp	r3, #0
 8001078:	d133      	bne.n	80010e2 <GFX_DrawChar+0x12a>
            {
            	if(size == 1)
 800107a:	4b2b      	ldr	r3, [pc, #172]	; (8001128 <GFX_DrawChar+0x170>)
 800107c:	781b      	ldrb	r3, [r3, #0]
 800107e:	2b01      	cmp	r3, #1
 8001080:	d114      	bne.n	80010ac <GFX_DrawChar+0xf4>
					GFX_DrawPixel(x+i, y+j, background); // Draw black BG
 8001082:	7dfb      	ldrb	r3, [r7, #23]
 8001084:	b29a      	uxth	r2, r3
 8001086:	68fb      	ldr	r3, [r7, #12]
 8001088:	b29b      	uxth	r3, r3
 800108a:	4413      	add	r3, r2
 800108c:	b29b      	uxth	r3, r3
 800108e:	b218      	sxth	r0, r3
 8001090:	f997 3015 	ldrsb.w	r3, [r7, #21]
 8001094:	b29a      	uxth	r2, r3
 8001096:	68bb      	ldr	r3, [r7, #8]
 8001098:	b29b      	uxth	r3, r3
 800109a:	4413      	add	r3, r2
 800109c:	b29b      	uxth	r3, r3
 800109e:	b21b      	sxth	r3, r3
 80010a0:	f897 2028 	ldrb.w	r2, [r7, #40]	; 0x28
 80010a4:	4619      	mov	r1, r3
 80010a6:	f000 f997 	bl	80013d8 <SSD1306_DrawPixel>
 80010aa:	e01a      	b.n	80010e2 <GFX_DrawChar+0x12a>
				else
					GFX_DrawFillRectangle(x+i*size, y+j*size, size, size, background); // Or bigger
 80010ac:	7dfb      	ldrb	r3, [r7, #23]
 80010ae:	4a1e      	ldr	r2, [pc, #120]	; (8001128 <GFX_DrawChar+0x170>)
 80010b0:	7812      	ldrb	r2, [r2, #0]
 80010b2:	fb02 f203 	mul.w	r2, r2, r3
 80010b6:	68fb      	ldr	r3, [r7, #12]
 80010b8:	18d0      	adds	r0, r2, r3
 80010ba:	f997 3015 	ldrsb.w	r3, [r7, #21]
 80010be:	4a1a      	ldr	r2, [pc, #104]	; (8001128 <GFX_DrawChar+0x170>)
 80010c0:	7812      	ldrb	r2, [r2, #0]
 80010c2:	fb02 f203 	mul.w	r2, r2, r3
 80010c6:	68bb      	ldr	r3, [r7, #8]
 80010c8:	18d1      	adds	r1, r2, r3
 80010ca:	4b17      	ldr	r3, [pc, #92]	; (8001128 <GFX_DrawChar+0x170>)
 80010cc:	781b      	ldrb	r3, [r3, #0]
 80010ce:	b29a      	uxth	r2, r3
 80010d0:	4b15      	ldr	r3, [pc, #84]	; (8001128 <GFX_DrawChar+0x170>)
 80010d2:	781b      	ldrb	r3, [r3, #0]
 80010d4:	b29c      	uxth	r4, r3
 80010d6:	f897 3028 	ldrb.w	r3, [r7, #40]	; 0x28
 80010da:	9300      	str	r3, [sp, #0]
 80010dc:	4623      	mov	r3, r4
 80010de:	f000 f924 	bl	800132a <GFX_DrawFillRectangle>
        for(int8_t j=0; j<font[0]; j++, line >>= 1) // For each pixel in column
 80010e2:	f997 3015 	ldrsb.w	r3, [r7, #21]
 80010e6:	b2db      	uxtb	r3, r3
 80010e8:	3301      	adds	r3, #1
 80010ea:	b2db      	uxtb	r3, r3
 80010ec:	757b      	strb	r3, [r7, #21]
 80010ee:	7dbb      	ldrb	r3, [r7, #22]
 80010f0:	085b      	lsrs	r3, r3, #1
 80010f2:	75bb      	strb	r3, [r7, #22]
 80010f4:	f997 3015 	ldrsb.w	r3, [r7, #21]
 80010f8:	4a0a      	ldr	r2, [pc, #40]	; (8001124 <GFX_DrawChar+0x16c>)
 80010fa:	6812      	ldr	r2, [r2, #0]
 80010fc:	7812      	ldrb	r2, [r2, #0]
 80010fe:	4293      	cmp	r3, r2
 8001100:	f6ff af7f 	blt.w	8001002 <GFX_DrawChar+0x4a>
	for(uint8_t i=0; i<font[1]; i++ ) // Each column (Width)
 8001104:	7dfb      	ldrb	r3, [r7, #23]
 8001106:	3301      	adds	r3, #1
 8001108:	75fb      	strb	r3, [r7, #23]
 800110a:	4b06      	ldr	r3, [pc, #24]	; (8001124 <GFX_DrawChar+0x16c>)
 800110c:	681b      	ldr	r3, [r3, #0]
 800110e:	3301      	adds	r3, #1
 8001110:	781b      	ldrb	r3, [r3, #0]
 8001112:	7dfa      	ldrb	r2, [r7, #23]
 8001114:	429a      	cmp	r2, r3
 8001116:	f4ff af61 	bcc.w	8000fdc <GFX_DrawChar+0x24>
 800111a:	e000      	b.n	800111e <GFX_DrawChar+0x166>
	if(chr > 0x7E) return; // chr > '~'
 800111c:	bf00      	nop
            }
        }
    }
}
 800111e:	371c      	adds	r7, #28
 8001120:	46bd      	mov	sp, r7
 8001122:	bd90      	pop	{r4, r7, pc}
 8001124:	20004f14 	.word	0x20004f14
 8001128:	20000000 	.word	0x20000000

0800112c <GFX_DrawString>:

void GFX_DrawString(int x, int y, char* str, uint8_t color, uint8_t background)
{
 800112c:	b580      	push	{r7, lr}
 800112e:	b088      	sub	sp, #32
 8001130:	af02      	add	r7, sp, #8
 8001132:	60f8      	str	r0, [r7, #12]
 8001134:	60b9      	str	r1, [r7, #8]
 8001136:	607a      	str	r2, [r7, #4]
 8001138:	70fb      	strb	r3, [r7, #3]
	int x_tmp = x;
 800113a:	68fb      	ldr	r3, [r7, #12]
 800113c:	617b      	str	r3, [r7, #20]

	char znak;
	znak = *str;
 800113e:	687b      	ldr	r3, [r7, #4]
 8001140:	781b      	ldrb	r3, [r3, #0]
 8001142:	74fb      	strb	r3, [r7, #19]

	while(*str++)
 8001144:	e03e      	b.n	80011c4 <GFX_DrawString+0x98>
	{
		GFX_DrawChar(x_tmp, y, znak, color, background); // Draw current char
 8001146:	78f9      	ldrb	r1, [r7, #3]
 8001148:	7cfa      	ldrb	r2, [r7, #19]
 800114a:	f897 3020 	ldrb.w	r3, [r7, #32]
 800114e:	9300      	str	r3, [sp, #0]
 8001150:	460b      	mov	r3, r1
 8001152:	68b9      	ldr	r1, [r7, #8]
 8001154:	6978      	ldr	r0, [r7, #20]
 8001156:	f7ff ff2f 	bl	8000fb8 <GFX_DrawChar>

		x_tmp += ((uint8_t)font[1] * size) + 1; // Move X drawing pointer do char width + 1 (space)
 800115a:	4b1f      	ldr	r3, [pc, #124]	; (80011d8 <GFX_DrawString+0xac>)
 800115c:	681b      	ldr	r3, [r3, #0]
 800115e:	3301      	adds	r3, #1
 8001160:	781b      	ldrb	r3, [r3, #0]
 8001162:	461a      	mov	r2, r3
 8001164:	4b1d      	ldr	r3, [pc, #116]	; (80011dc <GFX_DrawString+0xb0>)
 8001166:	781b      	ldrb	r3, [r3, #0]
 8001168:	fb03 f302 	mul.w	r3, r3, r2
 800116c:	3301      	adds	r3, #1
 800116e:	697a      	ldr	r2, [r7, #20]
 8001170:	4413      	add	r3, r2
 8001172:	617b      	str	r3, [r7, #20]

		if(background == 0) // Draw black space if needed
 8001174:	f897 3020 	ldrb.w	r3, [r7, #32]
 8001178:	2b00      	cmp	r3, #0
 800117a:	d120      	bne.n	80011be <GFX_DrawString+0x92>
		{
			for(uint8_t i=0; i<(font[0]*size); i++)
 800117c:	2300      	movs	r3, #0
 800117e:	74bb      	strb	r3, [r7, #18]
 8001180:	e012      	b.n	80011a8 <GFX_DrawString+0x7c>
			{
				GFX_DrawPixel(x_tmp-1, y+i, PIXEL_BLACK);
 8001182:	697b      	ldr	r3, [r7, #20]
 8001184:	b29b      	uxth	r3, r3
 8001186:	3b01      	subs	r3, #1
 8001188:	b29b      	uxth	r3, r3
 800118a:	b218      	sxth	r0, r3
 800118c:	7cbb      	ldrb	r3, [r7, #18]
 800118e:	b29a      	uxth	r2, r3
 8001190:	68bb      	ldr	r3, [r7, #8]
 8001192:	b29b      	uxth	r3, r3
 8001194:	4413      	add	r3, r2
 8001196:	b29b      	uxth	r3, r3
 8001198:	b21b      	sxth	r3, r3
 800119a:	2200      	movs	r2, #0
 800119c:	4619      	mov	r1, r3
 800119e:	f000 f91b 	bl	80013d8 <SSD1306_DrawPixel>
			for(uint8_t i=0; i<(font[0]*size); i++)
 80011a2:	7cbb      	ldrb	r3, [r7, #18]
 80011a4:	3301      	adds	r3, #1
 80011a6:	74bb      	strb	r3, [r7, #18]
 80011a8:	7cba      	ldrb	r2, [r7, #18]
 80011aa:	4b0b      	ldr	r3, [pc, #44]	; (80011d8 <GFX_DrawString+0xac>)
 80011ac:	681b      	ldr	r3, [r3, #0]
 80011ae:	781b      	ldrb	r3, [r3, #0]
 80011b0:	4619      	mov	r1, r3
 80011b2:	4b0a      	ldr	r3, [pc, #40]	; (80011dc <GFX_DrawString+0xb0>)
 80011b4:	781b      	ldrb	r3, [r3, #0]
 80011b6:	fb03 f301 	mul.w	r3, r3, r1
 80011ba:	429a      	cmp	r2, r3
 80011bc:	dbe1      	blt.n	8001182 <GFX_DrawString+0x56>
			}
		}

		znak = *str; // Next char
 80011be:	687b      	ldr	r3, [r7, #4]
 80011c0:	781b      	ldrb	r3, [r3, #0]
 80011c2:	74fb      	strb	r3, [r7, #19]
	while(*str++)
 80011c4:	687b      	ldr	r3, [r7, #4]
 80011c6:	1c5a      	adds	r2, r3, #1
 80011c8:	607a      	str	r2, [r7, #4]
 80011ca:	781b      	ldrb	r3, [r3, #0]
 80011cc:	2b00      	cmp	r3, #0
 80011ce:	d1ba      	bne.n	8001146 <GFX_DrawString+0x1a>
	}
}
 80011d0:	bf00      	nop
 80011d2:	3718      	adds	r7, #24
 80011d4:	46bd      	mov	sp, r7
 80011d6:	bd80      	pop	{r7, pc}
 80011d8:	20004f14 	.word	0x20004f14
 80011dc:	20000000 	.word	0x20000000

080011e0 <GFX_WriteLine>:
#endif
#if USING_LINES == 1
void GFX_WriteLine(int x_start, int y_start, int x_end, int y_end, uint8_t color)
{
 80011e0:	b580      	push	{r7, lr}
 80011e2:	b08c      	sub	sp, #48	; 0x30
 80011e4:	af00      	add	r7, sp, #0
 80011e6:	60f8      	str	r0, [r7, #12]
 80011e8:	60b9      	str	r1, [r7, #8]
 80011ea:	607a      	str	r2, [r7, #4]
 80011ec:	603b      	str	r3, [r7, #0]
	int16_t steep = abs(y_end - y_start) > abs(x_end - x_start);
 80011ee:	683a      	ldr	r2, [r7, #0]
 80011f0:	68bb      	ldr	r3, [r7, #8]
 80011f2:	1ad3      	subs	r3, r2, r3
 80011f4:	ea83 72e3 	eor.w	r2, r3, r3, asr #31
 80011f8:	eba2 72e3 	sub.w	r2, r2, r3, asr #31
 80011fc:	6879      	ldr	r1, [r7, #4]
 80011fe:	68fb      	ldr	r3, [r7, #12]
 8001200:	1acb      	subs	r3, r1, r3
 8001202:	2b00      	cmp	r3, #0
 8001204:	bfb8      	it	lt
 8001206:	425b      	neglt	r3, r3
 8001208:	429a      	cmp	r2, r3
 800120a:	bfcc      	ite	gt
 800120c:	2301      	movgt	r3, #1
 800120e:	2300      	movle	r3, #0
 8001210:	b2db      	uxtb	r3, r3
 8001212:	857b      	strh	r3, [r7, #42]	; 0x2a

	    if (steep) {
 8001214:	f9b7 302a 	ldrsh.w	r3, [r7, #42]	; 0x2a
 8001218:	2b00      	cmp	r3, #0
 800121a:	d00b      	beq.n	8001234 <GFX_WriteLine+0x54>
	        _swap_int(x_start, y_start);
 800121c:	68fb      	ldr	r3, [r7, #12]
 800121e:	627b      	str	r3, [r7, #36]	; 0x24
 8001220:	68bb      	ldr	r3, [r7, #8]
 8001222:	60fb      	str	r3, [r7, #12]
 8001224:	6a7b      	ldr	r3, [r7, #36]	; 0x24
 8001226:	60bb      	str	r3, [r7, #8]
	        _swap_int(x_end, y_end);
 8001228:	687b      	ldr	r3, [r7, #4]
 800122a:	623b      	str	r3, [r7, #32]
 800122c:	683b      	ldr	r3, [r7, #0]
 800122e:	607b      	str	r3, [r7, #4]
 8001230:	6a3b      	ldr	r3, [r7, #32]
 8001232:	603b      	str	r3, [r7, #0]
	    }

	    if (x_start > x_end) {
 8001234:	68fa      	ldr	r2, [r7, #12]
 8001236:	687b      	ldr	r3, [r7, #4]
 8001238:	429a      	cmp	r2, r3
 800123a:	dd0b      	ble.n	8001254 <GFX_WriteLine+0x74>
	        _swap_int(x_start, x_end);
 800123c:	68fb      	ldr	r3, [r7, #12]
 800123e:	61fb      	str	r3, [r7, #28]
 8001240:	687b      	ldr	r3, [r7, #4]
 8001242:	60fb      	str	r3, [r7, #12]
 8001244:	69fb      	ldr	r3, [r7, #28]
 8001246:	607b      	str	r3, [r7, #4]
	        _swap_int(y_start, y_end);
 8001248:	68bb      	ldr	r3, [r7, #8]
 800124a:	61bb      	str	r3, [r7, #24]
 800124c:	683b      	ldr	r3, [r7, #0]
 800124e:	60bb      	str	r3, [r7, #8]
 8001250:	69bb      	ldr	r3, [r7, #24]
 8001252:	603b      	str	r3, [r7, #0]
	    }

	    int16_t dx, dy;
	    dx = x_end - x_start;
 8001254:	687b      	ldr	r3, [r7, #4]
 8001256:	b29a      	uxth	r2, r3
 8001258:	68fb      	ldr	r3, [r7, #12]
 800125a:	b29b      	uxth	r3, r3
 800125c:	1ad3      	subs	r3, r2, r3
 800125e:	b29b      	uxth	r3, r3
 8001260:	82fb      	strh	r3, [r7, #22]
	    dy = abs(y_end - y_start);
 8001262:	683a      	ldr	r2, [r7, #0]
 8001264:	68bb      	ldr	r3, [r7, #8]
 8001266:	1ad3      	subs	r3, r2, r3
 8001268:	2b00      	cmp	r3, #0
 800126a:	bfb8      	it	lt
 800126c:	425b      	neglt	r3, r3
 800126e:	82bb      	strh	r3, [r7, #20]

	    int16_t err = dx / 2;
 8001270:	f9b7 3016 	ldrsh.w	r3, [r7, #22]
 8001274:	0fda      	lsrs	r2, r3, #31
 8001276:	4413      	add	r3, r2
 8001278:	105b      	asrs	r3, r3, #1
 800127a:	85fb      	strh	r3, [r7, #46]	; 0x2e
	    int16_t ystep;

	    if (y_start < y_end) {
 800127c:	68ba      	ldr	r2, [r7, #8]
 800127e:	683b      	ldr	r3, [r7, #0]
 8001280:	429a      	cmp	r2, r3
 8001282:	da02      	bge.n	800128a <GFX_WriteLine+0xaa>
	        ystep = 1;
 8001284:	2301      	movs	r3, #1
 8001286:	85bb      	strh	r3, [r7, #44]	; 0x2c
 8001288:	e030      	b.n	80012ec <GFX_WriteLine+0x10c>
	    } else {
	        ystep = -1;
 800128a:	f64f 73ff 	movw	r3, #65535	; 0xffff
 800128e:	85bb      	strh	r3, [r7, #44]	; 0x2c
	    }

	    for (; x_start<=x_end; x_start++) {
 8001290:	e02c      	b.n	80012ec <GFX_WriteLine+0x10c>
	        if (steep) {
 8001292:	f9b7 302a 	ldrsh.w	r3, [r7, #42]	; 0x2a
 8001296:	2b00      	cmp	r3, #0
 8001298:	d009      	beq.n	80012ae <GFX_WriteLine+0xce>
	        	GFX_DrawPixel(y_start, x_start, color);
 800129a:	68bb      	ldr	r3, [r7, #8]
 800129c:	b21b      	sxth	r3, r3
 800129e:	68fa      	ldr	r2, [r7, #12]
 80012a0:	b211      	sxth	r1, r2
 80012a2:	f897 2038 	ldrb.w	r2, [r7, #56]	; 0x38
 80012a6:	4618      	mov	r0, r3
 80012a8:	f000 f896 	bl	80013d8 <SSD1306_DrawPixel>
 80012ac:	e008      	b.n	80012c0 <GFX_WriteLine+0xe0>
	        } else {
	        	GFX_DrawPixel(x_start, y_start, color);
 80012ae:	68fb      	ldr	r3, [r7, #12]
 80012b0:	b21b      	sxth	r3, r3
 80012b2:	68ba      	ldr	r2, [r7, #8]
 80012b4:	b211      	sxth	r1, r2
 80012b6:	f897 2038 	ldrb.w	r2, [r7, #56]	; 0x38
 80012ba:	4618      	mov	r0, r3
 80012bc:	f000 f88c 	bl	80013d8 <SSD1306_DrawPixel>
	        }
	        err -= dy;
 80012c0:	8dfa      	ldrh	r2, [r7, #46]	; 0x2e
 80012c2:	8abb      	ldrh	r3, [r7, #20]
 80012c4:	1ad3      	subs	r3, r2, r3
 80012c6:	b29b      	uxth	r3, r3
 80012c8:	85fb      	strh	r3, [r7, #46]	; 0x2e
	        if (err < 0) {
 80012ca:	f9b7 302e 	ldrsh.w	r3, [r7, #46]	; 0x2e
 80012ce:	2b00      	cmp	r3, #0
 80012d0:	da09      	bge.n	80012e6 <GFX_WriteLine+0x106>
	            y_start += ystep;
 80012d2:	f9b7 302c 	ldrsh.w	r3, [r7, #44]	; 0x2c
 80012d6:	68ba      	ldr	r2, [r7, #8]
 80012d8:	4413      	add	r3, r2
 80012da:	60bb      	str	r3, [r7, #8]
	            err += dx;
 80012dc:	8dfa      	ldrh	r2, [r7, #46]	; 0x2e
 80012de:	8afb      	ldrh	r3, [r7, #22]
 80012e0:	4413      	add	r3, r2
 80012e2:	b29b      	uxth	r3, r3
 80012e4:	85fb      	strh	r3, [r7, #46]	; 0x2e
	    for (; x_start<=x_end; x_start++) {
 80012e6:	68fb      	ldr	r3, [r7, #12]
 80012e8:	3301      	adds	r3, #1
 80012ea:	60fb      	str	r3, [r7, #12]
 80012ec:	68fa      	ldr	r2, [r7, #12]
 80012ee:	687b      	ldr	r3, [r7, #4]
 80012f0:	429a      	cmp	r2, r3
 80012f2:	ddce      	ble.n	8001292 <GFX_WriteLine+0xb2>
	        }
	    }
}
 80012f4:	bf00      	nop
 80012f6:	3730      	adds	r7, #48	; 0x30
 80012f8:	46bd      	mov	sp, r7
 80012fa:	bd80      	pop	{r7, pc}

080012fc <GFX_DrawFastVLine>:

void GFX_DrawFastVLine(int x_start, int y_start, int h, uint8_t color)
{
 80012fc:	b580      	push	{r7, lr}
 80012fe:	b086      	sub	sp, #24
 8001300:	af02      	add	r7, sp, #8
 8001302:	60f8      	str	r0, [r7, #12]
 8001304:	60b9      	str	r1, [r7, #8]
 8001306:	607a      	str	r2, [r7, #4]
 8001308:	70fb      	strb	r3, [r7, #3]
	GFX_WriteLine(x_start, y_start, x_start, y_start+h-1, color);
 800130a:	68ba      	ldr	r2, [r7, #8]
 800130c:	687b      	ldr	r3, [r7, #4]
 800130e:	4413      	add	r3, r2
 8001310:	1e5a      	subs	r2, r3, #1
 8001312:	78fb      	ldrb	r3, [r7, #3]
 8001314:	9300      	str	r3, [sp, #0]
 8001316:	4613      	mov	r3, r2
 8001318:	68fa      	ldr	r2, [r7, #12]
 800131a:	68b9      	ldr	r1, [r7, #8]
 800131c:	68f8      	ldr	r0, [r7, #12]
 800131e:	f7ff ff5f 	bl	80011e0 <GFX_WriteLine>
}
 8001322:	bf00      	nop
 8001324:	3710      	adds	r7, #16
 8001326:	46bd      	mov	sp, r7
 8001328:	bd80      	pop	{r7, pc}

0800132a <GFX_DrawFillRectangle>:

}
#endif
#if USING_FILL_RECTANGLE == 1
void GFX_DrawFillRectangle(int x, int y, uint16_t w, uint16_t h, uint8_t color)
{
 800132a:	b580      	push	{r7, lr}
 800132c:	b086      	sub	sp, #24
 800132e:	af00      	add	r7, sp, #0
 8001330:	60f8      	str	r0, [r7, #12]
 8001332:	60b9      	str	r1, [r7, #8]
 8001334:	4611      	mov	r1, r2
 8001336:	461a      	mov	r2, r3
 8001338:	460b      	mov	r3, r1
 800133a:	80fb      	strh	r3, [r7, #6]
 800133c:	4613      	mov	r3, r2
 800133e:	80bb      	strh	r3, [r7, #4]
    for (int i=x; i<x+w; i++) {
 8001340:	68fb      	ldr	r3, [r7, #12]
 8001342:	617b      	str	r3, [r7, #20]
 8001344:	e009      	b.n	800135a <GFX_DrawFillRectangle+0x30>
    	GFX_DrawFastVLine(i, y, h, color);
 8001346:	88ba      	ldrh	r2, [r7, #4]
 8001348:	f897 3020 	ldrb.w	r3, [r7, #32]
 800134c:	68b9      	ldr	r1, [r7, #8]
 800134e:	6978      	ldr	r0, [r7, #20]
 8001350:	f7ff ffd4 	bl	80012fc <GFX_DrawFastVLine>
    for (int i=x; i<x+w; i++) {
 8001354:	697b      	ldr	r3, [r7, #20]
 8001356:	3301      	adds	r3, #1
 8001358:	617b      	str	r3, [r7, #20]
 800135a:	88fa      	ldrh	r2, [r7, #6]
 800135c:	68fb      	ldr	r3, [r7, #12]
 800135e:	4413      	add	r3, r2
 8001360:	697a      	ldr	r2, [r7, #20]
 8001362:	429a      	cmp	r2, r3
 8001364:	dbef      	blt.n	8001346 <GFX_DrawFillRectangle+0x1c>
    }

}
 8001366:	bf00      	nop
 8001368:	3718      	adds	r7, #24
 800136a:	46bd      	mov	sp, r7
 800136c:	bd80      	pop	{r7, pc}
	...

08001370 <SSD1306_Command>:
I2C_HandleTypeDef *oled_i2c;

static uint8_t buffer[SSD1306_BUFFER_SIZE];

void SSD1306_Command(uint8_t Command)
{
 8001370:	b580      	push	{r7, lr}
 8001372:	b086      	sub	sp, #24
 8001374:	af04      	add	r7, sp, #16
 8001376:	4603      	mov	r3, r0
 8001378:	71fb      	strb	r3, [r7, #7]
	HAL_I2C_Mem_Write(oled_i2c, (SSD1306_ADDRESS<<1), 0x00, 1, &Command, 1, SSD1306_TIMEOUT);
 800137a:	4b09      	ldr	r3, [pc, #36]	; (80013a0 <SSD1306_Command+0x30>)
 800137c:	6818      	ldr	r0, [r3, #0]
 800137e:	f44f 737a 	mov.w	r3, #1000	; 0x3e8
 8001382:	9302      	str	r3, [sp, #8]
 8001384:	2301      	movs	r3, #1
 8001386:	9301      	str	r3, [sp, #4]
 8001388:	1dfb      	adds	r3, r7, #7
 800138a:	9300      	str	r3, [sp, #0]
 800138c:	2301      	movs	r3, #1
 800138e:	2200      	movs	r2, #0
 8001390:	2178      	movs	r1, #120	; 0x78
 8001392:	f003 f959 	bl	8004648 <HAL_I2C_Mem_Write>
}
 8001396:	bf00      	nop
 8001398:	3708      	adds	r7, #8
 800139a:	46bd      	mov	sp, r7
 800139c:	bd80      	pop	{r7, pc}
 800139e:	bf00      	nop
 80013a0:	20004f18 	.word	0x20004f18

080013a4 <SSD1306_Data>:

void SSD1306_Data(uint8_t *Data, uint16_t Size)
{
 80013a4:	b580      	push	{r7, lr}
 80013a6:	b086      	sub	sp, #24
 80013a8:	af04      	add	r7, sp, #16
 80013aa:	6078      	str	r0, [r7, #4]
 80013ac:	460b      	mov	r3, r1
 80013ae:	807b      	strh	r3, [r7, #2]
	if(oled_i2c->hdmatx->State == HAL_DMA_STATE_READY)
	{
		HAL_I2C_Mem_Write_DMA(oled_i2c, (SSD1306_ADDRESS<<1), 0x40, 1, Data, Size);
	}
#else
	HAL_I2C_Mem_Write(oled_i2c, (SSD1306_ADDRESS<<1), 0x40, 1, Data, Size, SSD1306_TIMEOUT);
 80013b0:	4b08      	ldr	r3, [pc, #32]	; (80013d4 <SSD1306_Data+0x30>)
 80013b2:	6818      	ldr	r0, [r3, #0]
 80013b4:	f44f 737a 	mov.w	r3, #1000	; 0x3e8
 80013b8:	9302      	str	r3, [sp, #8]
 80013ba:	887b      	ldrh	r3, [r7, #2]
 80013bc:	9301      	str	r3, [sp, #4]
 80013be:	687b      	ldr	r3, [r7, #4]
 80013c0:	9300      	str	r3, [sp, #0]
 80013c2:	2301      	movs	r3, #1
 80013c4:	2240      	movs	r2, #64	; 0x40
 80013c6:	2178      	movs	r1, #120	; 0x78
 80013c8:	f003 f93e 	bl	8004648 <HAL_I2C_Mem_Write>
#endif
}
 80013cc:	bf00      	nop
 80013ce:	3708      	adds	r7, #8
 80013d0:	46bd      	mov	sp, r7
 80013d2:	bd80      	pop	{r7, pc}
 80013d4:	20004f18 	.word	0x20004f18

080013d8 <SSD1306_DrawPixel>:
//
// Functions
//

void SSD1306_DrawPixel(int16_t x, int16_t y, uint8_t Color)
{
 80013d8:	b480      	push	{r7}
 80013da:	b083      	sub	sp, #12
 80013dc:	af00      	add	r7, sp, #0
 80013de:	4603      	mov	r3, r0
 80013e0:	80fb      	strh	r3, [r7, #6]
 80013e2:	460b      	mov	r3, r1
 80013e4:	80bb      	strh	r3, [r7, #4]
 80013e6:	4613      	mov	r3, r2
 80013e8:	70fb      	strb	r3, [r7, #3]
	if((x < 0) || (x >= SSD1306_LCDWIDTH) || (y < 0) || (y >= SSD1306_LCDHEIGHT))
 80013ea:	f9b7 3006 	ldrsh.w	r3, [r7, #6]
 80013ee:	2b00      	cmp	r3, #0
 80013f0:	db79      	blt.n	80014e6 <SSD1306_DrawPixel+0x10e>
 80013f2:	f9b7 3006 	ldrsh.w	r3, [r7, #6]
 80013f6:	2b7f      	cmp	r3, #127	; 0x7f
 80013f8:	dc75      	bgt.n	80014e6 <SSD1306_DrawPixel+0x10e>
 80013fa:	f9b7 3004 	ldrsh.w	r3, [r7, #4]
 80013fe:	2b00      	cmp	r3, #0
 8001400:	db71      	blt.n	80014e6 <SSD1306_DrawPixel+0x10e>
 8001402:	f9b7 3004 	ldrsh.w	r3, [r7, #4]
 8001406:	2b3f      	cmp	r3, #63	; 0x3f
 8001408:	dc6d      	bgt.n	80014e6 <SSD1306_DrawPixel+0x10e>
	  return;

    switch(Color)
 800140a:	78fb      	ldrb	r3, [r7, #3]
 800140c:	2b01      	cmp	r3, #1
 800140e:	d004      	beq.n	800141a <SSD1306_DrawPixel+0x42>
 8001410:	2b02      	cmp	r3, #2
 8001412:	d046      	beq.n	80014a2 <SSD1306_DrawPixel+0xca>
 8001414:	2b00      	cmp	r3, #0
 8001416:	d021      	beq.n	800145c <SSD1306_DrawPixel+0x84>
 8001418:	e066      	b.n	80014e8 <SSD1306_DrawPixel+0x110>
    {
    case SSD1306_WHITE:
      buffer[x + (y / 8) * SSD1306_LCDWIDTH] |= (1 << (y & 7));
 800141a:	f9b7 2006 	ldrsh.w	r2, [r7, #6]
 800141e:	f9b7 3004 	ldrsh.w	r3, [r7, #4]
 8001422:	2b00      	cmp	r3, #0
 8001424:	da00      	bge.n	8001428 <SSD1306_DrawPixel+0x50>
 8001426:	3307      	adds	r3, #7
 8001428:	10db      	asrs	r3, r3, #3
 800142a:	b218      	sxth	r0, r3
 800142c:	4603      	mov	r3, r0
 800142e:	01db      	lsls	r3, r3, #7
 8001430:	4413      	add	r3, r2
 8001432:	4a30      	ldr	r2, [pc, #192]	; (80014f4 <SSD1306_DrawPixel+0x11c>)
 8001434:	5cd3      	ldrb	r3, [r2, r3]
 8001436:	b25a      	sxtb	r2, r3
 8001438:	88bb      	ldrh	r3, [r7, #4]
 800143a:	f003 0307 	and.w	r3, r3, #7
 800143e:	2101      	movs	r1, #1
 8001440:	fa01 f303 	lsl.w	r3, r1, r3
 8001444:	b25b      	sxtb	r3, r3
 8001446:	4313      	orrs	r3, r2
 8001448:	b259      	sxtb	r1, r3
 800144a:	f9b7 2006 	ldrsh.w	r2, [r7, #6]
 800144e:	4603      	mov	r3, r0
 8001450:	01db      	lsls	r3, r3, #7
 8001452:	4413      	add	r3, r2
 8001454:	b2c9      	uxtb	r1, r1
 8001456:	4a27      	ldr	r2, [pc, #156]	; (80014f4 <SSD1306_DrawPixel+0x11c>)
 8001458:	54d1      	strb	r1, [r2, r3]
      break;
 800145a:	e045      	b.n	80014e8 <SSD1306_DrawPixel+0x110>
    case SSD1306_BLACK:
      buffer[x + (y / 8) * SSD1306_LCDWIDTH] &= ~(1 << (y & 7));
 800145c:	f9b7 2006 	ldrsh.w	r2, [r7, #6]
 8001460:	f9b7 3004 	ldrsh.w	r3, [r7, #4]
 8001464:	2b00      	cmp	r3, #0
 8001466:	da00      	bge.n	800146a <SSD1306_DrawPixel+0x92>
 8001468:	3307      	adds	r3, #7
 800146a:	10db      	asrs	r3, r3, #3
 800146c:	b218      	sxth	r0, r3
 800146e:	4603      	mov	r3, r0
 8001470:	01db      	lsls	r3, r3, #7
 8001472:	4413      	add	r3, r2
 8001474:	4a1f      	ldr	r2, [pc, #124]	; (80014f4 <SSD1306_DrawPixel+0x11c>)
 8001476:	5cd3      	ldrb	r3, [r2, r3]
 8001478:	b25a      	sxtb	r2, r3
 800147a:	88bb      	ldrh	r3, [r7, #4]
 800147c:	f003 0307 	and.w	r3, r3, #7
 8001480:	2101      	movs	r1, #1
 8001482:	fa01 f303 	lsl.w	r3, r1, r3
 8001486:	b25b      	sxtb	r3, r3
 8001488:	43db      	mvns	r3, r3
 800148a:	b25b      	sxtb	r3, r3
 800148c:	4013      	ands	r3, r2
 800148e:	b259      	sxtb	r1, r3
 8001490:	f9b7 2006 	ldrsh.w	r2, [r7, #6]
 8001494:	4603      	mov	r3, r0
 8001496:	01db      	lsls	r3, r3, #7
 8001498:	4413      	add	r3, r2
 800149a:	b2c9      	uxtb	r1, r1
 800149c:	4a15      	ldr	r2, [pc, #84]	; (80014f4 <SSD1306_DrawPixel+0x11c>)
 800149e:	54d1      	strb	r1, [r2, r3]
      break;
 80014a0:	e022      	b.n	80014e8 <SSD1306_DrawPixel+0x110>
    case SSD1306_INVERSE:
      buffer[x + (y / 8) * SSD1306_LCDWIDTH] ^= (1 << (y & 7));
 80014a2:	f9b7 2006 	ldrsh.w	r2, [r7, #6]
 80014a6:	f9b7 3004 	ldrsh.w	r3, [r7, #4]
 80014aa:	2b00      	cmp	r3, #0
 80014ac:	da00      	bge.n	80014b0 <SSD1306_DrawPixel+0xd8>
 80014ae:	3307      	adds	r3, #7
 80014b0:	10db      	asrs	r3, r3, #3
 80014b2:	b218      	sxth	r0, r3
 80014b4:	4603      	mov	r3, r0
 80014b6:	01db      	lsls	r3, r3, #7
 80014b8:	4413      	add	r3, r2
 80014ba:	4a0e      	ldr	r2, [pc, #56]	; (80014f4 <SSD1306_DrawPixel+0x11c>)
 80014bc:	5cd3      	ldrb	r3, [r2, r3]
 80014be:	b25a      	sxtb	r2, r3
 80014c0:	88bb      	ldrh	r3, [r7, #4]
 80014c2:	f003 0307 	and.w	r3, r3, #7
 80014c6:	2101      	movs	r1, #1
 80014c8:	fa01 f303 	lsl.w	r3, r1, r3
 80014cc:	b25b      	sxtb	r3, r3
 80014ce:	4053      	eors	r3, r2
 80014d0:	b259      	sxtb	r1, r3
 80014d2:	f9b7 2006 	ldrsh.w	r2, [r7, #6]
 80014d6:	4603      	mov	r3, r0
 80014d8:	01db      	lsls	r3, r3, #7
 80014da:	4413      	add	r3, r2
 80014dc:	b2c9      	uxtb	r1, r1
 80014de:	4a05      	ldr	r2, [pc, #20]	; (80014f4 <SSD1306_DrawPixel+0x11c>)
 80014e0:	54d1      	strb	r1, [r2, r3]
      break;
 80014e2:	bf00      	nop
 80014e4:	e000      	b.n	80014e8 <SSD1306_DrawPixel+0x110>
	  return;
 80014e6:	bf00      	nop
    }
}
 80014e8:	370c      	adds	r7, #12
 80014ea:	46bd      	mov	sp, r7
 80014ec:	f85d 7b04 	ldr.w	r7, [sp], #4
 80014f0:	4770      	bx	lr
 80014f2:	bf00      	nop
 80014f4:	20000200 	.word	0x20000200

080014f8 <SSD1306_Clear>:

void SSD1306_Clear(uint8_t Color)
{
 80014f8:	b580      	push	{r7, lr}
 80014fa:	b082      	sub	sp, #8
 80014fc:	af00      	add	r7, sp, #0
 80014fe:	4603      	mov	r3, r0
 8001500:	71fb      	strb	r3, [r7, #7]
	switch(Color)
 8001502:	79fb      	ldrb	r3, [r7, #7]
 8001504:	2b00      	cmp	r3, #0
 8001506:	d009      	beq.n	800151c <SSD1306_Clear+0x24>
 8001508:	2b01      	cmp	r3, #1
 800150a:	d000      	beq.n	800150e <SSD1306_Clear+0x16>

	case BLACK:
		memset(buffer, 0x00, SSD1306_BUFFER_SIZE);
		break;
	}
}
 800150c:	e00d      	b.n	800152a <SSD1306_Clear+0x32>
		memset(buffer, 0xFF, SSD1306_BUFFER_SIZE);
 800150e:	f44f 6280 	mov.w	r2, #1024	; 0x400
 8001512:	21ff      	movs	r1, #255	; 0xff
 8001514:	4807      	ldr	r0, [pc, #28]	; (8001534 <SSD1306_Clear+0x3c>)
 8001516:	f009 fb8e 	bl	800ac36 <memset>
		break;
 800151a:	e006      	b.n	800152a <SSD1306_Clear+0x32>
		memset(buffer, 0x00, SSD1306_BUFFER_SIZE);
 800151c:	f44f 6280 	mov.w	r2, #1024	; 0x400
 8001520:	2100      	movs	r1, #0
 8001522:	4804      	ldr	r0, [pc, #16]	; (8001534 <SSD1306_Clear+0x3c>)
 8001524:	f009 fb87 	bl	800ac36 <memset>
		break;
 8001528:	bf00      	nop
}
 800152a:	bf00      	nop
 800152c:	3708      	adds	r7, #8
 800152e:	46bd      	mov	sp, r7
 8001530:	bd80      	pop	{r7, pc}
 8001532:	bf00      	nop
 8001534:	20000200 	.word	0x20000200

08001538 <SSD1306_Display>:

void SSD1306_Display(void)
{
 8001538:	b580      	push	{r7, lr}
 800153a:	b082      	sub	sp, #8
 800153c:	af00      	add	r7, sp, #0
	SSD1306_Command(0); // Column start address
	SSD1306_Command(SSD1306_LCDWIDTH - 1); // Column end address

	SSD1306_Data(buffer, SSD1306_BUFFER_SIZE);
#else
	for(uint8_t i = 0; i < 8; i++)
 800153e:	2300      	movs	r3, #0
 8001540:	71fb      	strb	r3, [r7, #7]
 8001542:	e02d      	b.n	80015a0 <SSD1306_Display+0x68>
	{
		osMutexAcquire(MutexI2C1Handle, osWaitForever);
 8001544:	4b1a      	ldr	r3, [pc, #104]	; (80015b0 <SSD1306_Display+0x78>)
 8001546:	681b      	ldr	r3, [r3, #0]
 8001548:	f04f 31ff 	mov.w	r1, #4294967295
 800154c:	4618      	mov	r0, r3
 800154e:	f005 fda9 	bl	80070a4 <osMutexAcquire>
		SSD1306_Command(SSD1306_PAGEADDR);
 8001552:	2022      	movs	r0, #34	; 0x22
 8001554:	f7ff ff0c 	bl	8001370 <SSD1306_Command>
		SSD1306_Command(i);                      // Page start address
 8001558:	79fb      	ldrb	r3, [r7, #7]
 800155a:	4618      	mov	r0, r3
 800155c:	f7ff ff08 	bl	8001370 <SSD1306_Command>
		SSD1306_Command(i);                   // Page end (not really, but works here)
 8001560:	79fb      	ldrb	r3, [r7, #7]
 8001562:	4618      	mov	r0, r3
 8001564:	f7ff ff04 	bl	8001370 <SSD1306_Command>
		SSD1306_Command(SSD1306_COLUMNADDR);
 8001568:	2021      	movs	r0, #33	; 0x21
 800156a:	f7ff ff01 	bl	8001370 <SSD1306_Command>
		SSD1306_Command(0); // Column start address
 800156e:	2000      	movs	r0, #0
 8001570:	f7ff fefe 	bl	8001370 <SSD1306_Command>
		SSD1306_Command(SSD1306_LCDWIDTH - 1); // Column end address
 8001574:	207f      	movs	r0, #127	; 0x7f
 8001576:	f7ff fefb 	bl	8001370 <SSD1306_Command>

		SSD1306_Data(buffer+(i * SSD1306_LCDWIDTH), SSD1306_LCDWIDTH);
 800157a:	79fb      	ldrb	r3, [r7, #7]
 800157c:	01db      	lsls	r3, r3, #7
 800157e:	461a      	mov	r2, r3
 8001580:	4b0c      	ldr	r3, [pc, #48]	; (80015b4 <SSD1306_Display+0x7c>)
 8001582:	4413      	add	r3, r2
 8001584:	2180      	movs	r1, #128	; 0x80
 8001586:	4618      	mov	r0, r3
 8001588:	f7ff ff0c 	bl	80013a4 <SSD1306_Data>
		osMutexRelease(MutexI2C1Handle);
 800158c:	4b08      	ldr	r3, [pc, #32]	; (80015b0 <SSD1306_Display+0x78>)
 800158e:	681b      	ldr	r3, [r3, #0]
 8001590:	4618      	mov	r0, r3
 8001592:	f005 fde5 	bl	8007160 <osMutexRelease>
		osThreadYield();
 8001596:	f005 fb71 	bl	8006c7c <osThreadYield>
	for(uint8_t i = 0; i < 8; i++)
 800159a:	79fb      	ldrb	r3, [r7, #7]
 800159c:	3301      	adds	r3, #1
 800159e:	71fb      	strb	r3, [r7, #7]
 80015a0:	79fb      	ldrb	r3, [r7, #7]
 80015a2:	2b07      	cmp	r3, #7
 80015a4:	d9ce      	bls.n	8001544 <SSD1306_Display+0xc>
	}
#endif
}
 80015a6:	bf00      	nop
 80015a8:	3708      	adds	r7, #8
 80015aa:	46bd      	mov	sp, r7
 80015ac:	bd80      	pop	{r7, pc}
 80015ae:	bf00      	nop
 80015b0:	20004f30 	.word	0x20004f30
 80015b4:	20000200 	.word	0x20000200

080015b8 <SSD1306_Init>:

void SSD1306_Init(I2C_HandleTypeDef *i2c)
{
 80015b8:	b580      	push	{r7, lr}
 80015ba:	b082      	sub	sp, #8
 80015bc:	af00      	add	r7, sp, #0
 80015be:	6078      	str	r0, [r7, #4]
	oled_i2c = i2c;
 80015c0:	4a28      	ldr	r2, [pc, #160]	; (8001664 <SSD1306_Init+0xac>)
 80015c2:	687b      	ldr	r3, [r7, #4]
 80015c4:	6013      	str	r3, [r2, #0]

	SSD1306_Command(SSD1306_DISPLAYOFF);
 80015c6:	20ae      	movs	r0, #174	; 0xae
 80015c8:	f7ff fed2 	bl	8001370 <SSD1306_Command>

	SSD1306_Command(SSD1306_SETDISPLAYCLOCKDIV);
 80015cc:	20d5      	movs	r0, #213	; 0xd5
 80015ce:	f7ff fecf 	bl	8001370 <SSD1306_Command>
	SSD1306_Command(0x80);
 80015d2:	2080      	movs	r0, #128	; 0x80
 80015d4:	f7ff fecc 	bl	8001370 <SSD1306_Command>

	SSD1306_Command(SSD1306_LCDHEIGHT - 1);
 80015d8:	203f      	movs	r0, #63	; 0x3f
 80015da:	f7ff fec9 	bl	8001370 <SSD1306_Command>

	SSD1306_Command(SSD1306_SETDISPLAYOFFSET);
 80015de:	20d3      	movs	r0, #211	; 0xd3
 80015e0:	f7ff fec6 	bl	8001370 <SSD1306_Command>
	SSD1306_Command(0x00);
 80015e4:	2000      	movs	r0, #0
 80015e6:	f7ff fec3 	bl	8001370 <SSD1306_Command>
	SSD1306_Command(SSD1306_SETSTARTLINE);
 80015ea:	2040      	movs	r0, #64	; 0x40
 80015ec:	f7ff fec0 	bl	8001370 <SSD1306_Command>

	SSD1306_Command(SSD1306_CHARGEPUMP);
 80015f0:	208d      	movs	r0, #141	; 0x8d
 80015f2:	f7ff febd 	bl	8001370 <SSD1306_Command>
	SSD1306_Command(0x14);
 80015f6:	2014      	movs	r0, #20
 80015f8:	f7ff feba 	bl	8001370 <SSD1306_Command>

	SSD1306_Command(SSD1306_MEMORYMODE); // 0x20
 80015fc:	2020      	movs	r0, #32
 80015fe:	f7ff feb7 	bl	8001370 <SSD1306_Command>
	SSD1306_Command(0x00); // 0x0 act like ks0108
 8001602:	2000      	movs	r0, #0
 8001604:	f7ff feb4 	bl	8001370 <SSD1306_Command>
	SSD1306_Command(SSD1306_SEGREMAP | 0x1);
 8001608:	20a1      	movs	r0, #161	; 0xa1
 800160a:	f7ff feb1 	bl	8001370 <SSD1306_Command>
	SSD1306_Command(SSD1306_COMSCANDEC);
 800160e:	20c8      	movs	r0, #200	; 0xc8
 8001610:	f7ff feae 	bl	8001370 <SSD1306_Command>

	SSD1306_Command(SSD1306_SETCOMPINS);
 8001614:	20da      	movs	r0, #218	; 0xda
 8001616:	f7ff feab 	bl	8001370 <SSD1306_Command>
	SSD1306_Command(0x12);
 800161a:	2012      	movs	r0, #18
 800161c:	f7ff fea8 	bl	8001370 <SSD1306_Command>
	SSD1306_Command(SSD1306_SETCONTRAST);
 8001620:	2081      	movs	r0, #129	; 0x81
 8001622:	f7ff fea5 	bl	8001370 <SSD1306_Command>
	SSD1306_Command(0xFF);
 8001626:	20ff      	movs	r0, #255	; 0xff
 8001628:	f7ff fea2 	bl	8001370 <SSD1306_Command>

	SSD1306_Command(SSD1306_SETPRECHARGE); // 0xd9
 800162c:	20d9      	movs	r0, #217	; 0xd9
 800162e:	f7ff fe9f 	bl	8001370 <SSD1306_Command>
	SSD1306_Command(0xF1);
 8001632:	20f1      	movs	r0, #241	; 0xf1
 8001634:	f7ff fe9c 	bl	8001370 <SSD1306_Command>

	SSD1306_Command(SSD1306_SETVCOMDETECT); // 0xDB
 8001638:	20db      	movs	r0, #219	; 0xdb
 800163a:	f7ff fe99 	bl	8001370 <SSD1306_Command>
	SSD1306_Command(0x40);
 800163e:	2040      	movs	r0, #64	; 0x40
 8001640:	f7ff fe96 	bl	8001370 <SSD1306_Command>
	SSD1306_Command(SSD1306_DISPLAYALLON_RESUME); // 0xA4
 8001644:	20a4      	movs	r0, #164	; 0xa4
 8001646:	f7ff fe93 	bl	8001370 <SSD1306_Command>
	SSD1306_Command(SSD1306_NORMALDISPLAY);       // 0xA6
 800164a:	20a6      	movs	r0, #166	; 0xa6
 800164c:	f7ff fe90 	bl	8001370 <SSD1306_Command>
	SSD1306_Command(SSD1306_DEACTIVATE_SCROLL);
 8001650:	202e      	movs	r0, #46	; 0x2e
 8001652:	f7ff fe8d 	bl	8001370 <SSD1306_Command>

	SSD1306_Command(SSD1306_DISPLAYON); // Main screen turn on
 8001656:	20af      	movs	r0, #175	; 0xaf
 8001658:	f7ff fe8a 	bl	8001370 <SSD1306_Command>
}
 800165c:	bf00      	nop
 800165e:	3708      	adds	r7, #8
 8001660:	46bd      	mov	sp, r7
 8001662:	bd80      	pop	{r7, pc}
 8001664:	20004f18 	.word	0x20004f18

08001668 <Read8>:

//
// Read 8 bits from BMP280 from Register
//
uint8_t Read8(BMP280_t *bmp, uint8_t Register)
{
 8001668:	b580      	push	{r7, lr}
 800166a:	b088      	sub	sp, #32
 800166c:	af04      	add	r7, sp, #16
 800166e:	6078      	str	r0, [r7, #4]
 8001670:	460b      	mov	r3, r1
 8001672:	70fb      	strb	r3, [r7, #3]
	uint8_t Value;

	HAL_I2C_Mem_Read(bmp->bmp_i2c, ((bmp->Address)<<1), Register, 1, &Value, 1, BMP280_I2C_TIMEOUT);
 8001674:	687b      	ldr	r3, [r7, #4]
 8001676:	6818      	ldr	r0, [r3, #0]
 8001678:	687b      	ldr	r3, [r7, #4]
 800167a:	791b      	ldrb	r3, [r3, #4]
 800167c:	b29b      	uxth	r3, r3
 800167e:	005b      	lsls	r3, r3, #1
 8001680:	b299      	uxth	r1, r3
 8001682:	78fb      	ldrb	r3, [r7, #3]
 8001684:	b29a      	uxth	r2, r3
 8001686:	f44f 737a 	mov.w	r3, #1000	; 0x3e8
 800168a:	9302      	str	r3, [sp, #8]
 800168c:	2301      	movs	r3, #1
 800168e:	9301      	str	r3, [sp, #4]
 8001690:	f107 030f 	add.w	r3, r7, #15
 8001694:	9300      	str	r3, [sp, #0]
 8001696:	2301      	movs	r3, #1
 8001698:	f003 f8d0 	bl	800483c <HAL_I2C_Mem_Read>

	return Value;
 800169c:	7bfb      	ldrb	r3, [r7, #15]
}
 800169e:	4618      	mov	r0, r3
 80016a0:	3710      	adds	r7, #16
 80016a2:	46bd      	mov	sp, r7
 80016a4:	bd80      	pop	{r7, pc}

080016a6 <Write8>:

//
// Write 8 bits to BMP280 to Register
//
void Write8(BMP280_t *bmp, uint8_t Register, uint8_t Value)
{
 80016a6:	b580      	push	{r7, lr}
 80016a8:	b086      	sub	sp, #24
 80016aa:	af04      	add	r7, sp, #16
 80016ac:	6078      	str	r0, [r7, #4]
 80016ae:	460b      	mov	r3, r1
 80016b0:	70fb      	strb	r3, [r7, #3]
 80016b2:	4613      	mov	r3, r2
 80016b4:	70bb      	strb	r3, [r7, #2]
	HAL_I2C_Mem_Write(bmp->bmp_i2c, ((bmp->Address)<<1), Register, 1, &Value, 1, BMP280_I2C_TIMEOUT);
 80016b6:	687b      	ldr	r3, [r7, #4]
 80016b8:	6818      	ldr	r0, [r3, #0]
 80016ba:	687b      	ldr	r3, [r7, #4]
 80016bc:	791b      	ldrb	r3, [r3, #4]
 80016be:	b29b      	uxth	r3, r3
 80016c0:	005b      	lsls	r3, r3, #1
 80016c2:	b299      	uxth	r1, r3
 80016c4:	78fb      	ldrb	r3, [r7, #3]
 80016c6:	b29a      	uxth	r2, r3
 80016c8:	f44f 737a 	mov.w	r3, #1000	; 0x3e8
 80016cc:	9302      	str	r3, [sp, #8]
 80016ce:	2301      	movs	r3, #1
 80016d0:	9301      	str	r3, [sp, #4]
 80016d2:	1cbb      	adds	r3, r7, #2
 80016d4:	9300      	str	r3, [sp, #0]
 80016d6:	2301      	movs	r3, #1
 80016d8:	f002 ffb6 	bl	8004648 <HAL_I2C_Mem_Write>
}
 80016dc:	bf00      	nop
 80016de:	3708      	adds	r7, #8
 80016e0:	46bd      	mov	sp, r7
 80016e2:	bd80      	pop	{r7, pc}

080016e4 <Read16>:

//
// Read 16 bits from BMP280 from Register
//
uint16_t Read16(BMP280_t *bmp, uint8_t Register)
{
 80016e4:	b580      	push	{r7, lr}
 80016e6:	b088      	sub	sp, #32
 80016e8:	af04      	add	r7, sp, #16
 80016ea:	6078      	str	r0, [r7, #4]
 80016ec:	460b      	mov	r3, r1
 80016ee:	70fb      	strb	r3, [r7, #3]
	uint8_t Value[2];

	HAL_I2C_Mem_Read(bmp->bmp_i2c, ((bmp->Address)<<1), Register, 1, Value, 2, BMP280_I2C_TIMEOUT);
 80016f0:	687b      	ldr	r3, [r7, #4]
 80016f2:	6818      	ldr	r0, [r3, #0]
 80016f4:	687b      	ldr	r3, [r7, #4]
 80016f6:	791b      	ldrb	r3, [r3, #4]
 80016f8:	b29b      	uxth	r3, r3
 80016fa:	005b      	lsls	r3, r3, #1
 80016fc:	b299      	uxth	r1, r3
 80016fe:	78fb      	ldrb	r3, [r7, #3]
 8001700:	b29a      	uxth	r2, r3
 8001702:	f44f 737a 	mov.w	r3, #1000	; 0x3e8
 8001706:	9302      	str	r3, [sp, #8]
 8001708:	2302      	movs	r3, #2
 800170a:	9301      	str	r3, [sp, #4]
 800170c:	f107 030c 	add.w	r3, r7, #12
 8001710:	9300      	str	r3, [sp, #0]
 8001712:	2301      	movs	r3, #1
 8001714:	f003 f892 	bl	800483c <HAL_I2C_Mem_Read>

	return ((Value[1] << 8) | Value[0]);
 8001718:	7b7b      	ldrb	r3, [r7, #13]
 800171a:	021b      	lsls	r3, r3, #8
 800171c:	b21a      	sxth	r2, r3
 800171e:	7b3b      	ldrb	r3, [r7, #12]
 8001720:	b21b      	sxth	r3, r3
 8001722:	4313      	orrs	r3, r2
 8001724:	b21b      	sxth	r3, r3
 8001726:	b29b      	uxth	r3, r3
}
 8001728:	4618      	mov	r0, r3
 800172a:	3710      	adds	r7, #16
 800172c:	46bd      	mov	sp, r7
 800172e:	bd80      	pop	{r7, pc}

08001730 <Read24>:

//
// Read 24 bits from BMP280 from Register
//
uint32_t Read24(BMP280_t *bmp, uint8_t Register)
{
 8001730:	b580      	push	{r7, lr}
 8001732:	b088      	sub	sp, #32
 8001734:	af04      	add	r7, sp, #16
 8001736:	6078      	str	r0, [r7, #4]
 8001738:	460b      	mov	r3, r1
 800173a:	70fb      	strb	r3, [r7, #3]
	uint8_t Value[3];

	HAL_I2C_Mem_Read(bmp->bmp_i2c, ((bmp->Address)<<1), Register, 1, Value, 3, BMP280_I2C_TIMEOUT);
 800173c:	687b      	ldr	r3, [r7, #4]
 800173e:	6818      	ldr	r0, [r3, #0]
 8001740:	687b      	ldr	r3, [r7, #4]
 8001742:	791b      	ldrb	r3, [r3, #4]
 8001744:	b29b      	uxth	r3, r3
 8001746:	005b      	lsls	r3, r3, #1
 8001748:	b299      	uxth	r1, r3
 800174a:	78fb      	ldrb	r3, [r7, #3]
 800174c:	b29a      	uxth	r2, r3
 800174e:	f44f 737a 	mov.w	r3, #1000	; 0x3e8
 8001752:	9302      	str	r3, [sp, #8]
 8001754:	2303      	movs	r3, #3
 8001756:	9301      	str	r3, [sp, #4]
 8001758:	f107 030c 	add.w	r3, r7, #12
 800175c:	9300      	str	r3, [sp, #0]
 800175e:	2301      	movs	r3, #1
 8001760:	f003 f86c 	bl	800483c <HAL_I2C_Mem_Read>

	return ((Value[0] << 16) | (Value[1] << 8) | Value[2]);
 8001764:	7b3b      	ldrb	r3, [r7, #12]
 8001766:	041a      	lsls	r2, r3, #16
 8001768:	7b7b      	ldrb	r3, [r7, #13]
 800176a:	021b      	lsls	r3, r3, #8
 800176c:	4313      	orrs	r3, r2
 800176e:	7bba      	ldrb	r2, [r7, #14]
 8001770:	4313      	orrs	r3, r2
}
 8001772:	4618      	mov	r0, r3
 8001774:	3710      	adds	r7, #16
 8001776:	46bd      	mov	sp, r7
 8001778:	bd80      	pop	{r7, pc}

0800177a <BMP280_SetMode>:

//
// Set mode - Forced or Normal - in Control register
//
void BMP280_SetMode(BMP280_t *bmp, uint8_t Mode)
{
 800177a:	b580      	push	{r7, lr}
 800177c:	b084      	sub	sp, #16
 800177e:	af00      	add	r7, sp, #0
 8001780:	6078      	str	r0, [r7, #4]
 8001782:	460b      	mov	r3, r1
 8001784:	70fb      	strb	r3, [r7, #3]
	uint8_t Tmp;

	if(Mode > 3) Mode = 3;
 8001786:	78fb      	ldrb	r3, [r7, #3]
 8001788:	2b03      	cmp	r3, #3
 800178a:	d901      	bls.n	8001790 <BMP280_SetMode+0x16>
 800178c:	2303      	movs	r3, #3
 800178e:	70fb      	strb	r3, [r7, #3]

	Tmp = Read8(bmp, BMP280_CONTROL);
 8001790:	21f4      	movs	r1, #244	; 0xf4
 8001792:	6878      	ldr	r0, [r7, #4]
 8001794:	f7ff ff68 	bl	8001668 <Read8>
 8001798:	4603      	mov	r3, r0
 800179a:	73fb      	strb	r3, [r7, #15]

	Tmp = Tmp & 0xFC; // Tmp (xxxx xx00)
 800179c:	7bfb      	ldrb	r3, [r7, #15]
 800179e:	f023 0303 	bic.w	r3, r3, #3
 80017a2:	73fb      	strb	r3, [r7, #15]
	Tmp |= Mode & 0x03;
 80017a4:	f997 3003 	ldrsb.w	r3, [r7, #3]
 80017a8:	f003 0303 	and.w	r3, r3, #3
 80017ac:	b25a      	sxtb	r2, r3
 80017ae:	f997 300f 	ldrsb.w	r3, [r7, #15]
 80017b2:	4313      	orrs	r3, r2
 80017b4:	b25b      	sxtb	r3, r3
 80017b6:	73fb      	strb	r3, [r7, #15]

	Write8(bmp, BMP280_CONTROL, Tmp);
 80017b8:	7bfb      	ldrb	r3, [r7, #15]
 80017ba:	461a      	mov	r2, r3
 80017bc:	21f4      	movs	r1, #244	; 0xf4
 80017be:	6878      	ldr	r0, [r7, #4]
 80017c0:	f7ff ff71 	bl	80016a6 <Write8>
}
 80017c4:	bf00      	nop
 80017c6:	3710      	adds	r7, #16
 80017c8:	46bd      	mov	sp, r7
 80017ca:	bd80      	pop	{r7, pc}

080017cc <BMP280_SetPressureOversampling>:

//
// Set pressure oversampling in Control register
//
void BMP280_SetPressureOversampling(BMP280_t *bmp, uint8_t POversampling)
{
 80017cc:	b580      	push	{r7, lr}
 80017ce:	b084      	sub	sp, #16
 80017d0:	af00      	add	r7, sp, #0
 80017d2:	6078      	str	r0, [r7, #4]
 80017d4:	460b      	mov	r3, r1
 80017d6:	70fb      	strb	r3, [r7, #3]
	uint8_t Tmp;

	if(POversampling > 5) POversampling = 5;
 80017d8:	78fb      	ldrb	r3, [r7, #3]
 80017da:	2b05      	cmp	r3, #5
 80017dc:	d901      	bls.n	80017e2 <BMP280_SetPressureOversampling+0x16>
 80017de:	2305      	movs	r3, #5
 80017e0:	70fb      	strb	r3, [r7, #3]

	Tmp = Read8(bmp, BMP280_CONTROL);
 80017e2:	21f4      	movs	r1, #244	; 0xf4
 80017e4:	6878      	ldr	r0, [r7, #4]
 80017e6:	f7ff ff3f 	bl	8001668 <Read8>
 80017ea:	4603      	mov	r3, r0
 80017ec:	73fb      	strb	r3, [r7, #15]

	Tmp = Tmp & 0xE3; // Tmp (xxx0 00xx)
 80017ee:	7bfb      	ldrb	r3, [r7, #15]
 80017f0:	f023 031c 	bic.w	r3, r3, #28
 80017f4:	73fb      	strb	r3, [r7, #15]
	Tmp |= ((POversampling << 2) & 0x1C);  // (0001 1100)
 80017f6:	78fb      	ldrb	r3, [r7, #3]
 80017f8:	009b      	lsls	r3, r3, #2
 80017fa:	b25b      	sxtb	r3, r3
 80017fc:	f003 031c 	and.w	r3, r3, #28
 8001800:	b25a      	sxtb	r2, r3
 8001802:	f997 300f 	ldrsb.w	r3, [r7, #15]
 8001806:	4313      	orrs	r3, r2
 8001808:	b25b      	sxtb	r3, r3
 800180a:	73fb      	strb	r3, [r7, #15]

	Write8(bmp, BMP280_CONTROL, Tmp);
 800180c:	7bfb      	ldrb	r3, [r7, #15]
 800180e:	461a      	mov	r2, r3
 8001810:	21f4      	movs	r1, #244	; 0xf4
 8001812:	6878      	ldr	r0, [r7, #4]
 8001814:	f7ff ff47 	bl	80016a6 <Write8>
}
 8001818:	bf00      	nop
 800181a:	3710      	adds	r7, #16
 800181c:	46bd      	mov	sp, r7
 800181e:	bd80      	pop	{r7, pc}

08001820 <BMP280_SetTemperatureOversampling>:

//
// Set temperature oversampling in Control register
//
void BMP280_SetTemperatureOversampling(BMP280_t *bmp, uint8_t TOversampling)
{
 8001820:	b580      	push	{r7, lr}
 8001822:	b084      	sub	sp, #16
 8001824:	af00      	add	r7, sp, #0
 8001826:	6078      	str	r0, [r7, #4]
 8001828:	460b      	mov	r3, r1
 800182a:	70fb      	strb	r3, [r7, #3]
	uint8_t Tmp;

	if(TOversampling > 5) TOversampling = 5;
 800182c:	78fb      	ldrb	r3, [r7, #3]
 800182e:	2b05      	cmp	r3, #5
 8001830:	d901      	bls.n	8001836 <BMP280_SetTemperatureOversampling+0x16>
 8001832:	2305      	movs	r3, #5
 8001834:	70fb      	strb	r3, [r7, #3]

	Tmp = Read8(bmp, BMP280_CONTROL);
 8001836:	21f4      	movs	r1, #244	; 0xf4
 8001838:	6878      	ldr	r0, [r7, #4]
 800183a:	f7ff ff15 	bl	8001668 <Read8>
 800183e:	4603      	mov	r3, r0
 8001840:	73fb      	strb	r3, [r7, #15]

	Tmp = Tmp & 0x1F; // Tmp (000x xxxx)
 8001842:	7bfb      	ldrb	r3, [r7, #15]
 8001844:	f003 031f 	and.w	r3, r3, #31
 8001848:	73fb      	strb	r3, [r7, #15]
	Tmp |= ((TOversampling << 5) & 0xE0) ;  // (1110 0000)
 800184a:	78fb      	ldrb	r3, [r7, #3]
 800184c:	015b      	lsls	r3, r3, #5
 800184e:	b25a      	sxtb	r2, r3
 8001850:	f997 300f 	ldrsb.w	r3, [r7, #15]
 8001854:	4313      	orrs	r3, r2
 8001856:	b25b      	sxtb	r3, r3
 8001858:	73fb      	strb	r3, [r7, #15]

	Write8(bmp, BMP280_CONTROL, Tmp);
 800185a:	7bfb      	ldrb	r3, [r7, #15]
 800185c:	461a      	mov	r2, r3
 800185e:	21f4      	movs	r1, #244	; 0xf4
 8001860:	6878      	ldr	r0, [r7, #4]
 8001862:	f7ff ff20 	bl	80016a6 <Write8>
}
 8001866:	bf00      	nop
 8001868:	3710      	adds	r7, #16
 800186a:	46bd      	mov	sp, r7
 800186c:	bd80      	pop	{r7, pc}

0800186e <BMP280_ReadTemperatureRaw>:

//
// Read Raw temperature data from BMP280
//
int32_t BMP280_ReadTemperatureRaw(BMP280_t *bmp)
{
 800186e:	b580      	push	{r7, lr}
 8001870:	b084      	sub	sp, #16
 8001872:	af00      	add	r7, sp, #0
 8001874:	6078      	str	r0, [r7, #4]
	int32_t Tmp;

	Tmp = (int32_t)Read24(bmp, BMP280_TEMPDATA);
 8001876:	21fa      	movs	r1, #250	; 0xfa
 8001878:	6878      	ldr	r0, [r7, #4]
 800187a:	f7ff ff59 	bl	8001730 <Read24>
 800187e:	4603      	mov	r3, r0
 8001880:	60fb      	str	r3, [r7, #12]

	Tmp >>= 4; // Move 4 left due to such storing (Datasheet).
 8001882:	68fb      	ldr	r3, [r7, #12]
 8001884:	111b      	asrs	r3, r3, #4
 8001886:	60fb      	str	r3, [r7, #12]

	return Tmp;
 8001888:	68fb      	ldr	r3, [r7, #12]
}
 800188a:	4618      	mov	r0, r3
 800188c:	3710      	adds	r7, #16
 800188e:	46bd      	mov	sp, r7
 8001890:	bd80      	pop	{r7, pc}

08001892 <BMP280_ReadPressureRaw>:

//
// Read Raw pressure data from BMP280
//
int32_t BMP280_ReadPressureRaw(BMP280_t *bmp)
{
 8001892:	b580      	push	{r7, lr}
 8001894:	b084      	sub	sp, #16
 8001896:	af00      	add	r7, sp, #0
 8001898:	6078      	str	r0, [r7, #4]
	int32_t Tmp;

	Tmp = (int32_t)Read24(bmp, BMP280_PRESSUREDATA);
 800189a:	21f7      	movs	r1, #247	; 0xf7
 800189c:	6878      	ldr	r0, [r7, #4]
 800189e:	f7ff ff47 	bl	8001730 <Read24>
 80018a2:	4603      	mov	r3, r0
 80018a4:	60fb      	str	r3, [r7, #12]

	Tmp >>= 4; // Move 4 left due to such storing (Datasheet).
 80018a6:	68fb      	ldr	r3, [r7, #12]
 80018a8:	111b      	asrs	r3, r3, #4
 80018aa:	60fb      	str	r3, [r7, #12]

	return Tmp;
 80018ac:	68fb      	ldr	r3, [r7, #12]
}
 80018ae:	4618      	mov	r0, r3
 80018b0:	3710      	adds	r7, #16
 80018b2:	46bd      	mov	sp, r7
 80018b4:	bd80      	pop	{r7, pc}
	...

080018b8 <BMP280_ReadTemperature>:
//
// Read and calculate temperature
// Whole procedure is taken from BMP280 Datasheet
//
float BMP280_ReadTemperature(BMP280_t *bmp)
{
 80018b8:	b590      	push	{r4, r7, lr}
 80018ba:	b087      	sub	sp, #28
 80018bc:	af00      	add	r7, sp, #0
 80018be:	6078      	str	r0, [r7, #4]
	int32_t var1, var2, T;

	int32_t adc_T;

	adc_T = BMP280_ReadTemperatureRaw(bmp);
 80018c0:	6878      	ldr	r0, [r7, #4]
 80018c2:	f7ff ffd4 	bl	800186e <BMP280_ReadTemperatureRaw>
 80018c6:	6178      	str	r0, [r7, #20]

	var1 = ((((adc_T>>3) - ((int32_t)(bmp->t1)<<1))) * ((int32_t)(bmp->t2))) >> 11;
 80018c8:	697b      	ldr	r3, [r7, #20]
 80018ca:	10da      	asrs	r2, r3, #3
 80018cc:	687b      	ldr	r3, [r7, #4]
 80018ce:	8b5b      	ldrh	r3, [r3, #26]
 80018d0:	005b      	lsls	r3, r3, #1
 80018d2:	1ad3      	subs	r3, r2, r3
 80018d4:	687a      	ldr	r2, [r7, #4]
 80018d6:	f9b2 2006 	ldrsh.w	r2, [r2, #6]
 80018da:	fb02 f303 	mul.w	r3, r2, r3
 80018de:	12db      	asrs	r3, r3, #11
 80018e0:	613b      	str	r3, [r7, #16]

	var2 = (((((adc_T>>4) - ((int32_t)(bmp->t1))) * ((adc_T>>4) - ((int32_t)(bmp->t1)))) >> 12) *
 80018e2:	697b      	ldr	r3, [r7, #20]
 80018e4:	111b      	asrs	r3, r3, #4
 80018e6:	687a      	ldr	r2, [r7, #4]
 80018e8:	8b52      	ldrh	r2, [r2, #26]
 80018ea:	1a9b      	subs	r3, r3, r2
 80018ec:	697a      	ldr	r2, [r7, #20]
 80018ee:	1112      	asrs	r2, r2, #4
 80018f0:	6879      	ldr	r1, [r7, #4]
 80018f2:	8b49      	ldrh	r1, [r1, #26]
 80018f4:	1a52      	subs	r2, r2, r1
 80018f6:	fb02 f303 	mul.w	r3, r2, r3
 80018fa:	131b      	asrs	r3, r3, #12
	((int32_t)(bmp->t3))) >> 14;
 80018fc:	687a      	ldr	r2, [r7, #4]
 80018fe:	f9b2 2008 	ldrsh.w	r2, [r2, #8]
	var2 = (((((adc_T>>4) - ((int32_t)(bmp->t1))) * ((adc_T>>4) - ((int32_t)(bmp->t1)))) >> 12) *
 8001902:	fb02 f303 	mul.w	r3, r2, r3
 8001906:	139b      	asrs	r3, r3, #14
 8001908:	60fb      	str	r3, [r7, #12]

	bmp->t_fine = var1 + var2;
 800190a:	693a      	ldr	r2, [r7, #16]
 800190c:	68fb      	ldr	r3, [r7, #12]
 800190e:	441a      	add	r2, r3
 8001910:	687b      	ldr	r3, [r7, #4]
 8001912:	621a      	str	r2, [r3, #32]

	T = ((bmp->t_fine) * 5 + 128) >> 8;
 8001914:	687b      	ldr	r3, [r7, #4]
 8001916:	6a1a      	ldr	r2, [r3, #32]
 8001918:	4613      	mov	r3, r2
 800191a:	009b      	lsls	r3, r3, #2
 800191c:	4413      	add	r3, r2
 800191e:	3380      	adds	r3, #128	; 0x80
 8001920:	121b      	asrs	r3, r3, #8
 8001922:	60bb      	str	r3, [r7, #8]

	return (float)(T/100.0);
 8001924:	68b8      	ldr	r0, [r7, #8]
 8001926:	f7fe fe05 	bl	8000534 <__aeabi_i2d>
 800192a:	f04f 0200 	mov.w	r2, #0
 800192e:	4b08      	ldr	r3, [pc, #32]	; (8001950 <BMP280_ReadTemperature+0x98>)
 8001930:	f7fe ff94 	bl	800085c <__aeabi_ddiv>
 8001934:	4603      	mov	r3, r0
 8001936:	460c      	mov	r4, r1
 8001938:	4618      	mov	r0, r3
 800193a:	4621      	mov	r1, r4
 800193c:	f7ff f95c 	bl	8000bf8 <__aeabi_d2f>
 8001940:	4603      	mov	r3, r0
 8001942:	ee07 3a90 	vmov	s15, r3
}
 8001946:	eeb0 0a67 	vmov.f32	s0, s15
 800194a:	371c      	adds	r7, #28
 800194c:	46bd      	mov	sp, r7
 800194e:	bd90      	pop	{r4, r7, pc}
 8001950:	40590000 	.word	0x40590000

08001954 <BMP280_ReadPressureAndTemperature>:
//
// Read and calculate temperature & pressure
// Whole procedure is taken from BMP280 Datasheet
//
uint8_t BMP280_ReadPressureAndTemperature(BMP280_t *bmp, float *Pressure, float *Temperature)
{
 8001954:	b590      	push	{r4, r7, lr}
 8001956:	b089      	sub	sp, #36	; 0x24
 8001958:	af00      	add	r7, sp, #0
 800195a:	60f8      	str	r0, [r7, #12]
 800195c:	60b9      	str	r1, [r7, #8]
 800195e:	607a      	str	r2, [r7, #4]
	// Have to read temperature first
	*Temperature = BMP280_ReadTemperature(bmp);
 8001960:	68f8      	ldr	r0, [r7, #12]
 8001962:	f7ff ffa9 	bl	80018b8 <BMP280_ReadTemperature>
 8001966:	eef0 7a40 	vmov.f32	s15, s0
 800196a:	687b      	ldr	r3, [r7, #4]
 800196c:	edc3 7a00 	vstr	s15, [r3]

	int32_t var1, var2;
	uint32_t p;

	var1 = (((int32_t)(bmp->t_fine))>>1) - (int32_t)64000;
 8001970:	68fb      	ldr	r3, [r7, #12]
 8001972:	6a1b      	ldr	r3, [r3, #32]
 8001974:	105b      	asrs	r3, r3, #1
 8001976:	f5a3 437a 	sub.w	r3, r3, #64000	; 0xfa00
 800197a:	61bb      	str	r3, [r7, #24]
	var2 = (((var1>>2) * (var1>>2)) >> 11 ) * ((int32_t)(bmp->p6));
 800197c:	69bb      	ldr	r3, [r7, #24]
 800197e:	109b      	asrs	r3, r3, #2
 8001980:	69ba      	ldr	r2, [r7, #24]
 8001982:	1092      	asrs	r2, r2, #2
 8001984:	fb02 f303 	mul.w	r3, r2, r3
 8001988:	12db      	asrs	r3, r3, #11
 800198a:	68fa      	ldr	r2, [r7, #12]
 800198c:	f9b2 2012 	ldrsh.w	r2, [r2, #18]
 8001990:	fb02 f303 	mul.w	r3, r2, r3
 8001994:	617b      	str	r3, [r7, #20]
	var2 = var2 + ((var1*((int32_t)(bmp->p5)))<<1);
 8001996:	68fb      	ldr	r3, [r7, #12]
 8001998:	f9b3 3010 	ldrsh.w	r3, [r3, #16]
 800199c:	461a      	mov	r2, r3
 800199e:	69bb      	ldr	r3, [r7, #24]
 80019a0:	fb03 f302 	mul.w	r3, r3, r2
 80019a4:	005b      	lsls	r3, r3, #1
 80019a6:	697a      	ldr	r2, [r7, #20]
 80019a8:	4413      	add	r3, r2
 80019aa:	617b      	str	r3, [r7, #20]
	var2 = (var2>>2)+(((int32_t)(bmp->p4))<<16);
 80019ac:	697b      	ldr	r3, [r7, #20]
 80019ae:	109a      	asrs	r2, r3, #2
 80019b0:	68fb      	ldr	r3, [r7, #12]
 80019b2:	f9b3 300e 	ldrsh.w	r3, [r3, #14]
 80019b6:	041b      	lsls	r3, r3, #16
 80019b8:	4413      	add	r3, r2
 80019ba:	617b      	str	r3, [r7, #20]
	var1 = ((((bmp->p3) * (((var1>>2) * (var1>>2)) >> 13 )) >> 3) + ((((int32_t)(bmp->p2)) * var1)>>1))>>18;
 80019bc:	68fb      	ldr	r3, [r7, #12]
 80019be:	f9b3 300c 	ldrsh.w	r3, [r3, #12]
 80019c2:	4619      	mov	r1, r3
 80019c4:	69bb      	ldr	r3, [r7, #24]
 80019c6:	109b      	asrs	r3, r3, #2
 80019c8:	69ba      	ldr	r2, [r7, #24]
 80019ca:	1092      	asrs	r2, r2, #2
 80019cc:	fb02 f303 	mul.w	r3, r2, r3
 80019d0:	135b      	asrs	r3, r3, #13
 80019d2:	fb03 f301 	mul.w	r3, r3, r1
 80019d6:	10da      	asrs	r2, r3, #3
 80019d8:	68fb      	ldr	r3, [r7, #12]
 80019da:	f9b3 300a 	ldrsh.w	r3, [r3, #10]
 80019de:	4619      	mov	r1, r3
 80019e0:	69bb      	ldr	r3, [r7, #24]
 80019e2:	fb03 f301 	mul.w	r3, r3, r1
 80019e6:	105b      	asrs	r3, r3, #1
 80019e8:	4413      	add	r3, r2
 80019ea:	149b      	asrs	r3, r3, #18
 80019ec:	61bb      	str	r3, [r7, #24]
	var1 =((((32768+var1))*((int32_t)(bmp->p1)))>>15);
 80019ee:	69bb      	ldr	r3, [r7, #24]
 80019f0:	f503 4300 	add.w	r3, r3, #32768	; 0x8000
 80019f4:	68fa      	ldr	r2, [r7, #12]
 80019f6:	8b92      	ldrh	r2, [r2, #28]
 80019f8:	fb02 f303 	mul.w	r3, r2, r3
 80019fc:	13db      	asrs	r3, r3, #15
 80019fe:	61bb      	str	r3, [r7, #24]

	if (var1 == 0)
 8001a00:	69bb      	ldr	r3, [r7, #24]
 8001a02:	2b00      	cmp	r3, #0
 8001a04:	d101      	bne.n	8001a0a <BMP280_ReadPressureAndTemperature+0xb6>
	{
		return 1; // avoid exception caused by division by zero
 8001a06:	2301      	movs	r3, #1
 8001a08:	e054      	b.n	8001ab4 <BMP280_ReadPressureAndTemperature+0x160>
	}

	// Raw pressure from BMP's ADC
	int32_t adc_P = BMP280_ReadPressureRaw(bmp);
 8001a0a:	68f8      	ldr	r0, [r7, #12]
 8001a0c:	f7ff ff41 	bl	8001892 <BMP280_ReadPressureRaw>
 8001a10:	6138      	str	r0, [r7, #16]

	p = (((int32_t)(((int32_t)1048576)-adc_P)-(var2>>12)))*3125;
 8001a12:	693b      	ldr	r3, [r7, #16]
 8001a14:	f5c3 1280 	rsb	r2, r3, #1048576	; 0x100000
 8001a18:	697b      	ldr	r3, [r7, #20]
 8001a1a:	131b      	asrs	r3, r3, #12
 8001a1c:	1ad3      	subs	r3, r2, r3
 8001a1e:	f640 4235 	movw	r2, #3125	; 0xc35
 8001a22:	fb02 f303 	mul.w	r3, r2, r3
 8001a26:	61fb      	str	r3, [r7, #28]
	if (p < 0x80000000)
 8001a28:	69fb      	ldr	r3, [r7, #28]
 8001a2a:	2b00      	cmp	r3, #0
 8001a2c:	db06      	blt.n	8001a3c <BMP280_ReadPressureAndTemperature+0xe8>
	{
		p = (p << 1) / ((uint32_t)var1);
 8001a2e:	69fb      	ldr	r3, [r7, #28]
 8001a30:	005a      	lsls	r2, r3, #1
 8001a32:	69bb      	ldr	r3, [r7, #24]
 8001a34:	fbb2 f3f3 	udiv	r3, r2, r3
 8001a38:	61fb      	str	r3, [r7, #28]
 8001a3a:	e005      	b.n	8001a48 <BMP280_ReadPressureAndTemperature+0xf4>
	}
	else
	{
		p = (p / (uint32_t)var1) * 2;
 8001a3c:	69bb      	ldr	r3, [r7, #24]
 8001a3e:	69fa      	ldr	r2, [r7, #28]
 8001a40:	fbb2 f3f3 	udiv	r3, r2, r3
 8001a44:	005b      	lsls	r3, r3, #1
 8001a46:	61fb      	str	r3, [r7, #28]
	}
	var1 = (((int32_t)(bmp->p9)) * ((int32_t)(((p>>3) * (p>>3))>>13)))>>12;
 8001a48:	68fb      	ldr	r3, [r7, #12]
 8001a4a:	f9b3 3018 	ldrsh.w	r3, [r3, #24]
 8001a4e:	4619      	mov	r1, r3
 8001a50:	69fb      	ldr	r3, [r7, #28]
 8001a52:	08db      	lsrs	r3, r3, #3
 8001a54:	69fa      	ldr	r2, [r7, #28]
 8001a56:	08d2      	lsrs	r2, r2, #3
 8001a58:	fb02 f303 	mul.w	r3, r2, r3
 8001a5c:	0b5b      	lsrs	r3, r3, #13
 8001a5e:	fb03 f301 	mul.w	r3, r3, r1
 8001a62:	131b      	asrs	r3, r3, #12
 8001a64:	61bb      	str	r3, [r7, #24]
	var2 = (((int32_t)(p>>2)) * ((int32_t)(bmp->p8)))>>13;
 8001a66:	69fb      	ldr	r3, [r7, #28]
 8001a68:	089b      	lsrs	r3, r3, #2
 8001a6a:	461a      	mov	r2, r3
 8001a6c:	68fb      	ldr	r3, [r7, #12]
 8001a6e:	f9b3 3016 	ldrsh.w	r3, [r3, #22]
 8001a72:	fb03 f302 	mul.w	r3, r3, r2
 8001a76:	135b      	asrs	r3, r3, #13
 8001a78:	617b      	str	r3, [r7, #20]

	p = (uint32_t)((int32_t)p + ((var1 + var2 + (bmp->p7)) >> 4));
 8001a7a:	69ba      	ldr	r2, [r7, #24]
 8001a7c:	697b      	ldr	r3, [r7, #20]
 8001a7e:	4413      	add	r3, r2
 8001a80:	68fa      	ldr	r2, [r7, #12]
 8001a82:	f9b2 2014 	ldrsh.w	r2, [r2, #20]
 8001a86:	4413      	add	r3, r2
 8001a88:	111a      	asrs	r2, r3, #4
 8001a8a:	69fb      	ldr	r3, [r7, #28]
 8001a8c:	4413      	add	r3, r2
 8001a8e:	61fb      	str	r3, [r7, #28]

	// Convert Pa to hPa
	*Pressure = (float)(p/100.0);
 8001a90:	69f8      	ldr	r0, [r7, #28]
 8001a92:	f7fe fd3f 	bl	8000514 <__aeabi_ui2d>
 8001a96:	f04f 0200 	mov.w	r2, #0
 8001a9a:	4b08      	ldr	r3, [pc, #32]	; (8001abc <BMP280_ReadPressureAndTemperature+0x168>)
 8001a9c:	f7fe fede 	bl	800085c <__aeabi_ddiv>
 8001aa0:	4603      	mov	r3, r0
 8001aa2:	460c      	mov	r4, r1
 8001aa4:	4618      	mov	r0, r3
 8001aa6:	4621      	mov	r1, r4
 8001aa8:	f7ff f8a6 	bl	8000bf8 <__aeabi_d2f>
 8001aac:	4602      	mov	r2, r0
 8001aae:	68bb      	ldr	r3, [r7, #8]
 8001ab0:	601a      	str	r2, [r3, #0]

	return 0;
 8001ab2:	2300      	movs	r3, #0
}
 8001ab4:	4618      	mov	r0, r3
 8001ab6:	3724      	adds	r7, #36	; 0x24
 8001ab8:	46bd      	mov	sp, r7
 8001aba:	bd90      	pop	{r4, r7, pc}
 8001abc:	40590000 	.word	0x40590000

08001ac0 <BMP280_Init>:

//
// Init
//
uint8_t BMP280_Init(BMP280_t *bmp, I2C_HandleTypeDef *i2c, uint8_t Address)
{
 8001ac0:	b580      	push	{r7, lr}
 8001ac2:	b086      	sub	sp, #24
 8001ac4:	af00      	add	r7, sp, #0
 8001ac6:	60f8      	str	r0, [r7, #12]
 8001ac8:	60b9      	str	r1, [r7, #8]
 8001aca:	4613      	mov	r3, r2
 8001acc:	71fb      	strb	r3, [r7, #7]
	uint8_t ChipID;

	// Save I2C handler and address
	bmp->bmp_i2c = i2c;
 8001ace:	68fb      	ldr	r3, [r7, #12]
 8001ad0:	68ba      	ldr	r2, [r7, #8]
 8001ad2:	601a      	str	r2, [r3, #0]
	bmp->Address = Address;
 8001ad4:	68fb      	ldr	r3, [r7, #12]
 8001ad6:	79fa      	ldrb	r2, [r7, #7]
 8001ad8:	711a      	strb	r2, [r3, #4]

	//Read Chip ID
	ChipID = Read8(bmp, BMP280_CHIPID);
 8001ada:	21d0      	movs	r1, #208	; 0xd0
 8001adc:	68f8      	ldr	r0, [r7, #12]
 8001ade:	f7ff fdc3 	bl	8001668 <Read8>
 8001ae2:	4603      	mov	r3, r0
 8001ae4:	75fb      	strb	r3, [r7, #23]

	// Check if ID is correct
	if(ChipID != 0x58)
 8001ae6:	7dfb      	ldrb	r3, [r7, #23]
 8001ae8:	2b58      	cmp	r3, #88	; 0x58
 8001aea:	d001      	beq.n	8001af0 <BMP280_Init+0x30>
	{
		return 1;
 8001aec:	2301      	movs	r3, #1
 8001aee:	e06c      	b.n	8001bca <BMP280_Init+0x10a>
	}

	// Read all coefficients
	bmp->t1 = Read16(bmp, BMP280_DIG_T1);
 8001af0:	2188      	movs	r1, #136	; 0x88
 8001af2:	68f8      	ldr	r0, [r7, #12]
 8001af4:	f7ff fdf6 	bl	80016e4 <Read16>
 8001af8:	4603      	mov	r3, r0
 8001afa:	461a      	mov	r2, r3
 8001afc:	68fb      	ldr	r3, [r7, #12]
 8001afe:	835a      	strh	r2, [r3, #26]
	bmp->t2 = Read16(bmp, BMP280_DIG_T2);
 8001b00:	218a      	movs	r1, #138	; 0x8a
 8001b02:	68f8      	ldr	r0, [r7, #12]
 8001b04:	f7ff fdee 	bl	80016e4 <Read16>
 8001b08:	4603      	mov	r3, r0
 8001b0a:	b21a      	sxth	r2, r3
 8001b0c:	68fb      	ldr	r3, [r7, #12]
 8001b0e:	80da      	strh	r2, [r3, #6]
	bmp->t3 = Read16(bmp, BMP280_DIG_T3);
 8001b10:	218c      	movs	r1, #140	; 0x8c
 8001b12:	68f8      	ldr	r0, [r7, #12]
 8001b14:	f7ff fde6 	bl	80016e4 <Read16>
 8001b18:	4603      	mov	r3, r0
 8001b1a:	b21a      	sxth	r2, r3
 8001b1c:	68fb      	ldr	r3, [r7, #12]
 8001b1e:	811a      	strh	r2, [r3, #8]

	bmp->p1 = Read16(bmp, BMP280_DIG_P1);
 8001b20:	218e      	movs	r1, #142	; 0x8e
 8001b22:	68f8      	ldr	r0, [r7, #12]
 8001b24:	f7ff fdde 	bl	80016e4 <Read16>
 8001b28:	4603      	mov	r3, r0
 8001b2a:	461a      	mov	r2, r3
 8001b2c:	68fb      	ldr	r3, [r7, #12]
 8001b2e:	839a      	strh	r2, [r3, #28]
	bmp->p2 = Read16(bmp, BMP280_DIG_P2);
 8001b30:	2190      	movs	r1, #144	; 0x90
 8001b32:	68f8      	ldr	r0, [r7, #12]
 8001b34:	f7ff fdd6 	bl	80016e4 <Read16>
 8001b38:	4603      	mov	r3, r0
 8001b3a:	b21a      	sxth	r2, r3
 8001b3c:	68fb      	ldr	r3, [r7, #12]
 8001b3e:	815a      	strh	r2, [r3, #10]
	bmp->p3 = Read16(bmp, BMP280_DIG_P3);
 8001b40:	2192      	movs	r1, #146	; 0x92
 8001b42:	68f8      	ldr	r0, [r7, #12]
 8001b44:	f7ff fdce 	bl	80016e4 <Read16>
 8001b48:	4603      	mov	r3, r0
 8001b4a:	b21a      	sxth	r2, r3
 8001b4c:	68fb      	ldr	r3, [r7, #12]
 8001b4e:	819a      	strh	r2, [r3, #12]
	bmp->p4 = Read16(bmp, BMP280_DIG_P4);
 8001b50:	2194      	movs	r1, #148	; 0x94
 8001b52:	68f8      	ldr	r0, [r7, #12]
 8001b54:	f7ff fdc6 	bl	80016e4 <Read16>
 8001b58:	4603      	mov	r3, r0
 8001b5a:	b21a      	sxth	r2, r3
 8001b5c:	68fb      	ldr	r3, [r7, #12]
 8001b5e:	81da      	strh	r2, [r3, #14]
	bmp->p5 = Read16(bmp, BMP280_DIG_P5);
 8001b60:	2196      	movs	r1, #150	; 0x96
 8001b62:	68f8      	ldr	r0, [r7, #12]
 8001b64:	f7ff fdbe 	bl	80016e4 <Read16>
 8001b68:	4603      	mov	r3, r0
 8001b6a:	b21a      	sxth	r2, r3
 8001b6c:	68fb      	ldr	r3, [r7, #12]
 8001b6e:	821a      	strh	r2, [r3, #16]
	bmp->p6 = Read16(bmp, BMP280_DIG_P6);
 8001b70:	2198      	movs	r1, #152	; 0x98
 8001b72:	68f8      	ldr	r0, [r7, #12]
 8001b74:	f7ff fdb6 	bl	80016e4 <Read16>
 8001b78:	4603      	mov	r3, r0
 8001b7a:	b21a      	sxth	r2, r3
 8001b7c:	68fb      	ldr	r3, [r7, #12]
 8001b7e:	825a      	strh	r2, [r3, #18]
	bmp->p7 = Read16(bmp, BMP280_DIG_P7);
 8001b80:	219a      	movs	r1, #154	; 0x9a
 8001b82:	68f8      	ldr	r0, [r7, #12]
 8001b84:	f7ff fdae 	bl	80016e4 <Read16>
 8001b88:	4603      	mov	r3, r0
 8001b8a:	b21a      	sxth	r2, r3
 8001b8c:	68fb      	ldr	r3, [r7, #12]
 8001b8e:	829a      	strh	r2, [r3, #20]
	bmp->p8 = Read16(bmp, BMP280_DIG_P8);
 8001b90:	219c      	movs	r1, #156	; 0x9c
 8001b92:	68f8      	ldr	r0, [r7, #12]
 8001b94:	f7ff fda6 	bl	80016e4 <Read16>
 8001b98:	4603      	mov	r3, r0
 8001b9a:	b21a      	sxth	r2, r3
 8001b9c:	68fb      	ldr	r3, [r7, #12]
 8001b9e:	82da      	strh	r2, [r3, #22]
	bmp->p9 = Read16(bmp, BMP280_DIG_P9);
 8001ba0:	219e      	movs	r1, #158	; 0x9e
 8001ba2:	68f8      	ldr	r0, [r7, #12]
 8001ba4:	f7ff fd9e 	bl	80016e4 <Read16>
 8001ba8:	4603      	mov	r3, r0
 8001baa:	b21a      	sxth	r2, r3
 8001bac:	68fb      	ldr	r3, [r7, #12]
 8001bae:	831a      	strh	r2, [r3, #24]

	// Set base settings
	BMP280_SetTemperatureOversampling(bmp, BMP280_TEMPERATURE_20BIT);
 8001bb0:	2105      	movs	r1, #5
 8001bb2:	68f8      	ldr	r0, [r7, #12]
 8001bb4:	f7ff fe34 	bl	8001820 <BMP280_SetTemperatureOversampling>
	BMP280_SetPressureOversampling(bmp, BMP280_ULTRAHIGHRES);
 8001bb8:	2105      	movs	r1, #5
 8001bba:	68f8      	ldr	r0, [r7, #12]
 8001bbc:	f7ff fe06 	bl	80017cc <BMP280_SetPressureOversampling>
	BMP280_SetMode(bmp, BMP280_NORMALMODE);
 8001bc0:	2103      	movs	r1, #3
 8001bc2:	68f8      	ldr	r0, [r7, #12]
 8001bc4:	f7ff fdd9 	bl	800177a <BMP280_SetMode>

	return 0;
 8001bc8:	2300      	movs	r3, #0
}
 8001bca:	4618      	mov	r0, r3
 8001bcc:	3718      	adds	r7, #24
 8001bce:	46bd      	mov	sp, r7
 8001bd0:	bd80      	pop	{r7, pc}
	...

08001bd4 <_putchar>:
};

/* Private function prototypes -----------------------------------------------*/
/* USER CODE BEGIN FunctionPrototypes */
void _putchar(char character)
{
 8001bd4:	b580      	push	{r7, lr}
 8001bd6:	b082      	sub	sp, #8
 8001bd8:	af00      	add	r7, sp, #0
 8001bda:	4603      	mov	r3, r0
 8001bdc:	71fb      	strb	r3, [r7, #7]
  // send char to console etc.
	osMutexAcquire(MutexPrintfHandle, osWaitForever);
 8001bde:	4b0b      	ldr	r3, [pc, #44]	; (8001c0c <_putchar+0x38>)
 8001be0:	681b      	ldr	r3, [r3, #0]
 8001be2:	f04f 31ff 	mov.w	r1, #4294967295
 8001be6:	4618      	mov	r0, r3
 8001be8:	f005 fa5c 	bl	80070a4 <osMutexAcquire>
	HAL_UART_Transmit(&huart2, (uint8_t*)&character, 1, 1000);
 8001bec:	1df9      	adds	r1, r7, #7
 8001bee:	f44f 737a 	mov.w	r3, #1000	; 0x3e8
 8001bf2:	2201      	movs	r2, #1
 8001bf4:	4806      	ldr	r0, [pc, #24]	; (8001c10 <_putchar+0x3c>)
 8001bf6:	f004 faa2 	bl	800613e <HAL_UART_Transmit>
	osMutexRelease(MutexPrintfHandle);
 8001bfa:	4b04      	ldr	r3, [pc, #16]	; (8001c0c <_putchar+0x38>)
 8001bfc:	681b      	ldr	r3, [r3, #0]
 8001bfe:	4618      	mov	r0, r3
 8001c00:	f005 faae 	bl	8007160 <osMutexRelease>
}
 8001c04:	bf00      	nop
 8001c06:	3708      	adds	r7, #8
 8001c08:	46bd      	mov	sp, r7
 8001c0a:	bd80      	pop	{r7, pc}
 8001c0c:	20004f2c 	.word	0x20004f2c
 8001c10:	20004fd4 	.word	0x20004fd4

08001c14 <MX_FREERTOS_Init>:
/**
  * @brief  FreeRTOS initialization
  * @param  None
  * @retval None
  */
void MX_FREERTOS_Init(void) {
 8001c14:	b580      	push	{r7, lr}
 8001c16:	af00      	add	r7, sp, #0
  /* USER CODE BEGIN Init */

  /* USER CODE END Init */
  /* Create the mutex(es) */
  /* creation of MutexPrintf */
  MutexPrintfHandle = osMutexNew(&MutexPrintf_attributes);
 8001c18:	4822      	ldr	r0, [pc, #136]	; (8001ca4 <MX_FREERTOS_Init+0x90>)
 8001c1a:	f005 f9a9 	bl	8006f70 <osMutexNew>
 8001c1e:	4602      	mov	r2, r0
 8001c20:	4b21      	ldr	r3, [pc, #132]	; (8001ca8 <MX_FREERTOS_Init+0x94>)
 8001c22:	601a      	str	r2, [r3, #0]

  /* creation of MutexI2C1 */
  MutexI2C1Handle = osMutexNew(&MutexI2C1_attributes);
 8001c24:	4821      	ldr	r0, [pc, #132]	; (8001cac <MX_FREERTOS_Init+0x98>)
 8001c26:	f005 f9a3 	bl	8006f70 <osMutexNew>
 8001c2a:	4602      	mov	r2, r0
 8001c2c:	4b20      	ldr	r3, [pc, #128]	; (8001cb0 <MX_FREERTOS_Init+0x9c>)
 8001c2e:	601a      	str	r2, [r3, #0]

  /* creation of MutexBmpData */
  MutexBmpDataHandle = osMutexNew(&MutexBmpData_attributes);
 8001c30:	4820      	ldr	r0, [pc, #128]	; (8001cb4 <MX_FREERTOS_Init+0xa0>)
 8001c32:	f005 f99d 	bl	8006f70 <osMutexNew>
 8001c36:	4602      	mov	r2, r0
 8001c38:	4b1f      	ldr	r3, [pc, #124]	; (8001cb8 <MX_FREERTOS_Init+0xa4>)
 8001c3a:	601a      	str	r2, [r3, #0]
  /* add mutexes, ... */
  /* USER CODE END RTOS_MUTEX */

  /* Create the semaphores(s) */
  /* creation of SemaphoreBmpQueue */
  SemaphoreBmpQueueHandle = osSemaphoreNew(1, 1, &SemaphoreBmpQueue_attributes);
 8001c3c:	4a1f      	ldr	r2, [pc, #124]	; (8001cbc <MX_FREERTOS_Init+0xa8>)
 8001c3e:	2101      	movs	r1, #1
 8001c40:	2001      	movs	r0, #1
 8001c42:	f005 fadd 	bl	8007200 <osSemaphoreNew>
 8001c46:	4602      	mov	r2, r0
 8001c48:	4b1d      	ldr	r3, [pc, #116]	; (8001cc0 <MX_FREERTOS_Init+0xac>)
 8001c4a:	601a      	str	r2, [r3, #0]
  /* add semaphores, ... */
  /* USER CODE END RTOS_SEMAPHORES */

  /* Create the timer(s) */
  /* creation of TimerBmpData */
  TimerBmpDataHandle = osTimerNew(TimerBmpDataCallback, osTimerPeriodic, NULL, &TimerBmpData_attributes);
 8001c4c:	4b1d      	ldr	r3, [pc, #116]	; (8001cc4 <MX_FREERTOS_Init+0xb0>)
 8001c4e:	2200      	movs	r2, #0
 8001c50:	2101      	movs	r1, #1
 8001c52:	481d      	ldr	r0, [pc, #116]	; (8001cc8 <MX_FREERTOS_Init+0xb4>)
 8001c54:	f005 f8c8 	bl	8006de8 <osTimerNew>
 8001c58:	4602      	mov	r2, r0
 8001c5a:	4b1c      	ldr	r3, [pc, #112]	; (8001ccc <MX_FREERTOS_Init+0xb8>)
 8001c5c:	601a      	str	r2, [r3, #0]
  /* start timers, add new ones, ... */
  /* USER CODE END RTOS_TIMERS */

  /* Create the queue(s) */
  /* creation of QueueBmpData */
  QueueBmpDataHandle = osMessageQueueNew (8, sizeof(BmpData_t), &QueueBmpData_attributes);
 8001c5e:	4a1c      	ldr	r2, [pc, #112]	; (8001cd0 <MX_FREERTOS_Init+0xbc>)
 8001c60:	2108      	movs	r1, #8
 8001c62:	2008      	movs	r0, #8
 8001c64:	f005 fc28 	bl	80074b8 <osMessageQueueNew>
 8001c68:	4602      	mov	r2, r0
 8001c6a:	4b1a      	ldr	r3, [pc, #104]	; (8001cd4 <MX_FREERTOS_Init+0xc0>)
 8001c6c:	601a      	str	r2, [r3, #0]
  /* add queues, ... */
  /* USER CODE END RTOS_QUEUES */

  /* Create the thread(s) */
  /* creation of HeartbeatTask */
  HeartbeatTaskHandle = osThreadNew(StartHeartbeatTask, NULL, &HeartbeatTask_attributes);
 8001c6e:	4a1a      	ldr	r2, [pc, #104]	; (8001cd8 <MX_FREERTOS_Init+0xc4>)
 8001c70:	2100      	movs	r1, #0
 8001c72:	481a      	ldr	r0, [pc, #104]	; (8001cdc <MX_FREERTOS_Init+0xc8>)
 8001c74:	f004 ff5c 	bl	8006b30 <osThreadNew>
 8001c78:	4602      	mov	r2, r0
 8001c7a:	4b19      	ldr	r3, [pc, #100]	; (8001ce0 <MX_FREERTOS_Init+0xcc>)
 8001c7c:	601a      	str	r2, [r3, #0]

  /* creation of Bmp280Task */
  Bmp280TaskHandle = osThreadNew(StartBmp280Task, NULL, &Bmp280Task_attributes);
 8001c7e:	4a19      	ldr	r2, [pc, #100]	; (8001ce4 <MX_FREERTOS_Init+0xd0>)
 8001c80:	2100      	movs	r1, #0
 8001c82:	4819      	ldr	r0, [pc, #100]	; (8001ce8 <MX_FREERTOS_Init+0xd4>)
 8001c84:	f004 ff54 	bl	8006b30 <osThreadNew>
 8001c88:	4602      	mov	r2, r0
 8001c8a:	4b18      	ldr	r3, [pc, #96]	; (8001cec <MX_FREERTOS_Init+0xd8>)
 8001c8c:	601a      	str	r2, [r3, #0]

  /* creation of OledTask */
  OledTaskHandle = osThreadNew(StartOledTask, NULL, &OledTask_attributes);
 8001c8e:	4a18      	ldr	r2, [pc, #96]	; (8001cf0 <MX_FREERTOS_Init+0xdc>)
 8001c90:	2100      	movs	r1, #0
 8001c92:	4818      	ldr	r0, [pc, #96]	; (8001cf4 <MX_FREERTOS_Init+0xe0>)
 8001c94:	f004 ff4c 	bl	8006b30 <osThreadNew>
 8001c98:	4602      	mov	r2, r0
 8001c9a:	4b17      	ldr	r3, [pc, #92]	; (8001cf8 <MX_FREERTOS_Init+0xe4>)
 8001c9c:	601a      	str	r2, [r3, #0]

  /* USER CODE BEGIN RTOS_EVENTS */
  /* add events, ... */
  /* USER CODE END RTOS_EVENTS */

}
 8001c9e:	bf00      	nop
 8001ca0:	bd80      	pop	{r7, pc}
 8001ca2:	bf00      	nop
 8001ca4:	0800ea28 	.word	0x0800ea28
 8001ca8:	20004f2c 	.word	0x20004f2c
 8001cac:	0800ea38 	.word	0x0800ea38
 8001cb0:	20004f30 	.word	0x20004f30
 8001cb4:	0800ea48 	.word	0x0800ea48
 8001cb8:	20004f38 	.word	0x20004f38
 8001cbc:	0800ea58 	.word	0x0800ea58
 8001cc0:	20004f20 	.word	0x20004f20
 8001cc4:	0800ea18 	.word	0x0800ea18
 8001cc8:	08001ef1 	.word	0x08001ef1
 8001ccc:	20004f1c 	.word	0x20004f1c
 8001cd0:	0800ea00 	.word	0x0800ea00
 8001cd4:	20004f28 	.word	0x20004f28
 8001cd8:	0800e994 	.word	0x0800e994
 8001cdc:	08001cfd 	.word	0x08001cfd
 8001ce0:	20004f3c 	.word	0x20004f3c
 8001ce4:	0800e9b8 	.word	0x0800e9b8
 8001ce8:	08001d1d 	.word	0x08001d1d
 8001cec:	20004f34 	.word	0x20004f34
 8001cf0:	0800e9dc 	.word	0x0800e9dc
 8001cf4:	08001df9 	.word	0x08001df9
 8001cf8:	20004f24 	.word	0x20004f24

08001cfc <StartHeartbeatTask>:
  * @param  argument: Not used
  * @retval None
  */
/* USER CODE END Header_StartHeartbeatTask */
void StartHeartbeatTask(void *argument)
{
 8001cfc:	b580      	push	{r7, lr}
 8001cfe:	b082      	sub	sp, #8
 8001d00:	af00      	add	r7, sp, #0
 8001d02:	6078      	str	r0, [r7, #4]
  /* USER CODE BEGIN StartHeartbeatTask */
  /* Infinite loop */
  for(;;)
  {
	  HAL_GPIO_TogglePin(LD2_GPIO_Port, LD2_Pin);
 8001d04:	2120      	movs	r1, #32
 8001d06:	4804      	ldr	r0, [pc, #16]	; (8001d18 <StartHeartbeatTask+0x1c>)
 8001d08:	f002 fb4b 	bl	80043a2 <HAL_GPIO_TogglePin>
	  osDelay(500);
 8001d0c:	f44f 70fa 	mov.w	r0, #500	; 0x1f4
 8001d10:	f004 ffe6 	bl	8006ce0 <osDelay>
	  HAL_GPIO_TogglePin(LD2_GPIO_Port, LD2_Pin);
 8001d14:	e7f6      	b.n	8001d04 <StartHeartbeatTask+0x8>
 8001d16:	bf00      	nop
 8001d18:	40020000 	.word	0x40020000

08001d1c <StartBmp280Task>:
* @param argument: Not used
* @retval None
*/
/* USER CODE END Header_StartBmp280Task */
void StartBmp280Task(void *argument)
{
 8001d1c:	b5f0      	push	{r4, r5, r6, r7, lr}
 8001d1e:	b091      	sub	sp, #68	; 0x44
 8001d20:	af02      	add	r7, sp, #8
 8001d22:	6078      	str	r0, [r7, #4]
  /* USER CODE BEGIN StartBmp280Task */
	BMP280_t Bmp280;
	BmpData_t _BmpData;
	uint32_t DelayTick = osKernelGetTickCount();
 8001d24:	f004 fedc 	bl	8006ae0 <osKernelGetTickCount>
 8001d28:	6378      	str	r0, [r7, #52]	; 0x34

	osMutexAcquire(MutexI2C1Handle, osWaitForever);
 8001d2a:	4b2d      	ldr	r3, [pc, #180]	; (8001de0 <StartBmp280Task+0xc4>)
 8001d2c:	681b      	ldr	r3, [r3, #0]
 8001d2e:	f04f 31ff 	mov.w	r1, #4294967295
 8001d32:	4618      	mov	r0, r3
 8001d34:	f005 f9b6 	bl	80070a4 <osMutexAcquire>
	BMP280_Init(&Bmp280, &hi2c1, 0x76);
 8001d38:	f107 0310 	add.w	r3, r7, #16
 8001d3c:	2276      	movs	r2, #118	; 0x76
 8001d3e:	4929      	ldr	r1, [pc, #164]	; (8001de4 <StartBmp280Task+0xc8>)
 8001d40:	4618      	mov	r0, r3
 8001d42:	f7ff febd 	bl	8001ac0 <BMP280_Init>
	osMutexRelease(MutexI2C1Handle);
 8001d46:	4b26      	ldr	r3, [pc, #152]	; (8001de0 <StartBmp280Task+0xc4>)
 8001d48:	681b      	ldr	r3, [r3, #0]
 8001d4a:	4618      	mov	r0, r3
 8001d4c:	f005 fa08 	bl	8007160 <osMutexRelease>

	osTimerStart(TimerBmpDataHandle, 100);
 8001d50:	4b25      	ldr	r3, [pc, #148]	; (8001de8 <StartBmp280Task+0xcc>)
 8001d52:	681b      	ldr	r3, [r3, #0]
 8001d54:	2164      	movs	r1, #100	; 0x64
 8001d56:	4618      	mov	r0, r3
 8001d58:	f005 f8ca 	bl	8006ef0 <osTimerStart>
  /* Infinite loop */
  for(;;)
  {
	  osMutexAcquire(MutexI2C1Handle, osWaitForever);
 8001d5c:	4b20      	ldr	r3, [pc, #128]	; (8001de0 <StartBmp280Task+0xc4>)
 8001d5e:	681b      	ldr	r3, [r3, #0]
 8001d60:	f04f 31ff 	mov.w	r1, #4294967295
 8001d64:	4618      	mov	r0, r3
 8001d66:	f005 f99d 	bl	80070a4 <osMutexAcquire>
	  BMP280_ReadPressureAndTemperature(&Bmp280, &_BmpData.Pressure, &_BmpData.Temperature);
 8001d6a:	f107 0308 	add.w	r3, r7, #8
 8001d6e:	1d1a      	adds	r2, r3, #4
 8001d70:	f107 0108 	add.w	r1, r7, #8
 8001d74:	f107 0310 	add.w	r3, r7, #16
 8001d78:	4618      	mov	r0, r3
 8001d7a:	f7ff fdeb 	bl	8001954 <BMP280_ReadPressureAndTemperature>
	  osMutexRelease(MutexI2C1Handle);
 8001d7e:	4b18      	ldr	r3, [pc, #96]	; (8001de0 <StartBmp280Task+0xc4>)
 8001d80:	681b      	ldr	r3, [r3, #0]
 8001d82:	4618      	mov	r0, r3
 8001d84:	f005 f9ec 	bl	8007160 <osMutexRelease>

	  if(osOK == osSemaphoreAcquire(SemaphoreBmpQueueHandle, 0))
 8001d88:	4b18      	ldr	r3, [pc, #96]	; (8001dec <StartBmp280Task+0xd0>)
 8001d8a:	681b      	ldr	r3, [r3, #0]
 8001d8c:	2100      	movs	r1, #0
 8001d8e:	4618      	mov	r0, r3
 8001d90:	f005 fad4 	bl	800733c <osSemaphoreAcquire>
 8001d94:	4603      	mov	r3, r0
 8001d96:	2b00      	cmp	r3, #0
 8001d98:	d108      	bne.n	8001dac <StartBmp280Task+0x90>
	  {
		  osMessageQueuePut(QueueBmpDataHandle, &_BmpData, 0, osWaitForever);
 8001d9a:	4b15      	ldr	r3, [pc, #84]	; (8001df0 <StartBmp280Task+0xd4>)
 8001d9c:	6818      	ldr	r0, [r3, #0]
 8001d9e:	f107 0108 	add.w	r1, r7, #8
 8001da2:	f04f 33ff 	mov.w	r3, #4294967295
 8001da6:	2200      	movs	r2, #0
 8001da8:	f005 fc0c 	bl	80075c4 <osMessageQueuePut>
//	  osMutexAcquire(MutexBmpDataHandle, osWaitForever);
//	  Pressure = _Pressure;
//	  Temperature = _Temperature;
//	  osMutexRelease(MutexBmpDataHandle);

	  printf("Temperature: %.2f, Pressure: %.2f\n\r", _BmpData.Temperature, _BmpData.Pressure);
 8001dac:	68fb      	ldr	r3, [r7, #12]
 8001dae:	4618      	mov	r0, r3
 8001db0:	f7fe fbd2 	bl	8000558 <__aeabi_f2d>
 8001db4:	4605      	mov	r5, r0
 8001db6:	460e      	mov	r6, r1
 8001db8:	68bb      	ldr	r3, [r7, #8]
 8001dba:	4618      	mov	r0, r3
 8001dbc:	f7fe fbcc 	bl	8000558 <__aeabi_f2d>
 8001dc0:	4603      	mov	r3, r0
 8001dc2:	460c      	mov	r4, r1
 8001dc4:	e9cd 3400 	strd	r3, r4, [sp]
 8001dc8:	462a      	mov	r2, r5
 8001dca:	4633      	mov	r3, r6
 8001dcc:	4809      	ldr	r0, [pc, #36]	; (8001df4 <StartBmp280Task+0xd8>)
 8001dce:	f001 fe65 	bl	8003a9c <printf_>

	  DelayTick += 10;
 8001dd2:	6b7b      	ldr	r3, [r7, #52]	; 0x34
 8001dd4:	330a      	adds	r3, #10
 8001dd6:	637b      	str	r3, [r7, #52]	; 0x34
	  osDelayUntil(DelayTick);
 8001dd8:	6b78      	ldr	r0, [r7, #52]	; 0x34
 8001dda:	f004 ffaf 	bl	8006d3c <osDelayUntil>
	  osMutexAcquire(MutexI2C1Handle, osWaitForever);
 8001dde:	e7bd      	b.n	8001d5c <StartBmp280Task+0x40>
 8001de0:	20004f30 	.word	0x20004f30
 8001de4:	20004f40 	.word	0x20004f40
 8001de8:	20004f1c 	.word	0x20004f1c
 8001dec:	20004f20 	.word	0x20004f20
 8001df0:	20004f28 	.word	0x20004f28
 8001df4:	0800e73c 	.word	0x0800e73c

08001df8 <StartOledTask>:
* @param argument: Not used
* @retval None
*/
/* USER CODE END Header_StartOledTask */
void StartOledTask(void *argument)
{
 8001df8:	b590      	push	{r4, r7, lr}
 8001dfa:	b091      	sub	sp, #68	; 0x44
 8001dfc:	af02      	add	r7, sp, #8
 8001dfe:	6078      	str	r0, [r7, #4]
  /* USER CODE BEGIN StartOledTask */
	char Message[32];
	uint8_t i = 0;
 8001e00:	2300      	movs	r3, #0
 8001e02:	f887 3037 	strb.w	r3, [r7, #55]	; 0x37

	BmpData_t _BmpData;
//	float _Pressure, _Temperature;

	osMutexAcquire(MutexI2C1Handle, osWaitForever);
 8001e06:	4b33      	ldr	r3, [pc, #204]	; (8001ed4 <StartOledTask+0xdc>)
 8001e08:	681b      	ldr	r3, [r3, #0]
 8001e0a:	f04f 31ff 	mov.w	r1, #4294967295
 8001e0e:	4618      	mov	r0, r3
 8001e10:	f005 f948 	bl	80070a4 <osMutexAcquire>
	SSD1306_Init(&hi2c1);
 8001e14:	4830      	ldr	r0, [pc, #192]	; (8001ed8 <StartOledTask+0xe0>)
 8001e16:	f7ff fbcf 	bl	80015b8 <SSD1306_Init>
	osMutexRelease(MutexI2C1Handle);
 8001e1a:	4b2e      	ldr	r3, [pc, #184]	; (8001ed4 <StartOledTask+0xdc>)
 8001e1c:	681b      	ldr	r3, [r3, #0]
 8001e1e:	4618      	mov	r0, r3
 8001e20:	f005 f99e 	bl	8007160 <osMutexRelease>

	GFX_SetFont(font_8x5);
 8001e24:	482d      	ldr	r0, [pc, #180]	; (8001edc <StartOledTask+0xe4>)
 8001e26:	f7ff f8b7 	bl	8000f98 <GFX_SetFont>

	SSD1306_Clear(BLACK);
 8001e2a:	2000      	movs	r0, #0
 8001e2c:	f7ff fb64 	bl	80014f8 <SSD1306_Clear>

//	osMutexAcquire(MutexI2C1Handle, osWaitForever);
	SSD1306_Display();
 8001e30:	f7ff fb82 	bl	8001538 <SSD1306_Display>
//	osMutexRelease(MutexI2C1Handle);

  /* Infinite loop */
  for(;;)
  {
	SSD1306_Clear(BLACK);
 8001e34:	2000      	movs	r0, #0
 8001e36:	f7ff fb5f 	bl	80014f8 <SSD1306_Clear>

	sprintf(Message, "Hello %d", i++);
 8001e3a:	f897 3037 	ldrb.w	r3, [r7, #55]	; 0x37
 8001e3e:	1c5a      	adds	r2, r3, #1
 8001e40:	f887 2037 	strb.w	r2, [r7, #55]	; 0x37
 8001e44:	461a      	mov	r2, r3
 8001e46:	f107 0314 	add.w	r3, r7, #20
 8001e4a:	4925      	ldr	r1, [pc, #148]	; (8001ee0 <StartOledTask+0xe8>)
 8001e4c:	4618      	mov	r0, r3
 8001e4e:	f001 fe41 	bl	8003ad4 <sprintf_>

	GFX_DrawString(0, 0, Message, WHITE, 0);
 8001e52:	f107 0214 	add.w	r2, r7, #20
 8001e56:	2300      	movs	r3, #0
 8001e58:	9300      	str	r3, [sp, #0]
 8001e5a:	2301      	movs	r3, #1
 8001e5c:	2100      	movs	r1, #0
 8001e5e:	2000      	movs	r0, #0
 8001e60:	f7ff f964 	bl	800112c <GFX_DrawString>
//	osMutexAcquire(MutexBmpDataHandle, osWaitForever);
//	_Pressure = Pressure;
//	_Temperature = Temperature;
//	osMutexRelease(MutexBmpDataHandle);

	osMessageQueueGet(QueueBmpDataHandle, &_BmpData, NULL, osWaitForever);
 8001e64:	4b1f      	ldr	r3, [pc, #124]	; (8001ee4 <StartOledTask+0xec>)
 8001e66:	6818      	ldr	r0, [r3, #0]
 8001e68:	f107 010c 	add.w	r1, r7, #12
 8001e6c:	f04f 33ff 	mov.w	r3, #4294967295
 8001e70:	2200      	movs	r2, #0
 8001e72:	f005 fc1b 	bl	80076ac <osMessageQueueGet>

	sprintf(Message, "Press: %.2f", _BmpData.Pressure);
 8001e76:	68fb      	ldr	r3, [r7, #12]
 8001e78:	4618      	mov	r0, r3
 8001e7a:	f7fe fb6d 	bl	8000558 <__aeabi_f2d>
 8001e7e:	4603      	mov	r3, r0
 8001e80:	460c      	mov	r4, r1
 8001e82:	f107 0014 	add.w	r0, r7, #20
 8001e86:	461a      	mov	r2, r3
 8001e88:	4623      	mov	r3, r4
 8001e8a:	4917      	ldr	r1, [pc, #92]	; (8001ee8 <StartOledTask+0xf0>)
 8001e8c:	f001 fe22 	bl	8003ad4 <sprintf_>
	GFX_DrawString(0, 10, Message, WHITE, 0);
 8001e90:	f107 0214 	add.w	r2, r7, #20
 8001e94:	2300      	movs	r3, #0
 8001e96:	9300      	str	r3, [sp, #0]
 8001e98:	2301      	movs	r3, #1
 8001e9a:	210a      	movs	r1, #10
 8001e9c:	2000      	movs	r0, #0
 8001e9e:	f7ff f945 	bl	800112c <GFX_DrawString>

	sprintf(Message, "Temp: %.2f", _BmpData.Temperature);
 8001ea2:	693b      	ldr	r3, [r7, #16]
 8001ea4:	4618      	mov	r0, r3
 8001ea6:	f7fe fb57 	bl	8000558 <__aeabi_f2d>
 8001eaa:	4603      	mov	r3, r0
 8001eac:	460c      	mov	r4, r1
 8001eae:	f107 0014 	add.w	r0, r7, #20
 8001eb2:	461a      	mov	r2, r3
 8001eb4:	4623      	mov	r3, r4
 8001eb6:	490d      	ldr	r1, [pc, #52]	; (8001eec <StartOledTask+0xf4>)
 8001eb8:	f001 fe0c 	bl	8003ad4 <sprintf_>
	GFX_DrawString(0, 20, Message, WHITE, 0);
 8001ebc:	f107 0214 	add.w	r2, r7, #20
 8001ec0:	2300      	movs	r3, #0
 8001ec2:	9300      	str	r3, [sp, #0]
 8001ec4:	2301      	movs	r3, #1
 8001ec6:	2114      	movs	r1, #20
 8001ec8:	2000      	movs	r0, #0
 8001eca:	f7ff f92f 	bl	800112c <GFX_DrawString>

//	osMutexAcquire(MutexI2C1Handle, osWaitForever);
	SSD1306_Display();
 8001ece:	f7ff fb33 	bl	8001538 <SSD1306_Display>
	SSD1306_Clear(BLACK);
 8001ed2:	e7af      	b.n	8001e34 <StartOledTask+0x3c>
 8001ed4:	20004f30 	.word	0x20004f30
 8001ed8:	20004f40 	.word	0x20004f40
 8001edc:	0800e7b4 	.word	0x0800e7b4
 8001ee0:	0800e760 	.word	0x0800e760
 8001ee4:	20004f28 	.word	0x20004f28
 8001ee8:	0800e76c 	.word	0x0800e76c
 8001eec:	0800e778 	.word	0x0800e778

08001ef0 <TimerBmpDataCallback>:
  /* USER CODE END StartOledTask */
}

/* TimerBmpDataCallback function */
void TimerBmpDataCallback(void *argument)
{
 8001ef0:	b580      	push	{r7, lr}
 8001ef2:	b082      	sub	sp, #8
 8001ef4:	af00      	add	r7, sp, #0
 8001ef6:	6078      	str	r0, [r7, #4]
  /* USER CODE BEGIN TimerBmpDataCallback */
	osSemaphoreRelease(SemaphoreBmpQueueHandle);
 8001ef8:	4b04      	ldr	r3, [pc, #16]	; (8001f0c <TimerBmpDataCallback+0x1c>)
 8001efa:	681b      	ldr	r3, [r3, #0]
 8001efc:	4618      	mov	r0, r3
 8001efe:	f005 fa83 	bl	8007408 <osSemaphoreRelease>
  /* USER CODE END TimerBmpDataCallback */
}
 8001f02:	bf00      	nop
 8001f04:	3708      	adds	r7, #8
 8001f06:	46bd      	mov	sp, r7
 8001f08:	bd80      	pop	{r7, pc}
 8001f0a:	bf00      	nop
 8001f0c:	20004f20 	.word	0x20004f20

08001f10 <MX_GPIO_Init>:
        * Output
        * EVENT_OUT
        * EXTI
*/
void MX_GPIO_Init(void)
{
 8001f10:	b580      	push	{r7, lr}
 8001f12:	b08a      	sub	sp, #40	; 0x28
 8001f14:	af00      	add	r7, sp, #0

  GPIO_InitTypeDef GPIO_InitStruct = {0};
 8001f16:	f107 0314 	add.w	r3, r7, #20
 8001f1a:	2200      	movs	r2, #0
 8001f1c:	601a      	str	r2, [r3, #0]
 8001f1e:	605a      	str	r2, [r3, #4]
 8001f20:	609a      	str	r2, [r3, #8]
 8001f22:	60da      	str	r2, [r3, #12]
 8001f24:	611a      	str	r2, [r3, #16]

  /* GPIO Ports Clock Enable */
  __HAL_RCC_GPIOC_CLK_ENABLE();
 8001f26:	2300      	movs	r3, #0
 8001f28:	613b      	str	r3, [r7, #16]
 8001f2a:	4b2d      	ldr	r3, [pc, #180]	; (8001fe0 <MX_GPIO_Init+0xd0>)
 8001f2c:	6b1b      	ldr	r3, [r3, #48]	; 0x30
 8001f2e:	4a2c      	ldr	r2, [pc, #176]	; (8001fe0 <MX_GPIO_Init+0xd0>)
 8001f30:	f043 0304 	orr.w	r3, r3, #4
 8001f34:	6313      	str	r3, [r2, #48]	; 0x30
 8001f36:	4b2a      	ldr	r3, [pc, #168]	; (8001fe0 <MX_GPIO_Init+0xd0>)
 8001f38:	6b1b      	ldr	r3, [r3, #48]	; 0x30
 8001f3a:	f003 0304 	and.w	r3, r3, #4
 8001f3e:	613b      	str	r3, [r7, #16]
 8001f40:	693b      	ldr	r3, [r7, #16]
  __HAL_RCC_GPIOH_CLK_ENABLE();
 8001f42:	2300      	movs	r3, #0
 8001f44:	60fb      	str	r3, [r7, #12]
 8001f46:	4b26      	ldr	r3, [pc, #152]	; (8001fe0 <MX_GPIO_Init+0xd0>)
 8001f48:	6b1b      	ldr	r3, [r3, #48]	; 0x30
 8001f4a:	4a25      	ldr	r2, [pc, #148]	; (8001fe0 <MX_GPIO_Init+0xd0>)
 8001f4c:	f043 0380 	orr.w	r3, r3, #128	; 0x80
 8001f50:	6313      	str	r3, [r2, #48]	; 0x30
 8001f52:	4b23      	ldr	r3, [pc, #140]	; (8001fe0 <MX_GPIO_Init+0xd0>)
 8001f54:	6b1b      	ldr	r3, [r3, #48]	; 0x30
 8001f56:	f003 0380 	and.w	r3, r3, #128	; 0x80
 8001f5a:	60fb      	str	r3, [r7, #12]
 8001f5c:	68fb      	ldr	r3, [r7, #12]
  __HAL_RCC_GPIOA_CLK_ENABLE();
 8001f5e:	2300      	movs	r3, #0
 8001f60:	60bb      	str	r3, [r7, #8]
 8001f62:	4b1f      	ldr	r3, [pc, #124]	; (8001fe0 <MX_GPIO_Init+0xd0>)
 8001f64:	6b1b      	ldr	r3, [r3, #48]	; 0x30
 8001f66:	4a1e      	ldr	r2, [pc, #120]	; (8001fe0 <MX_GPIO_Init+0xd0>)
 8001f68:	f043 0301 	orr.w	r3, r3, #1
 8001f6c:	6313      	str	r3, [r2, #48]	; 0x30
 8001f6e:	4b1c      	ldr	r3, [pc, #112]	; (8001fe0 <MX_GPIO_Init+0xd0>)
 8001f70:	6b1b      	ldr	r3, [r3, #48]	; 0x30
 8001f72:	f003 0301 	and.w	r3, r3, #1
 8001f76:	60bb      	str	r3, [r7, #8]
 8001f78:	68bb      	ldr	r3, [r7, #8]
  __HAL_RCC_GPIOB_CLK_ENABLE();
 8001f7a:	2300      	movs	r3, #0
 8001f7c:	607b      	str	r3, [r7, #4]
 8001f7e:	4b18      	ldr	r3, [pc, #96]	; (8001fe0 <MX_GPIO_Init+0xd0>)
 8001f80:	6b1b      	ldr	r3, [r3, #48]	; 0x30
 8001f82:	4a17      	ldr	r2, [pc, #92]	; (8001fe0 <MX_GPIO_Init+0xd0>)
 8001f84:	f043 0302 	orr.w	r3, r3, #2
 8001f88:	6313      	str	r3, [r2, #48]	; 0x30
 8001f8a:	4b15      	ldr	r3, [pc, #84]	; (8001fe0 <MX_GPIO_Init+0xd0>)
 8001f8c:	6b1b      	ldr	r3, [r3, #48]	; 0x30
 8001f8e:	f003 0302 	and.w	r3, r3, #2
 8001f92:	607b      	str	r3, [r7, #4]
 8001f94:	687b      	ldr	r3, [r7, #4]

  /*Configure GPIO pin Output Level */
  HAL_GPIO_WritePin(LD2_GPIO_Port, LD2_Pin, GPIO_PIN_RESET);
 8001f96:	2200      	movs	r2, #0
 8001f98:	2120      	movs	r1, #32
 8001f9a:	4812      	ldr	r0, [pc, #72]	; (8001fe4 <MX_GPIO_Init+0xd4>)
 8001f9c:	f002 f9e8 	bl	8004370 <HAL_GPIO_WritePin>

  /*Configure GPIO pin : PtPin */
  GPIO_InitStruct.Pin = B1_Pin;
 8001fa0:	f44f 5300 	mov.w	r3, #8192	; 0x2000
 8001fa4:	617b      	str	r3, [r7, #20]
  GPIO_InitStruct.Mode = GPIO_MODE_IT_FALLING;
 8001fa6:	4b10      	ldr	r3, [pc, #64]	; (8001fe8 <MX_GPIO_Init+0xd8>)
 8001fa8:	61bb      	str	r3, [r7, #24]
  GPIO_InitStruct.Pull = GPIO_NOPULL;
 8001faa:	2300      	movs	r3, #0
 8001fac:	61fb      	str	r3, [r7, #28]
  HAL_GPIO_Init(B1_GPIO_Port, &GPIO_InitStruct);
 8001fae:	f107 0314 	add.w	r3, r7, #20
 8001fb2:	4619      	mov	r1, r3
 8001fb4:	480d      	ldr	r0, [pc, #52]	; (8001fec <MX_GPIO_Init+0xdc>)
 8001fb6:	f002 f859 	bl	800406c <HAL_GPIO_Init>

  /*Configure GPIO pin : PtPin */
  GPIO_InitStruct.Pin = LD2_Pin;
 8001fba:	2320      	movs	r3, #32
 8001fbc:	617b      	str	r3, [r7, #20]
  GPIO_InitStruct.Mode = GPIO_MODE_OUTPUT_PP;
 8001fbe:	2301      	movs	r3, #1
 8001fc0:	61bb      	str	r3, [r7, #24]
  GPIO_InitStruct.Pull = GPIO_NOPULL;
 8001fc2:	2300      	movs	r3, #0
 8001fc4:	61fb      	str	r3, [r7, #28]
  GPIO_InitStruct.Speed = GPIO_SPEED_FREQ_LOW;
 8001fc6:	2300      	movs	r3, #0
 8001fc8:	623b      	str	r3, [r7, #32]
  HAL_GPIO_Init(LD2_GPIO_Port, &GPIO_InitStruct);
 8001fca:	f107 0314 	add.w	r3, r7, #20
 8001fce:	4619      	mov	r1, r3
 8001fd0:	4804      	ldr	r0, [pc, #16]	; (8001fe4 <MX_GPIO_Init+0xd4>)
 8001fd2:	f002 f84b 	bl	800406c <HAL_GPIO_Init>

}
 8001fd6:	bf00      	nop
 8001fd8:	3728      	adds	r7, #40	; 0x28
 8001fda:	46bd      	mov	sp, r7
 8001fdc:	bd80      	pop	{r7, pc}
 8001fde:	bf00      	nop
 8001fe0:	40023800 	.word	0x40023800
 8001fe4:	40020000 	.word	0x40020000
 8001fe8:	10210000 	.word	0x10210000
 8001fec:	40020800 	.word	0x40020800

08001ff0 <MX_I2C1_Init>:

I2C_HandleTypeDef hi2c1;

/* I2C1 init function */
void MX_I2C1_Init(void)
{
 8001ff0:	b580      	push	{r7, lr}
 8001ff2:	af00      	add	r7, sp, #0

  hi2c1.Instance = I2C1;
 8001ff4:	4b12      	ldr	r3, [pc, #72]	; (8002040 <MX_I2C1_Init+0x50>)
 8001ff6:	4a13      	ldr	r2, [pc, #76]	; (8002044 <MX_I2C1_Init+0x54>)
 8001ff8:	601a      	str	r2, [r3, #0]
  hi2c1.Init.ClockSpeed = 400000;
 8001ffa:	4b11      	ldr	r3, [pc, #68]	; (8002040 <MX_I2C1_Init+0x50>)
 8001ffc:	4a12      	ldr	r2, [pc, #72]	; (8002048 <MX_I2C1_Init+0x58>)
 8001ffe:	605a      	str	r2, [r3, #4]
  hi2c1.Init.DutyCycle = I2C_DUTYCYCLE_2;
 8002000:	4b0f      	ldr	r3, [pc, #60]	; (8002040 <MX_I2C1_Init+0x50>)
 8002002:	2200      	movs	r2, #0
 8002004:	609a      	str	r2, [r3, #8]
  hi2c1.Init.OwnAddress1 = 0;
 8002006:	4b0e      	ldr	r3, [pc, #56]	; (8002040 <MX_I2C1_Init+0x50>)
 8002008:	2200      	movs	r2, #0
 800200a:	60da      	str	r2, [r3, #12]
  hi2c1.Init.AddressingMode = I2C_ADDRESSINGMODE_7BIT;
 800200c:	4b0c      	ldr	r3, [pc, #48]	; (8002040 <MX_I2C1_Init+0x50>)
 800200e:	f44f 4280 	mov.w	r2, #16384	; 0x4000
 8002012:	611a      	str	r2, [r3, #16]
  hi2c1.Init.DualAddressMode = I2C_DUALADDRESS_DISABLE;
 8002014:	4b0a      	ldr	r3, [pc, #40]	; (8002040 <MX_I2C1_Init+0x50>)
 8002016:	2200      	movs	r2, #0
 8002018:	615a      	str	r2, [r3, #20]
  hi2c1.Init.OwnAddress2 = 0;
 800201a:	4b09      	ldr	r3, [pc, #36]	; (8002040 <MX_I2C1_Init+0x50>)
 800201c:	2200      	movs	r2, #0
 800201e:	619a      	str	r2, [r3, #24]
  hi2c1.Init.GeneralCallMode = I2C_GENERALCALL_DISABLE;
 8002020:	4b07      	ldr	r3, [pc, #28]	; (8002040 <MX_I2C1_Init+0x50>)
 8002022:	2200      	movs	r2, #0
 8002024:	61da      	str	r2, [r3, #28]
  hi2c1.Init.NoStretchMode = I2C_NOSTRETCH_DISABLE;
 8002026:	4b06      	ldr	r3, [pc, #24]	; (8002040 <MX_I2C1_Init+0x50>)
 8002028:	2200      	movs	r2, #0
 800202a:	621a      	str	r2, [r3, #32]
  if (HAL_I2C_Init(&hi2c1) != HAL_OK)
 800202c:	4804      	ldr	r0, [pc, #16]	; (8002040 <MX_I2C1_Init+0x50>)
 800202e:	f002 f9d3 	bl	80043d8 <HAL_I2C_Init>
 8002032:	4603      	mov	r3, r0
 8002034:	2b00      	cmp	r3, #0
 8002036:	d001      	beq.n	800203c <MX_I2C1_Init+0x4c>
  {
    Error_Handler();
 8002038:	f000 f8e0 	bl	80021fc <Error_Handler>
  }

}
 800203c:	bf00      	nop
 800203e:	bd80      	pop	{r7, pc}
 8002040:	20004f40 	.word	0x20004f40
 8002044:	40005400 	.word	0x40005400
 8002048:	00061a80 	.word	0x00061a80

0800204c <HAL_I2C_MspInit>:

void HAL_I2C_MspInit(I2C_HandleTypeDef* i2cHandle)
{
 800204c:	b580      	push	{r7, lr}
 800204e:	b08a      	sub	sp, #40	; 0x28
 8002050:	af00      	add	r7, sp, #0
 8002052:	6078      	str	r0, [r7, #4]

  GPIO_InitTypeDef GPIO_InitStruct = {0};
 8002054:	f107 0314 	add.w	r3, r7, #20
 8002058:	2200      	movs	r2, #0
 800205a:	601a      	str	r2, [r3, #0]
 800205c:	605a      	str	r2, [r3, #4]
 800205e:	609a      	str	r2, [r3, #8]
 8002060:	60da      	str	r2, [r3, #12]
 8002062:	611a      	str	r2, [r3, #16]
  if(i2cHandle->Instance==I2C1)
 8002064:	687b      	ldr	r3, [r7, #4]
 8002066:	681b      	ldr	r3, [r3, #0]
 8002068:	4a19      	ldr	r2, [pc, #100]	; (80020d0 <HAL_I2C_MspInit+0x84>)
 800206a:	4293      	cmp	r3, r2
 800206c:	d12c      	bne.n	80020c8 <HAL_I2C_MspInit+0x7c>
  {
  /* USER CODE BEGIN I2C1_MspInit 0 */

  /* USER CODE END I2C1_MspInit 0 */

    __HAL_RCC_GPIOB_CLK_ENABLE();
 800206e:	2300      	movs	r3, #0
 8002070:	613b      	str	r3, [r7, #16]
 8002072:	4b18      	ldr	r3, [pc, #96]	; (80020d4 <HAL_I2C_MspInit+0x88>)
 8002074:	6b1b      	ldr	r3, [r3, #48]	; 0x30
 8002076:	4a17      	ldr	r2, [pc, #92]	; (80020d4 <HAL_I2C_MspInit+0x88>)
 8002078:	f043 0302 	orr.w	r3, r3, #2
 800207c:	6313      	str	r3, [r2, #48]	; 0x30
 800207e:	4b15      	ldr	r3, [pc, #84]	; (80020d4 <HAL_I2C_MspInit+0x88>)
 8002080:	6b1b      	ldr	r3, [r3, #48]	; 0x30
 8002082:	f003 0302 	and.w	r3, r3, #2
 8002086:	613b      	str	r3, [r7, #16]
 8002088:	693b      	ldr	r3, [r7, #16]
    /**I2C1 GPIO Configuration
    PB8     ------> I2C1_SCL
    PB9     ------> I2C1_SDA
    */
    GPIO_InitStruct.Pin = GPIO_PIN_8|GPIO_PIN_9;
 800208a:	f44f 7340 	mov.w	r3, #768	; 0x300
 800208e:	617b      	str	r3, [r7, #20]
    GPIO_InitStruct.Mode = GPIO_MODE_AF_OD;
 8002090:	2312      	movs	r3, #18
 8002092:	61bb      	str	r3, [r7, #24]
    GPIO_InitStruct.Pull = GPIO_PULLUP;
 8002094:	2301      	movs	r3, #1
 8002096:	61fb      	str	r3, [r7, #28]
    GPIO_InitStruct.Speed = GPIO_SPEED_FREQ_VERY_HIGH;
 8002098:	2303      	movs	r3, #3
 800209a:	623b      	str	r3, [r7, #32]
    GPIO_InitStruct.Alternate = GPIO_AF4_I2C1;
 800209c:	2304      	movs	r3, #4
 800209e:	627b      	str	r3, [r7, #36]	; 0x24
    HAL_GPIO_Init(GPIOB, &GPIO_InitStruct);
 80020a0:	f107 0314 	add.w	r3, r7, #20
 80020a4:	4619      	mov	r1, r3
 80020a6:	480c      	ldr	r0, [pc, #48]	; (80020d8 <HAL_I2C_MspInit+0x8c>)
 80020a8:	f001 ffe0 	bl	800406c <HAL_GPIO_Init>

    /* I2C1 clock enable */
    __HAL_RCC_I2C1_CLK_ENABLE();
 80020ac:	2300      	movs	r3, #0
 80020ae:	60fb      	str	r3, [r7, #12]
 80020b0:	4b08      	ldr	r3, [pc, #32]	; (80020d4 <HAL_I2C_MspInit+0x88>)
 80020b2:	6c1b      	ldr	r3, [r3, #64]	; 0x40
 80020b4:	4a07      	ldr	r2, [pc, #28]	; (80020d4 <HAL_I2C_MspInit+0x88>)
 80020b6:	f443 1300 	orr.w	r3, r3, #2097152	; 0x200000
 80020ba:	6413      	str	r3, [r2, #64]	; 0x40
 80020bc:	4b05      	ldr	r3, [pc, #20]	; (80020d4 <HAL_I2C_MspInit+0x88>)
 80020be:	6c1b      	ldr	r3, [r3, #64]	; 0x40
 80020c0:	f403 1300 	and.w	r3, r3, #2097152	; 0x200000
 80020c4:	60fb      	str	r3, [r7, #12]
 80020c6:	68fb      	ldr	r3, [r7, #12]
  /* USER CODE BEGIN I2C1_MspInit 1 */

  /* USER CODE END I2C1_MspInit 1 */
  }
}
 80020c8:	bf00      	nop
 80020ca:	3728      	adds	r7, #40	; 0x28
 80020cc:	46bd      	mov	sp, r7
 80020ce:	bd80      	pop	{r7, pc}
 80020d0:	40005400 	.word	0x40005400
 80020d4:	40023800 	.word	0x40023800
 80020d8:	40020400 	.word	0x40020400

080020dc <main>:
/**
  * @brief  The application entry point.
  * @retval int
  */
int main(void)
{
 80020dc:	b580      	push	{r7, lr}
 80020de:	af00      	add	r7, sp, #0
  /* USER CODE END 1 */

  /* MCU Configuration--------------------------------------------------------*/

  /* Reset of all peripherals, Initializes the Flash interface and the Systick. */
  HAL_Init();
 80020e0:	f001 fea0 	bl	8003e24 <HAL_Init>
  /* USER CODE BEGIN Init */

  /* USER CODE END Init */

  /* Configure the system clock */
  SystemClock_Config();
 80020e4:	f000 f80e 	bl	8002104 <SystemClock_Config>
  /* USER CODE BEGIN SysInit */

  /* USER CODE END SysInit */

  /* Initialize all configured peripherals */
  MX_GPIO_Init();
 80020e8:	f7ff ff12 	bl	8001f10 <MX_GPIO_Init>
  MX_USART2_UART_Init();
 80020ec:	f001 fdfe 	bl	8003cec <MX_USART2_UART_Init>
  MX_I2C1_Init();
 80020f0:	f7ff ff7e 	bl	8001ff0 <MX_I2C1_Init>
  /* USER CODE BEGIN 2 */

  /* USER CODE END 2 */

  /* Init scheduler */
  osKernelInitialize();  /* Call init function for freertos objects (in freertos.c) */
 80020f4:	f004 fc8a 	bl	8006a0c <osKernelInitialize>
  MX_FREERTOS_Init();
 80020f8:	f7ff fd8c 	bl	8001c14 <MX_FREERTOS_Init>
  /* Start scheduler */
  osKernelStart();
 80020fc:	f004 fcba 	bl	8006a74 <osKernelStart>

  /* We should never get here as control is now taken by the scheduler */
  /* Infinite loop */
  /* USER CODE BEGIN WHILE */
  while (1)
 8002100:	e7fe      	b.n	8002100 <main+0x24>
	...

08002104 <SystemClock_Config>:
/**
  * @brief System Clock Configuration
  * @retval None
  */
void SystemClock_Config(void)
{
 8002104:	b580      	push	{r7, lr}
 8002106:	b094      	sub	sp, #80	; 0x50
 8002108:	af00      	add	r7, sp, #0
  RCC_OscInitTypeDef RCC_OscInitStruct = {0};
 800210a:	f107 0320 	add.w	r3, r7, #32
 800210e:	2230      	movs	r2, #48	; 0x30
 8002110:	2100      	movs	r1, #0
 8002112:	4618      	mov	r0, r3
 8002114:	f008 fd8f 	bl	800ac36 <memset>
  RCC_ClkInitTypeDef RCC_ClkInitStruct = {0};
 8002118:	f107 030c 	add.w	r3, r7, #12
 800211c:	2200      	movs	r2, #0
 800211e:	601a      	str	r2, [r3, #0]
 8002120:	605a      	str	r2, [r3, #4]
 8002122:	609a      	str	r2, [r3, #8]
 8002124:	60da      	str	r2, [r3, #12]
 8002126:	611a      	str	r2, [r3, #16]

  /** Configure the main internal regulator output voltage
  */
  __HAL_RCC_PWR_CLK_ENABLE();
 8002128:	2300      	movs	r3, #0
 800212a:	60bb      	str	r3, [r7, #8]
 800212c:	4b28      	ldr	r3, [pc, #160]	; (80021d0 <SystemClock_Config+0xcc>)
 800212e:	6c1b      	ldr	r3, [r3, #64]	; 0x40
 8002130:	4a27      	ldr	r2, [pc, #156]	; (80021d0 <SystemClock_Config+0xcc>)
 8002132:	f043 5380 	orr.w	r3, r3, #268435456	; 0x10000000
 8002136:	6413      	str	r3, [r2, #64]	; 0x40
 8002138:	4b25      	ldr	r3, [pc, #148]	; (80021d0 <SystemClock_Config+0xcc>)
 800213a:	6c1b      	ldr	r3, [r3, #64]	; 0x40
 800213c:	f003 5380 	and.w	r3, r3, #268435456	; 0x10000000
 8002140:	60bb      	str	r3, [r7, #8]
 8002142:	68bb      	ldr	r3, [r7, #8]
  __HAL_PWR_VOLTAGESCALING_CONFIG(PWR_REGULATOR_VOLTAGE_SCALE1);
 8002144:	2300      	movs	r3, #0
 8002146:	607b      	str	r3, [r7, #4]
 8002148:	4b22      	ldr	r3, [pc, #136]	; (80021d4 <SystemClock_Config+0xd0>)
 800214a:	681b      	ldr	r3, [r3, #0]
 800214c:	4a21      	ldr	r2, [pc, #132]	; (80021d4 <SystemClock_Config+0xd0>)
 800214e:	f443 4340 	orr.w	r3, r3, #49152	; 0xc000
 8002152:	6013      	str	r3, [r2, #0]
 8002154:	4b1f      	ldr	r3, [pc, #124]	; (80021d4 <SystemClock_Config+0xd0>)
 8002156:	681b      	ldr	r3, [r3, #0]
 8002158:	f403 4340 	and.w	r3, r3, #49152	; 0xc000
 800215c:	607b      	str	r3, [r7, #4]
 800215e:	687b      	ldr	r3, [r7, #4]
  /** Initializes the RCC Oscillators according to the specified parameters
  * in the RCC_OscInitTypeDef structure.
  */
  RCC_OscInitStruct.OscillatorType = RCC_OSCILLATORTYPE_HSI;
 8002160:	2302      	movs	r3, #2
 8002162:	623b      	str	r3, [r7, #32]
  RCC_OscInitStruct.HSIState = RCC_HSI_ON;
 8002164:	2301      	movs	r3, #1
 8002166:	62fb      	str	r3, [r7, #44]	; 0x2c
  RCC_OscInitStruct.HSICalibrationValue = RCC_HSICALIBRATION_DEFAULT;
 8002168:	2310      	movs	r3, #16
 800216a:	633b      	str	r3, [r7, #48]	; 0x30
  RCC_OscInitStruct.PLL.PLLState = RCC_PLL_ON;
 800216c:	2302      	movs	r3, #2
 800216e:	63bb      	str	r3, [r7, #56]	; 0x38
  RCC_OscInitStruct.PLL.PLLSource = RCC_PLLSOURCE_HSI;
 8002170:	2300      	movs	r3, #0
 8002172:	63fb      	str	r3, [r7, #60]	; 0x3c
  RCC_OscInitStruct.PLL.PLLM = 16;
 8002174:	2310      	movs	r3, #16
 8002176:	643b      	str	r3, [r7, #64]	; 0x40
  RCC_OscInitStruct.PLL.PLLN = 336;
 8002178:	f44f 73a8 	mov.w	r3, #336	; 0x150
 800217c:	647b      	str	r3, [r7, #68]	; 0x44
  RCC_OscInitStruct.PLL.PLLP = RCC_PLLP_DIV4;
 800217e:	2304      	movs	r3, #4
 8002180:	64bb      	str	r3, [r7, #72]	; 0x48
  RCC_OscInitStruct.PLL.PLLQ = 4;
 8002182:	2304      	movs	r3, #4
 8002184:	64fb      	str	r3, [r7, #76]	; 0x4c
  if (HAL_RCC_OscConfig(&RCC_OscInitStruct) != HAL_OK)
 8002186:	f107 0320 	add.w	r3, r7, #32
 800218a:	4618      	mov	r0, r3
 800218c:	f003 f8d8 	bl	8005340 <HAL_RCC_OscConfig>
 8002190:	4603      	mov	r3, r0
 8002192:	2b00      	cmp	r3, #0
 8002194:	d001      	beq.n	800219a <SystemClock_Config+0x96>
  {
    Error_Handler();
 8002196:	f000 f831 	bl	80021fc <Error_Handler>
  }
  /** Initializes the CPU, AHB and APB buses clocks
  */
  RCC_ClkInitStruct.ClockType = RCC_CLOCKTYPE_HCLK|RCC_CLOCKTYPE_SYSCLK
 800219a:	230f      	movs	r3, #15
 800219c:	60fb      	str	r3, [r7, #12]
                              |RCC_CLOCKTYPE_PCLK1|RCC_CLOCKTYPE_PCLK2;
  RCC_ClkInitStruct.SYSCLKSource = RCC_SYSCLKSOURCE_PLLCLK;
 800219e:	2302      	movs	r3, #2
 80021a0:	613b      	str	r3, [r7, #16]
  RCC_ClkInitStruct.AHBCLKDivider = RCC_SYSCLK_DIV1;
 80021a2:	2300      	movs	r3, #0
 80021a4:	617b      	str	r3, [r7, #20]
  RCC_ClkInitStruct.APB1CLKDivider = RCC_HCLK_DIV2;
 80021a6:	f44f 5380 	mov.w	r3, #4096	; 0x1000
 80021aa:	61bb      	str	r3, [r7, #24]
  RCC_ClkInitStruct.APB2CLKDivider = RCC_HCLK_DIV1;
 80021ac:	2300      	movs	r3, #0
 80021ae:	61fb      	str	r3, [r7, #28]

  if (HAL_RCC_ClockConfig(&RCC_ClkInitStruct, FLASH_LATENCY_2) != HAL_OK)
 80021b0:	f107 030c 	add.w	r3, r7, #12
 80021b4:	2102      	movs	r1, #2
 80021b6:	4618      	mov	r0, r3
 80021b8:	f003 fb32 	bl	8005820 <HAL_RCC_ClockConfig>
 80021bc:	4603      	mov	r3, r0
 80021be:	2b00      	cmp	r3, #0
 80021c0:	d001      	beq.n	80021c6 <SystemClock_Config+0xc2>
  {
    Error_Handler();
 80021c2:	f000 f81b 	bl	80021fc <Error_Handler>
  }
}
 80021c6:	bf00      	nop
 80021c8:	3750      	adds	r7, #80	; 0x50
 80021ca:	46bd      	mov	sp, r7
 80021cc:	bd80      	pop	{r7, pc}
 80021ce:	bf00      	nop
 80021d0:	40023800 	.word	0x40023800
 80021d4:	40007000 	.word	0x40007000

080021d8 <HAL_TIM_PeriodElapsedCallback>:
  * a global variable "uwTick" used as application time base.
  * @param  htim : TIM handle
  * @retval None
  */
void HAL_TIM_PeriodElapsedCallback(TIM_HandleTypeDef *htim)
{
 80021d8:	b580      	push	{r7, lr}
 80021da:	b082      	sub	sp, #8
 80021dc:	af00      	add	r7, sp, #0
 80021de:	6078      	str	r0, [r7, #4]
  /* USER CODE BEGIN Callback 0 */

  /* USER CODE END Callback 0 */
  if (htim->Instance == TIM10) {
 80021e0:	687b      	ldr	r3, [r7, #4]
 80021e2:	681b      	ldr	r3, [r3, #0]
 80021e4:	4a04      	ldr	r2, [pc, #16]	; (80021f8 <HAL_TIM_PeriodElapsedCallback+0x20>)
 80021e6:	4293      	cmp	r3, r2
 80021e8:	d101      	bne.n	80021ee <HAL_TIM_PeriodElapsedCallback+0x16>
    HAL_IncTick();
 80021ea:	f001 fe3d 	bl	8003e68 <HAL_IncTick>
  }
  /* USER CODE BEGIN Callback 1 */

  /* USER CODE END Callback 1 */
}
 80021ee:	bf00      	nop
 80021f0:	3708      	adds	r7, #8
 80021f2:	46bd      	mov	sp, r7
 80021f4:	bd80      	pop	{r7, pc}
 80021f6:	bf00      	nop
 80021f8:	40014400 	.word	0x40014400

080021fc <Error_Handler>:
/**
  * @brief  This function is executed in case of error occurrence.
  * @retval None
  */
void Error_Handler(void)
{
 80021fc:	b480      	push	{r7}
 80021fe:	af00      	add	r7, sp, #0
  \details Disables IRQ interrupts by setting the I-bit in the CPSR.
           Can only be executed in Privileged modes.
 */
__STATIC_FORCEINLINE void __disable_irq(void)
{
  __ASM volatile ("cpsid i" : : : "memory");
 8002200:	b672      	cpsid	i
  /* USER CODE BEGIN Error_Handler_Debug */
  /* User can add his own implementation to report the HAL error return state */
  __disable_irq();
  while (1)
 8002202:	e7fe      	b.n	8002202 <Error_Handler+0x6>

08002204 <_out_buffer>:
} out_fct_wrap_type;


// internal buffer output
static inline void _out_buffer(char character, void* buffer, size_t idx, size_t maxlen)
{
 8002204:	b480      	push	{r7}
 8002206:	b085      	sub	sp, #20
 8002208:	af00      	add	r7, sp, #0
 800220a:	60b9      	str	r1, [r7, #8]
 800220c:	607a      	str	r2, [r7, #4]
 800220e:	603b      	str	r3, [r7, #0]
 8002210:	4603      	mov	r3, r0
 8002212:	73fb      	strb	r3, [r7, #15]
  if (idx < maxlen) {
 8002214:	687a      	ldr	r2, [r7, #4]
 8002216:	683b      	ldr	r3, [r7, #0]
 8002218:	429a      	cmp	r2, r3
 800221a:	d204      	bcs.n	8002226 <_out_buffer+0x22>
    ((char*)buffer)[idx] = character;
 800221c:	68ba      	ldr	r2, [r7, #8]
 800221e:	687b      	ldr	r3, [r7, #4]
 8002220:	4413      	add	r3, r2
 8002222:	7bfa      	ldrb	r2, [r7, #15]
 8002224:	701a      	strb	r2, [r3, #0]
  }
}
 8002226:	bf00      	nop
 8002228:	3714      	adds	r7, #20
 800222a:	46bd      	mov	sp, r7
 800222c:	f85d 7b04 	ldr.w	r7, [sp], #4
 8002230:	4770      	bx	lr

08002232 <_out_null>:


// internal null output
static inline void _out_null(char character, void* buffer, size_t idx, size_t maxlen)
{
 8002232:	b480      	push	{r7}
 8002234:	b085      	sub	sp, #20
 8002236:	af00      	add	r7, sp, #0
 8002238:	60b9      	str	r1, [r7, #8]
 800223a:	607a      	str	r2, [r7, #4]
 800223c:	603b      	str	r3, [r7, #0]
 800223e:	4603      	mov	r3, r0
 8002240:	73fb      	strb	r3, [r7, #15]
  (void)character; (void)buffer; (void)idx; (void)maxlen;
}
 8002242:	bf00      	nop
 8002244:	3714      	adds	r7, #20
 8002246:	46bd      	mov	sp, r7
 8002248:	f85d 7b04 	ldr.w	r7, [sp], #4
 800224c:	4770      	bx	lr

0800224e <_out_char>:


// internal _putchar wrapper
static inline void _out_char(char character, void* buffer, size_t idx, size_t maxlen)
{
 800224e:	b580      	push	{r7, lr}
 8002250:	b084      	sub	sp, #16
 8002252:	af00      	add	r7, sp, #0
 8002254:	60b9      	str	r1, [r7, #8]
 8002256:	607a      	str	r2, [r7, #4]
 8002258:	603b      	str	r3, [r7, #0]
 800225a:	4603      	mov	r3, r0
 800225c:	73fb      	strb	r3, [r7, #15]
  (void)buffer; (void)idx; (void)maxlen;
  if (character) {
 800225e:	7bfb      	ldrb	r3, [r7, #15]
 8002260:	2b00      	cmp	r3, #0
 8002262:	d003      	beq.n	800226c <_out_char+0x1e>
    _putchar(character);
 8002264:	7bfb      	ldrb	r3, [r7, #15]
 8002266:	4618      	mov	r0, r3
 8002268:	f7ff fcb4 	bl	8001bd4 <_putchar>
  }
}
 800226c:	bf00      	nop
 800226e:	3710      	adds	r7, #16
 8002270:	46bd      	mov	sp, r7
 8002272:	bd80      	pop	{r7, pc}

08002274 <_strnlen_s>:


// internal secure strlen
// \return The length of the string (excluding the terminating 0) limited by 'maxsize'
static inline unsigned int _strnlen_s(const char* str, size_t maxsize)
{
 8002274:	b480      	push	{r7}
 8002276:	b085      	sub	sp, #20
 8002278:	af00      	add	r7, sp, #0
 800227a:	6078      	str	r0, [r7, #4]
 800227c:	6039      	str	r1, [r7, #0]
  const char* s;
  for (s = str; *s && maxsize--; ++s);
 800227e:	687b      	ldr	r3, [r7, #4]
 8002280:	60fb      	str	r3, [r7, #12]
 8002282:	e002      	b.n	800228a <_strnlen_s+0x16>
 8002284:	68fb      	ldr	r3, [r7, #12]
 8002286:	3301      	adds	r3, #1
 8002288:	60fb      	str	r3, [r7, #12]
 800228a:	68fb      	ldr	r3, [r7, #12]
 800228c:	781b      	ldrb	r3, [r3, #0]
 800228e:	2b00      	cmp	r3, #0
 8002290:	d004      	beq.n	800229c <_strnlen_s+0x28>
 8002292:	683b      	ldr	r3, [r7, #0]
 8002294:	1e5a      	subs	r2, r3, #1
 8002296:	603a      	str	r2, [r7, #0]
 8002298:	2b00      	cmp	r3, #0
 800229a:	d1f3      	bne.n	8002284 <_strnlen_s+0x10>
  return (unsigned int)(s - str);
 800229c:	68fa      	ldr	r2, [r7, #12]
 800229e:	687b      	ldr	r3, [r7, #4]
 80022a0:	1ad3      	subs	r3, r2, r3
}
 80022a2:	4618      	mov	r0, r3
 80022a4:	3714      	adds	r7, #20
 80022a6:	46bd      	mov	sp, r7
 80022a8:	f85d 7b04 	ldr.w	r7, [sp], #4
 80022ac:	4770      	bx	lr

080022ae <_is_digit>:


// internal test if char is a digit (0-9)
// \return true if char is a digit
static inline bool _is_digit(char ch)
{
 80022ae:	b480      	push	{r7}
 80022b0:	b083      	sub	sp, #12
 80022b2:	af00      	add	r7, sp, #0
 80022b4:	4603      	mov	r3, r0
 80022b6:	71fb      	strb	r3, [r7, #7]
  return (ch >= '0') && (ch <= '9');
 80022b8:	79fb      	ldrb	r3, [r7, #7]
 80022ba:	2b2f      	cmp	r3, #47	; 0x2f
 80022bc:	d904      	bls.n	80022c8 <_is_digit+0x1a>
 80022be:	79fb      	ldrb	r3, [r7, #7]
 80022c0:	2b39      	cmp	r3, #57	; 0x39
 80022c2:	d801      	bhi.n	80022c8 <_is_digit+0x1a>
 80022c4:	2301      	movs	r3, #1
 80022c6:	e000      	b.n	80022ca <_is_digit+0x1c>
 80022c8:	2300      	movs	r3, #0
 80022ca:	f003 0301 	and.w	r3, r3, #1
 80022ce:	b2db      	uxtb	r3, r3
}
 80022d0:	4618      	mov	r0, r3
 80022d2:	370c      	adds	r7, #12
 80022d4:	46bd      	mov	sp, r7
 80022d6:	f85d 7b04 	ldr.w	r7, [sp], #4
 80022da:	4770      	bx	lr

080022dc <_atoi>:


// internal ASCII string to unsigned int conversion
static unsigned int _atoi(const char** str)
{
 80022dc:	b580      	push	{r7, lr}
 80022de:	b084      	sub	sp, #16
 80022e0:	af00      	add	r7, sp, #0
 80022e2:	6078      	str	r0, [r7, #4]
  unsigned int i = 0U;
 80022e4:	2300      	movs	r3, #0
 80022e6:	60fb      	str	r3, [r7, #12]
  while (_is_digit(**str)) {
 80022e8:	e00e      	b.n	8002308 <_atoi+0x2c>
    i = i * 10U + (unsigned int)(*((*str)++) - '0');
 80022ea:	68fa      	ldr	r2, [r7, #12]
 80022ec:	4613      	mov	r3, r2
 80022ee:	009b      	lsls	r3, r3, #2
 80022f0:	4413      	add	r3, r2
 80022f2:	005b      	lsls	r3, r3, #1
 80022f4:	4618      	mov	r0, r3
 80022f6:	687b      	ldr	r3, [r7, #4]
 80022f8:	681b      	ldr	r3, [r3, #0]
 80022fa:	1c59      	adds	r1, r3, #1
 80022fc:	687a      	ldr	r2, [r7, #4]
 80022fe:	6011      	str	r1, [r2, #0]
 8002300:	781b      	ldrb	r3, [r3, #0]
 8002302:	4403      	add	r3, r0
 8002304:	3b30      	subs	r3, #48	; 0x30
 8002306:	60fb      	str	r3, [r7, #12]
  while (_is_digit(**str)) {
 8002308:	687b      	ldr	r3, [r7, #4]
 800230a:	681b      	ldr	r3, [r3, #0]
 800230c:	781b      	ldrb	r3, [r3, #0]
 800230e:	4618      	mov	r0, r3
 8002310:	f7ff ffcd 	bl	80022ae <_is_digit>
 8002314:	4603      	mov	r3, r0
 8002316:	2b00      	cmp	r3, #0
 8002318:	d1e7      	bne.n	80022ea <_atoi+0xe>
  }
  return i;
 800231a:	68fb      	ldr	r3, [r7, #12]
}
 800231c:	4618      	mov	r0, r3
 800231e:	3710      	adds	r7, #16
 8002320:	46bd      	mov	sp, r7
 8002322:	bd80      	pop	{r7, pc}

08002324 <_out_rev>:


// output the specified string in reverse, taking care of any zero-padding
static size_t _out_rev(out_fct_type out, char* buffer, size_t idx, size_t maxlen, const char* buf, size_t len, unsigned int width, unsigned int flags)
{
 8002324:	b590      	push	{r4, r7, lr}
 8002326:	b087      	sub	sp, #28
 8002328:	af00      	add	r7, sp, #0
 800232a:	60f8      	str	r0, [r7, #12]
 800232c:	60b9      	str	r1, [r7, #8]
 800232e:	607a      	str	r2, [r7, #4]
 8002330:	603b      	str	r3, [r7, #0]
  const size_t start_idx = idx;
 8002332:	687b      	ldr	r3, [r7, #4]
 8002334:	613b      	str	r3, [r7, #16]

  // pad spaces up to given width
  if (!(flags & FLAGS_LEFT) && !(flags & FLAGS_ZEROPAD)) {
 8002336:	6b7b      	ldr	r3, [r7, #52]	; 0x34
 8002338:	f003 0302 	and.w	r3, r3, #2
 800233c:	2b00      	cmp	r3, #0
 800233e:	d125      	bne.n	800238c <_out_rev+0x68>
 8002340:	6b7b      	ldr	r3, [r7, #52]	; 0x34
 8002342:	f003 0301 	and.w	r3, r3, #1
 8002346:	2b00      	cmp	r3, #0
 8002348:	d120      	bne.n	800238c <_out_rev+0x68>
    for (size_t i = len; i < width; i++) {
 800234a:	6afb      	ldr	r3, [r7, #44]	; 0x2c
 800234c:	617b      	str	r3, [r7, #20]
 800234e:	e00a      	b.n	8002366 <_out_rev+0x42>
      out(' ', buffer, idx++, maxlen);
 8002350:	687a      	ldr	r2, [r7, #4]
 8002352:	1c53      	adds	r3, r2, #1
 8002354:	607b      	str	r3, [r7, #4]
 8002356:	68fc      	ldr	r4, [r7, #12]
 8002358:	683b      	ldr	r3, [r7, #0]
 800235a:	68b9      	ldr	r1, [r7, #8]
 800235c:	2020      	movs	r0, #32
 800235e:	47a0      	blx	r4
    for (size_t i = len; i < width; i++) {
 8002360:	697b      	ldr	r3, [r7, #20]
 8002362:	3301      	adds	r3, #1
 8002364:	617b      	str	r3, [r7, #20]
 8002366:	697a      	ldr	r2, [r7, #20]
 8002368:	6b3b      	ldr	r3, [r7, #48]	; 0x30
 800236a:	429a      	cmp	r2, r3
 800236c:	d3f0      	bcc.n	8002350 <_out_rev+0x2c>
    }
  }

  // reverse string
  while (len) {
 800236e:	e00d      	b.n	800238c <_out_rev+0x68>
    out(buf[--len], buffer, idx++, maxlen);
 8002370:	6afb      	ldr	r3, [r7, #44]	; 0x2c
 8002372:	3b01      	subs	r3, #1
 8002374:	62fb      	str	r3, [r7, #44]	; 0x2c
 8002376:	6aba      	ldr	r2, [r7, #40]	; 0x28
 8002378:	6afb      	ldr	r3, [r7, #44]	; 0x2c
 800237a:	4413      	add	r3, r2
 800237c:	7818      	ldrb	r0, [r3, #0]
 800237e:	687a      	ldr	r2, [r7, #4]
 8002380:	1c53      	adds	r3, r2, #1
 8002382:	607b      	str	r3, [r7, #4]
 8002384:	68fc      	ldr	r4, [r7, #12]
 8002386:	683b      	ldr	r3, [r7, #0]
 8002388:	68b9      	ldr	r1, [r7, #8]
 800238a:	47a0      	blx	r4
  while (len) {
 800238c:	6afb      	ldr	r3, [r7, #44]	; 0x2c
 800238e:	2b00      	cmp	r3, #0
 8002390:	d1ee      	bne.n	8002370 <_out_rev+0x4c>
  }

  // append pad spaces up to given width
  if (flags & FLAGS_LEFT) {
 8002392:	6b7b      	ldr	r3, [r7, #52]	; 0x34
 8002394:	f003 0302 	and.w	r3, r3, #2
 8002398:	2b00      	cmp	r3, #0
 800239a:	d00e      	beq.n	80023ba <_out_rev+0x96>
    while (idx - start_idx < width) {
 800239c:	e007      	b.n	80023ae <_out_rev+0x8a>
      out(' ', buffer, idx++, maxlen);
 800239e:	687a      	ldr	r2, [r7, #4]
 80023a0:	1c53      	adds	r3, r2, #1
 80023a2:	607b      	str	r3, [r7, #4]
 80023a4:	68fc      	ldr	r4, [r7, #12]
 80023a6:	683b      	ldr	r3, [r7, #0]
 80023a8:	68b9      	ldr	r1, [r7, #8]
 80023aa:	2020      	movs	r0, #32
 80023ac:	47a0      	blx	r4
    while (idx - start_idx < width) {
 80023ae:	687a      	ldr	r2, [r7, #4]
 80023b0:	693b      	ldr	r3, [r7, #16]
 80023b2:	1ad3      	subs	r3, r2, r3
 80023b4:	6b3a      	ldr	r2, [r7, #48]	; 0x30
 80023b6:	429a      	cmp	r2, r3
 80023b8:	d8f1      	bhi.n	800239e <_out_rev+0x7a>
    }
  }

  return idx;
 80023ba:	687b      	ldr	r3, [r7, #4]
}
 80023bc:	4618      	mov	r0, r3
 80023be:	371c      	adds	r7, #28
 80023c0:	46bd      	mov	sp, r7
 80023c2:	bd90      	pop	{r4, r7, pc}

080023c4 <_ntoa_format>:


// internal itoa format
static size_t _ntoa_format(out_fct_type out, char* buffer, size_t idx, size_t maxlen, char* buf, size_t len, bool negative, unsigned int base, unsigned int prec, unsigned int width, unsigned int flags)
{
 80023c4:	b580      	push	{r7, lr}
 80023c6:	b088      	sub	sp, #32
 80023c8:	af04      	add	r7, sp, #16
 80023ca:	60f8      	str	r0, [r7, #12]
 80023cc:	60b9      	str	r1, [r7, #8]
 80023ce:	607a      	str	r2, [r7, #4]
 80023d0:	603b      	str	r3, [r7, #0]
  // pad leading zeros
  if (!(flags & FLAGS_LEFT)) {
 80023d2:	6b3b      	ldr	r3, [r7, #48]	; 0x30
 80023d4:	f003 0302 	and.w	r3, r3, #2
 80023d8:	2b00      	cmp	r3, #0
 80023da:	d136      	bne.n	800244a <_ntoa_format+0x86>
    if (width && (flags & FLAGS_ZEROPAD) && (negative || (flags & (FLAGS_PLUS | FLAGS_SPACE)))) {
 80023dc:	6afb      	ldr	r3, [r7, #44]	; 0x2c
 80023de:	2b00      	cmp	r3, #0
 80023e0:	d018      	beq.n	8002414 <_ntoa_format+0x50>
 80023e2:	6b3b      	ldr	r3, [r7, #48]	; 0x30
 80023e4:	f003 0301 	and.w	r3, r3, #1
 80023e8:	2b00      	cmp	r3, #0
 80023ea:	d013      	beq.n	8002414 <_ntoa_format+0x50>
 80023ec:	f897 3020 	ldrb.w	r3, [r7, #32]
 80023f0:	2b00      	cmp	r3, #0
 80023f2:	d104      	bne.n	80023fe <_ntoa_format+0x3a>
 80023f4:	6b3b      	ldr	r3, [r7, #48]	; 0x30
 80023f6:	f003 030c 	and.w	r3, r3, #12
 80023fa:	2b00      	cmp	r3, #0
 80023fc:	d00a      	beq.n	8002414 <_ntoa_format+0x50>
      width--;
 80023fe:	6afb      	ldr	r3, [r7, #44]	; 0x2c
 8002400:	3b01      	subs	r3, #1
 8002402:	62fb      	str	r3, [r7, #44]	; 0x2c
    }
    while ((len < prec) && (len < PRINTF_NTOA_BUFFER_SIZE)) {
 8002404:	e006      	b.n	8002414 <_ntoa_format+0x50>
      buf[len++] = '0';
 8002406:	69fb      	ldr	r3, [r7, #28]
 8002408:	1c5a      	adds	r2, r3, #1
 800240a:	61fa      	str	r2, [r7, #28]
 800240c:	69ba      	ldr	r2, [r7, #24]
 800240e:	4413      	add	r3, r2
 8002410:	2230      	movs	r2, #48	; 0x30
 8002412:	701a      	strb	r2, [r3, #0]
    while ((len < prec) && (len < PRINTF_NTOA_BUFFER_SIZE)) {
 8002414:	69fa      	ldr	r2, [r7, #28]
 8002416:	6abb      	ldr	r3, [r7, #40]	; 0x28
 8002418:	429a      	cmp	r2, r3
 800241a:	d20a      	bcs.n	8002432 <_ntoa_format+0x6e>
 800241c:	69fb      	ldr	r3, [r7, #28]
 800241e:	2b1f      	cmp	r3, #31
 8002420:	d9f1      	bls.n	8002406 <_ntoa_format+0x42>
    }
    while ((flags & FLAGS_ZEROPAD) && (len < width) && (len < PRINTF_NTOA_BUFFER_SIZE)) {
 8002422:	e006      	b.n	8002432 <_ntoa_format+0x6e>
      buf[len++] = '0';
 8002424:	69fb      	ldr	r3, [r7, #28]
 8002426:	1c5a      	adds	r2, r3, #1
 8002428:	61fa      	str	r2, [r7, #28]
 800242a:	69ba      	ldr	r2, [r7, #24]
 800242c:	4413      	add	r3, r2
 800242e:	2230      	movs	r2, #48	; 0x30
 8002430:	701a      	strb	r2, [r3, #0]
    while ((flags & FLAGS_ZEROPAD) && (len < width) && (len < PRINTF_NTOA_BUFFER_SIZE)) {
 8002432:	6b3b      	ldr	r3, [r7, #48]	; 0x30
 8002434:	f003 0301 	and.w	r3, r3, #1
 8002438:	2b00      	cmp	r3, #0
 800243a:	d006      	beq.n	800244a <_ntoa_format+0x86>
 800243c:	69fa      	ldr	r2, [r7, #28]
 800243e:	6afb      	ldr	r3, [r7, #44]	; 0x2c
 8002440:	429a      	cmp	r2, r3
 8002442:	d202      	bcs.n	800244a <_ntoa_format+0x86>
 8002444:	69fb      	ldr	r3, [r7, #28]
 8002446:	2b1f      	cmp	r3, #31
 8002448:	d9ec      	bls.n	8002424 <_ntoa_format+0x60>
    }
  }

  // handle hash
  if (flags & FLAGS_HASH) {
 800244a:	6b3b      	ldr	r3, [r7, #48]	; 0x30
 800244c:	f003 0310 	and.w	r3, r3, #16
 8002450:	2b00      	cmp	r3, #0
 8002452:	d058      	beq.n	8002506 <_ntoa_format+0x142>
    if (!(flags & FLAGS_PRECISION) && len && ((len == prec) || (len == width))) {
 8002454:	6b3b      	ldr	r3, [r7, #48]	; 0x30
 8002456:	f403 6380 	and.w	r3, r3, #1024	; 0x400
 800245a:	2b00      	cmp	r3, #0
 800245c:	d116      	bne.n	800248c <_ntoa_format+0xc8>
 800245e:	69fb      	ldr	r3, [r7, #28]
 8002460:	2b00      	cmp	r3, #0
 8002462:	d013      	beq.n	800248c <_ntoa_format+0xc8>
 8002464:	69fa      	ldr	r2, [r7, #28]
 8002466:	6abb      	ldr	r3, [r7, #40]	; 0x28
 8002468:	429a      	cmp	r2, r3
 800246a:	d003      	beq.n	8002474 <_ntoa_format+0xb0>
 800246c:	69fa      	ldr	r2, [r7, #28]
 800246e:	6afb      	ldr	r3, [r7, #44]	; 0x2c
 8002470:	429a      	cmp	r2, r3
 8002472:	d10b      	bne.n	800248c <_ntoa_format+0xc8>
      len--;
 8002474:	69fb      	ldr	r3, [r7, #28]
 8002476:	3b01      	subs	r3, #1
 8002478:	61fb      	str	r3, [r7, #28]
      if (len && (base == 16U)) {
 800247a:	69fb      	ldr	r3, [r7, #28]
 800247c:	2b00      	cmp	r3, #0
 800247e:	d005      	beq.n	800248c <_ntoa_format+0xc8>
 8002480:	6a7b      	ldr	r3, [r7, #36]	; 0x24
 8002482:	2b10      	cmp	r3, #16
 8002484:	d102      	bne.n	800248c <_ntoa_format+0xc8>
        len--;
 8002486:	69fb      	ldr	r3, [r7, #28]
 8002488:	3b01      	subs	r3, #1
 800248a:	61fb      	str	r3, [r7, #28]
      }
    }
    if ((base == 16U) && !(flags & FLAGS_UPPERCASE) && (len < PRINTF_NTOA_BUFFER_SIZE)) {
 800248c:	6a7b      	ldr	r3, [r7, #36]	; 0x24
 800248e:	2b10      	cmp	r3, #16
 8002490:	d10f      	bne.n	80024b2 <_ntoa_format+0xee>
 8002492:	6b3b      	ldr	r3, [r7, #48]	; 0x30
 8002494:	f003 0320 	and.w	r3, r3, #32
 8002498:	2b00      	cmp	r3, #0
 800249a:	d10a      	bne.n	80024b2 <_ntoa_format+0xee>
 800249c:	69fb      	ldr	r3, [r7, #28]
 800249e:	2b1f      	cmp	r3, #31
 80024a0:	d807      	bhi.n	80024b2 <_ntoa_format+0xee>
      buf[len++] = 'x';
 80024a2:	69fb      	ldr	r3, [r7, #28]
 80024a4:	1c5a      	adds	r2, r3, #1
 80024a6:	61fa      	str	r2, [r7, #28]
 80024a8:	69ba      	ldr	r2, [r7, #24]
 80024aa:	4413      	add	r3, r2
 80024ac:	2278      	movs	r2, #120	; 0x78
 80024ae:	701a      	strb	r2, [r3, #0]
 80024b0:	e01f      	b.n	80024f2 <_ntoa_format+0x12e>
    }
    else if ((base == 16U) && (flags & FLAGS_UPPERCASE) && (len < PRINTF_NTOA_BUFFER_SIZE)) {
 80024b2:	6a7b      	ldr	r3, [r7, #36]	; 0x24
 80024b4:	2b10      	cmp	r3, #16
 80024b6:	d10f      	bne.n	80024d8 <_ntoa_format+0x114>
 80024b8:	6b3b      	ldr	r3, [r7, #48]	; 0x30
 80024ba:	f003 0320 	and.w	r3, r3, #32
 80024be:	2b00      	cmp	r3, #0
 80024c0:	d00a      	beq.n	80024d8 <_ntoa_format+0x114>
 80024c2:	69fb      	ldr	r3, [r7, #28]
 80024c4:	2b1f      	cmp	r3, #31
 80024c6:	d807      	bhi.n	80024d8 <_ntoa_format+0x114>
      buf[len++] = 'X';
 80024c8:	69fb      	ldr	r3, [r7, #28]
 80024ca:	1c5a      	adds	r2, r3, #1
 80024cc:	61fa      	str	r2, [r7, #28]
 80024ce:	69ba      	ldr	r2, [r7, #24]
 80024d0:	4413      	add	r3, r2
 80024d2:	2258      	movs	r2, #88	; 0x58
 80024d4:	701a      	strb	r2, [r3, #0]
 80024d6:	e00c      	b.n	80024f2 <_ntoa_format+0x12e>
    }
    else if ((base == 2U) && (len < PRINTF_NTOA_BUFFER_SIZE)) {
 80024d8:	6a7b      	ldr	r3, [r7, #36]	; 0x24
 80024da:	2b02      	cmp	r3, #2
 80024dc:	d109      	bne.n	80024f2 <_ntoa_format+0x12e>
 80024de:	69fb      	ldr	r3, [r7, #28]
 80024e0:	2b1f      	cmp	r3, #31
 80024e2:	d806      	bhi.n	80024f2 <_ntoa_format+0x12e>
      buf[len++] = 'b';
 80024e4:	69fb      	ldr	r3, [r7, #28]
 80024e6:	1c5a      	adds	r2, r3, #1
 80024e8:	61fa      	str	r2, [r7, #28]
 80024ea:	69ba      	ldr	r2, [r7, #24]
 80024ec:	4413      	add	r3, r2
 80024ee:	2262      	movs	r2, #98	; 0x62
 80024f0:	701a      	strb	r2, [r3, #0]
    }
    if (len < PRINTF_NTOA_BUFFER_SIZE) {
 80024f2:	69fb      	ldr	r3, [r7, #28]
 80024f4:	2b1f      	cmp	r3, #31
 80024f6:	d806      	bhi.n	8002506 <_ntoa_format+0x142>
      buf[len++] = '0';
 80024f8:	69fb      	ldr	r3, [r7, #28]
 80024fa:	1c5a      	adds	r2, r3, #1
 80024fc:	61fa      	str	r2, [r7, #28]
 80024fe:	69ba      	ldr	r2, [r7, #24]
 8002500:	4413      	add	r3, r2
 8002502:	2230      	movs	r2, #48	; 0x30
 8002504:	701a      	strb	r2, [r3, #0]
    }
  }

  if (len < PRINTF_NTOA_BUFFER_SIZE) {
 8002506:	69fb      	ldr	r3, [r7, #28]
 8002508:	2b1f      	cmp	r3, #31
 800250a:	d824      	bhi.n	8002556 <_ntoa_format+0x192>
    if (negative) {
 800250c:	f897 3020 	ldrb.w	r3, [r7, #32]
 8002510:	2b00      	cmp	r3, #0
 8002512:	d007      	beq.n	8002524 <_ntoa_format+0x160>
      buf[len++] = '-';
 8002514:	69fb      	ldr	r3, [r7, #28]
 8002516:	1c5a      	adds	r2, r3, #1
 8002518:	61fa      	str	r2, [r7, #28]
 800251a:	69ba      	ldr	r2, [r7, #24]
 800251c:	4413      	add	r3, r2
 800251e:	222d      	movs	r2, #45	; 0x2d
 8002520:	701a      	strb	r2, [r3, #0]
 8002522:	e018      	b.n	8002556 <_ntoa_format+0x192>
    }
    else if (flags & FLAGS_PLUS) {
 8002524:	6b3b      	ldr	r3, [r7, #48]	; 0x30
 8002526:	f003 0304 	and.w	r3, r3, #4
 800252a:	2b00      	cmp	r3, #0
 800252c:	d007      	beq.n	800253e <_ntoa_format+0x17a>
      buf[len++] = '+';  // ignore the space if the '+' exists
 800252e:	69fb      	ldr	r3, [r7, #28]
 8002530:	1c5a      	adds	r2, r3, #1
 8002532:	61fa      	str	r2, [r7, #28]
 8002534:	69ba      	ldr	r2, [r7, #24]
 8002536:	4413      	add	r3, r2
 8002538:	222b      	movs	r2, #43	; 0x2b
 800253a:	701a      	strb	r2, [r3, #0]
 800253c:	e00b      	b.n	8002556 <_ntoa_format+0x192>
    }
    else if (flags & FLAGS_SPACE) {
 800253e:	6b3b      	ldr	r3, [r7, #48]	; 0x30
 8002540:	f003 0308 	and.w	r3, r3, #8
 8002544:	2b00      	cmp	r3, #0
 8002546:	d006      	beq.n	8002556 <_ntoa_format+0x192>
      buf[len++] = ' ';
 8002548:	69fb      	ldr	r3, [r7, #28]
 800254a:	1c5a      	adds	r2, r3, #1
 800254c:	61fa      	str	r2, [r7, #28]
 800254e:	69ba      	ldr	r2, [r7, #24]
 8002550:	4413      	add	r3, r2
 8002552:	2220      	movs	r2, #32
 8002554:	701a      	strb	r2, [r3, #0]
    }
  }

  return _out_rev(out, buffer, idx, maxlen, buf, len, width, flags);
 8002556:	6b3b      	ldr	r3, [r7, #48]	; 0x30
 8002558:	9303      	str	r3, [sp, #12]
 800255a:	6afb      	ldr	r3, [r7, #44]	; 0x2c
 800255c:	9302      	str	r3, [sp, #8]
 800255e:	69fb      	ldr	r3, [r7, #28]
 8002560:	9301      	str	r3, [sp, #4]
 8002562:	69bb      	ldr	r3, [r7, #24]
 8002564:	9300      	str	r3, [sp, #0]
 8002566:	683b      	ldr	r3, [r7, #0]
 8002568:	687a      	ldr	r2, [r7, #4]
 800256a:	68b9      	ldr	r1, [r7, #8]
 800256c:	68f8      	ldr	r0, [r7, #12]
 800256e:	f7ff fed9 	bl	8002324 <_out_rev>
 8002572:	4603      	mov	r3, r0
}
 8002574:	4618      	mov	r0, r3
 8002576:	3710      	adds	r7, #16
 8002578:	46bd      	mov	sp, r7
 800257a:	bd80      	pop	{r7, pc}

0800257c <_ntoa_long>:


// internal itoa for 'long' type
static size_t _ntoa_long(out_fct_type out, char* buffer, size_t idx, size_t maxlen, unsigned long value, bool negative, unsigned long base, unsigned int prec, unsigned int width, unsigned int flags)
{
 800257c:	b580      	push	{r7, lr}
 800257e:	b096      	sub	sp, #88	; 0x58
 8002580:	af08      	add	r7, sp, #32
 8002582:	60f8      	str	r0, [r7, #12]
 8002584:	60b9      	str	r1, [r7, #8]
 8002586:	607a      	str	r2, [r7, #4]
 8002588:	603b      	str	r3, [r7, #0]
  char buf[PRINTF_NTOA_BUFFER_SIZE];
  size_t len = 0U;
 800258a:	2300      	movs	r3, #0
 800258c:	637b      	str	r3, [r7, #52]	; 0x34

  // no hash for 0 values
  if (!value) {
 800258e:	6c3b      	ldr	r3, [r7, #64]	; 0x40
 8002590:	2b00      	cmp	r3, #0
 8002592:	d103      	bne.n	800259c <_ntoa_long+0x20>
    flags &= ~FLAGS_HASH;
 8002594:	6d7b      	ldr	r3, [r7, #84]	; 0x54
 8002596:	f023 0310 	bic.w	r3, r3, #16
 800259a:	657b      	str	r3, [r7, #84]	; 0x54
  }

  // write if precision != 0 and value is != 0
  if (!(flags & FLAGS_PRECISION) || value) {
 800259c:	6d7b      	ldr	r3, [r7, #84]	; 0x54
 800259e:	f403 6380 	and.w	r3, r3, #1024	; 0x400
 80025a2:	2b00      	cmp	r3, #0
 80025a4:	d002      	beq.n	80025ac <_ntoa_long+0x30>
 80025a6:	6c3b      	ldr	r3, [r7, #64]	; 0x40
 80025a8:	2b00      	cmp	r3, #0
 80025aa:	d033      	beq.n	8002614 <_ntoa_long+0x98>
    do {
      const char digit = (char)(value % base);
 80025ac:	6c3b      	ldr	r3, [r7, #64]	; 0x40
 80025ae:	6cba      	ldr	r2, [r7, #72]	; 0x48
 80025b0:	fbb3 f2f2 	udiv	r2, r3, r2
 80025b4:	6cb9      	ldr	r1, [r7, #72]	; 0x48
 80025b6:	fb01 f202 	mul.w	r2, r1, r2
 80025ba:	1a9b      	subs	r3, r3, r2
 80025bc:	f887 3033 	strb.w	r3, [r7, #51]	; 0x33
      buf[len++] = digit < 10 ? '0' + digit : (flags & FLAGS_UPPERCASE ? 'A' : 'a') + digit - 10;
 80025c0:	f897 3033 	ldrb.w	r3, [r7, #51]	; 0x33
 80025c4:	2b09      	cmp	r3, #9
 80025c6:	d804      	bhi.n	80025d2 <_ntoa_long+0x56>
 80025c8:	f897 3033 	ldrb.w	r3, [r7, #51]	; 0x33
 80025cc:	3330      	adds	r3, #48	; 0x30
 80025ce:	b2da      	uxtb	r2, r3
 80025d0:	e00d      	b.n	80025ee <_ntoa_long+0x72>
 80025d2:	6d7b      	ldr	r3, [r7, #84]	; 0x54
 80025d4:	f003 0320 	and.w	r3, r3, #32
 80025d8:	2b00      	cmp	r3, #0
 80025da:	d001      	beq.n	80025e0 <_ntoa_long+0x64>
 80025dc:	2241      	movs	r2, #65	; 0x41
 80025de:	e000      	b.n	80025e2 <_ntoa_long+0x66>
 80025e0:	2261      	movs	r2, #97	; 0x61
 80025e2:	f897 3033 	ldrb.w	r3, [r7, #51]	; 0x33
 80025e6:	4413      	add	r3, r2
 80025e8:	b2db      	uxtb	r3, r3
 80025ea:	3b0a      	subs	r3, #10
 80025ec:	b2da      	uxtb	r2, r3
 80025ee:	6b7b      	ldr	r3, [r7, #52]	; 0x34
 80025f0:	1c59      	adds	r1, r3, #1
 80025f2:	6379      	str	r1, [r7, #52]	; 0x34
 80025f4:	f107 0138 	add.w	r1, r7, #56	; 0x38
 80025f8:	440b      	add	r3, r1
 80025fa:	f803 2c28 	strb.w	r2, [r3, #-40]
      value /= base;
 80025fe:	6c3a      	ldr	r2, [r7, #64]	; 0x40
 8002600:	6cbb      	ldr	r3, [r7, #72]	; 0x48
 8002602:	fbb2 f3f3 	udiv	r3, r2, r3
 8002606:	643b      	str	r3, [r7, #64]	; 0x40
    } while (value && (len < PRINTF_NTOA_BUFFER_SIZE));
 8002608:	6c3b      	ldr	r3, [r7, #64]	; 0x40
 800260a:	2b00      	cmp	r3, #0
 800260c:	d002      	beq.n	8002614 <_ntoa_long+0x98>
 800260e:	6b7b      	ldr	r3, [r7, #52]	; 0x34
 8002610:	2b1f      	cmp	r3, #31
 8002612:	d9cb      	bls.n	80025ac <_ntoa_long+0x30>
  }

  return _ntoa_format(out, buffer, idx, maxlen, buf, len, negative, (unsigned int)base, prec, width, flags);
 8002614:	6d7b      	ldr	r3, [r7, #84]	; 0x54
 8002616:	9306      	str	r3, [sp, #24]
 8002618:	6d3b      	ldr	r3, [r7, #80]	; 0x50
 800261a:	9305      	str	r3, [sp, #20]
 800261c:	6cfb      	ldr	r3, [r7, #76]	; 0x4c
 800261e:	9304      	str	r3, [sp, #16]
 8002620:	6cbb      	ldr	r3, [r7, #72]	; 0x48
 8002622:	9303      	str	r3, [sp, #12]
 8002624:	f897 3044 	ldrb.w	r3, [r7, #68]	; 0x44
 8002628:	9302      	str	r3, [sp, #8]
 800262a:	6b7b      	ldr	r3, [r7, #52]	; 0x34
 800262c:	9301      	str	r3, [sp, #4]
 800262e:	f107 0310 	add.w	r3, r7, #16
 8002632:	9300      	str	r3, [sp, #0]
 8002634:	683b      	ldr	r3, [r7, #0]
 8002636:	687a      	ldr	r2, [r7, #4]
 8002638:	68b9      	ldr	r1, [r7, #8]
 800263a:	68f8      	ldr	r0, [r7, #12]
 800263c:	f7ff fec2 	bl	80023c4 <_ntoa_format>
 8002640:	4603      	mov	r3, r0
}
 8002642:	4618      	mov	r0, r3
 8002644:	3738      	adds	r7, #56	; 0x38
 8002646:	46bd      	mov	sp, r7
 8002648:	bd80      	pop	{r7, pc}

0800264a <_ntoa_long_long>:


// internal itoa for 'long long' type
#if defined(PRINTF_SUPPORT_LONG_LONG)
static size_t _ntoa_long_long(out_fct_type out, char* buffer, size_t idx, size_t maxlen, unsigned long long value, bool negative, unsigned long long base, unsigned int prec, unsigned int width, unsigned int flags)
{
 800264a:	b590      	push	{r4, r7, lr}
 800264c:	b097      	sub	sp, #92	; 0x5c
 800264e:	af08      	add	r7, sp, #32
 8002650:	60f8      	str	r0, [r7, #12]
 8002652:	60b9      	str	r1, [r7, #8]
 8002654:	607a      	str	r2, [r7, #4]
 8002656:	603b      	str	r3, [r7, #0]
  char buf[PRINTF_NTOA_BUFFER_SIZE];
  size_t len = 0U;
 8002658:	2300      	movs	r3, #0
 800265a:	637b      	str	r3, [r7, #52]	; 0x34

  // no hash for 0 values
  if (!value) {
 800265c:	e9d7 3412 	ldrd	r3, r4, [r7, #72]	; 0x48
 8002660:	4323      	orrs	r3, r4
 8002662:	d103      	bne.n	800266c <_ntoa_long_long+0x22>
    flags &= ~FLAGS_HASH;
 8002664:	6ebb      	ldr	r3, [r7, #104]	; 0x68
 8002666:	f023 0310 	bic.w	r3, r3, #16
 800266a:	66bb      	str	r3, [r7, #104]	; 0x68
  }

  // write if precision != 0 and value is != 0
  if (!(flags & FLAGS_PRECISION) || value) {
 800266c:	6ebb      	ldr	r3, [r7, #104]	; 0x68
 800266e:	f403 6380 	and.w	r3, r3, #1024	; 0x400
 8002672:	2b00      	cmp	r3, #0
 8002674:	d003      	beq.n	800267e <_ntoa_long_long+0x34>
 8002676:	e9d7 3412 	ldrd	r3, r4, [r7, #72]	; 0x48
 800267a:	4323      	orrs	r3, r4
 800267c:	d039      	beq.n	80026f2 <_ntoa_long_long+0xa8>
    do {
      const char digit = (char)(value % base);
 800267e:	e9d7 0112 	ldrd	r0, r1, [r7, #72]	; 0x48
 8002682:	e9d7 2316 	ldrd	r2, r3, [r7, #88]	; 0x58
 8002686:	f7fe fb07 	bl	8000c98 <__aeabi_uldivmod>
 800268a:	461c      	mov	r4, r3
 800268c:	4613      	mov	r3, r2
 800268e:	f887 3033 	strb.w	r3, [r7, #51]	; 0x33
      buf[len++] = digit < 10 ? '0' + digit : (flags & FLAGS_UPPERCASE ? 'A' : 'a') + digit - 10;
 8002692:	f897 3033 	ldrb.w	r3, [r7, #51]	; 0x33
 8002696:	2b09      	cmp	r3, #9
 8002698:	d804      	bhi.n	80026a4 <_ntoa_long_long+0x5a>
 800269a:	f897 3033 	ldrb.w	r3, [r7, #51]	; 0x33
 800269e:	3330      	adds	r3, #48	; 0x30
 80026a0:	b2da      	uxtb	r2, r3
 80026a2:	e00d      	b.n	80026c0 <_ntoa_long_long+0x76>
 80026a4:	6ebb      	ldr	r3, [r7, #104]	; 0x68
 80026a6:	f003 0320 	and.w	r3, r3, #32
 80026aa:	2b00      	cmp	r3, #0
 80026ac:	d001      	beq.n	80026b2 <_ntoa_long_long+0x68>
 80026ae:	2241      	movs	r2, #65	; 0x41
 80026b0:	e000      	b.n	80026b4 <_ntoa_long_long+0x6a>
 80026b2:	2261      	movs	r2, #97	; 0x61
 80026b4:	f897 3033 	ldrb.w	r3, [r7, #51]	; 0x33
 80026b8:	4413      	add	r3, r2
 80026ba:	b2db      	uxtb	r3, r3
 80026bc:	3b0a      	subs	r3, #10
 80026be:	b2da      	uxtb	r2, r3
 80026c0:	6b7b      	ldr	r3, [r7, #52]	; 0x34
 80026c2:	1c59      	adds	r1, r3, #1
 80026c4:	6379      	str	r1, [r7, #52]	; 0x34
 80026c6:	f107 0138 	add.w	r1, r7, #56	; 0x38
 80026ca:	440b      	add	r3, r1
 80026cc:	f803 2c28 	strb.w	r2, [r3, #-40]
      value /= base;
 80026d0:	e9d7 2316 	ldrd	r2, r3, [r7, #88]	; 0x58
 80026d4:	e9d7 0112 	ldrd	r0, r1, [r7, #72]	; 0x48
 80026d8:	f7fe fade 	bl	8000c98 <__aeabi_uldivmod>
 80026dc:	4603      	mov	r3, r0
 80026de:	460c      	mov	r4, r1
 80026e0:	e9c7 3412 	strd	r3, r4, [r7, #72]	; 0x48
    } while (value && (len < PRINTF_NTOA_BUFFER_SIZE));
 80026e4:	e9d7 3412 	ldrd	r3, r4, [r7, #72]	; 0x48
 80026e8:	4323      	orrs	r3, r4
 80026ea:	d002      	beq.n	80026f2 <_ntoa_long_long+0xa8>
 80026ec:	6b7b      	ldr	r3, [r7, #52]	; 0x34
 80026ee:	2b1f      	cmp	r3, #31
 80026f0:	d9c5      	bls.n	800267e <_ntoa_long_long+0x34>
  }

  return _ntoa_format(out, buffer, idx, maxlen, buf, len, negative, (unsigned int)base, prec, width, flags);
 80026f2:	6dbb      	ldr	r3, [r7, #88]	; 0x58
 80026f4:	6eba      	ldr	r2, [r7, #104]	; 0x68
 80026f6:	9206      	str	r2, [sp, #24]
 80026f8:	6e7a      	ldr	r2, [r7, #100]	; 0x64
 80026fa:	9205      	str	r2, [sp, #20]
 80026fc:	6e3a      	ldr	r2, [r7, #96]	; 0x60
 80026fe:	9204      	str	r2, [sp, #16]
 8002700:	9303      	str	r3, [sp, #12]
 8002702:	f897 3050 	ldrb.w	r3, [r7, #80]	; 0x50
 8002706:	9302      	str	r3, [sp, #8]
 8002708:	6b7b      	ldr	r3, [r7, #52]	; 0x34
 800270a:	9301      	str	r3, [sp, #4]
 800270c:	f107 0310 	add.w	r3, r7, #16
 8002710:	9300      	str	r3, [sp, #0]
 8002712:	683b      	ldr	r3, [r7, #0]
 8002714:	687a      	ldr	r2, [r7, #4]
 8002716:	68b9      	ldr	r1, [r7, #8]
 8002718:	68f8      	ldr	r0, [r7, #12]
 800271a:	f7ff fe53 	bl	80023c4 <_ntoa_format>
 800271e:	4603      	mov	r3, r0
}
 8002720:	4618      	mov	r0, r3
 8002722:	373c      	adds	r7, #60	; 0x3c
 8002724:	46bd      	mov	sp, r7
 8002726:	bd90      	pop	{r4, r7, pc}

08002728 <_ftoa>:
#endif


// internal ftoa for fixed decimal floating point
static size_t _ftoa(out_fct_type out, char* buffer, size_t idx, size_t maxlen, double value, unsigned int prec, unsigned int width, unsigned int flags)
{
 8002728:	b590      	push	{r4, r7, lr}
 800272a:	b09d      	sub	sp, #116	; 0x74
 800272c:	af04      	add	r7, sp, #16
 800272e:	6178      	str	r0, [r7, #20]
 8002730:	6139      	str	r1, [r7, #16]
 8002732:	60fa      	str	r2, [r7, #12]
 8002734:	60bb      	str	r3, [r7, #8]
 8002736:	ed87 0b00 	vstr	d0, [r7]
  char buf[PRINTF_FTOA_BUFFER_SIZE];
  size_t len  = 0U;
 800273a:	2300      	movs	r3, #0
 800273c:	65fb      	str	r3, [r7, #92]	; 0x5c
  double diff = 0.0;
 800273e:	f04f 0300 	mov.w	r3, #0
 8002742:	f04f 0400 	mov.w	r4, #0
 8002746:	e9c7 3410 	strd	r3, r4, [r7, #64]	; 0x40

  // powers of 10
  static const double pow10[] = { 1, 10, 100, 1000, 10000, 100000, 1000000, 10000000, 100000000, 1000000000 };

  // test for special values
  if (value != value)
 800274a:	e9d7 2300 	ldrd	r2, r3, [r7]
 800274e:	e9d7 0100 	ldrd	r0, r1, [r7]
 8002752:	f7fe f9c1 	bl	8000ad8 <__aeabi_dcmpeq>
 8002756:	4603      	mov	r3, r0
 8002758:	2b00      	cmp	r3, #0
 800275a:	d10f      	bne.n	800277c <_ftoa+0x54>
    return _out_rev(out, buffer, idx, maxlen, "nan", 3, width, flags);
 800275c:	6fbb      	ldr	r3, [r7, #120]	; 0x78
 800275e:	9303      	str	r3, [sp, #12]
 8002760:	6f7b      	ldr	r3, [r7, #116]	; 0x74
 8002762:	9302      	str	r3, [sp, #8]
 8002764:	2303      	movs	r3, #3
 8002766:	9301      	str	r3, [sp, #4]
 8002768:	4baf      	ldr	r3, [pc, #700]	; (8002a28 <_ftoa+0x300>)
 800276a:	9300      	str	r3, [sp, #0]
 800276c:	68bb      	ldr	r3, [r7, #8]
 800276e:	68fa      	ldr	r2, [r7, #12]
 8002770:	6939      	ldr	r1, [r7, #16]
 8002772:	6978      	ldr	r0, [r7, #20]
 8002774:	f7ff fdd6 	bl	8002324 <_out_rev>
 8002778:	4603      	mov	r3, r0
 800277a:	e237      	b.n	8002bec <_ftoa+0x4c4>
  if (value < -DBL_MAX)
 800277c:	f04f 32ff 	mov.w	r2, #4294967295
 8002780:	f46f 1380 	mvn.w	r3, #1048576	; 0x100000
 8002784:	e9d7 0100 	ldrd	r0, r1, [r7]
 8002788:	f7fe f9b0 	bl	8000aec <__aeabi_dcmplt>
 800278c:	4603      	mov	r3, r0
 800278e:	2b00      	cmp	r3, #0
 8002790:	d00f      	beq.n	80027b2 <_ftoa+0x8a>
    return _out_rev(out, buffer, idx, maxlen, "fni-", 4, width, flags);
 8002792:	6fbb      	ldr	r3, [r7, #120]	; 0x78
 8002794:	9303      	str	r3, [sp, #12]
 8002796:	6f7b      	ldr	r3, [r7, #116]	; 0x74
 8002798:	9302      	str	r3, [sp, #8]
 800279a:	2304      	movs	r3, #4
 800279c:	9301      	str	r3, [sp, #4]
 800279e:	4ba3      	ldr	r3, [pc, #652]	; (8002a2c <_ftoa+0x304>)
 80027a0:	9300      	str	r3, [sp, #0]
 80027a2:	68bb      	ldr	r3, [r7, #8]
 80027a4:	68fa      	ldr	r2, [r7, #12]
 80027a6:	6939      	ldr	r1, [r7, #16]
 80027a8:	6978      	ldr	r0, [r7, #20]
 80027aa:	f7ff fdbb 	bl	8002324 <_out_rev>
 80027ae:	4603      	mov	r3, r0
 80027b0:	e21c      	b.n	8002bec <_ftoa+0x4c4>
  if (value > DBL_MAX)
 80027b2:	f04f 32ff 	mov.w	r2, #4294967295
 80027b6:	4b9e      	ldr	r3, [pc, #632]	; (8002a30 <_ftoa+0x308>)
 80027b8:	e9d7 0100 	ldrd	r0, r1, [r7]
 80027bc:	f7fe f9b4 	bl	8000b28 <__aeabi_dcmpgt>
 80027c0:	4603      	mov	r3, r0
 80027c2:	2b00      	cmp	r3, #0
 80027c4:	d01d      	beq.n	8002802 <_ftoa+0xda>
    return _out_rev(out, buffer, idx, maxlen, (flags & FLAGS_PLUS) ? "fni+" : "fni", (flags & FLAGS_PLUS) ? 4U : 3U, width, flags);
 80027c6:	6fbb      	ldr	r3, [r7, #120]	; 0x78
 80027c8:	f003 0304 	and.w	r3, r3, #4
 80027cc:	2b00      	cmp	r3, #0
 80027ce:	d001      	beq.n	80027d4 <_ftoa+0xac>
 80027d0:	4b98      	ldr	r3, [pc, #608]	; (8002a34 <_ftoa+0x30c>)
 80027d2:	e000      	b.n	80027d6 <_ftoa+0xae>
 80027d4:	4b98      	ldr	r3, [pc, #608]	; (8002a38 <_ftoa+0x310>)
 80027d6:	6fba      	ldr	r2, [r7, #120]	; 0x78
 80027d8:	f002 0204 	and.w	r2, r2, #4
 80027dc:	2a00      	cmp	r2, #0
 80027de:	d001      	beq.n	80027e4 <_ftoa+0xbc>
 80027e0:	2204      	movs	r2, #4
 80027e2:	e000      	b.n	80027e6 <_ftoa+0xbe>
 80027e4:	2203      	movs	r2, #3
 80027e6:	6fb9      	ldr	r1, [r7, #120]	; 0x78
 80027e8:	9103      	str	r1, [sp, #12]
 80027ea:	6f79      	ldr	r1, [r7, #116]	; 0x74
 80027ec:	9102      	str	r1, [sp, #8]
 80027ee:	9201      	str	r2, [sp, #4]
 80027f0:	9300      	str	r3, [sp, #0]
 80027f2:	68bb      	ldr	r3, [r7, #8]
 80027f4:	68fa      	ldr	r2, [r7, #12]
 80027f6:	6939      	ldr	r1, [r7, #16]
 80027f8:	6978      	ldr	r0, [r7, #20]
 80027fa:	f7ff fd93 	bl	8002324 <_out_rev>
 80027fe:	4603      	mov	r3, r0
 8002800:	e1f4      	b.n	8002bec <_ftoa+0x4c4>

  // test for very large values
  // standard printf behavior is to print EVERY whole number digit -- which could be 100s of characters overflowing your buffers == bad
  if ((value > PRINTF_MAX_FLOAT) || (value < -PRINTF_MAX_FLOAT)) {
 8002802:	a385      	add	r3, pc, #532	; (adr r3, 8002a18 <_ftoa+0x2f0>)
 8002804:	e9d3 2300 	ldrd	r2, r3, [r3]
 8002808:	e9d7 0100 	ldrd	r0, r1, [r7]
 800280c:	f7fe f98c 	bl	8000b28 <__aeabi_dcmpgt>
 8002810:	4603      	mov	r3, r0
 8002812:	2b00      	cmp	r3, #0
 8002814:	d109      	bne.n	800282a <_ftoa+0x102>
 8002816:	a382      	add	r3, pc, #520	; (adr r3, 8002a20 <_ftoa+0x2f8>)
 8002818:	e9d3 2300 	ldrd	r2, r3, [r3]
 800281c:	e9d7 0100 	ldrd	r0, r1, [r7]
 8002820:	f7fe f964 	bl	8000aec <__aeabi_dcmplt>
 8002824:	4603      	mov	r3, r0
 8002826:	2b00      	cmp	r3, #0
 8002828:	d00f      	beq.n	800284a <_ftoa+0x122>
#if defined(PRINTF_SUPPORT_EXPONENTIAL)
    return _etoa(out, buffer, idx, maxlen, value, prec, width, flags);
 800282a:	6fbb      	ldr	r3, [r7, #120]	; 0x78
 800282c:	9302      	str	r3, [sp, #8]
 800282e:	6f7b      	ldr	r3, [r7, #116]	; 0x74
 8002830:	9301      	str	r3, [sp, #4]
 8002832:	6f3b      	ldr	r3, [r7, #112]	; 0x70
 8002834:	9300      	str	r3, [sp, #0]
 8002836:	ed97 0b00 	vldr	d0, [r7]
 800283a:	68bb      	ldr	r3, [r7, #8]
 800283c:	68fa      	ldr	r2, [r7, #12]
 800283e:	6939      	ldr	r1, [r7, #16]
 8002840:	6978      	ldr	r0, [r7, #20]
 8002842:	f000 f9dd 	bl	8002c00 <_etoa>
 8002846:	4603      	mov	r3, r0
 8002848:	e1d0      	b.n	8002bec <_ftoa+0x4c4>
    return 0U;
#endif
  }

  // test for negative
  bool negative = false;
 800284a:	2300      	movs	r3, #0
 800284c:	f887 305b 	strb.w	r3, [r7, #91]	; 0x5b
  if (value < 0) {
 8002850:	f04f 0200 	mov.w	r2, #0
 8002854:	f04f 0300 	mov.w	r3, #0
 8002858:	e9d7 0100 	ldrd	r0, r1, [r7]
 800285c:	f7fe f946 	bl	8000aec <__aeabi_dcmplt>
 8002860:	4603      	mov	r3, r0
 8002862:	2b00      	cmp	r3, #0
 8002864:	d00e      	beq.n	8002884 <_ftoa+0x15c>
    negative = true;
 8002866:	2301      	movs	r3, #1
 8002868:	f887 305b 	strb.w	r3, [r7, #91]	; 0x5b
    value = 0 - value;
 800286c:	e9d7 2300 	ldrd	r2, r3, [r7]
 8002870:	f04f 0000 	mov.w	r0, #0
 8002874:	f04f 0100 	mov.w	r1, #0
 8002878:	f7fd fd0e 	bl	8000298 <__aeabi_dsub>
 800287c:	4603      	mov	r3, r0
 800287e:	460c      	mov	r4, r1
 8002880:	e9c7 3400 	strd	r3, r4, [r7]
  }

  // set default precision, if not set explicitly
  if (!(flags & FLAGS_PRECISION)) {
 8002884:	6fbb      	ldr	r3, [r7, #120]	; 0x78
 8002886:	f403 6380 	and.w	r3, r3, #1024	; 0x400
 800288a:	2b00      	cmp	r3, #0
 800288c:	d10e      	bne.n	80028ac <_ftoa+0x184>
    prec = PRINTF_DEFAULT_FLOAT_PRECISION;
 800288e:	2306      	movs	r3, #6
 8002890:	673b      	str	r3, [r7, #112]	; 0x70
  }
  // limit precision to 9, cause a prec >= 10 can lead to overflow errors
  while ((len < PRINTF_FTOA_BUFFER_SIZE) && (prec > 9U)) {
 8002892:	e00b      	b.n	80028ac <_ftoa+0x184>
    buf[len++] = '0';
 8002894:	6dfb      	ldr	r3, [r7, #92]	; 0x5c
 8002896:	1c5a      	adds	r2, r3, #1
 8002898:	65fa      	str	r2, [r7, #92]	; 0x5c
 800289a:	f107 0260 	add.w	r2, r7, #96	; 0x60
 800289e:	4413      	add	r3, r2
 80028a0:	2230      	movs	r2, #48	; 0x30
 80028a2:	f803 2c48 	strb.w	r2, [r3, #-72]
    prec--;
 80028a6:	6f3b      	ldr	r3, [r7, #112]	; 0x70
 80028a8:	3b01      	subs	r3, #1
 80028aa:	673b      	str	r3, [r7, #112]	; 0x70
  while ((len < PRINTF_FTOA_BUFFER_SIZE) && (prec > 9U)) {
 80028ac:	6dfb      	ldr	r3, [r7, #92]	; 0x5c
 80028ae:	2b1f      	cmp	r3, #31
 80028b0:	d802      	bhi.n	80028b8 <_ftoa+0x190>
 80028b2:	6f3b      	ldr	r3, [r7, #112]	; 0x70
 80028b4:	2b09      	cmp	r3, #9
 80028b6:	d8ed      	bhi.n	8002894 <_ftoa+0x16c>
  }

  int whole = (int)value;
 80028b8:	e9d7 0100 	ldrd	r0, r1, [r7]
 80028bc:	f7fe f954 	bl	8000b68 <__aeabi_d2iz>
 80028c0:	4603      	mov	r3, r0
 80028c2:	657b      	str	r3, [r7, #84]	; 0x54
  double tmp = (value - whole) * pow10[prec];
 80028c4:	6d78      	ldr	r0, [r7, #84]	; 0x54
 80028c6:	f7fd fe35 	bl	8000534 <__aeabi_i2d>
 80028ca:	4603      	mov	r3, r0
 80028cc:	460c      	mov	r4, r1
 80028ce:	461a      	mov	r2, r3
 80028d0:	4623      	mov	r3, r4
 80028d2:	e9d7 0100 	ldrd	r0, r1, [r7]
 80028d6:	f7fd fcdf 	bl	8000298 <__aeabi_dsub>
 80028da:	4603      	mov	r3, r0
 80028dc:	460c      	mov	r4, r1
 80028de:	4618      	mov	r0, r3
 80028e0:	4621      	mov	r1, r4
 80028e2:	4a56      	ldr	r2, [pc, #344]	; (8002a3c <_ftoa+0x314>)
 80028e4:	6f3b      	ldr	r3, [r7, #112]	; 0x70
 80028e6:	00db      	lsls	r3, r3, #3
 80028e8:	4413      	add	r3, r2
 80028ea:	e9d3 3400 	ldrd	r3, r4, [r3]
 80028ee:	461a      	mov	r2, r3
 80028f0:	4623      	mov	r3, r4
 80028f2:	f7fd fe89 	bl	8000608 <__aeabi_dmul>
 80028f6:	4603      	mov	r3, r0
 80028f8:	460c      	mov	r4, r1
 80028fa:	e9c7 340e 	strd	r3, r4, [r7, #56]	; 0x38
  unsigned long frac = (unsigned long)tmp;
 80028fe:	e9d7 010e 	ldrd	r0, r1, [r7, #56]	; 0x38
 8002902:	f7fe f959 	bl	8000bb8 <__aeabi_d2uiz>
 8002906:	4603      	mov	r3, r0
 8002908:	653b      	str	r3, [r7, #80]	; 0x50
  diff = tmp - frac;
 800290a:	6d38      	ldr	r0, [r7, #80]	; 0x50
 800290c:	f7fd fe02 	bl	8000514 <__aeabi_ui2d>
 8002910:	4603      	mov	r3, r0
 8002912:	460c      	mov	r4, r1
 8002914:	461a      	mov	r2, r3
 8002916:	4623      	mov	r3, r4
 8002918:	e9d7 010e 	ldrd	r0, r1, [r7, #56]	; 0x38
 800291c:	f7fd fcbc 	bl	8000298 <__aeabi_dsub>
 8002920:	4603      	mov	r3, r0
 8002922:	460c      	mov	r4, r1
 8002924:	e9c7 3410 	strd	r3, r4, [r7, #64]	; 0x40

  if (diff > 0.5) {
 8002928:	f04f 0200 	mov.w	r2, #0
 800292c:	4b44      	ldr	r3, [pc, #272]	; (8002a40 <_ftoa+0x318>)
 800292e:	e9d7 0110 	ldrd	r0, r1, [r7, #64]	; 0x40
 8002932:	f7fe f8f9 	bl	8000b28 <__aeabi_dcmpgt>
 8002936:	4603      	mov	r3, r0
 8002938:	2b00      	cmp	r3, #0
 800293a:	d018      	beq.n	800296e <_ftoa+0x246>
    ++frac;
 800293c:	6d3b      	ldr	r3, [r7, #80]	; 0x50
 800293e:	3301      	adds	r3, #1
 8002940:	653b      	str	r3, [r7, #80]	; 0x50
    // handle rollover, e.g. case 0.99 with prec 1 is 1.0
    if (frac >= pow10[prec]) {
 8002942:	6d38      	ldr	r0, [r7, #80]	; 0x50
 8002944:	f7fd fde6 	bl	8000514 <__aeabi_ui2d>
 8002948:	4a3c      	ldr	r2, [pc, #240]	; (8002a3c <_ftoa+0x314>)
 800294a:	6f3b      	ldr	r3, [r7, #112]	; 0x70
 800294c:	00db      	lsls	r3, r3, #3
 800294e:	4413      	add	r3, r2
 8002950:	e9d3 3400 	ldrd	r3, r4, [r3]
 8002954:	461a      	mov	r2, r3
 8002956:	4623      	mov	r3, r4
 8002958:	f7fe f8dc 	bl	8000b14 <__aeabi_dcmpge>
 800295c:	4603      	mov	r3, r0
 800295e:	2b00      	cmp	r3, #0
 8002960:	d01a      	beq.n	8002998 <_ftoa+0x270>
      frac = 0;
 8002962:	2300      	movs	r3, #0
 8002964:	653b      	str	r3, [r7, #80]	; 0x50
      ++whole;
 8002966:	6d7b      	ldr	r3, [r7, #84]	; 0x54
 8002968:	3301      	adds	r3, #1
 800296a:	657b      	str	r3, [r7, #84]	; 0x54
 800296c:	e014      	b.n	8002998 <_ftoa+0x270>
    }
  }
  else if (diff < 0.5) {
 800296e:	f04f 0200 	mov.w	r2, #0
 8002972:	4b33      	ldr	r3, [pc, #204]	; (8002a40 <_ftoa+0x318>)
 8002974:	e9d7 0110 	ldrd	r0, r1, [r7, #64]	; 0x40
 8002978:	f7fe f8b8 	bl	8000aec <__aeabi_dcmplt>
 800297c:	4603      	mov	r3, r0
 800297e:	2b00      	cmp	r3, #0
 8002980:	d10a      	bne.n	8002998 <_ftoa+0x270>
  }
  else if ((frac == 0U) || (frac & 1U)) {
 8002982:	6d3b      	ldr	r3, [r7, #80]	; 0x50
 8002984:	2b00      	cmp	r3, #0
 8002986:	d004      	beq.n	8002992 <_ftoa+0x26a>
 8002988:	6d3b      	ldr	r3, [r7, #80]	; 0x50
 800298a:	f003 0301 	and.w	r3, r3, #1
 800298e:	2b00      	cmp	r3, #0
 8002990:	d002      	beq.n	8002998 <_ftoa+0x270>
    // if halfway, round up if odd OR if last digit is 0
    ++frac;
 8002992:	6d3b      	ldr	r3, [r7, #80]	; 0x50
 8002994:	3301      	adds	r3, #1
 8002996:	653b      	str	r3, [r7, #80]	; 0x50
  }

  if (prec == 0U) {
 8002998:	6f3b      	ldr	r3, [r7, #112]	; 0x70
 800299a:	2b00      	cmp	r3, #0
 800299c:	d136      	bne.n	8002a0c <_ftoa+0x2e4>
    diff = value - (double)whole;
 800299e:	6d78      	ldr	r0, [r7, #84]	; 0x54
 80029a0:	f7fd fdc8 	bl	8000534 <__aeabi_i2d>
 80029a4:	4603      	mov	r3, r0
 80029a6:	460c      	mov	r4, r1
 80029a8:	461a      	mov	r2, r3
 80029aa:	4623      	mov	r3, r4
 80029ac:	e9d7 0100 	ldrd	r0, r1, [r7]
 80029b0:	f7fd fc72 	bl	8000298 <__aeabi_dsub>
 80029b4:	4603      	mov	r3, r0
 80029b6:	460c      	mov	r4, r1
 80029b8:	e9c7 3410 	strd	r3, r4, [r7, #64]	; 0x40
    if ((!(diff < 0.5) || (diff > 0.5)) && (whole & 1)) {
 80029bc:	2301      	movs	r3, #1
 80029be:	461c      	mov	r4, r3
 80029c0:	f04f 0200 	mov.w	r2, #0
 80029c4:	4b1e      	ldr	r3, [pc, #120]	; (8002a40 <_ftoa+0x318>)
 80029c6:	e9d7 0110 	ldrd	r0, r1, [r7, #64]	; 0x40
 80029ca:	f7fe f88f 	bl	8000aec <__aeabi_dcmplt>
 80029ce:	4603      	mov	r3, r0
 80029d0:	2b00      	cmp	r3, #0
 80029d2:	d101      	bne.n	80029d8 <_ftoa+0x2b0>
 80029d4:	2300      	movs	r3, #0
 80029d6:	461c      	mov	r4, r3
 80029d8:	b2e3      	uxtb	r3, r4
 80029da:	f083 0301 	eor.w	r3, r3, #1
 80029de:	b2db      	uxtb	r3, r3
 80029e0:	2b00      	cmp	r3, #0
 80029e2:	d109      	bne.n	80029f8 <_ftoa+0x2d0>
 80029e4:	f04f 0200 	mov.w	r2, #0
 80029e8:	4b15      	ldr	r3, [pc, #84]	; (8002a40 <_ftoa+0x318>)
 80029ea:	e9d7 0110 	ldrd	r0, r1, [r7, #64]	; 0x40
 80029ee:	f7fe f89b 	bl	8000b28 <__aeabi_dcmpgt>
 80029f2:	4603      	mov	r3, r0
 80029f4:	2b00      	cmp	r3, #0
 80029f6:	d069      	beq.n	8002acc <_ftoa+0x3a4>
 80029f8:	6d7b      	ldr	r3, [r7, #84]	; 0x54
 80029fa:	f003 0301 	and.w	r3, r3, #1
 80029fe:	2b00      	cmp	r3, #0
 8002a00:	f000 8087 	beq.w	8002b12 <_ftoa+0x3ea>
      // exactly 0.5 and ODD, then round up
      // 1.5 -> 2, but 2.5 -> 2
      ++whole;
 8002a04:	6d7b      	ldr	r3, [r7, #84]	; 0x54
 8002a06:	3301      	adds	r3, #1
 8002a08:	657b      	str	r3, [r7, #84]	; 0x54
 8002a0a:	e082      	b.n	8002b12 <_ftoa+0x3ea>
    }
  }
  else {
    unsigned int count = prec;
 8002a0c:	6f3b      	ldr	r3, [r7, #112]	; 0x70
 8002a0e:	64fb      	str	r3, [r7, #76]	; 0x4c
    // now do fractional part, as an unsigned number
    while (len < PRINTF_FTOA_BUFFER_SIZE) {
 8002a10:	e039      	b.n	8002a86 <_ftoa+0x35e>
 8002a12:	bf00      	nop
 8002a14:	f3af 8000 	nop.w
 8002a18:	00000000 	.word	0x00000000
 8002a1c:	41cdcd65 	.word	0x41cdcd65
 8002a20:	00000000 	.word	0x00000000
 8002a24:	c1cdcd65 	.word	0xc1cdcd65
 8002a28:	0800e784 	.word	0x0800e784
 8002a2c:	0800e788 	.word	0x0800e788
 8002a30:	7fefffff 	.word	0x7fefffff
 8002a34:	0800e790 	.word	0x0800e790
 8002a38:	0800e798 	.word	0x0800e798
 8002a3c:	0800ea68 	.word	0x0800ea68
 8002a40:	3fe00000 	.word	0x3fe00000
      --count;
 8002a44:	6cfb      	ldr	r3, [r7, #76]	; 0x4c
 8002a46:	3b01      	subs	r3, #1
 8002a48:	64fb      	str	r3, [r7, #76]	; 0x4c
      buf[len++] = (char)(48U + (frac % 10U));
 8002a4a:	6d39      	ldr	r1, [r7, #80]	; 0x50
 8002a4c:	4b69      	ldr	r3, [pc, #420]	; (8002bf4 <_ftoa+0x4cc>)
 8002a4e:	fba3 2301 	umull	r2, r3, r3, r1
 8002a52:	08da      	lsrs	r2, r3, #3
 8002a54:	4613      	mov	r3, r2
 8002a56:	009b      	lsls	r3, r3, #2
 8002a58:	4413      	add	r3, r2
 8002a5a:	005b      	lsls	r3, r3, #1
 8002a5c:	1aca      	subs	r2, r1, r3
 8002a5e:	b2d2      	uxtb	r2, r2
 8002a60:	6dfb      	ldr	r3, [r7, #92]	; 0x5c
 8002a62:	1c59      	adds	r1, r3, #1
 8002a64:	65f9      	str	r1, [r7, #92]	; 0x5c
