
T11_L22_RTOS_Queue_ISR.elf:     file format elf32-littlearm

Sections:
Idx Name          Size      VMA       LMA       File off  Algn
  0 .isr_vector   00000198  08000000  08000000  00010000  2**0
                  CONTENTS, ALLOC, LOAD, READONLY, DATA
  1 .text         00007c44  080001a0  080001a0  000101a0  2**4
                  CONTENTS, ALLOC, LOAD, READONLY, CODE
  2 .rodata       000001f0  08007de8  08007de8  00017de8  2**3
                  CONTENTS, ALLOC, LOAD, READONLY, DATA
  3 .ARM.extab    00000000  08007fd8  08007fd8  00020014  2**0
                  CONTENTS
  4 .ARM          00000008  08007fd8  08007fd8  00017fd8  2**2
                  CONTENTS, ALLOC, LOAD, READONLY, DATA
  5 .preinit_array 00000000  08007fe0  08007fe0  00020014  2**0
                  CONTENTS, ALLOC, LOAD, DATA
  6 .init_array   00000004  08007fe0  08007fe0  00017fe0  2**2
                  CONTENTS, ALLOC, LOAD, DATA
  7 .fini_array   00000004  08007fe4  08007fe4  00017fe4  2**2
                  CONTENTS, ALLOC, LOAD, DATA
  8 .data         00000014  20000000  08007fe8  00020000  2**2
                  CONTENTS, ALLOC, LOAD, DATA
  9 .bss          00004a1c  20000014  08007ffc  00020014  2**2
                  ALLOC
 10 ._user_heap_stack 00000600  20004a30  08007ffc  00024a30  2**0
                  ALLOC
 11 .ARM.attributes 00000030  00000000  00000000  00020014  2**0
                  CONTENTS, READONLY
 12 .debug_info   00019b3f  00000000  00000000  00020044  2**0
                  CONTENTS, READONLY, DEBUGGING
 13 .debug_abbrev 0000376b  00000000  00000000  00039b83  2**0
                  CONTENTS, READONLY, DEBUGGING
 14 .debug_aranges 000015c8  00000000  00000000  0003d2f0  2**3
                  CONTENTS, READONLY, DEBUGGING
 15 .debug_ranges 00001420  00000000  00000000  0003e8b8  2**3
                  CONTENTS, READONLY, DEBUGGING
 16 .debug_macro  000184c0  00000000  00000000  0003fcd8  2**0
                  CONTENTS, READONLY, DEBUGGING
 17 .debug_line   0001194e  00000000  00000000  00058198  2**0
                  CONTENTS, READONLY, DEBUGGING
 18 .debug_str    00096f7c  00000000  00000000  00069ae6  2**0
                  CONTENTS, READONLY, DEBUGGING
 19 .comment      0000007b  00000000  00000000  00100a62  2**0
                  CONTENTS, READONLY
 20 .debug_frame  00005c54  00000000  00000000  00100ae0  2**2
                  CONTENTS, READONLY, DEBUGGING

Disassembly of section .text:

080001a0 <__do_global_dtors_aux>:
 80001a0:	b510      	push	{r4, lr}
 80001a2:	4c05      	ldr	r4, [pc, #20]	; (80001b8 <__do_global_dtors_aux+0x18>)
 80001a4:	7823      	ldrb	r3, [r4, #0]
 80001a6:	b933      	cbnz	r3, 80001b6 <__do_global_dtors_aux+0x16>
 80001a8:	4b04      	ldr	r3, [pc, #16]	; (80001bc <__do_global_dtors_aux+0x1c>)
 80001aa:	b113      	cbz	r3, 80001b2 <__do_global_dtors_aux+0x12>
 80001ac:	4804      	ldr	r0, [pc, #16]	; (80001c0 <__do_global_dtors_aux+0x20>)
 80001ae:	f3af 8000 	nop.w
 80001b2:	2301      	movs	r3, #1
 80001b4:	7023      	strb	r3, [r4, #0]
 80001b6:	bd10      	pop	{r4, pc}
 80001b8:	20000014 	.word	0x20000014
 80001bc:	00000000 	.word	0x00000000
 80001c0:	08007dcc 	.word	0x08007dcc

080001c4 <frame_dummy>:
 80001c4:	b508      	push	{r3, lr}
 80001c6:	4b03      	ldr	r3, [pc, #12]	; (80001d4 <frame_dummy+0x10>)
 80001c8:	b11b      	cbz	r3, 80001d2 <frame_dummy+0xe>
 80001ca:	4903      	ldr	r1, [pc, #12]	; (80001d8 <frame_dummy+0x14>)
 80001cc:	4803      	ldr	r0, [pc, #12]	; (80001dc <frame_dummy+0x18>)
 80001ce:	f3af 8000 	nop.w
 80001d2:	bd08      	pop	{r3, pc}
 80001d4:	00000000 	.word	0x00000000
 80001d8:	20000018 	.word	0x20000018
 80001dc:	08007dcc 	.word	0x08007dcc

080001e0 <__aeabi_drsub>:
 80001e0:	f081 4100 	eor.w	r1, r1, #2147483648	; 0x80000000
 80001e4:	e002      	b.n	80001ec <__adddf3>
 80001e6:	bf00      	nop

080001e8 <__aeabi_dsub>:
 80001e8:	f083 4300 	eor.w	r3, r3, #2147483648	; 0x80000000

080001ec <__adddf3>:
 80001ec:	b530      	push	{r4, r5, lr}
 80001ee:	ea4f 0441 	mov.w	r4, r1, lsl #1
 80001f2:	ea4f 0543 	mov.w	r5, r3, lsl #1
 80001f6:	ea94 0f05 	teq	r4, r5
 80001fa:	bf08      	it	eq
 80001fc:	ea90 0f02 	teqeq	r0, r2
 8000200:	bf1f      	itttt	ne
 8000202:	ea54 0c00 	orrsne.w	ip, r4, r0
 8000206:	ea55 0c02 	orrsne.w	ip, r5, r2
 800020a:	ea7f 5c64 	mvnsne.w	ip, r4, asr #21
 800020e:	ea7f 5c65 	mvnsne.w	ip, r5, asr #21
 8000212:	f000 80e2 	beq.w	80003da <__adddf3+0x1ee>
 8000216:	ea4f 5454 	mov.w	r4, r4, lsr #21
 800021a:	ebd4 5555 	rsbs	r5, r4, r5, lsr #21
 800021e:	bfb8      	it	lt
 8000220:	426d      	neglt	r5, r5
 8000222:	dd0c      	ble.n	800023e <__adddf3+0x52>
 8000224:	442c      	add	r4, r5
 8000226:	ea80 0202 	eor.w	r2, r0, r2
 800022a:	ea81 0303 	eor.w	r3, r1, r3
 800022e:	ea82 0000 	eor.w	r0, r2, r0
 8000232:	ea83 0101 	eor.w	r1, r3, r1
 8000236:	ea80 0202 	eor.w	r2, r0, r2
 800023a:	ea81 0303 	eor.w	r3, r1, r3
 800023e:	2d36      	cmp	r5, #54	; 0x36
 8000240:	bf88      	it	hi
 8000242:	bd30      	pophi	{r4, r5, pc}
 8000244:	f011 4f00 	tst.w	r1, #2147483648	; 0x80000000
 8000248:	ea4f 3101 	mov.w	r1, r1, lsl #12
 800024c:	f44f 1c80 	mov.w	ip, #1048576	; 0x100000
 8000250:	ea4c 3111 	orr.w	r1, ip, r1, lsr #12
 8000254:	d002      	beq.n	800025c <__adddf3+0x70>
 8000256:	4240      	negs	r0, r0
 8000258:	eb61 0141 	sbc.w	r1, r1, r1, lsl #1
 800025c:	f013 4f00 	tst.w	r3, #2147483648	; 0x80000000
 8000260:	ea4f 3303 	mov.w	r3, r3, lsl #12
 8000264:	ea4c 3313 	orr.w	r3, ip, r3, lsr #12
 8000268:	d002      	beq.n	8000270 <__adddf3+0x84>
 800026a:	4252      	negs	r2, r2
 800026c:	eb63 0343 	sbc.w	r3, r3, r3, lsl #1
 8000270:	ea94 0f05 	teq	r4, r5
 8000274:	f000 80a7 	beq.w	80003c6 <__adddf3+0x1da>
 8000278:	f1a4 0401 	sub.w	r4, r4, #1
 800027c:	f1d5 0e20 	rsbs	lr, r5, #32
 8000280:	db0d      	blt.n	800029e <__adddf3+0xb2>
 8000282:	fa02 fc0e 	lsl.w	ip, r2, lr
 8000286:	fa22 f205 	lsr.w	r2, r2, r5
 800028a:	1880      	adds	r0, r0, r2
 800028c:	f141 0100 	adc.w	r1, r1, #0
 8000290:	fa03 f20e 	lsl.w	r2, r3, lr
 8000294:	1880      	adds	r0, r0, r2
 8000296:	fa43 f305 	asr.w	r3, r3, r5
 800029a:	4159      	adcs	r1, r3
 800029c:	e00e      	b.n	80002bc <__adddf3+0xd0>
 800029e:	f1a5 0520 	sub.w	r5, r5, #32
 80002a2:	f10e 0e20 	add.w	lr, lr, #32
 80002a6:	2a01      	cmp	r2, #1
 80002a8:	fa03 fc0e 	lsl.w	ip, r3, lr
 80002ac:	bf28      	it	cs
 80002ae:	f04c 0c02 	orrcs.w	ip, ip, #2
 80002b2:	fa43 f305 	asr.w	r3, r3, r5
 80002b6:	18c0      	adds	r0, r0, r3
 80002b8:	eb51 71e3 	adcs.w	r1, r1, r3, asr #31
 80002bc:	f001 4500 	and.w	r5, r1, #2147483648	; 0x80000000
 80002c0:	d507      	bpl.n	80002d2 <__adddf3+0xe6>
 80002c2:	f04f 0e00 	mov.w	lr, #0
 80002c6:	f1dc 0c00 	rsbs	ip, ip, #0
 80002ca:	eb7e 0000 	sbcs.w	r0, lr, r0
 80002ce:	eb6e 0101 	sbc.w	r1, lr, r1
 80002d2:	f5b1 1f80 	cmp.w	r1, #1048576	; 0x100000
 80002d6:	d31b      	bcc.n	8000310 <__adddf3+0x124>
 80002d8:	f5b1 1f00 	cmp.w	r1, #2097152	; 0x200000
 80002dc:	d30c      	bcc.n	80002f8 <__adddf3+0x10c>
 80002de:	0849      	lsrs	r1, r1, #1
 80002e0:	ea5f 0030 	movs.w	r0, r0, rrx
 80002e4:	ea4f 0c3c 	mov.w	ip, ip, rrx
 80002e8:	f104 0401 	add.w	r4, r4, #1
 80002ec:	ea4f 5244 	mov.w	r2, r4, lsl #21
 80002f0:	f512 0f80 	cmn.w	r2, #4194304	; 0x400000
 80002f4:	f080 809a 	bcs.w	800042c <__adddf3+0x240>
 80002f8:	f1bc 4f00 	cmp.w	ip, #2147483648	; 0x80000000
 80002fc:	bf08      	it	eq
 80002fe:	ea5f 0c50 	movseq.w	ip, r0, lsr #1
 8000302:	f150 0000 	adcs.w	r0, r0, #0
 8000306:	eb41 5104 	adc.w	r1, r1, r4, lsl #20
 800030a:	ea41 0105 	orr.w	r1, r1, r5
 800030e:	bd30      	pop	{r4, r5, pc}
 8000310:	ea5f 0c4c 	movs.w	ip, ip, lsl #1
 8000314:	4140      	adcs	r0, r0
 8000316:	eb41 0101 	adc.w	r1, r1, r1
 800031a:	f411 1f80 	tst.w	r1, #1048576	; 0x100000
 800031e:	f1a4 0401 	sub.w	r4, r4, #1
 8000322:	d1e9      	bne.n	80002f8 <__adddf3+0x10c>
 8000324:	f091 0f00 	teq	r1, #0
 8000328:	bf04      	itt	eq
 800032a:	4601      	moveq	r1, r0
 800032c:	2000      	moveq	r0, #0
 800032e:	fab1 f381 	clz	r3, r1
 8000332:	bf08      	it	eq
 8000334:	3320      	addeq	r3, #32
 8000336:	f1a3 030b 	sub.w	r3, r3, #11
 800033a:	f1b3 0220 	subs.w	r2, r3, #32
 800033e:	da0c      	bge.n	800035a <__adddf3+0x16e>
 8000340:	320c      	adds	r2, #12
 8000342:	dd08      	ble.n	8000356 <__adddf3+0x16a>
 8000344:	f102 0c14 	add.w	ip, r2, #20
 8000348:	f1c2 020c 	rsb	r2, r2, #12
 800034c:	fa01 f00c 	lsl.w	r0, r1, ip
 8000350:	fa21 f102 	lsr.w	r1, r1, r2
 8000354:	e00c      	b.n	8000370 <__adddf3+0x184>
 8000356:	f102 0214 	add.w	r2, r2, #20
 800035a:	bfd8      	it	le
 800035c:	f1c2 0c20 	rsble	ip, r2, #32
 8000360:	fa01 f102 	lsl.w	r1, r1, r2
 8000364:	fa20 fc0c 	lsr.w	ip, r0, ip
 8000368:	bfdc      	itt	le
 800036a:	ea41 010c 	orrle.w	r1, r1, ip
 800036e:	4090      	lslle	r0, r2
 8000370:	1ae4      	subs	r4, r4, r3
 8000372:	bfa2      	ittt	ge
 8000374:	eb01 5104 	addge.w	r1, r1, r4, lsl #20
 8000378:	4329      	orrge	r1, r5
 800037a:	bd30      	popge	{r4, r5, pc}
 800037c:	ea6f 0404 	mvn.w	r4, r4
 8000380:	3c1f      	subs	r4, #31
 8000382:	da1c      	bge.n	80003be <__adddf3+0x1d2>
 8000384:	340c      	adds	r4, #12
 8000386:	dc0e      	bgt.n	80003a6 <__adddf3+0x1ba>
 8000388:	f104 0414 	add.w	r4, r4, #20
 800038c:	f1c4 0220 	rsb	r2, r4, #32
 8000390:	fa20 f004 	lsr.w	r0, r0, r4
 8000394:	fa01 f302 	lsl.w	r3, r1, r2
 8000398:	ea40 0003 	orr.w	r0, r0, r3
 800039c:	fa21 f304 	lsr.w	r3, r1, r4
 80003a0:	ea45 0103 	orr.w	r1, r5, r3
 80003a4:	bd30      	pop	{r4, r5, pc}
 80003a6:	f1c4 040c 	rsb	r4, r4, #12
 80003aa:	f1c4 0220 	rsb	r2, r4, #32
 80003ae:	fa20 f002 	lsr.w	r0, r0, r2
 80003b2:	fa01 f304 	lsl.w	r3, r1, r4
 80003b6:	ea40 0003 	orr.w	r0, r0, r3
 80003ba:	4629      	mov	r1, r5
 80003bc:	bd30      	pop	{r4, r5, pc}
 80003be:	fa21 f004 	lsr.w	r0, r1, r4
 80003c2:	4629      	mov	r1, r5
 80003c4:	bd30      	pop	{r4, r5, pc}
 80003c6:	f094 0f00 	teq	r4, #0
 80003ca:	f483 1380 	eor.w	r3, r3, #1048576	; 0x100000
 80003ce:	bf06      	itte	eq
 80003d0:	f481 1180 	eoreq.w	r1, r1, #1048576	; 0x100000
 80003d4:	3401      	addeq	r4, #1
 80003d6:	3d01      	subne	r5, #1
 80003d8:	e74e      	b.n	8000278 <__adddf3+0x8c>
 80003da:	ea7f 5c64 	mvns.w	ip, r4, asr #21
 80003de:	bf18      	it	ne
 80003e0:	ea7f 5c65 	mvnsne.w	ip, r5, asr #21
 80003e4:	d029      	beq.n	800043a <__adddf3+0x24e>
 80003e6:	ea94 0f05 	teq	r4, r5
 80003ea:	bf08      	it	eq
 80003ec:	ea90 0f02 	teqeq	r0, r2
 80003f0:	d005      	beq.n	80003fe <__adddf3+0x212>
 80003f2:	ea54 0c00 	orrs.w	ip, r4, r0
 80003f6:	bf04      	itt	eq
 80003f8:	4619      	moveq	r1, r3
 80003fa:	4610      	moveq	r0, r2
 80003fc:	bd30      	pop	{r4, r5, pc}
 80003fe:	ea91 0f03 	teq	r1, r3
 8000402:	bf1e      	ittt	ne
 8000404:	2100      	movne	r1, #0
 8000406:	2000      	movne	r0, #0
 8000408:	bd30      	popne	{r4, r5, pc}
 800040a:	ea5f 5c54 	movs.w	ip, r4, lsr #21
 800040e:	d105      	bne.n	800041c <__adddf3+0x230>
 8000410:	0040      	lsls	r0, r0, #1
 8000412:	4149      	adcs	r1, r1
 8000414:	bf28      	it	cs
 8000416:	f041 4100 	orrcs.w	r1, r1, #2147483648	; 0x80000000
 800041a:	bd30      	pop	{r4, r5, pc}
 800041c:	f514 0480 	adds.w	r4, r4, #4194304	; 0x400000
 8000420:	bf3c      	itt	cc
 8000422:	f501 1180 	addcc.w	r1, r1, #1048576	; 0x100000
 8000426:	bd30      	popcc	{r4, r5, pc}
 8000428:	f001 4500 	and.w	r5, r1, #2147483648	; 0x80000000
 800042c:	f045 41fe 	orr.w	r1, r5, #2130706432	; 0x7f000000
 8000430:	f441 0170 	orr.w	r1, r1, #15728640	; 0xf00000
 8000434:	f04f 0000 	mov.w	r0, #0
 8000438:	bd30      	pop	{r4, r5, pc}
 800043a:	ea7f 5c64 	mvns.w	ip, r4, asr #21
 800043e:	bf1a      	itte	ne
 8000440:	4619      	movne	r1, r3
 8000442:	4610      	movne	r0, r2
 8000444:	ea7f 5c65 	mvnseq.w	ip, r5, asr #21
 8000448:	bf1c      	itt	ne
 800044a:	460b      	movne	r3, r1
 800044c:	4602      	movne	r2, r0
 800044e:	ea50 3401 	orrs.w	r4, r0, r1, lsl #12
 8000452:	bf06      	itte	eq
 8000454:	ea52 3503 	orrseq.w	r5, r2, r3, lsl #12
 8000458:	ea91 0f03 	teqeq	r1, r3
 800045c:	f441 2100 	orrne.w	r1, r1, #524288	; 0x80000
 8000460:	bd30      	pop	{r4, r5, pc}
 8000462:	bf00      	nop

08000464 <__aeabi_ui2d>:
 8000464:	f090 0f00 	teq	r0, #0
 8000468:	bf04      	itt	eq
 800046a:	2100      	moveq	r1, #0
 800046c:	4770      	bxeq	lr
 800046e:	b530      	push	{r4, r5, lr}
 8000470:	f44f 6480 	mov.w	r4, #1024	; 0x400
 8000474:	f104 0432 	add.w	r4, r4, #50	; 0x32
 8000478:	f04f 0500 	mov.w	r5, #0
 800047c:	f04f 0100 	mov.w	r1, #0
 8000480:	e750      	b.n	8000324 <__adddf3+0x138>
 8000482:	bf00      	nop

08000484 <__aeabi_i2d>:
 8000484:	f090 0f00 	teq	r0, #0
 8000488:	bf04      	itt	eq
 800048a:	2100      	moveq	r1, #0
 800048c:	4770      	bxeq	lr
 800048e:	b530      	push	{r4, r5, lr}
 8000490:	f44f 6480 	mov.w	r4, #1024	; 0x400
 8000494:	f104 0432 	add.w	r4, r4, #50	; 0x32
 8000498:	f010 4500 	ands.w	r5, r0, #2147483648	; 0x80000000
 800049c:	bf48      	it	mi
 800049e:	4240      	negmi	r0, r0
 80004a0:	f04f 0100 	mov.w	r1, #0
 80004a4:	e73e      	b.n	8000324 <__adddf3+0x138>
 80004a6:	bf00      	nop

080004a8 <__aeabi_f2d>:
 80004a8:	0042      	lsls	r2, r0, #1
 80004aa:	ea4f 01e2 	mov.w	r1, r2, asr #3
 80004ae:	ea4f 0131 	mov.w	r1, r1, rrx
 80004b2:	ea4f 7002 	mov.w	r0, r2, lsl #28
 80004b6:	bf1f      	itttt	ne
 80004b8:	f012 437f 	andsne.w	r3, r2, #4278190080	; 0xff000000
 80004bc:	f093 4f7f 	teqne	r3, #4278190080	; 0xff000000
 80004c0:	f081 5160 	eorne.w	r1, r1, #939524096	; 0x38000000
 80004c4:	4770      	bxne	lr
 80004c6:	f032 427f 	bics.w	r2, r2, #4278190080	; 0xff000000
 80004ca:	bf08      	it	eq
 80004cc:	4770      	bxeq	lr
 80004ce:	f093 4f7f 	teq	r3, #4278190080	; 0xff000000
 80004d2:	bf04      	itt	eq
 80004d4:	f441 2100 	orreq.w	r1, r1, #524288	; 0x80000
 80004d8:	4770      	bxeq	lr
 80004da:	b530      	push	{r4, r5, lr}
 80004dc:	f44f 7460 	mov.w	r4, #896	; 0x380
 80004e0:	f001 4500 	and.w	r5, r1, #2147483648	; 0x80000000
 80004e4:	f021 4100 	bic.w	r1, r1, #2147483648	; 0x80000000
 80004e8:	e71c      	b.n	8000324 <__adddf3+0x138>
 80004ea:	bf00      	nop

080004ec <__aeabi_ul2d>:
 80004ec:	ea50 0201 	orrs.w	r2, r0, r1
 80004f0:	bf08      	it	eq
 80004f2:	4770      	bxeq	lr
 80004f4:	b530      	push	{r4, r5, lr}
 80004f6:	f04f 0500 	mov.w	r5, #0
 80004fa:	e00a      	b.n	8000512 <__aeabi_l2d+0x16>

080004fc <__aeabi_l2d>:
 80004fc:	ea50 0201 	orrs.w	r2, r0, r1
 8000500:	bf08      	it	eq
 8000502:	4770      	bxeq	lr
 8000504:	b530      	push	{r4, r5, lr}
 8000506:	f011 4500 	ands.w	r5, r1, #2147483648	; 0x80000000
 800050a:	d502      	bpl.n	8000512 <__aeabi_l2d+0x16>
 800050c:	4240      	negs	r0, r0
 800050e:	eb61 0141 	sbc.w	r1, r1, r1, lsl #1
 8000512:	f44f 6480 	mov.w	r4, #1024	; 0x400
 8000516:	f104 0432 	add.w	r4, r4, #50	; 0x32
 800051a:	ea5f 5c91 	movs.w	ip, r1, lsr #22
 800051e:	f43f aed8 	beq.w	80002d2 <__adddf3+0xe6>
 8000522:	f04f 0203 	mov.w	r2, #3
 8000526:	ea5f 0cdc 	movs.w	ip, ip, lsr #3
 800052a:	bf18      	it	ne
 800052c:	3203      	addne	r2, #3
 800052e:	ea5f 0cdc 	movs.w	ip, ip, lsr #3
 8000532:	bf18      	it	ne
 8000534:	3203      	addne	r2, #3
 8000536:	eb02 02dc 	add.w	r2, r2, ip, lsr #3
 800053a:	f1c2 0320 	rsb	r3, r2, #32
 800053e:	fa00 fc03 	lsl.w	ip, r0, r3
 8000542:	fa20 f002 	lsr.w	r0, r0, r2
 8000546:	fa01 fe03 	lsl.w	lr, r1, r3
 800054a:	ea40 000e 	orr.w	r0, r0, lr
 800054e:	fa21 f102 	lsr.w	r1, r1, r2
 8000552:	4414      	add	r4, r2
 8000554:	e6bd      	b.n	80002d2 <__adddf3+0xe6>
 8000556:	bf00      	nop

08000558 <__aeabi_dmul>:
 8000558:	b570      	push	{r4, r5, r6, lr}
 800055a:	f04f 0cff 	mov.w	ip, #255	; 0xff
 800055e:	f44c 6ce0 	orr.w	ip, ip, #1792	; 0x700
 8000562:	ea1c 5411 	ands.w	r4, ip, r1, lsr #20
 8000566:	bf1d      	ittte	ne
 8000568:	ea1c 5513 	andsne.w	r5, ip, r3, lsr #20
 800056c:	ea94 0f0c 	teqne	r4, ip
 8000570:	ea95 0f0c 	teqne	r5, ip
 8000574:	f000 f8de 	bleq	8000734 <__aeabi_dmul+0x1dc>
 8000578:	442c      	add	r4, r5
 800057a:	ea81 0603 	eor.w	r6, r1, r3
 800057e:	ea21 514c 	bic.w	r1, r1, ip, lsl #21
 8000582:	ea23 534c 	bic.w	r3, r3, ip, lsl #21
 8000586:	ea50 3501 	orrs.w	r5, r0, r1, lsl #12
 800058a:	bf18      	it	ne
 800058c:	ea52 3503 	orrsne.w	r5, r2, r3, lsl #12
 8000590:	f441 1180 	orr.w	r1, r1, #1048576	; 0x100000
 8000594:	f443 1380 	orr.w	r3, r3, #1048576	; 0x100000
 8000598:	d038      	beq.n	800060c <__aeabi_dmul+0xb4>
 800059a:	fba0 ce02 	umull	ip, lr, r0, r2
 800059e:	f04f 0500 	mov.w	r5, #0
 80005a2:	fbe1 e502 	umlal	lr, r5, r1, r2
 80005a6:	f006 4200 	and.w	r2, r6, #2147483648	; 0x80000000
 80005aa:	fbe0 e503 	umlal	lr, r5, r0, r3
 80005ae:	f04f 0600 	mov.w	r6, #0
 80005b2:	fbe1 5603 	umlal	r5, r6, r1, r3
 80005b6:	f09c 0f00 	teq	ip, #0
 80005ba:	bf18      	it	ne
 80005bc:	f04e 0e01 	orrne.w	lr, lr, #1
 80005c0:	f1a4 04ff 	sub.w	r4, r4, #255	; 0xff
 80005c4:	f5b6 7f00 	cmp.w	r6, #512	; 0x200
 80005c8:	f564 7440 	sbc.w	r4, r4, #768	; 0x300
 80005cc:	d204      	bcs.n	80005d8 <__aeabi_dmul+0x80>
 80005ce:	ea5f 0e4e 	movs.w	lr, lr, lsl #1
 80005d2:	416d      	adcs	r5, r5
 80005d4:	eb46 0606 	adc.w	r6, r6, r6
 80005d8:	ea42 21c6 	orr.w	r1, r2, r6, lsl #11
 80005dc:	ea41 5155 	orr.w	r1, r1, r5, lsr #21
 80005e0:	ea4f 20c5 	mov.w	r0, r5, lsl #11
 80005e4:	ea40 505e 	orr.w	r0, r0, lr, lsr #21
 80005e8:	ea4f 2ece 	mov.w	lr, lr, lsl #11
 80005ec:	f1b4 0cfd 	subs.w	ip, r4, #253	; 0xfd
 80005f0:	bf88      	it	hi
 80005f2:	f5bc 6fe0 	cmphi.w	ip, #1792	; 0x700
 80005f6:	d81e      	bhi.n	8000636 <__aeabi_dmul+0xde>
 80005f8:	f1be 4f00 	cmp.w	lr, #2147483648	; 0x80000000
 80005fc:	bf08      	it	eq
 80005fe:	ea5f 0e50 	movseq.w	lr, r0, lsr #1
 8000602:	f150 0000 	adcs.w	r0, r0, #0
 8000606:	eb41 5104 	adc.w	r1, r1, r4, lsl #20
 800060a:	bd70      	pop	{r4, r5, r6, pc}
 800060c:	f006 4600 	and.w	r6, r6, #2147483648	; 0x80000000
 8000610:	ea46 0101 	orr.w	r1, r6, r1
 8000614:	ea40 0002 	orr.w	r0, r0, r2
 8000618:	ea81 0103 	eor.w	r1, r1, r3
 800061c:	ebb4 045c 	subs.w	r4, r4, ip, lsr #1
 8000620:	bfc2      	ittt	gt
 8000622:	ebd4 050c 	rsbsgt	r5, r4, ip
 8000626:	ea41 5104 	orrgt.w	r1, r1, r4, lsl #20
 800062a:	bd70      	popgt	{r4, r5, r6, pc}
 800062c:	f441 1180 	orr.w	r1, r1, #1048576	; 0x100000
 8000630:	f04f 0e00 	mov.w	lr, #0
 8000634:	3c01      	subs	r4, #1
 8000636:	f300 80ab 	bgt.w	8000790 <__aeabi_dmul+0x238>
 800063a:	f114 0f36 	cmn.w	r4, #54	; 0x36
 800063e:	bfde      	ittt	le
 8000640:	2000      	movle	r0, #0
 8000642:	f001 4100 	andle.w	r1, r1, #2147483648	; 0x80000000
 8000646:	bd70      	pople	{r4, r5, r6, pc}
 8000648:	f1c4 0400 	rsb	r4, r4, #0
 800064c:	3c20      	subs	r4, #32
 800064e:	da35      	bge.n	80006bc <__aeabi_dmul+0x164>
 8000650:	340c      	adds	r4, #12
 8000652:	dc1b      	bgt.n	800068c <__aeabi_dmul+0x134>
 8000654:	f104 0414 	add.w	r4, r4, #20
 8000658:	f1c4 0520 	rsb	r5, r4, #32
 800065c:	fa00 f305 	lsl.w	r3, r0, r5
 8000660:	fa20 f004 	lsr.w	r0, r0, r4
 8000664:	fa01 f205 	lsl.w	r2, r1, r5
 8000668:	ea40 0002 	orr.w	r0, r0, r2
 800066c:	f001 4200 	and.w	r2, r1, #2147483648	; 0x80000000
 8000670:	f021 4100 	bic.w	r1, r1, #2147483648	; 0x80000000
 8000674:	eb10 70d3 	adds.w	r0, r0, r3, lsr #31
 8000678:	fa21 f604 	lsr.w	r6, r1, r4
 800067c:	eb42 0106 	adc.w	r1, r2, r6
 8000680:	ea5e 0e43 	orrs.w	lr, lr, r3, lsl #1
 8000684:	bf08      	it	eq
 8000686:	ea20 70d3 	biceq.w	r0, r0, r3, lsr #31
 800068a:	bd70      	pop	{r4, r5, r6, pc}
 800068c:	f1c4 040c 	rsb	r4, r4, #12
 8000690:	f1c4 0520 	rsb	r5, r4, #32
 8000694:	fa00 f304 	lsl.w	r3, r0, r4
 8000698:	fa20 f005 	lsr.w	r0, r0, r5
 800069c:	fa01 f204 	lsl.w	r2, r1, r4
 80006a0:	ea40 0002 	orr.w	r0, r0, r2
 80006a4:	f001 4100 	and.w	r1, r1, #2147483648	; 0x80000000
 80006a8:	eb10 70d3 	adds.w	r0, r0, r3, lsr #31
 80006ac:	f141 0100 	adc.w	r1, r1, #0
 80006b0:	ea5e 0e43 	orrs.w	lr, lr, r3, lsl #1
 80006b4:	bf08      	it	eq
 80006b6:	ea20 70d3 	biceq.w	r0, r0, r3, lsr #31
 80006ba:	bd70      	pop	{r4, r5, r6, pc}
 80006bc:	f1c4 0520 	rsb	r5, r4, #32
 80006c0:	fa00 f205 	lsl.w	r2, r0, r5
 80006c4:	ea4e 0e02 	orr.w	lr, lr, r2
 80006c8:	fa20 f304 	lsr.w	r3, r0, r4
 80006cc:	fa01 f205 	lsl.w	r2, r1, r5
 80006d0:	ea43 0302 	orr.w	r3, r3, r2
 80006d4:	fa21 f004 	lsr.w	r0, r1, r4
 80006d8:	f001 4100 	and.w	r1, r1, #2147483648	; 0x80000000
 80006dc:	fa21 f204 	lsr.w	r2, r1, r4
 80006e0:	ea20 0002 	bic.w	r0, r0, r2
 80006e4:	eb00 70d3 	add.w	r0, r0, r3, lsr #31
 80006e8:	ea5e 0e43 	orrs.w	lr, lr, r3, lsl #1
 80006ec:	bf08      	it	eq
 80006ee:	ea20 70d3 	biceq.w	r0, r0, r3, lsr #31
 80006f2:	bd70      	pop	{r4, r5, r6, pc}
 80006f4:	f094 0f00 	teq	r4, #0
 80006f8:	d10f      	bne.n	800071a <__aeabi_dmul+0x1c2>
 80006fa:	f001 4600 	and.w	r6, r1, #2147483648	; 0x80000000
 80006fe:	0040      	lsls	r0, r0, #1
 8000700:	eb41 0101 	adc.w	r1, r1, r1
 8000704:	f411 1f80 	tst.w	r1, #1048576	; 0x100000
 8000708:	bf08      	it	eq
 800070a:	3c01      	subeq	r4, #1
 800070c:	d0f7      	beq.n	80006fe <__aeabi_dmul+0x1a6>
 800070e:	ea41 0106 	orr.w	r1, r1, r6
 8000712:	f095 0f00 	teq	r5, #0
 8000716:	bf18      	it	ne
 8000718:	4770      	bxne	lr
 800071a:	f003 4600 	and.w	r6, r3, #2147483648	; 0x80000000
 800071e:	0052      	lsls	r2, r2, #1
 8000720:	eb43 0303 	adc.w	r3, r3, r3
 8000724:	f413 1f80 	tst.w	r3, #1048576	; 0x100000
 8000728:	bf08      	it	eq
 800072a:	3d01      	subeq	r5, #1
 800072c:	d0f7      	beq.n	800071e <__aeabi_dmul+0x1c6>
 800072e:	ea43 0306 	orr.w	r3, r3, r6
 8000732:	4770      	bx	lr
 8000734:	ea94 0f0c 	teq	r4, ip
 8000738:	ea0c 5513 	and.w	r5, ip, r3, lsr #20
 800073c:	bf18      	it	ne
 800073e:	ea95 0f0c 	teqne	r5, ip
 8000742:	d00c      	beq.n	800075e <__aeabi_dmul+0x206>
 8000744:	ea50 0641 	orrs.w	r6, r0, r1, lsl #1
 8000748:	bf18      	it	ne
 800074a:	ea52 0643 	orrsne.w	r6, r2, r3, lsl #1
 800074e:	d1d1      	bne.n	80006f4 <__aeabi_dmul+0x19c>
 8000750:	ea81 0103 	eor.w	r1, r1, r3
 8000754:	f001 4100 	and.w	r1, r1, #2147483648	; 0x80000000
 8000758:	f04f 0000 	mov.w	r0, #0
 800075c:	bd70      	pop	{r4, r5, r6, pc}
 800075e:	ea50 0641 	orrs.w	r6, r0, r1, lsl #1
 8000762:	bf06      	itte	eq
 8000764:	4610      	moveq	r0, r2
 8000766:	4619      	moveq	r1, r3
 8000768:	ea52 0643 	orrsne.w	r6, r2, r3, lsl #1
 800076c:	d019      	beq.n	80007a2 <__aeabi_dmul+0x24a>
 800076e:	ea94 0f0c 	teq	r4, ip
 8000772:	d102      	bne.n	800077a <__aeabi_dmul+0x222>
 8000774:	ea50 3601 	orrs.w	r6, r0, r1, lsl #12
 8000778:	d113      	bne.n	80007a2 <__aeabi_dmul+0x24a>
 800077a:	ea95 0f0c 	teq	r5, ip
 800077e:	d105      	bne.n	800078c <__aeabi_dmul+0x234>
 8000780:	ea52 3603 	orrs.w	r6, r2, r3, lsl #12
 8000784:	bf1c      	itt	ne
 8000786:	4610      	movne	r0, r2
 8000788:	4619      	movne	r1, r3
 800078a:	d10a      	bne.n	80007a2 <__aeabi_dmul+0x24a>
 800078c:	ea81 0103 	eor.w	r1, r1, r3
 8000790:	f001 4100 	and.w	r1, r1, #2147483648	; 0x80000000
 8000794:	f041 41fe 	orr.w	r1, r1, #2130706432	; 0x7f000000
 8000798:	f441 0170 	orr.w	r1, r1, #15728640	; 0xf00000
 800079c:	f04f 0000 	mov.w	r0, #0
 80007a0:	bd70      	pop	{r4, r5, r6, pc}
 80007a2:	f041 41fe 	orr.w	r1, r1, #2130706432	; 0x7f000000
 80007a6:	f441 0178 	orr.w	r1, r1, #16252928	; 0xf80000
 80007aa:	bd70      	pop	{r4, r5, r6, pc}

080007ac <__aeabi_ddiv>:
 80007ac:	b570      	push	{r4, r5, r6, lr}
 80007ae:	f04f 0cff 	mov.w	ip, #255	; 0xff
 80007b2:	f44c 6ce0 	orr.w	ip, ip, #1792	; 0x700
 80007b6:	ea1c 5411 	ands.w	r4, ip, r1, lsr #20
 80007ba:	bf1d      	ittte	ne
 80007bc:	ea1c 5513 	andsne.w	r5, ip, r3, lsr #20
 80007c0:	ea94 0f0c 	teqne	r4, ip
 80007c4:	ea95 0f0c 	teqne	r5, ip
 80007c8:	f000 f8a7 	bleq	800091a <__aeabi_ddiv+0x16e>
 80007cc:	eba4 0405 	sub.w	r4, r4, r5
 80007d0:	ea81 0e03 	eor.w	lr, r1, r3
 80007d4:	ea52 3503 	orrs.w	r5, r2, r3, lsl #12
 80007d8:	ea4f 3101 	mov.w	r1, r1, lsl #12
 80007dc:	f000 8088 	beq.w	80008f0 <__aeabi_ddiv+0x144>
 80007e0:	ea4f 3303 	mov.w	r3, r3, lsl #12
 80007e4:	f04f 5580 	mov.w	r5, #268435456	; 0x10000000
 80007e8:	ea45 1313 	orr.w	r3, r5, r3, lsr #4
 80007ec:	ea43 6312 	orr.w	r3, r3, r2, lsr #24
 80007f0:	ea4f 2202 	mov.w	r2, r2, lsl #8
 80007f4:	ea45 1511 	orr.w	r5, r5, r1, lsr #4
 80007f8:	ea45 6510 	orr.w	r5, r5, r0, lsr #24
 80007fc:	ea4f 2600 	mov.w	r6, r0, lsl #8
 8000800:	f00e 4100 	and.w	r1, lr, #2147483648	; 0x80000000
 8000804:	429d      	cmp	r5, r3
 8000806:	bf08      	it	eq
 8000808:	4296      	cmpeq	r6, r2
 800080a:	f144 04fd 	adc.w	r4, r4, #253	; 0xfd
 800080e:	f504 7440 	add.w	r4, r4, #768	; 0x300
 8000812:	d202      	bcs.n	800081a <__aeabi_ddiv+0x6e>
 8000814:	085b      	lsrs	r3, r3, #1
 8000816:	ea4f 0232 	mov.w	r2, r2, rrx
 800081a:	1ab6      	subs	r6, r6, r2
 800081c:	eb65 0503 	sbc.w	r5, r5, r3
 8000820:	085b      	lsrs	r3, r3, #1
 8000822:	ea4f 0232 	mov.w	r2, r2, rrx
 8000826:	f44f 1080 	mov.w	r0, #1048576	; 0x100000
 800082a:	f44f 2c00 	mov.w	ip, #524288	; 0x80000
 800082e:	ebb6 0e02 	subs.w	lr, r6, r2
 8000832:	eb75 0e03 	sbcs.w	lr, r5, r3
 8000836:	bf22      	ittt	cs
 8000838:	1ab6      	subcs	r6, r6, r2
 800083a:	4675      	movcs	r5, lr
 800083c:	ea40 000c 	orrcs.w	r0, r0, ip
 8000840:	085b      	lsrs	r3, r3, #1
 8000842:	ea4f 0232 	mov.w	r2, r2, rrx
 8000846:	ebb6 0e02 	subs.w	lr, r6, r2
 800084a:	eb75 0e03 	sbcs.w	lr, r5, r3
 800084e:	bf22      	ittt	cs
 8000850:	1ab6      	subcs	r6, r6, r2
 8000852:	4675      	movcs	r5, lr
 8000854:	ea40 005c 	orrcs.w	r0, r0, ip, lsr #1
 8000858:	085b      	lsrs	r3, r3, #1
 800085a:	ea4f 0232 	mov.w	r2, r2, rrx
 800085e:	ebb6 0e02 	subs.w	lr, r6, r2
 8000862:	eb75 0e03 	sbcs.w	lr, r5, r3
 8000866:	bf22      	ittt	cs
 8000868:	1ab6      	subcs	r6, r6, r2
 800086a:	4675      	movcs	r5, lr
 800086c:	ea40 009c 	orrcs.w	r0, r0, ip, lsr #2
 8000870:	085b      	lsrs	r3, r3, #1
 8000872:	ea4f 0232 	mov.w	r2, r2, rrx
 8000876:	ebb6 0e02 	subs.w	lr, r6, r2
 800087a:	eb75 0e03 	sbcs.w	lr, r5, r3
 800087e:	bf22      	ittt	cs
 8000880:	1ab6      	subcs	r6, r6, r2
 8000882:	4675      	movcs	r5, lr
 8000884:	ea40 00dc 	orrcs.w	r0, r0, ip, lsr #3
 8000888:	ea55 0e06 	orrs.w	lr, r5, r6
 800088c:	d018      	beq.n	80008c0 <__aeabi_ddiv+0x114>
 800088e:	ea4f 1505 	mov.w	r5, r5, lsl #4
 8000892:	ea45 7516 	orr.w	r5, r5, r6, lsr #28
 8000896:	ea4f 1606 	mov.w	r6, r6, lsl #4
 800089a:	ea4f 03c3 	mov.w	r3, r3, lsl #3
 800089e:	ea43 7352 	orr.w	r3, r3, r2, lsr #29
 80008a2:	ea4f 02c2 	mov.w	r2, r2, lsl #3
 80008a6:	ea5f 1c1c 	movs.w	ip, ip, lsr #4
 80008aa:	d1c0      	bne.n	800082e <__aeabi_ddiv+0x82>
 80008ac:	f411 1f80 	tst.w	r1, #1048576	; 0x100000
 80008b0:	d10b      	bne.n	80008ca <__aeabi_ddiv+0x11e>
 80008b2:	ea41 0100 	orr.w	r1, r1, r0
 80008b6:	f04f 0000 	mov.w	r0, #0
 80008ba:	f04f 4c00 	mov.w	ip, #2147483648	; 0x80000000
 80008be:	e7b6      	b.n	800082e <__aeabi_ddiv+0x82>
 80008c0:	f411 1f80 	tst.w	r1, #1048576	; 0x100000
 80008c4:	bf04      	itt	eq
 80008c6:	4301      	orreq	r1, r0
 80008c8:	2000      	moveq	r0, #0
 80008ca:	f1b4 0cfd 	subs.w	ip, r4, #253	; 0xfd
 80008ce:	bf88      	it	hi
 80008d0:	f5bc 6fe0 	cmphi.w	ip, #1792	; 0x700
 80008d4:	f63f aeaf 	bhi.w	8000636 <__aeabi_dmul+0xde>
 80008d8:	ebb5 0c03 	subs.w	ip, r5, r3
 80008dc:	bf04      	itt	eq
 80008de:	ebb6 0c02 	subseq.w	ip, r6, r2
 80008e2:	ea5f 0c50 	movseq.w	ip, r0, lsr #1
 80008e6:	f150 0000 	adcs.w	r0, r0, #0
 80008ea:	eb41 5104 	adc.w	r1, r1, r4, lsl #20
 80008ee:	bd70      	pop	{r4, r5, r6, pc}
 80008f0:	f00e 4e00 	and.w	lr, lr, #2147483648	; 0x80000000
 80008f4:	ea4e 3111 	orr.w	r1, lr, r1, lsr #12
 80008f8:	eb14 045c 	adds.w	r4, r4, ip, lsr #1
 80008fc:	bfc2      	ittt	gt
 80008fe:	ebd4 050c 	rsbsgt	r5, r4, ip
 8000902:	ea41 5104 	orrgt.w	r1, r1, r4, lsl #20
 8000906:	bd70      	popgt	{r4, r5, r6, pc}
 8000908:	f441 1180 	orr.w	r1, r1, #1048576	; 0x100000
 800090c:	f04f 0e00 	mov.w	lr, #0
 8000910:	3c01      	subs	r4, #1
 8000912:	e690      	b.n	8000636 <__aeabi_dmul+0xde>
 8000914:	ea45 0e06 	orr.w	lr, r5, r6
 8000918:	e68d      	b.n	8000636 <__aeabi_dmul+0xde>
 800091a:	ea0c 5513 	and.w	r5, ip, r3, lsr #20
 800091e:	ea94 0f0c 	teq	r4, ip
 8000922:	bf08      	it	eq
 8000924:	ea95 0f0c 	teqeq	r5, ip
 8000928:	f43f af3b 	beq.w	80007a2 <__aeabi_dmul+0x24a>
 800092c:	ea94 0f0c 	teq	r4, ip
 8000930:	d10a      	bne.n	8000948 <__aeabi_ddiv+0x19c>
 8000932:	ea50 3401 	orrs.w	r4, r0, r1, lsl #12
 8000936:	f47f af34 	bne.w	80007a2 <__aeabi_dmul+0x24a>
 800093a:	ea95 0f0c 	teq	r5, ip
 800093e:	f47f af25 	bne.w	800078c <__aeabi_dmul+0x234>
 8000942:	4610      	mov	r0, r2
 8000944:	4619      	mov	r1, r3
 8000946:	e72c      	b.n	80007a2 <__aeabi_dmul+0x24a>
 8000948:	ea95 0f0c 	teq	r5, ip
 800094c:	d106      	bne.n	800095c <__aeabi_ddiv+0x1b0>
 800094e:	ea52 3503 	orrs.w	r5, r2, r3, lsl #12
 8000952:	f43f aefd 	beq.w	8000750 <__aeabi_dmul+0x1f8>
 8000956:	4610      	mov	r0, r2
 8000958:	4619      	mov	r1, r3
 800095a:	e722      	b.n	80007a2 <__aeabi_dmul+0x24a>
 800095c:	ea50 0641 	orrs.w	r6, r0, r1, lsl #1
 8000960:	bf18      	it	ne
 8000962:	ea52 0643 	orrsne.w	r6, r2, r3, lsl #1
 8000966:	f47f aec5 	bne.w	80006f4 <__aeabi_dmul+0x19c>
 800096a:	ea50 0441 	orrs.w	r4, r0, r1, lsl #1
 800096e:	f47f af0d 	bne.w	800078c <__aeabi_dmul+0x234>
 8000972:	ea52 0543 	orrs.w	r5, r2, r3, lsl #1
 8000976:	f47f aeeb 	bne.w	8000750 <__aeabi_dmul+0x1f8>
 800097a:	e712      	b.n	80007a2 <__aeabi_dmul+0x24a>

0800097c <__gedf2>:
 800097c:	f04f 3cff 	mov.w	ip, #4294967295
 8000980:	e006      	b.n	8000990 <__cmpdf2+0x4>
 8000982:	bf00      	nop

08000984 <__ledf2>:
 8000984:	f04f 0c01 	mov.w	ip, #1
 8000988:	e002      	b.n	8000990 <__cmpdf2+0x4>
 800098a:	bf00      	nop

0800098c <__cmpdf2>:
 800098c:	f04f 0c01 	mov.w	ip, #1
 8000990:	f84d cd04 	str.w	ip, [sp, #-4]!
 8000994:	ea4f 0c41 	mov.w	ip, r1, lsl #1
 8000998:	ea7f 5c6c 	mvns.w	ip, ip, asr #21
 800099c:	ea4f 0c43 	mov.w	ip, r3, lsl #1
 80009a0:	bf18      	it	ne
 80009a2:	ea7f 5c6c 	mvnsne.w	ip, ip, asr #21
 80009a6:	d01b      	beq.n	80009e0 <__cmpdf2+0x54>
 80009a8:	b001      	add	sp, #4
 80009aa:	ea50 0c41 	orrs.w	ip, r0, r1, lsl #1
 80009ae:	bf0c      	ite	eq
 80009b0:	ea52 0c43 	orrseq.w	ip, r2, r3, lsl #1
 80009b4:	ea91 0f03 	teqne	r1, r3
 80009b8:	bf02      	ittt	eq
 80009ba:	ea90 0f02 	teqeq	r0, r2
 80009be:	2000      	moveq	r0, #0
 80009c0:	4770      	bxeq	lr
 80009c2:	f110 0f00 	cmn.w	r0, #0
 80009c6:	ea91 0f03 	teq	r1, r3
 80009ca:	bf58      	it	pl
 80009cc:	4299      	cmppl	r1, r3
 80009ce:	bf08      	it	eq
 80009d0:	4290      	cmpeq	r0, r2
 80009d2:	bf2c      	ite	cs
 80009d4:	17d8      	asrcs	r0, r3, #31
 80009d6:	ea6f 70e3 	mvncc.w	r0, r3, asr #31
 80009da:	f040 0001 	orr.w	r0, r0, #1
 80009de:	4770      	bx	lr
 80009e0:	ea4f 0c41 	mov.w	ip, r1, lsl #1
 80009e4:	ea7f 5c6c 	mvns.w	ip, ip, asr #21
 80009e8:	d102      	bne.n	80009f0 <__cmpdf2+0x64>
 80009ea:	ea50 3c01 	orrs.w	ip, r0, r1, lsl #12
 80009ee:	d107      	bne.n	8000a00 <__cmpdf2+0x74>
 80009f0:	ea4f 0c43 	mov.w	ip, r3, lsl #1
 80009f4:	ea7f 5c6c 	mvns.w	ip, ip, asr #21
 80009f8:	d1d6      	bne.n	80009a8 <__cmpdf2+0x1c>
 80009fa:	ea52 3c03 	orrs.w	ip, r2, r3, lsl #12
 80009fe:	d0d3      	beq.n	80009a8 <__cmpdf2+0x1c>
 8000a00:	f85d 0b04 	ldr.w	r0, [sp], #4
 8000a04:	4770      	bx	lr
 8000a06:	bf00      	nop

08000a08 <__aeabi_cdrcmple>:
 8000a08:	4684      	mov	ip, r0
 8000a0a:	4610      	mov	r0, r2
 8000a0c:	4662      	mov	r2, ip
 8000a0e:	468c      	mov	ip, r1
 8000a10:	4619      	mov	r1, r3
 8000a12:	4663      	mov	r3, ip
 8000a14:	e000      	b.n	8000a18 <__aeabi_cdcmpeq>
 8000a16:	bf00      	nop

08000a18 <__aeabi_cdcmpeq>:
 8000a18:	b501      	push	{r0, lr}
 8000a1a:	f7ff ffb7 	bl	800098c <__cmpdf2>
 8000a1e:	2800      	cmp	r0, #0
 8000a20:	bf48      	it	mi
 8000a22:	f110 0f00 	cmnmi.w	r0, #0
 8000a26:	bd01      	pop	{r0, pc}

08000a28 <__aeabi_dcmpeq>:
 8000a28:	f84d ed08 	str.w	lr, [sp, #-8]!
 8000a2c:	f7ff fff4 	bl	8000a18 <__aeabi_cdcmpeq>
 8000a30:	bf0c      	ite	eq
 8000a32:	2001      	moveq	r0, #1
 8000a34:	2000      	movne	r0, #0
 8000a36:	f85d fb08 	ldr.w	pc, [sp], #8
 8000a3a:	bf00      	nop

08000a3c <__aeabi_dcmplt>:
 8000a3c:	f84d ed08 	str.w	lr, [sp, #-8]!
 8000a40:	f7ff ffea 	bl	8000a18 <__aeabi_cdcmpeq>
 8000a44:	bf34      	ite	cc
 8000a46:	2001      	movcc	r0, #1
 8000a48:	2000      	movcs	r0, #0
 8000a4a:	f85d fb08 	ldr.w	pc, [sp], #8
 8000a4e:	bf00      	nop

08000a50 <__aeabi_dcmple>:
 8000a50:	f84d ed08 	str.w	lr, [sp, #-8]!
 8000a54:	f7ff ffe0 	bl	8000a18 <__aeabi_cdcmpeq>
 8000a58:	bf94      	ite	ls
 8000a5a:	2001      	movls	r0, #1
 8000a5c:	2000      	movhi	r0, #0
 8000a5e:	f85d fb08 	ldr.w	pc, [sp], #8
 8000a62:	bf00      	nop

08000a64 <__aeabi_dcmpge>:
 8000a64:	f84d ed08 	str.w	lr, [sp, #-8]!
 8000a68:	f7ff ffce 	bl	8000a08 <__aeabi_cdrcmple>
 8000a6c:	bf94      	ite	ls
 8000a6e:	2001      	movls	r0, #1
 8000a70:	2000      	movhi	r0, #0
 8000a72:	f85d fb08 	ldr.w	pc, [sp], #8
 8000a76:	bf00      	nop

08000a78 <__aeabi_dcmpgt>:
 8000a78:	f84d ed08 	str.w	lr, [sp, #-8]!
 8000a7c:	f7ff ffc4 	bl	8000a08 <__aeabi_cdrcmple>
 8000a80:	bf34      	ite	cc
 8000a82:	2001      	movcc	r0, #1
 8000a84:	2000      	movcs	r0, #0
 8000a86:	f85d fb08 	ldr.w	pc, [sp], #8
 8000a8a:	bf00      	nop

08000a8c <__aeabi_d2iz>:
 8000a8c:	ea4f 0241 	mov.w	r2, r1, lsl #1
 8000a90:	f512 1200 	adds.w	r2, r2, #2097152	; 0x200000
 8000a94:	d215      	bcs.n	8000ac2 <__aeabi_d2iz+0x36>
 8000a96:	d511      	bpl.n	8000abc <__aeabi_d2iz+0x30>
 8000a98:	f46f 7378 	mvn.w	r3, #992	; 0x3e0
 8000a9c:	ebb3 5262 	subs.w	r2, r3, r2, asr #21
 8000aa0:	d912      	bls.n	8000ac8 <__aeabi_d2iz+0x3c>
 8000aa2:	ea4f 23c1 	mov.w	r3, r1, lsl #11
 8000aa6:	f043 4300 	orr.w	r3, r3, #2147483648	; 0x80000000
 8000aaa:	ea43 5350 	orr.w	r3, r3, r0, lsr #21
 8000aae:	f011 4f00 	tst.w	r1, #2147483648	; 0x80000000
 8000ab2:	fa23 f002 	lsr.w	r0, r3, r2
 8000ab6:	bf18      	it	ne
 8000ab8:	4240      	negne	r0, r0
 8000aba:	4770      	bx	lr
 8000abc:	f04f 0000 	mov.w	r0, #0
 8000ac0:	4770      	bx	lr
 8000ac2:	ea50 3001 	orrs.w	r0, r0, r1, lsl #12
 8000ac6:	d105      	bne.n	8000ad4 <__aeabi_d2iz+0x48>
 8000ac8:	f011 4000 	ands.w	r0, r1, #2147483648	; 0x80000000
 8000acc:	bf08      	it	eq
 8000ace:	f06f 4000 	mvneq.w	r0, #2147483648	; 0x80000000
 8000ad2:	4770      	bx	lr
 8000ad4:	f04f 0000 	mov.w	r0, #0
 8000ad8:	4770      	bx	lr
 8000ada:	bf00      	nop

08000adc <__aeabi_d2uiz>:
 8000adc:	004a      	lsls	r2, r1, #1
 8000ade:	d211      	bcs.n	8000b04 <__aeabi_d2uiz+0x28>
 8000ae0:	f512 1200 	adds.w	r2, r2, #2097152	; 0x200000
 8000ae4:	d211      	bcs.n	8000b0a <__aeabi_d2uiz+0x2e>
 8000ae6:	d50d      	bpl.n	8000b04 <__aeabi_d2uiz+0x28>
 8000ae8:	f46f 7378 	mvn.w	r3, #992	; 0x3e0
 8000aec:	ebb3 5262 	subs.w	r2, r3, r2, asr #21
 8000af0:	d40e      	bmi.n	8000b10 <__aeabi_d2uiz+0x34>
 8000af2:	ea4f 23c1 	mov.w	r3, r1, lsl #11
 8000af6:	f043 4300 	orr.w	r3, r3, #2147483648	; 0x80000000
 8000afa:	ea43 5350 	orr.w	r3, r3, r0, lsr #21
 8000afe:	fa23 f002 	lsr.w	r0, r3, r2
 8000b02:	4770      	bx	lr
 8000b04:	f04f 0000 	mov.w	r0, #0
 8000b08:	4770      	bx	lr
 8000b0a:	ea50 3001 	orrs.w	r0, r0, r1, lsl #12
 8000b0e:	d102      	bne.n	8000b16 <__aeabi_d2uiz+0x3a>
 8000b10:	f04f 30ff 	mov.w	r0, #4294967295
 8000b14:	4770      	bx	lr
 8000b16:	f04f 0000 	mov.w	r0, #0
 8000b1a:	4770      	bx	lr

08000b1c <__aeabi_uldivmod>:
 8000b1c:	b953      	cbnz	r3, 8000b34 <__aeabi_uldivmod+0x18>
 8000b1e:	b94a      	cbnz	r2, 8000b34 <__aeabi_uldivmod+0x18>
 8000b20:	2900      	cmp	r1, #0
 8000b22:	bf08      	it	eq
 8000b24:	2800      	cmpeq	r0, #0
 8000b26:	bf1c      	itt	ne
 8000b28:	f04f 31ff 	movne.w	r1, #4294967295
 8000b2c:	f04f 30ff 	movne.w	r0, #4294967295
 8000b30:	f000 b972 	b.w	8000e18 <__aeabi_idiv0>
 8000b34:	f1ad 0c08 	sub.w	ip, sp, #8
 8000b38:	e96d ce04 	strd	ip, lr, [sp, #-16]!
 8000b3c:	f000 f806 	bl	8000b4c <__udivmoddi4>
 8000b40:	f8dd e004 	ldr.w	lr, [sp, #4]
 8000b44:	e9dd 2302 	ldrd	r2, r3, [sp, #8]
 8000b48:	b004      	add	sp, #16
 8000b4a:	4770      	bx	lr

08000b4c <__udivmoddi4>:
 8000b4c:	e92d 47f0 	stmdb	sp!, {r4, r5, r6, r7, r8, r9, sl, lr}
 8000b50:	9e08      	ldr	r6, [sp, #32]
 8000b52:	4604      	mov	r4, r0
 8000b54:	4688      	mov	r8, r1
 8000b56:	2b00      	cmp	r3, #0
 8000b58:	d14b      	bne.n	8000bf2 <__udivmoddi4+0xa6>
 8000b5a:	428a      	cmp	r2, r1
 8000b5c:	4615      	mov	r5, r2
 8000b5e:	d967      	bls.n	8000c30 <__udivmoddi4+0xe4>
 8000b60:	fab2 f282 	clz	r2, r2
 8000b64:	b14a      	cbz	r2, 8000b7a <__udivmoddi4+0x2e>
 8000b66:	f1c2 0720 	rsb	r7, r2, #32
 8000b6a:	fa01 f302 	lsl.w	r3, r1, r2
 8000b6e:	fa20 f707 	lsr.w	r7, r0, r7
 8000b72:	4095      	lsls	r5, r2
 8000b74:	ea47 0803 	orr.w	r8, r7, r3
 8000b78:	4094      	lsls	r4, r2
 8000b7a:	ea4f 4e15 	mov.w	lr, r5, lsr #16
 8000b7e:	0c23      	lsrs	r3, r4, #16
 8000b80:	fbb8 f7fe 	udiv	r7, r8, lr
 8000b84:	fa1f fc85 	uxth.w	ip, r5
 8000b88:	fb0e 8817 	mls	r8, lr, r7, r8
 8000b8c:	ea43 4308 	orr.w	r3, r3, r8, lsl #16
 8000b90:	fb07 f10c 	mul.w	r1, r7, ip
 8000b94:	4299      	cmp	r1, r3
 8000b96:	d909      	bls.n	8000bac <__udivmoddi4+0x60>
 8000b98:	18eb      	adds	r3, r5, r3
 8000b9a:	f107 30ff 	add.w	r0, r7, #4294967295
 8000b9e:	f080 811b 	bcs.w	8000dd8 <__udivmoddi4+0x28c>
 8000ba2:	4299      	cmp	r1, r3
 8000ba4:	f240 8118 	bls.w	8000dd8 <__udivmoddi4+0x28c>
 8000ba8:	3f02      	subs	r7, #2
 8000baa:	442b      	add	r3, r5
 8000bac:	1a5b      	subs	r3, r3, r1
 8000bae:	b2a4      	uxth	r4, r4
 8000bb0:	fbb3 f0fe 	udiv	r0, r3, lr
 8000bb4:	fb0e 3310 	mls	r3, lr, r0, r3
 8000bb8:	ea44 4403 	orr.w	r4, r4, r3, lsl #16
 8000bbc:	fb00 fc0c 	mul.w	ip, r0, ip
 8000bc0:	45a4      	cmp	ip, r4
 8000bc2:	d909      	bls.n	8000bd8 <__udivmoddi4+0x8c>
 8000bc4:	192c      	adds	r4, r5, r4
 8000bc6:	f100 33ff 	add.w	r3, r0, #4294967295
 8000bca:	f080 8107 	bcs.w	8000ddc <__udivmoddi4+0x290>
 8000bce:	45a4      	cmp	ip, r4
 8000bd0:	f240 8104 	bls.w	8000ddc <__udivmoddi4+0x290>
 8000bd4:	3802      	subs	r0, #2
 8000bd6:	442c      	add	r4, r5
 8000bd8:	ea40 4007 	orr.w	r0, r0, r7, lsl #16
 8000bdc:	eba4 040c 	sub.w	r4, r4, ip
 8000be0:	2700      	movs	r7, #0
 8000be2:	b11e      	cbz	r6, 8000bec <__udivmoddi4+0xa0>
 8000be4:	40d4      	lsrs	r4, r2
 8000be6:	2300      	movs	r3, #0
 8000be8:	e9c6 4300 	strd	r4, r3, [r6]
 8000bec:	4639      	mov	r1, r7
 8000bee:	e8bd 87f0 	ldmia.w	sp!, {r4, r5, r6, r7, r8, r9, sl, pc}
 8000bf2:	428b      	cmp	r3, r1
 8000bf4:	d909      	bls.n	8000c0a <__udivmoddi4+0xbe>
 8000bf6:	2e00      	cmp	r6, #0
 8000bf8:	f000 80eb 	beq.w	8000dd2 <__udivmoddi4+0x286>
 8000bfc:	2700      	movs	r7, #0
 8000bfe:	e9c6 0100 	strd	r0, r1, [r6]
 8000c02:	4638      	mov	r0, r7
 8000c04:	4639      	mov	r1, r7
 8000c06:	e8bd 87f0 	ldmia.w	sp!, {r4, r5, r6, r7, r8, r9, sl, pc}
 8000c0a:	fab3 f783 	clz	r7, r3
 8000c0e:	2f00      	cmp	r7, #0
 8000c10:	d147      	bne.n	8000ca2 <__udivmoddi4+0x156>
 8000c12:	428b      	cmp	r3, r1
 8000c14:	d302      	bcc.n	8000c1c <__udivmoddi4+0xd0>
 8000c16:	4282      	cmp	r2, r0
 8000c18:	f200 80fa 	bhi.w	8000e10 <__udivmoddi4+0x2c4>
 8000c1c:	1a84      	subs	r4, r0, r2
 8000c1e:	eb61 0303 	sbc.w	r3, r1, r3
 8000c22:	2001      	movs	r0, #1
 8000c24:	4698      	mov	r8, r3
 8000c26:	2e00      	cmp	r6, #0
 8000c28:	d0e0      	beq.n	8000bec <__udivmoddi4+0xa0>
 8000c2a:	e9c6 4800 	strd	r4, r8, [r6]
 8000c2e:	e7dd      	b.n	8000bec <__udivmoddi4+0xa0>
 8000c30:	b902      	cbnz	r2, 8000c34 <__udivmoddi4+0xe8>
 8000c32:	deff      	udf	#255	; 0xff
 8000c34:	fab2 f282 	clz	r2, r2
 8000c38:	2a00      	cmp	r2, #0
 8000c3a:	f040 808f 	bne.w	8000d5c <__udivmoddi4+0x210>
 8000c3e:	1b49      	subs	r1, r1, r5
 8000c40:	ea4f 4e15 	mov.w	lr, r5, lsr #16
 8000c44:	fa1f f885 	uxth.w	r8, r5
 8000c48:	2701      	movs	r7, #1
 8000c4a:	fbb1 fcfe 	udiv	ip, r1, lr
 8000c4e:	0c23      	lsrs	r3, r4, #16
 8000c50:	fb0e 111c 	mls	r1, lr, ip, r1
 8000c54:	ea43 4301 	orr.w	r3, r3, r1, lsl #16
 8000c58:	fb08 f10c 	mul.w	r1, r8, ip
 8000c5c:	4299      	cmp	r1, r3
 8000c5e:	d907      	bls.n	8000c70 <__udivmoddi4+0x124>
 8000c60:	18eb      	adds	r3, r5, r3
 8000c62:	f10c 30ff 	add.w	r0, ip, #4294967295
 8000c66:	d202      	bcs.n	8000c6e <__udivmoddi4+0x122>
 8000c68:	4299      	cmp	r1, r3
 8000c6a:	f200 80cd 	bhi.w	8000e08 <__udivmoddi4+0x2bc>
 8000c6e:	4684      	mov	ip, r0
 8000c70:	1a59      	subs	r1, r3, r1
 8000c72:	b2a3      	uxth	r3, r4
 8000c74:	fbb1 f0fe 	udiv	r0, r1, lr
 8000c78:	fb0e 1410 	mls	r4, lr, r0, r1
 8000c7c:	ea43 4404 	orr.w	r4, r3, r4, lsl #16
 8000c80:	fb08 f800 	mul.w	r8, r8, r0
 8000c84:	45a0      	cmp	r8, r4
 8000c86:	d907      	bls.n	8000c98 <__udivmoddi4+0x14c>
 8000c88:	192c      	adds	r4, r5, r4
 8000c8a:	f100 33ff 	add.w	r3, r0, #4294967295
 8000c8e:	d202      	bcs.n	8000c96 <__udivmoddi4+0x14a>
 8000c90:	45a0      	cmp	r8, r4
 8000c92:	f200 80b6 	bhi.w	8000e02 <__udivmoddi4+0x2b6>
 8000c96:	4618      	mov	r0, r3
 8000c98:	eba4 0408 	sub.w	r4, r4, r8
 8000c9c:	ea40 400c 	orr.w	r0, r0, ip, lsl #16
 8000ca0:	e79f      	b.n	8000be2 <__udivmoddi4+0x96>
 8000ca2:	f1c7 0c20 	rsb	ip, r7, #32
 8000ca6:	40bb      	lsls	r3, r7
 8000ca8:	fa22 fe0c 	lsr.w	lr, r2, ip
 8000cac:	ea4e 0e03 	orr.w	lr, lr, r3
 8000cb0:	fa01 f407 	lsl.w	r4, r1, r7
 8000cb4:	fa20 f50c 	lsr.w	r5, r0, ip
 8000cb8:	fa21 f30c 	lsr.w	r3, r1, ip
 8000cbc:	ea4f 481e 	mov.w	r8, lr, lsr #16
 8000cc0:	4325      	orrs	r5, r4
 8000cc2:	fbb3 f9f8 	udiv	r9, r3, r8
 8000cc6:	0c2c      	lsrs	r4, r5, #16
 8000cc8:	fb08 3319 	mls	r3, r8, r9, r3
 8000ccc:	fa1f fa8e 	uxth.w	sl, lr
 8000cd0:	ea44 4303 	orr.w	r3, r4, r3, lsl #16
 8000cd4:	fb09 f40a 	mul.w	r4, r9, sl
 8000cd8:	429c      	cmp	r4, r3
 8000cda:	fa02 f207 	lsl.w	r2, r2, r7
 8000cde:	fa00 f107 	lsl.w	r1, r0, r7
 8000ce2:	d90b      	bls.n	8000cfc <__udivmoddi4+0x1b0>
 8000ce4:	eb1e 0303 	adds.w	r3, lr, r3
 8000ce8:	f109 30ff 	add.w	r0, r9, #4294967295
 8000cec:	f080 8087 	bcs.w	8000dfe <__udivmoddi4+0x2b2>
 8000cf0:	429c      	cmp	r4, r3
 8000cf2:	f240 8084 	bls.w	8000dfe <__udivmoddi4+0x2b2>
 8000cf6:	f1a9 0902 	sub.w	r9, r9, #2
 8000cfa:	4473      	add	r3, lr
 8000cfc:	1b1b      	subs	r3, r3, r4
 8000cfe:	b2ad      	uxth	r5, r5
 8000d00:	fbb3 f0f8 	udiv	r0, r3, r8
 8000d04:	fb08 3310 	mls	r3, r8, r0, r3
 8000d08:	ea45 4403 	orr.w	r4, r5, r3, lsl #16
 8000d0c:	fb00 fa0a 	mul.w	sl, r0, sl
 8000d10:	45a2      	cmp	sl, r4
 8000d12:	d908      	bls.n	8000d26 <__udivmoddi4+0x1da>
 8000d14:	eb1e 0404 	adds.w	r4, lr, r4
 8000d18:	f100 33ff 	add.w	r3, r0, #4294967295
 8000d1c:	d26b      	bcs.n	8000df6 <__udivmoddi4+0x2aa>
 8000d1e:	45a2      	cmp	sl, r4
 8000d20:	d969      	bls.n	8000df6 <__udivmoddi4+0x2aa>
 8000d22:	3802      	subs	r0, #2
 8000d24:	4474      	add	r4, lr
 8000d26:	ea40 4009 	orr.w	r0, r0, r9, lsl #16
 8000d2a:	fba0 8902 	umull	r8, r9, r0, r2
 8000d2e:	eba4 040a 	sub.w	r4, r4, sl
 8000d32:	454c      	cmp	r4, r9
 8000d34:	46c2      	mov	sl, r8
 8000d36:	464b      	mov	r3, r9
 8000d38:	d354      	bcc.n	8000de4 <__udivmoddi4+0x298>
 8000d3a:	d051      	beq.n	8000de0 <__udivmoddi4+0x294>
 8000d3c:	2e00      	cmp	r6, #0
 8000d3e:	d069      	beq.n	8000e14 <__udivmoddi4+0x2c8>
 8000d40:	ebb1 050a 	subs.w	r5, r1, sl
 8000d44:	eb64 0403 	sbc.w	r4, r4, r3
 8000d48:	fa04 fc0c 	lsl.w	ip, r4, ip
 8000d4c:	40fd      	lsrs	r5, r7
 8000d4e:	40fc      	lsrs	r4, r7
 8000d50:	ea4c 0505 	orr.w	r5, ip, r5
 8000d54:	e9c6 5400 	strd	r5, r4, [r6]
 8000d58:	2700      	movs	r7, #0
 8000d5a:	e747      	b.n	8000bec <__udivmoddi4+0xa0>
 8000d5c:	f1c2 0320 	rsb	r3, r2, #32
 8000d60:	fa20 f703 	lsr.w	r7, r0, r3
 8000d64:	4095      	lsls	r5, r2
 8000d66:	fa01 f002 	lsl.w	r0, r1, r2
 8000d6a:	fa21 f303 	lsr.w	r3, r1, r3
 8000d6e:	ea4f 4e15 	mov.w	lr, r5, lsr #16
 8000d72:	4338      	orrs	r0, r7
 8000d74:	0c01      	lsrs	r1, r0, #16
 8000d76:	fbb3 f7fe 	udiv	r7, r3, lr
 8000d7a:	fa1f f885 	uxth.w	r8, r5
 8000d7e:	fb0e 3317 	mls	r3, lr, r7, r3
 8000d82:	ea41 4103 	orr.w	r1, r1, r3, lsl #16
 8000d86:	fb07 f308 	mul.w	r3, r7, r8
 8000d8a:	428b      	cmp	r3, r1
 8000d8c:	fa04 f402 	lsl.w	r4, r4, r2
 8000d90:	d907      	bls.n	8000da2 <__udivmoddi4+0x256>
 8000d92:	1869      	adds	r1, r5, r1
 8000d94:	f107 3cff 	add.w	ip, r7, #4294967295
 8000d98:	d22f      	bcs.n	8000dfa <__udivmoddi4+0x2ae>
 8000d9a:	428b      	cmp	r3, r1
 8000d9c:	d92d      	bls.n	8000dfa <__udivmoddi4+0x2ae>
 8000d9e:	3f02      	subs	r7, #2
 8000da0:	4429      	add	r1, r5
 8000da2:	1acb      	subs	r3, r1, r3
 8000da4:	b281      	uxth	r1, r0
 8000da6:	fbb3 f0fe 	udiv	r0, r3, lr
 8000daa:	fb0e 3310 	mls	r3, lr, r0, r3
 8000dae:	ea41 4103 	orr.w	r1, r1, r3, lsl #16
 8000db2:	fb00 f308 	mul.w	r3, r0, r8
 8000db6:	428b      	cmp	r3, r1
 8000db8:	d907      	bls.n	8000dca <__udivmoddi4+0x27e>
 8000dba:	1869      	adds	r1, r5, r1
 8000dbc:	f100 3cff 	add.w	ip, r0, #4294967295
 8000dc0:	d217      	bcs.n	8000df2 <__udivmoddi4+0x2a6>
 8000dc2:	428b      	cmp	r3, r1
 8000dc4:	d915      	bls.n	8000df2 <__udivmoddi4+0x2a6>
 8000dc6:	3802      	subs	r0, #2
 8000dc8:	4429      	add	r1, r5
 8000dca:	1ac9      	subs	r1, r1, r3
 8000dcc:	ea40 4707 	orr.w	r7, r0, r7, lsl #16
 8000dd0:	e73b      	b.n	8000c4a <__udivmoddi4+0xfe>
 8000dd2:	4637      	mov	r7, r6
 8000dd4:	4630      	mov	r0, r6
 8000dd6:	e709      	b.n	8000bec <__udivmoddi4+0xa0>
 8000dd8:	4607      	mov	r7, r0
 8000dda:	e6e7      	b.n	8000bac <__udivmoddi4+0x60>
 8000ddc:	4618      	mov	r0, r3
 8000dde:	e6fb      	b.n	8000bd8 <__udivmoddi4+0x8c>
 8000de0:	4541      	cmp	r1, r8
 8000de2:	d2ab      	bcs.n	8000d3c <__udivmoddi4+0x1f0>
 8000de4:	ebb8 0a02 	subs.w	sl, r8, r2
 8000de8:	eb69 020e 	sbc.w	r2, r9, lr
 8000dec:	3801      	subs	r0, #1
 8000dee:	4613      	mov	r3, r2
 8000df0:	e7a4      	b.n	8000d3c <__udivmoddi4+0x1f0>
 8000df2:	4660      	mov	r0, ip
 8000df4:	e7e9      	b.n	8000dca <__udivmoddi4+0x27e>
 8000df6:	4618      	mov	r0, r3
 8000df8:	e795      	b.n	8000d26 <__udivmoddi4+0x1da>
 8000dfa:	4667      	mov	r7, ip
 8000dfc:	e7d1      	b.n	8000da2 <__udivmoddi4+0x256>
 8000dfe:	4681      	mov	r9, r0
 8000e00:	e77c      	b.n	8000cfc <__udivmoddi4+0x1b0>
 8000e02:	3802      	subs	r0, #2
 8000e04:	442c      	add	r4, r5
 8000e06:	e747      	b.n	8000c98 <__udivmoddi4+0x14c>
 8000e08:	f1ac 0c02 	sub.w	ip, ip, #2
 8000e0c:	442b      	add	r3, r5
 8000e0e:	e72f      	b.n	8000c70 <__udivmoddi4+0x124>
 8000e10:	4638      	mov	r0, r7
 8000e12:	e708      	b.n	8000c26 <__udivmoddi4+0xda>
 8000e14:	4637      	mov	r7, r6
 8000e16:	e6e9      	b.n	8000bec <__udivmoddi4+0xa0>

08000e18 <__aeabi_idiv0>:
 8000e18:	4770      	bx	lr
 8000e1a:	bf00      	nop

08000e1c <MX_FREERTOS_Init>:
/**
  * @brief  FreeRTOS initialization
  * @param  None
  * @retval None
  */
void MX_FREERTOS_Init(void) {
 8000e1c:	b580      	push	{r7, lr}
 8000e1e:	af00      	add	r7, sp, #0
  /* start timers, add new ones, ... */
  /* USER CODE END RTOS_TIMERS */

  /* Create the queue(s) */
  /* creation of myQueue01 */
  myQueue01Handle = osMessageQueueNew (16, sizeof(Message_t), &myQueue01_attributes);
 8000e20:	4a14      	ldr	r2, [pc, #80]	; (8000e74 <MX_FREERTOS_Init+0x58>)
 8000e22:	2102      	movs	r1, #2
 8000e24:	2010      	movs	r0, #16
 8000e26:	f004 f95b 	bl	80050e0 <osMessageQueueNew>
 8000e2a:	4602      	mov	r2, r0
 8000e2c:	4b12      	ldr	r3, [pc, #72]	; (8000e78 <MX_FREERTOS_Init+0x5c>)
 8000e2e:	601a      	str	r2, [r3, #0]
  /* add queues, ... */
  /* USER CODE END RTOS_QUEUES */

  /* Create the thread(s) */
  /* creation of Led2Task */
  Led2TaskHandle = osThreadNew(StartLed2Task, NULL, &Led2Task_attributes);
 8000e30:	4a12      	ldr	r2, [pc, #72]	; (8000e7c <MX_FREERTOS_Init+0x60>)
 8000e32:	2100      	movs	r1, #0
 8000e34:	4812      	ldr	r0, [pc, #72]	; (8000e80 <MX_FREERTOS_Init+0x64>)
 8000e36:	f004 f87f 	bl	8004f38 <osThreadNew>
 8000e3a:	4602      	mov	r2, r0
 8000e3c:	4b11      	ldr	r3, [pc, #68]	; (8000e84 <MX_FREERTOS_Init+0x68>)
 8000e3e:	601a      	str	r2, [r3, #0]

  /* creation of Producer1Task */
  Producer1TaskHandle = osThreadNew(StartProducer1, NULL, &Producer1Task_attributes);
 8000e40:	4a11      	ldr	r2, [pc, #68]	; (8000e88 <MX_FREERTOS_Init+0x6c>)
 8000e42:	2100      	movs	r1, #0
 8000e44:	4811      	ldr	r0, [pc, #68]	; (8000e8c <MX_FREERTOS_Init+0x70>)
 8000e46:	f004 f877 	bl	8004f38 <osThreadNew>
 8000e4a:	4602      	mov	r2, r0
 8000e4c:	4b10      	ldr	r3, [pc, #64]	; (8000e90 <MX_FREERTOS_Init+0x74>)
 8000e4e:	601a      	str	r2, [r3, #0]

  /* creation of Consumer1Task */
  Consumer1TaskHandle = osThreadNew(StartConsumer1, NULL, &Consumer1Task_attributes);
 8000e50:	4a10      	ldr	r2, [pc, #64]	; (8000e94 <MX_FREERTOS_Init+0x78>)
 8000e52:	2100      	movs	r1, #0
 8000e54:	4810      	ldr	r0, [pc, #64]	; (8000e98 <MX_FREERTOS_Init+0x7c>)
 8000e56:	f004 f86f 	bl	8004f38 <osThreadNew>
 8000e5a:	4602      	mov	r2, r0
 8000e5c:	4b0f      	ldr	r3, [pc, #60]	; (8000e9c <MX_FREERTOS_Init+0x80>)
 8000e5e:	601a      	str	r2, [r3, #0]

  /* creation of Producer2Task */
  Producer2TaskHandle = osThreadNew(StartProducer2, NULL, &Producer2Task_attributes);
 8000e60:	4a0f      	ldr	r2, [pc, #60]	; (8000ea0 <MX_FREERTOS_Init+0x84>)
 8000e62:	2100      	movs	r1, #0
 8000e64:	480f      	ldr	r0, [pc, #60]	; (8000ea4 <MX_FREERTOS_Init+0x88>)
 8000e66:	f004 f867 	bl	8004f38 <osThreadNew>
 8000e6a:	4602      	mov	r2, r0
 8000e6c:	4b0e      	ldr	r3, [pc, #56]	; (8000ea8 <MX_FREERTOS_Init+0x8c>)
 8000e6e:	601a      	str	r2, [r3, #0]

  /* USER CODE BEGIN RTOS_EVENTS */
  /* add events, ... */
  /* USER CODE END RTOS_EVENTS */

}
 8000e70:	bf00      	nop
 8000e72:	bd80      	pop	{r7, pc}
 8000e74:	08007f58 	.word	0x08007f58
 8000e78:	20004948 	.word	0x20004948
 8000e7c:	08007ec8 	.word	0x08007ec8
 8000e80:	08000ead 	.word	0x08000ead
 8000e84:	2000493c 	.word	0x2000493c
 8000e88:	08007eec 	.word	0x08007eec
 8000e8c:	08000edd 	.word	0x08000edd
 8000e90:	20004938 	.word	0x20004938
 8000e94:	08007f10 	.word	0x08007f10
 8000e98:	08000f29 	.word	0x08000f29
 8000e9c:	20004944 	.word	0x20004944
 8000ea0:	08007f34 	.word	0x08007f34
 8000ea4:	08000f61 	.word	0x08000f61
 8000ea8:	20004940 	.word	0x20004940

08000eac <StartLed2Task>:
  * @param  argument: Not used
  * @retval None
  */
/* USER CODE END Header_StartLed2Task */
void StartLed2Task(void *argument)
{
 8000eac:	b580      	push	{r7, lr}
 8000eae:	b084      	sub	sp, #16
 8000eb0:	af00      	add	r7, sp, #0
 8000eb2:	6078      	str	r0, [r7, #4]
  /* USER CODE BEGIN StartLed2Task */
	uint32_t tick;

	tick = osKernelGetTickCount();        // retrieve the number of system ticks
 8000eb4:	f004 f818 	bl	8004ee8 <osKernelGetTickCount>
 8000eb8:	60f8      	str	r0, [r7, #12]
  /* Infinite loop */
  for(;;)
  {
	  HAL_GPIO_TogglePin(LD2_GPIO_Port, LD2_Pin);
 8000eba:	2120      	movs	r1, #32
 8000ebc:	4805      	ldr	r0, [pc, #20]	; (8000ed4 <StartLed2Task+0x28>)
 8000ebe:	f002 fbf6 	bl	80036ae <HAL_GPIO_TogglePin>
	  printf("Led2\n\r");
 8000ec2:	4805      	ldr	r0, [pc, #20]	; (8000ed8 <StartLed2Task+0x2c>)
 8000ec4:	f001 fde6 	bl	8002a94 <printf_>
	  osDelay(500);
 8000ec8:	f44f 70fa 	mov.w	r0, #500	; 0x1f4
 8000ecc:	f004 f8da 	bl	8005084 <osDelay>
	  HAL_GPIO_TogglePin(LD2_GPIO_Port, LD2_Pin);
 8000ed0:	e7f3      	b.n	8000eba <StartLed2Task+0xe>
 8000ed2:	bf00      	nop
 8000ed4:	40020000 	.word	0x40020000
 8000ed8:	08007e30 	.word	0x08007e30

08000edc <StartProducer1>:
* @param argument: Not used
* @retval None
*/
/* USER CODE END Header_StartProducer1 */
void StartProducer1(void *argument)
{
 8000edc:	b580      	push	{r7, lr}
 8000ede:	b084      	sub	sp, #16
 8000ee0:	af00      	add	r7, sp, #0
 8000ee2:	6078      	str	r0, [r7, #4]
  /* USER CODE BEGIN StartProducer1 */
	Message_t DataToSend = {0,1};
 8000ee4:	2300      	movs	r3, #0
 8000ee6:	733b      	strb	r3, [r7, #12]
 8000ee8:	2301      	movs	r3, #1
 8000eea:	737b      	strb	r3, [r7, #13]
  /* Infinite loop */
  for(;;)
  {
	  if(osOK == osMessageQueuePut(myQueue01Handle, (Message_t*)&DataToSend, 0, osWaitForever))
 8000eec:	4b0c      	ldr	r3, [pc, #48]	; (8000f20 <StartProducer1+0x44>)
 8000eee:	6818      	ldr	r0, [r3, #0]
 8000ef0:	f107 010c 	add.w	r1, r7, #12
 8000ef4:	f04f 33ff 	mov.w	r3, #4294967295
 8000ef8:	2200      	movs	r2, #0
 8000efa:	f004 f977 	bl	80051ec <osMessageQueuePut>
 8000efe:	4603      	mov	r3, r0
 8000f00:	2b00      	cmp	r3, #0
 8000f02:	d108      	bne.n	8000f16 <StartProducer1+0x3a>
	  {
		  printf("Producer1Task sent: %d\n\r", DataToSend.Value);
 8000f04:	7b3b      	ldrb	r3, [r7, #12]
 8000f06:	4619      	mov	r1, r3
 8000f08:	4806      	ldr	r0, [pc, #24]	; (8000f24 <StartProducer1+0x48>)
 8000f0a:	f001 fdc3 	bl	8002a94 <printf_>
		  DataToSend.Value++;
 8000f0e:	7b3b      	ldrb	r3, [r7, #12]
 8000f10:	3301      	adds	r3, #1
 8000f12:	b2db      	uxtb	r3, r3
 8000f14:	733b      	strb	r3, [r7, #12]
	  }
    osDelay(1000);
 8000f16:	f44f 707a 	mov.w	r0, #1000	; 0x3e8
 8000f1a:	f004 f8b3 	bl	8005084 <osDelay>
	  if(osOK == osMessageQueuePut(myQueue01Handle, (Message_t*)&DataToSend, 0, osWaitForever))
 8000f1e:	e7e5      	b.n	8000eec <StartProducer1+0x10>
 8000f20:	20004948 	.word	0x20004948
 8000f24:	08007e38 	.word	0x08007e38

08000f28 <StartConsumer1>:
* @param argument: Not used
* @retval None
*/
/* USER CODE END Header_StartConsumer1 */
void StartConsumer1(void *argument)
{
 8000f28:	b580      	push	{r7, lr}
 8000f2a:	b084      	sub	sp, #16
 8000f2c:	af00      	add	r7, sp, #0
 8000f2e:	6078      	str	r0, [r7, #4]
  /* USER CODE BEGIN StartConsumer1 */
	Message_t ReceivedData;
  /* Infinite loop */
  for(;;)
  {
	  if(osOK == osMessageQueueGet(myQueue01Handle, (Message_t*)&ReceivedData, NULL, osWaitForever))
 8000f30:	4b09      	ldr	r3, [pc, #36]	; (8000f58 <StartConsumer1+0x30>)
 8000f32:	6818      	ldr	r0, [r3, #0]
 8000f34:	f107 010c 	add.w	r1, r7, #12
 8000f38:	f04f 33ff 	mov.w	r3, #4294967295
 8000f3c:	2200      	movs	r2, #0
 8000f3e:	f004 f9c9 	bl	80052d4 <osMessageQueueGet>
 8000f42:	4603      	mov	r3, r0
 8000f44:	2b00      	cmp	r3, #0
 8000f46:	d1f3      	bne.n	8000f30 <StartConsumer1+0x8>
	  {
		  printf("Consumer1Task received from %d: %d\n\r", ReceivedData.Sender, ReceivedData.Value);
 8000f48:	7b7b      	ldrb	r3, [r7, #13]
 8000f4a:	4619      	mov	r1, r3
 8000f4c:	7b3b      	ldrb	r3, [r7, #12]
 8000f4e:	461a      	mov	r2, r3
 8000f50:	4802      	ldr	r0, [pc, #8]	; (8000f5c <StartConsumer1+0x34>)
 8000f52:	f001 fd9f 	bl	8002a94 <printf_>
	  if(osOK == osMessageQueueGet(myQueue01Handle, (Message_t*)&ReceivedData, NULL, osWaitForever))
 8000f56:	e7eb      	b.n	8000f30 <StartConsumer1+0x8>
 8000f58:	20004948 	.word	0x20004948
 8000f5c:	08007e54 	.word	0x08007e54

08000f60 <StartProducer2>:
* @param argument: Not used
* @retval None
*/
/* USER CODE END Header_StartProducer2 */
void StartProducer2(void *argument)
{
 8000f60:	b580      	push	{r7, lr}
 8000f62:	b084      	sub	sp, #16
 8000f64:	af00      	add	r7, sp, #0
 8000f66:	6078      	str	r0, [r7, #4]
  /* USER CODE BEGIN StartProducer2 */
	Message_t DataToSend = {0,2};
 8000f68:	2300      	movs	r3, #0
 8000f6a:	733b      	strb	r3, [r7, #12]
 8000f6c:	2302      	movs	r3, #2
 8000f6e:	737b      	strb	r3, [r7, #13]

  /* Infinite loop */
	  for(;;)
	  {
		  if(osOK == osMessageQueuePut(myQueue01Handle, &DataToSend, 0, osWaitForever))
 8000f70:	4b0c      	ldr	r3, [pc, #48]	; (8000fa4 <StartProducer2+0x44>)
 8000f72:	6818      	ldr	r0, [r3, #0]
 8000f74:	f107 010c 	add.w	r1, r7, #12
 8000f78:	f04f 33ff 	mov.w	r3, #4294967295
 8000f7c:	2200      	movs	r2, #0
 8000f7e:	f004 f935 	bl	80051ec <osMessageQueuePut>
 8000f82:	4603      	mov	r3, r0
 8000f84:	2b00      	cmp	r3, #0
 8000f86:	d108      	bne.n	8000f9a <StartProducer2+0x3a>
		  {
			  printf("Producer2Task sent: %d\n\r", DataToSend.Value);
 8000f88:	7b3b      	ldrb	r3, [r7, #12]
 8000f8a:	4619      	mov	r1, r3
 8000f8c:	4806      	ldr	r0, [pc, #24]	; (8000fa8 <StartProducer2+0x48>)
 8000f8e:	f001 fd81 	bl	8002a94 <printf_>
			  DataToSend.Value++;
 8000f92:	7b3b      	ldrb	r3, [r7, #12]
 8000f94:	3301      	adds	r3, #1
 8000f96:	b2db      	uxtb	r3, r3
 8000f98:	733b      	strb	r3, [r7, #12]
		  }
	    osDelay(500);
 8000f9a:	f44f 70fa 	mov.w	r0, #500	; 0x1f4
 8000f9e:	f004 f871 	bl	8005084 <osDelay>
		  if(osOK == osMessageQueuePut(myQueue01Handle, &DataToSend, 0, osWaitForever))
 8000fa2:	e7e5      	b.n	8000f70 <StartProducer2+0x10>
 8000fa4:	20004948 	.word	0x20004948
 8000fa8:	08007e7c 	.word	0x08007e7c

08000fac <_putchar>:
}

/* Private application code --------------------------------------------------*/
/* USER CODE BEGIN Application */
void _putchar(char character)
{
 8000fac:	b580      	push	{r7, lr}
 8000fae:	b082      	sub	sp, #8
 8000fb0:	af00      	add	r7, sp, #0
 8000fb2:	4603      	mov	r3, r0
 8000fb4:	71fb      	strb	r3, [r7, #7]
	HAL_UART_Transmit(&huart2, (uint8_t*)&character, 1, 1000);
 8000fb6:	1df9      	adds	r1, r7, #7
 8000fb8:	f44f 737a 	mov.w	r3, #1000	; 0x3e8
 8000fbc:	2201      	movs	r2, #1
 8000fbe:	4803      	ldr	r0, [pc, #12]	; (8000fcc <_putchar+0x20>)
 8000fc0:	f003 fac1 	bl	8004546 <HAL_UART_Transmit>
}
 8000fc4:	bf00      	nop
 8000fc6:	3708      	adds	r7, #8
 8000fc8:	46bd      	mov	sp, r7
 8000fca:	bd80      	pop	{r7, pc}
 8000fcc:	2000498c 	.word	0x2000498c

08000fd0 <HAL_GPIO_EXTI_Callback>:

void HAL_GPIO_EXTI_Callback(uint16_t GPIO_Pin)
{
 8000fd0:	b580      	push	{r7, lr}
 8000fd2:	b082      	sub	sp, #8
 8000fd4:	af00      	add	r7, sp, #0
 8000fd6:	4603      	mov	r3, r0
 8000fd8:	80fb      	strh	r3, [r7, #6]
	static Message_t DataToSend = {0,3};


	if(B1_Pin == GPIO_Pin)
 8000fda:	88fb      	ldrh	r3, [r7, #6]
 8000fdc:	f5b3 5f00 	cmp.w	r3, #8192	; 0x2000
 8000fe0:	d10f      	bne.n	8001002 <HAL_GPIO_EXTI_Callback+0x32>
	{
		  if(osOK == osMessageQueuePut(myQueue01Handle, &DataToSend, 0, 0))
 8000fe2:	4b0a      	ldr	r3, [pc, #40]	; (800100c <HAL_GPIO_EXTI_Callback+0x3c>)
 8000fe4:	6818      	ldr	r0, [r3, #0]
 8000fe6:	2300      	movs	r3, #0
 8000fe8:	2200      	movs	r2, #0
 8000fea:	4909      	ldr	r1, [pc, #36]	; (8001010 <HAL_GPIO_EXTI_Callback+0x40>)
 8000fec:	f004 f8fe 	bl	80051ec <osMessageQueuePut>
 8000ff0:	4603      	mov	r3, r0
 8000ff2:	2b00      	cmp	r3, #0
 8000ff4:	d105      	bne.n	8001002 <HAL_GPIO_EXTI_Callback+0x32>
		  {
			  DataToSend.Value++;
 8000ff6:	4b06      	ldr	r3, [pc, #24]	; (8001010 <HAL_GPIO_EXTI_Callback+0x40>)
 8000ff8:	781b      	ldrb	r3, [r3, #0]
 8000ffa:	3301      	adds	r3, #1
 8000ffc:	b2da      	uxtb	r2, r3
 8000ffe:	4b04      	ldr	r3, [pc, #16]	; (8001010 <HAL_GPIO_EXTI_Callback+0x40>)
 8001000:	701a      	strb	r2, [r3, #0]
		  }
	}
}
 8001002:	bf00      	nop
 8001004:	3708      	adds	r7, #8
 8001006:	46bd      	mov	sp, r7
 8001008:	bd80      	pop	{r7, pc}
 800100a:	bf00      	nop
 800100c:	20004948 	.word	0x20004948
 8001010:	20000000 	.word	0x20000000

08001014 <MX_GPIO_Init>:
        * Output
        * EVENT_OUT
        * EXTI
*/
void MX_GPIO_Init(void)
{
 8001014:	b580      	push	{r7, lr}
 8001016:	b08a      	sub	sp, #40	; 0x28
 8001018:	af00      	add	r7, sp, #0

  GPIO_InitTypeDef GPIO_InitStruct = {0};
 800101a:	f107 0314 	add.w	r3, r7, #20
 800101e:	2200      	movs	r2, #0
 8001020:	601a      	str	r2, [r3, #0]
 8001022:	605a      	str	r2, [r3, #4]
 8001024:	609a      	str	r2, [r3, #8]
 8001026:	60da      	str	r2, [r3, #12]
 8001028:	611a      	str	r2, [r3, #16]

  /* GPIO Ports Clock Enable */
  __HAL_RCC_GPIOC_CLK_ENABLE();
 800102a:	2300      	movs	r3, #0
 800102c:	613b      	str	r3, [r7, #16]
 800102e:	4b31      	ldr	r3, [pc, #196]	; (80010f4 <MX_GPIO_Init+0xe0>)
 8001030:	6b1b      	ldr	r3, [r3, #48]	; 0x30
 8001032:	4a30      	ldr	r2, [pc, #192]	; (80010f4 <MX_GPIO_Init+0xe0>)
 8001034:	f043 0304 	orr.w	r3, r3, #4
 8001038:	6313      	str	r3, [r2, #48]	; 0x30
 800103a:	4b2e      	ldr	r3, [pc, #184]	; (80010f4 <MX_GPIO_Init+0xe0>)
 800103c:	6b1b      	ldr	r3, [r3, #48]	; 0x30
 800103e:	f003 0304 	and.w	r3, r3, #4
 8001042:	613b      	str	r3, [r7, #16]
 8001044:	693b      	ldr	r3, [r7, #16]
  __HAL_RCC_GPIOH_CLK_ENABLE();
 8001046:	2300      	movs	r3, #0
 8001048:	60fb      	str	r3, [r7, #12]
 800104a:	4b2a      	ldr	r3, [pc, #168]	; (80010f4 <MX_GPIO_Init+0xe0>)
 800104c:	6b1b      	ldr	r3, [r3, #48]	; 0x30
 800104e:	4a29      	ldr	r2, [pc, #164]	; (80010f4 <MX_GPIO_Init+0xe0>)
 8001050:	f043 0380 	orr.w	r3, r3, #128	; 0x80
 8001054:	6313      	str	r3, [r2, #48]	; 0x30
 8001056:	4b27      	ldr	r3, [pc, #156]	; (80010f4 <MX_GPIO_Init+0xe0>)
 8001058:	6b1b      	ldr	r3, [r3, #48]	; 0x30
 800105a:	f003 0380 	and.w	r3, r3, #128	; 0x80
 800105e:	60fb      	str	r3, [r7, #12]
 8001060:	68fb      	ldr	r3, [r7, #12]
  __HAL_RCC_GPIOA_CLK_ENABLE();
 8001062:	2300      	movs	r3, #0
 8001064:	60bb      	str	r3, [r7, #8]
 8001066:	4b23      	ldr	r3, [pc, #140]	; (80010f4 <MX_GPIO_Init+0xe0>)
 8001068:	6b1b      	ldr	r3, [r3, #48]	; 0x30
 800106a:	4a22      	ldr	r2, [pc, #136]	; (80010f4 <MX_GPIO_Init+0xe0>)
 800106c:	f043 0301 	orr.w	r3, r3, #1
 8001070:	6313      	str	r3, [r2, #48]	; 0x30
 8001072:	4b20      	ldr	r3, [pc, #128]	; (80010f4 <MX_GPIO_Init+0xe0>)
 8001074:	6b1b      	ldr	r3, [r3, #48]	; 0x30
 8001076:	f003 0301 	and.w	r3, r3, #1
 800107a:	60bb      	str	r3, [r7, #8]
 800107c:	68bb      	ldr	r3, [r7, #8]
  __HAL_RCC_GPIOB_CLK_ENABLE();
 800107e:	2300      	movs	r3, #0
 8001080:	607b      	str	r3, [r7, #4]
 8001082:	4b1c      	ldr	r3, [pc, #112]	; (80010f4 <MX_GPIO_Init+0xe0>)
 8001084:	6b1b      	ldr	r3, [r3, #48]	; 0x30
 8001086:	4a1b      	ldr	r2, [pc, #108]	; (80010f4 <MX_GPIO_Init+0xe0>)
 8001088:	f043 0302 	orr.w	r3, r3, #2
 800108c:	6313      	str	r3, [r2, #48]	; 0x30
 800108e:	4b19      	ldr	r3, [pc, #100]	; (80010f4 <MX_GPIO_Init+0xe0>)
 8001090:	6b1b      	ldr	r3, [r3, #48]	; 0x30
 8001092:	f003 0302 	and.w	r3, r3, #2
 8001096:	607b      	str	r3, [r7, #4]
 8001098:	687b      	ldr	r3, [r7, #4]

  /*Configure GPIO pin Output Level */
  HAL_GPIO_WritePin(GPIOA, LD2_Pin|LD3_Pin|LD4_Pin, GPIO_PIN_RESET);
 800109a:	2200      	movs	r2, #0
 800109c:	21e0      	movs	r1, #224	; 0xe0
 800109e:	4816      	ldr	r0, [pc, #88]	; (80010f8 <MX_GPIO_Init+0xe4>)
 80010a0:	f002 faec 	bl	800367c <HAL_GPIO_WritePin>

  /*Configure GPIO pin : PtPin */
  GPIO_InitStruct.Pin = B1_Pin;
 80010a4:	f44f 5300 	mov.w	r3, #8192	; 0x2000
 80010a8:	617b      	str	r3, [r7, #20]
  GPIO_InitStruct.Mode = GPIO_MODE_IT_FALLING;
 80010aa:	4b14      	ldr	r3, [pc, #80]	; (80010fc <MX_GPIO_Init+0xe8>)
 80010ac:	61bb      	str	r3, [r7, #24]
  GPIO_InitStruct.Pull = GPIO_NOPULL;
 80010ae:	2300      	movs	r3, #0
 80010b0:	61fb      	str	r3, [r7, #28]
  HAL_GPIO_Init(B1_GPIO_Port, &GPIO_InitStruct);
 80010b2:	f107 0314 	add.w	r3, r7, #20
 80010b6:	4619      	mov	r1, r3
 80010b8:	4811      	ldr	r0, [pc, #68]	; (8001100 <MX_GPIO_Init+0xec>)
 80010ba:	f002 f95d 	bl	8003378 <HAL_GPIO_Init>

  /*Configure GPIO pins : PAPin PAPin PAPin */
  GPIO_InitStruct.Pin = LD2_Pin|LD3_Pin|LD4_Pin;
 80010be:	23e0      	movs	r3, #224	; 0xe0
 80010c0:	617b      	str	r3, [r7, #20]
  GPIO_InitStruct.Mode = GPIO_MODE_OUTPUT_PP;
 80010c2:	2301      	movs	r3, #1
 80010c4:	61bb      	str	r3, [r7, #24]
  GPIO_InitStruct.Pull = GPIO_NOPULL;
 80010c6:	2300      	movs	r3, #0
 80010c8:	61fb      	str	r3, [r7, #28]
  GPIO_InitStruct.Speed = GPIO_SPEED_FREQ_LOW;
 80010ca:	2300      	movs	r3, #0
 80010cc:	623b      	str	r3, [r7, #32]
  HAL_GPIO_Init(GPIOA, &GPIO_InitStruct);
 80010ce:	f107 0314 	add.w	r3, r7, #20
 80010d2:	4619      	mov	r1, r3
 80010d4:	4808      	ldr	r0, [pc, #32]	; (80010f8 <MX_GPIO_Init+0xe4>)
 80010d6:	f002 f94f 	bl	8003378 <HAL_GPIO_Init>

  /* EXTI interrupt init*/
  HAL_NVIC_SetPriority(EXTI15_10_IRQn, 5, 0);
 80010da:	2200      	movs	r2, #0
 80010dc:	2105      	movs	r1, #5
 80010de:	2028      	movs	r0, #40	; 0x28
 80010e0:	f001 ff78 	bl	8002fd4 <HAL_NVIC_SetPriority>
  HAL_NVIC_EnableIRQ(EXTI15_10_IRQn);
 80010e4:	2028      	movs	r0, #40	; 0x28
 80010e6:	f001 ff91 	bl	800300c <HAL_NVIC_EnableIRQ>

}
 80010ea:	bf00      	nop
 80010ec:	3728      	adds	r7, #40	; 0x28
 80010ee:	46bd      	mov	sp, r7
 80010f0:	bd80      	pop	{r7, pc}
 80010f2:	bf00      	nop
 80010f4:	40023800 	.word	0x40023800
 80010f8:	40020000 	.word	0x40020000
 80010fc:	10210000 	.word	0x10210000
 8001100:	40020800 	.word	0x40020800

08001104 <main>:
/**
  * @brief  The application entry point.
  * @retval int
  */
int main(void)
{
 8001104:	b580      	push	{r7, lr}
 8001106:	af00      	add	r7, sp, #0
  /* USER CODE END 1 */

  /* MCU Configuration--------------------------------------------------------*/

  /* Reset of all peripherals, Initializes the Flash interface and the Systick. */
  HAL_Init();
 8001108:	f001 fe6a 	bl	8002de0 <HAL_Init>
  /* USER CODE BEGIN Init */

  /* USER CODE END Init */

  /* Configure the system clock */
  SystemClock_Config();
 800110c:	f000 f80c 	bl	8001128 <SystemClock_Config>
  /* USER CODE BEGIN SysInit */

  /* USER CODE END SysInit */

  /* Initialize all configured peripherals */
  MX_GPIO_Init();
 8001110:	f7ff ff80 	bl	8001014 <MX_GPIO_Init>
  MX_USART2_UART_Init();
 8001114:	f001 fdc8 	bl	8002ca8 <MX_USART2_UART_Init>
  /* USER CODE BEGIN 2 */

  /* USER CODE END 2 */

  /* Init scheduler */
  osKernelInitialize();  /* Call init function for freertos objects (in freertos.c) */
 8001118:	f003 fe7c 	bl	8004e14 <osKernelInitialize>
  MX_FREERTOS_Init();
 800111c:	f7ff fe7e 	bl	8000e1c <MX_FREERTOS_Init>
  /* Start scheduler */
  osKernelStart();
 8001120:	f003 feac 	bl	8004e7c <osKernelStart>

  /* We should never get here as control is now taken by the scheduler */
  /* Infinite loop */
  /* USER CODE BEGIN WHILE */
  while (1)
 8001124:	e7fe      	b.n	8001124 <main+0x20>
	...

08001128 <SystemClock_Config>:
/**
  * @brief System Clock Configuration
  * @retval None
  */
void SystemClock_Config(void)
{
 8001128:	b580      	push	{r7, lr}
 800112a:	b094      	sub	sp, #80	; 0x50
 800112c:	af00      	add	r7, sp, #0
  RCC_OscInitTypeDef RCC_OscInitStruct = {0};
 800112e:	f107 0320 	add.w	r3, r7, #32
 8001132:	2230      	movs	r2, #48	; 0x30
 8001134:	2100      	movs	r1, #0
 8001136:	4618      	mov	r0, r3
 8001138:	f006 fe3f 	bl	8007dba <memset>
  RCC_ClkInitTypeDef RCC_ClkInitStruct = {0};
 800113c:	f107 030c 	add.w	r3, r7, #12
 8001140:	2200      	movs	r2, #0
 8001142:	601a      	str	r2, [r3, #0]
 8001144:	605a      	str	r2, [r3, #4]
 8001146:	609a      	str	r2, [r3, #8]
 8001148:	60da      	str	r2, [r3, #12]
 800114a:	611a      	str	r2, [r3, #16]

  /** Configure the main internal regulator output voltage
  */
  __HAL_RCC_PWR_CLK_ENABLE();
 800114c:	2300      	movs	r3, #0
 800114e:	60bb      	str	r3, [r7, #8]
 8001150:	4b28      	ldr	r3, [pc, #160]	; (80011f4 <SystemClock_Config+0xcc>)
 8001152:	6c1b      	ldr	r3, [r3, #64]	; 0x40
 8001154:	4a27      	ldr	r2, [pc, #156]	; (80011f4 <SystemClock_Config+0xcc>)
 8001156:	f043 5380 	orr.w	r3, r3, #268435456	; 0x10000000
 800115a:	6413      	str	r3, [r2, #64]	; 0x40
 800115c:	4b25      	ldr	r3, [pc, #148]	; (80011f4 <SystemClock_Config+0xcc>)
 800115e:	6c1b      	ldr	r3, [r3, #64]	; 0x40
 8001160:	f003 5380 	and.w	r3, r3, #268435456	; 0x10000000
 8001164:	60bb      	str	r3, [r7, #8]
 8001166:	68bb      	ldr	r3, [r7, #8]
  __HAL_PWR_VOLTAGESCALING_CONFIG(PWR_REGULATOR_VOLTAGE_SCALE1);
 8001168:	2300      	movs	r3, #0
 800116a:	607b      	str	r3, [r7, #4]
 800116c:	4b22      	ldr	r3, [pc, #136]	; (80011f8 <SystemClock_Config+0xd0>)
 800116e:	681b      	ldr	r3, [r3, #0]
 8001170:	4a21      	ldr	r2, [pc, #132]	; (80011f8 <SystemClock_Config+0xd0>)
 8001172:	f443 4340 	orr.w	r3, r3, #49152	; 0xc000
 8001176:	6013      	str	r3, [r2, #0]
 8001178:	4b1f      	ldr	r3, [pc, #124]	; (80011f8 <SystemClock_Config+0xd0>)
 800117a:	681b      	ldr	r3, [r3, #0]
 800117c:	f403 4340 	and.w	r3, r3, #49152	; 0xc000
 8001180:	607b      	str	r3, [r7, #4]
 8001182:	687b      	ldr	r3, [r7, #4]
  /** Initializes the RCC Oscillators according to the specified parameters
  * in the RCC_OscInitTypeDef structure.
  */
  RCC_OscInitStruct.OscillatorType = RCC_OSCILLATORTYPE_HSI;
 8001184:	2302      	movs	r3, #2
 8001186:	623b      	str	r3, [r7, #32]
  RCC_OscInitStruct.HSIState = RCC_HSI_ON;
 8001188:	2301      	movs	r3, #1
 800118a:	62fb      	str	r3, [r7, #44]	; 0x2c
  RCC_OscInitStruct.HSICalibrationValue = RCC_HSICALIBRATION_DEFAULT;
 800118c:	2310      	movs	r3, #16
 800118e:	633b      	str	r3, [r7, #48]	; 0x30
  RCC_OscInitStruct.PLL.PLLState = RCC_PLL_ON;
 8001190:	2302      	movs	r3, #2
 8001192:	63bb      	str	r3, [r7, #56]	; 0x38
  RCC_OscInitStruct.PLL.PLLSource = RCC_PLLSOURCE_HSI;
 8001194:	2300      	movs	r3, #0
 8001196:	63fb      	str	r3, [r7, #60]	; 0x3c
  RCC_OscInitStruct.PLL.PLLM = 16;
 8001198:	2310      	movs	r3, #16
 800119a:	643b      	str	r3, [r7, #64]	; 0x40
  RCC_OscInitStruct.PLL.PLLN = 336;
 800119c:	f44f 73a8 	mov.w	r3, #336	; 0x150
 80011a0:	647b      	str	r3, [r7, #68]	; 0x44
  RCC_OscInitStruct.PLL.PLLP = RCC_PLLP_DIV4;
 80011a2:	2304      	movs	r3, #4
 80011a4:	64bb      	str	r3, [r7, #72]	; 0x48
  RCC_OscInitStruct.PLL.PLLQ = 4;
 80011a6:	2304      	movs	r3, #4
 80011a8:	64fb      	str	r3, [r7, #76]	; 0x4c
  if (HAL_RCC_OscConfig(&RCC_OscInitStruct) != HAL_OK)
 80011aa:	f107 0320 	add.w	r3, r7, #32
 80011ae:	4618      	mov	r0, r3
 80011b0:	f002 faca 	bl	8003748 <HAL_RCC_OscConfig>
 80011b4:	4603      	mov	r3, r0
 80011b6:	2b00      	cmp	r3, #0
 80011b8:	d001      	beq.n	80011be <SystemClock_Config+0x96>
  {
    Error_Handler();
 80011ba:	f000 f831 	bl	8001220 <Error_Handler>
  }
  /** Initializes the CPU, AHB and APB buses clocks
  */
  RCC_ClkInitStruct.ClockType = RCC_CLOCKTYPE_HCLK|RCC_CLOCKTYPE_SYSCLK
 80011be:	230f      	movs	r3, #15
 80011c0:	60fb      	str	r3, [r7, #12]
                              |RCC_CLOCKTYPE_PCLK1|RCC_CLOCKTYPE_PCLK2;
  RCC_ClkInitStruct.SYSCLKSource = RCC_SYSCLKSOURCE_PLLCLK;
 80011c2:	2302      	movs	r3, #2
 80011c4:	613b      	str	r3, [r7, #16]
  RCC_ClkInitStruct.AHBCLKDivider = RCC_SYSCLK_DIV1;
 80011c6:	2300      	movs	r3, #0
 80011c8:	617b      	str	r3, [r7, #20]
  RCC_ClkInitStruct.APB1CLKDivider = RCC_HCLK_DIV2;
 80011ca:	f44f 5380 	mov.w	r3, #4096	; 0x1000
 80011ce:	61bb      	str	r3, [r7, #24]
  RCC_ClkInitStruct.APB2CLKDivider = RCC_HCLK_DIV1;
 80011d0:	2300      	movs	r3, #0
 80011d2:	61fb      	str	r3, [r7, #28]

  if (HAL_RCC_ClockConfig(&RCC_ClkInitStruct, FLASH_LATENCY_2) != HAL_OK)
 80011d4:	f107 030c 	add.w	r3, r7, #12
 80011d8:	2102      	movs	r1, #2
 80011da:	4618      	mov	r0, r3
 80011dc:	f002 fd24 	bl	8003c28 <HAL_RCC_ClockConfig>
 80011e0:	4603      	mov	r3, r0
 80011e2:	2b00      	cmp	r3, #0
 80011e4:	d001      	beq.n	80011ea <SystemClock_Config+0xc2>
  {
    Error_Handler();
 80011e6:	f000 f81b 	bl	8001220 <Error_Handler>
  }
}
 80011ea:	bf00      	nop
 80011ec:	3750      	adds	r7, #80	; 0x50
 80011ee:	46bd      	mov	sp, r7
 80011f0:	bd80      	pop	{r7, pc}
 80011f2:	bf00      	nop
 80011f4:	40023800 	.word	0x40023800
 80011f8:	40007000 	.word	0x40007000

080011fc <HAL_TIM_PeriodElapsedCallback>:
  * a global variable "uwTick" used as application time base.
  * @param  htim : TIM handle
  * @retval None
  */
void HAL_TIM_PeriodElapsedCallback(TIM_HandleTypeDef *htim)
{
 80011fc:	b580      	push	{r7, lr}
 80011fe:	b082      	sub	sp, #8
 8001200:	af00      	add	r7, sp, #0
 8001202:	6078      	str	r0, [r7, #4]
  /* USER CODE BEGIN Callback 0 */

  /* USER CODE END Callback 0 */
  if (htim->Instance == TIM10) {
 8001204:	687b      	ldr	r3, [r7, #4]
 8001206:	681b      	ldr	r3, [r3, #0]
 8001208:	4a04      	ldr	r2, [pc, #16]	; (800121c <HAL_TIM_PeriodElapsedCallback+0x20>)
 800120a:	4293      	cmp	r3, r2
 800120c:	d101      	bne.n	8001212 <HAL_TIM_PeriodElapsedCallback+0x16>
    HAL_IncTick();
 800120e:	f001 fe09 	bl	8002e24 <HAL_IncTick>
  }
  /* USER CODE BEGIN Callback 1 */

  /* USER CODE END Callback 1 */
}
 8001212:	bf00      	nop
 8001214:	3708      	adds	r7, #8
 8001216:	46bd      	mov	sp, r7
 8001218:	bd80      	pop	{r7, pc}
 800121a:	bf00      	nop
 800121c:	40014400 	.word	0x40014400

08001220 <Error_Handler>:
/**
  * @brief  This function is executed in case of error occurrence.
  * @retval None
  */
void Error_Handler(void)
{
 8001220:	b480      	push	{r7}
 8001222:	af00      	add	r7, sp, #0
  \details Disables IRQ interrupts by setting the I-bit in the CPSR.
           Can only be executed in Privileged modes.
 */
__STATIC_FORCEINLINE void __disable_irq(void)
{
  __ASM volatile ("cpsid i" : : : "memory");
 8001224:	b672      	cpsid	i
  /* USER CODE BEGIN Error_Handler_Debug */
  /* User can add his own implementation to report the HAL error return state */
  __disable_irq();
  while (1)
 8001226:	e7fe      	b.n	8001226 <Error_Handler+0x6>

08001228 <_out_null>:
}


// internal null output
static inline void _out_null(char character, void* buffer, size_t idx, size_t maxlen)
{
 8001228:	b480      	push	{r7}
 800122a:	b085      	sub	sp, #20
 800122c:	af00      	add	r7, sp, #0
 800122e:	60b9      	str	r1, [r7, #8]
 8001230:	607a      	str	r2, [r7, #4]
 8001232:	603b      	str	r3, [r7, #0]
 8001234:	4603      	mov	r3, r0
 8001236:	73fb      	strb	r3, [r7, #15]
  (void)character; (void)buffer; (void)idx; (void)maxlen;
}
 8001238:	bf00      	nop
 800123a:	3714      	adds	r7, #20
 800123c:	46bd      	mov	sp, r7
 800123e:	f85d 7b04 	ldr.w	r7, [sp], #4
 8001242:	4770      	bx	lr

08001244 <_out_char>:


// internal _putchar wrapper
static inline void _out_char(char character, void* buffer, size_t idx, size_t maxlen)
{
 8001244:	b580      	push	{r7, lr}
 8001246:	b084      	sub	sp, #16
 8001248:	af00      	add	r7, sp, #0
 800124a:	60b9      	str	r1, [r7, #8]
 800124c:	607a      	str	r2, [r7, #4]
 800124e:	603b      	str	r3, [r7, #0]
 8001250:	4603      	mov	r3, r0
 8001252:	73fb      	strb	r3, [r7, #15]
  (void)buffer; (void)idx; (void)maxlen;
  if (character) {
 8001254:	7bfb      	ldrb	r3, [r7, #15]
 8001256:	2b00      	cmp	r3, #0
 8001258:	d003      	beq.n	8001262 <_out_char+0x1e>
    _putchar(character);
 800125a:	7bfb      	ldrb	r3, [r7, #15]
 800125c:	4618      	mov	r0, r3
 800125e:	f7ff fea5 	bl	8000fac <_putchar>
  }
}
 8001262:	bf00      	nop
 8001264:	3710      	adds	r7, #16
 8001266:	46bd      	mov	sp, r7
 8001268:	bd80      	pop	{r7, pc}

0800126a <_strnlen_s>:


// internal secure strlen
// \return The length of the string (excluding the terminating 0) limited by 'maxsize'
static inline unsigned int _strnlen_s(const char* str, size_t maxsize)
{
 800126a:	b480      	push	{r7}
 800126c:	b085      	sub	sp, #20
 800126e:	af00      	add	r7, sp, #0
 8001270:	6078      	str	r0, [r7, #4]
 8001272:	6039      	str	r1, [r7, #0]
  const char* s;
  for (s = str; *s && maxsize--; ++s);
 8001274:	687b      	ldr	r3, [r7, #4]
 8001276:	60fb      	str	r3, [r7, #12]
 8001278:	e002      	b.n	8001280 <_strnlen_s+0x16>
 800127a:	68fb      	ldr	r3, [r7, #12]
 800127c:	3301      	adds	r3, #1
 800127e:	60fb      	str	r3, [r7, #12]
 8001280:	68fb      	ldr	r3, [r7, #12]
 8001282:	781b      	ldrb	r3, [r3, #0]
 8001284:	2b00      	cmp	r3, #0
 8001286:	d004      	beq.n	8001292 <_strnlen_s+0x28>
 8001288:	683b      	ldr	r3, [r7, #0]
 800128a:	1e5a      	subs	r2, r3, #1
 800128c:	603a      	str	r2, [r7, #0]
 800128e:	2b00      	cmp	r3, #0
 8001290:	d1f3      	bne.n	800127a <_strnlen_s+0x10>
  return (unsigned int)(s - str);
 8001292:	68fa      	ldr	r2, [r7, #12]
 8001294:	687b      	ldr	r3, [r7, #4]
 8001296:	1ad3      	subs	r3, r2, r3
}
 8001298:	4618      	mov	r0, r3
 800129a:	3714      	adds	r7, #20
 800129c:	46bd      	mov	sp, r7
 800129e:	f85d 7b04 	ldr.w	r7, [sp], #4
 80012a2:	4770      	bx	lr

080012a4 <_is_digit>:


// internal test if char is a digit (0-9)
// \return true if char is a digit
static inline bool _is_digit(char ch)
{
 80012a4:	b480      	push	{r7}
 80012a6:	b083      	sub	sp, #12
 80012a8:	af00      	add	r7, sp, #0
 80012aa:	4603      	mov	r3, r0
 80012ac:	71fb      	strb	r3, [r7, #7]
  return (ch >= '0') && (ch <= '9');
 80012ae:	79fb      	ldrb	r3, [r7, #7]
 80012b0:	2b2f      	cmp	r3, #47	; 0x2f
 80012b2:	d904      	bls.n	80012be <_is_digit+0x1a>
 80012b4:	79fb      	ldrb	r3, [r7, #7]
 80012b6:	2b39      	cmp	r3, #57	; 0x39
 80012b8:	d801      	bhi.n	80012be <_is_digit+0x1a>
 80012ba:	2301      	movs	r3, #1
 80012bc:	e000      	b.n	80012c0 <_is_digit+0x1c>
 80012be:	2300      	movs	r3, #0
 80012c0:	f003 0301 	and.w	r3, r3, #1
 80012c4:	b2db      	uxtb	r3, r3
}
 80012c6:	4618      	mov	r0, r3
 80012c8:	370c      	adds	r7, #12
 80012ca:	46bd      	mov	sp, r7
 80012cc:	f85d 7b04 	ldr.w	r7, [sp], #4
 80012d0:	4770      	bx	lr

080012d2 <_atoi>:


// internal ASCII string to unsigned int conversion
static unsigned int _atoi(const char** str)
{
 80012d2:	b580      	push	{r7, lr}
 80012d4:	b084      	sub	sp, #16
 80012d6:	af00      	add	r7, sp, #0
 80012d8:	6078      	str	r0, [r7, #4]
  unsigned int i = 0U;
 80012da:	2300      	movs	r3, #0
 80012dc:	60fb      	str	r3, [r7, #12]
  while (_is_digit(**str)) {
 80012de:	e00e      	b.n	80012fe <_atoi+0x2c>
    i = i * 10U + (unsigned int)(*((*str)++) - '0');
 80012e0:	68fa      	ldr	r2, [r7, #12]
 80012e2:	4613      	mov	r3, r2
 80012e4:	009b      	lsls	r3, r3, #2
 80012e6:	4413      	add	r3, r2
 80012e8:	005b      	lsls	r3, r3, #1
 80012ea:	4618      	mov	r0, r3
 80012ec:	687b      	ldr	r3, [r7, #4]
 80012ee:	681b      	ldr	r3, [r3, #0]
 80012f0:	1c59      	adds	r1, r3, #1
 80012f2:	687a      	ldr	r2, [r7, #4]
 80012f4:	6011      	str	r1, [r2, #0]
 80012f6:	781b      	ldrb	r3, [r3, #0]
 80012f8:	4403      	add	r3, r0
 80012fa:	3b30      	subs	r3, #48	; 0x30
 80012fc:	60fb      	str	r3, [r7, #12]
  while (_is_digit(**str)) {
 80012fe:	687b      	ldr	r3, [r7, #4]
 8001300:	681b      	ldr	r3, [r3, #0]
 8001302:	781b      	ldrb	r3, [r3, #0]
 8001304:	4618      	mov	r0, r3
 8001306:	f7ff ffcd 	bl	80012a4 <_is_digit>
 800130a:	4603      	mov	r3, r0
 800130c:	2b00      	cmp	r3, #0
 800130e:	d1e7      	bne.n	80012e0 <_atoi+0xe>
  }
  return i;
 8001310:	68fb      	ldr	r3, [r7, #12]
}
 8001312:	4618      	mov	r0, r3
 8001314:	3710      	adds	r7, #16
 8001316:	46bd      	mov	sp, r7
 8001318:	bd80      	pop	{r7, pc}

0800131a <_out_rev>:


// output the specified string in reverse, taking care of any zero-padding
static size_t _out_rev(out_fct_type out, char* buffer, size_t idx, size_t maxlen, const char* buf, size_t len, unsigned int width, unsigned int flags)
{
 800131a:	b590      	push	{r4, r7, lr}
 800131c:	b087      	sub	sp, #28
 800131e:	af00      	add	r7, sp, #0
 8001320:	60f8      	str	r0, [r7, #12]
 8001322:	60b9      	str	r1, [r7, #8]
 8001324:	607a      	str	r2, [r7, #4]
 8001326:	603b      	str	r3, [r7, #0]
  const size_t start_idx = idx;
 8001328:	687b      	ldr	r3, [r7, #4]
 800132a:	613b      	str	r3, [r7, #16]

  // pad spaces up to given width
  if (!(flags & FLAGS_LEFT) && !(flags & FLAGS_ZEROPAD)) {
 800132c:	6b7b      	ldr	r3, [r7, #52]	; 0x34
 800132e:	f003 0302 	and.w	r3, r3, #2
 8001332:	2b00      	cmp	r3, #0
 8001334:	d125      	bne.n	8001382 <_out_rev+0x68>
 8001336:	6b7b      	ldr	r3, [r7, #52]	; 0x34
 8001338:	f003 0301 	and.w	r3, r3, #1
 800133c:	2b00      	cmp	r3, #0
 800133e:	d120      	bne.n	8001382 <_out_rev+0x68>
    for (size_t i = len; i < width; i++) {
 8001340:	6afb      	ldr	r3, [r7, #44]	; 0x2c
 8001342:	617b      	str	r3, [r7, #20]
 8001344:	e00a      	b.n	800135c <_out_rev+0x42>
      out(' ', buffer, idx++, maxlen);
 8001346:	687a      	ldr	r2, [r7, #4]
 8001348:	1c53      	adds	r3, r2, #1
 800134a:	607b      	str	r3, [r7, #4]
 800134c:	68fc      	ldr	r4, [r7, #12]
 800134e:	683b      	ldr	r3, [r7, #0]
 8001350:	68b9      	ldr	r1, [r7, #8]
 8001352:	2020      	movs	r0, #32
 8001354:	47a0      	blx	r4
    for (size_t i = len; i < width; i++) {
 8001356:	697b      	ldr	r3, [r7, #20]
 8001358:	3301      	adds	r3, #1
 800135a:	617b      	str	r3, [r7, #20]
 800135c:	697a      	ldr	r2, [r7, #20]
 800135e:	6b3b      	ldr	r3, [r7, #48]	; 0x30
 8001360:	429a      	cmp	r2, r3
 8001362:	d3f0      	bcc.n	8001346 <_out_rev+0x2c>
    }
  }

  // reverse string
  while (len) {
 8001364:	e00d      	b.n	8001382 <_out_rev+0x68>
    out(buf[--len], buffer, idx++, maxlen);
 8001366:	6afb      	ldr	r3, [r7, #44]	; 0x2c
 8001368:	3b01      	subs	r3, #1
 800136a:	62fb      	str	r3, [r7, #44]	; 0x2c
 800136c:	6aba      	ldr	r2, [r7, #40]	; 0x28
 800136e:	6afb      	ldr	r3, [r7, #44]	; 0x2c
 8001370:	4413      	add	r3, r2
 8001372:	7818      	ldrb	r0, [r3, #0]
 8001374:	687a      	ldr	r2, [r7, #4]
 8001376:	1c53      	adds	r3, r2, #1
 8001378:	607b      	str	r3, [r7, #4]
 800137a:	68fc      	ldr	r4, [r7, #12]
 800137c:	683b      	ldr	r3, [r7, #0]
 800137e:	68b9      	ldr	r1, [r7, #8]
 8001380:	47a0      	blx	r4
  while (len) {
 8001382:	6afb      	ldr	r3, [r7, #44]	; 0x2c
 8001384:	2b00      	cmp	r3, #0
 8001386:	d1ee      	bne.n	8001366 <_out_rev+0x4c>
  }

  // append pad spaces up to given width
  if (flags & FLAGS_LEFT) {
 8001388:	6b7b      	ldr	r3, [r7, #52]	; 0x34
 800138a:	f003 0302 	and.w	r3, r3, #2
 800138e:	2b00      	cmp	r3, #0
 8001390:	d00e      	beq.n	80013b0 <_out_rev+0x96>
    while (idx - start_idx < width) {
 8001392:	e007      	b.n	80013a4 <_out_rev+0x8a>
      out(' ', buffer, idx++, maxlen);
 8001394:	687a      	ldr	r2, [r7, #4]
 8001396:	1c53      	adds	r3, r2, #1
 8001398:	607b      	str	r3, [r7, #4]
 800139a:	68fc      	ldr	r4, [r7, #12]
 800139c:	683b      	ldr	r3, [r7, #0]
 800139e:	68b9      	ldr	r1, [r7, #8]
 80013a0:	2020      	movs	r0, #32
 80013a2:	47a0      	blx	r4
    while (idx - start_idx < width) {
 80013a4:	687a      	ldr	r2, [r7, #4]
 80013a6:	693b      	ldr	r3, [r7, #16]
 80013a8:	1ad3      	subs	r3, r2, r3
 80013aa:	6b3a      	ldr	r2, [r7, #48]	; 0x30
 80013ac:	429a      	cmp	r2, r3
 80013ae:	d8f1      	bhi.n	8001394 <_out_rev+0x7a>
    }
  }

  return idx;
 80013b0:	687b      	ldr	r3, [r7, #4]
}
 80013b2:	4618      	mov	r0, r3
 80013b4:	371c      	adds	r7, #28
 80013b6:	46bd      	mov	sp, r7
 80013b8:	bd90      	pop	{r4, r7, pc}

080013ba <_ntoa_format>:


// internal itoa format
static size_t _ntoa_format(out_fct_type out, char* buffer, size_t idx, size_t maxlen, char* buf, size_t len, bool negative, unsigned int base, unsigned int prec, unsigned int width, unsigned int flags)
{
 80013ba:	b580      	push	{r7, lr}
 80013bc:	b088      	sub	sp, #32
 80013be:	af04      	add	r7, sp, #16
 80013c0:	60f8      	str	r0, [r7, #12]
 80013c2:	60b9      	str	r1, [r7, #8]
 80013c4:	607a      	str	r2, [r7, #4]
 80013c6:	603b      	str	r3, [r7, #0]
  // pad leading zeros
  if (!(flags & FLAGS_LEFT)) {
 80013c8:	6b3b      	ldr	r3, [r7, #48]	; 0x30
 80013ca:	f003 0302 	and.w	r3, r3, #2
 80013ce:	2b00      	cmp	r3, #0
 80013d0:	d136      	bne.n	8001440 <_ntoa_format+0x86>
    if (width && (flags & FLAGS_ZEROPAD) && (negative || (flags & (FLAGS_PLUS | FLAGS_SPACE)))) {
 80013d2:	6afb      	ldr	r3, [r7, #44]	; 0x2c
 80013d4:	2b00      	cmp	r3, #0
 80013d6:	d018      	beq.n	800140a <_ntoa_format+0x50>
 80013d8:	6b3b      	ldr	r3, [r7, #48]	; 0x30
 80013da:	f003 0301 	and.w	r3, r3, #1
 80013de:	2b00      	cmp	r3, #0
 80013e0:	d013      	beq.n	800140a <_ntoa_format+0x50>
 80013e2:	f897 3020 	ldrb.w	r3, [r7, #32]
 80013e6:	2b00      	cmp	r3, #0
 80013e8:	d104      	bne.n	80013f4 <_ntoa_format+0x3a>
 80013ea:	6b3b      	ldr	r3, [r7, #48]	; 0x30
 80013ec:	f003 030c 	and.w	r3, r3, #12
 80013f0:	2b00      	cmp	r3, #0
 80013f2:	d00a      	beq.n	800140a <_ntoa_format+0x50>
      width--;
 80013f4:	6afb      	ldr	r3, [r7, #44]	; 0x2c
 80013f6:	3b01      	subs	r3, #1
 80013f8:	62fb      	str	r3, [r7, #44]	; 0x2c
    }
    while ((len < prec) && (len < PRINTF_NTOA_BUFFER_SIZE)) {
 80013fa:	e006      	b.n	800140a <_ntoa_format+0x50>
      buf[len++] = '0';
 80013fc:	69fb      	ldr	r3, [r7, #28]
 80013fe:	1c5a      	adds	r2, r3, #1
 8001400:	61fa      	str	r2, [r7, #28]
 8001402:	69ba      	ldr	r2, [r7, #24]
 8001404:	4413      	add	r3, r2
 8001406:	2230      	movs	r2, #48	; 0x30
 8001408:	701a      	strb	r2, [r3, #0]
    while ((len < prec) && (len < PRINTF_NTOA_BUFFER_SIZE)) {
 800140a:	69fa      	ldr	r2, [r7, #28]
 800140c:	6abb      	ldr	r3, [r7, #40]	; 0x28
 800140e:	429a      	cmp	r2, r3
 8001410:	d20a      	bcs.n	8001428 <_ntoa_format+0x6e>
 8001412:	69fb      	ldr	r3, [r7, #28]
 8001414:	2b1f      	cmp	r3, #31
 8001416:	d9f1      	bls.n	80013fc <_ntoa_format+0x42>
    }
    while ((flags & FLAGS_ZEROPAD) && (len < width) && (len < PRINTF_NTOA_BUFFER_SIZE)) {
 8001418:	e006      	b.n	8001428 <_ntoa_format+0x6e>
      buf[len++] = '0';
 800141a:	69fb      	ldr	r3, [r7, #28]
 800141c:	1c5a      	adds	r2, r3, #1
 800141e:	61fa      	str	r2, [r7, #28]
 8001420:	69ba      	ldr	r2, [r7, #24]
 8001422:	4413      	add	r3, r2
 8001424:	2230      	movs	r2, #48	; 0x30
 8001426:	701a      	strb	r2, [r3, #0]
    while ((flags & FLAGS_ZEROPAD) && (len < width) && (len < PRINTF_NTOA_BUFFER_SIZE)) {
 8001428:	6b3b      	ldr	r3, [r7, #48]	; 0x30
 800142a:	f003 0301 	and.w	r3, r3, #1
 800142e:	2b00      	cmp	r3, #0
 8001430:	d006      	beq.n	8001440 <_ntoa_format+0x86>
 8001432:	69fa      	ldr	r2, [r7, #28]
 8001434:	6afb      	ldr	r3, [r7, #44]	; 0x2c
 8001436:	429a      	cmp	r2, r3
 8001438:	d202      	bcs.n	8001440 <_ntoa_format+0x86>
 800143a:	69fb      	ldr	r3, [r7, #28]
 800143c:	2b1f      	cmp	r3, #31
 800143e:	d9ec      	bls.n	800141a <_ntoa_format+0x60>
    }
  }

  // handle hash
  if (flags & FLAGS_HASH) {
 8001440:	6b3b      	ldr	r3, [r7, #48]	; 0x30
 8001442:	f003 0310 	and.w	r3, r3, #16
 8001446:	2b00      	cmp	r3, #0
 8001448:	d058      	beq.n	80014fc <_ntoa_format+0x142>
    if (!(flags & FLAGS_PRECISION) && len && ((len == prec) || (len == width))) {
 800144a:	6b3b      	ldr	r3, [r7, #48]	; 0x30
 800144c:	f403 6380 	and.w	r3, r3, #1024	; 0x400
 8001450:	2b00      	cmp	r3, #0
 8001452:	d116      	bne.n	8001482 <_ntoa_format+0xc8>
 8001454:	69fb      	ldr	r3, [r7, #28]
 8001456:	2b00      	cmp	r3, #0
 8001458:	d013      	beq.n	8001482 <_ntoa_format+0xc8>
 800145a:	69fa      	ldr	r2, [r7, #28]
 800145c:	6abb      	ldr	r3, [r7, #40]	; 0x28
 800145e:	429a      	cmp	r2, r3
 8001460:	d003      	beq.n	800146a <_ntoa_format+0xb0>
 8001462:	69fa      	ldr	r2, [r7, #28]
 8001464:	6afb      	ldr	r3, [r7, #44]	; 0x2c
 8001466:	429a      	cmp	r2, r3
 8001468:	d10b      	bne.n	8001482 <_ntoa_format+0xc8>
      len--;
 800146a:	69fb      	ldr	r3, [r7, #28]
 800146c:	3b01      	subs	r3, #1
 800146e:	61fb      	str	r3, [r7, #28]
      if (len && (base == 16U)) {
 8001470:	69fb      	ldr	r3, [r7, #28]
 8001472:	2b00      	cmp	r3, #0
 8001474:	d005      	beq.n	8001482 <_ntoa_format+0xc8>
 8001476:	6a7b      	ldr	r3, [r7, #36]	; 0x24
 8001478:	2b10      	cmp	r3, #16
 800147a:	d102      	bne.n	8001482 <_ntoa_format+0xc8>
        len--;
 800147c:	69fb      	ldr	r3, [r7, #28]
 800147e:	3b01      	subs	r3, #1
 8001480:	61fb      	str	r3, [r7, #28]
      }
    }
    if ((base == 16U) && !(flags & FLAGS_UPPERCASE) && (len < PRINTF_NTOA_BUFFER_SIZE)) {
 8001482:	6a7b      	ldr	r3, [r7, #36]	; 0x24
 8001484:	2b10      	cmp	r3, #16
 8001486:	d10f      	bne.n	80014a8 <_ntoa_format+0xee>
 8001488:	6b3b      	ldr	r3, [r7, #48]	; 0x30
 800148a:	f003 0320 	and.w	r3, r3, #32
 800148e:	2b00      	cmp	r3, #0
 8001490:	d10a      	bne.n	80014a8 <_ntoa_format+0xee>
 8001492:	69fb      	ldr	r3, [r7, #28]
 8001494:	2b1f      	cmp	r3, #31
 8001496:	d807      	bhi.n	80014a8 <_ntoa_format+0xee>
      buf[len++] = 'x';
 8001498:	69fb      	ldr	r3, [r7, #28]
 800149a:	1c5a      	adds	r2, r3, #1
 800149c:	61fa      	str	r2, [r7, #28]
 800149e:	69ba      	ldr	r2, [r7, #24]
 80014a0:	4413      	add	r3, r2
 80014a2:	2278      	movs	r2, #120	; 0x78
 80014a4:	701a      	strb	r2, [r3, #0]
 80014a6:	e01f      	b.n	80014e8 <_ntoa_format+0x12e>
    }
    else if ((base == 16U) && (flags & FLAGS_UPPERCASE) && (len < PRINTF_NTOA_BUFFER_SIZE)) {
 80014a8:	6a7b      	ldr	r3, [r7, #36]	; 0x24
 80014aa:	2b10      	cmp	r3, #16
 80014ac:	d10f      	bne.n	80014ce <_ntoa_format+0x114>
 80014ae:	6b3b      	ldr	r3, [r7, #48]	; 0x30
 80014b0:	f003 0320 	and.w	r3, r3, #32
 80014b4:	2b00      	cmp	r3, #0
 80014b6:	d00a      	beq.n	80014ce <_ntoa_format+0x114>
 80014b8:	69fb      	ldr	r3, [r7, #28]
 80014ba:	2b1f      	cmp	r3, #31
 80014bc:	d807      	bhi.n	80014ce <_ntoa_format+0x114>
      buf[len++] = 'X';
 80014be:	69fb      	ldr	r3, [r7, #28]
 80014c0:	1c5a      	adds	r2, r3, #1
 80014c2:	61fa      	str	r2, [r7, #28]
 80014c4:	69ba      	ldr	r2, [r7, #24]
 80014c6:	4413      	add	r3, r2
 80014c8:	2258      	movs	r2, #88	; 0x58
 80014ca:	701a      	strb	r2, [r3, #0]
 80014cc:	e00c      	b.n	80014e8 <_ntoa_format+0x12e>
    }
    else if ((base == 2U) && (len < PRINTF_NTOA_BUFFER_SIZE)) {
 80014ce:	6a7b      	ldr	r3, [r7, #36]	; 0x24
 80014d0:	2b02      	cmp	r3, #2
 80014d2:	d109      	bne.n	80014e8 <_ntoa_format+0x12e>
 80014d4:	69fb      	ldr	r3, [r7, #28]
 80014d6:	2b1f      	cmp	r3, #31
 80014d8:	d806      	bhi.n	80014e8 <_ntoa_format+0x12e>
      buf[len++] = 'b';
 80014da:	69fb      	ldr	r3, [r7, #28]
 80014dc:	1c5a      	adds	r2, r3, #1
 80014de:	61fa      	str	r2, [r7, #28]
 80014e0:	69ba      	ldr	r2, [r7, #24]
 80014e2:	4413      	add	r3, r2
 80014e4:	2262      	movs	r2, #98	; 0x62
 80014e6:	701a      	strb	r2, [r3, #0]
    }
    if (len < PRINTF_NTOA_BUFFER_SIZE) {
 80014e8:	69fb      	ldr	r3, [r7, #28]
 80014ea:	2b1f      	cmp	r3, #31
 80014ec:	d806      	bhi.n	80014fc <_ntoa_format+0x142>
      buf[len++] = '0';
 80014ee:	69fb      	ldr	r3, [r7, #28]
 80014f0:	1c5a      	adds	r2, r3, #1
 80014f2:	61fa      	str	r2, [r7, #28]
 80014f4:	69ba      	ldr	r2, [r7, #24]
 80014f6:	4413      	add	r3, r2
 80014f8:	2230      	movs	r2, #48	; 0x30
 80014fa:	701a      	strb	r2, [r3, #0]
    }
  }

  if (len < PRINTF_NTOA_BUFFER_SIZE) {
 80014fc:	69fb      	ldr	r3, [r7, #28]
 80014fe:	2b1f      	cmp	r3, #31
 8001500:	d824      	bhi.n	800154c <_ntoa_format+0x192>
    if (negative) {
 8001502:	f897 3020 	ldrb.w	r3, [r7, #32]
 8001506:	2b00      	cmp	r3, #0
 8001508:	d007      	beq.n	800151a <_ntoa_format+0x160>
      buf[len++] = '-';
 800150a:	69fb      	ldr	r3, [r7, #28]
 800150c:	1c5a      	adds	r2, r3, #1
 800150e:	61fa      	str	r2, [r7, #28]
 8001510:	69ba      	ldr	r2, [r7, #24]
 8001512:	4413      	add	r3, r2
 8001514:	222d      	movs	r2, #45	; 0x2d
 8001516:	701a      	strb	r2, [r3, #0]
 8001518:	e018      	b.n	800154c <_ntoa_format+0x192>
    }
    else if (flags & FLAGS_PLUS) {
 800151a:	6b3b      	ldr	r3, [r7, #48]	; 0x30
 800151c:	f003 0304 	and.w	r3, r3, #4
 8001520:	2b00      	cmp	r3, #0
 8001522:	d007      	beq.n	8001534 <_ntoa_format+0x17a>
      buf[len++] = '+';  // ignore the space if the '+' exists
 8001524:	69fb      	ldr	r3, [r7, #28]
 8001526:	1c5a      	adds	r2, r3, #1
 8001528:	61fa      	str	r2, [r7, #28]
 800152a:	69ba      	ldr	r2, [r7, #24]
 800152c:	4413      	add	r3, r2
 800152e:	222b      	movs	r2, #43	; 0x2b
 8001530:	701a      	strb	r2, [r3, #0]
 8001532:	e00b      	b.n	800154c <_ntoa_format+0x192>
    }
    else if (flags & FLAGS_SPACE) {
 8001534:	6b3b      	ldr	r3, [r7, #48]	; 0x30
 8001536:	f003 0308 	and.w	r3, r3, #8
 800153a:	2b00      	cmp	r3, #0
 800153c:	d006      	beq.n	800154c <_ntoa_format+0x192>
      buf[len++] = ' ';
 800153e:	69fb      	ldr	r3, [r7, #28]
 8001540:	1c5a      	adds	r2, r3, #1
 8001542:	61fa      	str	r2, [r7, #28]
 8001544:	69ba      	ldr	r2, [r7, #24]
 8001546:	4413      	add	r3, r2
 8001548:	2220      	movs	r2, #32
 800154a:	701a      	strb	r2, [r3, #0]
    }
  }

  return _out_rev(out, buffer, idx, maxlen, buf, len, width, flags);
 800154c:	6b3b      	ldr	r3, [r7, #48]	; 0x30
 800154e:	9303      	str	r3, [sp, #12]
 8001550:	6afb      	ldr	r3, [r7, #44]	; 0x2c
 8001552:	9302      	str	r3, [sp, #8]
 8001554:	69fb      	ldr	r3, [r7, #28]
 8001556:	9301      	str	r3, [sp, #4]
 8001558:	69bb      	ldr	r3, [r7, #24]
 800155a:	9300      	str	r3, [sp, #0]
 800155c:	683b      	ldr	r3, [r7, #0]
 800155e:	687a      	ldr	r2, [r7, #4]
 8001560:	68b9      	ldr	r1, [r7, #8]
 8001562:	68f8      	ldr	r0, [r7, #12]
 8001564:	f7ff fed9 	bl	800131a <_out_rev>
 8001568:	4603      	mov	r3, r0
}
 800156a:	4618      	mov	r0, r3
 800156c:	3710      	adds	r7, #16
 800156e:	46bd      	mov	sp, r7
 8001570:	bd80      	pop	{r7, pc}

08001572 <_ntoa_long>:


// internal itoa for 'long' type
static size_t _ntoa_long(out_fct_type out, char* buffer, size_t idx, size_t maxlen, unsigned long value, bool negative, unsigned long base, unsigned int prec, unsigned int width, unsigned int flags)
{
 8001572:	b580      	push	{r7, lr}
 8001574:	b096      	sub	sp, #88	; 0x58
 8001576:	af08      	add	r7, sp, #32
 8001578:	60f8      	str	r0, [r7, #12]
 800157a:	60b9      	str	r1, [r7, #8]
 800157c:	607a      	str	r2, [r7, #4]
 800157e:	603b      	str	r3, [r7, #0]
  char buf[PRINTF_NTOA_BUFFER_SIZE];
  size_t len = 0U;
 8001580:	2300      	movs	r3, #0
 8001582:	637b      	str	r3, [r7, #52]	; 0x34

  // no hash for 0 values
  if (!value) {
 8001584:	6c3b      	ldr	r3, [r7, #64]	; 0x40
 8001586:	2b00      	cmp	r3, #0
 8001588:	d103      	bne.n	8001592 <_ntoa_long+0x20>
    flags &= ~FLAGS_HASH;
 800158a:	6d7b      	ldr	r3, [r7, #84]	; 0x54
 800158c:	f023 0310 	bic.w	r3, r3, #16
 8001590:	657b      	str	r3, [r7, #84]	; 0x54
  }

  // write if precision != 0 and value is != 0
  if (!(flags & FLAGS_PRECISION) || value) {
 8001592:	6d7b      	ldr	r3, [r7, #84]	; 0x54
 8001594:	f403 6380 	and.w	r3, r3, #1024	; 0x400
 8001598:	2b00      	cmp	r3, #0
 800159a:	d002      	beq.n	80015a2 <_ntoa_long+0x30>
 800159c:	6c3b      	ldr	r3, [r7, #64]	; 0x40
 800159e:	2b00      	cmp	r3, #0
 80015a0:	d033      	beq.n	800160a <_ntoa_long+0x98>
    do {
      const char digit = (char)(value % base);
 80015a2:	6c3b      	ldr	r3, [r7, #64]	; 0x40
 80015a4:	6cba      	ldr	r2, [r7, #72]	; 0x48
 80015a6:	fbb3 f2f2 	udiv	r2, r3, r2
 80015aa:	6cb9      	ldr	r1, [r7, #72]	; 0x48
 80015ac:	fb01 f202 	mul.w	r2, r1, r2
 80015b0:	1a9b      	subs	r3, r3, r2
 80015b2:	f887 3033 	strb.w	r3, [r7, #51]	; 0x33
      buf[len++] = digit < 10 ? '0' + digit : (flags & FLAGS_UPPERCASE ? 'A' : 'a') + digit - 10;
 80015b6:	f897 3033 	ldrb.w	r3, [r7, #51]	; 0x33
 80015ba:	2b09      	cmp	r3, #9
 80015bc:	d804      	bhi.n	80015c8 <_ntoa_long+0x56>
 80015be:	f897 3033 	ldrb.w	r3, [r7, #51]	; 0x33
 80015c2:	3330      	adds	r3, #48	; 0x30
 80015c4:	b2da      	uxtb	r2, r3
 80015c6:	e00d      	b.n	80015e4 <_ntoa_long+0x72>
 80015c8:	6d7b      	ldr	r3, [r7, #84]	; 0x54
 80015ca:	f003 0320 	and.w	r3, r3, #32
 80015ce:	2b00      	cmp	r3, #0
 80015d0:	d001      	beq.n	80015d6 <_ntoa_long+0x64>
 80015d2:	2241      	movs	r2, #65	; 0x41
 80015d4:	e000      	b.n	80015d8 <_ntoa_long+0x66>
 80015d6:	2261      	movs	r2, #97	; 0x61
 80015d8:	f897 3033 	ldrb.w	r3, [r7, #51]	; 0x33
 80015dc:	4413      	add	r3, r2
 80015de:	b2db      	uxtb	r3, r3
 80015e0:	3b0a      	subs	r3, #10
 80015e2:	b2da      	uxtb	r2, r3
 80015e4:	6b7b      	ldr	r3, [r7, #52]	; 0x34
 80015e6:	1c59      	adds	r1, r3, #1
 80015e8:	6379      	str	r1, [r7, #52]	; 0x34
 80015ea:	f107 0138 	add.w	r1, r7, #56	; 0x38
 80015ee:	440b      	add	r3, r1
 80015f0:	f803 2c28 	strb.w	r2, [r3, #-40]
      value /= base;
 80015f4:	6c3a      	ldr	r2, [r7, #64]	; 0x40
 80015f6:	6cbb      	ldr	r3, [r7, #72]	; 0x48
 80015f8:	fbb2 f3f3 	udiv	r3, r2, r3
 80015fc:	643b      	str	r3, [r7, #64]	; 0x40
    } while (value && (len < PRINTF_NTOA_BUFFER_SIZE));
 80015fe:	6c3b      	ldr	r3, [r7, #64]	; 0x40
 8001600:	2b00      	cmp	r3, #0
 8001602:	d002      	beq.n	800160a <_ntoa_long+0x98>
 8001604:	6b7b      	ldr	r3, [r7, #52]	; 0x34
 8001606:	2b1f      	cmp	r3, #31
 8001608:	d9cb      	bls.n	80015a2 <_ntoa_long+0x30>
  }

  return _ntoa_format(out, buffer, idx, maxlen, buf, len, negative, (unsigned int)base, prec, width, flags);
 800160a:	6d7b      	ldr	r3, [r7, #84]	; 0x54
 800160c:	9306      	str	r3, [sp, #24]
 800160e:	6d3b      	ldr	r3, [r7, #80]	; 0x50
 8001610:	9305      	str	r3, [sp, #20]
 8001612:	6cfb      	ldr	r3, [r7, #76]	; 0x4c
 8001614:	9304      	str	r3, [sp, #16]
 8001616:	6cbb      	ldr	r3, [r7, #72]	; 0x48
 8001618:	9303      	str	r3, [sp, #12]
 800161a:	f897 3044 	ldrb.w	r3, [r7, #68]	; 0x44
 800161e:	9302      	str	r3, [sp, #8]
 8001620:	6b7b      	ldr	r3, [r7, #52]	; 0x34
 8001622:	9301      	str	r3, [sp, #4]
 8001624:	f107 0310 	add.w	r3, r7, #16
 8001628:	9300      	str	r3, [sp, #0]
 800162a:	683b      	ldr	r3, [r7, #0]
 800162c:	687a      	ldr	r2, [r7, #4]
 800162e:	68b9      	ldr	r1, [r7, #8]
 8001630:	68f8      	ldr	r0, [r7, #12]
 8001632:	f7ff fec2 	bl	80013ba <_ntoa_format>
 8001636:	4603      	mov	r3, r0
}
 8001638:	4618      	mov	r0, r3
 800163a:	3738      	adds	r7, #56	; 0x38
 800163c:	46bd      	mov	sp, r7
 800163e:	bd80      	pop	{r7, pc}

08001640 <_ntoa_long_long>:


// internal itoa for 'long long' type
#if defined(PRINTF_SUPPORT_LONG_LONG)
static size_t _ntoa_long_long(out_fct_type out, char* buffer, size_t idx, size_t maxlen, unsigned long long value, bool negative, unsigned long long base, unsigned int prec, unsigned int width, unsigned int flags)
{
 8001640:	b590      	push	{r4, r7, lr}
 8001642:	b097      	sub	sp, #92	; 0x5c
 8001644:	af08      	add	r7, sp, #32
 8001646:	60f8      	str	r0, [r7, #12]
 8001648:	60b9      	str	r1, [r7, #8]
 800164a:	607a      	str	r2, [r7, #4]
 800164c:	603b      	str	r3, [r7, #0]
  char buf[PRINTF_NTOA_BUFFER_SIZE];
  size_t len = 0U;
 800164e:	2300      	movs	r3, #0
 8001650:	637b      	str	r3, [r7, #52]	; 0x34

  // no hash for 0 values
  if (!value) {
 8001652:	e9d7 3412 	ldrd	r3, r4, [r7, #72]	; 0x48
 8001656:	4323      	orrs	r3, r4
 8001658:	d103      	bne.n	8001662 <_ntoa_long_long+0x22>
    flags &= ~FLAGS_HASH;
 800165a:	6ebb      	ldr	r3, [r7, #104]	; 0x68
 800165c:	f023 0310 	bic.w	r3, r3, #16
 8001660:	66bb      	str	r3, [r7, #104]	; 0x68
  }

  // write if precision != 0 and value is != 0
  if (!(flags & FLAGS_PRECISION) || value) {
 8001662:	6ebb      	ldr	r3, [r7, #104]	; 0x68
 8001664:	f403 6380 	and.w	r3, r3, #1024	; 0x400
 8001668:	2b00      	cmp	r3, #0
 800166a:	d003      	beq.n	8001674 <_ntoa_long_long+0x34>
 800166c:	e9d7 3412 	ldrd	r3, r4, [r7, #72]	; 0x48
 8001670:	4323      	orrs	r3, r4
 8001672:	d039      	beq.n	80016e8 <_ntoa_long_long+0xa8>
    do {
      const char digit = (char)(value % base);
 8001674:	e9d7 0112 	ldrd	r0, r1, [r7, #72]	; 0x48
 8001678:	e9d7 2316 	ldrd	r2, r3, [r7, #88]	; 0x58
 800167c:	f7ff fa4e 	bl	8000b1c <__aeabi_uldivmod>
 8001680:	461c      	mov	r4, r3
 8001682:	4613      	mov	r3, r2
 8001684:	f887 3033 	strb.w	r3, [r7, #51]	; 0x33
      buf[len++] = digit < 10 ? '0' + digit : (flags & FLAGS_UPPERCASE ? 'A' : 'a') + digit - 10;
 8001688:	f897 3033 	ldrb.w	r3, [r7, #51]	; 0x33
 800168c:	2b09      	cmp	r3, #9
 800168e:	d804      	bhi.n	800169a <_ntoa_long_long+0x5a>
 8001690:	f897 3033 	ldrb.w	r3, [r7, #51]	; 0x33
 8001694:	3330      	adds	r3, #48	; 0x30
 8001696:	b2da      	uxtb	r2, r3
 8001698:	e00d      	b.n	80016b6 <_ntoa_long_long+0x76>
 800169a:	6ebb      	ldr	r3, [r7, #104]	; 0x68
 800169c:	f003 0320 	and.w	r3, r3, #32
 80016a0:	2b00      	cmp	r3, #0
 80016a2:	d001      	beq.n	80016a8 <_ntoa_long_long+0x68>
 80016a4:	2241      	movs	r2, #65	; 0x41
 80016a6:	e000      	b.n	80016aa <_ntoa_long_long+0x6a>
 80016a8:	2261      	movs	r2, #97	; 0x61
 80016aa:	f897 3033 	ldrb.w	r3, [r7, #51]	; 0x33
 80016ae:	4413      	add	r3, r2
 80016b0:	b2db      	uxtb	r3, r3
 80016b2:	3b0a      	subs	r3, #10
 80016b4:	b2da      	uxtb	r2, r3
 80016b6:	6b7b      	ldr	r3, [r7, #52]	; 0x34
 80016b8:	1c59      	adds	r1, r3, #1
 80016ba:	6379      	str	r1, [r7, #52]	; 0x34
 80016bc:	f107 0138 	add.w	r1, r7, #56	; 0x38
 80016c0:	440b      	add	r3, r1
 80016c2:	f803 2c28 	strb.w	r2, [r3, #-40]
      value /= base;
 80016c6:	e9d7 2316 	ldrd	r2, r3, [r7, #88]	; 0x58
 80016ca:	e9d7 0112 	ldrd	r0, r1, [r7, #72]	; 0x48
 80016ce:	f7ff fa25 	bl	8000b1c <__aeabi_uldivmod>
 80016d2:	4603      	mov	r3, r0
 80016d4:	460c      	mov	r4, r1
 80016d6:	e9c7 3412 	strd	r3, r4, [r7, #72]	; 0x48
    } while (value && (len < PRINTF_NTOA_BUFFER_SIZE));
 80016da:	e9d7 3412 	ldrd	r3, r4, [r7, #72]	; 0x48
 80016de:	4323      	orrs	r3, r4
 80016e0:	d002      	beq.n	80016e8 <_ntoa_long_long+0xa8>
 80016e2:	6b7b      	ldr	r3, [r7, #52]	; 0x34
 80016e4:	2b1f      	cmp	r3, #31
 80016e6:	d9c5      	bls.n	8001674 <_ntoa_long_long+0x34>
  }

  return _ntoa_format(out, buffer, idx, maxlen, buf, len, negative, (unsigned int)base, prec, width, flags);
 80016e8:	6dbb      	ldr	r3, [r7, #88]	; 0x58
 80016ea:	6eba      	ldr	r2, [r7, #104]	; 0x68
 80016ec:	9206      	str	r2, [sp, #24]
 80016ee:	6e7a      	ldr	r2, [r7, #100]	; 0x64
 80016f0:	9205      	str	r2, [sp, #20]
 80016f2:	6e3a      	ldr	r2, [r7, #96]	; 0x60
 80016f4:	9204      	str	r2, [sp, #16]
 80016f6:	9303      	str	r3, [sp, #12]
 80016f8:	f897 3050 	ldrb.w	r3, [r7, #80]	; 0x50
 80016fc:	9302      	str	r3, [sp, #8]
 80016fe:	6b7b      	ldr	r3, [r7, #52]	; 0x34
 8001700:	9301      	str	r3, [sp, #4]
 8001702:	f107 0310 	add.w	r3, r7, #16
 8001706:	9300      	str	r3, [sp, #0]
 8001708:	683b      	ldr	r3, [r7, #0]
 800170a:	687a      	ldr	r2, [r7, #4]
 800170c:	68b9      	ldr	r1, [r7, #8]
 800170e:	68f8      	ldr	r0, [r7, #12]
 8001710:	f7ff fe53 	bl	80013ba <_ntoa_format>
 8001714:	4603      	mov	r3, r0
}
 8001716:	4618      	mov	r0, r3
 8001718:	373c      	adds	r7, #60	; 0x3c
 800171a:	46bd      	mov	sp, r7
 800171c:	bd90      	pop	{r4, r7, pc}
	...

08001720 <_ftoa>:
#endif


// internal ftoa for fixed decimal floating point
static size_t _ftoa(out_fct_type out, char* buffer, size_t idx, size_t maxlen, double value, unsigned int prec, unsigned int width, unsigned int flags)
{
 8001720:	b590      	push	{r4, r7, lr}
 8001722:	b09d      	sub	sp, #116	; 0x74
 8001724:	af04      	add	r7, sp, #16
 8001726:	6178      	str	r0, [r7, #20]
 8001728:	6139      	str	r1, [r7, #16]
 800172a:	60fa      	str	r2, [r7, #12]
 800172c:	60bb      	str	r3, [r7, #8]
 800172e:	ed87 0b00 	vstr	d0, [r7]
  char buf[PRINTF_FTOA_BUFFER_SIZE];
  size_t len  = 0U;
 8001732:	2300      	movs	r3, #0
 8001734:	65fb      	str	r3, [r7, #92]	; 0x5c
  double diff = 0.0;
 8001736:	f04f 0300 	mov.w	r3, #0
 800173a:	f04f 0400 	mov.w	r4, #0
 800173e:	e9c7 3410 	strd	r3, r4, [r7, #64]	; 0x40

  // powers of 10
  static const double pow10[] = { 1, 10, 100, 1000, 10000, 100000, 1000000, 10000000, 100000000, 1000000000 };

  // test for special values
  if (value != value)
 8001742:	e9d7 2300 	ldrd	r2, r3, [r7]
 8001746:	e9d7 0100 	ldrd	r0, r1, [r7]
 800174a:	f7ff f96d 	bl	8000a28 <__aeabi_dcmpeq>
 800174e:	4603      	mov	r3, r0
 8001750:	2b00      	cmp	r3, #0
 8001752:	d10f      	bne.n	8001774 <_ftoa+0x54>
    return _out_rev(out, buffer, idx, maxlen, "nan", 3, width, flags);
 8001754:	6fbb      	ldr	r3, [r7, #120]	; 0x78
 8001756:	9303      	str	r3, [sp, #12]
 8001758:	6f7b      	ldr	r3, [r7, #116]	; 0x74
 800175a:	9302      	str	r3, [sp, #8]
 800175c:	2303      	movs	r3, #3
 800175e:	9301      	str	r3, [sp, #4]
 8001760:	4baf      	ldr	r3, [pc, #700]	; (8001a20 <_ftoa+0x300>)
 8001762:	9300      	str	r3, [sp, #0]
 8001764:	68bb      	ldr	r3, [r7, #8]
 8001766:	68fa      	ldr	r2, [r7, #12]
 8001768:	6939      	ldr	r1, [r7, #16]
 800176a:	6978      	ldr	r0, [r7, #20]
 800176c:	f7ff fdd5 	bl	800131a <_out_rev>
 8001770:	4603      	mov	r3, r0
 8001772:	e237      	b.n	8001be4 <_ftoa+0x4c4>
  if (value < -DBL_MAX)
 8001774:	f04f 32ff 	mov.w	r2, #4294967295
 8001778:	f46f 1380 	mvn.w	r3, #1048576	; 0x100000
 800177c:	e9d7 0100 	ldrd	r0, r1, [r7]
 8001780:	f7ff f95c 	bl	8000a3c <__aeabi_dcmplt>
 8001784:	4603      	mov	r3, r0
 8001786:	2b00      	cmp	r3, #0
 8001788:	d00f      	beq.n	80017aa <_ftoa+0x8a>
    return _out_rev(out, buffer, idx, maxlen, "fni-", 4, width, flags);
 800178a:	6fbb      	ldr	r3, [r7, #120]	; 0x78
 800178c:	9303      	str	r3, [sp, #12]
 800178e:	6f7b      	ldr	r3, [r7, #116]	; 0x74
 8001790:	9302      	str	r3, [sp, #8]
 8001792:	2304      	movs	r3, #4
 8001794:	9301      	str	r3, [sp, #4]
 8001796:	4ba3      	ldr	r3, [pc, #652]	; (8001a24 <_ftoa+0x304>)
 8001798:	9300      	str	r3, [sp, #0]
 800179a:	68bb      	ldr	r3, [r7, #8]
 800179c:	68fa      	ldr	r2, [r7, #12]
 800179e:	6939      	ldr	r1, [r7, #16]
 80017a0:	6978      	ldr	r0, [r7, #20]
 80017a2:	f7ff fdba 	bl	800131a <_out_rev>
 80017a6:	4603      	mov	r3, r0
 80017a8:	e21c      	b.n	8001be4 <_ftoa+0x4c4>
  if (value > DBL_MAX)
 80017aa:	f04f 32ff 	mov.w	r2, #4294967295
 80017ae:	4b9e      	ldr	r3, [pc, #632]	; (8001a28 <_ftoa+0x308>)
 80017b0:	e9d7 0100 	ldrd	r0, r1, [r7]
 80017b4:	f7ff f960 	bl	8000a78 <__aeabi_dcmpgt>
 80017b8:	4603      	mov	r3, r0
 80017ba:	2b00      	cmp	r3, #0
 80017bc:	d01d      	beq.n	80017fa <_ftoa+0xda>
    return _out_rev(out, buffer, idx, maxlen, (flags & FLAGS_PLUS) ? "fni+" : "fni", (flags & FLAGS_PLUS) ? 4U : 3U, width, flags);
 80017be:	6fbb      	ldr	r3, [r7, #120]	; 0x78
 80017c0:	f003 0304 	and.w	r3, r3, #4
 80017c4:	2b00      	cmp	r3, #0
 80017c6:	d001      	beq.n	80017cc <_ftoa+0xac>
 80017c8:	4b98      	ldr	r3, [pc, #608]	; (8001a2c <_ftoa+0x30c>)
 80017ca:	e000      	b.n	80017ce <_ftoa+0xae>
 80017cc:	4b98      	ldr	r3, [pc, #608]	; (8001a30 <_ftoa+0x310>)
 80017ce:	6fba      	ldr	r2, [r7, #120]	; 0x78
 80017d0:	f002 0204 	and.w	r2, r2, #4
 80017d4:	2a00      	cmp	r2, #0
 80017d6:	d001      	beq.n	80017dc <_ftoa+0xbc>
 80017d8:	2204      	movs	r2, #4
 80017da:	e000      	b.n	80017de <_ftoa+0xbe>
 80017dc:	2203      	movs	r2, #3
 80017de:	6fb9      	ldr	r1, [r7, #120]	; 0x78
 80017e0:	9103      	str	r1, [sp, #12]
 80017e2:	6f79      	ldr	r1, [r7, #116]	; 0x74
 80017e4:	9102      	str	r1, [sp, #8]
 80017e6:	9201      	str	r2, [sp, #4]
 80017e8:	9300      	str	r3, [sp, #0]
 80017ea:	68bb      	ldr	r3, [r7, #8]
 80017ec:	68fa      	ldr	r2, [r7, #12]
 80017ee:	6939      	ldr	r1, [r7, #16]
 80017f0:	6978      	ldr	r0, [r7, #20]
 80017f2:	f7ff fd92 	bl	800131a <_out_rev>
 80017f6:	4603      	mov	r3, r0
 80017f8:	e1f4      	b.n	8001be4 <_ftoa+0x4c4>

  // test for very large values
  // standard printf behavior is to print EVERY whole number digit -- which could be 100s of characters overflowing your buffers == bad
  if ((value > PRINTF_MAX_FLOAT) || (value < -PRINTF_MAX_FLOAT)) {
 80017fa:	a385      	add	r3, pc, #532	; (adr r3, 8001a10 <_ftoa+0x2f0>)
 80017fc:	e9d3 2300 	ldrd	r2, r3, [r3]
 8001800:	e9d7 0100 	ldrd	r0, r1, [r7]
 8001804:	f7ff f938 	bl	8000a78 <__aeabi_dcmpgt>
 8001808:	4603      	mov	r3, r0
 800180a:	2b00      	cmp	r3, #0
 800180c:	d109      	bne.n	8001822 <_ftoa+0x102>
 800180e:	a382      	add	r3, pc, #520	; (adr r3, 8001a18 <_ftoa+0x2f8>)
 8001810:	e9d3 2300 	ldrd	r2, r3, [r3]
 8001814:	e9d7 0100 	ldrd	r0, r1, [r7]
 8001818:	f7ff f910 	bl	8000a3c <__aeabi_dcmplt>
 800181c:	4603      	mov	r3, r0
 800181e:	2b00      	cmp	r3, #0
 8001820:	d00f      	beq.n	8001842 <_ftoa+0x122>
#if defined(PRINTF_SUPPORT_EXPONENTIAL)
    return _etoa(out, buffer, idx, maxlen, value, prec, width, flags);
 8001822:	6fbb      	ldr	r3, [r7, #120]	; 0x78
 8001824:	9302      	str	r3, [sp, #8]
 8001826:	6f7b      	ldr	r3, [r7, #116]	; 0x74
 8001828:	9301      	str	r3, [sp, #4]
 800182a:	6f3b      	ldr	r3, [r7, #112]	; 0x70
 800182c:	9300      	str	r3, [sp, #0]
 800182e:	ed97 0b00 	vldr	d0, [r7]
 8001832:	68bb      	ldr	r3, [r7, #8]
 8001834:	68fa      	ldr	r2, [r7, #12]
 8001836:	6939      	ldr	r1, [r7, #16]
 8001838:	6978      	ldr	r0, [r7, #20]
 800183a:	f000 f9dd 	bl	8001bf8 <_etoa>
 800183e:	4603      	mov	r3, r0
 8001840:	e1d0      	b.n	8001be4 <_ftoa+0x4c4>
    return 0U;
#endif
  }

  // test for negative
  bool negative = false;
 8001842:	2300      	movs	r3, #0
 8001844:	f887 305b 	strb.w	r3, [r7, #91]	; 0x5b
  if (value < 0) {
 8001848:	f04f 0200 	mov.w	r2, #0
 800184c:	f04f 0300 	mov.w	r3, #0
 8001850:	e9d7 0100 	ldrd	r0, r1, [r7]
 8001854:	f7ff f8f2 	bl	8000a3c <__aeabi_dcmplt>
 8001858:	4603      	mov	r3, r0
 800185a:	2b00      	cmp	r3, #0
 800185c:	d00e      	beq.n	800187c <_ftoa+0x15c>
    negative = true;
 800185e:	2301      	movs	r3, #1
 8001860:	f887 305b 	strb.w	r3, [r7, #91]	; 0x5b
    value = 0 - value;
 8001864:	e9d7 2300 	ldrd	r2, r3, [r7]
 8001868:	f04f 0000 	mov.w	r0, #0
 800186c:	f04f 0100 	mov.w	r1, #0
 8001870:	f7fe fcba 	bl	80001e8 <__aeabi_dsub>
 8001874:	4603      	mov	r3, r0
 8001876:	460c      	mov	r4, r1
 8001878:	e9c7 3400 	strd	r3, r4, [r7]
  }

  // set default precision, if not set explicitly
  if (!(flags & FLAGS_PRECISION)) {
 800187c:	6fbb      	ldr	r3, [r7, #120]	; 0x78
 800187e:	f403 6380 	and.w	r3, r3, #1024	; 0x400
 8001882:	2b00      	cmp	r3, #0
 8001884:	d10e      	bne.n	80018a4 <_ftoa+0x184>
    prec = PRINTF_DEFAULT_FLOAT_PRECISION;
 8001886:	2306      	movs	r3, #6
 8001888:	673b      	str	r3, [r7, #112]	; 0x70
  }
  // limit precision to 9, cause a prec >= 10 can lead to overflow errors
  while ((len < PRINTF_FTOA_BUFFER_SIZE) && (prec > 9U)) {
 800188a:	e00b      	b.n	80018a4 <_ftoa+0x184>
    buf[len++] = '0';
 800188c:	6dfb      	ldr	r3, [r7, #92]	; 0x5c
 800188e:	1c5a      	adds	r2, r3, #1
 8001890:	65fa      	str	r2, [r7, #92]	; 0x5c
 8001892:	f107 0260 	add.w	r2, r7, #96	; 0x60
 8001896:	4413      	add	r3, r2
 8001898:	2230      	movs	r2, #48	; 0x30
 800189a:	f803 2c48 	strb.w	r2, [r3, #-72]
    prec--;
 800189e:	6f3b      	ldr	r3, [r7, #112]	; 0x70
 80018a0:	3b01      	subs	r3, #1
 80018a2:	673b      	str	r3, [r7, #112]	; 0x70
  while ((len < PRINTF_FTOA_BUFFER_SIZE) && (prec > 9U)) {
 80018a4:	6dfb      	ldr	r3, [r7, #92]	; 0x5c
 80018a6:	2b1f      	cmp	r3, #31
 80018a8:	d802      	bhi.n	80018b0 <_ftoa+0x190>
 80018aa:	6f3b      	ldr	r3, [r7, #112]	; 0x70
 80018ac:	2b09      	cmp	r3, #9
 80018ae:	d8ed      	bhi.n	800188c <_ftoa+0x16c>
  }

  int whole = (int)value;
 80018b0:	e9d7 0100 	ldrd	r0, r1, [r7]
 80018b4:	f7ff f8ea 	bl	8000a8c <__aeabi_d2iz>
 80018b8:	4603      	mov	r3, r0
 80018ba:	657b      	str	r3, [r7, #84]	; 0x54
  double tmp = (value - whole) * pow10[prec];
 80018bc:	6d78      	ldr	r0, [r7, #84]	; 0x54
 80018be:	f7fe fde1 	bl	8000484 <__aeabi_i2d>
 80018c2:	4603      	mov	r3, r0
 80018c4:	460c      	mov	r4, r1
 80018c6:	461a      	mov	r2, r3
 80018c8:	4623      	mov	r3, r4
 80018ca:	e9d7 0100 	ldrd	r0, r1, [r7]
 80018ce:	f7fe fc8b 	bl	80001e8 <__aeabi_dsub>
 80018d2:	4603      	mov	r3, r0
 80018d4:	460c      	mov	r4, r1
 80018d6:	4618      	mov	r0, r3
 80018d8:	4621      	mov	r1, r4
 80018da:	4a56      	ldr	r2, [pc, #344]	; (8001a34 <_ftoa+0x314>)
 80018dc:	6f3b      	ldr	r3, [r7, #112]	; 0x70
 80018de:	00db      	lsls	r3, r3, #3
 80018e0:	4413      	add	r3, r2
 80018e2:	e9d3 3400 	ldrd	r3, r4, [r3]
 80018e6:	461a      	mov	r2, r3
 80018e8:	4623      	mov	r3, r4
 80018ea:	f7fe fe35 	bl	8000558 <__aeabi_dmul>
 80018ee:	4603      	mov	r3, r0
 80018f0:	460c      	mov	r4, r1
 80018f2:	e9c7 340e 	strd	r3, r4, [r7, #56]	; 0x38
  unsigned long frac = (unsigned long)tmp;
 80018f6:	e9d7 010e 	ldrd	r0, r1, [r7, #56]	; 0x38
 80018fa:	f7ff f8ef 	bl	8000adc <__aeabi_d2uiz>
 80018fe:	4603      	mov	r3, r0
 8001900:	653b      	str	r3, [r7, #80]	; 0x50
  diff = tmp - frac;
 8001902:	6d38      	ldr	r0, [r7, #80]	; 0x50
 8001904:	f7fe fdae 	bl	8000464 <__aeabi_ui2d>
 8001908:	4603      	mov	r3, r0
 800190a:	460c      	mov	r4, r1
 800190c:	461a      	mov	r2, r3
 800190e:	4623      	mov	r3, r4
 8001910:	e9d7 010e 	ldrd	r0, r1, [r7, #56]	; 0x38
 8001914:	f7fe fc68 	bl	80001e8 <__aeabi_dsub>
 8001918:	4603      	mov	r3, r0
 800191a:	460c      	mov	r4, r1
 800191c:	e9c7 3410 	strd	r3, r4, [r7, #64]	; 0x40

  if (diff > 0.5) {
 8001920:	f04f 0200 	mov.w	r2, #0
 8001924:	4b44      	ldr	r3, [pc, #272]	; (8001a38 <_ftoa+0x318>)
 8001926:	e9d7 0110 	ldrd	r0, r1, [r7, #64]	; 0x40
 800192a:	f7ff f8a5 	bl	8000a78 <__aeabi_dcmpgt>
 800192e:	4603      	mov	r3, r0
 8001930:	2b00      	cmp	r3, #0
 8001932:	d018      	beq.n	8001966 <_ftoa+0x246>
    ++frac;
 8001934:	6d3b      	ldr	r3, [r7, #80]	; 0x50
 8001936:	3301      	adds	r3, #1
 8001938:	653b      	str	r3, [r7, #80]	; 0x50
    // handle rollover, e.g. case 0.99 with prec 1 is 1.0
    if (frac >= pow10[prec]) {
 800193a:	6d38      	ldr	r0, [r7, #80]	; 0x50
 800193c:	f7fe fd92 	bl	8000464 <__aeabi_ui2d>
 8001940:	4a3c      	ldr	r2, [pc, #240]	; (8001a34 <_ftoa+0x314>)
 8001942:	6f3b      	ldr	r3, [r7, #112]	; 0x70
 8001944:	00db      	lsls	r3, r3, #3
 8001946:	4413      	add	r3, r2
 8001948:	e9d3 3400 	ldrd	r3, r4, [r3]
 800194c:	461a      	mov	r2, r3
 800194e:	4623      	mov	r3, r4
 8001950:	f7ff f888 	bl	8000a64 <__aeabi_dcmpge>
 8001954:	4603      	mov	r3, r0
 8001956:	2b00      	cmp	r3, #0
 8001958:	d01a      	beq.n	8001990 <_ftoa+0x270>
      frac = 0;
 800195a:	2300      	movs	r3, #0
 800195c:	653b      	str	r3, [r7, #80]	; 0x50
      ++whole;
 800195e:	6d7b      	ldr	r3, [r7, #84]	; 0x54
 8001960:	3301      	adds	r3, #1
 8001962:	657b      	str	r3, [r7, #84]	; 0x54
 8001964:	e014      	b.n	8001990 <_ftoa+0x270>
    }
  }
  else if (diff < 0.5) {
 8001966:	f04f 0200 	mov.w	r2, #0
 800196a:	4b33      	ldr	r3, [pc, #204]	; (8001a38 <_ftoa+0x318>)
 800196c:	e9d7 0110 	ldrd	r0, r1, [r7, #64]	; 0x40
 8001970:	f7ff f864 	bl	8000a3c <__aeabi_dcmplt>
 8001974:	4603      	mov	r3, r0
 8001976:	2b00      	cmp	r3, #0
 8001978:	d10a      	bne.n	8001990 <_ftoa+0x270>
  }
  else if ((frac == 0U) || (frac & 1U)) {
 800197a:	6d3b      	ldr	r3, [r7, #80]	; 0x50
 800197c:	2b00      	cmp	r3, #0
 800197e:	d004      	beq.n	800198a <_ftoa+0x26a>
 8001980:	6d3b      	ldr	r3, [r7, #80]	; 0x50
 8001982:	f003 0301 	and.w	r3, r3, #1
 8001986:	2b00      	cmp	r3, #0
 8001988:	d002      	beq.n	8001990 <_ftoa+0x270>
    // if halfway, round up if odd OR if last digit is 0
    ++frac;
 800198a:	6d3b      	ldr	r3, [r7, #80]	; 0x50
 800198c:	3301      	adds	r3, #1
 800198e:	653b      	str	r3, [r7, #80]	; 0x50
  }

  if (prec == 0U) {
 8001990:	6f3b      	ldr	r3, [r7, #112]	; 0x70
 8001992:	2b00      	cmp	r3, #0
 8001994:	d136      	bne.n	8001a04 <_ftoa+0x2e4>
    diff = value - (double)whole;
 8001996:	6d78      	ldr	r0, [r7, #84]	; 0x54
 8001998:	f7fe fd74 	bl	8000484 <__aeabi_i2d>
 800199c:	4603      	mov	r3, r0
 800199e:	460c      	mov	r4, r1
 80019a0:	461a      	mov	r2, r3
 80019a2:	4623      	mov	r3, r4
 80019a4:	e9d7 0100 	ldrd	r0, r1, [r7]
 80019a8:	f7fe fc1e 	bl	80001e8 <__aeabi_dsub>
 80019ac:	4603      	mov	r3, r0
 80019ae:	460c      	mov	r4, r1
 80019b0:	e9c7 3410 	strd	r3, r4, [r7, #64]	; 0x40
    if ((!(diff < 0.5) || (diff > 0.5)) && (whole & 1)) {
 80019b4:	2301      	movs	r3, #1
 80019b6:	461c      	mov	r4, r3
 80019b8:	f04f 0200 	mov.w	r2, #0
 80019bc:	4b1e      	ldr	r3, [pc, #120]	; (8001a38 <_ftoa+0x318>)
 80019be:	e9d7 0110 	ldrd	r0, r1, [r7, #64]	; 0x40
 80019c2:	f7ff f83b 	bl	8000a3c <__aeabi_dcmplt>
 80019c6:	4603      	mov	r3, r0
 80019c8:	2b00      	cmp	r3, #0
 80019ca:	d101      	bne.n	80019d0 <_ftoa+0x2b0>
 80019cc:	2300      	movs	r3, #0
 80019ce:	461c      	mov	r4, r3
 80019d0:	b2e3      	uxtb	r3, r4
 80019d2:	f083 0301 	eor.w	r3, r3, #1
 80019d6:	b2db      	uxtb	r3, r3
 80019d8:	2b00      	cmp	r3, #0
 80019da:	d109      	bne.n	80019f0 <_ftoa+0x2d0>
 80019dc:	f04f 0200 	mov.w	r2, #0
 80019e0:	4b15      	ldr	r3, [pc, #84]	; (8001a38 <_ftoa+0x318>)
 80019e2:	e9d7 0110 	ldrd	r0, r1, [r7, #64]	; 0x40
 80019e6:	f7ff f847 	bl	8000a78 <__aeabi_dcmpgt>
 80019ea:	4603      	mov	r3, r0
 80019ec:	2b00      	cmp	r3, #0
 80019ee:	d069      	beq.n	8001ac4 <_ftoa+0x3a4>
 80019f0:	6d7b      	ldr	r3, [r7, #84]	; 0x54
 80019f2:	f003 0301 	and.w	r3, r3, #1
 80019f6:	2b00      	cmp	r3, #0
 80019f8:	f000 8087 	beq.w	8001b0a <_ftoa+0x3ea>
      // exactly 0.5 and ODD, then round up
      // 1.5 -> 2, but 2.5 -> 2
      ++whole;
 80019fc:	6d7b      	ldr	r3, [r7, #84]	; 0x54
 80019fe:	3301      	adds	r3, #1
 8001a00:	657b      	str	r3, [r7, #84]	; 0x54
 8001a02:	e082      	b.n	8001b0a <_ftoa+0x3ea>
    }
  }
  else {
    unsigned int count = prec;
 8001a04:	6f3b      	ldr	r3, [r7, #112]	; 0x70
 8001a06:	64fb      	str	r3, [r7, #76]	; 0x4c
    // now do fractional part, as an unsigned number
    while (len < PRINTF_FTOA_BUFFER_SIZE) {
 8001a08:	e039      	b.n	8001a7e <_ftoa+0x35e>
 8001a0a:	bf00      	nop
 8001a0c:	f3af 8000 	nop.w
 8001a10:	00000000 	.word	0x00000000
 8001a14:	41cdcd65 	.word	0x41cdcd65
 8001a18:	00000000 	.word	0x00000000
 8001a1c:	c1cdcd65 	.word	0xc1cdcd65
 8001a20:	08007e98 	.word	0x08007e98
 8001a24:	08007e9c 	.word	0x08007e9c
 8001a28:	7fefffff 	.word	0x7fefffff
 8001a2c:	08007ea4 	.word	0x08007ea4
 8001a30:	08007eac 	.word	0x08007eac
 8001a34:	08007f70 	.word	0x08007f70
 8001a38:	3fe00000 	.word	0x3fe00000
      --count;
 8001a3c:	6cfb      	ldr	r3, [r7, #76]	; 0x4c
 8001a3e:	3b01      	subs	r3, #1
 8001a40:	64fb      	str	r3, [r7, #76]	; 0x4c
      buf[len++] = (char)(48U + (frac % 10U));
 8001a42:	6d39      	ldr	r1, [r7, #80]	; 0x50
 8001a44:	4b69      	ldr	r3, [pc, #420]	; (8001bec <_ftoa+0x4cc>)
 8001a46:	fba3 2301 	umull	r2, r3, r3, r1
 8001a4a:	08da      	lsrs	r2, r3, #3
 8001a4c:	4613      	mov	r3, r2
 8001a4e:	009b      	lsls	r3, r3, #2
 8001a50:	4413      	add	r3, r2
 8001a52:	005b      	lsls	r3, r3, #1
 8001a54:	1aca      	subs	r2, r1, r3
 8001a56:	b2d2      	uxtb	r2, r2
 8001a58:	6dfb      	ldr	r3, [r7, #92]	; 0x5c
 8001a5a:	1c59      	adds	r1, r3, #1
 8001a5c:	65f9      	str	r1, [r7, #92]	; 0x5c
 8001a5e:	3230      	adds	r2, #48	; 0x30
 8001a60:	b2d2      	uxtb	r2, r2
 8001a62:	f107 0160 	add.w	r1, r7, #96	; 0x60
 8001a66:	440b      	add	r3, r1
 8001a68:	f803 2c48 	strb.w	r2, [r3, #-72]
      if (!(frac /= 10U)) {
 8001a6c:	6d3b      	ldr	r3, [r7, #80]	; 0x50
 8001a6e:	4a5f      	ldr	r2, [pc, #380]	; (8001bec <_ftoa+0x4cc>)
 8001a70:	fba2 2303 	umull	r2, r3, r2, r3
 8001a74:	08db      	lsrs	r3, r3, #3
 8001a76:	653b      	str	r3, [r7, #80]	; 0x50
 8001a78:	6d3b      	ldr	r3, [r7, #80]	; 0x50
 8001a7a:	2b00      	cmp	r3, #0
 8001a7c:	d003      	beq.n	8001a86 <_ftoa+0x366>
    while (len < PRINTF_FTOA_BUFFER_SIZE) {
 8001a7e:	6dfb      	ldr	r3, [r7, #92]	; 0x5c
 8001a80:	2b1f      	cmp	r3, #31
 8001a82:	d9db      	bls.n	8001a3c <_ftoa+0x31c>
 8001a84:	e00a      	b.n	8001a9c <_ftoa+0x37c>
        break;
 8001a86:	bf00      	nop
      }
    }
    // add extra 0s
    while ((len < PRINTF_FTOA_BUFFER_SIZE) && (count-- > 0U)) {
 8001a88:	e008      	b.n	8001a9c <_ftoa+0x37c>
      buf[len++] = '0';
 8001a8a:	6dfb      	ldr	r3, [r7, #92]	; 0x5c
 8001a8c:	1c5a      	adds	r2, r3, #1
 8001a8e:	65fa      	str	r2, [r7, #92]	; 0x5c
 8001a90:	f107 0260 	add.w	r2, r7, #96	; 0x60
 8001a94:	4413      	add	r3, r2
 8001a96:	2230      	movs	r2, #48	; 0x30
 8001a98:	f803 2c48 	strb.w	r2, [r3, #-72]
    while ((len < PRINTF_FTOA_BUFFER_SIZE) && (count-- > 0U)) {
 8001a9c:	6dfb      	ldr	r3, [r7, #92]	; 0x5c
 8001a9e:	2b1f      	cmp	r3, #31
 8001aa0:	d804      	bhi.n	8001aac <_ftoa+0x38c>
 8001aa2:	6cfb      	ldr	r3, [r7, #76]	; 0x4c
 8001aa4:	1e5a      	subs	r2, r3, #1
 8001aa6:	64fa      	str	r2, [r7, #76]	; 0x4c
 8001aa8:	2b00      	cmp	r3, #0
 8001aaa:	d1ee      	bne.n	8001a8a <_ftoa+0x36a>
    }
    if (len < PRINTF_FTOA_BUFFER_SIZE) {
 8001aac:	6dfb      	ldr	r3, [r7, #92]	; 0x5c
 8001aae:	2b1f      	cmp	r3, #31
 8001ab0:	d82b      	bhi.n	8001b0a <_ftoa+0x3ea>
      // add decimal
      buf[len++] = '.';
 8001ab2:	6dfb      	ldr	r3, [r7, #92]	; 0x5c
 8001ab4:	1c5a      	adds	r2, r3, #1
 8001ab6:	65fa      	str	r2, [r7, #92]	; 0x5c
 8001ab8:	f107 0260 	add.w	r2, r7, #96	; 0x60
 8001abc:	4413      	add	r3, r2
 8001abe:	222e      	movs	r2, #46	; 0x2e
 8001ac0:	f803 2c48 	strb.w	r2, [r3, #-72]
    }
  }

  // do whole part, number is reversed
  while (len < PRINTF_FTOA_BUFFER_SIZE) {
 8001ac4:	e021      	b.n	8001b0a <_ftoa+0x3ea>
    buf[len++] = (char)(48 + (whole % 10));
 8001ac6:	6d7a      	ldr	r2, [r7, #84]	; 0x54
 8001ac8:	4b49      	ldr	r3, [pc, #292]	; (8001bf0 <_ftoa+0x4d0>)
 8001aca:	fb83 1302 	smull	r1, r3, r3, r2
 8001ace:	1099      	asrs	r1, r3, #2
 8001ad0:	17d3      	asrs	r3, r2, #31
 8001ad2:	1ac9      	subs	r1, r1, r3
 8001ad4:	460b      	mov	r3, r1
 8001ad6:	009b      	lsls	r3, r3, #2
 8001ad8:	440b      	add	r3, r1
 8001ada:	005b      	lsls	r3, r3, #1
 8001adc:	1ad1      	subs	r1, r2, r3
 8001ade:	b2ca      	uxtb	r2, r1
 8001ae0:	6dfb      	ldr	r3, [r7, #92]	; 0x5c
 8001ae2:	1c59      	adds	r1, r3, #1
 8001ae4:	65f9      	str	r1, [r7, #92]	; 0x5c
 8001ae6:	3230      	adds	r2, #48	; 0x30
 8001ae8:	b2d2      	uxtb	r2, r2
 8001aea:	f107 0160 	add.w	r1, r7, #96	; 0x60
 8001aee:	440b      	add	r3, r1
 8001af0:	f803 2c48 	strb.w	r2, [r3, #-72]
    if (!(whole /= 10)) {
 8001af4:	6d7b      	ldr	r3, [r7, #84]	; 0x54
 8001af6:	4a3e      	ldr	r2, [pc, #248]	; (8001bf0 <_ftoa+0x4d0>)
 8001af8:	fb82 1203 	smull	r1, r2, r2, r3
 8001afc:	1092      	asrs	r2, r2, #2
 8001afe:	17db      	asrs	r3, r3, #31
 8001b00:	1ad3      	subs	r3, r2, r3
 8001b02:	657b      	str	r3, [r7, #84]	; 0x54
 8001b04:	6d7b      	ldr	r3, [r7, #84]	; 0x54
 8001b06:	2b00      	cmp	r3, #0
 8001b08:	d003      	beq.n	8001b12 <_ftoa+0x3f2>
  while (len < PRINTF_FTOA_BUFFER_SIZE) {
 8001b0a:	6dfb      	ldr	r3, [r7, #92]	; 0x5c
 8001b0c:	2b1f      	cmp	r3, #31
 8001b0e:	d9da      	bls.n	8001ac6 <_ftoa+0x3a6>
 8001b10:	e000      	b.n	8001b14 <_ftoa+0x3f4>
      break;
 8001b12:	bf00      	nop
    }
  }

  // pad leading zeros
  if (!(flags & FLAGS_LEFT) && (flags & FLAGS_ZEROPAD)) {
 8001b14:	6fbb      	ldr	r3, [r7, #120]	; 0x78
 8001b16:	f003 0302 	and.w	r3, r3, #2
 8001b1a:	2b00      	cmp	r3, #0
 8001b1c:	d124      	bne.n	8001b68 <_ftoa+0x448>
 8001b1e:	6fbb      	ldr	r3, [r7, #120]	; 0x78
 8001b20:	f003 0301 	and.w	r3, r3, #1
 8001b24:	2b00      	cmp	r3, #0
 8001b26:	d01f      	beq.n	8001b68 <_ftoa+0x448>
    if (width && (negative || (flags & (FLAGS_PLUS | FLAGS_SPACE)))) {
 8001b28:	6f7b      	ldr	r3, [r7, #116]	; 0x74
 8001b2a:	2b00      	cmp	r3, #0
 8001b2c:	d015      	beq.n	8001b5a <_ftoa+0x43a>
 8001b2e:	f897 305b 	ldrb.w	r3, [r7, #91]	; 0x5b
 8001b32:	2b00      	cmp	r3, #0
 8001b34:	d104      	bne.n	8001b40 <_ftoa+0x420>
 8001b36:	6fbb      	ldr	r3, [r7, #120]	; 0x78
 8001b38:	f003 030c 	and.w	r3, r3, #12
 8001b3c:	2b00      	cmp	r3, #0
 8001b3e:	d00c      	beq.n	8001b5a <_ftoa+0x43a>
      width--;
 8001b40:	6f7b      	ldr	r3, [r7, #116]	; 0x74
 8001b42:	3b01      	subs	r3, #1
 8001b44:	677b      	str	r3, [r7, #116]	; 0x74
    }
    while ((len < width) && (len < PRINTF_FTOA_BUFFER_SIZE)) {
 8001b46:	e008      	b.n	8001b5a <_ftoa+0x43a>
      buf[len++] = '0';
 8001b48:	6dfb      	ldr	r3, [r7, #92]	; 0x5c
 8001b4a:	1c5a      	adds	r2, r3, #1
 8001b4c:	65fa      	str	r2, [r7, #92]	; 0x5c
 8001b4e:	f107 0260 	add.w	r2, r7, #96	; 0x60
 8001b52:	4413      	add	r3, r2
 8001b54:	2230      	movs	r2, #48	; 0x30
 8001b56:	f803 2c48 	strb.w	r2, [r3, #-72]
    while ((len < width) && (len < PRINTF_FTOA_BUFFER_SIZE)) {
 8001b5a:	6dfa      	ldr	r2, [r7, #92]	; 0x5c
 8001b5c:	6f7b      	ldr	r3, [r7, #116]	; 0x74
 8001b5e:	429a      	cmp	r2, r3
 8001b60:	d202      	bcs.n	8001b68 <_ftoa+0x448>
 8001b62:	6dfb      	ldr	r3, [r7, #92]	; 0x5c
 8001b64:	2b1f      	cmp	r3, #31
 8001b66:	d9ef      	bls.n	8001b48 <_ftoa+0x428>
    }
  }

  if (len < PRINTF_FTOA_BUFFER_SIZE) {
 8001b68:	6dfb      	ldr	r3, [r7, #92]	; 0x5c
 8001b6a:	2b1f      	cmp	r3, #31
 8001b6c:	d82a      	bhi.n	8001bc4 <_ftoa+0x4a4>
    if (negative) {
 8001b6e:	f897 305b 	ldrb.w	r3, [r7, #91]	; 0x5b
 8001b72:	2b00      	cmp	r3, #0
 8001b74:	d009      	beq.n	8001b8a <_ftoa+0x46a>
      buf[len++] = '-';
 8001b76:	6dfb      	ldr	r3, [r7, #92]	; 0x5c
 8001b78:	1c5a      	adds	r2, r3, #1
 8001b7a:	65fa      	str	r2, [r7, #92]	; 0x5c
 8001b7c:	f107 0260 	add.w	r2, r7, #96	; 0x60
 8001b80:	4413      	add	r3, r2
 8001b82:	222d      	movs	r2, #45	; 0x2d
 8001b84:	f803 2c48 	strb.w	r2, [r3, #-72]
 8001b88:	e01c      	b.n	8001bc4 <_ftoa+0x4a4>
    }
    else if (flags & FLAGS_PLUS) {
 8001b8a:	6fbb      	ldr	r3, [r7, #120]	; 0x78
 8001b8c:	f003 0304 	and.w	r3, r3, #4
 8001b90:	2b00      	cmp	r3, #0
 8001b92:	d009      	beq.n	8001ba8 <_ftoa+0x488>
      buf[len++] = '+';  // ignore the space if the '+' exists
 8001b94:	6dfb      	ldr	r3, [r7, #92]	; 0x5c
 8001b96:	1c5a      	adds	r2, r3, #1
 8001b98:	65fa      	str	r2, [r7, #92]	; 0x5c
 8001b9a:	f107 0260 	add.w	r2, r7, #96	; 0x60
 8001b9e:	4413      	add	r3, r2
 8001ba0:	222b      	movs	r2, #43	; 0x2b
 8001ba2:	f803 2c48 	strb.w	r2, [r3, #-72]
 8001ba6:	e00d      	b.n	8001bc4 <_ftoa+0x4a4>
    }
    else if (flags & FLAGS_SPACE) {
 8001ba8:	6fbb      	ldr	r3, [r7, #120]	; 0x78
 8001baa:	f003 0308 	and.w	r3, r3, #8
 8001bae:	2b00      	cmp	r3, #0
 8001bb0:	d008      	beq.n	8001bc4 <_ftoa+0x4a4>
      buf[len++] = ' ';
 8001bb2:	6dfb      	ldr	r3, [r7, #92]	; 0x5c
 8001bb4:	1c5a      	adds	r2, r3, #1
 8001bb6:	65fa      	str	r2, [r7, #92]	; 0x5c
 8001bb8:	f107 0260 	add.w	r2, r7, #96	; 0x60
 8001bbc:	4413      	add	r3, r2
 8001bbe:	2220      	movs	r2, #32
 8001bc0:	f803 2c48 	strb.w	r2, [r3, #-72]
    }
  }

  return _out_rev(out, buffer, idx, maxlen, buf, len, width, flags);
 8001bc4:	6fbb      	ldr	r3, [r7, #120]	; 0x78
 8001bc6:	9303      	str	r3, [sp, #12]
 8001bc8:	6f7b      	ldr	r3, [r7, #116]	; 0x74
 8001bca:	9302      	str	r3, [sp, #8]
 8001bcc:	6dfb      	ldr	r3, [r7, #92]	; 0x5c
 8001bce:	9301      	str	r3, [sp, #4]
 8001bd0:	f107 0318 	add.w	r3, r7, #24
 8001bd4:	9300      	str	r3, [sp, #0]
 8001bd6:	68bb      	ldr	r3, [r7, #8]
 8001bd8:	68fa      	ldr	r2, [r7, #12]
 8001bda:	6939      	ldr	r1, [r7, #16]
 8001bdc:	6978      	ldr	r0, [r7, #20]
 8001bde:	f7ff fb9c 	bl	800131a <_out_rev>
 8001be2:	4603      	mov	r3, r0
}
 8001be4:	4618      	mov	r0, r3
 8001be6:	3764      	adds	r7, #100	; 0x64
 8001be8:	46bd      	mov	sp, r7
 8001bea:	bd90      	pop	{r4, r7, pc}
 8001bec:	cccccccd 	.word	0xcccccccd
 8001bf0:	66666667 	.word	0x66666667
 8001bf4:	00000000 	.word	0x00000000

08001bf8 <_etoa>:


#if defined(PRINTF_SUPPORT_EXPONENTIAL)
// internal ftoa variant for exponential floating-point type, contributed by Martijn Jasperse <m.jasperse@gmail.com>
static size_t _etoa(out_fct_type out, char* buffer, size_t idx, size_t maxlen, double value, unsigned int prec, unsigned int width, unsigned int flags)
{
 8001bf8:	e92d 4ff0 	stmdb	sp!, {r4, r5, r6, r7, r8, r9, sl, fp, lr}
 8001bfc:	b09d      	sub	sp, #116	; 0x74
 8001bfe:	af06      	add	r7, sp, #24
 8001c00:	61f8      	str	r0, [r7, #28]
 8001c02:	61b9      	str	r1, [r7, #24]
 8001c04:	617a      	str	r2, [r7, #20]
 8001c06:	613b      	str	r3, [r7, #16]
 8001c08:	ed87 0b02 	vstr	d0, [r7, #8]
  // check for NaN and special values
  if ((value != value) || (value > DBL_MAX) || (value < -DBL_MAX)) {
 8001c0c:	e9d7 2302 	ldrd	r2, r3, [r7, #8]
 8001c10:	e9d7 0102 	ldrd	r0, r1, [r7, #8]
 8001c14:	f7fe ff08 	bl	8000a28 <__aeabi_dcmpeq>
 8001c18:	4603      	mov	r3, r0
 8001c1a:	2b00      	cmp	r3, #0
 8001c1c:	d014      	beq.n	8001c48 <_etoa+0x50>
 8001c1e:	f04f 32ff 	mov.w	r2, #4294967295
 8001c22:	4bc9      	ldr	r3, [pc, #804]	; (8001f48 <_etoa+0x350>)
 8001c24:	e9d7 0102 	ldrd	r0, r1, [r7, #8]
 8001c28:	f7fe ff26 	bl	8000a78 <__aeabi_dcmpgt>
 8001c2c:	4603      	mov	r3, r0
 8001c2e:	2b00      	cmp	r3, #0
 8001c30:	d10a      	bne.n	8001c48 <_etoa+0x50>
 8001c32:	f04f 32ff 	mov.w	r2, #4294967295
 8001c36:	f46f 1380 	mvn.w	r3, #1048576	; 0x100000
 8001c3a:	e9d7 0102 	ldrd	r0, r1, [r7, #8]
 8001c3e:	f7fe fefd 	bl	8000a3c <__aeabi_dcmplt>
 8001c42:	4603      	mov	r3, r0
 8001c44:	2b00      	cmp	r3, #0
 8001c46:	d012      	beq.n	8001c6e <_etoa+0x76>
    return _ftoa(out, buffer, idx, maxlen, value, prec, width, flags);
 8001c48:	f8d7 3088 	ldr.w	r3, [r7, #136]	; 0x88
 8001c4c:	9302      	str	r3, [sp, #8]
 8001c4e:	f8d7 3084 	ldr.w	r3, [r7, #132]	; 0x84
 8001c52:	9301      	str	r3, [sp, #4]
 8001c54:	f8d7 3080 	ldr.w	r3, [r7, #128]	; 0x80
 8001c58:	9300      	str	r3, [sp, #0]
 8001c5a:	ed97 0b02 	vldr	d0, [r7, #8]
 8001c5e:	693b      	ldr	r3, [r7, #16]
 8001c60:	697a      	ldr	r2, [r7, #20]
 8001c62:	69b9      	ldr	r1, [r7, #24]
 8001c64:	69f8      	ldr	r0, [r7, #28]
 8001c66:	f7ff fd5b 	bl	8001720 <_ftoa>
 8001c6a:	4603      	mov	r3, r0
 8001c6c:	e24f      	b.n	800210e <_etoa+0x516>
  }

  // determine the sign
  const bool negative = value < 0;
 8001c6e:	2301      	movs	r3, #1
 8001c70:	461c      	mov	r4, r3
 8001c72:	f04f 0200 	mov.w	r2, #0
 8001c76:	f04f 0300 	mov.w	r3, #0
 8001c7a:	e9d7 0102 	ldrd	r0, r1, [r7, #8]
 8001c7e:	f7fe fedd 	bl	8000a3c <__aeabi_dcmplt>
 8001c82:	4603      	mov	r3, r0
 8001c84:	2b00      	cmp	r3, #0
 8001c86:	d101      	bne.n	8001c8c <_etoa+0x94>
 8001c88:	2300      	movs	r3, #0
 8001c8a:	461c      	mov	r4, r3
 8001c8c:	f887 404b 	strb.w	r4, [r7, #75]	; 0x4b
  if (negative) {
 8001c90:	f897 304b 	ldrb.w	r3, [r7, #75]	; 0x4b
 8001c94:	2b00      	cmp	r3, #0
 8001c96:	d005      	beq.n	8001ca4 <_etoa+0xac>
    value = -value;
 8001c98:	68bb      	ldr	r3, [r7, #8]
 8001c9a:	60bb      	str	r3, [r7, #8]
 8001c9c:	68fb      	ldr	r3, [r7, #12]
 8001c9e:	f083 4300 	eor.w	r3, r3, #2147483648	; 0x80000000
 8001ca2:	60fb      	str	r3, [r7, #12]
  }

  // default precision
  if (!(flags & FLAGS_PRECISION)) {
 8001ca4:	f8d7 3088 	ldr.w	r3, [r7, #136]	; 0x88
 8001ca8:	f403 6380 	and.w	r3, r3, #1024	; 0x400
 8001cac:	2b00      	cmp	r3, #0
 8001cae:	d102      	bne.n	8001cb6 <_etoa+0xbe>
    prec = PRINTF_DEFAULT_FLOAT_PRECISION;
 8001cb0:	2306      	movs	r3, #6
 8001cb2:	f8c7 3080 	str.w	r3, [r7, #128]	; 0x80
  union {
    uint64_t U;
    double   F;
  } conv;

  conv.F = value;
 8001cb6:	e9d7 3402 	ldrd	r3, r4, [r7, #8]
 8001cba:	e9c7 3408 	strd	r3, r4, [r7, #32]
  int exp2 = (int)((conv.U >> 52U) & 0x07FFU) - 1023;           // effectively log2
 8001cbe:	e9d7 1208 	ldrd	r1, r2, [r7, #32]
 8001cc2:	f04f 0300 	mov.w	r3, #0
 8001cc6:	f04f 0400 	mov.w	r4, #0
 8001cca:	0d13      	lsrs	r3, r2, #20
 8001ccc:	2400      	movs	r4, #0
 8001cce:	f3c3 030a 	ubfx	r3, r3, #0, #11
 8001cd2:	f2a3 33ff 	subw	r3, r3, #1023	; 0x3ff
 8001cd6:	647b      	str	r3, [r7, #68]	; 0x44
  conv.U = (conv.U & ((1ULL << 52U) - 1U)) | (1023ULL << 52U);  // drop the exponent so conv.F is now in [1,2)
 8001cd8:	e9d7 3408 	ldrd	r3, r4, [r7, #32]
 8001cdc:	f04f 31ff 	mov.w	r1, #4294967295
 8001ce0:	4a9a      	ldr	r2, [pc, #616]	; (8001f4c <_etoa+0x354>)
 8001ce2:	ea03 0801 	and.w	r8, r3, r1
 8001ce6:	ea04 0902 	and.w	r9, r4, r2
 8001cea:	f04f 0100 	mov.w	r1, #0
 8001cee:	4a98      	ldr	r2, [pc, #608]	; (8001f50 <_etoa+0x358>)
 8001cf0:	ea48 0301 	orr.w	r3, r8, r1
 8001cf4:	ea49 0402 	orr.w	r4, r9, r2
 8001cf8:	e9c7 3408 	strd	r3, r4, [r7, #32]
  // now approximate log10 from the log2 integer part and an expansion of ln around 1.5
  int expval = (int)(0.1760912590558 + exp2 * 0.301029995663981 + (conv.F - 1.5) * 0.289529654602168);
 8001cfc:	6c78      	ldr	r0, [r7, #68]	; 0x44
 8001cfe:	f7fe fbc1 	bl	8000484 <__aeabi_i2d>
 8001d02:	a385      	add	r3, pc, #532	; (adr r3, 8001f18 <_etoa+0x320>)
 8001d04:	e9d3 2300 	ldrd	r2, r3, [r3]
 8001d08:	f7fe fc26 	bl	8000558 <__aeabi_dmul>
 8001d0c:	4603      	mov	r3, r0
 8001d0e:	460c      	mov	r4, r1
 8001d10:	4618      	mov	r0, r3
 8001d12:	4621      	mov	r1, r4
 8001d14:	a382      	add	r3, pc, #520	; (adr r3, 8001f20 <_etoa+0x328>)
 8001d16:	e9d3 2300 	ldrd	r2, r3, [r3]
 8001d1a:	f7fe fa67 	bl	80001ec <__adddf3>
 8001d1e:	4603      	mov	r3, r0
 8001d20:	460c      	mov	r4, r1
 8001d22:	4698      	mov	r8, r3
 8001d24:	46a1      	mov	r9, r4
 8001d26:	e9d7 0108 	ldrd	r0, r1, [r7, #32]
 8001d2a:	f04f 0200 	mov.w	r2, #0
 8001d2e:	4b89      	ldr	r3, [pc, #548]	; (8001f54 <_etoa+0x35c>)
 8001d30:	f7fe fa5a 	bl	80001e8 <__aeabi_dsub>
 8001d34:	4603      	mov	r3, r0
 8001d36:	460c      	mov	r4, r1
 8001d38:	4618      	mov	r0, r3
 8001d3a:	4621      	mov	r1, r4
 8001d3c:	a37a      	add	r3, pc, #488	; (adr r3, 8001f28 <_etoa+0x330>)
 8001d3e:	e9d3 2300 	ldrd	r2, r3, [r3]
 8001d42:	f7fe fc09 	bl	8000558 <__aeabi_dmul>
 8001d46:	4603      	mov	r3, r0
 8001d48:	460c      	mov	r4, r1
 8001d4a:	461a      	mov	r2, r3
 8001d4c:	4623      	mov	r3, r4
 8001d4e:	4640      	mov	r0, r8
 8001d50:	4649      	mov	r1, r9
 8001d52:	f7fe fa4b 	bl	80001ec <__adddf3>
 8001d56:	4603      	mov	r3, r0
 8001d58:	460c      	mov	r4, r1
 8001d5a:	4618      	mov	r0, r3
 8001d5c:	4621      	mov	r1, r4
 8001d5e:	f7fe fe95 	bl	8000a8c <__aeabi_d2iz>
 8001d62:	4603      	mov	r3, r0
 8001d64:	657b      	str	r3, [r7, #84]	; 0x54
  // now we want to compute 10^expval but we want to be sure it won't overflow
  exp2 = (int)(expval * 3.321928094887362 + 0.5);
 8001d66:	6d78      	ldr	r0, [r7, #84]	; 0x54
 8001d68:	f7fe fb8c 	bl	8000484 <__aeabi_i2d>
 8001d6c:	a370      	add	r3, pc, #448	; (adr r3, 8001f30 <_etoa+0x338>)
 8001d6e:	e9d3 2300 	ldrd	r2, r3, [r3]
 8001d72:	f7fe fbf1 	bl	8000558 <__aeabi_dmul>
 8001d76:	4603      	mov	r3, r0
 8001d78:	460c      	mov	r4, r1
 8001d7a:	4618      	mov	r0, r3
 8001d7c:	4621      	mov	r1, r4
 8001d7e:	f04f 0200 	mov.w	r2, #0
 8001d82:	4b75      	ldr	r3, [pc, #468]	; (8001f58 <_etoa+0x360>)
 8001d84:	f7fe fa32 	bl	80001ec <__adddf3>
 8001d88:	4603      	mov	r3, r0
 8001d8a:	460c      	mov	r4, r1
 8001d8c:	4618      	mov	r0, r3
 8001d8e:	4621      	mov	r1, r4
 8001d90:	f7fe fe7c 	bl	8000a8c <__aeabi_d2iz>
 8001d94:	4603      	mov	r3, r0
 8001d96:	647b      	str	r3, [r7, #68]	; 0x44
  const double z  = expval * 2.302585092994046 - exp2 * 0.6931471805599453;
 8001d98:	6d78      	ldr	r0, [r7, #84]	; 0x54
 8001d9a:	f7fe fb73 	bl	8000484 <__aeabi_i2d>
 8001d9e:	a366      	add	r3, pc, #408	; (adr r3, 8001f38 <_etoa+0x340>)
 8001da0:	e9d3 2300 	ldrd	r2, r3, [r3]
 8001da4:	f7fe fbd8 	bl	8000558 <__aeabi_dmul>
 8001da8:	4603      	mov	r3, r0
 8001daa:	460c      	mov	r4, r1
 8001dac:	4698      	mov	r8, r3
 8001dae:	46a1      	mov	r9, r4
 8001db0:	6c78      	ldr	r0, [r7, #68]	; 0x44
 8001db2:	f7fe fb67 	bl	8000484 <__aeabi_i2d>
 8001db6:	a362      	add	r3, pc, #392	; (adr r3, 8001f40 <_etoa+0x348>)
 8001db8:	e9d3 2300 	ldrd	r2, r3, [r3]
 8001dbc:	f7fe fbcc 	bl	8000558 <__aeabi_dmul>
 8001dc0:	4603      	mov	r3, r0
 8001dc2:	460c      	mov	r4, r1
 8001dc4:	461a      	mov	r2, r3
 8001dc6:	4623      	mov	r3, r4
 8001dc8:	4640      	mov	r0, r8
 8001dca:	4649      	mov	r1, r9
 8001dcc:	f7fe fa0c 	bl	80001e8 <__aeabi_dsub>
 8001dd0:	4603      	mov	r3, r0
 8001dd2:	460c      	mov	r4, r1
 8001dd4:	e9c7 340e 	strd	r3, r4, [r7, #56]	; 0x38
  const double z2 = z * z;
 8001dd8:	e9d7 230e 	ldrd	r2, r3, [r7, #56]	; 0x38
 8001ddc:	e9d7 010e 	ldrd	r0, r1, [r7, #56]	; 0x38
 8001de0:	f7fe fbba 	bl	8000558 <__aeabi_dmul>
 8001de4:	4603      	mov	r3, r0
 8001de6:	460c      	mov	r4, r1
 8001de8:	e9c7 340c 	strd	r3, r4, [r7, #48]	; 0x30
  conv.U = (uint64_t)(exp2 + 1023) << 52U;
 8001dec:	6c7b      	ldr	r3, [r7, #68]	; 0x44
 8001dee:	f203 33ff 	addw	r3, r3, #1023	; 0x3ff
 8001df2:	4619      	mov	r1, r3
 8001df4:	ea4f 72e1 	mov.w	r2, r1, asr #31
 8001df8:	f04f 0300 	mov.w	r3, #0
 8001dfc:	f04f 0400 	mov.w	r4, #0
 8001e00:	050c      	lsls	r4, r1, #20
 8001e02:	2300      	movs	r3, #0
 8001e04:	e9c7 3408 	strd	r3, r4, [r7, #32]
  // compute exp(z) using continued fractions, see https://en.wikipedia.org/wiki/Exponential_function#Continued_fractions_for_ex
  conv.F *= 1 + 2 * z / (2 - z + (z2 / (6 + (z2 / (10 + z2 / 14)))));
 8001e08:	e9d7 8908 	ldrd	r8, r9, [r7, #32]
 8001e0c:	e9d7 010e 	ldrd	r0, r1, [r7, #56]	; 0x38
 8001e10:	4602      	mov	r2, r0
 8001e12:	460b      	mov	r3, r1
 8001e14:	f7fe f9ea 	bl	80001ec <__adddf3>
 8001e18:	4603      	mov	r3, r0
 8001e1a:	460c      	mov	r4, r1
 8001e1c:	469a      	mov	sl, r3
 8001e1e:	46a3      	mov	fp, r4
 8001e20:	e9d7 230e 	ldrd	r2, r3, [r7, #56]	; 0x38
 8001e24:	f04f 0000 	mov.w	r0, #0
 8001e28:	f04f 4180 	mov.w	r1, #1073741824	; 0x40000000
 8001e2c:	f7fe f9dc 	bl	80001e8 <__aeabi_dsub>
 8001e30:	4603      	mov	r3, r0
 8001e32:	460c      	mov	r4, r1
 8001e34:	e9c7 3400 	strd	r3, r4, [r7]
 8001e38:	f04f 0200 	mov.w	r2, #0
 8001e3c:	4b47      	ldr	r3, [pc, #284]	; (8001f5c <_etoa+0x364>)
 8001e3e:	e9d7 010c 	ldrd	r0, r1, [r7, #48]	; 0x30
 8001e42:	f7fe fcb3 	bl	80007ac <__aeabi_ddiv>
 8001e46:	4603      	mov	r3, r0
 8001e48:	460c      	mov	r4, r1
 8001e4a:	4618      	mov	r0, r3
 8001e4c:	4621      	mov	r1, r4
 8001e4e:	f04f 0200 	mov.w	r2, #0
 8001e52:	4b43      	ldr	r3, [pc, #268]	; (8001f60 <_etoa+0x368>)
 8001e54:	f7fe f9ca 	bl	80001ec <__adddf3>
 8001e58:	4603      	mov	r3, r0
 8001e5a:	460c      	mov	r4, r1
 8001e5c:	461a      	mov	r2, r3
 8001e5e:	4623      	mov	r3, r4
 8001e60:	e9d7 010c 	ldrd	r0, r1, [r7, #48]	; 0x30
 8001e64:	f7fe fca2 	bl	80007ac <__aeabi_ddiv>
 8001e68:	4603      	mov	r3, r0
 8001e6a:	460c      	mov	r4, r1
 8001e6c:	4618      	mov	r0, r3
 8001e6e:	4621      	mov	r1, r4
 8001e70:	f04f 0200 	mov.w	r2, #0
 8001e74:	4b3b      	ldr	r3, [pc, #236]	; (8001f64 <_etoa+0x36c>)
 8001e76:	f7fe f9b9 	bl	80001ec <__adddf3>
 8001e7a:	4603      	mov	r3, r0
 8001e7c:	460c      	mov	r4, r1
 8001e7e:	461a      	mov	r2, r3
 8001e80:	4623      	mov	r3, r4
 8001e82:	e9d7 010c 	ldrd	r0, r1, [r7, #48]	; 0x30
 8001e86:	f7fe fc91 	bl	80007ac <__aeabi_ddiv>
 8001e8a:	4603      	mov	r3, r0
 8001e8c:	460c      	mov	r4, r1
 8001e8e:	461a      	mov	r2, r3
 8001e90:	4623      	mov	r3, r4
 8001e92:	e9d7 0100 	ldrd	r0, r1, [r7]
 8001e96:	f7fe f9a9 	bl	80001ec <__adddf3>
 8001e9a:	4603      	mov	r3, r0
 8001e9c:	460c      	mov	r4, r1
 8001e9e:	461a      	mov	r2, r3
 8001ea0:	4623      	mov	r3, r4
 8001ea2:	4650      	mov	r0, sl
 8001ea4:	4659      	mov	r1, fp
 8001ea6:	f7fe fc81 	bl	80007ac <__aeabi_ddiv>
 8001eaa:	4603      	mov	r3, r0
 8001eac:	460c      	mov	r4, r1
 8001eae:	4618      	mov	r0, r3
 8001eb0:	4621      	mov	r1, r4
 8001eb2:	f04f 0200 	mov.w	r2, #0
 8001eb6:	4b26      	ldr	r3, [pc, #152]	; (8001f50 <_etoa+0x358>)
 8001eb8:	f7fe f998 	bl	80001ec <__adddf3>
 8001ebc:	4603      	mov	r3, r0
 8001ebe:	460c      	mov	r4, r1
 8001ec0:	461a      	mov	r2, r3
 8001ec2:	4623      	mov	r3, r4
 8001ec4:	4640      	mov	r0, r8
 8001ec6:	4649      	mov	r1, r9
 8001ec8:	f7fe fb46 	bl	8000558 <__aeabi_dmul>
 8001ecc:	4603      	mov	r3, r0
 8001ece:	460c      	mov	r4, r1
 8001ed0:	e9c7 3408 	strd	r3, r4, [r7, #32]
  // correct for rounding errors
  if (value < conv.F) {
 8001ed4:	e9d7 3408 	ldrd	r3, r4, [r7, #32]
 8001ed8:	461a      	mov	r2, r3
 8001eda:	4623      	mov	r3, r4
 8001edc:	e9d7 0102 	ldrd	r0, r1, [r7, #8]
 8001ee0:	f7fe fdac 	bl	8000a3c <__aeabi_dcmplt>
 8001ee4:	4603      	mov	r3, r0
 8001ee6:	2b00      	cmp	r3, #0
 8001ee8:	d00d      	beq.n	8001f06 <_etoa+0x30e>
    expval--;
 8001eea:	6d7b      	ldr	r3, [r7, #84]	; 0x54
 8001eec:	3b01      	subs	r3, #1
 8001eee:	657b      	str	r3, [r7, #84]	; 0x54
    conv.F /= 10;
 8001ef0:	e9d7 0108 	ldrd	r0, r1, [r7, #32]
 8001ef4:	f04f 0200 	mov.w	r2, #0
 8001ef8:	4b19      	ldr	r3, [pc, #100]	; (8001f60 <_etoa+0x368>)
 8001efa:	f7fe fc57 	bl	80007ac <__aeabi_ddiv>
 8001efe:	4603      	mov	r3, r0
 8001f00:	460c      	mov	r4, r1
 8001f02:	e9c7 3408 	strd	r3, r4, [r7, #32]
  }

  // the exponent format is "%+03d" and largest value is "307", so set aside 4-5 characters
  unsigned int minwidth = ((expval < 100) && (expval > -100)) ? 4U : 5U;
 8001f06:	6d7b      	ldr	r3, [r7, #84]	; 0x54
 8001f08:	2b63      	cmp	r3, #99	; 0x63
 8001f0a:	dc2d      	bgt.n	8001f68 <_etoa+0x370>
 8001f0c:	6d7b      	ldr	r3, [r7, #84]	; 0x54
 8001f0e:	f113 0f63 	cmn.w	r3, #99	; 0x63
 8001f12:	db29      	blt.n	8001f68 <_etoa+0x370>
 8001f14:	2304      	movs	r3, #4
 8001f16:	e028      	b.n	8001f6a <_etoa+0x372>
 8001f18:	509f79fb 	.word	0x509f79fb
 8001f1c:	3fd34413 	.word	0x3fd34413
 8001f20:	8b60c8b3 	.word	0x8b60c8b3
 8001f24:	3fc68a28 	.word	0x3fc68a28
 8001f28:	636f4361 	.word	0x636f4361
 8001f2c:	3fd287a7 	.word	0x3fd287a7
 8001f30:	0979a371 	.word	0x0979a371
 8001f34:	400a934f 	.word	0x400a934f
 8001f38:	bbb55516 	.word	0xbbb55516
 8001f3c:	40026bb1 	.word	0x40026bb1
 8001f40:	fefa39ef 	.word	0xfefa39ef
 8001f44:	3fe62e42 	.word	0x3fe62e42
 8001f48:	7fefffff 	.word	0x7fefffff
 8001f4c:	000fffff 	.word	0x000fffff
 8001f50:	3ff00000 	.word	0x3ff00000
 8001f54:	3ff80000 	.word	0x3ff80000
 8001f58:	3fe00000 	.word	0x3fe00000
 8001f5c:	402c0000 	.word	0x402c0000
 8001f60:	40240000 	.word	0x40240000
 8001f64:	40180000 	.word	0x40180000
 8001f68:	2305      	movs	r3, #5
 8001f6a:	653b      	str	r3, [r7, #80]	; 0x50

  // in "%g" mode, "prec" is the number of *significant figures* not decimals
  if (flags & FLAGS_ADAPT_EXP) {
 8001f6c:	f8d7 3088 	ldr.w	r3, [r7, #136]	; 0x88
 8001f70:	f403 6300 	and.w	r3, r3, #2048	; 0x800
 8001f74:	2b00      	cmp	r3, #0
 8001f76:	d03d      	beq.n	8001ff4 <_etoa+0x3fc>
    // do we want to fall-back to "%f" mode?
    if ((value >= 1e-4) && (value < 1e6)) {
 8001f78:	a367      	add	r3, pc, #412	; (adr r3, 8002118 <_etoa+0x520>)
 8001f7a:	e9d3 2300 	ldrd	r2, r3, [r3]
 8001f7e:	e9d7 0102 	ldrd	r0, r1, [r7, #8]
 8001f82:	f7fe fd6f 	bl	8000a64 <__aeabi_dcmpge>
 8001f86:	4603      	mov	r3, r0
 8001f88:	2b00      	cmp	r3, #0
 8001f8a:	d024      	beq.n	8001fd6 <_etoa+0x3de>
 8001f8c:	a364      	add	r3, pc, #400	; (adr r3, 8002120 <_etoa+0x528>)
 8001f8e:	e9d3 2300 	ldrd	r2, r3, [r3]
 8001f92:	e9d7 0102 	ldrd	r0, r1, [r7, #8]
 8001f96:	f7fe fd51 	bl	8000a3c <__aeabi_dcmplt>
 8001f9a:	4603      	mov	r3, r0
 8001f9c:	2b00      	cmp	r3, #0
 8001f9e:	d01a      	beq.n	8001fd6 <_etoa+0x3de>
      if ((int)prec > expval) {
 8001fa0:	f8d7 3080 	ldr.w	r3, [r7, #128]	; 0x80
 8001fa4:	6d7a      	ldr	r2, [r7, #84]	; 0x54
 8001fa6:	429a      	cmp	r2, r3
 8001fa8:	da07      	bge.n	8001fba <_etoa+0x3c2>
        prec = (unsigned)((int)prec - expval - 1);
 8001faa:	f8d7 2080 	ldr.w	r2, [r7, #128]	; 0x80
 8001fae:	6d7b      	ldr	r3, [r7, #84]	; 0x54
 8001fb0:	1ad3      	subs	r3, r2, r3
 8001fb2:	3b01      	subs	r3, #1
 8001fb4:	f8c7 3080 	str.w	r3, [r7, #128]	; 0x80
 8001fb8:	e002      	b.n	8001fc0 <_etoa+0x3c8>
      }
      else {
        prec = 0;
 8001fba:	2300      	movs	r3, #0
 8001fbc:	f8c7 3080 	str.w	r3, [r7, #128]	; 0x80
      }
      flags |= FLAGS_PRECISION;   // make sure _ftoa respects precision
 8001fc0:	f8d7 3088 	ldr.w	r3, [r7, #136]	; 0x88
 8001fc4:	f443 6380 	orr.w	r3, r3, #1024	; 0x400
 8001fc8:	f8c7 3088 	str.w	r3, [r7, #136]	; 0x88
      // no characters in exponent
      minwidth = 0U;
 8001fcc:	2300      	movs	r3, #0
 8001fce:	653b      	str	r3, [r7, #80]	; 0x50
      expval   = 0;
 8001fd0:	2300      	movs	r3, #0
 8001fd2:	657b      	str	r3, [r7, #84]	; 0x54
 8001fd4:	e00e      	b.n	8001ff4 <_etoa+0x3fc>
    }
    else {
      // we use one sigfig for the whole part
      if ((prec > 0) && (flags & FLAGS_PRECISION)) {
 8001fd6:	f8d7 3080 	ldr.w	r3, [r7, #128]	; 0x80
 8001fda:	2b00      	cmp	r3, #0
 8001fdc:	d00a      	beq.n	8001ff4 <_etoa+0x3fc>
 8001fde:	f8d7 3088 	ldr.w	r3, [r7, #136]	; 0x88
 8001fe2:	f403 6380 	and.w	r3, r3, #1024	; 0x400
 8001fe6:	2b00      	cmp	r3, #0
 8001fe8:	d004      	beq.n	8001ff4 <_etoa+0x3fc>
        --prec;
 8001fea:	f8d7 3080 	ldr.w	r3, [r7, #128]	; 0x80
 8001fee:	3b01      	subs	r3, #1
 8001ff0:	f8c7 3080 	str.w	r3, [r7, #128]	; 0x80
      }
    }
  }

  // will everything fit?
  unsigned int fwidth = width;
 8001ff4:	f8d7 3084 	ldr.w	r3, [r7, #132]	; 0x84
 8001ff8:	64fb      	str	r3, [r7, #76]	; 0x4c
  if (width > minwidth) {
 8001ffa:	f8d7 2084 	ldr.w	r2, [r7, #132]	; 0x84
 8001ffe:	6d3b      	ldr	r3, [r7, #80]	; 0x50
 8002000:	429a      	cmp	r2, r3
 8002002:	d904      	bls.n	800200e <_etoa+0x416>
    // we didn't fall-back so subtract the characters required for the exponent
    fwidth -= minwidth;
 8002004:	6cfa      	ldr	r2, [r7, #76]	; 0x4c
 8002006:	6d3b      	ldr	r3, [r7, #80]	; 0x50
 8002008:	1ad3      	subs	r3, r2, r3
 800200a:	64fb      	str	r3, [r7, #76]	; 0x4c
 800200c:	e001      	b.n	8002012 <_etoa+0x41a>
  } else {
    // not enough characters, so go back to default sizing
    fwidth = 0U;
 800200e:	2300      	movs	r3, #0
 8002010:	64fb      	str	r3, [r7, #76]	; 0x4c
  }
  if ((flags & FLAGS_LEFT) && minwidth) {
 8002012:	f8d7 3088 	ldr.w	r3, [r7, #136]	; 0x88
 8002016:	f003 0302 	and.w	r3, r3, #2
 800201a:	2b00      	cmp	r3, #0
 800201c:	d004      	beq.n	8002028 <_etoa+0x430>
 800201e:	6d3b      	ldr	r3, [r7, #80]	; 0x50
 8002020:	2b00      	cmp	r3, #0
 8002022:	d001      	beq.n	8002028 <_etoa+0x430>
    // if we're padding on the right, DON'T pad the floating part
    fwidth = 0U;
 8002024:	2300      	movs	r3, #0
 8002026:	64fb      	str	r3, [r7, #76]	; 0x4c
  }

  // rescale the float value
  if (expval) {
 8002028:	6d7b      	ldr	r3, [r7, #84]	; 0x54
 800202a:	2b00      	cmp	r3, #0
 800202c:	d00b      	beq.n	8002046 <_etoa+0x44e>
    value /= conv.F;
 800202e:	e9d7 3408 	ldrd	r3, r4, [r7, #32]
 8002032:	461a      	mov	r2, r3
 8002034:	4623      	mov	r3, r4
 8002036:	e9d7 0102 	ldrd	r0, r1, [r7, #8]
 800203a:	f7fe fbb7 	bl	80007ac <__aeabi_ddiv>
 800203e:	4603      	mov	r3, r0
 8002040:	460c      	mov	r4, r1
 8002042:	e9c7 3402 	strd	r3, r4, [r7, #8]
  }

  // output the floating part
  const size_t start_idx = idx;
 8002046:	697b      	ldr	r3, [r7, #20]
 8002048:	62fb      	str	r3, [r7, #44]	; 0x2c
  idx = _ftoa(out, buffer, idx, maxlen, negative ? -value : value, prec, fwidth, flags & ~FLAGS_ADAPT_EXP);
 800204a:	f897 304b 	ldrb.w	r3, [r7, #75]	; 0x4b
 800204e:	2b00      	cmp	r3, #0
 8002050:	d004      	beq.n	800205c <_etoa+0x464>
 8002052:	68bd      	ldr	r5, [r7, #8]
 8002054:	68fb      	ldr	r3, [r7, #12]
 8002056:	f083 4600 	eor.w	r6, r3, #2147483648	; 0x80000000
 800205a:	e001      	b.n	8002060 <_etoa+0x468>
 800205c:	e9d7 5602 	ldrd	r5, r6, [r7, #8]
 8002060:	f8d7 3088 	ldr.w	r3, [r7, #136]	; 0x88
 8002064:	f423 6300 	bic.w	r3, r3, #2048	; 0x800
 8002068:	9302      	str	r3, [sp, #8]
 800206a:	6cfb      	ldr	r3, [r7, #76]	; 0x4c
 800206c:	9301      	str	r3, [sp, #4]
 800206e:	f8d7 3080 	ldr.w	r3, [r7, #128]	; 0x80
 8002072:	9300      	str	r3, [sp, #0]
 8002074:	ec46 5b10 	vmov	d0, r5, r6
 8002078:	693b      	ldr	r3, [r7, #16]
 800207a:	697a      	ldr	r2, [r7, #20]
 800207c:	69b9      	ldr	r1, [r7, #24]
 800207e:	69f8      	ldr	r0, [r7, #28]
 8002080:	f7ff fb4e 	bl	8001720 <_ftoa>
 8002084:	6178      	str	r0, [r7, #20]

  // output the exponent part
  if (minwidth) {
 8002086:	6d3b      	ldr	r3, [r7, #80]	; 0x50
 8002088:	2b00      	cmp	r3, #0
 800208a:	d03f      	beq.n	800210c <_etoa+0x514>
    // output the exponential symbol
    out((flags & FLAGS_UPPERCASE) ? 'E' : 'e', buffer, idx++, maxlen);
 800208c:	f8d7 3088 	ldr.w	r3, [r7, #136]	; 0x88
 8002090:	f003 0320 	and.w	r3, r3, #32
 8002094:	2b00      	cmp	r3, #0
 8002096:	d001      	beq.n	800209c <_etoa+0x4a4>
 8002098:	2045      	movs	r0, #69	; 0x45
 800209a:	e000      	b.n	800209e <_etoa+0x4a6>
 800209c:	2065      	movs	r0, #101	; 0x65
 800209e:	697a      	ldr	r2, [r7, #20]
 80020a0:	1c53      	adds	r3, r2, #1
 80020a2:	617b      	str	r3, [r7, #20]
 80020a4:	69fc      	ldr	r4, [r7, #28]
 80020a6:	693b      	ldr	r3, [r7, #16]
 80020a8:	69b9      	ldr	r1, [r7, #24]
 80020aa:	47a0      	blx	r4
    // output the exponent value
    idx = _ntoa_long(out, buffer, idx, maxlen, (expval < 0) ? -expval : expval, expval < 0, 10, 0, minwidth-1, FLAGS_ZEROPAD | FLAGS_PLUS);
 80020ac:	6d7b      	ldr	r3, [r7, #84]	; 0x54
 80020ae:	2b00      	cmp	r3, #0
 80020b0:	bfb8      	it	lt
 80020b2:	425b      	neglt	r3, r3
 80020b4:	4618      	mov	r0, r3
 80020b6:	6d7b      	ldr	r3, [r7, #84]	; 0x54
 80020b8:	0fdb      	lsrs	r3, r3, #31
 80020ba:	b2db      	uxtb	r3, r3
 80020bc:	6d3a      	ldr	r2, [r7, #80]	; 0x50
 80020be:	3a01      	subs	r2, #1
 80020c0:	2105      	movs	r1, #5
 80020c2:	9105      	str	r1, [sp, #20]
 80020c4:	9204      	str	r2, [sp, #16]
 80020c6:	2200      	movs	r2, #0
 80020c8:	9203      	str	r2, [sp, #12]
 80020ca:	220a      	movs	r2, #10
 80020cc:	9202      	str	r2, [sp, #8]
 80020ce:	9301      	str	r3, [sp, #4]
 80020d0:	9000      	str	r0, [sp, #0]
 80020d2:	693b      	ldr	r3, [r7, #16]
 80020d4:	697a      	ldr	r2, [r7, #20]
 80020d6:	69b9      	ldr	r1, [r7, #24]
 80020d8:	69f8      	ldr	r0, [r7, #28]
 80020da:	f7ff fa4a 	bl	8001572 <_ntoa_long>
 80020de:	6178      	str	r0, [r7, #20]
    // might need to right-pad spaces
    if (flags & FLAGS_LEFT) {
 80020e0:	f8d7 3088 	ldr.w	r3, [r7, #136]	; 0x88
 80020e4:	f003 0302 	and.w	r3, r3, #2
 80020e8:	2b00      	cmp	r3, #0
 80020ea:	d00f      	beq.n	800210c <_etoa+0x514>
      while (idx - start_idx < width) out(' ', buffer, idx++, maxlen);
 80020ec:	e007      	b.n	80020fe <_etoa+0x506>
 80020ee:	697a      	ldr	r2, [r7, #20]
 80020f0:	1c53      	adds	r3, r2, #1
 80020f2:	617b      	str	r3, [r7, #20]
 80020f4:	69fc      	ldr	r4, [r7, #28]
 80020f6:	693b      	ldr	r3, [r7, #16]
 80020f8:	69b9      	ldr	r1, [r7, #24]
 80020fa:	2020      	movs	r0, #32
 80020fc:	47a0      	blx	r4
 80020fe:	697a      	ldr	r2, [r7, #20]
 8002100:	6afb      	ldr	r3, [r7, #44]	; 0x2c
 8002102:	1ad3      	subs	r3, r2, r3
 8002104:	f8d7 2084 	ldr.w	r2, [r7, #132]	; 0x84
 8002108:	429a      	cmp	r2, r3
 800210a:	d8f0      	bhi.n	80020ee <_etoa+0x4f6>
    }
  }
  return idx;
 800210c:	697b      	ldr	r3, [r7, #20]
}
 800210e:	4618      	mov	r0, r3
 8002110:	375c      	adds	r7, #92	; 0x5c
 8002112:	46bd      	mov	sp, r7
 8002114:	e8bd 8ff0 	ldmia.w	sp!, {r4, r5, r6, r7, r8, r9, sl, fp, pc}
 8002118:	eb1c432d 	.word	0xeb1c432d
 800211c:	3f1a36e2 	.word	0x3f1a36e2
 8002120:	00000000 	.word	0x00000000
 8002124:	412e8480 	.word	0x412e8480

08002128 <_vsnprintf>:
#endif  // PRINTF_SUPPORT_FLOAT


// internal vsnprintf
static int _vsnprintf(out_fct_type out, char* buffer, const size_t maxlen, const char* format, va_list va)
{
 8002128:	b5b0      	push	{r4, r5, r7, lr}
 800212a:	b0a0      	sub	sp, #128	; 0x80
 800212c:	af0a      	add	r7, sp, #40	; 0x28
 800212e:	60f8      	str	r0, [r7, #12]
 8002130:	60b9      	str	r1, [r7, #8]
 8002132:	607a      	str	r2, [r7, #4]
 8002134:	603b      	str	r3, [r7, #0]
  unsigned int flags, width, precision, n;
  size_t idx = 0U;
 8002136:	2300      	movs	r3, #0
 8002138:	647b      	str	r3, [r7, #68]	; 0x44

  if (!buffer) {
 800213a:	68bb      	ldr	r3, [r7, #8]
 800213c:	2b00      	cmp	r3, #0
 800213e:	f040 8492 	bne.w	8002a66 <_vsnprintf+0x93e>
    // use null output function
    out = _out_null;
 8002142:	4ba0      	ldr	r3, [pc, #640]	; (80023c4 <_vsnprintf+0x29c>)
 8002144:	60fb      	str	r3, [r7, #12]
  }

  while (*format)
 8002146:	f000 bc8e 	b.w	8002a66 <_vsnprintf+0x93e>
  {
    // format specifier?  %[flags][width][.precision][length]
    if (*format != '%') {
 800214a:	683b      	ldr	r3, [r7, #0]
 800214c:	781b      	ldrb	r3, [r3, #0]
 800214e:	2b25      	cmp	r3, #37	; 0x25
 8002150:	d00d      	beq.n	800216e <_vsnprintf+0x46>
      // no
      out(*format, buffer, idx++, maxlen);
 8002152:	683b      	ldr	r3, [r7, #0]
 8002154:	7818      	ldrb	r0, [r3, #0]
 8002156:	6c7a      	ldr	r2, [r7, #68]	; 0x44
 8002158:	1c53      	adds	r3, r2, #1
 800215a:	647b      	str	r3, [r7, #68]	; 0x44
 800215c:	68fc      	ldr	r4, [r7, #12]
 800215e:	687b      	ldr	r3, [r7, #4]
 8002160:	68b9      	ldr	r1, [r7, #8]
 8002162:	47a0      	blx	r4
      format++;
 8002164:	683b      	ldr	r3, [r7, #0]
 8002166:	3301      	adds	r3, #1
 8002168:	603b      	str	r3, [r7, #0]
      continue;
 800216a:	f000 bc7c 	b.w	8002a66 <_vsnprintf+0x93e>
    }
    else {
      // yes, evaluate it
      format++;
 800216e:	683b      	ldr	r3, [r7, #0]
 8002170:	3301      	adds	r3, #1
 8002172:	603b      	str	r3, [r7, #0]
    }

    // evaluate flags
    flags = 0U;
 8002174:	2300      	movs	r3, #0
 8002176:	657b      	str	r3, [r7, #84]	; 0x54
    do {
      switch (*format) {
 8002178:	683b      	ldr	r3, [r7, #0]
 800217a:	781b      	ldrb	r3, [r3, #0]
 800217c:	3b20      	subs	r3, #32
 800217e:	2b10      	cmp	r3, #16
 8002180:	d856      	bhi.n	8002230 <_vsnprintf+0x108>
 8002182:	a201      	add	r2, pc, #4	; (adr r2, 8002188 <_vsnprintf+0x60>)
 8002184:	f852 f023 	ldr.w	pc, [r2, r3, lsl #2]
 8002188:	08002209 	.word	0x08002209
 800218c:	08002231 	.word	0x08002231
 8002190:	08002231 	.word	0x08002231
 8002194:	0800221d 	.word	0x0800221d
 8002198:	08002231 	.word	0x08002231
 800219c:	08002231 	.word	0x08002231
 80021a0:	08002231 	.word	0x08002231
 80021a4:	08002231 	.word	0x08002231
 80021a8:	08002231 	.word	0x08002231
 80021ac:	08002231 	.word	0x08002231
 80021b0:	08002231 	.word	0x08002231
 80021b4:	080021f5 	.word	0x080021f5
 80021b8:	08002231 	.word	0x08002231
 80021bc:	080021e1 	.word	0x080021e1
 80021c0:	08002231 	.word	0x08002231
 80021c4:	08002231 	.word	0x08002231
 80021c8:	080021cd 	.word	0x080021cd
        case '0': flags |= FLAGS_ZEROPAD; format++; n = 1U; break;
 80021cc:	6d7b      	ldr	r3, [r7, #84]	; 0x54
 80021ce:	f043 0301 	orr.w	r3, r3, #1
 80021d2:	657b      	str	r3, [r7, #84]	; 0x54
 80021d4:	683b      	ldr	r3, [r7, #0]
 80021d6:	3301      	adds	r3, #1
 80021d8:	603b      	str	r3, [r7, #0]
 80021da:	2301      	movs	r3, #1
 80021dc:	64bb      	str	r3, [r7, #72]	; 0x48
 80021de:	e02a      	b.n	8002236 <_vsnprintf+0x10e>
        case '-': flags |= FLAGS_LEFT;    format++; n = 1U; break;
 80021e0:	6d7b      	ldr	r3, [r7, #84]	; 0x54
 80021e2:	f043 0302 	orr.w	r3, r3, #2
 80021e6:	657b      	str	r3, [r7, #84]	; 0x54
 80021e8:	683b      	ldr	r3, [r7, #0]
 80021ea:	3301      	adds	r3, #1
 80021ec:	603b      	str	r3, [r7, #0]
 80021ee:	2301      	movs	r3, #1
 80021f0:	64bb      	str	r3, [r7, #72]	; 0x48
 80021f2:	e020      	b.n	8002236 <_vsnprintf+0x10e>
        case '+': flags |= FLAGS_PLUS;    format++; n = 1U; break;
 80021f4:	6d7b      	ldr	r3, [r7, #84]	; 0x54
 80021f6:	f043 0304 	orr.w	r3, r3, #4
 80021fa:	657b      	str	r3, [r7, #84]	; 0x54
 80021fc:	683b      	ldr	r3, [r7, #0]
 80021fe:	3301      	adds	r3, #1
 8002200:	603b      	str	r3, [r7, #0]
 8002202:	2301      	movs	r3, #1
 8002204:	64bb      	str	r3, [r7, #72]	; 0x48
 8002206:	e016      	b.n	8002236 <_vsnprintf+0x10e>
        case ' ': flags |= FLAGS_SPACE;   format++; n = 1U; break;
 8002208:	6d7b      	ldr	r3, [r7, #84]	; 0x54
 800220a:	f043 0308 	orr.w	r3, r3, #8
 800220e:	657b      	str	r3, [r7, #84]	; 0x54
 8002210:	683b      	ldr	r3, [r7, #0]
 8002212:	3301      	adds	r3, #1
 8002214:	603b      	str	r3, [r7, #0]
 8002216:	2301      	movs	r3, #1
 8002218:	64bb      	str	r3, [r7, #72]	; 0x48
 800221a:	e00c      	b.n	8002236 <_vsnprintf+0x10e>
        case '#': flags |= FLAGS_HASH;    format++; n = 1U; break;
 800221c:	6d7b      	ldr	r3, [r7, #84]	; 0x54
 800221e:	f043 0310 	orr.w	r3, r3, #16
 8002222:	657b      	str	r3, [r7, #84]	; 0x54
 8002224:	683b      	ldr	r3, [r7, #0]
 8002226:	3301      	adds	r3, #1
 8002228:	603b      	str	r3, [r7, #0]
 800222a:	2301      	movs	r3, #1
 800222c:	64bb      	str	r3, [r7, #72]	; 0x48
 800222e:	e002      	b.n	8002236 <_vsnprintf+0x10e>
        default :                                   n = 0U; break;
 8002230:	2300      	movs	r3, #0
 8002232:	64bb      	str	r3, [r7, #72]	; 0x48
 8002234:	bf00      	nop
      }
    } while (n);
 8002236:	6cbb      	ldr	r3, [r7, #72]	; 0x48
 8002238:	2b00      	cmp	r3, #0
 800223a:	d19d      	bne.n	8002178 <_vsnprintf+0x50>

    // evaluate width field
    width = 0U;
 800223c:	2300      	movs	r3, #0
 800223e:	653b      	str	r3, [r7, #80]	; 0x50
    if (_is_digit(*format)) {
 8002240:	683b      	ldr	r3, [r7, #0]
 8002242:	781b      	ldrb	r3, [r3, #0]
 8002244:	4618      	mov	r0, r3
 8002246:	f7ff f82d 	bl	80012a4 <_is_digit>
 800224a:	4603      	mov	r3, r0
 800224c:	2b00      	cmp	r3, #0
 800224e:	d005      	beq.n	800225c <_vsnprintf+0x134>
      width = _atoi(&format);
 8002250:	463b      	mov	r3, r7
 8002252:	4618      	mov	r0, r3
 8002254:	f7ff f83d 	bl	80012d2 <_atoi>
 8002258:	6538      	str	r0, [r7, #80]	; 0x50
 800225a:	e018      	b.n	800228e <_vsnprintf+0x166>
    }
    else if (*format == '*') {
 800225c:	683b      	ldr	r3, [r7, #0]
 800225e:	781b      	ldrb	r3, [r3, #0]
 8002260:	2b2a      	cmp	r3, #42	; 0x2a
 8002262:	d114      	bne.n	800228e <_vsnprintf+0x166>
      const int w = va_arg(va, int);
 8002264:	6ebb      	ldr	r3, [r7, #104]	; 0x68
 8002266:	1d1a      	adds	r2, r3, #4
 8002268:	66ba      	str	r2, [r7, #104]	; 0x68
 800226a:	681b      	ldr	r3, [r3, #0]
 800226c:	633b      	str	r3, [r7, #48]	; 0x30
      if (w < 0) {
 800226e:	6b3b      	ldr	r3, [r7, #48]	; 0x30
 8002270:	2b00      	cmp	r3, #0
 8002272:	da07      	bge.n	8002284 <_vsnprintf+0x15c>
        flags |= FLAGS_LEFT;    // reverse padding
 8002274:	6d7b      	ldr	r3, [r7, #84]	; 0x54
 8002276:	f043 0302 	orr.w	r3, r3, #2
 800227a:	657b      	str	r3, [r7, #84]	; 0x54
        width = (unsigned int)-w;
 800227c:	6b3b      	ldr	r3, [r7, #48]	; 0x30
 800227e:	425b      	negs	r3, r3
 8002280:	653b      	str	r3, [r7, #80]	; 0x50
 8002282:	e001      	b.n	8002288 <_vsnprintf+0x160>
      }
      else {
        width = (unsigned int)w;
 8002284:	6b3b      	ldr	r3, [r7, #48]	; 0x30
 8002286:	653b      	str	r3, [r7, #80]	; 0x50
      }
      format++;
 8002288:	683b      	ldr	r3, [r7, #0]
 800228a:	3301      	adds	r3, #1
 800228c:	603b      	str	r3, [r7, #0]
    }

    // evaluate precision field
    precision = 0U;
 800228e:	2300      	movs	r3, #0
 8002290:	64fb      	str	r3, [r7, #76]	; 0x4c
    if (*format == '.') {
 8002292:	683b      	ldr	r3, [r7, #0]
 8002294:	781b      	ldrb	r3, [r3, #0]
 8002296:	2b2e      	cmp	r3, #46	; 0x2e
 8002298:	d124      	bne.n	80022e4 <_vsnprintf+0x1bc>
      flags |= FLAGS_PRECISION;
 800229a:	6d7b      	ldr	r3, [r7, #84]	; 0x54
 800229c:	f443 6380 	orr.w	r3, r3, #1024	; 0x400
 80022a0:	657b      	str	r3, [r7, #84]	; 0x54
      format++;
 80022a2:	683b      	ldr	r3, [r7, #0]
 80022a4:	3301      	adds	r3, #1
 80022a6:	603b      	str	r3, [r7, #0]
      if (_is_digit(*format)) {
 80022a8:	683b      	ldr	r3, [r7, #0]
 80022aa:	781b      	ldrb	r3, [r3, #0]
 80022ac:	4618      	mov	r0, r3
 80022ae:	f7fe fff9 	bl	80012a4 <_is_digit>
 80022b2:	4603      	mov	r3, r0
 80022b4:	2b00      	cmp	r3, #0
 80022b6:	d005      	beq.n	80022c4 <_vsnprintf+0x19c>
        precision = _atoi(&format);
 80022b8:	463b      	mov	r3, r7
 80022ba:	4618      	mov	r0, r3
 80022bc:	f7ff f809 	bl	80012d2 <_atoi>
 80022c0:	64f8      	str	r0, [r7, #76]	; 0x4c
 80022c2:	e00f      	b.n	80022e4 <_vsnprintf+0x1bc>
      }
      else if (*format == '*') {
 80022c4:	683b      	ldr	r3, [r7, #0]
 80022c6:	781b      	ldrb	r3, [r3, #0]
 80022c8:	2b2a      	cmp	r3, #42	; 0x2a
 80022ca:	d10b      	bne.n	80022e4 <_vsnprintf+0x1bc>
        const int prec = (int)va_arg(va, int);
 80022cc:	6ebb      	ldr	r3, [r7, #104]	; 0x68
 80022ce:	1d1a      	adds	r2, r3, #4
 80022d0:	66ba      	str	r2, [r7, #104]	; 0x68
 80022d2:	681b      	ldr	r3, [r3, #0]
 80022d4:	62fb      	str	r3, [r7, #44]	; 0x2c
        precision = prec > 0 ? (unsigned int)prec : 0U;
 80022d6:	6afb      	ldr	r3, [r7, #44]	; 0x2c
 80022d8:	ea23 73e3 	bic.w	r3, r3, r3, asr #31
 80022dc:	64fb      	str	r3, [r7, #76]	; 0x4c
        format++;
 80022de:	683b      	ldr	r3, [r7, #0]
 80022e0:	3301      	adds	r3, #1
 80022e2:	603b      	str	r3, [r7, #0]
      }
    }

    // evaluate length field
    switch (*format) {
 80022e4:	683b      	ldr	r3, [r7, #0]
 80022e6:	781b      	ldrb	r3, [r3, #0]
 80022e8:	3b68      	subs	r3, #104	; 0x68
 80022ea:	2b12      	cmp	r3, #18
 80022ec:	d866      	bhi.n	80023bc <_vsnprintf+0x294>
 80022ee:	a201      	add	r2, pc, #4	; (adr r2, 80022f4 <_vsnprintf+0x1cc>)
 80022f0:	f852 f023 	ldr.w	pc, [r2, r3, lsl #2]
 80022f4:	08002367 	.word	0x08002367
 80022f8:	080023bd 	.word	0x080023bd
 80022fc:	0800239d 	.word	0x0800239d
 8002300:	080023bd 	.word	0x080023bd
 8002304:	08002341 	.word	0x08002341
 8002308:	080023bd 	.word	0x080023bd
 800230c:	080023bd 	.word	0x080023bd
 8002310:	080023bd 	.word	0x080023bd
 8002314:	080023bd 	.word	0x080023bd
 8002318:	080023bd 	.word	0x080023bd
 800231c:	080023bd 	.word	0x080023bd
 8002320:	080023bd 	.word	0x080023bd
 8002324:	0800238d 	.word	0x0800238d
 8002328:	080023bd 	.word	0x080023bd
 800232c:	080023bd 	.word	0x080023bd
 8002330:	080023bd 	.word	0x080023bd
 8002334:	080023bd 	.word	0x080023bd
 8002338:	080023bd 	.word	0x080023bd
 800233c:	080023ad 	.word	0x080023ad
      case 'l' :
        flags |= FLAGS_LONG;
 8002340:	6d7b      	ldr	r3, [r7, #84]	; 0x54
 8002342:	f443 7380 	orr.w	r3, r3, #256	; 0x100
 8002346:	657b      	str	r3, [r7, #84]	; 0x54
        format++;
 8002348:	683b      	ldr	r3, [r7, #0]
 800234a:	3301      	adds	r3, #1
 800234c:	603b      	str	r3, [r7, #0]
        if (*format == 'l') {
 800234e:	683b      	ldr	r3, [r7, #0]
 8002350:	781b      	ldrb	r3, [r3, #0]
 8002352:	2b6c      	cmp	r3, #108	; 0x6c
 8002354:	d134      	bne.n	80023c0 <_vsnprintf+0x298>
          flags |= FLAGS_LONG_LONG;
 8002356:	6d7b      	ldr	r3, [r7, #84]	; 0x54
 8002358:	f443 7300 	orr.w	r3, r3, #512	; 0x200
 800235c:	657b      	str	r3, [r7, #84]	; 0x54
          format++;
 800235e:	683b      	ldr	r3, [r7, #0]
 8002360:	3301      	adds	r3, #1
 8002362:	603b      	str	r3, [r7, #0]
        }
        break;
 8002364:	e02c      	b.n	80023c0 <_vsnprintf+0x298>
      case 'h' :
        flags |= FLAGS_SHORT;
 8002366:	6d7b      	ldr	r3, [r7, #84]	; 0x54
 8002368:	f043 0380 	orr.w	r3, r3, #128	; 0x80
 800236c:	657b      	str	r3, [r7, #84]	; 0x54
        format++;
 800236e:	683b      	ldr	r3, [r7, #0]
 8002370:	3301      	adds	r3, #1
 8002372:	603b      	str	r3, [r7, #0]
        if (*format == 'h') {
 8002374:	683b      	ldr	r3, [r7, #0]
 8002376:	781b      	ldrb	r3, [r3, #0]
 8002378:	2b68      	cmp	r3, #104	; 0x68
 800237a:	d125      	bne.n	80023c8 <_vsnprintf+0x2a0>
          flags |= FLAGS_CHAR;
 800237c:	6d7b      	ldr	r3, [r7, #84]	; 0x54
 800237e:	f043 0340 	orr.w	r3, r3, #64	; 0x40
 8002382:	657b      	str	r3, [r7, #84]	; 0x54
          format++;
 8002384:	683b      	ldr	r3, [r7, #0]
 8002386:	3301      	adds	r3, #1
 8002388:	603b      	str	r3, [r7, #0]
        }
        break;
 800238a:	e01d      	b.n	80023c8 <_vsnprintf+0x2a0>
#if defined(PRINTF_SUPPORT_PTRDIFF_T)
      case 't' :
        flags |= (sizeof(ptrdiff_t) == sizeof(long) ? FLAGS_LONG : FLAGS_LONG_LONG);
 800238c:	6d7b      	ldr	r3, [r7, #84]	; 0x54
 800238e:	f443 7380 	orr.w	r3, r3, #256	; 0x100
 8002392:	657b      	str	r3, [r7, #84]	; 0x54
        format++;
 8002394:	683b      	ldr	r3, [r7, #0]
 8002396:	3301      	adds	r3, #1
 8002398:	603b      	str	r3, [r7, #0]
        break;
 800239a:	e016      	b.n	80023ca <_vsnprintf+0x2a2>
#endif
      case 'j' :
        flags |= (sizeof(intmax_t) == sizeof(long) ? FLAGS_LONG : FLAGS_LONG_LONG);
 800239c:	6d7b      	ldr	r3, [r7, #84]	; 0x54
 800239e:	f443 7300 	orr.w	r3, r3, #512	; 0x200
 80023a2:	657b      	str	r3, [r7, #84]	; 0x54
        format++;
 80023a4:	683b      	ldr	r3, [r7, #0]
 80023a6:	3301      	adds	r3, #1
 80023a8:	603b      	str	r3, [r7, #0]
        break;
 80023aa:	e00e      	b.n	80023ca <_vsnprintf+0x2a2>
      case 'z' :
        flags |= (sizeof(size_t) == sizeof(long) ? FLAGS_LONG : FLAGS_LONG_LONG);
 80023ac:	6d7b      	ldr	r3, [r7, #84]	; 0x54
 80023ae:	f443 7380 	orr.w	r3, r3, #256	; 0x100
 80023b2:	657b      	str	r3, [r7, #84]	; 0x54
        format++;
 80023b4:	683b      	ldr	r3, [r7, #0]
 80023b6:	3301      	adds	r3, #1
 80023b8:	603b      	str	r3, [r7, #0]
        break;
 80023ba:	e006      	b.n	80023ca <_vsnprintf+0x2a2>
      default :
        break;
 80023bc:	bf00      	nop
 80023be:	e004      	b.n	80023ca <_vsnprintf+0x2a2>
        break;
 80023c0:	bf00      	nop
 80023c2:	e002      	b.n	80023ca <_vsnprintf+0x2a2>
 80023c4:	08001229 	.word	0x08001229
        break;
 80023c8:	bf00      	nop
    }

    // evaluate specifier
    switch (*format) {
 80023ca:	683b      	ldr	r3, [r7, #0]
 80023cc:	781b      	ldrb	r3, [r3, #0]
 80023ce:	3b25      	subs	r3, #37	; 0x25
 80023d0:	2b53      	cmp	r3, #83	; 0x53
 80023d2:	f200 833b 	bhi.w	8002a4c <_vsnprintf+0x924>
 80023d6:	a201      	add	r2, pc, #4	; (adr r2, 80023dc <_vsnprintf+0x2b4>)
 80023d8:	f852 f023 	ldr.w	pc, [r2, r3, lsl #2]
 80023dc:	08002a35 	.word	0x08002a35
 80023e0:	08002a4d 	.word	0x08002a4d
 80023e4:	08002a4d 	.word	0x08002a4d
 80023e8:	08002a4d 	.word	0x08002a4d
 80023ec:	08002a4d 	.word	0x08002a4d
 80023f0:	08002a4d 	.word	0x08002a4d
 80023f4:	08002a4d 	.word	0x08002a4d
 80023f8:	08002a4d 	.word	0x08002a4d
 80023fc:	08002a4d 	.word	0x08002a4d
 8002400:	08002a4d 	.word	0x08002a4d
 8002404:	08002a4d 	.word	0x08002a4d
 8002408:	08002a4d 	.word	0x08002a4d
 800240c:	08002a4d 	.word	0x08002a4d
 8002410:	08002a4d 	.word	0x08002a4d
 8002414:	08002a4d 	.word	0x08002a4d
 8002418:	08002a4d 	.word	0x08002a4d
 800241c:	08002a4d 	.word	0x08002a4d
 8002420:	08002a4d 	.word	0x08002a4d
 8002424:	08002a4d 	.word	0x08002a4d
 8002428:	08002a4d 	.word	0x08002a4d
 800242c:	08002a4d 	.word	0x08002a4d
 8002430:	08002a4d 	.word	0x08002a4d
 8002434:	08002a4d 	.word	0x08002a4d
 8002438:	08002a4d 	.word	0x08002a4d
 800243c:	08002a4d 	.word	0x08002a4d
 8002440:	08002a4d 	.word	0x08002a4d
 8002444:	08002a4d 	.word	0x08002a4d
 8002448:	08002a4d 	.word	0x08002a4d
 800244c:	08002a4d 	.word	0x08002a4d
 8002450:	08002a4d 	.word	0x08002a4d
 8002454:	08002a4d 	.word	0x08002a4d
 8002458:	08002a4d 	.word	0x08002a4d
 800245c:	08002805 	.word	0x08002805
 8002460:	080027b9 	.word	0x080027b9
 8002464:	08002805 	.word	0x08002805
 8002468:	08002a4d 	.word	0x08002a4d
 800246c:	08002a4d 	.word	0x08002a4d
 8002470:	08002a4d 	.word	0x08002a4d
 8002474:	08002a4d 	.word	0x08002a4d
 8002478:	08002a4d 	.word	0x08002a4d
 800247c:	08002a4d 	.word	0x08002a4d
 8002480:	08002a4d 	.word	0x08002a4d
 8002484:	08002a4d 	.word	0x08002a4d
 8002488:	08002a4d 	.word	0x08002a4d
 800248c:	08002a4d 	.word	0x08002a4d
 8002490:	08002a4d 	.word	0x08002a4d
 8002494:	08002a4d 	.word	0x08002a4d
 8002498:	08002a4d 	.word	0x08002a4d
 800249c:	08002a4d 	.word	0x08002a4d
 80024a0:	08002a4d 	.word	0x08002a4d
 80024a4:	08002a4d 	.word	0x08002a4d
 80024a8:	0800252d 	.word	0x0800252d
 80024ac:	08002a4d 	.word	0x08002a4d
 80024b0:	08002a4d 	.word	0x08002a4d
 80024b4:	08002a4d 	.word	0x08002a4d
 80024b8:	08002a4d 	.word	0x08002a4d
 80024bc:	08002a4d 	.word	0x08002a4d
 80024c0:	08002a4d 	.word	0x08002a4d
 80024c4:	08002a4d 	.word	0x08002a4d
 80024c8:	08002a4d 	.word	0x08002a4d
 80024cc:	08002a4d 	.word	0x08002a4d
 80024d0:	0800252d 	.word	0x0800252d
 80024d4:	08002871 	.word	0x08002871
 80024d8:	0800252d 	.word	0x0800252d
 80024dc:	08002805 	.word	0x08002805
 80024e0:	080027b9 	.word	0x080027b9
 80024e4:	08002805 	.word	0x08002805
 80024e8:	08002a4d 	.word	0x08002a4d
 80024ec:	0800252d 	.word	0x0800252d
 80024f0:	08002a4d 	.word	0x08002a4d
 80024f4:	08002a4d 	.word	0x08002a4d
 80024f8:	08002a4d 	.word	0x08002a4d
 80024fc:	08002a4d 	.word	0x08002a4d
 8002500:	08002a4d 	.word	0x08002a4d
 8002504:	0800252d 	.word	0x0800252d
 8002508:	080029a9 	.word	0x080029a9
 800250c:	08002a4d 	.word	0x08002a4d
 8002510:	08002a4d 	.word	0x08002a4d
 8002514:	080028e5 	.word	0x080028e5
 8002518:	08002a4d 	.word	0x08002a4d
 800251c:	0800252d 	.word	0x0800252d
 8002520:	08002a4d 	.word	0x08002a4d
 8002524:	08002a4d 	.word	0x08002a4d
 8002528:	0800252d 	.word	0x0800252d
      case 'X' :
      case 'o' :
      case 'b' : {
        // set the base
        unsigned int base;
        if (*format == 'x' || *format == 'X') {
 800252c:	683b      	ldr	r3, [r7, #0]
 800252e:	781b      	ldrb	r3, [r3, #0]
 8002530:	2b78      	cmp	r3, #120	; 0x78
 8002532:	d003      	beq.n	800253c <_vsnprintf+0x414>
 8002534:	683b      	ldr	r3, [r7, #0]
 8002536:	781b      	ldrb	r3, [r3, #0]
 8002538:	2b58      	cmp	r3, #88	; 0x58
 800253a:	d102      	bne.n	8002542 <_vsnprintf+0x41a>
          base = 16U;
 800253c:	2310      	movs	r3, #16
 800253e:	643b      	str	r3, [r7, #64]	; 0x40
 8002540:	e013      	b.n	800256a <_vsnprintf+0x442>
        }
        else if (*format == 'o') {
 8002542:	683b      	ldr	r3, [r7, #0]
 8002544:	781b      	ldrb	r3, [r3, #0]
 8002546:	2b6f      	cmp	r3, #111	; 0x6f
 8002548:	d102      	bne.n	8002550 <_vsnprintf+0x428>
          base =  8U;
 800254a:	2308      	movs	r3, #8
 800254c:	643b      	str	r3, [r7, #64]	; 0x40
 800254e:	e00c      	b.n	800256a <_vsnprintf+0x442>
        }
        else if (*format == 'b') {
 8002550:	683b      	ldr	r3, [r7, #0]
 8002552:	781b      	ldrb	r3, [r3, #0]
 8002554:	2b62      	cmp	r3, #98	; 0x62
 8002556:	d102      	bne.n	800255e <_vsnprintf+0x436>
          base =  2U;
 8002558:	2302      	movs	r3, #2
 800255a:	643b      	str	r3, [r7, #64]	; 0x40
 800255c:	e005      	b.n	800256a <_vsnprintf+0x442>
        }
        else {
          base = 10U;
 800255e:	230a      	movs	r3, #10
 8002560:	643b      	str	r3, [r7, #64]	; 0x40
          flags &= ~FLAGS_HASH;   // no hash for dec format
 8002562:	6d7b      	ldr	r3, [r7, #84]	; 0x54
 8002564:	f023 0310 	bic.w	r3, r3, #16
 8002568:	657b      	str	r3, [r7, #84]	; 0x54
        }
        // uppercase
        if (*format == 'X') {
 800256a:	683b      	ldr	r3, [r7, #0]
 800256c:	781b      	ldrb	r3, [r3, #0]
 800256e:	2b58      	cmp	r3, #88	; 0x58
 8002570:	d103      	bne.n	800257a <_vsnprintf+0x452>
          flags |= FLAGS_UPPERCASE;
 8002572:	6d7b      	ldr	r3, [r7, #84]	; 0x54
 8002574:	f043 0320 	orr.w	r3, r3, #32
 8002578:	657b      	str	r3, [r7, #84]	; 0x54
        }

        // no plus or space flag for u, x, X, o, b
        if ((*format != 'i') && (*format != 'd')) {
 800257a:	683b      	ldr	r3, [r7, #0]
 800257c:	781b      	ldrb	r3, [r3, #0]
 800257e:	2b69      	cmp	r3, #105	; 0x69
 8002580:	d007      	beq.n	8002592 <_vsnprintf+0x46a>
 8002582:	683b      	ldr	r3, [r7, #0]
 8002584:	781b      	ldrb	r3, [r3, #0]
 8002586:	2b64      	cmp	r3, #100	; 0x64
 8002588:	d003      	beq.n	8002592 <_vsnprintf+0x46a>
          flags &= ~(FLAGS_PLUS | FLAGS_SPACE);
 800258a:	6d7b      	ldr	r3, [r7, #84]	; 0x54
 800258c:	f023 030c 	bic.w	r3, r3, #12
 8002590:	657b      	str	r3, [r7, #84]	; 0x54
        }

        // ignore '0' flag when precision is given
        if (flags & FLAGS_PRECISION) {
 8002592:	6d7b      	ldr	r3, [r7, #84]	; 0x54
 8002594:	f403 6380 	and.w	r3, r3, #1024	; 0x400
 8002598:	2b00      	cmp	r3, #0
 800259a:	d003      	beq.n	80025a4 <_vsnprintf+0x47c>
          flags &= ~FLAGS_ZEROPAD;
 800259c:	6d7b      	ldr	r3, [r7, #84]	; 0x54
 800259e:	f023 0301 	bic.w	r3, r3, #1
 80025a2:	657b      	str	r3, [r7, #84]	; 0x54
        }

        // convert the integer
        if ((*format == 'i') || (*format == 'd')) {
 80025a4:	683b      	ldr	r3, [r7, #0]
 80025a6:	781b      	ldrb	r3, [r3, #0]
 80025a8:	2b69      	cmp	r3, #105	; 0x69
 80025aa:	d004      	beq.n	80025b6 <_vsnprintf+0x48e>
 80025ac:	683b      	ldr	r3, [r7, #0]
 80025ae:	781b      	ldrb	r3, [r3, #0]
 80025b0:	2b64      	cmp	r3, #100	; 0x64
 80025b2:	f040 808d 	bne.w	80026d0 <_vsnprintf+0x5a8>
          // signed
          if (flags & FLAGS_LONG_LONG) {
 80025b6:	6d7b      	ldr	r3, [r7, #84]	; 0x54
 80025b8:	f403 7300 	and.w	r3, r3, #512	; 0x200
 80025bc:	2b00      	cmp	r3, #0
 80025be:	d02e      	beq.n	800261e <_vsnprintf+0x4f6>
#if defined(PRINTF_SUPPORT_LONG_LONG)
            const long long value = va_arg(va, long long);
 80025c0:	6ebb      	ldr	r3, [r7, #104]	; 0x68
 80025c2:	3307      	adds	r3, #7
 80025c4:	f023 0307 	bic.w	r3, r3, #7
 80025c8:	f103 0208 	add.w	r2, r3, #8
 80025cc:	66ba      	str	r2, [r7, #104]	; 0x68
 80025ce:	e9d3 3400 	ldrd	r3, r4, [r3]
 80025d2:	e9c7 3404 	strd	r3, r4, [r7, #16]
            idx = _ntoa_long_long(out, buffer, idx, maxlen, (unsigned long long)(value > 0 ? value : 0 - value), value < 0, base, precision, width, flags);
 80025d6:	e9d7 3404 	ldrd	r3, r4, [r7, #16]
 80025da:	2b00      	cmp	r3, #0
 80025dc:	f174 0200 	sbcs.w	r2, r4, #0
 80025e0:	da02      	bge.n	80025e8 <_vsnprintf+0x4c0>
 80025e2:	425b      	negs	r3, r3
 80025e4:	eb64 0444 	sbc.w	r4, r4, r4, lsl #1
 80025e8:	4619      	mov	r1, r3
 80025ea:	4622      	mov	r2, r4
 80025ec:	697b      	ldr	r3, [r7, #20]
 80025ee:	0fdb      	lsrs	r3, r3, #31
 80025f0:	b2d8      	uxtb	r0, r3
 80025f2:	6c3b      	ldr	r3, [r7, #64]	; 0x40
 80025f4:	f04f 0400 	mov.w	r4, #0
 80025f8:	6d7d      	ldr	r5, [r7, #84]	; 0x54
 80025fa:	9508      	str	r5, [sp, #32]
 80025fc:	6d3d      	ldr	r5, [r7, #80]	; 0x50
 80025fe:	9507      	str	r5, [sp, #28]
 8002600:	6cfd      	ldr	r5, [r7, #76]	; 0x4c
 8002602:	9506      	str	r5, [sp, #24]
 8002604:	e9cd 3404 	strd	r3, r4, [sp, #16]
 8002608:	9002      	str	r0, [sp, #8]
 800260a:	e9cd 1200 	strd	r1, r2, [sp]
 800260e:	687b      	ldr	r3, [r7, #4]
 8002610:	6c7a      	ldr	r2, [r7, #68]	; 0x44
 8002612:	68b9      	ldr	r1, [r7, #8]
 8002614:	68f8      	ldr	r0, [r7, #12]
 8002616:	f7ff f813 	bl	8001640 <_ntoa_long_long>
 800261a:	6478      	str	r0, [r7, #68]	; 0x44
          if (flags & FLAGS_LONG_LONG) {
 800261c:	e0c8      	b.n	80027b0 <_vsnprintf+0x688>
#endif
          }
          else if (flags & FLAGS_LONG) {
 800261e:	6d7b      	ldr	r3, [r7, #84]	; 0x54
 8002620:	f403 7380 	and.w	r3, r3, #256	; 0x100
 8002624:	2b00      	cmp	r3, #0
 8002626:	d01e      	beq.n	8002666 <_vsnprintf+0x53e>
            const long value = va_arg(va, long);
 8002628:	6ebb      	ldr	r3, [r7, #104]	; 0x68
 800262a:	1d1a      	adds	r2, r3, #4
 800262c:	66ba      	str	r2, [r7, #104]	; 0x68
 800262e:	681b      	ldr	r3, [r3, #0]
 8002630:	61fb      	str	r3, [r7, #28]
            idx = _ntoa_long(out, buffer, idx, maxlen, (unsigned long)(value > 0 ? value : 0 - value), value < 0, base, precision, width, flags);
 8002632:	69fb      	ldr	r3, [r7, #28]
 8002634:	2b00      	cmp	r3, #0
 8002636:	bfb8      	it	lt
 8002638:	425b      	neglt	r3, r3
 800263a:	4619      	mov	r1, r3
 800263c:	69fb      	ldr	r3, [r7, #28]
 800263e:	0fdb      	lsrs	r3, r3, #31
 8002640:	b2db      	uxtb	r3, r3
 8002642:	6d7a      	ldr	r2, [r7, #84]	; 0x54
 8002644:	9205      	str	r2, [sp, #20]
 8002646:	6d3a      	ldr	r2, [r7, #80]	; 0x50
 8002648:	9204      	str	r2, [sp, #16]
 800264a:	6cfa      	ldr	r2, [r7, #76]	; 0x4c
 800264c:	9203      	str	r2, [sp, #12]
 800264e:	6c3a      	ldr	r2, [r7, #64]	; 0x40
 8002650:	9202      	str	r2, [sp, #8]
 8002652:	9301      	str	r3, [sp, #4]
 8002654:	9100      	str	r1, [sp, #0]
 8002656:	687b      	ldr	r3, [r7, #4]
 8002658:	6c7a      	ldr	r2, [r7, #68]	; 0x44
 800265a:	68b9      	ldr	r1, [r7, #8]
 800265c:	68f8      	ldr	r0, [r7, #12]
 800265e:	f7fe ff88 	bl	8001572 <_ntoa_long>
 8002662:	6478      	str	r0, [r7, #68]	; 0x44
          if (flags & FLAGS_LONG_LONG) {
 8002664:	e0a4      	b.n	80027b0 <_vsnprintf+0x688>
          }
          else {
            const int value = (flags & FLAGS_CHAR) ? (char)va_arg(va, int) : (flags & FLAGS_SHORT) ? (short int)va_arg(va, int) : va_arg(va, int);
 8002666:	6d7b      	ldr	r3, [r7, #84]	; 0x54
 8002668:	f003 0340 	and.w	r3, r3, #64	; 0x40
 800266c:	2b00      	cmp	r3, #0
 800266e:	d005      	beq.n	800267c <_vsnprintf+0x554>
 8002670:	6ebb      	ldr	r3, [r7, #104]	; 0x68
 8002672:	1d1a      	adds	r2, r3, #4
 8002674:	66ba      	str	r2, [r7, #104]	; 0x68
 8002676:	681b      	ldr	r3, [r3, #0]
 8002678:	b2db      	uxtb	r3, r3
 800267a:	e00e      	b.n	800269a <_vsnprintf+0x572>
 800267c:	6d7b      	ldr	r3, [r7, #84]	; 0x54
 800267e:	f003 0380 	and.w	r3, r3, #128	; 0x80
 8002682:	2b00      	cmp	r3, #0
 8002684:	d005      	beq.n	8002692 <_vsnprintf+0x56a>
 8002686:	6ebb      	ldr	r3, [r7, #104]	; 0x68
 8002688:	1d1a      	adds	r2, r3, #4
 800268a:	66ba      	str	r2, [r7, #104]	; 0x68
 800268c:	681b      	ldr	r3, [r3, #0]
 800268e:	b21b      	sxth	r3, r3
 8002690:	e003      	b.n	800269a <_vsnprintf+0x572>
 8002692:	6ebb      	ldr	r3, [r7, #104]	; 0x68
 8002694:	1d1a      	adds	r2, r3, #4
 8002696:	66ba      	str	r2, [r7, #104]	; 0x68
 8002698:	681b      	ldr	r3, [r3, #0]
 800269a:	623b      	str	r3, [r7, #32]
            idx = _ntoa_long(out, buffer, idx, maxlen, (unsigned int)(value > 0 ? value : 0 - value), value < 0, base, precision, width, flags);
 800269c:	6a3b      	ldr	r3, [r7, #32]
 800269e:	2b00      	cmp	r3, #0
 80026a0:	bfb8      	it	lt
 80026a2:	425b      	neglt	r3, r3
 80026a4:	4619      	mov	r1, r3
 80026a6:	6a3b      	ldr	r3, [r7, #32]
 80026a8:	0fdb      	lsrs	r3, r3, #31
 80026aa:	b2db      	uxtb	r3, r3
 80026ac:	6d7a      	ldr	r2, [r7, #84]	; 0x54
 80026ae:	9205      	str	r2, [sp, #20]
 80026b0:	6d3a      	ldr	r2, [r7, #80]	; 0x50
 80026b2:	9204      	str	r2, [sp, #16]
 80026b4:	6cfa      	ldr	r2, [r7, #76]	; 0x4c
 80026b6:	9203      	str	r2, [sp, #12]
 80026b8:	6c3a      	ldr	r2, [r7, #64]	; 0x40
 80026ba:	9202      	str	r2, [sp, #8]
 80026bc:	9301      	str	r3, [sp, #4]
 80026be:	9100      	str	r1, [sp, #0]
 80026c0:	687b      	ldr	r3, [r7, #4]
 80026c2:	6c7a      	ldr	r2, [r7, #68]	; 0x44
 80026c4:	68b9      	ldr	r1, [r7, #8]
 80026c6:	68f8      	ldr	r0, [r7, #12]
 80026c8:	f7fe ff53 	bl	8001572 <_ntoa_long>
 80026cc:	6478      	str	r0, [r7, #68]	; 0x44
          if (flags & FLAGS_LONG_LONG) {
 80026ce:	e06f      	b.n	80027b0 <_vsnprintf+0x688>
          }
        }
        else {
          // unsigned
          if (flags & FLAGS_LONG_LONG) {
 80026d0:	6d7b      	ldr	r3, [r7, #84]	; 0x54
 80026d2:	f403 7300 	and.w	r3, r3, #512	; 0x200
 80026d6:	2b00      	cmp	r3, #0
 80026d8:	d020      	beq.n	800271c <_vsnprintf+0x5f4>
#if defined(PRINTF_SUPPORT_LONG_LONG)
            idx = _ntoa_long_long(out, buffer, idx, maxlen, va_arg(va, unsigned long long), false, base, precision, width, flags);
 80026da:	6ebb      	ldr	r3, [r7, #104]	; 0x68
 80026dc:	3307      	adds	r3, #7
 80026de:	f023 0307 	bic.w	r3, r3, #7
 80026e2:	f103 0208 	add.w	r2, r3, #8
 80026e6:	66ba      	str	r2, [r7, #104]	; 0x68
 80026e8:	e9d3 3400 	ldrd	r3, r4, [r3]
 80026ec:	6c3a      	ldr	r2, [r7, #64]	; 0x40
 80026ee:	4611      	mov	r1, r2
 80026f0:	f04f 0200 	mov.w	r2, #0
 80026f4:	6d78      	ldr	r0, [r7, #84]	; 0x54
 80026f6:	9008      	str	r0, [sp, #32]
 80026f8:	6d38      	ldr	r0, [r7, #80]	; 0x50
 80026fa:	9007      	str	r0, [sp, #28]
 80026fc:	6cf8      	ldr	r0, [r7, #76]	; 0x4c
 80026fe:	9006      	str	r0, [sp, #24]
 8002700:	e9cd 1204 	strd	r1, r2, [sp, #16]
 8002704:	2200      	movs	r2, #0
 8002706:	9202      	str	r2, [sp, #8]
 8002708:	e9cd 3400 	strd	r3, r4, [sp]
 800270c:	687b      	ldr	r3, [r7, #4]
 800270e:	6c7a      	ldr	r2, [r7, #68]	; 0x44
 8002710:	68b9      	ldr	r1, [r7, #8]
 8002712:	68f8      	ldr	r0, [r7, #12]
 8002714:	f7fe ff94 	bl	8001640 <_ntoa_long_long>
 8002718:	6478      	str	r0, [r7, #68]	; 0x44
 800271a:	e049      	b.n	80027b0 <_vsnprintf+0x688>
#endif
          }
          else if (flags & FLAGS_LONG) {
 800271c:	6d7b      	ldr	r3, [r7, #84]	; 0x54
 800271e:	f403 7380 	and.w	r3, r3, #256	; 0x100
 8002722:	2b00      	cmp	r3, #0
 8002724:	d016      	beq.n	8002754 <_vsnprintf+0x62c>
            idx = _ntoa_long(out, buffer, idx, maxlen, va_arg(va, unsigned long), false, base, precision, width, flags);
 8002726:	6ebb      	ldr	r3, [r7, #104]	; 0x68
 8002728:	1d1a      	adds	r2, r3, #4
 800272a:	66ba      	str	r2, [r7, #104]	; 0x68
 800272c:	681b      	ldr	r3, [r3, #0]
 800272e:	6d7a      	ldr	r2, [r7, #84]	; 0x54
 8002730:	9205      	str	r2, [sp, #20]
 8002732:	6d3a      	ldr	r2, [r7, #80]	; 0x50
 8002734:	9204      	str	r2, [sp, #16]
 8002736:	6cfa      	ldr	r2, [r7, #76]	; 0x4c
 8002738:	9203      	str	r2, [sp, #12]
 800273a:	6c3a      	ldr	r2, [r7, #64]	; 0x40
 800273c:	9202      	str	r2, [sp, #8]
 800273e:	2200      	movs	r2, #0
 8002740:	9201      	str	r2, [sp, #4]
 8002742:	9300      	str	r3, [sp, #0]
 8002744:	687b      	ldr	r3, [r7, #4]
 8002746:	6c7a      	ldr	r2, [r7, #68]	; 0x44
 8002748:	68b9      	ldr	r1, [r7, #8]
 800274a:	68f8      	ldr	r0, [r7, #12]
 800274c:	f7fe ff11 	bl	8001572 <_ntoa_long>
 8002750:	6478      	str	r0, [r7, #68]	; 0x44
 8002752:	e02d      	b.n	80027b0 <_vsnprintf+0x688>
          }
          else {
            const unsigned int value = (flags & FLAGS_CHAR) ? (unsigned char)va_arg(va, unsigned int) : (flags & FLAGS_SHORT) ? (unsigned short int)va_arg(va, unsigned int) : va_arg(va, unsigned int);
 8002754:	6d7b      	ldr	r3, [r7, #84]	; 0x54
 8002756:	f003 0340 	and.w	r3, r3, #64	; 0x40
 800275a:	2b00      	cmp	r3, #0
 800275c:	d005      	beq.n	800276a <_vsnprintf+0x642>
 800275e:	6ebb      	ldr	r3, [r7, #104]	; 0x68
 8002760:	1d1a      	adds	r2, r3, #4
 8002762:	66ba      	str	r2, [r7, #104]	; 0x68
 8002764:	681b      	ldr	r3, [r3, #0]
 8002766:	b2db      	uxtb	r3, r3
 8002768:	e00e      	b.n	8002788 <_vsnprintf+0x660>
 800276a:	6d7b      	ldr	r3, [r7, #84]	; 0x54
 800276c:	f003 0380 	and.w	r3, r3, #128	; 0x80
 8002770:	2b00      	cmp	r3, #0
 8002772:	d005      	beq.n	8002780 <_vsnprintf+0x658>
 8002774:	6ebb      	ldr	r3, [r7, #104]	; 0x68
 8002776:	1d1a      	adds	r2, r3, #4
 8002778:	66ba      	str	r2, [r7, #104]	; 0x68
 800277a:	681b      	ldr	r3, [r3, #0]
 800277c:	b29b      	uxth	r3, r3
 800277e:	e003      	b.n	8002788 <_vsnprintf+0x660>
 8002780:	6ebb      	ldr	r3, [r7, #104]	; 0x68
 8002782:	1d1a      	adds	r2, r3, #4
 8002784:	66ba      	str	r2, [r7, #104]	; 0x68
 8002786:	681b      	ldr	r3, [r3, #0]
 8002788:	627b      	str	r3, [r7, #36]	; 0x24
            idx = _ntoa_long(out, buffer, idx, maxlen, value, false, base, precision, width, flags);
 800278a:	6d7b      	ldr	r3, [r7, #84]	; 0x54
 800278c:	9305      	str	r3, [sp, #20]
 800278e:	6d3b      	ldr	r3, [r7, #80]	; 0x50
 8002790:	9304      	str	r3, [sp, #16]
 8002792:	6cfb      	ldr	r3, [r7, #76]	; 0x4c
 8002794:	9303      	str	r3, [sp, #12]
 8002796:	6c3b      	ldr	r3, [r7, #64]	; 0x40
 8002798:	9302      	str	r3, [sp, #8]
 800279a:	2300      	movs	r3, #0
 800279c:	9301      	str	r3, [sp, #4]
 800279e:	6a7b      	ldr	r3, [r7, #36]	; 0x24
 80027a0:	9300      	str	r3, [sp, #0]
 80027a2:	687b      	ldr	r3, [r7, #4]
 80027a4:	6c7a      	ldr	r2, [r7, #68]	; 0x44
 80027a6:	68b9      	ldr	r1, [r7, #8]
 80027a8:	68f8      	ldr	r0, [r7, #12]
 80027aa:	f7fe fee2 	bl	8001572 <_ntoa_long>
 80027ae:	6478      	str	r0, [r7, #68]	; 0x44
          }
        }
        format++;
 80027b0:	683b      	ldr	r3, [r7, #0]
 80027b2:	3301      	adds	r3, #1
 80027b4:	603b      	str	r3, [r7, #0]
        break;
 80027b6:	e156      	b.n	8002a66 <_vsnprintf+0x93e>
      }
#if defined(PRINTF_SUPPORT_FLOAT)
      case 'f' :
      case 'F' :
        if (*format == 'F') flags |= FLAGS_UPPERCASE;
 80027b8:	683b      	ldr	r3, [r7, #0]
 80027ba:	781b      	ldrb	r3, [r3, #0]
 80027bc:	2b46      	cmp	r3, #70	; 0x46
 80027be:	d103      	bne.n	80027c8 <_vsnprintf+0x6a0>
 80027c0:	6d7b      	ldr	r3, [r7, #84]	; 0x54
 80027c2:	f043 0320 	orr.w	r3, r3, #32
 80027c6:	657b      	str	r3, [r7, #84]	; 0x54
        idx = _ftoa(out, buffer, idx, maxlen, va_arg(va, double), precision, width, flags);
 80027c8:	6ebb      	ldr	r3, [r7, #104]	; 0x68
 80027ca:	3307      	adds	r3, #7
 80027cc:	f023 0307 	bic.w	r3, r3, #7
 80027d0:	f103 0208 	add.w	r2, r3, #8
 80027d4:	66ba      	str	r2, [r7, #104]	; 0x68
 80027d6:	ed93 7b00 	vldr	d7, [r3]
 80027da:	6d7b      	ldr	r3, [r7, #84]	; 0x54
 80027dc:	9302      	str	r3, [sp, #8]
 80027de:	6d3b      	ldr	r3, [r7, #80]	; 0x50
 80027e0:	9301      	str	r3, [sp, #4]
 80027e2:	6cfb      	ldr	r3, [r7, #76]	; 0x4c
 80027e4:	9300      	str	r3, [sp, #0]
 80027e6:	eeb0 0a47 	vmov.f32	s0, s14
 80027ea:	eef0 0a67 	vmov.f32	s1, s15
 80027ee:	687b      	ldr	r3, [r7, #4]
 80027f0:	6c7a      	ldr	r2, [r7, #68]	; 0x44
 80027f2:	68b9      	ldr	r1, [r7, #8]
 80027f4:	68f8      	ldr	r0, [r7, #12]
 80027f6:	f7fe ff93 	bl	8001720 <_ftoa>
 80027fa:	6478      	str	r0, [r7, #68]	; 0x44
        format++;
 80027fc:	683b      	ldr	r3, [r7, #0]
 80027fe:	3301      	adds	r3, #1
 8002800:	603b      	str	r3, [r7, #0]
        break;
 8002802:	e130      	b.n	8002a66 <_vsnprintf+0x93e>
#if defined(PRINTF_SUPPORT_EXPONENTIAL)
      case 'e':
      case 'E':
      case 'g':
      case 'G':
        if ((*format == 'g')||(*format == 'G')) flags |= FLAGS_ADAPT_EXP;
 8002804:	683b      	ldr	r3, [r7, #0]
 8002806:	781b      	ldrb	r3, [r3, #0]
 8002808:	2b67      	cmp	r3, #103	; 0x67
 800280a:	d003      	beq.n	8002814 <_vsnprintf+0x6ec>
 800280c:	683b      	ldr	r3, [r7, #0]
 800280e:	781b      	ldrb	r3, [r3, #0]
 8002810:	2b47      	cmp	r3, #71	; 0x47
 8002812:	d103      	bne.n	800281c <_vsnprintf+0x6f4>
 8002814:	6d7b      	ldr	r3, [r7, #84]	; 0x54
 8002816:	f443 6300 	orr.w	r3, r3, #2048	; 0x800
 800281a:	657b      	str	r3, [r7, #84]	; 0x54
        if ((*format == 'E')||(*format == 'G')) flags |= FLAGS_UPPERCASE;
 800281c:	683b      	ldr	r3, [r7, #0]
 800281e:	781b      	ldrb	r3, [r3, #0]
 8002820:	2b45      	cmp	r3, #69	; 0x45
 8002822:	d003      	beq.n	800282c <_vsnprintf+0x704>
 8002824:	683b      	ldr	r3, [r7, #0]
 8002826:	781b      	ldrb	r3, [r3, #0]
 8002828:	2b47      	cmp	r3, #71	; 0x47
 800282a:	d103      	bne.n	8002834 <_vsnprintf+0x70c>
 800282c:	6d7b      	ldr	r3, [r7, #84]	; 0x54
 800282e:	f043 0320 	orr.w	r3, r3, #32
 8002832:	657b      	str	r3, [r7, #84]	; 0x54
        idx = _etoa(out, buffer, idx, maxlen, va_arg(va, double), precision, width, flags);
 8002834:	6ebb      	ldr	r3, [r7, #104]	; 0x68
 8002836:	3307      	adds	r3, #7
 8002838:	f023 0307 	bic.w	r3, r3, #7
 800283c:	f103 0208 	add.w	r2, r3, #8
 8002840:	66ba      	str	r2, [r7, #104]	; 0x68
 8002842:	ed93 7b00 	vldr	d7, [r3]
 8002846:	6d7b      	ldr	r3, [r7, #84]	; 0x54
 8002848:	9302      	str	r3, [sp, #8]
 800284a:	6d3b      	ldr	r3, [r7, #80]	; 0x50
 800284c:	9301      	str	r3, [sp, #4]
 800284e:	6cfb      	ldr	r3, [r7, #76]	; 0x4c
 8002850:	9300      	str	r3, [sp, #0]
 8002852:	eeb0 0a47 	vmov.f32	s0, s14
 8002856:	eef0 0a67 	vmov.f32	s1, s15
 800285a:	687b      	ldr	r3, [r7, #4]
 800285c:	6c7a      	ldr	r2, [r7, #68]	; 0x44
 800285e:	68b9      	ldr	r1, [r7, #8]
 8002860:	68f8      	ldr	r0, [r7, #12]
 8002862:	f7ff f9c9 	bl	8001bf8 <_etoa>
 8002866:	6478      	str	r0, [r7, #68]	; 0x44
        format++;
 8002868:	683b      	ldr	r3, [r7, #0]
 800286a:	3301      	adds	r3, #1
 800286c:	603b      	str	r3, [r7, #0]
        break;
 800286e:	e0fa      	b.n	8002a66 <_vsnprintf+0x93e>
#endif  // PRINTF_SUPPORT_EXPONENTIAL
#endif  // PRINTF_SUPPORT_FLOAT
      case 'c' : {
        unsigned int l = 1U;
 8002870:	2301      	movs	r3, #1
 8002872:	63fb      	str	r3, [r7, #60]	; 0x3c
        // pre padding
        if (!(flags & FLAGS_LEFT)) {
 8002874:	6d7b      	ldr	r3, [r7, #84]	; 0x54
 8002876:	f003 0302 	and.w	r3, r3, #2
 800287a:	2b00      	cmp	r3, #0
 800287c:	d10e      	bne.n	800289c <_vsnprintf+0x774>
          while (l++ < width) {
 800287e:	e007      	b.n	8002890 <_vsnprintf+0x768>
            out(' ', buffer, idx++, maxlen);
 8002880:	6c7a      	ldr	r2, [r7, #68]	; 0x44
 8002882:	1c53      	adds	r3, r2, #1
 8002884:	647b      	str	r3, [r7, #68]	; 0x44
 8002886:	68fc      	ldr	r4, [r7, #12]
 8002888:	687b      	ldr	r3, [r7, #4]
 800288a:	68b9      	ldr	r1, [r7, #8]
 800288c:	2020      	movs	r0, #32
 800288e:	47a0      	blx	r4
          while (l++ < width) {
 8002890:	6bfb      	ldr	r3, [r7, #60]	; 0x3c
 8002892:	1c5a      	adds	r2, r3, #1
 8002894:	63fa      	str	r2, [r7, #60]	; 0x3c
 8002896:	6d3a      	ldr	r2, [r7, #80]	; 0x50
 8002898:	429a      	cmp	r2, r3
 800289a:	d8f1      	bhi.n	8002880 <_vsnprintf+0x758>
          }
        }
        // char output
        out((char)va_arg(va, int), buffer, idx++, maxlen);
 800289c:	6ebb      	ldr	r3, [r7, #104]	; 0x68
 800289e:	1d1a      	adds	r2, r3, #4
 80028a0:	66ba      	str	r2, [r7, #104]	; 0x68
 80028a2:	681b      	ldr	r3, [r3, #0]
 80028a4:	b2d8      	uxtb	r0, r3
 80028a6:	6c7a      	ldr	r2, [r7, #68]	; 0x44
 80028a8:	1c53      	adds	r3, r2, #1
 80028aa:	647b      	str	r3, [r7, #68]	; 0x44
 80028ac:	68fc      	ldr	r4, [r7, #12]
 80028ae:	687b      	ldr	r3, [r7, #4]
 80028b0:	68b9      	ldr	r1, [r7, #8]
 80028b2:	47a0      	blx	r4
        // post padding
        if (flags & FLAGS_LEFT) {
 80028b4:	6d7b      	ldr	r3, [r7, #84]	; 0x54
 80028b6:	f003 0302 	and.w	r3, r3, #2
 80028ba:	2b00      	cmp	r3, #0
 80028bc:	d00e      	beq.n	80028dc <_vsnprintf+0x7b4>
          while (l++ < width) {
 80028be:	e007      	b.n	80028d0 <_vsnprintf+0x7a8>
            out(' ', buffer, idx++, maxlen);
 80028c0:	6c7a      	ldr	r2, [r7, #68]	; 0x44
 80028c2:	1c53      	adds	r3, r2, #1
 80028c4:	647b      	str	r3, [r7, #68]	; 0x44
 80028c6:	68fc      	ldr	r4, [r7, #12]
 80028c8:	687b      	ldr	r3, [r7, #4]
 80028ca:	68b9      	ldr	r1, [r7, #8]
 80028cc:	2020      	movs	r0, #32
 80028ce:	47a0      	blx	r4
          while (l++ < width) {
 80028d0:	6bfb      	ldr	r3, [r7, #60]	; 0x3c
 80028d2:	1c5a      	adds	r2, r3, #1
 80028d4:	63fa      	str	r2, [r7, #60]	; 0x3c
 80028d6:	6d3a      	ldr	r2, [r7, #80]	; 0x50
 80028d8:	429a      	cmp	r2, r3
 80028da:	d8f1      	bhi.n	80028c0 <_vsnprintf+0x798>
          }
        }
        format++;
 80028dc:	683b      	ldr	r3, [r7, #0]
 80028de:	3301      	adds	r3, #1
 80028e0:	603b      	str	r3, [r7, #0]
        break;
 80028e2:	e0c0      	b.n	8002a66 <_vsnprintf+0x93e>
      }

      case 's' : {
        const char* p = va_arg(va, char*);
 80028e4:	6ebb      	ldr	r3, [r7, #104]	; 0x68
 80028e6:	1d1a      	adds	r2, r3, #4
 80028e8:	66ba      	str	r2, [r7, #104]	; 0x68
 80028ea:	681b      	ldr	r3, [r3, #0]
 80028ec:	63bb      	str	r3, [r7, #56]	; 0x38
        unsigned int l = _strnlen_s(p, precision ? precision : (size_t)-1);
 80028ee:	6cfb      	ldr	r3, [r7, #76]	; 0x4c
 80028f0:	2b00      	cmp	r3, #0
 80028f2:	d001      	beq.n	80028f8 <_vsnprintf+0x7d0>
 80028f4:	6cfb      	ldr	r3, [r7, #76]	; 0x4c
 80028f6:	e001      	b.n	80028fc <_vsnprintf+0x7d4>
 80028f8:	f04f 33ff 	mov.w	r3, #4294967295
 80028fc:	4619      	mov	r1, r3
 80028fe:	6bb8      	ldr	r0, [r7, #56]	; 0x38
 8002900:	f7fe fcb3 	bl	800126a <_strnlen_s>
 8002904:	6378      	str	r0, [r7, #52]	; 0x34
        // pre padding
        if (flags & FLAGS_PRECISION) {
 8002906:	6d7b      	ldr	r3, [r7, #84]	; 0x54
 8002908:	f403 6380 	and.w	r3, r3, #1024	; 0x400
 800290c:	2b00      	cmp	r3, #0
 800290e:	d005      	beq.n	800291c <_vsnprintf+0x7f4>
          l = (l < precision ? l : precision);
 8002910:	6b7a      	ldr	r2, [r7, #52]	; 0x34
 8002912:	6cfb      	ldr	r3, [r7, #76]	; 0x4c
 8002914:	4293      	cmp	r3, r2
 8002916:	bf28      	it	cs
 8002918:	4613      	movcs	r3, r2
 800291a:	637b      	str	r3, [r7, #52]	; 0x34
        }
        if (!(flags & FLAGS_LEFT)) {
 800291c:	6d7b      	ldr	r3, [r7, #84]	; 0x54
 800291e:	f003 0302 	and.w	r3, r3, #2
 8002922:	2b00      	cmp	r3, #0
 8002924:	d11a      	bne.n	800295c <_vsnprintf+0x834>
          while (l++ < width) {
 8002926:	e007      	b.n	8002938 <_vsnprintf+0x810>
            out(' ', buffer, idx++, maxlen);
 8002928:	6c7a      	ldr	r2, [r7, #68]	; 0x44
 800292a:	1c53      	adds	r3, r2, #1
 800292c:	647b      	str	r3, [r7, #68]	; 0x44
 800292e:	68fc      	ldr	r4, [r7, #12]
 8002930:	687b      	ldr	r3, [r7, #4]
 8002932:	68b9      	ldr	r1, [r7, #8]
 8002934:	2020      	movs	r0, #32
 8002936:	47a0      	blx	r4
          while (l++ < width) {
 8002938:	6b7b      	ldr	r3, [r7, #52]	; 0x34
 800293a:	1c5a      	adds	r2, r3, #1
 800293c:	637a      	str	r2, [r7, #52]	; 0x34
 800293e:	6d3a      	ldr	r2, [r7, #80]	; 0x50
 8002940:	429a      	cmp	r2, r3
 8002942:	d8f1      	bhi.n	8002928 <_vsnprintf+0x800>
          }
        }
        // string output
        while ((*p != 0) && (!(flags & FLAGS_PRECISION) || precision--)) {
 8002944:	e00a      	b.n	800295c <_vsnprintf+0x834>
          out(*(p++), buffer, idx++, maxlen);
 8002946:	6bbb      	ldr	r3, [r7, #56]	; 0x38
 8002948:	1c5a      	adds	r2, r3, #1
 800294a:	63ba      	str	r2, [r7, #56]	; 0x38
 800294c:	7818      	ldrb	r0, [r3, #0]
 800294e:	6c7a      	ldr	r2, [r7, #68]	; 0x44
 8002950:	1c53      	adds	r3, r2, #1
 8002952:	647b      	str	r3, [r7, #68]	; 0x44
 8002954:	68fc      	ldr	r4, [r7, #12]
 8002956:	687b      	ldr	r3, [r7, #4]
 8002958:	68b9      	ldr	r1, [r7, #8]
 800295a:	47a0      	blx	r4
        while ((*p != 0) && (!(flags & FLAGS_PRECISION) || precision--)) {
 800295c:	6bbb      	ldr	r3, [r7, #56]	; 0x38
 800295e:	781b      	ldrb	r3, [r3, #0]
 8002960:	2b00      	cmp	r3, #0
 8002962:	d009      	beq.n	8002978 <_vsnprintf+0x850>
 8002964:	6d7b      	ldr	r3, [r7, #84]	; 0x54
 8002966:	f403 6380 	and.w	r3, r3, #1024	; 0x400
 800296a:	2b00      	cmp	r3, #0
 800296c:	d0eb      	beq.n	8002946 <_vsnprintf+0x81e>
 800296e:	6cfb      	ldr	r3, [r7, #76]	; 0x4c
 8002970:	1e5a      	subs	r2, r3, #1
 8002972:	64fa      	str	r2, [r7, #76]	; 0x4c
 8002974:	2b00      	cmp	r3, #0
 8002976:	d1e6      	bne.n	8002946 <_vsnprintf+0x81e>
        }
        // post padding
        if (flags & FLAGS_LEFT) {
 8002978:	6d7b      	ldr	r3, [r7, #84]	; 0x54
 800297a:	f003 0302 	and.w	r3, r3, #2
 800297e:	2b00      	cmp	r3, #0
 8002980:	d00e      	beq.n	80029a0 <_vsnprintf+0x878>
          while (l++ < width) {
 8002982:	e007      	b.n	8002994 <_vsnprintf+0x86c>
            out(' ', buffer, idx++, maxlen);
 8002984:	6c7a      	ldr	r2, [r7, #68]	; 0x44
 8002986:	1c53      	adds	r3, r2, #1
 8002988:	647b      	str	r3, [r7, #68]	; 0x44
 800298a:	68fc      	ldr	r4, [r7, #12]
 800298c:	687b      	ldr	r3, [r7, #4]
 800298e:	68b9      	ldr	r1, [r7, #8]
 8002990:	2020      	movs	r0, #32
 8002992:	47a0      	blx	r4
          while (l++ < width) {
 8002994:	6b7b      	ldr	r3, [r7, #52]	; 0x34
 8002996:	1c5a      	adds	r2, r3, #1
 8002998:	637a      	str	r2, [r7, #52]	; 0x34
 800299a:	6d3a      	ldr	r2, [r7, #80]	; 0x50
 800299c:	429a      	cmp	r2, r3
 800299e:	d8f1      	bhi.n	8002984 <_vsnprintf+0x85c>
          }
        }
        format++;
 80029a0:	683b      	ldr	r3, [r7, #0]
 80029a2:	3301      	adds	r3, #1
 80029a4:	603b      	str	r3, [r7, #0]
        break;
 80029a6:	e05e      	b.n	8002a66 <_vsnprintf+0x93e>
      }

      case 'p' : {
        width = sizeof(void*) * 2U;
 80029a8:	2308      	movs	r3, #8
 80029aa:	653b      	str	r3, [r7, #80]	; 0x50
        flags |= FLAGS_ZEROPAD | FLAGS_UPPERCASE;
 80029ac:	6d7b      	ldr	r3, [r7, #84]	; 0x54
 80029ae:	f043 0321 	orr.w	r3, r3, #33	; 0x21
 80029b2:	657b      	str	r3, [r7, #84]	; 0x54
#if defined(PRINTF_SUPPORT_LONG_LONG)
        const bool is_ll = sizeof(uintptr_t) == sizeof(long long);
 80029b4:	2300      	movs	r3, #0
 80029b6:	f887 302b 	strb.w	r3, [r7, #43]	; 0x2b
        if (is_ll) {
 80029ba:	f897 302b 	ldrb.w	r3, [r7, #43]	; 0x2b
 80029be:	2b00      	cmp	r3, #0
 80029c0:	d01d      	beq.n	80029fe <_vsnprintf+0x8d6>
          idx = _ntoa_long_long(out, buffer, idx, maxlen, (uintptr_t)va_arg(va, void*), false, 16U, precision, width, flags);
 80029c2:	6ebb      	ldr	r3, [r7, #104]	; 0x68
 80029c4:	1d1a      	adds	r2, r3, #4
 80029c6:	66ba      	str	r2, [r7, #104]	; 0x68
 80029c8:	681b      	ldr	r3, [r3, #0]
 80029ca:	f04f 0400 	mov.w	r4, #0
 80029ce:	6d7a      	ldr	r2, [r7, #84]	; 0x54
 80029d0:	9208      	str	r2, [sp, #32]
 80029d2:	6d3a      	ldr	r2, [r7, #80]	; 0x50
 80029d4:	9207      	str	r2, [sp, #28]
 80029d6:	6cfa      	ldr	r2, [r7, #76]	; 0x4c
 80029d8:	9206      	str	r2, [sp, #24]
 80029da:	f04f 0110 	mov.w	r1, #16
 80029de:	f04f 0200 	mov.w	r2, #0
 80029e2:	e9cd 1204 	strd	r1, r2, [sp, #16]
 80029e6:	2200      	movs	r2, #0
 80029e8:	9202      	str	r2, [sp, #8]
 80029ea:	e9cd 3400 	strd	r3, r4, [sp]
 80029ee:	687b      	ldr	r3, [r7, #4]
 80029f0:	6c7a      	ldr	r2, [r7, #68]	; 0x44
 80029f2:	68b9      	ldr	r1, [r7, #8]
 80029f4:	68f8      	ldr	r0, [r7, #12]
 80029f6:	f7fe fe23 	bl	8001640 <_ntoa_long_long>
 80029fa:	6478      	str	r0, [r7, #68]	; 0x44
 80029fc:	e016      	b.n	8002a2c <_vsnprintf+0x904>
        }
        else {
#endif
          idx = _ntoa_long(out, buffer, idx, maxlen, (unsigned long)((uintptr_t)va_arg(va, void*)), false, 16U, precision, width, flags);
 80029fe:	6ebb      	ldr	r3, [r7, #104]	; 0x68
 8002a00:	1d1a      	adds	r2, r3, #4
 8002a02:	66ba      	str	r2, [r7, #104]	; 0x68
 8002a04:	681b      	ldr	r3, [r3, #0]
 8002a06:	461a      	mov	r2, r3
 8002a08:	6d7b      	ldr	r3, [r7, #84]	; 0x54
 8002a0a:	9305      	str	r3, [sp, #20]
 8002a0c:	6d3b      	ldr	r3, [r7, #80]	; 0x50
 8002a0e:	9304      	str	r3, [sp, #16]
 8002a10:	6cfb      	ldr	r3, [r7, #76]	; 0x4c
 8002a12:	9303      	str	r3, [sp, #12]
 8002a14:	2310      	movs	r3, #16
 8002a16:	9302      	str	r3, [sp, #8]
 8002a18:	2300      	movs	r3, #0
 8002a1a:	9301      	str	r3, [sp, #4]
 8002a1c:	9200      	str	r2, [sp, #0]
 8002a1e:	687b      	ldr	r3, [r7, #4]
 8002a20:	6c7a      	ldr	r2, [r7, #68]	; 0x44
 8002a22:	68b9      	ldr	r1, [r7, #8]
 8002a24:	68f8      	ldr	r0, [r7, #12]
 8002a26:	f7fe fda4 	bl	8001572 <_ntoa_long>
 8002a2a:	6478      	str	r0, [r7, #68]	; 0x44
#if defined(PRINTF_SUPPORT_LONG_LONG)
        }
#endif
        format++;
 8002a2c:	683b      	ldr	r3, [r7, #0]
 8002a2e:	3301      	adds	r3, #1
 8002a30:	603b      	str	r3, [r7, #0]
        break;
 8002a32:	e018      	b.n	8002a66 <_vsnprintf+0x93e>
      }

      case '%' :
        out('%', buffer, idx++, maxlen);
 8002a34:	6c7a      	ldr	r2, [r7, #68]	; 0x44
 8002a36:	1c53      	adds	r3, r2, #1
 8002a38:	647b      	str	r3, [r7, #68]	; 0x44
 8002a3a:	68fc      	ldr	r4, [r7, #12]
 8002a3c:	687b      	ldr	r3, [r7, #4]
 8002a3e:	68b9      	ldr	r1, [r7, #8]
 8002a40:	2025      	movs	r0, #37	; 0x25
 8002a42:	47a0      	blx	r4
        format++;
 8002a44:	683b      	ldr	r3, [r7, #0]
 8002a46:	3301      	adds	r3, #1
 8002a48:	603b      	str	r3, [r7, #0]
        break;
 8002a4a:	e00c      	b.n	8002a66 <_vsnprintf+0x93e>

      default :
        out(*format, buffer, idx++, maxlen);
 8002a4c:	683b      	ldr	r3, [r7, #0]
 8002a4e:	7818      	ldrb	r0, [r3, #0]
 8002a50:	6c7a      	ldr	r2, [r7, #68]	; 0x44
 8002a52:	1c53      	adds	r3, r2, #1
 8002a54:	647b      	str	r3, [r7, #68]	; 0x44
 8002a56:	68fc      	ldr	r4, [r7, #12]
 8002a58:	687b      	ldr	r3, [r7, #4]
 8002a5a:	68b9      	ldr	r1, [r7, #8]
 8002a5c:	47a0      	blx	r4
        format++;
 8002a5e:	683b      	ldr	r3, [r7, #0]
 8002a60:	3301      	adds	r3, #1
 8002a62:	603b      	str	r3, [r7, #0]
        break;
 8002a64:	bf00      	nop
  while (*format)
 8002a66:	683b      	ldr	r3, [r7, #0]
 8002a68:	781b      	ldrb	r3, [r3, #0]
 8002a6a:	2b00      	cmp	r3, #0
 8002a6c:	f47f ab6d 	bne.w	800214a <_vsnprintf+0x22>
    }
  }

  // termination
  out((char)0, buffer, idx < maxlen ? idx : maxlen - 1U, maxlen);
 8002a70:	6c7a      	ldr	r2, [r7, #68]	; 0x44
 8002a72:	687b      	ldr	r3, [r7, #4]
 8002a74:	429a      	cmp	r2, r3
 8002a76:	d302      	bcc.n	8002a7e <_vsnprintf+0x956>
 8002a78:	687b      	ldr	r3, [r7, #4]
 8002a7a:	1e5a      	subs	r2, r3, #1
 8002a7c:	e000      	b.n	8002a80 <_vsnprintf+0x958>
 8002a7e:	6c7a      	ldr	r2, [r7, #68]	; 0x44
 8002a80:	68fc      	ldr	r4, [r7, #12]
 8002a82:	687b      	ldr	r3, [r7, #4]
 8002a84:	68b9      	ldr	r1, [r7, #8]
 8002a86:	2000      	movs	r0, #0
 8002a88:	47a0      	blx	r4

  // return written chars without terminating \0
  return (int)idx;
 8002a8a:	6c7b      	ldr	r3, [r7, #68]	; 0x44
}
 8002a8c:	4618      	mov	r0, r3
 8002a8e:	3758      	adds	r7, #88	; 0x58
 8002a90:	46bd      	mov	sp, r7
 8002a92:	bdb0      	pop	{r4, r5, r7, pc}

08002a94 <printf_>:


///////////////////////////////////////////////////////////////////////////////

int printf_(const char* format, ...)
{
 8002a94:	b40f      	push	{r0, r1, r2, r3}
 8002a96:	b580      	push	{r7, lr}
 8002a98:	b086      	sub	sp, #24
 8002a9a:	af02      	add	r7, sp, #8
  va_list va;
  va_start(va, format);
 8002a9c:	f107 031c 	add.w	r3, r7, #28
 8002aa0:	60bb      	str	r3, [r7, #8]
  char buffer[1];
  const int ret = _vsnprintf(_out_char, buffer, (size_t)-1, format, va);
 8002aa2:	1d39      	adds	r1, r7, #4
 8002aa4:	68bb      	ldr	r3, [r7, #8]
 8002aa6:	9300      	str	r3, [sp, #0]
 8002aa8:	69bb      	ldr	r3, [r7, #24]
 8002aaa:	f04f 32ff 	mov.w	r2, #4294967295
 8002aae:	4806      	ldr	r0, [pc, #24]	; (8002ac8 <printf_+0x34>)
 8002ab0:	f7ff fb3a 	bl	8002128 <_vsnprintf>
 8002ab4:	60f8      	str	r0, [r7, #12]
  va_end(va);
  return ret;
 8002ab6:	68fb      	ldr	r3, [r7, #12]
}
 8002ab8:	4618      	mov	r0, r3
 8002aba:	3710      	adds	r7, #16
 8002abc:	46bd      	mov	sp, r7
 8002abe:	e8bd 4080 	ldmia.w	sp!, {r7, lr}
 8002ac2:	b004      	add	sp, #16
 8002ac4:	4770      	bx	lr
 8002ac6:	bf00      	nop
 8002ac8:	08001245 	.word	0x08001245

08002acc <HAL_MspInit>:
/* USER CODE END 0 */
/**
  * Initializes the Global MSP.
  */
void HAL_MspInit(void)
{
 8002acc:	b580      	push	{r7, lr}
 8002ace:	b082      	sub	sp, #8
 8002ad0:	af00      	add	r7, sp, #0
  /* USER CODE BEGIN MspInit 0 */

  /* USER CODE END MspInit 0 */

  __HAL_RCC_SYSCFG_CLK_ENABLE();
 8002ad2:	2300      	movs	r3, #0
 8002ad4:	607b      	str	r3, [r7, #4]
 8002ad6:	4b1e      	ldr	r3, [pc, #120]	; (8002b50 <HAL_MspInit+0x84>)
 8002ad8:	6c5b      	ldr	r3, [r3, #68]	; 0x44
 8002ada:	4a1d      	ldr	r2, [pc, #116]	; (8002b50 <HAL_MspInit+0x84>)
 8002adc:	f443 4380 	orr.w	r3, r3, #16384	; 0x4000
 8002ae0:	6453      	str	r3, [r2, #68]	; 0x44
 8002ae2:	4b1b      	ldr	r3, [pc, #108]	; (8002b50 <HAL_MspInit+0x84>)
 8002ae4:	6c5b      	ldr	r3, [r3, #68]	; 0x44
 8002ae6:	f403 4380 	and.w	r3, r3, #16384	; 0x4000
 8002aea:	607b      	str	r3, [r7, #4]
 8002aec:	687b      	ldr	r3, [r7, #4]
  __HAL_RCC_PWR_CLK_ENABLE();
 8002aee:	2300      	movs	r3, #0
 8002af0:	603b      	str	r3, [r7, #0]
 8002af2:	4b17      	ldr	r3, [pc, #92]	; (8002b50 <HAL_MspInit+0x84>)
 8002af4:	6c1b      	ldr	r3, [r3, #64]	; 0x40
 8002af6:	4a16      	ldr	r2, [pc, #88]	; (8002b50 <HAL_MspInit+0x84>)
