Archive member included to satisfy reference by file (symbol)

c:/st/stm32cubeide_1.5.0/stm32cubeide/plugins/com.st.stm32cube.ide.mcu.externaltools.gnu-tools-for-stm32.7-2018-q2-update.win32_1.5.0.202011040924/tools/bin/../lib/gcc/arm-none-eabi/7.3.1/../../../../arm-none-eabi/lib/thumb/v7e-m/fpv4-sp/hard\libc_nano.a(lib_a-errno.o)
                              Core/Src/syscalls.o (__errno)
c:/st/stm32cubeide_1.5.0/stm32cubeide/plugins/com.st.stm32cube.ide.mcu.externaltools.gnu-tools-for-stm32.7-2018-q2-update.win32_1.5.0.202011040924/tools/bin/../lib/gcc/arm-none-eabi/7.3.1/../../../../arm-none-eabi/lib/thumb/v7e-m/fpv4-sp/hard\libc_nano.a(lib_a-exit.o)
                              c:/st/stm32cubeide_1.5.0/stm32cubeide/plugins/com.st.stm32cube.ide.mcu.externaltools.gnu-tools-for-stm32.7-2018-q2-update.win32_1.5.0.202011040924/tools/bin/../lib/gcc/arm-none-eabi/7.3.1/../../../../arm-none-eabi/lib/thumb/v7e-m/fpv4-sp/hard/crt0.o (exit)
c:/st/stm32cubeide_1.5.0/stm32cubeide/plugins/com.st.stm32cube.ide.mcu.externaltools.gnu-tools-for-stm32.7-2018-q2-update.win32_1.5.0.202011040924/tools/bin/../lib/gcc/arm-none-eabi/7.3.1/../../../../arm-none-eabi/lib/thumb/v7e-m/fpv4-sp/hard\libc_nano.a(lib_a-impure.o)
                              c:/st/stm32cubeide_1.5.0/stm32cubeide/plugins/com.st.stm32cube.ide.mcu.externaltools.gnu-tools-for-stm32.7-2018-q2-update.win32_1.5.0.202011040924/tools/bin/../lib/gcc/arm-none-eabi/7.3.1/../../../../arm-none-eabi/lib/thumb/v7e-m/fpv4-sp/hard\libc_nano.a(lib_a-exit.o) (_global_impure_ptr)
c:/st/stm32cubeide_1.5.0/stm32cubeide/plugins/com.st.stm32cube.ide.mcu.externaltools.gnu-tools-for-stm32.7-2018-q2-update.win32_1.5.0.202011040924/tools/bin/../lib/gcc/arm-none-eabi/7.3.1/../../../../arm-none-eabi/lib/thumb/v7e-m/fpv4-sp/hard\libc_nano.a(lib_a-init.o)
                              c:/st/stm32cubeide_1.5.0/stm32cubeide/plugins/com.st.stm32cube.ide.mcu.externaltools.gnu-tools-for-stm32.7-2018-q2-update.win32_1.5.0.202011040924/tools/bin/../lib/gcc/arm-none-eabi/7.3.1/../../../../arm-none-eabi/lib/thumb/v7e-m/fpv4-sp/hard/crt0.o (__libc_init_array)
c:/st/stm32cubeide_1.5.0/stm32cubeide/plugins/com.st.stm32cube.ide.mcu.externaltools.gnu-tools-for-stm32.7-2018-q2-update.win32_1.5.0.202011040924/tools/bin/../lib/gcc/arm-none-eabi/7.3.1/../../../../arm-none-eabi/lib/thumb/v7e-m/fpv4-sp/hard\libc_nano.a(lib_a-memcpy-stub.o)
                              Middlewares/Third_Party/FreeRTOS/Source/CMSIS_RTOS_V2/cmsis_os2.o (memcpy)
c:/st/stm32cubeide_1.5.0/stm32cubeide/plugins/com.st.stm32cube.ide.mcu.externaltools.gnu-tools-for-stm32.7-2018-q2-update.win32_1.5.0.202011040924/tools/bin/../lib/gcc/arm-none-eabi/7.3.1/../../../../arm-none-eabi/lib/thumb/v7e-m/fpv4-sp/hard\libc_nano.a(lib_a-memset.o)
                              c:/st/stm32cubeide_1.5.0/stm32cubeide/plugins/com.st.stm32cube.ide.mcu.externaltools.gnu-tools-for-stm32.7-2018-q2-update.win32_1.5.0.202011040924/tools/bin/../lib/gcc/arm-none-eabi/7.3.1/../../../../arm-none-eabi/lib/thumb/v7e-m/fpv4-sp/hard/crt0.o (memset)
c:/st/stm32cubeide_1.5.0/stm32cubeide/plugins/com.st.stm32cube.ide.mcu.externaltools.gnu-tools-for-stm32.7-2018-q2-update.win32_1.5.0.202011040924/tools/bin/../lib/gcc/arm-none-eabi/7.3.1/thumb/v7e-m/fpv4-sp/hard\libgcc.a(_arm_addsubdf3.o)
                              Core/Src/printf.o (__aeabi_dsub)
c:/st/stm32cubeide_1.5.0/stm32cubeide/plugins/com.st.stm32cube.ide.mcu.externaltools.gnu-tools-for-stm32.7-2018-q2-update.win32_1.5.0.202011040924/tools/bin/../lib/gcc/arm-none-eabi/7.3.1/thumb/v7e-m/fpv4-sp/hard\libgcc.a(_arm_muldivdf3.o)
                              Core/Src/printf.o (__aeabi_dmul)
c:/st/stm32cubeide_1.5.0/stm32cubeide/plugins/com.st.stm32cube.ide.mcu.externaltools.gnu-tools-for-stm32.7-2018-q2-update.win32_1.5.0.202011040924/tools/bin/../lib/gcc/arm-none-eabi/7.3.1/thumb/v7e-m/fpv4-sp/hard\libgcc.a(_arm_cmpdf2.o)
                              Core/Src/printf.o (__aeabi_dcmpeq)
c:/st/stm32cubeide_1.5.0/stm32cubeide/plugins/com.st.stm32cube.ide.mcu.externaltools.gnu-tools-for-stm32.7-2018-q2-update.win32_1.5.0.202011040924/tools/bin/../lib/gcc/arm-none-eabi/7.3.1/thumb/v7e-m/fpv4-sp/hard\libgcc.a(_arm_fixdfsi.o)
                              Core/Src/printf.o (__aeabi_d2iz)
c:/st/stm32cubeide_1.5.0/stm32cubeide/plugins/com.st.stm32cube.ide.mcu.externaltools.gnu-tools-for-stm32.7-2018-q2-update.win32_1.5.0.202011040924/tools/bin/../lib/gcc/arm-none-eabi/7.3.1/thumb/v7e-m/fpv4-sp/hard\libgcc.a(_arm_fixunsdfsi.o)
                              Core/Src/printf.o (__aeabi_d2uiz)
c:/st/stm32cubeide_1.5.0/stm32cubeide/plugins/com.st.stm32cube.ide.mcu.externaltools.gnu-tools-for-stm32.7-2018-q2-update.win32_1.5.0.202011040924/tools/bin/../lib/gcc/arm-none-eabi/7.3.1/thumb/v7e-m/fpv4-sp/hard\libgcc.a(_arm_truncdfsf2.o)
                              Core/Src/bmp280.o (__aeabi_d2f)
c:/st/stm32cubeide_1.5.0/stm32cubeide/plugins/com.st.stm32cube.ide.mcu.externaltools.gnu-tools-for-stm32.7-2018-q2-update.win32_1.5.0.202011040924/tools/bin/../lib/gcc/arm-none-eabi/7.3.1/thumb/v7e-m/fpv4-sp/hard\libgcc.a(_aeabi_uldivmod.o)
                              Core/Src/printf.o (__aeabi_uldivmod)
c:/st/stm32cubeide_1.5.0/stm32cubeide/plugins/com.st.stm32cube.ide.mcu.externaltools.gnu-tools-for-stm32.7-2018-q2-update.win32_1.5.0.202011040924/tools/bin/../lib/gcc/arm-none-eabi/7.3.1/thumb/v7e-m/fpv4-sp/hard\libgcc.a(_udivmoddi4.o)
                              c:/st/stm32cubeide_1.5.0/stm32cubeide/plugins/com.st.stm32cube.ide.mcu.externaltools.gnu-tools-for-stm32.7-2018-q2-update.win32_1.5.0.202011040924/tools/bin/../lib/gcc/arm-none-eabi/7.3.1/thumb/v7e-m/fpv4-sp/hard\libgcc.a(_aeabi_uldivmod.o) (__udivmoddi4)
c:/st/stm32cubeide_1.5.0/stm32cubeide/plugins/com.st.stm32cube.ide.mcu.externaltools.gnu-tools-for-stm32.7-2018-q2-update.win32_1.5.0.202011040924/tools/bin/../lib/gcc/arm-none-eabi/7.3.1/thumb/v7e-m/fpv4-sp/hard\libgcc.a(_dvmd_tls.o)
                              c:/st/stm32cubeide_1.5.0/stm32cubeide/plugins/com.st.stm32cube.ide.mcu.externaltools.gnu-tools-for-stm32.7-2018-q2-update.win32_1.5.0.202011040924/tools/bin/../lib/gcc/arm-none-eabi/7.3.1/thumb/v7e-m/fpv4-sp/hard\libgcc.a(_aeabi_uldivmod.o) (__aeabi_ldiv0)

Allocating common symbols
Common symbol       size              file

Temperature         0x4               Core/Src/freertos.o
hi2c1               0x54              Core/Src/i2c.o
htim10              0x40              Core/Src/stm32f4xx_hal_timebase_tim.o
font                0x4               Core/Src/GFX_BW.o
OledTaskHandle      0x4               Core/Src/freertos.o
uwTick              0x4               Drivers/STM32F4xx_HAL_Driver/Src/stm32f4xx_hal.o
xQueueRegistry      0x40              Middlewares/Third_Party/FreeRTOS/Source/queue.o
pFlash              0x20              Drivers/STM32F4xx_HAL_Driver/Src/stm32f4xx_hal_flash.o
MutexPrintfHandle   0x4               Core/Src/freertos.o
oled_i2c            0x4               Core/Src/SSD1306_OLED.o
MutexI2C1Handle     0x4               Core/Src/freertos.o
Bmp280TaskHandle    0x4               Core/Src/freertos.o
MutexBmpDataHandle  0x4               Core/Src/freertos.o
huart2              0x40              Core/Src/usart.o
Pressure            0x4               Core/Src/freertos.o
HeartbeatTaskHandle
                    0x4               Core/Src/freertos.o

Discarded input sections

 .text          0x0000000000000000        0x0 c:/st/stm32cubeide_1.5.0/stm32cubeide/plugins/com.st.stm32cube.ide.mcu.externaltools.gnu-tools-for-stm32.7-2018-q2-update.win32_1.5.0.202011040924/tools/bin/../lib/gcc/arm-none-eabi/7.3.1/thumb/v7e-m/fpv4-sp/hard/crti.o
 .data          0x0000000000000000        0x0 c:/st/stm32cubeide_1.5.0/stm32cubeide/plugins/com.st.stm32cube.ide.mcu.externaltools.gnu-tools-for-stm32.7-2018-q2-update.win32_1.5.0.202011040924/tools/bin/../lib/gcc/arm-none-eabi/7.3.1/thumb/v7e-m/fpv4-sp/hard/crti.o
 .bss           0x0000000000000000        0x0 c:/st/stm32cubeide_1.5.0/stm32cubeide/plugins/com.st.stm32cube.ide.mcu.externaltools.gnu-tools-for-stm32.7-2018-q2-update.win32_1.5.0.202011040924/tools/bin/../lib/gcc/arm-none-eabi/7.3.1/thumb/v7e-m/fpv4-sp/hard/crti.o
 .data          0x0000000000000000        0x4 c:/st/stm32cubeide_1.5.0/stm32cubeide/plugins/com.st.stm32cube.ide.mcu.externaltools.gnu-tools-for-stm32.7-2018-q2-update.win32_1.5.0.202011040924/tools/bin/../lib/gcc/arm-none-eabi/7.3.1/thumb/v7e-m/fpv4-sp/hard/crtbegin.o
 .text          0x0000000000000000       0x74 c:/st/stm32cubeide_1.5.0/stm32cubeide/plugins/com.st.stm32cube.ide.mcu.externaltools.gnu-tools-for-stm32.7-2018-q2-update.win32_1.5.0.202011040924/tools/bin/../lib/gcc/arm-none-eabi/7.3.1/../../../../arm-none-eabi/lib/thumb/v7e-m/fpv4-sp/hard/crt0.o
 .data          0x0000000000000000        0x0 c:/st/stm32cubeide_1.5.0/stm32cubeide/plugins/com.st.stm32cube.ide.mcu.externaltools.gnu-tools-for-stm32.7-2018-q2-update.win32_1.5.0.202011040924/tools/bin/../lib/gcc/arm-none-eabi/7.3.1/../../../../arm-none-eabi/lib/thumb/v7e-m/fpv4-sp/hard/crt0.o
 .bss           0x0000000000000000        0x0 c:/st/stm32cubeide_1.5.0/stm32cubeide/plugins/com.st.stm32cube.ide.mcu.externaltools.gnu-tools-for-stm32.7-2018-q2-update.win32_1.5.0.202011040924/tools/bin/../lib/gcc/arm-none-eabi/7.3.1/../../../../arm-none-eabi/lib/thumb/v7e-m/fpv4-sp/hard/crt0.o
 .ARM.extab     0x0000000000000000        0x0 c:/st/stm32cubeide_1.5.0/stm32cubeide/plugins/com.st.stm32cube.ide.mcu.externaltools.gnu-tools-for-stm32.7-2018-q2-update.win32_1.5.0.202011040924/tools/bin/../lib/gcc/arm-none-eabi/7.3.1/../../../../arm-none-eabi/lib/thumb/v7e-m/fpv4-sp/hard/crt0.o
 .ARM.exidx     0x0000000000000000        0x8 c:/st/stm32cubeide_1.5.0/stm32cubeide/plugins/com.st.stm32cube.ide.mcu.externaltools.gnu-tools-for-stm32.7-2018-q2-update.win32_1.5.0.202011040924/tools/bin/../lib/gcc/arm-none-eabi/7.3.1/../../../../arm-none-eabi/lib/thumb/v7e-m/fpv4-sp/hard/crt0.o
 .ARM.attributes
                0x0000000000000000       0x20 c:/st/stm32cubeide_1.5.0/stm32cubeide/plugins/com.st.stm32cube.ide.mcu.externaltools.gnu-tools-for-stm32.7-2018-q2-update.win32_1.5.0.202011040924/tools/bin/../lib/gcc/arm-none-eabi/7.3.1/../../../../arm-none-eabi/lib/thumb/v7e-m/fpv4-sp/hard/crt0.o
 .group         0x0000000000000000        0xc Core/Src/GFX_BW.o
 .group         0x0000000000000000        0xc Core/Src/GFX_BW.o
 .group         0x0000000000000000        0xc Core/Src/GFX_BW.o
 .group         0x0000000000000000        0xc Core/Src/GFX_BW.o
 .group         0x0000000000000000        0xc Core/Src/GFX_BW.o
 .group         0x0000000000000000        0xc Core/Src/GFX_BW.o
 .group         0x0000000000000000        0xc Core/Src/GFX_BW.o
Memory Configuration

Name             Origin             Length             Attributes
RAM              0x0000000020000000 0x0000000000020000 xrw
FLASH            0x0000000008000000 0x0000000000080000 xr
*default*        0x0000000000000000 0xffffffffffffffff

Linker script and memory map

LOAD c:/st/stm32cubeide_1.5.0/stm32cubeide/plugins/com.st.stm32cube.ide.mcu.externaltools.gnu-tools-for-stm32.7-2018-q2-update.win32_1.5.0.202011040924/tools/bin/../lib/gcc/arm-none-eabi/7.3.1/thumb/v7e-m/fpv4-sp/hard/crti.o
LOAD c:/st/stm32cubeide_1.5.0/stm32cubeide/plugins/com.st.stm32cube.ide.mcu.externaltools.gnu-tools-for-stm32.7-2018-q2-update.win32_1.5.0.202011040924/tools/bin/../lib/gcc/arm-none-eabi/7.3.1/thumb/v7e-m/fpv4-sp/hard/crtbegin.o
LOAD c:/st/stm32cubeide_1.5.0/stm32cubeide/plugins/com.st.stm32cube.ide.mcu.externaltools.gnu-tools-for-stm32.7-2018-q2-update.win32_1.5.0.202011040924/tools/bin/../lib/gcc/arm-none-eabi/7.3.1/../../../../arm-none-eabi/lib/thumb/v7e-m/fpv4-sp/hard/crt0.o
LOAD Core/Src/GFX_BW.o
LOAD Core/Src/SSD1306_OLED.o
LOAD Core/Src/bmp280.o
LOAD Core/Src/freertos.o
LOAD Core/Src/gpio.o
LOAD Core/Src/i2c.o
LOAD Core/Src/main.o
LOAD Core/Src/printf.o
LOAD Core/Src/stm32f4xx_hal_msp.o
LOAD Core/Src/stm32f4xx_hal_timebase_tim.o
LOAD Core/Src/stm32f4xx_it.o
LOAD Core/Src/syscalls.o
LOAD Core/Src/sysmem.o
LOAD Core/Src/system_stm32f4xx.o
LOAD Core/Src/usart.o
LOAD Core/Startup/startup_stm32f411retx.o
LOAD Drivers/STM32F4xx_HAL_Driver/Src/stm32f4xx_hal.o
LOAD Drivers/STM32F4xx_HAL_Driver/Src/stm32f4xx_hal_cortex.o
LOAD Drivers/STM32F4xx_HAL_Driver/Src/stm32f4xx_hal_dma.o
LOAD Drivers/STM32F4xx_HAL_Driver/Src/stm32f4xx_hal_dma_ex.o
LOAD Drivers/STM32F4xx_HAL_Driver/Src/stm32f4xx_hal_exti.o
LOAD Drivers/STM32F4xx_HAL_Driver/Src/stm32f4xx_hal_flash.o
LOAD Drivers/STM32F4xx_HAL_Driver/Src/stm32f4xx_hal_flash_ex.o
LOAD Drivers/STM32F4xx_HAL_Driver/Src/stm32f4xx_hal_flash_ramfunc.o
LOAD Drivers/STM32F4xx_HAL_Driver/Src/stm32f4xx_hal_gpio.o
LOAD Drivers/STM32F4xx_HAL_Driver/Src/stm32f4xx_hal_i2c.o
LOAD Drivers/STM32F4xx_HAL_Driver/Src/stm32f4xx_hal_i2c_ex.o
LOAD Drivers/STM32F4xx_HAL_Driver/Src/stm32f4xx_hal_pwr.o
LOAD Drivers/STM32F4xx_HAL_Driver/Src/stm32f4xx_hal_pwr_ex.o
LOAD Drivers/STM32F4xx_HAL_Driver/Src/stm32f4xx_hal_rcc.o
LOAD Drivers/STM32F4xx_HAL_Driver/Src/stm32f4xx_hal_rcc_ex.o
LOAD Drivers/STM32F4xx_HAL_Driver/Src/stm32f4xx_hal_tim.o
LOAD Drivers/STM32F4xx_HAL_Driver/Src/stm32f4xx_hal_tim_ex.o
LOAD Drivers/STM32F4xx_HAL_Driver/Src/stm32f4xx_hal_uart.o
LOAD Middlewares/Third_Party/FreeRTOS/Source/CMSIS_RTOS_V2/cmsis_os2.o
LOAD Middlewares/Third_Party/FreeRTOS/Source/croutine.o
LOAD Middlewares/Third_Party/FreeRTOS/Source/event_groups.o
LOAD Middlewares/Third_Party/FreeRTOS/Source/list.o
LOAD Middlewares/Third_Party/FreeRTOS/Source/queue.o
LOAD Middlewares/Third_Party/FreeRTOS/Source/stream_buffer.o
LOAD Middlewares/Third_Party/FreeRTOS/Source/tasks.o
LOAD Middlewares/Third_Party/FreeRTOS/Source/timers.o
LOAD Middlewares/Third_Party/FreeRTOS/Source/portable/GCC/ARM_CM4F/port.o
LOAD Middlewares/Third_Party/FreeRTOS/Source/portable/MemMang/heap_4.o
START GROUP
LOAD c:/st/stm32cubeide_1.5.0/stm32cubeide/plugins/com.st.stm32cube.ide.mcu.externaltools.gnu-tools-for-stm32.7-2018-q2-update.win32_1.5.0.202011040924/tools/bin/../lib/gcc/arm-none-eabi/7.3.1/../../../../arm-none-eabi/lib/thumb/v7e-m/fpv4-sp/hard\libc_nano.a
LOAD c:/st/stm32cubeide_1.5.0/stm32cubeide/plugins/com.st.stm32cube.ide.mcu.externaltools.gnu-tools-for-stm32.7-2018-q2-update.win32_1.5.0.202011040924/tools/bin/../lib/gcc/arm-none-eabi/7.3.1/../../../../arm-none-eabi/lib/thumb/v7e-m/fpv4-sp/hard\libm.a
END GROUP
START GROUP
LOAD c:/st/stm32cubeide_1.5.0/stm32cubeide/plugins/com.st.stm32cube.ide.mcu.externaltools.gnu-tools-for-stm32.7-2018-q2-update.win32_1.5.0.202011040924/tools/bin/../lib/gcc/arm-none-eabi/7.3.1/thumb/v7e-m/fpv4-sp/hard\libgcc.a
LOAD c:/st/stm32cubeide_1.5.0/stm32cubeide/plugins/com.st.stm32cube.ide.mcu.externaltools.gnu-tools-for-stm32.7-2018-q2-update.win32_1.5.0.202011040924/tools/bin/../lib/gcc/arm-none-eabi/7.3.1/../../../../arm-none-eabi/lib/thumb/v7e-m/fpv4-sp/hard\libc_nano.a
END GROUP
START GROUP
LOAD c:/st/stm32cubeide_1.5.0/stm32cubeide/plugins/com.st.stm32cube.ide.mcu.externaltools.gnu-tools-for-stm32.7-2018-q2-update.win32_1.5.0.202011040924/tools/bin/../lib/gcc/arm-none-eabi/7.3.1/thumb/v7e-m/fpv4-sp/hard\libgcc.a
LOAD c:/st/stm32cubeide_1.5.0/stm32cubeide/plugins/com.st.stm32cube.ide.mcu.externaltools.gnu-tools-for-stm32.7-2018-q2-update.win32_1.5.0.202011040924/tools/bin/../lib/gcc/arm-none-eabi/7.3.1/../../../../arm-none-eabi/lib/thumb/v7e-m/fpv4-sp/hard\libc_nano.a
LOAD c:/st/stm32cubeide_1.5.0/stm32cubeide/plugins/com.st.stm32cube.ide.mcu.externaltools.gnu-tools-for-stm32.7-2018-q2-update.win32_1.5.0.202011040924/tools/bin/../lib/gcc/arm-none-eabi/7.3.1/../../../../arm-none-eabi/lib/thumb/v7e-m/fpv4-sp/hard\libnosys.a
END GROUP
START GROUP
LOAD c:/st/stm32cubeide_1.5.0/stm32cubeide/plugins/com.st.stm32cube.ide.mcu.externaltools.gnu-tools-for-stm32.7-2018-q2-update.win32_1.5.0.202011040924/tools/bin/../lib/gcc/arm-none-eabi/7.3.1/thumb/v7e-m/fpv4-sp/hard\libgcc.a
LOAD c:/st/stm32cubeide_1.5.0/stm32cubeide/plugins/com.st.stm32cube.ide.mcu.externaltools.gnu-tools-for-stm32.7-2018-q2-update.win32_1.5.0.202011040924/tools/bin/../lib/gcc/arm-none-eabi/7.3.1/../../../../arm-none-eabi/lib/thumb/v7e-m/fpv4-sp/hard\libc_nano.a
LOAD c:/st/stm32cubeide_1.5.0/stm32cubeide/plugins/com.st.stm32cube.ide.mcu.externaltools.gnu-tools-for-stm32.7-2018-q2-update.win32_1.5.0.202011040924/tools/bin/../lib/gcc/arm-none-eabi/7.3.1/../../../../arm-none-eabi/lib/thumb/v7e-m/fpv4-sp/hard\libnosys.a
END GROUP
LOAD c:/st/stm32cubeide_1.5.0/stm32cubeide/plugins/com.st.stm32cube.ide.mcu.externaltools.gnu-tools-for-stm32.7-2018-q2-update.win32_1.5.0.202011040924/tools/bin/../lib/gcc/arm-none-eabi/7.3.1/thumb/v7e-m/fpv4-sp/hard/crtend.o
LOAD c:/st/stm32cubeide_1.5.0/stm32cubeide/plugins/com.st.stm32cube.ide.mcu.externaltools.gnu-tools-for-stm32.7-2018-q2-update.win32_1.5.0.202011040924/tools/bin/../lib/gcc/arm-none-eabi/7.3.1/thumb/v7e-m/fpv4-sp/hard/crtn.o
                0x0000000020020000                _estack = (ORIGIN (RAM) + LENGTH (RAM))
                0x0000000000000200                _Min_Heap_Size = 0x200
                0x0000000000000400                _Min_Stack_Size = 0x400

.isr_vector     0x0000000008000000      0x198
                0x0000000008000000                . = ALIGN (0x4)
 *(.isr_vector)
 .isr_vector    0x0000000008000000      0x198 Core/Startup/startup_stm32f411retx.o
                0x0000000008000000                g_pfnVectors
                0x0000000008000198                . = ALIGN (0x4)

.text           0x00000000080001a0     0x9a74
                0x00000000080001a0                . = ALIGN (0x4)
 *(.text)
 .text          0x00000000080001a0       0x40 c:/st/stm32cubeide_1.5.0/stm32cubeide/plugins/com.st.stm32cube.ide.mcu.externaltools.gnu-tools-for-stm32.7-2018-q2-update.win32_1.5.0.202011040924/tools/bin/../lib/gcc/arm-none-eabi/7.3.1/thumb/v7e-m/fpv4-sp/hard/crtbegin.o
 .text          0x00000000080001e0      0x378 c:/st/stm32cubeide_1.5.0/stm32cubeide/plugins/com.st.stm32cube.ide.mcu.externaltools.gnu-tools-for-stm32.7-2018-q2-update.win32_1.5.0.202011040924/tools/bin/../lib/gcc/arm-none-eabi/7.3.1/thumb/v7e-m/fpv4-sp/hard\libgcc.a(_arm_addsubdf3.o)
                0x00000000080001e0                __aeabi_drsub
                0x00000000080001e8                __aeabi_dsub
                0x00000000080001e8                __subdf3
                0x00000000080001ec                __aeabi_dadd
                0x00000000080001ec                __adddf3
                0x0000000008000464                __floatunsidf
                0x0000000008000464                __aeabi_ui2d
                0x0000000008000484                __floatsidf
                0x0000000008000484                __aeabi_i2d
                0x00000000080004a8                __aeabi_f2d
                0x00000000080004a8                __extendsfdf2
                0x00000000080004ec                __floatundidf
                0x00000000080004ec                __aeabi_ul2d
                0x00000000080004fc                __floatdidf
                0x00000000080004fc                __aeabi_l2d
 .text          0x0000000008000558      0x424 c:/st/stm32cubeide_1.5.0/stm32cubeide/plugins/com.st.stm32cube.ide.mcu.externaltools.gnu-tools-for-stm32.7-2018-q2-update.win32_1.5.0.202011040924/tools/bin/../lib/gcc/arm-none-eabi/7.3.1/thumb/v7e-m/fpv4-sp/hard\libgcc.a(_arm_muldivdf3.o)
                0x0000000008000558                __aeabi_dmul
                0x0000000008000558                __muldf3
                0x00000000080007ac                __divdf3
                0x00000000080007ac                __aeabi_ddiv
 .text          0x000000000800097c      0x110 c:/st/stm32cubeide_1.5.0/stm32cubeide/plugins/com.st.stm32cube.ide.mcu.externaltools.gnu-tools-for-stm32.7-2018-q2-update.win32_1.5.0.202011040924/tools/bin/../lib/gcc/arm-none-eabi/7.3.1/thumb/v7e-m/fpv4-sp/hard\libgcc.a(_arm_cmpdf2.o)
                0x000000000800097c                __gtdf2
                0x000000000800097c                __gedf2
                0x0000000008000984                __ltdf2
                0x0000000008000984                __ledf2
                0x000000000800098c                __nedf2
                0x000000000800098c                __eqdf2
                0x000000000800098c                __cmpdf2
                0x0000000008000a08                __aeabi_cdrcmple
                0x0000000008000a18                __aeabi_cdcmpeq
                0x0000000008000a18                __aeabi_cdcmple
                0x0000000008000a28                __aeabi_dcmpeq
                0x0000000008000a3c                __aeabi_dcmplt
                0x0000000008000a50                __aeabi_dcmple
                0x0000000008000a64                __aeabi_dcmpge
                0x0000000008000a78                __aeabi_dcmpgt
 .text          0x0000000008000a8c       0x50 c:/st/stm32cubeide_1.5.0/stm32cubeide/plugins/com.st.stm32cube.ide.mcu.externaltools.gnu-tools-for-stm32.7-2018-q2-update.win32_1.5.0.202011040924/tools/bin/../lib/gcc/arm-none-eabi/7.3.1/thumb/v7e-m/fpv4-sp/hard\libgcc.a(_arm_fixdfsi.o)
                0x0000000008000a8c                __aeabi_d2iz
                0x0000000008000a8c                __fixdfsi
 .text          0x0000000008000adc       0x40 c:/st/stm32cubeide_1.5.0/stm32cubeide/plugins/com.st.stm32cube.ide.mcu.externaltools.gnu-tools-for-stm32.7-2018-q2-update.win32_1.5.0.202011040924/tools/bin/../lib/gcc/arm-none-eabi/7.3.1/thumb/v7e-m/fpv4-sp/hard\libgcc.a(_arm_fixunsdfsi.o)
                0x0000000008000adc                __aeabi_d2uiz
                0x0000000008000adc                __fixunsdfsi
 .text          0x0000000008000b1c       0xa0 c:/st/stm32cubeide_1.5.0/stm32cubeide/plugins/com.st.stm32cube.ide.mcu.externaltools.gnu-tools-for-stm32.7-2018-q2-update.win32_1.5.0.202011040924/tools/bin/../lib/gcc/arm-none-eabi/7.3.1/thumb/v7e-m/fpv4-sp/hard\libgcc.a(_arm_truncdfsf2.o)
                0x0000000008000b1c                __truncdfsf2
                0x0000000008000b1c                __aeabi_d2f
 .text          0x0000000008000bbc       0x30 c:/st/stm32cubeide_1.5.0/stm32cubeide/plugins/com.st.stm32cube.ide.mcu.externaltools.gnu-tools-for-stm32.7-2018-q2-update.win32_1.5.0.202011040924/tools/bin/../lib/gcc/arm-none-eabi/7.3.1/thumb/v7e-m/fpv4-sp/hard\libgcc.a(_aeabi_uldivmod.o)
                0x0000000008000bbc                __aeabi_uldivmod
 .text          0x0000000008000bec      0x2cc c:/st/stm32cubeide_1.5.0/stm32cubeide/plugins/com.st.stm32cube.ide.mcu.externaltools.gnu-tools-for-stm32.7-2018-q2-update.win32_1.5.0.202011040924/tools/bin/../lib/gcc/arm-none-eabi/7.3.1/thumb/v7e-m/fpv4-sp/hard\libgcc.a(_udivmoddi4.o)
                0x0000000008000bec                __udivmoddi4
 .text          0x0000000008000eb8        0x4 c:/st/stm32cubeide_1.5.0/stm32cubeide/plugins/com.st.stm32cube.ide.mcu.externaltools.gnu-tools-for-stm32.7-2018-q2-update.win32_1.5.0.202011040924/tools/bin/../lib/gcc/arm-none-eabi/7.3.1/thumb/v7e-m/fpv4-sp/hard\libgcc.a(_dvmd_tls.o)
                0x0000000008000eb8                __aeabi_idiv0
                0x0000000008000eb8                __aeabi_ldiv0
 *(.text*)
 .text.GFX_SetFont
                0x0000000008000ebc       0x20 Core/Src/GFX_BW.o
                0x0000000008000ebc                GFX_SetFont
 .text.GFX_DrawChar
                0x0000000008000edc      0x174 Core/Src/GFX_BW.o
                0x0000000008000edc                GFX_DrawChar
 .text.GFX_DrawString
                0x0000000008001050       0xb4 Core/Src/GFX_BW.o
                0x0000000008001050                GFX_DrawString
 .text.GFX_WriteLine
                0x0000000008001104      0x11c Core/Src/GFX_BW.o
                0x0000000008001104                GFX_WriteLine
 .text.GFX_DrawFastVLine
                0x0000000008001220       0x2e Core/Src/GFX_BW.o
                0x0000000008001220                GFX_DrawFastVLine
 .text.GFX_DrawFillRectangle
                0x000000000800124e       0x44 Core/Src/GFX_BW.o
                0x000000000800124e                GFX_DrawFillRectangle
 *fill*         0x0000000008001292        0x2 
 .text.SSD1306_Command
                0x0000000008001294       0x34 Core/Src/SSD1306_OLED.o
                0x0000000008001294                SSD1306_Command
 .text.SSD1306_Data
                0x00000000080012c8       0x34 Core/Src/SSD1306_OLED.o
                0x00000000080012c8                SSD1306_Data
 .text.SSD1306_DrawPixel
                0x00000000080012fc      0x120 Core/Src/SSD1306_OLED.o
                0x00000000080012fc                SSD1306_DrawPixel
 .text.SSD1306_Clear
                0x000000000800141c       0x40 Core/Src/SSD1306_OLED.o
                0x000000000800141c                SSD1306_Clear
 .text.SSD1306_Display
                0x000000000800145c       0x3c Core/Src/SSD1306_OLED.o
                0x000000000800145c                SSD1306_Display
 .text.SSD1306_Init
                0x0000000008001498       0xb0 Core/Src/SSD1306_OLED.o
                0x0000000008001498                SSD1306_Init
 .text.Read8    0x0000000008001548       0x3e Core/Src/bmp280.o
                0x0000000008001548                Read8
 .text.Write8   0x0000000008001586       0x3e Core/Src/bmp280.o
                0x0000000008001586                Write8
 .text.Read16   0x00000000080015c4       0x4c Core/Src/bmp280.o
                0x00000000080015c4                Read16
 .text.Read24   0x0000000008001610       0x4a Core/Src/bmp280.o
                0x0000000008001610                Read24
 .text.BMP280_SetMode
                0x000000000800165a       0x52 Core/Src/bmp280.o
                0x000000000800165a                BMP280_SetMode
 .text.BMP280_SetPressureOversampling
                0x00000000080016ac       0x54 Core/Src/bmp280.o
                0x00000000080016ac                BMP280_SetPressureOversampling
 .text.BMP280_SetTemperatureOversampling
                0x0000000008001700       0x4e Core/Src/bmp280.o
                0x0000000008001700                BMP280_SetTemperatureOversampling
 .text.BMP280_ReadTemperatureRaw
                0x000000000800174e       0x24 Core/Src/bmp280.o
                0x000000000800174e                BMP280_ReadTemperatureRaw
 .text.BMP280_ReadPressureRaw
                0x0000000008001772       0x24 Core/Src/bmp280.o
                0x0000000008001772                BMP280_ReadPressureRaw
 *fill*         0x0000000008001796        0x2 
 .text.BMP280_ReadTemperature
                0x0000000008001798       0x9c Core/Src/bmp280.o
                0x0000000008001798                BMP280_ReadTemperature
 .text.BMP280_ReadPressureAndTemperature
                0x0000000008001834      0x16c Core/Src/bmp280.o
                0x0000000008001834                BMP280_ReadPressureAndTemperature
 .text.BMP280_Init
                0x00000000080019a0      0x112 Core/Src/bmp280.o
                0x00000000080019a0                BMP280_Init
 *fill*         0x0000000008001ab2        0x2 
 .text._putchar
                0x0000000008001ab4       0x40 Core/Src/freertos.o
                0x0000000008001ab4                _putchar
 .text.MX_FREERTOS_Init
                0x0000000008001af4       0x98 Core/Src/freertos.o
                0x0000000008001af4                MX_FREERTOS_Init
 .text.StartHeartbeatTask
                0x0000000008001b8c       0x20 Core/Src/freertos.o
                0x0000000008001b8c                StartHeartbeatTask
 .text.StartBmp280Task
                0x0000000008001bac       0xc4 Core/Src/freertos.o
                0x0000000008001bac                StartBmp280Task
 .text.StartOledTask
                0x0000000008001c70      0x144 Core/Src/freertos.o
                0x0000000008001c70                StartOledTask
 .text.MX_GPIO_Init
                0x0000000008001db4       0xe0 Core/Src/gpio.o
                0x0000000008001db4                MX_GPIO_Init
 .text.MX_I2C1_Init
                0x0000000008001e94       0x5c Core/Src/i2c.o
                0x0000000008001e94                MX_I2C1_Init
 .text.HAL_I2C_MspInit
                0x0000000008001ef0       0x90 Core/Src/i2c.o
                0x0000000008001ef0                HAL_I2C_MspInit
 .text.main     0x0000000008001f80       0x26 Core/Src/main.o
                0x0000000008001f80                main
 *fill*         0x0000000008001fa6        0x2 
 .text.SystemClock_Config
                0x0000000008001fa8       0xd4 Core/Src/main.o
                0x0000000008001fa8                SystemClock_Config
 .text.HAL_TIM_PeriodElapsedCallback
                0x000000000800207c       0x24 Core/Src/main.o
                0x000000000800207c                HAL_TIM_PeriodElapsedCallback
 .text.Error_Handler
                0x00000000080020a0        0x8 Core/Src/main.o
                0x00000000080020a0                Error_Handler
 .text._out_buffer
                0x00000000080020a8       0x2e Core/Src/printf.o
 .text._out_null
                0x00000000080020d6       0x1c Core/Src/printf.o
 .text._out_char
                0x00000000080020f2       0x26 Core/Src/printf.o
 .text._strnlen_s
                0x0000000008002118       0x3a Core/Src/printf.o
 .text._is_digit
                0x0000000008002152       0x2e Core/Src/printf.o
 .text._atoi    0x0000000008002180       0x48 Core/Src/printf.o
 .text._out_rev
                0x00000000080021c8       0xa0 Core/Src/printf.o
 .text._ntoa_format
                0x0000000008002268      0x1b8 Core/Src/printf.o
 .text._ntoa_long
                0x0000000008002420       0xce Core/Src/printf.o
 .text._ntoa_long_long
                0x00000000080024ee       0xde Core/Src/printf.o
 *fill*         0x00000000080025cc        0x4 
 .text._ftoa    0x00000000080025d0      0x4d4 Core/Src/printf.o
 *fill*         0x0000000008002aa4        0x4 
 .text._etoa    0x0000000008002aa8      0x530 Core/Src/printf.o
 .text._vsnprintf
                0x0000000008002fd8      0x96c Core/Src/printf.o
 .text.printf_  0x0000000008003944       0x38 Core/Src/printf.o
                0x0000000008003944                printf_
 .text.sprintf_
                0x000000000800397c       0x38 Core/Src/printf.o
                0x000000000800397c                sprintf_
 .text.HAL_MspInit
                0x00000000080039b4       0x58 Core/Src/stm32f4xx_hal_msp.o
                0x00000000080039b4                HAL_MspInit
 .text.HAL_InitTick
                0x0000000008003a0c       0xb0 Core/Src/stm32f4xx_hal_timebase_tim.o
                0x0000000008003a0c                HAL_InitTick
 .text.NMI_Handler
                0x0000000008003abc        0x6 Core/Src/stm32f4xx_it.o
                0x0000000008003abc                NMI_Handler
 .text.HardFault_Handler
                0x0000000008003ac2        0x6 Core/Src/stm32f4xx_it.o
                0x0000000008003ac2                HardFault_Handler
 .text.MemManage_Handler
                0x0000000008003ac8        0x6 Core/Src/stm32f4xx_it.o
                0x0000000008003ac8                MemManage_Handler
 .text.BusFault_Handler
                0x0000000008003ace        0x6 Core/Src/stm32f4xx_it.o
                0x0000000008003ace                BusFault_Handler
 .text.UsageFault_Handler
                0x0000000008003ad4        0x6 Core/Src/stm32f4xx_it.o
                0x0000000008003ad4                UsageFault_Handler
 .text.DebugMon_Handler
                0x0000000008003ada        0xe Core/Src/stm32f4xx_it.o
                0x0000000008003ada                DebugMon_Handler
 .text.TIM1_UP_TIM10_IRQHandler
                0x0000000008003ae8       0x14 Core/Src/stm32f4xx_it.o
                0x0000000008003ae8                TIM1_UP_TIM10_IRQHandler
 .text.SystemInit
                0x0000000008003afc       0x2c Core/Src/system_stm32f4xx.o
                0x0000000008003afc                SystemInit
 .text.MX_USART2_UART_Init
                0x0000000008003b28       0x54 Core/Src/usart.o
                0x0000000008003b28                MX_USART2_UART_Init
 .text.HAL_UART_MspInit
                0x0000000008003b7c       0x90 Core/Src/usart.o
                0x0000000008003b7c                HAL_UART_MspInit
 .text.Reset_Handler
                0x0000000008003c0c       0x50 Core/Startup/startup_stm32f411retx.o
                0x0000000008003c0c                Reset_Handler
 .text.Default_Handler
                0x0000000008003c5c        0x2 Core/Startup/startup_stm32f411retx.o
                0x0000000008003c5c                RTC_Alarm_IRQHandler
                0x0000000008003c5c                EXTI2_IRQHandler
                0x0000000008003c5c                SPI4_IRQHandler
                0x0000000008003c5c                TIM1_CC_IRQHandler
                0x0000000008003c5c                DMA2_Stream5_IRQHandler
                0x0000000008003c5c                DMA1_Stream5_IRQHandler
                0x0000000008003c5c                PVD_IRQHandler
                0x0000000008003c5c                SDIO_IRQHandler
                0x0000000008003c5c                TAMP_STAMP_IRQHandler
                0x0000000008003c5c                EXTI3_IRQHandler
                0x0000000008003c5c                I2C3_ER_IRQHandler
                0x0000000008003c5c                EXTI0_IRQHandler
                0x0000000008003c5c                I2C2_EV_IRQHandler
                0x0000000008003c5c                DMA1_Stream2_IRQHandler
                0x0000000008003c5c                FPU_IRQHandler
                0x0000000008003c5c                DMA2_Stream2_IRQHandler
                0x0000000008003c5c                SPI1_IRQHandler
                0x0000000008003c5c                TIM1_BRK_TIM9_IRQHandler
                0x0000000008003c5c                DMA2_Stream3_IRQHandler
                0x0000000008003c5c                USART6_IRQHandler
                0x0000000008003c5c                DMA2_Stream0_IRQHandler
                0x0000000008003c5c                TIM4_IRQHandler
                0x0000000008003c5c                I2C1_EV_IRQHandler
                0x0000000008003c5c                DMA1_Stream6_IRQHandler
                0x0000000008003c5c                DMA1_Stream1_IRQHandler
                0x0000000008003c5c                TIM3_IRQHandler
                0x0000000008003c5c                RCC_IRQHandler
                0x0000000008003c5c                Default_Handler
                0x0000000008003c5c                EXTI15_10_IRQHandler
                0x0000000008003c5c                ADC_IRQHandler
                0x0000000008003c5c                DMA1_Stream7_IRQHandler
                0x0000000008003c5c                SPI5_IRQHandler
                0x0000000008003c5c                TIM5_IRQHandler
                0x0000000008003c5c                DMA2_Stream7_IRQHandler
                0x0000000008003c5c                I2C3_EV_IRQHandler
                0x0000000008003c5c                EXTI9_5_IRQHandler
                0x0000000008003c5c                RTC_WKUP_IRQHandler
                0x0000000008003c5c                SPI2_IRQHandler
                0x0000000008003c5c                DMA1_Stream0_IRQHandler
                0x0000000008003c5c                EXTI4_IRQHandler
                0x0000000008003c5c                WWDG_IRQHandler
                0x0000000008003c5c                TIM2_IRQHandler
                0x0000000008003c5c                OTG_FS_WKUP_IRQHandler
                0x0000000008003c5c                TIM1_TRG_COM_TIM11_IRQHandler
                0x0000000008003c5c                EXTI1_IRQHandler
                0x0000000008003c5c                USART2_IRQHandler
                0x0000000008003c5c                I2C2_ER_IRQHandler
                0x0000000008003c5c                DMA2_Stream1_IRQHandler
                0x0000000008003c5c                FLASH_IRQHandler
                0x0000000008003c5c                DMA2_Stream4_IRQHandler
                0x0000000008003c5c                USART1_IRQHandler
                0x0000000008003c5c                OTG_FS_IRQHandler
                0x0000000008003c5c                SPI3_IRQHandler
                0x0000000008003c5c                DMA1_Stream4_IRQHandler
                0x0000000008003c5c                I2C1_ER_IRQHandler
                0x0000000008003c5c                DMA2_Stream6_IRQHandler
                0x0000000008003c5c                DMA1_Stream3_IRQHandler
 *fill*         0x0000000008003c5e        0x2 
 .text.HAL_Init
                0x0000000008003c60       0x44 Drivers/STM32F4xx_HAL_Driver/Src/stm32f4xx_hal.o
                0x0000000008003c60                HAL_Init
 .text.HAL_IncTick
                0x0000000008003ca4       0x28 Drivers/STM32F4xx_HAL_Driver/Src/stm32f4xx_hal.o
                0x0000000008003ca4                HAL_IncTick
 .text.HAL_GetTick
                0x0000000008003ccc       0x18 Drivers/STM32F4xx_HAL_Driver/Src/stm32f4xx_hal.o
                0x0000000008003ccc                HAL_GetTick
 .text.__NVIC_SetPriorityGrouping
                0x0000000008003ce4       0x48 Drivers/STM32F4xx_HAL_Driver/Src/stm32f4xx_hal_cortex.o
 .text.__NVIC_GetPriorityGrouping
                0x0000000008003d2c       0x1c Drivers/STM32F4xx_HAL_Driver/Src/stm32f4xx_hal_cortex.o
 .text.__NVIC_EnableIRQ
                0x0000000008003d48       0x3c Drivers/STM32F4xx_HAL_Driver/Src/stm32f4xx_hal_cortex.o
 .text.__NVIC_SetPriority
                0x0000000008003d84       0x54 Drivers/STM32F4xx_HAL_Driver/Src/stm32f4xx_hal_cortex.o
 .text.NVIC_EncodePriority
                0x0000000008003dd8       0x66 Drivers/STM32F4xx_HAL_Driver/Src/stm32f4xx_hal_cortex.o
 .text.HAL_NVIC_SetPriorityGrouping
                0x0000000008003e3e       0x16 Drivers/STM32F4xx_HAL_Driver/Src/stm32f4xx_hal_cortex.o
                0x0000000008003e3e                HAL_NVIC_SetPriorityGrouping
 .text.HAL_NVIC_SetPriority
                0x0000000008003e54       0x38 Drivers/STM32F4xx_HAL_Driver/Src/stm32f4xx_hal_cortex.o
                0x0000000008003e54                HAL_NVIC_SetPriority
 .text.HAL_NVIC_EnableIRQ
                0x0000000008003e8c       0x1c Drivers/STM32F4xx_HAL_Driver/Src/stm32f4xx_hal_cortex.o
                0x0000000008003e8c                HAL_NVIC_EnableIRQ
 .text.HAL_GPIO_Init
                0x0000000008003ea8      0x304 Drivers/STM32F4xx_HAL_Driver/Src/stm32f4xx_hal_gpio.o
                0x0000000008003ea8                HAL_GPIO_Init
 .text.HAL_GPIO_WritePin
                0x00000000080041ac       0x32 Drivers/STM32F4xx_HAL_Driver/Src/stm32f4xx_hal_gpio.o
                0x00000000080041ac                HAL_GPIO_WritePin
 .text.HAL_GPIO_TogglePin
                0x00000000080041de       0x36 Drivers/STM32F4xx_HAL_Driver/Src/stm32f4xx_hal_gpio.o
                0x00000000080041de                HAL_GPIO_TogglePin
 .text.HAL_I2C_Init
                0x0000000008004214      0x270 Drivers/STM32F4xx_HAL_Driver/Src/stm32f4xx_hal_i2c.o
                0x0000000008004214                HAL_I2C_Init
 .text.HAL_I2C_Mem_Write
                0x0000000008004484      0x1f4 Drivers/STM32F4xx_HAL_Driver/Src/stm32f4xx_hal_i2c.o
                0x0000000008004484                HAL_I2C_Mem_Write
 .text.HAL_I2C_Mem_Read
                0x0000000008004678      0x44c Drivers/STM32F4xx_HAL_Driver/Src/stm32f4xx_hal_i2c.o
                0x0000000008004678                HAL_I2C_Mem_Read
 .text.I2C_RequestMemoryWrite
                0x0000000008004ac4      0x12c Drivers/STM32F4xx_HAL_Driver/Src/stm32f4xx_hal_i2c.o
 .text.I2C_RequestMemoryRead
                0x0000000008004bf0      0x1d0 Drivers/STM32F4xx_HAL_Driver/Src/stm32f4xx_hal_i2c.o
 .text.I2C_WaitOnFlagUntilTimeout
                0x0000000008004dc0       0xae Drivers/STM32F4xx_HAL_Driver/Src/stm32f4xx_hal_i2c.o
 .text.I2C_WaitOnMasterAddressFlagUntilTimeout
                0x0000000008004e6e       0xfe Drivers/STM32F4xx_HAL_Driver/Src/stm32f4xx_hal_i2c.o
 .text.I2C_WaitOnTXEFlagUntilTimeout
                0x0000000008004f6c       0x82 Drivers/STM32F4xx_HAL_Driver/Src/stm32f4xx_hal_i2c.o
 .text.I2C_WaitOnBTFFlagUntilTimeout
                0x0000000008004fee       0x82 Drivers/STM32F4xx_HAL_Driver/Src/stm32f4xx_hal_i2c.o
 .text.I2C_WaitOnRXNEFlagUntilTimeout
                0x0000000008005070       0xac Drivers/STM32F4xx_HAL_Driver/Src/stm32f4xx_hal_i2c.o
 .text.I2C_IsAcknowledgeFailed
                0x000000000800511c       0x5e Drivers/STM32F4xx_HAL_Driver/Src/stm32f4xx_hal_i2c.o
 *fill*         0x000000000800517a        0x2 
 .text.HAL_RCC_OscConfig
                0x000000000800517c      0x4e0 Drivers/STM32F4xx_HAL_Driver/Src/stm32f4xx_hal_rcc.o
                0x000000000800517c                HAL_RCC_OscConfig
 .text.HAL_RCC_ClockConfig
                0x000000000800565c      0x1cc Drivers/STM32F4xx_HAL_Driver/Src/stm32f4xx_hal_rcc.o
                0x000000000800565c                HAL_RCC_ClockConfig
 .text.HAL_RCC_GetSysClockFreq
                0x0000000008005828      0x1b0 Drivers/STM32F4xx_HAL_Driver/Src/stm32f4xx_hal_rcc.o
                0x0000000008005828                HAL_RCC_GetSysClockFreq
 .text.HAL_RCC_GetHCLKFreq
                0x00000000080059d8       0x18 Drivers/STM32F4xx_HAL_Driver/Src/stm32f4xx_hal_rcc.o
                0x00000000080059d8                HAL_RCC_GetHCLKFreq
 .text.HAL_RCC_GetPCLK1Freq
                0x00000000080059f0       0x28 Drivers/STM32F4xx_HAL_Driver/Src/stm32f4xx_hal_rcc.o
                0x00000000080059f0                HAL_RCC_GetPCLK1Freq
 .text.HAL_RCC_GetPCLK2Freq
                0x0000000008005a18       0x28 Drivers/STM32F4xx_HAL_Driver/Src/stm32f4xx_hal_rcc.o
                0x0000000008005a18                HAL_RCC_GetPCLK2Freq
 .text.HAL_RCC_GetClockConfig
                0x0000000008005a40       0x64 Drivers/STM32F4xx_HAL_Driver/Src/stm32f4xx_hal_rcc.o
                0x0000000008005a40                HAL_RCC_GetClockConfig
 .text.HAL_TIM_Base_Init
                0x0000000008005aa4       0x56 Drivers/STM32F4xx_HAL_Driver/Src/stm32f4xx_hal_tim.o
                0x0000000008005aa4                HAL_TIM_Base_Init
 .text.HAL_TIM_Base_MspInit
                0x0000000008005afa       0x14 Drivers/STM32F4xx_HAL_Driver/Src/stm32f4xx_hal_tim.o
                0x0000000008005afa                HAL_TIM_Base_MspInit
 .text.HAL_TIM_Base_Start_IT
                0x0000000008005b0e       0x48 Drivers/STM32F4xx_HAL_Driver/Src/stm32f4xx_hal_tim.o
                0x0000000008005b0e                HAL_TIM_Base_Start_IT
 .text.HAL_TIM_IRQHandler
                0x0000000008005b56      0x210 Drivers/STM32F4xx_HAL_Driver/Src/stm32f4xx_hal_tim.o
                0x0000000008005b56                HAL_TIM_IRQHandler
 .text.HAL_TIM_OC_DelayElapsedCallback
                0x0000000008005d66       0x14 Drivers/STM32F4xx_HAL_Driver/Src/stm32f4xx_hal_tim.o
                0x0000000008005d66                HAL_TIM_OC_DelayElapsedCallback
 .text.HAL_TIM_IC_CaptureCallback
                0x0000000008005d7a       0x14 Drivers/STM32F4xx_HAL_Driver/Src/stm32f4xx_hal_tim.o
                0x0000000008005d7a                HAL_TIM_IC_CaptureCallback
 .text.HAL_TIM_PWM_PulseFinishedCallback
                0x0000000008005d8e       0x14 Drivers/STM32F4xx_HAL_Driver/Src/stm32f4xx_hal_tim.o
                0x0000000008005d8e                HAL_TIM_PWM_PulseFinishedCallback
 .text.HAL_TIM_TriggerCallback
                0x0000000008005da2       0x14 Drivers/STM32F4xx_HAL_Driver/Src/stm32f4xx_hal_tim.o
                0x0000000008005da2                HAL_TIM_TriggerCallback
 *fill*         0x0000000008005db6        0x2 
 .text.TIM_Base_SetConfig
                0x0000000008005db8      0x100 Drivers/STM32F4xx_HAL_Driver/Src/stm32f4xx_hal_tim.o
                0x0000000008005db8                TIM_Base_SetConfig
 .text.HAL_TIMEx_CommutCallback
                0x0000000008005eb8       0x14 Drivers/STM32F4xx_HAL_Driver/Src/stm32f4xx_hal_tim_ex.o
                0x0000000008005eb8                HAL_TIMEx_CommutCallback
 .text.HAL_TIMEx_BreakCallback
                0x0000000008005ecc       0x14 Drivers/STM32F4xx_HAL_Driver/Src/stm32f4xx_hal_tim_ex.o
                0x0000000008005ecc                HAL_TIMEx_BreakCallback
 .text.HAL_UART_Init
                0x0000000008005ee0       0x9a Drivers/STM32F4xx_HAL_Driver/Src/stm32f4xx_hal_uart.o
                0x0000000008005ee0                HAL_UART_Init
 .text.HAL_UART_Transmit
                0x0000000008005f7a      0x132 Drivers/STM32F4xx_HAL_Driver/Src/stm32f4xx_hal_uart.o
                0x0000000008005f7a                HAL_UART_Transmit
 .text.UART_WaitOnFlagUntilTimeout
                0x00000000080060ac       0x94 Drivers/STM32F4xx_HAL_Driver/Src/stm32f4xx_hal_uart.o
 .text.UART_SetConfig
                0x0000000008006140      0x6f8 Drivers/STM32F4xx_HAL_Driver/Src/stm32f4xx_hal_uart.o
 .text.SVC_Setup
                0x0000000008006838        0xe Middlewares/Third_Party/FreeRTOS/Source/CMSIS_RTOS_V2/cmsis_os2.o
 *fill*         0x0000000008006846        0x2 
 .text.osKernelInitialize
                0x0000000008006848       0x68 Middlewares/Third_Party/FreeRTOS/Source/CMSIS_RTOS_V2/cmsis_os2.o
                0x0000000008006848                osKernelInitialize
 .text.osKernelStart
                0x00000000080068b0       0x6c Middlewares/Third_Party/FreeRTOS/Source/CMSIS_RTOS_V2/cmsis_os2.o
                0x00000000080068b0                osKernelStart
 .text.osThreadNew
                0x000000000800691c      0x14c Middlewares/Third_Party/FreeRTOS/Source/CMSIS_RTOS_V2/cmsis_os2.o
                0x000000000800691c                osThreadNew
 .text.osDelay  0x0000000008006a68       0x5c Middlewares/Third_Party/FreeRTOS/Source/CMSIS_RTOS_V2/cmsis_os2.o
                0x0000000008006a68                osDelay
 .text.osMutexNew
                0x0000000008006ac4      0x134 Middlewares/Third_Party/FreeRTOS/Source/CMSIS_RTOS_V2/cmsis_os2.o
                0x0000000008006ac4                osMutexNew
 .text.osMutexAcquire
                0x0000000008006bf8       0xbc Middlewares/Third_Party/FreeRTOS/Source/CMSIS_RTOS_V2/cmsis_os2.o
                0x0000000008006bf8                osMutexAcquire
 .text.osMutexRelease
                0x0000000008006cb4       0xa0 Middlewares/Third_Party/FreeRTOS/Source/CMSIS_RTOS_V2/cmsis_os2.o
                0x0000000008006cb4                osMutexRelease
 .text.vApplicationGetIdleTaskMemory
                0x0000000008006d54       0x34 Middlewares/Third_Party/FreeRTOS/Source/CMSIS_RTOS_V2/cmsis_os2.o
                0x0000000008006d54                vApplicationGetIdleTaskMemory
 .text.vApplicationGetTimerTaskMemory
                0x0000000008006d88       0x34 Middlewares/Third_Party/FreeRTOS/Source/CMSIS_RTOS_V2/cmsis_os2.o
                0x0000000008006d88                vApplicationGetTimerTaskMemory
 .text.vListInitialise
                0x0000000008006dbc       0x40 Middlewares/Third_Party/FreeRTOS/Source/list.o
                0x0000000008006dbc                vListInitialise
 .text.vListInitialiseItem
                0x0000000008006dfc       0x1a Middlewares/Third_Party/FreeRTOS/Source/list.o
                0x0000000008006dfc                vListInitialiseItem
 .text.vListInsertEnd
                0x0000000008006e16       0x48 Middlewares/Third_Party/FreeRTOS/Source/list.o
                0x0000000008006e16                vListInsertEnd
 .text.vListInsert
                0x0000000008006e5e       0x72 Middlewares/Third_Party/FreeRTOS/Source/list.o
                0x0000000008006e5e                vListInsert
 .text.uxListRemove
                0x0000000008006ed0       0x54 Middlewares/Third_Party/FreeRTOS/Source/list.o
                0x0000000008006ed0                uxListRemove
 .text.xQueueGenericReset
                0x0000000008006f24       0xd0 Middlewares/Third_Party/FreeRTOS/Source/queue.o
                0x0000000008006f24                xQueueGenericReset
 .text.xQueueGenericCreateStatic
                0x0000000008006ff4       0xe6 Middlewares/Third_Party/FreeRTOS/Source/queue.o
                0x0000000008006ff4                xQueueGenericCreateStatic
 .text.xQueueGenericCreate
                0x00000000080070da       0x7e Middlewares/Third_Party/FreeRTOS/Source/queue.o
                0x00000000080070da                xQueueGenericCreate
 .text.prvInitialiseNewQueue
                0x0000000008007158       0x46 Middlewares/Third_Party/FreeRTOS/Source/queue.o
 .text.prvInitialiseMutex
                0x000000000800719e       0x34 Middlewares/Third_Party/FreeRTOS/Source/queue.o
 .text.xQueueCreateMutex
                0x00000000080071d2       0x30 Middlewares/Third_Party/FreeRTOS/Source/queue.o
                0x00000000080071d2                xQueueCreateMutex
 .text.xQueueCreateMutexStatic
                0x0000000008007202       0x36 Middlewares/Third_Party/FreeRTOS/Source/queue.o
                0x0000000008007202                xQueueCreateMutexStatic
 .text.xQueueGiveMutexRecursive
                0x0000000008007238       0x66 Middlewares/Third_Party/FreeRTOS/Source/queue.o
                0x0000000008007238                xQueueGiveMutexRecursive
 .text.xQueueTakeMutexRecursive
                0x000000000800729e       0x6a Middlewares/Third_Party/FreeRTOS/Source/queue.o
                0x000000000800729e                xQueueTakeMutexRecursive
 .text.xQueueGenericSend
                0x0000000008007308      0x1f4 Middlewares/Third_Party/FreeRTOS/Source/queue.o
                0x0000000008007308                xQueueGenericSend
 .text.xQueueGenericSendFromISR
                0x00000000080074fc      0x128 Middlewares/Third_Party/FreeRTOS/Source/queue.o
                0x00000000080074fc                xQueueGenericSendFromISR
 .text.xQueueReceive
                0x0000000008007624      0x1b8 Middlewares/Third_Party/FreeRTOS/Source/queue.o
                0x0000000008007624                xQueueReceive
 .text.xQueueSemaphoreTake
                0x00000000080077dc      0x210 Middlewares/Third_Party/FreeRTOS/Source/queue.o
                0x00000000080077dc                xQueueSemaphoreTake
 .text.prvGetDisinheritPriorityAfterTimeout
                0x00000000080079ec       0x30 Middlewares/Third_Party/FreeRTOS/Source/queue.o
 .text.prvCopyDataToQueue
                0x0000000008007a1c       0xd4 Middlewares/Third_Party/FreeRTOS/Source/queue.o
 .text.prvCopyDataFromQueue
                0x0000000008007af0       0x4c Middlewares/Third_Party/FreeRTOS/Source/queue.o
 .text.prvUnlockQueue
                0x0000000008007b3c       0xa4 Middlewares/Third_Party/FreeRTOS/Source/queue.o
 .text.prvIsQueueEmpty
                0x0000000008007be0       0x2c Middlewares/Third_Party/FreeRTOS/Source/queue.o
 .text.prvIsQueueFull
                0x0000000008007c0c       0x30 Middlewares/Third_Party/FreeRTOS/Source/queue.o
 .text.vQueueAddToRegistry
                0x0000000008007c3c       0x50 Middlewares/Third_Party/FreeRTOS/Source/queue.o
                0x0000000008007c3c                vQueueAddToRegistry
 .text.vQueueWaitForMessageRestricted
                0x0000000008007c8c       0x68 Middlewares/Third_Party/FreeRTOS/Source/queue.o
                0x0000000008007c8c                vQueueWaitForMessageRestricted
 .text.xTaskCreateStatic
                0x0000000008007cf4       0xb4 Middlewares/Third_Party/FreeRTOS/Source/tasks.o
                0x0000000008007cf4                xTaskCreateStatic
 .text.xTaskCreate
                0x0000000008007da8       0x8a Middlewares/Third_Party/FreeRTOS/Source/tasks.o
                0x0000000008007da8                xTaskCreate
 .text.prvInitialiseNewTask
                0x0000000008007e32      0x11c Middlewares/Third_Party/FreeRTOS/Source/tasks.o
 *fill*         0x0000000008007f4e        0x2 
 .text.prvAddNewTaskToReadyList
                0x0000000008007f50       0xe0 Middlewares/Third_Party/FreeRTOS/Source/tasks.o
 .text.vTaskDelay
                0x0000000008008030       0x68 Middlewares/Third_Party/FreeRTOS/Source/tasks.o
                0x0000000008008030                vTaskDelay
 .text.vTaskStartScheduler
                0x0000000008008098       0xc8 Middlewares/Third_Party/FreeRTOS/Source/tasks.o
                0x0000000008008098                vTaskStartScheduler
 .text.vTaskSuspendAll
                0x0000000008008160       0x1c Middlewares/Third_Party/FreeRTOS/Source/tasks.o
                0x0000000008008160                vTaskSuspendAll
 .text.xTaskResumeAll
                0x000000000800817c      0x138 Middlewares/Third_Party/FreeRTOS/Source/tasks.o
                0x000000000800817c                xTaskResumeAll
 .text.xTaskGetTickCount
                0x00000000080082b4       0x20 Middlewares/Third_Party/FreeRTOS/Source/tasks.o
                0x00000000080082b4                xTaskGetTickCount
 .text.xTaskIncrementTick
                0x00000000080082d4      0x170 Middlewares/Third_Party/FreeRTOS/Source/tasks.o
                0x00000000080082d4                xTaskIncrementTick
 .text.vTaskSwitchContext
                0x0000000008008444       0xb8 Middlewares/Third_Party/FreeRTOS/Source/tasks.o
                0x0000000008008444                vTaskSwitchContext
 .text.vTaskPlaceOnEventList
                0x00000000080084fc       0x48 Middlewares/Third_Party/FreeRTOS/Source/tasks.o
                0x00000000080084fc                vTaskPlaceOnEventList
 .text.vTaskPlaceOnEventListRestricted
                0x0000000008008544       0x54 Middlewares/Third_Party/FreeRTOS/Source/tasks.o
                0x0000000008008544                vTaskPlaceOnEventListRestricted
 .text.xTaskRemoveFromEventList
                0x0000000008008598       0xc4 Middlewares/Third_Party/FreeRTOS/Source/tasks.o
                0x0000000008008598                xTaskRemoveFromEventList
 .text.vTaskInternalSetTimeOutState
                0x000000000800865c       0x2c Middlewares/Third_Party/FreeRTOS/Source/tasks.o
                0x000000000800865c                vTaskInternalSetTimeOutState
 .text.xTaskCheckForTimeOut
                0x0000000008008688       0xc0 Middlewares/Third_Party/FreeRTOS/Source/tasks.o
                0x0000000008008688                xTaskCheckForTimeOut
 .text.vTaskMissedYield
                0x0000000008008748       0x18 Middlewares/Third_Party/FreeRTOS/Source/tasks.o
                0x0000000008008748                vTaskMissedYield
 .text.prvIdleTask
                0x0000000008008760       0x30 Middlewares/Third_Party/FreeRTOS/Source/tasks.o
 .text.prvInitialiseTaskLists
                0x0000000008008790       0x80 Middlewares/Third_Party/FreeRTOS/Source/tasks.o
 .text.prvCheckTasksWaitingTermination
                0x0000000008008810       0x58 Middlewares/Third_Party/FreeRTOS/Source/tasks.o
 .text.prvDeleteTCB
                0x0000000008008868       0x5c Middlewares/Third_Party/FreeRTOS/Source/tasks.o
 .text.prvResetNextTaskUnblockTime
                0x00000000080088c4       0x40 Middlewares/Third_Party/FreeRTOS/Source/tasks.o
 .text.xTaskGetCurrentTaskHandle
                0x0000000008008904       0x20 Middlewares/Third_Party/FreeRTOS/Source/tasks.o
                0x0000000008008904                xTaskGetCurrentTaskHandle
 .text.xTaskGetSchedulerState
                0x0000000008008924       0x3c Middlewares/Third_Party/FreeRTOS/Source/tasks.o
                0x0000000008008924                xTaskGetSchedulerState
 .text.xTaskPriorityInherit
                0x0000000008008960       0xd0 Middlewares/Third_Party/FreeRTOS/Source/tasks.o
                0x0000000008008960                xTaskPriorityInherit
 .text.xTaskPriorityDisinherit
                0x0000000008008a30       0xd8 Middlewares/Third_Party/FreeRTOS/Source/tasks.o
                0x0000000008008a30                xTaskPriorityDisinherit
 .text.vTaskPriorityDisinheritAfterTimeout
                0x0000000008008b08      0x100 Middlewares/Third_Party/FreeRTOS/Source/tasks.o
                0x0000000008008b08                vTaskPriorityDisinheritAfterTimeout
 .text.pvTaskIncrementMutexHeldCount
                0x0000000008008c08       0x28 Middlewares/Third_Party/FreeRTOS/Source/tasks.o
                0x0000000008008c08                pvTaskIncrementMutexHeldCount
 .text.prvAddCurrentTaskToDelayedList
                0x0000000008008c30       0xa8 Middlewares/Third_Party/FreeRTOS/Source/tasks.o
 .text.xTimerCreateTimerTask
                0x0000000008008cd8       0x90 Middlewares/Third_Party/FreeRTOS/Source/timers.o
                0x0000000008008cd8                xTimerCreateTimerTask
 .text.xTimerGenericCommand
                0x0000000008008d68       0x98 Middlewares/Third_Party/FreeRTOS/Source/timers.o
                0x0000000008008d68                xTimerGenericCommand
 .text.prvProcessExpiredTimer
                0x0000000008008e00       0x98 Middlewares/Third_Party/FreeRTOS/Source/timers.o
 .text.prvTimerTask
                0x0000000008008e98       0x24 Middlewares/Third_Party/FreeRTOS/Source/timers.o
 .text.prvProcessTimerOrBlockTask
                0x0000000008008ebc       0x9c Middlewares/Third_Party/FreeRTOS/Source/timers.o
 .text.prvGetNextExpireTime
                0x0000000008008f58       0x48 Middlewares/Third_Party/FreeRTOS/Source/timers.o
 .text.prvSampleTimeNow
                0x0000000008008fa0       0x40 Middlewares/Third_Party/FreeRTOS/Source/timers.o
 .text.prvInsertTimerInActiveList
                0x0000000008008fe0       0x84 Middlewares/Third_Party/FreeRTOS/Source/timers.o
 .text.prvProcessReceivedCommands
                0x0000000008009064      0x1b8 Middlewares/Third_Party/FreeRTOS/Source/timers.o
 .text.prvSwitchTimerLists
                0x000000000800921c       0xc8 Middlewares/Third_Party/FreeRTOS/Source/timers.o
 .text.prvCheckForValidListAndQueue
                0x00000000080092e4       0x80 Middlewares/Third_Party/FreeRTOS/Source/timers.o
 .text.pxPortInitialiseStack
                0x0000000008009364       0x68 Middlewares/Third_Party/FreeRTOS/Source/portable/GCC/ARM_CM4F/port.o
                0x0000000008009364                pxPortInitialiseStack
 .text.prvTaskExitError
                0x00000000080093cc       0x54 Middlewares/Third_Party/FreeRTOS/Source/portable/GCC/ARM_CM4F/port.o
 .text.SVC_Handler
                0x0000000008009420       0x28 Middlewares/Third_Party/FreeRTOS/Source/portable/GCC/ARM_CM4F/port.o
                0x0000000008009420                SVC_Handler
 .text.prvPortStartFirstTask
                0x0000000008009448       0x28 Middlewares/Third_Party/FreeRTOS/Source/portable/GCC/ARM_CM4F/port.o
 .text.xPortStartScheduler
                0x0000000008009470      0x13c Middlewares/Third_Party/FreeRTOS/Source/portable/GCC/ARM_CM4F/port.o
                0x0000000008009470                xPortStartScheduler
 .text.vPortEnterCritical
                0x00000000080095ac       0x5c Middlewares/Third_Party/FreeRTOS/Source/portable/GCC/ARM_CM4F/port.o
                0x00000000080095ac                vPortEnterCritical
 .text.vPortExitCritical
                0x0000000008009608       0x50 Middlewares/Third_Party/FreeRTOS/Source/portable/GCC/ARM_CM4F/port.o
                0x0000000008009608                vPortExitCritical
 *fill*         0x0000000008009658        0x8 
 .text.PendSV_Handler
                0x0000000008009660       0x68 Middlewares/Third_Party/FreeRTOS/Source/portable/GCC/ARM_CM4F/port.o
                0x0000000008009660                PendSV_Handler
 .text.SysTick_Handler
                0x00000000080096c8       0x40 Middlewares/Third_Party/FreeRTOS/Source/portable/GCC/ARM_CM4F/port.o
                0x00000000080096c8                SysTick_Handler
 .text.vPortSetupTimerInterrupt
                0x0000000008009708       0x48 Middlewares/Third_Party/FreeRTOS/Source/portable/GCC/ARM_CM4F/port.o
                0x0000000008009708                vPortSetupTimerInterrupt
 .text.vPortEnableVFP
                0x0000000008009750       0x14 Middlewares/Third_Party/FreeRTOS/Source/portable/GCC/ARM_CM4F/port.o
 .text.vPortValidateInterruptPriority
                0x0000000008009764       0x7c Middlewares/Third_Party/FreeRTOS/Source/portable/GCC/ARM_CM4F/port.o
                0x0000000008009764                vPortValidateInterruptPriority
 .text.pvPortMalloc
                0x00000000080097e0      0x184 Middlewares/Third_Party/FreeRTOS/Source/portable/MemMang/heap_4.o
                0x00000000080097e0                pvPortMalloc
 .text.vPortFree
                0x0000000008009964       0xb0 Middlewares/Third_Party/FreeRTOS/Source/portable/MemMang/heap_4.o
                0x0000000008009964                vPortFree
 .text.prvHeapInit
                0x0000000008009a14       0xc4 Middlewares/Third_Party/FreeRTOS/Source/portable/MemMang/heap_4.o
 .text.prvInsertBlockIntoFreeList
                0x0000000008009ad8       0xb4 Middlewares/Third_Party/FreeRTOS/Source/portable/MemMang/heap_4.o
 .text.__libc_init_array
                0x0000000008009b8c       0x48 c:/st/stm32cubeide_1.5.0/stm32cubeide/plugins/com.st.stm32cube.ide.mcu.externaltools.gnu-tools-for-stm32.7-2018-q2-update.win32_1.5.0.202011040924/tools/bin/../lib/gcc/arm-none-eabi/7.3.1/../../../../arm-none-eabi/lib/thumb/v7e-m/fpv4-sp/hard\libc_nano.a(lib_a-init.o)
                0x0000000008009b8c                __libc_init_array
 .text.memcpy   0x0000000008009bd4       0x16 c:/st/stm32cubeide_1.5.0/stm32cubeide/plugins/com.st.stm32cube.ide.mcu.externaltools.gnu-tools-for-stm32.7-2018-q2-update.win32_1.5.0.202011040924/tools/bin/../lib/gcc/arm-none-eabi/7.3.1/../../../../arm-none-eabi/lib/thumb/v7e-m/fpv4-sp/hard\libc_nano.a(lib_a-memcpy-stub.o)
                0x0000000008009bd4                memcpy
 .text.memset   0x0000000008009bea       0x10 c:/st/stm32cubeide_1.5.0/stm32cubeide/plugins/com.st.stm32cube.ide.mcu.externaltools.gnu-tools-for-stm32.7-2018-q2-update.win32_1.5.0.202011040924/tools/bin/../lib/gcc/arm-none-eabi/7.3.1/../../../../arm-none-eabi/lib/thumb/v7e-m/fpv4-sp/hard\libc_nano.a(lib_a-memset.o)
                0x0000000008009bea                memset
 *(.glue_7)
 .glue_7        0x0000000008009bfa        0x0 linker stubs
 *(.glue_7t)
 .glue_7t       0x0000000008009bfa        0x0 linker stubs
 *(.eh_frame)
 *fill*         0x0000000008009bfa        0x2 
 .eh_frame      0x0000000008009bfc        0x0 c:/st/stm32cubeide_1.5.0/stm32cubeide/plugins/com.st.stm32cube.ide.mcu.externaltools.gnu-tools-for-stm32.7-2018-q2-update.win32_1.5.0.202011040924/tools/bin/../lib/gcc/arm-none-eabi/7.3.1/thumb/v7e-m/fpv4-sp/hard/crtbegin.o
 *(.init)
 .init          0x0000000008009bfc        0x4 c:/st/stm32cubeide_1.5.0/stm32cubeide/plugins/com.st.stm32cube.ide.mcu.externaltools.gnu-tools-for-stm32.7-2018-q2-update.win32_1.5.0.202011040924/tools/bin/../lib/gcc/arm-none-eabi/7.3.1/thumb/v7e-m/fpv4-sp/hard/crti.o
                0x0000000008009bfc                _init
 .init          0x0000000008009c00        0x8 c:/st/stm32cubeide_1.5.0/stm32cubeide/plugins/com.st.stm32cube.ide.mcu.externaltools.gnu-tools-for-stm32.7-2018-q2-update.win32_1.5.0.202011040924/tools/bin/../lib/gcc/arm-none-eabi/7.3.1/thumb/v7e-m/fpv4-sp/hard/crtn.o
 *(.fini)
 .fini          0x0000000008009c08        0x4 c:/st/stm32cubeide_1.5.0/stm32cubeide/plugins/com.st.stm32cube.ide.mcu.externaltools.gnu-tools-for-stm32.7-2018-q2-update.win32_1.5.0.202011040924/tools/bin/../lib/gcc/arm-none-eabi/7.3.1/thumb/v7e-m/fpv4-sp/hard/crti.o
                0x0000000008009c08                _fini
 .fini          0x0000000008009c0c        0x8 c:/st/stm32cubeide_1.5.0/stm32cubeide/plugins/com.st.stm32cube.ide.mcu.externaltools.gnu-tools-for-stm32.7-2018-q2-update.win32_1.5.0.202011040924/tools/bin/../lib/gcc/arm-none-eabi/7.3.1/thumb/v7e-m/fpv4-sp/hard/crtn.o
                0x0000000008009c14                . = ALIGN (0x4)
                0x0000000008009c14                _etext = .

.vfp11_veneer   0x0000000008009c14        0x0
 .vfp11_veneer  0x0000000008009c14        0x0 linker stubs

.v4_bx          0x0000000008009c14        0x0
 .v4_bx         0x0000000008009c14        0x0 linker stubs

.iplt           0x0000000008009c14        0x0
 .iplt          0x0000000008009c14        0x0 c:/st/stm32cubeide_1.5.0/stm32cubeide/plugins/com.st.stm32cube.ide.mcu.externaltools.gnu-tools-for-stm32.7-2018-q2-update.win32_1.5.0.202011040924/tools/bin/../lib/gcc/arm-none-eabi/7.3.1/thumb/v7e-m/fpv4-sp/hard/crtbegin.o

.rodata         0x0000000008009c18      0x3b0
                0x0000000008009c18                . = ALIGN (0x4)
 *(.rodata)
 .rodata        0x0000000008009c18       0x97 Core/Src/freertos.o
 *fill*         0x0000000008009caf        0x1 
 .rodata        0x0000000008009cb0       0x18 Core/Src/printf.o
 .rodata        0x0000000008009cc8        0x5 Middlewares/Third_Party/FreeRTOS/Source/tasks.o
 *fill*         0x0000000008009ccd        0x3 
 .rodata        0x0000000008009cd0        0xd Middlewares/Third_Party/FreeRTOS/Source/timers.o
 *(.rodata*)
 *fill*         0x0000000008009cdd        0x3 
 .rodata.font_8x5
                0x0000000008009ce0      0x1dd Core/Src/freertos.o
                0x0000000008009ce0                font_8x5
 *fill*         0x0000000008009ebd        0x3 
 .rodata.HeartbeatTask_attributes
                0x0000000008009ec0       0x24 Core/Src/freertos.o
                0x0000000008009ec0                HeartbeatTask_attributes
 .rodata.Bmp280Task_attributes
                0x0000000008009ee4       0x24 Core/Src/freertos.o
                0x0000000008009ee4                Bmp280Task_attributes
 .rodata.OledTask_attributes
                0x0000000008009f08       0x24 Core/Src/freertos.o
                0x0000000008009f08                OledTask_attributes
 .rodata.MutexPrintf_attributes
                0x0000000008009f2c       0x10 Core/Src/freertos.o
                0x0000000008009f2c                MutexPrintf_attributes
 .rodata.MutexI2C1_attributes
                0x0000000008009f3c       0x10 Core/Src/freertos.o
                0x0000000008009f3c                MutexI2C1_attributes
 .rodata.MutexBmpData_attributes
                0x0000000008009f4c       0x10 Core/Src/freertos.o
                0x0000000008009f4c                MutexBmpData_attributes
 *fill*         0x0000000008009f5c        0x4 
 .rodata.pow10.5604
                0x0000000008009f60       0x50 Core/Src/printf.o
 .rodata.AHBPrescTable
                0x0000000008009fb0       0x10 Core/Src/system_stm32f4xx.o
                0x0000000008009fb0                AHBPrescTable
 .rodata.APBPrescTable
                0x0000000008009fc0        0x8 Core/Src/system_stm32f4xx.o
                0x0000000008009fc0                APBPrescTable
                0x0000000008009fc8                . = ALIGN (0x4)

.ARM.extab      0x0000000008009fc8        0x0
                0x0000000008009fc8                . = ALIGN (0x4)
 *(.ARM.extab* .gnu.linkonce.armextab.*)
                0x0000000008009fc8                . = ALIGN (0x4)

.ARM            0x0000000008009fc8        0x8
                0x0000000008009fc8                . = ALIGN (0x4)
                0x0000000008009fc8                __exidx_start = .
 *(.ARM.exidx*)
 .ARM.exidx     0x0000000008009fc8        0x8 c:/st/stm32cubeide_1.5.0/stm32cubeide/plugins/com.st.stm32cube.ide.mcu.externaltools.gnu-tools-for-stm32.7-2018-q2-update.win32_1.5.0.202011040924/tools/bin/../lib/gcc/arm-none-eabi/7.3.1/thumb/v7e-m/fpv4-sp/hard\libgcc.a(_udivmoddi4.o)
                0x0000000008009fd0                __exidx_end = .
                0x0000000008009fd0                . = ALIGN (0x4)

.rel.dyn        0x0000000008009fd0        0x0
 .rel.iplt      0x0000000008009fd0        0x0 c:/st/stm32cubeide_1.5.0/stm32cubeide/plugins/com.st.stm32cube.ide.mcu.externaltools.gnu-tools-for-stm32.7-2018-q2-update.win32_1.5.0.202011040924/tools/bin/../lib/gcc/arm-none-eabi/7.3.1/thumb/v7e-m/fpv4-sp/hard/crtbegin.o

.preinit_array  0x0000000008009fd0        0x0
                0x0000000008009fd0                . = ALIGN (0x4)
                0x0000000008009fd0                PROVIDE (__preinit_array_start = .)
 *(.preinit_array*)
                0x0000000008009fd0                PROVIDE (__preinit_array_end = .)
                0x0000000008009fd0                . = ALIGN (0x4)

.init_array     0x0000000008009fd0        0x4
                0x0000000008009fd0                . = ALIGN (0x4)
                0x0000000008009fd0                PROVIDE (__init_array_start = .)
 *(SORT_BY_NAME(.init_array.*))
 *(.init_array*)
 .init_array    0x0000000008009fd0        0x4 c:/st/stm32cubeide_1.5.0/stm32cubeide/plugins/com.st.stm32cube.ide.mcu.externaltools.gnu-tools-for-stm32.7-2018-q2-update.win32_1.5.0.202011040924/tools/bin/../lib/gcc/arm-none-eabi/7.3.1/thumb/v7e-m/fpv4-sp/hard/crtbegin.o
                0x0000000008009fd4                PROVIDE (__init_array_end = .)
                0x0000000008009fd4                . = ALIGN (0x4)

.fini_array     0x0000000008009fd4        0x4
                0x0000000008009fd4                . = ALIGN (0x4)
                [!provide]                        PROVIDE (__fini_array_start = .)
 *(SORT_BY_NAME(.fini_array.*))
 *(.fini_array*)
 .fini_array    0x0000000008009fd4        0x4 c:/st/stm32cubeide_1.5.0/stm32cubeide/plugins/com.st.stm32cube.ide.mcu.externaltools.gnu-tools-for-stm32.7-2018-q2-update.win32_1.5.0.202011040924/tools/bin/../lib/gcc/arm-none-eabi/7.3.1/thumb/v7e-m/fpv4-sp/hard/crtbegin.o
                [!provide]                        PROVIDE (__fini_array_end = .)
                0x0000000008009fd8                . = ALIGN (0x4)
                0x0000000008009fd8                _sidata = LOADADDR (.data)

.data           0x0000000020000000       0x14 load address 0x0000000008009fd8
                0x0000000020000000                . = ALIGN (0x4)
                0x0000000020000000                _sdata = .
 *(.data)
 *(.data*)
 .data.size     0x0000000020000000        0x1 Core/Src/GFX_BW.o
                0x0000000020000000                size
 *fill*         0x0000000020000001        0x3 
 .data.SystemCoreClock
                0x0000000020000004        0x4 Core/Src/system_stm32f4xx.o
                0x0000000020000004                SystemCoreClock
 .data.uwTickPrio
                0x0000000020000008        0x4 Drivers/STM32F4xx_HAL_Driver/Src/stm32f4xx_hal.o
                0x0000000020000008                uwTickPrio
 .data.uwTickFreq
                0x000000002000000c        0x1 Drivers/STM32F4xx_HAL_Driver/Src/stm32f4xx_hal.o
                0x000000002000000c                uwTickFreq
 *fill*         0x000000002000000d        0x3 
 .data.uxCriticalNesting
                0x0000000020000010        0x4 Middlewares/Third_Party/FreeRTOS/Source/portable/GCC/ARM_CM4F/port.o
 *(.RamFunc)
 *(.RamFunc*)
                0x0000000020000014                . = ALIGN (0x4)
                0x0000000020000014                _edata = .

.igot.plt       0x0000000020000014        0x0 load address 0x0000000008009fec
 .igot.plt      0x0000000020000014        0x0 c:/st/stm32cubeide_1.5.0/stm32cubeide/plugins/com.st.stm32cube.ide.mcu.externaltools.gnu-tools-for-stm32.7-2018-q2-update.win32_1.5.0.202011040924/tools/bin/../lib/gcc/arm-none-eabi/7.3.1/thumb/v7e-m/fpv4-sp/hard/crtbegin.o
                0x0000000020000014                . = ALIGN (0x4)

.bss            0x0000000020000014     0x4e64 load address 0x0000000008009fec
                0x0000000020000014                _sbss = .
                0x0000000020000014                __bss_start__ = _sbss
 *(.bss)
 .bss           0x0000000020000014       0x1c c:/st/stm32cubeide_1.5.0/stm32cubeide/plugins/com.st.stm32cube.ide.mcu.externaltools.gnu-tools-for-stm32.7-2018-q2-update.win32_1.5.0.202011040924/tools/bin/../lib/gcc/arm-none-eabi/7.3.1/thumb/v7e-m/fpv4-sp/hard/crtbegin.o
 *(.bss*)
 .bss.buffer    0x0000000020000030      0x400 Core/Src/SSD1306_OLED.o
 .bss.KernelState
                0x0000000020000430        0x4 Middlewares/Third_Party/FreeRTOS/Source/CMSIS_RTOS_V2/cmsis_os2.o
 .bss.Idle_TCB  0x0000000020000434       0x5c Middlewares/Third_Party/FreeRTOS/Source/CMSIS_RTOS_V2/cmsis_os2.o
 .bss.Idle_Stack
                0x0000000020000490      0x200 Middlewares/Third_Party/FreeRTOS/Source/CMSIS_RTOS_V2/cmsis_os2.o
 .bss.Timer_TCB
                0x0000000020000690       0x5c Middlewares/Third_Party/FreeRTOS/Source/CMSIS_RTOS_V2/cmsis_os2.o
 .bss.Timer_Stack
                0x00000000200006ec      0x400 Middlewares/Third_Party/FreeRTOS/Source/CMSIS_RTOS_V2/cmsis_os2.o
 .bss.pxCurrentTCB
                0x0000000020000aec        0x4 Middlewares/Third_Party/FreeRTOS/Source/tasks.o
                0x0000000020000aec                pxCurrentTCB
 .bss.pxReadyTasksLists
                0x0000000020000af0      0x460 Middlewares/Third_Party/FreeRTOS/Source/tasks.o
 .bss.xDelayedTaskList1
                0x0000000020000f50       0x14 Middlewares/Third_Party/FreeRTOS/Source/tasks.o
 .bss.xDelayedTaskList2
                0x0000000020000f64       0x14 Middlewares/Third_Party/FreeRTOS/Source/tasks.o
 .bss.pxDelayedTaskList
                0x0000000020000f78        0x4 Middlewares/Third_Party/FreeRTOS/Source/tasks.o
 .bss.pxOverflowDelayedTaskList
                0x0000000020000f7c        0x4 Middlewares/Third_Party/FreeRTOS/Source/tasks.o
 .bss.xPendingReadyList
                0x0000000020000f80       0x14 Middlewares/Third_Party/FreeRTOS/Source/tasks.o
 .bss.xTasksWaitingTermination
                0x0000000020000f94       0x14 Middlewares/Third_Party/FreeRTOS/Source/tasks.o
 .bss.uxDeletedTasksWaitingCleanUp
                0x0000000020000fa8        0x4 Middlewares/Third_Party/FreeRTOS/Source/tasks.o
 .bss.xSuspendedTaskList
                0x0000000020000fac       0x14 Middlewares/Third_Party/FreeRTOS/Source/tasks.o
 .bss.uxCurrentNumberOfTasks
                0x0000000020000fc0        0x4 Middlewares/Third_Party/FreeRTOS/Source/tasks.o
 .bss.xTickCount
                0x0000000020000fc4        0x4 Middlewares/Third_Party/FreeRTOS/Source/tasks.o
 .bss.uxTopReadyPriority
                0x0000000020000fc8        0x4 Middlewares/Third_Party/FreeRTOS/Source/tasks.o
 .bss.xSchedulerRunning
                0x0000000020000fcc        0x4 Middlewares/Third_Party/FreeRTOS/Source/tasks.o
 .bss.uxPendedTicks
                0x0000000020000fd0        0x4 Middlewares/Third_Party/FreeRTOS/Source/tasks.o
 .bss.xYieldPending
                0x0000000020000fd4        0x4 Middlewares/Third_Party/FreeRTOS/Source/tasks.o
 .bss.xNumOfOverflows
                0x0000000020000fd8        0x4 Middlewares/Third_Party/FreeRTOS/Source/tasks.o
 .bss.uxTaskNumber
                0x0000000020000fdc        0x4 Middlewares/Third_Party/FreeRTOS/Source/tasks.o
 .bss.xNextTaskUnblockTime
                0x0000000020000fe0        0x4 Middlewares/Third_Party/FreeRTOS/Source/tasks.o
 .bss.xIdleTaskHandle
                0x0000000020000fe4        0x4 Middlewares/Third_Party/FreeRTOS/Source/tasks.o
 .bss.uxSchedulerSuspended
                0x0000000020000fe8        0x4 Middlewares/Third_Party/FreeRTOS/Source/tasks.o
 .bss.xActiveTimerList1
                0x0000000020000fec       0x14 Middlewares/Third_Party/FreeRTOS/Source/timers.o
 .bss.xActiveTimerList2
                0x0000000020001000       0x14 Middlewares/Third_Party/FreeRTOS/Source/timers.o
 .bss.pxCurrentTimerList
                0x0000000020001014        0x4 Middlewares/Third_Party/FreeRTOS/Source/timers.o
 .bss.pxOverflowTimerList
                0x0000000020001018        0x4 Middlewares/Third_Party/FreeRTOS/Source/timers.o
 .bss.xTimerQueue
                0x000000002000101c        0x4 Middlewares/Third_Party/FreeRTOS/Source/timers.o
 .bss.xTimerTaskHandle
                0x0000000020001020        0x4 Middlewares/Third_Party/FreeRTOS/Source/timers.o
 .bss.xLastTime.6741
                0x0000000020001024        0x4 Middlewares/Third_Party/FreeRTOS/Source/timers.o
 .bss.ucStaticTimerQueueStorage.6792
                0x0000000020001028       0xa0 Middlewares/Third_Party/FreeRTOS/Source/timers.o
 .bss.xStaticTimerQueue.6791
                0x00000000200010c8       0x50 Middlewares/Third_Party/FreeRTOS/Source/timers.o
 .bss.ucMaxSysCallPriority
                0x0000000020001118        0x1 Middlewares/Third_Party/FreeRTOS/Source/portable/GCC/ARM_CM4F/port.o
 *fill*         0x0000000020001119        0x3 
 .bss.ulMaxPRIGROUPValue
                0x000000002000111c        0x4 Middlewares/Third_Party/FreeRTOS/Source/portable/GCC/ARM_CM4F/port.o
 .bss.ucHeap    0x0000000020001120     0x3c00 Middlewares/Third_Party/FreeRTOS/Source/portable/MemMang/heap_4.o
 .bss.xStart    0x0000000020004d20        0x8 Middlewares/Third_Party/FreeRTOS/Source/portable/MemMang/heap_4.o
 .bss.pxEnd     0x0000000020004d28        0x4 Middlewares/Third_Party/FreeRTOS/Source/portable/MemMang/heap_4.o
 .bss.xFreeBytesRemaining
                0x0000000020004d2c        0x4 Middlewares/Third_Party/FreeRTOS/Source/portable/MemMang/heap_4.o
 .bss.xMinimumEverFreeBytesRemaining
                0x0000000020004d30        0x4 Middlewares/Third_Party/FreeRTOS/Source/portable/MemMang/heap_4.o
 .bss.xBlockAllocatedBit
                0x0000000020004d34        0x4 Middlewares/Third_Party/FreeRTOS/Source/portable/MemMang/heap_4.o
 *(COMMON)
 COMMON         0x0000000020004d38        0x4 Core/Src/GFX_BW.o
                0x0000000020004d38                font
 COMMON         0x0000000020004d3c        0x4 Core/Src/SSD1306_OLED.o
                0x0000000020004d3c                oled_i2c
 COMMON         0x0000000020004d40       0x20 Core/Src/freertos.o
                0x0000000020004d40                Temperature
                0x0000000020004d44                OledTaskHandle
                0x0000000020004d48                MutexPrintfHandle
                0x0000000020004d4c                MutexI2C1Handle
                0x0000000020004d50                Bmp280TaskHandle
                0x0000000020004d54                MutexBmpDataHandle
                0x0000000020004d58                Pressure
                0x0000000020004d5c                HeartbeatTaskHandle
 COMMON         0x0000000020004d60       0x54 Core/Src/i2c.o
                0x0000000020004d60                hi2c1
 COMMON         0x0000000020004db4       0x40 Core/Src/stm32f4xx_hal_timebase_tim.o
                0x0000000020004db4                htim10
 COMMON         0x0000000020004df4       0x40 Core/Src/usart.o
                0x0000000020004df4                huart2
 COMMON         0x0000000020004e34        0x4 Drivers/STM32F4xx_HAL_Driver/Src/stm32f4xx_hal.o
                0x0000000020004e34                uwTick
 COMMON         0x0000000020004e38       0x40 Middlewares/Third_Party/FreeRTOS/Source/queue.o
                0x0000000020004e38                xQueueRegistry
                0x0000000020004e78                . = ALIGN (0x4)
                0x0000000020004e78                _ebss = .
                0x0000000020004e78                __bss_end__ = _ebss

._user_heap_stack
                0x0000000020004e78      0x600 load address 0x0000000008009fec
                0x0000000020004e78                . = ALIGN (0x8)
                [!provide]                        PROVIDE (end = .)
                0x0000000020004e78                PROVIDE (_end = .)
                0x0000000020005078                . = (. + _Min_Heap_Size)
 *fill*         0x0000000020004e78      0x200 
                0x0000000020005478                . = (. + _Min_Stack_Size)
 *fill*         0x0000000020005078      0x400 
                0x0000000020005478                . = ALIGN (0x8)

/DISCARD/
 libc.a(*)
 libm.a(*)
 libgcc.a(*)

.ARM.attributes
                0x0000000000000000       0x30
 *(.ARM.attributes)
 .ARM.attributes
                0x0000000000000000       0x22 c:/st/stm32cubeide_1.5.0/stm32cubeide/plugins/com.st.stm32cube.ide.mcu.externaltools.gnu-tools-for-stm32.7-2018-q2-update.win32_1.5.0.202011040924/tools/bin/../lib/gcc/arm-none-eabi/7.3.1/thumb/v7e-m/fpv4-sp/hard/crti.o
 .ARM.attributes
                0x0000000000000022       0x34 c:/st/stm32cubeide_1.5.0/stm32cubeide/plugins/com.st.stm32cube.ide.mcu.externaltools.gnu-tools-for-stm32.7-2018-q2-update.win32_1.5.0.202011040924/tools/bin/../lib/gcc/arm-none-eabi/7.3.1/thumb/v7e-m/fpv4-sp/hard/crtbegin.o
 .ARM.attributes
                0x0000000000000056       0x39 Core/Src/GFX_BW.o
 .ARM.attributes
                0x000000000000008f       0x39 Core/Src/SSD1306_OLED.o
 .ARM.attributes
                0x00000000000000c8       0x39 Core/Src/bmp280.o
 .ARM.attributes
                0x0000000000000101       0x39 Core/Src/freertos.o
 .ARM.attributes
                0x000000000000013a       0x39 Core/Src/gpio.o
 .ARM.attributes
                0x0000000000000173       0x39 Core/Src/i2c.o
 .ARM.attributes
                0x00000000000001ac       0x39 Core/Src/main.o
 .ARM.attributes
                0x00000000000001e5       0x39 Core/Src/printf.o
 .ARM.attributes
                0x000000000000021e       0x39 Core/Src/stm32f4xx_hal_msp.o
 .ARM.attributes
                0x0000000000000257       0x39 Core/Src/stm32f4xx_hal_timebase_tim.o
 .ARM.attributes
                0x0000000000000290       0x39 Core/Src/stm32f4xx_it.o
 .ARM.attributes
                0x00000000000002c9       0x39 Core/Src/system_stm32f4xx.o
 .ARM.attributes
                0x0000000000000302       0x39 Core/Src/usart.o
 .ARM.attributes
                0x000000000000033b       0x21 Core/Startup/startup_stm32f411retx.o
 .ARM.attributes
                0x000000000000035c       0x39 Drivers/STM32F4xx_HAL_Driver/Src/stm32f4xx_hal.o
 .ARM.attributes
                0x0000000000000395       0x39 Drivers/STM32F4xx_HAL_Driver/Src/stm32f4xx_hal_cortex.o
 .ARM.attributes
                0x00000000000003ce       0x39 Drivers/STM32F4xx_HAL_Driver/Src/stm32f4xx_hal_gpio.o
 .ARM.attributes
                0x0000000000000407       0x39 Drivers/STM32F4xx_HAL_Driver/Src/stm32f4xx_hal_i2c.o
 .ARM.attributes
                0x0000000000000440       0x39 Drivers/STM32F4xx_HAL_Driver/Src/stm32f4xx_hal_rcc.o
 .ARM.attributes
                0x0000000000000479       0x39 Drivers/STM32F4xx_HAL_Driver/Src/stm32f4xx_hal_tim.o
 .ARM.attributes
                0x00000000000004b2       0x39 Drivers/STM32F4xx_HAL_Driver/Src/stm32f4xx_hal_tim_ex.o
 .ARM.attributes
                0x00000000000004eb       0x39 Drivers/STM32F4xx_HAL_Driver/Src/stm32f4xx_hal_uart.o
 .ARM.attributes
                0x0000000000000524       0x39 Middlewares/Third_Party/FreeRTOS/Source/CMSIS_RTOS_V2/cmsis_os2.o
 .ARM.attributes
                0x000000000000055d       0x39 Middlewares/Third_Party/FreeRTOS/Source/list.o
 .ARM.attributes
                0x0000000000000596       0x39 Middlewares/Third_Party/FreeRTOS/Source/queue.o
 .ARM.attributes
                0x00000000000005cf       0x39 Middlewares/Third_Party/FreeRTOS/Source/tasks.o
 .ARM.attributes
                0x0000000000000608       0x39 Middlewares/Third_Party/FreeRTOS/Source/timers.o
 .ARM.attributes
                0x0000000000000641       0x39 Middlewares/Third_Party/FreeRTOS/Source/portable/GCC/ARM_CM4F/port.o
 .ARM.attributes
                0x000000000000067a       0x39 Middlewares/Third_Party/FreeRTOS/Source/portable/MemMang/heap_4.o
 .ARM.attributes
                0x00000000000006b3       0x34 c:/st/stm32cubeide_1.5.0/stm32cubeide/plugins/com.st.stm32cube.ide.mcu.externaltools.gnu-tools-for-stm32.7-2018-q2-update.win32_1.5.0.202011040924/tools/bin/../lib/gcc/arm-none-eabi/7.3.1/../../../../arm-none-eabi/lib/thumb/v7e-m/fpv4-sp/hard\libc_nano.a(lib_a-init.o)
 .ARM.attributes
                0x00000000000006e7       0x34 c:/st/stm32cubeide_1.5.0/stm32cubeide/plugins/com.st.stm32cube.ide.mcu.externaltools.gnu-tools-for-stm32.7-2018-q2-update.win32_1.5.0.202011040924/tools/bin/../lib/gcc/arm-none-eabi/7.3.1/../../../../arm-none-eabi/lib/thumb/v7e-m/fpv4-sp/hard\libc_nano.a(lib_a-memcpy-stub.o)
 .ARM.attributes
                0x000000000000071b       0x34 c:/st/stm32cubeide_1.5.0/stm32cubeide/plugins/com.st.stm32cube.ide.mcu.externaltools.gnu-tools-for-stm32.7-2018-q2-update.win32_1.5.0.202011040924/tools/bin/../lib/gcc/arm-none-eabi/7.3.1/../../../../arm-none-eabi/lib/thumb/v7e-m/fpv4-sp/hard\libc_nano.a(lib_a-memset.o)
 .ARM.attributes
                0x000000000000074f       0x22 c:/st/stm32cubeide_1.5.0/stm32cubeide/plugins/com.st.stm32cube.ide.mcu.externaltools.gnu-tools-for-stm32.7-2018-q2-update.win32_1.5.0.202011040924/tools/bin/../lib/gcc/arm-none-eabi/7.3.1/thumb/v7e-m/fpv4-sp/hard\libgcc.a(_arm_addsubdf3.o)
 .ARM.attributes
                0x0000000000000771       0x22 c:/st/stm32cubeide_1.5.0/stm32cubeide/plugins/com.st.stm32cube.ide.mcu.externaltools.gnu-tools-for-stm32.7-2018-q2-update.win32_1.5.0.202011040924/tools/bin/../lib/gcc/arm-none-eabi/7.3.1/thumb/v7e-m/fpv4-sp/hard\libgcc.a(_arm_muldivdf3.o)
 .ARM.attributes
                0x0000000000000793       0x22 c:/st/stm32cubeide_1.5.0/stm32cubeide/plugins/com.st.stm32cube.ide.mcu.externaltools.gnu-tools-for-stm32.7-2018-q2-update.win32_1.5.0.202011040924/tools/bin/../lib/gcc/arm-none-eabi/7.3.1/thumb/v7e-m/fpv4-sp/hard\libgcc.a(_arm_cmpdf2.o)
 .ARM.attributes
                0x00000000000007b5       0x22 c:/st/stm32cubeide_1.5.0/stm32cubeide/plugins/com.st.stm32cube.ide.mcu.externaltools.gnu-tools-for-stm32.7-2018-q2-update.win32_1.5.0.202011040924/tools/bin/../lib/gcc/arm-none-eabi/7.3.1/thumb/v7e-m/fpv4-sp/hard\libgcc.a(_arm_fixdfsi.o)
 .ARM.attributes
                0x00000000000007d7       0x22 c:/st/stm32cubeide_1.5.0/stm32cubeide/plugins/com.st.stm32cube.ide.mcu.externaltools.gnu-tools-for-stm32.7-2018-q2-update.win32_1.5.0.202011040924/tools/bin/../lib/gcc/arm-none-eabi/7.3.1/thumb/v7e-m/fpv4-sp/hard\libgcc.a(_arm_fixunsdfsi.o)
 .ARM.attributes
                0x00000000000007f9       0x22 c:/st/stm32cubeide_1.5.0/stm32cubeide/plugins/com.st.stm32cube.ide.mcu.externaltools.gnu-tools-for-stm32.7-2018-q2-update.win32_1.5.0.202011040924/tools/bin/../lib/gcc/arm-none-eabi/7.3.1/thumb/v7e-m/fpv4-sp/hard\libgcc.a(_arm_truncdfsf2.o)
 .ARM.attributes
                0x000000000000081b       0x22 c:/st/stm32cubeide_1.5.0/stm32cubeide/plugins/com.st.stm32cube.ide.mcu.externaltools.gnu-tools-for-stm32.7-2018-q2-update.win32_1.5.0.202011040924/tools/bin/../lib/gcc/arm-none-eabi/7.3.1/thumb/v7e-m/fpv4-sp/hard\libgcc.a(_aeabi_uldivmod.o)
 .ARM.attributes
                0x000000000000083d       0x34 c:/st/stm32cubeide_1.5.0/stm32cubeide/plugins/com.st.stm32cube.ide.mcu.externaltools.gnu-tools-for-stm32.7-2018-q2-update.win32_1.5.0.202011040924/tools/bin/../lib/gcc/arm-none-eabi/7.3.1/thumb/v7e-m/fpv4-sp/hard\libgcc.a(_udivmoddi4.o)
 .ARM.attributes
                0x0000000000000871       0x22 c:/st/stm32cubeide_1.5.0/stm32cubeide/plugins/com.st.stm32cube.ide.mcu.externaltools.gnu-tools-for-stm32.7-2018-q2-update.win32_1.5.0.202011040924/tools/bin/../lib/gcc/arm-none-eabi/7.3.1/thumb/v7e-m/fpv4-sp/hard\libgcc.a(_dvmd_tls.o)
 .ARM.attributes
                0x0000000000000893       0x22 c:/st/stm32cubeide_1.5.0/stm32cubeide/plugins/com.st.stm32cube.ide.mcu.externaltools.gnu-tools-for-stm32.7-2018-q2-update.win32_1.5.0.202011040924/tools/bin/../lib/gcc/arm-none-eabi/7.3.1/thumb/v7e-m/fpv4-sp/hard/crtn.o
OUTPUT(T11_L51_RTOS_SimpleProject.elf elf32-littlearm)

.debug_info     0x0000000000000000    0x1e613
 .debug_info    0x0000000000000000     0x1483 Core/Src/GFX_BW.o
 .debug_info    0x0000000000001483      0xfaa Core/Src/SSD1306_OLED.o
 .debug_info    0x000000000000242d      0xacd Core/Src/bmp280.o
 .debug_info    0x0000000000002efa      0xe64 Core/Src/freertos.o
 .debug_info    0x0000000000003d5e      0x4f2 Core/Src/gpio.o
 .debug_info    0x0000000000004250      0xa08 Core/Src/i2c.o
 .debug_info    0x0000000000004c58      0xef1 Core/Src/main.o
 .debug_info    0x0000000000005b49      0xd40 Core/Src/printf.o
 .debug_info    0x0000000000006889      0x520 Core/Src/stm32f4xx_hal_msp.o
 .debug_info    0x0000000000006da9      0xabf Core/Src/stm32f4xx_hal_timebase_tim.o
 .debug_info    0x0000000000007868      0x6b0 Core/Src/stm32f4xx_it.o
 .debug_info    0x0000000000007f18      0x57e Core/Src/system_stm32f4xx.o
 .debug_info    0x0000000000008496      0x96c Core/Src/usart.o
 .debug_info    0x0000000000008e02       0x22 Core/Startup/startup_stm32f411retx.o
 .debug_info    0x0000000000008e24      0x8d5 Drivers/STM32F4xx_HAL_Driver/Src/stm32f4xx_hal.o
 .debug_info    0x00000000000096f9      0xd98 Drivers/STM32F4xx_HAL_Driver/Src/stm32f4xx_hal_cortex.o
 .debug_info    0x000000000000a491      0x7d7 Drivers/STM32F4xx_HAL_Driver/Src/stm32f4xx_hal_gpio.o
 .debug_info    0x000000000000ac68     0x242b Drivers/STM32F4xx_HAL_Driver/Src/stm32f4xx_hal_i2c.o
 .debug_info    0x000000000000d093      0x92a Drivers/STM32F4xx_HAL_Driver/Src/stm32f4xx_hal_rcc.o
 .debug_info    0x000000000000d9bd     0x24a1 Drivers/STM32F4xx_HAL_Driver/Src/stm32f4xx_hal_tim.o
 .debug_info    0x000000000000fe5e     0x114f Drivers/STM32F4xx_HAL_Driver/Src/stm32f4xx_hal_tim_ex.o
 .debug_info    0x0000000000010fad     0x1244 Drivers/STM32F4xx_HAL_Driver/Src/stm32f4xx_hal_uart.o
 .debug_info    0x00000000000121f1     0x401f Middlewares/Third_Party/FreeRTOS/Source/CMSIS_RTOS_V2/cmsis_os2.o
 .debug_info    0x0000000000016210      0xacb Middlewares/Third_Party/FreeRTOS/Source/list.o
 .debug_info    0x0000000000016cdb     0x239c Middlewares/Third_Party/FreeRTOS/Source/queue.o
 .debug_info    0x0000000000019077     0x29c5 Middlewares/Third_Party/FreeRTOS/Source/tasks.o
 .debug_info    0x000000000001ba3c     0x1aba Middlewares/Third_Party/FreeRTOS/Source/timers.o
 .debug_info    0x000000000001d4f6      0x533 Middlewares/Third_Party/FreeRTOS/Source/portable/GCC/ARM_CM4F/port.o
 .debug_info    0x000000000001da29      0xbea Middlewares/Third_Party/FreeRTOS/Source/portable/MemMang/heap_4.o

.debug_abbrev   0x0000000000000000     0x3bac
 .debug_abbrev  0x0000000000000000      0x29a Core/Src/GFX_BW.o
 .debug_abbrev  0x000000000000029a      0x235 Core/Src/SSD1306_OLED.o
 .debug_abbrev  0x00000000000004cf      0x1b4 Core/Src/bmp280.o
 .debug_abbrev  0x0000000000000683      0x1cb Core/Src/freertos.o
 .debug_abbrev  0x000000000000084e      0x134 Core/Src/gpio.o
 .debug_abbrev  0x0000000000000982      0x199 Core/Src/i2c.o
 .debug_abbrev  0x0000000000000b1b      0x1d7 Core/Src/main.o
 .debug_abbrev  0x0000000000000cf2      0x206 Core/Src/printf.o
 .debug_abbrev  0x0000000000000ef8      0x112 Core/Src/stm32f4xx_hal_msp.o
 .debug_abbrev  0x000000000000100a      0x1ac Core/Src/stm32f4xx_hal_timebase_tim.o
 .debug_abbrev  0x00000000000011b6      0x169 Core/Src/stm32f4xx_it.o
 .debug_abbrev  0x000000000000131f      0x12b Core/Src/system_stm32f4xx.o
 .debug_abbrev  0x000000000000144a      0x199 Core/Src/usart.o
 .debug_abbrev  0x00000000000015e3       0x12 Core/Startup/startup_stm32f411retx.o
 .debug_abbrev  0x00000000000015f5      0x1f2 Drivers/STM32F4xx_HAL_Driver/Src/stm32f4xx_hal.o
 .debug_abbrev  0x00000000000017e7      0x2fa Drivers/STM32F4xx_HAL_Driver/Src/stm32f4xx_hal_cortex.o
 .debug_abbrev  0x0000000000001ae1      0x1c9 Drivers/STM32F4xx_HAL_Driver/Src/stm32f4xx_hal_gpio.o
 .debug_abbrev  0x0000000000001caa      0x263 Drivers/STM32F4xx_HAL_Driver/Src/stm32f4xx_hal_i2c.o
 .debug_abbrev  0x0000000000001f0d      0x245 Drivers/STM32F4xx_HAL_Driver/Src/stm32f4xx_hal_rcc.o
 .debug_abbrev  0x0000000000002152      0x23f Drivers/STM32F4xx_HAL_Driver/Src/stm32f4xx_hal_tim.o
 .debug_abbrev  0x0000000000002391      0x22d Drivers/STM32F4xx_HAL_Driver/Src/stm32f4xx_hal_tim_ex.o
 .debug_abbrev  0x00000000000025be      0x251 Drivers/STM32F4xx_HAL_Driver/Src/stm32f4xx_hal_uart.o
 .debug_abbrev  0x000000000000280f      0x3c3 Middlewares/Third_Party/FreeRTOS/Source/CMSIS_RTOS_V2/cmsis_os2.o
 .debug_abbrev  0x0000000000002bd2      0x1cf Middlewares/Third_Party/FreeRTOS/Source/list.o
 .debug_abbrev  0x0000000000002da1      0x336 Middlewares/Third_Party/FreeRTOS/Source/queue.o
 .debug_abbrev  0x00000000000030d7      0x350 Middlewares/Third_Party/FreeRTOS/Source/tasks.o
 .debug_abbrev  0x0000000000003427      0x2d7 Middlewares/Third_Party/FreeRTOS/Source/timers.o
 .debug_abbrev  0x00000000000036fe      0x210 Middlewares/Third_Party/FreeRTOS/Source/portable/GCC/ARM_CM4F/port.o
 .debug_abbrev  0x000000000000390e      0x29e Middlewares/Third_Party/FreeRTOS/Source/portable/MemMang/heap_4.o

.debug_aranges  0x0000000000000000     0x17e8
 .debug_aranges
                0x0000000000000000       0xc8 Core/Src/GFX_BW.o
 .debug_aranges
                0x00000000000000c8       0x48 Core/Src/SSD1306_OLED.o
 .debug_aranges
                0x0000000000000110       0x78 Core/Src/bmp280.o
 .debug_aranges
                0x0000000000000188       0x40 Core/Src/freertos.o
 .debug_aranges
                0x00000000000001c8       0x20 Core/Src/gpio.o
 .debug_aranges
                0x00000000000001e8       0x30 Core/Src/i2c.o
 .debug_aranges
                0x0000000000000218       0x38 Core/Src/main.o
 .debug_aranges
                0x0000000000000250       0xb8 Core/Src/printf.o
 .debug_aranges
                0x0000000000000308       0x20 Core/Src/stm32f4xx_hal_msp.o
 .debug_aranges
                0x0000000000000328       0x30 Core/Src/stm32f4xx_hal_timebase_tim.o
 .debug_aranges
                0x0000000000000358       0x50 Core/Src/stm32f4xx_it.o
 .debug_aranges
                0x00000000000003a8       0x28 Core/Src/system_stm32f4xx.o
 .debug_aranges
                0x00000000000003d0       0x30 Core/Src/usart.o
 .debug_aranges
                0x0000000000000400       0x28 Core/Startup/startup_stm32f411retx.o
 .debug_aranges
                0x0000000000000428       0xf0 Drivers/STM32F4xx_HAL_Driver/Src/stm32f4xx_hal.o
 .debug_aranges
                0x0000000000000518      0x118 Drivers/STM32F4xx_HAL_Driver/Src/stm32f4xx_hal_cortex.o
 .debug_aranges
                0x0000000000000630       0x58 Drivers/STM32F4xx_HAL_Driver/Src/stm32f4xx_hal_gpio.o
 .debug_aranges
                0x0000000000000688      0x2a0 Drivers/STM32F4xx_HAL_Driver/Src/stm32f4xx_hal_i2c.o
 .debug_aranges
                0x0000000000000928       0x88 Drivers/STM32F4xx_HAL_Driver/Src/stm32f4xx_hal_rcc.o
 .debug_aranges
                0x00000000000009b0      0x3a8 Drivers/STM32F4xx_HAL_Driver/Src/stm32f4xx_hal_tim.o
 .debug_aranges
                0x0000000000000d58      0x150 Drivers/STM32F4xx_HAL_Driver/Src/stm32f4xx_hal_tim_ex.o
 .debug_aranges
                0x0000000000000ea8      0x1d0 Drivers/STM32F4xx_HAL_Driver/Src/stm32f4xx_hal_uart.o
 .debug_aranges
                0x0000000000001078      0x228 Middlewares/Third_Party/FreeRTOS/Source/CMSIS_RTOS_V2/cmsis_os2.o
 .debug_aranges
                0x00000000000012a0       0x40 Middlewares/Third_Party/FreeRTOS/Source/list.o
 .debug_aranges
                0x00000000000012e0      0x158 Middlewares/Third_Party/FreeRTOS/Source/queue.o
 .debug_aranges
                0x0000000000001438      0x1f8 Middlewares/Third_Party/FreeRTOS/Source/tasks.o
 .debug_aranges
                0x0000000000001630       0xe8 Middlewares/Third_Party/FreeRTOS/Source/timers.o
 .debug_aranges
                0x0000000000001718       0x80 Middlewares/Third_Party/FreeRTOS/Source/portable/GCC/ARM_CM4F/port.o
 .debug_aranges
                0x0000000000001798       0x50 Middlewares/Third_Party/FreeRTOS/Source/portable/MemMang/heap_4.o

.debug_ranges   0x0000000000000000     0x1648
 .debug_ranges  0x0000000000000000       0xb8 Core/Src/GFX_BW.o
 .debug_ranges  0x00000000000000b8       0x38 Core/Src/SSD1306_OLED.o
 .debug_ranges  0x00000000000000f0       0x68 Core/Src/bmp280.o
 .debug_ranges  0x0000000000000158       0x30 Core/Src/freertos.o
 .debug_ranges  0x0000000000000188       0x10 Core/Src/gpio.o
 .debug_ranges  0x0000000000000198       0x20 Core/Src/i2c.o
 .debug_ranges  0x00000000000001b8       0x28 Core/Src/main.o
 .debug_ranges  0x00000000000001e0       0xa8 Core/Src/printf.o
 .debug_ranges  0x0000000000000288       0x10 Core/Src/stm32f4xx_hal_msp.o
 .debug_ranges  0x0000000000000298       0x20 Core/Src/stm32f4xx_hal_timebase_tim.o
 .debug_ranges  0x00000000000002b8       0x40 Core/Src/stm32f4xx_it.o
 .debug_ranges  0x00000000000002f8       0x18 Core/Src/system_stm32f4xx.o
 .debug_ranges  0x0000000000000310       0x20 Core/Src/usart.o
 .debug_ranges  0x0000000000000330       0x20 Core/Startup/startup_stm32f411retx.o
 .debug_ranges  0x0000000000000350       0xe0 Drivers/STM32F4xx_HAL_Driver/Src/stm32f4xx_hal.o
 .debug_ranges  0x0000000000000430      0x108 Drivers/STM32F4xx_HAL_Driver/Src/stm32f4xx_hal_cortex.o
 .debug_ranges  0x0000000000000538       0x48 Drivers/STM32F4xx_HAL_Driver/Src/stm32f4xx_hal_gpio.o
 .debug_ranges  0x0000000000000580      0x2b8 Drivers/STM32F4xx_HAL_Driver/Src/stm32f4xx_hal_i2c.o
 .debug_ranges  0x0000000000000838       0x78 Drivers/STM32F4xx_HAL_Driver/Src/stm32f4xx_hal_rcc.o
 .debug_ranges  0x00000000000008b0      0x398 Drivers/STM32F4xx_HAL_Driver/Src/stm32f4xx_hal_tim.o
 .debug_ranges  0x0000000000000c48      0x140 Drivers/STM32F4xx_HAL_Driver/Src/stm32f4xx_hal_tim_ex.o
 .debug_ranges  0x0000000000000d88      0x1c0 Drivers/STM32F4xx_HAL_Driver/Src/stm32f4xx_hal_uart.o
 .debug_ranges  0x0000000000000f48      0x218 Middlewares/Third_Party/FreeRTOS/Source/CMSIS_RTOS_V2/cmsis_os2.o
 .debug_ranges  0x0000000000001160       0x30 Middlewares/Third_Party/FreeRTOS/Source/list.o
 .debug_ranges  0x0000000000001190      0x148 Middlewares/Third_Party/FreeRTOS/Source/queue.o
 .debug_ranges  0x00000000000012d8      0x1e8 Middlewares/Third_Party/FreeRTOS/Source/tasks.o
 .debug_ranges  0x00000000000014c0       0xd8 Middlewares/Third_Party/FreeRTOS/Source/timers.o
 .debug_ranges  0x0000000000001598       0x70 Middlewares/Third_Party/FreeRTOS/Source/portable/GCC/ARM_CM4F/port.o
 .debug_ranges  0x0000000000001608       0x40 Middlewares/Third_Party/FreeRTOS/Source/portable/MemMang/heap_4.o

.debug_macro    0x0000000000000000    0x1990d
 .debug_macro   0x0000000000000000      0x2cd Core/Src/GFX_BW.o
 .debug_macro   0x00000000000002cd      0xa5a Core/Src/GFX_BW.o
 .debug_macro   0x0000000000000d27      0x29a Core/Src/GFX_BW.o
 .debug_macro   0x0000000000000fc1       0x2e Core/Src/GFX_BW.o
 .debug_macro   0x0000000000000fef       0x28 Core/Src/GFX_BW.o
 .debug_macro   0x0000000000001017       0x22 Core/Src/GFX_BW.o
 .debug_macro   0x0000000000001039       0x8e Core/Src/GFX_BW.o
 .debug_macro   0x00000000000010c7       0x51 Core/Src/GFX_BW.o
 .debug_macro   0x0000000000001118       0xef Core/Src/GFX_BW.o
 .debug_macro   0x0000000000001207       0x6a Core/Src/GFX_BW.o
 .debug_macro   0x0000000000001271      0x1df Core/Src/GFX_BW.o
 .debug_macro   0x0000000000001450       0x1c Core/Src/GFX_BW.o
 .debug_macro   0x000000000000146c       0x22 Core/Src/GFX_BW.o
 .debug_macro   0x000000000000148e       0xdf Core/Src/GFX_BW.o
 .debug_macro   0x000000000000156d     0x102d Core/Src/GFX_BW.o
 .debug_macro   0x000000000000259a      0x11f Core/Src/GFX_BW.o
 .debug_macro   0x00000000000026b9     0xb937 Core/Src/GFX_BW.o
 .debug_macro   0x000000000000dff0       0x43 Core/Src/GFX_BW.o
 .debug_macro   0x000000000000e033     0x3659 Core/Src/GFX_BW.o
 .debug_macro   0x000000000001168c      0x174 Core/Src/GFX_BW.o
 .debug_macro   0x0000000000011800       0x5a Core/Src/GFX_BW.o
 .debug_macro   0x000000000001185a      0x447 Core/Src/GFX_BW.o
 .debug_macro   0x0000000000011ca1      0x9fe Core/Src/GFX_BW.o
 .debug_macro   0x000000000001269f      0x117 Core/Src/GFX_BW.o
 .debug_macro   0x00000000000127b6      0x11b Core/Src/GFX_BW.o
 .debug_macro   0x00000000000128d1       0x27 Core/Src/GFX_BW.o
 .debug_macro   0x00000000000128f8      0x15f Core/Src/GFX_BW.o
 .debug_macro   0x0000000000012a57      0x287 Core/Src/GFX_BW.o
 .debug_macro   0x0000000000012cde       0x5f Core/Src/GFX_BW.o
 .debug_macro   0x0000000000012d3d      0x236 Core/Src/GFX_BW.o
 .debug_macro   0x0000000000012f73      0x132 Core/Src/GFX_BW.o
 .debug_macro   0x00000000000130a5      0x264 Core/Src/GFX_BW.o
 .debug_macro   0x0000000000013309       0x2e Core/Src/GFX_BW.o
 .debug_macro   0x0000000000013337      0x1b5 Core/Src/GFX_BW.o
 .debug_macro   0x00000000000134ec       0x22 Core/Src/GFX_BW.o
 .debug_macro   0x000000000001350e       0xd6 Core/Src/GFX_BW.o
 .debug_macro   0x00000000000135e4      0x11a Core/Src/GFX_BW.o
 .debug_macro   0x00000000000136fe       0x85 Core/Src/GFX_BW.o
 .debug_macro   0x0000000000013783       0x89 Core/Src/GFX_BW.o
 .debug_macro   0x000000000001380c      0x8a0 Core/Src/GFX_BW.o
 .debug_macro   0x00000000000140ac       0x47 Core/Src/GFX_BW.o
 .debug_macro   0x00000000000140f3      0x287 Core/Src/GFX_BW.o
 .debug_macro   0x000000000001437a      0x126 Core/Src/GFX_BW.o
 .debug_macro   0x00000000000144a0       0x58 Core/Src/GFX_BW.o
 .debug_macro   0x00000000000144f8      0x10c Core/Src/GFX_BW.o
 .debug_macro   0x0000000000014604       0x8e Core/Src/GFX_BW.o
 .debug_macro   0x0000000000014692       0x18 Core/Src/GFX_BW.o
 .debug_macro   0x00000000000146aa       0x46 Core/Src/GFX_BW.o
 .debug_macro   0x00000000000146f0       0x3c Core/Src/GFX_BW.o
 .debug_macro   0x000000000001472c       0x34 Core/Src/GFX_BW.o
 .debug_macro   0x0000000000014760       0x16 Core/Src/GFX_BW.o
 .debug_macro   0x0000000000014776       0x35 Core/Src/GFX_BW.o
 .debug_macro   0x00000000000147ab       0x52 Core/Src/GFX_BW.o
 .debug_macro   0x00000000000147fd       0x1f Core/Src/GFX_BW.o
 .debug_macro   0x000000000001481c       0x43 Core/Src/GFX_BW.o
 .debug_macro   0x000000000001485f       0x20 Core/Src/GFX_BW.o
 .debug_macro   0x000000000001487f      0x1a3 Core/Src/GFX_BW.o
 .debug_macro   0x0000000000014a22      0x32a Core/Src/GFX_BW.o
 .debug_macro   0x0000000000014d4c       0x16 Core/Src/GFX_BW.o
 .debug_macro   0x0000000000014d62       0x29 Core/Src/GFX_BW.o
 .debug_macro   0x0000000000014d8b      0x2c0 Core/Src/SSD1306_OLED.o
 .debug_macro   0x000000000001504b       0x10 Core/Src/SSD1306_OLED.o
 .debug_macro   0x000000000001505b       0x20 Core/Src/SSD1306_OLED.o
 .debug_macro   0x000000000001507b      0x1ff Core/Src/bmp280.o
 .debug_macro   0x000000000001527a      0x130 Core/Src/bmp280.o
 .debug_macro   0x00000000000153aa      0x2e2 Core/Src/freertos.o
 .debug_macro   0x000000000001568c      0x137 Core/Src/freertos.o
 .debug_macro   0x00000000000157c3      0x15a Core/Src/freertos.o
 .debug_macro   0x000000000001591d       0xc9 Core/Src/freertos.o
 .debug_macro   0x00000000000159e6       0x1c Core/Src/freertos.o
 .debug_macro   0x0000000000015a02       0x26 Core/Src/freertos.o
 .debug_macro   0x0000000000015a28      0x4b0 Core/Src/freertos.o
 .debug_macro   0x0000000000015ed8       0xb5 Core/Src/freertos.o
 .debug_macro   0x0000000000015f8d       0xaa Core/Src/freertos.o
 .debug_macro   0x0000000000016037       0x6c Core/Src/freertos.o
 .debug_macro   0x00000000000160a3       0x74 Core/Src/freertos.o
 .debug_macro   0x0000000000016117       0xdd Core/Src/freertos.o
 .debug_macro   0x00000000000161f4       0x58 Core/Src/freertos.o
 .debug_macro   0x000000000001624c       0x22 Core/Src/freertos.o
 .debug_macro   0x000000000001626e       0x10 Core/Src/freertos.o
 .debug_macro   0x000000000001627e      0x200 Core/Src/gpio.o
 .debug_macro   0x000000000001647e      0x200 Core/Src/i2c.o
 .debug_macro   0x000000000001667e      0x2a8 Core/Src/main.o
 .debug_macro   0x0000000000016926      0x137 Core/Src/main.o
 .debug_macro   0x0000000000016a5d       0x66 Core/Src/main.o
 .debug_macro   0x0000000000016ac3      0x10e Core/Src/printf.o
 .debug_macro   0x0000000000016bd1       0x22 Core/Src/printf.o
 .debug_macro   0x0000000000016bf3      0x201 Core/Src/printf.o
 .debug_macro   0x0000000000016df4      0x1f6 Core/Src/stm32f4xx_hal_msp.o
 .debug_macro   0x0000000000016fea      0x1e7 Core/Src/stm32f4xx_hal_timebase_tim.o
 .debug_macro   0x00000000000171d1      0x200 Core/Src/stm32f4xx_it.o
 .debug_macro   0x00000000000173d1      0x1ed Core/Src/system_stm32f4xx.o
 .debug_macro   0x00000000000175be      0x200 Core/Src/usart.o
 .debug_macro   0x00000000000177be      0x247 Drivers/STM32F4xx_HAL_Driver/Src/stm32f4xx_hal.o
 .debug_macro   0x0000000000017a05      0x1e7 Drivers/STM32F4xx_HAL_Driver/Src/stm32f4xx_hal_cortex.o
 .debug_macro   0x0000000000017bec      0x21d Drivers/STM32F4xx_HAL_Driver/Src/stm32f4xx_hal_gpio.o
 .debug_macro   0x0000000000017e09      0x22e Drivers/STM32F4xx_HAL_Driver/Src/stm32f4xx_hal_i2c.o
 .debug_macro   0x0000000000018037      0x20b Drivers/STM32F4xx_HAL_Driver/Src/stm32f4xx_hal_rcc.o
 .debug_macro   0x0000000000018242      0x1e8 Drivers/STM32F4xx_HAL_Driver/Src/stm32f4xx_hal_tim.o
 .debug_macro   0x000000000001842a      0x1e7 Drivers/STM32F4xx_HAL_Driver/Src/stm32f4xx_hal_tim_ex.o
 .debug_macro   0x0000000000018611      0x1e8 Drivers/STM32F4xx_HAL_Driver/Src/stm32f4xx_hal_uart.o
 .debug_macro   0x00000000000187f9      0x23a Middlewares/Third_Party/FreeRTOS/Source/CMSIS_RTOS_V2/cmsis_os2.o
 .debug_macro   0x0000000000018a33       0x10 Middlewares/Third_Party/FreeRTOS/Source/CMSIS_RTOS_V2/cmsis_os2.o
 .debug_macro   0x0000000000018a43       0xd3 Middlewares/Third_Party/FreeRTOS/Source/CMSIS_RTOS_V2/cmsis_os2.o
 .debug_macro   0x0000000000018b16       0x91 Middlewares/Third_Party/FreeRTOS/Source/CMSIS_RTOS_V2/cmsis_os2.o
 .debug_macro   0x0000000000018ba7       0x8d Middlewares/Third_Party/FreeRTOS/Source/CMSIS_RTOS_V2/cmsis_os2.o
 .debug_macro   0x0000000000018c34       0x9a Middlewares/Third_Party/FreeRTOS/Source/CMSIS_RTOS_V2/cmsis_os2.o
 .debug_macro   0x0000000000018cce      0x17a Middlewares/Third_Party/FreeRTOS/Source/list.o
 .debug_macro   0x0000000000018e48      0x209 Middlewares/Third_Party/FreeRTOS/Source/queue.o
 .debug_macro   0x0000000000019051       0x16 Middlewares/Third_Party/FreeRTOS/Source/queue.o
 .debug_macro   0x0000000000019067       0x87 Middlewares/Third_Party/FreeRTOS/Source/queue.o
 .debug_macro   0x00000000000190ee      0x272 Middlewares/Third_Party/FreeRTOS/Source/tasks.o
 .debug_macro   0x0000000000019360       0x10 Middlewares/Third_Party/FreeRTOS/Source/tasks.o
 .debug_macro   0x0000000000019370      0x1cf Middlewares/Third_Party/FreeRTOS/Source/timers.o
 .debug_macro   0x000000000001953f       0x97 Middlewares/Third_Party/FreeRTOS/Source/timers.o
 .debug_macro   0x00000000000195d6      0x196 Middlewares/Third_Party/FreeRTOS/Source/portable/GCC/ARM_CM4F/port.o
 .debug_macro   0x000000000001976c      0x1a1 Middlewares/Third_Party/FreeRTOS/Source/portable/MemMang/heap_4.o

.debug_line     0x0000000000000000    0x141ed
 .debug_line    0x0000000000000000      0xb58 Core/Src/GFX_BW.o
 .debug_line    0x0000000000000b58      0x8f1 Core/Src/SSD1306_OLED.o
 .debug_line    0x0000000000001449      0x80f Core/Src/bmp280.o
 .debug_line    0x0000000000001c58      0x9b1 Core/Src/freertos.o
 .debug_line    0x0000000000002609      0x6fb Core/Src/gpio.o
 .debug_line    0x0000000000002d04      0x724 Core/Src/i2c.o
 .debug_line    0x0000000000003428      0x8be Core/Src/main.o
 .debug_line    0x0000000000003ce6      0x959 Core/Src/printf.o
 .debug_line    0x000000000000463f      0x6f3 Core/Src/stm32f4xx_hal_msp.o
 .debug_line    0x0000000000004d32      0x726 Core/Src/stm32f4xx_hal_timebase_tim.o
 .debug_line    0x0000000000005458      0x778 Core/Src/stm32f4xx_it.o
 .debug_line    0x0000000000005bd0      0x70d Core/Src/system_stm32f4xx.o
 .debug_line    0x00000000000062dd      0x726 Core/Src/usart.o
 .debug_line    0x0000000000006a03       0x85 Core/Startup/startup_stm32f411retx.o
 .debug_line    0x0000000000006a88      0x8f7 Drivers/STM32F4xx_HAL_Driver/Src/stm32f4xx_hal.o
 .debug_line    0x000000000000737f      0xa1b Drivers/STM32F4xx_HAL_Driver/Src/stm32f4xx_hal_cortex.o
 .debug_line    0x0000000000007d9a      0x89a Drivers/STM32F4xx_HAL_Driver/Src/stm32f4xx_hal_gpio.o
 .debug_line    0x0000000000008634     0x1ba5 Drivers/STM32F4xx_HAL_Driver/Src/stm32f4xx_hal_i2c.o
 .debug_line    0x000000000000a1d9      0x94f Drivers/STM32F4xx_HAL_Driver/Src/stm32f4xx_hal_rcc.o
 .debug_line    0x000000000000ab28     0x17b4 Drivers/STM32F4xx_HAL_Driver/Src/stm32f4xx_hal_tim.o
 .debug_line    0x000000000000c2dc      0xd02 Drivers/STM32F4xx_HAL_Driver/Src/stm32f4xx_hal_tim_ex.o
 .debug_line    0x000000000000cfde     0x1005 Drivers/STM32F4xx_HAL_Driver/Src/stm32f4xx_hal_uart.o
 .debug_line    0x000000000000dfe3     0x1e20 Middlewares/Third_Party/FreeRTOS/Source/CMSIS_RTOS_V2/cmsis_os2.o
 .debug_line    0x000000000000fe03      0x66c Middlewares/Third_Party/FreeRTOS/Source/list.o
 .debug_line    0x000000000001046f     0x1101 Middlewares/Third_Party/FreeRTOS/Source/queue.o
 .debug_line    0x0000000000011570     0x1409 Middlewares/Third_Party/FreeRTOS/Source/tasks.o
 .debug_line    0x0000000000012979      0xa7f Middlewares/Third_Party/FreeRTOS/Source/timers.o
 .debug_line    0x00000000000133f8      0x6a3 Middlewares/Third_Party/FreeRTOS/Source/portable/GCC/ARM_CM4F/port.o
 .debug_line    0x0000000000013a9b      0x752 Middlewares/Third_Party/FreeRTOS/Source/portable/MemMang/heap_4.o

.debug_str      0x0000000000000000    0x99c83
 .debug_str     0x0000000000000000    0x8a6c1 Core/Src/GFX_BW.o
                                      0x8a9f7 (size before relaxing)
 .debug_str     0x000000000008a6c1      0x568 Core/Src/SSD1306_OLED.o
                                      0x8aa9c (size before relaxing)
 .debug_str     0x000000000008ac29      0x566 Core/Src/bmp280.o
                                      0x87b6e (size before relaxing)
 .debug_str     0x000000000008b18f     0x5115 Core/Src/freertos.o
                                      0x8d246 (size before relaxing)
 .debug_str     0x00000000000902a4      0x188 Core/Src/gpio.o
                                      0x872be (size before relaxing)
 .debug_str     0x000000000009042c       0x71 Core/Src/i2c.o
                                      0x877c3 (size before relaxing)
 .debug_str     0x000000000009049d      0x329 Core/Src/main.o
                                      0x8c405 (size before relaxing)
 .debug_str     0x00000000000907c6      0x997 Core/Src/printf.o
                                       0x4b91 (size before relaxing)
 .debug_str     0x000000000009115d      0x3b8 Core/Src/stm32f4xx_hal_msp.o
                                      0x875b7 (size before relaxing)
 .debug_str     0x0000000000091515       0xab Core/Src/stm32f4xx_hal_timebase_tim.o
                                      0x879a1 (size before relaxing)
 .debug_str     0x00000000000915c0       0xab Core/Src/stm32f4xx_it.o
                                      0x875b1 (size before relaxing)
 .debug_str     0x000000000009166b       0xc4 Core/Src/system_stm32f4xx.o
                                      0x87182 (size before relaxing)
 .debug_str     0x000000000009172f       0x57 Core/Src/usart.o
                                      0x876fe (size before relaxing)
 .debug_str     0x0000000000091786       0x36 Core/Startup/startup_stm32f411retx.o
                                         0x9a (size before relaxing)
 .debug_str     0x00000000000917bc      0x542 Drivers/STM32F4xx_HAL_Driver/Src/stm32f4xx_hal.o
                                      0x87af7 (size before relaxing)
 .debug_str     0x0000000000091cfe      0x389 Drivers/STM32F4xx_HAL_Driver/Src/stm32f4xx_hal_cortex.o
                                      0x878d4 (size before relaxing)
 .debug_str     0x0000000000092087      0x20c Drivers/STM32F4xx_HAL_Driver/Src/stm32f4xx_hal_gpio.o
                                      0x873c1 (size before relaxing)
 .debug_str     0x0000000000092293      0xab6 Drivers/STM32F4xx_HAL_Driver/Src/stm32f4xx_hal_i2c.o
                                      0x880e2 (size before relaxing)
 .debug_str     0x0000000000092d49      0x239 Drivers/STM32F4xx_HAL_Driver/Src/stm32f4xx_hal_rcc.o
                                      0x8756f (size before relaxing)
 .debug_str     0x0000000000092f82      0xd69 Drivers/STM32F4xx_HAL_Driver/Src/stm32f4xx_hal_tim.o
                                      0x8827c (size before relaxing)
 .debug_str     0x0000000000093ceb      0x4ec Drivers/STM32F4xx_HAL_Driver/Src/stm32f4xx_hal_tim_ex.o
                                      0x87a7c (size before relaxing)
 .debug_str     0x00000000000941d7      0x50d Drivers/STM32F4xx_HAL_Driver/Src/stm32f4xx_hal_uart.o
                                      0x879bc (size before relaxing)
 .debug_str     0x00000000000946e4     0x2885 Middlewares/Third_Party/FreeRTOS/Source/CMSIS_RTOS_V2/cmsis_os2.o
                                       0xe37d (size before relaxing)
 .debug_str     0x0000000000096f69      0x12d Middlewares/Third_Party/FreeRTOS/Source/list.o
                                       0xa69e (size before relaxing)
 .debug_str     0x0000000000097096      0x925 Middlewares/Third_Party/FreeRTOS/Source/queue.o
                                       0xbffd (size before relaxing)
 .debug_str     0x00000000000979bb     0x1269 Middlewares/Third_Party/FreeRTOS/Source/tasks.o
                                       0xcb34 (size before relaxing)
 .debug_str     0x0000000000098c24      0x60b Middlewares/Third_Party/FreeRTOS/Source/timers.o
                                       0xc57a (size before relaxing)
 .debug_str     0x000000000009922f      0x803 Middlewares/Third_Party/FreeRTOS/Source/portable/GCC/ARM_CM4F/port.o
                                       0x8467 (size before relaxing)
 .debug_str     0x0000000000099a32      0x251 Middlewares/Third_Party/FreeRTOS/Source/portable/MemMang/heap_4.o
                                       0xae91 (size before relaxing)

.comment        0x0000000000000000       0x7b
 .comment       0x0000000000000000       0x7b Core/Src/GFX_BW.o
                                         0x7c (size before relaxing)
 .comment       0x000000000000007b       0x7c Core/Src/SSD1306_OLED.o
 .comment       0x000000000000007b       0x7c Core/Src/bmp280.o
 .comment       0x000000000000007b       0x7c Core/Src/freertos.o
 .comment       0x000000000000007b       0x7c Core/Src/gpio.o
 .comment       0x000000000000007b       0x7c Core/Src/i2c.o
 .comment       0x000000000000007b       0x7c Core/Src/main.o
 .comment       0x000000000000007b       0x7c Core/Src/printf.o
 .comment       0x000000000000007b       0x7c Core/Src/stm32f4xx_hal_msp.o
 .comment       0x000000000000007b       0x7c Core/Src/stm32f4xx_hal_timebase_tim.o
 .comment       0x000000000000007b       0x7c Core/Src/stm32f4xx_it.o
 .comment       0x000000000000007b       0x7c Core/Src/system_stm32f4xx.o
 .comment       0x000000000000007b       0x7c Core/Src/usart.o
 .comment       0x000000000000007b       0x7c Drivers/STM32F4xx_HAL_Driver/Src/stm32f4xx_hal.o
 .comment       0x000000000000007b       0x7c Drivers/STM32F4xx_HAL_Driver/Src/stm32f4xx_hal_cortex.o
 .comment       0x000000000000007b       0x7c Drivers/STM32F4xx_HAL_Driver/Src/stm32f4xx_hal_gpio.o
 .comment       0x000000000000007b       0x7c Drivers/STM32F4xx_HAL_Driver/Src/stm32f4xx_hal_i2c.o
 .comment       0x000000000000007b       0x7c Drivers/STM32F4xx_HAL_Driver/Src/stm32f4xx_hal_rcc.o
 .comment       0x000000000000007b       0x7c Drivers/STM32F4xx_HAL_Driver/Src/stm32f4xx_hal_tim.o
 .comment       0x000000000000007b       0x7c Drivers/STM32F4xx_HAL_Driver/Src/stm32f4xx_hal_tim_ex.o
 .comment       0x000000000000007b       0x7c Drivers/STM32F4xx_HAL_Driver/Src/stm32f4xx_hal_uart.o
 .comment       0x000000000000007b       0x7c Middlewares/Third_Party/FreeRTOS/Source/CMSIS_RTOS_V2/cmsis_os2.o
 .comment       0x000000000000007b       0x7c Middlewares/Third_Party/FreeRTOS/Source/list.o
 .comment       0x000000000000007b       0x7c Middlewares/Third_Party/FreeRTOS/Source/queue.o
 .comment       0x000000000000007b       0x7c Middlewares/Third_Party/FreeRTOS/Source/tasks.o
 .comment       0x000000000000007b       0x7c Middlewares/Third_Party/FreeRTOS/Source/timers.o
 .comment       0x000000000000007b       0x7c Middlewares/Third_Party/FreeRTOS/Source/portable/GCC/ARM_CM4F/port.o
 .comment       0x000000000000007b       0x7c Middlewares/Third_Party/FreeRTOS/Source/portable/MemMang/heap_4.o

.debug_frame    0x0000000000000000     0x6680
 .debug_frame   0x0000000000000000      0x33c Core/Src/GFX_BW.o
 .debug_frame   0x000000000000033c       0xe4 Core/Src/SSD1306_OLED.o
 .debug_frame   0x0000000000000420      0x1c8 Core/Src/bmp280.o
 .debug_frame   0x00000000000005e8       0xb4 Core/Src/freertos.o
 .debug_frame   0x000000000000069c       0x34 Core/Src/gpio.o
 .debug_frame   0x00000000000006d0       0x74 Core/Src/i2c.o
 .debug_frame   0x0000000000000744       0x8c Core/Src/main.o
 .debug_frame   0x00000000000007d0      0x378 Core/Src/printf.o
 .debug_frame   0x0000000000000b48       0x34 Core/Src/stm32f4xx_hal_msp.o
 .debug_frame   0x0000000000000b7c       0x74 Core/Src/stm32f4xx_hal_timebase_tim.o
 .debug_frame   0x0000000000000bf0       0xc4 Core/Src/stm32f4xx_it.o
 .debug_frame   0x0000000000000cb4       0x58 Core/Src/system_stm32f4xx.o
 .debug_frame   0x0000000000000d0c       0x74 Core/Src/usart.o
 .debug_frame   0x0000000000000d80      0x374 Drivers/STM32F4xx_HAL_Driver/Src/stm32f4xx_hal.o
 .debug_frame   0x00000000000010f4      0x498 Drivers/STM32F4xx_HAL_Driver/Src/stm32f4xx_hal_cortex.o
 .debug_frame   0x000000000000158c      0x14c Drivers/STM32F4xx_HAL_Driver/Src/stm32f4xx_hal_gpio.o
 .debug_frame   0x00000000000016d8      0xc5c Drivers/STM32F4xx_HAL_Driver/Src/stm32f4xx_hal_i2c.o
 .debug_frame   0x0000000000002334      0x1f0 Drivers/STM32F4xx_HAL_Driver/Src/stm32f4xx_hal_rcc.o
 .debug_frame   0x0000000000002524     0x10e8 Drivers/STM32F4xx_HAL_Driver/Src/stm32f4xx_hal_tim.o
 .debug_frame   0x000000000000360c      0x5c0 Drivers/STM32F4xx_HAL_Driver/Src/stm32f4xx_hal_tim_ex.o
 .debug_frame   0x0000000000003bcc      0x844 Drivers/STM32F4xx_HAL_Driver/Src/stm32f4xx_hal_uart.o
 .debug_frame   0x0000000000004410      0x978 Middlewares/Third_Party/FreeRTOS/Source/CMSIS_RTOS_V2/cmsis_os2.o
 .debug_frame   0x0000000000004d88       0xd8 Middlewares/Third_Party/FreeRTOS/Source/list.o
 .debug_frame   0x0000000000004e60      0x5ec Middlewares/Third_Party/FreeRTOS/Source/queue.o
 .debug_frame   0x000000000000544c      0x8a8 Middlewares/Third_Party/FreeRTOS/Source/tasks.o
 .debug_frame   0x0000000000005cf4      0x3dc Middlewares/Third_Party/FreeRTOS/Source/timers.o
 .debug_frame   0x00000000000060d0      0x1a8 Middlewares/Third_Party/FreeRTOS/Source/portable/GCC/ARM_CM4F/port.o
 .debug_frame   0x0000000000006278      0x108 Middlewares/Third_Party/FreeRTOS/Source/portable/MemMang/heap_4.o
 .debug_frame   0x0000000000006380       0x2c c:/st/stm32cubeide_1.5.0/stm32cubeide/plugins/com.st.stm32cube.ide.mcu.externaltools.gnu-tools-for-stm32.7-2018-q2-update.win32_1.5.0.202011040924/tools/bin/../lib/gcc/arm-none-eabi/7.3.1/../../../../arm-none-eabi/lib/thumb/v7e-m/fpv4-sp/hard\libc_nano.a(lib_a-init.o)
 .debug_frame   0x00000000000063ac       0x28 c:/st/stm32cubeide_1.5.0/stm32cubeide/plugins/com.st.stm32cube.ide.mcu.externaltools.gnu-tools-for-stm32.7-2018-q2-update.win32_1.5.0.202011040924/tools/bin/../lib/gcc/arm-none-eabi/7.3.1/../../../../arm-none-eabi/lib/thumb/v7e-m/fpv4-sp/hard\libc_nano.a(lib_a-memcpy-stub.o)
 .debug_frame   0x00000000000063d4       0x20 c:/st/stm32cubeide_1.5.0/stm32cubeide/plugins/com.st.stm32cube.ide.mcu.externaltools.gnu-tools-for-stm32.7-2018-q2-update.win32_1.5.0.202011040924/tools/bin/../lib/gcc/arm-none-eabi/7.3.1/../../../../arm-none-eabi/lib/thumb/v7e-m/fpv4-sp/hard\libc_nano.a(lib_a-memset.o)
 .debug_frame   0x00000000000063f4       0xac c:/st/stm32cubeide_1.5.0/stm32cubeide/plugins/com.st.stm32cube.ide.mcu.externaltools.gnu-tools-for-stm32.7-2018-q2-update.win32_1.5.0.202011040924/tools/bin/../lib/gcc/arm-none-eabi/7.3.1/thumb/v7e-m/fpv4-sp/hard\libgcc.a(_arm_addsubdf3.o)
 .debug_frame   0x00000000000064a0       0x50 c:/st/stm32cubeide_1.5.0/stm32cubeide/plugins/com.st.stm32cube.ide.mcu.externaltools.gnu-tools-for-stm32.7-2018-q2-update.win32_1.5.0.202011040924/tools/bin/../lib/gcc/arm-none-eabi/7.3.1/thumb/v7e-m/fpv4-sp/hard\libgcc.a(_arm_muldivdf3.o)
 .debug_frame   0x00000000000064f0       0xc4 c:/st/stm32cubeide_1.5.0/stm32cubeide/plugins/com.st.stm32cube.ide.mcu.externaltools.gnu-tools-for-stm32.7-2018-q2-update.win32_1.5.0.202011040924/tools/bin/../lib/gcc/arm-none-eabi/7.3.1/thumb/v7e-m/fpv4-sp/hard\libgcc.a(_arm_cmpdf2.o)
 .debug_frame   0x00000000000065b4       0x24 c:/st/stm32cubeide_1.5.0/stm32cubeide/plugins/com.st.stm32cube.ide.mcu.externaltools.gnu-tools-for-stm32.7-2018-q2-update.win32_1.5.0.202011040924/tools/bin/../lib/gcc/arm-none-eabi/7.3.1/thumb/v7e-m/fpv4-sp/hard\libgcc.a(_arm_fixdfsi.o)
 .debug_frame   0x00000000000065d8       0x24 c:/st/stm32cubeide_1.5.0/stm32cubeide/plugins/com.st.stm32cube.ide.mcu.externaltools.gnu-tools-for-stm32.7-2018-q2-update.win32_1.5.0.202011040924/tools/bin/../lib/gcc/arm-none-eabi/7.3.1/thumb/v7e-m/fpv4-sp/hard\libgcc.a(_arm_fixunsdfsi.o)
 .debug_frame   0x00000000000065fc       0x24 c:/st/stm32cubeide_1.5.0/stm32cubeide/plugins/com.st.stm32cube.ide.mcu.externaltools.gnu-tools-for-stm32.7-2018-q2-update.win32_1.5.0.202011040924/tools/bin/../lib/gcc/arm-none-eabi/7.3.1/thumb/v7e-m/fpv4-sp/hard\libgcc.a(_arm_truncdfsf2.o)
 .debug_frame   0x0000000000006620       0x2c c:/st/stm32cubeide_1.5.0/stm32cubeide/plugins/com.st.stm32cube.ide.mcu.externaltools.gnu-tools-for-stm32.7-2018-q2-update.win32_1.5.0.202011040924/tools/bin/../lib/gcc/arm-none-eabi/7.3.1/thumb/v7e-m/fpv4-sp/hard\libgcc.a(_aeabi_uldivmod.o)
 .debug_frame   0x000000000000664c       0x34 c:/st/stm32cubeide_1.5.0/stm32cubeide/plugins/com.st.stm32cube.ide.mcu.externaltools.gnu-tools-for-stm32.7-2018-q2-update.win32_1.5.0.202011040924/tools/bin/../lib/gcc/arm-none-eabi/7.3.1/thumb/v7e-m/fpv4-sp/hard\libgcc.a(_udivmoddi4.o)
