
T11_L28_RTOS_SemaphoreBinary_ISR.elf:     file format elf32-littlearm

Sections:
Idx Name          Size      VMA       LMA       File off  Algn
  0 .isr_vector   00000198  08000000  08000000  00010000  2**0
                  CONTENTS, ALLOC, LOAD, READONLY, DATA
  1 .text         00008274  080001a0  080001a0  000101a0  2**4
                  CONTENTS, ALLOC, LOAD, READONLY, CODE
  2 .rodata       00000278  08008418  08008418  00018418  2**3
                  CONTENTS, ALLOC, LOAD, READONLY, DATA
  3 .ARM.extab    00000000  08008690  08008690  00020010  2**0
                  CONTENTS
  4 .ARM          00000008  08008690  08008690  00018690  2**2
                  CONTENTS, ALLOC, LOAD, READONLY, DATA
  5 .preinit_array 00000000  08008698  08008698  00020010  2**0
                  CONTENTS, ALLOC, LOAD, DATA
  6 .init_array   00000004  08008698  08008698  00018698  2**2
                  CONTENTS, ALLOC, LOAD, DATA
  7 .fini_array   00000004  0800869c  0800869c  0001869c  2**2
                  CONTENTS, ALLOC, LOAD, DATA
  8 .data         00000010  20000000  080086a0  00020000  2**2
                  CONTENTS, ALLOC, LOAD, DATA
  9 .bss          00004a20  20000010  080086b0  00020010  2**2
                  ALLOC
 10 ._user_heap_stack 00000600  20004a30  080086b0  00024a30  2**0
                  ALLOC
 11 .ARM.attributes 00000030  00000000  00000000  00020010  2**0
                  CONTENTS, READONLY
 12 .debug_info   00019aaa  00000000  00000000  00020040  2**0
                  CONTENTS, READONLY, DEBUGGING
 13 .debug_abbrev 00003724  00000000  00000000  00039aea  2**0
                  CONTENTS, READONLY, DEBUGGING
 14 .debug_aranges 000015c0  00000000  00000000  0003d210  2**3
                  CONTENTS, READONLY, DEBUGGING
 15 .debug_ranges 00001418  00000000  00000000  0003e7d0  2**3
                  CONTENTS, READONLY, DEBUGGING
 16 .debug_macro  000184c0  00000000  00000000  0003fbe8  2**0
                  CONTENTS, READONLY, DEBUGGING
 17 .debug_line   0001193a  00000000  00000000  000580a8  2**0
                  CONTENTS, READONLY, DEBUGGING
 18 .debug_str    00096f28  00000000  00000000  000699e2  2**0
                  CONTENTS, READONLY, DEBUGGING
 19 .comment      0000007b  00000000  00000000  0010090a  2**0
                  CONTENTS, READONLY
 20 .debug_frame  00005c34  00000000  00000000  00100988  2**2
                  CONTENTS, READONLY, DEBUGGING

Disassembly of section .text:

080001a0 <__do_global_dtors_aux>:
 80001a0:	b510      	push	{r4, lr}
 80001a2:	4c05      	ldr	r4, [pc, #20]	; (80001b8 <__do_global_dtors_aux+0x18>)
 80001a4:	7823      	ldrb	r3, [r4, #0]
 80001a6:	b933      	cbnz	r3, 80001b6 <__do_global_dtors_aux+0x16>
 80001a8:	4b04      	ldr	r3, [pc, #16]	; (80001bc <__do_global_dtors_aux+0x1c>)
 80001aa:	b113      	cbz	r3, 80001b2 <__do_global_dtors_aux+0x12>
 80001ac:	4804      	ldr	r0, [pc, #16]	; (80001c0 <__do_global_dtors_aux+0x20>)
 80001ae:	f3af 8000 	nop.w
 80001b2:	2301      	movs	r3, #1
 80001b4:	7023      	strb	r3, [r4, #0]
 80001b6:	bd10      	pop	{r4, pc}
 80001b8:	20000010 	.word	0x20000010
 80001bc:	00000000 	.word	0x00000000
 80001c0:	080083fc 	.word	0x080083fc

080001c4 <frame_dummy>:
 80001c4:	b508      	push	{r3, lr}
 80001c6:	4b03      	ldr	r3, [pc, #12]	; (80001d4 <frame_dummy+0x10>)
 80001c8:	b11b      	cbz	r3, 80001d2 <frame_dummy+0xe>
 80001ca:	4903      	ldr	r1, [pc, #12]	; (80001d8 <frame_dummy+0x14>)
 80001cc:	4803      	ldr	r0, [pc, #12]	; (80001dc <frame_dummy+0x18>)
 80001ce:	f3af 8000 	nop.w
 80001d2:	bd08      	pop	{r3, pc}
 80001d4:	00000000 	.word	0x00000000
 80001d8:	20000014 	.word	0x20000014
 80001dc:	080083fc 	.word	0x080083fc

080001e0 <__aeabi_drsub>:
 80001e0:	f081 4100 	eor.w	r1, r1, #2147483648	; 0x80000000
 80001e4:	e002      	b.n	80001ec <__adddf3>
 80001e6:	bf00      	nop

080001e8 <__aeabi_dsub>:
 80001e8:	f083 4300 	eor.w	r3, r3, #2147483648	; 0x80000000

080001ec <__adddf3>:
 80001ec:	b530      	push	{r4, r5, lr}
 80001ee:	ea4f 0441 	mov.w	r4, r1, lsl #1
 80001f2:	ea4f 0543 	mov.w	r5, r3, lsl #1
 80001f6:	ea94 0f05 	teq	r4, r5
 80001fa:	bf08      	it	eq
 80001fc:	ea90 0f02 	teqeq	r0, r2
 8000200:	bf1f      	itttt	ne
 8000202:	ea54 0c00 	orrsne.w	ip, r4, r0
 8000206:	ea55 0c02 	orrsne.w	ip, r5, r2
 800020a:	ea7f 5c64 	mvnsne.w	ip, r4, asr #21
 800020e:	ea7f 5c65 	mvnsne.w	ip, r5, asr #21
 8000212:	f000 80e2 	beq.w	80003da <__adddf3+0x1ee>
 8000216:	ea4f 5454 	mov.w	r4, r4, lsr #21
 800021a:	ebd4 5555 	rsbs	r5, r4, r5, lsr #21
 800021e:	bfb8      	it	lt
 8000220:	426d      	neglt	r5, r5
 8000222:	dd0c      	ble.n	800023e <__adddf3+0x52>
 8000224:	442c      	add	r4, r5
 8000226:	ea80 0202 	eor.w	r2, r0, r2
 800022a:	ea81 0303 	eor.w	r3, r1, r3
 800022e:	ea82 0000 	eor.w	r0, r2, r0
 8000232:	ea83 0101 	eor.w	r1, r3, r1
 8000236:	ea80 0202 	eor.w	r2, r0, r2
 800023a:	ea81 0303 	eor.w	r3, r1, r3
 800023e:	2d36      	cmp	r5, #54	; 0x36
 8000240:	bf88      	it	hi
 8000242:	bd30      	pophi	{r4, r5, pc}
 8000244:	f011 4f00 	tst.w	r1, #2147483648	; 0x80000000
 8000248:	ea4f 3101 	mov.w	r1, r1, lsl #12
 800024c:	f44f 1c80 	mov.w	ip, #1048576	; 0x100000
 8000250:	ea4c 3111 	orr.w	r1, ip, r1, lsr #12
 8000254:	d002      	beq.n	800025c <__adddf3+0x70>
 8000256:	4240      	negs	r0, r0
 8000258:	eb61 0141 	sbc.w	r1, r1, r1, lsl #1
 800025c:	f013 4f00 	tst.w	r3, #2147483648	; 0x80000000
 8000260:	ea4f 3303 	mov.w	r3, r3, lsl #12
 8000264:	ea4c 3313 	orr.w	r3, ip, r3, lsr #12
 8000268:	d002      	beq.n	8000270 <__adddf3+0x84>
 800026a:	4252      	negs	r2, r2
 800026c:	eb63 0343 	sbc.w	r3, r3, r3, lsl #1
 8000270:	ea94 0f05 	teq	r4, r5
 8000274:	f000 80a7 	beq.w	80003c6 <__adddf3+0x1da>
 8000278:	f1a4 0401 	sub.w	r4, r4, #1
 800027c:	f1d5 0e20 	rsbs	lr, r5, #32
 8000280:	db0d      	blt.n	800029e <__adddf3+0xb2>
 8000282:	fa02 fc0e 	lsl.w	ip, r2, lr
 8000286:	fa22 f205 	lsr.w	r2, r2, r5
 800028a:	1880      	adds	r0, r0, r2
 800028c:	f141 0100 	adc.w	r1, r1, #0
 8000290:	fa03 f20e 	lsl.w	r2, r3, lr
 8000294:	1880      	adds	r0, r0, r2
 8000296:	fa43 f305 	asr.w	r3, r3, r5
 800029a:	4159      	adcs	r1, r3
 800029c:	e00e      	b.n	80002bc <__adddf3+0xd0>
 800029e:	f1a5 0520 	sub.w	r5, r5, #32
 80002a2:	f10e 0e20 	add.w	lr, lr, #32
 80002a6:	2a01      	cmp	r2, #1
 80002a8:	fa03 fc0e 	lsl.w	ip, r3, lr
 80002ac:	bf28      	it	cs
 80002ae:	f04c 0c02 	orrcs.w	ip, ip, #2
 80002b2:	fa43 f305 	asr.w	r3, r3, r5
 80002b6:	18c0      	adds	r0, r0, r3
 80002b8:	eb51 71e3 	adcs.w	r1, r1, r3, asr #31
 80002bc:	f001 4500 	and.w	r5, r1, #2147483648	; 0x80000000
 80002c0:	d507      	bpl.n	80002d2 <__adddf3+0xe6>
 80002c2:	f04f 0e00 	mov.w	lr, #0
 80002c6:	f1dc 0c00 	rsbs	ip, ip, #0
 80002ca:	eb7e 0000 	sbcs.w	r0, lr, r0
 80002ce:	eb6e 0101 	sbc.w	r1, lr, r1
 80002d2:	f5b1 1f80 	cmp.w	r1, #1048576	; 0x100000
 80002d6:	d31b      	bcc.n	8000310 <__adddf3+0x124>
 80002d8:	f5b1 1f00 	cmp.w	r1, #2097152	; 0x200000
 80002dc:	d30c      	bcc.n	80002f8 <__adddf3+0x10c>
 80002de:	0849      	lsrs	r1, r1, #1
 80002e0:	ea5f 0030 	movs.w	r0, r0, rrx
 80002e4:	ea4f 0c3c 	mov.w	ip, ip, rrx
 80002e8:	f104 0401 	add.w	r4, r4, #1
 80002ec:	ea4f 5244 	mov.w	r2, r4, lsl #21
 80002f0:	f512 0f80 	cmn.w	r2, #4194304	; 0x400000
 80002f4:	f080 809a 	bcs.w	800042c <__adddf3+0x240>
 80002f8:	f1bc 4f00 	cmp.w	ip, #2147483648	; 0x80000000
 80002fc:	bf08      	it	eq
 80002fe:	ea5f 0c50 	movseq.w	ip, r0, lsr #1
 8000302:	f150 0000 	adcs.w	r0, r0, #0
 8000306:	eb41 5104 	adc.w	r1, r1, r4, lsl #20
 800030a:	ea41 0105 	orr.w	r1, r1, r5
 800030e:	bd30      	pop	{r4, r5, pc}
 8000310:	ea5f 0c4c 	movs.w	ip, ip, lsl #1
 8000314:	4140      	adcs	r0, r0
 8000316:	eb41 0101 	adc.w	r1, r1, r1
 800031a:	f411 1f80 	tst.w	r1, #1048576	; 0x100000
 800031e:	f1a4 0401 	sub.w	r4, r4, #1
 8000322:	d1e9      	bne.n	80002f8 <__adddf3+0x10c>
 8000324:	f091 0f00 	teq	r1, #0
 8000328:	bf04      	itt	eq
 800032a:	4601      	moveq	r1, r0
 800032c:	2000      	moveq	r0, #0
 800032e:	fab1 f381 	clz	r3, r1
 8000332:	bf08      	it	eq
 8000334:	3320      	addeq	r3, #32
 8000336:	f1a3 030b 	sub.w	r3, r3, #11
 800033a:	f1b3 0220 	subs.w	r2, r3, #32
 800033e:	da0c      	bge.n	800035a <__adddf3+0x16e>
 8000340:	320c      	adds	r2, #12
 8000342:	dd08      	ble.n	8000356 <__adddf3+0x16a>
 8000344:	f102 0c14 	add.w	ip, r2, #20
 8000348:	f1c2 020c 	rsb	r2, r2, #12
 800034c:	fa01 f00c 	lsl.w	r0, r1, ip
 8000350:	fa21 f102 	lsr.w	r1, r1, r2
 8000354:	e00c      	b.n	8000370 <__adddf3+0x184>
 8000356:	f102 0214 	add.w	r2, r2, #20
 800035a:	bfd8      	it	le
 800035c:	f1c2 0c20 	rsble	ip, r2, #32
 8000360:	fa01 f102 	lsl.w	r1, r1, r2
 8000364:	fa20 fc0c 	lsr.w	ip, r0, ip
 8000368:	bfdc      	itt	le
 800036a:	ea41 010c 	orrle.w	r1, r1, ip
 800036e:	4090      	lslle	r0, r2
 8000370:	1ae4      	subs	r4, r4, r3
 8000372:	bfa2      	ittt	ge
 8000374:	eb01 5104 	addge.w	r1, r1, r4, lsl #20
 8000378:	4329      	orrge	r1, r5
 800037a:	bd30      	popge	{r4, r5, pc}
 800037c:	ea6f 0404 	mvn.w	r4, r4
 8000380:	3c1f      	subs	r4, #31
 8000382:	da1c      	bge.n	80003be <__adddf3+0x1d2>
 8000384:	340c      	adds	r4, #12
 8000386:	dc0e      	bgt.n	80003a6 <__adddf3+0x1ba>
 8000388:	f104 0414 	add.w	r4, r4, #20
 800038c:	f1c4 0220 	rsb	r2, r4, #32
 8000390:	fa20 f004 	lsr.w	r0, r0, r4
 8000394:	fa01 f302 	lsl.w	r3, r1, r2
 8000398:	ea40 0003 	orr.w	r0, r0, r3
 800039c:	fa21 f304 	lsr.w	r3, r1, r4
 80003a0:	ea45 0103 	orr.w	r1, r5, r3
 80003a4:	bd30      	pop	{r4, r5, pc}
 80003a6:	f1c4 040c 	rsb	r4, r4, #12
 80003aa:	f1c4 0220 	rsb	r2, r4, #32
 80003ae:	fa20 f002 	lsr.w	r0, r0, r2
 80003b2:	fa01 f304 	lsl.w	r3, r1, r4
 80003b6:	ea40 0003 	orr.w	r0, r0, r3
 80003ba:	4629      	mov	r1, r5
 80003bc:	bd30      	pop	{r4, r5, pc}
 80003be:	fa21 f004 	lsr.w	r0, r1, r4
 80003c2:	4629      	mov	r1, r5
 80003c4:	bd30      	pop	{r4, r5, pc}
 80003c6:	f094 0f00 	teq	r4, #0
 80003ca:	f483 1380 	eor.w	r3, r3, #1048576	; 0x100000
 80003ce:	bf06      	itte	eq
 80003d0:	f481 1180 	eoreq.w	r1, r1, #1048576	; 0x100000
 80003d4:	3401      	addeq	r4, #1
 80003d6:	3d01      	subne	r5, #1
 80003d8:	e74e      	b.n	8000278 <__adddf3+0x8c>
 80003da:	ea7f 5c64 	mvns.w	ip, r4, asr #21
 80003de:	bf18      	it	ne
 80003e0:	ea7f 5c65 	mvnsne.w	ip, r5, asr #21
 80003e4:	d029      	beq.n	800043a <__adddf3+0x24e>
 80003e6:	ea94 0f05 	teq	r4, r5
 80003ea:	bf08      	it	eq
 80003ec:	ea90 0f02 	teqeq	r0, r2
 80003f0:	d005      	beq.n	80003fe <__adddf3+0x212>
 80003f2:	ea54 0c00 	orrs.w	ip, r4, r0
 80003f6:	bf04      	itt	eq
 80003f8:	4619      	moveq	r1, r3
 80003fa:	4610      	moveq	r0, r2
 80003fc:	bd30      	pop	{r4, r5, pc}
 80003fe:	ea91 0f03 	teq	r1, r3
 8000402:	bf1e      	ittt	ne
 8000404:	2100      	movne	r1, #0
 8000406:	2000      	movne	r0, #0
 8000408:	bd30      	popne	{r4, r5, pc}
 800040a:	ea5f 5c54 	movs.w	ip, r4, lsr #21
 800040e:	d105      	bne.n	800041c <__adddf3+0x230>
 8000410:	0040      	lsls	r0, r0, #1
 8000412:	4149      	adcs	r1, r1
 8000414:	bf28      	it	cs
 8000416:	f041 4100 	orrcs.w	r1, r1, #2147483648	; 0x80000000
 800041a:	bd30      	pop	{r4, r5, pc}
 800041c:	f514 0480 	adds.w	r4, r4, #4194304	; 0x400000
 8000420:	bf3c      	itt	cc
 8000422:	f501 1180 	addcc.w	r1, r1, #1048576	; 0x100000
 8000426:	bd30      	popcc	{r4, r5, pc}
 8000428:	f001 4500 	and.w	r5, r1, #2147483648	; 0x80000000
 800042c:	f045 41fe 	orr.w	r1, r5, #2130706432	; 0x7f000000
 8000430:	f441 0170 	orr.w	r1, r1, #15728640	; 0xf00000
 8000434:	f04f 0000 	mov.w	r0, #0
 8000438:	bd30      	pop	{r4, r5, pc}
 800043a:	ea7f 5c64 	mvns.w	ip, r4, asr #21
 800043e:	bf1a      	itte	ne
 8000440:	4619      	movne	r1, r3
 8000442:	4610      	movne	r0, r2
 8000444:	ea7f 5c65 	mvnseq.w	ip, r5, asr #21
 8000448:	bf1c      	itt	ne
 800044a:	460b      	movne	r3, r1
 800044c:	4602      	movne	r2, r0
 800044e:	ea50 3401 	orrs.w	r4, r0, r1, lsl #12
 8000452:	bf06      	itte	eq
 8000454:	ea52 3503 	orrseq.w	r5, r2, r3, lsl #12
 8000458:	ea91 0f03 	teqeq	r1, r3
 800045c:	f441 2100 	orrne.w	r1, r1, #524288	; 0x80000
 8000460:	bd30      	pop	{r4, r5, pc}
 8000462:	bf00      	nop

08000464 <__aeabi_ui2d>:
 8000464:	f090 0f00 	teq	r0, #0
 8000468:	bf04      	itt	eq
 800046a:	2100      	moveq	r1, #0
 800046c:	4770      	bxeq	lr
 800046e:	b530      	push	{r4, r5, lr}
 8000470:	f44f 6480 	mov.w	r4, #1024	; 0x400
 8000474:	f104 0432 	add.w	r4, r4, #50	; 0x32
 8000478:	f04f 0500 	mov.w	r5, #0
 800047c:	f04f 0100 	mov.w	r1, #0
 8000480:	e750      	b.n	8000324 <__adddf3+0x138>
 8000482:	bf00      	nop

08000484 <__aeabi_i2d>:
 8000484:	f090 0f00 	teq	r0, #0
 8000488:	bf04      	itt	eq
 800048a:	2100      	moveq	r1, #0
 800048c:	4770      	bxeq	lr
 800048e:	b530      	push	{r4, r5, lr}
 8000490:	f44f 6480 	mov.w	r4, #1024	; 0x400
 8000494:	f104 0432 	add.w	r4, r4, #50	; 0x32
 8000498:	f010 4500 	ands.w	r5, r0, #2147483648	; 0x80000000
 800049c:	bf48      	it	mi
 800049e:	4240      	negmi	r0, r0
 80004a0:	f04f 0100 	mov.w	r1, #0
 80004a4:	e73e      	b.n	8000324 <__adddf3+0x138>
 80004a6:	bf00      	nop

080004a8 <__aeabi_f2d>:
 80004a8:	0042      	lsls	r2, r0, #1
 80004aa:	ea4f 01e2 	mov.w	r1, r2, asr #3
 80004ae:	ea4f 0131 	mov.w	r1, r1, rrx
 80004b2:	ea4f 7002 	mov.w	r0, r2, lsl #28
 80004b6:	bf1f      	itttt	ne
 80004b8:	f012 437f 	andsne.w	r3, r2, #4278190080	; 0xff000000
 80004bc:	f093 4f7f 	teqne	r3, #4278190080	; 0xff000000
 80004c0:	f081 5160 	eorne.w	r1, r1, #939524096	; 0x38000000
 80004c4:	4770      	bxne	lr
 80004c6:	f032 427f 	bics.w	r2, r2, #4278190080	; 0xff000000
 80004ca:	bf08      	it	eq
 80004cc:	4770      	bxeq	lr
 80004ce:	f093 4f7f 	teq	r3, #4278190080	; 0xff000000
 80004d2:	bf04      	itt	eq
 80004d4:	f441 2100 	orreq.w	r1, r1, #524288	; 0x80000
 80004d8:	4770      	bxeq	lr
 80004da:	b530      	push	{r4, r5, lr}
 80004dc:	f44f 7460 	mov.w	r4, #896	; 0x380
 80004e0:	f001 4500 	and.w	r5, r1, #2147483648	; 0x80000000
 80004e4:	f021 4100 	bic.w	r1, r1, #2147483648	; 0x80000000
 80004e8:	e71c      	b.n	8000324 <__adddf3+0x138>
 80004ea:	bf00      	nop

080004ec <__aeabi_ul2d>:
 80004ec:	ea50 0201 	orrs.w	r2, r0, r1
 80004f0:	bf08      	it	eq
 80004f2:	4770      	bxeq	lr
 80004f4:	b530      	push	{r4, r5, lr}
 80004f6:	f04f 0500 	mov.w	r5, #0
 80004fa:	e00a      	b.n	8000512 <__aeabi_l2d+0x16>

080004fc <__aeabi_l2d>:
 80004fc:	ea50 0201 	orrs.w	r2, r0, r1
 8000500:	bf08      	it	eq
 8000502:	4770      	bxeq	lr
 8000504:	b530      	push	{r4, r5, lr}
 8000506:	f011 4500 	ands.w	r5, r1, #2147483648	; 0x80000000
 800050a:	d502      	bpl.n	8000512 <__aeabi_l2d+0x16>
 800050c:	4240      	negs	r0, r0
 800050e:	eb61 0141 	sbc.w	r1, r1, r1, lsl #1
 8000512:	f44f 6480 	mov.w	r4, #1024	; 0x400
 8000516:	f104 0432 	add.w	r4, r4, #50	; 0x32
 800051a:	ea5f 5c91 	movs.w	ip, r1, lsr #22
 800051e:	f43f aed8 	beq.w	80002d2 <__adddf3+0xe6>
 8000522:	f04f 0203 	mov.w	r2, #3
 8000526:	ea5f 0cdc 	movs.w	ip, ip, lsr #3
 800052a:	bf18      	it	ne
 800052c:	3203      	addne	r2, #3
 800052e:	ea5f 0cdc 	movs.w	ip, ip, lsr #3
 8000532:	bf18      	it	ne
 8000534:	3203      	addne	r2, #3
 8000536:	eb02 02dc 	add.w	r2, r2, ip, lsr #3
 800053a:	f1c2 0320 	rsb	r3, r2, #32
 800053e:	fa00 fc03 	lsl.w	ip, r0, r3
 8000542:	fa20 f002 	lsr.w	r0, r0, r2
 8000546:	fa01 fe03 	lsl.w	lr, r1, r3
 800054a:	ea40 000e 	orr.w	r0, r0, lr
 800054e:	fa21 f102 	lsr.w	r1, r1, r2
 8000552:	4414      	add	r4, r2
 8000554:	e6bd      	b.n	80002d2 <__adddf3+0xe6>
 8000556:	bf00      	nop

08000558 <__aeabi_dmul>:
 8000558:	b570      	push	{r4, r5, r6, lr}
 800055a:	f04f 0cff 	mov.w	ip, #255	; 0xff
 800055e:	f44c 6ce0 	orr.w	ip, ip, #1792	; 0x700
 8000562:	ea1c 5411 	ands.w	r4, ip, r1, lsr #20
 8000566:	bf1d      	ittte	ne
 8000568:	ea1c 5513 	andsne.w	r5, ip, r3, lsr #20
 800056c:	ea94 0f0c 	teqne	r4, ip
 8000570:	ea95 0f0c 	teqne	r5, ip
 8000574:	f000 f8de 	bleq	8000734 <__aeabi_dmul+0x1dc>
 8000578:	442c      	add	r4, r5
 800057a:	ea81 0603 	eor.w	r6, r1, r3
 800057e:	ea21 514c 	bic.w	r1, r1, ip, lsl #21
 8000582:	ea23 534c 	bic.w	r3, r3, ip, lsl #21
 8000586:	ea50 3501 	orrs.w	r5, r0, r1, lsl #12
 800058a:	bf18      	it	ne
 800058c:	ea52 3503 	orrsne.w	r5, r2, r3, lsl #12
 8000590:	f441 1180 	orr.w	r1, r1, #1048576	; 0x100000
 8000594:	f443 1380 	orr.w	r3, r3, #1048576	; 0x100000
 8000598:	d038      	beq.n	800060c <__aeabi_dmul+0xb4>
 800059a:	fba0 ce02 	umull	ip, lr, r0, r2
 800059e:	f04f 0500 	mov.w	r5, #0
 80005a2:	fbe1 e502 	umlal	lr, r5, r1, r2
 80005a6:	f006 4200 	and.w	r2, r6, #2147483648	; 0x80000000
 80005aa:	fbe0 e503 	umlal	lr, r5, r0, r3
 80005ae:	f04f 0600 	mov.w	r6, #0
 80005b2:	fbe1 5603 	umlal	r5, r6, r1, r3
 80005b6:	f09c 0f00 	teq	ip, #0
 80005ba:	bf18      	it	ne
 80005bc:	f04e 0e01 	orrne.w	lr, lr, #1
 80005c0:	f1a4 04ff 	sub.w	r4, r4, #255	; 0xff
 80005c4:	f5b6 7f00 	cmp.w	r6, #512	; 0x200
 80005c8:	f564 7440 	sbc.w	r4, r4, #768	; 0x300
 80005cc:	d204      	bcs.n	80005d8 <__aeabi_dmul+0x80>
 80005ce:	ea5f 0e4e 	movs.w	lr, lr, lsl #1
 80005d2:	416d      	adcs	r5, r5
 80005d4:	eb46 0606 	adc.w	r6, r6, r6
 80005d8:	ea42 21c6 	orr.w	r1, r2, r6, lsl #11
 80005dc:	ea41 5155 	orr.w	r1, r1, r5, lsr #21
 80005e0:	ea4f 20c5 	mov.w	r0, r5, lsl #11
 80005e4:	ea40 505e 	orr.w	r0, r0, lr, lsr #21
 80005e8:	ea4f 2ece 	mov.w	lr, lr, lsl #11
 80005ec:	f1b4 0cfd 	subs.w	ip, r4, #253	; 0xfd
 80005f0:	bf88      	it	hi
 80005f2:	f5bc 6fe0 	cmphi.w	ip, #1792	; 0x700
 80005f6:	d81e      	bhi.n	8000636 <__aeabi_dmul+0xde>
 80005f8:	f1be 4f00 	cmp.w	lr, #2147483648	; 0x80000000
 80005fc:	bf08      	it	eq
 80005fe:	ea5f 0e50 	movseq.w	lr, r0, lsr #1
 8000602:	f150 0000 	adcs.w	r0, r0, #0
 8000606:	eb41 5104 	adc.w	r1, r1, r4, lsl #20
 800060a:	bd70      	pop	{r4, r5, r6, pc}
 800060c:	f006 4600 	and.w	r6, r6, #2147483648	; 0x80000000
 8000610:	ea46 0101 	orr.w	r1, r6, r1
 8000614:	ea40 0002 	orr.w	r0, r0, r2
 8000618:	ea81 0103 	eor.w	r1, r1, r3
 800061c:	ebb4 045c 	subs.w	r4, r4, ip, lsr #1
 8000620:	bfc2      	ittt	gt
 8000622:	ebd4 050c 	rsbsgt	r5, r4, ip
 8000626:	ea41 5104 	orrgt.w	r1, r1, r4, lsl #20
 800062a:	bd70      	popgt	{r4, r5, r6, pc}
 800062c:	f441 1180 	orr.w	r1, r1, #1048576	; 0x100000
 8000630:	f04f 0e00 	mov.w	lr, #0
 8000634:	3c01      	subs	r4, #1
 8000636:	f300 80ab 	bgt.w	8000790 <__aeabi_dmul+0x238>
 800063a:	f114 0f36 	cmn.w	r4, #54	; 0x36
 800063e:	bfde      	ittt	le
 8000640:	2000      	movle	r0, #0
 8000642:	f001 4100 	andle.w	r1, r1, #2147483648	; 0x80000000
 8000646:	bd70      	pople	{r4, r5, r6, pc}
 8000648:	f1c4 0400 	rsb	r4, r4, #0
 800064c:	3c20      	subs	r4, #32
 800064e:	da35      	bge.n	80006bc <__aeabi_dmul+0x164>
 8000650:	340c      	adds	r4, #12
 8000652:	dc1b      	bgt.n	800068c <__aeabi_dmul+0x134>
 8000654:	f104 0414 	add.w	r4, r4, #20
 8000658:	f1c4 0520 	rsb	r5, r4, #32
 800065c:	fa00 f305 	lsl.w	r3, r0, r5
 8000660:	fa20 f004 	lsr.w	r0, r0, r4
 8000664:	fa01 f205 	lsl.w	r2, r1, r5
 8000668:	ea40 0002 	orr.w	r0, r0, r2
 800066c:	f001 4200 	and.w	r2, r1, #2147483648	; 0x80000000
 8000670:	f021 4100 	bic.w	r1, r1, #2147483648	; 0x80000000
 8000674:	eb10 70d3 	adds.w	r0, r0, r3, lsr #31
 8000678:	fa21 f604 	lsr.w	r6, r1, r4
 800067c:	eb42 0106 	adc.w	r1, r2, r6
 8000680:	ea5e 0e43 	orrs.w	lr, lr, r3, lsl #1
 8000684:	bf08      	it	eq
 8000686:	ea20 70d3 	biceq.w	r0, r0, r3, lsr #31
 800068a:	bd70      	pop	{r4, r5, r6, pc}
 800068c:	f1c4 040c 	rsb	r4, r4, #12
 8000690:	f1c4 0520 	rsb	r5, r4, #32
 8000694:	fa00 f304 	lsl.w	r3, r0, r4
 8000698:	fa20 f005 	lsr.w	r0, r0, r5
 800069c:	fa01 f204 	lsl.w	r2, r1, r4
 80006a0:	ea40 0002 	orr.w	r0, r0, r2
 80006a4:	f001 4100 	and.w	r1, r1, #2147483648	; 0x80000000
 80006a8:	eb10 70d3 	adds.w	r0, r0, r3, lsr #31
 80006ac:	f141 0100 	adc.w	r1, r1, #0
 80006b0:	ea5e 0e43 	orrs.w	lr, lr, r3, lsl #1
 80006b4:	bf08      	it	eq
 80006b6:	ea20 70d3 	biceq.w	r0, r0, r3, lsr #31
 80006ba:	bd70      	pop	{r4, r5, r6, pc}
 80006bc:	f1c4 0520 	rsb	r5, r4, #32
 80006c0:	fa00 f205 	lsl.w	r2, r0, r5
 80006c4:	ea4e 0e02 	orr.w	lr, lr, r2
 80006c8:	fa20 f304 	lsr.w	r3, r0, r4
 80006cc:	fa01 f205 	lsl.w	r2, r1, r5
 80006d0:	ea43 0302 	orr.w	r3, r3, r2
 80006d4:	fa21 f004 	lsr.w	r0, r1, r4
 80006d8:	f001 4100 	and.w	r1, r1, #2147483648	; 0x80000000
 80006dc:	fa21 f204 	lsr.w	r2, r1, r4
 80006e0:	ea20 0002 	bic.w	r0, r0, r2
 80006e4:	eb00 70d3 	add.w	r0, r0, r3, lsr #31
 80006e8:	ea5e 0e43 	orrs.w	lr, lr, r3, lsl #1
 80006ec:	bf08      	it	eq
 80006ee:	ea20 70d3 	biceq.w	r0, r0, r3, lsr #31
 80006f2:	bd70      	pop	{r4, r5, r6, pc}
 80006f4:	f094 0f00 	teq	r4, #0
 80006f8:	d10f      	bne.n	800071a <__aeabi_dmul+0x1c2>
 80006fa:	f001 4600 	and.w	r6, r1, #2147483648	; 0x80000000
 80006fe:	0040      	lsls	r0, r0, #1
 8000700:	eb41 0101 	adc.w	r1, r1, r1
 8000704:	f411 1f80 	tst.w	r1, #1048576	; 0x100000
 8000708:	bf08      	it	eq
 800070a:	3c01      	subeq	r4, #1
 800070c:	d0f7      	beq.n	80006fe <__aeabi_dmul+0x1a6>
 800070e:	ea41 0106 	orr.w	r1, r1, r6
 8000712:	f095 0f00 	teq	r5, #0
 8000716:	bf18      	it	ne
 8000718:	4770      	bxne	lr
 800071a:	f003 4600 	and.w	r6, r3, #2147483648	; 0x80000000
 800071e:	0052      	lsls	r2, r2, #1
 8000720:	eb43 0303 	adc.w	r3, r3, r3
 8000724:	f413 1f80 	tst.w	r3, #1048576	; 0x100000
 8000728:	bf08      	it	eq
 800072a:	3d01      	subeq	r5, #1
 800072c:	d0f7      	beq.n	800071e <__aeabi_dmul+0x1c6>
 800072e:	ea43 0306 	orr.w	r3, r3, r6
 8000732:	4770      	bx	lr
 8000734:	ea94 0f0c 	teq	r4, ip
 8000738:	ea0c 5513 	and.w	r5, ip, r3, lsr #20
 800073c:	bf18      	it	ne
 800073e:	ea95 0f0c 	teqne	r5, ip
 8000742:	d00c      	beq.n	800075e <__aeabi_dmul+0x206>
 8000744:	ea50 0641 	orrs.w	r6, r0, r1, lsl #1
 8000748:	bf18      	it	ne
 800074a:	ea52 0643 	orrsne.w	r6, r2, r3, lsl #1
 800074e:	d1d1      	bne.n	80006f4 <__aeabi_dmul+0x19c>
 8000750:	ea81 0103 	eor.w	r1, r1, r3
 8000754:	f001 4100 	and.w	r1, r1, #2147483648	; 0x80000000
 8000758:	f04f 0000 	mov.w	r0, #0
 800075c:	bd70      	pop	{r4, r5, r6, pc}
 800075e:	ea50 0641 	orrs.w	r6, r0, r1, lsl #1
 8000762:	bf06      	itte	eq
 8000764:	4610      	moveq	r0, r2
 8000766:	4619      	moveq	r1, r3
 8000768:	ea52 0643 	orrsne.w	r6, r2, r3, lsl #1
 800076c:	d019      	beq.n	80007a2 <__aeabi_dmul+0x24a>
 800076e:	ea94 0f0c 	teq	r4, ip
 8000772:	d102      	bne.n	800077a <__aeabi_dmul+0x222>
 8000774:	ea50 3601 	orrs.w	r6, r0, r1, lsl #12
 8000778:	d113      	bne.n	80007a2 <__aeabi_dmul+0x24a>
 800077a:	ea95 0f0c 	teq	r5, ip
 800077e:	d105      	bne.n	800078c <__aeabi_dmul+0x234>
 8000780:	ea52 3603 	orrs.w	r6, r2, r3, lsl #12
 8000784:	bf1c      	itt	ne
 8000786:	4610      	movne	r0, r2
 8000788:	4619      	movne	r1, r3
 800078a:	d10a      	bne.n	80007a2 <__aeabi_dmul+0x24a>
 800078c:	ea81 0103 	eor.w	r1, r1, r3
 8000790:	f001 4100 	and.w	r1, r1, #2147483648	; 0x80000000
 8000794:	f041 41fe 	orr.w	r1, r1, #2130706432	; 0x7f000000
 8000798:	f441 0170 	orr.w	r1, r1, #15728640	; 0xf00000
 800079c:	f04f 0000 	mov.w	r0, #0
 80007a0:	bd70      	pop	{r4, r5, r6, pc}
 80007a2:	f041 41fe 	orr.w	r1, r1, #2130706432	; 0x7f000000
 80007a6:	f441 0178 	orr.w	r1, r1, #16252928	; 0xf80000
 80007aa:	bd70      	pop	{r4, r5, r6, pc}

080007ac <__aeabi_ddiv>:
 80007ac:	b570      	push	{r4, r5, r6, lr}
 80007ae:	f04f 0cff 	mov.w	ip, #255	; 0xff
 80007b2:	f44c 6ce0 	orr.w	ip, ip, #1792	; 0x700
 80007b6:	ea1c 5411 	ands.w	r4, ip, r1, lsr #20
 80007ba:	bf1d      	ittte	ne
 80007bc:	ea1c 5513 	andsne.w	r5, ip, r3, lsr #20
 80007c0:	ea94 0f0c 	teqne	r4, ip
 80007c4:	ea95 0f0c 	teqne	r5, ip
 80007c8:	f000 f8a7 	bleq	800091a <__aeabi_ddiv+0x16e>
 80007cc:	eba4 0405 	sub.w	r4, r4, r5
 80007d0:	ea81 0e03 	eor.w	lr, r1, r3
 80007d4:	ea52 3503 	orrs.w	r5, r2, r3, lsl #12
 80007d8:	ea4f 3101 	mov.w	r1, r1, lsl #12
 80007dc:	f000 8088 	beq.w	80008f0 <__aeabi_ddiv+0x144>
 80007e0:	ea4f 3303 	mov.w	r3, r3, lsl #12
 80007e4:	f04f 5580 	mov.w	r5, #268435456	; 0x10000000
 80007e8:	ea45 1313 	orr.w	r3, r5, r3, lsr #4
 80007ec:	ea43 6312 	orr.w	r3, r3, r2, lsr #24
 80007f0:	ea4f 2202 	mov.w	r2, r2, lsl #8
 80007f4:	ea45 1511 	orr.w	r5, r5, r1, lsr #4
 80007f8:	ea45 6510 	orr.w	r5, r5, r0, lsr #24
 80007fc:	ea4f 2600 	mov.w	r6, r0, lsl #8
 8000800:	f00e 4100 	and.w	r1, lr, #2147483648	; 0x80000000
 8000804:	429d      	cmp	r5, r3
 8000806:	bf08      	it	eq
 8000808:	4296      	cmpeq	r6, r2
 800080a:	f144 04fd 	adc.w	r4, r4, #253	; 0xfd
 800080e:	f504 7440 	add.w	r4, r4, #768	; 0x300
 8000812:	d202      	bcs.n	800081a <__aeabi_ddiv+0x6e>
 8000814:	085b      	lsrs	r3, r3, #1
 8000816:	ea4f 0232 	mov.w	r2, r2, rrx
 800081a:	1ab6      	subs	r6, r6, r2
 800081c:	eb65 0503 	sbc.w	r5, r5, r3
 8000820:	085b      	lsrs	r3, r3, #1
 8000822:	ea4f 0232 	mov.w	r2, r2, rrx
 8000826:	f44f 1080 	mov.w	r0, #1048576	; 0x100000
 800082a:	f44f 2c00 	mov.w	ip, #524288	; 0x80000
 800082e:	ebb6 0e02 	subs.w	lr, r6, r2
 8000832:	eb75 0e03 	sbcs.w	lr, r5, r3
 8000836:	bf22      	ittt	cs
 8000838:	1ab6      	subcs	r6, r6, r2
 800083a:	4675      	movcs	r5, lr
 800083c:	ea40 000c 	orrcs.w	r0, r0, ip
 8000840:	085b      	lsrs	r3, r3, #1
 8000842:	ea4f 0232 	mov.w	r2, r2, rrx
 8000846:	ebb6 0e02 	subs.w	lr, r6, r2
 800084a:	eb75 0e03 	sbcs.w	lr, r5, r3
 800084e:	bf22      	ittt	cs
 8000850:	1ab6      	subcs	r6, r6, r2
 8000852:	4675      	movcs	r5, lr
 8000854:	ea40 005c 	orrcs.w	r0, r0, ip, lsr #1
 8000858:	085b      	lsrs	r3, r3, #1
 800085a:	ea4f 0232 	mov.w	r2, r2, rrx
 800085e:	ebb6 0e02 	subs.w	lr, r6, r2
 8000862:	eb75 0e03 	sbcs.w	lr, r5, r3
 8000866:	bf22      	ittt	cs
 8000868:	1ab6      	subcs	r6, r6, r2
 800086a:	4675      	movcs	r5, lr
 800086c:	ea40 009c 	orrcs.w	r0, r0, ip, lsr #2
 8000870:	085b      	lsrs	r3, r3, #1
 8000872:	ea4f 0232 	mov.w	r2, r2, rrx
 8000876:	ebb6 0e02 	subs.w	lr, r6, r2
 800087a:	eb75 0e03 	sbcs.w	lr, r5, r3
 800087e:	bf22      	ittt	cs
 8000880:	1ab6      	subcs	r6, r6, r2
 8000882:	4675      	movcs	r5, lr
 8000884:	ea40 00dc 	orrcs.w	r0, r0, ip, lsr #3
 8000888:	ea55 0e06 	orrs.w	lr, r5, r6
 800088c:	d018      	beq.n	80008c0 <__aeabi_ddiv+0x114>
 800088e:	ea4f 1505 	mov.w	r5, r5, lsl #4
 8000892:	ea45 7516 	orr.w	r5, r5, r6, lsr #28
 8000896:	ea4f 1606 	mov.w	r6, r6, lsl #4
 800089a:	ea4f 03c3 	mov.w	r3, r3, lsl #3
 800089e:	ea43 7352 	orr.w	r3, r3, r2, lsr #29
 80008a2:	ea4f 02c2 	mov.w	r2, r2, lsl #3
 80008a6:	ea5f 1c1c 	movs.w	ip, ip, lsr #4
 80008aa:	d1c0      	bne.n	800082e <__aeabi_ddiv+0x82>
 80008ac:	f411 1f80 	tst.w	r1, #1048576	; 0x100000
 80008b0:	d10b      	bne.n	80008ca <__aeabi_ddiv+0x11e>
 80008b2:	ea41 0100 	orr.w	r1, r1, r0
 80008b6:	f04f 0000 	mov.w	r0, #0
 80008ba:	f04f 4c00 	mov.w	ip, #2147483648	; 0x80000000
 80008be:	e7b6      	b.n	800082e <__aeabi_ddiv+0x82>
 80008c0:	f411 1f80 	tst.w	r1, #1048576	; 0x100000
 80008c4:	bf04      	itt	eq
 80008c6:	4301      	orreq	r1, r0
 80008c8:	2000      	moveq	r0, #0
 80008ca:	f1b4 0cfd 	subs.w	ip, r4, #253	; 0xfd
 80008ce:	bf88      	it	hi
 80008d0:	f5bc 6fe0 	cmphi.w	ip, #1792	; 0x700
 80008d4:	f63f aeaf 	bhi.w	8000636 <__aeabi_dmul+0xde>
 80008d8:	ebb5 0c03 	subs.w	ip, r5, r3
 80008dc:	bf04      	itt	eq
 80008de:	ebb6 0c02 	subseq.w	ip, r6, r2
 80008e2:	ea5f 0c50 	movseq.w	ip, r0, lsr #1
 80008e6:	f150 0000 	adcs.w	r0, r0, #0
 80008ea:	eb41 5104 	adc.w	r1, r1, r4, lsl #20
 80008ee:	bd70      	pop	{r4, r5, r6, pc}
 80008f0:	f00e 4e00 	and.w	lr, lr, #2147483648	; 0x80000000
 80008f4:	ea4e 3111 	orr.w	r1, lr, r1, lsr #12
 80008f8:	eb14 045c 	adds.w	r4, r4, ip, lsr #1
 80008fc:	bfc2      	ittt	gt
 80008fe:	ebd4 050c 	rsbsgt	r5, r4, ip
 8000902:	ea41 5104 	orrgt.w	r1, r1, r4, lsl #20
 8000906:	bd70      	popgt	{r4, r5, r6, pc}
 8000908:	f441 1180 	orr.w	r1, r1, #1048576	; 0x100000
 800090c:	f04f 0e00 	mov.w	lr, #0
 8000910:	3c01      	subs	r4, #1
 8000912:	e690      	b.n	8000636 <__aeabi_dmul+0xde>
 8000914:	ea45 0e06 	orr.w	lr, r5, r6
 8000918:	e68d      	b.n	8000636 <__aeabi_dmul+0xde>
 800091a:	ea0c 5513 	and.w	r5, ip, r3, lsr #20
 800091e:	ea94 0f0c 	teq	r4, ip
 8000922:	bf08      	it	eq
 8000924:	ea95 0f0c 	teqeq	r5, ip
 8000928:	f43f af3b 	beq.w	80007a2 <__aeabi_dmul+0x24a>
 800092c:	ea94 0f0c 	teq	r4, ip
 8000930:	d10a      	bne.n	8000948 <__aeabi_ddiv+0x19c>
 8000932:	ea50 3401 	orrs.w	r4, r0, r1, lsl #12
 8000936:	f47f af34 	bne.w	80007a2 <__aeabi_dmul+0x24a>
 800093a:	ea95 0f0c 	teq	r5, ip
 800093e:	f47f af25 	bne.w	800078c <__aeabi_dmul+0x234>
 8000942:	4610      	mov	r0, r2
 8000944:	4619      	mov	r1, r3
 8000946:	e72c      	b.n	80007a2 <__aeabi_dmul+0x24a>
 8000948:	ea95 0f0c 	teq	r5, ip
 800094c:	d106      	bne.n	800095c <__aeabi_ddiv+0x1b0>
 800094e:	ea52 3503 	orrs.w	r5, r2, r3, lsl #12
 8000952:	f43f aefd 	beq.w	8000750 <__aeabi_dmul+0x1f8>
 8000956:	4610      	mov	r0, r2
 8000958:	4619      	mov	r1, r3
 800095a:	e722      	b.n	80007a2 <__aeabi_dmul+0x24a>
 800095c:	ea50 0641 	orrs.w	r6, r0, r1, lsl #1
 8000960:	bf18      	it	ne
 8000962:	ea52 0643 	orrsne.w	r6, r2, r3, lsl #1
 8000966:	f47f aec5 	bne.w	80006f4 <__aeabi_dmul+0x19c>
 800096a:	ea50 0441 	orrs.w	r4, r0, r1, lsl #1
 800096e:	f47f af0d 	bne.w	800078c <__aeabi_dmul+0x234>
 8000972:	ea52 0543 	orrs.w	r5, r2, r3, lsl #1
 8000976:	f47f aeeb 	bne.w	8000750 <__aeabi_dmul+0x1f8>
 800097a:	e712      	b.n	80007a2 <__aeabi_dmul+0x24a>

0800097c <__gedf2>:
 800097c:	f04f 3cff 	mov.w	ip, #4294967295
 8000980:	e006      	b.n	8000990 <__cmpdf2+0x4>
 8000982:	bf00      	nop

08000984 <__ledf2>:
 8000984:	f04f 0c01 	mov.w	ip, #1
 8000988:	e002      	b.n	8000990 <__cmpdf2+0x4>
 800098a:	bf00      	nop

0800098c <__cmpdf2>:
 800098c:	f04f 0c01 	mov.w	ip, #1
 8000990:	f84d cd04 	str.w	ip, [sp, #-4]!
 8000994:	ea4f 0c41 	mov.w	ip, r1, lsl #1
 8000998:	ea7f 5c6c 	mvns.w	ip, ip, asr #21
 800099c:	ea4f 0c43 	mov.w	ip, r3, lsl #1
 80009a0:	bf18      	it	ne
 80009a2:	ea7f 5c6c 	mvnsne.w	ip, ip, asr #21
 80009a6:	d01b      	beq.n	80009e0 <__cmpdf2+0x54>
 80009a8:	b001      	add	sp, #4
 80009aa:	ea50 0c41 	orrs.w	ip, r0, r1, lsl #1
 80009ae:	bf0c      	ite	eq
 80009b0:	ea52 0c43 	orrseq.w	ip, r2, r3, lsl #1
 80009b4:	ea91 0f03 	teqne	r1, r3
 80009b8:	bf02      	ittt	eq
 80009ba:	ea90 0f02 	teqeq	r0, r2
 80009be:	2000      	moveq	r0, #0
 80009c0:	4770      	bxeq	lr
 80009c2:	f110 0f00 	cmn.w	r0, #0
 80009c6:	ea91 0f03 	teq	r1, r3
 80009ca:	bf58      	it	pl
 80009cc:	4299      	cmppl	r1, r3
 80009ce:	bf08      	it	eq
 80009d0:	4290      	cmpeq	r0, r2
 80009d2:	bf2c      	ite	cs
 80009d4:	17d8      	asrcs	r0, r3, #31
 80009d6:	ea6f 70e3 	mvncc.w	r0, r3, asr #31
 80009da:	f040 0001 	orr.w	r0, r0, #1
 80009de:	4770      	bx	lr
 80009e0:	ea4f 0c41 	mov.w	ip, r1, lsl #1
 80009e4:	ea7f 5c6c 	mvns.w	ip, ip, asr #21
 80009e8:	d102      	bne.n	80009f0 <__cmpdf2+0x64>
 80009ea:	ea50 3c01 	orrs.w	ip, r0, r1, lsl #12
 80009ee:	d107      	bne.n	8000a00 <__cmpdf2+0x74>
 80009f0:	ea4f 0c43 	mov.w	ip, r3, lsl #1
 80009f4:	ea7f 5c6c 	mvns.w	ip, ip, asr #21
 80009f8:	d1d6      	bne.n	80009a8 <__cmpdf2+0x1c>
 80009fa:	ea52 3c03 	orrs.w	ip, r2, r3, lsl #12
 80009fe:	d0d3      	beq.n	80009a8 <__cmpdf2+0x1c>
 8000a00:	f85d 0b04 	ldr.w	r0, [sp], #4
 8000a04:	4770      	bx	lr
 8000a06:	bf00      	nop

08000a08 <__aeabi_cdrcmple>:
 8000a08:	4684      	mov	ip, r0
 8000a0a:	4610      	mov	r0, r2
 8000a0c:	4662      	mov	r2, ip
 8000a0e:	468c      	mov	ip, r1
 8000a10:	4619      	mov	r1, r3
 8000a12:	4663      	mov	r3, ip
 8000a14:	e000      	b.n	8000a18 <__aeabi_cdcmpeq>
 8000a16:	bf00      	nop

08000a18 <__aeabi_cdcmpeq>:
 8000a18:	b501      	push	{r0, lr}
 8000a1a:	f7ff ffb7 	bl	800098c <__cmpdf2>
 8000a1e:	2800      	cmp	r0, #0
 8000a20:	bf48      	it	mi
 8000a22:	f110 0f00 	cmnmi.w	r0, #0
 8000a26:	bd01      	pop	{r0, pc}

08000a28 <__aeabi_dcmpeq>:
 8000a28:	f84d ed08 	str.w	lr, [sp, #-8]!
 8000a2c:	f7ff fff4 	bl	8000a18 <__aeabi_cdcmpeq>
 8000a30:	bf0c      	ite	eq
 8000a32:	2001      	moveq	r0, #1
 8000a34:	2000      	movne	r0, #0
 8000a36:	f85d fb08 	ldr.w	pc, [sp], #8
 8000a3a:	bf00      	nop

08000a3c <__aeabi_dcmplt>:
 8000a3c:	f84d ed08 	str.w	lr, [sp, #-8]!
 8000a40:	f7ff ffea 	bl	8000a18 <__aeabi_cdcmpeq>
 8000a44:	bf34      	ite	cc
 8000a46:	2001      	movcc	r0, #1
 8000a48:	2000      	movcs	r0, #0
 8000a4a:	f85d fb08 	ldr.w	pc, [sp], #8
 8000a4e:	bf00      	nop

08000a50 <__aeabi_dcmple>:
 8000a50:	f84d ed08 	str.w	lr, [sp, #-8]!
 8000a54:	f7ff ffe0 	bl	8000a18 <__aeabi_cdcmpeq>
 8000a58:	bf94      	ite	ls
 8000a5a:	2001      	movls	r0, #1
 8000a5c:	2000      	movhi	r0, #0
 8000a5e:	f85d fb08 	ldr.w	pc, [sp], #8
 8000a62:	bf00      	nop

08000a64 <__aeabi_dcmpge>:
 8000a64:	f84d ed08 	str.w	lr, [sp, #-8]!
 8000a68:	f7ff ffce 	bl	8000a08 <__aeabi_cdrcmple>
 8000a6c:	bf94      	ite	ls
 8000a6e:	2001      	movls	r0, #1
 8000a70:	2000      	movhi	r0, #0
 8000a72:	f85d fb08 	ldr.w	pc, [sp], #8
 8000a76:	bf00      	nop

08000a78 <__aeabi_dcmpgt>:
 8000a78:	f84d ed08 	str.w	lr, [sp, #-8]!
 8000a7c:	f7ff ffc4 	bl	8000a08 <__aeabi_cdrcmple>
 8000a80:	bf34      	ite	cc
 8000a82:	2001      	movcc	r0, #1
 8000a84:	2000      	movcs	r0, #0
 8000a86:	f85d fb08 	ldr.w	pc, [sp], #8
 8000a8a:	bf00      	nop

08000a8c <__aeabi_d2iz>:
 8000a8c:	ea4f 0241 	mov.w	r2, r1, lsl #1
 8000a90:	f512 1200 	adds.w	r2, r2, #2097152	; 0x200000
 8000a94:	d215      	bcs.n	8000ac2 <__aeabi_d2iz+0x36>
 8000a96:	d511      	bpl.n	8000abc <__aeabi_d2iz+0x30>
 8000a98:	f46f 7378 	mvn.w	r3, #992	; 0x3e0
 8000a9c:	ebb3 5262 	subs.w	r2, r3, r2, asr #21
 8000aa0:	d912      	bls.n	8000ac8 <__aeabi_d2iz+0x3c>
 8000aa2:	ea4f 23c1 	mov.w	r3, r1, lsl #11
 8000aa6:	f043 4300 	orr.w	r3, r3, #2147483648	; 0x80000000
 8000aaa:	ea43 5350 	orr.w	r3, r3, r0, lsr #21
 8000aae:	f011 4f00 	tst.w	r1, #2147483648	; 0x80000000
 8000ab2:	fa23 f002 	lsr.w	r0, r3, r2
 8000ab6:	bf18      	it	ne
 8000ab8:	4240      	negne	r0, r0
 8000aba:	4770      	bx	lr
 8000abc:	f04f 0000 	mov.w	r0, #0
 8000ac0:	4770      	bx	lr
 8000ac2:	ea50 3001 	orrs.w	r0, r0, r1, lsl #12
 8000ac6:	d105      	bne.n	8000ad4 <__aeabi_d2iz+0x48>
 8000ac8:	f011 4000 	ands.w	r0, r1, #2147483648	; 0x80000000
 8000acc:	bf08      	it	eq
 8000ace:	f06f 4000 	mvneq.w	r0, #2147483648	; 0x80000000
 8000ad2:	4770      	bx	lr
 8000ad4:	f04f 0000 	mov.w	r0, #0
 8000ad8:	4770      	bx	lr
 8000ada:	bf00      	nop

08000adc <__aeabi_d2uiz>:
 8000adc:	004a      	lsls	r2, r1, #1
 8000ade:	d211      	bcs.n	8000b04 <__aeabi_d2uiz+0x28>
 8000ae0:	f512 1200 	adds.w	r2, r2, #2097152	; 0x200000
 8000ae4:	d211      	bcs.n	8000b0a <__aeabi_d2uiz+0x2e>
 8000ae6:	d50d      	bpl.n	8000b04 <__aeabi_d2uiz+0x28>
 8000ae8:	f46f 7378 	mvn.w	r3, #992	; 0x3e0
 8000aec:	ebb3 5262 	subs.w	r2, r3, r2, asr #21
 8000af0:	d40e      	bmi.n	8000b10 <__aeabi_d2uiz+0x34>
 8000af2:	ea4f 23c1 	mov.w	r3, r1, lsl #11
 8000af6:	f043 4300 	orr.w	r3, r3, #2147483648	; 0x80000000
 8000afa:	ea43 5350 	orr.w	r3, r3, r0, lsr #21
 8000afe:	fa23 f002 	lsr.w	r0, r3, r2
 8000b02:	4770      	bx	lr
 8000b04:	f04f 0000 	mov.w	r0, #0
 8000b08:	4770      	bx	lr
 8000b0a:	ea50 3001 	orrs.w	r0, r0, r1, lsl #12
 8000b0e:	d102      	bne.n	8000b16 <__aeabi_d2uiz+0x3a>
 8000b10:	f04f 30ff 	mov.w	r0, #4294967295
 8000b14:	4770      	bx	lr
 8000b16:	f04f 0000 	mov.w	r0, #0
 8000b1a:	4770      	bx	lr

08000b1c <__aeabi_uldivmod>:
 8000b1c:	b953      	cbnz	r3, 8000b34 <__aeabi_uldivmod+0x18>
 8000b1e:	b94a      	cbnz	r2, 8000b34 <__aeabi_uldivmod+0x18>
 8000b20:	2900      	cmp	r1, #0
 8000b22:	bf08      	it	eq
 8000b24:	2800      	cmpeq	r0, #0
 8000b26:	bf1c      	itt	ne
 8000b28:	f04f 31ff 	movne.w	r1, #4294967295
 8000b2c:	f04f 30ff 	movne.w	r0, #4294967295
 8000b30:	f000 b972 	b.w	8000e18 <__aeabi_idiv0>
 8000b34:	f1ad 0c08 	sub.w	ip, sp, #8
 8000b38:	e96d ce04 	strd	ip, lr, [sp, #-16]!
 8000b3c:	f000 f806 	bl	8000b4c <__udivmoddi4>
 8000b40:	f8dd e004 	ldr.w	lr, [sp, #4]
 8000b44:	e9dd 2302 	ldrd	r2, r3, [sp, #8]
 8000b48:	b004      	add	sp, #16
 8000b4a:	4770      	bx	lr

08000b4c <__udivmoddi4>:
 8000b4c:	e92d 47f0 	stmdb	sp!, {r4, r5, r6, r7, r8, r9, sl, lr}
 8000b50:	9e08      	ldr	r6, [sp, #32]
 8000b52:	4604      	mov	r4, r0
 8000b54:	4688      	mov	r8, r1
 8000b56:	2b00      	cmp	r3, #0
 8000b58:	d14b      	bne.n	8000bf2 <__udivmoddi4+0xa6>
 8000b5a:	428a      	cmp	r2, r1
 8000b5c:	4615      	mov	r5, r2
 8000b5e:	d967      	bls.n	8000c30 <__udivmoddi4+0xe4>
 8000b60:	fab2 f282 	clz	r2, r2
 8000b64:	b14a      	cbz	r2, 8000b7a <__udivmoddi4+0x2e>
 8000b66:	f1c2 0720 	rsb	r7, r2, #32
 8000b6a:	fa01 f302 	lsl.w	r3, r1, r2
 8000b6e:	fa20 f707 	lsr.w	r7, r0, r7
 8000b72:	4095      	lsls	r5, r2
 8000b74:	ea47 0803 	orr.w	r8, r7, r3
 8000b78:	4094      	lsls	r4, r2
 8000b7a:	ea4f 4e15 	mov.w	lr, r5, lsr #16
 8000b7e:	0c23      	lsrs	r3, r4, #16
 8000b80:	fbb8 f7fe 	udiv	r7, r8, lr
 8000b84:	fa1f fc85 	uxth.w	ip, r5
 8000b88:	fb0e 8817 	mls	r8, lr, r7, r8
 8000b8c:	ea43 4308 	orr.w	r3, r3, r8, lsl #16
 8000b90:	fb07 f10c 	mul.w	r1, r7, ip
 8000b94:	4299      	cmp	r1, r3
 8000b96:	d909      	bls.n	8000bac <__udivmoddi4+0x60>
 8000b98:	18eb      	adds	r3, r5, r3
 8000b9a:	f107 30ff 	add.w	r0, r7, #4294967295
 8000b9e:	f080 811b 	bcs.w	8000dd8 <__udivmoddi4+0x28c>
 8000ba2:	4299      	cmp	r1, r3
 8000ba4:	f240 8118 	bls.w	8000dd8 <__udivmoddi4+0x28c>
 8000ba8:	3f02      	subs	r7, #2
 8000baa:	442b      	add	r3, r5
 8000bac:	1a5b      	subs	r3, r3, r1
 8000bae:	b2a4      	uxth	r4, r4
 8000bb0:	fbb3 f0fe 	udiv	r0, r3, lr
 8000bb4:	fb0e 3310 	mls	r3, lr, r0, r3
 8000bb8:	ea44 4403 	orr.w	r4, r4, r3, lsl #16
 8000bbc:	fb00 fc0c 	mul.w	ip, r0, ip
 8000bc0:	45a4      	cmp	ip, r4
 8000bc2:	d909      	bls.n	8000bd8 <__udivmoddi4+0x8c>
 8000bc4:	192c      	adds	r4, r5, r4
 8000bc6:	f100 33ff 	add.w	r3, r0, #4294967295
 8000bca:	f080 8107 	bcs.w	8000ddc <__udivmoddi4+0x290>
 8000bce:	45a4      	cmp	ip, r4
 8000bd0:	f240 8104 	bls.w	8000ddc <__udivmoddi4+0x290>
 8000bd4:	3802      	subs	r0, #2
 8000bd6:	442c      	add	r4, r5
 8000bd8:	ea40 4007 	orr.w	r0, r0, r7, lsl #16
 8000bdc:	eba4 040c 	sub.w	r4, r4, ip
 8000be0:	2700      	movs	r7, #0
 8000be2:	b11e      	cbz	r6, 8000bec <__udivmoddi4+0xa0>
 8000be4:	40d4      	lsrs	r4, r2
 8000be6:	2300      	movs	r3, #0
 8000be8:	e9c6 4300 	strd	r4, r3, [r6]
 8000bec:	4639      	mov	r1, r7
 8000bee:	e8bd 87f0 	ldmia.w	sp!, {r4, r5, r6, r7, r8, r9, sl, pc}
 8000bf2:	428b      	cmp	r3, r1
 8000bf4:	d909      	bls.n	8000c0a <__udivmoddi4+0xbe>
 8000bf6:	2e00      	cmp	r6, #0
 8000bf8:	f000 80eb 	beq.w	8000dd2 <__udivmoddi4+0x286>
 8000bfc:	2700      	movs	r7, #0
 8000bfe:	e9c6 0100 	strd	r0, r1, [r6]
 8000c02:	4638      	mov	r0, r7
 8000c04:	4639      	mov	r1, r7
 8000c06:	e8bd 87f0 	ldmia.w	sp!, {r4, r5, r6, r7, r8, r9, sl, pc}
 8000c0a:	fab3 f783 	clz	r7, r3
 8000c0e:	2f00      	cmp	r7, #0
 8000c10:	d147      	bne.n	8000ca2 <__udivmoddi4+0x156>
 8000c12:	428b      	cmp	r3, r1
 8000c14:	d302      	bcc.n	8000c1c <__udivmoddi4+0xd0>
 8000c16:	4282      	cmp	r2, r0
 8000c18:	f200 80fa 	bhi.w	8000e10 <__udivmoddi4+0x2c4>
 8000c1c:	1a84      	subs	r4, r0, r2
 8000c1e:	eb61 0303 	sbc.w	r3, r1, r3
 8000c22:	2001      	movs	r0, #1
 8000c24:	4698      	mov	r8, r3
 8000c26:	2e00      	cmp	r6, #0
 8000c28:	d0e0      	beq.n	8000bec <__udivmoddi4+0xa0>
 8000c2a:	e9c6 4800 	strd	r4, r8, [r6]
 8000c2e:	e7dd      	b.n	8000bec <__udivmoddi4+0xa0>
 8000c30:	b902      	cbnz	r2, 8000c34 <__udivmoddi4+0xe8>
 8000c32:	deff      	udf	#255	; 0xff
 8000c34:	fab2 f282 	clz	r2, r2
 8000c38:	2a00      	cmp	r2, #0
 8000c3a:	f040 808f 	bne.w	8000d5c <__udivmoddi4+0x210>
 8000c3e:	1b49      	subs	r1, r1, r5
 8000c40:	ea4f 4e15 	mov.w	lr, r5, lsr #16
 8000c44:	fa1f f885 	uxth.w	r8, r5
 8000c48:	2701      	movs	r7, #1
 8000c4a:	fbb1 fcfe 	udiv	ip, r1, lr
 8000c4e:	0c23      	lsrs	r3, r4, #16
 8000c50:	fb0e 111c 	mls	r1, lr, ip, r1
 8000c54:	ea43 4301 	orr.w	r3, r3, r1, lsl #16
 8000c58:	fb08 f10c 	mul.w	r1, r8, ip
 8000c5c:	4299      	cmp	r1, r3
 8000c5e:	d907      	bls.n	8000c70 <__udivmoddi4+0x124>
 8000c60:	18eb      	adds	r3, r5, r3
 8000c62:	f10c 30ff 	add.w	r0, ip, #4294967295
 8000c66:	d202      	bcs.n	8000c6e <__udivmoddi4+0x122>
 8000c68:	4299      	cmp	r1, r3
 8000c6a:	f200 80cd 	bhi.w	8000e08 <__udivmoddi4+0x2bc>
 8000c6e:	4684      	mov	ip, r0
 8000c70:	1a59      	subs	r1, r3, r1
 8000c72:	b2a3      	uxth	r3, r4
 8000c74:	fbb1 f0fe 	udiv	r0, r1, lr
 8000c78:	fb0e 1410 	mls	r4, lr, r0, r1
 8000c7c:	ea43 4404 	orr.w	r4, r3, r4, lsl #16
 8000c80:	fb08 f800 	mul.w	r8, r8, r0
 8000c84:	45a0      	cmp	r8, r4
 8000c86:	d907      	bls.n	8000c98 <__udivmoddi4+0x14c>
 8000c88:	192c      	adds	r4, r5, r4
 8000c8a:	f100 33ff 	add.w	r3, r0, #4294967295
 8000c8e:	d202      	bcs.n	8000c96 <__udivmoddi4+0x14a>
 8000c90:	45a0      	cmp	r8, r4
 8000c92:	f200 80b6 	bhi.w	8000e02 <__udivmoddi4+0x2b6>
 8000c96:	4618      	mov	r0, r3
 8000c98:	eba4 0408 	sub.w	r4, r4, r8
 8000c9c:	ea40 400c 	orr.w	r0, r0, ip, lsl #16
 8000ca0:	e79f      	b.n	8000be2 <__udivmoddi4+0x96>
 8000ca2:	f1c7 0c20 	rsb	ip, r7, #32
 8000ca6:	40bb      	lsls	r3, r7
 8000ca8:	fa22 fe0c 	lsr.w	lr, r2, ip
 8000cac:	ea4e 0e03 	orr.w	lr, lr, r3
 8000cb0:	fa01 f407 	lsl.w	r4, r1, r7
 8000cb4:	fa20 f50c 	lsr.w	r5, r0, ip
 8000cb8:	fa21 f30c 	lsr.w	r3, r1, ip
 8000cbc:	ea4f 481e 	mov.w	r8, lr, lsr #16
 8000cc0:	4325      	orrs	r5, r4
 8000cc2:	fbb3 f9f8 	udiv	r9, r3, r8
 8000cc6:	0c2c      	lsrs	r4, r5, #16
 8000cc8:	fb08 3319 	mls	r3, r8, r9, r3
 8000ccc:	fa1f fa8e 	uxth.w	sl, lr
 8000cd0:	ea44 4303 	orr.w	r3, r4, r3, lsl #16
 8000cd4:	fb09 f40a 	mul.w	r4, r9, sl
 8000cd8:	429c      	cmp	r4, r3
 8000cda:	fa02 f207 	lsl.w	r2, r2, r7
 8000cde:	fa00 f107 	lsl.w	r1, r0, r7
 8000ce2:	d90b      	bls.n	8000cfc <__udivmoddi4+0x1b0>
 8000ce4:	eb1e 0303 	adds.w	r3, lr, r3
 8000ce8:	f109 30ff 	add.w	r0, r9, #4294967295
 8000cec:	f080 8087 	bcs.w	8000dfe <__udivmoddi4+0x2b2>
 8000cf0:	429c      	cmp	r4, r3
 8000cf2:	f240 8084 	bls.w	8000dfe <__udivmoddi4+0x2b2>
 8000cf6:	f1a9 0902 	sub.w	r9, r9, #2
 8000cfa:	4473      	add	r3, lr
 8000cfc:	1b1b      	subs	r3, r3, r4
 8000cfe:	b2ad      	uxth	r5, r5
 8000d00:	fbb3 f0f8 	udiv	r0, r3, r8
 8000d04:	fb08 3310 	mls	r3, r8, r0, r3
 8000d08:	ea45 4403 	orr.w	r4, r5, r3, lsl #16
 8000d0c:	fb00 fa0a 	mul.w	sl, r0, sl
 8000d10:	45a2      	cmp	sl, r4
 8000d12:	d908      	bls.n	8000d26 <__udivmoddi4+0x1da>
 8000d14:	eb1e 0404 	adds.w	r4, lr, r4
 8000d18:	f100 33ff 	add.w	r3, r0, #4294967295
 8000d1c:	d26b      	bcs.n	8000df6 <__udivmoddi4+0x2aa>
 8000d1e:	45a2      	cmp	sl, r4
 8000d20:	d969      	bls.n	8000df6 <__udivmoddi4+0x2aa>
 8000d22:	3802      	subs	r0, #2
 8000d24:	4474      	add	r4, lr
 8000d26:	ea40 4009 	orr.w	r0, r0, r9, lsl #16
 8000d2a:	fba0 8902 	umull	r8, r9, r0, r2
 8000d2e:	eba4 040a 	sub.w	r4, r4, sl
 8000d32:	454c      	cmp	r4, r9
 8000d34:	46c2      	mov	sl, r8
 8000d36:	464b      	mov	r3, r9
 8000d38:	d354      	bcc.n	8000de4 <__udivmoddi4+0x298>
 8000d3a:	d051      	beq.n	8000de0 <__udivmoddi4+0x294>
 8000d3c:	2e00      	cmp	r6, #0
 8000d3e:	d069      	beq.n	8000e14 <__udivmoddi4+0x2c8>
 8000d40:	ebb1 050a 	subs.w	r5, r1, sl
 8000d44:	eb64 0403 	sbc.w	r4, r4, r3
 8000d48:	fa04 fc0c 	lsl.w	ip, r4, ip
 8000d4c:	40fd      	lsrs	r5, r7
 8000d4e:	40fc      	lsrs	r4, r7
 8000d50:	ea4c 0505 	orr.w	r5, ip, r5
 8000d54:	e9c6 5400 	strd	r5, r4, [r6]
 8000d58:	2700      	movs	r7, #0
 8000d5a:	e747      	b.n	8000bec <__udivmoddi4+0xa0>
 8000d5c:	f1c2 0320 	rsb	r3, r2, #32
 8000d60:	fa20 f703 	lsr.w	r7, r0, r3
 8000d64:	4095      	lsls	r5, r2
 8000d66:	fa01 f002 	lsl.w	r0, r1, r2
 8000d6a:	fa21 f303 	lsr.w	r3, r1, r3
 8000d6e:	ea4f 4e15 	mov.w	lr, r5, lsr #16
 8000d72:	4338      	orrs	r0, r7
 8000d74:	0c01      	lsrs	r1, r0, #16
 8000d76:	fbb3 f7fe 	udiv	r7, r3, lr
 8000d7a:	fa1f f885 	uxth.w	r8, r5
 8000d7e:	fb0e 3317 	mls	r3, lr, r7, r3
 8000d82:	ea41 4103 	orr.w	r1, r1, r3, lsl #16
 8000d86:	fb07 f308 	mul.w	r3, r7, r8
 8000d8a:	428b      	cmp	r3, r1
 8000d8c:	fa04 f402 	lsl.w	r4, r4, r2
 8000d90:	d907      	bls.n	8000da2 <__udivmoddi4+0x256>
 8000d92:	1869      	adds	r1, r5, r1
 8000d94:	f107 3cff 	add.w	ip, r7, #4294967295
 8000d98:	d22f      	bcs.n	8000dfa <__udivmoddi4+0x2ae>
 8000d9a:	428b      	cmp	r3, r1
 8000d9c:	d92d      	bls.n	8000dfa <__udivmoddi4+0x2ae>
 8000d9e:	3f02      	subs	r7, #2
 8000da0:	4429      	add	r1, r5
 8000da2:	1acb      	subs	r3, r1, r3
 8000da4:	b281      	uxth	r1, r0
 8000da6:	fbb3 f0fe 	udiv	r0, r3, lr
 8000daa:	fb0e 3310 	mls	r3, lr, r0, r3
 8000dae:	ea41 4103 	orr.w	r1, r1, r3, lsl #16
 8000db2:	fb00 f308 	mul.w	r3, r0, r8
 8000db6:	428b      	cmp	r3, r1
 8000db8:	d907      	bls.n	8000dca <__udivmoddi4+0x27e>
 8000dba:	1869      	adds	r1, r5, r1
 8000dbc:	f100 3cff 	add.w	ip, r0, #4294967295
 8000dc0:	d217      	bcs.n	8000df2 <__udivmoddi4+0x2a6>
 8000dc2:	428b      	cmp	r3, r1
 8000dc4:	d915      	bls.n	8000df2 <__udivmoddi4+0x2a6>
 8000dc6:	3802      	subs	r0, #2
 8000dc8:	4429      	add	r1, r5
 8000dca:	1ac9      	subs	r1, r1, r3
 8000dcc:	ea40 4707 	orr.w	r7, r0, r7, lsl #16
 8000dd0:	e73b      	b.n	8000c4a <__udivmoddi4+0xfe>
 8000dd2:	4637      	mov	r7, r6
 8000dd4:	4630      	mov	r0, r6
 8000dd6:	e709      	b.n	8000bec <__udivmoddi4+0xa0>
 8000dd8:	4607      	mov	r7, r0
 8000dda:	e6e7      	b.n	8000bac <__udivmoddi4+0x60>
 8000ddc:	4618      	mov	r0, r3
 8000dde:	e6fb      	b.n	8000bd8 <__udivmoddi4+0x8c>
 8000de0:	4541      	cmp	r1, r8
 8000de2:	d2ab      	bcs.n	8000d3c <__udivmoddi4+0x1f0>
 8000de4:	ebb8 0a02 	subs.w	sl, r8, r2
 8000de8:	eb69 020e 	sbc.w	r2, r9, lr
 8000dec:	3801      	subs	r0, #1
 8000dee:	4613      	mov	r3, r2
 8000df0:	e7a4      	b.n	8000d3c <__udivmoddi4+0x1f0>
 8000df2:	4660      	mov	r0, ip
 8000df4:	e7e9      	b.n	8000dca <__udivmoddi4+0x27e>
 8000df6:	4618      	mov	r0, r3
 8000df8:	e795      	b.n	8000d26 <__udivmoddi4+0x1da>
 8000dfa:	4667      	mov	r7, ip
 8000dfc:	e7d1      	b.n	8000da2 <__udivmoddi4+0x256>
 8000dfe:	4681      	mov	r9, r0
 8000e00:	e77c      	b.n	8000cfc <__udivmoddi4+0x1b0>
 8000e02:	3802      	subs	r0, #2
 8000e04:	442c      	add	r4, r5
 8000e06:	e747      	b.n	8000c98 <__udivmoddi4+0x14c>
 8000e08:	f1ac 0c02 	sub.w	ip, ip, #2
 8000e0c:	442b      	add	r3, r5
 8000e0e:	e72f      	b.n	8000c70 <__udivmoddi4+0x124>
 8000e10:	4638      	mov	r0, r7
 8000e12:	e708      	b.n	8000c26 <__udivmoddi4+0xda>
 8000e14:	4637      	mov	r7, r6
 8000e16:	e6e9      	b.n	8000bec <__udivmoddi4+0xa0>

08000e18 <__aeabi_idiv0>:
 8000e18:	4770      	bx	lr
 8000e1a:	bf00      	nop

08000e1c <MX_FREERTOS_Init>:
/**
  * @brief  FreeRTOS initialization
  * @param  None
  * @retval None
  */
void MX_FREERTOS_Init(void) {
 8000e1c:	b580      	push	{r7, lr}
 8000e1e:	af00      	add	r7, sp, #0
  /* add mutexes, ... */
  /* USER CODE END RTOS_MUTEX */

  /* Create the semaphores(s) */
  /* creation of PrintSemaphore */
  PrintSemaphoreHandle = osSemaphoreNew(1, 1, &PrintSemaphore_attributes);
 8000e20:	4a18      	ldr	r2, [pc, #96]	; (8000e84 <MX_FREERTOS_Init+0x68>)
 8000e22:	2101      	movs	r1, #1
 8000e24:	2001      	movs	r0, #1
 8000e26:	f004 f943 	bl	80050b0 <osSemaphoreNew>
 8000e2a:	4602      	mov	r2, r0
 8000e2c:	4b16      	ldr	r3, [pc, #88]	; (8000e88 <MX_FREERTOS_Init+0x6c>)
 8000e2e:	601a      	str	r2, [r3, #0]

  /* creation of BinarySem01 */
  BinarySem01Handle = osSemaphoreNew(1, 1, &BinarySem01_attributes);
 8000e30:	4a16      	ldr	r2, [pc, #88]	; (8000e8c <MX_FREERTOS_Init+0x70>)
 8000e32:	2101      	movs	r1, #1
 8000e34:	2001      	movs	r0, #1
 8000e36:	f004 f93b 	bl	80050b0 <osSemaphoreNew>
 8000e3a:	4602      	mov	r2, r0
 8000e3c:	4b14      	ldr	r3, [pc, #80]	; (8000e90 <MX_FREERTOS_Init+0x74>)
 8000e3e:	601a      	str	r2, [r3, #0]

  /* creation of IRQSemaphore */
  IRQSemaphoreHandle = osSemaphoreNew(1, 0, &IRQSemaphore_attributes);
 8000e40:	4a14      	ldr	r2, [pc, #80]	; (8000e94 <MX_FREERTOS_Init+0x78>)
 8000e42:	2100      	movs	r1, #0
 8000e44:	2001      	movs	r0, #1
 8000e46:	f004 f933 	bl	80050b0 <osSemaphoreNew>
 8000e4a:	4602      	mov	r2, r0
 8000e4c:	4b12      	ldr	r3, [pc, #72]	; (8000e98 <MX_FREERTOS_Init+0x7c>)
 8000e4e:	601a      	str	r2, [r3, #0]
  /* add queues, ... */
  /* USER CODE END RTOS_QUEUES */

  /* Create the thread(s) */
  /* creation of Led2Task */
  Led2TaskHandle = osThreadNew(StartLed2Task, NULL, &Led2Task_attributes);
 8000e50:	4a12      	ldr	r2, [pc, #72]	; (8000e9c <MX_FREERTOS_Init+0x80>)
 8000e52:	2100      	movs	r1, #0
 8000e54:	4812      	ldr	r0, [pc, #72]	; (8000ea0 <MX_FREERTOS_Init+0x84>)
 8000e56:	f004 f857 	bl	8004f08 <osThreadNew>
 8000e5a:	4602      	mov	r2, r0
 8000e5c:	4b11      	ldr	r3, [pc, #68]	; (8000ea4 <MX_FREERTOS_Init+0x88>)
 8000e5e:	601a      	str	r2, [r3, #0]

  /* creation of Led3Task */
  Led3TaskHandle = osThreadNew(StartLed3Task, NULL, &Led3Task_attributes);
 8000e60:	4a11      	ldr	r2, [pc, #68]	; (8000ea8 <MX_FREERTOS_Init+0x8c>)
 8000e62:	2100      	movs	r1, #0
 8000e64:	4811      	ldr	r0, [pc, #68]	; (8000eac <MX_FREERTOS_Init+0x90>)
 8000e66:	f004 f84f 	bl	8004f08 <osThreadNew>
 8000e6a:	4602      	mov	r2, r0
 8000e6c:	4b10      	ldr	r3, [pc, #64]	; (8000eb0 <MX_FREERTOS_Init+0x94>)
 8000e6e:	601a      	str	r2, [r3, #0]

  /* creation of Led4Task */
  Led4TaskHandle = osThreadNew(StartLed4Task, NULL, &Led4Task_attributes);
 8000e70:	4a10      	ldr	r2, [pc, #64]	; (8000eb4 <MX_FREERTOS_Init+0x98>)
 8000e72:	2100      	movs	r1, #0
 8000e74:	4810      	ldr	r0, [pc, #64]	; (8000eb8 <MX_FREERTOS_Init+0x9c>)
 8000e76:	f004 f847 	bl	8004f08 <osThreadNew>
 8000e7a:	4602      	mov	r2, r0
 8000e7c:	4b0f      	ldr	r3, [pc, #60]	; (8000ebc <MX_FREERTOS_Init+0xa0>)
 8000e7e:	601a      	str	r2, [r3, #0]

  /* USER CODE BEGIN RTOS_EVENTS */
  /* add events, ... */
  /* USER CODE END RTOS_EVENTS */

}
 8000e80:	bf00      	nop
 8000e82:	bd80      	pop	{r7, pc}
 8000e84:	080085f8 	.word	0x080085f8
 8000e88:	20004948 	.word	0x20004948
 8000e8c:	08008608 	.word	0x08008608
 8000e90:	2000493c 	.word	0x2000493c
 8000e94:	08008618 	.word	0x08008618
 8000e98:	20004938 	.word	0x20004938
 8000e9c:	0800858c 	.word	0x0800858c
 8000ea0:	08000ec1 	.word	0x08000ec1
 8000ea4:	20004934 	.word	0x20004934
 8000ea8:	080085b0 	.word	0x080085b0
 8000eac:	08000f19 	.word	0x08000f19
 8000eb0:	20004944 	.word	0x20004944
 8000eb4:	080085d4 	.word	0x080085d4
 8000eb8:	08000f79 	.word	0x08000f79
 8000ebc:	20004940 	.word	0x20004940

08000ec0 <StartLed2Task>:
  * @param  argument: Not used
  * @retval None
  */
/* USER CODE END Header_StartLed2Task */
void StartLed2Task(void *argument)
{
 8000ec0:	b580      	push	{r7, lr}
 8000ec2:	b082      	sub	sp, #8
 8000ec4:	af00      	add	r7, sp, #0
 8000ec6:	6078      	str	r0, [r7, #4]
  /* USER CODE BEGIN StartLed2Task */
  /* Infinite loop */
  for(;;)
  {
	  printf("Led 2 Task Enter\n\r");
 8000ec8:	480d      	ldr	r0, [pc, #52]	; (8000f00 <StartLed2Task+0x40>)
 8000eca:	f001 fdf3 	bl	8002ab4 <printf_>

	  printf("Led 2 Semaphore Wait\n\r");
 8000ece:	480d      	ldr	r0, [pc, #52]	; (8000f04 <StartLed2Task+0x44>)
 8000ed0:	f001 fdf0 	bl	8002ab4 <printf_>

	  if(osOK == osSemaphoreAcquire(IRQSemaphoreHandle, osWaitForever))
 8000ed4:	4b0c      	ldr	r3, [pc, #48]	; (8000f08 <StartLed2Task+0x48>)
 8000ed6:	681b      	ldr	r3, [r3, #0]
 8000ed8:	f04f 31ff 	mov.w	r1, #4294967295
 8000edc:	4618      	mov	r0, r3
 8000ede:	f004 f985 	bl	80051ec <osSemaphoreAcquire>
 8000ee2:	4603      	mov	r3, r0
 8000ee4:	2b00      	cmp	r3, #0
 8000ee6:	d106      	bne.n	8000ef6 <StartLed2Task+0x36>
	  {
		  printf("Led 2 Semaphore Taken\n\r");
 8000ee8:	4808      	ldr	r0, [pc, #32]	; (8000f0c <StartLed2Task+0x4c>)
 8000eea:	f001 fde3 	bl	8002ab4 <printf_>
		  HAL_GPIO_TogglePin(LD2_GPIO_Port, LD2_Pin);
 8000eee:	2120      	movs	r1, #32
 8000ef0:	4807      	ldr	r0, [pc, #28]	; (8000f10 <StartLed2Task+0x50>)
 8000ef2:	f002 fbec 	bl	80036ce <HAL_GPIO_TogglePin>
	  }
	  printf("Led 2 Task Exit\n\r");
 8000ef6:	4807      	ldr	r0, [pc, #28]	; (8000f14 <StartLed2Task+0x54>)
 8000ef8:	f001 fddc 	bl	8002ab4 <printf_>
	  printf("Led 2 Task Enter\n\r");
 8000efc:	e7e4      	b.n	8000ec8 <StartLed2Task+0x8>
 8000efe:	bf00      	nop
 8000f00:	08008468 	.word	0x08008468
 8000f04:	0800847c 	.word	0x0800847c
 8000f08:	20004938 	.word	0x20004938
 8000f0c:	08008494 	.word	0x08008494
 8000f10:	40020000 	.word	0x40020000
 8000f14:	080084ac 	.word	0x080084ac

08000f18 <StartLed3Task>:
* @param argument: Not used
* @retval None
*/
/* USER CODE END Header_StartLed3Task */
void StartLed3Task(void *argument)
{
 8000f18:	b580      	push	{r7, lr}
 8000f1a:	b082      	sub	sp, #8
 8000f1c:	af00      	add	r7, sp, #0
 8000f1e:	6078      	str	r0, [r7, #4]
  /* USER CODE BEGIN StartLed3Task */
  /* Infinite loop */
  for(;;)
  {

	  printf("Led 3 Task Enter\n\r");
 8000f20:	480f      	ldr	r0, [pc, #60]	; (8000f60 <StartLed3Task+0x48>)
 8000f22:	f001 fdc7 	bl	8002ab4 <printf_>

	  printf("Led 3 Semaphore Wait\n\r");
 8000f26:	480f      	ldr	r0, [pc, #60]	; (8000f64 <StartLed3Task+0x4c>)
 8000f28:	f001 fdc4 	bl	8002ab4 <printf_>
	  if(osOK == osSemaphoreAcquire(BinarySem01Handle, osWaitForever))
 8000f2c:	4b0e      	ldr	r3, [pc, #56]	; (8000f68 <StartLed3Task+0x50>)
 8000f2e:	681b      	ldr	r3, [r3, #0]
 8000f30:	f04f 31ff 	mov.w	r1, #4294967295
 8000f34:	4618      	mov	r0, r3
 8000f36:	f004 f959 	bl	80051ec <osSemaphoreAcquire>
 8000f3a:	4603      	mov	r3, r0
 8000f3c:	2b00      	cmp	r3, #0
 8000f3e:	d106      	bne.n	8000f4e <StartLed3Task+0x36>
	  {
		  printf("Led 3 Semaphore Taken\n\r");
 8000f40:	480a      	ldr	r0, [pc, #40]	; (8000f6c <StartLed3Task+0x54>)
 8000f42:	f001 fdb7 	bl	8002ab4 <printf_>
		  HAL_GPIO_TogglePin(LD3_GPIO_Port, LD3_Pin);
 8000f46:	2140      	movs	r1, #64	; 0x40
 8000f48:	4809      	ldr	r0, [pc, #36]	; (8000f70 <StartLed3Task+0x58>)
 8000f4a:	f002 fbc0 	bl	80036ce <HAL_GPIO_TogglePin>
	  }

	  printf("Led 3 Task Exit\n\r");
 8000f4e:	4809      	ldr	r0, [pc, #36]	; (8000f74 <StartLed3Task+0x5c>)
 8000f50:	f001 fdb0 	bl	8002ab4 <printf_>
	  osDelay(1000);
 8000f54:	f44f 707a 	mov.w	r0, #1000	; 0x3e8
 8000f58:	f004 f87c 	bl	8005054 <osDelay>
	  printf("Led 3 Task Enter\n\r");
 8000f5c:	e7e0      	b.n	8000f20 <StartLed3Task+0x8>
 8000f5e:	bf00      	nop
 8000f60:	080084c0 	.word	0x080084c0
 8000f64:	080084d4 	.word	0x080084d4
 8000f68:	2000493c 	.word	0x2000493c
 8000f6c:	080084ec 	.word	0x080084ec
 8000f70:	40020000 	.word	0x40020000
 8000f74:	08008504 	.word	0x08008504

08000f78 <StartLed4Task>:
* @param argument: Not used
* @retval None
*/
/* USER CODE END Header_StartLed4Task */
void StartLed4Task(void *argument)
{
 8000f78:	b580      	push	{r7, lr}
 8000f7a:	b082      	sub	sp, #8
 8000f7c:	af00      	add	r7, sp, #0
 8000f7e:	6078      	str	r0, [r7, #4]
  /* USER CODE BEGIN StartLed4Task */
  /* Infinite loop */
  for(;;)
  {
	  printf("Led 4 Task Enter\n\r");
 8000f80:	480c      	ldr	r0, [pc, #48]	; (8000fb4 <StartLed4Task+0x3c>)
 8000f82:	f001 fd97 	bl	8002ab4 <printf_>

	  if(osOK == osSemaphoreRelease(BinarySem01Handle))
 8000f86:	4b0c      	ldr	r3, [pc, #48]	; (8000fb8 <StartLed4Task+0x40>)
 8000f88:	681b      	ldr	r3, [r3, #0]
 8000f8a:	4618      	mov	r0, r3
 8000f8c:	f004 f994 	bl	80052b8 <osSemaphoreRelease>
 8000f90:	4603      	mov	r3, r0
 8000f92:	2b00      	cmp	r3, #0
 8000f94:	d102      	bne.n	8000f9c <StartLed4Task+0x24>
	  {
		  printf("Led 4 Semaphore Released\n\r");
 8000f96:	4809      	ldr	r0, [pc, #36]	; (8000fbc <StartLed4Task+0x44>)
 8000f98:	f001 fd8c 	bl	8002ab4 <printf_>
	  }

	  HAL_GPIO_TogglePin(LD4_GPIO_Port, LD4_Pin);
 8000f9c:	2180      	movs	r1, #128	; 0x80
 8000f9e:	4808      	ldr	r0, [pc, #32]	; (8000fc0 <StartLed4Task+0x48>)
 8000fa0:	f002 fb95 	bl	80036ce <HAL_GPIO_TogglePin>

	  printf("Led 4 Task Exit\n\r");
 8000fa4:	4807      	ldr	r0, [pc, #28]	; (8000fc4 <StartLed4Task+0x4c>)
 8000fa6:	f001 fd85 	bl	8002ab4 <printf_>
	  osDelay(2000);
 8000faa:	f44f 60fa 	mov.w	r0, #2000	; 0x7d0
 8000fae:	f004 f851 	bl	8005054 <osDelay>
	  printf("Led 4 Task Enter\n\r");
 8000fb2:	e7e5      	b.n	8000f80 <StartLed4Task+0x8>
 8000fb4:	08008518 	.word	0x08008518
 8000fb8:	2000493c 	.word	0x2000493c
 8000fbc:	0800852c 	.word	0x0800852c
 8000fc0:	40020000 	.word	0x40020000
 8000fc4:	08008548 	.word	0x08008548

08000fc8 <_putchar>:
}

/* Private application code --------------------------------------------------*/
/* USER CODE BEGIN Application */
void _putchar(char character)
{
 8000fc8:	b580      	push	{r7, lr}
 8000fca:	b082      	sub	sp, #8
 8000fcc:	af00      	add	r7, sp, #0
 8000fce:	4603      	mov	r3, r0
 8000fd0:	71fb      	strb	r3, [r7, #7]
  // send char to console etc.
	osSemaphoreAcquire(PrintSemaphoreHandle, osWaitForever);
 8000fd2:	4b0b      	ldr	r3, [pc, #44]	; (8001000 <_putchar+0x38>)
 8000fd4:	681b      	ldr	r3, [r3, #0]
 8000fd6:	f04f 31ff 	mov.w	r1, #4294967295
 8000fda:	4618      	mov	r0, r3
 8000fdc:	f004 f906 	bl	80051ec <osSemaphoreAcquire>
	HAL_UART_Transmit(&huart2, (uint8_t*)&character, 1, 1000);
 8000fe0:	1df9      	adds	r1, r7, #7
 8000fe2:	f44f 737a 	mov.w	r3, #1000	; 0x3e8
 8000fe6:	2201      	movs	r2, #1
 8000fe8:	4806      	ldr	r0, [pc, #24]	; (8001004 <_putchar+0x3c>)
 8000fea:	f003 fabc 	bl	8004566 <HAL_UART_Transmit>
	osSemaphoreRelease(PrintSemaphoreHandle);
 8000fee:	4b04      	ldr	r3, [pc, #16]	; (8001000 <_putchar+0x38>)
 8000ff0:	681b      	ldr	r3, [r3, #0]
 8000ff2:	4618      	mov	r0, r3
 8000ff4:	f004 f960 	bl	80052b8 <osSemaphoreRelease>
}
 8000ff8:	bf00      	nop
 8000ffa:	3708      	adds	r7, #8
 8000ffc:	46bd      	mov	sp, r7
 8000ffe:	bd80      	pop	{r7, pc}
 8001000:	20004948 	.word	0x20004948
 8001004:	2000498c 	.word	0x2000498c

08001008 <HAL_GPIO_EXTI_Callback>:

void HAL_GPIO_EXTI_Callback(uint16_t GPIO_Pin)
{
 8001008:	b580      	push	{r7, lr}
 800100a:	b082      	sub	sp, #8
 800100c:	af00      	add	r7, sp, #0
 800100e:	4603      	mov	r3, r0
 8001010:	80fb      	strh	r3, [r7, #6]
	if(B1_Pin == GPIO_Pin)
 8001012:	88fb      	ldrh	r3, [r7, #6]
 8001014:	f5b3 5f00 	cmp.w	r3, #8192	; 0x2000
 8001018:	d104      	bne.n	8001024 <HAL_GPIO_EXTI_Callback+0x1c>
	{
		osSemaphoreRelease(IRQSemaphoreHandle);
 800101a:	4b04      	ldr	r3, [pc, #16]	; (800102c <HAL_GPIO_EXTI_Callback+0x24>)
 800101c:	681b      	ldr	r3, [r3, #0]
 800101e:	4618      	mov	r0, r3
 8001020:	f004 f94a 	bl	80052b8 <osSemaphoreRelease>
	}
}
 8001024:	bf00      	nop
 8001026:	3708      	adds	r7, #8
 8001028:	46bd      	mov	sp, r7
 800102a:	bd80      	pop	{r7, pc}
 800102c:	20004938 	.word	0x20004938

08001030 <MX_GPIO_Init>:
        * Output
        * EVENT_OUT
        * EXTI
*/
void MX_GPIO_Init(void)
{
 8001030:	b580      	push	{r7, lr}
 8001032:	b08a      	sub	sp, #40	; 0x28
 8001034:	af00      	add	r7, sp, #0

  GPIO_InitTypeDef GPIO_InitStruct = {0};
 8001036:	f107 0314 	add.w	r3, r7, #20
 800103a:	2200      	movs	r2, #0
 800103c:	601a      	str	r2, [r3, #0]
 800103e:	605a      	str	r2, [r3, #4]
 8001040:	609a      	str	r2, [r3, #8]
 8001042:	60da      	str	r2, [r3, #12]
 8001044:	611a      	str	r2, [r3, #16]

  /* GPIO Ports Clock Enable */
  __HAL_RCC_GPIOC_CLK_ENABLE();
 8001046:	2300      	movs	r3, #0
 8001048:	613b      	str	r3, [r7, #16]
 800104a:	4b31      	ldr	r3, [pc, #196]	; (8001110 <MX_GPIO_Init+0xe0>)
 800104c:	6b1b      	ldr	r3, [r3, #48]	; 0x30
 800104e:	4a30      	ldr	r2, [pc, #192]	; (8001110 <MX_GPIO_Init+0xe0>)
 8001050:	f043 0304 	orr.w	r3, r3, #4
 8001054:	6313      	str	r3, [r2, #48]	; 0x30
 8001056:	4b2e      	ldr	r3, [pc, #184]	; (8001110 <MX_GPIO_Init+0xe0>)
 8001058:	6b1b      	ldr	r3, [r3, #48]	; 0x30
 800105a:	f003 0304 	and.w	r3, r3, #4
 800105e:	613b      	str	r3, [r7, #16]
 8001060:	693b      	ldr	r3, [r7, #16]
  __HAL_RCC_GPIOH_CLK_ENABLE();
 8001062:	2300      	movs	r3, #0
 8001064:	60fb      	str	r3, [r7, #12]
 8001066:	4b2a      	ldr	r3, [pc, #168]	; (8001110 <MX_GPIO_Init+0xe0>)
 8001068:	6b1b      	ldr	r3, [r3, #48]	; 0x30
 800106a:	4a29      	ldr	r2, [pc, #164]	; (8001110 <MX_GPIO_Init+0xe0>)
 800106c:	f043 0380 	orr.w	r3, r3, #128	; 0x80
 8001070:	6313      	str	r3, [r2, #48]	; 0x30
 8001072:	4b27      	ldr	r3, [pc, #156]	; (8001110 <MX_GPIO_Init+0xe0>)
 8001074:	6b1b      	ldr	r3, [r3, #48]	; 0x30
 8001076:	f003 0380 	and.w	r3, r3, #128	; 0x80
 800107a:	60fb      	str	r3, [r7, #12]
 800107c:	68fb      	ldr	r3, [r7, #12]
  __HAL_RCC_GPIOA_CLK_ENABLE();
 800107e:	2300      	movs	r3, #0
 8001080:	60bb      	str	r3, [r7, #8]
 8001082:	4b23      	ldr	r3, [pc, #140]	; (8001110 <MX_GPIO_Init+0xe0>)
 8001084:	6b1b      	ldr	r3, [r3, #48]	; 0x30
 8001086:	4a22      	ldr	r2, [pc, #136]	; (8001110 <MX_GPIO_Init+0xe0>)
 8001088:	f043 0301 	orr.w	r3, r3, #1
 800108c:	6313      	str	r3, [r2, #48]	; 0x30
 800108e:	4b20      	ldr	r3, [pc, #128]	; (8001110 <MX_GPIO_Init+0xe0>)
 8001090:	6b1b      	ldr	r3, [r3, #48]	; 0x30
 8001092:	f003 0301 	and.w	r3, r3, #1
 8001096:	60bb      	str	r3, [r7, #8]
 8001098:	68bb      	ldr	r3, [r7, #8]
  __HAL_RCC_GPIOB_CLK_ENABLE();
 800109a:	2300      	movs	r3, #0
 800109c:	607b      	str	r3, [r7, #4]
 800109e:	4b1c      	ldr	r3, [pc, #112]	; (8001110 <MX_GPIO_Init+0xe0>)
 80010a0:	6b1b      	ldr	r3, [r3, #48]	; 0x30
 80010a2:	4a1b      	ldr	r2, [pc, #108]	; (8001110 <MX_GPIO_Init+0xe0>)
 80010a4:	f043 0302 	orr.w	r3, r3, #2
 80010a8:	6313      	str	r3, [r2, #48]	; 0x30
 80010aa:	4b19      	ldr	r3, [pc, #100]	; (8001110 <MX_GPIO_Init+0xe0>)
 80010ac:	6b1b      	ldr	r3, [r3, #48]	; 0x30
 80010ae:	f003 0302 	and.w	r3, r3, #2
 80010b2:	607b      	str	r3, [r7, #4]
 80010b4:	687b      	ldr	r3, [r7, #4]

  /*Configure GPIO pin Output Level */
  HAL_GPIO_WritePin(GPIOA, LD2_Pin|LD3_Pin|LD4_Pin, GPIO_PIN_RESET);
 80010b6:	2200      	movs	r2, #0
 80010b8:	21e0      	movs	r1, #224	; 0xe0
 80010ba:	4816      	ldr	r0, [pc, #88]	; (8001114 <MX_GPIO_Init+0xe4>)
 80010bc:	f002 faee 	bl	800369c <HAL_GPIO_WritePin>

  /*Configure GPIO pin : PtPin */
  GPIO_InitStruct.Pin = B1_Pin;
 80010c0:	f44f 5300 	mov.w	r3, #8192	; 0x2000
 80010c4:	617b      	str	r3, [r7, #20]
  GPIO_InitStruct.Mode = GPIO_MODE_IT_FALLING;
 80010c6:	4b14      	ldr	r3, [pc, #80]	; (8001118 <MX_GPIO_Init+0xe8>)
 80010c8:	61bb      	str	r3, [r7, #24]
  GPIO_InitStruct.Pull = GPIO_NOPULL;
 80010ca:	2300      	movs	r3, #0
 80010cc:	61fb      	str	r3, [r7, #28]
  HAL_GPIO_Init(B1_GPIO_Port, &GPIO_InitStruct);
 80010ce:	f107 0314 	add.w	r3, r7, #20
 80010d2:	4619      	mov	r1, r3
 80010d4:	4811      	ldr	r0, [pc, #68]	; (800111c <MX_GPIO_Init+0xec>)
 80010d6:	f002 f95f 	bl	8003398 <HAL_GPIO_Init>

  /*Configure GPIO pins : PAPin PAPin PAPin */
  GPIO_InitStruct.Pin = LD2_Pin|LD3_Pin|LD4_Pin;
 80010da:	23e0      	movs	r3, #224	; 0xe0
 80010dc:	617b      	str	r3, [r7, #20]
  GPIO_InitStruct.Mode = GPIO_MODE_OUTPUT_PP;
 80010de:	2301      	movs	r3, #1
 80010e0:	61bb      	str	r3, [r7, #24]
  GPIO_InitStruct.Pull = GPIO_NOPULL;
 80010e2:	2300      	movs	r3, #0
 80010e4:	61fb      	str	r3, [r7, #28]
  GPIO_InitStruct.Speed = GPIO_SPEED_FREQ_LOW;
 80010e6:	2300      	movs	r3, #0
 80010e8:	623b      	str	r3, [r7, #32]
  HAL_GPIO_Init(GPIOA, &GPIO_InitStruct);
 80010ea:	f107 0314 	add.w	r3, r7, #20
 80010ee:	4619      	mov	r1, r3
 80010f0:	4808      	ldr	r0, [pc, #32]	; (8001114 <MX_GPIO_Init+0xe4>)
 80010f2:	f002 f951 	bl	8003398 <HAL_GPIO_Init>

  /* EXTI interrupt init*/
  HAL_NVIC_SetPriority(EXTI15_10_IRQn, 5, 0);
 80010f6:	2200      	movs	r2, #0
 80010f8:	2105      	movs	r1, #5
 80010fa:	2028      	movs	r0, #40	; 0x28
 80010fc:	f001 ff7a 	bl	8002ff4 <HAL_NVIC_SetPriority>
  HAL_NVIC_EnableIRQ(EXTI15_10_IRQn);
 8001100:	2028      	movs	r0, #40	; 0x28
 8001102:	f001 ff93 	bl	800302c <HAL_NVIC_EnableIRQ>

}
 8001106:	bf00      	nop
 8001108:	3728      	adds	r7, #40	; 0x28
 800110a:	46bd      	mov	sp, r7
 800110c:	bd80      	pop	{r7, pc}
 800110e:	bf00      	nop
 8001110:	40023800 	.word	0x40023800
 8001114:	40020000 	.word	0x40020000
 8001118:	10210000 	.word	0x10210000
 800111c:	40020800 	.word	0x40020800

08001120 <main>:
/**
  * @brief  The application entry point.
  * @retval int
  */
int main(void)
{
 8001120:	b580      	push	{r7, lr}
 8001122:	af00      	add	r7, sp, #0
  /* USER CODE END 1 */

  /* MCU Configuration--------------------------------------------------------*/

  /* Reset of all peripherals, Initializes the Flash interface and the Systick. */
  HAL_Init();
 8001124:	f001 fe6c 	bl	8002e00 <HAL_Init>
  /* USER CODE BEGIN Init */

  /* USER CODE END Init */

  /* Configure the system clock */
  SystemClock_Config();
 8001128:	f000 f80c 	bl	8001144 <SystemClock_Config>
  /* USER CODE BEGIN SysInit */

  /* USER CODE END SysInit */

  /* Initialize all configured peripherals */
  MX_GPIO_Init();
 800112c:	f7ff ff80 	bl	8001030 <MX_GPIO_Init>
  MX_USART2_UART_Init();
 8001130:	f001 fdca 	bl	8002cc8 <MX_USART2_UART_Init>
  /* USER CODE BEGIN 2 */

  /* USER CODE END 2 */

  /* Init scheduler */
  osKernelInitialize();  /* Call init function for freertos objects (in freertos.c) */
 8001134:	f003 fe7e 	bl	8004e34 <osKernelInitialize>
  MX_FREERTOS_Init();
 8001138:	f7ff fe70 	bl	8000e1c <MX_FREERTOS_Init>
  /* Start scheduler */
  osKernelStart();
 800113c:	f003 feae 	bl	8004e9c <osKernelStart>

  /* We should never get here as control is now taken by the scheduler */
  /* Infinite loop */
  /* USER CODE BEGIN WHILE */
  while (1)
 8001140:	e7fe      	b.n	8001140 <main+0x20>
	...

08001144 <SystemClock_Config>:
/**
  * @brief System Clock Configuration
  * @retval None
  */
void SystemClock_Config(void)
{
 8001144:	b580      	push	{r7, lr}
 8001146:	b094      	sub	sp, #80	; 0x50
 8001148:	af00      	add	r7, sp, #0
  RCC_OscInitTypeDef RCC_OscInitStruct = {0};
 800114a:	f107 0320 	add.w	r3, r7, #32
 800114e:	2230      	movs	r2, #48	; 0x30
 8001150:	2100      	movs	r1, #0
 8001152:	4618      	mov	r0, r3
 8001154:	f007 f949 	bl	80083ea <memset>
  RCC_ClkInitTypeDef RCC_ClkInitStruct = {0};
 8001158:	f107 030c 	add.w	r3, r7, #12
 800115c:	2200      	movs	r2, #0
 800115e:	601a      	str	r2, [r3, #0]
 8001160:	605a      	str	r2, [r3, #4]
 8001162:	609a      	str	r2, [r3, #8]
 8001164:	60da      	str	r2, [r3, #12]
 8001166:	611a      	str	r2, [r3, #16]

  /** Configure the main internal regulator output voltage
  */
  __HAL_RCC_PWR_CLK_ENABLE();
 8001168:	2300      	movs	r3, #0
 800116a:	60bb      	str	r3, [r7, #8]
 800116c:	4b28      	ldr	r3, [pc, #160]	; (8001210 <SystemClock_Config+0xcc>)
 800116e:	6c1b      	ldr	r3, [r3, #64]	; 0x40
 8001170:	4a27      	ldr	r2, [pc, #156]	; (8001210 <SystemClock_Config+0xcc>)
 8001172:	f043 5380 	orr.w	r3, r3, #268435456	; 0x10000000
 8001176:	6413      	str	r3, [r2, #64]	; 0x40
 8001178:	4b25      	ldr	r3, [pc, #148]	; (8001210 <SystemClock_Config+0xcc>)
 800117a:	6c1b      	ldr	r3, [r3, #64]	; 0x40
 800117c:	f003 5380 	and.w	r3, r3, #268435456	; 0x10000000
 8001180:	60bb      	str	r3, [r7, #8]
 8001182:	68bb      	ldr	r3, [r7, #8]
  __HAL_PWR_VOLTAGESCALING_CONFIG(PWR_REGULATOR_VOLTAGE_SCALE1);
 8001184:	2300      	movs	r3, #0
 8001186:	607b      	str	r3, [r7, #4]
 8001188:	4b22      	ldr	r3, [pc, #136]	; (8001214 <SystemClock_Config+0xd0>)
 800118a:	681b      	ldr	r3, [r3, #0]
 800118c:	4a21      	ldr	r2, [pc, #132]	; (8001214 <SystemClock_Config+0xd0>)
 800118e:	f443 4340 	orr.w	r3, r3, #49152	; 0xc000
 8001192:	6013      	str	r3, [r2, #0]
 8001194:	4b1f      	ldr	r3, [pc, #124]	; (8001214 <SystemClock_Config+0xd0>)
 8001196:	681b      	ldr	r3, [r3, #0]
 8001198:	f403 4340 	and.w	r3, r3, #49152	; 0xc000
 800119c:	607b      	str	r3, [r7, #4]
 800119e:	687b      	ldr	r3, [r7, #4]
  /** Initializes the RCC Oscillators according to the specified parameters
  * in the RCC_OscInitTypeDef structure.
  */
  RCC_OscInitStruct.OscillatorType = RCC_OSCILLATORTYPE_HSI;
 80011a0:	2302      	movs	r3, #2
 80011a2:	623b      	str	r3, [r7, #32]
  RCC_OscInitStruct.HSIState = RCC_HSI_ON;
 80011a4:	2301      	movs	r3, #1
 80011a6:	62fb      	str	r3, [r7, #44]	; 0x2c
  RCC_OscInitStruct.HSICalibrationValue = RCC_HSICALIBRATION_DEFAULT;
 80011a8:	2310      	movs	r3, #16
 80011aa:	633b      	str	r3, [r7, #48]	; 0x30
  RCC_OscInitStruct.PLL.PLLState = RCC_PLL_ON;
 80011ac:	2302      	movs	r3, #2
 80011ae:	63bb      	str	r3, [r7, #56]	; 0x38
  RCC_OscInitStruct.PLL.PLLSource = RCC_PLLSOURCE_HSI;
 80011b0:	2300      	movs	r3, #0
 80011b2:	63fb      	str	r3, [r7, #60]	; 0x3c
  RCC_OscInitStruct.PLL.PLLM = 16;
 80011b4:	2310      	movs	r3, #16
 80011b6:	643b      	str	r3, [r7, #64]	; 0x40
  RCC_OscInitStruct.PLL.PLLN = 336;
 80011b8:	f44f 73a8 	mov.w	r3, #336	; 0x150
 80011bc:	647b      	str	r3, [r7, #68]	; 0x44
  RCC_OscInitStruct.PLL.PLLP = RCC_PLLP_DIV4;
 80011be:	2304      	movs	r3, #4
 80011c0:	64bb      	str	r3, [r7, #72]	; 0x48
  RCC_OscInitStruct.PLL.PLLQ = 4;
 80011c2:	2304      	movs	r3, #4
 80011c4:	64fb      	str	r3, [r7, #76]	; 0x4c
  if (HAL_RCC_OscConfig(&RCC_OscInitStruct) != HAL_OK)
 80011c6:	f107 0320 	add.w	r3, r7, #32
 80011ca:	4618      	mov	r0, r3
 80011cc:	f002 facc 	bl	8003768 <HAL_RCC_OscConfig>
 80011d0:	4603      	mov	r3, r0
 80011d2:	2b00      	cmp	r3, #0
 80011d4:	d001      	beq.n	80011da <SystemClock_Config+0x96>
  {
    Error_Handler();
 80011d6:	f000 f831 	bl	800123c <Error_Handler>
  }
  /** Initializes the CPU, AHB and APB buses clocks
  */
  RCC_ClkInitStruct.ClockType = RCC_CLOCKTYPE_HCLK|RCC_CLOCKTYPE_SYSCLK
 80011da:	230f      	movs	r3, #15
 80011dc:	60fb      	str	r3, [r7, #12]
                              |RCC_CLOCKTYPE_PCLK1|RCC_CLOCKTYPE_PCLK2;
  RCC_ClkInitStruct.SYSCLKSource = RCC_SYSCLKSOURCE_PLLCLK;
 80011de:	2302      	movs	r3, #2
 80011e0:	613b      	str	r3, [r7, #16]
  RCC_ClkInitStruct.AHBCLKDivider = RCC_SYSCLK_DIV1;
 80011e2:	2300      	movs	r3, #0
 80011e4:	617b      	str	r3, [r7, #20]
  RCC_ClkInitStruct.APB1CLKDivider = RCC_HCLK_DIV2;
 80011e6:	f44f 5380 	mov.w	r3, #4096	; 0x1000
 80011ea:	61bb      	str	r3, [r7, #24]
  RCC_ClkInitStruct.APB2CLKDivider = RCC_HCLK_DIV1;
 80011ec:	2300      	movs	r3, #0
 80011ee:	61fb      	str	r3, [r7, #28]

  if (HAL_RCC_ClockConfig(&RCC_ClkInitStruct, FLASH_LATENCY_2) != HAL_OK)
 80011f0:	f107 030c 	add.w	r3, r7, #12
 80011f4:	2102      	movs	r1, #2
 80011f6:	4618      	mov	r0, r3
 80011f8:	f002 fd26 	bl	8003c48 <HAL_RCC_ClockConfig>
 80011fc:	4603      	mov	r3, r0
 80011fe:	2b00      	cmp	r3, #0
 8001200:	d001      	beq.n	8001206 <SystemClock_Config+0xc2>
  {
    Error_Handler();
 8001202:	f000 f81b 	bl	800123c <Error_Handler>
  }
}
 8001206:	bf00      	nop
 8001208:	3750      	adds	r7, #80	; 0x50
 800120a:	46bd      	mov	sp, r7
 800120c:	bd80      	pop	{r7, pc}
 800120e:	bf00      	nop
 8001210:	40023800 	.word	0x40023800
 8001214:	40007000 	.word	0x40007000

08001218 <HAL_TIM_PeriodElapsedCallback>:
  * a global variable "uwTick" used as application time base.
  * @param  htim : TIM handle
  * @retval None
  */
void HAL_TIM_PeriodElapsedCallback(TIM_HandleTypeDef *htim)
{
 8001218:	b580      	push	{r7, lr}
 800121a:	b082      	sub	sp, #8
 800121c:	af00      	add	r7, sp, #0
 800121e:	6078      	str	r0, [r7, #4]
  /* USER CODE BEGIN Callback 0 */

  /* USER CODE END Callback 0 */
  if (htim->Instance == TIM10) {
 8001220:	687b      	ldr	r3, [r7, #4]
 8001222:	681b      	ldr	r3, [r3, #0]
 8001224:	4a04      	ldr	r2, [pc, #16]	; (8001238 <HAL_TIM_PeriodElapsedCallback+0x20>)
 8001226:	4293      	cmp	r3, r2
 8001228:	d101      	bne.n	800122e <HAL_TIM_PeriodElapsedCallback+0x16>
    HAL_IncTick();
 800122a:	f001 fe0b 	bl	8002e44 <HAL_IncTick>
  }
  /* USER CODE BEGIN Callback 1 */

  /* USER CODE END Callback 1 */
}
 800122e:	bf00      	nop
 8001230:	3708      	adds	r7, #8
 8001232:	46bd      	mov	sp, r7
 8001234:	bd80      	pop	{r7, pc}
 8001236:	bf00      	nop
 8001238:	40014400 	.word	0x40014400

0800123c <Error_Handler>:
/**
  * @brief  This function is executed in case of error occurrence.
  * @retval None
  */
void Error_Handler(void)
{
 800123c:	b480      	push	{r7}
 800123e:	af00      	add	r7, sp, #0
  \details Disables IRQ interrupts by setting the I-bit in the CPSR.
           Can only be executed in Privileged modes.
 */
__STATIC_FORCEINLINE void __disable_irq(void)
{
  __ASM volatile ("cpsid i" : : : "memory");
 8001240:	b672      	cpsid	i
  /* USER CODE BEGIN Error_Handler_Debug */
  /* User can add his own implementation to report the HAL error return state */
  __disable_irq();
  while (1)
 8001242:	e7fe      	b.n	8001242 <Error_Handler+0x6>

08001244 <_out_null>:
 8001244:	b480      	push	{r7}
 8001246:	b085      	sub	sp, #20
 8001248:	af00      	add	r7, sp, #0
 800124a:	60b9      	str	r1, [r7, #8]
 800124c:	607a      	str	r2, [r7, #4]
 800124e:	603b      	str	r3, [r7, #0]
 8001250:	4603      	mov	r3, r0
 8001252:	73fb      	strb	r3, [r7, #15]
 8001254:	bf00      	nop
 8001256:	3714      	adds	r7, #20
 8001258:	46bd      	mov	sp, r7
 800125a:	f85d 7b04 	ldr.w	r7, [sp], #4
 800125e:	4770      	bx	lr

08001260 <_out_char>:
 8001260:	b580      	push	{r7, lr}
 8001262:	b084      	sub	sp, #16
 8001264:	af00      	add	r7, sp, #0
 8001266:	60b9      	str	r1, [r7, #8]
 8001268:	607a      	str	r2, [r7, #4]
 800126a:	603b      	str	r3, [r7, #0]
 800126c:	4603      	mov	r3, r0
 800126e:	73fb      	strb	r3, [r7, #15]
 8001270:	7bfb      	ldrb	r3, [r7, #15]
 8001272:	2b00      	cmp	r3, #0
 8001274:	d003      	beq.n	800127e <_out_char+0x1e>
 8001276:	7bfb      	ldrb	r3, [r7, #15]
 8001278:	4618      	mov	r0, r3
 800127a:	f7ff fea5 	bl	8000fc8 <_putchar>
 800127e:	bf00      	nop
 8001280:	3710      	adds	r7, #16
 8001282:	46bd      	mov	sp, r7
 8001284:	bd80      	pop	{r7, pc}

08001286 <_strnlen_s>:
 8001286:	b480      	push	{r7}
 8001288:	b085      	sub	sp, #20
 800128a:	af00      	add	r7, sp, #0
 800128c:	6078      	str	r0, [r7, #4]
 800128e:	6039      	str	r1, [r7, #0]
 8001290:	687b      	ldr	r3, [r7, #4]
 8001292:	60fb      	str	r3, [r7, #12]
 8001294:	e002      	b.n	800129c <_strnlen_s+0x16>
 8001296:	68fb      	ldr	r3, [r7, #12]
 8001298:	3301      	adds	r3, #1
 800129a:	60fb      	str	r3, [r7, #12]
 800129c:	68fb      	ldr	r3, [r7, #12]
 800129e:	781b      	ldrb	r3, [r3, #0]
 80012a0:	2b00      	cmp	r3, #0
 80012a2:	d004      	beq.n	80012ae <_strnlen_s+0x28>
 80012a4:	683b      	ldr	r3, [r7, #0]
 80012a6:	1e5a      	subs	r2, r3, #1
 80012a8:	603a      	str	r2, [r7, #0]
 80012aa:	2b00      	cmp	r3, #0
 80012ac:	d1f3      	bne.n	8001296 <_strnlen_s+0x10>
 80012ae:	68fa      	ldr	r2, [r7, #12]
 80012b0:	687b      	ldr	r3, [r7, #4]
 80012b2:	1ad3      	subs	r3, r2, r3
 80012b4:	4618      	mov	r0, r3
 80012b6:	3714      	adds	r7, #20
 80012b8:	46bd      	mov	sp, r7
 80012ba:	f85d 7b04 	ldr.w	r7, [sp], #4
 80012be:	4770      	bx	lr

080012c0 <_is_digit>:
 80012c0:	b480      	push	{r7}
 80012c2:	b083      	sub	sp, #12
 80012c4:	af00      	add	r7, sp, #0
 80012c6:	4603      	mov	r3, r0
 80012c8:	71fb      	strb	r3, [r7, #7]
 80012ca:	79fb      	ldrb	r3, [r7, #7]
 80012cc:	2b2f      	cmp	r3, #47	; 0x2f
 80012ce:	d904      	bls.n	80012da <_is_digit+0x1a>
 80012d0:	79fb      	ldrb	r3, [r7, #7]
 80012d2:	2b39      	cmp	r3, #57	; 0x39
 80012d4:	d801      	bhi.n	80012da <_is_digit+0x1a>
 80012d6:	2301      	movs	r3, #1
 80012d8:	e000      	b.n	80012dc <_is_digit+0x1c>
 80012da:	2300      	movs	r3, #0
 80012dc:	f003 0301 	and.w	r3, r3, #1
 80012e0:	b2db      	uxtb	r3, r3
 80012e2:	4618      	mov	r0, r3
 80012e4:	370c      	adds	r7, #12
 80012e6:	46bd      	mov	sp, r7
 80012e8:	f85d 7b04 	ldr.w	r7, [sp], #4
 80012ec:	4770      	bx	lr

080012ee <_atoi>:
 80012ee:	b580      	push	{r7, lr}
 80012f0:	b084      	sub	sp, #16
 80012f2:	af00      	add	r7, sp, #0
 80012f4:	6078      	str	r0, [r7, #4]
 80012f6:	2300      	movs	r3, #0
 80012f8:	60fb      	str	r3, [r7, #12]
 80012fa:	e00e      	b.n	800131a <_atoi+0x2c>
 80012fc:	68fa      	ldr	r2, [r7, #12]
 80012fe:	4613      	mov	r3, r2
 8001300:	009b      	lsls	r3, r3, #2
 8001302:	4413      	add	r3, r2
 8001304:	005b      	lsls	r3, r3, #1
 8001306:	4618      	mov	r0, r3
 8001308:	687b      	ldr	r3, [r7, #4]
 800130a:	681b      	ldr	r3, [r3, #0]
 800130c:	1c59      	adds	r1, r3, #1
 800130e:	687a      	ldr	r2, [r7, #4]
 8001310:	6011      	str	r1, [r2, #0]
 8001312:	781b      	ldrb	r3, [r3, #0]
 8001314:	4403      	add	r3, r0
 8001316:	3b30      	subs	r3, #48	; 0x30
 8001318:	60fb      	str	r3, [r7, #12]
 800131a:	687b      	ldr	r3, [r7, #4]
 800131c:	681b      	ldr	r3, [r3, #0]
 800131e:	781b      	ldrb	r3, [r3, #0]
 8001320:	4618      	mov	r0, r3
 8001322:	f7ff ffcd 	bl	80012c0 <_is_digit>
 8001326:	4603      	mov	r3, r0
 8001328:	2b00      	cmp	r3, #0
 800132a:	d1e7      	bne.n	80012fc <_atoi+0xe>
 800132c:	68fb      	ldr	r3, [r7, #12]
 800132e:	4618      	mov	r0, r3
 8001330:	3710      	adds	r7, #16
 8001332:	46bd      	mov	sp, r7
 8001334:	bd80      	pop	{r7, pc}

08001336 <_out_rev>:
 8001336:	b590      	push	{r4, r7, lr}
 8001338:	b087      	sub	sp, #28
 800133a:	af00      	add	r7, sp, #0
 800133c:	60f8      	str	r0, [r7, #12]
 800133e:	60b9      	str	r1, [r7, #8]
 8001340:	607a      	str	r2, [r7, #4]
 8001342:	603b      	str	r3, [r7, #0]
 8001344:	687b      	ldr	r3, [r7, #4]
 8001346:	613b      	str	r3, [r7, #16]
 8001348:	6b7b      	ldr	r3, [r7, #52]	; 0x34
 800134a:	f003 0302 	and.w	r3, r3, #2
 800134e:	2b00      	cmp	r3, #0
 8001350:	d125      	bne.n	800139e <_out_rev+0x68>
 8001352:	6b7b      	ldr	r3, [r7, #52]	; 0x34
 8001354:	f003 0301 	and.w	r3, r3, #1
 8001358:	2b00      	cmp	r3, #0
 800135a:	d120      	bne.n	800139e <_out_rev+0x68>
 800135c:	6afb      	ldr	r3, [r7, #44]	; 0x2c
 800135e:	617b      	str	r3, [r7, #20]
 8001360:	e00a      	b.n	8001378 <_out_rev+0x42>
 8001362:	687a      	ldr	r2, [r7, #4]
 8001364:	1c53      	adds	r3, r2, #1
 8001366:	607b      	str	r3, [r7, #4]
 8001368:	68fc      	ldr	r4, [r7, #12]
 800136a:	683b      	ldr	r3, [r7, #0]
 800136c:	68b9      	ldr	r1, [r7, #8]
 800136e:	2020      	movs	r0, #32
 8001370:	47a0      	blx	r4
 8001372:	697b      	ldr	r3, [r7, #20]
 8001374:	3301      	adds	r3, #1
 8001376:	617b      	str	r3, [r7, #20]
 8001378:	697a      	ldr	r2, [r7, #20]
 800137a:	6b3b      	ldr	r3, [r7, #48]	; 0x30
 800137c:	429a      	cmp	r2, r3
 800137e:	d3f0      	bcc.n	8001362 <_out_rev+0x2c>
 8001380:	e00d      	b.n	800139e <_out_rev+0x68>
 8001382:	6afb      	ldr	r3, [r7, #44]	; 0x2c
 8001384:	3b01      	subs	r3, #1
 8001386:	62fb      	str	r3, [r7, #44]	; 0x2c
 8001388:	6aba      	ldr	r2, [r7, #40]	; 0x28
 800138a:	6afb      	ldr	r3, [r7, #44]	; 0x2c
 800138c:	4413      	add	r3, r2
 800138e:	7818      	ldrb	r0, [r3, #0]
 8001390:	687a      	ldr	r2, [r7, #4]
 8001392:	1c53      	adds	r3, r2, #1
 8001394:	607b      	str	r3, [r7, #4]
 8001396:	68fc      	ldr	r4, [r7, #12]
 8001398:	683b      	ldr	r3, [r7, #0]
 800139a:	68b9      	ldr	r1, [r7, #8]
 800139c:	47a0      	blx	r4
 800139e:	6afb      	ldr	r3, [r7, #44]	; 0x2c
 80013a0:	2b00      	cmp	r3, #0
 80013a2:	d1ee      	bne.n	8001382 <_out_rev+0x4c>
 80013a4:	6b7b      	ldr	r3, [r7, #52]	; 0x34
 80013a6:	f003 0302 	and.w	r3, r3, #2
 80013aa:	2b00      	cmp	r3, #0
 80013ac:	d00e      	beq.n	80013cc <_out_rev+0x96>
 80013ae:	e007      	b.n	80013c0 <_out_rev+0x8a>
 80013b0:	687a      	ldr	r2, [r7, #4]
 80013b2:	1c53      	adds	r3, r2, #1
 80013b4:	607b      	str	r3, [r7, #4]
 80013b6:	68fc      	ldr	r4, [r7, #12]
 80013b8:	683b      	ldr	r3, [r7, #0]
 80013ba:	68b9      	ldr	r1, [r7, #8]
 80013bc:	2020      	movs	r0, #32
 80013be:	47a0      	blx	r4
 80013c0:	687a      	ldr	r2, [r7, #4]
 80013c2:	693b      	ldr	r3, [r7, #16]
 80013c4:	1ad3      	subs	r3, r2, r3
 80013c6:	6b3a      	ldr	r2, [r7, #48]	; 0x30
 80013c8:	429a      	cmp	r2, r3
 80013ca:	d8f1      	bhi.n	80013b0 <_out_rev+0x7a>
 80013cc:	687b      	ldr	r3, [r7, #4]
 80013ce:	4618      	mov	r0, r3
 80013d0:	371c      	adds	r7, #28
 80013d2:	46bd      	mov	sp, r7
 80013d4:	bd90      	pop	{r4, r7, pc}

080013d6 <_ntoa_format>:
 80013d6:	b580      	push	{r7, lr}
 80013d8:	b088      	sub	sp, #32
 80013da:	af04      	add	r7, sp, #16
 80013dc:	60f8      	str	r0, [r7, #12]
 80013de:	60b9      	str	r1, [r7, #8]
 80013e0:	607a      	str	r2, [r7, #4]
 80013e2:	603b      	str	r3, [r7, #0]
 80013e4:	6b3b      	ldr	r3, [r7, #48]	; 0x30
 80013e6:	f003 0302 	and.w	r3, r3, #2
 80013ea:	2b00      	cmp	r3, #0
 80013ec:	d136      	bne.n	800145c <_ntoa_format+0x86>
 80013ee:	6afb      	ldr	r3, [r7, #44]	; 0x2c
 80013f0:	2b00      	cmp	r3, #0
 80013f2:	d018      	beq.n	8001426 <_ntoa_format+0x50>
 80013f4:	6b3b      	ldr	r3, [r7, #48]	; 0x30
 80013f6:	f003 0301 	and.w	r3, r3, #1
 80013fa:	2b00      	cmp	r3, #0
 80013fc:	d013      	beq.n	8001426 <_ntoa_format+0x50>
 80013fe:	f897 3020 	ldrb.w	r3, [r7, #32]
 8001402:	2b00      	cmp	r3, #0
 8001404:	d104      	bne.n	8001410 <_ntoa_format+0x3a>
 8001406:	6b3b      	ldr	r3, [r7, #48]	; 0x30
 8001408:	f003 030c 	and.w	r3, r3, #12
 800140c:	2b00      	cmp	r3, #0
 800140e:	d00a      	beq.n	8001426 <_ntoa_format+0x50>
 8001410:	6afb      	ldr	r3, [r7, #44]	; 0x2c
 8001412:	3b01      	subs	r3, #1
 8001414:	62fb      	str	r3, [r7, #44]	; 0x2c
 8001416:	e006      	b.n	8001426 <_ntoa_format+0x50>
 8001418:	69fb      	ldr	r3, [r7, #28]
 800141a:	1c5a      	adds	r2, r3, #1
 800141c:	61fa      	str	r2, [r7, #28]
 800141e:	69ba      	ldr	r2, [r7, #24]
 8001420:	4413      	add	r3, r2
 8001422:	2230      	movs	r2, #48	; 0x30
 8001424:	701a      	strb	r2, [r3, #0]
 8001426:	69fa      	ldr	r2, [r7, #28]
 8001428:	6abb      	ldr	r3, [r7, #40]	; 0x28
 800142a:	429a      	cmp	r2, r3
 800142c:	d20a      	bcs.n	8001444 <_ntoa_format+0x6e>
 800142e:	69fb      	ldr	r3, [r7, #28]
 8001430:	2b1f      	cmp	r3, #31
 8001432:	d9f1      	bls.n	8001418 <_ntoa_format+0x42>
 8001434:	e006      	b.n	8001444 <_ntoa_format+0x6e>
 8001436:	69fb      	ldr	r3, [r7, #28]
 8001438:	1c5a      	adds	r2, r3, #1
 800143a:	61fa      	str	r2, [r7, #28]
 800143c:	69ba      	ldr	r2, [r7, #24]
 800143e:	4413      	add	r3, r2
 8001440:	2230      	movs	r2, #48	; 0x30
 8001442:	701a      	strb	r2, [r3, #0]
 8001444:	6b3b      	ldr	r3, [r7, #48]	; 0x30
 8001446:	f003 0301 	and.w	r3, r3, #1
 800144a:	2b00      	cmp	r3, #0
 800144c:	d006      	beq.n	800145c <_ntoa_format+0x86>
 800144e:	69fa      	ldr	r2, [r7, #28]
 8001450:	6afb      	ldr	r3, [r7, #44]	; 0x2c
 8001452:	429a      	cmp	r2, r3
 8001454:	d202      	bcs.n	800145c <_ntoa_format+0x86>
 8001456:	69fb      	ldr	r3, [r7, #28]
 8001458:	2b1f      	cmp	r3, #31
 800145a:	d9ec      	bls.n	8001436 <_ntoa_format+0x60>
 800145c:	6b3b      	ldr	r3, [r7, #48]	; 0x30
 800145e:	f003 0310 	and.w	r3, r3, #16
 8001462:	2b00      	cmp	r3, #0
 8001464:	d058      	beq.n	8001518 <_ntoa_format+0x142>
 8001466:	6b3b      	ldr	r3, [r7, #48]	; 0x30
 8001468:	f403 6380 	and.w	r3, r3, #1024	; 0x400
 800146c:	2b00      	cmp	r3, #0
 800146e:	d116      	bne.n	800149e <_ntoa_format+0xc8>
 8001470:	69fb      	ldr	r3, [r7, #28]
 8001472:	2b00      	cmp	r3, #0
 8001474:	d013      	beq.n	800149e <_ntoa_format+0xc8>
 8001476:	69fa      	ldr	r2, [r7, #28]
 8001478:	6abb      	ldr	r3, [r7, #40]	; 0x28
 800147a:	429a      	cmp	r2, r3
 800147c:	d003      	beq.n	8001486 <_ntoa_format+0xb0>
 800147e:	69fa      	ldr	r2, [r7, #28]
 8001480:	6afb      	ldr	r3, [r7, #44]	; 0x2c
 8001482:	429a      	cmp	r2, r3
 8001484:	d10b      	bne.n	800149e <_ntoa_format+0xc8>
 8001486:	69fb      	ldr	r3, [r7, #28]
 8001488:	3b01      	subs	r3, #1
 800148a:	61fb      	str	r3, [r7, #28]
 800148c:	69fb      	ldr	r3, [r7, #28]
 800148e:	2b00      	cmp	r3, #0
 8001490:	d005      	beq.n	800149e <_ntoa_format+0xc8>
 8001492:	6a7b      	ldr	r3, [r7, #36]	; 0x24
 8001494:	2b10      	cmp	r3, #16
 8001496:	d102      	bne.n	800149e <_ntoa_format+0xc8>
 8001498:	69fb      	ldr	r3, [r7, #28]
 800149a:	3b01      	subs	r3, #1
 800149c:	61fb      	str	r3, [r7, #28]
 800149e:	6a7b      	ldr	r3, [r7, #36]	; 0x24
 80014a0:	2b10      	cmp	r3, #16
 80014a2:	d10f      	bne.n	80014c4 <_ntoa_format+0xee>
 80014a4:	6b3b      	ldr	r3, [r7, #48]	; 0x30
 80014a6:	f003 0320 	and.w	r3, r3, #32
 80014aa:	2b00      	cmp	r3, #0
 80014ac:	d10a      	bne.n	80014c4 <_ntoa_format+0xee>
 80014ae:	69fb      	ldr	r3, [r7, #28]
 80014b0:	2b1f      	cmp	r3, #31
 80014b2:	d807      	bhi.n	80014c4 <_ntoa_format+0xee>
 80014b4:	69fb      	ldr	r3, [r7, #28]
 80014b6:	1c5a      	adds	r2, r3, #1
 80014b8:	61fa      	str	r2, [r7, #28]
 80014ba:	69ba      	ldr	r2, [r7, #24]
 80014bc:	4413      	add	r3, r2
 80014be:	2278      	movs	r2, #120	; 0x78
 80014c0:	701a      	strb	r2, [r3, #0]
 80014c2:	e01f      	b.n	8001504 <_ntoa_format+0x12e>
 80014c4:	6a7b      	ldr	r3, [r7, #36]	; 0x24
 80014c6:	2b10      	cmp	r3, #16
 80014c8:	d10f      	bne.n	80014ea <_ntoa_format+0x114>
 80014ca:	6b3b      	ldr	r3, [r7, #48]	; 0x30
 80014cc:	f003 0320 	and.w	r3, r3, #32
 80014d0:	2b00      	cmp	r3, #0
 80014d2:	d00a      	beq.n	80014ea <_ntoa_format+0x114>
 80014d4:	69fb      	ldr	r3, [r7, #28]
 80014d6:	2b1f      	cmp	r3, #31
 80014d8:	d807      	bhi.n	80014ea <_ntoa_format+0x114>
 80014da:	69fb      	ldr	r3, [r7, #28]
 80014dc:	1c5a      	adds	r2, r3, #1
 80014de:	61fa      	str	r2, [r7, #28]
 80014e0:	69ba      	ldr	r2, [r7, #24]
 80014e2:	4413      	add	r3, r2
 80014e4:	2258      	movs	r2, #88	; 0x58
 80014e6:	701a      	strb	r2, [r3, #0]
 80014e8:	e00c      	b.n	8001504 <_ntoa_format+0x12e>
 80014ea:	6a7b      	ldr	r3, [r7, #36]	; 0x24
 80014ec:	2b02      	cmp	r3, #2
 80014ee:	d109      	bne.n	8001504 <_ntoa_format+0x12e>
 80014f0:	69fb      	ldr	r3, [r7, #28]
 80014f2:	2b1f      	cmp	r3, #31
 80014f4:	d806      	bhi.n	8001504 <_ntoa_format+0x12e>
 80014f6:	69fb      	ldr	r3, [r7, #28]
 80014f8:	1c5a      	adds	r2, r3, #1
 80014fa:	61fa      	str	r2, [r7, #28]
 80014fc:	69ba      	ldr	r2, [r7, #24]
 80014fe:	4413      	add	r3, r2
 8001500:	2262      	movs	r2, #98	; 0x62
 8001502:	701a      	strb	r2, [r3, #0]
 8001504:	69fb      	ldr	r3, [r7, #28]
 8001506:	2b1f      	cmp	r3, #31
 8001508:	d806      	bhi.n	8001518 <_ntoa_format+0x142>
 800150a:	69fb      	ldr	r3, [r7, #28]
 800150c:	1c5a      	adds	r2, r3, #1
 800150e:	61fa      	str	r2, [r7, #28]
 8001510:	69ba      	ldr	r2, [r7, #24]
 8001512:	4413      	add	r3, r2
 8001514:	2230      	movs	r2, #48	; 0x30
 8001516:	701a      	strb	r2, [r3, #0]
 8001518:	69fb      	ldr	r3, [r7, #28]
 800151a:	2b1f      	cmp	r3, #31
 800151c:	d824      	bhi.n	8001568 <_ntoa_format+0x192>
 800151e:	f897 3020 	ldrb.w	r3, [r7, #32]
 8001522:	2b00      	cmp	r3, #0
 8001524:	d007      	beq.n	8001536 <_ntoa_format+0x160>
 8001526:	69fb      	ldr	r3, [r7, #28]
 8001528:	1c5a      	adds	r2, r3, #1
 800152a:	61fa      	str	r2, [r7, #28]
 800152c:	69ba      	ldr	r2, [r7, #24]
 800152e:	4413      	add	r3, r2
 8001530:	222d      	movs	r2, #45	; 0x2d
 8001532:	701a      	strb	r2, [r3, #0]
 8001534:	e018      	b.n	8001568 <_ntoa_format+0x192>
 8001536:	6b3b      	ldr	r3, [r7, #48]	; 0x30
 8001538:	f003 0304 	and.w	r3, r3, #4
 800153c:	2b00      	cmp	r3, #0
 800153e:	d007      	beq.n	8001550 <_ntoa_format+0x17a>
 8001540:	69fb      	ldr	r3, [r7, #28]
 8001542:	1c5a      	adds	r2, r3, #1
 8001544:	61fa      	str	r2, [r7, #28]
 8001546:	69ba      	ldr	r2, [r7, #24]
 8001548:	4413      	add	r3, r2
 800154a:	222b      	movs	r2, #43	; 0x2b
 800154c:	701a      	strb	r2, [r3, #0]
 800154e:	e00b      	b.n	8001568 <_ntoa_format+0x192>
 8001550:	6b3b      	ldr	r3, [r7, #48]	; 0x30
 8001552:	f003 0308 	and.w	r3, r3, #8
 8001556:	2b00      	cmp	r3, #0
 8001558:	d006      	beq.n	8001568 <_ntoa_format+0x192>
 800155a:	69fb      	ldr	r3, [r7, #28]
 800155c:	1c5a      	adds	r2, r3, #1
 800155e:	61fa      	str	r2, [r7, #28]
 8001560:	69ba      	ldr	r2, [r7, #24]
 8001562:	4413      	add	r3, r2
 8001564:	2220      	movs	r2, #32
 8001566:	701a      	strb	r2, [r3, #0]
 8001568:	6b3b      	ldr	r3, [r7, #48]	; 0x30
 800156a:	9303      	str	r3, [sp, #12]
 800156c:	6afb      	ldr	r3, [r7, #44]	; 0x2c
 800156e:	9302      	str	r3, [sp, #8]
 8001570:	69fb      	ldr	r3, [r7, #28]
 8001572:	9301      	str	r3, [sp, #4]
 8001574:	69bb      	ldr	r3, [r7, #24]
 8001576:	9300      	str	r3, [sp, #0]
 8001578:	683b      	ldr	r3, [r7, #0]
 800157a:	687a      	ldr	r2, [r7, #4]
 800157c:	68b9      	ldr	r1, [r7, #8]
 800157e:	68f8      	ldr	r0, [r7, #12]
 8001580:	f7ff fed9 	bl	8001336 <_out_rev>
 8001584:	4603      	mov	r3, r0
 8001586:	4618      	mov	r0, r3
 8001588:	3710      	adds	r7, #16
 800158a:	46bd      	mov	sp, r7
 800158c:	bd80      	pop	{r7, pc}

0800158e <_ntoa_long>:
 800158e:	b580      	push	{r7, lr}
 8001590:	b096      	sub	sp, #88	; 0x58
 8001592:	af08      	add	r7, sp, #32
 8001594:	60f8      	str	r0, [r7, #12]
 8001596:	60b9      	str	r1, [r7, #8]
 8001598:	607a      	str	r2, [r7, #4]
 800159a:	603b      	str	r3, [r7, #0]
 800159c:	2300      	movs	r3, #0
 800159e:	637b      	str	r3, [r7, #52]	; 0x34
 80015a0:	6c3b      	ldr	r3, [r7, #64]	; 0x40
 80015a2:	2b00      	cmp	r3, #0
 80015a4:	d103      	bne.n	80015ae <_ntoa_long+0x20>
 80015a6:	6d7b      	ldr	r3, [r7, #84]	; 0x54
 80015a8:	f023 0310 	bic.w	r3, r3, #16
 80015ac:	657b      	str	r3, [r7, #84]	; 0x54
 80015ae:	6d7b      	ldr	r3, [r7, #84]	; 0x54
 80015b0:	f403 6380 	and.w	r3, r3, #1024	; 0x400
 80015b4:	2b00      	cmp	r3, #0
 80015b6:	d002      	beq.n	80015be <_ntoa_long+0x30>
 80015b8:	6c3b      	ldr	r3, [r7, #64]	; 0x40
 80015ba:	2b00      	cmp	r3, #0
 80015bc:	d033      	beq.n	8001626 <_ntoa_long+0x98>
 80015be:	6c3b      	ldr	r3, [r7, #64]	; 0x40
 80015c0:	6cba      	ldr	r2, [r7, #72]	; 0x48
 80015c2:	fbb3 f2f2 	udiv	r2, r3, r2
 80015c6:	6cb9      	ldr	r1, [r7, #72]	; 0x48
 80015c8:	fb01 f202 	mul.w	r2, r1, r2
 80015cc:	1a9b      	subs	r3, r3, r2
 80015ce:	f887 3033 	strb.w	r3, [r7, #51]	; 0x33
 80015d2:	f897 3033 	ldrb.w	r3, [r7, #51]	; 0x33
 80015d6:	2b09      	cmp	r3, #9
 80015d8:	d804      	bhi.n	80015e4 <_ntoa_long+0x56>
 80015da:	f897 3033 	ldrb.w	r3, [r7, #51]	; 0x33
 80015de:	3330      	adds	r3, #48	; 0x30
 80015e0:	b2da      	uxtb	r2, r3
 80015e2:	e00d      	b.n	8001600 <_ntoa_long+0x72>
 80015e4:	6d7b      	ldr	r3, [r7, #84]	; 0x54
 80015e6:	f003 0320 	and.w	r3, r3, #32
 80015ea:	2b00      	cmp	r3, #0
 80015ec:	d001      	beq.n	80015f2 <_ntoa_long+0x64>
 80015ee:	2241      	movs	r2, #65	; 0x41
 80015f0:	e000      	b.n	80015f4 <_ntoa_long+0x66>
 80015f2:	2261      	movs	r2, #97	; 0x61
 80015f4:	f897 3033 	ldrb.w	r3, [r7, #51]	; 0x33
 80015f8:	4413      	add	r3, r2
 80015fa:	b2db      	uxtb	r3, r3
 80015fc:	3b0a      	subs	r3, #10
 80015fe:	b2da      	uxtb	r2, r3
 8001600:	6b7b      	ldr	r3, [r7, #52]	; 0x34
 8001602:	1c59      	adds	r1, r3, #1
 8001604:	6379      	str	r1, [r7, #52]	; 0x34
 8001606:	f107 0138 	add.w	r1, r7, #56	; 0x38
 800160a:	440b      	add	r3, r1
 800160c:	f803 2c28 	strb.w	r2, [r3, #-40]
 8001610:	6c3a      	ldr	r2, [r7, #64]	; 0x40
 8001612:	6cbb      	ldr	r3, [r7, #72]	; 0x48
 8001614:	fbb2 f3f3 	udiv	r3, r2, r3
 8001618:	643b      	str	r3, [r7, #64]	; 0x40
 800161a:	6c3b      	ldr	r3, [r7, #64]	; 0x40
 800161c:	2b00      	cmp	r3, #0
 800161e:	d002      	beq.n	8001626 <_ntoa_long+0x98>
 8001620:	6b7b      	ldr	r3, [r7, #52]	; 0x34
 8001622:	2b1f      	cmp	r3, #31
 8001624:	d9cb      	bls.n	80015be <_ntoa_long+0x30>
 8001626:	6d7b      	ldr	r3, [r7, #84]	; 0x54
 8001628:	9306      	str	r3, [sp, #24]
 800162a:	6d3b      	ldr	r3, [r7, #80]	; 0x50
 800162c:	9305      	str	r3, [sp, #20]
 800162e:	6cfb      	ldr	r3, [r7, #76]	; 0x4c
 8001630:	9304      	str	r3, [sp, #16]
 8001632:	6cbb      	ldr	r3, [r7, #72]	; 0x48
 8001634:	9303      	str	r3, [sp, #12]
 8001636:	f897 3044 	ldrb.w	r3, [r7, #68]	; 0x44
 800163a:	9302      	str	r3, [sp, #8]
 800163c:	6b7b      	ldr	r3, [r7, #52]	; 0x34
 800163e:	9301      	str	r3, [sp, #4]
 8001640:	f107 0310 	add.w	r3, r7, #16
 8001644:	9300      	str	r3, [sp, #0]
 8001646:	683b      	ldr	r3, [r7, #0]
 8001648:	687a      	ldr	r2, [r7, #4]
 800164a:	68b9      	ldr	r1, [r7, #8]
 800164c:	68f8      	ldr	r0, [r7, #12]
 800164e:	f7ff fec2 	bl	80013d6 <_ntoa_format>
 8001652:	4603      	mov	r3, r0
 8001654:	4618      	mov	r0, r3
 8001656:	3738      	adds	r7, #56	; 0x38
 8001658:	46bd      	mov	sp, r7
 800165a:	bd80      	pop	{r7, pc}

0800165c <_ntoa_long_long>:
 800165c:	b590      	push	{r4, r7, lr}
 800165e:	b097      	sub	sp, #92	; 0x5c
 8001660:	af08      	add	r7, sp, #32
 8001662:	60f8      	str	r0, [r7, #12]
 8001664:	60b9      	str	r1, [r7, #8]
 8001666:	607a      	str	r2, [r7, #4]
 8001668:	603b      	str	r3, [r7, #0]
 800166a:	2300      	movs	r3, #0
 800166c:	637b      	str	r3, [r7, #52]	; 0x34
 800166e:	e9d7 3412 	ldrd	r3, r4, [r7, #72]	; 0x48
 8001672:	4323      	orrs	r3, r4
 8001674:	d103      	bne.n	800167e <_ntoa_long_long+0x22>
 8001676:	6ebb      	ldr	r3, [r7, #104]	; 0x68
 8001678:	f023 0310 	bic.w	r3, r3, #16
 800167c:	66bb      	str	r3, [r7, #104]	; 0x68
 800167e:	6ebb      	ldr	r3, [r7, #104]	; 0x68
 8001680:	f403 6380 	and.w	r3, r3, #1024	; 0x400
 8001684:	2b00      	cmp	r3, #0
 8001686:	d003      	beq.n	8001690 <_ntoa_long_long+0x34>
 8001688:	e9d7 3412 	ldrd	r3, r4, [r7, #72]	; 0x48
 800168c:	4323      	orrs	r3, r4
 800168e:	d039      	beq.n	8001704 <_ntoa_long_long+0xa8>
 8001690:	e9d7 0112 	ldrd	r0, r1, [r7, #72]	; 0x48
 8001694:	e9d7 2316 	ldrd	r2, r3, [r7, #88]	; 0x58
 8001698:	f7ff fa40 	bl	8000b1c <__aeabi_uldivmod>
 800169c:	461c      	mov	r4, r3
 800169e:	4613      	mov	r3, r2
 80016a0:	f887 3033 	strb.w	r3, [r7, #51]	; 0x33
 80016a4:	f897 3033 	ldrb.w	r3, [r7, #51]	; 0x33
 80016a8:	2b09      	cmp	r3, #9
 80016aa:	d804      	bhi.n	80016b6 <_ntoa_long_long+0x5a>
 80016ac:	f897 3033 	ldrb.w	r3, [r7, #51]	; 0x33
 80016b0:	3330      	adds	r3, #48	; 0x30
 80016b2:	b2da      	uxtb	r2, r3
 80016b4:	e00d      	b.n	80016d2 <_ntoa_long_long+0x76>
 80016b6:	6ebb      	ldr	r3, [r7, #104]	; 0x68
 80016b8:	f003 0320 	and.w	r3, r3, #32
 80016bc:	2b00      	cmp	r3, #0
 80016be:	d001      	beq.n	80016c4 <_ntoa_long_long+0x68>
 80016c0:	2241      	movs	r2, #65	; 0x41
 80016c2:	e000      	b.n	80016c6 <_ntoa_long_long+0x6a>
 80016c4:	2261      	movs	r2, #97	; 0x61
 80016c6:	f897 3033 	ldrb.w	r3, [r7, #51]	; 0x33
 80016ca:	4413      	add	r3, r2
 80016cc:	b2db      	uxtb	r3, r3
 80016ce:	3b0a      	subs	r3, #10
 80016d0:	b2da      	uxtb	r2, r3
 80016d2:	6b7b      	ldr	r3, [r7, #52]	; 0x34
 80016d4:	1c59      	adds	r1, r3, #1
 80016d6:	6379      	str	r1, [r7, #52]	; 0x34
 80016d8:	f107 0138 	add.w	r1, r7, #56	; 0x38
 80016dc:	440b      	add	r3, r1
 80016de:	f803 2c28 	strb.w	r2, [r3, #-40]
 80016e2:	e9d7 2316 	ldrd	r2, r3, [r7, #88]	; 0x58
 80016e6:	e9d7 0112 	ldrd	r0, r1, [r7, #72]	; 0x48
 80016ea:	f7ff fa17 	bl	8000b1c <__aeabi_uldivmod>
 80016ee:	4603      	mov	r3, r0
 80016f0:	460c      	mov	r4, r1
 80016f2:	e9c7 3412 	strd	r3, r4, [r7, #72]	; 0x48
 80016f6:	e9d7 3412 	ldrd	r3, r4, [r7, #72]	; 0x48
 80016fa:	4323      	orrs	r3, r4
 80016fc:	d002      	beq.n	8001704 <_ntoa_long_long+0xa8>
 80016fe:	6b7b      	ldr	r3, [r7, #52]	; 0x34
 8001700:	2b1f      	cmp	r3, #31
 8001702:	d9c5      	bls.n	8001690 <_ntoa_long_long+0x34>
 8001704:	6dbb      	ldr	r3, [r7, #88]	; 0x58
 8001706:	6eba      	ldr	r2, [r7, #104]	; 0x68
 8001708:	9206      	str	r2, [sp, #24]
 800170a:	6e7a      	ldr	r2, [r7, #100]	; 0x64
 800170c:	9205      	str	r2, [sp, #20]
 800170e:	6e3a      	ldr	r2, [r7, #96]	; 0x60
 8001710:	9204      	str	r2, [sp, #16]
 8001712:	9303      	str	r3, [sp, #12]
 8001714:	f897 3050 	ldrb.w	r3, [r7, #80]	; 0x50
 8001718:	9302      	str	r3, [sp, #8]
 800171a:	6b7b      	ldr	r3, [r7, #52]	; 0x34
 800171c:	9301      	str	r3, [sp, #4]
 800171e:	f107 0310 	add.w	r3, r7, #16
 8001722:	9300      	str	r3, [sp, #0]
 8001724:	683b      	ldr	r3, [r7, #0]
 8001726:	687a      	ldr	r2, [r7, #4]
 8001728:	68b9      	ldr	r1, [r7, #8]
 800172a:	68f8      	ldr	r0, [r7, #12]
 800172c:	f7ff fe53 	bl	80013d6 <_ntoa_format>
 8001730:	4603      	mov	r3, r0
 8001732:	4618      	mov	r0, r3
 8001734:	373c      	adds	r7, #60	; 0x3c
 8001736:	46bd      	mov	sp, r7
 8001738:	bd90      	pop	{r4, r7, pc}
 800173a:	0000      	movs	r0, r0
 800173c:	0000      	movs	r0, r0
	...

08001740 <_ftoa>:
 8001740:	b590      	push	{r4, r7, lr}
 8001742:	b09d      	sub	sp, #116	; 0x74
 8001744:	af04      	add	r7, sp, #16
 8001746:	6178      	str	r0, [r7, #20]
 8001748:	6139      	str	r1, [r7, #16]
 800174a:	60fa      	str	r2, [r7, #12]
 800174c:	60bb      	str	r3, [r7, #8]
 800174e:	ed87 0b00 	vstr	d0, [r7]
 8001752:	2300      	movs	r3, #0
 8001754:	65fb      	str	r3, [r7, #92]	; 0x5c
 8001756:	f04f 0300 	mov.w	r3, #0
 800175a:	f04f 0400 	mov.w	r4, #0
 800175e:	e9c7 3410 	strd	r3, r4, [r7, #64]	; 0x40
 8001762:	e9d7 2300 	ldrd	r2, r3, [r7]
 8001766:	e9d7 0100 	ldrd	r0, r1, [r7]
 800176a:	f7ff f95d 	bl	8000a28 <__aeabi_dcmpeq>
 800176e:	4603      	mov	r3, r0
 8001770:	2b00      	cmp	r3, #0
 8001772:	d10f      	bne.n	8001794 <_ftoa+0x54>
 8001774:	6fbb      	ldr	r3, [r7, #120]	; 0x78
 8001776:	9303      	str	r3, [sp, #12]
 8001778:	6f7b      	ldr	r3, [r7, #116]	; 0x74
 800177a:	9302      	str	r3, [sp, #8]
 800177c:	2303      	movs	r3, #3
 800177e:	9301      	str	r3, [sp, #4]
 8001780:	4baf      	ldr	r3, [pc, #700]	; (8001a40 <_ftoa+0x300>)
 8001782:	9300      	str	r3, [sp, #0]
 8001784:	68bb      	ldr	r3, [r7, #8]
 8001786:	68fa      	ldr	r2, [r7, #12]
 8001788:	6939      	ldr	r1, [r7, #16]
 800178a:	6978      	ldr	r0, [r7, #20]
 800178c:	f7ff fdd3 	bl	8001336 <_out_rev>
 8001790:	4603      	mov	r3, r0
 8001792:	e237      	b.n	8001c04 <_ftoa+0x4c4>
 8001794:	f04f 32ff 	mov.w	r2, #4294967295
 8001798:	f46f 1380 	mvn.w	r3, #1048576	; 0x100000
 800179c:	e9d7 0100 	ldrd	r0, r1, [r7]
 80017a0:	f7ff f94c 	bl	8000a3c <__aeabi_dcmplt>
 80017a4:	4603      	mov	r3, r0
 80017a6:	2b00      	cmp	r3, #0
 80017a8:	d00f      	beq.n	80017ca <_ftoa+0x8a>
 80017aa:	6fbb      	ldr	r3, [r7, #120]	; 0x78
 80017ac:	9303      	str	r3, [sp, #12]
 80017ae:	6f7b      	ldr	r3, [r7, #116]	; 0x74
 80017b0:	9302      	str	r3, [sp, #8]
 80017b2:	2304      	movs	r3, #4
 80017b4:	9301      	str	r3, [sp, #4]
 80017b6:	4ba3      	ldr	r3, [pc, #652]	; (8001a44 <_ftoa+0x304>)
 80017b8:	9300      	str	r3, [sp, #0]
 80017ba:	68bb      	ldr	r3, [r7, #8]
 80017bc:	68fa      	ldr	r2, [r7, #12]
 80017be:	6939      	ldr	r1, [r7, #16]
 80017c0:	6978      	ldr	r0, [r7, #20]
 80017c2:	f7ff fdb8 	bl	8001336 <_out_rev>
 80017c6:	4603      	mov	r3, r0
 80017c8:	e21c      	b.n	8001c04 <_ftoa+0x4c4>
 80017ca:	f04f 32ff 	mov.w	r2, #4294967295
 80017ce:	4b9e      	ldr	r3, [pc, #632]	; (8001a48 <_ftoa+0x308>)
 80017d0:	e9d7 0100 	ldrd	r0, r1, [r7]
 80017d4:	f7ff f950 	bl	8000a78 <__aeabi_dcmpgt>
 80017d8:	4603      	mov	r3, r0
 80017da:	2b00      	cmp	r3, #0
 80017dc:	d01d      	beq.n	800181a <_ftoa+0xda>
 80017de:	6fbb      	ldr	r3, [r7, #120]	; 0x78
 80017e0:	f003 0304 	and.w	r3, r3, #4
 80017e4:	2b00      	cmp	r3, #0
 80017e6:	d001      	beq.n	80017ec <_ftoa+0xac>
 80017e8:	4b98      	ldr	r3, [pc, #608]	; (8001a4c <_ftoa+0x30c>)
 80017ea:	e000      	b.n	80017ee <_ftoa+0xae>
 80017ec:	4b98      	ldr	r3, [pc, #608]	; (8001a50 <_ftoa+0x310>)
 80017ee:	6fba      	ldr	r2, [r7, #120]	; 0x78
 80017f0:	f002 0204 	and.w	r2, r2, #4
 80017f4:	2a00      	cmp	r2, #0
 80017f6:	d001      	beq.n	80017fc <_ftoa+0xbc>
 80017f8:	2204      	movs	r2, #4
 80017fa:	e000      	b.n	80017fe <_ftoa+0xbe>
 80017fc:	2203      	movs	r2, #3
 80017fe:	6fb9      	ldr	r1, [r7, #120]	; 0x78
 8001800:	9103      	str	r1, [sp, #12]
 8001802:	6f79      	ldr	r1, [r7, #116]	; 0x74
 8001804:	9102      	str	r1, [sp, #8]
 8001806:	9201      	str	r2, [sp, #4]
 8001808:	9300      	str	r3, [sp, #0]
 800180a:	68bb      	ldr	r3, [r7, #8]
 800180c:	68fa      	ldr	r2, [r7, #12]
 800180e:	6939      	ldr	r1, [r7, #16]
 8001810:	6978      	ldr	r0, [r7, #20]
 8001812:	f7ff fd90 	bl	8001336 <_out_rev>
 8001816:	4603      	mov	r3, r0
 8001818:	e1f4      	b.n	8001c04 <_ftoa+0x4c4>
 800181a:	a385      	add	r3, pc, #532	; (adr r3, 8001a30 <_ftoa+0x2f0>)
 800181c:	e9d3 2300 	ldrd	r2, r3, [r3]
 8001820:	e9d7 0100 	ldrd	r0, r1, [r7]
 8001824:	f7ff f928 	bl	8000a78 <__aeabi_dcmpgt>
 8001828:	4603      	mov	r3, r0
 800182a:	2b00      	cmp	r3, #0
 800182c:	d109      	bne.n	8001842 <_ftoa+0x102>
 800182e:	a382      	add	r3, pc, #520	; (adr r3, 8001a38 <_ftoa+0x2f8>)
 8001830:	e9d3 2300 	ldrd	r2, r3, [r3]
 8001834:	e9d7 0100 	ldrd	r0, r1, [r7]
 8001838:	f7ff f900 	bl	8000a3c <__aeabi_dcmplt>
 800183c:	4603      	mov	r3, r0
 800183e:	2b00      	cmp	r3, #0
 8001840:	d00f      	beq.n	8001862 <_ftoa+0x122>
 8001842:	6fbb      	ldr	r3, [r7, #120]	; 0x78
 8001844:	9302      	str	r3, [sp, #8]
 8001846:	6f7b      	ldr	r3, [r7, #116]	; 0x74
 8001848:	9301      	str	r3, [sp, #4]
 800184a:	6f3b      	ldr	r3, [r7, #112]	; 0x70
 800184c:	9300      	str	r3, [sp, #0]
 800184e:	ed97 0b00 	vldr	d0, [r7]
 8001852:	68bb      	ldr	r3, [r7, #8]
 8001854:	68fa      	ldr	r2, [r7, #12]
 8001856:	6939      	ldr	r1, [r7, #16]
 8001858:	6978      	ldr	r0, [r7, #20]
 800185a:	f000 f9dd 	bl	8001c18 <_etoa>
 800185e:	4603      	mov	r3, r0
 8001860:	e1d0      	b.n	8001c04 <_ftoa+0x4c4>
 8001862:	2300      	movs	r3, #0
 8001864:	f887 305b 	strb.w	r3, [r7, #91]	; 0x5b
 8001868:	f04f 0200 	mov.w	r2, #0
 800186c:	f04f 0300 	mov.w	r3, #0
 8001870:	e9d7 0100 	ldrd	r0, r1, [r7]
 8001874:	f7ff f8e2 	bl	8000a3c <__aeabi_dcmplt>
 8001878:	4603      	mov	r3, r0
 800187a:	2b00      	cmp	r3, #0
 800187c:	d00e      	beq.n	800189c <_ftoa+0x15c>
 800187e:	2301      	movs	r3, #1
 8001880:	f887 305b 	strb.w	r3, [r7, #91]	; 0x5b
 8001884:	e9d7 2300 	ldrd	r2, r3, [r7]
 8001888:	f04f 0000 	mov.w	r0, #0
 800188c:	f04f 0100 	mov.w	r1, #0
 8001890:	f7fe fcaa 	bl	80001e8 <__aeabi_dsub>
 8001894:	4603      	mov	r3, r0
 8001896:	460c      	mov	r4, r1
 8001898:	e9c7 3400 	strd	r3, r4, [r7]
 800189c:	6fbb      	ldr	r3, [r7, #120]	; 0x78
 800189e:	f403 6380 	and.w	r3, r3, #1024	; 0x400
 80018a2:	2b00      	cmp	r3, #0
 80018a4:	d10e      	bne.n	80018c4 <_ftoa+0x184>
 80018a6:	2306      	movs	r3, #6
 80018a8:	673b      	str	r3, [r7, #112]	; 0x70
 80018aa:	e00b      	b.n	80018c4 <_ftoa+0x184>
 80018ac:	6dfb      	ldr	r3, [r7, #92]	; 0x5c
 80018ae:	1c5a      	adds	r2, r3, #1
 80018b0:	65fa      	str	r2, [r7, #92]	; 0x5c
 80018b2:	f107 0260 	add.w	r2, r7, #96	; 0x60
 80018b6:	4413      	add	r3, r2
 80018b8:	2230      	movs	r2, #48	; 0x30
 80018ba:	f803 2c48 	strb.w	r2, [r3, #-72]
 80018be:	6f3b      	ldr	r3, [r7, #112]	; 0x70
 80018c0:	3b01      	subs	r3, #1
 80018c2:	673b      	str	r3, [r7, #112]	; 0x70
 80018c4:	6dfb      	ldr	r3, [r7, #92]	; 0x5c
 80018c6:	2b1f      	cmp	r3, #31
 80018c8:	d802      	bhi.n	80018d0 <_ftoa+0x190>
 80018ca:	6f3b      	ldr	r3, [r7, #112]	; 0x70
 80018cc:	2b09      	cmp	r3, #9
 80018ce:	d8ed      	bhi.n	80018ac <_ftoa+0x16c>
 80018d0:	e9d7 0100 	ldrd	r0, r1, [r7]
 80018d4:	f7ff f8da 	bl	8000a8c <__aeabi_d2iz>
 80018d8:	4603      	mov	r3, r0
 80018da:	657b      	str	r3, [r7, #84]	; 0x54
 80018dc:	6d78      	ldr	r0, [r7, #84]	; 0x54
 80018de:	f7fe fdd1 	bl	8000484 <__aeabi_i2d>
 80018e2:	4603      	mov	r3, r0
 80018e4:	460c      	mov	r4, r1
 80018e6:	461a      	mov	r2, r3
 80018e8:	4623      	mov	r3, r4
 80018ea:	e9d7 0100 	ldrd	r0, r1, [r7]
 80018ee:	f7fe fc7b 	bl	80001e8 <__aeabi_dsub>
 80018f2:	4603      	mov	r3, r0
 80018f4:	460c      	mov	r4, r1
 80018f6:	4618      	mov	r0, r3
 80018f8:	4621      	mov	r1, r4
 80018fa:	4a56      	ldr	r2, [pc, #344]	; (8001a54 <_ftoa+0x314>)
 80018fc:	6f3b      	ldr	r3, [r7, #112]	; 0x70
 80018fe:	00db      	lsls	r3, r3, #3
 8001900:	4413      	add	r3, r2
 8001902:	e9d3 3400 	ldrd	r3, r4, [r3]
 8001906:	461a      	mov	r2, r3
 8001908:	4623      	mov	r3, r4
 800190a:	f7fe fe25 	bl	8000558 <__aeabi_dmul>
 800190e:	4603      	mov	r3, r0
 8001910:	460c      	mov	r4, r1
 8001912:	e9c7 340e 	strd	r3, r4, [r7, #56]	; 0x38
 8001916:	e9d7 010e 	ldrd	r0, r1, [r7, #56]	; 0x38
 800191a:	f7ff f8df 	bl	8000adc <__aeabi_d2uiz>
 800191e:	4603      	mov	r3, r0
 8001920:	653b      	str	r3, [r7, #80]	; 0x50
 8001922:	6d38      	ldr	r0, [r7, #80]	; 0x50
 8001924:	f7fe fd9e 	bl	8000464 <__aeabi_ui2d>
 8001928:	4603      	mov	r3, r0
 800192a:	460c      	mov	r4, r1
 800192c:	461a      	mov	r2, r3
 800192e:	4623      	mov	r3, r4
 8001930:	e9d7 010e 	ldrd	r0, r1, [r7, #56]	; 0x38
 8001934:	f7fe fc58 	bl	80001e8 <__aeabi_dsub>
 8001938:	4603      	mov	r3, r0
 800193a:	460c      	mov	r4, r1
 800193c:	e9c7 3410 	strd	r3, r4, [r7, #64]	; 0x40
 8001940:	f04f 0200 	mov.w	r2, #0
 8001944:	4b44      	ldr	r3, [pc, #272]	; (8001a58 <_ftoa+0x318>)
 8001946:	e9d7 0110 	ldrd	r0, r1, [r7, #64]	; 0x40
 800194a:	f7ff f895 	bl	8000a78 <__aeabi_dcmpgt>
 800194e:	4603      	mov	r3, r0
 8001950:	2b00      	cmp	r3, #0
 8001952:	d018      	beq.n	8001986 <_ftoa+0x246>
 8001954:	6d3b      	ldr	r3, [r7, #80]	; 0x50
 8001956:	3301      	adds	r3, #1
 8001958:	653b      	str	r3, [r7, #80]	; 0x50
 800195a:	6d38      	ldr	r0, [r7, #80]	; 0x50
 800195c:	f7fe fd82 	bl	8000464 <__aeabi_ui2d>
 8001960:	4a3c      	ldr	r2, [pc, #240]	; (8001a54 <_ftoa+0x314>)
 8001962:	6f3b      	ldr	r3, [r7, #112]	; 0x70
 8001964:	00db      	lsls	r3, r3, #3
 8001966:	4413      	add	r3, r2
 8001968:	e9d3 3400 	ldrd	r3, r4, [r3]
 800196c:	461a      	mov	r2, r3
 800196e:	4623      	mov	r3, r4
 8001970:	f7ff f878 	bl	8000a64 <__aeabi_dcmpge>
 8001974:	4603      	mov	r3, r0
 8001976:	2b00      	cmp	r3, #0
 8001978:	d01a      	beq.n	80019b0 <_ftoa+0x270>
 800197a:	2300      	movs	r3, #0
 800197c:	653b      	str	r3, [r7, #80]	; 0x50
 800197e:	6d7b      	ldr	r3, [r7, #84]	; 0x54
 8001980:	3301      	adds	r3, #1
 8001982:	657b      	str	r3, [r7, #84]	; 0x54
 8001984:	e014      	b.n	80019b0 <_ftoa+0x270>
 8001986:	f04f 0200 	mov.w	r2, #0
 800198a:	4b33      	ldr	r3, [pc, #204]	; (8001a58 <_ftoa+0x318>)
 800198c:	e9d7 0110 	ldrd	r0, r1, [r7, #64]	; 0x40
 8001990:	f7ff f854 	bl	8000a3c <__aeabi_dcmplt>
 8001994:	4603      	mov	r3, r0
 8001996:	2b00      	cmp	r3, #0
 8001998:	d10a      	bne.n	80019b0 <_ftoa+0x270>
 800199a:	6d3b      	ldr	r3, [r7, #80]	; 0x50
 800199c:	2b00      	cmp	r3, #0
 800199e:	d004      	beq.n	80019aa <_ftoa+0x26a>
 80019a0:	6d3b      	ldr	r3, [r7, #80]	; 0x50
 80019a2:	f003 0301 	and.w	r3, r3, #1
 80019a6:	2b00      	cmp	r3, #0
 80019a8:	d002      	beq.n	80019b0 <_ftoa+0x270>
 80019aa:	6d3b      	ldr	r3, [r7, #80]	; 0x50
 80019ac:	3301      	adds	r3, #1
 80019ae:	653b      	str	r3, [r7, #80]	; 0x50
 80019b0:	6f3b      	ldr	r3, [r7, #112]	; 0x70
 80019b2:	2b00      	cmp	r3, #0
 80019b4:	d136      	bne.n	8001a24 <_ftoa+0x2e4>
 80019b6:	6d78      	ldr	r0, [r7, #84]	; 0x54
 80019b8:	f7fe fd64 	bl	8000484 <__aeabi_i2d>
 80019bc:	4603      	mov	r3, r0
 80019be:	460c      	mov	r4, r1
 80019c0:	461a      	mov	r2, r3
 80019c2:	4623      	mov	r3, r4
 80019c4:	e9d7 0100 	ldrd	r0, r1, [r7]
 80019c8:	f7fe fc0e 	bl	80001e8 <__aeabi_dsub>
 80019cc:	4603      	mov	r3, r0
 80019ce:	460c      	mov	r4, r1
 80019d0:	e9c7 3410 	strd	r3, r4, [r7, #64]	; 0x40
 80019d4:	2301      	movs	r3, #1
 80019d6:	461c      	mov	r4, r3
 80019d8:	f04f 0200 	mov.w	r2, #0
 80019dc:	4b1e      	ldr	r3, [pc, #120]	; (8001a58 <_ftoa+0x318>)
 80019de:	e9d7 0110 	ldrd	r0, r1, [r7, #64]	; 0x40
 80019e2:	f7ff f82b 	bl	8000a3c <__aeabi_dcmplt>
 80019e6:	4603      	mov	r3, r0
 80019e8:	2b00      	cmp	r3, #0
 80019ea:	d101      	bne.n	80019f0 <_ftoa+0x2b0>
 80019ec:	2300      	movs	r3, #0
 80019ee:	461c      	mov	r4, r3
 80019f0:	b2e3      	uxtb	r3, r4
 80019f2:	f083 0301 	eor.w	r3, r3, #1
 80019f6:	b2db      	uxtb	r3, r3
 80019f8:	2b00      	cmp	r3, #0
 80019fa:	d109      	bne.n	8001a10 <_ftoa+0x2d0>
 80019fc:	f04f 0200 	mov.w	r2, #0
 8001a00:	4b15      	ldr	r3, [pc, #84]	; (8001a58 <_ftoa+0x318>)
 8001a02:	e9d7 0110 	ldrd	r0, r1, [r7, #64]	; 0x40
 8001a06:	f7ff f837 	bl	8000a78 <__aeabi_dcmpgt>
 8001a0a:	4603      	mov	r3, r0
 8001a0c:	2b00      	cmp	r3, #0
 8001a0e:	d069      	beq.n	8001ae4 <_ftoa+0x3a4>
 8001a10:	6d7b      	ldr	r3, [r7, #84]	; 0x54
 8001a12:	f003 0301 	and.w	r3, r3, #1
 8001a16:	2b00      	cmp	r3, #0
 8001a18:	f000 8087 	beq.w	8001b2a <_ftoa+0x3ea>
 8001a1c:	6d7b      	ldr	r3, [r7, #84]	; 0x54
 8001a1e:	3301      	adds	r3, #1
 8001a20:	657b      	str	r3, [r7, #84]	; 0x54
 8001a22:	e082      	b.n	8001b2a <_ftoa+0x3ea>
 8001a24:	6f3b      	ldr	r3, [r7, #112]	; 0x70
 8001a26:	64fb      	str	r3, [r7, #76]	; 0x4c
 8001a28:	e039      	b.n	8001a9e <_ftoa+0x35e>
 8001a2a:	bf00      	nop
 8001a2c:	f3af 8000 	nop.w
 8001a30:	00000000 	.word	0x00000000
 8001a34:	41cdcd65 	.word	0x41cdcd65
 8001a38:	00000000 	.word	0x00000000
 8001a3c:	c1cdcd65 	.word	0xc1cdcd65
 8001a40:	0800855c 	.word	0x0800855c
 8001a44:	08008560 	.word	0x08008560
 8001a48:	7fefffff 	.word	0x7fefffff
 8001a4c:	08008568 	.word	0x08008568
 8001a50:	08008570 	.word	0x08008570
 8001a54:	08008628 	.word	0x08008628
 8001a58:	3fe00000 	.word	0x3fe00000
 8001a5c:	6cfb      	ldr	r3, [r7, #76]	; 0x4c
 8001a5e:	3b01      	subs	r3, #1
 8001a60:	64fb      	str	r3, [r7, #76]	; 0x4c
 8001a62:	6d39      	ldr	r1, [r7, #80]	; 0x50
 8001a64:	4b69      	ldr	r3, [pc, #420]	; (8001c0c <_ftoa+0x4cc>)
 8001a66:	fba3 2301 	umull	r2, r3, r3, r1
 8001a6a:	08da      	lsrs	r2, r3, #3
 8001a6c:	4613      	mov	r3, r2
 8001a6e:	009b      	lsls	r3, r3, #2
 8001a70:	4413      	add	r3, r2
 8001a72:	005b      	lsls	r3, r3, #1
 8001a74:	1aca      	subs	r2, r1, r3
 8001a76:	b2d2      	uxtb	r2, r2
 8001a78:	6dfb      	ldr	r3, [r7, #92]	; 0x5c
 8001a7a:	1c59      	adds	r1, r3, #1
 8001a7c:	65f9      	str	r1, [r7, #92]	; 0x5c
 8001a7e:	3230      	adds	r2, #48	; 0x30
 8001a80:	b2d2      	uxtb	r2, r2
 8001a82:	f107 0160 	add.w	r1, r7, #96	; 0x60
 8001a86:	440b      	add	r3, r1
 8001a88:	f803 2c48 	strb.w	r2, [r3, #-72]
 8001a8c:	6d3b      	ldr	r3, [r7, #80]	; 0x50
 8001a8e:	4a5f      	ldr	r2, [pc, #380]	; (8001c0c <_ftoa+0x4cc>)
 8001a90:	fba2 2303 	umull	r2, r3, r2, r3
 8001a94:	08db      	lsrs	r3, r3, #3
 8001a96:	653b      	str	r3, [r7, #80]	; 0x50
 8001a98:	6d3b      	ldr	r3, [r7, #80]	; 0x50
 8001a9a:	2b00      	cmp	r3, #0
 8001a9c:	d003      	beq.n	8001aa6 <_ftoa+0x366>
 8001a9e:	6dfb      	ldr	r3, [r7, #92]	; 0x5c
 8001aa0:	2b1f      	cmp	r3, #31
 8001aa2:	d9db      	bls.n	8001a5c <_ftoa+0x31c>
 8001aa4:	e00a      	b.n	8001abc <_ftoa+0x37c>
 8001aa6:	bf00      	nop
 8001aa8:	e008      	b.n	8001abc <_ftoa+0x37c>
 8001aaa:	6dfb      	ldr	r3, [r7, #92]	; 0x5c
 8001aac:	1c5a      	adds	r2, r3, #1
 8001aae:	65fa      	str	r2, [r7, #92]	; 0x5c
 8001ab0:	f107 0260 	add.w	r2, r7, #96	; 0x60
 8001ab4:	4413      	add	r3, r2
 8001ab6:	2230      	movs	r2, #48	; 0x30
 8001ab8:	f803 2c48 	strb.w	r2, [r3, #-72]
 8001abc:	6dfb      	ldr	r3, [r7, #92]	; 0x5c
 8001abe:	2b1f      	cmp	r3, #31
 8001ac0:	d804      	bhi.n	8001acc <_ftoa+0x38c>
 8001ac2:	6cfb      	ldr	r3, [r7, #76]	; 0x4c
 8001ac4:	1e5a      	subs	r2, r3, #1
 8001ac6:	64fa      	str	r2, [r7, #76]	; 0x4c
 8001ac8:	2b00      	cmp	r3, #0
 8001aca:	d1ee      	bne.n	8001aaa <_ftoa+0x36a>
 8001acc:	6dfb      	ldr	r3, [r7, #92]	; 0x5c
 8001ace:	2b1f      	cmp	r3, #31
 8001ad0:	d82b      	bhi.n	8001b2a <_ftoa+0x3ea>
 8001ad2:	6dfb      	ldr	r3, [r7, #92]	; 0x5c
 8001ad4:	1c5a      	adds	r2, r3, #1
 8001ad6:	65fa      	str	r2, [r7, #92]	; 0x5c
 8001ad8:	f107 0260 	add.w	r2, r7, #96	; 0x60
 8001adc:	4413      	add	r3, r2
 8001ade:	222e      	movs	r2, #46	; 0x2e
 8001ae0:	f803 2c48 	strb.w	r2, [r3, #-72]
 8001ae4:	e021      	b.n	8001b2a <_ftoa+0x3ea>
 8001ae6:	6d7a      	ldr	r2, [r7, #84]	; 0x54
 8001ae8:	4b49      	ldr	r3, [pc, #292]	; (8001c10 <_ftoa+0x4d0>)
 8001aea:	fb83 1302 	smull	r1, r3, r3, r2
 8001aee:	1099      	asrs	r1, r3, #2
 8001af0:	17d3      	asrs	r3, r2, #31
 8001af2:	1ac9      	subs	r1, r1, r3
 8001af4:	460b      	mov	r3, r1
 8001af6:	009b      	lsls	r3, r3, #2
 8001af8:	440b      	add	r3, r1
 8001afa:	005b      	lsls	r3, r3, #1
 8001afc:	1ad1      	subs	r1, r2, r3
 8001afe:	b2ca      	uxtb	r2, r1
 8001b00:	6dfb      	ldr	r3, [r7, #92]	; 0x5c
 8001b02:	1c59      	adds	r1, r3, #1
 8001b04:	65f9      	str	r1, [r7, #92]	; 0x5c
 8001b06:	3230      	adds	r2, #48	; 0x30
 8001b08:	b2d2      	uxtb	r2, r2
 8001b0a:	f107 0160 	add.w	r1, r7, #96	; 0x60
 8001b0e:	440b      	add	r3, r1
 8001b10:	f803 2c48 	strb.w	r2, [r3, #-72]
 8001b14:	6d7b      	ldr	r3, [r7, #84]	; 0x54
 8001b16:	4a3e      	ldr	r2, [pc, #248]	; (8001c10 <_ftoa+0x4d0>)
 8001b18:	fb82 1203 	smull	r1, r2, r2, r3
 8001b1c:	1092      	asrs	r2, r2, #2
 8001b1e:	17db      	asrs	r3, r3, #31
 8001b20:	1ad3      	subs	r3, r2, r3
 8001b22:	657b      	str	r3, [r7, #84]	; 0x54
 8001b24:	6d7b      	ldr	r3, [r7, #84]	; 0x54
 8001b26:	2b00      	cmp	r3, #0
 8001b28:	d003      	beq.n	8001b32 <_ftoa+0x3f2>
 8001b2a:	6dfb      	ldr	r3, [r7, #92]	; 0x5c
 8001b2c:	2b1f      	cmp	r3, #31
 8001b2e:	d9da      	bls.n	8001ae6 <_ftoa+0x3a6>
 8001b30:	e000      	b.n	8001b34 <_ftoa+0x3f4>
 8001b32:	bf00      	nop
 8001b34:	6fbb      	ldr	r3, [r7, #120]	; 0x78
 8001b36:	f003 0302 	and.w	r3, r3, #2
 8001b3a:	2b00      	cmp	r3, #0
 8001b3c:	d124      	bne.n	8001b88 <_ftoa+0x448>
 8001b3e:	6fbb      	ldr	r3, [r7, #120]	; 0x78
 8001b40:	f003 0301 	and.w	r3, r3, #1
 8001b44:	2b00      	cmp	r3, #0
 8001b46:	d01f      	beq.n	8001b88 <_ftoa+0x448>
 8001b48:	6f7b      	ldr	r3, [r7, #116]	; 0x74
 8001b4a:	2b00      	cmp	r3, #0
 8001b4c:	d015      	beq.n	8001b7a <_ftoa+0x43a>
 8001b4e:	f897 305b 	ldrb.w	r3, [r7, #91]	; 0x5b
 8001b52:	2b00      	cmp	r3, #0
 8001b54:	d104      	bne.n	8001b60 <_ftoa+0x420>
 8001b56:	6fbb      	ldr	r3, [r7, #120]	; 0x78
 8001b58:	f003 030c 	and.w	r3, r3, #12
 8001b5c:	2b00      	cmp	r3, #0
 8001b5e:	d00c      	beq.n	8001b7a <_ftoa+0x43a>
 8001b60:	6f7b      	ldr	r3, [r7, #116]	; 0x74
 8001b62:	3b01      	subs	r3, #1
 8001b64:	677b      	str	r3, [r7, #116]	; 0x74
 8001b66:	e008      	b.n	8001b7a <_ftoa+0x43a>
 8001b68:	6dfb      	ldr	r3, [r7, #92]	; 0x5c
 8001b6a:	1c5a      	adds	r2, r3, #1
 8001b6c:	65fa      	str	r2, [r7, #92]	; 0x5c
 8001b6e:	f107 0260 	add.w	r2, r7, #96	; 0x60
 8001b72:	4413      	add	r3, r2
 8001b74:	2230      	movs	r2, #48	; 0x30
 8001b76:	f803 2c48 	strb.w	r2, [r3, #-72]
 8001b7a:	6dfa      	ldr	r2, [r7, #92]	; 0x5c
 8001b7c:	6f7b      	ldr	r3, [r7, #116]	; 0x74
 8001b7e:	429a      	cmp	r2, r3
 8001b80:	d202      	bcs.n	8001b88 <_ftoa+0x448>
 8001b82:	6dfb      	ldr	r3, [r7, #92]	; 0x5c
 8001b84:	2b1f      	cmp	r3, #31
 8001b86:	d9ef      	bls.n	8001b68 <_ftoa+0x428>
 8001b88:	6dfb      	ldr	r3, [r7, #92]	; 0x5c
 8001b8a:	2b1f      	cmp	r3, #31
 8001b8c:	d82a      	bhi.n	8001be4 <_ftoa+0x4a4>
 8001b8e:	f897 305b 	ldrb.w	r3, [r7, #91]	; 0x5b
 8001b92:	2b00      	cmp	r3, #0
 8001b94:	d009      	beq.n	8001baa <_ftoa+0x46a>
 8001b96:	6dfb      	ldr	r3, [r7, #92]	; 0x5c
 8001b98:	1c5a      	adds	r2, r3, #1
 8001b9a:	65fa      	str	r2, [r7, #92]	; 0x5c
 8001b9c:	f107 0260 	add.w	r2, r7, #96	; 0x60
 8001ba0:	4413      	add	r3, r2
 8001ba2:	222d      	movs	r2, #45	; 0x2d
 8001ba4:	f803 2c48 	strb.w	r2, [r3, #-72]
 8001ba8:	e01c      	b.n	8001be4 <_ftoa+0x4a4>
 8001baa:	6fbb      	ldr	r3, [r7, #120]	; 0x78
 8001bac:	f003 0304 	and.w	r3, r3, #4
 8001bb0:	2b00      	cmp	r3, #0
 8001bb2:	d009      	beq.n	8001bc8 <_ftoa+0x488>
 8001bb4:	6dfb      	ldr	r3, [r7, #92]	; 0x5c
 8001bb6:	1c5a      	adds	r2, r3, #1
 8001bb8:	65fa      	str	r2, [r7, #92]	; 0x5c
 8001bba:	f107 0260 	add.w	r2, r7, #96	; 0x60
 8001bbe:	4413      	add	r3, r2
 8001bc0:	222b      	movs	r2, #43	; 0x2b
 8001bc2:	f803 2c48 	strb.w	r2, [r3, #-72]
 8001bc6:	e00d      	b.n	8001be4 <_ftoa+0x4a4>
 8001bc8:	6fbb      	ldr	r3, [r7, #120]	; 0x78
 8001bca:	f003 0308 	and.w	r3, r3, #8
 8001bce:	2b00      	cmp	r3, #0
 8001bd0:	d008      	beq.n	8001be4 <_ftoa+0x4a4>
 8001bd2:	6dfb      	ldr	r3, [r7, #92]	; 0x5c
 8001bd4:	1c5a      	adds	r2, r3, #1
 8001bd6:	65fa      	str	r2, [r7, #92]	; 0x5c
 8001bd8:	f107 0260 	add.w	r2, r7, #96	; 0x60
 8001bdc:	4413      	add	r3, r2
 8001bde:	2220      	movs	r2, #32
 8001be0:	f803 2c48 	strb.w	r2, [r3, #-72]
 8001be4:	6fbb      	ldr	r3, [r7, #120]	; 0x78
 8001be6:	9303      	str	r3, [sp, #12]
 8001be8:	6f7b      	ldr	r3, [r7, #116]	; 0x74
 8001bea:	9302      	str	r3, [sp, #8]
 8001bec:	6dfb      	ldr	r3, [r7, #92]	; 0x5c
 8001bee:	9301      	str	r3, [sp, #4]
 8001bf0:	f107 0318 	add.w	r3, r7, #24
 8001bf4:	9300      	str	r3, [sp, #0]
 8001bf6:	68bb      	ldr	r3, [r7, #8]
 8001bf8:	68fa      	ldr	r2, [r7, #12]
 8001bfa:	6939      	ldr	r1, [r7, #16]
 8001bfc:	6978      	ldr	r0, [r7, #20]
 8001bfe:	f7ff fb9a 	bl	8001336 <_out_rev>
 8001c02:	4603      	mov	r3, r0
 8001c04:	4618      	mov	r0, r3
 8001c06:	3764      	adds	r7, #100	; 0x64
 8001c08:	46bd      	mov	sp, r7
 8001c0a:	bd90      	pop	{r4, r7, pc}
 8001c0c:	cccccccd 	.word	0xcccccccd
 8001c10:	66666667 	.word	0x66666667
 8001c14:	00000000 	.word	0x00000000

08001c18 <_etoa>:
 8001c18:	e92d 4ff0 	stmdb	sp!, {r4, r5, r6, r7, r8, r9, sl, fp, lr}
 8001c1c:	b09d      	sub	sp, #116	; 0x74
 8001c1e:	af06      	add	r7, sp, #24
 8001c20:	61f8      	str	r0, [r7, #28]
 8001c22:	61b9      	str	r1, [r7, #24]
 8001c24:	617a      	str	r2, [r7, #20]
 8001c26:	613b      	str	r3, [r7, #16]
 8001c28:	ed87 0b02 	vstr	d0, [r7, #8]
 8001c2c:	e9d7 2302 	ldrd	r2, r3, [r7, #8]
 8001c30:	e9d7 0102 	ldrd	r0, r1, [r7, #8]
 8001c34:	f7fe fef8 	bl	8000a28 <__aeabi_dcmpeq>
 8001c38:	4603      	mov	r3, r0
 8001c3a:	2b00      	cmp	r3, #0
 8001c3c:	d014      	beq.n	8001c68 <_etoa+0x50>
 8001c3e:	f04f 32ff 	mov.w	r2, #4294967295
 8001c42:	4bc9      	ldr	r3, [pc, #804]	; (8001f68 <_etoa+0x350>)
 8001c44:	e9d7 0102 	ldrd	r0, r1, [r7, #8]
 8001c48:	f7fe ff16 	bl	8000a78 <__aeabi_dcmpgt>
 8001c4c:	4603      	mov	r3, r0
 8001c4e:	2b00      	cmp	r3, #0
 8001c50:	d10a      	bne.n	8001c68 <_etoa+0x50>
 8001c52:	f04f 32ff 	mov.w	r2, #4294967295
 8001c56:	f46f 1380 	mvn.w	r3, #1048576	; 0x100000
 8001c5a:	e9d7 0102 	ldrd	r0, r1, [r7, #8]
 8001c5e:	f7fe feed 	bl	8000a3c <__aeabi_dcmplt>
 8001c62:	4603      	mov	r3, r0
 8001c64:	2b00      	cmp	r3, #0
 8001c66:	d012      	beq.n	8001c8e <_etoa+0x76>
 8001c68:	f8d7 3088 	ldr.w	r3, [r7, #136]	; 0x88
 8001c6c:	9302      	str	r3, [sp, #8]
 8001c6e:	f8d7 3084 	ldr.w	r3, [r7, #132]	; 0x84
 8001c72:	9301      	str	r3, [sp, #4]
 8001c74:	f8d7 3080 	ldr.w	r3, [r7, #128]	; 0x80
 8001c78:	9300      	str	r3, [sp, #0]
 8001c7a:	ed97 0b02 	vldr	d0, [r7, #8]
 8001c7e:	693b      	ldr	r3, [r7, #16]
 8001c80:	697a      	ldr	r2, [r7, #20]
 8001c82:	69b9      	ldr	r1, [r7, #24]
 8001c84:	69f8      	ldr	r0, [r7, #28]
 8001c86:	f7ff fd5b 	bl	8001740 <_ftoa>
 8001c8a:	4603      	mov	r3, r0
 8001c8c:	e24f      	b.n	800212e <_etoa+0x516>
 8001c8e:	2301      	movs	r3, #1
 8001c90:	461c      	mov	r4, r3
 8001c92:	f04f 0200 	mov.w	r2, #0
 8001c96:	f04f 0300 	mov.w	r3, #0
 8001c9a:	e9d7 0102 	ldrd	r0, r1, [r7, #8]
 8001c9e:	f7fe fecd 	bl	8000a3c <__aeabi_dcmplt>
 8001ca2:	4603      	mov	r3, r0
 8001ca4:	2b00      	cmp	r3, #0
 8001ca6:	d101      	bne.n	8001cac <_etoa+0x94>
 8001ca8:	2300      	movs	r3, #0
 8001caa:	461c      	mov	r4, r3
 8001cac:	f887 404b 	strb.w	r4, [r7, #75]	; 0x4b
 8001cb0:	f897 304b 	ldrb.w	r3, [r7, #75]	; 0x4b
 8001cb4:	2b00      	cmp	r3, #0
 8001cb6:	d005      	beq.n	8001cc4 <_etoa+0xac>
 8001cb8:	68bb      	ldr	r3, [r7, #8]
 8001cba:	60bb      	str	r3, [r7, #8]
 8001cbc:	68fb      	ldr	r3, [r7, #12]
 8001cbe:	f083 4300 	eor.w	r3, r3, #2147483648	; 0x80000000
 8001cc2:	60fb      	str	r3, [r7, #12]
 8001cc4:	f8d7 3088 	ldr.w	r3, [r7, #136]	; 0x88
 8001cc8:	f403 6380 	and.w	r3, r3, #1024	; 0x400
 8001ccc:	2b00      	cmp	r3, #0
 8001cce:	d102      	bne.n	8001cd6 <_etoa+0xbe>
 8001cd0:	2306      	movs	r3, #6
 8001cd2:	f8c7 3080 	str.w	r3, [r7, #128]	; 0x80
 8001cd6:	e9d7 3402 	ldrd	r3, r4, [r7, #8]
 8001cda:	e9c7 3408 	strd	r3, r4, [r7, #32]
 8001cde:	e9d7 1208 	ldrd	r1, r2, [r7, #32]
 8001ce2:	f04f 0300 	mov.w	r3, #0
 8001ce6:	f04f 0400 	mov.w	r4, #0
 8001cea:	0d13      	lsrs	r3, r2, #20
 8001cec:	2400      	movs	r4, #0
 8001cee:	f3c3 030a 	ubfx	r3, r3, #0, #11
 8001cf2:	f2a3 33ff 	subw	r3, r3, #1023	; 0x3ff
 8001cf6:	647b      	str	r3, [r7, #68]	; 0x44
 8001cf8:	e9d7 3408 	ldrd	r3, r4, [r7, #32]
 8001cfc:	f04f 31ff 	mov.w	r1, #4294967295
 8001d00:	4a9a      	ldr	r2, [pc, #616]	; (8001f6c <_etoa+0x354>)
 8001d02:	ea03 0801 	and.w	r8, r3, r1
 8001d06:	ea04 0902 	and.w	r9, r4, r2
 8001d0a:	f04f 0100 	mov.w	r1, #0
 8001d0e:	4a98      	ldr	r2, [pc, #608]	; (8001f70 <_etoa+0x358>)
 8001d10:	ea48 0301 	orr.w	r3, r8, r1
 8001d14:	ea49 0402 	orr.w	r4, r9, r2
 8001d18:	e9c7 3408 	strd	r3, r4, [r7, #32]
 8001d1c:	6c78      	ldr	r0, [r7, #68]	; 0x44
 8001d1e:	f7fe fbb1 	bl	8000484 <__aeabi_i2d>
 8001d22:	a385      	add	r3, pc, #532	; (adr r3, 8001f38 <_etoa+0x320>)
 8001d24:	e9d3 2300 	ldrd	r2, r3, [r3]
 8001d28:	f7fe fc16 	bl	8000558 <__aeabi_dmul>
 8001d2c:	4603      	mov	r3, r0
 8001d2e:	460c      	mov	r4, r1
 8001d30:	4618      	mov	r0, r3
 8001d32:	4621      	mov	r1, r4
 8001d34:	a382      	add	r3, pc, #520	; (adr r3, 8001f40 <_etoa+0x328>)
 8001d36:	e9d3 2300 	ldrd	r2, r3, [r3]
 8001d3a:	f7fe fa57 	bl	80001ec <__adddf3>
 8001d3e:	4603      	mov	r3, r0
 8001d40:	460c      	mov	r4, r1
 8001d42:	4698      	mov	r8, r3
 8001d44:	46a1      	mov	r9, r4
 8001d46:	e9d7 0108 	ldrd	r0, r1, [r7, #32]
 8001d4a:	f04f 0200 	mov.w	r2, #0
 8001d4e:	4b89      	ldr	r3, [pc, #548]	; (8001f74 <_etoa+0x35c>)
 8001d50:	f7fe fa4a 	bl	80001e8 <__aeabi_dsub>
 8001d54:	4603      	mov	r3, r0
 8001d56:	460c      	mov	r4, r1
 8001d58:	4618      	mov	r0, r3
 8001d5a:	4621      	mov	r1, r4
 8001d5c:	a37a      	add	r3, pc, #488	; (adr r3, 8001f48 <_etoa+0x330>)
 8001d5e:	e9d3 2300 	ldrd	r2, r3, [r3]
 8001d62:	f7fe fbf9 	bl	8000558 <__aeabi_dmul>
 8001d66:	4603      	mov	r3, r0
 8001d68:	460c      	mov	r4, r1
 8001d6a:	461a      	mov	r2, r3
 8001d6c:	4623      	mov	r3, r4
 8001d6e:	4640      	mov	r0, r8
 8001d70:	4649      	mov	r1, r9
 8001d72:	f7fe fa3b 	bl	80001ec <__adddf3>
 8001d76:	4603      	mov	r3, r0
 8001d78:	460c      	mov	r4, r1
 8001d7a:	4618      	mov	r0, r3
 8001d7c:	4621      	mov	r1, r4
 8001d7e:	f7fe fe85 	bl	8000a8c <__aeabi_d2iz>
 8001d82:	4603      	mov	r3, r0
 8001d84:	657b      	str	r3, [r7, #84]	; 0x54
 8001d86:	6d78      	ldr	r0, [r7, #84]	; 0x54
 8001d88:	f7fe fb7c 	bl	8000484 <__aeabi_i2d>
 8001d8c:	a370      	add	r3, pc, #448	; (adr r3, 8001f50 <_etoa+0x338>)
 8001d8e:	e9d3 2300 	ldrd	r2, r3, [r3]
 8001d92:	f7fe fbe1 	bl	8000558 <__aeabi_dmul>
 8001d96:	4603      	mov	r3, r0
 8001d98:	460c      	mov	r4, r1
 8001d9a:	4618      	mov	r0, r3
 8001d9c:	4621      	mov	r1, r4
 8001d9e:	f04f 0200 	mov.w	r2, #0
 8001da2:	4b75      	ldr	r3, [pc, #468]	; (8001f78 <_etoa+0x360>)
 8001da4:	f7fe fa22 	bl	80001ec <__adddf3>
 8001da8:	4603      	mov	r3, r0
 8001daa:	460c      	mov	r4, r1
 8001dac:	4618      	mov	r0, r3
 8001dae:	4621      	mov	r1, r4
 8001db0:	f7fe fe6c 	bl	8000a8c <__aeabi_d2iz>
 8001db4:	4603      	mov	r3, r0
 8001db6:	647b      	str	r3, [r7, #68]	; 0x44
 8001db8:	6d78      	ldr	r0, [r7, #84]	; 0x54
 8001dba:	f7fe fb63 	bl	8000484 <__aeabi_i2d>
 8001dbe:	a366      	add	r3, pc, #408	; (adr r3, 8001f58 <_etoa+0x340>)
 8001dc0:	e9d3 2300 	ldrd	r2, r3, [r3]
 8001dc4:	f7fe fbc8 	bl	8000558 <__aeabi_dmul>
 8001dc8:	4603      	mov	r3, r0
 8001dca:	460c      	mov	r4, r1
 8001dcc:	4698      	mov	r8, r3
 8001dce:	46a1      	mov	r9, r4
 8001dd0:	6c78      	ldr	r0, [r7, #68]	; 0x44
 8001dd2:	f7fe fb57 	bl	8000484 <__aeabi_i2d>
 8001dd6:	a362      	add	r3, pc, #392	; (adr r3, 8001f60 <_etoa+0x348>)
 8001dd8:	e9d3 2300 	ldrd	r2, r3, [r3]
 8001ddc:	f7fe fbbc 	bl	8000558 <__aeabi_dmul>
 8001de0:	4603      	mov	r3, r0
 8001de2:	460c      	mov	r4, r1
 8001de4:	461a      	mov	r2, r3
 8001de6:	4623      	mov	r3, r4
 8001de8:	4640      	mov	r0, r8
 8001dea:	4649      	mov	r1, r9
 8001dec:	f7fe f9fc 	bl	80001e8 <__aeabi_dsub>
 8001df0:	4603      	mov	r3, r0
 8001df2:	460c      	mov	r4, r1
 8001df4:	e9c7 340e 	strd	r3, r4, [r7, #56]	; 0x38
 8001df8:	e9d7 230e 	ldrd	r2, r3, [r7, #56]	; 0x38
 8001dfc:	e9d7 010e 	ldrd	r0, r1, [r7, #56]	; 0x38
 8001e00:	f7fe fbaa 	bl	8000558 <__aeabi_dmul>
 8001e04:	4603      	mov	r3, r0
 8001e06:	460c      	mov	r4, r1
 8001e08:	e9c7 340c 	strd	r3, r4, [r7, #48]	; 0x30
 8001e0c:	6c7b      	ldr	r3, [r7, #68]	; 0x44
 8001e0e:	f203 33ff 	addw	r3, r3, #1023	; 0x3ff
 8001e12:	4619      	mov	r1, r3
 8001e14:	ea4f 72e1 	mov.w	r2, r1, asr #31
 8001e18:	f04f 0300 	mov.w	r3, #0
 8001e1c:	f04f 0400 	mov.w	r4, #0
 8001e20:	050c      	lsls	r4, r1, #20
 8001e22:	2300      	movs	r3, #0
 8001e24:	e9c7 3408 	strd	r3, r4, [r7, #32]
 8001e28:	e9d7 8908 	ldrd	r8, r9, [r7, #32]
 8001e2c:	e9d7 010e 	ldrd	r0, r1, [r7, #56]	; 0x38
 8001e30:	4602      	mov	r2, r0
 8001e32:	460b      	mov	r3, r1
 8001e34:	f7fe f9da 	bl	80001ec <__adddf3>
 8001e38:	4603      	mov	r3, r0
 8001e3a:	460c      	mov	r4, r1
 8001e3c:	469a      	mov	sl, r3
 8001e3e:	46a3      	mov	fp, r4
 8001e40:	e9d7 230e 	ldrd	r2, r3, [r7, #56]	; 0x38
 8001e44:	f04f 0000 	mov.w	r0, #0
 8001e48:	f04f 4180 	mov.w	r1, #1073741824	; 0x40000000
 8001e4c:	f7fe f9cc 	bl	80001e8 <__aeabi_dsub>
 8001e50:	4603      	mov	r3, r0
 8001e52:	460c      	mov	r4, r1
 8001e54:	e9c7 3400 	strd	r3, r4, [r7]
 8001e58:	f04f 0200 	mov.w	r2, #0
 8001e5c:	4b47      	ldr	r3, [pc, #284]	; (8001f7c <_etoa+0x364>)
 8001e5e:	e9d7 010c 	ldrd	r0, r1, [r7, #48]	; 0x30
 8001e62:	f7fe fca3 	bl	80007ac <__aeabi_ddiv>
 8001e66:	4603      	mov	r3, r0
 8001e68:	460c      	mov	r4, r1
 8001e6a:	4618      	mov	r0, r3
 8001e6c:	4621      	mov	r1, r4
 8001e6e:	f04f 0200 	mov.w	r2, #0
 8001e72:	4b43      	ldr	r3, [pc, #268]	; (8001f80 <_etoa+0x368>)
 8001e74:	f7fe f9ba 	bl	80001ec <__adddf3>
 8001e78:	4603      	mov	r3, r0
 8001e7a:	460c      	mov	r4, r1
 8001e7c:	461a      	mov	r2, r3
 8001e7e:	4623      	mov	r3, r4
 8001e80:	e9d7 010c 	ldrd	r0, r1, [r7, #48]	; 0x30
 8001e84:	f7fe fc92 	bl	80007ac <__aeabi_ddiv>
 8001e88:	4603      	mov	r3, r0
 8001e8a:	460c      	mov	r4, r1
 8001e8c:	4618      	mov	r0, r3
 8001e8e:	4621      	mov	r1, r4
 8001e90:	f04f 0200 	mov.w	r2, #0
 8001e94:	4b3b      	ldr	r3, [pc, #236]	; (8001f84 <_etoa+0x36c>)
 8001e96:	f7fe f9a9 	bl	80001ec <__adddf3>
 8001e9a:	4603      	mov	r3, r0
 8001e9c:	460c      	mov	r4, r1
 8001e9e:	461a      	mov	r2, r3
 8001ea0:	4623      	mov	r3, r4
 8001ea2:	e9d7 010c 	ldrd	r0, r1, [r7, #48]	; 0x30
 8001ea6:	f7fe fc81 	bl	80007ac <__aeabi_ddiv>
 8001eaa:	4603      	mov	r3, r0
 8001eac:	460c      	mov	r4, r1
 8001eae:	461a      	mov	r2, r3
 8001eb0:	4623      	mov	r3, r4
 8001eb2:	e9d7 0100 	ldrd	r0, r1, [r7]
 8001eb6:	f7fe f999 	bl	80001ec <__adddf3>
 8001eba:	4603      	mov	r3, r0
 8001ebc:	460c      	mov	r4, r1
 8001ebe:	461a      	mov	r2, r3
 8001ec0:	4623      	mov	r3, r4
 8001ec2:	4650      	mov	r0, sl
 8001ec4:	4659      	mov	r1, fp
 8001ec6:	f7fe fc71 	bl	80007ac <__aeabi_ddiv>
 8001eca:	4603      	mov	r3, r0
 8001ecc:	460c      	mov	r4, r1
 8001ece:	4618      	mov	r0, r3
 8001ed0:	4621      	mov	r1, r4
 8001ed2:	f04f 0200 	mov.w	r2, #0
 8001ed6:	4b26      	ldr	r3, [pc, #152]	; (8001f70 <_etoa+0x358>)
 8001ed8:	f7fe f988 	bl	80001ec <__adddf3>
 8001edc:	4603      	mov	r3, r0
 8001ede:	460c      	mov	r4, r1
 8001ee0:	461a      	mov	r2, r3
 8001ee2:	4623      	mov	r3, r4
 8001ee4:	4640      	mov	r0, r8
 8001ee6:	4649      	mov	r1, r9
 8001ee8:	f7fe fb36 	bl	8000558 <__aeabi_dmul>
 8001eec:	4603      	mov	r3, r0
 8001eee:	460c      	mov	r4, r1
 8001ef0:	e9c7 3408 	strd	r3, r4, [r7, #32]
 8001ef4:	e9d7 3408 	ldrd	r3, r4, [r7, #32]
 8001ef8:	461a      	mov	r2, r3
 8001efa:	4623      	mov	r3, r4
 8001efc:	e9d7 0102 	ldrd	r0, r1, [r7, #8]
 8001f00:	f7fe fd9c 	bl	8000a3c <__aeabi_dcmplt>
 8001f04:	4603      	mov	r3, r0
 8001f06:	2b00      	cmp	r3, #0
 8001f08:	d00d      	beq.n	8001f26 <_etoa+0x30e>
 8001f0a:	6d7b      	ldr	r3, [r7, #84]	; 0x54
 8001f0c:	3b01      	subs	r3, #1
 8001f0e:	657b      	str	r3, [r7, #84]	; 0x54
 8001f10:	e9d7 0108 	ldrd	r0, r1, [r7, #32]
 8001f14:	f04f 0200 	mov.w	r2, #0
 8001f18:	4b19      	ldr	r3, [pc, #100]	; (8001f80 <_etoa+0x368>)
 8001f1a:	f7fe fc47 	bl	80007ac <__aeabi_ddiv>
 8001f1e:	4603      	mov	r3, r0
 8001f20:	460c      	mov	r4, r1
 8001f22:	e9c7 3408 	strd	r3, r4, [r7, #32]
 8001f26:	6d7b      	ldr	r3, [r7, #84]	; 0x54
 8001f28:	2b63      	cmp	r3, #99	; 0x63
 8001f2a:	dc2d      	bgt.n	8001f88 <_etoa+0x370>
 8001f2c:	6d7b      	ldr	r3, [r7, #84]	; 0x54
 8001f2e:	f113 0f63 	cmn.w	r3, #99	; 0x63
 8001f32:	db29      	blt.n	8001f88 <_etoa+0x370>
 8001f34:	2304      	movs	r3, #4
 8001f36:	e028      	b.n	8001f8a <_etoa+0x372>
 8001f38:	509f79fb 	.word	0x509f79fb
 8001f3c:	3fd34413 	.word	0x3fd34413
 8001f40:	8b60c8b3 	.word	0x8b60c8b3
 8001f44:	3fc68a28 	.word	0x3fc68a28
 8001f48:	636f4361 	.word	0x636f4361
 8001f4c:	3fd287a7 	.word	0x3fd287a7
 8001f50:	0979a371 	.word	0x0979a371
 8001f54:	400a934f 	.word	0x400a934f
 8001f58:	bbb55516 	.word	0xbbb55516
 8001f5c:	40026bb1 	.word	0x40026bb1
 8001f60:	fefa39ef 	.word	0xfefa39ef
 8001f64:	3fe62e42 	.word	0x3fe62e42
 8001f68:	7fefffff 	.word	0x7fefffff
 8001f6c:	000fffff 	.word	0x000fffff
 8001f70:	3ff00000 	.word	0x3ff00000
 8001f74:	3ff80000 	.word	0x3ff80000
 8001f78:	3fe00000 	.word	0x3fe00000
 8001f7c:	402c0000 	.word	0x402c0000
 8001f80:	40240000 	.word	0x40240000
 8001f84:	40180000 	.word	0x40180000
 8001f88:	2305      	movs	r3, #5
 8001f8a:	653b      	str	r3, [r7, #80]	; 0x50
 8001f8c:	f8d7 3088 	ldr.w	r3, [r7, #136]	; 0x88
 8001f90:	f403 6300 	and.w	r3, r3, #2048	; 0x800
 8001f94:	2b00      	cmp	r3, #0
 8001f96:	d03d      	beq.n	8002014 <_etoa+0x3fc>
 8001f98:	a367      	add	r3, pc, #412	; (adr r3, 8002138 <_etoa+0x520>)
 8001f9a:	e9d3 2300 	ldrd	r2, r3, [r3]
 8001f9e:	e9d7 0102 	ldrd	r0, r1, [r7, #8]
 8001fa2:	f7fe fd5f 	bl	8000a64 <__aeabi_dcmpge>
 8001fa6:	4603      	mov	r3, r0
 8001fa8:	2b00      	cmp	r3, #0
 8001faa:	d024      	beq.n	8001ff6 <_etoa+0x3de>
 8001fac:	a364      	add	r3, pc, #400	; (adr r3, 8002140 <_etoa+0x528>)
 8001fae:	e9d3 2300 	ldrd	r2, r3, [r3]
 8001fb2:	e9d7 0102 	ldrd	r0, r1, [r7, #8]
 8001fb6:	f7fe fd41 	bl	8000a3c <__aeabi_dcmplt>
 8001fba:	4603      	mov	r3, r0
 8001fbc:	2b00      	cmp	r3, #0
 8001fbe:	d01a      	beq.n	8001ff6 <_etoa+0x3de>
 8001fc0:	f8d7 3080 	ldr.w	r3, [r7, #128]	; 0x80
 8001fc4:	6d7a      	ldr	r2, [r7, #84]	; 0x54
 8001fc6:	429a      	cmp	r2, r3
 8001fc8:	da07      	bge.n	8001fda <_etoa+0x3c2>
 8001fca:	f8d7 2080 	ldr.w	r2, [r7, #128]	; 0x80
 8001fce:	6d7b      	ldr	r3, [r7, #84]	; 0x54
 8001fd0:	1ad3      	subs	r3, r2, r3
 8001fd2:	3b01      	subs	r3, #1
 8001fd4:	f8c7 3080 	str.w	r3, [r7, #128]	; 0x80
 8001fd8:	e002      	b.n	8001fe0 <_etoa+0x3c8>
 8001fda:	2300      	movs	r3, #0
 8001fdc:	f8c7 3080 	str.w	r3, [r7, #128]	; 0x80
 8001fe0:	f8d7 3088 	ldr.w	r3, [r7, #136]	; 0x88
 8001fe4:	f443 6380 	orr.w	r3, r3, #1024	; 0x400
 8001fe8:	f8c7 3088 	str.w	r3, [r7, #136]	; 0x88
 8001fec:	2300      	movs	r3, #0
 8001fee:	653b      	str	r3, [r7, #80]	; 0x50
 8001ff0:	2300      	movs	r3, #0
 8001ff2:	657b      	str	r3, [r7, #84]	; 0x54
 8001ff4:	e00e      	b.n	8002014 <_etoa+0x3fc>
 8001ff6:	f8d7 3080 	ldr.w	r3, [r7, #128]	; 0x80
 8001ffa:	2b00      	cmp	r3, #0
 8001ffc:	d00a      	beq.n	8002014 <_etoa+0x3fc>
 8001ffe:	f8d7 3088 	ldr.w	r3, [r7, #136]	; 0x88
 8002002:	f403 6380 	and.w	r3, r3, #1024	; 0x400
 8002006:	2b00      	cmp	r3, #0
 8002008:	d004      	beq.n	8002014 <_etoa+0x3fc>
 800200a:	f8d7 3080 	ldr.w	r3, [r7, #128]	; 0x80
 800200e:	3b01      	subs	r3, #1
 8002010:	f8c7 3080 	str.w	r3, [r7, #128]	; 0x80
 8002014:	f8d7 3084 	ldr.w	r3, [r7, #132]	; 0x84
 8002018:	64fb      	str	r3, [r7, #76]	; 0x4c
 800201a:	f8d7 2084 	ldr.w	r2, [r7, #132]	; 0x84
 800201e:	6d3b      	ldr	r3, [r7, #80]	; 0x50
 8002020:	429a      	cmp	r2, r3
 8002022:	d904      	bls.n	800202e <_etoa+0x416>
 8002024:	6cfa      	ldr	r2, [r7, #76]	; 0x4c
 8002026:	6d3b      	ldr	r3, [r7, #80]	; 0x50
 8002028:	1ad3      	subs	r3, r2, r3
 800202a:	64fb      	str	r3, [r7, #76]	; 0x4c
 800202c:	e001      	b.n	8002032 <_etoa+0x41a>
 800202e:	2300      	movs	r3, #0
 8002030:	64fb      	str	r3, [r7, #76]	; 0x4c
 8002032:	f8d7 3088 	ldr.w	r3, [r7, #136]	; 0x88
 8002036:	f003 0302 	and.w	r3, r3, #2
 800203a:	2b00      	cmp	r3, #0
 800203c:	d004      	beq.n	8002048 <_etoa+0x430>
 800203e:	6d3b      	ldr	r3, [r7, #80]	; 0x50
 8002040:	2b00      	cmp	r3, #0
 8002042:	d001      	beq.n	8002048 <_etoa+0x430>
 8002044:	2300      	movs	r3, #0
 8002046:	64fb      	str	r3, [r7, #76]	; 0x4c
 8002048:	6d7b      	ldr	r3, [r7, #84]	; 0x54
 800204a:	2b00      	cmp	r3, #0
 800204c:	d00b      	beq.n	8002066 <_etoa+0x44e>
 800204e:	e9d7 3408 	ldrd	r3, r4, [r7, #32]
 8002052:	461a      	mov	r2, r3
 8002054:	4623      	mov	r3, r4
 8002056:	e9d7 0102 	ldrd	r0, r1, [r7, #8]
 800205a:	f7fe fba7 	bl	80007ac <__aeabi_ddiv>
 800205e:	4603      	mov	r3, r0
 8002060:	460c      	mov	r4, r1
 8002062:	e9c7 3402 	strd	r3, r4, [r7, #8]
 8002066:	697b      	ldr	r3, [r7, #20]
 8002068:	62fb      	str	r3, [r7, #44]	; 0x2c
 800206a:	f897 304b 	ldrb.w	r3, [r7, #75]	; 0x4b
 800206e:	2b00      	cmp	r3, #0
 8002070:	d004      	beq.n	800207c <_etoa+0x464>
 8002072:	68bd      	ldr	r5, [r7, #8]
 8002074:	68fb      	ldr	r3, [r7, #12]
 8002076:	f083 4600 	eor.w	r6, r3, #2147483648	; 0x80000000
 800207a:	e001      	b.n	8002080 <_etoa+0x468>
 800207c:	e9d7 5602 	ldrd	r5, r6, [r7, #8]
 8002080:	f8d7 3088 	ldr.w	r3, [r7, #136]	; 0x88
 8002084:	f423 6300 	bic.w	r3, r3, #2048	; 0x800
 8002088:	9302      	str	r3, [sp, #8]
 800208a:	6cfb      	ldr	r3, [r7, #76]	; 0x4c
 800208c:	9301      	str	r3, [sp, #4]
 800208e:	f8d7 3080 	ldr.w	r3, [r7, #128]	; 0x80
 8002092:	9300      	str	r3, [sp, #0]
 8002094:	ec46 5b10 	vmov	d0, r5, r6
 8002098:	693b      	ldr	r3, [r7, #16]
 800209a:	697a      	ldr	r2, [r7, #20]
 800209c:	69b9      	ldr	r1, [r7, #24]
 800209e:	69f8      	ldr	r0, [r7, #28]
 80020a0:	f7ff fb4e 	bl	8001740 <_ftoa>
 80020a4:	6178      	str	r0, [r7, #20]
 80020a6:	6d3b      	ldr	r3, [r7, #80]	; 0x50
 80020a8:	2b00      	cmp	r3, #0
 80020aa:	d03f      	beq.n	800212c <_etoa+0x514>
 80020ac:	f8d7 3088 	ldr.w	r3, [r7, #136]	; 0x88
 80020b0:	f003 0320 	and.w	r3, r3, #32
 80020b4:	2b00      	cmp	r3, #0
 80020b6:	d001      	beq.n	80020bc <_etoa+0x4a4>
 80020b8:	2045      	movs	r0, #69	; 0x45
 80020ba:	e000      	b.n	80020be <_etoa+0x4a6>
 80020bc:	2065      	movs	r0, #101	; 0x65
 80020be:	697a      	ldr	r2, [r7, #20]
 80020c0:	1c53      	adds	r3, r2, #1
 80020c2:	617b      	str	r3, [r7, #20]
 80020c4:	69fc      	ldr	r4, [r7, #28]
 80020c6:	693b      	ldr	r3, [r7, #16]
 80020c8:	69b9      	ldr	r1, [r7, #24]
 80020ca:	47a0      	blx	r4
 80020cc:	6d7b      	ldr	r3, [r7, #84]	; 0x54
 80020ce:	2b00      	cmp	r3, #0
 80020d0:	bfb8      	it	lt
 80020d2:	425b      	neglt	r3, r3
 80020d4:	4618      	mov	r0, r3
 80020d6:	6d7b      	ldr	r3, [r7, #84]	; 0x54
 80020d8:	0fdb      	lsrs	r3, r3, #31
 80020da:	b2db      	uxtb	r3, r3
 80020dc:	6d3a      	ldr	r2, [r7, #80]	; 0x50
 80020de:	3a01      	subs	r2, #1
 80020e0:	2105      	movs	r1, #5
 80020e2:	9105      	str	r1, [sp, #20]
 80020e4:	9204      	str	r2, [sp, #16]
 80020e6:	2200      	movs	r2, #0
 80020e8:	9203      	str	r2, [sp, #12]
 80020ea:	220a      	movs	r2, #10
 80020ec:	9202      	str	r2, [sp, #8]
 80020ee:	9301      	str	r3, [sp, #4]
 80020f0:	9000      	str	r0, [sp, #0]
 80020f2:	693b      	ldr	r3, [r7, #16]
 80020f4:	697a      	ldr	r2, [r7, #20]
 80020f6:	69b9      	ldr	r1, [r7, #24]
 80020f8:	69f8      	ldr	r0, [r7, #28]
 80020fa:	f7ff fa48 	bl	800158e <_ntoa_long>
 80020fe:	6178      	str	r0, [r7, #20]
 8002100:	f8d7 3088 	ldr.w	r3, [r7, #136]	; 0x88
 8002104:	f003 0302 	and.w	r3, r3, #2
 8002108:	2b00      	cmp	r3, #0
 800210a:	d00f      	beq.n	800212c <_etoa+0x514>
 800210c:	e007      	b.n	800211e <_etoa+0x506>
 800210e:	697a      	ldr	r2, [r7, #20]
 8002110:	1c53      	adds	r3, r2, #1
 8002112:	617b      	str	r3, [r7, #20]
 8002114:	69fc      	ldr	r4, [r7, #28]
 8002116:	693b      	ldr	r3, [r7, #16]
 8002118:	69b9      	ldr	r1, [r7, #24]
 800211a:	2020      	movs	r0, #32
 800211c:	47a0      	blx	r4
 800211e:	697a      	ldr	r2, [r7, #20]
 8002120:	6afb      	ldr	r3, [r7, #44]	; 0x2c
 8002122:	1ad3      	subs	r3, r2, r3
 8002124:	f8d7 2084 	ldr.w	r2, [r7, #132]	; 0x84
 8002128:	429a      	cmp	r2, r3
 800212a:	d8f0      	bhi.n	800210e <_etoa+0x4f6>
 800212c:	697b      	ldr	r3, [r7, #20]
 800212e:	4618      	mov	r0, r3
 8002130:	375c      	adds	r7, #92	; 0x5c
 8002132:	46bd      	mov	sp, r7
 8002134:	e8bd 8ff0 	ldmia.w	sp!, {r4, r5, r6, r7, r8, r9, sl, fp, pc}
 8002138:	eb1c432d 	.word	0xeb1c432d
 800213c:	3f1a36e2 	.word	0x3f1a36e2
 8002140:	00000000 	.word	0x00000000
 8002144:	412e8480 	.word	0x412e8480

08002148 <_vsnprintf>:
 8002148:	b5b0      	push	{r4, r5, r7, lr}
 800214a:	b0a0      	sub	sp, #128	; 0x80
 800214c:	af0a      	add	r7, sp, #40	; 0x28
 800214e:	60f8      	str	r0, [r7, #12]
 8002150:	60b9      	str	r1, [r7, #8]
 8002152:	607a      	str	r2, [r7, #4]
 8002154:	603b      	str	r3, [r7, #0]
 8002156:	2300      	movs	r3, #0
 8002158:	647b      	str	r3, [r7, #68]	; 0x44
 800215a:	68bb      	ldr	r3, [r7, #8]
 800215c:	2b00      	cmp	r3, #0
 800215e:	f040 8492 	bne.w	8002a86 <_vsnprintf+0x93e>
 8002162:	4ba0      	ldr	r3, [pc, #640]	; (80023e4 <_vsnprintf+0x29c>)
 8002164:	60fb      	str	r3, [r7, #12]
 8002166:	f000 bc8e 	b.w	8002a86 <_vsnprintf+0x93e>
 800216a:	683b      	ldr	r3, [r7, #0]
 800216c:	781b      	ldrb	r3, [r3, #0]
 800216e:	2b25      	cmp	r3, #37	; 0x25
 8002170:	d00d      	beq.n	800218e <_vsnprintf+0x46>
 8002172:	683b      	ldr	r3, [r7, #0]
 8002174:	7818      	ldrb	r0, [r3, #0]
 8002176:	6c7a      	ldr	r2, [r7, #68]	; 0x44
 8002178:	1c53      	adds	r3, r2, #1
 800217a:	647b      	str	r3, [r7, #68]	; 0x44
 800217c:	68fc      	ldr	r4, [r7, #12]
 800217e:	687b      	ldr	r3, [r7, #4]
 8002180:	68b9      	ldr	r1, [r7, #8]
 8002182:	47a0      	blx	r4
 8002184:	683b      	ldr	r3, [r7, #0]
 8002186:	3301      	adds	r3, #1
 8002188:	603b      	str	r3, [r7, #0]
 800218a:	f000 bc7c 	b.w	8002a86 <_vsnprintf+0x93e>
 800218e:	683b      	ldr	r3, [r7, #0]
 8002190:	3301      	adds	r3, #1
 8002192:	603b      	str	r3, [r7, #0]
 8002194:	2300      	movs	r3, #0
 8002196:	657b      	str	r3, [r7, #84]	; 0x54
 8002198:	683b      	ldr	r3, [r7, #0]
 800219a:	781b      	ldrb	r3, [r3, #0]
 800219c:	3b20      	subs	r3, #32
 800219e:	2b10      	cmp	r3, #16
 80021a0:	d856      	bhi.n	8002250 <_vsnprintf+0x108>
 80021a2:	a201      	add	r2, pc, #4	; (adr r2, 80021a8 <_vsnprintf+0x60>)
 80021a4:	f852 f023 	ldr.w	pc, [r2, r3, lsl #2]
 80021a8:	08002229 	.word	0x08002229
 80021ac:	08002251 	.word	0x08002251
 80021b0:	08002251 	.word	0x08002251
 80021b4:	0800223d 	.word	0x0800223d
 80021b8:	08002251 	.word	0x08002251
 80021bc:	08002251 	.word	0x08002251
 80021c0:	08002251 	.word	0x08002251
 80021c4:	08002251 	.word	0x08002251
 80021c8:	08002251 	.word	0x08002251
 80021cc:	08002251 	.word	0x08002251
 80021d0:	08002251 	.word	0x08002251
 80021d4:	08002215 	.word	0x08002215
 80021d8:	08002251 	.word	0x08002251
 80021dc:	08002201 	.word	0x08002201
 80021e0:	08002251 	.word	0x08002251
 80021e4:	08002251 	.word	0x08002251
 80021e8:	080021ed 	.word	0x080021ed
 80021ec:	6d7b      	ldr	r3, [r7, #84]	; 0x54
 80021ee:	f043 0301 	orr.w	r3, r3, #1
 80021f2:	657b      	str	r3, [r7, #84]	; 0x54
 80021f4:	683b      	ldr	r3, [r7, #0]
 80021f6:	3301      	adds	r3, #1
 80021f8:	603b      	str	r3, [r7, #0]
 80021fa:	2301      	movs	r3, #1
 80021fc:	64bb      	str	r3, [r7, #72]	; 0x48
 80021fe:	e02a      	b.n	8002256 <_vsnprintf+0x10e>
 8002200:	6d7b      	ldr	r3, [r7, #84]	; 0x54
 8002202:	f043 0302 	orr.w	r3, r3, #2
 8002206:	657b      	str	r3, [r7, #84]	; 0x54
 8002208:	683b      	ldr	r3, [r7, #0]
 800220a:	3301      	adds	r3, #1
 800220c:	603b      	str	r3, [r7, #0]
 800220e:	2301      	movs	r3, #1
 8002210:	64bb      	str	r3, [r7, #72]	; 0x48
 8002212:	e020      	b.n	8002256 <_vsnprintf+0x10e>
 8002214:	6d7b      	ldr	r3, [r7, #84]	; 0x54
 8002216:	f043 0304 	orr.w	r3, r3, #4
 800221a:	657b      	str	r3, [r7, #84]	; 0x54
 800221c:	683b      	ldr	r3, [r7, #0]
 800221e:	3301      	adds	r3, #1
 8002220:	603b      	str	r3, [r7, #0]
 8002222:	2301      	movs	r3, #1
 8002224:	64bb      	str	r3, [r7, #72]	; 0x48
 8002226:	e016      	b.n	8002256 <_vsnprintf+0x10e>
 8002228:	6d7b      	ldr	r3, [r7, #84]	; 0x54
 800222a:	f043 0308 	orr.w	r3, r3, #8
 800222e:	657b      	str	r3, [r7, #84]	; 0x54
 8002230:	683b      	ldr	r3, [r7, #0]
 8002232:	3301      	adds	r3, #1
 8002234:	603b      	str	r3, [r7, #0]
 8002236:	2301      	movs	r3, #1
 8002238:	64bb      	str	r3, [r7, #72]	; 0x48
 800223a:	e00c      	b.n	8002256 <_vsnprintf+0x10e>
 800223c:	6d7b      	ldr	r3, [r7, #84]	; 0x54
 800223e:	f043 0310 	orr.w	r3, r3, #16
 8002242:	657b      	str	r3, [r7, #84]	; 0x54
 8002244:	683b      	ldr	r3, [r7, #0]
 8002246:	3301      	adds	r3, #1
 8002248:	603b      	str	r3, [r7, #0]
 800224a:	2301      	movs	r3, #1
 800224c:	64bb      	str	r3, [r7, #72]	; 0x48
 800224e:	e002      	b.n	8002256 <_vsnprintf+0x10e>
 8002250:	2300      	movs	r3, #0
 8002252:	64bb      	str	r3, [r7, #72]	; 0x48
 8002254:	bf00      	nop
 8002256:	6cbb      	ldr	r3, [r7, #72]	; 0x48
 8002258:	2b00      	cmp	r3, #0
 800225a:	d19d      	bne.n	8002198 <_vsnprintf+0x50>
 800225c:	2300      	movs	r3, #0
 800225e:	653b      	str	r3, [r7, #80]	; 0x50
 8002260:	683b      	ldr	r3, [r7, #0]
 8002262:	781b      	ldrb	r3, [r3, #0]
 8002264:	4618      	mov	r0, r3
 8002266:	f7ff f82b 	bl	80012c0 <_is_digit>
 800226a:	4603      	mov	r3, r0
 800226c:	2b00      	cmp	r3, #0
 800226e:	d005      	beq.n	800227c <_vsnprintf+0x134>
 8002270:	463b      	mov	r3, r7
 8002272:	4618      	mov	r0, r3
 8002274:	f7ff f83b 	bl	80012ee <_atoi>
 8002278:	6538      	str	r0, [r7, #80]	; 0x50
 800227a:	e018      	b.n	80022ae <_vsnprintf+0x166>
 800227c:	683b      	ldr	r3, [r7, #0]
 800227e:	781b      	ldrb	r3, [r3, #0]
 8002280:	2b2a      	cmp	r3, #42	; 0x2a
 8002282:	d114      	bne.n	80022ae <_vsnprintf+0x166>
 8002284:	6ebb      	ldr	r3, [r7, #104]	; 0x68
 8002286:	1d1a      	adds	r2, r3, #4
 8002288:	66ba      	str	r2, [r7, #104]	; 0x68
 800228a:	681b      	ldr	r3, [r3, #0]
 800228c:	633b      	str	r3, [r7, #48]	; 0x30
 800228e:	6b3b      	ldr	r3, [r7, #48]	; 0x30
 8002290:	2b00      	cmp	r3, #0
 8002292:	da07      	bge.n	80022a4 <_vsnprintf+0x15c>
 8002294:	6d7b      	ldr	r3, [r7, #84]	; 0x54
 8002296:	f043 0302 	orr.w	r3, r3, #2
 800229a:	657b      	str	r3, [r7, #84]	; 0x54
 800229c:	6b3b      	ldr	r3, [r7, #48]	; 0x30
 800229e:	425b      	negs	r3, r3
 80022a0:	653b      	str	r3, [r7, #80]	; 0x50
 80022a2:	e001      	b.n	80022a8 <_vsnprintf+0x160>
 80022a4:	6b3b      	ldr	r3, [r7, #48]	; 0x30
 80022a6:	653b      	str	r3, [r7, #80]	; 0x50
 80022a8:	683b      	ldr	r3, [r7, #0]
 80022aa:	3301      	adds	r3, #1
 80022ac:	603b      	str	r3, [r7, #0]
 80022ae:	2300      	movs	r3, #0
 80022b0:	64fb      	str	r3, [r7, #76]	; 0x4c
 80022b2:	683b      	ldr	r3, [r7, #0]
 80022b4:	781b      	ldrb	r3, [r3, #0]
 80022b6:	2b2e      	cmp	r3, #46	; 0x2e
 80022b8:	d124      	bne.n	8002304 <_vsnprintf+0x1bc>
 80022ba:	6d7b      	ldr	r3, [r7, #84]	; 0x54
 80022bc:	f443 6380 	orr.w	r3, r3, #1024	; 0x400
 80022c0:	657b      	str	r3, [r7, #84]	; 0x54
 80022c2:	683b      	ldr	r3, [r7, #0]
 80022c4:	3301      	adds	r3, #1
 80022c6:	603b      	str	r3, [r7, #0]
 80022c8:	683b      	ldr	r3, [r7, #0]
 80022ca:	781b      	ldrb	r3, [r3, #0]
 80022cc:	4618      	mov	r0, r3
 80022ce:	f7fe fff7 	bl	80012c0 <_is_digit>
 80022d2:	4603      	mov	r3, r0
 80022d4:	2b00      	cmp	r3, #0
 80022d6:	d005      	beq.n	80022e4 <_vsnprintf+0x19c>
 80022d8:	463b      	mov	r3, r7
 80022da:	4618      	mov	r0, r3
 80022dc:	f7ff f807 	bl	80012ee <_atoi>
 80022e0:	64f8      	str	r0, [r7, #76]	; 0x4c
 80022e2:	e00f      	b.n	8002304 <_vsnprintf+0x1bc>
 80022e4:	683b      	ldr	r3, [r7, #0]
 80022e6:	781b      	ldrb	r3, [r3, #0]
 80022e8:	2b2a      	cmp	r3, #42	; 0x2a
 80022ea:	d10b      	bne.n	8002304 <_vsnprintf+0x1bc>
 80022ec:	6ebb      	ldr	r3, [r7, #104]	; 0x68
 80022ee:	1d1a      	adds	r2, r3, #4
 80022f0:	66ba      	str	r2, [r7, #104]	; 0x68
 80022f2:	681b      	ldr	r3, [r3, #0]
 80022f4:	62fb      	str	r3, [r7, #44]	; 0x2c
 80022f6:	6afb      	ldr	r3, [r7, #44]	; 0x2c
 80022f8:	ea23 73e3 	bic.w	r3, r3, r3, asr #31
 80022fc:	64fb      	str	r3, [r7, #76]	; 0x4c
 80022fe:	683b      	ldr	r3, [r7, #0]
 8002300:	3301      	adds	r3, #1
 8002302:	603b      	str	r3, [r7, #0]
 8002304:	683b      	ldr	r3, [r7, #0]
 8002306:	781b      	ldrb	r3, [r3, #0]
 8002308:	3b68      	subs	r3, #104	; 0x68
 800230a:	2b12      	cmp	r3, #18
 800230c:	d866      	bhi.n	80023dc <_vsnprintf+0x294>
 800230e:	a201      	add	r2, pc, #4	; (adr r2, 8002314 <_vsnprintf+0x1cc>)
 8002310:	f852 f023 	ldr.w	pc, [r2, r3, lsl #2]
 8002314:	08002387 	.word	0x08002387
 8002318:	080023dd 	.word	0x080023dd
 800231c:	080023bd 	.word	0x080023bd
 8002320:	080023dd 	.word	0x080023dd
 8002324:	08002361 	.word	0x08002361
 8002328:	080023dd 	.word	0x080023dd
 800232c:	080023dd 	.word	0x080023dd
 8002330:	080023dd 	.word	0x080023dd
 8002334:	080023dd 	.word	0x080023dd
 8002338:	080023dd 	.word	0x080023dd
 800233c:	080023dd 	.word	0x080023dd
 8002340:	080023dd 	.word	0x080023dd
 8002344:	080023ad 	.word	0x080023ad
 8002348:	080023dd 	.word	0x080023dd
 800234c:	080023dd 	.word	0x080023dd
 8002350:	080023dd 	.word	0x080023dd
 8002354:	080023dd 	.word	0x080023dd
 8002358:	080023dd 	.word	0x080023dd
 800235c:	080023cd 	.word	0x080023cd
 8002360:	6d7b      	ldr	r3, [r7, #84]	; 0x54
 8002362:	f443 7380 	orr.w	r3, r3, #256	; 0x100
 8002366:	657b      	str	r3, [r7, #84]	; 0x54
 8002368:	683b      	ldr	r3, [r7, #0]
 800236a:	3301      	adds	r3, #1
 800236c:	603b      	str	r3, [r7, #0]
 800236e:	683b      	ldr	r3, [r7, #0]
 8002370:	781b      	ldrb	r3, [r3, #0]
 8002372:	2b6c      	cmp	r3, #108	; 0x6c
 8002374:	d134      	bne.n	80023e0 <_vsnprintf+0x298>
 8002376:	6d7b      	ldr	r3, [r7, #84]	; 0x54
 8002378:	f443 7300 	orr.w	r3, r3, #512	; 0x200
 800237c:	657b      	str	r3, [r7, #84]	; 0x54
 800237e:	683b      	ldr	r3, [r7, #0]
 8002380:	3301      	adds	r3, #1
 8002382:	603b      	str	r3, [r7, #0]
 8002384:	e02c      	b.n	80023e0 <_vsnprintf+0x298>
 8002386:	6d7b      	ldr	r3, [r7, #84]	; 0x54
 8002388:	f043 0380 	orr.w	r3, r3, #128	; 0x80
 800238c:	657b      	str	r3, [r7, #84]	; 0x54
 800238e:	683b      	ldr	r3, [r7, #0]
 8002390:	3301      	adds	r3, #1
 8002392:	603b      	str	r3, [r7, #0]
 8002394:	683b      	ldr	r3, [r7, #0]
 8002396:	781b      	ldrb	r3, [r3, #0]
 8002398:	2b68      	cmp	r3, #104	; 0x68
 800239a:	d125      	bne.n	80023e8 <_vsnprintf+0x2a0>
 800239c:	6d7b      	ldr	r3, [r7, #84]	; 0x54
 800239e:	f043 0340 	orr.w	r3, r3, #64	; 0x40
 80023a2:	657b      	str	r3, [r7, #84]	; 0x54
 80023a4:	683b      	ldr	r3, [r7, #0]
 80023a6:	3301      	adds	r3, #1
 80023a8:	603b      	str	r3, [r7, #0]
 80023aa:	e01d      	b.n	80023e8 <_vsnprintf+0x2a0>
 80023ac:	6d7b      	ldr	r3, [r7, #84]	; 0x54
 80023ae:	f443 7380 	orr.w	r3, r3, #256	; 0x100
 80023b2:	657b      	str	r3, [r7, #84]	; 0x54
 80023b4:	683b      	ldr	r3, [r7, #0]
 80023b6:	3301      	adds	r3, #1
 80023b8:	603b      	str	r3, [r7, #0]
 80023ba:	e016      	b.n	80023ea <_vsnprintf+0x2a2>
 80023bc:	6d7b      	ldr	r3, [r7, #84]	; 0x54
 80023be:	f443 7300 	orr.w	r3, r3, #512	; 0x200
 80023c2:	657b      	str	r3, [r7, #84]	; 0x54
 80023c4:	683b      	ldr	r3, [r7, #0]
 80023c6:	3301      	adds	r3, #1
 80023c8:	603b      	str	r3, [r7, #0]
 80023ca:	e00e      	b.n	80023ea <_vsnprintf+0x2a2>
 80023cc:	6d7b      	ldr	r3, [r7, #84]	; 0x54
 80023ce:	f443 7380 	orr.w	r3, r3, #256	; 0x100
 80023d2:	657b      	str	r3, [r7, #84]	; 0x54
 80023d4:	683b      	ldr	r3, [r7, #0]
 80023d6:	3301      	adds	r3, #1
 80023d8:	603b      	str	r3, [r7, #0]
 80023da:	e006      	b.n	80023ea <_vsnprintf+0x2a2>
 80023dc:	bf00      	nop
 80023de:	e004      	b.n	80023ea <_vsnprintf+0x2a2>
 80023e0:	bf00      	nop
 80023e2:	e002      	b.n	80023ea <_vsnprintf+0x2a2>
 80023e4:	08001245 	.word	0x08001245
 80023e8:	bf00      	nop
 80023ea:	683b      	ldr	r3, [r7, #0]
 80023ec:	781b      	ldrb	r3, [r3, #0]
 80023ee:	3b25      	subs	r3, #37	; 0x25
 80023f0:	2b53      	cmp	r3, #83	; 0x53
 80023f2:	f200 833b 	bhi.w	8002a6c <_vsnprintf+0x924>
 80023f6:	a201      	add	r2, pc, #4	; (adr r2, 80023fc <_vsnprintf+0x2b4>)
 80023f8:	f852 f023 	ldr.w	pc, [r2, r3, lsl #2]
 80023fc:	08002a55 	.word	0x08002a55
 8002400:	08002a6d 	.word	0x08002a6d
 8002404:	08002a6d 	.word	0x08002a6d
 8002408:	08002a6d 	.word	0x08002a6d
 800240c:	08002a6d 	.word	0x08002a6d
 8002410:	08002a6d 	.word	0x08002a6d
 8002414:	08002a6d 	.word	0x08002a6d
 8002418:	08002a6d 	.word	0x08002a6d
 800241c:	08002a6d 	.word	0x08002a6d
 8002420:	08002a6d 	.word	0x08002a6d
 8002424:	08002a6d 	.word	0x08002a6d
 8002428:	08002a6d 	.word	0x08002a6d
 800242c:	08002a6d 	.word	0x08002a6d
 8002430:	08002a6d 	.word	0x08002a6d
 8002434:	08002a6d 	.word	0x08002a6d
 8002438:	08002a6d 	.word	0x08002a6d
 800243c:	08002a6d 	.word	0x08002a6d
 8002440:	08002a6d 	.word	0x08002a6d
 8002444:	08002a6d 	.word	0x08002a6d
 8002448:	08002a6d 	.word	0x08002a6d
 800244c:	08002a6d 	.word	0x08002a6d
 8002450:	08002a6d 	.word	0x08002a6d
 8002454:	08002a6d 	.word	0x08002a6d
 8002458:	08002a6d 	.word	0x08002a6d
 800245c:	08002a6d 	.word	0x08002a6d
 8002460:	08002a6d 	.word	0x08002a6d
 8002464:	08002a6d 	.word	0x08002a6d
 8002468:	08002a6d 	.word	0x08002a6d
 800246c:	08002a6d 	.word	0x08002a6d
 8002470:	08002a6d 	.word	0x08002a6d
 8002474:	08002a6d 	.word	0x08002a6d
 8002478:	08002a6d 	.word	0x08002a6d
 800247c:	08002825 	.word	0x08002825
 8002480:	080027d9 	.word	0x080027d9
 8002484:	08002825 	.word	0x08002825
 8002488:	08002a6d 	.word	0x08002a6d
 800248c:	08002a6d 	.word	0x08002a6d
 8002490:	08002a6d 	.word	0x08002a6d
 8002494:	08002a6d 	.word	0x08002a6d
 8002498:	08002a6d 	.word	0x08002a6d
 800249c:	08002a6d 	.word	0x08002a6d
 80024a0:	08002a6d 	.word	0x08002a6d
 80024a4:	08002a6d 	.word	0x08002a6d
 80024a8:	08002a6d 	.word	0x08002a6d
 80024ac:	08002a6d 	.word	0x08002a6d
 80024b0:	08002a6d 	.word	0x08002a6d
 80024b4:	08002a6d 	.word	0x08002a6d
 80024b8:	08002a6d 	.word	0x08002a6d
 80024bc:	08002a6d 	.word	0x08002a6d
 80024c0:	08002a6d 	.word	0x08002a6d
 80024c4:	08002a6d 	.word	0x08002a6d
 80024c8:	0800254d 	.word	0x0800254d
 80024cc:	08002a6d 	.word	0x08002a6d
 80024d0:	08002a6d 	.word	0x08002a6d
 80024d4:	08002a6d 	.word	0x08002a6d
 80024d8:	08002a6d 	.word	0x08002a6d
 80024dc:	08002a6d 	.word	0x08002a6d
 80024e0:	08002a6d 	.word	0x08002a6d
 80024e4:	08002a6d 	.word	0x08002a6d
 80024e8:	08002a6d 	.word	0x08002a6d
 80024ec:	08002a6d 	.word	0x08002a6d
 80024f0:	0800254d 	.word	0x0800254d
 80024f4:	08002891 	.word	0x08002891
 80024f8:	0800254d 	.word	0x0800254d
 80024fc:	08002825 	.word	0x08002825
 8002500:	080027d9 	.word	0x080027d9
 8002504:	08002825 	.word	0x08002825
 8002508:	08002a6d 	.word	0x08002a6d
 800250c:	0800254d 	.word	0x0800254d
 8002510:	08002a6d 	.word	0x08002a6d
 8002514:	08002a6d 	.word	0x08002a6d
 8002518:	08002a6d 	.word	0x08002a6d
 800251c:	08002a6d 	.word	0x08002a6d
 8002520:	08002a6d 	.word	0x08002a6d
 8002524:	0800254d 	.word	0x0800254d
 8002528:	080029c9 	.word	0x080029c9
 800252c:	08002a6d 	.word	0x08002a6d
 8002530:	08002a6d 	.word	0x08002a6d
 8002534:	08002905 	.word	0x08002905
 8002538:	08002a6d 	.word	0x08002a6d
 800253c:	0800254d 	.word	0x0800254d
 8002540:	08002a6d 	.word	0x08002a6d
 8002544:	08002a6d 	.word	0x08002a6d
 8002548:	0800254d 	.word	0x0800254d
 800254c:	683b      	ldr	r3, [r7, #0]
 800254e:	781b      	ldrb	r3, [r3, #0]
 8002550:	2b78      	cmp	r3, #120	; 0x78
 8002552:	d003      	beq.n	800255c <_vsnprintf+0x414>
 8002554:	683b      	ldr	r3, [r7, #0]
 8002556:	781b      	ldrb	r3, [r3, #0]
 8002558:	2b58      	cmp	r3, #88	; 0x58
 800255a:	d102      	bne.n	8002562 <_vsnprintf+0x41a>
 800255c:	2310      	movs	r3, #16
 800255e:	643b      	str	r3, [r7, #64]	; 0x40
 8002560:	e013      	b.n	800258a <_vsnprintf+0x442>
 8002562:	683b      	ldr	r3, [r7, #0]
 8002564:	781b      	ldrb	r3, [r3, #0]
 8002566:	2b6f      	cmp	r3, #111	; 0x6f
 8002568:	d102      	bne.n	8002570 <_vsnprintf+0x428>
 800256a:	2308      	movs	r3, #8
 800256c:	643b      	str	r3, [r7, #64]	; 0x40
 800256e:	e00c      	b.n	800258a <_vsnprintf+0x442>
 8002570:	683b      	ldr	r3, [r7, #0]
 8002572:	781b      	ldrb	r3, [r3, #0]
 8002574:	2b62      	cmp	r3, #98	; 0x62
 8002576:	d102      	bne.n	800257e <_vsnprintf+0x436>
 8002578:	2302      	movs	r3, #2
 800257a:	643b      	str	r3, [r7, #64]	; 0x40
 800257c:	e005      	b.n	800258a <_vsnprintf+0x442>
 800257e:	230a      	movs	r3, #10
 8002580:	643b      	str	r3, [r7, #64]	; 0x40
 8002582:	6d7b      	ldr	r3, [r7, #84]	; 0x54
 8002584:	f023 0310 	bic.w	r3, r3, #16
 8002588:	657b      	str	r3, [r7, #84]	; 0x54
 800258a:	683b      	ldr	r3, [r7, #0]
 800258c:	781b      	ldrb	r3, [r3, #0]
 800258e:	2b58      	cmp	r3, #88	; 0x58
 8002590:	d103      	bne.n	800259a <_vsnprintf+0x452>
 8002592:	6d7b      	ldr	r3, [r7, #84]	; 0x54
 8002594:	f043 0320 	orr.w	r3, r3, #32
 8002598:	657b      	str	r3, [r7, #84]	; 0x54
 800259a:	683b      	ldr	r3, [r7, #0]
 800259c:	781b      	ldrb	r3, [r3, #0]
 800259e:	2b69      	cmp	r3, #105	; 0x69
 80025a0:	d007      	beq.n	80025b2 <_vsnprintf+0x46a>
 80025a2:	683b      	ldr	r3, [r7, #0]
 80025a4:	781b      	ldrb	r3, [r3, #0]
 80025a6:	2b64      	cmp	r3, #100	; 0x64
 80025a8:	d003      	beq.n	80025b2 <_vsnprintf+0x46a>
 80025aa:	6d7b      	ldr	r3, [r7, #84]	; 0x54
 80025ac:	f023 030c 	bic.w	r3, r3, #12
 80025b0:	657b      	str	r3, [r7, #84]	; 0x54
 80025b2:	6d7b      	ldr	r3, [r7, #84]	; 0x54
 80025b4:	f403 6380 	and.w	r3, r3, #1024	; 0x400
 80025b8:	2b00      	cmp	r3, #0
 80025ba:	d003      	beq.n	80025c4 <_vsnprintf+0x47c>
 80025bc:	6d7b      	ldr	r3, [r7, #84]	; 0x54
 80025be:	f023 0301 	bic.w	r3, r3, #1
 80025c2:	657b      	str	r3, [r7, #84]	; 0x54
 80025c4:	683b      	ldr	r3, [r7, #0]
 80025c6:	781b      	ldrb	r3, [r3, #0]
 80025c8:	2b69      	cmp	r3, #105	; 0x69
 80025ca:	d004      	beq.n	80025d6 <_vsnprintf+0x48e>
 80025cc:	683b      	ldr	r3, [r7, #0]
 80025ce:	781b      	ldrb	r3, [r3, #0]
 80025d0:	2b64      	cmp	r3, #100	; 0x64
 80025d2:	f040 808d 	bne.w	80026f0 <_vsnprintf+0x5a8>
 80025d6:	6d7b      	ldr	r3, [r7, #84]	; 0x54
 80025d8:	f403 7300 	and.w	r3, r3, #512	; 0x200
 80025dc:	2b00      	cmp	r3, #0
 80025de:	d02e      	beq.n	800263e <_vsnprintf+0x4f6>
 80025e0:	6ebb      	ldr	r3, [r7, #104]	; 0x68
 80025e2:	3307      	adds	r3, #7
 80025e4:	f023 0307 	bic.w	r3, r3, #7
 80025e8:	f103 0208 	add.w	r2, r3, #8
 80025ec:	66ba      	str	r2, [r7, #104]	; 0x68
 80025ee:	e9d3 3400 	ldrd	r3, r4, [r3]
 80025f2:	e9c7 3404 	strd	r3, r4, [r7, #16]
 80025f6:	e9d7 3404 	ldrd	r3, r4, [r7, #16]
 80025fa:	2b00      	cmp	r3, #0
 80025fc:	f174 0200 	sbcs.w	r2, r4, #0
 8002600:	da02      	bge.n	8002608 <_vsnprintf+0x4c0>
 8002602:	425b      	negs	r3, r3
 8002604:	eb64 0444 	sbc.w	r4, r4, r4, lsl #1
 8002608:	4619      	mov	r1, r3
 800260a:	4622      	mov	r2, r4
 800260c:	697b      	ldr	r3, [r7, #20]
 800260e:	0fdb      	lsrs	r3, r3, #31
 8002610:	b2d8      	uxtb	r0, r3
 8002612:	6c3b      	ldr	r3, [r7, #64]	; 0x40
 8002614:	f04f 0400 	mov.w	r4, #0
 8002618:	6d7d      	ldr	r5, [r7, #84]	; 0x54
 800261a:	9508      	str	r5, [sp, #32]
 800261c:	6d3d      	ldr	r5, [r7, #80]	; 0x50
 800261e:	9507      	str	r5, [sp, #28]
 8002620:	6cfd      	ldr	r5, [r7, #76]	; 0x4c
 8002622:	9506      	str	r5, [sp, #24]
 8002624:	e9cd 3404 	strd	r3, r4, [sp, #16]
 8002628:	9002      	str	r0, [sp, #8]
 800262a:	e9cd 1200 	strd	r1, r2, [sp]
 800262e:	687b      	ldr	r3, [r7, #4]
 8002630:	6c7a      	ldr	r2, [r7, #68]	; 0x44
 8002632:	68b9      	ldr	r1, [r7, #8]
 8002634:	68f8      	ldr	r0, [r7, #12]
 8002636:	f7ff f811 	bl	800165c <_ntoa_long_long>
 800263a:	6478      	str	r0, [r7, #68]	; 0x44
 800263c:	e0c8      	b.n	80027d0 <_vsnprintf+0x688>
 800263e:	6d7b      	ldr	r3, [r7, #84]	; 0x54
 8002640:	f403 7380 	and.w	r3, r3, #256	; 0x100
 8002644:	2b00      	cmp	r3, #0
 8002646:	d01e      	beq.n	8002686 <_vsnprintf+0x53e>
 8002648:	6ebb      	ldr	r3, [r7, #104]	; 0x68
 800264a:	1d1a      	adds	r2, r3, #4
 800264c:	66ba      	str	r2, [r7, #104]	; 0x68
 800264e:	681b      	ldr	r3, [r3, #0]
 8002650:	61fb      	str	r3, [r7, #28]
 8002652:	69fb      	ldr	r3, [r7, #28]
 8002654:	2b00      	cmp	r3, #0
 8002656:	bfb8      	it	lt
 8002658:	425b      	neglt	r3, r3
 800265a:	4619      	mov	r1, r3
 800265c:	69fb      	ldr	r3, [r7, #28]
 800265e:	0fdb      	lsrs	r3, r3, #31
 8002660:	b2db      	uxtb	r3, r3
 8002662:	6d7a      	ldr	r2, [r7, #84]	; 0x54
 8002664:	9205      	str	r2, [sp, #20]
 8002666:	6d3a      	ldr	r2, [r7, #80]	; 0x50
 8002668:	9204      	str	r2, [sp, #16]
 800266a:	6cfa      	ldr	r2, [r7, #76]	; 0x4c
 800266c:	9203      	str	r2, [sp, #12]
 800266e:	6c3a      	ldr	r2, [r7, #64]	; 0x40
 8002670:	9202      	str	r2, [sp, #8]
 8002672:	9301      	str	r3, [sp, #4]
 8002674:	9100      	str	r1, [sp, #0]
 8002676:	687b      	ldr	r3, [r7, #4]
 8002678:	6c7a      	ldr	r2, [r7, #68]	; 0x44
 800267a:	68b9      	ldr	r1, [r7, #8]
 800267c:	68f8      	ldr	r0, [r7, #12]
 800267e:	f7fe ff86 	bl	800158e <_ntoa_long>
 8002682:	6478      	str	r0, [r7, #68]	; 0x44
 8002684:	e0a4      	b.n	80027d0 <_vsnprintf+0x688>
 8002686:	6d7b      	ldr	r3, [r7, #84]	; 0x54
 8002688:	f003 0340 	and.w	r3, r3, #64	; 0x40
 800268c:	2b00      	cmp	r3, #0
 800268e:	d005      	beq.n	800269c <_vsnprintf+0x554>
 8002690:	6ebb      	ldr	r3, [r7, #104]	; 0x68
 8002692:	1d1a      	adds	r2, r3, #4
 8002694:	66ba      	str	r2, [r7, #104]	; 0x68
 8002696:	681b      	ldr	r3, [r3, #0]
 8002698:	b2db      	uxtb	r3, r3
 800269a:	e00e      	b.n	80026ba <_vsnprintf+0x572>
 800269c:	6d7b      	ldr	r3, [r7, #84]	; 0x54
 800269e:	f003 0380 	and.w	r3, r3, #128	; 0x80
 80026a2:	2b00      	cmp	r3, #0
 80026a4:	d005      	beq.n	80026b2 <_vsnprintf+0x56a>
 80026a6:	6ebb      	ldr	r3, [r7, #104]	; 0x68
 80026a8:	1d1a      	adds	r2, r3, #4
 80026aa:	66ba      	str	r2, [r7, #104]	; 0x68
 80026ac:	681b      	ldr	r3, [r3, #0]
 80026ae:	b21b      	sxth	r3, r3
 80026b0:	e003      	b.n	80026ba <_vsnprintf+0x572>
 80026b2:	6ebb      	ldr	r3, [r7, #104]	; 0x68
 80026b4:	1d1a      	adds	r2, r3, #4
 80026b6:	66ba      	str	r2, [r7, #104]	; 0x68
 80026b8:	681b      	ldr	r3, [r3, #0]
 80026ba:	623b      	str	r3, [r7, #32]
 80026bc:	6a3b      	ldr	r3, [r7, #32]
 80026be:	2b00      	cmp	r3, #0
 80026c0:	bfb8      	it	lt
 80026c2:	425b      	neglt	r3, r3
 80026c4:	4619      	mov	r1, r3
 80026c6:	6a3b      	ldr	r3, [r7, #32]
 80026c8:	0fdb      	lsrs	r3, r3, #31
 80026ca:	b2db      	uxtb	r3, r3
 80026cc:	6d7a      	ldr	r2, [r7, #84]	; 0x54
 80026ce:	9205      	str	r2, [sp, #20]
 80026d0:	6d3a      	ldr	r2, [r7, #80]	; 0x50
 80026d2:	9204      	str	r2, [sp, #16]
 80026d4:	6cfa      	ldr	r2, [r7, #76]	; 0x4c
 80026d6:	9203      	str	r2, [sp, #12]
 80026d8:	6c3a      	ldr	r2, [r7, #64]	; 0x40
 80026da:	9202      	str	r2, [sp, #8]
 80026dc:	9301      	str	r3, [sp, #4]
 80026de:	9100      	str	r1, [sp, #0]
 80026e0:	687b      	ldr	r3, [r7, #4]
 80026e2:	6c7a      	ldr	r2, [r7, #68]	; 0x44
 80026e4:	68b9      	ldr	r1, [r7, #8]
 80026e6:	68f8      	ldr	r0, [r7, #12]
 80026e8:	f7fe ff51 	bl	800158e <_ntoa_long>
 80026ec:	6478      	str	r0, [r7, #68]	; 0x44
 80026ee:	e06f      	b.n	80027d0 <_vsnprintf+0x688>
 80026f0:	6d7b      	ldr	r3, [r7, #84]	; 0x54
 80026f2:	f403 7300 	and.w	r3, r3, #512	; 0x200
 80026f6:	2b00      	cmp	r3, #0
 80026f8:	d020      	beq.n	800273c <_vsnprintf+0x5f4>
 80026fa:	6ebb      	ldr	r3, [r7, #104]	; 0x68
 80026fc:	3307      	adds	r3, #7
 80026fe:	f023 0307 	bic.w	r3, r3, #7
 8002702:	f103 0208 	add.w	r2, r3, #8
 8002706:	66ba      	str	r2, [r7, #104]	; 0x68
 8002708:	e9d3 3400 	ldrd	r3, r4, [r3]
 800270c:	6c3a      	ldr	r2, [r7, #64]	; 0x40
 800270e:	4611      	mov	r1, r2
 8002710:	f04f 0200 	mov.w	r2, #0
 8002714:	6d78      	ldr	r0, [r7, #84]	; 0x54
 8002716:	9008      	str	r0, [sp, #32]
 8002718:	6d38      	ldr	r0, [r7, #80]	; 0x50
 800271a:	9007      	str	r0, [sp, #28]
 800271c:	6cf8      	ldr	r0, [r7, #76]	; 0x4c
 800271e:	9006      	str	r0, [sp, #24]
 8002720:	e9cd 1204 	strd	r1, r2, [sp, #16]
 8002724:	2200      	movs	r2, #0
 8002726:	9202      	str	r2, [sp, #8]
 8002728:	e9cd 3400 	strd	r3, r4, [sp]
 800272c:	687b      	ldr	r3, [r7, #4]
 800272e:	6c7a      	ldr	r2, [r7, #68]	; 0x44
 8002730:	68b9      	ldr	r1, [r7, #8]
 8002732:	68f8      	ldr	r0, [r7, #12]
 8002734:	f7fe ff92 	bl	800165c <_ntoa_long_long>
 8002738:	6478      	str	r0, [r7, #68]	; 0x44
 800273a:	e049      	b.n	80027d0 <_vsnprintf+0x688>
 800273c:	6d7b      	ldr	r3, [r7, #84]	; 0x54
 800273e:	f403 7380 	and.w	r3, r3, #256	; 0x100
 8002742:	2b00      	cmp	r3, #0
 8002744:	d016      	beq.n	8002774 <_vsnprintf+0x62c>
 8002746:	6ebb      	ldr	r3, [r7, #104]	; 0x68
 8002748:	1d1a      	adds	r2, r3, #4
 800274a:	66ba      	str	r2, [r7, #104]	; 0x68
 800274c:	681b      	ldr	r3, [r3, #0]
 800274e:	6d7a      	ldr	r2, [r7, #84]	; 0x54
 8002750:	9205      	str	r2, [sp, #20]
 8002752:	6d3a      	ldr	r2, [r7, #80]	; 0x50
 8002754:	9204      	str	r2, [sp, #16]
 8002756:	6cfa      	ldr	r2, [r7, #76]	; 0x4c
 8002758:	9203      	str	r2, [sp, #12]
 800275a:	6c3a      	ldr	r2, [r7, #64]	; 0x40
 800275c:	9202      	str	r2, [sp, #8]
 800275e:	2200      	movs	r2, #0
 8002760:	9201      	str	r2, [sp, #4]
 8002762:	9300      	str	r3, [sp, #0]
 8002764:	687b      	ldr	r3, [r7, #4]
 8002766:	6c7a      	ldr	r2, [r7, #68]	; 0x44
 8002768:	68b9      	ldr	r1, [r7, #8]
 800276a:	68f8      	ldr	r0, [r7, #12]
 800276c:	f7fe ff0f 	bl	800158e <_ntoa_long>
 8002770:	6478      	str	r0, [r7, #68]	; 0x44
 8002772:	e02d      	b.n	80027d0 <_vsnprintf+0x688>
 8002774:	6d7b      	ldr	r3, [r7, #84]	; 0x54
 8002776:	f003 0340 	and.w	r3, r3, #64	; 0x40
 800277a:	2b00      	cmp	r3, #0
 800277c:	d005      	beq.n	800278a <_vsnprintf+0x642>
 800277e:	6ebb      	ldr	r3, [r7, #104]	; 0x68
 8002780:	1d1a      	adds	r2, r3, #4
 8002782:	66ba      	str	r2, [r7, #104]	; 0x68
 8002784:	681b      	ldr	r3, [r3, #0]
 8002786:	b2db      	uxtb	r3, r3
 8002788:	e00e      	b.n	80027a8 <_vsnprintf+0x660>
 800278a:	6d7b      	ldr	r3, [r7, #84]	; 0x54
 800278c:	f003 0380 	and.w	r3, r3, #128	; 0x80
 8002790:	2b00      	cmp	r3, #0
 8002792:	d005      	beq.n	80027a0 <_vsnprintf+0x658>
 8002794:	6ebb      	ldr	r3, [r7, #104]	; 0x68
 8002796:	1d1a      	adds	r2, r3, #4
 8002798:	66ba      	str	r2, [r7, #104]	; 0x68
 800279a:	681b      	ldr	r3, [r3, #0]
 800279c:	b29b      	uxth	r3, r3
 800279e:	e003      	b.n	80027a8 <_vsnprintf+0x660>
 80027a0:	6ebb      	ldr	r3, [r7, #104]	; 0x68
 80027a2:	1d1a      	adds	r2, r3, #4
 80027a4:	66ba      	str	r2, [r7, #104]	; 0x68
 80027a6:	681b      	ldr	r3, [r3, #0]
 80027a8:	627b      	str	r3, [r7, #36]	; 0x24
 80027aa:	6d7b      	ldr	r3, [r7, #84]	; 0x54
 80027ac:	9305      	str	r3, [sp, #20]
 80027ae:	6d3b      	ldr	r3, [r7, #80]	; 0x50
 80027b0:	9304      	str	r3, [sp, #16]
 80027b2:	6cfb      	ldr	r3, [r7, #76]	; 0x4c
 80027b4:	9303      	str	r3, [sp, #12]
 80027b6:	6c3b      	ldr	r3, [r7, #64]	; 0x40
 80027b8:	9302      	str	r3, [sp, #8]
 80027ba:	2300      	movs	r3, #0
 80027bc:	9301      	str	r3, [sp, #4]
 80027be:	6a7b      	ldr	r3, [r7, #36]	; 0x24
 80027c0:	9300      	str	r3, [sp, #0]
 80027c2:	687b      	ldr	r3, [r7, #4]
 80027c4:	6c7a      	ldr	r2, [r7, #68]	; 0x44
 80027c6:	68b9      	ldr	r1, [r7, #8]
 80027c8:	68f8      	ldr	r0, [r7, #12]
 80027ca:	f7fe fee0 	bl	800158e <_ntoa_long>
 80027ce:	6478      	str	r0, [r7, #68]	; 0x44
 80027d0:	683b      	ldr	r3, [r7, #0]
 80027d2:	3301      	adds	r3, #1
 80027d4:	603b      	str	r3, [r7, #0]
 80027d6:	e156      	b.n	8002a86 <_vsnprintf+0x93e>
 80027d8:	683b      	ldr	r3, [r7, #0]
 80027da:	781b      	ldrb	r3, [r3, #0]
 80027dc:	2b46      	cmp	r3, #70	; 0x46
 80027de:	d103      	bne.n	80027e8 <_vsnprintf+0x6a0>
 80027e0:	6d7b      	ldr	r3, [r7, #84]	; 0x54
 80027e2:	f043 0320 	orr.w	r3, r3, #32
 80027e6:	657b      	str	r3, [r7, #84]	; 0x54
 80027e8:	6ebb      	ldr	r3, [r7, #104]	; 0x68
 80027ea:	3307      	adds	r3, #7
 80027ec:	f023 0307 	bic.w	r3, r3, #7
 80027f0:	f103 0208 	add.w	r2, r3, #8
 80027f4:	66ba      	str	r2, [r7, #104]	; 0x68
 80027f6:	ed93 7b00 	vldr	d7, [r3]
 80027fa:	6d7b      	ldr	r3, [r7, #84]	; 0x54
 80027fc:	9302      	str	r3, [sp, #8]
 80027fe:	6d3b      	ldr	r3, [r7, #80]	; 0x50
 8002800:	9301      	str	r3, [sp, #4]
 8002802:	6cfb      	ldr	r3, [r7, #76]	; 0x4c
 8002804:	9300      	str	r3, [sp, #0]
 8002806:	eeb0 0a47 	vmov.f32	s0, s14
 800280a:	eef0 0a67 	vmov.f32	s1, s15
 800280e:	687b      	ldr	r3, [r7, #4]
 8002810:	6c7a      	ldr	r2, [r7, #68]	; 0x44
 8002812:	68b9      	ldr	r1, [r7, #8]
 8002814:	68f8      	ldr	r0, [r7, #12]
 8002816:	f7fe ff93 	bl	8001740 <_ftoa>
 800281a:	6478      	str	r0, [r7, #68]	; 0x44
 800281c:	683b      	ldr	r3, [r7, #0]
 800281e:	3301      	adds	r3, #1
 8002820:	603b      	str	r3, [r7, #0]
 8002822:	e130      	b.n	8002a86 <_vsnprintf+0x93e>
 8002824:	683b      	ldr	r3, [r7, #0]
 8002826:	781b      	ldrb	r3, [r3, #0]
 8002828:	2b67      	cmp	r3, #103	; 0x67
 800282a:	d003      	beq.n	8002834 <_vsnprintf+0x6ec>
 800282c:	683b      	ldr	r3, [r7, #0]
 800282e:	781b      	ldrb	r3, [r3, #0]
 8002830:	2b47      	cmp	r3, #71	; 0x47
 8002832:	d103      	bne.n	800283c <_vsnprintf+0x6f4>
 8002834:	6d7b      	ldr	r3, [r7, #84]	; 0x54
 8002836:	f443 6300 	orr.w	r3, r3, #2048	; 0x800
 800283a:	657b      	str	r3, [r7, #84]	; 0x54
 800283c:	683b      	ldr	r3, [r7, #0]
 800283e:	781b      	ldrb	r3, [r3, #0]
 8002840:	2b45      	cmp	r3, #69	; 0x45
 8002842:	d003      	beq.n	800284c <_vsnprintf+0x704>
 8002844:	683b      	ldr	r3, [r7, #0]
 8002846:	781b      	ldrb	r3, [r3, #0]
 8002848:	2b47      	cmp	r3, #71	; 0x47
 800284a:	d103      	bne.n	8002854 <_vsnprintf+0x70c>
 800284c:	6d7b      	ldr	r3, [r7, #84]	; 0x54
 800284e:	f043 0320 	orr.w	r3, r3, #32
 8002852:	657b      	str	r3, [r7, #84]	; 0x54
 8002854:	6ebb      	ldr	r3, [r7, #104]	; 0x68
 8002856:	3307      	adds	r3, #7
 8002858:	f023 0307 	bic.w	r3, r3, #7
 800285c:	f103 0208 	add.w	r2, r3, #8
 8002860:	66ba      	str	r2, [r7, #104]	; 0x68
 8002862:	ed93 7b00 	vldr	d7, [r3]
 8002866:	6d7b      	ldr	r3, [r7, #84]	; 0x54
 8002868:	9302      	str	r3, [sp, #8]
 800286a:	6d3b      	ldr	r3, [r7, #80]	; 0x50
 800286c:	9301      	str	r3, [sp, #4]
 800286e:	6cfb      	ldr	r3, [r7, #76]	; 0x4c
 8002870:	9300      	str	r3, [sp, #0]
 8002872:	eeb0 0a47 	vmov.f32	s0, s14
 8002876:	eef0 0a67 	vmov.f32	s1, s15
 800287a:	687b      	ldr	r3, [r7, #4]
 800287c:	6c7a      	ldr	r2, [r7, #68]	; 0x44
 800287e:	68b9      	ldr	r1, [r7, #8]
 8002880:	68f8      	ldr	r0, [r7, #12]
 8002882:	f7ff f9c9 	bl	8001c18 <_etoa>
 8002886:	6478      	str	r0, [r7, #68]	; 0x44
 8002888:	683b      	ldr	r3, [r7, #0]
 800288a:	3301      	adds	r3, #1
 800288c:	603b      	str	r3, [r7, #0]
 800288e:	e0fa      	b.n	8002a86 <_vsnprintf+0x93e>
 8002890:	2301      	movs	r3, #1
 8002892:	63fb      	str	r3, [r7, #60]	; 0x3c
 8002894:	6d7b      	ldr	r3, [r7, #84]	; 0x54
 8002896:	f003 0302 	and.w	r3, r3, #2
 800289a:	2b00      	cmp	r3, #0
 800289c:	d10e      	bne.n	80028bc <_vsnprintf+0x774>
 800289e:	e007      	b.n	80028b0 <_vsnprintf+0x768>
 80028a0:	6c7a      	ldr	r2, [r7, #68]	; 0x44
 80028a2:	1c53      	adds	r3, r2, #1
 80028a4:	647b      	str	r3, [r7, #68]	; 0x44
 80028a6:	68fc      	ldr	r4, [r7, #12]
 80028a8:	687b      	ldr	r3, [r7, #4]
 80028aa:	68b9      	ldr	r1, [r7, #8]
 80028ac:	2020      	movs	r0, #32
 80028ae:	47a0      	blx	r4
 80028b0:	6bfb      	ldr	r3, [r7, #60]	; 0x3c
 80028b2:	1c5a      	adds	r2, r3, #1
 80028b4:	63fa      	str	r2, [r7, #60]	; 0x3c
 80028b6:	6d3a      	ldr	r2, [r7, #80]	; 0x50
 80028b8:	429a      	cmp	r2, r3
 80028ba:	d8f1      	bhi.n	80028a0 <_vsnprintf+0x758>
 80028bc:	6ebb      	ldr	r3, [r7, #104]	; 0x68
 80028be:	1d1a      	adds	r2, r3, #4
 80028c0:	66ba      	str	r2, [r7, #104]	; 0x68
 80028c2:	681b      	ldr	r3, [r3, #0]
 80028c4:	b2d8      	uxtb	r0, r3
 80028c6:	6c7a      	ldr	r2, [r7, #68]	; 0x44
 80028c8:	1c53      	adds	r3, r2, #1
 80028ca:	647b      	str	r3, [r7, #68]	; 0x44
 80028cc:	68fc      	ldr	r4, [r7, #12]
 80028ce:	687b      	ldr	r3, [r7, #4]
 80028d0:	68b9      	ldr	r1, [r7, #8]
 80028d2:	47a0      	blx	r4
 80028d4:	6d7b      	ldr	r3, [r7, #84]	; 0x54
 80028d6:	f003 0302 	and.w	r3, r3, #2
 80028da:	2b00      	cmp	r3, #0
 80028dc:	d00e      	beq.n	80028fc <_vsnprintf+0x7b4>
 80028de:	e007      	b.n	80028f0 <_vsnprintf+0x7a8>
 80028e0:	6c7a      	ldr	r2, [r7, #68]	; 0x44
 80028e2:	1c53      	adds	r3, r2, #1
 80028e4:	647b      	str	r3, [r7, #68]	; 0x44
 80028e6:	68fc      	ldr	r4, [r7, #12]
 80028e8:	687b      	ldr	r3, [r7, #4]
 80028ea:	68b9      	ldr	r1, [r7, #8]
 80028ec:	2020      	movs	r0, #32
 80028ee:	47a0      	blx	r4
 80028f0:	6bfb      	ldr	r3, [r7, #60]	; 0x3c
 80028f2:	1c5a      	adds	r2, r3, #1
 80028f4:	63fa      	str	r2, [r7, #60]	; 0x3c
 80028f6:	6d3a      	ldr	r2, [r7, #80]	; 0x50
 80028f8:	429a      	cmp	r2, r3
 80028fa:	d8f1      	bhi.n	80028e0 <_vsnprintf+0x798>
 80028fc:	683b      	ldr	r3, [r7, #0]
 80028fe:	3301      	adds	r3, #1
 8002900:	603b      	str	r3, [r7, #0]
 8002902:	e0c0      	b.n	8002a86 <_vsnprintf+0x93e>
 8002904:	6ebb      	ldr	r3, [r7, #104]	; 0x68
 8002906:	1d1a      	adds	r2, r3, #4
 8002908:	66ba      	str	r2, [r7, #104]	; 0x68
 800290a:	681b      	ldr	r3, [r3, #0]
 800290c:	63bb      	str	r3, [r7, #56]	; 0x38
 800290e:	6cfb      	ldr	r3, [r7, #76]	; 0x4c
 8002910:	2b00      	cmp	r3, #0
 8002912:	d001      	beq.n	8002918 <_vsnprintf+0x7d0>
 8002914:	6cfb      	ldr	r3, [r7, #76]	; 0x4c
 8002916:	e001      	b.n	800291c <_vsnprintf+0x7d4>
 8002918:	f04f 33ff 	mov.w	r3, #4294967295
 800291c:	4619      	mov	r1, r3
 800291e:	6bb8      	ldr	r0, [r7, #56]	; 0x38
 8002920:	f7fe fcb1 	bl	8001286 <_strnlen_s>
 8002924:	6378      	str	r0, [r7, #52]	; 0x34
 8002926:	6d7b      	ldr	r3, [r7, #84]	; 0x54
 8002928:	f403 6380 	and.w	r3, r3, #1024	; 0x400
 800292c:	2b00      	cmp	r3, #0
 800292e:	d005      	beq.n	800293c <_vsnprintf+0x7f4>
 8002930:	6b7a      	ldr	r2, [r7, #52]	; 0x34
 8002932:	6cfb      	ldr	r3, [r7, #76]	; 0x4c
 8002934:	4293      	cmp	r3, r2
 8002936:	bf28      	it	cs
 8002938:	4613      	movcs	r3, r2
 800293a:	637b      	str	r3, [r7, #52]	; 0x34
 800293c:	6d7b      	ldr	r3, [r7, #84]	; 0x54
 800293e:	f003 0302 	and.w	r3, r3, #2
 8002942:	2b00      	cmp	r3, #0
 8002944:	d11a      	bne.n	800297c <_vsnprintf+0x834>
 8002946:	e007      	b.n	8002958 <_vsnprintf+0x810>
 8002948:	6c7a      	ldr	r2, [r7, #68]	; 0x44
 800294a:	1c53      	adds	r3, r2, #1
 800294c:	647b      	str	r3, [r7, #68]	; 0x44
 800294e:	68fc      	ldr	r4, [r7, #12]
 8002950:	687b      	ldr	r3, [r7, #4]
 8002952:	68b9      	ldr	r1, [r7, #8]
 8002954:	2020      	movs	r0, #32
 8002956:	47a0      	blx	r4
 8002958:	6b7b      	ldr	r3, [r7, #52]	; 0x34
 800295a:	1c5a      	adds	r2, r3, #1
 800295c:	637a      	str	r2, [r7, #52]	; 0x34
 800295e:	6d3a      	ldr	r2, [r7, #80]	; 0x50
 8002960:	429a      	cmp	r2, r3
 8002962:	d8f1      	bhi.n	8002948 <_vsnprintf+0x800>
 8002964:	e00a      	b.n	800297c <_vsnprintf+0x834>
 8002966:	6bbb      	ldr	r3, [r7, #56]	; 0x38
 8002968:	1c5a      	adds	r2, r3, #1
 800296a:	63ba      	str	r2, [r7, #56]	; 0x38
 800296c:	7818      	ldrb	r0, [r3, #0]
 800296e:	6c7a      	ldr	r2, [r7, #68]	; 0x44
 8002970:	1c53      	adds	r3, r2, #1
 8002972:	647b      	str	r3, [r7, #68]	; 0x44
 8002974:	68fc      	ldr	r4, [r7, #12]
 8002976:	687b      	ldr	r3, [r7, #4]
 8002978:	68b9      	ldr	r1, [r7, #8]
 800297a:	47a0      	blx	r4
 800297c:	6bbb      	ldr	r3, [r7, #56]	; 0x38
 800297e:	781b      	ldrb	r3, [r3, #0]
 8002980:	2b00      	cmp	r3, #0
 8002982:	d009      	beq.n	8002998 <_vsnprintf+0x850>
 8002984:	6d7b      	ldr	r3, [r7, #84]	; 0x54
 8002986:	f403 6380 	and.w	r3, r3, #1024	; 0x400
 800298a:	2b00      	cmp	r3, #0
 800298c:	d0eb      	beq.n	8002966 <_vsnprintf+0x81e>
 800298e:	6cfb      	ldr	r3, [r7, #76]	; 0x4c
 8002990:	1e5a      	subs	r2, r3, #1
 8002992:	64fa      	str	r2, [r7, #76]	; 0x4c
 8002994:	2b00      	cmp	r3, #0
 8002996:	d1e6      	bne.n	8002966 <_vsnprintf+0x81e>
 8002998:	6d7b      	ldr	r3, [r7, #84]	; 0x54
 800299a:	f003 0302 	and.w	r3, r3, #2
 800299e:	2b00      	cmp	r3, #0
 80029a0:	d00e      	beq.n	80029c0 <_vsnprintf+0x878>
 80029a2:	e007      	b.n	80029b4 <_vsnprintf+0x86c>
 80029a4:	6c7a      	ldr	r2, [r7, #68]	; 0x44
 80029a6:	1c53      	adds	r3, r2, #1
 80029a8:	647b      	str	r3, [r7, #68]	; 0x44
 80029aa:	68fc      	ldr	r4, [r7, #12]
 80029ac:	687b      	ldr	r3, [r7, #4]
 80029ae:	68b9      	ldr	r1, [r7, #8]
 80029b0:	2020      	movs	r0, #32
 80029b2:	47a0      	blx	r4
 80029b4:	6b7b      	ldr	r3, [r7, #52]	; 0x34
 80029b6:	1c5a      	adds	r2, r3, #1
 80029b8:	637a      	str	r2, [r7, #52]	; 0x34
 80029ba:	6d3a      	ldr	r2, [r7, #80]	; 0x50
 80029bc:	429a      	cmp	r2, r3
 80029be:	d8f1      	bhi.n	80029a4 <_vsnprintf+0x85c>
 80029c0:	683b      	ldr	r3, [r7, #0]
 80029c2:	3301      	adds	r3, #1
 80029c4:	603b      	str	r3, [r7, #0]
 80029c6:	e05e      	b.n	8002a86 <_vsnprintf+0x93e>
 80029c8:	2308      	movs	r3, #8
 80029ca:	653b      	str	r3, [r7, #80]	; 0x50
 80029cc:	6d7b      	ldr	r3, [r7, #84]	; 0x54
 80029ce:	f043 0321 	orr.w	r3, r3, #33	; 0x21
 80029d2:	657b      	str	r3, [r7, #84]	; 0x54
 80029d4:	2300      	movs	r3, #0
 80029d6:	f887 302b 	strb.w	r3, [r7, #43]	; 0x2b
 80029da:	f897 302b 	ldrb.w	r3, [r7, #43]	; 0x2b
 80029de:	2b00      	cmp	r3, #0
 80029e0:	d01d      	beq.n	8002a1e <_vsnprintf+0x8d6>
 80029e2:	6ebb      	ldr	r3, [r7, #104]	; 0x68
 80029e4:	1d1a      	adds	r2, r3, #4
 80029e6:	66ba      	str	r2, [r7, #104]	; 0x68
 80029e8:	681b      	ldr	r3, [r3, #0]
 80029ea:	f04f 0400 	mov.w	r4, #0
 80029ee:	6d7a      	ldr	r2, [r7, #84]	; 0x54
 80029f0:	9208      	str	r2, [sp, #32]
 80029f2:	6d3a      	ldr	r2, [r7, #80]	; 0x50
 80029f4:	9207      	str	r2, [sp, #28]
 80029f6:	6cfa      	ldr	r2, [r7, #76]	; 0x4c
 80029f8:	9206      	str	r2, [sp, #24]
 80029fa:	f04f 0110 	mov.w	r1, #16
 80029fe:	f04f 0200 	mov.w	r2, #0
 8002a02:	e9cd 1204 	strd	r1, r2, [sp, #16]
 8002a06:	2200      	movs	r2, #0
 8002a08:	9202      	str	r2, [sp, #8]
 8002a0a:	e9cd 3400 	strd	r3, r4, [sp]
 8002a0e:	687b      	ldr	r3, [r7, #4]
 8002a10:	6c7a      	ldr	r2, [r7, #68]	; 0x44
 8002a12:	68b9      	ldr	r1, [r7, #8]
 8002a14:	68f8      	ldr	r0, [r7, #12]
 8002a16:	f7fe fe21 	bl	800165c <_ntoa_long_long>
 8002a1a:	6478      	str	r0, [r7, #68]	; 0x44
 8002a1c:	e016      	b.n	8002a4c <_vsnprintf+0x904>
 8002a1e:	6ebb      	ldr	r3, [r7, #104]	; 0x68
 8002a20:	1d1a      	adds	r2, r3, #4
 8002a22:	66ba      	str	r2, [r7, #104]	; 0x68
 8002a24:	681b      	ldr	r3, [r3, #0]
 8002a26:	461a      	mov	r2, r3
 8002a28:	6d7b      	ldr	r3, [r7, #84]	; 0x54
 8002a2a:	9305      	str	r3, [sp, #20]
 8002a2c:	6d3b      	ldr	r3, [r7, #80]	; 0x50
 8002a2e:	9304      	str	r3, [sp, #16]
 8002a30:	6cfb      	ldr	r3, [r7, #76]	; 0x4c
 8002a32:	9303      	str	r3, [sp, #12]
 8002a34:	2310      	movs	r3, #16
 8002a36:	9302      	str	r3, [sp, #8]
 8002a38:	2300      	movs	r3, #0
 8002a3a:	9301      	str	r3, [sp, #4]
 8002a3c:	9200      	str	r2, [sp, #0]
 8002a3e:	687b      	ldr	r3, [r7, #4]
 8002a40:	6c7a      	ldr	r2, [r7, #68]	; 0x44
 8002a42:	68b9      	ldr	r1, [r7, #8]
 8002a44:	68f8      	ldr	r0, [r7, #12]
 8002a46:	f7fe fda2 	bl	800158e <_ntoa_long>
 8002a4a:	6478      	str	r0, [r7, #68]	; 0x44
 8002a4c:	683b      	ldr	r3, [r7, #0]
 8002a4e:	3301      	adds	r3, #1
 8002a50:	603b      	str	r3, [r7, #0]
 8002a52:	e018      	b.n	8002a86 <_vsnprintf+0x93e>
 8002a54:	6c7a      	ldr	r2, [r7, #68]	; 0x44
 8002a56:	1c53      	adds	r3, r2, #1
 8002a58:	647b      	str	r3, [r7, #68]	; 0x44
 8002a5a:	68fc      	ldr	r4, [r7, #12]
 8002a5c:	687b      	ldr	r3, [r7, #4]
 8002a5e:	68b9      	ldr	r1, [r7, #8]
 8002a60:	2025      	movs	r0, #37	; 0x25
 8002a62:	47a0      	blx	r4
 8002a64:	683b      	ldr	r3, [r7, #0]
 8002a66:	3301      	adds	r3, #1
 8002a68:	603b      	str	r3, [r7, #0]
 8002a6a:	e00c      	b.n	8002a86 <_vsnprintf+0x93e>
 8002a6c:	683b      	ldr	r3, [r7, #0]
 8002a6e:	7818      	ldrb	r0, [r3, #0]
 8002a70:	6c7a      	ldr	r2, [r7, #68]	; 0x44
 8002a72:	1c53      	adds	r3, r2, #1
 8002a74:	647b      	str	r3, [r7, #68]	; 0x44
 8002a76:	68fc      	ldr	r4, [r7, #12]
 8002a78:	687b      	ldr	r3, [r7, #4]
 8002a7a:	68b9      	ldr	r1, [r7, #8]
 8002a7c:	47a0      	blx	r4
 8002a7e:	683b      	ldr	r3, [r7, #0]
 8002a80:	3301      	adds	r3, #1
 8002a82:	603b      	str	r3, [r7, #0]
 8002a84:	bf00      	nop
 8002a86:	683b      	ldr	r3, [r7, #0]
 8002a88:	781b      	ldrb	r3, [r3, #0]
 8002a8a:	2b00      	cmp	r3, #0
 8002a8c:	f47f ab6d 	bne.w	800216a <_vsnprintf+0x22>
 8002a90:	6c7a      	ldr	r2, [r7, #68]	; 0x44
 8002a92:	687b      	ldr	r3, [r7, #4]
 8002a94:	429a      	cmp	r2, r3
 8002a96:	d302      	bcc.n	8002a9e <_vsnprintf+0x956>
 8002a98:	687b      	ldr	r3, [r7, #4]
 8002a9a:	1e5a      	subs	r2, r3, #1
 8002a9c:	e000      	b.n	8002aa0 <_vsnprintf+0x958>
 8002a9e:	6c7a      	ldr	r2, [r7, #68]	; 0x44
 8002aa0:	68fc      	ldr	r4, [r7, #12]
 8002aa2:	687b      	ldr	r3, [r7, #4]
 8002aa4:	68b9      	ldr	r1, [r7, #8]
 8002aa6:	2000      	movs	r0, #0
 8002aa8:	47a0      	blx	r4
 8002aaa:	6c7b      	ldr	r3, [r7, #68]	; 0x44
 8002aac:	4618      	mov	r0, r3
 8002aae:	3758      	adds	r7, #88	; 0x58
 8002ab0:	46bd      	mov	sp, r7
 8002ab2:	bdb0      	pop	{r4, r5, r7, pc}

08002ab4 <printf_>:
 8002ab4:	b40f      	push	{r0, r1, r2, r3}
 8002ab6:	b580      	push	{r7, lr}
 8002ab8:	b086      	sub	sp, #24
 8002aba:	af02      	add	r7, sp, #8
 8002abc:	f107 031c 	add.w	r3, r7, #28
 8002ac0:	60bb      	str	r3, [r7, #8]
 8002ac2:	1d39      	adds	r1, r7, #4
 8002ac4:	68bb      	ldr	r3, [r7, #8]
 8002ac6:	9300      	str	r3, [sp, #0]
 8002ac8:	69bb      	ldr	r3, [r7, #24]
 8002aca:	f04f 32ff 	mov.w	r2, #4294967295
 8002ace:	4806      	ldr	r0, [pc, #24]	; (8002ae8 <printf_+0x34>)
 8002ad0:	f7ff fb3a 	bl	8002148 <_vsnprintf>
 8002ad4:	60f8      	str	r0, [r7, #12]
 8002ad6:	68fb      	ldr	r3, [r7, #12]
 8002ad8:	4618      	mov	r0, r3
 8002ada:	3710      	adds	r7, #16
 8002adc:	46bd      	mov	sp, r7
 8002ade:	e8bd 4080 	ldmia.w	sp!, {r7, lr}
 8002ae2:	b004      	add	sp, #16
 8002ae4:	4770      	bx	lr
 8002ae6:	bf00      	nop
 8002ae8:	08001261 	.word	0x08001261

08002aec <HAL_MspInit>:
/* USER CODE END 0 */
/**
  * Initializes the Global MSP.
  */
void HAL_MspInit(void)
{
 8002aec:	b580      	push	{r7, lr}
 8002aee:	b082      	sub	sp, #8
 8002af0:	af00      	add	r7, sp, #0
  /* USER CODE BEGIN MspInit 0 */

  /* USER CODE END MspInit 0 */

  __HAL_RCC_SYSCFG_CLK_ENABLE();
 8002af2:	2300      	movs	r3, #0
 8002af4:	607b      	str	r3, [r7, #4]
 8002af6:	4b1e      	ldr	r3, [pc, #120]	; (8002b70 <HAL_MspInit+0x84>)
 8002af8:	6c5b      	ldr	r3, [r3, #68]	; 0x44
 8002afa:	4a1d      	ldr	r2, [pc, #116]	; (8002b70 <HAL_MspInit+0x84>)
 8002afc:	f443 4380 	orr.w	r3, r3, #16384	; 0x4000
 8002b00:	6453      	str	r3, [r2, #68]	; 0x44
 8002b02:	4b1b      	ldr	r3, [pc, #108]	; (8002b70 <HAL_MspInit+0x84>)
 8002b04:	6c5b      	ldr	r3, [r3, #68]	; 0x44
 8002b06:	f403 4380 	and.w	r3, r3, #16384	; 0x4000
 8002b0a:	607b      	str	r3, [r7, #4]
 8002b0c:	687b      	ldr	r3, [r7, #4]
  __HAL_RCC_PWR_CLK_ENABLE();
 8002b0e:	2300      	movs	r3, #0
 8002b10:	603b      	str	r3, [r7, #0]
 8002b12:	4b17      	ldr	r3, [pc, #92]	; (8002b70 <HAL_MspInit+0x84>)
 8002b14:	6c1b      	ldr	r3, [r3, #64]	; 0x40
 8002b16:	4a16      	ldr	r2, [pc, #88]	; (8002b70 <HAL_MspInit+0x84>)
 8002b18:	f043 5380 	orr.w	r3, r3, #268435456	; 0x10000000
 8002b1c:	6413      	str	r3, [r2, #64]	; 0x40
 8002b1e:	4b14      	ldr	r3, [pc, #80]	; (8002b70 <HAL_MspInit+0x84>)
 8002b20:	6c1b      	ldr	r3, [r3, #64]	; 0x40
 8002b22:	f003 5380 	and.w	r3, r3, #268435456	; 0x10000000
 8002b26:	603b      	str	r3, [r7, #0]
 8002b28:	683b      	ldr	r3, [r7, #0]

  /* System interrupt init*/
  /* PendSV_IRQn interrupt configuration */
  HAL_NVIC_SetPriority(PendSV_IRQn, 15, 0);
 8002b2a:	2200      	movs	r2, #0
 8002b2c:	210f      	movs	r1, #15
 8002b2e:	f06f 0001 	mvn.w	r0, #1
 8002b32:	f000 fa5f 	bl	8002ff4 <HAL_NVIC_SetPriority>

  /* Peripheral interrupt init */
  /* PVD_IRQn interrupt configuration */
  HAL_NVIC_SetPriority(PVD_IRQn, 5, 0);
 8002b36:	2200      	movs	r2, #0
 8002b38:	2105      	movs	r1, #5
 8002b3a:	2001      	movs	r0, #1
 8002b3c:	f000 fa5a 	bl	8002ff4 <HAL_NVIC_SetPriority>
  HAL_NVIC_EnableIRQ(PVD_IRQn);
 8002b40:	2001      	movs	r0, #1
 8002b42:	f000 fa73 	bl	800302c <HAL_NVIC_EnableIRQ>
  /* FLASH_IRQn interrupt configuration */
  HAL_NVIC_SetPriority(FLASH_IRQn, 5, 0);
 8002b46:	2200      	movs	r2, #0
 8002b48:	2105      	movs	r1, #5
 8002b4a:	2004      	movs	r0, #4
 8002b4c:	f000 fa52 	bl	8002ff4 <HAL_NVIC_SetPriority>
  HAL_NVIC_EnableIRQ(FLASH_IRQn);
 8002b50:	2004      	movs	r0, #4
 8002b52:	f000 fa6b 	bl	800302c <HAL_NVIC_EnableIRQ>
  /* RCC_IRQn interrupt configuration */
  HAL_NVIC_SetPriority(RCC_IRQn, 5, 0);
 8002b56:	2200      	movs	r2, #0
 8002b58:	2105      	movs	r1, #5
 8002b5a:	2005      	movs	r0, #5
 8002b5c:	f000 fa4a 	bl	8002ff4 <HAL_NVIC_SetPriority>
  HAL_NVIC_EnableIRQ(RCC_IRQn);
 8002b60:	2005      	movs	r0, #5
 8002b62:	f000 fa63 	bl	800302c <HAL_NVIC_EnableIRQ>

  /* USER CODE BEGIN MspInit 1 */

  /* USER CODE END MspInit 1 */
}
 8002b66:	bf00      	nop
 8002b68:	3708      	adds	r7, #8
 8002b6a:	46bd      	mov	sp, r7
 8002b6c:	bd80      	pop	{r7, pc}
 8002b6e:	bf00      	nop
 8002b70:	40023800 	.word	0x40023800

08002b74 <HAL_InitTick>:
  *         reset by HAL_Init() or at any time when clock is configured, by HAL_RCC_ClockConfig().
  * @param  TickPriority: Tick interrupt priority.
  * @retval HAL status
  */
HAL_StatusTypeDef HAL_InitTick(uint32_t TickPriority)
{
 8002b74:	b580      	push	{r7, lr}
 8002b76:	b08c      	sub	sp, #48	; 0x30
 8002b78:	af00      	add	r7, sp, #0
 8002b7a:	6078      	str	r0, [r7, #4]
  RCC_ClkInitTypeDef    clkconfig;
  uint32_t              uwTimclock = 0;
 8002b7c:	2300      	movs	r3, #0
 8002b7e:	62fb      	str	r3, [r7, #44]	; 0x2c
  uint32_t              uwPrescalerValue = 0;
 8002b80:	2300      	movs	r3, #0
 8002b82:	62bb      	str	r3, [r7, #40]	; 0x28
  uint32_t              pFLatency;
  /*Configure the TIM10 IRQ priority */
  HAL_NVIC_SetPriority(TIM1_UP_TIM10_IRQn, TickPriority ,0);
 8002b84:	2200      	movs	r2, #0
 8002b86:	6879      	ldr	r1, [r7, #4]
 8002b88:	2019      	movs	r0, #25
 8002b8a:	f000 fa33 	bl	8002ff4 <HAL_NVIC_SetPriority>

  /* Enable the TIM10 global Interrupt */
  HAL_NVIC_EnableIRQ(TIM1_UP_TIM10_IRQn);
 8002b8e:	2019      	movs	r0, #25
 8002b90:	f000 fa4c 	bl	800302c <HAL_NVIC_EnableIRQ>
  /* Enable TIM10 clock */
  __HAL_RCC_TIM10_CLK_ENABLE();
 8002b94:	2300      	movs	r3, #0
 8002b96:	60fb      	str	r3, [r7, #12]
 8002b98:	4b1e      	ldr	r3, [pc, #120]	; (8002c14 <HAL_InitTick+0xa0>)
 8002b9a:	6c5b      	ldr	r3, [r3, #68]	; 0x44
 8002b9c:	4a1d      	ldr	r2, [pc, #116]	; (8002c14 <HAL_InitTick+0xa0>)
 8002b9e:	f443 3300 	orr.w	r3, r3, #131072	; 0x20000
 8002ba2:	6453      	str	r3, [r2, #68]	; 0x44
 8002ba4:	4b1b      	ldr	r3, [pc, #108]	; (8002c14 <HAL_InitTick+0xa0>)
 8002ba6:	6c5b      	ldr	r3, [r3, #68]	; 0x44
 8002ba8:	f403 3300 	and.w	r3, r3, #131072	; 0x20000
 8002bac:	60fb      	str	r3, [r7, #12]
 8002bae:	68fb      	ldr	r3, [r7, #12]

  /* Get clock configuration */
  HAL_RCC_GetClockConfig(&clkconfig, &pFLatency);
 8002bb0:	f107 0210 	add.w	r2, r7, #16
 8002bb4:	f107 0314 	add.w	r3, r7, #20
 8002bb8:	4611      	mov	r1, r2
 8002bba:	4618      	mov	r0, r3
 8002bbc:	f001 fa36 	bl	800402c <HAL_RCC_GetClockConfig>

  /* Compute TIM10 clock */
  uwTimclock = HAL_RCC_GetPCLK2Freq();
 8002bc0:	f001 fa20 	bl	8004004 <HAL_RCC_GetPCLK2Freq>
 8002bc4:	62f8      	str	r0, [r7, #44]	; 0x2c
  /* Compute the prescaler value to have TIM10 counter clock equal to 1MHz */
  uwPrescalerValue = (uint32_t) ((uwTimclock / 1000000U) - 1U);
 8002bc6:	6afb      	ldr	r3, [r7, #44]	; 0x2c
 8002bc8:	4a13      	ldr	r2, [pc, #76]	; (8002c18 <HAL_InitTick+0xa4>)
 8002bca:	fba2 2303 	umull	r2, r3, r2, r3
 8002bce:	0c9b      	lsrs	r3, r3, #18
 8002bd0:	3b01      	subs	r3, #1
 8002bd2:	62bb      	str	r3, [r7, #40]	; 0x28

  /* Initialize TIM10 */
  htim10.Instance = TIM10;
 8002bd4:	4b11      	ldr	r3, [pc, #68]	; (8002c1c <HAL_InitTick+0xa8>)
 8002bd6:	4a12      	ldr	r2, [pc, #72]	; (8002c20 <HAL_InitTick+0xac>)
 8002bd8:	601a      	str	r2, [r3, #0]
  + Period = [(TIM10CLK/1000) - 1]. to have a (1/1000) s time base.
  + Prescaler = (uwTimclock/1000000 - 1) to have a 1MHz counter clock.
  + ClockDivision = 0
  + Counter direction = Up
  */
  htim10.Init.Period = (1000000U / 1000U) - 1U;
 8002bda:	4b10      	ldr	r3, [pc, #64]	; (8002c1c <HAL_InitTick+0xa8>)
 8002bdc:	f240 32e7 	movw	r2, #999	; 0x3e7
 8002be0:	60da      	str	r2, [r3, #12]
  htim10.Init.Prescaler = uwPrescalerValue;
 8002be2:	4a0e      	ldr	r2, [pc, #56]	; (8002c1c <HAL_InitTick+0xa8>)
 8002be4:	6abb      	ldr	r3, [r7, #40]	; 0x28
 8002be6:	6053      	str	r3, [r2, #4]
  htim10.Init.ClockDivision = 0;
 8002be8:	4b0c      	ldr	r3, [pc, #48]	; (8002c1c <HAL_InitTick+0xa8>)
 8002bea:	2200      	movs	r2, #0
 8002bec:	611a      	str	r2, [r3, #16]
  htim10.Init.CounterMode = TIM_COUNTERMODE_UP;
 8002bee:	4b0b      	ldr	r3, [pc, #44]	; (8002c1c <HAL_InitTick+0xa8>)
 8002bf0:	2200      	movs	r2, #0
 8002bf2:	609a      	str	r2, [r3, #8]
  if(HAL_TIM_Base_Init(&htim10) == HAL_OK)
 8002bf4:	4809      	ldr	r0, [pc, #36]	; (8002c1c <HAL_InitTick+0xa8>)
 8002bf6:	f001 fa4b 	bl	8004090 <HAL_TIM_Base_Init>
 8002bfa:	4603      	mov	r3, r0
 8002bfc:	2b00      	cmp	r3, #0
 8002bfe:	d104      	bne.n	8002c0a <HAL_InitTick+0x96>
  {
    /* Start the TIM time Base generation in interrupt mode */
    return HAL_TIM_Base_Start_IT(&htim10);
 8002c00:	4806      	ldr	r0, [pc, #24]	; (8002c1c <HAL_InitTick+0xa8>)
 8002c02:	f001 fa7a 	bl	80040fa <HAL_TIM_Base_Start_IT>
 8002c06:	4603      	mov	r3, r0
 8002c08:	e000      	b.n	8002c0c <HAL_InitTick+0x98>
  }

  /* Return function status */
  return HAL_ERROR;
 8002c0a:	2301      	movs	r3, #1
}
 8002c0c:	4618      	mov	r0, r3
 8002c0e:	3730      	adds	r7, #48	; 0x30
 8002c10:	46bd      	mov	sp, r7
 8002c12:	bd80      	pop	{r7, pc}
 8002c14:	40023800 	.word	0x40023800
 8002c18:	431bde83 	.word	0x431bde83
 8002c1c:	2000494c 	.word	0x2000494c
 8002c20:	40014400 	.word	0x40014400

08002c24 <NMI_Handler>:
/******************************************************************************/
/**
  * @brief This function handles Non maskable interrupt.
  */
void NMI_Handler(void)
{
 8002c24:	b480      	push	{r7}
 8002c26:	af00      	add	r7, sp, #0
  /* USER CODE BEGIN NonMaskableInt_IRQn 0 */

  /* USER CODE END NonMaskableInt_IRQn 0 */
  /* USER CODE BEGIN NonMaskableInt_IRQn 1 */
  while (1)
 8002c28:	e7fe      	b.n	8002c28 <NMI_Handler+0x4>

08002c2a <HardFault_Handler>:

/**
  * @brief This function handles Hard fault interrupt.
  */
void HardFault_Handler(void)
{
 8002c2a:	b480      	push	{r7}
 8002c2c:	af00      	add	r7, sp, #0
  /* USER CODE BEGIN HardFault_IRQn 0 */

  /* USER CODE END HardFault_IRQn 0 */
  while (1)
 8002c2e:	e7fe      	b.n	8002c2e <HardFault_Handler+0x4>

08002c30 <MemManage_Handler>:

/**
  * @brief This function handles Memory management fault.
  */
void MemManage_Handler(void)
{
 8002c30:	b480      	push	{r7}
 8002c32:	af00      	add	r7, sp, #0
  /* USER CODE BEGIN MemoryManagement_IRQn 0 */

  /* USER CODE END MemoryManagement_IRQn 0 */
  while (1)
 8002c34:	e7fe      	b.n	8002c34 <MemManage_Handler+0x4>

08002c36 <BusFault_Handler>:

/**
  * @brief This function handles Pre-fetch fault, memory access fault.
  */
void BusFault_Handler(void)
{
 8002c36:	b480      	push	{r7}
 8002c38:	af00      	add	r7, sp, #0
  /* USER CODE BEGIN BusFault_IRQn 0 */

  /* USER CODE END BusFault_IRQn 0 */
  while (1)
 8002c3a:	e7fe      	b.n	8002c3a <BusFault_Handler+0x4>

08002c3c <UsageFault_Handler>:

/**
  * @brief This function handles Undefined instruction or illegal state.
  */
void UsageFault_Handler(void)
{
 8002c3c:	b480      	push	{r7}
 8002c3e:	af00      	add	r7, sp, #0
  /* USER CODE BEGIN UsageFault_IRQn 0 */

  /* USER CODE END UsageFault_IRQn 0 */
  while (1)
 8002c40:	e7fe      	b.n	8002c40 <UsageFault_Handler+0x4>

08002c42 <DebugMon_Handler>:

/**
  * @brief This function handles Debug monitor.
  */
void DebugMon_Handler(void)
{
 8002c42:	b480      	push	{r7}
 8002c44:	af00      	add	r7, sp, #0

  /* USER CODE END DebugMonitor_IRQn 0 */
  /* USER CODE BEGIN DebugMonitor_IRQn 1 */

  /* USER CODE END DebugMonitor_IRQn 1 */
}
 8002c46:	bf00      	nop
 8002c48:	46bd      	mov	sp, r7
 8002c4a:	f85d 7b04 	ldr.w	r7, [sp], #4
 8002c4e:	4770      	bx	lr

08002c50 <PVD_IRQHandler>:

/**
  * @brief This function handles PVD interrupt through EXTI line 16.
  */
void PVD_IRQHandler(void)
{
 8002c50:	b580      	push	{r7, lr}
 8002c52:	af00      	add	r7, sp, #0
  /* USER CODE BEGIN PVD_IRQn 0 */

  /* USER CODE END PVD_IRQn 0 */
  HAL_PWR_PVD_IRQHandler();
 8002c54:	f000 fd6e 	bl	8003734 <HAL_PWR_PVD_IRQHandler>
  /* USER CODE BEGIN PVD_IRQn 1 */

  /* USER CODE END PVD_IRQn 1 */
}
 8002c58:	bf00      	nop
 8002c5a:	bd80      	pop	{r7, pc}

08002c5c <FLASH_IRQHandler>:

/**
  * @brief This function handles Flash global interrupt.
  */
void FLASH_IRQHandler(void)
{
 8002c5c:	b580      	push	{r7, lr}
 8002c5e:	af00      	add	r7, sp, #0
  /* USER CODE BEGIN FLASH_IRQn 0 */

  /* USER CODE END FLASH_IRQn 0 */
  HAL_FLASH_IRQHandler();
 8002c60:	f000 f9f2 	bl	8003048 <HAL_FLASH_IRQHandler>
  /* USER CODE BEGIN FLASH_IRQn 1 */

  /* USER CODE END FLASH_IRQn 1 */
}
 8002c64:	bf00      	nop
 8002c66:	bd80      	pop	{r7, pc}

08002c68 <RCC_IRQHandler>:

/**
  * @brief This function handles RCC global interrupt.
  */
void RCC_IRQHandler(void)
{
 8002c68:	b480      	push	{r7}
 8002c6a:	af00      	add	r7, sp, #0

  /* USER CODE END RCC_IRQn 0 */
  /* USER CODE BEGIN RCC_IRQn 1 */

  /* USER CODE END RCC_IRQn 1 */
}
 8002c6c:	bf00      	nop
 8002c6e:	46bd      	mov	sp, r7
 8002c70:	f85d 7b04 	ldr.w	r7, [sp], #4
 8002c74:	4770      	bx	lr
	...

08002c78 <TIM1_UP_TIM10_IRQHandler>:

/**
  * @brief This function handles TIM1 update interrupt and TIM10 global interrupt.
  */
void TIM1_UP_TIM10_IRQHandler(void)
{
 8002c78:	b580      	push	{r7, lr}
 8002c7a:	af00      	add	r7, sp, #0
  /* USER CODE BEGIN TIM1_UP_TIM10_IRQn 0 */

  /* USER CODE END TIM1_UP_TIM10_IRQn 0 */
  HAL_TIM_IRQHandler(&htim10);
 8002c7c:	4802      	ldr	r0, [pc, #8]	; (8002c88 <TIM1_UP_TIM10_IRQHandler+0x10>)
 8002c7e:	f001 fa60 	bl	8004142 <HAL_TIM_IRQHandler>
  /* USER CODE BEGIN TIM1_UP_TIM10_IRQn 1 */

  /* USER CODE END TIM1_UP_TIM10_IRQn 1 */
}
 8002c82:	bf00      	nop
 8002c84:	bd80      	pop	{r7, pc}
 8002c86:	bf00      	nop
 8002c88:	2000494c 	.word	0x2000494c

08002c8c <EXTI15_10_IRQHandler>:

/**
  * @brief This function handles EXTI line[15:10] interrupts.
  */
void EXTI15_10_IRQHandler(void)
{
 8002c8c:	b580      	push	{r7, lr}
 8002c8e:	af00      	add	r7, sp, #0
  /* USER CODE BEGIN EXTI15_10_IRQn 0 */

  /* USER CODE END EXTI15_10_IRQn 0 */
  HAL_GPIO_EXTI_IRQHandler(GPIO_PIN_13);
 8002c90:	f44f 5000 	mov.w	r0, #8192	; 0x2000
 8002c94:	f000 fd36 	bl	8003704 <HAL_GPIO_EXTI_IRQHandler>
  /* USER CODE BEGIN EXTI15_10_IRQn 1 */

  /* USER CODE END EXTI15_10_IRQn 1 */
}
 8002c98:	bf00      	nop
 8002c9a:	bd80      	pop	{r7, pc}

08002c9c <SystemInit>:
  *         configuration.
  * @param  None
  * @retval None
  */
void SystemInit(void)
{
 8002c9c:	b480      	push	{r7}
 8002c9e:	af00      	add	r7, sp, #0
  /* FPU settings ------------------------------------------------------------*/
  #if (__FPU_PRESENT == 1) && (__FPU_USED == 1)
    SCB->CPACR |= ((3UL << 10*2)|(3UL << 11*2));  /* set CP10 and CP11 Full Access */
 8002ca0:	4b08      	ldr	r3, [pc, #32]	; (8002cc4 <SystemInit+0x28>)
 8002ca2:	f8d3 3088 	ldr.w	r3, [r3, #136]	; 0x88
 8002ca6:	4a07      	ldr	r2, [pc, #28]	; (8002cc4 <SystemInit+0x28>)
 8002ca8:	f443 0370 	orr.w	r3, r3, #15728640	; 0xf00000
 8002cac:	f8c2 3088 	str.w	r3, [r2, #136]	; 0x88

  /* Configure the Vector Table location add offset address ------------------*/
#ifdef VECT_TAB_SRAM
  SCB->VTOR = SRAM_BASE | VECT_TAB_OFFSET; /* Vector Table Relocation in Internal SRAM */
#else
  SCB->VTOR = FLASH_BASE | VECT_TAB_OFFSET; /* Vector Table Relocation in Internal FLASH */
 8002cb0:	4b04      	ldr	r3, [pc, #16]	; (8002cc4 <SystemInit+0x28>)
 8002cb2:	f04f 6200 	mov.w	r2, #134217728	; 0x8000000
 8002cb6:	609a      	str	r2, [r3, #8]
#endif
}
 8002cb8:	bf00      	nop
 8002cba:	46bd      	mov	sp, r7
 8002cbc:	f85d 7b04 	ldr.w	r7, [sp], #4
 8002cc0:	4770      	bx	lr
 8002cc2:	bf00      	nop
 8002cc4:	e000ed00 	.word	0xe000ed00

08002cc8 <MX_USART2_UART_Init>:
UART_HandleTypeDef huart2;

/* USART2 init function */

void MX_USART2_UART_Init(void)
{
 8002cc8:	b580      	push	{r7, lr}
 8002cca:	af00      	add	r7, sp, #0

  huart2.Instance = USART2;
 8002ccc:	4b11      	ldr	r3, [pc, #68]	; (8002d14 <MX_USART2_UART_Init+0x4c>)
 8002cce:	4a12      	ldr	r2, [pc, #72]	; (8002d18 <MX_USART2_UART_Init+0x50>)
 8002cd0:	601a      	str	r2, [r3, #0]
  huart2.Init.BaudRate = 115200;
 8002cd2:	4b10      	ldr	r3, [pc, #64]	; (8002d14 <MX_USART2_UART_Init+0x4c>)
 8002cd4:	f44f 32e1 	mov.w	r2, #115200	; 0x1c200
 8002cd8:	605a      	str	r2, [r3, #4]
  huart2.Init.WordLength = UART_WORDLENGTH_8B;
 8002cda:	4b0e      	ldr	r3, [pc, #56]	; (8002d14 <MX_USART2_UART_Init+0x4c>)
 8002cdc:	2200      	movs	r2, #0
 8002cde:	609a      	str	r2, [r3, #8]
  huart2.Init.StopBits = UART_STOPBITS_1;
 8002ce0:	4b0c      	ldr	r3, [pc, #48]	; (8002d14 <MX_USART2_UART_Init+0x4c>)
 8002ce2:	2200      	movs	r2, #0
 8002ce4:	60da      	str	r2, [r3, #12]
  huart2.Init.Parity = UART_PARITY_NONE;
 8002ce6:	4b0b      	ldr	r3, [pc, #44]	; (8002d14 <MX_USART2_UART_Init+0x4c>)
 8002ce8:	2200      	movs	r2, #0
 8002cea:	611a      	str	r2, [r3, #16]
  huart2.Init.Mode = UART_MODE_TX_RX;
 8002cec:	4b09      	ldr	r3, [pc, #36]	; (8002d14 <MX_USART2_UART_Init+0x4c>)
 8002cee:	220c      	movs	r2, #12
 8002cf0:	615a      	str	r2, [r3, #20]
  huart2.Init.HwFlowCtl = UART_HWCONTROL_NONE;
 8002cf2:	4b08      	ldr	r3, [pc, #32]	; (8002d14 <MX_USART2_UART_Init+0x4c>)
 8002cf4:	2200      	movs	r2, #0
 8002cf6:	619a      	str	r2, [r3, #24]
  huart2.Init.OverSampling = UART_OVERSAMPLING_16;
 8002cf8:	4b06      	ldr	r3, [pc, #24]	; (8002d14 <MX_USART2_UART_Init+0x4c>)
 8002cfa:	2200      	movs	r2, #0
 8002cfc:	61da      	str	r2, [r3, #28]
  if (HAL_UART_Init(&huart2) != HAL_OK)
 8002cfe:	4805      	ldr	r0, [pc, #20]	; (8002d14 <MX_USART2_UART_Init+0x4c>)
 8002d00:	f001 fbe4 	bl	80044cc <HAL_UART_Init>
 8002d04:	4603      	mov	r3, r0
 8002d06:	2b00      	cmp	r3, #0
 8002d08:	d001      	beq.n	8002d0e <MX_USART2_UART_Init+0x46>
  {
    Error_Handler();
 8002d0a:	f7fe fa97 	bl	800123c <Error_Handler>
  }

}
 8002d0e:	bf00      	nop
 8002d10:	bd80      	pop	{r7, pc}
 8002d12:	bf00      	nop
 8002d14:	2000498c 	.word	0x2000498c
 8002d18:	40004400 	.word	0x40004400

08002d1c <HAL_UART_MspInit>:

void HAL_UART_MspInit(UART_HandleTypeDef* uartHandle)
{
 8002d1c:	b580      	push	{r7, lr}
 8002d1e:	b08a      	sub	sp, #40	; 0x28
 8002d20:	af00      	add	r7, sp, #0
 8002d22:	6078      	str	r0, [r7, #4]

  GPIO_InitTypeDef GPIO_InitStruct = {0};
 8002d24:	f107 0314 	add.w	r3, r7, #20
 8002d28:	2200      	movs	r2, #0
 8002d2a:	601a      	str	r2, [r3, #0]
 8002d2c:	605a      	str	r2, [r3, #4]
 8002d2e:	609a      	str	r2, [r3, #8]
 8002d30:	60da      	str	r2, [r3, #12]
 8002d32:	611a      	str	r2, [r3, #16]
  if(uartHandle->Instance==USART2)
 8002d34:	687b      	ldr	r3, [r7, #4]
 8002d36:	681b      	ldr	r3, [r3, #0]
 8002d38:	4a19      	ldr	r2, [pc, #100]	; (8002da0 <HAL_UART_MspInit+0x84>)
 8002d3a:	4293      	cmp	r3, r2
 8002d3c:	d12b      	bne.n	8002d96 <HAL_UART_MspInit+0x7a>
  {
  /* USER CODE BEGIN USART2_MspInit 0 */

  /* USER CODE END USART2_MspInit 0 */
    /* USART2 clock enable */
    __HAL_RCC_USART2_CLK_ENABLE();
 8002d3e:	2300      	movs	r3, #0
 8002d40:	613b      	str	r3, [r7, #16]
 8002d42:	4b18      	ldr	r3, [pc, #96]	; (8002da4 <HAL_UART_MspInit+0x88>)
 8002d44:	6c1b      	ldr	r3, [r3, #64]	; 0x40
 8002d46:	4a17      	ldr	r2, [pc, #92]	; (8002da4 <HAL_UART_MspInit+0x88>)
 8002d48:	f443 3300 	orr.w	r3, r3, #131072	; 0x20000
 8002d4c:	6413      	str	r3, [r2, #64]	; 0x40
 8002d4e:	4b15      	ldr	r3, [pc, #84]	; (8002da4 <HAL_UART_MspInit+0x88>)
 8002d50:	6c1b      	ldr	r3, [r3, #64]	; 0x40
 8002d52:	f403 3300 	and.w	r3, r3, #131072	; 0x20000
 8002d56:	613b      	str	r3, [r7, #16]
 8002d58:	693b      	ldr	r3, [r7, #16]

    __HAL_RCC_GPIOA_CLK_ENABLE();
 8002d5a:	2300      	movs	r3, #0
 8002d5c:	60fb      	str	r3, [r7, #12]
 8002d5e:	4b11      	ldr	r3, [pc, #68]	; (8002da4 <HAL_UART_MspInit+0x88>)
 8002d60:	6b1b      	ldr	r3, [r3, #48]	; 0x30
 8002d62:	4a10      	ldr	r2, [pc, #64]	; (8002da4 <HAL_UART_MspInit+0x88>)
 8002d64:	f043 0301 	orr.w	r3, r3, #1
 8002d68:	6313      	str	r3, [r2, #48]	; 0x30
 8002d6a:	4b0e      	ldr	r3, [pc, #56]	; (8002da4 <HAL_UART_MspInit+0x88>)
 8002d6c:	6b1b      	ldr	r3, [r3, #48]	; 0x30
 8002d6e:	f003 0301 	and.w	r3, r3, #1
 8002d72:	60fb      	str	r3, [r7, #12]
 8002d74:	68fb      	ldr	r3, [r7, #12]
    /**USART2 GPIO Configuration
    PA2     ------> USART2_TX
    PA3     ------> USART2_RX
    */
    GPIO_InitStruct.Pin = USART_TX_Pin|USART_RX_Pin;
 8002d76:	230c      	movs	r3, #12
 8002d78:	617b      	str	r3, [r7, #20]
    GPIO_InitStruct.Mode = GPIO_MODE_AF_PP;
 8002d7a:	2302      	movs	r3, #2
 8002d7c:	61bb      	str	r3, [r7, #24]
    GPIO_InitStruct.Pull = GPIO_NOPULL;
 8002d7e:	2300      	movs	r3, #0
 8002d80:	61fb      	str	r3, [r7, #28]
    GPIO_InitStruct.Speed = GPIO_SPEED_FREQ_VERY_HIGH;
 8002d82:	2303      	movs	r3, #3
 8002d84:	623b      	str	r3, [r7, #32]
    GPIO_InitStruct.Alternate = GPIO_AF7_USART2;
 8002d86:	2307      	movs	r3, #7
 8002d88:	627b      	str	r3, [r7, #36]	; 0x24
    HAL_GPIO_Init(GPIOA, &GPIO_InitStruct);
 8002d8a:	f107 0314 	add.w	r3, r7, #20
 8002d8e:	4619      	mov	r1, r3
 8002d90:	4805      	ldr	r0, [pc, #20]	; (8002da8 <HAL_UART_MspInit+0x8c>)
 8002d92:	f000 fb01 	bl	8003398 <HAL_GPIO_Init>

  /* USER CODE BEGIN USART2_MspInit 1 */

  /* USER CODE END USART2_MspInit 1 */
  }
}
 8002d96:	bf00      	nop
 8002d98:	3728      	adds	r7, #40	; 0x28
 8002d9a:	46bd      	mov	sp, r7
 8002d9c:	bd80      	pop	{r7, pc}
 8002d9e:	bf00      	nop
 8002da0:	40004400 	.word	0x40004400
 8002da4:	40023800 	.word	0x40023800
 8002da8:	40020000 	.word	0x40020000

08002dac <Reset_Handler>:

    .section  .text.Reset_Handler
  .weak  Reset_Handler
  .type  Reset_Handler, %function
Reset_Handler:  
  ldr   sp, =_estack    		 /* set stack pointer */
 8002dac:	f8df d034 	ldr.w	sp, [pc, #52]	; 8002de4 <LoopFillZerobss+0x14>

/* Copy the data segment initializers from flash to SRAM */  
  movs  r1, #0
 8002db0:	2100      	movs	r1, #0
  b  LoopCopyDataInit
 8002db2:	e003      	b.n	8002dbc <LoopCopyDataInit>

08002db4 <CopyDataInit>:

CopyDataInit:
  ldr  r3, =_sidata
 8002db4:	4b0c      	ldr	r3, [pc, #48]	; (8002de8 <LoopFillZerobss+0x18>)
  ldr  r3, [r3, r1]
 8002db6:	585b      	ldr	r3, [r3, r1]
  str  r3, [r0, r1]
 8002db8:	5043      	str	r3, [r0, r1]
  adds  r1, r1, #4
 8002dba:	3104      	adds	r1, #4

08002dbc <LoopCopyDataInit>:
    
LoopCopyDataInit:
  ldr  r0, =_sdata
 8002dbc:	480b      	ldr	r0, [pc, #44]	; (8002dec <LoopFillZerobss+0x1c>)
  ldr  r3, =_edata
 8002dbe:	4b0c      	ldr	r3, [pc, #48]	; (8002df0 <LoopFillZerobss+0x20>)
  adds  r2, r0, r1
 8002dc0:	1842      	adds	r2, r0, r1
  cmp  r2, r3
 8002dc2:	429a      	cmp	r2, r3
  bcc  CopyDataInit
 8002dc4:	d3f6      	bcc.n	8002db4 <CopyDataInit>
  ldr  r2, =_sbss
 8002dc6:	4a0b      	ldr	r2, [pc, #44]	; (8002df4 <LoopFillZerobss+0x24>)
  b  LoopFillZerobss
 8002dc8:	e002      	b.n	8002dd0 <LoopFillZerobss>

08002dca <FillZerobss>:
/* Zero fill the bss segment. */  
FillZerobss:
  movs  r3, #0
 8002dca:	2300      	movs	r3, #0
  str  r3, [r2], #4
 8002dcc:	f842 3b04 	str.w	r3, [r2], #4

08002dd0 <LoopFillZerobss>:
    
LoopFillZerobss:
  ldr  r3, = _ebss
 8002dd0:	4b09      	ldr	r3, [pc, #36]	; (8002df8 <LoopFillZerobss+0x28>)
  cmp  r2, r3
 8002dd2:	429a      	cmp	r2, r3
  bcc  FillZerobss
 8002dd4:	d3f9      	bcc.n	8002dca <FillZerobss>

/* Call the clock system intitialization function.*/
  bl  SystemInit   
 8002dd6:	f7ff ff61 	bl	8002c9c <SystemInit>
/* Call static constructors */
    bl __libc_init_array
 8002dda:	f005 fad7 	bl	800838c <__libc_init_array>
/* Call the application's entry point.*/
  bl  main
 8002dde:	f7fe f99f 	bl	8001120 <main>
  bx  lr    
 8002de2:	4770      	bx	lr
  ldr   sp, =_estack    		 /* set stack pointer */
 8002de4:	20020000 	.word	0x20020000
  ldr  r3, =_sidata
 8002de8:	080086a0 	.word	0x080086a0
  ldr  r0, =_sdata
 8002dec:	20000000 	.word	0x20000000
  ldr  r3, =_edata
 8002df0:	20000010 	.word	0x20000010
  ldr  r2, =_sbss
 8002df4:	20000010 	.word	0x20000010
  ldr  r3, = _ebss
 8002df8:	20004a30 	.word	0x20004a30

08002dfc <ADC_IRQHandler>:
 * @retval None       
*/
    .section  .text.Default_Handler,"ax",%progbits
Default_Handler:
Infinite_Loop:
  b  Infinite_Loop
 8002dfc:	e7fe      	b.n	8002dfc <ADC_IRQHandler>
	...

08002e00 <HAL_Init>:
