
T11_L51_RTOS_SimpleProject.elf:     file format elf32-littlearm

Sections:
Idx Name          Size      VMA       LMA       File off  Algn
  0 .isr_vector   00000198  08000000  08000000  00010000  2**0
                  CONTENTS, ALLOC, LOAD, READONLY, DATA
  1 .text         0000bc08  080001a0  080001a0  000101a0  2**4
                  CONTENTS, ALLOC, LOAD, READONLY, CODE
  2 .rodata       00000608  0800bda8  0800bda8  0001bda8  2**3
                  CONTENTS, ALLOC, LOAD, READONLY, DATA
  3 .ARM.extab    00000000  0800c3b0  0800c3b0  000201e4  2**0
                  CONTENTS
  4 .ARM          00000008  0800c3b0  0800c3b0  0001c3b0  2**2
                  CONTENTS, ALLOC, LOAD, READONLY, DATA
  5 .preinit_array 00000000  0800c3b8  0800c3b8  000201e4  2**0
                  CONTENTS, ALLOC, LOAD, DATA
  6 .init_array   00000004  0800c3b8  0800c3b8  0001c3b8  2**2
                  CONTENTS, ALLOC, LOAD, DATA
  7 .fini_array   00000004  0800c3bc  0800c3bc  0001c3bc  2**2
                  CONTENTS, ALLOC, LOAD, DATA
  8 .data         000001e4  20000000  0800c3c0  00020000  2**2
                  CONTENTS, ALLOC, LOAD, DATA
  9 .bss          00004e78  200001e4  0800c5a4  000201e4  2**2
                  ALLOC
 10 ._user_heap_stack 00000604  2000505c  0800c5a4  0002505c  2**0
                  ALLOC
 11 .ARM.attributes 00000030  00000000  00000000  000201e4  2**0
                  CONTENTS, READONLY
 12 .debug_info   0001f944  00000000  00000000  00020214  2**0
                  CONTENTS, READONLY, DEBUGGING
 13 .debug_abbrev 00003f70  00000000  00000000  0003fb58  2**0
                  CONTENTS, READONLY, DEBUGGING
 14 .debug_aranges 000018a0  00000000  00000000  00043ac8  2**3
                  CONTENTS, READONLY, DEBUGGING
 15 .debug_ranges 000016e0  00000000  00000000  00045368  2**3
                  CONTENTS, READONLY, DEBUGGING
 16 .debug_macro  00019e29  00000000  00000000  00046a48  2**0
                  CONTENTS, READONLY, DEBUGGING
 17 .debug_line   00015090  00000000  00000000  00060871  2**0
                  CONTENTS, READONLY, DEBUGGING
 18 .debug_str    0009a33a  00000000  00000000  00075901  2**0
                  CONTENTS, READONLY, DEBUGGING
 19 .comment      0000007b  00000000  00000000  0010fc3b  2**0
                  CONTENTS, READONLY
 20 .debug_frame  00006f70  00000000  00000000  0010fcb8  2**2
                  CONTENTS, READONLY, DEBUGGING

Disassembly of section .text:

080001a0 <__do_global_dtors_aux>:
 80001a0:	b510      	push	{r4, lr}
 80001a2:	4c05      	ldr	r4, [pc, #20]	; (80001b8 <__do_global_dtors_aux+0x18>)
 80001a4:	7823      	ldrb	r3, [r4, #0]
 80001a6:	b933      	cbnz	r3, 80001b6 <__do_global_dtors_aux+0x16>
 80001a8:	4b04      	ldr	r3, [pc, #16]	; (80001bc <__do_global_dtors_aux+0x1c>)
 80001aa:	b113      	cbz	r3, 80001b2 <__do_global_dtors_aux+0x12>
 80001ac:	4804      	ldr	r0, [pc, #16]	; (80001c0 <__do_global_dtors_aux+0x20>)
 80001ae:	f3af 8000 	nop.w
 80001b2:	2301      	movs	r3, #1
 80001b4:	7023      	strb	r3, [r4, #0]
 80001b6:	bd10      	pop	{r4, pc}
 80001b8:	200001e4 	.word	0x200001e4
 80001bc:	00000000 	.word	0x00000000
 80001c0:	0800bd90 	.word	0x0800bd90

080001c4 <frame_dummy>:
 80001c4:	b508      	push	{r3, lr}
 80001c6:	4b03      	ldr	r3, [pc, #12]	; (80001d4 <frame_dummy+0x10>)
 80001c8:	b11b      	cbz	r3, 80001d2 <frame_dummy+0xe>
 80001ca:	4903      	ldr	r1, [pc, #12]	; (80001d8 <frame_dummy+0x14>)
 80001cc:	4803      	ldr	r0, [pc, #12]	; (80001dc <frame_dummy+0x18>)
 80001ce:	f3af 8000 	nop.w
 80001d2:	bd08      	pop	{r3, pc}
 80001d4:	00000000 	.word	0x00000000
 80001d8:	200001e8 	.word	0x200001e8
 80001dc:	0800bd90 	.word	0x0800bd90

080001e0 <strlen>:
 80001e0:	4603      	mov	r3, r0
 80001e2:	f813 2b01 	ldrb.w	r2, [r3], #1
 80001e6:	2a00      	cmp	r2, #0
 80001e8:	d1fb      	bne.n	80001e2 <strlen+0x2>
 80001ea:	1a18      	subs	r0, r3, r0
 80001ec:	3801      	subs	r0, #1
 80001ee:	4770      	bx	lr

080001f0 <__aeabi_drsub>:
 80001f0:	f081 4100 	eor.w	r1, r1, #2147483648	; 0x80000000
 80001f4:	e002      	b.n	80001fc <__adddf3>
 80001f6:	bf00      	nop

080001f8 <__aeabi_dsub>:
 80001f8:	f083 4300 	eor.w	r3, r3, #2147483648	; 0x80000000

080001fc <__adddf3>:
 80001fc:	b530      	push	{r4, r5, lr}
 80001fe:	ea4f 0441 	mov.w	r4, r1, lsl #1
 8000202:	ea4f 0543 	mov.w	r5, r3, lsl #1
 8000206:	ea94 0f05 	teq	r4, r5
 800020a:	bf08      	it	eq
 800020c:	ea90 0f02 	teqeq	r0, r2
 8000210:	bf1f      	itttt	ne
 8000212:	ea54 0c00 	orrsne.w	ip, r4, r0
 8000216:	ea55 0c02 	orrsne.w	ip, r5, r2
 800021a:	ea7f 5c64 	mvnsne.w	ip, r4, asr #21
 800021e:	ea7f 5c65 	mvnsne.w	ip, r5, asr #21
 8000222:	f000 80e2 	beq.w	80003ea <__adddf3+0x1ee>
 8000226:	ea4f 5454 	mov.w	r4, r4, lsr #21
 800022a:	ebd4 5555 	rsbs	r5, r4, r5, lsr #21
 800022e:	bfb8      	it	lt
 8000230:	426d      	neglt	r5, r5
 8000232:	dd0c      	ble.n	800024e <__adddf3+0x52>
 8000234:	442c      	add	r4, r5
 8000236:	ea80 0202 	eor.w	r2, r0, r2
 800023a:	ea81 0303 	eor.w	r3, r1, r3
 800023e:	ea82 0000 	eor.w	r0, r2, r0
 8000242:	ea83 0101 	eor.w	r1, r3, r1
 8000246:	ea80 0202 	eor.w	r2, r0, r2
 800024a:	ea81 0303 	eor.w	r3, r1, r3
 800024e:	2d36      	cmp	r5, #54	; 0x36
 8000250:	bf88      	it	hi
 8000252:	bd30      	pophi	{r4, r5, pc}
 8000254:	f011 4f00 	tst.w	r1, #2147483648	; 0x80000000
 8000258:	ea4f 3101 	mov.w	r1, r1, lsl #12
 800025c:	f44f 1c80 	mov.w	ip, #1048576	; 0x100000
 8000260:	ea4c 3111 	orr.w	r1, ip, r1, lsr #12
 8000264:	d002      	beq.n	800026c <__adddf3+0x70>
 8000266:	4240      	negs	r0, r0
 8000268:	eb61 0141 	sbc.w	r1, r1, r1, lsl #1
 800026c:	f013 4f00 	tst.w	r3, #2147483648	; 0x80000000
 8000270:	ea4f 3303 	mov.w	r3, r3, lsl #12
 8000274:	ea4c 3313 	orr.w	r3, ip, r3, lsr #12
 8000278:	d002      	beq.n	8000280 <__adddf3+0x84>
 800027a:	4252      	negs	r2, r2
 800027c:	eb63 0343 	sbc.w	r3, r3, r3, lsl #1
 8000280:	ea94 0f05 	teq	r4, r5
 8000284:	f000 80a7 	beq.w	80003d6 <__adddf3+0x1da>
 8000288:	f1a4 0401 	sub.w	r4, r4, #1
 800028c:	f1d5 0e20 	rsbs	lr, r5, #32
 8000290:	db0d      	blt.n	80002ae <__adddf3+0xb2>
 8000292:	fa02 fc0e 	lsl.w	ip, r2, lr
 8000296:	fa22 f205 	lsr.w	r2, r2, r5
 800029a:	1880      	adds	r0, r0, r2
 800029c:	f141 0100 	adc.w	r1, r1, #0
 80002a0:	fa03 f20e 	lsl.w	r2, r3, lr
 80002a4:	1880      	adds	r0, r0, r2
 80002a6:	fa43 f305 	asr.w	r3, r3, r5
 80002aa:	4159      	adcs	r1, r3
 80002ac:	e00e      	b.n	80002cc <__adddf3+0xd0>
 80002ae:	f1a5 0520 	sub.w	r5, r5, #32
 80002b2:	f10e 0e20 	add.w	lr, lr, #32
 80002b6:	2a01      	cmp	r2, #1
 80002b8:	fa03 fc0e 	lsl.w	ip, r3, lr
 80002bc:	bf28      	it	cs
 80002be:	f04c 0c02 	orrcs.w	ip, ip, #2
 80002c2:	fa43 f305 	asr.w	r3, r3, r5
 80002c6:	18c0      	adds	r0, r0, r3
 80002c8:	eb51 71e3 	adcs.w	r1, r1, r3, asr #31
 80002cc:	f001 4500 	and.w	r5, r1, #2147483648	; 0x80000000
 80002d0:	d507      	bpl.n	80002e2 <__adddf3+0xe6>
 80002d2:	f04f 0e00 	mov.w	lr, #0
 80002d6:	f1dc 0c00 	rsbs	ip, ip, #0
 80002da:	eb7e 0000 	sbcs.w	r0, lr, r0
 80002de:	eb6e 0101 	sbc.w	r1, lr, r1
 80002e2:	f5b1 1f80 	cmp.w	r1, #1048576	; 0x100000
 80002e6:	d31b      	bcc.n	8000320 <__adddf3+0x124>
 80002e8:	f5b1 1f00 	cmp.w	r1, #2097152	; 0x200000
 80002ec:	d30c      	bcc.n	8000308 <__adddf3+0x10c>
 80002ee:	0849      	lsrs	r1, r1, #1
 80002f0:	ea5f 0030 	movs.w	r0, r0, rrx
 80002f4:	ea4f 0c3c 	mov.w	ip, ip, rrx
 80002f8:	f104 0401 	add.w	r4, r4, #1
 80002fc:	ea4f 5244 	mov.w	r2, r4, lsl #21
 8000300:	f512 0f80 	cmn.w	r2, #4194304	; 0x400000
 8000304:	f080 809a 	bcs.w	800043c <__adddf3+0x240>
 8000308:	f1bc 4f00 	cmp.w	ip, #2147483648	; 0x80000000
 800030c:	bf08      	it	eq
 800030e:	ea5f 0c50 	movseq.w	ip, r0, lsr #1
 8000312:	f150 0000 	adcs.w	r0, r0, #0
 8000316:	eb41 5104 	adc.w	r1, r1, r4, lsl #20
 800031a:	ea41 0105 	orr.w	r1, r1, r5
 800031e:	bd30      	pop	{r4, r5, pc}
 8000320:	ea5f 0c4c 	movs.w	ip, ip, lsl #1
 8000324:	4140      	adcs	r0, r0
 8000326:	eb41 0101 	adc.w	r1, r1, r1
 800032a:	f411 1f80 	tst.w	r1, #1048576	; 0x100000
 800032e:	f1a4 0401 	sub.w	r4, r4, #1
 8000332:	d1e9      	bne.n	8000308 <__adddf3+0x10c>
 8000334:	f091 0f00 	teq	r1, #0
 8000338:	bf04      	itt	eq
 800033a:	4601      	moveq	r1, r0
 800033c:	2000      	moveq	r0, #0
 800033e:	fab1 f381 	clz	r3, r1
 8000342:	bf08      	it	eq
 8000344:	3320      	addeq	r3, #32
 8000346:	f1a3 030b 	sub.w	r3, r3, #11
 800034a:	f1b3 0220 	subs.w	r2, r3, #32
 800034e:	da0c      	bge.n	800036a <__adddf3+0x16e>
 8000350:	320c      	adds	r2, #12
 8000352:	dd08      	ble.n	8000366 <__adddf3+0x16a>
 8000354:	f102 0c14 	add.w	ip, r2, #20
 8000358:	f1c2 020c 	rsb	r2, r2, #12
 800035c:	fa01 f00c 	lsl.w	r0, r1, ip
 8000360:	fa21 f102 	lsr.w	r1, r1, r2
 8000364:	e00c      	b.n	8000380 <__adddf3+0x184>
 8000366:	f102 0214 	add.w	r2, r2, #20
 800036a:	bfd8      	it	le
 800036c:	f1c2 0c20 	rsble	ip, r2, #32
 8000370:	fa01 f102 	lsl.w	r1, r1, r2
 8000374:	fa20 fc0c 	lsr.w	ip, r0, ip
 8000378:	bfdc      	itt	le
 800037a:	ea41 010c 	orrle.w	r1, r1, ip
 800037e:	4090      	lslle	r0, r2
 8000380:	1ae4      	subs	r4, r4, r3
 8000382:	bfa2      	ittt	ge
 8000384:	eb01 5104 	addge.w	r1, r1, r4, lsl #20
 8000388:	4329      	orrge	r1, r5
 800038a:	bd30      	popge	{r4, r5, pc}
 800038c:	ea6f 0404 	mvn.w	r4, r4
 8000390:	3c1f      	subs	r4, #31
 8000392:	da1c      	bge.n	80003ce <__adddf3+0x1d2>
 8000394:	340c      	adds	r4, #12
 8000396:	dc0e      	bgt.n	80003b6 <__adddf3+0x1ba>
 8000398:	f104 0414 	add.w	r4, r4, #20
 800039c:	f1c4 0220 	rsb	r2, r4, #32
 80003a0:	fa20 f004 	lsr.w	r0, r0, r4
 80003a4:	fa01 f302 	lsl.w	r3, r1, r2
 80003a8:	ea40 0003 	orr.w	r0, r0, r3
 80003ac:	fa21 f304 	lsr.w	r3, r1, r4
 80003b0:	ea45 0103 	orr.w	r1, r5, r3
 80003b4:	bd30      	pop	{r4, r5, pc}
 80003b6:	f1c4 040c 	rsb	r4, r4, #12
 80003ba:	f1c4 0220 	rsb	r2, r4, #32
 80003be:	fa20 f002 	lsr.w	r0, r0, r2
 80003c2:	fa01 f304 	lsl.w	r3, r1, r4
 80003c6:	ea40 0003 	orr.w	r0, r0, r3
 80003ca:	4629      	mov	r1, r5
 80003cc:	bd30      	pop	{r4, r5, pc}
 80003ce:	fa21 f004 	lsr.w	r0, r1, r4
 80003d2:	4629      	mov	r1, r5
 80003d4:	bd30      	pop	{r4, r5, pc}
 80003d6:	f094 0f00 	teq	r4, #0
 80003da:	f483 1380 	eor.w	r3, r3, #1048576	; 0x100000
 80003de:	bf06      	itte	eq
 80003e0:	f481 1180 	eoreq.w	r1, r1, #1048576	; 0x100000
 80003e4:	3401      	addeq	r4, #1
 80003e6:	3d01      	subne	r5, #1
 80003e8:	e74e      	b.n	8000288 <__adddf3+0x8c>
 80003ea:	ea7f 5c64 	mvns.w	ip, r4, asr #21
 80003ee:	bf18      	it	ne
 80003f0:	ea7f 5c65 	mvnsne.w	ip, r5, asr #21
 80003f4:	d029      	beq.n	800044a <__adddf3+0x24e>
 80003f6:	ea94 0f05 	teq	r4, r5
 80003fa:	bf08      	it	eq
 80003fc:	ea90 0f02 	teqeq	r0, r2
 8000400:	d005      	beq.n	800040e <__adddf3+0x212>
 8000402:	ea54 0c00 	orrs.w	ip, r4, r0
 8000406:	bf04      	itt	eq
 8000408:	4619      	moveq	r1, r3
 800040a:	4610      	moveq	r0, r2
 800040c:	bd30      	pop	{r4, r5, pc}
 800040e:	ea91 0f03 	teq	r1, r3
 8000412:	bf1e      	ittt	ne
 8000414:	2100      	movne	r1, #0
 8000416:	2000      	movne	r0, #0
 8000418:	bd30      	popne	{r4, r5, pc}
 800041a:	ea5f 5c54 	movs.w	ip, r4, lsr #21
 800041e:	d105      	bne.n	800042c <__adddf3+0x230>
 8000420:	0040      	lsls	r0, r0, #1
 8000422:	4149      	adcs	r1, r1
 8000424:	bf28      	it	cs
 8000426:	f041 4100 	orrcs.w	r1, r1, #2147483648	; 0x80000000
 800042a:	bd30      	pop	{r4, r5, pc}
 800042c:	f514 0480 	adds.w	r4, r4, #4194304	; 0x400000
 8000430:	bf3c      	itt	cc
 8000432:	f501 1180 	addcc.w	r1, r1, #1048576	; 0x100000
 8000436:	bd30      	popcc	{r4, r5, pc}
 8000438:	f001 4500 	and.w	r5, r1, #2147483648	; 0x80000000
 800043c:	f045 41fe 	orr.w	r1, r5, #2130706432	; 0x7f000000
 8000440:	f441 0170 	orr.w	r1, r1, #15728640	; 0xf00000
 8000444:	f04f 0000 	mov.w	r0, #0
 8000448:	bd30      	pop	{r4, r5, pc}
 800044a:	ea7f 5c64 	mvns.w	ip, r4, asr #21
 800044e:	bf1a      	itte	ne
 8000450:	4619      	movne	r1, r3
 8000452:	4610      	movne	r0, r2
 8000454:	ea7f 5c65 	mvnseq.w	ip, r5, asr #21
 8000458:	bf1c      	itt	ne
 800045a:	460b      	movne	r3, r1
 800045c:	4602      	movne	r2, r0
 800045e:	ea50 3401 	orrs.w	r4, r0, r1, lsl #12
 8000462:	bf06      	itte	eq
 8000464:	ea52 3503 	orrseq.w	r5, r2, r3, lsl #12
 8000468:	ea91 0f03 	teqeq	r1, r3
 800046c:	f441 2100 	orrne.w	r1, r1, #524288	; 0x80000
 8000470:	bd30      	pop	{r4, r5, pc}
 8000472:	bf00      	nop

08000474 <__aeabi_ui2d>:
 8000474:	f090 0f00 	teq	r0, #0
 8000478:	bf04      	itt	eq
 800047a:	2100      	moveq	r1, #0
 800047c:	4770      	bxeq	lr
 800047e:	b530      	push	{r4, r5, lr}
 8000480:	f44f 6480 	mov.w	r4, #1024	; 0x400
 8000484:	f104 0432 	add.w	r4, r4, #50	; 0x32
 8000488:	f04f 0500 	mov.w	r5, #0
 800048c:	f04f 0100 	mov.w	r1, #0
 8000490:	e750      	b.n	8000334 <__adddf3+0x138>
 8000492:	bf00      	nop

08000494 <__aeabi_i2d>:
 8000494:	f090 0f00 	teq	r0, #0
 8000498:	bf04      	itt	eq
 800049a:	2100      	moveq	r1, #0
 800049c:	4770      	bxeq	lr
 800049e:	b530      	push	{r4, r5, lr}
 80004a0:	f44f 6480 	mov.w	r4, #1024	; 0x400
 80004a4:	f104 0432 	add.w	r4, r4, #50	; 0x32
 80004a8:	f010 4500 	ands.w	r5, r0, #2147483648	; 0x80000000
 80004ac:	bf48      	it	mi
 80004ae:	4240      	negmi	r0, r0
 80004b0:	f04f 0100 	mov.w	r1, #0
 80004b4:	e73e      	b.n	8000334 <__adddf3+0x138>
 80004b6:	bf00      	nop

080004b8 <__aeabi_f2d>:
 80004b8:	0042      	lsls	r2, r0, #1
 80004ba:	ea4f 01e2 	mov.w	r1, r2, asr #3
 80004be:	ea4f 0131 	mov.w	r1, r1, rrx
 80004c2:	ea4f 7002 	mov.w	r0, r2, lsl #28
 80004c6:	bf1f      	itttt	ne
 80004c8:	f012 437f 	andsne.w	r3, r2, #4278190080	; 0xff000000
 80004cc:	f093 4f7f 	teqne	r3, #4278190080	; 0xff000000
 80004d0:	f081 5160 	eorne.w	r1, r1, #939524096	; 0x38000000
 80004d4:	4770      	bxne	lr
 80004d6:	f032 427f 	bics.w	r2, r2, #4278190080	; 0xff000000
 80004da:	bf08      	it	eq
 80004dc:	4770      	bxeq	lr
 80004de:	f093 4f7f 	teq	r3, #4278190080	; 0xff000000
 80004e2:	bf04      	itt	eq
 80004e4:	f441 2100 	orreq.w	r1, r1, #524288	; 0x80000
 80004e8:	4770      	bxeq	lr
 80004ea:	b530      	push	{r4, r5, lr}
 80004ec:	f44f 7460 	mov.w	r4, #896	; 0x380
 80004f0:	f001 4500 	and.w	r5, r1, #2147483648	; 0x80000000
 80004f4:	f021 4100 	bic.w	r1, r1, #2147483648	; 0x80000000
 80004f8:	e71c      	b.n	8000334 <__adddf3+0x138>
 80004fa:	bf00      	nop

080004fc <__aeabi_ul2d>:
 80004fc:	ea50 0201 	orrs.w	r2, r0, r1
 8000500:	bf08      	it	eq
 8000502:	4770      	bxeq	lr
 8000504:	b530      	push	{r4, r5, lr}
 8000506:	f04f 0500 	mov.w	r5, #0
 800050a:	e00a      	b.n	8000522 <__aeabi_l2d+0x16>

0800050c <__aeabi_l2d>:
 800050c:	ea50 0201 	orrs.w	r2, r0, r1
 8000510:	bf08      	it	eq
 8000512:	4770      	bxeq	lr
 8000514:	b530      	push	{r4, r5, lr}
 8000516:	f011 4500 	ands.w	r5, r1, #2147483648	; 0x80000000
 800051a:	d502      	bpl.n	8000522 <__aeabi_l2d+0x16>
 800051c:	4240      	negs	r0, r0
 800051e:	eb61 0141 	sbc.w	r1, r1, r1, lsl #1
 8000522:	f44f 6480 	mov.w	r4, #1024	; 0x400
 8000526:	f104 0432 	add.w	r4, r4, #50	; 0x32
 800052a:	ea5f 5c91 	movs.w	ip, r1, lsr #22
 800052e:	f43f aed8 	beq.w	80002e2 <__adddf3+0xe6>
 8000532:	f04f 0203 	mov.w	r2, #3
 8000536:	ea5f 0cdc 	movs.w	ip, ip, lsr #3
 800053a:	bf18      	it	ne
 800053c:	3203      	addne	r2, #3
 800053e:	ea5f 0cdc 	movs.w	ip, ip, lsr #3
 8000542:	bf18      	it	ne
 8000544:	3203      	addne	r2, #3
 8000546:	eb02 02dc 	add.w	r2, r2, ip, lsr #3
 800054a:	f1c2 0320 	rsb	r3, r2, #32
 800054e:	fa00 fc03 	lsl.w	ip, r0, r3
 8000552:	fa20 f002 	lsr.w	r0, r0, r2
 8000556:	fa01 fe03 	lsl.w	lr, r1, r3
 800055a:	ea40 000e 	orr.w	r0, r0, lr
 800055e:	fa21 f102 	lsr.w	r1, r1, r2
 8000562:	4414      	add	r4, r2
 8000564:	e6bd      	b.n	80002e2 <__adddf3+0xe6>
 8000566:	bf00      	nop

08000568 <__aeabi_dmul>:
 8000568:	b570      	push	{r4, r5, r6, lr}
 800056a:	f04f 0cff 	mov.w	ip, #255	; 0xff
 800056e:	f44c 6ce0 	orr.w	ip, ip, #1792	; 0x700
 8000572:	ea1c 5411 	ands.w	r4, ip, r1, lsr #20
 8000576:	bf1d      	ittte	ne
 8000578:	ea1c 5513 	andsne.w	r5, ip, r3, lsr #20
 800057c:	ea94 0f0c 	teqne	r4, ip
 8000580:	ea95 0f0c 	teqne	r5, ip
 8000584:	f000 f8de 	bleq	8000744 <__aeabi_dmul+0x1dc>
 8000588:	442c      	add	r4, r5
 800058a:	ea81 0603 	eor.w	r6, r1, r3
 800058e:	ea21 514c 	bic.w	r1, r1, ip, lsl #21
 8000592:	ea23 534c 	bic.w	r3, r3, ip, lsl #21
 8000596:	ea50 3501 	orrs.w	r5, r0, r1, lsl #12
 800059a:	bf18      	it	ne
 800059c:	ea52 3503 	orrsne.w	r5, r2, r3, lsl #12
 80005a0:	f441 1180 	orr.w	r1, r1, #1048576	; 0x100000
 80005a4:	f443 1380 	orr.w	r3, r3, #1048576	; 0x100000
 80005a8:	d038      	beq.n	800061c <__aeabi_dmul+0xb4>
 80005aa:	fba0 ce02 	umull	ip, lr, r0, r2
 80005ae:	f04f 0500 	mov.w	r5, #0
 80005b2:	fbe1 e502 	umlal	lr, r5, r1, r2
 80005b6:	f006 4200 	and.w	r2, r6, #2147483648	; 0x80000000
 80005ba:	fbe0 e503 	umlal	lr, r5, r0, r3
 80005be:	f04f 0600 	mov.w	r6, #0
 80005c2:	fbe1 5603 	umlal	r5, r6, r1, r3
 80005c6:	f09c 0f00 	teq	ip, #0
 80005ca:	bf18      	it	ne
 80005cc:	f04e 0e01 	orrne.w	lr, lr, #1
 80005d0:	f1a4 04ff 	sub.w	r4, r4, #255	; 0xff
 80005d4:	f5b6 7f00 	cmp.w	r6, #512	; 0x200
 80005d8:	f564 7440 	sbc.w	r4, r4, #768	; 0x300
 80005dc:	d204      	bcs.n	80005e8 <__aeabi_dmul+0x80>
 80005de:	ea5f 0e4e 	movs.w	lr, lr, lsl #1
 80005e2:	416d      	adcs	r5, r5
 80005e4:	eb46 0606 	adc.w	r6, r6, r6
 80005e8:	ea42 21c6 	orr.w	r1, r2, r6, lsl #11
 80005ec:	ea41 5155 	orr.w	r1, r1, r5, lsr #21
 80005f0:	ea4f 20c5 	mov.w	r0, r5, lsl #11
 80005f4:	ea40 505e 	orr.w	r0, r0, lr, lsr #21
 80005f8:	ea4f 2ece 	mov.w	lr, lr, lsl #11
 80005fc:	f1b4 0cfd 	subs.w	ip, r4, #253	; 0xfd
 8000600:	bf88      	it	hi
 8000602:	f5bc 6fe0 	cmphi.w	ip, #1792	; 0x700
 8000606:	d81e      	bhi.n	8000646 <__aeabi_dmul+0xde>
 8000608:	f1be 4f00 	cmp.w	lr, #2147483648	; 0x80000000
 800060c:	bf08      	it	eq
 800060e:	ea5f 0e50 	movseq.w	lr, r0, lsr #1
 8000612:	f150 0000 	adcs.w	r0, r0, #0
 8000616:	eb41 5104 	adc.w	r1, r1, r4, lsl #20
 800061a:	bd70      	pop	{r4, r5, r6, pc}
 800061c:	f006 4600 	and.w	r6, r6, #2147483648	; 0x80000000
 8000620:	ea46 0101 	orr.w	r1, r6, r1
 8000624:	ea40 0002 	orr.w	r0, r0, r2
 8000628:	ea81 0103 	eor.w	r1, r1, r3
 800062c:	ebb4 045c 	subs.w	r4, r4, ip, lsr #1
 8000630:	bfc2      	ittt	gt
 8000632:	ebd4 050c 	rsbsgt	r5, r4, ip
 8000636:	ea41 5104 	orrgt.w	r1, r1, r4, lsl #20
 800063a:	bd70      	popgt	{r4, r5, r6, pc}
 800063c:	f441 1180 	orr.w	r1, r1, #1048576	; 0x100000
 8000640:	f04f 0e00 	mov.w	lr, #0
 8000644:	3c01      	subs	r4, #1
 8000646:	f300 80ab 	bgt.w	80007a0 <__aeabi_dmul+0x238>
 800064a:	f114 0f36 	cmn.w	r4, #54	; 0x36
 800064e:	bfde      	ittt	le
 8000650:	2000      	movle	r0, #0
 8000652:	f001 4100 	andle.w	r1, r1, #2147483648	; 0x80000000
 8000656:	bd70      	pople	{r4, r5, r6, pc}
 8000658:	f1c4 0400 	rsb	r4, r4, #0
 800065c:	3c20      	subs	r4, #32
 800065e:	da35      	bge.n	80006cc <__aeabi_dmul+0x164>
 8000660:	340c      	adds	r4, #12
 8000662:	dc1b      	bgt.n	800069c <__aeabi_dmul+0x134>
 8000664:	f104 0414 	add.w	r4, r4, #20
 8000668:	f1c4 0520 	rsb	r5, r4, #32
 800066c:	fa00 f305 	lsl.w	r3, r0, r5
 8000670:	fa20 f004 	lsr.w	r0, r0, r4
 8000674:	fa01 f205 	lsl.w	r2, r1, r5
 8000678:	ea40 0002 	orr.w	r0, r0, r2
 800067c:	f001 4200 	and.w	r2, r1, #2147483648	; 0x80000000
 8000680:	f021 4100 	bic.w	r1, r1, #2147483648	; 0x80000000
 8000684:	eb10 70d3 	adds.w	r0, r0, r3, lsr #31
 8000688:	fa21 f604 	lsr.w	r6, r1, r4
 800068c:	eb42 0106 	adc.w	r1, r2, r6
 8000690:	ea5e 0e43 	orrs.w	lr, lr, r3, lsl #1
 8000694:	bf08      	it	eq
 8000696:	ea20 70d3 	biceq.w	r0, r0, r3, lsr #31
 800069a:	bd70      	pop	{r4, r5, r6, pc}
 800069c:	f1c4 040c 	rsb	r4, r4, #12
 80006a0:	f1c4 0520 	rsb	r5, r4, #32
 80006a4:	fa00 f304 	lsl.w	r3, r0, r4
 80006a8:	fa20 f005 	lsr.w	r0, r0, r5
 80006ac:	fa01 f204 	lsl.w	r2, r1, r4
 80006b0:	ea40 0002 	orr.w	r0, r0, r2
 80006b4:	f001 4100 	and.w	r1, r1, #2147483648	; 0x80000000
 80006b8:	eb10 70d3 	adds.w	r0, r0, r3, lsr #31
 80006bc:	f141 0100 	adc.w	r1, r1, #0
 80006c0:	ea5e 0e43 	orrs.w	lr, lr, r3, lsl #1
 80006c4:	bf08      	it	eq
 80006c6:	ea20 70d3 	biceq.w	r0, r0, r3, lsr #31
 80006ca:	bd70      	pop	{r4, r5, r6, pc}
 80006cc:	f1c4 0520 	rsb	r5, r4, #32
 80006d0:	fa00 f205 	lsl.w	r2, r0, r5
 80006d4:	ea4e 0e02 	orr.w	lr, lr, r2
 80006d8:	fa20 f304 	lsr.w	r3, r0, r4
 80006dc:	fa01 f205 	lsl.w	r2, r1, r5
 80006e0:	ea43 0302 	orr.w	r3, r3, r2
 80006e4:	fa21 f004 	lsr.w	r0, r1, r4
 80006e8:	f001 4100 	and.w	r1, r1, #2147483648	; 0x80000000
 80006ec:	fa21 f204 	lsr.w	r2, r1, r4
 80006f0:	ea20 0002 	bic.w	r0, r0, r2
 80006f4:	eb00 70d3 	add.w	r0, r0, r3, lsr #31
 80006f8:	ea5e 0e43 	orrs.w	lr, lr, r3, lsl #1
 80006fc:	bf08      	it	eq
 80006fe:	ea20 70d3 	biceq.w	r0, r0, r3, lsr #31
 8000702:	bd70      	pop	{r4, r5, r6, pc}
 8000704:	f094 0f00 	teq	r4, #0
 8000708:	d10f      	bne.n	800072a <__aeabi_dmul+0x1c2>
 800070a:	f001 4600 	and.w	r6, r1, #2147483648	; 0x80000000
 800070e:	0040      	lsls	r0, r0, #1
 8000710:	eb41 0101 	adc.w	r1, r1, r1
 8000714:	f411 1f80 	tst.w	r1, #1048576	; 0x100000
 8000718:	bf08      	it	eq
 800071a:	3c01      	subeq	r4, #1
 800071c:	d0f7      	beq.n	800070e <__aeabi_dmul+0x1a6>
 800071e:	ea41 0106 	orr.w	r1, r1, r6
 8000722:	f095 0f00 	teq	r5, #0
 8000726:	bf18      	it	ne
 8000728:	4770      	bxne	lr
 800072a:	f003 4600 	and.w	r6, r3, #2147483648	; 0x80000000
 800072e:	0052      	lsls	r2, r2, #1
 8000730:	eb43 0303 	adc.w	r3, r3, r3
 8000734:	f413 1f80 	tst.w	r3, #1048576	; 0x100000
 8000738:	bf08      	it	eq
 800073a:	3d01      	subeq	r5, #1
 800073c:	d0f7      	beq.n	800072e <__aeabi_dmul+0x1c6>
 800073e:	ea43 0306 	orr.w	r3, r3, r6
 8000742:	4770      	bx	lr
 8000744:	ea94 0f0c 	teq	r4, ip
 8000748:	ea0c 5513 	and.w	r5, ip, r3, lsr #20
 800074c:	bf18      	it	ne
 800074e:	ea95 0f0c 	teqne	r5, ip
 8000752:	d00c      	beq.n	800076e <__aeabi_dmul+0x206>
 8000754:	ea50 0641 	orrs.w	r6, r0, r1, lsl #1
 8000758:	bf18      	it	ne
 800075a:	ea52 0643 	orrsne.w	r6, r2, r3, lsl #1
 800075e:	d1d1      	bne.n	8000704 <__aeabi_dmul+0x19c>
 8000760:	ea81 0103 	eor.w	r1, r1, r3
 8000764:	f001 4100 	and.w	r1, r1, #2147483648	; 0x80000000
 8000768:	f04f 0000 	mov.w	r0, #0
 800076c:	bd70      	pop	{r4, r5, r6, pc}
 800076e:	ea50 0641 	orrs.w	r6, r0, r1, lsl #1
 8000772:	bf06      	itte	eq
 8000774:	4610      	moveq	r0, r2
 8000776:	4619      	moveq	r1, r3
 8000778:	ea52 0643 	orrsne.w	r6, r2, r3, lsl #1
 800077c:	d019      	beq.n	80007b2 <__aeabi_dmul+0x24a>
 800077e:	ea94 0f0c 	teq	r4, ip
 8000782:	d102      	bne.n	800078a <__aeabi_dmul+0x222>
 8000784:	ea50 3601 	orrs.w	r6, r0, r1, lsl #12
 8000788:	d113      	bne.n	80007b2 <__aeabi_dmul+0x24a>
 800078a:	ea95 0f0c 	teq	r5, ip
 800078e:	d105      	bne.n	800079c <__aeabi_dmul+0x234>
 8000790:	ea52 3603 	orrs.w	r6, r2, r3, lsl #12
 8000794:	bf1c      	itt	ne
 8000796:	4610      	movne	r0, r2
 8000798:	4619      	movne	r1, r3
 800079a:	d10a      	bne.n	80007b2 <__aeabi_dmul+0x24a>
 800079c:	ea81 0103 	eor.w	r1, r1, r3
 80007a0:	f001 4100 	and.w	r1, r1, #2147483648	; 0x80000000
 80007a4:	f041 41fe 	orr.w	r1, r1, #2130706432	; 0x7f000000
 80007a8:	f441 0170 	orr.w	r1, r1, #15728640	; 0xf00000
 80007ac:	f04f 0000 	mov.w	r0, #0
 80007b0:	bd70      	pop	{r4, r5, r6, pc}
 80007b2:	f041 41fe 	orr.w	r1, r1, #2130706432	; 0x7f000000
 80007b6:	f441 0178 	orr.w	r1, r1, #16252928	; 0xf80000
 80007ba:	bd70      	pop	{r4, r5, r6, pc}

080007bc <__aeabi_ddiv>:
 80007bc:	b570      	push	{r4, r5, r6, lr}
 80007be:	f04f 0cff 	mov.w	ip, #255	; 0xff
 80007c2:	f44c 6ce0 	orr.w	ip, ip, #1792	; 0x700
 80007c6:	ea1c 5411 	ands.w	r4, ip, r1, lsr #20
 80007ca:	bf1d      	ittte	ne
 80007cc:	ea1c 5513 	andsne.w	r5, ip, r3, lsr #20
 80007d0:	ea94 0f0c 	teqne	r4, ip
 80007d4:	ea95 0f0c 	teqne	r5, ip
 80007d8:	f000 f8a7 	bleq	800092a <__aeabi_ddiv+0x16e>
 80007dc:	eba4 0405 	sub.w	r4, r4, r5
 80007e0:	ea81 0e03 	eor.w	lr, r1, r3
 80007e4:	ea52 3503 	orrs.w	r5, r2, r3, lsl #12
 80007e8:	ea4f 3101 	mov.w	r1, r1, lsl #12
 80007ec:	f000 8088 	beq.w	8000900 <__aeabi_ddiv+0x144>
 80007f0:	ea4f 3303 	mov.w	r3, r3, lsl #12
 80007f4:	f04f 5580 	mov.w	r5, #268435456	; 0x10000000
 80007f8:	ea45 1313 	orr.w	r3, r5, r3, lsr #4
 80007fc:	ea43 6312 	orr.w	r3, r3, r2, lsr #24
 8000800:	ea4f 2202 	mov.w	r2, r2, lsl #8
 8000804:	ea45 1511 	orr.w	r5, r5, r1, lsr #4
 8000808:	ea45 6510 	orr.w	r5, r5, r0, lsr #24
 800080c:	ea4f 2600 	mov.w	r6, r0, lsl #8
 8000810:	f00e 4100 	and.w	r1, lr, #2147483648	; 0x80000000
 8000814:	429d      	cmp	r5, r3
 8000816:	bf08      	it	eq
 8000818:	4296      	cmpeq	r6, r2
 800081a:	f144 04fd 	adc.w	r4, r4, #253	; 0xfd
 800081e:	f504 7440 	add.w	r4, r4, #768	; 0x300
 8000822:	d202      	bcs.n	800082a <__aeabi_ddiv+0x6e>
 8000824:	085b      	lsrs	r3, r3, #1
 8000826:	ea4f 0232 	mov.w	r2, r2, rrx
 800082a:	1ab6      	subs	r6, r6, r2
 800082c:	eb65 0503 	sbc.w	r5, r5, r3
 8000830:	085b      	lsrs	r3, r3, #1
 8000832:	ea4f 0232 	mov.w	r2, r2, rrx
 8000836:	f44f 1080 	mov.w	r0, #1048576	; 0x100000
 800083a:	f44f 2c00 	mov.w	ip, #524288	; 0x80000
 800083e:	ebb6 0e02 	subs.w	lr, r6, r2
 8000842:	eb75 0e03 	sbcs.w	lr, r5, r3
 8000846:	bf22      	ittt	cs
 8000848:	1ab6      	subcs	r6, r6, r2
 800084a:	4675      	movcs	r5, lr
 800084c:	ea40 000c 	orrcs.w	r0, r0, ip
 8000850:	085b      	lsrs	r3, r3, #1
 8000852:	ea4f 0232 	mov.w	r2, r2, rrx
 8000856:	ebb6 0e02 	subs.w	lr, r6, r2
 800085a:	eb75 0e03 	sbcs.w	lr, r5, r3
 800085e:	bf22      	ittt	cs
 8000860:	1ab6      	subcs	r6, r6, r2
 8000862:	4675      	movcs	r5, lr
 8000864:	ea40 005c 	orrcs.w	r0, r0, ip, lsr #1
 8000868:	085b      	lsrs	r3, r3, #1
 800086a:	ea4f 0232 	mov.w	r2, r2, rrx
 800086e:	ebb6 0e02 	subs.w	lr, r6, r2
 8000872:	eb75 0e03 	sbcs.w	lr, r5, r3
 8000876:	bf22      	ittt	cs
 8000878:	1ab6      	subcs	r6, r6, r2
 800087a:	4675      	movcs	r5, lr
 800087c:	ea40 009c 	orrcs.w	r0, r0, ip, lsr #2
 8000880:	085b      	lsrs	r3, r3, #1
 8000882:	ea4f 0232 	mov.w	r2, r2, rrx
 8000886:	ebb6 0e02 	subs.w	lr, r6, r2
 800088a:	eb75 0e03 	sbcs.w	lr, r5, r3
 800088e:	bf22      	ittt	cs
 8000890:	1ab6      	subcs	r6, r6, r2
 8000892:	4675      	movcs	r5, lr
 8000894:	ea40 00dc 	orrcs.w	r0, r0, ip, lsr #3
 8000898:	ea55 0e06 	orrs.w	lr, r5, r6
 800089c:	d018      	beq.n	80008d0 <__aeabi_ddiv+0x114>
 800089e:	ea4f 1505 	mov.w	r5, r5, lsl #4
 80008a2:	ea45 7516 	orr.w	r5, r5, r6, lsr #28
 80008a6:	ea4f 1606 	mov.w	r6, r6, lsl #4
 80008aa:	ea4f 03c3 	mov.w	r3, r3, lsl #3
 80008ae:	ea43 7352 	orr.w	r3, r3, r2, lsr #29
 80008b2:	ea4f 02c2 	mov.w	r2, r2, lsl #3
 80008b6:	ea5f 1c1c 	movs.w	ip, ip, lsr #4
 80008ba:	d1c0      	bne.n	800083e <__aeabi_ddiv+0x82>
 80008bc:	f411 1f80 	tst.w	r1, #1048576	; 0x100000
 80008c0:	d10b      	bne.n	80008da <__aeabi_ddiv+0x11e>
 80008c2:	ea41 0100 	orr.w	r1, r1, r0
 80008c6:	f04f 0000 	mov.w	r0, #0
 80008ca:	f04f 4c00 	mov.w	ip, #2147483648	; 0x80000000
 80008ce:	e7b6      	b.n	800083e <__aeabi_ddiv+0x82>
 80008d0:	f411 1f80 	tst.w	r1, #1048576	; 0x100000
 80008d4:	bf04      	itt	eq
 80008d6:	4301      	orreq	r1, r0
 80008d8:	2000      	moveq	r0, #0
 80008da:	f1b4 0cfd 	subs.w	ip, r4, #253	; 0xfd
 80008de:	bf88      	it	hi
 80008e0:	f5bc 6fe0 	cmphi.w	ip, #1792	; 0x700
 80008e4:	f63f aeaf 	bhi.w	8000646 <__aeabi_dmul+0xde>
 80008e8:	ebb5 0c03 	subs.w	ip, r5, r3
 80008ec:	bf04      	itt	eq
 80008ee:	ebb6 0c02 	subseq.w	ip, r6, r2
 80008f2:	ea5f 0c50 	movseq.w	ip, r0, lsr #1
 80008f6:	f150 0000 	adcs.w	r0, r0, #0
 80008fa:	eb41 5104 	adc.w	r1, r1, r4, lsl #20
 80008fe:	bd70      	pop	{r4, r5, r6, pc}
 8000900:	f00e 4e00 	and.w	lr, lr, #2147483648	; 0x80000000
 8000904:	ea4e 3111 	orr.w	r1, lr, r1, lsr #12
 8000908:	eb14 045c 	adds.w	r4, r4, ip, lsr #1
 800090c:	bfc2      	ittt	gt
 800090e:	ebd4 050c 	rsbsgt	r5, r4, ip
 8000912:	ea41 5104 	orrgt.w	r1, r1, r4, lsl #20
 8000916:	bd70      	popgt	{r4, r5, r6, pc}
 8000918:	f441 1180 	orr.w	r1, r1, #1048576	; 0x100000
 800091c:	f04f 0e00 	mov.w	lr, #0
 8000920:	3c01      	subs	r4, #1
 8000922:	e690      	b.n	8000646 <__aeabi_dmul+0xde>
 8000924:	ea45 0e06 	orr.w	lr, r5, r6
 8000928:	e68d      	b.n	8000646 <__aeabi_dmul+0xde>
 800092a:	ea0c 5513 	and.w	r5, ip, r3, lsr #20
 800092e:	ea94 0f0c 	teq	r4, ip
 8000932:	bf08      	it	eq
 8000934:	ea95 0f0c 	teqeq	r5, ip
 8000938:	f43f af3b 	beq.w	80007b2 <__aeabi_dmul+0x24a>
 800093c:	ea94 0f0c 	teq	r4, ip
 8000940:	d10a      	bne.n	8000958 <__aeabi_ddiv+0x19c>
 8000942:	ea50 3401 	orrs.w	r4, r0, r1, lsl #12
 8000946:	f47f af34 	bne.w	80007b2 <__aeabi_dmul+0x24a>
 800094a:	ea95 0f0c 	teq	r5, ip
 800094e:	f47f af25 	bne.w	800079c <__aeabi_dmul+0x234>
 8000952:	4610      	mov	r0, r2
 8000954:	4619      	mov	r1, r3
 8000956:	e72c      	b.n	80007b2 <__aeabi_dmul+0x24a>
 8000958:	ea95 0f0c 	teq	r5, ip
 800095c:	d106      	bne.n	800096c <__aeabi_ddiv+0x1b0>
 800095e:	ea52 3503 	orrs.w	r5, r2, r3, lsl #12
 8000962:	f43f aefd 	beq.w	8000760 <__aeabi_dmul+0x1f8>
 8000966:	4610      	mov	r0, r2
 8000968:	4619      	mov	r1, r3
 800096a:	e722      	b.n	80007b2 <__aeabi_dmul+0x24a>
 800096c:	ea50 0641 	orrs.w	r6, r0, r1, lsl #1
 8000970:	bf18      	it	ne
 8000972:	ea52 0643 	orrsne.w	r6, r2, r3, lsl #1
 8000976:	f47f aec5 	bne.w	8000704 <__aeabi_dmul+0x19c>
 800097a:	ea50 0441 	orrs.w	r4, r0, r1, lsl #1
 800097e:	f47f af0d 	bne.w	800079c <__aeabi_dmul+0x234>
 8000982:	ea52 0543 	orrs.w	r5, r2, r3, lsl #1
 8000986:	f47f aeeb 	bne.w	8000760 <__aeabi_dmul+0x1f8>
 800098a:	e712      	b.n	80007b2 <__aeabi_dmul+0x24a>

0800098c <__gedf2>:
 800098c:	f04f 3cff 	mov.w	ip, #4294967295
 8000990:	e006      	b.n	80009a0 <__cmpdf2+0x4>
 8000992:	bf00      	nop

08000994 <__ledf2>:
 8000994:	f04f 0c01 	mov.w	ip, #1
 8000998:	e002      	b.n	80009a0 <__cmpdf2+0x4>
 800099a:	bf00      	nop

0800099c <__cmpdf2>:
 800099c:	f04f 0c01 	mov.w	ip, #1
 80009a0:	f84d cd04 	str.w	ip, [sp, #-4]!
 80009a4:	ea4f 0c41 	mov.w	ip, r1, lsl #1
 80009a8:	ea7f 5c6c 	mvns.w	ip, ip, asr #21
 80009ac:	ea4f 0c43 	mov.w	ip, r3, lsl #1
 80009b0:	bf18      	it	ne
 80009b2:	ea7f 5c6c 	mvnsne.w	ip, ip, asr #21
 80009b6:	d01b      	beq.n	80009f0 <__cmpdf2+0x54>
 80009b8:	b001      	add	sp, #4
 80009ba:	ea50 0c41 	orrs.w	ip, r0, r1, lsl #1
 80009be:	bf0c      	ite	eq
 80009c0:	ea52 0c43 	orrseq.w	ip, r2, r3, lsl #1
 80009c4:	ea91 0f03 	teqne	r1, r3
 80009c8:	bf02      	ittt	eq
 80009ca:	ea90 0f02 	teqeq	r0, r2
 80009ce:	2000      	moveq	r0, #0
 80009d0:	4770      	bxeq	lr
 80009d2:	f110 0f00 	cmn.w	r0, #0
 80009d6:	ea91 0f03 	teq	r1, r3
 80009da:	bf58      	it	pl
 80009dc:	4299      	cmppl	r1, r3
 80009de:	bf08      	it	eq
 80009e0:	4290      	cmpeq	r0, r2
 80009e2:	bf2c      	ite	cs
 80009e4:	17d8      	asrcs	r0, r3, #31
 80009e6:	ea6f 70e3 	mvncc.w	r0, r3, asr #31
 80009ea:	f040 0001 	orr.w	r0, r0, #1
 80009ee:	4770      	bx	lr
 80009f0:	ea4f 0c41 	mov.w	ip, r1, lsl #1
 80009f4:	ea7f 5c6c 	mvns.w	ip, ip, asr #21
 80009f8:	d102      	bne.n	8000a00 <__cmpdf2+0x64>
 80009fa:	ea50 3c01 	orrs.w	ip, r0, r1, lsl #12
 80009fe:	d107      	bne.n	8000a10 <__cmpdf2+0x74>
 8000a00:	ea4f 0c43 	mov.w	ip, r3, lsl #1
 8000a04:	ea7f 5c6c 	mvns.w	ip, ip, asr #21
 8000a08:	d1d6      	bne.n	80009b8 <__cmpdf2+0x1c>
 8000a0a:	ea52 3c03 	orrs.w	ip, r2, r3, lsl #12
 8000a0e:	d0d3      	beq.n	80009b8 <__cmpdf2+0x1c>
 8000a10:	f85d 0b04 	ldr.w	r0, [sp], #4
 8000a14:	4770      	bx	lr
 8000a16:	bf00      	nop

08000a18 <__aeabi_cdrcmple>:
 8000a18:	4684      	mov	ip, r0
 8000a1a:	4610      	mov	r0, r2
 8000a1c:	4662      	mov	r2, ip
 8000a1e:	468c      	mov	ip, r1
 8000a20:	4619      	mov	r1, r3
 8000a22:	4663      	mov	r3, ip
 8000a24:	e000      	b.n	8000a28 <__aeabi_cdcmpeq>
 8000a26:	bf00      	nop

08000a28 <__aeabi_cdcmpeq>:
 8000a28:	b501      	push	{r0, lr}
 8000a2a:	f7ff ffb7 	bl	800099c <__cmpdf2>
 8000a2e:	2800      	cmp	r0, #0
 8000a30:	bf48      	it	mi
 8000a32:	f110 0f00 	cmnmi.w	r0, #0
 8000a36:	bd01      	pop	{r0, pc}

08000a38 <__aeabi_dcmpeq>:
 8000a38:	f84d ed08 	str.w	lr, [sp, #-8]!
 8000a3c:	f7ff fff4 	bl	8000a28 <__aeabi_cdcmpeq>
 8000a40:	bf0c      	ite	eq
 8000a42:	2001      	moveq	r0, #1
 8000a44:	2000      	movne	r0, #0
 8000a46:	f85d fb08 	ldr.w	pc, [sp], #8
 8000a4a:	bf00      	nop

08000a4c <__aeabi_dcmplt>:
 8000a4c:	f84d ed08 	str.w	lr, [sp, #-8]!
 8000a50:	f7ff ffea 	bl	8000a28 <__aeabi_cdcmpeq>
 8000a54:	bf34      	ite	cc
 8000a56:	2001      	movcc	r0, #1
 8000a58:	2000      	movcs	r0, #0
 8000a5a:	f85d fb08 	ldr.w	pc, [sp], #8
 8000a5e:	bf00      	nop

08000a60 <__aeabi_dcmple>:
 8000a60:	f84d ed08 	str.w	lr, [sp, #-8]!
 8000a64:	f7ff ffe0 	bl	8000a28 <__aeabi_cdcmpeq>
 8000a68:	bf94      	ite	ls
 8000a6a:	2001      	movls	r0, #1
 8000a6c:	2000      	movhi	r0, #0
 8000a6e:	f85d fb08 	ldr.w	pc, [sp], #8
 8000a72:	bf00      	nop

08000a74 <__aeabi_dcmpge>:
 8000a74:	f84d ed08 	str.w	lr, [sp, #-8]!
 8000a78:	f7ff ffce 	bl	8000a18 <__aeabi_cdrcmple>
 8000a7c:	bf94      	ite	ls
 8000a7e:	2001      	movls	r0, #1
 8000a80:	2000      	movhi	r0, #0
 8000a82:	f85d fb08 	ldr.w	pc, [sp], #8
 8000a86:	bf00      	nop

08000a88 <__aeabi_dcmpgt>:
 8000a88:	f84d ed08 	str.w	lr, [sp, #-8]!
 8000a8c:	f7ff ffc4 	bl	8000a18 <__aeabi_cdrcmple>
 8000a90:	bf34      	ite	cc
 8000a92:	2001      	movcc	r0, #1
 8000a94:	2000      	movcs	r0, #0
 8000a96:	f85d fb08 	ldr.w	pc, [sp], #8
 8000a9a:	bf00      	nop

08000a9c <__aeabi_dcmpun>:
 8000a9c:	ea4f 0c41 	mov.w	ip, r1, lsl #1
 8000aa0:	ea7f 5c6c 	mvns.w	ip, ip, asr #21
 8000aa4:	d102      	bne.n	8000aac <__aeabi_dcmpun+0x10>
 8000aa6:	ea50 3c01 	orrs.w	ip, r0, r1, lsl #12
 8000aaa:	d10a      	bne.n	8000ac2 <__aeabi_dcmpun+0x26>
 8000aac:	ea4f 0c43 	mov.w	ip, r3, lsl #1
 8000ab0:	ea7f 5c6c 	mvns.w	ip, ip, asr #21
 8000ab4:	d102      	bne.n	8000abc <__aeabi_dcmpun+0x20>
 8000ab6:	ea52 3c03 	orrs.w	ip, r2, r3, lsl #12
 8000aba:	d102      	bne.n	8000ac2 <__aeabi_dcmpun+0x26>
 8000abc:	f04f 0000 	mov.w	r0, #0
 8000ac0:	4770      	bx	lr
 8000ac2:	f04f 0001 	mov.w	r0, #1
 8000ac6:	4770      	bx	lr

08000ac8 <__aeabi_d2iz>:
 8000ac8:	ea4f 0241 	mov.w	r2, r1, lsl #1
 8000acc:	f512 1200 	adds.w	r2, r2, #2097152	; 0x200000
 8000ad0:	d215      	bcs.n	8000afe <__aeabi_d2iz+0x36>
 8000ad2:	d511      	bpl.n	8000af8 <__aeabi_d2iz+0x30>
 8000ad4:	f46f 7378 	mvn.w	r3, #992	; 0x3e0
 8000ad8:	ebb3 5262 	subs.w	r2, r3, r2, asr #21
 8000adc:	d912      	bls.n	8000b04 <__aeabi_d2iz+0x3c>
 8000ade:	ea4f 23c1 	mov.w	r3, r1, lsl #11
 8000ae2:	f043 4300 	orr.w	r3, r3, #2147483648	; 0x80000000
 8000ae6:	ea43 5350 	orr.w	r3, r3, r0, lsr #21
 8000aea:	f011 4f00 	tst.w	r1, #2147483648	; 0x80000000
 8000aee:	fa23 f002 	lsr.w	r0, r3, r2
 8000af2:	bf18      	it	ne
 8000af4:	4240      	negne	r0, r0
 8000af6:	4770      	bx	lr
 8000af8:	f04f 0000 	mov.w	r0, #0
 8000afc:	4770      	bx	lr
 8000afe:	ea50 3001 	orrs.w	r0, r0, r1, lsl #12
 8000b02:	d105      	bne.n	8000b10 <__aeabi_d2iz+0x48>
 8000b04:	f011 4000 	ands.w	r0, r1, #2147483648	; 0x80000000
 8000b08:	bf08      	it	eq
 8000b0a:	f06f 4000 	mvneq.w	r0, #2147483648	; 0x80000000
 8000b0e:	4770      	bx	lr
 8000b10:	f04f 0000 	mov.w	r0, #0
 8000b14:	4770      	bx	lr
 8000b16:	bf00      	nop

08000b18 <__aeabi_d2uiz>:
 8000b18:	004a      	lsls	r2, r1, #1
 8000b1a:	d211      	bcs.n	8000b40 <__aeabi_d2uiz+0x28>
 8000b1c:	f512 1200 	adds.w	r2, r2, #2097152	; 0x200000
 8000b20:	d211      	bcs.n	8000b46 <__aeabi_d2uiz+0x2e>
 8000b22:	d50d      	bpl.n	8000b40 <__aeabi_d2uiz+0x28>
 8000b24:	f46f 7378 	mvn.w	r3, #992	; 0x3e0
 8000b28:	ebb3 5262 	subs.w	r2, r3, r2, asr #21
 8000b2c:	d40e      	bmi.n	8000b4c <__aeabi_d2uiz+0x34>
 8000b2e:	ea4f 23c1 	mov.w	r3, r1, lsl #11
 8000b32:	f043 4300 	orr.w	r3, r3, #2147483648	; 0x80000000
 8000b36:	ea43 5350 	orr.w	r3, r3, r0, lsr #21
 8000b3a:	fa23 f002 	lsr.w	r0, r3, r2
 8000b3e:	4770      	bx	lr
 8000b40:	f04f 0000 	mov.w	r0, #0
 8000b44:	4770      	bx	lr
 8000b46:	ea50 3001 	orrs.w	r0, r0, r1, lsl #12
 8000b4a:	d102      	bne.n	8000b52 <__aeabi_d2uiz+0x3a>
 8000b4c:	f04f 30ff 	mov.w	r0, #4294967295
 8000b50:	4770      	bx	lr
 8000b52:	f04f 0000 	mov.w	r0, #0
 8000b56:	4770      	bx	lr

08000b58 <__aeabi_d2f>:
 8000b58:	ea4f 0241 	mov.w	r2, r1, lsl #1
 8000b5c:	f1b2 43e0 	subs.w	r3, r2, #1879048192	; 0x70000000
 8000b60:	bf24      	itt	cs
 8000b62:	f5b3 1c00 	subscs.w	ip, r3, #2097152	; 0x200000
 8000b66:	f1dc 5cfe 	rsbscs	ip, ip, #532676608	; 0x1fc00000
 8000b6a:	d90d      	bls.n	8000b88 <__aeabi_d2f+0x30>
 8000b6c:	f001 4c00 	and.w	ip, r1, #2147483648	; 0x80000000
 8000b70:	ea4f 02c0 	mov.w	r2, r0, lsl #3
 8000b74:	ea4c 7050 	orr.w	r0, ip, r0, lsr #29
 8000b78:	f1b2 4f00 	cmp.w	r2, #2147483648	; 0x80000000
 8000b7c:	eb40 0083 	adc.w	r0, r0, r3, lsl #2
 8000b80:	bf08      	it	eq
 8000b82:	f020 0001 	biceq.w	r0, r0, #1
 8000b86:	4770      	bx	lr
 8000b88:	f011 4f80 	tst.w	r1, #1073741824	; 0x40000000
 8000b8c:	d121      	bne.n	8000bd2 <__aeabi_d2f+0x7a>
 8000b8e:	f113 7238 	adds.w	r2, r3, #48234496	; 0x2e00000
 8000b92:	bfbc      	itt	lt
 8000b94:	f001 4000 	andlt.w	r0, r1, #2147483648	; 0x80000000
 8000b98:	4770      	bxlt	lr
 8000b9a:	f441 1180 	orr.w	r1, r1, #1048576	; 0x100000
 8000b9e:	ea4f 5252 	mov.w	r2, r2, lsr #21
 8000ba2:	f1c2 0218 	rsb	r2, r2, #24
 8000ba6:	f1c2 0c20 	rsb	ip, r2, #32
 8000baa:	fa10 f30c 	lsls.w	r3, r0, ip
 8000bae:	fa20 f002 	lsr.w	r0, r0, r2
 8000bb2:	bf18      	it	ne
 8000bb4:	f040 0001 	orrne.w	r0, r0, #1
 8000bb8:	ea4f 23c1 	mov.w	r3, r1, lsl #11
 8000bbc:	ea4f 23d3 	mov.w	r3, r3, lsr #11
 8000bc0:	fa03 fc0c 	lsl.w	ip, r3, ip
 8000bc4:	ea40 000c 	orr.w	r0, r0, ip
 8000bc8:	fa23 f302 	lsr.w	r3, r3, r2
 8000bcc:	ea4f 0343 	mov.w	r3, r3, lsl #1
 8000bd0:	e7cc      	b.n	8000b6c <__aeabi_d2f+0x14>
 8000bd2:	ea7f 5362 	mvns.w	r3, r2, asr #21
 8000bd6:	d107      	bne.n	8000be8 <__aeabi_d2f+0x90>
 8000bd8:	ea50 3301 	orrs.w	r3, r0, r1, lsl #12
 8000bdc:	bf1e      	ittt	ne
 8000bde:	f04f 40fe 	movne.w	r0, #2130706432	; 0x7f000000
 8000be2:	f440 0040 	orrne.w	r0, r0, #12582912	; 0xc00000
 8000be6:	4770      	bxne	lr
 8000be8:	f001 4000 	and.w	r0, r1, #2147483648	; 0x80000000
 8000bec:	f040 40fe 	orr.w	r0, r0, #2130706432	; 0x7f000000
 8000bf0:	f440 0000 	orr.w	r0, r0, #8388608	; 0x800000
 8000bf4:	4770      	bx	lr
 8000bf6:	bf00      	nop

08000bf8 <__aeabi_uldivmod>:
 8000bf8:	b953      	cbnz	r3, 8000c10 <__aeabi_uldivmod+0x18>
 8000bfa:	b94a      	cbnz	r2, 8000c10 <__aeabi_uldivmod+0x18>
 8000bfc:	2900      	cmp	r1, #0
 8000bfe:	bf08      	it	eq
 8000c00:	2800      	cmpeq	r0, #0
 8000c02:	bf1c      	itt	ne
 8000c04:	f04f 31ff 	movne.w	r1, #4294967295
 8000c08:	f04f 30ff 	movne.w	r0, #4294967295
 8000c0c:	f000 b972 	b.w	8000ef4 <__aeabi_idiv0>
 8000c10:	f1ad 0c08 	sub.w	ip, sp, #8
 8000c14:	e96d ce04 	strd	ip, lr, [sp, #-16]!
 8000c18:	f000 f806 	bl	8000c28 <__udivmoddi4>
 8000c1c:	f8dd e004 	ldr.w	lr, [sp, #4]
 8000c20:	e9dd 2302 	ldrd	r2, r3, [sp, #8]
 8000c24:	b004      	add	sp, #16
 8000c26:	4770      	bx	lr

08000c28 <__udivmoddi4>:
 8000c28:	e92d 47f0 	stmdb	sp!, {r4, r5, r6, r7, r8, r9, sl, lr}
 8000c2c:	9e08      	ldr	r6, [sp, #32]
 8000c2e:	4604      	mov	r4, r0
 8000c30:	4688      	mov	r8, r1
 8000c32:	2b00      	cmp	r3, #0
 8000c34:	d14b      	bne.n	8000cce <__udivmoddi4+0xa6>
 8000c36:	428a      	cmp	r2, r1
 8000c38:	4615      	mov	r5, r2
 8000c3a:	d967      	bls.n	8000d0c <__udivmoddi4+0xe4>
 8000c3c:	fab2 f282 	clz	r2, r2
 8000c40:	b14a      	cbz	r2, 8000c56 <__udivmoddi4+0x2e>
 8000c42:	f1c2 0720 	rsb	r7, r2, #32
 8000c46:	fa01 f302 	lsl.w	r3, r1, r2
 8000c4a:	fa20 f707 	lsr.w	r7, r0, r7
 8000c4e:	4095      	lsls	r5, r2
 8000c50:	ea47 0803 	orr.w	r8, r7, r3
 8000c54:	4094      	lsls	r4, r2
 8000c56:	ea4f 4e15 	mov.w	lr, r5, lsr #16
 8000c5a:	0c23      	lsrs	r3, r4, #16
 8000c5c:	fbb8 f7fe 	udiv	r7, r8, lr
 8000c60:	fa1f fc85 	uxth.w	ip, r5
 8000c64:	fb0e 8817 	mls	r8, lr, r7, r8
 8000c68:	ea43 4308 	orr.w	r3, r3, r8, lsl #16
 8000c6c:	fb07 f10c 	mul.w	r1, r7, ip
 8000c70:	4299      	cmp	r1, r3
 8000c72:	d909      	bls.n	8000c88 <__udivmoddi4+0x60>
 8000c74:	18eb      	adds	r3, r5, r3
 8000c76:	f107 30ff 	add.w	r0, r7, #4294967295
 8000c7a:	f080 811b 	bcs.w	8000eb4 <__udivmoddi4+0x28c>
 8000c7e:	4299      	cmp	r1, r3
 8000c80:	f240 8118 	bls.w	8000eb4 <__udivmoddi4+0x28c>
 8000c84:	3f02      	subs	r7, #2
 8000c86:	442b      	add	r3, r5
 8000c88:	1a5b      	subs	r3, r3, r1
 8000c8a:	b2a4      	uxth	r4, r4
 8000c8c:	fbb3 f0fe 	udiv	r0, r3, lr
 8000c90:	fb0e 3310 	mls	r3, lr, r0, r3
 8000c94:	ea44 4403 	orr.w	r4, r4, r3, lsl #16
 8000c98:	fb00 fc0c 	mul.w	ip, r0, ip
 8000c9c:	45a4      	cmp	ip, r4
 8000c9e:	d909      	bls.n	8000cb4 <__udivmoddi4+0x8c>
 8000ca0:	192c      	adds	r4, r5, r4
 8000ca2:	f100 33ff 	add.w	r3, r0, #4294967295
 8000ca6:	f080 8107 	bcs.w	8000eb8 <__udivmoddi4+0x290>
 8000caa:	45a4      	cmp	ip, r4
 8000cac:	f240 8104 	bls.w	8000eb8 <__udivmoddi4+0x290>
 8000cb0:	3802      	subs	r0, #2
 8000cb2:	442c      	add	r4, r5
 8000cb4:	ea40 4007 	orr.w	r0, r0, r7, lsl #16
 8000cb8:	eba4 040c 	sub.w	r4, r4, ip
 8000cbc:	2700      	movs	r7, #0
 8000cbe:	b11e      	cbz	r6, 8000cc8 <__udivmoddi4+0xa0>
 8000cc0:	40d4      	lsrs	r4, r2
 8000cc2:	2300      	movs	r3, #0
 8000cc4:	e9c6 4300 	strd	r4, r3, [r6]
 8000cc8:	4639      	mov	r1, r7
 8000cca:	e8bd 87f0 	ldmia.w	sp!, {r4, r5, r6, r7, r8, r9, sl, pc}
 8000cce:	428b      	cmp	r3, r1
 8000cd0:	d909      	bls.n	8000ce6 <__udivmoddi4+0xbe>
 8000cd2:	2e00      	cmp	r6, #0
 8000cd4:	f000 80eb 	beq.w	8000eae <__udivmoddi4+0x286>
 8000cd8:	2700      	movs	r7, #0
 8000cda:	e9c6 0100 	strd	r0, r1, [r6]
 8000cde:	4638      	mov	r0, r7
 8000ce0:	4639      	mov	r1, r7
 8000ce2:	e8bd 87f0 	ldmia.w	sp!, {r4, r5, r6, r7, r8, r9, sl, pc}
 8000ce6:	fab3 f783 	clz	r7, r3
 8000cea:	2f00      	cmp	r7, #0
 8000cec:	d147      	bne.n	8000d7e <__udivmoddi4+0x156>
 8000cee:	428b      	cmp	r3, r1
 8000cf0:	d302      	bcc.n	8000cf8 <__udivmoddi4+0xd0>
 8000cf2:	4282      	cmp	r2, r0
 8000cf4:	f200 80fa 	bhi.w	8000eec <__udivmoddi4+0x2c4>
 8000cf8:	1a84      	subs	r4, r0, r2
 8000cfa:	eb61 0303 	sbc.w	r3, r1, r3
 8000cfe:	2001      	movs	r0, #1
 8000d00:	4698      	mov	r8, r3
 8000d02:	2e00      	cmp	r6, #0
 8000d04:	d0e0      	beq.n	8000cc8 <__udivmoddi4+0xa0>
 8000d06:	e9c6 4800 	strd	r4, r8, [r6]
 8000d0a:	e7dd      	b.n	8000cc8 <__udivmoddi4+0xa0>
 8000d0c:	b902      	cbnz	r2, 8000d10 <__udivmoddi4+0xe8>
 8000d0e:	deff      	udf	#255	; 0xff
 8000d10:	fab2 f282 	clz	r2, r2
 8000d14:	2a00      	cmp	r2, #0
 8000d16:	f040 808f 	bne.w	8000e38 <__udivmoddi4+0x210>
 8000d1a:	1b49      	subs	r1, r1, r5
 8000d1c:	ea4f 4e15 	mov.w	lr, r5, lsr #16
 8000d20:	fa1f f885 	uxth.w	r8, r5
 8000d24:	2701      	movs	r7, #1
 8000d26:	fbb1 fcfe 	udiv	ip, r1, lr
 8000d2a:	0c23      	lsrs	r3, r4, #16
 8000d2c:	fb0e 111c 	mls	r1, lr, ip, r1
 8000d30:	ea43 4301 	orr.w	r3, r3, r1, lsl #16
 8000d34:	fb08 f10c 	mul.w	r1, r8, ip
 8000d38:	4299      	cmp	r1, r3
 8000d3a:	d907      	bls.n	8000d4c <__udivmoddi4+0x124>
 8000d3c:	18eb      	adds	r3, r5, r3
 8000d3e:	f10c 30ff 	add.w	r0, ip, #4294967295
 8000d42:	d202      	bcs.n	8000d4a <__udivmoddi4+0x122>
 8000d44:	4299      	cmp	r1, r3
 8000d46:	f200 80cd 	bhi.w	8000ee4 <__udivmoddi4+0x2bc>
 8000d4a:	4684      	mov	ip, r0
 8000d4c:	1a59      	subs	r1, r3, r1
 8000d4e:	b2a3      	uxth	r3, r4
 8000d50:	fbb1 f0fe 	udiv	r0, r1, lr
 8000d54:	fb0e 1410 	mls	r4, lr, r0, r1
 8000d58:	ea43 4404 	orr.w	r4, r3, r4, lsl #16
 8000d5c:	fb08 f800 	mul.w	r8, r8, r0
 8000d60:	45a0      	cmp	r8, r4
 8000d62:	d907      	bls.n	8000d74 <__udivmoddi4+0x14c>
 8000d64:	192c      	adds	r4, r5, r4
 8000d66:	f100 33ff 	add.w	r3, r0, #4294967295
 8000d6a:	d202      	bcs.n	8000d72 <__udivmoddi4+0x14a>
 8000d6c:	45a0      	cmp	r8, r4
 8000d6e:	f200 80b6 	bhi.w	8000ede <__udivmoddi4+0x2b6>
 8000d72:	4618      	mov	r0, r3
 8000d74:	eba4 0408 	sub.w	r4, r4, r8
 8000d78:	ea40 400c 	orr.w	r0, r0, ip, lsl #16
 8000d7c:	e79f      	b.n	8000cbe <__udivmoddi4+0x96>
 8000d7e:	f1c7 0c20 	rsb	ip, r7, #32
 8000d82:	40bb      	lsls	r3, r7
 8000d84:	fa22 fe0c 	lsr.w	lr, r2, ip
 8000d88:	ea4e 0e03 	orr.w	lr, lr, r3
 8000d8c:	fa01 f407 	lsl.w	r4, r1, r7
 8000d90:	fa20 f50c 	lsr.w	r5, r0, ip
 8000d94:	fa21 f30c 	lsr.w	r3, r1, ip
 8000d98:	ea4f 481e 	mov.w	r8, lr, lsr #16
 8000d9c:	4325      	orrs	r5, r4
 8000d9e:	fbb3 f9f8 	udiv	r9, r3, r8
 8000da2:	0c2c      	lsrs	r4, r5, #16
 8000da4:	fb08 3319 	mls	r3, r8, r9, r3
 8000da8:	fa1f fa8e 	uxth.w	sl, lr
 8000dac:	ea44 4303 	orr.w	r3, r4, r3, lsl #16
 8000db0:	fb09 f40a 	mul.w	r4, r9, sl
 8000db4:	429c      	cmp	r4, r3
 8000db6:	fa02 f207 	lsl.w	r2, r2, r7
 8000dba:	fa00 f107 	lsl.w	r1, r0, r7
 8000dbe:	d90b      	bls.n	8000dd8 <__udivmoddi4+0x1b0>
 8000dc0:	eb1e 0303 	adds.w	r3, lr, r3
 8000dc4:	f109 30ff 	add.w	r0, r9, #4294967295
 8000dc8:	f080 8087 	bcs.w	8000eda <__udivmoddi4+0x2b2>
 8000dcc:	429c      	cmp	r4, r3
 8000dce:	f240 8084 	bls.w	8000eda <__udivmoddi4+0x2b2>
 8000dd2:	f1a9 0902 	sub.w	r9, r9, #2
 8000dd6:	4473      	add	r3, lr
 8000dd8:	1b1b      	subs	r3, r3, r4
 8000dda:	b2ad      	uxth	r5, r5
 8000ddc:	fbb3 f0f8 	udiv	r0, r3, r8
 8000de0:	fb08 3310 	mls	r3, r8, r0, r3
 8000de4:	ea45 4403 	orr.w	r4, r5, r3, lsl #16
 8000de8:	fb00 fa0a 	mul.w	sl, r0, sl
 8000dec:	45a2      	cmp	sl, r4
 8000dee:	d908      	bls.n	8000e02 <__udivmoddi4+0x1da>
 8000df0:	eb1e 0404 	adds.w	r4, lr, r4
 8000df4:	f100 33ff 	add.w	r3, r0, #4294967295
 8000df8:	d26b      	bcs.n	8000ed2 <__udivmoddi4+0x2aa>
 8000dfa:	45a2      	cmp	sl, r4
 8000dfc:	d969      	bls.n	8000ed2 <__udivmoddi4+0x2aa>
 8000dfe:	3802      	subs	r0, #2
 8000e00:	4474      	add	r4, lr
 8000e02:	ea40 4009 	orr.w	r0, r0, r9, lsl #16
 8000e06:	fba0 8902 	umull	r8, r9, r0, r2
 8000e0a:	eba4 040a 	sub.w	r4, r4, sl
 8000e0e:	454c      	cmp	r4, r9
 8000e10:	46c2      	mov	sl, r8
 8000e12:	464b      	mov	r3, r9
 8000e14:	d354      	bcc.n	8000ec0 <__udivmoddi4+0x298>
 8000e16:	d051      	beq.n	8000ebc <__udivmoddi4+0x294>
 8000e18:	2e00      	cmp	r6, #0
 8000e1a:	d069      	beq.n	8000ef0 <__udivmoddi4+0x2c8>
 8000e1c:	ebb1 050a 	subs.w	r5, r1, sl
 8000e20:	eb64 0403 	sbc.w	r4, r4, r3
 8000e24:	fa04 fc0c 	lsl.w	ip, r4, ip
 8000e28:	40fd      	lsrs	r5, r7
 8000e2a:	40fc      	lsrs	r4, r7
 8000e2c:	ea4c 0505 	orr.w	r5, ip, r5
 8000e30:	e9c6 5400 	strd	r5, r4, [r6]
 8000e34:	2700      	movs	r7, #0
 8000e36:	e747      	b.n	8000cc8 <__udivmoddi4+0xa0>
 8000e38:	f1c2 0320 	rsb	r3, r2, #32
 8000e3c:	fa20 f703 	lsr.w	r7, r0, r3
 8000e40:	4095      	lsls	r5, r2
 8000e42:	fa01 f002 	lsl.w	r0, r1, r2
 8000e46:	fa21 f303 	lsr.w	r3, r1, r3
 8000e4a:	ea4f 4e15 	mov.w	lr, r5, lsr #16
 8000e4e:	4338      	orrs	r0, r7
 8000e50:	0c01      	lsrs	r1, r0, #16
 8000e52:	fbb3 f7fe 	udiv	r7, r3, lr
 8000e56:	fa1f f885 	uxth.w	r8, r5
 8000e5a:	fb0e 3317 	mls	r3, lr, r7, r3
 8000e5e:	ea41 4103 	orr.w	r1, r1, r3, lsl #16
 8000e62:	fb07 f308 	mul.w	r3, r7, r8
 8000e66:	428b      	cmp	r3, r1
 8000e68:	fa04 f402 	lsl.w	r4, r4, r2
 8000e6c:	d907      	bls.n	8000e7e <__udivmoddi4+0x256>
 8000e6e:	1869      	adds	r1, r5, r1
 8000e70:	f107 3cff 	add.w	ip, r7, #4294967295
 8000e74:	d22f      	bcs.n	8000ed6 <__udivmoddi4+0x2ae>
 8000e76:	428b      	cmp	r3, r1
 8000e78:	d92d      	bls.n	8000ed6 <__udivmoddi4+0x2ae>
 8000e7a:	3f02      	subs	r7, #2
 8000e7c:	4429      	add	r1, r5
 8000e7e:	1acb      	subs	r3, r1, r3
 8000e80:	b281      	uxth	r1, r0
 8000e82:	fbb3 f0fe 	udiv	r0, r3, lr
 8000e86:	fb0e 3310 	mls	r3, lr, r0, r3
 8000e8a:	ea41 4103 	orr.w	r1, r1, r3, lsl #16
 8000e8e:	fb00 f308 	mul.w	r3, r0, r8
 8000e92:	428b      	cmp	r3, r1
 8000e94:	d907      	bls.n	8000ea6 <__udivmoddi4+0x27e>
 8000e96:	1869      	adds	r1, r5, r1
 8000e98:	f100 3cff 	add.w	ip, r0, #4294967295
 8000e9c:	d217      	bcs.n	8000ece <__udivmoddi4+0x2a6>
 8000e9e:	428b      	cmp	r3, r1
 8000ea0:	d915      	bls.n	8000ece <__udivmoddi4+0x2a6>
 8000ea2:	3802      	subs	r0, #2
 8000ea4:	4429      	add	r1, r5
 8000ea6:	1ac9      	subs	r1, r1, r3
 8000ea8:	ea40 4707 	orr.w	r7, r0, r7, lsl #16
 8000eac:	e73b      	b.n	8000d26 <__udivmoddi4+0xfe>
 8000eae:	4637      	mov	r7, r6
 8000eb0:	4630      	mov	r0, r6
 8000eb2:	e709      	b.n	8000cc8 <__udivmoddi4+0xa0>
 8000eb4:	4607      	mov	r7, r0
 8000eb6:	e6e7      	b.n	8000c88 <__udivmoddi4+0x60>
 8000eb8:	4618      	mov	r0, r3
 8000eba:	e6fb      	b.n	8000cb4 <__udivmoddi4+0x8c>
 8000ebc:	4541      	cmp	r1, r8
 8000ebe:	d2ab      	bcs.n	8000e18 <__udivmoddi4+0x1f0>
 8000ec0:	ebb8 0a02 	subs.w	sl, r8, r2
 8000ec4:	eb69 020e 	sbc.w	r2, r9, lr
 8000ec8:	3801      	subs	r0, #1
 8000eca:	4613      	mov	r3, r2
 8000ecc:	e7a4      	b.n	8000e18 <__udivmoddi4+0x1f0>
 8000ece:	4660      	mov	r0, ip
 8000ed0:	e7e9      	b.n	8000ea6 <__udivmoddi4+0x27e>
 8000ed2:	4618      	mov	r0, r3
 8000ed4:	e795      	b.n	8000e02 <__udivmoddi4+0x1da>
 8000ed6:	4667      	mov	r7, ip
 8000ed8:	e7d1      	b.n	8000e7e <__udivmoddi4+0x256>
 8000eda:	4681      	mov	r9, r0
 8000edc:	e77c      	b.n	8000dd8 <__udivmoddi4+0x1b0>
 8000ede:	3802      	subs	r0, #2
 8000ee0:	442c      	add	r4, r5
 8000ee2:	e747      	b.n	8000d74 <__udivmoddi4+0x14c>
 8000ee4:	f1ac 0c02 	sub.w	ip, ip, #2
 8000ee8:	442b      	add	r3, r5
 8000eea:	e72f      	b.n	8000d4c <__udivmoddi4+0x124>
 8000eec:	4638      	mov	r0, r7
 8000eee:	e708      	b.n	8000d02 <__udivmoddi4+0xda>
 8000ef0:	4637      	mov	r7, r6
 8000ef2:	e6e9      	b.n	8000cc8 <__udivmoddi4+0xa0>

08000ef4 <__aeabi_idiv0>:
 8000ef4:	4770      	bx	lr
 8000ef6:	bf00      	nop

08000ef8 <GFX_SetFont>:
#if  USING_STRINGS == 1
const uint8_t* font;
uint8_t size = 1;

void GFX_SetFont(const uint8_t* font_t)
{
 8000ef8:	b480      	push	{r7}
 8000efa:	b083      	sub	sp, #12
 8000efc:	af00      	add	r7, sp, #0
 8000efe:	6078      	str	r0, [r7, #4]
	font = font_t;
 8000f00:	4a04      	ldr	r2, [pc, #16]	; (8000f14 <GFX_SetFont+0x1c>)
 8000f02:	687b      	ldr	r3, [r7, #4]
 8000f04:	6013      	str	r3, [r2, #0]
}
 8000f06:	bf00      	nop
 8000f08:	370c      	adds	r7, #12
 8000f0a:	46bd      	mov	sp, r7
 8000f0c:	f85d 7b04 	ldr.w	r7, [sp], #4
 8000f10:	4770      	bx	lr
 8000f12:	bf00      	nop
 8000f14:	20004f14 	.word	0x20004f14

08000f18 <GFX_DrawChar>:
{
	return size;
}

void GFX_DrawChar(int x, int y, char chr, uint8_t color, uint8_t background)
{
 8000f18:	b590      	push	{r4, r7, lr}
 8000f1a:	b089      	sub	sp, #36	; 0x24
 8000f1c:	af02      	add	r7, sp, #8
 8000f1e:	60f8      	str	r0, [r7, #12]
 8000f20:	60b9      	str	r1, [r7, #8]
 8000f22:	4611      	mov	r1, r2
 8000f24:	461a      	mov	r2, r3
 8000f26:	460b      	mov	r3, r1
 8000f28:	71fb      	strb	r3, [r7, #7]
 8000f2a:	4613      	mov	r3, r2
 8000f2c:	71bb      	strb	r3, [r7, #6]
	if(chr > 0x7E) return; // chr > '~'
 8000f2e:	79fb      	ldrb	r3, [r7, #7]
 8000f30:	2b7e      	cmp	r3, #126	; 0x7e
 8000f32:	f200 80a3 	bhi.w	800107c <GFX_DrawChar+0x164>

	for(uint8_t i=0; i<font[1]; i++ ) // Each column (Width)
 8000f36:	2300      	movs	r3, #0
 8000f38:	75fb      	strb	r3, [r7, #23]
 8000f3a:	e096      	b.n	800106a <GFX_DrawChar+0x152>
	{
        uint8_t line = (uint8_t)font[(chr-0x20) * font[1] + i + 2]; // Takie this line, (chr-0x20) = move 20 chars back,
 8000f3c:	4b51      	ldr	r3, [pc, #324]	; (8001084 <GFX_DrawChar+0x16c>)
 8000f3e:	681a      	ldr	r2, [r3, #0]
 8000f40:	79fb      	ldrb	r3, [r7, #7]
 8000f42:	3b20      	subs	r3, #32
 8000f44:	494f      	ldr	r1, [pc, #316]	; (8001084 <GFX_DrawChar+0x16c>)
 8000f46:	6809      	ldr	r1, [r1, #0]
 8000f48:	3101      	adds	r1, #1
 8000f4a:	7809      	ldrb	r1, [r1, #0]
 8000f4c:	fb01 f103 	mul.w	r1, r1, r3
 8000f50:	7dfb      	ldrb	r3, [r7, #23]
 8000f52:	440b      	add	r3, r1
 8000f54:	3302      	adds	r3, #2
 8000f56:	4413      	add	r3, r2
 8000f58:	781b      	ldrb	r3, [r3, #0]
 8000f5a:	75bb      	strb	r3, [r7, #22]

        for(int8_t j=0; j<font[0]; j++, line >>= 1) // For each pixel in column
 8000f5c:	2300      	movs	r3, #0
 8000f5e:	757b      	strb	r3, [r7, #21]
 8000f60:	e078      	b.n	8001054 <GFX_DrawChar+0x13c>
        {
            if(line & 1) // Check last pixel in line
 8000f62:	7dbb      	ldrb	r3, [r7, #22]
 8000f64:	f003 0301 	and.w	r3, r3, #1
 8000f68:	2b00      	cmp	r3, #0
 8000f6a:	d032      	beq.n	8000fd2 <GFX_DrawChar+0xba>
            {
            	if(size == 1)
 8000f6c:	4b46      	ldr	r3, [pc, #280]	; (8001088 <GFX_DrawChar+0x170>)
 8000f6e:	781b      	ldrb	r3, [r3, #0]
 8000f70:	2b01      	cmp	r3, #1
 8000f72:	d113      	bne.n	8000f9c <GFX_DrawChar+0x84>
            		GFX_DrawPixel(x+i, y+j, color); // Draw this pixel
 8000f74:	7dfb      	ldrb	r3, [r7, #23]
 8000f76:	b29a      	uxth	r2, r3
 8000f78:	68fb      	ldr	r3, [r7, #12]
 8000f7a:	b29b      	uxth	r3, r3
 8000f7c:	4413      	add	r3, r2
 8000f7e:	b29b      	uxth	r3, r3
 8000f80:	b218      	sxth	r0, r3
 8000f82:	f997 3015 	ldrsb.w	r3, [r7, #21]
 8000f86:	b29a      	uxth	r2, r3
 8000f88:	68bb      	ldr	r3, [r7, #8]
 8000f8a:	b29b      	uxth	r3, r3
 8000f8c:	4413      	add	r3, r2
 8000f8e:	b29b      	uxth	r3, r3
 8000f90:	b21b      	sxth	r3, r3
 8000f92:	79ba      	ldrb	r2, [r7, #6]
 8000f94:	4619      	mov	r1, r3
 8000f96:	f000 f9d5 	bl	8001344 <SSD1306_DrawPixel>
 8000f9a:	e052      	b.n	8001042 <GFX_DrawChar+0x12a>
            	else
            		GFX_DrawFillRectangle(x+i*size, y+j*size, size, size, color); // Or bigger pixel
 8000f9c:	7dfb      	ldrb	r3, [r7, #23]
 8000f9e:	4a3a      	ldr	r2, [pc, #232]	; (8001088 <GFX_DrawChar+0x170>)
 8000fa0:	7812      	ldrb	r2, [r2, #0]
 8000fa2:	fb02 f203 	mul.w	r2, r2, r3
 8000fa6:	68fb      	ldr	r3, [r7, #12]
 8000fa8:	18d0      	adds	r0, r2, r3
 8000faa:	f997 3015 	ldrsb.w	r3, [r7, #21]
 8000fae:	4a36      	ldr	r2, [pc, #216]	; (8001088 <GFX_DrawChar+0x170>)
 8000fb0:	7812      	ldrb	r2, [r2, #0]
 8000fb2:	fb02 f203 	mul.w	r2, r2, r3
 8000fb6:	68bb      	ldr	r3, [r7, #8]
 8000fb8:	18d1      	adds	r1, r2, r3
 8000fba:	4b33      	ldr	r3, [pc, #204]	; (8001088 <GFX_DrawChar+0x170>)
 8000fbc:	781b      	ldrb	r3, [r3, #0]
 8000fbe:	b29a      	uxth	r2, r3
 8000fc0:	4b31      	ldr	r3, [pc, #196]	; (8001088 <GFX_DrawChar+0x170>)
 8000fc2:	781b      	ldrb	r3, [r3, #0]
 8000fc4:	b29c      	uxth	r4, r3
 8000fc6:	79bb      	ldrb	r3, [r7, #6]
 8000fc8:	9300      	str	r3, [sp, #0]
 8000fca:	4623      	mov	r3, r4
 8000fcc:	f000 f95d 	bl	800128a <GFX_DrawFillRectangle>
 8000fd0:	e037      	b.n	8001042 <GFX_DrawChar+0x12a>
            }
            else if(background == 0)
 8000fd2:	f897 3028 	ldrb.w	r3, [r7, #40]	; 0x28
 8000fd6:	2b00      	cmp	r3, #0
 8000fd8:	d133      	bne.n	8001042 <GFX_DrawChar+0x12a>
            {
            	if(size == 1)
 8000fda:	4b2b      	ldr	r3, [pc, #172]	; (8001088 <GFX_DrawChar+0x170>)
 8000fdc:	781b      	ldrb	r3, [r3, #0]
 8000fde:	2b01      	cmp	r3, #1
 8000fe0:	d114      	bne.n	800100c <GFX_DrawChar+0xf4>
					GFX_DrawPixel(x+i, y+j, background); // Draw black BG
 8000fe2:	7dfb      	ldrb	r3, [r7, #23]
 8000fe4:	b29a      	uxth	r2, r3
 8000fe6:	68fb      	ldr	r3, [r7, #12]
 8000fe8:	b29b      	uxth	r3, r3
 8000fea:	4413      	add	r3, r2
 8000fec:	b29b      	uxth	r3, r3
 8000fee:	b218      	sxth	r0, r3
 8000ff0:	f997 3015 	ldrsb.w	r3, [r7, #21]
 8000ff4:	b29a      	uxth	r2, r3
 8000ff6:	68bb      	ldr	r3, [r7, #8]
 8000ff8:	b29b      	uxth	r3, r3
 8000ffa:	4413      	add	r3, r2
 8000ffc:	b29b      	uxth	r3, r3
 8000ffe:	b21b      	sxth	r3, r3
 8001000:	f897 2028 	ldrb.w	r2, [r7, #40]	; 0x28
 8001004:	4619      	mov	r1, r3
 8001006:	f000 f99d 	bl	8001344 <SSD1306_DrawPixel>
 800100a:	e01a      	b.n	8001042 <GFX_DrawChar+0x12a>
				else
					GFX_DrawFillRectangle(x+i*size, y+j*size, size, size, background); // Or bigger
 800100c:	7dfb      	ldrb	r3, [r7, #23]
 800100e:	4a1e      	ldr	r2, [pc, #120]	; (8001088 <GFX_DrawChar+0x170>)
 8001010:	7812      	ldrb	r2, [r2, #0]
 8001012:	fb02 f203 	mul.w	r2, r2, r3
 8001016:	68fb      	ldr	r3, [r7, #12]
 8001018:	18d0      	adds	r0, r2, r3
 800101a:	f997 3015 	ldrsb.w	r3, [r7, #21]
 800101e:	4a1a      	ldr	r2, [pc, #104]	; (8001088 <GFX_DrawChar+0x170>)
 8001020:	7812      	ldrb	r2, [r2, #0]
 8001022:	fb02 f203 	mul.w	r2, r2, r3
 8001026:	68bb      	ldr	r3, [r7, #8]
 8001028:	18d1      	adds	r1, r2, r3
 800102a:	4b17      	ldr	r3, [pc, #92]	; (8001088 <GFX_DrawChar+0x170>)
 800102c:	781b      	ldrb	r3, [r3, #0]
 800102e:	b29a      	uxth	r2, r3
 8001030:	4b15      	ldr	r3, [pc, #84]	; (8001088 <GFX_DrawChar+0x170>)
 8001032:	781b      	ldrb	r3, [r3, #0]
 8001034:	b29c      	uxth	r4, r3
 8001036:	f897 3028 	ldrb.w	r3, [r7, #40]	; 0x28
 800103a:	9300      	str	r3, [sp, #0]
 800103c:	4623      	mov	r3, r4
 800103e:	f000 f924 	bl	800128a <GFX_DrawFillRectangle>
        for(int8_t j=0; j<font[0]; j++, line >>= 1) // For each pixel in column
 8001042:	f997 3015 	ldrsb.w	r3, [r7, #21]
 8001046:	b2db      	uxtb	r3, r3
 8001048:	3301      	adds	r3, #1
 800104a:	b2db      	uxtb	r3, r3
 800104c:	757b      	strb	r3, [r7, #21]
 800104e:	7dbb      	ldrb	r3, [r7, #22]
 8001050:	085b      	lsrs	r3, r3, #1
 8001052:	75bb      	strb	r3, [r7, #22]
 8001054:	f997 3015 	ldrsb.w	r3, [r7, #21]
 8001058:	4a0a      	ldr	r2, [pc, #40]	; (8001084 <GFX_DrawChar+0x16c>)
 800105a:	6812      	ldr	r2, [r2, #0]
 800105c:	7812      	ldrb	r2, [r2, #0]
 800105e:	4293      	cmp	r3, r2
 8001060:	f6ff af7f 	blt.w	8000f62 <GFX_DrawChar+0x4a>
	for(uint8_t i=0; i<font[1]; i++ ) // Each column (Width)
 8001064:	7dfb      	ldrb	r3, [r7, #23]
 8001066:	3301      	adds	r3, #1
 8001068:	75fb      	strb	r3, [r7, #23]
 800106a:	4b06      	ldr	r3, [pc, #24]	; (8001084 <GFX_DrawChar+0x16c>)
 800106c:	681b      	ldr	r3, [r3, #0]
 800106e:	3301      	adds	r3, #1
 8001070:	781b      	ldrb	r3, [r3, #0]
 8001072:	7dfa      	ldrb	r2, [r7, #23]
 8001074:	429a      	cmp	r2, r3
 8001076:	f4ff af61 	bcc.w	8000f3c <GFX_DrawChar+0x24>
 800107a:	e000      	b.n	800107e <GFX_DrawChar+0x166>
	if(chr > 0x7E) return; // chr > '~'
 800107c:	bf00      	nop
            }
        }
    }
}
 800107e:	371c      	adds	r7, #28
 8001080:	46bd      	mov	sp, r7
 8001082:	bd90      	pop	{r4, r7, pc}
 8001084:	20004f14 	.word	0x20004f14
 8001088:	20000000 	.word	0x20000000

0800108c <GFX_DrawString>:

void GFX_DrawString(int x, int y, char* str, uint8_t color, uint8_t background)
{
 800108c:	b580      	push	{r7, lr}
 800108e:	b088      	sub	sp, #32
 8001090:	af02      	add	r7, sp, #8
 8001092:	60f8      	str	r0, [r7, #12]
 8001094:	60b9      	str	r1, [r7, #8]
 8001096:	607a      	str	r2, [r7, #4]
 8001098:	70fb      	strb	r3, [r7, #3]
	int x_tmp = x;
 800109a:	68fb      	ldr	r3, [r7, #12]
 800109c:	617b      	str	r3, [r7, #20]

	char znak;
	znak = *str;
 800109e:	687b      	ldr	r3, [r7, #4]
 80010a0:	781b      	ldrb	r3, [r3, #0]
 80010a2:	74fb      	strb	r3, [r7, #19]

	while(*str++)
 80010a4:	e03e      	b.n	8001124 <GFX_DrawString+0x98>
	{
		GFX_DrawChar(x_tmp, y, znak, color, background); // Draw current char
 80010a6:	78f9      	ldrb	r1, [r7, #3]
 80010a8:	7cfa      	ldrb	r2, [r7, #19]
 80010aa:	f897 3020 	ldrb.w	r3, [r7, #32]
 80010ae:	9300      	str	r3, [sp, #0]
 80010b0:	460b      	mov	r3, r1
 80010b2:	68b9      	ldr	r1, [r7, #8]
 80010b4:	6978      	ldr	r0, [r7, #20]
 80010b6:	f7ff ff2f 	bl	8000f18 <GFX_DrawChar>

		x_tmp += ((uint8_t)font[1] * size) + 1; // Move X drawing pointer do char width + 1 (space)
 80010ba:	4b1f      	ldr	r3, [pc, #124]	; (8001138 <GFX_DrawString+0xac>)
 80010bc:	681b      	ldr	r3, [r3, #0]
 80010be:	3301      	adds	r3, #1
 80010c0:	781b      	ldrb	r3, [r3, #0]
 80010c2:	461a      	mov	r2, r3
 80010c4:	4b1d      	ldr	r3, [pc, #116]	; (800113c <GFX_DrawString+0xb0>)
 80010c6:	781b      	ldrb	r3, [r3, #0]
 80010c8:	fb03 f302 	mul.w	r3, r3, r2
 80010cc:	3301      	adds	r3, #1
 80010ce:	697a      	ldr	r2, [r7, #20]
 80010d0:	4413      	add	r3, r2
 80010d2:	617b      	str	r3, [r7, #20]

		if(background == 0) // Draw black space if needed
 80010d4:	f897 3020 	ldrb.w	r3, [r7, #32]
 80010d8:	2b00      	cmp	r3, #0
 80010da:	d120      	bne.n	800111e <GFX_DrawString+0x92>
		{
			for(uint8_t i=0; i<(font[0]*size); i++)
 80010dc:	2300      	movs	r3, #0
 80010de:	74bb      	strb	r3, [r7, #18]
 80010e0:	e012      	b.n	8001108 <GFX_DrawString+0x7c>
			{
				GFX_DrawPixel(x_tmp-1, y+i, PIXEL_BLACK);
 80010e2:	697b      	ldr	r3, [r7, #20]
 80010e4:	b29b      	uxth	r3, r3
 80010e6:	3b01      	subs	r3, #1
 80010e8:	b29b      	uxth	r3, r3
 80010ea:	b218      	sxth	r0, r3
 80010ec:	7cbb      	ldrb	r3, [r7, #18]
 80010ee:	b29a      	uxth	r2, r3
 80010f0:	68bb      	ldr	r3, [r7, #8]
 80010f2:	b29b      	uxth	r3, r3
 80010f4:	4413      	add	r3, r2
 80010f6:	b29b      	uxth	r3, r3
 80010f8:	b21b      	sxth	r3, r3
 80010fa:	2200      	movs	r2, #0
 80010fc:	4619      	mov	r1, r3
 80010fe:	f000 f921 	bl	8001344 <SSD1306_DrawPixel>
			for(uint8_t i=0; i<(font[0]*size); i++)
 8001102:	7cbb      	ldrb	r3, [r7, #18]
 8001104:	3301      	adds	r3, #1
 8001106:	74bb      	strb	r3, [r7, #18]
 8001108:	7cba      	ldrb	r2, [r7, #18]
 800110a:	4b0b      	ldr	r3, [pc, #44]	; (8001138 <GFX_DrawString+0xac>)
 800110c:	681b      	ldr	r3, [r3, #0]
 800110e:	781b      	ldrb	r3, [r3, #0]
 8001110:	4619      	mov	r1, r3
 8001112:	4b0a      	ldr	r3, [pc, #40]	; (800113c <GFX_DrawString+0xb0>)
 8001114:	781b      	ldrb	r3, [r3, #0]
 8001116:	fb03 f301 	mul.w	r3, r3, r1
 800111a:	429a      	cmp	r2, r3
 800111c:	dbe1      	blt.n	80010e2 <GFX_DrawString+0x56>
			}
		}

		znak = *str; // Next char
 800111e:	687b      	ldr	r3, [r7, #4]
 8001120:	781b      	ldrb	r3, [r3, #0]
 8001122:	74fb      	strb	r3, [r7, #19]
	while(*str++)
 8001124:	687b      	ldr	r3, [r7, #4]
 8001126:	1c5a      	adds	r2, r3, #1
 8001128:	607a      	str	r2, [r7, #4]
 800112a:	781b      	ldrb	r3, [r3, #0]
 800112c:	2b00      	cmp	r3, #0
 800112e:	d1ba      	bne.n	80010a6 <GFX_DrawString+0x1a>
	}
}
 8001130:	bf00      	nop
 8001132:	3718      	adds	r7, #24
 8001134:	46bd      	mov	sp, r7
 8001136:	bd80      	pop	{r7, pc}
 8001138:	20004f14 	.word	0x20004f14
 800113c:	20000000 	.word	0x20000000

08001140 <GFX_WriteLine>:
#endif
#if USING_LINES == 1
void GFX_WriteLine(int x_start, int y_start, int x_end, int y_end, uint8_t color)
{
 8001140:	b580      	push	{r7, lr}
 8001142:	b08c      	sub	sp, #48	; 0x30
 8001144:	af00      	add	r7, sp, #0
 8001146:	60f8      	str	r0, [r7, #12]
 8001148:	60b9      	str	r1, [r7, #8]
 800114a:	607a      	str	r2, [r7, #4]
 800114c:	603b      	str	r3, [r7, #0]
	int16_t steep = abs(y_end - y_start) > abs(x_end - x_start);
 800114e:	683a      	ldr	r2, [r7, #0]
 8001150:	68bb      	ldr	r3, [r7, #8]
 8001152:	1ad3      	subs	r3, r2, r3
 8001154:	ea83 72e3 	eor.w	r2, r3, r3, asr #31
 8001158:	eba2 72e3 	sub.w	r2, r2, r3, asr #31
 800115c:	6879      	ldr	r1, [r7, #4]
 800115e:	68fb      	ldr	r3, [r7, #12]
 8001160:	1acb      	subs	r3, r1, r3
 8001162:	2b00      	cmp	r3, #0
 8001164:	bfb8      	it	lt
 8001166:	425b      	neglt	r3, r3
 8001168:	429a      	cmp	r2, r3
 800116a:	bfcc      	ite	gt
 800116c:	2301      	movgt	r3, #1
 800116e:	2300      	movle	r3, #0
 8001170:	b2db      	uxtb	r3, r3
 8001172:	857b      	strh	r3, [r7, #42]	; 0x2a

	    if (steep) {
 8001174:	f9b7 302a 	ldrsh.w	r3, [r7, #42]	; 0x2a
 8001178:	2b00      	cmp	r3, #0
 800117a:	d00b      	beq.n	8001194 <GFX_WriteLine+0x54>
	        _swap_int(x_start, y_start);
 800117c:	68fb      	ldr	r3, [r7, #12]
 800117e:	627b      	str	r3, [r7, #36]	; 0x24
 8001180:	68bb      	ldr	r3, [r7, #8]
 8001182:	60fb      	str	r3, [r7, #12]
 8001184:	6a7b      	ldr	r3, [r7, #36]	; 0x24
 8001186:	60bb      	str	r3, [r7, #8]
	        _swap_int(x_end, y_end);
 8001188:	687b      	ldr	r3, [r7, #4]
 800118a:	623b      	str	r3, [r7, #32]
 800118c:	683b      	ldr	r3, [r7, #0]
 800118e:	607b      	str	r3, [r7, #4]
 8001190:	6a3b      	ldr	r3, [r7, #32]
 8001192:	603b      	str	r3, [r7, #0]
	    }

	    if (x_start > x_end) {
 8001194:	68fa      	ldr	r2, [r7, #12]
 8001196:	687b      	ldr	r3, [r7, #4]
 8001198:	429a      	cmp	r2, r3
 800119a:	dd0b      	ble.n	80011b4 <GFX_WriteLine+0x74>
	        _swap_int(x_start, x_end);
 800119c:	68fb      	ldr	r3, [r7, #12]
 800119e:	61fb      	str	r3, [r7, #28]
 80011a0:	687b      	ldr	r3, [r7, #4]
 80011a2:	60fb      	str	r3, [r7, #12]
 80011a4:	69fb      	ldr	r3, [r7, #28]
 80011a6:	607b      	str	r3, [r7, #4]
	        _swap_int(y_start, y_end);
 80011a8:	68bb      	ldr	r3, [r7, #8]
 80011aa:	61bb      	str	r3, [r7, #24]
 80011ac:	683b      	ldr	r3, [r7, #0]
 80011ae:	60bb      	str	r3, [r7, #8]
 80011b0:	69bb      	ldr	r3, [r7, #24]
 80011b2:	603b      	str	r3, [r7, #0]
	    }

	    int16_t dx, dy;
	    dx = x_end - x_start;
 80011b4:	687b      	ldr	r3, [r7, #4]
 80011b6:	b29a      	uxth	r2, r3
 80011b8:	68fb      	ldr	r3, [r7, #12]
 80011ba:	b29b      	uxth	r3, r3
 80011bc:	1ad3      	subs	r3, r2, r3
 80011be:	b29b      	uxth	r3, r3
 80011c0:	82fb      	strh	r3, [r7, #22]
	    dy = abs(y_end - y_start);
 80011c2:	683a      	ldr	r2, [r7, #0]
 80011c4:	68bb      	ldr	r3, [r7, #8]
 80011c6:	1ad3      	subs	r3, r2, r3
 80011c8:	2b00      	cmp	r3, #0
 80011ca:	bfb8      	it	lt
 80011cc:	425b      	neglt	r3, r3
 80011ce:	82bb      	strh	r3, [r7, #20]

	    int16_t err = dx / 2;
 80011d0:	f9b7 3016 	ldrsh.w	r3, [r7, #22]
 80011d4:	0fda      	lsrs	r2, r3, #31
 80011d6:	4413      	add	r3, r2
 80011d8:	105b      	asrs	r3, r3, #1
 80011da:	85fb      	strh	r3, [r7, #46]	; 0x2e
	    int16_t ystep;

	    if (y_start < y_end) {
 80011dc:	68ba      	ldr	r2, [r7, #8]
 80011de:	683b      	ldr	r3, [r7, #0]
 80011e0:	429a      	cmp	r2, r3
 80011e2:	da02      	bge.n	80011ea <GFX_WriteLine+0xaa>
	        ystep = 1;
 80011e4:	2301      	movs	r3, #1
 80011e6:	85bb      	strh	r3, [r7, #44]	; 0x2c
 80011e8:	e030      	b.n	800124c <GFX_WriteLine+0x10c>
	    } else {
	        ystep = -1;
 80011ea:	f64f 73ff 	movw	r3, #65535	; 0xffff
 80011ee:	85bb      	strh	r3, [r7, #44]	; 0x2c
	    }

	    for (; x_start<=x_end; x_start++) {
 80011f0:	e02c      	b.n	800124c <GFX_WriteLine+0x10c>
	        if (steep) {
 80011f2:	f9b7 302a 	ldrsh.w	r3, [r7, #42]	; 0x2a
 80011f6:	2b00      	cmp	r3, #0
 80011f8:	d009      	beq.n	800120e <GFX_WriteLine+0xce>
	        	GFX_DrawPixel(y_start, x_start, color);
 80011fa:	68bb      	ldr	r3, [r7, #8]
 80011fc:	b21b      	sxth	r3, r3
 80011fe:	68fa      	ldr	r2, [r7, #12]
 8001200:	b211      	sxth	r1, r2
 8001202:	f897 2038 	ldrb.w	r2, [r7, #56]	; 0x38
 8001206:	4618      	mov	r0, r3
 8001208:	f000 f89c 	bl	8001344 <SSD1306_DrawPixel>
 800120c:	e008      	b.n	8001220 <GFX_WriteLine+0xe0>
	        } else {
	        	GFX_DrawPixel(x_start, y_start, color);
 800120e:	68fb      	ldr	r3, [r7, #12]
 8001210:	b21b      	sxth	r3, r3
 8001212:	68ba      	ldr	r2, [r7, #8]
 8001214:	b211      	sxth	r1, r2
 8001216:	f897 2038 	ldrb.w	r2, [r7, #56]	; 0x38
 800121a:	4618      	mov	r0, r3
 800121c:	f000 f892 	bl	8001344 <SSD1306_DrawPixel>
	        }
	        err -= dy;
 8001220:	8dfa      	ldrh	r2, [r7, #46]	; 0x2e
 8001222:	8abb      	ldrh	r3, [r7, #20]
 8001224:	1ad3      	subs	r3, r2, r3
 8001226:	b29b      	uxth	r3, r3
 8001228:	85fb      	strh	r3, [r7, #46]	; 0x2e
	        if (err < 0) {
 800122a:	f9b7 302e 	ldrsh.w	r3, [r7, #46]	; 0x2e
 800122e:	2b00      	cmp	r3, #0
 8001230:	da09      	bge.n	8001246 <GFX_WriteLine+0x106>
	            y_start += ystep;
 8001232:	f9b7 302c 	ldrsh.w	r3, [r7, #44]	; 0x2c
 8001236:	68ba      	ldr	r2, [r7, #8]
 8001238:	4413      	add	r3, r2
 800123a:	60bb      	str	r3, [r7, #8]
	            err += dx;
 800123c:	8dfa      	ldrh	r2, [r7, #46]	; 0x2e
 800123e:	8afb      	ldrh	r3, [r7, #22]
 8001240:	4413      	add	r3, r2
 8001242:	b29b      	uxth	r3, r3
 8001244:	85fb      	strh	r3, [r7, #46]	; 0x2e
	    for (; x_start<=x_end; x_start++) {
 8001246:	68fb      	ldr	r3, [r7, #12]
 8001248:	3301      	adds	r3, #1
 800124a:	60fb      	str	r3, [r7, #12]
 800124c:	68fa      	ldr	r2, [r7, #12]
 800124e:	687b      	ldr	r3, [r7, #4]
 8001250:	429a      	cmp	r2, r3
 8001252:	ddce      	ble.n	80011f2 <GFX_WriteLine+0xb2>
	        }
	    }
}
 8001254:	bf00      	nop
 8001256:	3730      	adds	r7, #48	; 0x30
 8001258:	46bd      	mov	sp, r7
 800125a:	bd80      	pop	{r7, pc}

0800125c <GFX_DrawFastVLine>:

void GFX_DrawFastVLine(int x_start, int y_start, int h, uint8_t color)
{
 800125c:	b580      	push	{r7, lr}
 800125e:	b086      	sub	sp, #24
 8001260:	af02      	add	r7, sp, #8
 8001262:	60f8      	str	r0, [r7, #12]
 8001264:	60b9      	str	r1, [r7, #8]
 8001266:	607a      	str	r2, [r7, #4]
 8001268:	70fb      	strb	r3, [r7, #3]
	GFX_WriteLine(x_start, y_start, x_start, y_start+h-1, color);
 800126a:	68ba      	ldr	r2, [r7, #8]
 800126c:	687b      	ldr	r3, [r7, #4]
 800126e:	4413      	add	r3, r2
 8001270:	1e5a      	subs	r2, r3, #1
 8001272:	78fb      	ldrb	r3, [r7, #3]
 8001274:	9300      	str	r3, [sp, #0]
 8001276:	4613      	mov	r3, r2
 8001278:	68fa      	ldr	r2, [r7, #12]
 800127a:	68b9      	ldr	r1, [r7, #8]
 800127c:	68f8      	ldr	r0, [r7, #12]
 800127e:	f7ff ff5f 	bl	8001140 <GFX_WriteLine>
}
 8001282:	bf00      	nop
 8001284:	3710      	adds	r7, #16
 8001286:	46bd      	mov	sp, r7
 8001288:	bd80      	pop	{r7, pc}

0800128a <GFX_DrawFillRectangle>:

}
#endif
#if USING_FILL_RECTANGLE == 1
void GFX_DrawFillRectangle(int x, int y, uint16_t w, uint16_t h, uint8_t color)
{
 800128a:	b580      	push	{r7, lr}
 800128c:	b086      	sub	sp, #24
 800128e:	af00      	add	r7, sp, #0
 8001290:	60f8      	str	r0, [r7, #12]
 8001292:	60b9      	str	r1, [r7, #8]
 8001294:	4611      	mov	r1, r2
 8001296:	461a      	mov	r2, r3
 8001298:	460b      	mov	r3, r1
 800129a:	80fb      	strh	r3, [r7, #6]
 800129c:	4613      	mov	r3, r2
 800129e:	80bb      	strh	r3, [r7, #4]
    for (int i=x; i<x+w; i++) {
 80012a0:	68fb      	ldr	r3, [r7, #12]
 80012a2:	617b      	str	r3, [r7, #20]
 80012a4:	e009      	b.n	80012ba <GFX_DrawFillRectangle+0x30>
    	GFX_DrawFastVLine(i, y, h, color);
 80012a6:	88ba      	ldrh	r2, [r7, #4]
 80012a8:	f897 3020 	ldrb.w	r3, [r7, #32]
 80012ac:	68b9      	ldr	r1, [r7, #8]
 80012ae:	6978      	ldr	r0, [r7, #20]
 80012b0:	f7ff ffd4 	bl	800125c <GFX_DrawFastVLine>
    for (int i=x; i<x+w; i++) {
 80012b4:	697b      	ldr	r3, [r7, #20]
 80012b6:	3301      	adds	r3, #1
 80012b8:	617b      	str	r3, [r7, #20]
 80012ba:	88fa      	ldrh	r2, [r7, #6]
 80012bc:	68fb      	ldr	r3, [r7, #12]
 80012be:	4413      	add	r3, r2
 80012c0:	697a      	ldr	r2, [r7, #20]
 80012c2:	429a      	cmp	r2, r3
 80012c4:	dbef      	blt.n	80012a6 <GFX_DrawFillRectangle+0x1c>
    }

}
 80012c6:	bf00      	nop
 80012c8:	3718      	adds	r7, #24
 80012ca:	46bd      	mov	sp, r7
 80012cc:	bd80      	pop	{r7, pc}
	...

080012d0 <SSD1306_Command>:
I2C_HandleTypeDef *oled_i2c;

static uint8_t buffer[SSD1306_BUFFER_SIZE];

void SSD1306_Command(uint8_t Command)
{
 80012d0:	b580      	push	{r7, lr}
 80012d2:	b086      	sub	sp, #24
 80012d4:	af04      	add	r7, sp, #16
 80012d6:	4603      	mov	r3, r0
 80012d8:	71fb      	strb	r3, [r7, #7]
	HAL_I2C_Mem_Write(oled_i2c, (SSD1306_ADDRESS<<1), 0x00, 1, &Command, 1, SSD1306_TIMEOUT);
 80012da:	4b09      	ldr	r3, [pc, #36]	; (8001300 <SSD1306_Command+0x30>)
 80012dc:	6818      	ldr	r0, [r3, #0]
 80012de:	f44f 737a 	mov.w	r3, #1000	; 0x3e8
 80012e2:	9302      	str	r3, [sp, #8]
 80012e4:	2301      	movs	r3, #1
 80012e6:	9301      	str	r3, [sp, #4]
 80012e8:	1dfb      	adds	r3, r7, #7
 80012ea:	9300      	str	r3, [sp, #0]
 80012ec:	2301      	movs	r3, #1
 80012ee:	2200      	movs	r2, #0
 80012f0:	2178      	movs	r1, #120	; 0x78
 80012f2:	f003 f9e9 	bl	80046c8 <HAL_I2C_Mem_Write>
}
 80012f6:	bf00      	nop
 80012f8:	3708      	adds	r7, #8
 80012fa:	46bd      	mov	sp, r7
 80012fc:	bd80      	pop	{r7, pc}
 80012fe:	bf00      	nop
 8001300:	20004f18 	.word	0x20004f18

08001304 <SSD1306_Data>:

void SSD1306_Data(uint8_t *Data, uint16_t Size)
{
 8001304:	b580      	push	{r7, lr}
 8001306:	b084      	sub	sp, #16
 8001308:	af02      	add	r7, sp, #8
 800130a:	6078      	str	r0, [r7, #4]
 800130c:	460b      	mov	r3, r1
 800130e:	807b      	strh	r3, [r7, #2]
#ifdef SSD1306_USE_DMA
	if(oled_i2c->hdmatx->State == HAL_DMA_STATE_READY)
 8001310:	4b0b      	ldr	r3, [pc, #44]	; (8001340 <SSD1306_Data+0x3c>)
 8001312:	681b      	ldr	r3, [r3, #0]
 8001314:	6b5b      	ldr	r3, [r3, #52]	; 0x34
 8001316:	f893 3035 	ldrb.w	r3, [r3, #53]	; 0x35
 800131a:	b2db      	uxtb	r3, r3
 800131c:	2b01      	cmp	r3, #1
 800131e:	d10a      	bne.n	8001336 <SSD1306_Data+0x32>
	{
		HAL_I2C_Mem_Write_DMA(oled_i2c, (SSD1306_ADDRESS<<1), 0x40, 1, Data, Size);
 8001320:	4b07      	ldr	r3, [pc, #28]	; (8001340 <SSD1306_Data+0x3c>)
 8001322:	6818      	ldr	r0, [r3, #0]
 8001324:	887b      	ldrh	r3, [r7, #2]
 8001326:	9301      	str	r3, [sp, #4]
 8001328:	687b      	ldr	r3, [r7, #4]
 800132a:	9300      	str	r3, [sp, #0]
 800132c:	2301      	movs	r3, #1
 800132e:	2240      	movs	r2, #64	; 0x40
 8001330:	2178      	movs	r1, #120	; 0x78
 8001332:	f003 fce9 	bl	8004d08 <HAL_I2C_Mem_Write_DMA>
	}
#else
	HAL_I2C_Mem_Write(oled_i2c, (SSD1306_ADDRESS<<1), 0x40, 1, Data, Size, SSD1306_TIMEOUT);
#endif
}
 8001336:	bf00      	nop
 8001338:	3708      	adds	r7, #8
 800133a:	46bd      	mov	sp, r7
 800133c:	bd80      	pop	{r7, pc}
 800133e:	bf00      	nop
 8001340:	20004f18 	.word	0x20004f18

08001344 <SSD1306_DrawPixel>:
//
// Functions
//

void SSD1306_DrawPixel(int16_t x, int16_t y, uint8_t Color)
{
 8001344:	b480      	push	{r7}
 8001346:	b083      	sub	sp, #12
 8001348:	af00      	add	r7, sp, #0
 800134a:	4603      	mov	r3, r0
 800134c:	80fb      	strh	r3, [r7, #6]
 800134e:	460b      	mov	r3, r1
 8001350:	80bb      	strh	r3, [r7, #4]
 8001352:	4613      	mov	r3, r2
 8001354:	70fb      	strb	r3, [r7, #3]
	if((x < 0) || (x >= SSD1306_LCDWIDTH) || (y < 0) || (y >= SSD1306_LCDHEIGHT))
 8001356:	f9b7 3006 	ldrsh.w	r3, [r7, #6]
 800135a:	2b00      	cmp	r3, #0
 800135c:	db79      	blt.n	8001452 <SSD1306_DrawPixel+0x10e>
 800135e:	f9b7 3006 	ldrsh.w	r3, [r7, #6]
 8001362:	2b7f      	cmp	r3, #127	; 0x7f
 8001364:	dc75      	bgt.n	8001452 <SSD1306_DrawPixel+0x10e>
 8001366:	f9b7 3004 	ldrsh.w	r3, [r7, #4]
 800136a:	2b00      	cmp	r3, #0
 800136c:	db71      	blt.n	8001452 <SSD1306_DrawPixel+0x10e>
 800136e:	f9b7 3004 	ldrsh.w	r3, [r7, #4]
 8001372:	2b3f      	cmp	r3, #63	; 0x3f
 8001374:	dc6d      	bgt.n	8001452 <SSD1306_DrawPixel+0x10e>
	  return;

    switch(Color)
 8001376:	78fb      	ldrb	r3, [r7, #3]
 8001378:	2b01      	cmp	r3, #1
 800137a:	d004      	beq.n	8001386 <SSD1306_DrawPixel+0x42>
 800137c:	2b02      	cmp	r3, #2
 800137e:	d046      	beq.n	800140e <SSD1306_DrawPixel+0xca>
 8001380:	2b00      	cmp	r3, #0
 8001382:	d021      	beq.n	80013c8 <SSD1306_DrawPixel+0x84>
 8001384:	e066      	b.n	8001454 <SSD1306_DrawPixel+0x110>
    {
    case SSD1306_WHITE:
      buffer[x + (y / 8) * SSD1306_LCDWIDTH] |= (1 << (y & 7));
 8001386:	f9b7 2006 	ldrsh.w	r2, [r7, #6]
 800138a:	f9b7 3004 	ldrsh.w	r3, [r7, #4]
 800138e:	2b00      	cmp	r3, #0
 8001390:	da00      	bge.n	8001394 <SSD1306_DrawPixel+0x50>
 8001392:	3307      	adds	r3, #7
 8001394:	10db      	asrs	r3, r3, #3
 8001396:	b218      	sxth	r0, r3
 8001398:	4603      	mov	r3, r0
 800139a:	01db      	lsls	r3, r3, #7
 800139c:	4413      	add	r3, r2
 800139e:	4a30      	ldr	r2, [pc, #192]	; (8001460 <SSD1306_DrawPixel+0x11c>)
 80013a0:	5cd3      	ldrb	r3, [r2, r3]
 80013a2:	b25a      	sxtb	r2, r3
 80013a4:	88bb      	ldrh	r3, [r7, #4]
 80013a6:	f003 0307 	and.w	r3, r3, #7
 80013aa:	2101      	movs	r1, #1
 80013ac:	fa01 f303 	lsl.w	r3, r1, r3
 80013b0:	b25b      	sxtb	r3, r3
 80013b2:	4313      	orrs	r3, r2
 80013b4:	b259      	sxtb	r1, r3
 80013b6:	f9b7 2006 	ldrsh.w	r2, [r7, #6]
 80013ba:	4603      	mov	r3, r0
 80013bc:	01db      	lsls	r3, r3, #7
 80013be:	4413      	add	r3, r2
 80013c0:	b2c9      	uxtb	r1, r1
 80013c2:	4a27      	ldr	r2, [pc, #156]	; (8001460 <SSD1306_DrawPixel+0x11c>)
 80013c4:	54d1      	strb	r1, [r2, r3]
      break;
 80013c6:	e045      	b.n	8001454 <SSD1306_DrawPixel+0x110>
    case SSD1306_BLACK:
      buffer[x + (y / 8) * SSD1306_LCDWIDTH] &= ~(1 << (y & 7));
 80013c8:	f9b7 2006 	ldrsh.w	r2, [r7, #6]
 80013cc:	f9b7 3004 	ldrsh.w	r3, [r7, #4]
 80013d0:	2b00      	cmp	r3, #0
 80013d2:	da00      	bge.n	80013d6 <SSD1306_DrawPixel+0x92>
 80013d4:	3307      	adds	r3, #7
 80013d6:	10db      	asrs	r3, r3, #3
 80013d8:	b218      	sxth	r0, r3
 80013da:	4603      	mov	r3, r0
 80013dc:	01db      	lsls	r3, r3, #7
 80013de:	4413      	add	r3, r2
 80013e0:	4a1f      	ldr	r2, [pc, #124]	; (8001460 <SSD1306_DrawPixel+0x11c>)
 80013e2:	5cd3      	ldrb	r3, [r2, r3]
 80013e4:	b25a      	sxtb	r2, r3
 80013e6:	88bb      	ldrh	r3, [r7, #4]
 80013e8:	f003 0307 	and.w	r3, r3, #7
 80013ec:	2101      	movs	r1, #1
 80013ee:	fa01 f303 	lsl.w	r3, r1, r3
 80013f2:	b25b      	sxtb	r3, r3
 80013f4:	43db      	mvns	r3, r3
 80013f6:	b25b      	sxtb	r3, r3
 80013f8:	4013      	ands	r3, r2
 80013fa:	b259      	sxtb	r1, r3
 80013fc:	f9b7 2006 	ldrsh.w	r2, [r7, #6]
 8001400:	4603      	mov	r3, r0
 8001402:	01db      	lsls	r3, r3, #7
 8001404:	4413      	add	r3, r2
 8001406:	b2c9      	uxtb	r1, r1
 8001408:	4a15      	ldr	r2, [pc, #84]	; (8001460 <SSD1306_DrawPixel+0x11c>)
 800140a:	54d1      	strb	r1, [r2, r3]
      break;
 800140c:	e022      	b.n	8001454 <SSD1306_DrawPixel+0x110>
    case SSD1306_INVERSE:
      buffer[x + (y / 8) * SSD1306_LCDWIDTH] ^= (1 << (y & 7));
 800140e:	f9b7 2006 	ldrsh.w	r2, [r7, #6]
 8001412:	f9b7 3004 	ldrsh.w	r3, [r7, #4]
 8001416:	2b00      	cmp	r3, #0
 8001418:	da00      	bge.n	800141c <SSD1306_DrawPixel+0xd8>
 800141a:	3307      	adds	r3, #7
 800141c:	10db      	asrs	r3, r3, #3
 800141e:	b218      	sxth	r0, r3
 8001420:	4603      	mov	r3, r0
 8001422:	01db      	lsls	r3, r3, #7
 8001424:	4413      	add	r3, r2
 8001426:	4a0e      	ldr	r2, [pc, #56]	; (8001460 <SSD1306_DrawPixel+0x11c>)
 8001428:	5cd3      	ldrb	r3, [r2, r3]
 800142a:	b25a      	sxtb	r2, r3
 800142c:	88bb      	ldrh	r3, [r7, #4]
 800142e:	f003 0307 	and.w	r3, r3, #7
 8001432:	2101      	movs	r1, #1
 8001434:	fa01 f303 	lsl.w	r3, r1, r3
 8001438:	b25b      	sxtb	r3, r3
 800143a:	4053      	eors	r3, r2
 800143c:	b259      	sxtb	r1, r3
 800143e:	f9b7 2006 	ldrsh.w	r2, [r7, #6]
 8001442:	4603      	mov	r3, r0
 8001444:	01db      	lsls	r3, r3, #7
 8001446:	4413      	add	r3, r2
 8001448:	b2c9      	uxtb	r1, r1
 800144a:	4a05      	ldr	r2, [pc, #20]	; (8001460 <SSD1306_DrawPixel+0x11c>)
 800144c:	54d1      	strb	r1, [r2, r3]
      break;
 800144e:	bf00      	nop
 8001450:	e000      	b.n	8001454 <SSD1306_DrawPixel+0x110>
	  return;
 8001452:	bf00      	nop
    }
}
 8001454:	370c      	adds	r7, #12
 8001456:	46bd      	mov	sp, r7
 8001458:	f85d 7b04 	ldr.w	r7, [sp], #4
 800145c:	4770      	bx	lr
 800145e:	bf00      	nop
 8001460:	20000200 	.word	0x20000200

08001464 <SSD1306_Clear>:

void SSD1306_Clear(uint8_t Color)
{
 8001464:	b580      	push	{r7, lr}
 8001466:	b082      	sub	sp, #8
 8001468:	af00      	add	r7, sp, #0
 800146a:	4603      	mov	r3, r0
 800146c:	71fb      	strb	r3, [r7, #7]
	switch(Color)
 800146e:	79fb      	ldrb	r3, [r7, #7]
 8001470:	2b00      	cmp	r3, #0
 8001472:	d009      	beq.n	8001488 <SSD1306_Clear+0x24>
 8001474:	2b01      	cmp	r3, #1
 8001476:	d000      	beq.n	800147a <SSD1306_Clear+0x16>

	case BLACK:
		memset(buffer, 0x00, SSD1306_BUFFER_SIZE);
		break;
	}
}
 8001478:	e00d      	b.n	8001496 <SSD1306_Clear+0x32>
		memset(buffer, 0xFF, SSD1306_BUFFER_SIZE);
 800147a:	f44f 6280 	mov.w	r2, #1024	; 0x400
 800147e:	21ff      	movs	r1, #255	; 0xff
 8001480:	4807      	ldr	r0, [pc, #28]	; (80014a0 <SSD1306_Clear+0x3c>)
 8001482:	f008 ff60 	bl	800a346 <memset>
		break;
 8001486:	e006      	b.n	8001496 <SSD1306_Clear+0x32>
		memset(buffer, 0x00, SSD1306_BUFFER_SIZE);
 8001488:	f44f 6280 	mov.w	r2, #1024	; 0x400
 800148c:	2100      	movs	r1, #0
 800148e:	4804      	ldr	r0, [pc, #16]	; (80014a0 <SSD1306_Clear+0x3c>)
 8001490:	f008 ff59 	bl	800a346 <memset>
		break;
 8001494:	bf00      	nop
}
 8001496:	bf00      	nop
 8001498:	3708      	adds	r7, #8
 800149a:	46bd      	mov	sp, r7
 800149c:	bd80      	pop	{r7, pc}
 800149e:	bf00      	nop
 80014a0:	20000200 	.word	0x20000200

080014a4 <SSD1306_Display>:

void SSD1306_Display(void)
{
 80014a4:	b580      	push	{r7, lr}
 80014a6:	af00      	add	r7, sp, #0
	SSD1306_Command(SSD1306_PAGEADDR);
 80014a8:	2022      	movs	r0, #34	; 0x22
 80014aa:	f7ff ff11 	bl	80012d0 <SSD1306_Command>
	SSD1306_Command(0);                      // Page start address
 80014ae:	2000      	movs	r0, #0
 80014b0:	f7ff ff0e 	bl	80012d0 <SSD1306_Command>
	SSD1306_Command(0xFF);                   // Page end (not really, but works here)
 80014b4:	20ff      	movs	r0, #255	; 0xff
 80014b6:	f7ff ff0b 	bl	80012d0 <SSD1306_Command>
	SSD1306_Command(SSD1306_COLUMNADDR);
 80014ba:	2021      	movs	r0, #33	; 0x21
 80014bc:	f7ff ff08 	bl	80012d0 <SSD1306_Command>
	SSD1306_Command(0); // Column start address
 80014c0:	2000      	movs	r0, #0
 80014c2:	f7ff ff05 	bl	80012d0 <SSD1306_Command>
	SSD1306_Command(SSD1306_LCDWIDTH - 1); // Column end address
 80014c6:	207f      	movs	r0, #127	; 0x7f
 80014c8:	f7ff ff02 	bl	80012d0 <SSD1306_Command>

	SSD1306_Data(buffer, SSD1306_BUFFER_SIZE);
 80014cc:	f44f 6180 	mov.w	r1, #1024	; 0x400
 80014d0:	4802      	ldr	r0, [pc, #8]	; (80014dc <SSD1306_Display+0x38>)
 80014d2:	f7ff ff17 	bl	8001304 <SSD1306_Data>
}
 80014d6:	bf00      	nop
 80014d8:	bd80      	pop	{r7, pc}
 80014da:	bf00      	nop
 80014dc:	20000200 	.word	0x20000200

080014e0 <SSD1306_Init>:

void SSD1306_Init(I2C_HandleTypeDef *i2c)
{
 80014e0:	b580      	push	{r7, lr}
 80014e2:	b082      	sub	sp, #8
 80014e4:	af00      	add	r7, sp, #0
 80014e6:	6078      	str	r0, [r7, #4]
	oled_i2c = i2c;
 80014e8:	4a28      	ldr	r2, [pc, #160]	; (800158c <SSD1306_Init+0xac>)
 80014ea:	687b      	ldr	r3, [r7, #4]
 80014ec:	6013      	str	r3, [r2, #0]

	SSD1306_Command(SSD1306_DISPLAYOFF);
 80014ee:	20ae      	movs	r0, #174	; 0xae
 80014f0:	f7ff feee 	bl	80012d0 <SSD1306_Command>

	SSD1306_Command(SSD1306_SETDISPLAYCLOCKDIV);
 80014f4:	20d5      	movs	r0, #213	; 0xd5
 80014f6:	f7ff feeb 	bl	80012d0 <SSD1306_Command>
	SSD1306_Command(0x80);
 80014fa:	2080      	movs	r0, #128	; 0x80
 80014fc:	f7ff fee8 	bl	80012d0 <SSD1306_Command>

	SSD1306_Command(SSD1306_LCDHEIGHT - 1);
 8001500:	203f      	movs	r0, #63	; 0x3f
 8001502:	f7ff fee5 	bl	80012d0 <SSD1306_Command>

	SSD1306_Command(SSD1306_SETDISPLAYOFFSET);
 8001506:	20d3      	movs	r0, #211	; 0xd3
 8001508:	f7ff fee2 	bl	80012d0 <SSD1306_Command>
	SSD1306_Command(0x00);
 800150c:	2000      	movs	r0, #0
 800150e:	f7ff fedf 	bl	80012d0 <SSD1306_Command>
	SSD1306_Command(SSD1306_SETSTARTLINE);
 8001512:	2040      	movs	r0, #64	; 0x40
 8001514:	f7ff fedc 	bl	80012d0 <SSD1306_Command>

	SSD1306_Command(SSD1306_CHARGEPUMP);
 8001518:	208d      	movs	r0, #141	; 0x8d
 800151a:	f7ff fed9 	bl	80012d0 <SSD1306_Command>
	SSD1306_Command(0x14);
 800151e:	2014      	movs	r0, #20
 8001520:	f7ff fed6 	bl	80012d0 <SSD1306_Command>

	SSD1306_Command(SSD1306_MEMORYMODE); // 0x20
 8001524:	2020      	movs	r0, #32
 8001526:	f7ff fed3 	bl	80012d0 <SSD1306_Command>
	SSD1306_Command(0x00); // 0x0 act like ks0108
 800152a:	2000      	movs	r0, #0
 800152c:	f7ff fed0 	bl	80012d0 <SSD1306_Command>
	SSD1306_Command(SSD1306_SEGREMAP | 0x1);
 8001530:	20a1      	movs	r0, #161	; 0xa1
 8001532:	f7ff fecd 	bl	80012d0 <SSD1306_Command>
	SSD1306_Command(SSD1306_COMSCANDEC);
 8001536:	20c8      	movs	r0, #200	; 0xc8
 8001538:	f7ff feca 	bl	80012d0 <SSD1306_Command>

	SSD1306_Command(SSD1306_SETCOMPINS);
 800153c:	20da      	movs	r0, #218	; 0xda
 800153e:	f7ff fec7 	bl	80012d0 <SSD1306_Command>
	SSD1306_Command(0x12);
 8001542:	2012      	movs	r0, #18
 8001544:	f7ff fec4 	bl	80012d0 <SSD1306_Command>
	SSD1306_Command(SSD1306_SETCONTRAST);
 8001548:	2081      	movs	r0, #129	; 0x81
 800154a:	f7ff fec1 	bl	80012d0 <SSD1306_Command>
	SSD1306_Command(0xFF);
 800154e:	20ff      	movs	r0, #255	; 0xff
 8001550:	f7ff febe 	bl	80012d0 <SSD1306_Command>

	SSD1306_Command(SSD1306_SETPRECHARGE); // 0xd9
 8001554:	20d9      	movs	r0, #217	; 0xd9
 8001556:	f7ff febb 	bl	80012d0 <SSD1306_Command>
	SSD1306_Command(0xF1);
 800155a:	20f1      	movs	r0, #241	; 0xf1
 800155c:	f7ff feb8 	bl	80012d0 <SSD1306_Command>

	SSD1306_Command(SSD1306_SETVCOMDETECT); // 0xDB
 8001560:	20db      	movs	r0, #219	; 0xdb
 8001562:	f7ff feb5 	bl	80012d0 <SSD1306_Command>
	SSD1306_Command(0x40);
 8001566:	2040      	movs	r0, #64	; 0x40
 8001568:	f7ff feb2 	bl	80012d0 <SSD1306_Command>
	SSD1306_Command(SSD1306_DISPLAYALLON_RESUME); // 0xA4
 800156c:	20a4      	movs	r0, #164	; 0xa4
 800156e:	f7ff feaf 	bl	80012d0 <SSD1306_Command>
	SSD1306_Command(SSD1306_NORMALDISPLAY);       // 0xA6
 8001572:	20a6      	movs	r0, #166	; 0xa6
 8001574:	f7ff feac 	bl	80012d0 <SSD1306_Command>
	SSD1306_Command(SSD1306_DEACTIVATE_SCROLL);
 8001578:	202e      	movs	r0, #46	; 0x2e
 800157a:	f7ff fea9 	bl	80012d0 <SSD1306_Command>

	SSD1306_Command(SSD1306_DISPLAYON); // Main screen turn on
 800157e:	20af      	movs	r0, #175	; 0xaf
 8001580:	f7ff fea6 	bl	80012d0 <SSD1306_Command>
}
 8001584:	bf00      	nop
 8001586:	3708      	adds	r7, #8
 8001588:	46bd      	mov	sp, r7
 800158a:	bd80      	pop	{r7, pc}
 800158c:	20004f18 	.word	0x20004f18

08001590 <Read8>:

//
// Read 8 bits from BMP280 from Register
//
uint8_t Read8(BMP280_t *bmp, uint8_t Register)
{
 8001590:	b580      	push	{r7, lr}
 8001592:	b088      	sub	sp, #32
 8001594:	af04      	add	r7, sp, #16
 8001596:	6078      	str	r0, [r7, #4]
 8001598:	460b      	mov	r3, r1
 800159a:	70fb      	strb	r3, [r7, #3]
	uint8_t Value;

	HAL_I2C_Mem_Read(bmp->bmp_i2c, ((bmp->Address)<<1), Register, 1, &Value, 1, BMP280_I2C_TIMEOUT);
 800159c:	687b      	ldr	r3, [r7, #4]
 800159e:	6818      	ldr	r0, [r3, #0]
 80015a0:	687b      	ldr	r3, [r7, #4]
 80015a2:	791b      	ldrb	r3, [r3, #4]
 80015a4:	b29b      	uxth	r3, r3
 80015a6:	005b      	lsls	r3, r3, #1
 80015a8:	b299      	uxth	r1, r3
 80015aa:	78fb      	ldrb	r3, [r7, #3]
 80015ac:	b29a      	uxth	r2, r3
 80015ae:	f44f 737a 	mov.w	r3, #1000	; 0x3e8
 80015b2:	9302      	str	r3, [sp, #8]
 80015b4:	2301      	movs	r3, #1
 80015b6:	9301      	str	r3, [sp, #4]
 80015b8:	f107 030f 	add.w	r3, r7, #15
 80015bc:	9300      	str	r3, [sp, #0]
 80015be:	2301      	movs	r3, #1
 80015c0:	f003 f97c 	bl	80048bc <HAL_I2C_Mem_Read>

	return Value;
 80015c4:	7bfb      	ldrb	r3, [r7, #15]
}
 80015c6:	4618      	mov	r0, r3
 80015c8:	3710      	adds	r7, #16
 80015ca:	46bd      	mov	sp, r7
 80015cc:	bd80      	pop	{r7, pc}

080015ce <Write8>:

//
// Write 8 bits to BMP280 to Register
//
void Write8(BMP280_t *bmp, uint8_t Register, uint8_t Value)
{
 80015ce:	b580      	push	{r7, lr}
 80015d0:	b086      	sub	sp, #24
 80015d2:	af04      	add	r7, sp, #16
 80015d4:	6078      	str	r0, [r7, #4]
 80015d6:	460b      	mov	r3, r1
 80015d8:	70fb      	strb	r3, [r7, #3]
 80015da:	4613      	mov	r3, r2
 80015dc:	70bb      	strb	r3, [r7, #2]
	HAL_I2C_Mem_Write(bmp->bmp_i2c, ((bmp->Address)<<1), Register, 1, &Value, 1, BMP280_I2C_TIMEOUT);
 80015de:	687b      	ldr	r3, [r7, #4]
 80015e0:	6818      	ldr	r0, [r3, #0]
 80015e2:	687b      	ldr	r3, [r7, #4]
 80015e4:	791b      	ldrb	r3, [r3, #4]
 80015e6:	b29b      	uxth	r3, r3
 80015e8:	005b      	lsls	r3, r3, #1
 80015ea:	b299      	uxth	r1, r3
 80015ec:	78fb      	ldrb	r3, [r7, #3]
 80015ee:	b29a      	uxth	r2, r3
 80015f0:	f44f 737a 	mov.w	r3, #1000	; 0x3e8
 80015f4:	9302      	str	r3, [sp, #8]
 80015f6:	2301      	movs	r3, #1
 80015f8:	9301      	str	r3, [sp, #4]
 80015fa:	1cbb      	adds	r3, r7, #2
 80015fc:	9300      	str	r3, [sp, #0]
 80015fe:	2301      	movs	r3, #1
 8001600:	f003 f862 	bl	80046c8 <HAL_I2C_Mem_Write>
}
 8001604:	bf00      	nop
 8001606:	3708      	adds	r7, #8
 8001608:	46bd      	mov	sp, r7
 800160a:	bd80      	pop	{r7, pc}

0800160c <Read16>:

//
// Read 16 bits from BMP280 from Register
//
uint16_t Read16(BMP280_t *bmp, uint8_t Register)
{
 800160c:	b580      	push	{r7, lr}
 800160e:	b088      	sub	sp, #32
 8001610:	af04      	add	r7, sp, #16
 8001612:	6078      	str	r0, [r7, #4]
 8001614:	460b      	mov	r3, r1
 8001616:	70fb      	strb	r3, [r7, #3]
	uint8_t Value[2];

	HAL_I2C_Mem_Read(bmp->bmp_i2c, ((bmp->Address)<<1), Register, 1, Value, 2, BMP280_I2C_TIMEOUT);
 8001618:	687b      	ldr	r3, [r7, #4]
 800161a:	6818      	ldr	r0, [r3, #0]
 800161c:	687b      	ldr	r3, [r7, #4]
 800161e:	791b      	ldrb	r3, [r3, #4]
 8001620:	b29b      	uxth	r3, r3
 8001622:	005b      	lsls	r3, r3, #1
 8001624:	b299      	uxth	r1, r3
 8001626:	78fb      	ldrb	r3, [r7, #3]
 8001628:	b29a      	uxth	r2, r3
 800162a:	f44f 737a 	mov.w	r3, #1000	; 0x3e8
 800162e:	9302      	str	r3, [sp, #8]
 8001630:	2302      	movs	r3, #2
 8001632:	9301      	str	r3, [sp, #4]
 8001634:	f107 030c 	add.w	r3, r7, #12
 8001638:	9300      	str	r3, [sp, #0]
 800163a:	2301      	movs	r3, #1
 800163c:	f003 f93e 	bl	80048bc <HAL_I2C_Mem_Read>

	return ((Value[1] << 8) | Value[0]);
 8001640:	7b7b      	ldrb	r3, [r7, #13]
 8001642:	021b      	lsls	r3, r3, #8
 8001644:	b21a      	sxth	r2, r3
 8001646:	7b3b      	ldrb	r3, [r7, #12]
 8001648:	b21b      	sxth	r3, r3
 800164a:	4313      	orrs	r3, r2
 800164c:	b21b      	sxth	r3, r3
 800164e:	b29b      	uxth	r3, r3
}
 8001650:	4618      	mov	r0, r3
 8001652:	3710      	adds	r7, #16
 8001654:	46bd      	mov	sp, r7
 8001656:	bd80      	pop	{r7, pc}

08001658 <Read24>:

//
// Read 24 bits from BMP280 from Register
//
uint32_t Read24(BMP280_t *bmp, uint8_t Register)
{
 8001658:	b580      	push	{r7, lr}
 800165a:	b088      	sub	sp, #32
 800165c:	af04      	add	r7, sp, #16
 800165e:	6078      	str	r0, [r7, #4]
 8001660:	460b      	mov	r3, r1
 8001662:	70fb      	strb	r3, [r7, #3]
	uint8_t Value[3];

	HAL_I2C_Mem_Read(bmp->bmp_i2c, ((bmp->Address)<<1), Register, 1, Value, 3, BMP280_I2C_TIMEOUT);
 8001664:	687b      	ldr	r3, [r7, #4]
 8001666:	6818      	ldr	r0, [r3, #0]
 8001668:	687b      	ldr	r3, [r7, #4]
 800166a:	791b      	ldrb	r3, [r3, #4]
 800166c:	b29b      	uxth	r3, r3
 800166e:	005b      	lsls	r3, r3, #1
 8001670:	b299      	uxth	r1, r3
 8001672:	78fb      	ldrb	r3, [r7, #3]
 8001674:	b29a      	uxth	r2, r3
 8001676:	f44f 737a 	mov.w	r3, #1000	; 0x3e8
 800167a:	9302      	str	r3, [sp, #8]
 800167c:	2303      	movs	r3, #3
 800167e:	9301      	str	r3, [sp, #4]
 8001680:	f107 030c 	add.w	r3, r7, #12
 8001684:	9300      	str	r3, [sp, #0]
 8001686:	2301      	movs	r3, #1
 8001688:	f003 f918 	bl	80048bc <HAL_I2C_Mem_Read>

	return ((Value[0] << 16) | (Value[1] << 8) | Value[2]);
 800168c:	7b3b      	ldrb	r3, [r7, #12]
 800168e:	041a      	lsls	r2, r3, #16
 8001690:	7b7b      	ldrb	r3, [r7, #13]
 8001692:	021b      	lsls	r3, r3, #8
 8001694:	4313      	orrs	r3, r2
 8001696:	7bba      	ldrb	r2, [r7, #14]
 8001698:	4313      	orrs	r3, r2
}
 800169a:	4618      	mov	r0, r3
 800169c:	3710      	adds	r7, #16
 800169e:	46bd      	mov	sp, r7
 80016a0:	bd80      	pop	{r7, pc}

080016a2 <BMP280_SetMode>:

//
// Set mode - Forced or Normal - in Control register
//
void BMP280_SetMode(BMP280_t *bmp, uint8_t Mode)
{
 80016a2:	b580      	push	{r7, lr}
 80016a4:	b084      	sub	sp, #16
 80016a6:	af00      	add	r7, sp, #0
 80016a8:	6078      	str	r0, [r7, #4]
 80016aa:	460b      	mov	r3, r1
 80016ac:	70fb      	strb	r3, [r7, #3]
	uint8_t Tmp;

	if(Mode > 3) Mode = 3;
 80016ae:	78fb      	ldrb	r3, [r7, #3]
 80016b0:	2b03      	cmp	r3, #3
 80016b2:	d901      	bls.n	80016b8 <BMP280_SetMode+0x16>
 80016b4:	2303      	movs	r3, #3
 80016b6:	70fb      	strb	r3, [r7, #3]

	Tmp = Read8(bmp, BMP280_CONTROL);
 80016b8:	21f4      	movs	r1, #244	; 0xf4
 80016ba:	6878      	ldr	r0, [r7, #4]
 80016bc:	f7ff ff68 	bl	8001590 <Read8>
 80016c0:	4603      	mov	r3, r0
 80016c2:	73fb      	strb	r3, [r7, #15]

	Tmp = Tmp & 0xFC; // Tmp (xxxx xx00)
 80016c4:	7bfb      	ldrb	r3, [r7, #15]
 80016c6:	f023 0303 	bic.w	r3, r3, #3
 80016ca:	73fb      	strb	r3, [r7, #15]
	Tmp |= Mode & 0x03;
 80016cc:	f997 3003 	ldrsb.w	r3, [r7, #3]
 80016d0:	f003 0303 	and.w	r3, r3, #3
 80016d4:	b25a      	sxtb	r2, r3
 80016d6:	f997 300f 	ldrsb.w	r3, [r7, #15]
 80016da:	4313      	orrs	r3, r2
 80016dc:	b25b      	sxtb	r3, r3
 80016de:	73fb      	strb	r3, [r7, #15]

	Write8(bmp, BMP280_CONTROL, Tmp);
 80016e0:	7bfb      	ldrb	r3, [r7, #15]
 80016e2:	461a      	mov	r2, r3
 80016e4:	21f4      	movs	r1, #244	; 0xf4
 80016e6:	6878      	ldr	r0, [r7, #4]
 80016e8:	f7ff ff71 	bl	80015ce <Write8>
}
 80016ec:	bf00      	nop
 80016ee:	3710      	adds	r7, #16
 80016f0:	46bd      	mov	sp, r7
 80016f2:	bd80      	pop	{r7, pc}

080016f4 <BMP280_SetPressureOversampling>:

//
// Set pressure oversampling in Control register
//
void BMP280_SetPressureOversampling(BMP280_t *bmp, uint8_t POversampling)
{
 80016f4:	b580      	push	{r7, lr}
 80016f6:	b084      	sub	sp, #16
 80016f8:	af00      	add	r7, sp, #0
 80016fa:	6078      	str	r0, [r7, #4]
 80016fc:	460b      	mov	r3, r1
 80016fe:	70fb      	strb	r3, [r7, #3]
	uint8_t Tmp;

	if(POversampling > 5) POversampling = 5;
 8001700:	78fb      	ldrb	r3, [r7, #3]
 8001702:	2b05      	cmp	r3, #5
 8001704:	d901      	bls.n	800170a <BMP280_SetPressureOversampling+0x16>
 8001706:	2305      	movs	r3, #5
 8001708:	70fb      	strb	r3, [r7, #3]

	Tmp = Read8(bmp, BMP280_CONTROL);
 800170a:	21f4      	movs	r1, #244	; 0xf4
 800170c:	6878      	ldr	r0, [r7, #4]
 800170e:	f7ff ff3f 	bl	8001590 <Read8>
 8001712:	4603      	mov	r3, r0
 8001714:	73fb      	strb	r3, [r7, #15]

	Tmp = Tmp & 0xE3; // Tmp (xxx0 00xx)
 8001716:	7bfb      	ldrb	r3, [r7, #15]
 8001718:	f023 031c 	bic.w	r3, r3, #28
 800171c:	73fb      	strb	r3, [r7, #15]
	Tmp |= ((POversampling << 2) & 0x1C);  // (0001 1100)
 800171e:	78fb      	ldrb	r3, [r7, #3]
 8001720:	009b      	lsls	r3, r3, #2
 8001722:	b25b      	sxtb	r3, r3
 8001724:	f003 031c 	and.w	r3, r3, #28
 8001728:	b25a      	sxtb	r2, r3
 800172a:	f997 300f 	ldrsb.w	r3, [r7, #15]
 800172e:	4313      	orrs	r3, r2
 8001730:	b25b      	sxtb	r3, r3
 8001732:	73fb      	strb	r3, [r7, #15]

	Write8(bmp, BMP280_CONTROL, Tmp);
 8001734:	7bfb      	ldrb	r3, [r7, #15]
 8001736:	461a      	mov	r2, r3
 8001738:	21f4      	movs	r1, #244	; 0xf4
 800173a:	6878      	ldr	r0, [r7, #4]
 800173c:	f7ff ff47 	bl	80015ce <Write8>
}
 8001740:	bf00      	nop
 8001742:	3710      	adds	r7, #16
 8001744:	46bd      	mov	sp, r7
 8001746:	bd80      	pop	{r7, pc}

08001748 <BMP280_SetTemperatureOversampling>:

//
// Set temperature oversampling in Control register
//
void BMP280_SetTemperatureOversampling(BMP280_t *bmp, uint8_t TOversampling)
{
 8001748:	b580      	push	{r7, lr}
 800174a:	b084      	sub	sp, #16
 800174c:	af00      	add	r7, sp, #0
 800174e:	6078      	str	r0, [r7, #4]
 8001750:	460b      	mov	r3, r1
 8001752:	70fb      	strb	r3, [r7, #3]
	uint8_t Tmp;

	if(TOversampling > 5) TOversampling = 5;
 8001754:	78fb      	ldrb	r3, [r7, #3]
 8001756:	2b05      	cmp	r3, #5
 8001758:	d901      	bls.n	800175e <BMP280_SetTemperatureOversampling+0x16>
 800175a:	2305      	movs	r3, #5
 800175c:	70fb      	strb	r3, [r7, #3]

	Tmp = Read8(bmp, BMP280_CONTROL);
 800175e:	21f4      	movs	r1, #244	; 0xf4
 8001760:	6878      	ldr	r0, [r7, #4]
 8001762:	f7ff ff15 	bl	8001590 <Read8>
 8001766:	4603      	mov	r3, r0
 8001768:	73fb      	strb	r3, [r7, #15]

	Tmp = Tmp & 0x1F; // Tmp (000x xxxx)
 800176a:	7bfb      	ldrb	r3, [r7, #15]
 800176c:	f003 031f 	and.w	r3, r3, #31
 8001770:	73fb      	strb	r3, [r7, #15]
	Tmp |= ((TOversampling << 5) & 0xE0) ;  // (1110 0000)
 8001772:	78fb      	ldrb	r3, [r7, #3]
 8001774:	015b      	lsls	r3, r3, #5
 8001776:	b25a      	sxtb	r2, r3
 8001778:	f997 300f 	ldrsb.w	r3, [r7, #15]
 800177c:	4313      	orrs	r3, r2
 800177e:	b25b      	sxtb	r3, r3
 8001780:	73fb      	strb	r3, [r7, #15]

	Write8(bmp, BMP280_CONTROL, Tmp);
 8001782:	7bfb      	ldrb	r3, [r7, #15]
 8001784:	461a      	mov	r2, r3
 8001786:	21f4      	movs	r1, #244	; 0xf4
 8001788:	6878      	ldr	r0, [r7, #4]
 800178a:	f7ff ff20 	bl	80015ce <Write8>
}
 800178e:	bf00      	nop
 8001790:	3710      	adds	r7, #16
 8001792:	46bd      	mov	sp, r7
 8001794:	bd80      	pop	{r7, pc}

08001796 <BMP280_ReadTemperatureRaw>:

//
// Read Raw temperature data from BMP280
//
int32_t BMP280_ReadTemperatureRaw(BMP280_t *bmp)
{
 8001796:	b580      	push	{r7, lr}
 8001798:	b084      	sub	sp, #16
 800179a:	af00      	add	r7, sp, #0
 800179c:	6078      	str	r0, [r7, #4]
	int32_t Tmp;

	Tmp = (int32_t)Read24(bmp, BMP280_TEMPDATA);
 800179e:	21fa      	movs	r1, #250	; 0xfa
 80017a0:	6878      	ldr	r0, [r7, #4]
 80017a2:	f7ff ff59 	bl	8001658 <Read24>
 80017a6:	4603      	mov	r3, r0
 80017a8:	60fb      	str	r3, [r7, #12]

	Tmp >>= 4; // Move 4 left due to such storing (Datasheet).
 80017aa:	68fb      	ldr	r3, [r7, #12]
 80017ac:	111b      	asrs	r3, r3, #4
 80017ae:	60fb      	str	r3, [r7, #12]

	return Tmp;
 80017b0:	68fb      	ldr	r3, [r7, #12]
}
 80017b2:	4618      	mov	r0, r3
 80017b4:	3710      	adds	r7, #16
 80017b6:	46bd      	mov	sp, r7
 80017b8:	bd80      	pop	{r7, pc}

080017ba <BMP280_ReadPressureRaw>:

//
// Read Raw pressure data from BMP280
//
int32_t BMP280_ReadPressureRaw(BMP280_t *bmp)
{
 80017ba:	b580      	push	{r7, lr}
 80017bc:	b084      	sub	sp, #16
 80017be:	af00      	add	r7, sp, #0
 80017c0:	6078      	str	r0, [r7, #4]
	int32_t Tmp;

	Tmp = (int32_t)Read24(bmp, BMP280_PRESSUREDATA);
 80017c2:	21f7      	movs	r1, #247	; 0xf7
 80017c4:	6878      	ldr	r0, [r7, #4]
 80017c6:	f7ff ff47 	bl	8001658 <Read24>
 80017ca:	4603      	mov	r3, r0
 80017cc:	60fb      	str	r3, [r7, #12]

	Tmp >>= 4; // Move 4 left due to such storing (Datasheet).
 80017ce:	68fb      	ldr	r3, [r7, #12]
 80017d0:	111b      	asrs	r3, r3, #4
 80017d2:	60fb      	str	r3, [r7, #12]

	return Tmp;
 80017d4:	68fb      	ldr	r3, [r7, #12]
}
 80017d6:	4618      	mov	r0, r3
 80017d8:	3710      	adds	r7, #16
 80017da:	46bd      	mov	sp, r7
 80017dc:	bd80      	pop	{r7, pc}
	...

080017e0 <BMP280_ReadTemperature>:
//
// Read and calculate temperature
// Whole procedure is taken from BMP280 Datasheet
//
float BMP280_ReadTemperature(BMP280_t *bmp)
{
 80017e0:	b590      	push	{r4, r7, lr}
 80017e2:	b087      	sub	sp, #28
 80017e4:	af00      	add	r7, sp, #0
 80017e6:	6078      	str	r0, [r7, #4]
	int32_t var1, var2, T;

	int32_t adc_T;

	adc_T = BMP280_ReadTemperatureRaw(bmp);
 80017e8:	6878      	ldr	r0, [r7, #4]
 80017ea:	f7ff ffd4 	bl	8001796 <BMP280_ReadTemperatureRaw>
 80017ee:	6178      	str	r0, [r7, #20]

	var1 = ((((adc_T>>3) - ((int32_t)(bmp->t1)<<1))) * ((int32_t)(bmp->t2))) >> 11;
 80017f0:	697b      	ldr	r3, [r7, #20]
 80017f2:	10da      	asrs	r2, r3, #3
 80017f4:	687b      	ldr	r3, [r7, #4]
 80017f6:	8b5b      	ldrh	r3, [r3, #26]
 80017f8:	005b      	lsls	r3, r3, #1
 80017fa:	1ad3      	subs	r3, r2, r3
 80017fc:	687a      	ldr	r2, [r7, #4]
 80017fe:	f9b2 2006 	ldrsh.w	r2, [r2, #6]
 8001802:	fb02 f303 	mul.w	r3, r2, r3
 8001806:	12db      	asrs	r3, r3, #11
 8001808:	613b      	str	r3, [r7, #16]

	var2 = (((((adc_T>>4) - ((int32_t)(bmp->t1))) * ((adc_T>>4) - ((int32_t)(bmp->t1)))) >> 12) *
 800180a:	697b      	ldr	r3, [r7, #20]
 800180c:	111b      	asrs	r3, r3, #4
 800180e:	687a      	ldr	r2, [r7, #4]
 8001810:	8b52      	ldrh	r2, [r2, #26]
 8001812:	1a9b      	subs	r3, r3, r2
 8001814:	697a      	ldr	r2, [r7, #20]
 8001816:	1112      	asrs	r2, r2, #4
 8001818:	6879      	ldr	r1, [r7, #4]
 800181a:	8b49      	ldrh	r1, [r1, #26]
 800181c:	1a52      	subs	r2, r2, r1
 800181e:	fb02 f303 	mul.w	r3, r2, r3
 8001822:	131b      	asrs	r3, r3, #12
	((int32_t)(bmp->t3))) >> 14;
 8001824:	687a      	ldr	r2, [r7, #4]
 8001826:	f9b2 2008 	ldrsh.w	r2, [r2, #8]
	var2 = (((((adc_T>>4) - ((int32_t)(bmp->t1))) * ((adc_T>>4) - ((int32_t)(bmp->t1)))) >> 12) *
 800182a:	fb02 f303 	mul.w	r3, r2, r3
 800182e:	139b      	asrs	r3, r3, #14
 8001830:	60fb      	str	r3, [r7, #12]

	bmp->t_fine = var1 + var2;
 8001832:	693a      	ldr	r2, [r7, #16]
 8001834:	68fb      	ldr	r3, [r7, #12]
 8001836:	441a      	add	r2, r3
 8001838:	687b      	ldr	r3, [r7, #4]
 800183a:	621a      	str	r2, [r3, #32]

	T = ((bmp->t_fine) * 5 + 128) >> 8;
 800183c:	687b      	ldr	r3, [r7, #4]
 800183e:	6a1a      	ldr	r2, [r3, #32]
 8001840:	4613      	mov	r3, r2
 8001842:	009b      	lsls	r3, r3, #2
 8001844:	4413      	add	r3, r2
 8001846:	3380      	adds	r3, #128	; 0x80
 8001848:	121b      	asrs	r3, r3, #8
 800184a:	60bb      	str	r3, [r7, #8]

	return (float)(T/100.0);
 800184c:	68b8      	ldr	r0, [r7, #8]
 800184e:	f7fe fe21 	bl	8000494 <__aeabi_i2d>
 8001852:	f04f 0200 	mov.w	r2, #0
 8001856:	4b08      	ldr	r3, [pc, #32]	; (8001878 <BMP280_ReadTemperature+0x98>)
 8001858:	f7fe ffb0 	bl	80007bc <__aeabi_ddiv>
 800185c:	4603      	mov	r3, r0
 800185e:	460c      	mov	r4, r1
 8001860:	4618      	mov	r0, r3
 8001862:	4621      	mov	r1, r4
 8001864:	f7ff f978 	bl	8000b58 <__aeabi_d2f>
 8001868:	4603      	mov	r3, r0
 800186a:	ee07 3a90 	vmov	s15, r3
}
 800186e:	eeb0 0a67 	vmov.f32	s0, s15
 8001872:	371c      	adds	r7, #28
 8001874:	46bd      	mov	sp, r7
 8001876:	bd90      	pop	{r4, r7, pc}
 8001878:	40590000 	.word	0x40590000

0800187c <BMP280_ReadPressureAndTemperature>:
//
// Read and calculate temperature & pressure
// Whole procedure is taken from BMP280 Datasheet
//
uint8_t BMP280_ReadPressureAndTemperature(BMP280_t *bmp, float *Pressure, float *Temperature)
{
 800187c:	b590      	push	{r4, r7, lr}
 800187e:	b089      	sub	sp, #36	; 0x24
 8001880:	af00      	add	r7, sp, #0
 8001882:	60f8      	str	r0, [r7, #12]
 8001884:	60b9      	str	r1, [r7, #8]
 8001886:	607a      	str	r2, [r7, #4]
	// Have to read temperature first
	*Temperature = BMP280_ReadTemperature(bmp);
 8001888:	68f8      	ldr	r0, [r7, #12]
 800188a:	f7ff ffa9 	bl	80017e0 <BMP280_ReadTemperature>
 800188e:	eef0 7a40 	vmov.f32	s15, s0
 8001892:	687b      	ldr	r3, [r7, #4]
 8001894:	edc3 7a00 	vstr	s15, [r3]

	int32_t var1, var2;
	uint32_t p;

	var1 = (((int32_t)(bmp->t_fine))>>1) - (int32_t)64000;
 8001898:	68fb      	ldr	r3, [r7, #12]
 800189a:	6a1b      	ldr	r3, [r3, #32]
 800189c:	105b      	asrs	r3, r3, #1
 800189e:	f5a3 437a 	sub.w	r3, r3, #64000	; 0xfa00
 80018a2:	61bb      	str	r3, [r7, #24]
	var2 = (((var1>>2) * (var1>>2)) >> 11 ) * ((int32_t)(bmp->p6));
 80018a4:	69bb      	ldr	r3, [r7, #24]
 80018a6:	109b      	asrs	r3, r3, #2
 80018a8:	69ba      	ldr	r2, [r7, #24]
 80018aa:	1092      	asrs	r2, r2, #2
 80018ac:	fb02 f303 	mul.w	r3, r2, r3
 80018b0:	12db      	asrs	r3, r3, #11
 80018b2:	68fa      	ldr	r2, [r7, #12]
 80018b4:	f9b2 2012 	ldrsh.w	r2, [r2, #18]
 80018b8:	fb02 f303 	mul.w	r3, r2, r3
 80018bc:	617b      	str	r3, [r7, #20]
	var2 = var2 + ((var1*((int32_t)(bmp->p5)))<<1);
 80018be:	68fb      	ldr	r3, [r7, #12]
 80018c0:	f9b3 3010 	ldrsh.w	r3, [r3, #16]
 80018c4:	461a      	mov	r2, r3
 80018c6:	69bb      	ldr	r3, [r7, #24]
 80018c8:	fb03 f302 	mul.w	r3, r3, r2
 80018cc:	005b      	lsls	r3, r3, #1
 80018ce:	697a      	ldr	r2, [r7, #20]
 80018d0:	4413      	add	r3, r2
 80018d2:	617b      	str	r3, [r7, #20]
	var2 = (var2>>2)+(((int32_t)(bmp->p4))<<16);
 80018d4:	697b      	ldr	r3, [r7, #20]
 80018d6:	109a      	asrs	r2, r3, #2
 80018d8:	68fb      	ldr	r3, [r7, #12]
 80018da:	f9b3 300e 	ldrsh.w	r3, [r3, #14]
 80018de:	041b      	lsls	r3, r3, #16
 80018e0:	4413      	add	r3, r2
 80018e2:	617b      	str	r3, [r7, #20]
	var1 = ((((bmp->p3) * (((var1>>2) * (var1>>2)) >> 13 )) >> 3) + ((((int32_t)(bmp->p2)) * var1)>>1))>>18;
 80018e4:	68fb      	ldr	r3, [r7, #12]
 80018e6:	f9b3 300c 	ldrsh.w	r3, [r3, #12]
 80018ea:	4619      	mov	r1, r3
 80018ec:	69bb      	ldr	r3, [r7, #24]
 80018ee:	109b      	asrs	r3, r3, #2
 80018f0:	69ba      	ldr	r2, [r7, #24]
 80018f2:	1092      	asrs	r2, r2, #2
 80018f4:	fb02 f303 	mul.w	r3, r2, r3
 80018f8:	135b      	asrs	r3, r3, #13
 80018fa:	fb03 f301 	mul.w	r3, r3, r1
 80018fe:	10da      	asrs	r2, r3, #3
 8001900:	68fb      	ldr	r3, [r7, #12]
 8001902:	f9b3 300a 	ldrsh.w	r3, [r3, #10]
 8001906:	4619      	mov	r1, r3
 8001908:	69bb      	ldr	r3, [r7, #24]
 800190a:	fb03 f301 	mul.w	r3, r3, r1
 800190e:	105b      	asrs	r3, r3, #1
 8001910:	4413      	add	r3, r2
 8001912:	149b      	asrs	r3, r3, #18
 8001914:	61bb      	str	r3, [r7, #24]
	var1 =((((32768+var1))*((int32_t)(bmp->p1)))>>15);
 8001916:	69bb      	ldr	r3, [r7, #24]
 8001918:	f503 4300 	add.w	r3, r3, #32768	; 0x8000
 800191c:	68fa      	ldr	r2, [r7, #12]
 800191e:	8b92      	ldrh	r2, [r2, #28]
 8001920:	fb02 f303 	mul.w	r3, r2, r3
 8001924:	13db      	asrs	r3, r3, #15
 8001926:	61bb      	str	r3, [r7, #24]

	if (var1 == 0)
 8001928:	69bb      	ldr	r3, [r7, #24]
 800192a:	2b00      	cmp	r3, #0
 800192c:	d101      	bne.n	8001932 <BMP280_ReadPressureAndTemperature+0xb6>
	{
		return 1; // avoid exception caused by division by zero
 800192e:	2301      	movs	r3, #1
 8001930:	e054      	b.n	80019dc <BMP280_ReadPressureAndTemperature+0x160>
	}

	// Raw pressure from BMP's ADC
	int32_t adc_P = BMP280_ReadPressureRaw(bmp);
 8001932:	68f8      	ldr	r0, [r7, #12]
 8001934:	f7ff ff41 	bl	80017ba <BMP280_ReadPressureRaw>
 8001938:	6138      	str	r0, [r7, #16]

	p = (((int32_t)(((int32_t)1048576)-adc_P)-(var2>>12)))*3125;
 800193a:	693b      	ldr	r3, [r7, #16]
 800193c:	f5c3 1280 	rsb	r2, r3, #1048576	; 0x100000
 8001940:	697b      	ldr	r3, [r7, #20]
 8001942:	131b      	asrs	r3, r3, #12
 8001944:	1ad3      	subs	r3, r2, r3
 8001946:	f640 4235 	movw	r2, #3125	; 0xc35
 800194a:	fb02 f303 	mul.w	r3, r2, r3
 800194e:	61fb      	str	r3, [r7, #28]
	if (p < 0x80000000)
 8001950:	69fb      	ldr	r3, [r7, #28]
 8001952:	2b00      	cmp	r3, #0
 8001954:	db06      	blt.n	8001964 <BMP280_ReadPressureAndTemperature+0xe8>
	{
		p = (p << 1) / ((uint32_t)var1);
 8001956:	69fb      	ldr	r3, [r7, #28]
 8001958:	005a      	lsls	r2, r3, #1
 800195a:	69bb      	ldr	r3, [r7, #24]
 800195c:	fbb2 f3f3 	udiv	r3, r2, r3
 8001960:	61fb      	str	r3, [r7, #28]
 8001962:	e005      	b.n	8001970 <BMP280_ReadPressureAndTemperature+0xf4>
	}
	else
	{
		p = (p / (uint32_t)var1) * 2;
 8001964:	69bb      	ldr	r3, [r7, #24]
 8001966:	69fa      	ldr	r2, [r7, #28]
 8001968:	fbb2 f3f3 	udiv	r3, r2, r3
 800196c:	005b      	lsls	r3, r3, #1
 800196e:	61fb      	str	r3, [r7, #28]
	}
	var1 = (((int32_t)(bmp->p9)) * ((int32_t)(((p>>3) * (p>>3))>>13)))>>12;
 8001970:	68fb      	ldr	r3, [r7, #12]
 8001972:	f9b3 3018 	ldrsh.w	r3, [r3, #24]
 8001976:	4619      	mov	r1, r3
 8001978:	69fb      	ldr	r3, [r7, #28]
 800197a:	08db      	lsrs	r3, r3, #3
 800197c:	69fa      	ldr	r2, [r7, #28]
 800197e:	08d2      	lsrs	r2, r2, #3
 8001980:	fb02 f303 	mul.w	r3, r2, r3
 8001984:	0b5b      	lsrs	r3, r3, #13
 8001986:	fb03 f301 	mul.w	r3, r3, r1
 800198a:	131b      	asrs	r3, r3, #12
 800198c:	61bb      	str	r3, [r7, #24]
	var2 = (((int32_t)(p>>2)) * ((int32_t)(bmp->p8)))>>13;
 800198e:	69fb      	ldr	r3, [r7, #28]
 8001990:	089b      	lsrs	r3, r3, #2
 8001992:	461a      	mov	r2, r3
 8001994:	68fb      	ldr	r3, [r7, #12]
 8001996:	f9b3 3016 	ldrsh.w	r3, [r3, #22]
 800199a:	fb03 f302 	mul.w	r3, r3, r2
 800199e:	135b      	asrs	r3, r3, #13
 80019a0:	617b      	str	r3, [r7, #20]

	p = (uint32_t)((int32_t)p + ((var1 + var2 + (bmp->p7)) >> 4));
 80019a2:	69ba      	ldr	r2, [r7, #24]
 80019a4:	697b      	ldr	r3, [r7, #20]
 80019a6:	4413      	add	r3, r2
 80019a8:	68fa      	ldr	r2, [r7, #12]
 80019aa:	f9b2 2014 	ldrsh.w	r2, [r2, #20]
 80019ae:	4413      	add	r3, r2
 80019b0:	111a      	asrs	r2, r3, #4
 80019b2:	69fb      	ldr	r3, [r7, #28]
 80019b4:	4413      	add	r3, r2
 80019b6:	61fb      	str	r3, [r7, #28]

	// Convert Pa to hPa
	*Pressure = (float)(p/100.0);
 80019b8:	69f8      	ldr	r0, [r7, #28]
 80019ba:	f7fe fd5b 	bl	8000474 <__aeabi_ui2d>
 80019be:	f04f 0200 	mov.w	r2, #0
 80019c2:	4b08      	ldr	r3, [pc, #32]	; (80019e4 <BMP280_ReadPressureAndTemperature+0x168>)
 80019c4:	f7fe fefa 	bl	80007bc <__aeabi_ddiv>
 80019c8:	4603      	mov	r3, r0
 80019ca:	460c      	mov	r4, r1
 80019cc:	4618      	mov	r0, r3
 80019ce:	4621      	mov	r1, r4
 80019d0:	f7ff f8c2 	bl	8000b58 <__aeabi_d2f>
 80019d4:	4602      	mov	r2, r0
 80019d6:	68bb      	ldr	r3, [r7, #8]
 80019d8:	601a      	str	r2, [r3, #0]

	return 0;
 80019da:	2300      	movs	r3, #0
}
 80019dc:	4618      	mov	r0, r3
 80019de:	3724      	adds	r7, #36	; 0x24
 80019e0:	46bd      	mov	sp, r7
 80019e2:	bd90      	pop	{r4, r7, pc}
 80019e4:	40590000 	.word	0x40590000

080019e8 <BMP280_Init>:

//
// Init
//
uint8_t BMP280_Init(BMP280_t *bmp, I2C_HandleTypeDef *i2c, uint8_t Address)
{
 80019e8:	b580      	push	{r7, lr}
 80019ea:	b086      	sub	sp, #24
 80019ec:	af00      	add	r7, sp, #0
 80019ee:	60f8      	str	r0, [r7, #12]
 80019f0:	60b9      	str	r1, [r7, #8]
 80019f2:	4613      	mov	r3, r2
 80019f4:	71fb      	strb	r3, [r7, #7]
	uint8_t ChipID;

	// Save I2C handler and address
	bmp->bmp_i2c = i2c;
 80019f6:	68fb      	ldr	r3, [r7, #12]
 80019f8:	68ba      	ldr	r2, [r7, #8]
 80019fa:	601a      	str	r2, [r3, #0]
	bmp->Address = Address;
 80019fc:	68fb      	ldr	r3, [r7, #12]
 80019fe:	79fa      	ldrb	r2, [r7, #7]
 8001a00:	711a      	strb	r2, [r3, #4]

	//Read Chip ID
	ChipID = Read8(bmp, BMP280_CHIPID);
 8001a02:	21d0      	movs	r1, #208	; 0xd0
 8001a04:	68f8      	ldr	r0, [r7, #12]
 8001a06:	f7ff fdc3 	bl	8001590 <Read8>
 8001a0a:	4603      	mov	r3, r0
 8001a0c:	75fb      	strb	r3, [r7, #23]

	// Check if ID is correct
	if(ChipID != 0x58)
 8001a0e:	7dfb      	ldrb	r3, [r7, #23]
 8001a10:	2b58      	cmp	r3, #88	; 0x58
 8001a12:	d001      	beq.n	8001a18 <BMP280_Init+0x30>
	{
		return 1;
 8001a14:	2301      	movs	r3, #1
 8001a16:	e06c      	b.n	8001af2 <BMP280_Init+0x10a>
	}

	// Read all coefficients
	bmp->t1 = Read16(bmp, BMP280_DIG_T1);
 8001a18:	2188      	movs	r1, #136	; 0x88
 8001a1a:	68f8      	ldr	r0, [r7, #12]
 8001a1c:	f7ff fdf6 	bl	800160c <Read16>
 8001a20:	4603      	mov	r3, r0
 8001a22:	461a      	mov	r2, r3
 8001a24:	68fb      	ldr	r3, [r7, #12]
 8001a26:	835a      	strh	r2, [r3, #26]
	bmp->t2 = Read16(bmp, BMP280_DIG_T2);
 8001a28:	218a      	movs	r1, #138	; 0x8a
 8001a2a:	68f8      	ldr	r0, [r7, #12]
 8001a2c:	f7ff fdee 	bl	800160c <Read16>
 8001a30:	4603      	mov	r3, r0
 8001a32:	b21a      	sxth	r2, r3
 8001a34:	68fb      	ldr	r3, [r7, #12]
 8001a36:	80da      	strh	r2, [r3, #6]
	bmp->t3 = Read16(bmp, BMP280_DIG_T3);
 8001a38:	218c      	movs	r1, #140	; 0x8c
 8001a3a:	68f8      	ldr	r0, [r7, #12]
 8001a3c:	f7ff fde6 	bl	800160c <Read16>
 8001a40:	4603      	mov	r3, r0
 8001a42:	b21a      	sxth	r2, r3
 8001a44:	68fb      	ldr	r3, [r7, #12]
 8001a46:	811a      	strh	r2, [r3, #8]

	bmp->p1 = Read16(bmp, BMP280_DIG_P1);
 8001a48:	218e      	movs	r1, #142	; 0x8e
 8001a4a:	68f8      	ldr	r0, [r7, #12]
 8001a4c:	f7ff fdde 	bl	800160c <Read16>
 8001a50:	4603      	mov	r3, r0
 8001a52:	461a      	mov	r2, r3
 8001a54:	68fb      	ldr	r3, [r7, #12]
 8001a56:	839a      	strh	r2, [r3, #28]
	bmp->p2 = Read16(bmp, BMP280_DIG_P2);
 8001a58:	2190      	movs	r1, #144	; 0x90
 8001a5a:	68f8      	ldr	r0, [r7, #12]
 8001a5c:	f7ff fdd6 	bl	800160c <Read16>
 8001a60:	4603      	mov	r3, r0
 8001a62:	b21a      	sxth	r2, r3
 8001a64:	68fb      	ldr	r3, [r7, #12]
 8001a66:	815a      	strh	r2, [r3, #10]
	bmp->p3 = Read16(bmp, BMP280_DIG_P3);
 8001a68:	2192      	movs	r1, #146	; 0x92
 8001a6a:	68f8      	ldr	r0, [r7, #12]
 8001a6c:	f7ff fdce 	bl	800160c <Read16>
 8001a70:	4603      	mov	r3, r0
 8001a72:	b21a      	sxth	r2, r3
 8001a74:	68fb      	ldr	r3, [r7, #12]
 8001a76:	819a      	strh	r2, [r3, #12]
	bmp->p4 = Read16(bmp, BMP280_DIG_P4);
 8001a78:	2194      	movs	r1, #148	; 0x94
 8001a7a:	68f8      	ldr	r0, [r7, #12]
 8001a7c:	f7ff fdc6 	bl	800160c <Read16>
 8001a80:	4603      	mov	r3, r0
 8001a82:	b21a      	sxth	r2, r3
 8001a84:	68fb      	ldr	r3, [r7, #12]
 8001a86:	81da      	strh	r2, [r3, #14]
	bmp->p5 = Read16(bmp, BMP280_DIG_P5);
 8001a88:	2196      	movs	r1, #150	; 0x96
 8001a8a:	68f8      	ldr	r0, [r7, #12]
 8001a8c:	f7ff fdbe 	bl	800160c <Read16>
 8001a90:	4603      	mov	r3, r0
 8001a92:	b21a      	sxth	r2, r3
 8001a94:	68fb      	ldr	r3, [r7, #12]
 8001a96:	821a      	strh	r2, [r3, #16]
	bmp->p6 = Read16(bmp, BMP280_DIG_P6);
 8001a98:	2198      	movs	r1, #152	; 0x98
 8001a9a:	68f8      	ldr	r0, [r7, #12]
 8001a9c:	f7ff fdb6 	bl	800160c <Read16>
 8001aa0:	4603      	mov	r3, r0
 8001aa2:	b21a      	sxth	r2, r3
 8001aa4:	68fb      	ldr	r3, [r7, #12]
 8001aa6:	825a      	strh	r2, [r3, #18]
	bmp->p7 = Read16(bmp, BMP280_DIG_P7);
 8001aa8:	219a      	movs	r1, #154	; 0x9a
 8001aaa:	68f8      	ldr	r0, [r7, #12]
 8001aac:	f7ff fdae 	bl	800160c <Read16>
 8001ab0:	4603      	mov	r3, r0
 8001ab2:	b21a      	sxth	r2, r3
 8001ab4:	68fb      	ldr	r3, [r7, #12]
 8001ab6:	829a      	strh	r2, [r3, #20]
	bmp->p8 = Read16(bmp, BMP280_DIG_P8);
 8001ab8:	219c      	movs	r1, #156	; 0x9c
 8001aba:	68f8      	ldr	r0, [r7, #12]
 8001abc:	f7ff fda6 	bl	800160c <Read16>
 8001ac0:	4603      	mov	r3, r0
 8001ac2:	b21a      	sxth	r2, r3
 8001ac4:	68fb      	ldr	r3, [r7, #12]
 8001ac6:	82da      	strh	r2, [r3, #22]
	bmp->p9 = Read16(bmp, BMP280_DIG_P9);
 8001ac8:	219e      	movs	r1, #158	; 0x9e
 8001aca:	68f8      	ldr	r0, [r7, #12]
 8001acc:	f7ff fd9e 	bl	800160c <Read16>
 8001ad0:	4603      	mov	r3, r0
 8001ad2:	b21a      	sxth	r2, r3
 8001ad4:	68fb      	ldr	r3, [r7, #12]
 8001ad6:	831a      	strh	r2, [r3, #24]

	// Set base settings
	BMP280_SetTemperatureOversampling(bmp, BMP280_TEMPERATURE_20BIT);
 8001ad8:	2105      	movs	r1, #5
 8001ada:	68f8      	ldr	r0, [r7, #12]
 8001adc:	f7ff fe34 	bl	8001748 <BMP280_SetTemperatureOversampling>
	BMP280_SetPressureOversampling(bmp, BMP280_ULTRAHIGHRES);
 8001ae0:	2105      	movs	r1, #5
 8001ae2:	68f8      	ldr	r0, [r7, #12]
 8001ae4:	f7ff fe06 	bl	80016f4 <BMP280_SetPressureOversampling>
	BMP280_SetMode(bmp, BMP280_NORMALMODE);
 8001ae8:	2103      	movs	r1, #3
 8001aea:	68f8      	ldr	r0, [r7, #12]
 8001aec:	f7ff fdd9 	bl	80016a2 <BMP280_SetMode>

	return 0;
 8001af0:	2300      	movs	r3, #0
}
 8001af2:	4618      	mov	r0, r3
 8001af4:	3718      	adds	r7, #24
 8001af6:	46bd      	mov	sp, r7
 8001af8:	bd80      	pop	{r7, pc}
	...

08001afc <_putchar>:
};

/* Private function prototypes -----------------------------------------------*/
/* USER CODE BEGIN FunctionPrototypes */
void _putchar(char character)
{
 8001afc:	b580      	push	{r7, lr}
 8001afe:	b082      	sub	sp, #8
 8001b00:	af00      	add	r7, sp, #0
 8001b02:	4603      	mov	r3, r0
 8001b04:	71fb      	strb	r3, [r7, #7]
  // send char to console etc.
	osMutexAcquire(MutexPrintfHandle, osWaitForever);
 8001b06:	4b0b      	ldr	r3, [pc, #44]	; (8001b34 <_putchar+0x38>)
 8001b08:	681b      	ldr	r3, [r3, #0]
 8001b0a:	f04f 31ff 	mov.w	r1, #4294967295
 8001b0e:	4618      	mov	r0, r3
 8001b10:	f005 fc1a 	bl	8007348 <osMutexAcquire>
	HAL_UART_Transmit(&huart2, (uint8_t*)&character, 1, 1000);
 8001b14:	1df9      	adds	r1, r7, #7
 8001b16:	f44f 737a 	mov.w	r3, #1000	; 0x3e8
 8001b1a:	2201      	movs	r2, #1
 8001b1c:	4806      	ldr	r0, [pc, #24]	; (8001b38 <_putchar+0x3c>)
 8001b1e:	f004 fdd4 	bl	80066ca <HAL_UART_Transmit>
	osMutexRelease(MutexPrintfHandle);
 8001b22:	4b04      	ldr	r3, [pc, #16]	; (8001b34 <_putchar+0x38>)
 8001b24:	681b      	ldr	r3, [r3, #0]
 8001b26:	4618      	mov	r0, r3
 8001b28:	f005 fc6c 	bl	8007404 <osMutexRelease>
}
 8001b2c:	bf00      	nop
 8001b2e:	3708      	adds	r7, #8
 8001b30:	46bd      	mov	sp, r7
 8001b32:	bd80      	pop	{r7, pc}
 8001b34:	20004f28 	.word	0x20004f28
 8001b38:	20004fd4 	.word	0x20004fd4

08001b3c <MX_FREERTOS_Init>:
/**
  * @brief  FreeRTOS initialization
  * @param  None
  * @retval None
  */
void MX_FREERTOS_Init(void) {
 8001b3c:	b580      	push	{r7, lr}
 8001b3e:	af00      	add	r7, sp, #0
  /* USER CODE BEGIN Init */

  /* USER CODE END Init */
  /* Create the mutex(es) */
  /* creation of MutexPrintf */
  MutexPrintfHandle = osMutexNew(&MutexPrintf_attributes);
 8001b40:	4819      	ldr	r0, [pc, #100]	; (8001ba8 <MX_FREERTOS_Init+0x6c>)
 8001b42:	f005 fb67 	bl	8007214 <osMutexNew>
 8001b46:	4602      	mov	r2, r0
 8001b48:	4b18      	ldr	r3, [pc, #96]	; (8001bac <MX_FREERTOS_Init+0x70>)
 8001b4a:	601a      	str	r2, [r3, #0]

  /* creation of MutexI2C1 */
  MutexI2C1Handle = osMutexNew(&MutexI2C1_attributes);
 8001b4c:	4818      	ldr	r0, [pc, #96]	; (8001bb0 <MX_FREERTOS_Init+0x74>)
 8001b4e:	f005 fb61 	bl	8007214 <osMutexNew>
 8001b52:	4602      	mov	r2, r0
 8001b54:	4b17      	ldr	r3, [pc, #92]	; (8001bb4 <MX_FREERTOS_Init+0x78>)
 8001b56:	601a      	str	r2, [r3, #0]

  /* creation of MutexBmpData */
  MutexBmpDataHandle = osMutexNew(&MutexBmpData_attributes);
 8001b58:	4817      	ldr	r0, [pc, #92]	; (8001bb8 <MX_FREERTOS_Init+0x7c>)
 8001b5a:	f005 fb5b 	bl	8007214 <osMutexNew>
 8001b5e:	4602      	mov	r2, r0
 8001b60:	4b16      	ldr	r3, [pc, #88]	; (8001bbc <MX_FREERTOS_Init+0x80>)
 8001b62:	601a      	str	r2, [r3, #0]
  /* add queues, ... */
  /* USER CODE END RTOS_QUEUES */

  /* Create the thread(s) */
  /* creation of defaultTask */
  defaultTaskHandle = osThreadNew(StartDefaultTask, NULL, &defaultTask_attributes);
 8001b64:	4a16      	ldr	r2, [pc, #88]	; (8001bc0 <MX_FREERTOS_Init+0x84>)
 8001b66:	2100      	movs	r1, #0
 8001b68:	4816      	ldr	r0, [pc, #88]	; (8001bc4 <MX_FREERTOS_Init+0x88>)
 8001b6a:	f005 fa7f 	bl	800706c <osThreadNew>
 8001b6e:	4602      	mov	r2, r0
 8001b70:	4b15      	ldr	r3, [pc, #84]	; (8001bc8 <MX_FREERTOS_Init+0x8c>)
 8001b72:	601a      	str	r2, [r3, #0]

  /* creation of HeartbeatTask */
  HeartbeatTaskHandle = osThreadNew(StartHeartbeatTask, NULL, &HeartbeatTask_attributes);
 8001b74:	4a15      	ldr	r2, [pc, #84]	; (8001bcc <MX_FREERTOS_Init+0x90>)
 8001b76:	2100      	movs	r1, #0
 8001b78:	4815      	ldr	r0, [pc, #84]	; (8001bd0 <MX_FREERTOS_Init+0x94>)
 8001b7a:	f005 fa77 	bl	800706c <osThreadNew>
 8001b7e:	4602      	mov	r2, r0
 8001b80:	4b14      	ldr	r3, [pc, #80]	; (8001bd4 <MX_FREERTOS_Init+0x98>)
 8001b82:	601a      	str	r2, [r3, #0]

  /* creation of Bmp280Task */
  Bmp280TaskHandle = osThreadNew(StartBmp280Task, NULL, &Bmp280Task_attributes);
 8001b84:	4a14      	ldr	r2, [pc, #80]	; (8001bd8 <MX_FREERTOS_Init+0x9c>)
 8001b86:	2100      	movs	r1, #0
 8001b88:	4814      	ldr	r0, [pc, #80]	; (8001bdc <MX_FREERTOS_Init+0xa0>)
 8001b8a:	f005 fa6f 	bl	800706c <osThreadNew>
 8001b8e:	4602      	mov	r2, r0
 8001b90:	4b13      	ldr	r3, [pc, #76]	; (8001be0 <MX_FREERTOS_Init+0xa4>)
 8001b92:	601a      	str	r2, [r3, #0]

  /* creation of OledTask */
  OledTaskHandle = osThreadNew(StartOledTask, NULL, &OledTask_attributes);
 8001b94:	4a13      	ldr	r2, [pc, #76]	; (8001be4 <MX_FREERTOS_Init+0xa8>)
 8001b96:	2100      	movs	r1, #0
 8001b98:	4813      	ldr	r0, [pc, #76]	; (8001be8 <MX_FREERTOS_Init+0xac>)
 8001b9a:	f005 fa67 	bl	800706c <osThreadNew>
 8001b9e:	4602      	mov	r2, r0
 8001ba0:	4b12      	ldr	r3, [pc, #72]	; (8001bec <MX_FREERTOS_Init+0xb0>)
 8001ba2:	601a      	str	r2, [r3, #0]

  /* USER CODE BEGIN RTOS_EVENTS */
  /* add events, ... */
  /* USER CODE END RTOS_EVENTS */

}
 8001ba4:	bf00      	nop
 8001ba6:	bd80      	pop	{r7, pc}
 8001ba8:	0800c0ec 	.word	0x0800c0ec
 8001bac:	20004f28 	.word	0x20004f28
 8001bb0:	0800c0fc 	.word	0x0800c0fc
 8001bb4:	20004f2c 	.word	0x20004f2c
 8001bb8:	0800c10c 	.word	0x0800c10c
 8001bbc:	20004f34 	.word	0x20004f34
 8001bc0:	0800c05c 	.word	0x0800c05c
 8001bc4:	08001bf1 	.word	0x08001bf1
 8001bc8:	20004f1c 	.word	0x20004f1c
 8001bcc:	0800c080 	.word	0x0800c080
 8001bd0:	08001c01 	.word	0x08001c01
 8001bd4:	20004f3c 	.word	0x20004f3c
 8001bd8:	0800c0a4 	.word	0x0800c0a4
 8001bdc:	08001c21 	.word	0x08001c21
 8001be0:	20004f30 	.word	0x20004f30
 8001be4:	0800c0c8 	.word	0x0800c0c8
 8001be8:	08001ce5 	.word	0x08001ce5
 8001bec:	20004f24 	.word	0x20004f24

08001bf0 <StartDefaultTask>:
  * @param  argument: Not used
  * @retval None
  */
/* USER CODE END Header_StartDefaultTask */
void StartDefaultTask(void *argument)
{
 8001bf0:	b580      	push	{r7, lr}
 8001bf2:	b082      	sub	sp, #8
 8001bf4:	af00      	add	r7, sp, #0
 8001bf6:	6078      	str	r0, [r7, #4]
  /* USER CODE BEGIN StartDefaultTask */
  /* Infinite loop */
  for(;;)
  {
    osDelay(1);
 8001bf8:	2001      	movs	r0, #1
 8001bfa:	f005 fadd 	bl	80071b8 <osDelay>
 8001bfe:	e7fb      	b.n	8001bf8 <StartDefaultTask+0x8>

08001c00 <StartHeartbeatTask>:
  * @param  argument: Not used
  * @retval None
  */
/* USER CODE END Header_StartHeartbeatTask */
void StartHeartbeatTask(void *argument)
{
 8001c00:	b580      	push	{r7, lr}
 8001c02:	b082      	sub	sp, #8
 8001c04:	af00      	add	r7, sp, #0
 8001c06:	6078      	str	r0, [r7, #4]
  /* USER CODE BEGIN StartHeartbeatTask */
  /* Infinite loop */
  for(;;)
  {
	  HAL_GPIO_TogglePin(LD2_GPIO_Port, LD2_Pin);
 8001c08:	2120      	movs	r1, #32
 8001c0a:	4804      	ldr	r0, [pc, #16]	; (8001c1c <StartHeartbeatTask+0x1c>)
 8001c0c:	f002 fc09 	bl	8004422 <HAL_GPIO_TogglePin>
	  osDelay(500);
 8001c10:	f44f 70fa 	mov.w	r0, #500	; 0x1f4
 8001c14:	f005 fad0 	bl	80071b8 <osDelay>
	  HAL_GPIO_TogglePin(LD2_GPIO_Port, LD2_Pin);
 8001c18:	e7f6      	b.n	8001c08 <StartHeartbeatTask+0x8>
 8001c1a:	bf00      	nop
 8001c1c:	40020000 	.word	0x40020000

08001c20 <StartBmp280Task>:
* @param argument: Not used
* @retval None
*/
/* USER CODE END Header_StartBmp280Task */
void StartBmp280Task(void *argument)
{
 8001c20:	b5f0      	push	{r4, r5, r6, r7, lr}
 8001c22:	b091      	sub	sp, #68	; 0x44
 8001c24:	af02      	add	r7, sp, #8
 8001c26:	6078      	str	r0, [r7, #4]
  /* USER CODE BEGIN StartBmp280Task */
	BMP280_t Bmp280;
	float _Pressure, _Temperature;

	osMutexAcquire(MutexI2C1Handle, osWaitForever);
 8001c28:	4b28      	ldr	r3, [pc, #160]	; (8001ccc <StartBmp280Task+0xac>)
 8001c2a:	681b      	ldr	r3, [r3, #0]
 8001c2c:	f04f 31ff 	mov.w	r1, #4294967295
 8001c30:	4618      	mov	r0, r3
 8001c32:	f005 fb89 	bl	8007348 <osMutexAcquire>
	BMP280_Init(&Bmp280, &hi2c1, 0x76);
 8001c36:	f107 0314 	add.w	r3, r7, #20
 8001c3a:	2276      	movs	r2, #118	; 0x76
 8001c3c:	4924      	ldr	r1, [pc, #144]	; (8001cd0 <StartBmp280Task+0xb0>)
 8001c3e:	4618      	mov	r0, r3
 8001c40:	f7ff fed2 	bl	80019e8 <BMP280_Init>
	osMutexRelease(MutexI2C1Handle);
 8001c44:	4b21      	ldr	r3, [pc, #132]	; (8001ccc <StartBmp280Task+0xac>)
 8001c46:	681b      	ldr	r3, [r3, #0]
 8001c48:	4618      	mov	r0, r3
 8001c4a:	f005 fbdb 	bl	8007404 <osMutexRelease>
  /* Infinite loop */
  for(;;)
  {
	  osMutexAcquire(MutexI2C1Handle, osWaitForever);
 8001c4e:	4b1f      	ldr	r3, [pc, #124]	; (8001ccc <StartBmp280Task+0xac>)
 8001c50:	681b      	ldr	r3, [r3, #0]
 8001c52:	f04f 31ff 	mov.w	r1, #4294967295
 8001c56:	4618      	mov	r0, r3
 8001c58:	f005 fb76 	bl	8007348 <osMutexAcquire>
	  BMP280_ReadPressureAndTemperature(&Bmp280, &_Pressure, &_Temperature);
 8001c5c:	f107 020c 	add.w	r2, r7, #12
 8001c60:	f107 0110 	add.w	r1, r7, #16
 8001c64:	f107 0314 	add.w	r3, r7, #20
 8001c68:	4618      	mov	r0, r3
 8001c6a:	f7ff fe07 	bl	800187c <BMP280_ReadPressureAndTemperature>
	  osMutexRelease(MutexI2C1Handle);
 8001c6e:	4b17      	ldr	r3, [pc, #92]	; (8001ccc <StartBmp280Task+0xac>)
 8001c70:	681b      	ldr	r3, [r3, #0]
 8001c72:	4618      	mov	r0, r3
 8001c74:	f005 fbc6 	bl	8007404 <osMutexRelease>

	  osMutexAcquire(MutexBmpDataHandle, osWaitForever);
 8001c78:	4b16      	ldr	r3, [pc, #88]	; (8001cd4 <StartBmp280Task+0xb4>)
 8001c7a:	681b      	ldr	r3, [r3, #0]
 8001c7c:	f04f 31ff 	mov.w	r1, #4294967295
 8001c80:	4618      	mov	r0, r3
 8001c82:	f005 fb61 	bl	8007348 <osMutexAcquire>
	  Pressure = _Pressure;
 8001c86:	693b      	ldr	r3, [r7, #16]
 8001c88:	4a13      	ldr	r2, [pc, #76]	; (8001cd8 <StartBmp280Task+0xb8>)
 8001c8a:	6013      	str	r3, [r2, #0]
	  Temperature = _Temperature;
 8001c8c:	68fb      	ldr	r3, [r7, #12]
 8001c8e:	4a13      	ldr	r2, [pc, #76]	; (8001cdc <StartBmp280Task+0xbc>)
 8001c90:	6013      	str	r3, [r2, #0]
	  osMutexRelease(MutexBmpDataHandle);
 8001c92:	4b10      	ldr	r3, [pc, #64]	; (8001cd4 <StartBmp280Task+0xb4>)
 8001c94:	681b      	ldr	r3, [r3, #0]
 8001c96:	4618      	mov	r0, r3
 8001c98:	f005 fbb4 	bl	8007404 <osMutexRelease>

	  printf("Temperature: %.2f, Pressure: %.2f\n\r", _Temperature, _Pressure);
 8001c9c:	68fb      	ldr	r3, [r7, #12]
 8001c9e:	4618      	mov	r0, r3
 8001ca0:	f7fe fc0a 	bl	80004b8 <__aeabi_f2d>
 8001ca4:	4605      	mov	r5, r0
 8001ca6:	460e      	mov	r6, r1
 8001ca8:	693b      	ldr	r3, [r7, #16]
 8001caa:	4618      	mov	r0, r3
 8001cac:	f7fe fc04 	bl	80004b8 <__aeabi_f2d>
 8001cb0:	4603      	mov	r3, r0
 8001cb2:	460c      	mov	r4, r1
 8001cb4:	e9cd 3400 	strd	r3, r4, [sp]
 8001cb8:	462a      	mov	r2, r5
 8001cba:	4633      	mov	r3, r6
 8001cbc:	4808      	ldr	r0, [pc, #32]	; (8001ce0 <StartBmp280Task+0xc0>)
 8001cbe:	f001 fe79 	bl	80039b4 <printf_>

	  osDelay(10);
 8001cc2:	200a      	movs	r0, #10
 8001cc4:	f005 fa78 	bl	80071b8 <osDelay>
	  osMutexAcquire(MutexI2C1Handle, osWaitForever);
 8001cc8:	e7c1      	b.n	8001c4e <StartBmp280Task+0x2e>
 8001cca:	bf00      	nop
 8001ccc:	20004f2c 	.word	0x20004f2c
 8001cd0:	20004f40 	.word	0x20004f40
 8001cd4:	20004f34 	.word	0x20004f34
 8001cd8:	20004f38 	.word	0x20004f38
 8001cdc:	20004f20 	.word	0x20004f20
 8001ce0:	0800be04 	.word	0x0800be04

08001ce4 <StartOledTask>:
* @param argument: Not used
* @retval None
*/
/* USER CODE END Header_StartOledTask */
void StartOledTask(void *argument)
{
 8001ce4:	b590      	push	{r4, r7, lr}
 8001ce6:	b091      	sub	sp, #68	; 0x44
 8001ce8:	af02      	add	r7, sp, #8
 8001cea:	6078      	str	r0, [r7, #4]
  /* USER CODE BEGIN StartOledTask */
	char Message[32];
	uint8_t i = 0;
 8001cec:	2300      	movs	r3, #0
 8001cee:	f887 3037 	strb.w	r3, [r7, #55]	; 0x37

	float _Pressure, _Temperature;

	osMutexAcquire(MutexI2C1Handle, osWaitForever);
 8001cf2:	4b44      	ldr	r3, [pc, #272]	; (8001e04 <StartOledTask+0x120>)
 8001cf4:	681b      	ldr	r3, [r3, #0]
 8001cf6:	f04f 31ff 	mov.w	r1, #4294967295
 8001cfa:	4618      	mov	r0, r3
 8001cfc:	f005 fb24 	bl	8007348 <osMutexAcquire>
	SSD1306_Init(&hi2c1);
 8001d00:	4841      	ldr	r0, [pc, #260]	; (8001e08 <StartOledTask+0x124>)
 8001d02:	f7ff fbed 	bl	80014e0 <SSD1306_Init>
	osMutexRelease(MutexI2C1Handle);
 8001d06:	4b3f      	ldr	r3, [pc, #252]	; (8001e04 <StartOledTask+0x120>)
 8001d08:	681b      	ldr	r3, [r3, #0]
 8001d0a:	4618      	mov	r0, r3
 8001d0c:	f005 fb7a 	bl	8007404 <osMutexRelease>

	GFX_SetFont(font_8x5);
 8001d10:	483e      	ldr	r0, [pc, #248]	; (8001e0c <StartOledTask+0x128>)
 8001d12:	f7ff f8f1 	bl	8000ef8 <GFX_SetFont>

	SSD1306_Clear(BLACK);
 8001d16:	2000      	movs	r0, #0
 8001d18:	f7ff fba4 	bl	8001464 <SSD1306_Clear>

	osMutexAcquire(MutexI2C1Handle, osWaitForever);
 8001d1c:	4b39      	ldr	r3, [pc, #228]	; (8001e04 <StartOledTask+0x120>)
 8001d1e:	681b      	ldr	r3, [r3, #0]
 8001d20:	f04f 31ff 	mov.w	r1, #4294967295
 8001d24:	4618      	mov	r0, r3
 8001d26:	f005 fb0f 	bl	8007348 <osMutexAcquire>
	SSD1306_Display();
 8001d2a:	f7ff fbbb 	bl	80014a4 <SSD1306_Display>
	osMutexRelease(MutexI2C1Handle);
 8001d2e:	4b35      	ldr	r3, [pc, #212]	; (8001e04 <StartOledTask+0x120>)
 8001d30:	681b      	ldr	r3, [r3, #0]
 8001d32:	4618      	mov	r0, r3
 8001d34:	f005 fb66 	bl	8007404 <osMutexRelease>

  /* Infinite loop */
  for(;;)
  {
	SSD1306_Clear(BLACK);
 8001d38:	2000      	movs	r0, #0
 8001d3a:	f7ff fb93 	bl	8001464 <SSD1306_Clear>

	sprintf(Message, "Hello %d", i++);
 8001d3e:	f897 3037 	ldrb.w	r3, [r7, #55]	; 0x37
 8001d42:	1c5a      	adds	r2, r3, #1
 8001d44:	f887 2037 	strb.w	r2, [r7, #55]	; 0x37
 8001d48:	461a      	mov	r2, r3
 8001d4a:	f107 030c 	add.w	r3, r7, #12
 8001d4e:	4930      	ldr	r1, [pc, #192]	; (8001e10 <StartOledTask+0x12c>)
 8001d50:	4618      	mov	r0, r3
 8001d52:	f001 fe4b 	bl	80039ec <sprintf_>

	GFX_DrawString(0, 0, Message, WHITE, 0);
 8001d56:	f107 020c 	add.w	r2, r7, #12
 8001d5a:	2300      	movs	r3, #0
 8001d5c:	9300      	str	r3, [sp, #0]
 8001d5e:	2301      	movs	r3, #1
 8001d60:	2100      	movs	r1, #0
 8001d62:	2000      	movs	r0, #0
 8001d64:	f7ff f992 	bl	800108c <GFX_DrawString>

	osMutexAcquire(MutexBmpDataHandle, osWaitForever);
 8001d68:	4b2a      	ldr	r3, [pc, #168]	; (8001e14 <StartOledTask+0x130>)
 8001d6a:	681b      	ldr	r3, [r3, #0]
 8001d6c:	f04f 31ff 	mov.w	r1, #4294967295
 8001d70:	4618      	mov	r0, r3
 8001d72:	f005 fae9 	bl	8007348 <osMutexAcquire>
	_Pressure = Pressure;
 8001d76:	4b28      	ldr	r3, [pc, #160]	; (8001e18 <StartOledTask+0x134>)
 8001d78:	681b      	ldr	r3, [r3, #0]
 8001d7a:	633b      	str	r3, [r7, #48]	; 0x30
	_Temperature = Temperature;
 8001d7c:	4b27      	ldr	r3, [pc, #156]	; (8001e1c <StartOledTask+0x138>)
 8001d7e:	681b      	ldr	r3, [r3, #0]
 8001d80:	62fb      	str	r3, [r7, #44]	; 0x2c
	osMutexRelease(MutexBmpDataHandle);
 8001d82:	4b24      	ldr	r3, [pc, #144]	; (8001e14 <StartOledTask+0x130>)
 8001d84:	681b      	ldr	r3, [r3, #0]
 8001d86:	4618      	mov	r0, r3
 8001d88:	f005 fb3c 	bl	8007404 <osMutexRelease>

	sprintf(Message, "Press: %.2f", _Pressure);
 8001d8c:	6b38      	ldr	r0, [r7, #48]	; 0x30
 8001d8e:	f7fe fb93 	bl	80004b8 <__aeabi_f2d>
 8001d92:	4603      	mov	r3, r0
 8001d94:	460c      	mov	r4, r1
 8001d96:	f107 000c 	add.w	r0, r7, #12
 8001d9a:	461a      	mov	r2, r3
 8001d9c:	4623      	mov	r3, r4
 8001d9e:	4920      	ldr	r1, [pc, #128]	; (8001e20 <StartOledTask+0x13c>)
 8001da0:	f001 fe24 	bl	80039ec <sprintf_>
	GFX_DrawString(0, 10, Message, WHITE, 0);
 8001da4:	f107 020c 	add.w	r2, r7, #12
 8001da8:	2300      	movs	r3, #0
 8001daa:	9300      	str	r3, [sp, #0]
 8001dac:	2301      	movs	r3, #1
 8001dae:	210a      	movs	r1, #10
 8001db0:	2000      	movs	r0, #0
 8001db2:	f7ff f96b 	bl	800108c <GFX_DrawString>

	sprintf(Message, "Temp: %.2f", _Temperature);
 8001db6:	6af8      	ldr	r0, [r7, #44]	; 0x2c
 8001db8:	f7fe fb7e 	bl	80004b8 <__aeabi_f2d>
 8001dbc:	4603      	mov	r3, r0
 8001dbe:	460c      	mov	r4, r1
 8001dc0:	f107 000c 	add.w	r0, r7, #12
 8001dc4:	461a      	mov	r2, r3
 8001dc6:	4623      	mov	r3, r4
 8001dc8:	4916      	ldr	r1, [pc, #88]	; (8001e24 <StartOledTask+0x140>)
 8001dca:	f001 fe0f 	bl	80039ec <sprintf_>
	GFX_DrawString(0, 20, Message, WHITE, 0);
 8001dce:	f107 020c 	add.w	r2, r7, #12
 8001dd2:	2300      	movs	r3, #0
 8001dd4:	9300      	str	r3, [sp, #0]
 8001dd6:	2301      	movs	r3, #1
 8001dd8:	2114      	movs	r1, #20
 8001dda:	2000      	movs	r0, #0
 8001ddc:	f7ff f956 	bl	800108c <GFX_DrawString>

	osMutexAcquire(MutexI2C1Handle, osWaitForever);
 8001de0:	4b08      	ldr	r3, [pc, #32]	; (8001e04 <StartOledTask+0x120>)
 8001de2:	681b      	ldr	r3, [r3, #0]
 8001de4:	f04f 31ff 	mov.w	r1, #4294967295
 8001de8:	4618      	mov	r0, r3
 8001dea:	f005 faad 	bl	8007348 <osMutexAcquire>
	SSD1306_Display();
 8001dee:	f7ff fb59 	bl	80014a4 <SSD1306_Display>
	osMutexRelease(MutexI2C1Handle);
 8001df2:	4b04      	ldr	r3, [pc, #16]	; (8001e04 <StartOledTask+0x120>)
 8001df4:	681b      	ldr	r3, [r3, #0]
 8001df6:	4618      	mov	r0, r3
 8001df8:	f005 fb04 	bl	8007404 <osMutexRelease>
    osDelay(100);
 8001dfc:	2064      	movs	r0, #100	; 0x64
 8001dfe:	f005 f9db 	bl	80071b8 <osDelay>
	SSD1306_Clear(BLACK);
 8001e02:	e799      	b.n	8001d38 <StartOledTask+0x54>
 8001e04:	20004f2c 	.word	0x20004f2c
 8001e08:	20004f40 	.word	0x20004f40
 8001e0c:	0800be7c 	.word	0x0800be7c
 8001e10:	0800be28 	.word	0x0800be28
 8001e14:	20004f34 	.word	0x20004f34
 8001e18:	20004f38 	.word	0x20004f38
 8001e1c:	20004f20 	.word	0x20004f20
 8001e20:	0800be34 	.word	0x0800be34
 8001e24:	0800be40 	.word	0x0800be40

08001e28 <MX_GPIO_Init>:
        * Output
        * EVENT_OUT
        * EXTI
*/
void MX_GPIO_Init(void)
{
 8001e28:	b580      	push	{r7, lr}
 8001e2a:	b08a      	sub	sp, #40	; 0x28
 8001e2c:	af00      	add	r7, sp, #0

  GPIO_InitTypeDef GPIO_InitStruct = {0};
 8001e2e:	f107 0314 	add.w	r3, r7, #20
 8001e32:	2200      	movs	r2, #0
 8001e34:	601a      	str	r2, [r3, #0]
 8001e36:	605a      	str	r2, [r3, #4]
 8001e38:	609a      	str	r2, [r3, #8]
 8001e3a:	60da      	str	r2, [r3, #12]
 8001e3c:	611a      	str	r2, [r3, #16]

  /* GPIO Ports Clock Enable */
  __HAL_RCC_GPIOC_CLK_ENABLE();
 8001e3e:	2300      	movs	r3, #0
 8001e40:	613b      	str	r3, [r7, #16]
 8001e42:	4b2d      	ldr	r3, [pc, #180]	; (8001ef8 <MX_GPIO_Init+0xd0>)
 8001e44:	6b1b      	ldr	r3, [r3, #48]	; 0x30
 8001e46:	4a2c      	ldr	r2, [pc, #176]	; (8001ef8 <MX_GPIO_Init+0xd0>)
 8001e48:	f043 0304 	orr.w	r3, r3, #4
 8001e4c:	6313      	str	r3, [r2, #48]	; 0x30
 8001e4e:	4b2a      	ldr	r3, [pc, #168]	; (8001ef8 <MX_GPIO_Init+0xd0>)
 8001e50:	6b1b      	ldr	r3, [r3, #48]	; 0x30
 8001e52:	f003 0304 	and.w	r3, r3, #4
 8001e56:	613b      	str	r3, [r7, #16]
 8001e58:	693b      	ldr	r3, [r7, #16]
  __HAL_RCC_GPIOH_CLK_ENABLE();
 8001e5a:	2300      	movs	r3, #0
 8001e5c:	60fb      	str	r3, [r7, #12]
 8001e5e:	4b26      	ldr	r3, [pc, #152]	; (8001ef8 <MX_GPIO_Init+0xd0>)
 8001e60:	6b1b      	ldr	r3, [r3, #48]	; 0x30
 8001e62:	4a25      	ldr	r2, [pc, #148]	; (8001ef8 <MX_GPIO_Init+0xd0>)
 8001e64:	f043 0380 	orr.w	r3, r3, #128	; 0x80
 8001e68:	6313      	str	r3, [r2, #48]	; 0x30
 8001e6a:	4b23      	ldr	r3, [pc, #140]	; (8001ef8 <MX_GPIO_Init+0xd0>)
 8001e6c:	6b1b      	ldr	r3, [r3, #48]	; 0x30
 8001e6e:	f003 0380 	and.w	r3, r3, #128	; 0x80
 8001e72:	60fb      	str	r3, [r7, #12]
 8001e74:	68fb      	ldr	r3, [r7, #12]
  __HAL_RCC_GPIOA_CLK_ENABLE();
 8001e76:	2300      	movs	r3, #0
 8001e78:	60bb      	str	r3, [r7, #8]
 8001e7a:	4b1f      	ldr	r3, [pc, #124]	; (8001ef8 <MX_GPIO_Init+0xd0>)
 8001e7c:	6b1b      	ldr	r3, [r3, #48]	; 0x30
 8001e7e:	4a1e      	ldr	r2, [pc, #120]	; (8001ef8 <MX_GPIO_Init+0xd0>)
 8001e80:	f043 0301 	orr.w	r3, r3, #1
 8001e84:	6313      	str	r3, [r2, #48]	; 0x30
 8001e86:	4b1c      	ldr	r3, [pc, #112]	; (8001ef8 <MX_GPIO_Init+0xd0>)
 8001e88:	6b1b      	ldr	r3, [r3, #48]	; 0x30
 8001e8a:	f003 0301 	and.w	r3, r3, #1
 8001e8e:	60bb      	str	r3, [r7, #8]
 8001e90:	68bb      	ldr	r3, [r7, #8]
  __HAL_RCC_GPIOB_CLK_ENABLE();
 8001e92:	2300      	movs	r3, #0
 8001e94:	607b      	str	r3, [r7, #4]
 8001e96:	4b18      	ldr	r3, [pc, #96]	; (8001ef8 <MX_GPIO_Init+0xd0>)
 8001e98:	6b1b      	ldr	r3, [r3, #48]	; 0x30
 8001e9a:	4a17      	ldr	r2, [pc, #92]	; (8001ef8 <MX_GPIO_Init+0xd0>)
 8001e9c:	f043 0302 	orr.w	r3, r3, #2
 8001ea0:	6313      	str	r3, [r2, #48]	; 0x30
 8001ea2:	4b15      	ldr	r3, [pc, #84]	; (8001ef8 <MX_GPIO_Init+0xd0>)
 8001ea4:	6b1b      	ldr	r3, [r3, #48]	; 0x30
 8001ea6:	f003 0302 	and.w	r3, r3, #2
 8001eaa:	607b      	str	r3, [r7, #4]
 8001eac:	687b      	ldr	r3, [r7, #4]

  /*Configure GPIO pin Output Level */
  HAL_GPIO_WritePin(LD2_GPIO_Port, LD2_Pin, GPIO_PIN_RESET);
 8001eae:	2200      	movs	r2, #0
 8001eb0:	2120      	movs	r1, #32
 8001eb2:	4812      	ldr	r0, [pc, #72]	; (8001efc <MX_GPIO_Init+0xd4>)
 8001eb4:	f002 fa9c 	bl	80043f0 <HAL_GPIO_WritePin>

  /*Configure GPIO pin : PtPin */
  GPIO_InitStruct.Pin = B1_Pin;
 8001eb8:	f44f 5300 	mov.w	r3, #8192	; 0x2000
 8001ebc:	617b      	str	r3, [r7, #20]
  GPIO_InitStruct.Mode = GPIO_MODE_IT_FALLING;
 8001ebe:	4b10      	ldr	r3, [pc, #64]	; (8001f00 <MX_GPIO_Init+0xd8>)
 8001ec0:	61bb      	str	r3, [r7, #24]
  GPIO_InitStruct.Pull = GPIO_NOPULL;
 8001ec2:	2300      	movs	r3, #0
 8001ec4:	61fb      	str	r3, [r7, #28]
  HAL_GPIO_Init(B1_GPIO_Port, &GPIO_InitStruct);
 8001ec6:	f107 0314 	add.w	r3, r7, #20
 8001eca:	4619      	mov	r1, r3
 8001ecc:	480d      	ldr	r0, [pc, #52]	; (8001f04 <MX_GPIO_Init+0xdc>)
 8001ece:	f002 f90d 	bl	80040ec <HAL_GPIO_Init>

  /*Configure GPIO pin : PtPin */
  GPIO_InitStruct.Pin = LD2_Pin;
 8001ed2:	2320      	movs	r3, #32
 8001ed4:	617b      	str	r3, [r7, #20]
  GPIO_InitStruct.Mode = GPIO_MODE_OUTPUT_PP;
 8001ed6:	2301      	movs	r3, #1
 8001ed8:	61bb      	str	r3, [r7, #24]
  GPIO_InitStruct.Pull = GPIO_NOPULL;
 8001eda:	2300      	movs	r3, #0
 8001edc:	61fb      	str	r3, [r7, #28]
  GPIO_InitStruct.Speed = GPIO_SPEED_FREQ_LOW;
 8001ede:	2300      	movs	r3, #0
 8001ee0:	623b      	str	r3, [r7, #32]
  HAL_GPIO_Init(LD2_GPIO_Port, &GPIO_InitStruct);
 8001ee2:	f107 0314 	add.w	r3, r7, #20
 8001ee6:	4619      	mov	r1, r3
 8001ee8:	4804      	ldr	r0, [pc, #16]	; (8001efc <MX_GPIO_Init+0xd4>)
 8001eea:	f002 f8ff 	bl	80040ec <HAL_GPIO_Init>

}
 8001eee:	bf00      	nop
 8001ef0:	3728      	adds	r7, #40	; 0x28
 8001ef2:	46bd      	mov	sp, r7
 8001ef4:	bd80      	pop	{r7, pc}
 8001ef6:	bf00      	nop
 8001ef8:	40023800 	.word	0x40023800
 8001efc:	40020000 	.word	0x40020000
 8001f00:	10210000 	.word	0x10210000
 8001f04:	40020800 	.word	0x40020800

08001f08 <MX_I2C1_Init>:

I2C_HandleTypeDef hi2c1;

/* I2C1 init function */
void MX_I2C1_Init(void)
{
 8001f08:	b580      	push	{r7, lr}
 8001f0a:	af00      	add	r7, sp, #0

  hi2c1.Instance = I2C1;
 8001f0c:	4b12      	ldr	r3, [pc, #72]	; (8001f58 <MX_I2C1_Init+0x50>)
 8001f0e:	4a13      	ldr	r2, [pc, #76]	; (8001f5c <MX_I2C1_Init+0x54>)
 8001f10:	601a      	str	r2, [r3, #0]
  hi2c1.Init.ClockSpeed = 400000;
 8001f12:	4b11      	ldr	r3, [pc, #68]	; (8001f58 <MX_I2C1_Init+0x50>)
 8001f14:	4a12      	ldr	r2, [pc, #72]	; (8001f60 <MX_I2C1_Init+0x58>)
 8001f16:	605a      	str	r2, [r3, #4]
  hi2c1.Init.DutyCycle = I2C_DUTYCYCLE_2;
 8001f18:	4b0f      	ldr	r3, [pc, #60]	; (8001f58 <MX_I2C1_Init+0x50>)
 8001f1a:	2200      	movs	r2, #0
 8001f1c:	609a      	str	r2, [r3, #8]
  hi2c1.Init.OwnAddress1 = 0;
 8001f1e:	4b0e      	ldr	r3, [pc, #56]	; (8001f58 <MX_I2C1_Init+0x50>)
 8001f20:	2200      	movs	r2, #0
 8001f22:	60da      	str	r2, [r3, #12]
  hi2c1.Init.AddressingMode = I2C_ADDRESSINGMODE_7BIT;
 8001f24:	4b0c      	ldr	r3, [pc, #48]	; (8001f58 <MX_I2C1_Init+0x50>)
 8001f26:	f44f 4280 	mov.w	r2, #16384	; 0x4000
 8001f2a:	611a      	str	r2, [r3, #16]
  hi2c1.Init.DualAddressMode = I2C_DUALADDRESS_DISABLE;
 8001f2c:	4b0a      	ldr	r3, [pc, #40]	; (8001f58 <MX_I2C1_Init+0x50>)
 8001f2e:	2200      	movs	r2, #0
 8001f30:	615a      	str	r2, [r3, #20]
  hi2c1.Init.OwnAddress2 = 0;
 8001f32:	4b09      	ldr	r3, [pc, #36]	; (8001f58 <MX_I2C1_Init+0x50>)
 8001f34:	2200      	movs	r2, #0
 8001f36:	619a      	str	r2, [r3, #24]
  hi2c1.Init.GeneralCallMode = I2C_GENERALCALL_DISABLE;
 8001f38:	4b07      	ldr	r3, [pc, #28]	; (8001f58 <MX_I2C1_Init+0x50>)
 8001f3a:	2200      	movs	r2, #0
 8001f3c:	61da      	str	r2, [r3, #28]
  hi2c1.Init.NoStretchMode = I2C_NOSTRETCH_DISABLE;
 8001f3e:	4b06      	ldr	r3, [pc, #24]	; (8001f58 <MX_I2C1_Init+0x50>)
 8001f40:	2200      	movs	r2, #0
 8001f42:	621a      	str	r2, [r3, #32]
  if (HAL_I2C_Init(&hi2c1) != HAL_OK)
 8001f44:	4804      	ldr	r0, [pc, #16]	; (8001f58 <MX_I2C1_Init+0x50>)
 8001f46:	f002 fa87 	bl	8004458 <HAL_I2C_Init>
 8001f4a:	4603      	mov	r3, r0
 8001f4c:	2b00      	cmp	r3, #0
 8001f4e:	d001      	beq.n	8001f54 <MX_I2C1_Init+0x4c>
  {
    Error_Handler();
 8001f50:	f000 f8e0 	bl	8002114 <Error_Handler>
  }

}
 8001f54:	bf00      	nop
 8001f56:	bd80      	pop	{r7, pc}
 8001f58:	20004f40 	.word	0x20004f40
 8001f5c:	40005400 	.word	0x40005400
 8001f60:	00061a80 	.word	0x00061a80

08001f64 <HAL_I2C_MspInit>:

void HAL_I2C_MspInit(I2C_HandleTypeDef* i2cHandle)
{
 8001f64:	b580      	push	{r7, lr}
 8001f66:	b08a      	sub	sp, #40	; 0x28
 8001f68:	af00      	add	r7, sp, #0
 8001f6a:	6078      	str	r0, [r7, #4]

  GPIO_InitTypeDef GPIO_InitStruct = {0};
 8001f6c:	f107 0314 	add.w	r3, r7, #20
 8001f70:	2200      	movs	r2, #0
 8001f72:	601a      	str	r2, [r3, #0]
 8001f74:	605a      	str	r2, [r3, #4]
 8001f76:	609a      	str	r2, [r3, #8]
 8001f78:	60da      	str	r2, [r3, #12]
 8001f7a:	611a      	str	r2, [r3, #16]
  if(i2cHandle->Instance==I2C1)
 8001f7c:	687b      	ldr	r3, [r7, #4]
 8001f7e:	681b      	ldr	r3, [r3, #0]
 8001f80:	4a19      	ldr	r2, [pc, #100]	; (8001fe8 <HAL_I2C_MspInit+0x84>)
 8001f82:	4293      	cmp	r3, r2
 8001f84:	d12c      	bne.n	8001fe0 <HAL_I2C_MspInit+0x7c>
  {
  /* USER CODE BEGIN I2C1_MspInit 0 */

  /* USER CODE END I2C1_MspInit 0 */

    __HAL_RCC_GPIOB_CLK_ENABLE();
 8001f86:	2300      	movs	r3, #0
 8001f88:	613b      	str	r3, [r7, #16]
 8001f8a:	4b18      	ldr	r3, [pc, #96]	; (8001fec <HAL_I2C_MspInit+0x88>)
 8001f8c:	6b1b      	ldr	r3, [r3, #48]	; 0x30
 8001f8e:	4a17      	ldr	r2, [pc, #92]	; (8001fec <HAL_I2C_MspInit+0x88>)
 8001f90:	f043 0302 	orr.w	r3, r3, #2
 8001f94:	6313      	str	r3, [r2, #48]	; 0x30
 8001f96:	4b15      	ldr	r3, [pc, #84]	; (8001fec <HAL_I2C_MspInit+0x88>)
 8001f98:	6b1b      	ldr	r3, [r3, #48]	; 0x30
 8001f9a:	f003 0302 	and.w	r3, r3, #2
 8001f9e:	613b      	str	r3, [r7, #16]
 8001fa0:	693b      	ldr	r3, [r7, #16]
    /**I2C1 GPIO Configuration
    PB8     ------> I2C1_SCL
    PB9     ------> I2C1_SDA
    */
    GPIO_InitStruct.Pin = GPIO_PIN_8|GPIO_PIN_9;
 8001fa2:	f44f 7340 	mov.w	r3, #768	; 0x300
 8001fa6:	617b      	str	r3, [r7, #20]
    GPIO_InitStruct.Mode = GPIO_MODE_AF_OD;
 8001fa8:	2312      	movs	r3, #18
 8001faa:	61bb      	str	r3, [r7, #24]
    GPIO_InitStruct.Pull = GPIO_PULLUP;
 8001fac:	2301      	movs	r3, #1
 8001fae:	61fb      	str	r3, [r7, #28]
    GPIO_InitStruct.Speed = GPIO_SPEED_FREQ_VERY_HIGH;
 8001fb0:	2303      	movs	r3, #3
 8001fb2:	623b      	str	r3, [r7, #32]
    GPIO_InitStruct.Alternate = GPIO_AF4_I2C1;
 8001fb4:	2304      	movs	r3, #4
 8001fb6:	627b      	str	r3, [r7, #36]	; 0x24
    HAL_GPIO_Init(GPIOB, &GPIO_InitStruct);
 8001fb8:	f107 0314 	add.w	r3, r7, #20
 8001fbc:	4619      	mov	r1, r3
 8001fbe:	480c      	ldr	r0, [pc, #48]	; (8001ff0 <HAL_I2C_MspInit+0x8c>)
 8001fc0:	f002 f894 	bl	80040ec <HAL_GPIO_Init>

    /* I2C1 clock enable */
    __HAL_RCC_I2C1_CLK_ENABLE();
 8001fc4:	2300      	movs	r3, #0
 8001fc6:	60fb      	str	r3, [r7, #12]
 8001fc8:	4b08      	ldr	r3, [pc, #32]	; (8001fec <HAL_I2C_MspInit+0x88>)
 8001fca:	6c1b      	ldr	r3, [r3, #64]	; 0x40
 8001fcc:	4a07      	ldr	r2, [pc, #28]	; (8001fec <HAL_I2C_MspInit+0x88>)
 8001fce:	f443 1300 	orr.w	r3, r3, #2097152	; 0x200000
 8001fd2:	6413      	str	r3, [r2, #64]	; 0x40
 8001fd4:	4b05      	ldr	r3, [pc, #20]	; (8001fec <HAL_I2C_MspInit+0x88>)
 8001fd6:	6c1b      	ldr	r3, [r3, #64]	; 0x40
 8001fd8:	f403 1300 	and.w	r3, r3, #2097152	; 0x200000
 8001fdc:	60fb      	str	r3, [r7, #12]
 8001fde:	68fb      	ldr	r3, [r7, #12]
  /* USER CODE BEGIN I2C1_MspInit 1 */

  /* USER CODE END I2C1_MspInit 1 */
  }
}
 8001fe0:	bf00      	nop
 8001fe2:	3728      	adds	r7, #40	; 0x28
 8001fe4:	46bd      	mov	sp, r7
 8001fe6:	bd80      	pop	{r7, pc}
 8001fe8:	40005400 	.word	0x40005400
 8001fec:	40023800 	.word	0x40023800
 8001ff0:	40020400 	.word	0x40020400

08001ff4 <main>:
/**
  * @brief  The application entry point.
  * @retval int
  */
int main(void)
{
 8001ff4:	b580      	push	{r7, lr}
 8001ff6:	af00      	add	r7, sp, #0
  /* USER CODE END 1 */

  /* MCU Configuration--------------------------------------------------------*/

  /* Reset of all peripherals, Initializes the Flash interface and the Systick. */
  HAL_Init();
 8001ff8:	f001 fea0 	bl	8003d3c <HAL_Init>
  /* USER CODE BEGIN Init */

  /* USER CODE END Init */

  /* Configure the system clock */
  SystemClock_Config();
 8001ffc:	f000 f80e 	bl	800201c <SystemClock_Config>
  /* USER CODE BEGIN SysInit */

  /* USER CODE END SysInit */

  /* Initialize all configured peripherals */
  MX_GPIO_Init();
 8002000:	f7ff ff12 	bl	8001e28 <MX_GPIO_Init>
  MX_USART2_UART_Init();
 8002004:	f001 fdfe 	bl	8003c04 <MX_USART2_UART_Init>
  MX_I2C1_Init();
 8002008:	f7ff ff7e 	bl	8001f08 <MX_I2C1_Init>
  /* USER CODE BEGIN 2 */

  /* USER CODE END 2 */

  /* Init scheduler */
  osKernelInitialize();  /* Call init function for freertos objects (in freertos.c) */
 800200c:	f004 ffc4 	bl	8006f98 <osKernelInitialize>
  MX_FREERTOS_Init();
 8002010:	f7ff fd94 	bl	8001b3c <MX_FREERTOS_Init>
  /* Start scheduler */
  osKernelStart();
 8002014:	f004 fff4 	bl	8007000 <osKernelStart>

  /* We should never get here as control is now taken by the scheduler */
  /* Infinite loop */
  /* USER CODE BEGIN WHILE */
  while (1)
 8002018:	e7fe      	b.n	8002018 <main+0x24>
	...

0800201c <SystemClock_Config>:
/**
  * @brief System Clock Configuration
  * @retval None
  */
void SystemClock_Config(void)
{
 800201c:	b580      	push	{r7, lr}
 800201e:	b094      	sub	sp, #80	; 0x50
 8002020:	af00      	add	r7, sp, #0
  RCC_OscInitTypeDef RCC_OscInitStruct = {0};
 8002022:	f107 0320 	add.w	r3, r7, #32
 8002026:	2230      	movs	r2, #48	; 0x30
 8002028:	2100      	movs	r1, #0
 800202a:	4618      	mov	r0, r3
 800202c:	f008 f98b 	bl	800a346 <memset>
  RCC_ClkInitTypeDef RCC_ClkInitStruct = {0};
 8002030:	f107 030c 	add.w	r3, r7, #12
 8002034:	2200      	movs	r2, #0
 8002036:	601a      	str	r2, [r3, #0]
 8002038:	605a      	str	r2, [r3, #4]
 800203a:	609a      	str	r2, [r3, #8]
 800203c:	60da      	str	r2, [r3, #12]
 800203e:	611a      	str	r2, [r3, #16]

  /** Configure the main internal regulator output voltage
  */
  __HAL_RCC_PWR_CLK_ENABLE();
 8002040:	2300      	movs	r3, #0
 8002042:	60bb      	str	r3, [r7, #8]
 8002044:	4b28      	ldr	r3, [pc, #160]	; (80020e8 <SystemClock_Config+0xcc>)
 8002046:	6c1b      	ldr	r3, [r3, #64]	; 0x40
 8002048:	4a27      	ldr	r2, [pc, #156]	; (80020e8 <SystemClock_Config+0xcc>)
 800204a:	f043 5380 	orr.w	r3, r3, #268435456	; 0x10000000
 800204e:	6413      	str	r3, [r2, #64]	; 0x40
 8002050:	4b25      	ldr	r3, [pc, #148]	; (80020e8 <SystemClock_Config+0xcc>)
 8002052:	6c1b      	ldr	r3, [r3, #64]	; 0x40
 8002054:	f003 5380 	and.w	r3, r3, #268435456	; 0x10000000
 8002058:	60bb      	str	r3, [r7, #8]
 800205a:	68bb      	ldr	r3, [r7, #8]
  __HAL_PWR_VOLTAGESCALING_CONFIG(PWR_REGULATOR_VOLTAGE_SCALE1);
 800205c:	2300      	movs	r3, #0
 800205e:	607b      	str	r3, [r7, #4]
 8002060:	4b22      	ldr	r3, [pc, #136]	; (80020ec <SystemClock_Config+0xd0>)
 8002062:	681b      	ldr	r3, [r3, #0]
 8002064:	4a21      	ldr	r2, [pc, #132]	; (80020ec <SystemClock_Config+0xd0>)
 8002066:	f443 4340 	orr.w	r3, r3, #49152	; 0xc000
 800206a:	6013      	str	r3, [r2, #0]
 800206c:	4b1f      	ldr	r3, [pc, #124]	; (80020ec <SystemClock_Config+0xd0>)
 800206e:	681b      	ldr	r3, [r3, #0]
 8002070:	f403 4340 	and.w	r3, r3, #49152	; 0xc000
 8002074:	607b      	str	r3, [r7, #4]
 8002076:	687b      	ldr	r3, [r7, #4]
  /** Initializes the RCC Oscillators according to the specified parameters
  * in the RCC_OscInitTypeDef structure.
  */
  RCC_OscInitStruct.OscillatorType = RCC_OSCILLATORTYPE_HSI;
 8002078:	2302      	movs	r3, #2
 800207a:	623b      	str	r3, [r7, #32]
  RCC_OscInitStruct.HSIState = RCC_HSI_ON;
 800207c:	2301      	movs	r3, #1
 800207e:	62fb      	str	r3, [r7, #44]	; 0x2c
  RCC_OscInitStruct.HSICalibrationValue = RCC_HSICALIBRATION_DEFAULT;
 8002080:	2310      	movs	r3, #16
 8002082:	633b      	str	r3, [r7, #48]	; 0x30
  RCC_OscInitStruct.PLL.PLLState = RCC_PLL_ON;
 8002084:	2302      	movs	r3, #2
 8002086:	63bb      	str	r3, [r7, #56]	; 0x38
  RCC_OscInitStruct.PLL.PLLSource = RCC_PLLSOURCE_HSI;
 8002088:	2300      	movs	r3, #0
 800208a:	63fb      	str	r3, [r7, #60]	; 0x3c
  RCC_OscInitStruct.PLL.PLLM = 16;
 800208c:	2310      	movs	r3, #16
 800208e:	643b      	str	r3, [r7, #64]	; 0x40
  RCC_OscInitStruct.PLL.PLLN = 336;
 8002090:	f44f 73a8 	mov.w	r3, #336	; 0x150
 8002094:	647b      	str	r3, [r7, #68]	; 0x44
  RCC_OscInitStruct.PLL.PLLP = RCC_PLLP_DIV4;
 8002096:	2304      	movs	r3, #4
 8002098:	64bb      	str	r3, [r7, #72]	; 0x48
  RCC_OscInitStruct.PLL.PLLQ = 4;
 800209a:	2304      	movs	r3, #4
 800209c:	64fb      	str	r3, [r7, #76]	; 0x4c
  if (HAL_RCC_OscConfig(&RCC_OscInitStruct) != HAL_OK)
 800209e:	f107 0320 	add.w	r3, r7, #32
 80020a2:	4618      	mov	r0, r3
 80020a4:	f003 fc12 	bl	80058cc <HAL_RCC_OscConfig>
 80020a8:	4603      	mov	r3, r0
 80020aa:	2b00      	cmp	r3, #0
 80020ac:	d001      	beq.n	80020b2 <SystemClock_Config+0x96>
  {
    Error_Handler();
 80020ae:	f000 f831 	bl	8002114 <Error_Handler>
  }
  /** Initializes the CPU, AHB and APB buses clocks
  */
  RCC_ClkInitStruct.ClockType = RCC_CLOCKTYPE_HCLK|RCC_CLOCKTYPE_SYSCLK
 80020b2:	230f      	movs	r3, #15
 80020b4:	60fb      	str	r3, [r7, #12]
                              |RCC_CLOCKTYPE_PCLK1|RCC_CLOCKTYPE_PCLK2;
  RCC_ClkInitStruct.SYSCLKSource = RCC_SYSCLKSOURCE_PLLCLK;
 80020b6:	2302      	movs	r3, #2
 80020b8:	613b      	str	r3, [r7, #16]
  RCC_ClkInitStruct.AHBCLKDivider = RCC_SYSCLK_DIV1;
 80020ba:	2300      	movs	r3, #0
 80020bc:	617b      	str	r3, [r7, #20]
  RCC_ClkInitStruct.APB1CLKDivider = RCC_HCLK_DIV2;
 80020be:	f44f 5380 	mov.w	r3, #4096	; 0x1000
 80020c2:	61bb      	str	r3, [r7, #24]
  RCC_ClkInitStruct.APB2CLKDivider = RCC_HCLK_DIV1;
 80020c4:	2300      	movs	r3, #0
 80020c6:	61fb      	str	r3, [r7, #28]

  if (HAL_RCC_ClockConfig(&RCC_ClkInitStruct, FLASH_LATENCY_2) != HAL_OK)
 80020c8:	f107 030c 	add.w	r3, r7, #12
 80020cc:	2102      	movs	r1, #2
 80020ce:	4618      	mov	r0, r3
 80020d0:	f003 fe6c 	bl	8005dac <HAL_RCC_ClockConfig>
 80020d4:	4603      	mov	r3, r0
 80020d6:	2b00      	cmp	r3, #0
 80020d8:	d001      	beq.n	80020de <SystemClock_Config+0xc2>
  {
    Error_Handler();
 80020da:	f000 f81b 	bl	8002114 <Error_Handler>
  }
}
 80020de:	bf00      	nop
 80020e0:	3750      	adds	r7, #80	; 0x50
 80020e2:	46bd      	mov	sp, r7
 80020e4:	bd80      	pop	{r7, pc}
 80020e6:	bf00      	nop
 80020e8:	40023800 	.word	0x40023800
 80020ec:	40007000 	.word	0x40007000

080020f0 <HAL_TIM_PeriodElapsedCallback>:
  * a global variable "uwTick" used as application time base.
  * @param  htim : TIM handle
  * @retval None
  */
void HAL_TIM_PeriodElapsedCallback(TIM_HandleTypeDef *htim)
{
 80020f0:	b580      	push	{r7, lr}
 80020f2:	b082      	sub	sp, #8
 80020f4:	af00      	add	r7, sp, #0
 80020f6:	6078      	str	r0, [r7, #4]
  /* USER CODE BEGIN Callback 0 */

  /* USER CODE END Callback 0 */
  if (htim->Instance == TIM10) {
 80020f8:	687b      	ldr	r3, [r7, #4]
 80020fa:	681b      	ldr	r3, [r3, #0]
 80020fc:	4a04      	ldr	r2, [pc, #16]	; (8002110 <HAL_TIM_PeriodElapsedCallback+0x20>)
 80020fe:	4293      	cmp	r3, r2
 8002100:	d101      	bne.n	8002106 <HAL_TIM_PeriodElapsedCallback+0x16>
    HAL_IncTick();
 8002102:	f001 fe3d 	bl	8003d80 <HAL_IncTick>
  }
  /* USER CODE BEGIN Callback 1 */

  /* USER CODE END Callback 1 */
}
 8002106:	bf00      	nop
 8002108:	3708      	adds	r7, #8
 800210a:	46bd      	mov	sp, r7
 800210c:	bd80      	pop	{r7, pc}
 800210e:	bf00      	nop
 8002110:	40014400 	.word	0x40014400

08002114 <Error_Handler>:
/**
  * @brief  This function is executed in case of error occurrence.
  * @retval None
  */
void Error_Handler(void)
{
 8002114:	b480      	push	{r7}
 8002116:	af00      	add	r7, sp, #0
  \details Disables IRQ interrupts by setting the I-bit in the CPSR.
           Can only be executed in Privileged modes.
 */
__STATIC_FORCEINLINE void __disable_irq(void)
{
  __ASM volatile ("cpsid i" : : : "memory");
 8002118:	b672      	cpsid	i
  /* USER CODE BEGIN Error_Handler_Debug */
  /* User can add his own implementation to report the HAL error return state */
  __disable_irq();
  while (1)
 800211a:	e7fe      	b.n	800211a <Error_Handler+0x6>

0800211c <_out_buffer>:
} out_fct_wrap_type;


// internal buffer output
static inline void _out_buffer(char character, void* buffer, size_t idx, size_t maxlen)
{
 800211c:	b480      	push	{r7}
 800211e:	b085      	sub	sp, #20
 8002120:	af00      	add	r7, sp, #0
 8002122:	60b9      	str	r1, [r7, #8]
 8002124:	607a      	str	r2, [r7, #4]
 8002126:	603b      	str	r3, [r7, #0]
 8002128:	4603      	mov	r3, r0
 800212a:	73fb      	strb	r3, [r7, #15]
  if (idx < maxlen) {
 800212c:	687a      	ldr	r2, [r7, #4]
 800212e:	683b      	ldr	r3, [r7, #0]
 8002130:	429a      	cmp	r2, r3
 8002132:	d204      	bcs.n	800213e <_out_buffer+0x22>
    ((char*)buffer)[idx] = character;
 8002134:	68ba      	ldr	r2, [r7, #8]
 8002136:	687b      	ldr	r3, [r7, #4]
 8002138:	4413      	add	r3, r2
 800213a:	7bfa      	ldrb	r2, [r7, #15]
 800213c:	701a      	strb	r2, [r3, #0]
  }
}
 800213e:	bf00      	nop
 8002140:	3714      	adds	r7, #20
 8002142:	46bd      	mov	sp, r7
 8002144:	f85d 7b04 	ldr.w	r7, [sp], #4
 8002148:	4770      	bx	lr

0800214a <_out_null>:


// internal null output
static inline void _out_null(char character, void* buffer, size_t idx, size_t maxlen)
{
 800214a:	b480      	push	{r7}
 800214c:	b085      	sub	sp, #20
 800214e:	af00      	add	r7, sp, #0
 8002150:	60b9      	str	r1, [r7, #8]
 8002152:	607a      	str	r2, [r7, #4]
 8002154:	603b      	str	r3, [r7, #0]
 8002156:	4603      	mov	r3, r0
 8002158:	73fb      	strb	r3, [r7, #15]
  (void)character; (void)buffer; (void)idx; (void)maxlen;
}
 800215a:	bf00      	nop
 800215c:	3714      	adds	r7, #20
 800215e:	46bd      	mov	sp, r7
 8002160:	f85d 7b04 	ldr.w	r7, [sp], #4
 8002164:	4770      	bx	lr

08002166 <_out_char>:


// internal _putchar wrapper
static inline void _out_char(char character, void* buffer, size_t idx, size_t maxlen)
{
 8002166:	b580      	push	{r7, lr}
 8002168:	b084      	sub	sp, #16
 800216a:	af00      	add	r7, sp, #0
 800216c:	60b9      	str	r1, [r7, #8]
 800216e:	607a      	str	r2, [r7, #4]
 8002170:	603b      	str	r3, [r7, #0]
 8002172:	4603      	mov	r3, r0
 8002174:	73fb      	strb	r3, [r7, #15]
  (void)buffer; (void)idx; (void)maxlen;
  if (character) {
 8002176:	7bfb      	ldrb	r3, [r7, #15]
 8002178:	2b00      	cmp	r3, #0
 800217a:	d003      	beq.n	8002184 <_out_char+0x1e>
    _putchar(character);
 800217c:	7bfb      	ldrb	r3, [r7, #15]
 800217e:	4618      	mov	r0, r3
 8002180:	f7ff fcbc 	bl	8001afc <_putchar>
  }
}
 8002184:	bf00      	nop
 8002186:	3710      	adds	r7, #16
 8002188:	46bd      	mov	sp, r7
 800218a:	bd80      	pop	{r7, pc}

0800218c <_strnlen_s>:


// internal secure strlen
// \return The length of the string (excluding the terminating 0) limited by 'maxsize'
static inline unsigned int _strnlen_s(const char* str, size_t maxsize)
{
 800218c:	b480      	push	{r7}
 800218e:	b085      	sub	sp, #20
 8002190:	af00      	add	r7, sp, #0
 8002192:	6078      	str	r0, [r7, #4]
 8002194:	6039      	str	r1, [r7, #0]
  const char* s;
  for (s = str; *s && maxsize--; ++s);
 8002196:	687b      	ldr	r3, [r7, #4]
 8002198:	60fb      	str	r3, [r7, #12]
 800219a:	e002      	b.n	80021a2 <_strnlen_s+0x16>
 800219c:	68fb      	ldr	r3, [r7, #12]
 800219e:	3301      	adds	r3, #1
 80021a0:	60fb      	str	r3, [r7, #12]
 80021a2:	68fb      	ldr	r3, [r7, #12]
 80021a4:	781b      	ldrb	r3, [r3, #0]
 80021a6:	2b00      	cmp	r3, #0
 80021a8:	d004      	beq.n	80021b4 <_strnlen_s+0x28>
 80021aa:	683b      	ldr	r3, [r7, #0]
 80021ac:	1e5a      	subs	r2, r3, #1
 80021ae:	603a      	str	r2, [r7, #0]
 80021b0:	2b00      	cmp	r3, #0
 80021b2:	d1f3      	bne.n	800219c <_strnlen_s+0x10>
  return (unsigned int)(s - str);
 80021b4:	68fa      	ldr	r2, [r7, #12]
 80021b6:	687b      	ldr	r3, [r7, #4]
 80021b8:	1ad3      	subs	r3, r2, r3
}
 80021ba:	4618      	mov	r0, r3
 80021bc:	3714      	adds	r7, #20
 80021be:	46bd      	mov	sp, r7
 80021c0:	f85d 7b04 	ldr.w	r7, [sp], #4
 80021c4:	4770      	bx	lr

080021c6 <_is_digit>:


// internal test if char is a digit (0-9)
// \return true if char is a digit
static inline bool _is_digit(char ch)
{
 80021c6:	b480      	push	{r7}
 80021c8:	b083      	sub	sp, #12
 80021ca:	af00      	add	r7, sp, #0
 80021cc:	4603      	mov	r3, r0
 80021ce:	71fb      	strb	r3, [r7, #7]
  return (ch >= '0') && (ch <= '9');
 80021d0:	79fb      	ldrb	r3, [r7, #7]
 80021d2:	2b2f      	cmp	r3, #47	; 0x2f
 80021d4:	d904      	bls.n	80021e0 <_is_digit+0x1a>
 80021d6:	79fb      	ldrb	r3, [r7, #7]
 80021d8:	2b39      	cmp	r3, #57	; 0x39
 80021da:	d801      	bhi.n	80021e0 <_is_digit+0x1a>
 80021dc:	2301      	movs	r3, #1
 80021de:	e000      	b.n	80021e2 <_is_digit+0x1c>
 80021e0:	2300      	movs	r3, #0
 80021e2:	f003 0301 	and.w	r3, r3, #1
 80021e6:	b2db      	uxtb	r3, r3
}
 80021e8:	4618      	mov	r0, r3
 80021ea:	370c      	adds	r7, #12
 80021ec:	46bd      	mov	sp, r7
 80021ee:	f85d 7b04 	ldr.w	r7, [sp], #4
 80021f2:	4770      	bx	lr

080021f4 <_atoi>:


// internal ASCII string to unsigned int conversion
static unsigned int _atoi(const char** str)
{
 80021f4:	b580      	push	{r7, lr}
 80021f6:	b084      	sub	sp, #16
 80021f8:	af00      	add	r7, sp, #0
 80021fa:	6078      	str	r0, [r7, #4]
  unsigned int i = 0U;
 80021fc:	2300      	movs	r3, #0
 80021fe:	60fb      	str	r3, [r7, #12]
  while (_is_digit(**str)) {
 8002200:	e00e      	b.n	8002220 <_atoi+0x2c>
    i = i * 10U + (unsigned int)(*((*str)++) - '0');
 8002202:	68fa      	ldr	r2, [r7, #12]
 8002204:	4613      	mov	r3, r2
 8002206:	009b      	lsls	r3, r3, #2
 8002208:	4413      	add	r3, r2
 800220a:	005b      	lsls	r3, r3, #1
 800220c:	4618      	mov	r0, r3
 800220e:	687b      	ldr	r3, [r7, #4]
 8002210:	681b      	ldr	r3, [r3, #0]
 8002212:	1c59      	adds	r1, r3, #1
 8002214:	687a      	ldr	r2, [r7, #4]
 8002216:	6011      	str	r1, [r2, #0]
 8002218:	781b      	ldrb	r3, [r3, #0]
 800221a:	4403      	add	r3, r0
 800221c:	3b30      	subs	r3, #48	; 0x30
 800221e:	60fb      	str	r3, [r7, #12]
  while (_is_digit(**str)) {
 8002220:	687b      	ldr	r3, [r7, #4]
 8002222:	681b      	ldr	r3, [r3, #0]
 8002224:	781b      	ldrb	r3, [r3, #0]
 8002226:	4618      	mov	r0, r3
 8002228:	f7ff ffcd 	bl	80021c6 <_is_digit>
 800222c:	4603      	mov	r3, r0
 800222e:	2b00      	cmp	r3, #0
 8002230:	d1e7      	bne.n	8002202 <_atoi+0xe>
  }
  return i;
 8002232:	68fb      	ldr	r3, [r7, #12]
}
 8002234:	4618      	mov	r0, r3
 8002236:	3710      	adds	r7, #16
 8002238:	46bd      	mov	sp, r7
 800223a:	bd80      	pop	{r7, pc}

0800223c <_out_rev>:


// output the specified string in reverse, taking care of any zero-padding
static size_t _out_rev(out_fct_type out, char* buffer, size_t idx, size_t maxlen, const char* buf, size_t len, unsigned int width, unsigned int flags)
{
 800223c:	b590      	push	{r4, r7, lr}
 800223e:	b087      	sub	sp, #28
 8002240:	af00      	add	r7, sp, #0
 8002242:	60f8      	str	r0, [r7, #12]
 8002244:	60b9      	str	r1, [r7, #8]
 8002246:	607a      	str	r2, [r7, #4]
 8002248:	603b      	str	r3, [r7, #0]
  const size_t start_idx = idx;
 800224a:	687b      	ldr	r3, [r7, #4]
 800224c:	613b      	str	r3, [r7, #16]

  // pad spaces up to given width
  if (!(flags & FLAGS_LEFT) && !(flags & FLAGS_ZEROPAD)) {
 800224e:	6b7b      	ldr	r3, [r7, #52]	; 0x34
 8002250:	f003 0302 	and.w	r3, r3, #2
 8002254:	2b00      	cmp	r3, #0
 8002256:	d125      	bne.n	80022a4 <_out_rev+0x68>
 8002258:	6b7b      	ldr	r3, [r7, #52]	; 0x34
 800225a:	f003 0301 	and.w	r3, r3, #1
 800225e:	2b00      	cmp	r3, #0
 8002260:	d120      	bne.n	80022a4 <_out_rev+0x68>
    for (size_t i = len; i < width; i++) {
 8002262:	6afb      	ldr	r3, [r7, #44]	; 0x2c
 8002264:	617b      	str	r3, [r7, #20]
 8002266:	e00a      	b.n	800227e <_out_rev+0x42>
      out(' ', buffer, idx++, maxlen);
 8002268:	687a      	ldr	r2, [r7, #4]
 800226a:	1c53      	adds	r3, r2, #1
 800226c:	607b      	str	r3, [r7, #4]
 800226e:	68fc      	ldr	r4, [r7, #12]
 8002270:	683b      	ldr	r3, [r7, #0]
 8002272:	68b9      	ldr	r1, [r7, #8]
 8002274:	2020      	movs	r0, #32
 8002276:	47a0      	blx	r4
    for (size_t i = len; i < width; i++) {
 8002278:	697b      	ldr	r3, [r7, #20]
 800227a:	3301      	adds	r3, #1
 800227c:	617b      	str	r3, [r7, #20]
 800227e:	697a      	ldr	r2, [r7, #20]
 8002280:	6b3b      	ldr	r3, [r7, #48]	; 0x30
 8002282:	429a      	cmp	r2, r3
 8002284:	d3f0      	bcc.n	8002268 <_out_rev+0x2c>
    }
  }

  // reverse string
  while (len) {
 8002286:	e00d      	b.n	80022a4 <_out_rev+0x68>
    out(buf[--len], buffer, idx++, maxlen);
 8002288:	6afb      	ldr	r3, [r7, #44]	; 0x2c
 800228a:	3b01      	subs	r3, #1
 800228c:	62fb      	str	r3, [r7, #44]	; 0x2c
 800228e:	6aba      	ldr	r2, [r7, #40]	; 0x28
 8002290:	6afb      	ldr	r3, [r7, #44]	; 0x2c
 8002292:	4413      	add	r3, r2
 8002294:	7818      	ldrb	r0, [r3, #0]
 8002296:	687a      	ldr	r2, [r7, #4]
 8002298:	1c53      	adds	r3, r2, #1
 800229a:	607b      	str	r3, [r7, #4]
 800229c:	68fc      	ldr	r4, [r7, #12]
 800229e:	683b      	ldr	r3, [r7, #0]
 80022a0:	68b9      	ldr	r1, [r7, #8]
 80022a2:	47a0      	blx	r4
  while (len) {
 80022a4:	6afb      	ldr	r3, [r7, #44]	; 0x2c
 80022a6:	2b00      	cmp	r3, #0
 80022a8:	d1ee      	bne.n	8002288 <_out_rev+0x4c>
  }

  // append pad spaces up to given width
  if (flags & FLAGS_LEFT) {
 80022aa:	6b7b      	ldr	r3, [r7, #52]	; 0x34
 80022ac:	f003 0302 	and.w	r3, r3, #2
 80022b0:	2b00      	cmp	r3, #0
 80022b2:	d00e      	beq.n	80022d2 <_out_rev+0x96>
    while (idx - start_idx < width) {
 80022b4:	e007      	b.n	80022c6 <_out_rev+0x8a>
      out(' ', buffer, idx++, maxlen);
 80022b6:	687a      	ldr	r2, [r7, #4]
 80022b8:	1c53      	adds	r3, r2, #1
 80022ba:	607b      	str	r3, [r7, #4]
 80022bc:	68fc      	ldr	r4, [r7, #12]
 80022be:	683b      	ldr	r3, [r7, #0]
 80022c0:	68b9      	ldr	r1, [r7, #8]
 80022c2:	2020      	movs	r0, #32
 80022c4:	47a0      	blx	r4
    while (idx - start_idx < width) {
 80022c6:	687a      	ldr	r2, [r7, #4]
 80022c8:	693b      	ldr	r3, [r7, #16]
 80022ca:	1ad3      	subs	r3, r2, r3
 80022cc:	6b3a      	ldr	r2, [r7, #48]	; 0x30
 80022ce:	429a      	cmp	r2, r3
 80022d0:	d8f1      	bhi.n	80022b6 <_out_rev+0x7a>
    }
  }

  return idx;
 80022d2:	687b      	ldr	r3, [r7, #4]
}
 80022d4:	4618      	mov	r0, r3
 80022d6:	371c      	adds	r7, #28
 80022d8:	46bd      	mov	sp, r7
 80022da:	bd90      	pop	{r4, r7, pc}

080022dc <_ntoa_format>:


// internal itoa format
static size_t _ntoa_format(out_fct_type out, char* buffer, size_t idx, size_t maxlen, char* buf, size_t len, bool negative, unsigned int base, unsigned int prec, unsigned int width, unsigned int flags)
{
 80022dc:	b580      	push	{r7, lr}
 80022de:	b088      	sub	sp, #32
 80022e0:	af04      	add	r7, sp, #16
 80022e2:	60f8      	str	r0, [r7, #12]
 80022e4:	60b9      	str	r1, [r7, #8]
 80022e6:	607a      	str	r2, [r7, #4]
 80022e8:	603b      	str	r3, [r7, #0]
  // pad leading zeros
  if (!(flags & FLAGS_LEFT)) {
 80022ea:	6b3b      	ldr	r3, [r7, #48]	; 0x30
 80022ec:	f003 0302 	and.w	r3, r3, #2
 80022f0:	2b00      	cmp	r3, #0
 80022f2:	d136      	bne.n	8002362 <_ntoa_format+0x86>
    if (width && (flags & FLAGS_ZEROPAD) && (negative || (flags & (FLAGS_PLUS | FLAGS_SPACE)))) {
 80022f4:	6afb      	ldr	r3, [r7, #44]	; 0x2c
 80022f6:	2b00      	cmp	r3, #0
 80022f8:	d018      	beq.n	800232c <_ntoa_format+0x50>
 80022fa:	6b3b      	ldr	r3, [r7, #48]	; 0x30
 80022fc:	f003 0301 	and.w	r3, r3, #1
 8002300:	2b00      	cmp	r3, #0
 8002302:	d013      	beq.n	800232c <_ntoa_format+0x50>
 8002304:	f897 3020 	ldrb.w	r3, [r7, #32]
 8002308:	2b00      	cmp	r3, #0
 800230a:	d104      	bne.n	8002316 <_ntoa_format+0x3a>
 800230c:	6b3b      	ldr	r3, [r7, #48]	; 0x30
 800230e:	f003 030c 	and.w	r3, r3, #12
 8002312:	2b00      	cmp	r3, #0
 8002314:	d00a      	beq.n	800232c <_ntoa_format+0x50>
      width--;
 8002316:	6afb      	ldr	r3, [r7, #44]	; 0x2c
 8002318:	3b01      	subs	r3, #1
 800231a:	62fb      	str	r3, [r7, #44]	; 0x2c
    }
    while ((len < prec) && (len < PRINTF_NTOA_BUFFER_SIZE)) {
 800231c:	e006      	b.n	800232c <_ntoa_format+0x50>
      buf[len++] = '0';
 800231e:	69fb      	ldr	r3, [r7, #28]
 8002320:	1c5a      	adds	r2, r3, #1
 8002322:	61fa      	str	r2, [r7, #28]
 8002324:	69ba      	ldr	r2, [r7, #24]
 8002326:	4413      	add	r3, r2
 8002328:	2230      	movs	r2, #48	; 0x30
 800232a:	701a      	strb	r2, [r3, #0]
    while ((len < prec) && (len < PRINTF_NTOA_BUFFER_SIZE)) {
 800232c:	69fa      	ldr	r2, [r7, #28]
 800232e:	6abb      	ldr	r3, [r7, #40]	; 0x28
 8002330:	429a      	cmp	r2, r3
 8002332:	d20a      	bcs.n	800234a <_ntoa_format+0x6e>
 8002334:	69fb      	ldr	r3, [r7, #28]
 8002336:	2b1f      	cmp	r3, #31
 8002338:	d9f1      	bls.n	800231e <_ntoa_format+0x42>
    }
    while ((flags & FLAGS_ZEROPAD) && (len < width) && (len < PRINTF_NTOA_BUFFER_SIZE)) {
 800233a:	e006      	b.n	800234a <_ntoa_format+0x6e>
      buf[len++] = '0';
 800233c:	69fb      	ldr	r3, [r7, #28]
 800233e:	1c5a      	adds	r2, r3, #1
 8002340:	61fa      	str	r2, [r7, #28]
 8002342:	69ba      	ldr	r2, [r7, #24]
 8002344:	4413      	add	r3, r2
 8002346:	2230      	movs	r2, #48	; 0x30
 8002348:	701a      	strb	r2, [r3, #0]
    while ((flags & FLAGS_ZEROPAD) && (len < width) && (len < PRINTF_NTOA_BUFFER_SIZE)) {
 800234a:	6b3b      	ldr	r3, [r7, #48]	; 0x30
 800234c:	f003 0301 	and.w	r3, r3, #1
 8002350:	2b00      	cmp	r3, #0
 8002352:	d006      	beq.n	8002362 <_ntoa_format+0x86>
 8002354:	69fa      	ldr	r2, [r7, #28]
 8002356:	6afb      	ldr	r3, [r7, #44]	; 0x2c
 8002358:	429a      	cmp	r2, r3
 800235a:	d202      	bcs.n	8002362 <_ntoa_format+0x86>
 800235c:	69fb      	ldr	r3, [r7, #28]
 800235e:	2b1f      	cmp	r3, #31
 8002360:	d9ec      	bls.n	800233c <_ntoa_format+0x60>
    }
  }

  // handle hash
  if (flags & FLAGS_HASH) {
 8002362:	6b3b      	ldr	r3, [r7, #48]	; 0x30
 8002364:	f003 0310 	and.w	r3, r3, #16
 8002368:	2b00      	cmp	r3, #0
 800236a:	d058      	beq.n	800241e <_ntoa_format+0x142>
    if (!(flags & FLAGS_PRECISION) && len && ((len == prec) || (len == width))) {
 800236c:	6b3b      	ldr	r3, [r7, #48]	; 0x30
 800236e:	f403 6380 	and.w	r3, r3, #1024	; 0x400
 8002372:	2b00      	cmp	r3, #0
 8002374:	d116      	bne.n	80023a4 <_ntoa_format+0xc8>
 8002376:	69fb      	ldr	r3, [r7, #28]
 8002378:	2b00      	cmp	r3, #0
 800237a:	d013      	beq.n	80023a4 <_ntoa_format+0xc8>
 800237c:	69fa      	ldr	r2, [r7, #28]
 800237e:	6abb      	ldr	r3, [r7, #40]	; 0x28
 8002380:	429a      	cmp	r2, r3
 8002382:	d003      	beq.n	800238c <_ntoa_format+0xb0>
 8002384:	69fa      	ldr	r2, [r7, #28]
 8002386:	6afb      	ldr	r3, [r7, #44]	; 0x2c
 8002388:	429a      	cmp	r2, r3
 800238a:	d10b      	bne.n	80023a4 <_ntoa_format+0xc8>
      len--;
 800238c:	69fb      	ldr	r3, [r7, #28]
 800238e:	3b01      	subs	r3, #1
 8002390:	61fb      	str	r3, [r7, #28]
      if (len && (base == 16U)) {
 8002392:	69fb      	ldr	r3, [r7, #28]
 8002394:	2b00      	cmp	r3, #0
 8002396:	d005      	beq.n	80023a4 <_ntoa_format+0xc8>
 8002398:	6a7b      	ldr	r3, [r7, #36]	; 0x24
 800239a:	2b10      	cmp	r3, #16
 800239c:	d102      	bne.n	80023a4 <_ntoa_format+0xc8>
        len--;
 800239e:	69fb      	ldr	r3, [r7, #28]
 80023a0:	3b01      	subs	r3, #1
 80023a2:	61fb      	str	r3, [r7, #28]
      }
    }
    if ((base == 16U) && !(flags & FLAGS_UPPERCASE) && (len < PRINTF_NTOA_BUFFER_SIZE)) {
 80023a4:	6a7b      	ldr	r3, [r7, #36]	; 0x24
 80023a6:	2b10      	cmp	r3, #16
 80023a8:	d10f      	bne.n	80023ca <_ntoa_format+0xee>
 80023aa:	6b3b      	ldr	r3, [r7, #48]	; 0x30
 80023ac:	f003 0320 	and.w	r3, r3, #32
 80023b0:	2b00      	cmp	r3, #0
 80023b2:	d10a      	bne.n	80023ca <_ntoa_format+0xee>
 80023b4:	69fb      	ldr	r3, [r7, #28]
 80023b6:	2b1f      	cmp	r3, #31
 80023b8:	d807      	bhi.n	80023ca <_ntoa_format+0xee>
      buf[len++] = 'x';
 80023ba:	69fb      	ldr	r3, [r7, #28]
 80023bc:	1c5a      	adds	r2, r3, #1
 80023be:	61fa      	str	r2, [r7, #28]
 80023c0:	69ba      	ldr	r2, [r7, #24]
 80023c2:	4413      	add	r3, r2
 80023c4:	2278      	movs	r2, #120	; 0x78
 80023c6:	701a      	strb	r2, [r3, #0]
 80023c8:	e01f      	b.n	800240a <_ntoa_format+0x12e>
    }
    else if ((base == 16U) && (flags & FLAGS_UPPERCASE) && (len < PRINTF_NTOA_BUFFER_SIZE)) {
 80023ca:	6a7b      	ldr	r3, [r7, #36]	; 0x24
 80023cc:	2b10      	cmp	r3, #16
 80023ce:	d10f      	bne.n	80023f0 <_ntoa_format+0x114>
 80023d0:	6b3b      	ldr	r3, [r7, #48]	; 0x30
 80023d2:	f003 0320 	and.w	r3, r3, #32
 80023d6:	2b00      	cmp	r3, #0
 80023d8:	d00a      	beq.n	80023f0 <_ntoa_format+0x114>
 80023da:	69fb      	ldr	r3, [r7, #28]
 80023dc:	2b1f      	cmp	r3, #31
 80023de:	d807      	bhi.n	80023f0 <_ntoa_format+0x114>
      buf[len++] = 'X';
 80023e0:	69fb      	ldr	r3, [r7, #28]
 80023e2:	1c5a      	adds	r2, r3, #1
 80023e4:	61fa      	str	r2, [r7, #28]
 80023e6:	69ba      	ldr	r2, [r7, #24]
 80023e8:	4413      	add	r3, r2
 80023ea:	2258      	movs	r2, #88	; 0x58
 80023ec:	701a      	strb	r2, [r3, #0]
 80023ee:	e00c      	b.n	800240a <_ntoa_format+0x12e>
    }
    else if ((base == 2U) && (len < PRINTF_NTOA_BUFFER_SIZE)) {
 80023f0:	6a7b      	ldr	r3, [r7, #36]	; 0x24
 80023f2:	2b02      	cmp	r3, #2
 80023f4:	d109      	bne.n	800240a <_ntoa_format+0x12e>
 80023f6:	69fb      	ldr	r3, [r7, #28]
 80023f8:	2b1f      	cmp	r3, #31
 80023fa:	d806      	bhi.n	800240a <_ntoa_format+0x12e>
      buf[len++] = 'b';
 80023fc:	69fb      	ldr	r3, [r7, #28]
 80023fe:	1c5a      	adds	r2, r3, #1
 8002400:	61fa      	str	r2, [r7, #28]
 8002402:	69ba      	ldr	r2, [r7, #24]
 8002404:	4413      	add	r3, r2
 8002406:	2262      	movs	r2, #98	; 0x62
 8002408:	701a      	strb	r2, [r3, #0]
    }
    if (len < PRINTF_NTOA_BUFFER_SIZE) {
 800240a:	69fb      	ldr	r3, [r7, #28]
 800240c:	2b1f      	cmp	r3, #31
 800240e:	d806      	bhi.n	800241e <_ntoa_format+0x142>
      buf[len++] = '0';
 8002410:	69fb      	ldr	r3, [r7, #28]
 8002412:	1c5a      	adds	r2, r3, #1
 8002414:	61fa      	str	r2, [r7, #28]
 8002416:	69ba      	ldr	r2, [r7, #24]
 8002418:	4413      	add	r3, r2
 800241a:	2230      	movs	r2, #48	; 0x30
 800241c:	701a      	strb	r2, [r3, #0]
    }
  }

  if (len < PRINTF_NTOA_BUFFER_SIZE) {
 800241e:	69fb      	ldr	r3, [r7, #28]
 8002420:	2b1f      	cmp	r3, #31
 8002422:	d824      	bhi.n	800246e <_ntoa_format+0x192>
    if (negative) {
 8002424:	f897 3020 	ldrb.w	r3, [r7, #32]
 8002428:	2b00      	cmp	r3, #0
 800242a:	d007      	beq.n	800243c <_ntoa_format+0x160>
      buf[len++] = '-';
 800242c:	69fb      	ldr	r3, [r7, #28]
 800242e:	1c5a      	adds	r2, r3, #1
 8002430:	61fa      	str	r2, [r7, #28]
 8002432:	69ba      	ldr	r2, [r7, #24]
 8002434:	4413      	add	r3, r2
 8002436:	222d      	movs	r2, #45	; 0x2d
 8002438:	701a      	strb	r2, [r3, #0]
 800243a:	e018      	b.n	800246e <_ntoa_format+0x192>
    }
    else if (flags & FLAGS_PLUS) {
 800243c:	6b3b      	ldr	r3, [r7, #48]	; 0x30
 800243e:	f003 0304 	and.w	r3, r3, #4
 8002442:	2b00      	cmp	r3, #0
 8002444:	d007      	beq.n	8002456 <_ntoa_format+0x17a>
      buf[len++] = '+';  // ignore the space if the '+' exists
 8002446:	69fb      	ldr	r3, [r7, #28]
 8002448:	1c5a      	adds	r2, r3, #1
 800244a:	61fa      	str	r2, [r7, #28]
 800244c:	69ba      	ldr	r2, [r7, #24]
 800244e:	4413      	add	r3, r2
 8002450:	222b      	movs	r2, #43	; 0x2b
 8002452:	701a      	strb	r2, [r3, #0]
 8002454:	e00b      	b.n	800246e <_ntoa_format+0x192>
    }
    else if (flags & FLAGS_SPACE) {
 8002456:	6b3b      	ldr	r3, [r7, #48]	; 0x30
 8002458:	f003 0308 	and.w	r3, r3, #8
 800245c:	2b00      	cmp	r3, #0
 800245e:	d006      	beq.n	800246e <_ntoa_format+0x192>
      buf[len++] = ' ';
 8002460:	69fb      	ldr	r3, [r7, #28]
 8002462:	1c5a      	adds	r2, r3, #1
 8002464:	61fa      	str	r2, [r7, #28]
 8002466:	69ba      	ldr	r2, [r7, #24]
 8002468:	4413      	add	r3, r2
 800246a:	2220      	movs	r2, #32
 800246c:	701a      	strb	r2, [r3, #0]
    }
  }

  return _out_rev(out, buffer, idx, maxlen, buf, len, width, flags);
 800246e:	6b3b      	ldr	r3, [r7, #48]	; 0x30
 8002470:	9303      	str	r3, [sp, #12]
 8002472:	6afb      	ldr	r3, [r7, #44]	; 0x2c
 8002474:	9302      	str	r3, [sp, #8]
 8002476:	69fb      	ldr	r3, [r7, #28]
 8002478:	9301      	str	r3, [sp, #4]
 800247a:	69bb      	ldr	r3, [r7, #24]
 800247c:	9300      	str	r3, [sp, #0]
 800247e:	683b      	ldr	r3, [r7, #0]
 8002480:	687a      	ldr	r2, [r7, #4]
 8002482:	68b9      	ldr	r1, [r7, #8]
 8002484:	68f8      	ldr	r0, [r7, #12]
 8002486:	f7ff fed9 	bl	800223c <_out_rev>
 800248a:	4603      	mov	r3, r0
}
 800248c:	4618      	mov	r0, r3
 800248e:	3710      	adds	r7, #16
 8002490:	46bd      	mov	sp, r7
 8002492:	bd80      	pop	{r7, pc}

08002494 <_ntoa_long>:


// internal itoa for 'long' type
static size_t _ntoa_long(out_fct_type out, char* buffer, size_t idx, size_t maxlen, unsigned long value, bool negative, unsigned long base, unsigned int prec, unsigned int width, unsigned int flags)
{
 8002494:	b580      	push	{r7, lr}
 8002496:	b096      	sub	sp, #88	; 0x58
 8002498:	af08      	add	r7, sp, #32
 800249a:	60f8      	str	r0, [r7, #12]
 800249c:	60b9      	str	r1, [r7, #8]
 800249e:	607a      	str	r2, [r7, #4]
 80024a0:	603b      	str	r3, [r7, #0]
  char buf[PRINTF_NTOA_BUFFER_SIZE];
  size_t len = 0U;
 80024a2:	2300      	movs	r3, #0
 80024a4:	637b      	str	r3, [r7, #52]	; 0x34

  // no hash for 0 values
  if (!value) {
 80024a6:	6c3b      	ldr	r3, [r7, #64]	; 0x40
 80024a8:	2b00      	cmp	r3, #0
 80024aa:	d103      	bne.n	80024b4 <_ntoa_long+0x20>
    flags &= ~FLAGS_HASH;
 80024ac:	6d7b      	ldr	r3, [r7, #84]	; 0x54
 80024ae:	f023 0310 	bic.w	r3, r3, #16
 80024b2:	657b      	str	r3, [r7, #84]	; 0x54
  }

  // write if precision != 0 and value is != 0
  if (!(flags & FLAGS_PRECISION) || value) {
 80024b4:	6d7b      	ldr	r3, [r7, #84]	; 0x54
 80024b6:	f403 6380 	and.w	r3, r3, #1024	; 0x400
 80024ba:	2b00      	cmp	r3, #0
 80024bc:	d002      	beq.n	80024c4 <_ntoa_long+0x30>
 80024be:	6c3b      	ldr	r3, [r7, #64]	; 0x40
 80024c0:	2b00      	cmp	r3, #0
 80024c2:	d033      	beq.n	800252c <_ntoa_long+0x98>
    do {
      const char digit = (char)(value % base);
 80024c4:	6c3b      	ldr	r3, [r7, #64]	; 0x40
 80024c6:	6cba      	ldr	r2, [r7, #72]	; 0x48
 80024c8:	fbb3 f2f2 	udiv	r2, r3, r2
 80024cc:	6cb9      	ldr	r1, [r7, #72]	; 0x48
 80024ce:	fb01 f202 	mul.w	r2, r1, r2
 80024d2:	1a9b      	subs	r3, r3, r2
 80024d4:	f887 3033 	strb.w	r3, [r7, #51]	; 0x33
      buf[len++] = digit < 10 ? '0' + digit : (flags & FLAGS_UPPERCASE ? 'A' : 'a') + digit - 10;
 80024d8:	f897 3033 	ldrb.w	r3, [r7, #51]	; 0x33
 80024dc:	2b09      	cmp	r3, #9
 80024de:	d804      	bhi.n	80024ea <_ntoa_long+0x56>
 80024e0:	f897 3033 	ldrb.w	r3, [r7, #51]	; 0x33
 80024e4:	3330      	adds	r3, #48	; 0x30
 80024e6:	b2da      	uxtb	r2, r3
 80024e8:	e00d      	b.n	8002506 <_ntoa_long+0x72>
 80024ea:	6d7b      	ldr	r3, [r7, #84]	; 0x54
 80024ec:	f003 0320 	and.w	r3, r3, #32
 80024f0:	2b00      	cmp	r3, #0
 80024f2:	d001      	beq.n	80024f8 <_ntoa_long+0x64>
 80024f4:	2241      	movs	r2, #65	; 0x41
 80024f6:	e000      	b.n	80024fa <_ntoa_long+0x66>
 80024f8:	2261      	movs	r2, #97	; 0x61
 80024fa:	f897 3033 	ldrb.w	r3, [r7, #51]	; 0x33
 80024fe:	4413      	add	r3, r2
 8002500:	b2db      	uxtb	r3, r3
 8002502:	3b0a      	subs	r3, #10
 8002504:	b2da      	uxtb	r2, r3
 8002506:	6b7b      	ldr	r3, [r7, #52]	; 0x34
 8002508:	1c59      	adds	r1, r3, #1
 800250a:	6379      	str	r1, [r7, #52]	; 0x34
 800250c:	f107 0138 	add.w	r1, r7, #56	; 0x38
 8002510:	440b      	add	r3, r1
 8002512:	f803 2c28 	strb.w	r2, [r3, #-40]
      value /= base;
 8002516:	6c3a      	ldr	r2, [r7, #64]	; 0x40
 8002518:	6cbb      	ldr	r3, [r7, #72]	; 0x48
 800251a:	fbb2 f3f3 	udiv	r3, r2, r3
 800251e:	643b      	str	r3, [r7, #64]	; 0x40
    } while (value && (len < PRINTF_NTOA_BUFFER_SIZE));
 8002520:	6c3b      	ldr	r3, [r7, #64]	; 0x40
 8002522:	2b00      	cmp	r3, #0
 8002524:	d002      	beq.n	800252c <_ntoa_long+0x98>
 8002526:	6b7b      	ldr	r3, [r7, #52]	; 0x34
 8002528:	2b1f      	cmp	r3, #31
 800252a:	d9cb      	bls.n	80024c4 <_ntoa_long+0x30>
  }

  return _ntoa_format(out, buffer, idx, maxlen, buf, len, negative, (unsigned int)base, prec, width, flags);
 800252c:	6d7b      	ldr	r3, [r7, #84]	; 0x54
 800252e:	9306      	str	r3, [sp, #24]
 8002530:	6d3b      	ldr	r3, [r7, #80]	; 0x50
 8002532:	9305      	str	r3, [sp, #20]
 8002534:	6cfb      	ldr	r3, [r7, #76]	; 0x4c
 8002536:	9304      	str	r3, [sp, #16]
 8002538:	6cbb      	ldr	r3, [r7, #72]	; 0x48
 800253a:	9303      	str	r3, [sp, #12]
 800253c:	f897 3044 	ldrb.w	r3, [r7, #68]	; 0x44
 8002540:	9302      	str	r3, [sp, #8]
 8002542:	6b7b      	ldr	r3, [r7, #52]	; 0x34
 8002544:	9301      	str	r3, [sp, #4]
 8002546:	f107 0310 	add.w	r3, r7, #16
 800254a:	9300      	str	r3, [sp, #0]
 800254c:	683b      	ldr	r3, [r7, #0]
 800254e:	687a      	ldr	r2, [r7, #4]
 8002550:	68b9      	ldr	r1, [r7, #8]
 8002552:	68f8      	ldr	r0, [r7, #12]
 8002554:	f7ff fec2 	bl	80022dc <_ntoa_format>
 8002558:	4603      	mov	r3, r0
}
 800255a:	4618      	mov	r0, r3
 800255c:	3738      	adds	r7, #56	; 0x38
 800255e:	46bd      	mov	sp, r7
 8002560:	bd80      	pop	{r7, pc}

08002562 <_ntoa_long_long>:


// internal itoa for 'long long' type
#if defined(PRINTF_SUPPORT_LONG_LONG)
static size_t _ntoa_long_long(out_fct_type out, char* buffer, size_t idx, size_t maxlen, unsigned long long value, bool negative, unsigned long long base, unsigned int prec, unsigned int width, unsigned int flags)
{
 8002562:	b590      	push	{r4, r7, lr}
 8002564:	b097      	sub	sp, #92	; 0x5c
 8002566:	af08      	add	r7, sp, #32
 8002568:	60f8      	str	r0, [r7, #12]
 800256a:	60b9      	str	r1, [r7, #8]
 800256c:	607a      	str	r2, [r7, #4]
 800256e:	603b      	str	r3, [r7, #0]
  char buf[PRINTF_NTOA_BUFFER_SIZE];
  size_t len = 0U;
 8002570:	2300      	movs	r3, #0
 8002572:	637b      	str	r3, [r7, #52]	; 0x34

  // no hash for 0 values
  if (!value) {
 8002574:	e9d7 3412 	ldrd	r3, r4, [r7, #72]	; 0x48
 8002578:	4323      	orrs	r3, r4
 800257a:	d103      	bne.n	8002584 <_ntoa_long_long+0x22>
    flags &= ~FLAGS_HASH;
 800257c:	6ebb      	ldr	r3, [r7, #104]	; 0x68
 800257e:	f023 0310 	bic.w	r3, r3, #16
 8002582:	66bb      	str	r3, [r7, #104]	; 0x68
  }

  // write if precision != 0 and value is != 0
  if (!(flags & FLAGS_PRECISION) || value) {
 8002584:	6ebb      	ldr	r3, [r7, #104]	; 0x68
 8002586:	f403 6380 	and.w	r3, r3, #1024	; 0x400
 800258a:	2b00      	cmp	r3, #0
 800258c:	d003      	beq.n	8002596 <_ntoa_long_long+0x34>
 800258e:	e9d7 3412 	ldrd	r3, r4, [r7, #72]	; 0x48
 8002592:	4323      	orrs	r3, r4
 8002594:	d039      	beq.n	800260a <_ntoa_long_long+0xa8>
    do {
      const char digit = (char)(value % base);
 8002596:	e9d7 0112 	ldrd	r0, r1, [r7, #72]	; 0x48
 800259a:	e9d7 2316 	ldrd	r2, r3, [r7, #88]	; 0x58
 800259e:	f7fe fb2b 	bl	8000bf8 <__aeabi_uldivmod>
 80025a2:	461c      	mov	r4, r3
 80025a4:	4613      	mov	r3, r2
 80025a6:	f887 3033 	strb.w	r3, [r7, #51]	; 0x33
      buf[len++] = digit < 10 ? '0' + digit : (flags & FLAGS_UPPERCASE ? 'A' : 'a') + digit - 10;
 80025aa:	f897 3033 	ldrb.w	r3, [r7, #51]	; 0x33
 80025ae:	2b09      	cmp	r3, #9
 80025b0:	d804      	bhi.n	80025bc <_ntoa_long_long+0x5a>
 80025b2:	f897 3033 	ldrb.w	r3, [r7, #51]	; 0x33
 80025b6:	3330      	adds	r3, #48	; 0x30
 80025b8:	b2da      	uxtb	r2, r3
 80025ba:	e00d      	b.n	80025d8 <_ntoa_long_long+0x76>
 80025bc:	6ebb      	ldr	r3, [r7, #104]	; 0x68
 80025be:	f003 0320 	and.w	r3, r3, #32
 80025c2:	2b00      	cmp	r3, #0
 80025c4:	d001      	beq.n	80025ca <_ntoa_long_long+0x68>
 80025c6:	2241      	movs	r2, #65	; 0x41
 80025c8:	e000      	b.n	80025cc <_ntoa_long_long+0x6a>
 80025ca:	2261      	movs	r2, #97	; 0x61
 80025cc:	f897 3033 	ldrb.w	r3, [r7, #51]	; 0x33
 80025d0:	4413      	add	r3, r2
 80025d2:	b2db      	uxtb	r3, r3
 80025d4:	3b0a      	subs	r3, #10
 80025d6:	b2da      	uxtb	r2, r3
 80025d8:	6b7b      	ldr	r3, [r7, #52]	; 0x34
 80025da:	1c59      	adds	r1, r3, #1
 80025dc:	6379      	str	r1, [r7, #52]	; 0x34
 80025de:	f107 0138 	add.w	r1, r7, #56	; 0x38
 80025e2:	440b      	add	r3, r1
 80025e4:	f803 2c28 	strb.w	r2, [r3, #-40]
      value /= base;
 80025e8:	e9d7 2316 	ldrd	r2, r3, [r7, #88]	; 0x58
 80025ec:	e9d7 0112 	ldrd	r0, r1, [r7, #72]	; 0x48
 80025f0:	f7fe fb02 	bl	8000bf8 <__aeabi_uldivmod>
 80025f4:	4603      	mov	r3, r0
 80025f6:	460c      	mov	r4, r1
 80025f8:	e9c7 3412 	strd	r3, r4, [r7, #72]	; 0x48
    } while (value && (len < PRINTF_NTOA_BUFFER_SIZE));
 80025fc:	e9d7 3412 	ldrd	r3, r4, [r7, #72]	; 0x48
 8002600:	4323      	orrs	r3, r4
 8002602:	d002      	beq.n	800260a <_ntoa_long_long+0xa8>
 8002604:	6b7b      	ldr	r3, [r7, #52]	; 0x34
 8002606:	2b1f      	cmp	r3, #31
 8002608:	d9c5      	bls.n	8002596 <_ntoa_long_long+0x34>
  }

  return _ntoa_format(out, buffer, idx, maxlen, buf, len, negative, (unsigned int)base, prec, width, flags);
 800260a:	6dbb      	ldr	r3, [r7, #88]	; 0x58
 800260c:	6eba      	ldr	r2, [r7, #104]	; 0x68
 800260e:	9206      	str	r2, [sp, #24]
 8002610:	6e7a      	ldr	r2, [r7, #100]	; 0x64
 8002612:	9205      	str	r2, [sp, #20]
 8002614:	6e3a      	ldr	r2, [r7, #96]	; 0x60
 8002616:	9204      	str	r2, [sp, #16]
 8002618:	9303      	str	r3, [sp, #12]
 800261a:	f897 3050 	ldrb.w	r3, [r7, #80]	; 0x50
 800261e:	9302      	str	r3, [sp, #8]
 8002620:	6b7b      	ldr	r3, [r7, #52]	; 0x34
 8002622:	9301      	str	r3, [sp, #4]
 8002624:	f107 0310 	add.w	r3, r7, #16
 8002628:	9300      	str	r3, [sp, #0]
 800262a:	683b      	ldr	r3, [r7, #0]
 800262c:	687a      	ldr	r2, [r7, #4]
 800262e:	68b9      	ldr	r1, [r7, #8]
 8002630:	68f8      	ldr	r0, [r7, #12]
 8002632:	f7ff fe53 	bl	80022dc <_ntoa_format>
 8002636:	4603      	mov	r3, r0
}
 8002638:	4618      	mov	r0, r3
 800263a:	373c      	adds	r7, #60	; 0x3c
 800263c:	46bd      	mov	sp, r7
 800263e:	bd90      	pop	{r4, r7, pc}

08002640 <_ftoa>:
#endif


// internal ftoa for fixed decimal floating point
static size_t _ftoa(out_fct_type out, char* buffer, size_t idx, size_t maxlen, double value, unsigned int prec, unsigned int width, unsigned int flags)
{
 8002640:	b590      	push	{r4, r7, lr}
 8002642:	b09d      	sub	sp, #116	; 0x74
 8002644:	af04      	add	r7, sp, #16
 8002646:	6178      	str	r0, [r7, #20]
 8002648:	6139      	str	r1, [r7, #16]
 800264a:	60fa      	str	r2, [r7, #12]
 800264c:	60bb      	str	r3, [r7, #8]
 800264e:	ed87 0b00 	vstr	d0, [r7]
  char buf[PRINTF_FTOA_BUFFER_SIZE];
  size_t len  = 0U;
 8002652:	2300      	movs	r3, #0
 8002654:	65fb      	str	r3, [r7, #92]	; 0x5c
  double diff = 0.0;
 8002656:	f04f 0300 	mov.w	r3, #0
 800265a:	f04f 0400 	mov.w	r4, #0
 800265e:	e9c7 3410 	strd	r3, r4, [r7, #64]	; 0x40

  // powers of 10
  static const double pow10[] = { 1, 10, 100, 1000, 10000, 100000, 1000000, 10000000, 100000000, 1000000000 };

  // test for special values
  if (value != value)
 8002662:	e9d7 2300 	ldrd	r2, r3, [r7]
 8002666:	e9d7 0100 	ldrd	r0, r1, [r7]
 800266a:	f7fe f9e5 	bl	8000a38 <__aeabi_dcmpeq>
 800266e:	4603      	mov	r3, r0
 8002670:	2b00      	cmp	r3, #0
 8002672:	d10f      	bne.n	8002694 <_ftoa+0x54>
    return _out_rev(out, buffer, idx, maxlen, "nan", 3, width, flags);
 8002674:	6fbb      	ldr	r3, [r7, #120]	; 0x78
 8002676:	9303      	str	r3, [sp, #12]
 8002678:	6f7b      	ldr	r3, [r7, #116]	; 0x74
 800267a:	9302      	str	r3, [sp, #8]
 800267c:	2303      	movs	r3, #3
 800267e:	9301      	str	r3, [sp, #4]
 8002680:	4baf      	ldr	r3, [pc, #700]	; (8002940 <_ftoa+0x300>)
 8002682:	9300      	str	r3, [sp, #0]
 8002684:	68bb      	ldr	r3, [r7, #8]
 8002686:	68fa      	ldr	r2, [r7, #12]
 8002688:	6939      	ldr	r1, [r7, #16]
 800268a:	6978      	ldr	r0, [r7, #20]
 800268c:	f7ff fdd6 	bl	800223c <_out_rev>
 8002690:	4603      	mov	r3, r0
 8002692:	e237      	b.n	8002b04 <_ftoa+0x4c4>
  if (value < -DBL_MAX)
 8002694:	f04f 32ff 	mov.w	r2, #4294967295
 8002698:	f46f 1380 	mvn.w	r3, #1048576	; 0x100000
 800269c:	e9d7 0100 	ldrd	r0, r1, [r7]
 80026a0:	f7fe f9d4 	bl	8000a4c <__aeabi_dcmplt>
 80026a4:	4603      	mov	r3, r0
 80026a6:	2b00      	cmp	r3, #0
 80026a8:	d00f      	beq.n	80026ca <_ftoa+0x8a>
    return _out_rev(out, buffer, idx, maxlen, "fni-", 4, width, flags);
 80026aa:	6fbb      	ldr	r3, [r7, #120]	; 0x78
 80026ac:	9303      	str	r3, [sp, #12]
 80026ae:	6f7b      	ldr	r3, [r7, #116]	; 0x74
 80026b0:	9302      	str	r3, [sp, #8]
 80026b2:	2304      	movs	r3, #4
 80026b4:	9301      	str	r3, [sp, #4]
 80026b6:	4ba3      	ldr	r3, [pc, #652]	; (8002944 <_ftoa+0x304>)
 80026b8:	9300      	str	r3, [sp, #0]
 80026ba:	68bb      	ldr	r3, [r7, #8]
 80026bc:	68fa      	ldr	r2, [r7, #12]
 80026be:	6939      	ldr	r1, [r7, #16]
 80026c0:	6978      	ldr	r0, [r7, #20]
 80026c2:	f7ff fdbb 	bl	800223c <_out_rev>
 80026c6:	4603      	mov	r3, r0
 80026c8:	e21c      	b.n	8002b04 <_ftoa+0x4c4>
  if (value > DBL_MAX)
 80026ca:	f04f 32ff 	mov.w	r2, #4294967295
 80026ce:	4b9e      	ldr	r3, [pc, #632]	; (8002948 <_ftoa+0x308>)
 80026d0:	e9d7 0100 	ldrd	r0, r1, [r7]
 80026d4:	f7fe f9d8 	bl	8000a88 <__aeabi_dcmpgt>
 80026d8:	4603      	mov	r3, r0
 80026da:	2b00      	cmp	r3, #0
 80026dc:	d01d      	beq.n	800271a <_ftoa+0xda>
    return _out_rev(out, buffer, idx, maxlen, (flags & FLAGS_PLUS) ? "fni+" : "fni", (flags & FLAGS_PLUS) ? 4U : 3U, width, flags);
 80026de:	6fbb      	ldr	r3, [r7, #120]	; 0x78
 80026e0:	f003 0304 	and.w	r3, r3, #4
 80026e4:	2b00      	cmp	r3, #0
 80026e6:	d001      	beq.n	80026ec <_ftoa+0xac>
 80026e8:	4b98      	ldr	r3, [pc, #608]	; (800294c <_ftoa+0x30c>)
 80026ea:	e000      	b.n	80026ee <_ftoa+0xae>
 80026ec:	4b98      	ldr	r3, [pc, #608]	; (8002950 <_ftoa+0x310>)
 80026ee:	6fba      	ldr	r2, [r7, #120]	; 0x78
 80026f0:	f002 0204 	and.w	r2, r2, #4
 80026f4:	2a00      	cmp	r2, #0
 80026f6:	d001      	beq.n	80026fc <_ftoa+0xbc>
 80026f8:	2204      	movs	r2, #4
 80026fa:	e000      	b.n	80026fe <_ftoa+0xbe>
 80026fc:	2203      	movs	r2, #3
 80026fe:	6fb9      	ldr	r1, [r7, #120]	; 0x78
 8002700:	9103      	str	r1, [sp, #12]
 8002702:	6f79      	ldr	r1, [r7, #116]	; 0x74
 8002704:	9102      	str	r1, [sp, #8]
 8002706:	9201      	str	r2, [sp, #4]
 8002708:	9300      	str	r3, [sp, #0]
 800270a:	68bb      	ldr	r3, [r7, #8]
 800270c:	68fa      	ldr	r2, [r7, #12]
 800270e:	6939      	ldr	r1, [r7, #16]
 8002710:	6978      	ldr	r0, [r7, #20]
 8002712:	f7ff fd93 	bl	800223c <_out_rev>
 8002716:	4603      	mov	r3, r0
 8002718:	e1f4      	b.n	8002b04 <_ftoa+0x4c4>

  // test for very large values
  // standard printf behavior is to print EVERY whole number digit -- which could be 100s of characters overflowing your buffers == bad
  if ((value > PRINTF_MAX_FLOAT) || (value < -PRINTF_MAX_FLOAT)) {
 800271a:	a385      	add	r3, pc, #532	; (adr r3, 8002930 <_ftoa+0x2f0>)
 800271c:	e9d3 2300 	ldrd	r2, r3, [r3]
 8002720:	e9d7 0100 	ldrd	r0, r1, [r7]
 8002724:	f7fe f9b0 	bl	8000a88 <__aeabi_dcmpgt>
 8002728:	4603      	mov	r3, r0
 800272a:	2b00      	cmp	r3, #0
 800272c:	d109      	bne.n	8002742 <_ftoa+0x102>
 800272e:	a382      	add	r3, pc, #520	; (adr r3, 8002938 <_ftoa+0x2f8>)
 8002730:	e9d3 2300 	ldrd	r2, r3, [r3]
 8002734:	e9d7 0100 	ldrd	r0, r1, [r7]
 8002738:	f7fe f988 	bl	8000a4c <__aeabi_dcmplt>
 800273c:	4603      	mov	r3, r0
 800273e:	2b00      	cmp	r3, #0
 8002740:	d00f      	beq.n	8002762 <_ftoa+0x122>
#if defined(PRINTF_SUPPORT_EXPONENTIAL)
    return _etoa(out, buffer, idx, maxlen, value, prec, width, flags);
 8002742:	6fbb      	ldr	r3, [r7, #120]	; 0x78
 8002744:	9302      	str	r3, [sp, #8]
 8002746:	6f7b      	ldr	r3, [r7, #116]	; 0x74
 8002748:	9301      	str	r3, [sp, #4]
 800274a:	6f3b      	ldr	r3, [r7, #112]	; 0x70
 800274c:	9300      	str	r3, [sp, #0]
 800274e:	ed97 0b00 	vldr	d0, [r7]
 8002752:	68bb      	ldr	r3, [r7, #8]
 8002754:	68fa      	ldr	r2, [r7, #12]
 8002756:	6939      	ldr	r1, [r7, #16]
 8002758:	6978      	ldr	r0, [r7, #20]
 800275a:	f000 f9dd 	bl	8002b18 <_etoa>
 800275e:	4603      	mov	r3, r0
 8002760:	e1d0      	b.n	8002b04 <_ftoa+0x4c4>
    return 0U;
#endif
  }

  // test for negative
  bool negative = false;
 8002762:	2300      	movs	r3, #0
 8002764:	f887 305b 	strb.w	r3, [r7, #91]	; 0x5b
  if (value < 0) {
 8002768:	f04f 0200 	mov.w	r2, #0
 800276c:	f04f 0300 	mov.w	r3, #0
 8002770:	e9d7 0100 	ldrd	r0, r1, [r7]
 8002774:	f7fe f96a 	bl	8000a4c <__aeabi_dcmplt>
 8002778:	4603      	mov	r3, r0
 800277a:	2b00      	cmp	r3, #0
 800277c:	d00e      	beq.n	800279c <_ftoa+0x15c>
    negative = true;
 800277e:	2301      	movs	r3, #1
 8002780:	f887 305b 	strb.w	r3, [r7, #91]	; 0x5b
    value = 0 - value;
 8002784:	e9d7 2300 	ldrd	r2, r3, [r7]
 8002788:	f04f 0000 	mov.w	r0, #0
 800278c:	f04f 0100 	mov.w	r1, #0
 8002790:	f7fd fd32 	bl	80001f8 <__aeabi_dsub>
 8002794:	4603      	mov	r3, r0
 8002796:	460c      	mov	r4, r1
 8002798:	e9c7 3400 	strd	r3, r4, [r7]
  }

  // set default precision, if not set explicitly
  if (!(flags & FLAGS_PRECISION)) {
 800279c:	6fbb      	ldr	r3, [r7, #120]	; 0x78
 800279e:	f403 6380 	and.w	r3, r3, #1024	; 0x400
 80027a2:	2b00      	cmp	r3, #0
 80027a4:	d10e      	bne.n	80027c4 <_ftoa+0x184>
    prec = PRINTF_DEFAULT_FLOAT_PRECISION;
 80027a6:	2306      	movs	r3, #6
 80027a8:	673b      	str	r3, [r7, #112]	; 0x70
  }
  // limit precision to 9, cause a prec >= 10 can lead to overflow errors
  while ((len < PRINTF_FTOA_BUFFER_SIZE) && (prec > 9U)) {
 80027aa:	e00b      	b.n	80027c4 <_ftoa+0x184>
    buf[len++] = '0';
 80027ac:	6dfb      	ldr	r3, [r7, #92]	; 0x5c
 80027ae:	1c5a      	adds	r2, r3, #1
 80027b0:	65fa      	str	r2, [r7, #92]	; 0x5c
 80027b2:	f107 0260 	add.w	r2, r7, #96	; 0x60
 80027b6:	4413      	add	r3, r2
 80027b8:	2230      	movs	r2, #48	; 0x30
 80027ba:	f803 2c48 	strb.w	r2, [r3, #-72]
    prec--;
 80027be:	6f3b      	ldr	r3, [r7, #112]	; 0x70
 80027c0:	3b01      	subs	r3, #1
 80027c2:	673b      	str	r3, [r7, #112]	; 0x70
  while ((len < PRINTF_FTOA_BUFFER_SIZE) && (prec > 9U)) {
 80027c4:	6dfb      	ldr	r3, [r7, #92]	; 0x5c
 80027c6:	2b1f      	cmp	r3, #31
 80027c8:	d802      	bhi.n	80027d0 <_ftoa+0x190>
 80027ca:	6f3b      	ldr	r3, [r7, #112]	; 0x70
 80027cc:	2b09      	cmp	r3, #9
 80027ce:	d8ed      	bhi.n	80027ac <_ftoa+0x16c>
  }

  int whole = (int)value;
 80027d0:	e9d7 0100 	ldrd	r0, r1, [r7]
 80027d4:	f7fe f978 	bl	8000ac8 <__aeabi_d2iz>
 80027d8:	4603      	mov	r3, r0
 80027da:	657b      	str	r3, [r7, #84]	; 0x54
  double tmp = (value - whole) * pow10[prec];
 80027dc:	6d78      	ldr	r0, [r7, #84]	; 0x54
 80027de:	f7fd fe59 	bl	8000494 <__aeabi_i2d>
 80027e2:	4603      	mov	r3, r0
 80027e4:	460c      	mov	r4, r1
 80027e6:	461a      	mov	r2, r3
 80027e8:	4623      	mov	r3, r4
 80027ea:	e9d7 0100 	ldrd	r0, r1, [r7]
 80027ee:	f7fd fd03 	bl	80001f8 <__aeabi_dsub>
 80027f2:	4603      	mov	r3, r0
 80027f4:	460c      	mov	r4, r1
 80027f6:	4618      	mov	r0, r3
 80027f8:	4621      	mov	r1, r4
 80027fa:	4a56      	ldr	r2, [pc, #344]	; (8002954 <_ftoa+0x314>)
 80027fc:	6f3b      	ldr	r3, [r7, #112]	; 0x70
 80027fe:	00db      	lsls	r3, r3, #3
 8002800:	4413      	add	r3, r2
 8002802:	e9d3 3400 	ldrd	r3, r4, [r3]
 8002806:	461a      	mov	r2, r3
 8002808:	4623      	mov	r3, r4
 800280a:	f7fd fead 	bl	8000568 <__aeabi_dmul>
 800280e:	4603      	mov	r3, r0
 8002810:	460c      	mov	r4, r1
 8002812:	e9c7 340e 	strd	r3, r4, [r7, #56]	; 0x38
  unsigned long frac = (unsigned long)tmp;
 8002816:	e9d7 010e 	ldrd	r0, r1, [r7, #56]	; 0x38
 800281a:	f7fe f97d 	bl	8000b18 <__aeabi_d2uiz>
 800281e:	4603      	mov	r3, r0
 8002820:	653b      	str	r3, [r7, #80]	; 0x50
  diff = tmp - frac;
 8002822:	6d38      	ldr	r0, [r7, #80]	; 0x50
 8002824:	f7fd fe26 	bl	8000474 <__aeabi_ui2d>
 8002828:	4603      	mov	r3, r0
 800282a:	460c      	mov	r4, r1
 800282c:	461a      	mov	r2, r3
 800282e:	4623      	mov	r3, r4
 8002830:	e9d7 010e 	ldrd	r0, r1, [r7, #56]	; 0x38
 8002834:	f7fd fce0 	bl	80001f8 <__aeabi_dsub>
 8002838:	4603      	mov	r3, r0
 800283a:	460c      	mov	r4, r1
 800283c:	e9c7 3410 	strd	r3, r4, [r7, #64]	; 0x40

  if (diff > 0.5) {
 8002840:	f04f 0200 	mov.w	r2, #0
 8002844:	4b44      	ldr	r3, [pc, #272]	; (8002958 <_ftoa+0x318>)
 8002846:	e9d7 0110 	ldrd	r0, r1, [r7, #64]	; 0x40
 800284a:	f7fe f91d 	bl	8000a88 <__aeabi_dcmpgt>
 800284e:	4603      	mov	r3, r0
 8002850:	2b00      	cmp	r3, #0
 8002852:	d018      	beq.n	8002886 <_ftoa+0x246>
    ++frac;
 8002854:	6d3b      	ldr	r3, [r7, #80]	; 0x50
 8002856:	3301      	adds	r3, #1
 8002858:	653b      	str	r3, [r7, #80]	; 0x50
    // handle rollover, e.g. case 0.99 with prec 1 is 1.0
    if (frac >= pow10[prec]) {
 800285a:	6d38      	ldr	r0, [r7, #80]	; 0x50
 800285c:	f7fd fe0a 	bl	8000474 <__aeabi_ui2d>
 8002860:	4a3c      	ldr	r2, [pc, #240]	; (8002954 <_ftoa+0x314>)
 8002862:	6f3b      	ldr	r3, [r7, #112]	; 0x70
 8002864:	00db      	lsls	r3, r3, #3
 8002866:	4413      	add	r3, r2
 8002868:	e9d3 3400 	ldrd	r3, r4, [r3]
 800286c:	461a      	mov	r2, r3
 800286e:	4623      	mov	r3, r4
 8002870:	f7fe f900 	bl	8000a74 <__aeabi_dcmpge>
 8002874:	4603      	mov	r3, r0
 8002876:	2b00      	cmp	r3, #0
 8002878:	d01a      	beq.n	80028b0 <_ftoa+0x270>
      frac = 0;
 800287a:	2300      	movs	r3, #0
 800287c:	653b      	str	r3, [r7, #80]	; 0x50
      ++whole;
 800287e:	6d7b      	ldr	r3, [r7, #84]	; 0x54
 8002880:	3301      	adds	r3, #1
 8002882:	657b      	str	r3, [r7, #84]	; 0x54
 8002884:	e014      	b.n	80028b0 <_ftoa+0x270>
    }
  }
  else if (diff < 0.5) {
 8002886:	f04f 0200 	mov.w	r2, #0
 800288a:	4b33      	ldr	r3, [pc, #204]	; (8002958 <_ftoa+0x318>)
 800288c:	e9d7 0110 	ldrd	r0, r1, [r7, #64]	; 0x40
 8002890:	f7fe f8dc 	bl	8000a4c <__aeabi_dcmplt>
 8002894:	4603      	mov	r3, r0
 8002896:	2b00      	cmp	r3, #0
 8002898:	d10a      	bne.n	80028b0 <_ftoa+0x270>
  }
  else if ((frac == 0U) || (frac & 1U)) {
 800289a:	6d3b      	ldr	r3, [r7, #80]	; 0x50
 800289c:	2b00      	cmp	r3, #0
 800289e:	d004      	beq.n	80028aa <_ftoa+0x26a>
 80028a0:	6d3b      	ldr	r3, [r7, #80]	; 0x50
 80028a2:	f003 0301 	and.w	r3, r3, #1
 80028a6:	2b00      	cmp	r3, #0
 80028a8:	d002      	beq.n	80028b0 <_ftoa+0x270>
    // if halfway, round up if odd OR if last digit is 0
    ++frac;
 80028aa:	6d3b      	ldr	r3, [r7, #80]	; 0x50
 80028ac:	3301      	adds	r3, #1
 80028ae:	653b      	str	r3, [r7, #80]	; 0x50
  }

  if (prec == 0U) {
 80028b0:	6f3b      	ldr	r3, [r7, #112]	; 0x70
 80028b2:	2b00      	cmp	r3, #0
 80028b4:	d136      	bne.n	8002924 <_ftoa+0x2e4>
    diff = value - (double)whole;
 80028b6:	6d78      	ldr	r0, [r7, #84]	; 0x54
 80028b8:	f7fd fdec 	bl	8000494 <__aeabi_i2d>
 80028bc:	4603      	mov	r3, r0
 80028be:	460c      	mov	r4, r1
 80028c0:	461a      	mov	r2, r3
 80028c2:	4623      	mov	r3, r4
 80028c4:	e9d7 0100 	ldrd	r0, r1, [r7]
 80028c8:	f7fd fc96 	bl	80001f8 <__aeabi_dsub>
 80028cc:	4603      	mov	r3, r0
 80028ce:	460c      	mov	r4, r1
 80028d0:	e9c7 3410 	strd	r3, r4, [r7, #64]	; 0x40
    if ((!(diff < 0.5) || (diff > 0.5)) && (whole & 1)) {
 80028d4:	2301      	movs	r3, #1
 80028d6:	461c      	mov	r4, r3
 80028d8:	f04f 0200 	mov.w	r2, #0
 80028dc:	4b1e      	ldr	r3, [pc, #120]	; (8002958 <_ftoa+0x318>)
 80028de:	e9d7 0110 	ldrd	r0, r1, [r7, #64]	; 0x40
 80028e2:	f7fe f8b3 	bl	8000a4c <__aeabi_dcmplt>
 80028e6:	4603      	mov	r3, r0
 80028e8:	2b00      	cmp	r3, #0
 80028ea:	d101      	bne.n	80028f0 <_ftoa+0x2b0>
 80028ec:	2300      	movs	r3, #0
 80028ee:	461c      	mov	r4, r3
 80028f0:	b2e3      	uxtb	r3, r4
 80028f2:	f083 0301 	eor.w	r3, r3, #1
 80028f6:	b2db      	uxtb	r3, r3
 80028f8:	2b00      	cmp	r3, #0
 80028fa:	d109      	bne.n	8002910 <_ftoa+0x2d0>
 80028fc:	f04f 0200 	mov.w	r2, #0
 8002900:	4b15      	ldr	r3, [pc, #84]	; (8002958 <_ftoa+0x318>)
 8002902:	e9d7 0110 	ldrd	r0, r1, [r7, #64]	; 0x40
 8002906:	f7fe f8bf 	bl	8000a88 <__aeabi_dcmpgt>
 800290a:	4603      	mov	r3, r0
 800290c:	2b00      	cmp	r3, #0
 800290e:	d069      	beq.n	80029e4 <_ftoa+0x3a4>
 8002910:	6d7b      	ldr	r3, [r7, #84]	; 0x54
 8002912:	f003 0301 	and.w	r3, r3, #1
 8002916:	2b00      	cmp	r3, #0
 8002918:	f000 8087 	beq.w	8002a2a <_ftoa+0x3ea>
      // exactly 0.5 and ODD, then round up
      // 1.5 -> 2, but 2.5 -> 2
      ++whole;
 800291c:	6d7b      	ldr	r3, [r7, #84]	; 0x54
 800291e:	3301      	adds	r3, #1
 8002920:	657b      	str	r3, [r7, #84]	; 0x54
 8002922:	e082      	b.n	8002a2a <_ftoa+0x3ea>
    }
  }
  else {
    unsigned int count = prec;
 8002924:	6f3b      	ldr	r3, [r7, #112]	; 0x70
 8002926:	64fb      	str	r3, [r7, #76]	; 0x4c
    // now do fractional part, as an unsigned number
    while (len < PRINTF_FTOA_BUFFER_SIZE) {
 8002928:	e039      	b.n	800299e <_ftoa+0x35e>
 800292a:	bf00      	nop
 800292c:	f3af 8000 	nop.w
 8002930:	00000000 	.word	0x00000000
 8002934:	41cdcd65 	.word	0x41cdcd65
 8002938:	00000000 	.word	0x00000000
 800293c:	c1cdcd65 	.word	0xc1cdcd65
 8002940:	0800be4c 	.word	0x0800be4c
 8002944:	0800be50 	.word	0x0800be50
 8002948:	7fefffff 	.word	0x7fefffff
 800294c:	0800be58 	.word	0x0800be58
 8002950:	0800be60 	.word	0x0800be60
 8002954:	0800c120 	.word	0x0800c120
 8002958:	3fe00000 	.word	0x3fe00000
      --count;
 800295c:	6cfb      	ldr	r3, [r7, #76]	; 0x4c
 800295e:	3b01      	subs	r3, #1
 8002960:	64fb      	str	r3, [r7, #76]	; 0x4c
      buf[len++] = (char)(48U + (frac % 10U));
 8002962:	6d39      	ldr	r1, [r7, #80]	; 0x50
 8002964:	4b69      	ldr	r3, [pc, #420]	; (8002b0c <_ftoa+0x4cc>)
 8002966:	fba3 2301 	umull	r2, r3, r3, r1
 800296a:	08da      	lsrs	r2, r3, #3
 800296c:	4613      	mov	r3, r2
 800296e:	009b      	lsls	r3, r3, #2
 8002970:	4413      	add	r3, r2
 8002972:	005b      	lsls	r3, r3, #1
 8002974:	1aca      	subs	r2, r1, r3
 8002976:	b2d2      	uxtb	r2, r2
 8002978:	6dfb      	ldr	r3, [r7, #92]	; 0x5c
 800297a:	1c59      	adds	r1, r3, #1
 800297c:	65f9      	str	r1, [r7, #92]	; 0x5c
 800297e:	3230      	adds	r2, #48	; 0x30
 8002980:	b2d2      	uxtb	r2, r2
 8002982:	f107 0160 	add.w	r1, r7, #96	; 0x60
 8002986:	440b      	add	r3, r1
 8002988:	f803 2c48 	strb.w	r2, [r3, #-72]
      if (!(frac /= 10U)) {
 800298c:	6d3b      	ldr	r3, [r7, #80]	; 0x50
 800298e:	4a5f      	ldr	r2, [pc, #380]	; (8002b0c <_ftoa+0x4cc>)
 8002990:	fba2 2303 	umull	r2, r3, r2, r3
 8002994:	08db      	lsrs	r3, r3, #3
 8002996:	653b      	str	r3, [r7, #80]	; 0x50
 8002998:	6d3b      	ldr	r3, [r7, #80]	; 0x50
 800299a:	2b00      	cmp	r3, #0
 800299c:	d003      	beq.n	80029a6 <_ftoa+0x366>
    while (len < PRINTF_FTOA_BUFFER_SIZE) {
 800299e:	6dfb      	ldr	r3, [r7, #92]	; 0x5c
 80029a0:	2b1f      	cmp	r3, #31
 80029a2:	d9db      	bls.n	800295c <_ftoa+0x31c>
 80029a4:	e00a      	b.n	80029bc <_ftoa+0x37c>
        break;
 80029a6:	bf00      	nop
      }
    }
    // add extra 0s
    while ((len < PRINTF_FTOA_BUFFER_SIZE) && (count-- > 0U)) {
 80029a8:	e008      	b.n	80029bc <_ftoa+0x37c>
      buf[len++] = '0';
 80029aa:	6dfb      	ldr	r3, [r7, #92]	; 0x5c
 80029ac:	1c5a      	adds	r2, r3, #1
 80029ae:	65fa      	str	r2, [r7, #92]	; 0x5c
 80029b0:	f107 0260 	add.w	r2, r7, #96	; 0x60
 80029b4:	4413      	add	r3, r2
 80029b6:	2230      	movs	r2, #48	; 0x30
 80029b8:	f803 2c48 	strb.w	r2, [r3, #-72]
    while ((len < PRINTF_FTOA_BUFFER_SIZE) && (count-- > 0U)) {
 80029bc:	6dfb      	ldr	r3, [r7, #92]	; 0x5c
 80029be:	2b1f      	cmp	r3, #31
 80029c0:	d804      	bhi.n	80029cc <_ftoa+0x38c>
 80029c2:	6cfb      	ldr	r3, [r7, #76]	; 0x4c
 80029c4:	1e5a      	subs	r2, r3, #1
 80029c6:	64fa      	str	r2, [r7, #76]	; 0x4c
 80029c8:	2b00      	cmp	r3, #0
 80029ca:	d1ee      	bne.n	80029aa <_ftoa+0x36a>
    }
    if (len < PRINTF_FTOA_BUFFER_SIZE) {
 80029cc:	6dfb      	ldr	r3, [r7, #92]	; 0x5c
 80029ce:	2b1f      	cmp	r3, #31
 80029d0:	d82b      	bhi.n	8002a2a <_ftoa+0x3ea>
      // add decimal
      buf[len++] = '.';
 80029d2:	6dfb      	ldr	r3, [r7, #92]	; 0x5c
 80029d4:	1c5a      	adds	r2, r3, #1
 80029d6:	65fa      	str	r2, [r7, #92]	; 0x5c
 80029d8:	f107 0260 	add.w	r2, r7, #96	; 0x60
 80029dc:	4413      	add	r3, r2
 80029de:	222e      	movs	r2, #46	; 0x2e
 80029e0:	f803 2c48 	strb.w	r2, [r3, #-72]
    }
  }

  // do whole part, number is reversed
  while (len < PRINTF_FTOA_BUFFER_SIZE) {
 80029e4:	e021      	b.n	8002a2a <_ftoa+0x3ea>
    buf[len++] = (char)(48 + (whole % 10));
 80029e6:	6d7a      	ldr	r2, [r7, #84]	; 0x54
 80029e8:	4b49      	ldr	r3, [pc, #292]	; (8002b10 <_ftoa+0x4d0>)
 80029ea:	fb83 1302 	smull	r1, r3, r3, r2
 80029ee:	1099      	asrs	r1, r3, #2
 80029f0:	17d3      	asrs	r3, r2, #31
 80029f2:	1ac9      	subs	r1, r1, r3
 80029f4:	460b      	mov	r3, r1
 80029f6:	009b      	lsls	r3, r3, #2
 80029f8:	440b      	add	r3, r1
 80029fa:	005b      	lsls	r3, r3, #1
 80029fc:	1ad1      	subs	r1, r2, r3
 80029fe:	b2ca      	uxtb	r2, r1
 8002a00:	6dfb      	ldr	r3, [r7, #92]	; 0x5c
 8002a02:	1c59      	adds	r1, r3, #1
 8002a04:	65f9      	str	r1, [r7, #92]	; 0x5c
 8002a06:	3230      	adds	r2, #48	; 0x30
 8002a08:	b2d2      	uxtb	r2, r2
 8002a0a:	f107 0160 	add.w	r1, r7, #96	; 0x60
 8002a0e:	440b      	add	r3, r1
 8002a10:	f803 2c48 	strb.w	r2, [r3, #-72]
    if (!(whole /= 10)) {
 8002a14:	6d7b      	ldr	r3, [r7, #84]	; 0x54
 8002a16:	4a3e      	ldr	r2, [pc, #248]	; (8002b10 <_ftoa+0x4d0>)
 8002a18:	fb82 1203 	smull	r1, r2, r2, r3
 8002a1c:	1092      	asrs	r2, r2, #2
 8002a1e:	17db      	asrs	r3, r3, #31
 8002a20:	1ad3      	subs	r3, r2, r3
 8002a22:	657b      	str	r3, [r7, #84]	; 0x54
 8002a24:	6d7b      	ldr	r3, [r7, #84]	; 0x54
 8002a26:	2b00      	cmp	r3, #0
 8002a28:	d003      	beq.n	8002a32 <_ftoa+0x3f2>
  while (len < PRINTF_FTOA_BUFFER_SIZE) {
 8002a2a:	6dfb      	ldr	r3, [r7, #92]	; 0x5c
 8002a2c:	2b1f      	cmp	r3, #31
 8002a2e:	d9da      	bls.n	80029e6 <_ftoa+0x3a6>
 8002a30:	e000      	b.n	8002a34 <_ftoa+0x3f4>
      break;
 8002a32:	bf00      	nop
    }
  }

  // pad leading zeros
  if (!(flags & FLAGS_LEFT) && (flags & FLAGS_ZEROPAD)) {
 8002a34:	6fbb      	ldr	r3, [r7, #120]	; 0x78
 8002a36:	f003 0302 	and.w	r3, r3, #2
 8002a3a:	2b00      	cmp	r3, #0
 8002a3c:	d124      	bne.n	8002a88 <_ftoa+0x448>
 8002a3e:	6fbb      	ldr	r3, [r7, #120]	; 0x78
 8002a40:	f003 0301 	and.w	r3, r3, #1
 8002a44:	2b00      	cmp	r3, #0
 8002a46:	d01f      	beq.n	8002a88 <_ftoa+0x448>
    if (width && (negative || (flags & (FLAGS_PLUS | FLAGS_SPACE)))) {
 8002a48:	6f7b      	ldr	r3, [r7, #116]	; 0x74
 8002a4a:	2b00      	cmp	r3, #0
 8002a4c:	d015      	beq.n	8002a7a <_ftoa+0x43a>
 8002a4e:	f897 305b 	ldrb.w	r3, [r7, #91]	; 0x5b
