
T11_L15_RTOS_LEDs.elf:     file format elf32-littlearm

Sections:
Idx Name          Size      VMA       LMA       File off  Algn
  0 .isr_vector   00000198  08000000  08000000  00010000  2**0
                  CONTENTS, ALLOC, LOAD, READONLY, DATA
  1 .text         00005314  080001a0  080001a0  000101a0  2**4
                  CONTENTS, ALLOC, LOAD, READONLY, CODE
  2 .rodata       000000c0  080054b4  080054b4  000154b4  2**2
                  CONTENTS, ALLOC, LOAD, READONLY, DATA
  3 .ARM.extab    00000000  08005574  08005574  00020010  2**0
                  CONTENTS
  4 .ARM          00000008  08005574  08005574  00015574  2**2
                  CONTENTS, ALLOC, LOAD, READONLY, DATA
  5 .preinit_array 00000000  0800557c  0800557c  00020010  2**0
                  CONTENTS, ALLOC, LOAD, DATA
  6 .init_array   00000004  0800557c  0800557c  0001557c  2**2
                  CONTENTS, ALLOC, LOAD, DATA
  7 .fini_array   00000004  08005580  08005580  00015580  2**2
                  CONTENTS, ALLOC, LOAD, DATA
  8 .data         00000010  20000000  08005584  00020000  2**2
                  CONTENTS, ALLOC, LOAD, DATA
  9 .bss          00004a14  20000010  08005594  00020010  2**2
                  ALLOC
 10 ._user_heap_stack 00000604  20004a24  08005594  00024a24  2**0
                  ALLOC
 11 .ARM.attributes 00000030  00000000  00000000  00020010  2**0
                  CONTENTS, READONLY
 12 .debug_info   00018652  00000000  00000000  00020040  2**0
                  CONTENTS, READONLY, DEBUGGING
 13 .debug_abbrev 000034f6  00000000  00000000  00038692  2**0
                  CONTENTS, READONLY, DEBUGGING
 14 .debug_aranges 000014f0  00000000  00000000  0003bb88  2**3
                  CONTENTS, READONLY, DEBUGGING
 15 .debug_ranges 00001358  00000000  00000000  0003d078  2**3
                  CONTENTS, READONLY, DEBUGGING
 16 .debug_macro  000180e5  00000000  00000000  0003e3d0  2**0
                  CONTENTS, READONLY, DEBUGGING
 17 .debug_line   00010f93  00000000  00000000  000564b5  2**0
                  CONTENTS, READONLY, DEBUGGING
 18 .debug_str    0009631f  00000000  00000000  00067448  2**0
                  CONTENTS, READONLY, DEBUGGING
 19 .comment      0000007b  00000000  00000000  000fd767  2**0
                  CONTENTS, READONLY
 20 .debug_frame  00005650  00000000  00000000  000fd7e4  2**2
                  CONTENTS, READONLY, DEBUGGING

Disassembly of section .text:

080001a0 <__do_global_dtors_aux>:
 80001a0:	b510      	push	{r4, lr}
 80001a2:	4c05      	ldr	r4, [pc, #20]	; (80001b8 <__do_global_dtors_aux+0x18>)
 80001a4:	7823      	ldrb	r3, [r4, #0]
 80001a6:	b933      	cbnz	r3, 80001b6 <__do_global_dtors_aux+0x16>
 80001a8:	4b04      	ldr	r3, [pc, #16]	; (80001bc <__do_global_dtors_aux+0x1c>)
 80001aa:	b113      	cbz	r3, 80001b2 <__do_global_dtors_aux+0x12>
 80001ac:	4804      	ldr	r0, [pc, #16]	; (80001c0 <__do_global_dtors_aux+0x20>)
 80001ae:	f3af 8000 	nop.w
 80001b2:	2301      	movs	r3, #1
 80001b4:	7023      	strb	r3, [r4, #0]
 80001b6:	bd10      	pop	{r4, pc}
 80001b8:	20000010 	.word	0x20000010
 80001bc:	00000000 	.word	0x00000000
 80001c0:	0800549c 	.word	0x0800549c

080001c4 <frame_dummy>:
 80001c4:	b508      	push	{r3, lr}
 80001c6:	4b03      	ldr	r3, [pc, #12]	; (80001d4 <frame_dummy+0x10>)
 80001c8:	b11b      	cbz	r3, 80001d2 <frame_dummy+0xe>
 80001ca:	4903      	ldr	r1, [pc, #12]	; (80001d8 <frame_dummy+0x14>)
 80001cc:	4803      	ldr	r0, [pc, #12]	; (80001dc <frame_dummy+0x18>)
 80001ce:	f3af 8000 	nop.w
 80001d2:	bd08      	pop	{r3, pc}
 80001d4:	00000000 	.word	0x00000000
 80001d8:	20000014 	.word	0x20000014
 80001dc:	0800549c 	.word	0x0800549c

080001e0 <__aeabi_uldivmod>:
 80001e0:	b953      	cbnz	r3, 80001f8 <__aeabi_uldivmod+0x18>
 80001e2:	b94a      	cbnz	r2, 80001f8 <__aeabi_uldivmod+0x18>
 80001e4:	2900      	cmp	r1, #0
 80001e6:	bf08      	it	eq
 80001e8:	2800      	cmpeq	r0, #0
 80001ea:	bf1c      	itt	ne
 80001ec:	f04f 31ff 	movne.w	r1, #4294967295
 80001f0:	f04f 30ff 	movne.w	r0, #4294967295
 80001f4:	f000 b972 	b.w	80004dc <__aeabi_idiv0>
 80001f8:	f1ad 0c08 	sub.w	ip, sp, #8
 80001fc:	e96d ce04 	strd	ip, lr, [sp, #-16]!
 8000200:	f000 f806 	bl	8000210 <__udivmoddi4>
 8000204:	f8dd e004 	ldr.w	lr, [sp, #4]
 8000208:	e9dd 2302 	ldrd	r2, r3, [sp, #8]
 800020c:	b004      	add	sp, #16
 800020e:	4770      	bx	lr

08000210 <__udivmoddi4>:
 8000210:	e92d 47f0 	stmdb	sp!, {r4, r5, r6, r7, r8, r9, sl, lr}
 8000214:	9e08      	ldr	r6, [sp, #32]
 8000216:	4604      	mov	r4, r0
 8000218:	4688      	mov	r8, r1
 800021a:	2b00      	cmp	r3, #0
 800021c:	d14b      	bne.n	80002b6 <__udivmoddi4+0xa6>
 800021e:	428a      	cmp	r2, r1
 8000220:	4615      	mov	r5, r2
 8000222:	d967      	bls.n	80002f4 <__udivmoddi4+0xe4>
 8000224:	fab2 f282 	clz	r2, r2
 8000228:	b14a      	cbz	r2, 800023e <__udivmoddi4+0x2e>
 800022a:	f1c2 0720 	rsb	r7, r2, #32
 800022e:	fa01 f302 	lsl.w	r3, r1, r2
 8000232:	fa20 f707 	lsr.w	r7, r0, r7
 8000236:	4095      	lsls	r5, r2
 8000238:	ea47 0803 	orr.w	r8, r7, r3
 800023c:	4094      	lsls	r4, r2
 800023e:	ea4f 4e15 	mov.w	lr, r5, lsr #16
 8000242:	0c23      	lsrs	r3, r4, #16
 8000244:	fbb8 f7fe 	udiv	r7, r8, lr
 8000248:	fa1f fc85 	uxth.w	ip, r5
 800024c:	fb0e 8817 	mls	r8, lr, r7, r8
 8000250:	ea43 4308 	orr.w	r3, r3, r8, lsl #16
 8000254:	fb07 f10c 	mul.w	r1, r7, ip
 8000258:	4299      	cmp	r1, r3
 800025a:	d909      	bls.n	8000270 <__udivmoddi4+0x60>
 800025c:	18eb      	adds	r3, r5, r3
 800025e:	f107 30ff 	add.w	r0, r7, #4294967295
 8000262:	f080 811b 	bcs.w	800049c <__udivmoddi4+0x28c>
 8000266:	4299      	cmp	r1, r3
 8000268:	f240 8118 	bls.w	800049c <__udivmoddi4+0x28c>
 800026c:	3f02      	subs	r7, #2
 800026e:	442b      	add	r3, r5
 8000270:	1a5b      	subs	r3, r3, r1
 8000272:	b2a4      	uxth	r4, r4
 8000274:	fbb3 f0fe 	udiv	r0, r3, lr
 8000278:	fb0e 3310 	mls	r3, lr, r0, r3
 800027c:	ea44 4403 	orr.w	r4, r4, r3, lsl #16
 8000280:	fb00 fc0c 	mul.w	ip, r0, ip
 8000284:	45a4      	cmp	ip, r4
 8000286:	d909      	bls.n	800029c <__udivmoddi4+0x8c>
 8000288:	192c      	adds	r4, r5, r4
 800028a:	f100 33ff 	add.w	r3, r0, #4294967295
 800028e:	f080 8107 	bcs.w	80004a0 <__udivmoddi4+0x290>
 8000292:	45a4      	cmp	ip, r4
 8000294:	f240 8104 	bls.w	80004a0 <__udivmoddi4+0x290>
 8000298:	3802      	subs	r0, #2
 800029a:	442c      	add	r4, r5
 800029c:	ea40 4007 	orr.w	r0, r0, r7, lsl #16
 80002a0:	eba4 040c 	sub.w	r4, r4, ip
 80002a4:	2700      	movs	r7, #0
 80002a6:	b11e      	cbz	r6, 80002b0 <__udivmoddi4+0xa0>
 80002a8:	40d4      	lsrs	r4, r2
 80002aa:	2300      	movs	r3, #0
 80002ac:	e9c6 4300 	strd	r4, r3, [r6]
 80002b0:	4639      	mov	r1, r7
 80002b2:	e8bd 87f0 	ldmia.w	sp!, {r4, r5, r6, r7, r8, r9, sl, pc}
 80002b6:	428b      	cmp	r3, r1
 80002b8:	d909      	bls.n	80002ce <__udivmoddi4+0xbe>
 80002ba:	2e00      	cmp	r6, #0
 80002bc:	f000 80eb 	beq.w	8000496 <__udivmoddi4+0x286>
 80002c0:	2700      	movs	r7, #0
 80002c2:	e9c6 0100 	strd	r0, r1, [r6]
 80002c6:	4638      	mov	r0, r7
 80002c8:	4639      	mov	r1, r7
 80002ca:	e8bd 87f0 	ldmia.w	sp!, {r4, r5, r6, r7, r8, r9, sl, pc}
 80002ce:	fab3 f783 	clz	r7, r3
 80002d2:	2f00      	cmp	r7, #0
 80002d4:	d147      	bne.n	8000366 <__udivmoddi4+0x156>
 80002d6:	428b      	cmp	r3, r1
 80002d8:	d302      	bcc.n	80002e0 <__udivmoddi4+0xd0>
 80002da:	4282      	cmp	r2, r0
 80002dc:	f200 80fa 	bhi.w	80004d4 <__udivmoddi4+0x2c4>
 80002e0:	1a84      	subs	r4, r0, r2
 80002e2:	eb61 0303 	sbc.w	r3, r1, r3
 80002e6:	2001      	movs	r0, #1
 80002e8:	4698      	mov	r8, r3
 80002ea:	2e00      	cmp	r6, #0
 80002ec:	d0e0      	beq.n	80002b0 <__udivmoddi4+0xa0>
 80002ee:	e9c6 4800 	strd	r4, r8, [r6]
 80002f2:	e7dd      	b.n	80002b0 <__udivmoddi4+0xa0>
 80002f4:	b902      	cbnz	r2, 80002f8 <__udivmoddi4+0xe8>
 80002f6:	deff      	udf	#255	; 0xff
 80002f8:	fab2 f282 	clz	r2, r2
 80002fc:	2a00      	cmp	r2, #0
 80002fe:	f040 808f 	bne.w	8000420 <__udivmoddi4+0x210>
 8000302:	1b49      	subs	r1, r1, r5
 8000304:	ea4f 4e15 	mov.w	lr, r5, lsr #16
 8000308:	fa1f f885 	uxth.w	r8, r5
 800030c:	2701      	movs	r7, #1
 800030e:	fbb1 fcfe 	udiv	ip, r1, lr
 8000312:	0c23      	lsrs	r3, r4, #16
 8000314:	fb0e 111c 	mls	r1, lr, ip, r1
 8000318:	ea43 4301 	orr.w	r3, r3, r1, lsl #16
 800031c:	fb08 f10c 	mul.w	r1, r8, ip
 8000320:	4299      	cmp	r1, r3
 8000322:	d907      	bls.n	8000334 <__udivmoddi4+0x124>
 8000324:	18eb      	adds	r3, r5, r3
 8000326:	f10c 30ff 	add.w	r0, ip, #4294967295
 800032a:	d202      	bcs.n	8000332 <__udivmoddi4+0x122>
 800032c:	4299      	cmp	r1, r3
 800032e:	f200 80cd 	bhi.w	80004cc <__udivmoddi4+0x2bc>
 8000332:	4684      	mov	ip, r0
 8000334:	1a59      	subs	r1, r3, r1
 8000336:	b2a3      	uxth	r3, r4
 8000338:	fbb1 f0fe 	udiv	r0, r1, lr
 800033c:	fb0e 1410 	mls	r4, lr, r0, r1
 8000340:	ea43 4404 	orr.w	r4, r3, r4, lsl #16
 8000344:	fb08 f800 	mul.w	r8, r8, r0
 8000348:	45a0      	cmp	r8, r4
 800034a:	d907      	bls.n	800035c <__udivmoddi4+0x14c>
 800034c:	192c      	adds	r4, r5, r4
 800034e:	f100 33ff 	add.w	r3, r0, #4294967295
 8000352:	d202      	bcs.n	800035a <__udivmoddi4+0x14a>
 8000354:	45a0      	cmp	r8, r4
 8000356:	f200 80b6 	bhi.w	80004c6 <__udivmoddi4+0x2b6>
 800035a:	4618      	mov	r0, r3
 800035c:	eba4 0408 	sub.w	r4, r4, r8
 8000360:	ea40 400c 	orr.w	r0, r0, ip, lsl #16
 8000364:	e79f      	b.n	80002a6 <__udivmoddi4+0x96>
 8000366:	f1c7 0c20 	rsb	ip, r7, #32
 800036a:	40bb      	lsls	r3, r7
 800036c:	fa22 fe0c 	lsr.w	lr, r2, ip
 8000370:	ea4e 0e03 	orr.w	lr, lr, r3
 8000374:	fa01 f407 	lsl.w	r4, r1, r7
 8000378:	fa20 f50c 	lsr.w	r5, r0, ip
 800037c:	fa21 f30c 	lsr.w	r3, r1, ip
 8000380:	ea4f 481e 	mov.w	r8, lr, lsr #16
 8000384:	4325      	orrs	r5, r4
 8000386:	fbb3 f9f8 	udiv	r9, r3, r8
 800038a:	0c2c      	lsrs	r4, r5, #16
 800038c:	fb08 3319 	mls	r3, r8, r9, r3
 8000390:	fa1f fa8e 	uxth.w	sl, lr
 8000394:	ea44 4303 	orr.w	r3, r4, r3, lsl #16
 8000398:	fb09 f40a 	mul.w	r4, r9, sl
 800039c:	429c      	cmp	r4, r3
 800039e:	fa02 f207 	lsl.w	r2, r2, r7
 80003a2:	fa00 f107 	lsl.w	r1, r0, r7
 80003a6:	d90b      	bls.n	80003c0 <__udivmoddi4+0x1b0>
 80003a8:	eb1e 0303 	adds.w	r3, lr, r3
 80003ac:	f109 30ff 	add.w	r0, r9, #4294967295
 80003b0:	f080 8087 	bcs.w	80004c2 <__udivmoddi4+0x2b2>
 80003b4:	429c      	cmp	r4, r3
 80003b6:	f240 8084 	bls.w	80004c2 <__udivmoddi4+0x2b2>
 80003ba:	f1a9 0902 	sub.w	r9, r9, #2
 80003be:	4473      	add	r3, lr
 80003c0:	1b1b      	subs	r3, r3, r4
 80003c2:	b2ad      	uxth	r5, r5
 80003c4:	fbb3 f0f8 	udiv	r0, r3, r8
 80003c8:	fb08 3310 	mls	r3, r8, r0, r3
 80003cc:	ea45 4403 	orr.w	r4, r5, r3, lsl #16
 80003d0:	fb00 fa0a 	mul.w	sl, r0, sl
 80003d4:	45a2      	cmp	sl, r4
 80003d6:	d908      	bls.n	80003ea <__udivmoddi4+0x1da>
 80003d8:	eb1e 0404 	adds.w	r4, lr, r4
 80003dc:	f100 33ff 	add.w	r3, r0, #4294967295
 80003e0:	d26b      	bcs.n	80004ba <__udivmoddi4+0x2aa>
 80003e2:	45a2      	cmp	sl, r4
 80003e4:	d969      	bls.n	80004ba <__udivmoddi4+0x2aa>
 80003e6:	3802      	subs	r0, #2
 80003e8:	4474      	add	r4, lr
 80003ea:	ea40 4009 	orr.w	r0, r0, r9, lsl #16
 80003ee:	fba0 8902 	umull	r8, r9, r0, r2
 80003f2:	eba4 040a 	sub.w	r4, r4, sl
 80003f6:	454c      	cmp	r4, r9
 80003f8:	46c2      	mov	sl, r8
 80003fa:	464b      	mov	r3, r9
 80003fc:	d354      	bcc.n	80004a8 <__udivmoddi4+0x298>
 80003fe:	d051      	beq.n	80004a4 <__udivmoddi4+0x294>
 8000400:	2e00      	cmp	r6, #0
 8000402:	d069      	beq.n	80004d8 <__udivmoddi4+0x2c8>
 8000404:	ebb1 050a 	subs.w	r5, r1, sl
 8000408:	eb64 0403 	sbc.w	r4, r4, r3
 800040c:	fa04 fc0c 	lsl.w	ip, r4, ip
 8000410:	40fd      	lsrs	r5, r7
 8000412:	40fc      	lsrs	r4, r7
 8000414:	ea4c 0505 	orr.w	r5, ip, r5
 8000418:	e9c6 5400 	strd	r5, r4, [r6]
 800041c:	2700      	movs	r7, #0
 800041e:	e747      	b.n	80002b0 <__udivmoddi4+0xa0>
 8000420:	f1c2 0320 	rsb	r3, r2, #32
 8000424:	fa20 f703 	lsr.w	r7, r0, r3
 8000428:	4095      	lsls	r5, r2
 800042a:	fa01 f002 	lsl.w	r0, r1, r2
 800042e:	fa21 f303 	lsr.w	r3, r1, r3
 8000432:	ea4f 4e15 	mov.w	lr, r5, lsr #16
 8000436:	4338      	orrs	r0, r7
 8000438:	0c01      	lsrs	r1, r0, #16
 800043a:	fbb3 f7fe 	udiv	r7, r3, lr
 800043e:	fa1f f885 	uxth.w	r8, r5
 8000442:	fb0e 3317 	mls	r3, lr, r7, r3
 8000446:	ea41 4103 	orr.w	r1, r1, r3, lsl #16
 800044a:	fb07 f308 	mul.w	r3, r7, r8
 800044e:	428b      	cmp	r3, r1
 8000450:	fa04 f402 	lsl.w	r4, r4, r2
 8000454:	d907      	bls.n	8000466 <__udivmoddi4+0x256>
 8000456:	1869      	adds	r1, r5, r1
 8000458:	f107 3cff 	add.w	ip, r7, #4294967295
 800045c:	d22f      	bcs.n	80004be <__udivmoddi4+0x2ae>
 800045e:	428b      	cmp	r3, r1
 8000460:	d92d      	bls.n	80004be <__udivmoddi4+0x2ae>
 8000462:	3f02      	subs	r7, #2
 8000464:	4429      	add	r1, r5
 8000466:	1acb      	subs	r3, r1, r3
 8000468:	b281      	uxth	r1, r0
 800046a:	fbb3 f0fe 	udiv	r0, r3, lr
 800046e:	fb0e 3310 	mls	r3, lr, r0, r3
 8000472:	ea41 4103 	orr.w	r1, r1, r3, lsl #16
 8000476:	fb00 f308 	mul.w	r3, r0, r8
 800047a:	428b      	cmp	r3, r1
 800047c:	d907      	bls.n	800048e <__udivmoddi4+0x27e>
 800047e:	1869      	adds	r1, r5, r1
 8000480:	f100 3cff 	add.w	ip, r0, #4294967295
 8000484:	d217      	bcs.n	80004b6 <__udivmoddi4+0x2a6>
 8000486:	428b      	cmp	r3, r1
 8000488:	d915      	bls.n	80004b6 <__udivmoddi4+0x2a6>
 800048a:	3802      	subs	r0, #2
 800048c:	4429      	add	r1, r5
 800048e:	1ac9      	subs	r1, r1, r3
 8000490:	ea40 4707 	orr.w	r7, r0, r7, lsl #16
 8000494:	e73b      	b.n	800030e <__udivmoddi4+0xfe>
 8000496:	4637      	mov	r7, r6
 8000498:	4630      	mov	r0, r6
 800049a:	e709      	b.n	80002b0 <__udivmoddi4+0xa0>
 800049c:	4607      	mov	r7, r0
 800049e:	e6e7      	b.n	8000270 <__udivmoddi4+0x60>
 80004a0:	4618      	mov	r0, r3
 80004a2:	e6fb      	b.n	800029c <__udivmoddi4+0x8c>
 80004a4:	4541      	cmp	r1, r8
 80004a6:	d2ab      	bcs.n	8000400 <__udivmoddi4+0x1f0>
 80004a8:	ebb8 0a02 	subs.w	sl, r8, r2
 80004ac:	eb69 020e 	sbc.w	r2, r9, lr
 80004b0:	3801      	subs	r0, #1
 80004b2:	4613      	mov	r3, r2
 80004b4:	e7a4      	b.n	8000400 <__udivmoddi4+0x1f0>
 80004b6:	4660      	mov	r0, ip
 80004b8:	e7e9      	b.n	800048e <__udivmoddi4+0x27e>
 80004ba:	4618      	mov	r0, r3
 80004bc:	e795      	b.n	80003ea <__udivmoddi4+0x1da>
 80004be:	4667      	mov	r7, ip
 80004c0:	e7d1      	b.n	8000466 <__udivmoddi4+0x256>
 80004c2:	4681      	mov	r9, r0
 80004c4:	e77c      	b.n	80003c0 <__udivmoddi4+0x1b0>
 80004c6:	3802      	subs	r0, #2
 80004c8:	442c      	add	r4, r5
 80004ca:	e747      	b.n	800035c <__udivmoddi4+0x14c>
 80004cc:	f1ac 0c02 	sub.w	ip, ip, #2
 80004d0:	442b      	add	r3, r5
 80004d2:	e72f      	b.n	8000334 <__udivmoddi4+0x124>
 80004d4:	4638      	mov	r0, r7
 80004d6:	e708      	b.n	80002ea <__udivmoddi4+0xda>
 80004d8:	4637      	mov	r7, r6
 80004da:	e6e9      	b.n	80002b0 <__udivmoddi4+0xa0>

080004dc <__aeabi_idiv0>:
 80004dc:	4770      	bx	lr
 80004de:	bf00      	nop

080004e0 <MX_FREERTOS_Init>:
/**
  * @brief  FreeRTOS initialization
  * @param  None
  * @retval None
  */
void MX_FREERTOS_Init(void) {
 80004e0:	b580      	push	{r7, lr}
 80004e2:	af00      	add	r7, sp, #0
  /* add queues, ... */
  /* USER CODE END RTOS_QUEUES */

  /* Create the thread(s) */
  /* creation of Led2Task */
  Led2TaskHandle = osThreadNew(StartLed2Task, NULL, &Led2Task_attributes);
 80004e4:	4a0c      	ldr	r2, [pc, #48]	; (8000518 <MX_FREERTOS_Init+0x38>)
 80004e6:	2100      	movs	r1, #0
 80004e8:	480c      	ldr	r0, [pc, #48]	; (800051c <MX_FREERTOS_Init+0x3c>)
 80004ea:	f002 faa3 	bl	8002a34 <osThreadNew>
 80004ee:	4602      	mov	r2, r0
 80004f0:	4b0b      	ldr	r3, [pc, #44]	; (8000520 <MX_FREERTOS_Init+0x40>)
 80004f2:	601a      	str	r2, [r3, #0]

  /* creation of Led3Task */
  Led3TaskHandle = osThreadNew(StartLed3Task, NULL, &Led3Task_attributes);
 80004f4:	4a0b      	ldr	r2, [pc, #44]	; (8000524 <MX_FREERTOS_Init+0x44>)
 80004f6:	2100      	movs	r1, #0
 80004f8:	480b      	ldr	r0, [pc, #44]	; (8000528 <MX_FREERTOS_Init+0x48>)
 80004fa:	f002 fa9b 	bl	8002a34 <osThreadNew>
 80004fe:	4602      	mov	r2, r0
 8000500:	4b0a      	ldr	r3, [pc, #40]	; (800052c <MX_FREERTOS_Init+0x4c>)
 8000502:	601a      	str	r2, [r3, #0]

  /* creation of Led4Task */
  Led4TaskHandle = osThreadNew(StartLed4Task, NULL, &Led4Task_attributes);
 8000504:	4a0a      	ldr	r2, [pc, #40]	; (8000530 <MX_FREERTOS_Init+0x50>)
 8000506:	2100      	movs	r1, #0
 8000508:	480a      	ldr	r0, [pc, #40]	; (8000534 <MX_FREERTOS_Init+0x54>)
 800050a:	f002 fa93 	bl	8002a34 <osThreadNew>
 800050e:	4602      	mov	r2, r0
 8000510:	4b09      	ldr	r3, [pc, #36]	; (8000538 <MX_FREERTOS_Init+0x58>)
 8000512:	601a      	str	r2, [r3, #0]

  /* USER CODE BEGIN RTOS_EVENTS */
  /* add events, ... */
  /* USER CODE END RTOS_EVENTS */

}
 8000514:	bf00      	nop
 8000516:	bd80      	pop	{r7, pc}
 8000518:	080054f0 	.word	0x080054f0
 800051c:	0800053d 	.word	0x0800053d
 8000520:	20004934 	.word	0x20004934
 8000524:	08005514 	.word	0x08005514
 8000528:	08000569 	.word	0x08000569
 800052c:	2000493c 	.word	0x2000493c
 8000530:	08005538 	.word	0x08005538
 8000534:	0800059d 	.word	0x0800059d
 8000538:	20004938 	.word	0x20004938

0800053c <StartLed2Task>:
  * @param  argument: Not used
  * @retval None
  */
/* USER CODE END Header_StartLed2Task */
void StartLed2Task(void *argument)
{
 800053c:	b580      	push	{r7, lr}
 800053e:	b084      	sub	sp, #16
 8000540:	af00      	add	r7, sp, #0
 8000542:	6078      	str	r0, [r7, #4]
  /* USER CODE BEGIN StartLed2Task */
	uint32_t tick;

	tick = osKernelGetTickCount();        // retrieve the number of system ticks
 8000544:	f002 fa4e 	bl	80029e4 <osKernelGetTickCount>
 8000548:	4603      	mov	r3, r0
 800054a:	60fb      	str	r3, [r7, #12]
  /* Infinite loop */
  for(;;)
  {
	  HAL_GPIO_TogglePin(LD2_GPIO_Port, LD2_Pin);
 800054c:	2120      	movs	r1, #32
 800054e:	4805      	ldr	r0, [pc, #20]	; (8000564 <StartLed2Task+0x28>)
 8000550:	f000 ff25 	bl	800139e <HAL_GPIO_TogglePin>
	  // FreeRTOS API
	  vTaskDelayUntil(&tick, (500 * configTICK_RATE_HZ) / 1000);
 8000554:	f107 030c 	add.w	r3, r7, #12
 8000558:	f44f 71fa 	mov.w	r1, #500	; 0x1f4
 800055c:	4618      	mov	r0, r3
 800055e:	f003 fa69 	bl	8003a34 <vTaskDelayUntil>
	  HAL_GPIO_TogglePin(LD2_GPIO_Port, LD2_Pin);
 8000562:	e7f3      	b.n	800054c <StartLed2Task+0x10>
 8000564:	40020000 	.word	0x40020000

08000568 <StartLed3Task>:
* @param argument: Not used
* @retval None
*/
/* USER CODE END Header_StartLed3Task */
void StartLed3Task(void *argument)
{
 8000568:	b580      	push	{r7, lr}
 800056a:	b084      	sub	sp, #16
 800056c:	af00      	add	r7, sp, #0
 800056e:	6078      	str	r0, [r7, #4]
  /* USER CODE BEGIN StartLed3Task */
	uint32_t tick;

	tick = osKernelGetTickCount();        // retrieve the number of system ticks
 8000570:	f002 fa38 	bl	80029e4 <osKernelGetTickCount>
 8000574:	4603      	mov	r3, r0
 8000576:	60fb      	str	r3, [r7, #12]
	tick = xTaskGetTickCount();
 8000578:	f003 fbe4 	bl	8003d44 <xTaskGetTickCount>
 800057c:	4603      	mov	r3, r0
 800057e:	60fb      	str	r3, [r7, #12]
  /* Infinite loop */
  for(;;)
  {
	  HAL_GPIO_TogglePin(LD3_GPIO_Port, LD3_Pin);
 8000580:	2140      	movs	r1, #64	; 0x40
 8000582:	4805      	ldr	r0, [pc, #20]	; (8000598 <StartLed3Task+0x30>)
 8000584:	f000 ff0b 	bl	800139e <HAL_GPIO_TogglePin>
	  // FreeRTOS API
	  vTaskDelayUntil(&tick, (300 * configTICK_RATE_HZ) / 1000);
 8000588:	f107 030c 	add.w	r3, r7, #12
 800058c:	f44f 7196 	mov.w	r1, #300	; 0x12c
 8000590:	4618      	mov	r0, r3
 8000592:	f003 fa4f 	bl	8003a34 <vTaskDelayUntil>
	  HAL_GPIO_TogglePin(LD3_GPIO_Port, LD3_Pin);
 8000596:	e7f3      	b.n	8000580 <StartLed3Task+0x18>
 8000598:	40020000 	.word	0x40020000

0800059c <StartLed4Task>:
* @param argument: Not used
* @retval None
*/
/* USER CODE END Header_StartLed4Task */
void StartLed4Task(void *argument)
{
 800059c:	b580      	push	{r7, lr}
 800059e:	b084      	sub	sp, #16
 80005a0:	af00      	add	r7, sp, #0
 80005a2:	6078      	str	r0, [r7, #4]
  /* USER CODE BEGIN StartLed4Task */
	uint32_t tick;

	tick = osKernelGetTickCount();        // retrieve the number of system ticks
 80005a4:	f002 fa1e 	bl	80029e4 <osKernelGetTickCount>
 80005a8:	4603      	mov	r3, r0
 80005aa:	60fb      	str	r3, [r7, #12]
  /* Infinite loop */
  for(;;)
  {
	  HAL_GPIO_TogglePin(LD4_GPIO_Port, LD4_Pin);
 80005ac:	2180      	movs	r1, #128	; 0x80
 80005ae:	4805      	ldr	r0, [pc, #20]	; (80005c4 <StartLed4Task+0x28>)
 80005b0:	f000 fef5 	bl	800139e <HAL_GPIO_TogglePin>
	  // FreeRTOS API
	  vTaskDelayUntil(&tick, (1000 * configTICK_RATE_HZ) / 1000);
 80005b4:	f107 030c 	add.w	r3, r7, #12
 80005b8:	f44f 717a 	mov.w	r1, #1000	; 0x3e8
 80005bc:	4618      	mov	r0, r3
 80005be:	f003 fa39 	bl	8003a34 <vTaskDelayUntil>
	  HAL_GPIO_TogglePin(LD4_GPIO_Port, LD4_Pin);
 80005c2:	e7f3      	b.n	80005ac <StartLed4Task+0x10>
 80005c4:	40020000 	.word	0x40020000

080005c8 <MX_GPIO_Init>:
        * Output
        * EVENT_OUT
        * EXTI
*/
void MX_GPIO_Init(void)
{
 80005c8:	b580      	push	{r7, lr}
 80005ca:	b08a      	sub	sp, #40	; 0x28
 80005cc:	af00      	add	r7, sp, #0

  GPIO_InitTypeDef GPIO_InitStruct = {0};
 80005ce:	f107 0314 	add.w	r3, r7, #20
 80005d2:	2200      	movs	r2, #0
 80005d4:	601a      	str	r2, [r3, #0]
 80005d6:	605a      	str	r2, [r3, #4]
 80005d8:	609a      	str	r2, [r3, #8]
 80005da:	60da      	str	r2, [r3, #12]
 80005dc:	611a      	str	r2, [r3, #16]

  /* GPIO Ports Clock Enable */
  __HAL_RCC_GPIOC_CLK_ENABLE();
 80005de:	2300      	movs	r3, #0
 80005e0:	613b      	str	r3, [r7, #16]
 80005e2:	4b2d      	ldr	r3, [pc, #180]	; (8000698 <MX_GPIO_Init+0xd0>)
 80005e4:	6b1b      	ldr	r3, [r3, #48]	; 0x30
 80005e6:	4a2c      	ldr	r2, [pc, #176]	; (8000698 <MX_GPIO_Init+0xd0>)
 80005e8:	f043 0304 	orr.w	r3, r3, #4
 80005ec:	6313      	str	r3, [r2, #48]	; 0x30
 80005ee:	4b2a      	ldr	r3, [pc, #168]	; (8000698 <MX_GPIO_Init+0xd0>)
 80005f0:	6b1b      	ldr	r3, [r3, #48]	; 0x30
 80005f2:	f003 0304 	and.w	r3, r3, #4
 80005f6:	613b      	str	r3, [r7, #16]
 80005f8:	693b      	ldr	r3, [r7, #16]
  __HAL_RCC_GPIOH_CLK_ENABLE();
 80005fa:	2300      	movs	r3, #0
 80005fc:	60fb      	str	r3, [r7, #12]
 80005fe:	4b26      	ldr	r3, [pc, #152]	; (8000698 <MX_GPIO_Init+0xd0>)
 8000600:	6b1b      	ldr	r3, [r3, #48]	; 0x30
 8000602:	4a25      	ldr	r2, [pc, #148]	; (8000698 <MX_GPIO_Init+0xd0>)
 8000604:	f043 0380 	orr.w	r3, r3, #128	; 0x80
 8000608:	6313      	str	r3, [r2, #48]	; 0x30
 800060a:	4b23      	ldr	r3, [pc, #140]	; (8000698 <MX_GPIO_Init+0xd0>)
 800060c:	6b1b      	ldr	r3, [r3, #48]	; 0x30
 800060e:	f003 0380 	and.w	r3, r3, #128	; 0x80
 8000612:	60fb      	str	r3, [r7, #12]
 8000614:	68fb      	ldr	r3, [r7, #12]
  __HAL_RCC_GPIOA_CLK_ENABLE();
 8000616:	2300      	movs	r3, #0
 8000618:	60bb      	str	r3, [r7, #8]
 800061a:	4b1f      	ldr	r3, [pc, #124]	; (8000698 <MX_GPIO_Init+0xd0>)
 800061c:	6b1b      	ldr	r3, [r3, #48]	; 0x30
 800061e:	4a1e      	ldr	r2, [pc, #120]	; (8000698 <MX_GPIO_Init+0xd0>)
 8000620:	f043 0301 	orr.w	r3, r3, #1
 8000624:	6313      	str	r3, [r2, #48]	; 0x30
 8000626:	4b1c      	ldr	r3, [pc, #112]	; (8000698 <MX_GPIO_Init+0xd0>)
 8000628:	6b1b      	ldr	r3, [r3, #48]	; 0x30
 800062a:	f003 0301 	and.w	r3, r3, #1
 800062e:	60bb      	str	r3, [r7, #8]
 8000630:	68bb      	ldr	r3, [r7, #8]
  __HAL_RCC_GPIOB_CLK_ENABLE();
 8000632:	2300      	movs	r3, #0
 8000634:	607b      	str	r3, [r7, #4]
 8000636:	4b18      	ldr	r3, [pc, #96]	; (8000698 <MX_GPIO_Init+0xd0>)
 8000638:	6b1b      	ldr	r3, [r3, #48]	; 0x30
 800063a:	4a17      	ldr	r2, [pc, #92]	; (8000698 <MX_GPIO_Init+0xd0>)
 800063c:	f043 0302 	orr.w	r3, r3, #2
 8000640:	6313      	str	r3, [r2, #48]	; 0x30
 8000642:	4b15      	ldr	r3, [pc, #84]	; (8000698 <MX_GPIO_Init+0xd0>)
 8000644:	6b1b      	ldr	r3, [r3, #48]	; 0x30
 8000646:	f003 0302 	and.w	r3, r3, #2
 800064a:	607b      	str	r3, [r7, #4]
 800064c:	687b      	ldr	r3, [r7, #4]

  /*Configure GPIO pin Output Level */
  HAL_GPIO_WritePin(GPIOA, LD2_Pin|LD3_Pin|LD4_Pin, GPIO_PIN_RESET);
 800064e:	2200      	movs	r2, #0
 8000650:	21e0      	movs	r1, #224	; 0xe0
 8000652:	4812      	ldr	r0, [pc, #72]	; (800069c <MX_GPIO_Init+0xd4>)
 8000654:	f000 fe8a 	bl	800136c <HAL_GPIO_WritePin>

  /*Configure GPIO pin : PtPin */
  GPIO_InitStruct.Pin = B1_Pin;
 8000658:	f44f 5300 	mov.w	r3, #8192	; 0x2000
 800065c:	617b      	str	r3, [r7, #20]
  GPIO_InitStruct.Mode = GPIO_MODE_IT_FALLING;
 800065e:	4b10      	ldr	r3, [pc, #64]	; (80006a0 <MX_GPIO_Init+0xd8>)
 8000660:	61bb      	str	r3, [r7, #24]
  GPIO_InitStruct.Pull = GPIO_NOPULL;
 8000662:	2300      	movs	r3, #0
 8000664:	61fb      	str	r3, [r7, #28]
  HAL_GPIO_Init(B1_GPIO_Port, &GPIO_InitStruct);
 8000666:	f107 0314 	add.w	r3, r7, #20
 800066a:	4619      	mov	r1, r3
 800066c:	480d      	ldr	r0, [pc, #52]	; (80006a4 <MX_GPIO_Init+0xdc>)
 800066e:	f000 fcfb 	bl	8001068 <HAL_GPIO_Init>

  /*Configure GPIO pins : PAPin PAPin PAPin */
  GPIO_InitStruct.Pin = LD2_Pin|LD3_Pin|LD4_Pin;
 8000672:	23e0      	movs	r3, #224	; 0xe0
 8000674:	617b      	str	r3, [r7, #20]
  GPIO_InitStruct.Mode = GPIO_MODE_OUTPUT_PP;
 8000676:	2301      	movs	r3, #1
 8000678:	61bb      	str	r3, [r7, #24]
  GPIO_InitStruct.Pull = GPIO_NOPULL;
 800067a:	2300      	movs	r3, #0
 800067c:	61fb      	str	r3, [r7, #28]
  GPIO_InitStruct.Speed = GPIO_SPEED_FREQ_LOW;
 800067e:	2300      	movs	r3, #0
 8000680:	623b      	str	r3, [r7, #32]
  HAL_GPIO_Init(GPIOA, &GPIO_InitStruct);
 8000682:	f107 0314 	add.w	r3, r7, #20
 8000686:	4619      	mov	r1, r3
 8000688:	4804      	ldr	r0, [pc, #16]	; (800069c <MX_GPIO_Init+0xd4>)
 800068a:	f000 fced 	bl	8001068 <HAL_GPIO_Init>

}
 800068e:	bf00      	nop
 8000690:	3728      	adds	r7, #40	; 0x28
 8000692:	46bd      	mov	sp, r7
 8000694:	bd80      	pop	{r7, pc}
 8000696:	bf00      	nop
 8000698:	40023800 	.word	0x40023800
 800069c:	40020000 	.word	0x40020000
 80006a0:	10210000 	.word	0x10210000
 80006a4:	40020800 	.word	0x40020800

080006a8 <main>:
/**
  * @brief  The application entry point.
  * @retval int
  */
int main(void)
{
 80006a8:	b580      	push	{r7, lr}
 80006aa:	af00      	add	r7, sp, #0
  /* USER CODE END 1 */

  /* MCU Configuration--------------------------------------------------------*/

  /* Reset of all peripherals, Initializes the Flash interface and the Systick. */
  HAL_Init();
 80006ac:	f000 fa10 	bl	8000ad0 <HAL_Init>
  /* USER CODE BEGIN Init */

  /* USER CODE END Init */

  /* Configure the system clock */
  SystemClock_Config();
 80006b0:	f000 f80c 	bl	80006cc <SystemClock_Config>
  /* USER CODE BEGIN SysInit */

  /* USER CODE END SysInit */

  /* Initialize all configured peripherals */
  MX_GPIO_Init();
 80006b4:	f7ff ff88 	bl	80005c8 <MX_GPIO_Init>
  MX_USART2_UART_Init();
 80006b8:	f000 f96e 	bl	8000998 <MX_USART2_UART_Init>
  /* USER CODE BEGIN 2 */

  /* USER CODE END 2 */

  /* Init scheduler */
  osKernelInitialize();  /* Call init function for freertos objects (in freertos.c) */
 80006bc:	f002 f928 	bl	8002910 <osKernelInitialize>
  MX_FREERTOS_Init();
 80006c0:	f7ff ff0e 	bl	80004e0 <MX_FREERTOS_Init>
  /* Start scheduler */
  osKernelStart();
 80006c4:	f002 f958 	bl	8002978 <osKernelStart>

  /* We should never get here as control is now taken by the scheduler */
  /* Infinite loop */
  /* USER CODE BEGIN WHILE */
  while (1)
 80006c8:	e7fe      	b.n	80006c8 <main+0x20>
	...

080006cc <SystemClock_Config>:
/**
  * @brief System Clock Configuration
  * @retval None
  */
void SystemClock_Config(void)
{
 80006cc:	b580      	push	{r7, lr}
 80006ce:	b094      	sub	sp, #80	; 0x50
 80006d0:	af00      	add	r7, sp, #0
  RCC_OscInitTypeDef RCC_OscInitStruct = {0};
 80006d2:	f107 0320 	add.w	r3, r7, #32
 80006d6:	2230      	movs	r2, #48	; 0x30
 80006d8:	2100      	movs	r1, #0
 80006da:	4618      	mov	r0, r3
 80006dc:	f004 fed5 	bl	800548a <memset>
  RCC_ClkInitTypeDef RCC_ClkInitStruct = {0};
 80006e0:	f107 030c 	add.w	r3, r7, #12
 80006e4:	2200      	movs	r2, #0
 80006e6:	601a      	str	r2, [r3, #0]
 80006e8:	605a      	str	r2, [r3, #4]
 80006ea:	609a      	str	r2, [r3, #8]
 80006ec:	60da      	str	r2, [r3, #12]
 80006ee:	611a      	str	r2, [r3, #16]

  /** Configure the main internal regulator output voltage
  */
  __HAL_RCC_PWR_CLK_ENABLE();
 80006f0:	2300      	movs	r3, #0
 80006f2:	60bb      	str	r3, [r7, #8]
 80006f4:	4b28      	ldr	r3, [pc, #160]	; (8000798 <SystemClock_Config+0xcc>)
 80006f6:	6c1b      	ldr	r3, [r3, #64]	; 0x40
 80006f8:	4a27      	ldr	r2, [pc, #156]	; (8000798 <SystemClock_Config+0xcc>)
 80006fa:	f043 5380 	orr.w	r3, r3, #268435456	; 0x10000000
 80006fe:	6413      	str	r3, [r2, #64]	; 0x40
 8000700:	4b25      	ldr	r3, [pc, #148]	; (8000798 <SystemClock_Config+0xcc>)
 8000702:	6c1b      	ldr	r3, [r3, #64]	; 0x40
 8000704:	f003 5380 	and.w	r3, r3, #268435456	; 0x10000000
 8000708:	60bb      	str	r3, [r7, #8]
 800070a:	68bb      	ldr	r3, [r7, #8]
  __HAL_PWR_VOLTAGESCALING_CONFIG(PWR_REGULATOR_VOLTAGE_SCALE1);
 800070c:	2300      	movs	r3, #0
 800070e:	607b      	str	r3, [r7, #4]
 8000710:	4b22      	ldr	r3, [pc, #136]	; (800079c <SystemClock_Config+0xd0>)
 8000712:	681b      	ldr	r3, [r3, #0]
 8000714:	4a21      	ldr	r2, [pc, #132]	; (800079c <SystemClock_Config+0xd0>)
 8000716:	f443 4340 	orr.w	r3, r3, #49152	; 0xc000
 800071a:	6013      	str	r3, [r2, #0]
 800071c:	4b1f      	ldr	r3, [pc, #124]	; (800079c <SystemClock_Config+0xd0>)
 800071e:	681b      	ldr	r3, [r3, #0]
 8000720:	f403 4340 	and.w	r3, r3, #49152	; 0xc000
 8000724:	607b      	str	r3, [r7, #4]
 8000726:	687b      	ldr	r3, [r7, #4]
  /** Initializes the RCC Oscillators according to the specified parameters
  * in the RCC_OscInitTypeDef structure.
  */
  RCC_OscInitStruct.OscillatorType = RCC_OSCILLATORTYPE_HSI;
 8000728:	2302      	movs	r3, #2
 800072a:	623b      	str	r3, [r7, #32]
  RCC_OscInitStruct.HSIState = RCC_HSI_ON;
 800072c:	2301      	movs	r3, #1
 800072e:	62fb      	str	r3, [r7, #44]	; 0x2c
  RCC_OscInitStruct.HSICalibrationValue = RCC_HSICALIBRATION_DEFAULT;
 8000730:	2310      	movs	r3, #16
 8000732:	633b      	str	r3, [r7, #48]	; 0x30
  RCC_OscInitStruct.PLL.PLLState = RCC_PLL_ON;
 8000734:	2302      	movs	r3, #2
 8000736:	63bb      	str	r3, [r7, #56]	; 0x38
  RCC_OscInitStruct.PLL.PLLSource = RCC_PLLSOURCE_HSI;
 8000738:	2300      	movs	r3, #0
 800073a:	63fb      	str	r3, [r7, #60]	; 0x3c
  RCC_OscInitStruct.PLL.PLLM = 16;
 800073c:	2310      	movs	r3, #16
 800073e:	643b      	str	r3, [r7, #64]	; 0x40
  RCC_OscInitStruct.PLL.PLLN = 336;
 8000740:	f44f 73a8 	mov.w	r3, #336	; 0x150
 8000744:	647b      	str	r3, [r7, #68]	; 0x44
  RCC_OscInitStruct.PLL.PLLP = RCC_PLLP_DIV4;
 8000746:	2304      	movs	r3, #4
 8000748:	64bb      	str	r3, [r7, #72]	; 0x48
  RCC_OscInitStruct.PLL.PLLQ = 4;
 800074a:	2304      	movs	r3, #4
 800074c:	64fb      	str	r3, [r7, #76]	; 0x4c
  if (HAL_RCC_OscConfig(&RCC_OscInitStruct) != HAL_OK)
 800074e:	f107 0320 	add.w	r3, r7, #32
 8000752:	4618      	mov	r0, r3
 8000754:	f000 fe58 	bl	8001408 <HAL_RCC_OscConfig>
 8000758:	4603      	mov	r3, r0
 800075a:	2b00      	cmp	r3, #0
 800075c:	d001      	beq.n	8000762 <SystemClock_Config+0x96>
  {
    Error_Handler();
 800075e:	f000 f831 	bl	80007c4 <Error_Handler>
  }
  /** Initializes the CPU, AHB and APB buses clocks
  */
  RCC_ClkInitStruct.ClockType = RCC_CLOCKTYPE_HCLK|RCC_CLOCKTYPE_SYSCLK
 8000762:	230f      	movs	r3, #15
 8000764:	60fb      	str	r3, [r7, #12]
                              |RCC_CLOCKTYPE_PCLK1|RCC_CLOCKTYPE_PCLK2;
  RCC_ClkInitStruct.SYSCLKSource = RCC_SYSCLKSOURCE_PLLCLK;
 8000766:	2302      	movs	r3, #2
 8000768:	613b      	str	r3, [r7, #16]
  RCC_ClkInitStruct.AHBCLKDivider = RCC_SYSCLK_DIV1;
 800076a:	2300      	movs	r3, #0
 800076c:	617b      	str	r3, [r7, #20]
  RCC_ClkInitStruct.APB1CLKDivider = RCC_HCLK_DIV2;
 800076e:	f44f 5380 	mov.w	r3, #4096	; 0x1000
 8000772:	61bb      	str	r3, [r7, #24]
  RCC_ClkInitStruct.APB2CLKDivider = RCC_HCLK_DIV1;
 8000774:	2300      	movs	r3, #0
 8000776:	61fb      	str	r3, [r7, #28]

  if (HAL_RCC_ClockConfig(&RCC_ClkInitStruct, FLASH_LATENCY_2) != HAL_OK)
 8000778:	f107 030c 	add.w	r3, r7, #12
 800077c:	2102      	movs	r1, #2
 800077e:	4618      	mov	r0, r3
 8000780:	f001 f8b2 	bl	80018e8 <HAL_RCC_ClockConfig>
 8000784:	4603      	mov	r3, r0
 8000786:	2b00      	cmp	r3, #0
 8000788:	d001      	beq.n	800078e <SystemClock_Config+0xc2>
  {
    Error_Handler();
 800078a:	f000 f81b 	bl	80007c4 <Error_Handler>
  }
}
 800078e:	bf00      	nop
 8000790:	3750      	adds	r7, #80	; 0x50
 8000792:	46bd      	mov	sp, r7
 8000794:	bd80      	pop	{r7, pc}
 8000796:	bf00      	nop
 8000798:	40023800 	.word	0x40023800
 800079c:	40007000 	.word	0x40007000

080007a0 <HAL_TIM_PeriodElapsedCallback>:
  * a global variable "uwTick" used as application time base.
  * @param  htim : TIM handle
  * @retval None
  */
void HAL_TIM_PeriodElapsedCallback(TIM_HandleTypeDef *htim)
{
 80007a0:	b580      	push	{r7, lr}
 80007a2:	b082      	sub	sp, #8
 80007a4:	af00      	add	r7, sp, #0
 80007a6:	6078      	str	r0, [r7, #4]
  /* USER CODE BEGIN Callback 0 */

  /* USER CODE END Callback 0 */
  if (htim->Instance == TIM10) {
 80007a8:	687b      	ldr	r3, [r7, #4]
 80007aa:	681b      	ldr	r3, [r3, #0]
 80007ac:	4a04      	ldr	r2, [pc, #16]	; (80007c0 <HAL_TIM_PeriodElapsedCallback+0x20>)
 80007ae:	4293      	cmp	r3, r2
 80007b0:	d101      	bne.n	80007b6 <HAL_TIM_PeriodElapsedCallback+0x16>
    HAL_IncTick();
 80007b2:	f000 f9af 	bl	8000b14 <HAL_IncTick>
  }
  /* USER CODE BEGIN Callback 1 */

  /* USER CODE END Callback 1 */
}
 80007b6:	bf00      	nop
 80007b8:	3708      	adds	r7, #8
 80007ba:	46bd      	mov	sp, r7
 80007bc:	bd80      	pop	{r7, pc}
 80007be:	bf00      	nop
 80007c0:	40014400 	.word	0x40014400

080007c4 <Error_Handler>:
/**
  * @brief  This function is executed in case of error occurrence.
  * @retval None
  */
void Error_Handler(void)
{
 80007c4:	b480      	push	{r7}
 80007c6:	af00      	add	r7, sp, #0
  \details Disables IRQ interrupts by setting the I-bit in the CPSR.
           Can only be executed in Privileged modes.
 */
__STATIC_FORCEINLINE void __disable_irq(void)
{
  __ASM volatile ("cpsid i" : : : "memory");
 80007c8:	b672      	cpsid	i
  /* USER CODE BEGIN Error_Handler_Debug */
  /* User can add his own implementation to report the HAL error return state */
  __disable_irq();
  while (1)
 80007ca:	e7fe      	b.n	80007ca <Error_Handler+0x6>

080007cc <HAL_MspInit>:
/* USER CODE END 0 */
/**
  * Initializes the Global MSP.
  */
void HAL_MspInit(void)
{
 80007cc:	b580      	push	{r7, lr}
 80007ce:	b082      	sub	sp, #8
 80007d0:	af00      	add	r7, sp, #0
  /* USER CODE BEGIN MspInit 0 */

  /* USER CODE END MspInit 0 */

  __HAL_RCC_SYSCFG_CLK_ENABLE();
 80007d2:	2300      	movs	r3, #0
 80007d4:	607b      	str	r3, [r7, #4]
 80007d6:	4b1e      	ldr	r3, [pc, #120]	; (8000850 <HAL_MspInit+0x84>)
 80007d8:	6c5b      	ldr	r3, [r3, #68]	; 0x44
 80007da:	4a1d      	ldr	r2, [pc, #116]	; (8000850 <HAL_MspInit+0x84>)
 80007dc:	f443 4380 	orr.w	r3, r3, #16384	; 0x4000
 80007e0:	6453      	str	r3, [r2, #68]	; 0x44
 80007e2:	4b1b      	ldr	r3, [pc, #108]	; (8000850 <HAL_MspInit+0x84>)
 80007e4:	6c5b      	ldr	r3, [r3, #68]	; 0x44
 80007e6:	f403 4380 	and.w	r3, r3, #16384	; 0x4000
 80007ea:	607b      	str	r3, [r7, #4]
 80007ec:	687b      	ldr	r3, [r7, #4]
  __HAL_RCC_PWR_CLK_ENABLE();
 80007ee:	2300      	movs	r3, #0
 80007f0:	603b      	str	r3, [r7, #0]
 80007f2:	4b17      	ldr	r3, [pc, #92]	; (8000850 <HAL_MspInit+0x84>)
 80007f4:	6c1b      	ldr	r3, [r3, #64]	; 0x40
 80007f6:	4a16      	ldr	r2, [pc, #88]	; (8000850 <HAL_MspInit+0x84>)
 80007f8:	f043 5380 	orr.w	r3, r3, #268435456	; 0x10000000
 80007fc:	6413      	str	r3, [r2, #64]	; 0x40
 80007fe:	4b14      	ldr	r3, [pc, #80]	; (8000850 <HAL_MspInit+0x84>)
 8000800:	6c1b      	ldr	r3, [r3, #64]	; 0x40
 8000802:	f003 5380 	and.w	r3, r3, #268435456	; 0x10000000
 8000806:	603b      	str	r3, [r7, #0]
 8000808:	683b      	ldr	r3, [r7, #0]

  /* System interrupt init*/
  /* PendSV_IRQn interrupt configuration */
  HAL_NVIC_SetPriority(PendSV_IRQn, 15, 0);
 800080a:	2200      	movs	r2, #0
 800080c:	210f      	movs	r1, #15
 800080e:	f06f 0001 	mvn.w	r0, #1
 8000812:	f000 fa57 	bl	8000cc4 <HAL_NVIC_SetPriority>

  /* Peripheral interrupt init */
  /* PVD_IRQn interrupt configuration */
  HAL_NVIC_SetPriority(PVD_IRQn, 5, 0);
 8000816:	2200      	movs	r2, #0
 8000818:	2105      	movs	r1, #5
 800081a:	2001      	movs	r0, #1
 800081c:	f000 fa52 	bl	8000cc4 <HAL_NVIC_SetPriority>
  HAL_NVIC_EnableIRQ(PVD_IRQn);
 8000820:	2001      	movs	r0, #1
 8000822:	f000 fa6b 	bl	8000cfc <HAL_NVIC_EnableIRQ>
  /* FLASH_IRQn interrupt configuration */
  HAL_NVIC_SetPriority(FLASH_IRQn, 5, 0);
 8000826:	2200      	movs	r2, #0
 8000828:	2105      	movs	r1, #5
 800082a:	2004      	movs	r0, #4
 800082c:	f000 fa4a 	bl	8000cc4 <HAL_NVIC_SetPriority>
  HAL_NVIC_EnableIRQ(FLASH_IRQn);
 8000830:	2004      	movs	r0, #4
 8000832:	f000 fa63 	bl	8000cfc <HAL_NVIC_EnableIRQ>
  /* RCC_IRQn interrupt configuration */
  HAL_NVIC_SetPriority(RCC_IRQn, 5, 0);
 8000836:	2200      	movs	r2, #0
 8000838:	2105      	movs	r1, #5
 800083a:	2005      	movs	r0, #5
 800083c:	f000 fa42 	bl	8000cc4 <HAL_NVIC_SetPriority>
  HAL_NVIC_EnableIRQ(RCC_IRQn);
 8000840:	2005      	movs	r0, #5
 8000842:	f000 fa5b 	bl	8000cfc <HAL_NVIC_EnableIRQ>

  /* USER CODE BEGIN MspInit 1 */

  /* USER CODE END MspInit 1 */
}
 8000846:	bf00      	nop
 8000848:	3708      	adds	r7, #8
 800084a:	46bd      	mov	sp, r7
 800084c:	bd80      	pop	{r7, pc}
 800084e:	bf00      	nop
 8000850:	40023800 	.word	0x40023800

08000854 <HAL_InitTick>:
  *         reset by HAL_Init() or at any time when clock is configured, by HAL_RCC_ClockConfig().
  * @param  TickPriority: Tick interrupt priority.
  * @retval HAL status
  */
HAL_StatusTypeDef HAL_InitTick(uint32_t TickPriority)
{
 8000854:	b580      	push	{r7, lr}
 8000856:	b08c      	sub	sp, #48	; 0x30
 8000858:	af00      	add	r7, sp, #0
 800085a:	6078      	str	r0, [r7, #4]
  RCC_ClkInitTypeDef    clkconfig;
  uint32_t              uwTimclock = 0;
 800085c:	2300      	movs	r3, #0
 800085e:	62fb      	str	r3, [r7, #44]	; 0x2c
  uint32_t              uwPrescalerValue = 0;
 8000860:	2300      	movs	r3, #0
 8000862:	62bb      	str	r3, [r7, #40]	; 0x28
  uint32_t              pFLatency;
  /*Configure the TIM10 IRQ priority */
  HAL_NVIC_SetPriority(TIM1_UP_TIM10_IRQn, TickPriority ,0);
 8000864:	2200      	movs	r2, #0
 8000866:	6879      	ldr	r1, [r7, #4]
 8000868:	2019      	movs	r0, #25
 800086a:	f000 fa2b 	bl	8000cc4 <HAL_NVIC_SetPriority>

  /* Enable the TIM10 global Interrupt */
  HAL_NVIC_EnableIRQ(TIM1_UP_TIM10_IRQn);
 800086e:	2019      	movs	r0, #25
 8000870:	f000 fa44 	bl	8000cfc <HAL_NVIC_EnableIRQ>
  /* Enable TIM10 clock */
  __HAL_RCC_TIM10_CLK_ENABLE();
 8000874:	2300      	movs	r3, #0
 8000876:	60fb      	str	r3, [r7, #12]
 8000878:	4b1e      	ldr	r3, [pc, #120]	; (80008f4 <HAL_InitTick+0xa0>)
 800087a:	6c5b      	ldr	r3, [r3, #68]	; 0x44
 800087c:	4a1d      	ldr	r2, [pc, #116]	; (80008f4 <HAL_InitTick+0xa0>)
 800087e:	f443 3300 	orr.w	r3, r3, #131072	; 0x20000
 8000882:	6453      	str	r3, [r2, #68]	; 0x44
 8000884:	4b1b      	ldr	r3, [pc, #108]	; (80008f4 <HAL_InitTick+0xa0>)
 8000886:	6c5b      	ldr	r3, [r3, #68]	; 0x44
 8000888:	f403 3300 	and.w	r3, r3, #131072	; 0x20000
 800088c:	60fb      	str	r3, [r7, #12]
 800088e:	68fb      	ldr	r3, [r7, #12]

  /* Get clock configuration */
  HAL_RCC_GetClockConfig(&clkconfig, &pFLatency);
 8000890:	f107 0210 	add.w	r2, r7, #16
 8000894:	f107 0314 	add.w	r3, r7, #20
 8000898:	4611      	mov	r1, r2
 800089a:	4618      	mov	r0, r3
 800089c:	f001 fa16 	bl	8001ccc <HAL_RCC_GetClockConfig>

  /* Compute TIM10 clock */
  uwTimclock = HAL_RCC_GetPCLK2Freq();
 80008a0:	f001 fa00 	bl	8001ca4 <HAL_RCC_GetPCLK2Freq>
 80008a4:	62f8      	str	r0, [r7, #44]	; 0x2c
  /* Compute the prescaler value to have TIM10 counter clock equal to 1MHz */
  uwPrescalerValue = (uint32_t) ((uwTimclock / 1000000U) - 1U);
 80008a6:	6afb      	ldr	r3, [r7, #44]	; 0x2c
 80008a8:	4a13      	ldr	r2, [pc, #76]	; (80008f8 <HAL_InitTick+0xa4>)
 80008aa:	fba2 2303 	umull	r2, r3, r2, r3
 80008ae:	0c9b      	lsrs	r3, r3, #18
 80008b0:	3b01      	subs	r3, #1
 80008b2:	62bb      	str	r3, [r7, #40]	; 0x28

  /* Initialize TIM10 */
  htim10.Instance = TIM10;
 80008b4:	4b11      	ldr	r3, [pc, #68]	; (80008fc <HAL_InitTick+0xa8>)
 80008b6:	4a12      	ldr	r2, [pc, #72]	; (8000900 <HAL_InitTick+0xac>)
 80008b8:	601a      	str	r2, [r3, #0]
  + Period = [(TIM10CLK/1000) - 1]. to have a (1/1000) s time base.
  + Prescaler = (uwTimclock/1000000 - 1) to have a 1MHz counter clock.
  + ClockDivision = 0
  + Counter direction = Up
  */
  htim10.Init.Period = (1000000U / 1000U) - 1U;
 80008ba:	4b10      	ldr	r3, [pc, #64]	; (80008fc <HAL_InitTick+0xa8>)
 80008bc:	f240 32e7 	movw	r2, #999	; 0x3e7
 80008c0:	60da      	str	r2, [r3, #12]
  htim10.Init.Prescaler = uwPrescalerValue;
 80008c2:	4a0e      	ldr	r2, [pc, #56]	; (80008fc <HAL_InitTick+0xa8>)
 80008c4:	6abb      	ldr	r3, [r7, #40]	; 0x28
 80008c6:	6053      	str	r3, [r2, #4]
  htim10.Init.ClockDivision = 0;
 80008c8:	4b0c      	ldr	r3, [pc, #48]	; (80008fc <HAL_InitTick+0xa8>)
 80008ca:	2200      	movs	r2, #0
 80008cc:	611a      	str	r2, [r3, #16]
  htim10.Init.CounterMode = TIM_COUNTERMODE_UP;
 80008ce:	4b0b      	ldr	r3, [pc, #44]	; (80008fc <HAL_InitTick+0xa8>)
 80008d0:	2200      	movs	r2, #0
 80008d2:	609a      	str	r2, [r3, #8]
  if(HAL_TIM_Base_Init(&htim10) == HAL_OK)
 80008d4:	4809      	ldr	r0, [pc, #36]	; (80008fc <HAL_InitTick+0xa8>)
 80008d6:	f001 fa2b 	bl	8001d30 <HAL_TIM_Base_Init>
 80008da:	4603      	mov	r3, r0
 80008dc:	2b00      	cmp	r3, #0
 80008de:	d104      	bne.n	80008ea <HAL_InitTick+0x96>
  {
    /* Start the TIM time Base generation in interrupt mode */
    return HAL_TIM_Base_Start_IT(&htim10);
 80008e0:	4806      	ldr	r0, [pc, #24]	; (80008fc <HAL_InitTick+0xa8>)
 80008e2:	f001 fa5a 	bl	8001d9a <HAL_TIM_Base_Start_IT>
 80008e6:	4603      	mov	r3, r0
 80008e8:	e000      	b.n	80008ec <HAL_InitTick+0x98>
  }

  /* Return function status */
  return HAL_ERROR;
 80008ea:	2301      	movs	r3, #1
}
 80008ec:	4618      	mov	r0, r3
 80008ee:	3730      	adds	r7, #48	; 0x30
 80008f0:	46bd      	mov	sp, r7
 80008f2:	bd80      	pop	{r7, pc}
 80008f4:	40023800 	.word	0x40023800
 80008f8:	431bde83 	.word	0x431bde83
 80008fc:	20004940 	.word	0x20004940
 8000900:	40014400 	.word	0x40014400

08000904 <NMI_Handler>:
/******************************************************************************/
/**
  * @brief This function handles Non maskable interrupt.
  */
void NMI_Handler(void)
{
 8000904:	b480      	push	{r7}
 8000906:	af00      	add	r7, sp, #0
  /* USER CODE BEGIN NonMaskableInt_IRQn 0 */

  /* USER CODE END NonMaskableInt_IRQn 0 */
  /* USER CODE BEGIN NonMaskableInt_IRQn 1 */
  while (1)
 8000908:	e7fe      	b.n	8000908 <NMI_Handler+0x4>

0800090a <HardFault_Handler>:

/**
  * @brief This function handles Hard fault interrupt.
  */
void HardFault_Handler(void)
{
 800090a:	b480      	push	{r7}
 800090c:	af00      	add	r7, sp, #0
  /* USER CODE BEGIN HardFault_IRQn 0 */

  /* USER CODE END HardFault_IRQn 0 */
  while (1)
 800090e:	e7fe      	b.n	800090e <HardFault_Handler+0x4>

08000910 <MemManage_Handler>:

/**
  * @brief This function handles Memory management fault.
  */
void MemManage_Handler(void)
{
 8000910:	b480      	push	{r7}
 8000912:	af00      	add	r7, sp, #0
  /* USER CODE BEGIN MemoryManagement_IRQn 0 */

  /* USER CODE END MemoryManagement_IRQn 0 */
  while (1)
 8000914:	e7fe      	b.n	8000914 <MemManage_Handler+0x4>

08000916 <BusFault_Handler>:

/**
  * @brief This function handles Pre-fetch fault, memory access fault.
  */
void BusFault_Handler(void)
{
 8000916:	b480      	push	{r7}
 8000918:	af00      	add	r7, sp, #0
  /* USER CODE BEGIN BusFault_IRQn 0 */

  /* USER CODE END BusFault_IRQn 0 */
  while (1)
 800091a:	e7fe      	b.n	800091a <BusFault_Handler+0x4>

0800091c <UsageFault_Handler>:

/**
  * @brief This function handles Undefined instruction or illegal state.
  */
void UsageFault_Handler(void)
{
 800091c:	b480      	push	{r7}
 800091e:	af00      	add	r7, sp, #0
  /* USER CODE BEGIN UsageFault_IRQn 0 */

  /* USER CODE END UsageFault_IRQn 0 */
  while (1)
 8000920:	e7fe      	b.n	8000920 <UsageFault_Handler+0x4>

08000922 <DebugMon_Handler>:

/**
  * @brief This function handles Debug monitor.
  */
void DebugMon_Handler(void)
{
 8000922:	b480      	push	{r7}
 8000924:	af00      	add	r7, sp, #0

  /* USER CODE END DebugMonitor_IRQn 0 */
  /* USER CODE BEGIN DebugMonitor_IRQn 1 */

  /* USER CODE END DebugMonitor_IRQn 1 */
}
 8000926:	bf00      	nop
 8000928:	46bd      	mov	sp, r7
 800092a:	f85d 7b04 	ldr.w	r7, [sp], #4
 800092e:	4770      	bx	lr

08000930 <PVD_IRQHandler>:

/**
  * @brief This function handles PVD interrupt through EXTI line 16.
  */
void PVD_IRQHandler(void)
{
 8000930:	b580      	push	{r7, lr}
 8000932:	af00      	add	r7, sp, #0
  /* USER CODE BEGIN PVD_IRQn 0 */

  /* USER CODE END PVD_IRQn 0 */
  HAL_PWR_PVD_IRQHandler();
 8000934:	f000 fd4e 	bl	80013d4 <HAL_PWR_PVD_IRQHandler>
  /* USER CODE BEGIN PVD_IRQn 1 */

  /* USER CODE END PVD_IRQn 1 */
}
 8000938:	bf00      	nop
 800093a:	bd80      	pop	{r7, pc}

0800093c <FLASH_IRQHandler>:

/**
  * @brief This function handles Flash global interrupt.
  */
void FLASH_IRQHandler(void)
{
 800093c:	b580      	push	{r7, lr}
 800093e:	af00      	add	r7, sp, #0
  /* USER CODE BEGIN FLASH_IRQn 0 */

  /* USER CODE END FLASH_IRQn 0 */
  HAL_FLASH_IRQHandler();
 8000940:	f000 f9ea 	bl	8000d18 <HAL_FLASH_IRQHandler>
  /* USER CODE BEGIN FLASH_IRQn 1 */

  /* USER CODE END FLASH_IRQn 1 */
}
 8000944:	bf00      	nop
 8000946:	bd80      	pop	{r7, pc}

08000948 <RCC_IRQHandler>:

/**
  * @brief This function handles RCC global interrupt.
  */
void RCC_IRQHandler(void)
{
 8000948:	b480      	push	{r7}
 800094a:	af00      	add	r7, sp, #0

  /* USER CODE END RCC_IRQn 0 */
  /* USER CODE BEGIN RCC_IRQn 1 */

  /* USER CODE END RCC_IRQn 1 */
}
 800094c:	bf00      	nop
 800094e:	46bd      	mov	sp, r7
 8000950:	f85d 7b04 	ldr.w	r7, [sp], #4
 8000954:	4770      	bx	lr
	...

08000958 <TIM1_UP_TIM10_IRQHandler>:

/**
  * @brief This function handles TIM1 update interrupt and TIM10 global interrupt.
  */
void TIM1_UP_TIM10_IRQHandler(void)
{
 8000958:	b580      	push	{r7, lr}
 800095a:	af00      	add	r7, sp, #0
  /* USER CODE BEGIN TIM1_UP_TIM10_IRQn 0 */

  /* USER CODE END TIM1_UP_TIM10_IRQn 0 */
  HAL_TIM_IRQHandler(&htim10);
 800095c:	4802      	ldr	r0, [pc, #8]	; (8000968 <TIM1_UP_TIM10_IRQHandler+0x10>)
 800095e:	f001 fa40 	bl	8001de2 <HAL_TIM_IRQHandler>
  /* USER CODE BEGIN TIM1_UP_TIM10_IRQn 1 */

  /* USER CODE END TIM1_UP_TIM10_IRQn 1 */
}
 8000962:	bf00      	nop
 8000964:	bd80      	pop	{r7, pc}
 8000966:	bf00      	nop
 8000968:	20004940 	.word	0x20004940

0800096c <SystemInit>:
  *         configuration.
  * @param  None
  * @retval None
  */
void SystemInit(void)
{
 800096c:	b480      	push	{r7}
 800096e:	af00      	add	r7, sp, #0
  /* FPU settings ------------------------------------------------------------*/
  #if (__FPU_PRESENT == 1) && (__FPU_USED == 1)
    SCB->CPACR |= ((3UL << 10*2)|(3UL << 11*2));  /* set CP10 and CP11 Full Access */
 8000970:	4b08      	ldr	r3, [pc, #32]	; (8000994 <SystemInit+0x28>)
 8000972:	f8d3 3088 	ldr.w	r3, [r3, #136]	; 0x88
 8000976:	4a07      	ldr	r2, [pc, #28]	; (8000994 <SystemInit+0x28>)
 8000978:	f443 0370 	orr.w	r3, r3, #15728640	; 0xf00000
 800097c:	f8c2 3088 	str.w	r3, [r2, #136]	; 0x88

  /* Configure the Vector Table location add offset address ------------------*/
#ifdef VECT_TAB_SRAM
  SCB->VTOR = SRAM_BASE | VECT_TAB_OFFSET; /* Vector Table Relocation in Internal SRAM */
#else
  SCB->VTOR = FLASH_BASE | VECT_TAB_OFFSET; /* Vector Table Relocation in Internal FLASH */
 8000980:	4b04      	ldr	r3, [pc, #16]	; (8000994 <SystemInit+0x28>)
 8000982:	f04f 6200 	mov.w	r2, #134217728	; 0x8000000
 8000986:	609a      	str	r2, [r3, #8]
#endif
}
 8000988:	bf00      	nop
 800098a:	46bd      	mov	sp, r7
 800098c:	f85d 7b04 	ldr.w	r7, [sp], #4
 8000990:	4770      	bx	lr
 8000992:	bf00      	nop
 8000994:	e000ed00 	.word	0xe000ed00

08000998 <MX_USART2_UART_Init>:
UART_HandleTypeDef huart2;

/* USART2 init function */

void MX_USART2_UART_Init(void)
{
 8000998:	b580      	push	{r7, lr}
 800099a:	af00      	add	r7, sp, #0

  huart2.Instance = USART2;
 800099c:	4b11      	ldr	r3, [pc, #68]	; (80009e4 <MX_USART2_UART_Init+0x4c>)
 800099e:	4a12      	ldr	r2, [pc, #72]	; (80009e8 <MX_USART2_UART_Init+0x50>)
 80009a0:	601a      	str	r2, [r3, #0]
  huart2.Init.BaudRate = 115200;
 80009a2:	4b10      	ldr	r3, [pc, #64]	; (80009e4 <MX_USART2_UART_Init+0x4c>)
 80009a4:	f44f 32e1 	mov.w	r2, #115200	; 0x1c200
 80009a8:	605a      	str	r2, [r3, #4]
  huart2.Init.WordLength = UART_WORDLENGTH_8B;
 80009aa:	4b0e      	ldr	r3, [pc, #56]	; (80009e4 <MX_USART2_UART_Init+0x4c>)
 80009ac:	2200      	movs	r2, #0
 80009ae:	609a      	str	r2, [r3, #8]
  huart2.Init.StopBits = UART_STOPBITS_1;
 80009b0:	4b0c      	ldr	r3, [pc, #48]	; (80009e4 <MX_USART2_UART_Init+0x4c>)
 80009b2:	2200      	movs	r2, #0
 80009b4:	60da      	str	r2, [r3, #12]
  huart2.Init.Parity = UART_PARITY_NONE;
 80009b6:	4b0b      	ldr	r3, [pc, #44]	; (80009e4 <MX_USART2_UART_Init+0x4c>)
 80009b8:	2200      	movs	r2, #0
 80009ba:	611a      	str	r2, [r3, #16]
  huart2.Init.Mode = UART_MODE_TX_RX;
 80009bc:	4b09      	ldr	r3, [pc, #36]	; (80009e4 <MX_USART2_UART_Init+0x4c>)
 80009be:	220c      	movs	r2, #12
 80009c0:	615a      	str	r2, [r3, #20]
  huart2.Init.HwFlowCtl = UART_HWCONTROL_NONE;
 80009c2:	4b08      	ldr	r3, [pc, #32]	; (80009e4 <MX_USART2_UART_Init+0x4c>)
 80009c4:	2200      	movs	r2, #0
 80009c6:	619a      	str	r2, [r3, #24]
  huart2.Init.OverSampling = UART_OVERSAMPLING_16;
 80009c8:	4b06      	ldr	r3, [pc, #24]	; (80009e4 <MX_USART2_UART_Init+0x4c>)
 80009ca:	2200      	movs	r2, #0
 80009cc:	61da      	str	r2, [r3, #28]
  if (HAL_UART_Init(&huart2) != HAL_OK)
 80009ce:	4805      	ldr	r0, [pc, #20]	; (80009e4 <MX_USART2_UART_Init+0x4c>)
 80009d0:	f001 fbcc 	bl	800216c <HAL_UART_Init>
 80009d4:	4603      	mov	r3, r0
 80009d6:	2b00      	cmp	r3, #0
 80009d8:	d001      	beq.n	80009de <MX_USART2_UART_Init+0x46>
  {
    Error_Handler();
 80009da:	f7ff fef3 	bl	80007c4 <Error_Handler>
  }

}
 80009de:	bf00      	nop
 80009e0:	bd80      	pop	{r7, pc}
 80009e2:	bf00      	nop
 80009e4:	20004980 	.word	0x20004980
 80009e8:	40004400 	.word	0x40004400

080009ec <HAL_UART_MspInit>:

void HAL_UART_MspInit(UART_HandleTypeDef* uartHandle)
{
 80009ec:	b580      	push	{r7, lr}
 80009ee:	b08a      	sub	sp, #40	; 0x28
 80009f0:	af00      	add	r7, sp, #0
 80009f2:	6078      	str	r0, [r7, #4]

  GPIO_InitTypeDef GPIO_InitStruct = {0};
 80009f4:	f107 0314 	add.w	r3, r7, #20
 80009f8:	2200      	movs	r2, #0
 80009fa:	601a      	str	r2, [r3, #0]
 80009fc:	605a      	str	r2, [r3, #4]
 80009fe:	609a      	str	r2, [r3, #8]
 8000a00:	60da      	str	r2, [r3, #12]
 8000a02:	611a      	str	r2, [r3, #16]
  if(uartHandle->Instance==USART2)
 8000a04:	687b      	ldr	r3, [r7, #4]
 8000a06:	681b      	ldr	r3, [r3, #0]
 8000a08:	4a19      	ldr	r2, [pc, #100]	; (8000a70 <HAL_UART_MspInit+0x84>)
 8000a0a:	4293      	cmp	r3, r2
 8000a0c:	d12b      	bne.n	8000a66 <HAL_UART_MspInit+0x7a>
  {
  /* USER CODE BEGIN USART2_MspInit 0 */

  /* USER CODE END USART2_MspInit 0 */
    /* USART2 clock enable */
    __HAL_RCC_USART2_CLK_ENABLE();
 8000a0e:	2300      	movs	r3, #0
 8000a10:	613b      	str	r3, [r7, #16]
 8000a12:	4b18      	ldr	r3, [pc, #96]	; (8000a74 <HAL_UART_MspInit+0x88>)
 8000a14:	6c1b      	ldr	r3, [r3, #64]	; 0x40
 8000a16:	4a17      	ldr	r2, [pc, #92]	; (8000a74 <HAL_UART_MspInit+0x88>)
 8000a18:	f443 3300 	orr.w	r3, r3, #131072	; 0x20000
 8000a1c:	6413      	str	r3, [r2, #64]	; 0x40
 8000a1e:	4b15      	ldr	r3, [pc, #84]	; (8000a74 <HAL_UART_MspInit+0x88>)
 8000a20:	6c1b      	ldr	r3, [r3, #64]	; 0x40
 8000a22:	f403 3300 	and.w	r3, r3, #131072	; 0x20000
 8000a26:	613b      	str	r3, [r7, #16]
 8000a28:	693b      	ldr	r3, [r7, #16]

    __HAL_RCC_GPIOA_CLK_ENABLE();
 8000a2a:	2300      	movs	r3, #0
 8000a2c:	60fb      	str	r3, [r7, #12]
 8000a2e:	4b11      	ldr	r3, [pc, #68]	; (8000a74 <HAL_UART_MspInit+0x88>)
 8000a30:	6b1b      	ldr	r3, [r3, #48]	; 0x30
 8000a32:	4a10      	ldr	r2, [pc, #64]	; (8000a74 <HAL_UART_MspInit+0x88>)
 8000a34:	f043 0301 	orr.w	r3, r3, #1
 8000a38:	6313      	str	r3, [r2, #48]	; 0x30
 8000a3a:	4b0e      	ldr	r3, [pc, #56]	; (8000a74 <HAL_UART_MspInit+0x88>)
 8000a3c:	6b1b      	ldr	r3, [r3, #48]	; 0x30
 8000a3e:	f003 0301 	and.w	r3, r3, #1
 8000a42:	60fb      	str	r3, [r7, #12]
 8000a44:	68fb      	ldr	r3, [r7, #12]
    /**USART2 GPIO Configuration
    PA2     ------> USART2_TX
    PA3     ------> USART2_RX
    */
    GPIO_InitStruct.Pin = USART_TX_Pin|USART_RX_Pin;
 8000a46:	230c      	movs	r3, #12
 8000a48:	617b      	str	r3, [r7, #20]
    GPIO_InitStruct.Mode = GPIO_MODE_AF_PP;
 8000a4a:	2302      	movs	r3, #2
 8000a4c:	61bb      	str	r3, [r7, #24]
    GPIO_InitStruct.Pull = GPIO_NOPULL;
 8000a4e:	2300      	movs	r3, #0
 8000a50:	61fb      	str	r3, [r7, #28]
    GPIO_InitStruct.Speed = GPIO_SPEED_FREQ_VERY_HIGH;
 8000a52:	2303      	movs	r3, #3
 8000a54:	623b      	str	r3, [r7, #32]
    GPIO_InitStruct.Alternate = GPIO_AF7_USART2;
 8000a56:	2307      	movs	r3, #7
 8000a58:	627b      	str	r3, [r7, #36]	; 0x24
    HAL_GPIO_Init(GPIOA, &GPIO_InitStruct);
 8000a5a:	f107 0314 	add.w	r3, r7, #20
 8000a5e:	4619      	mov	r1, r3
 8000a60:	4805      	ldr	r0, [pc, #20]	; (8000a78 <HAL_UART_MspInit+0x8c>)
 8000a62:	f000 fb01 	bl	8001068 <HAL_GPIO_Init>

  /* USER CODE BEGIN USART2_MspInit 1 */

  /* USER CODE END USART2_MspInit 1 */
  }
}
 8000a66:	bf00      	nop
 8000a68:	3728      	adds	r7, #40	; 0x28
 8000a6a:	46bd      	mov	sp, r7
 8000a6c:	bd80      	pop	{r7, pc}
 8000a6e:	bf00      	nop
 8000a70:	40004400 	.word	0x40004400
 8000a74:	40023800 	.word	0x40023800
 8000a78:	40020000 	.word	0x40020000

08000a7c <Reset_Handler>:

    .section  .text.Reset_Handler
  .weak  Reset_Handler
  .type  Reset_Handler, %function
Reset_Handler:  
  ldr   sp, =_estack    		 /* set stack pointer */
 8000a7c:	f8df d034 	ldr.w	sp, [pc, #52]	; 8000ab4 <LoopFillZerobss+0x14>

/* Copy the data segment initializers from flash to SRAM */  
  movs  r1, #0
 8000a80:	2100      	movs	r1, #0
  b  LoopCopyDataInit
 8000a82:	e003      	b.n	8000a8c <LoopCopyDataInit>

08000a84 <CopyDataInit>:

CopyDataInit:
  ldr  r3, =_sidata
 8000a84:	4b0c      	ldr	r3, [pc, #48]	; (8000ab8 <LoopFillZerobss+0x18>)
  ldr  r3, [r3, r1]
 8000a86:	585b      	ldr	r3, [r3, r1]
  str  r3, [r0, r1]
 8000a88:	5043      	str	r3, [r0, r1]
  adds  r1, r1, #4
 8000a8a:	3104      	adds	r1, #4

08000a8c <LoopCopyDataInit>:
    
LoopCopyDataInit:
  ldr  r0, =_sdata
 8000a8c:	480b      	ldr	r0, [pc, #44]	; (8000abc <LoopFillZerobss+0x1c>)
  ldr  r3, =_edata
 8000a8e:	4b0c      	ldr	r3, [pc, #48]	; (8000ac0 <LoopFillZerobss+0x20>)
  adds  r2, r0, r1
 8000a90:	1842      	adds	r2, r0, r1
  cmp  r2, r3
 8000a92:	429a      	cmp	r2, r3
  bcc  CopyDataInit
 8000a94:	d3f6      	bcc.n	8000a84 <CopyDataInit>
  ldr  r2, =_sbss
 8000a96:	4a0b      	ldr	r2, [pc, #44]	; (8000ac4 <LoopFillZerobss+0x24>)
  b  LoopFillZerobss
 8000a98:	e002      	b.n	8000aa0 <LoopFillZerobss>

08000a9a <FillZerobss>:
/* Zero fill the bss segment. */  
FillZerobss:
  movs  r3, #0
 8000a9a:	2300      	movs	r3, #0
  str  r3, [r2], #4
 8000a9c:	f842 3b04 	str.w	r3, [r2], #4

08000aa0 <LoopFillZerobss>:
    
LoopFillZerobss:
  ldr  r3, = _ebss
 8000aa0:	4b09      	ldr	r3, [pc, #36]	; (8000ac8 <LoopFillZerobss+0x28>)
  cmp  r2, r3
 8000aa2:	429a      	cmp	r2, r3
  bcc  FillZerobss
 8000aa4:	d3f9      	bcc.n	8000a9a <FillZerobss>

/* Call the clock system intitialization function.*/
  bl  SystemInit   
 8000aa6:	f7ff ff61 	bl	800096c <SystemInit>
/* Call static constructors */
    bl __libc_init_array
 8000aaa:	f004 fcbf 	bl	800542c <__libc_init_array>
/* Call the application's entry point.*/
  bl  main
 8000aae:	f7ff fdfb 	bl	80006a8 <main>
  bx  lr    
 8000ab2:	4770      	bx	lr
  ldr   sp, =_estack    		 /* set stack pointer */
 8000ab4:	20020000 	.word	0x20020000
  ldr  r3, =_sidata
 8000ab8:	08005584 	.word	0x08005584
  ldr  r0, =_sdata
 8000abc:	20000000 	.word	0x20000000
  ldr  r3, =_edata
 8000ac0:	20000010 	.word	0x20000010
  ldr  r2, =_sbss
 8000ac4:	20000010 	.word	0x20000010
  ldr  r3, = _ebss
 8000ac8:	20004a24 	.word	0x20004a24

08000acc <ADC_IRQHandler>:
 * @retval None       
*/
    .section  .text.Default_Handler,"ax",%progbits
Default_Handler:
Infinite_Loop:
  b  Infinite_Loop
 8000acc:	e7fe      	b.n	8000acc <ADC_IRQHandler>
	...

08000ad0 <HAL_Init>:
  *         need to ensure that the SysTick time base is always set to 1 millisecond
  *         to have correct HAL operation.
  * @retval HAL status
  */
HAL_StatusTypeDef HAL_Init(void)
{
 8000ad0:	b580      	push	{r7, lr}
 8000ad2:	af00      	add	r7, sp, #0
  /* Configure Flash prefetch, Instruction cache, Data cache */ 
#if (INSTRUCTION_CACHE_ENABLE != 0U)
  __HAL_FLASH_INSTRUCTION_CACHE_ENABLE();
 8000ad4:	4b0e      	ldr	r3, [pc, #56]	; (8000b10 <HAL_Init+0x40>)
 8000ad6:	681b      	ldr	r3, [r3, #0]
 8000ad8:	4a0d      	ldr	r2, [pc, #52]	; (8000b10 <HAL_Init+0x40>)
 8000ada:	f443 7300 	orr.w	r3, r3, #512	; 0x200
 8000ade:	6013      	str	r3, [r2, #0]
#endif /* INSTRUCTION_CACHE_ENABLE */

#if (DATA_CACHE_ENABLE != 0U)
  __HAL_FLASH_DATA_CACHE_ENABLE();
 8000ae0:	4b0b      	ldr	r3, [pc, #44]	; (8000b10 <HAL_Init+0x40>)
 8000ae2:	681b      	ldr	r3, [r3, #0]
 8000ae4:	4a0a      	ldr	r2, [pc, #40]	; (8000b10 <HAL_Init+0x40>)
 8000ae6:	f443 6380 	orr.w	r3, r3, #1024	; 0x400
 8000aea:	6013      	str	r3, [r2, #0]
#endif /* DATA_CACHE_ENABLE */

#if (PREFETCH_ENABLE != 0U)
  __HAL_FLASH_PREFETCH_BUFFER_ENABLE();
 8000aec:	4b08      	ldr	r3, [pc, #32]	; (8000b10 <HAL_Init+0x40>)
 8000aee:	681b      	ldr	r3, [r3, #0]
 8000af0:	4a07      	ldr	r2, [pc, #28]	; (8000b10 <HAL_Init+0x40>)
 8000af2:	f443 7380 	orr.w	r3, r3, #256	; 0x100
 8000af6:	6013      	str	r3, [r2, #0]
#endif /* PREFETCH_ENABLE */

  /* Set Interrupt Group Priority */
  HAL_NVIC_SetPriorityGrouping(NVIC_PRIORITYGROUP_4);
 8000af8:	2003      	movs	r0, #3
 8000afa:	f000 f8d8 	bl	8000cae <HAL_NVIC_SetPriorityGrouping>

  /* Use systick as time base source and configure 1ms tick (default clock after Reset is HSI) */
  HAL_InitTick(TICK_INT_PRIORITY);
 8000afe:	2000      	movs	r0, #0
 8000b00:	f7ff fea8 	bl	8000854 <HAL_InitTick>

  /* Init the low level hardware */
  HAL_MspInit();
 8000b04:	f7ff fe62 	bl	80007cc <HAL_MspInit>

  /* Return function status */
  return HAL_OK;
 8000b08:	2300      	movs	r3, #0
}
 8000b0a:	4618      	mov	r0, r3
 8000b0c:	bd80      	pop	{r7, pc}
 8000b0e:	bf00      	nop
 8000b10:	40023c00 	.word	0x40023c00

08000b14 <HAL_IncTick>:
 * @note This function is declared as __weak to be overwritten in case of other 
  *      implementations in user file.
  * @retval None
  */
__weak void HAL_IncTick(void)
{
 8000b14:	b480      	push	{r7}
 8000b16:	af00      	add	r7, sp, #0
  uwTick += uwTickFreq;
 8000b18:	4b06      	ldr	r3, [pc, #24]	; (8000b34 <HAL_IncTick+0x20>)
 8000b1a:	781b      	ldrb	r3, [r3, #0]
 8000b1c:	461a      	mov	r2, r3
 8000b1e:	4b06      	ldr	r3, [pc, #24]	; (8000b38 <HAL_IncTick+0x24>)
 8000b20:	681b      	ldr	r3, [r3, #0]
 8000b22:	4413      	add	r3, r2
 8000b24:	4a04      	ldr	r2, [pc, #16]	; (8000b38 <HAL_IncTick+0x24>)
 8000b26:	6013      	str	r3, [r2, #0]
}
 8000b28:	bf00      	nop
 8000b2a:	46bd      	mov	sp, r7
 8000b2c:	f85d 7b04 	ldr.w	r7, [sp], #4
 8000b30:	4770      	bx	lr
 8000b32:	bf00      	nop
 8000b34:	20000008 	.word	0x20000008
 8000b38:	200049c0 	.word	0x200049c0

08000b3c <HAL_GetTick>:
  * @note This function is declared as __weak to be overwritten in case of other 
  *       implementations in user file.
  * @retval tick value
  */
__weak uint32_t HAL_GetTick(void)
{
 8000b3c:	b480      	push	{r7}
 8000b3e:	af00      	add	r7, sp, #0
  return uwTick;
 8000b40:	4b03      	ldr	r3, [pc, #12]	; (8000b50 <HAL_GetTick+0x14>)
 8000b42:	681b      	ldr	r3, [r3, #0]
}
 8000b44:	4618      	mov	r0, r3
 8000b46:	46bd      	mov	sp, r7
 8000b48:	f85d 7b04 	ldr.w	r7, [sp], #4
 8000b4c:	4770      	bx	lr
 8000b4e:	bf00      	nop
 8000b50:	200049c0 	.word	0x200049c0

08000b54 <__NVIC_SetPriorityGrouping>:
           In case of a conflict between priority grouping and available
           priority bits (__NVIC_PRIO_BITS), the smallest possible priority group is set.
  \param [in]      PriorityGroup  Priority grouping field.
 */
__STATIC_INLINE void __NVIC_SetPriorityGrouping(uint32_t PriorityGroup)
{
 8000b54:	b480      	push	{r7}
 8000b56:	b085      	sub	sp, #20
 8000b58:	af00      	add	r7, sp, #0
 8000b5a:	6078      	str	r0, [r7, #4]
  uint32_t reg_value;
  uint32_t PriorityGroupTmp = (PriorityGroup & (uint32_t)0x07UL);             /* only values 0..7 are used          */
 8000b5c:	687b      	ldr	r3, [r7, #4]
 8000b5e:	f003 0307 	and.w	r3, r3, #7
 8000b62:	60fb      	str	r3, [r7, #12]

  reg_value  =  SCB->AIRCR;                                                   /* read old register configuration    */
 8000b64:	4b0c      	ldr	r3, [pc, #48]	; (8000b98 <__NVIC_SetPriorityGrouping+0x44>)
 8000b66:	68db      	ldr	r3, [r3, #12]
 8000b68:	60bb      	str	r3, [r7, #8]
  reg_value &= ~((uint32_t)(SCB_AIRCR_VECTKEY_Msk | SCB_AIRCR_PRIGROUP_Msk)); /* clear bits to change               */
 8000b6a:	68ba      	ldr	r2, [r7, #8]
 8000b6c:	f64f 03ff 	movw	r3, #63743	; 0xf8ff
 8000b70:	4013      	ands	r3, r2
 8000b72:	60bb      	str	r3, [r7, #8]
  reg_value  =  (reg_value                                   |
                ((uint32_t)0x5FAUL << SCB_AIRCR_VECTKEY_Pos) |
                (PriorityGroupTmp << SCB_AIRCR_PRIGROUP_Pos)  );              /* Insert write key and priority group */
 8000b74:	68fb      	ldr	r3, [r7, #12]
 8000b76:	021a      	lsls	r2, r3, #8
                ((uint32_t)0x5FAUL << SCB_AIRCR_VECTKEY_Pos) |
 8000b78:	68bb      	ldr	r3, [r7, #8]
 8000b7a:	4313      	orrs	r3, r2
  reg_value  =  (reg_value                                   |
 8000b7c:	f043 63bf 	orr.w	r3, r3, #100139008	; 0x5f80000
 8000b80:	f443 3300 	orr.w	r3, r3, #131072	; 0x20000
 8000b84:	60bb      	str	r3, [r7, #8]
  SCB->AIRCR =  reg_value;
 8000b86:	4a04      	ldr	r2, [pc, #16]	; (8000b98 <__NVIC_SetPriorityGrouping+0x44>)
 8000b88:	68bb      	ldr	r3, [r7, #8]
 8000b8a:	60d3      	str	r3, [r2, #12]
}
 8000b8c:	bf00      	nop
 8000b8e:	3714      	adds	r7, #20
 8000b90:	46bd      	mov	sp, r7
 8000b92:	f85d 7b04 	ldr.w	r7, [sp], #4
 8000b96:	4770      	bx	lr
 8000b98:	e000ed00 	.word	0xe000ed00

08000b9c <__NVIC_GetPriorityGrouping>:
  \brief   Get Priority Grouping
  \details Reads the priority grouping field from the NVIC Interrupt Controller.
  \return                Priority grouping field (SCB->AIRCR [10:8] PRIGROUP field).
 */
__STATIC_INLINE uint32_t __NVIC_GetPriorityGrouping(void)
{
 8000b9c:	b480      	push	{r7}
 8000b9e:	af00      	add	r7, sp, #0
  return ((uint32_t)((SCB->AIRCR & SCB_AIRCR_PRIGROUP_Msk) >> SCB_AIRCR_PRIGROUP_Pos));
 8000ba0:	4b04      	ldr	r3, [pc, #16]	; (8000bb4 <__NVIC_GetPriorityGrouping+0x18>)
 8000ba2:	68db      	ldr	r3, [r3, #12]
 8000ba4:	0a1b      	lsrs	r3, r3, #8
 8000ba6:	f003 0307 	and.w	r3, r3, #7
}
 8000baa:	4618      	mov	r0, r3
 8000bac:	46bd      	mov	sp, r7
 8000bae:	f85d 7b04 	ldr.w	r7, [sp], #4
 8000bb2:	4770      	bx	lr
 8000bb4:	e000ed00 	.word	0xe000ed00

08000bb8 <__NVIC_EnableIRQ>:
  \details Enables a device specific interrupt in the NVIC interrupt controller.
  \param [in]      IRQn  Device specific interrupt number.
  \note    IRQn must not be negative.
 */
__STATIC_INLINE void __NVIC_EnableIRQ(IRQn_Type IRQn)
{
 8000bb8:	b480      	push	{r7}
 8000bba:	b083      	sub	sp, #12
 8000bbc:	af00      	add	r7, sp, #0
 8000bbe:	4603      	mov	r3, r0
 8000bc0:	71fb      	strb	r3, [r7, #7]
  if ((int32_t)(IRQn) >= 0)
 8000bc2:	f997 3007 	ldrsb.w	r3, [r7, #7]
 8000bc6:	2b00      	cmp	r3, #0
 8000bc8:	db0b      	blt.n	8000be2 <__NVIC_EnableIRQ+0x2a>
  {
    NVIC->ISER[(((uint32_t)IRQn) >> 5UL)] = (uint32_t)(1UL << (((uint32_t)IRQn) & 0x1FUL));
 8000bca:	79fb      	ldrb	r3, [r7, #7]
 8000bcc:	f003 021f 	and.w	r2, r3, #31
 8000bd0:	4907      	ldr	r1, [pc, #28]	; (8000bf0 <__NVIC_EnableIRQ+0x38>)
 8000bd2:	f997 3007 	ldrsb.w	r3, [r7, #7]
 8000bd6:	095b      	lsrs	r3, r3, #5
 8000bd8:	2001      	movs	r0, #1
 8000bda:	fa00 f202 	lsl.w	r2, r0, r2
 8000bde:	f841 2023 	str.w	r2, [r1, r3, lsl #2]
  }
}
 8000be2:	bf00      	nop
 8000be4:	370c      	adds	r7, #12
 8000be6:	46bd      	mov	sp, r7
 8000be8:	f85d 7b04 	ldr.w	r7, [sp], #4
 8000bec:	4770      	bx	lr
 8000bee:	bf00      	nop
 8000bf0:	e000e100 	.word	0xe000e100

08000bf4 <__NVIC_SetPriority>:
  \param [in]      IRQn  Interrupt number.
  \param [in]  priority  Priority to set.
  \note    The priority cannot be set for every processor exception.
 */
__STATIC_INLINE void __NVIC_SetPriority(IRQn_Type IRQn, uint32_t priority)
{
 8000bf4:	b480      	push	{r7}
 8000bf6:	b083      	sub	sp, #12
 8000bf8:	af00      	add	r7, sp, #0
 8000bfa:	4603      	mov	r3, r0
 8000bfc:	6039      	str	r1, [r7, #0]
 8000bfe:	71fb      	strb	r3, [r7, #7]
  if ((int32_t)(IRQn) >= 0)
 8000c00:	f997 3007 	ldrsb.w	r3, [r7, #7]
 8000c04:	2b00      	cmp	r3, #0
 8000c06:	db0a      	blt.n	8000c1e <__NVIC_SetPriority+0x2a>
  {
    NVIC->IP[((uint32_t)IRQn)]               = (uint8_t)((priority << (8U - __NVIC_PRIO_BITS)) & (uint32_t)0xFFUL);
 8000c08:	683b      	ldr	r3, [r7, #0]
 8000c0a:	b2da      	uxtb	r2, r3
 8000c0c:	490c      	ldr	r1, [pc, #48]	; (8000c40 <__NVIC_SetPriority+0x4c>)
 8000c0e:	f997 3007 	ldrsb.w	r3, [r7, #7]
 8000c12:	0112      	lsls	r2, r2, #4
 8000c14:	b2d2      	uxtb	r2, r2
 8000c16:	440b      	add	r3, r1
 8000c18:	f883 2300 	strb.w	r2, [r3, #768]	; 0x300
  }
  else
  {
    SCB->SHP[(((uint32_t)IRQn) & 0xFUL)-4UL] = (uint8_t)((priority << (8U - __NVIC_PRIO_BITS)) & (uint32_t)0xFFUL);
  }
}
 8000c1c:	e00a      	b.n	8000c34 <__NVIC_SetPriority+0x40>
    SCB->SHP[(((uint32_t)IRQn) & 0xFUL)-4UL] = (uint8_t)((priority << (8U - __NVIC_PRIO_BITS)) & (uint32_t)0xFFUL);
 8000c1e:	683b      	ldr	r3, [r7, #0]
 8000c20:	b2da      	uxtb	r2, r3
 8000c22:	4908      	ldr	r1, [pc, #32]	; (8000c44 <__NVIC_SetPriority+0x50>)
 8000c24:	79fb      	ldrb	r3, [r7, #7]
 8000c26:	f003 030f 	and.w	r3, r3, #15
 8000c2a:	3b04      	subs	r3, #4
 8000c2c:	0112      	lsls	r2, r2, #4
 8000c2e:	b2d2      	uxtb	r2, r2
 8000c30:	440b      	add	r3, r1
 8000c32:	761a      	strb	r2, [r3, #24]
}
 8000c34:	bf00      	nop
 8000c36:	370c      	adds	r7, #12
 8000c38:	46bd      	mov	sp, r7
 8000c3a:	f85d 7b04 	ldr.w	r7, [sp], #4
 8000c3e:	4770      	bx	lr
 8000c40:	e000e100 	.word	0xe000e100
 8000c44:	e000ed00 	.word	0xe000ed00

08000c48 <NVIC_EncodePriority>:
  \param [in]   PreemptPriority  Preemptive priority value (starting from 0).
  \param [in]       SubPriority  Subpriority value (starting from 0).
  \return                        Encoded priority. Value can be used in the function \ref NVIC_SetPriority().
 */
__STATIC_INLINE uint32_t NVIC_EncodePriority (uint32_t PriorityGroup, uint32_t PreemptPriority, uint32_t SubPriority)
{
 8000c48:	b480      	push	{r7}
 8000c4a:	b089      	sub	sp, #36	; 0x24
 8000c4c:	af00      	add	r7, sp, #0
 8000c4e:	60f8      	str	r0, [r7, #12]
 8000c50:	60b9      	str	r1, [r7, #8]
 8000c52:	607a      	str	r2, [r7, #4]
  uint32_t PriorityGroupTmp = (PriorityGroup & (uint32_t)0x07UL);   /* only values 0..7 are used          */
 8000c54:	68fb      	ldr	r3, [r7, #12]
 8000c56:	f003 0307 	and.w	r3, r3, #7
 8000c5a:	61fb      	str	r3, [r7, #28]
  uint32_t PreemptPriorityBits;
  uint32_t SubPriorityBits;

  PreemptPriorityBits = ((7UL - PriorityGroupTmp) > (uint32_t)(__NVIC_PRIO_BITS)) ? (uint32_t)(__NVIC_PRIO_BITS) : (uint32_t)(7UL - PriorityGroupTmp);
 8000c5c:	69fb      	ldr	r3, [r7, #28]
 8000c5e:	f1c3 0307 	rsb	r3, r3, #7
 8000c62:	2b04      	cmp	r3, #4
 8000c64:	bf28      	it	cs
 8000c66:	2304      	movcs	r3, #4
 8000c68:	61bb      	str	r3, [r7, #24]
  SubPriorityBits     = ((PriorityGroupTmp + (uint32_t)(__NVIC_PRIO_BITS)) < (uint32_t)7UL) ? (uint32_t)0UL : (uint32_t)((PriorityGroupTmp - 7UL) + (uint32_t)(__NVIC_PRIO_BITS));
 8000c6a:	69fb      	ldr	r3, [r7, #28]
 8000c6c:	3304      	adds	r3, #4
 8000c6e:	2b06      	cmp	r3, #6
 8000c70:	d902      	bls.n	8000c78 <NVIC_EncodePriority+0x30>
 8000c72:	69fb      	ldr	r3, [r7, #28]
 8000c74:	3b03      	subs	r3, #3
 8000c76:	e000      	b.n	8000c7a <NVIC_EncodePriority+0x32>
 8000c78:	2300      	movs	r3, #0
 8000c7a:	617b      	str	r3, [r7, #20]

  return (
           ((PreemptPriority & (uint32_t)((1UL << (PreemptPriorityBits)) - 1UL)) << SubPriorityBits) |
 8000c7c:	f04f 32ff 	mov.w	r2, #4294967295
 8000c80:	69bb      	ldr	r3, [r7, #24]
 8000c82:	fa02 f303 	lsl.w	r3, r2, r3
 8000c86:	43da      	mvns	r2, r3
 8000c88:	68bb      	ldr	r3, [r7, #8]
 8000c8a:	401a      	ands	r2, r3
 8000c8c:	697b      	ldr	r3, [r7, #20]
 8000c8e:	409a      	lsls	r2, r3
           ((SubPriority     & (uint32_t)((1UL << (SubPriorityBits    )) - 1UL)))
 8000c90:	f04f 31ff 	mov.w	r1, #4294967295
 8000c94:	697b      	ldr	r3, [r7, #20]
 8000c96:	fa01 f303 	lsl.w	r3, r1, r3
 8000c9a:	43d9      	mvns	r1, r3
 8000c9c:	687b      	ldr	r3, [r7, #4]
 8000c9e:	400b      	ands	r3, r1
           ((PreemptPriority & (uint32_t)((1UL << (PreemptPriorityBits)) - 1UL)) << SubPriorityBits) |
 8000ca0:	4313      	orrs	r3, r2
         );
}
 8000ca2:	4618      	mov	r0, r3
 8000ca4:	3724      	adds	r7, #36	; 0x24
 8000ca6:	46bd      	mov	sp, r7
 8000ca8:	f85d 7b04 	ldr.w	r7, [sp], #4
 8000cac:	4770      	bx	lr

08000cae <HAL_NVIC_SetPriorityGrouping>:
  * @note   When the NVIC_PriorityGroup_0 is selected, IRQ preemption is no more possible. 
  *         The pending IRQ priority will be managed only by the subpriority. 
  * @retval None
  */
void HAL_NVIC_SetPriorityGrouping(uint32_t PriorityGroup)
{
 8000cae:	b580      	push	{r7, lr}
 8000cb0:	b082      	sub	sp, #8
 8000cb2:	af00      	add	r7, sp, #0
 8000cb4:	6078      	str	r0, [r7, #4]
  /* Check the parameters */
  assert_param(IS_NVIC_PRIORITY_GROUP(PriorityGroup));
  
  /* Set the PRIGROUP[10:8] bits according to the PriorityGroup parameter value */
  NVIC_SetPriorityGrouping(PriorityGroup);
 8000cb6:	6878      	ldr	r0, [r7, #4]
 8000cb8:	f7ff ff4c 	bl	8000b54 <__NVIC_SetPriorityGrouping>
}
 8000cbc:	bf00      	nop
 8000cbe:	3708      	adds	r7, #8
 8000cc0:	46bd      	mov	sp, r7
 8000cc2:	bd80      	pop	{r7, pc}

08000cc4 <HAL_NVIC_SetPriority>:
  *         This parameter can be a value between 0 and 15
  *         A lower priority value indicates a higher priority.          
  * @retval None
  */
void HAL_NVIC_SetPriority(IRQn_Type IRQn, uint32_t PreemptPriority, uint32_t SubPriority)
{ 
 8000cc4:	b580      	push	{r7, lr}
 8000cc6:	b086      	sub	sp, #24
 8000cc8:	af00      	add	r7, sp, #0
 8000cca:	4603      	mov	r3, r0
 8000ccc:	60b9      	str	r1, [r7, #8]
 8000cce:	607a      	str	r2, [r7, #4]
 8000cd0:	73fb      	strb	r3, [r7, #15]
  uint32_t prioritygroup = 0x00U;
 8000cd2:	2300      	movs	r3, #0
 8000cd4:	617b      	str	r3, [r7, #20]
  
  /* Check the parameters */
  assert_param(IS_NVIC_SUB_PRIORITY(SubPriority));
  assert_param(IS_NVIC_PREEMPTION_PRIORITY(PreemptPriority));
  
  prioritygroup = NVIC_GetPriorityGrouping();
 8000cd6:	f7ff ff61 	bl	8000b9c <__NVIC_GetPriorityGrouping>
 8000cda:	6178      	str	r0, [r7, #20]
  
  NVIC_SetPriority(IRQn, NVIC_EncodePriority(prioritygroup, PreemptPriority, SubPriority));
 8000cdc:	687a      	ldr	r2, [r7, #4]
 8000cde:	68b9      	ldr	r1, [r7, #8]
 8000ce0:	6978      	ldr	r0, [r7, #20]
 8000ce2:	f7ff ffb1 	bl	8000c48 <NVIC_EncodePriority>
 8000ce6:	4602      	mov	r2, r0
 8000ce8:	f997 300f 	ldrsb.w	r3, [r7, #15]
 8000cec:	4611      	mov	r1, r2
 8000cee:	4618      	mov	r0, r3
 8000cf0:	f7ff ff80 	bl	8000bf4 <__NVIC_SetPriority>
}
 8000cf4:	bf00      	nop
 8000cf6:	3718      	adds	r7, #24
 8000cf8:	46bd      	mov	sp, r7
 8000cfa:	bd80      	pop	{r7, pc}

08000cfc <HAL_NVIC_EnableIRQ>:
  *         This parameter can be an enumerator of IRQn_Type enumeration
  *         (For the complete STM32 Devices IRQ Channels list, please refer to the appropriate CMSIS device file (stm32f4xxxx.h))
  * @retval None
  */
void HAL_NVIC_EnableIRQ(IRQn_Type IRQn)
{
 8000cfc:	b580      	push	{r7, lr}
 8000cfe:	b082      	sub	sp, #8
 8000d00:	af00      	add	r7, sp, #0
 8000d02:	4603      	mov	r3, r0
 8000d04:	71fb      	strb	r3, [r7, #7]
  /* Check the parameters */
  assert_param(IS_NVIC_DEVICE_IRQ(IRQn));
  
  /* Enable interrupt */
  NVIC_EnableIRQ(IRQn);
 8000d06:	f997 3007 	ldrsb.w	r3, [r7, #7]
 8000d0a:	4618      	mov	r0, r3
 8000d0c:	f7ff ff54 	bl	8000bb8 <__NVIC_EnableIRQ>
}
 8000d10:	bf00      	nop
 8000d12:	3708      	adds	r7, #8
 8000d14:	46bd      	mov	sp, r7
 8000d16:	bd80      	pop	{r7, pc}

08000d18 <HAL_FLASH_IRQHandler>:
/**
  * @brief This function handles FLASH interrupt request.
  * @retval None
  */
void HAL_FLASH_IRQHandler(void)
{
 8000d18:	b580      	push	{r7, lr}
 8000d1a:	b082      	sub	sp, #8
 8000d1c:	af00      	add	r7, sp, #0
  uint32_t addresstmp = 0U;
 8000d1e:	2300      	movs	r3, #0
 8000d20:	607b      	str	r3, [r7, #4]
  
  /* Check FLASH operation error flags */
#if defined(FLASH_SR_RDERR) 
  if(__HAL_FLASH_GET_FLAG((FLASH_FLAG_OPERR | FLASH_FLAG_WRPERR | FLASH_FLAG_PGAERR | \
 8000d22:	4b4b      	ldr	r3, [pc, #300]	; (8000e50 <HAL_FLASH_IRQHandler+0x138>)
 8000d24:	68db      	ldr	r3, [r3, #12]
 8000d26:	f403 73f9 	and.w	r3, r3, #498	; 0x1f2
 8000d2a:	2b00      	cmp	r3, #0
 8000d2c:	d020      	beq.n	8000d70 <HAL_FLASH_IRQHandler+0x58>
#else
  if(__HAL_FLASH_GET_FLAG((FLASH_FLAG_OPERR | FLASH_FLAG_WRPERR | FLASH_FLAG_PGAERR | \
    FLASH_FLAG_PGPERR | FLASH_FLAG_PGSERR)) != RESET)
#endif /* FLASH_SR_RDERR */
  {
    if(pFlash.ProcedureOnGoing == FLASH_PROC_SECTERASE)
 8000d2e:	4b49      	ldr	r3, [pc, #292]	; (8000e54 <HAL_FLASH_IRQHandler+0x13c>)
 8000d30:	781b      	ldrb	r3, [r3, #0]
 8000d32:	b2db      	uxtb	r3, r3
 8000d34:	2b01      	cmp	r3, #1
 8000d36:	d107      	bne.n	8000d48 <HAL_FLASH_IRQHandler+0x30>
    {
      /*return the faulty sector*/
      addresstmp = pFlash.Sector;
 8000d38:	4b46      	ldr	r3, [pc, #280]	; (8000e54 <HAL_FLASH_IRQHandler+0x13c>)
 8000d3a:	68db      	ldr	r3, [r3, #12]
 8000d3c:	607b      	str	r3, [r7, #4]
      pFlash.Sector = 0xFFFFFFFFU;
 8000d3e:	4b45      	ldr	r3, [pc, #276]	; (8000e54 <HAL_FLASH_IRQHandler+0x13c>)
 8000d40:	f04f 32ff 	mov.w	r2, #4294967295
 8000d44:	60da      	str	r2, [r3, #12]
 8000d46:	e00b      	b.n	8000d60 <HAL_FLASH_IRQHandler+0x48>
    }
    else if(pFlash.ProcedureOnGoing == FLASH_PROC_MASSERASE)
 8000d48:	4b42      	ldr	r3, [pc, #264]	; (8000e54 <HAL_FLASH_IRQHandler+0x13c>)
 8000d4a:	781b      	ldrb	r3, [r3, #0]
 8000d4c:	b2db      	uxtb	r3, r3
 8000d4e:	2b02      	cmp	r3, #2
 8000d50:	d103      	bne.n	8000d5a <HAL_FLASH_IRQHandler+0x42>
    {
      /*return the faulty bank*/
      addresstmp = pFlash.Bank;
 8000d52:	4b40      	ldr	r3, [pc, #256]	; (8000e54 <HAL_FLASH_IRQHandler+0x13c>)
 8000d54:	691b      	ldr	r3, [r3, #16]
 8000d56:	607b      	str	r3, [r7, #4]
 8000d58:	e002      	b.n	8000d60 <HAL_FLASH_IRQHandler+0x48>
    }
    else
    {
      /*return the faulty address*/
      addresstmp = pFlash.Address;
 8000d5a:	4b3e      	ldr	r3, [pc, #248]	; (8000e54 <HAL_FLASH_IRQHandler+0x13c>)
 8000d5c:	695b      	ldr	r3, [r3, #20]
 8000d5e:	607b      	str	r3, [r7, #4]
    }
    
    /*Save the Error code*/
    FLASH_SetErrorCode();
 8000d60:	f000 f88e 	bl	8000e80 <FLASH_SetErrorCode>
    
    /* FLASH error interrupt user callback */
    HAL_FLASH_OperationErrorCallback(addresstmp);
 8000d64:	6878      	ldr	r0, [r7, #4]
 8000d66:	f000 f881 	bl	8000e6c <HAL_FLASH_OperationErrorCallback>
    
    /*Stop the procedure ongoing*/
    pFlash.ProcedureOnGoing = FLASH_PROC_NONE;
 8000d6a:	4b3a      	ldr	r3, [pc, #232]	; (8000e54 <HAL_FLASH_IRQHandler+0x13c>)
 8000d6c:	2200      	movs	r2, #0
 8000d6e:	701a      	strb	r2, [r3, #0]
  }
  
  /* Check FLASH End of Operation flag  */
  if(__HAL_FLASH_GET_FLAG(FLASH_FLAG_EOP) != RESET)
 8000d70:	4b37      	ldr	r3, [pc, #220]	; (8000e50 <HAL_FLASH_IRQHandler+0x138>)
 8000d72:	68db      	ldr	r3, [r3, #12]
 8000d74:	f003 0301 	and.w	r3, r3, #1
 8000d78:	2b00      	cmp	r3, #0
 8000d7a:	d04a      	beq.n	8000e12 <HAL_FLASH_IRQHandler+0xfa>
  {
    /* Clear FLASH End of Operation pending bit */
    __HAL_FLASH_CLEAR_FLAG(FLASH_FLAG_EOP);
 8000d7c:	4b34      	ldr	r3, [pc, #208]	; (8000e50 <HAL_FLASH_IRQHandler+0x138>)
 8000d7e:	2201      	movs	r2, #1
 8000d80:	60da      	str	r2, [r3, #12]
    
    if(pFlash.ProcedureOnGoing == FLASH_PROC_SECTERASE)
 8000d82:	4b34      	ldr	r3, [pc, #208]	; (8000e54 <HAL_FLASH_IRQHandler+0x13c>)
 8000d84:	781b      	ldrb	r3, [r3, #0]
 8000d86:	b2db      	uxtb	r3, r3
 8000d88:	2b01      	cmp	r3, #1
 8000d8a:	d12d      	bne.n	8000de8 <HAL_FLASH_IRQHandler+0xd0>
    {
      /*Nb of sector to erased can be decreased*/
      pFlash.NbSectorsToErase--;
 8000d8c:	4b31      	ldr	r3, [pc, #196]	; (8000e54 <HAL_FLASH_IRQHandler+0x13c>)
 8000d8e:	685b      	ldr	r3, [r3, #4]
 8000d90:	3b01      	subs	r3, #1
 8000d92:	4a30      	ldr	r2, [pc, #192]	; (8000e54 <HAL_FLASH_IRQHandler+0x13c>)
 8000d94:	6053      	str	r3, [r2, #4]
      
      /* Check if there are still sectors to erase*/
      if(pFlash.NbSectorsToErase != 0U)
 8000d96:	4b2f      	ldr	r3, [pc, #188]	; (8000e54 <HAL_FLASH_IRQHandler+0x13c>)
 8000d98:	685b      	ldr	r3, [r3, #4]
 8000d9a:	2b00      	cmp	r3, #0
 8000d9c:	d015      	beq.n	8000dca <HAL_FLASH_IRQHandler+0xb2>
      {
        addresstmp = pFlash.Sector;
 8000d9e:	4b2d      	ldr	r3, [pc, #180]	; (8000e54 <HAL_FLASH_IRQHandler+0x13c>)
 8000da0:	68db      	ldr	r3, [r3, #12]
 8000da2:	607b      	str	r3, [r7, #4]
        /*Indicate user which sector has been erased*/
        HAL_FLASH_EndOfOperationCallback(addresstmp);
 8000da4:	6878      	ldr	r0, [r7, #4]
 8000da6:	f000 f857 	bl	8000e58 <HAL_FLASH_EndOfOperationCallback>
        
        /*Increment sector number*/
        pFlash.Sector++;
 8000daa:	4b2a      	ldr	r3, [pc, #168]	; (8000e54 <HAL_FLASH_IRQHandler+0x13c>)
 8000dac:	68db      	ldr	r3, [r3, #12]
 8000dae:	3301      	adds	r3, #1
 8000db0:	4a28      	ldr	r2, [pc, #160]	; (8000e54 <HAL_FLASH_IRQHandler+0x13c>)
 8000db2:	60d3      	str	r3, [r2, #12]
        addresstmp = pFlash.Sector;
 8000db4:	4b27      	ldr	r3, [pc, #156]	; (8000e54 <HAL_FLASH_IRQHandler+0x13c>)
 8000db6:	68db      	ldr	r3, [r3, #12]
 8000db8:	607b      	str	r3, [r7, #4]
        FLASH_Erase_Sector(addresstmp, pFlash.VoltageForErase);
 8000dba:	4b26      	ldr	r3, [pc, #152]	; (8000e54 <HAL_FLASH_IRQHandler+0x13c>)
 8000dbc:	7a1b      	ldrb	r3, [r3, #8]
 8000dbe:	b2db      	uxtb	r3, r3
 8000dc0:	4619      	mov	r1, r3
 8000dc2:	6878      	ldr	r0, [r7, #4]
 8000dc4:	f000 f8c2 	bl	8000f4c <FLASH_Erase_Sector>
 8000dc8:	e023      	b.n	8000e12 <HAL_FLASH_IRQHandler+0xfa>
      }
      else
      {
        /*No more sectors to Erase, user callback can be called.*/
        /*Reset Sector and stop Erase sectors procedure*/
        pFlash.Sector = addresstmp = 0xFFFFFFFFU;
 8000dca:	f04f 33ff 	mov.w	r3, #4294967295
 8000dce:	607b      	str	r3, [r7, #4]
 8000dd0:	4a20      	ldr	r2, [pc, #128]	; (8000e54 <HAL_FLASH_IRQHandler+0x13c>)
 8000dd2:	687b      	ldr	r3, [r7, #4]
 8000dd4:	60d3      	str	r3, [r2, #12]
        pFlash.ProcedureOnGoing = FLASH_PROC_NONE;
 8000dd6:	4b1f      	ldr	r3, [pc, #124]	; (8000e54 <HAL_FLASH_IRQHandler+0x13c>)
 8000dd8:	2200      	movs	r2, #0
 8000dda:	701a      	strb	r2, [r3, #0]
        
        /* Flush the caches to be sure of the data consistency */
        FLASH_FlushCaches() ;
 8000ddc:	f000 f8fe 	bl	8000fdc <FLASH_FlushCaches>
                
        /* FLASH EOP interrupt user callback */
        HAL_FLASH_EndOfOperationCallback(addresstmp);
 8000de0:	6878      	ldr	r0, [r7, #4]
 8000de2:	f000 f839 	bl	8000e58 <HAL_FLASH_EndOfOperationCallback>
 8000de6:	e014      	b.n	8000e12 <HAL_FLASH_IRQHandler+0xfa>
      }
    }
    else 
    {
      if(pFlash.ProcedureOnGoing == FLASH_PROC_MASSERASE) 
 8000de8:	4b1a      	ldr	r3, [pc, #104]	; (8000e54 <HAL_FLASH_IRQHandler+0x13c>)
 8000dea:	781b      	ldrb	r3, [r3, #0]
 8000dec:	b2db      	uxtb	r3, r3
 8000dee:	2b02      	cmp	r3, #2
 8000df0:	d107      	bne.n	8000e02 <HAL_FLASH_IRQHandler+0xea>
      {
        /* MassErase ended. Return the selected bank */
        /* Flush the caches to be sure of the data consistency */
        FLASH_FlushCaches() ;
 8000df2:	f000 f8f3 	bl	8000fdc <FLASH_FlushCaches>

        /* FLASH EOP interrupt user callback */
        HAL_FLASH_EndOfOperationCallback(pFlash.Bank);
 8000df6:	4b17      	ldr	r3, [pc, #92]	; (8000e54 <HAL_FLASH_IRQHandler+0x13c>)
 8000df8:	691b      	ldr	r3, [r3, #16]
 8000dfa:	4618      	mov	r0, r3
 8000dfc:	f000 f82c 	bl	8000e58 <HAL_FLASH_EndOfOperationCallback>
 8000e00:	e004      	b.n	8000e0c <HAL_FLASH_IRQHandler+0xf4>
      }
      else
      {
        /*Program ended. Return the selected address*/
        /* FLASH EOP interrupt user callback */
        HAL_FLASH_EndOfOperationCallback(pFlash.Address);
 8000e02:	4b14      	ldr	r3, [pc, #80]	; (8000e54 <HAL_FLASH_IRQHandler+0x13c>)
 8000e04:	695b      	ldr	r3, [r3, #20]
 8000e06:	4618      	mov	r0, r3
 8000e08:	f000 f826 	bl	8000e58 <HAL_FLASH_EndOfOperationCallback>
      }
      pFlash.ProcedureOnGoing = FLASH_PROC_NONE;
 8000e0c:	4b11      	ldr	r3, [pc, #68]	; (8000e54 <HAL_FLASH_IRQHandler+0x13c>)
 8000e0e:	2200      	movs	r2, #0
 8000e10:	701a      	strb	r2, [r3, #0]
    }
  }
  
  if(pFlash.ProcedureOnGoing == FLASH_PROC_NONE)
 8000e12:	4b10      	ldr	r3, [pc, #64]	; (8000e54 <HAL_FLASH_IRQHandler+0x13c>)
 8000e14:	781b      	ldrb	r3, [r3, #0]
 8000e16:	b2db      	uxtb	r3, r3
 8000e18:	2b00      	cmp	r3, #0
 8000e1a:	d114      	bne.n	8000e46 <HAL_FLASH_IRQHandler+0x12e>
  {
    /* Operation is completed, disable the PG, SER, SNB and MER Bits */
    CLEAR_BIT(FLASH->CR, (FLASH_CR_PG | FLASH_CR_SER | FLASH_CR_SNB | FLASH_MER_BIT));
 8000e1c:	4b0c      	ldr	r3, [pc, #48]	; (8000e50 <HAL_FLASH_IRQHandler+0x138>)
 8000e1e:	691b      	ldr	r3, [r3, #16]
 8000e20:	4a0b      	ldr	r2, [pc, #44]	; (8000e50 <HAL_FLASH_IRQHandler+0x138>)
 8000e22:	f023 03ff 	bic.w	r3, r3, #255	; 0xff
 8000e26:	6113      	str	r3, [r2, #16]

    /* Disable End of FLASH Operation interrupt */
    __HAL_FLASH_DISABLE_IT(FLASH_IT_EOP);
 8000e28:	4b09      	ldr	r3, [pc, #36]	; (8000e50 <HAL_FLASH_IRQHandler+0x138>)
 8000e2a:	691b      	ldr	r3, [r3, #16]
 8000e2c:	4a08      	ldr	r2, [pc, #32]	; (8000e50 <HAL_FLASH_IRQHandler+0x138>)
 8000e2e:	f023 7380 	bic.w	r3, r3, #16777216	; 0x1000000
 8000e32:	6113      	str	r3, [r2, #16]
    
    /* Disable Error source interrupt */
    __HAL_FLASH_DISABLE_IT(FLASH_IT_ERR);
 8000e34:	4b06      	ldr	r3, [pc, #24]	; (8000e50 <HAL_FLASH_IRQHandler+0x138>)
 8000e36:	691b      	ldr	r3, [r3, #16]
 8000e38:	4a05      	ldr	r2, [pc, #20]	; (8000e50 <HAL_FLASH_IRQHandler+0x138>)
 8000e3a:	f023 7300 	bic.w	r3, r3, #33554432	; 0x2000000
 8000e3e:	6113      	str	r3, [r2, #16]
    
    /* Process Unlocked */
    __HAL_UNLOCK(&pFlash);
 8000e40:	4b04      	ldr	r3, [pc, #16]	; (8000e54 <HAL_FLASH_IRQHandler+0x13c>)
 8000e42:	2200      	movs	r2, #0
 8000e44:	761a      	strb	r2, [r3, #24]
  }
}
 8000e46:	bf00      	nop
 8000e48:	3708      	adds	r7, #8
 8000e4a:	46bd      	mov	sp, r7
 8000e4c:	bd80      	pop	{r7, pc}
 8000e4e:	bf00      	nop
 8000e50:	40023c00 	.word	0x40023c00
 8000e54:	200049c4 	.word	0x200049c4

08000e58 <HAL_FLASH_EndOfOperationCallback>:
  *                    (if 0xFFFFFFFFU, it means that all the selected sectors have been erased)
  *                  Program: Address which was selected for data program
  * @retval None
  */
__weak void HAL_FLASH_EndOfOperationCallback(uint32_t ReturnValue)
{
 8000e58:	b480      	push	{r7}
 8000e5a:	b083      	sub	sp, #12
 8000e5c:	af00      	add	r7, sp, #0
 8000e5e:	6078      	str	r0, [r7, #4]
  /* Prevent unused argument(s) compilation warning */
  UNUSED(ReturnValue);
  /* NOTE : This function Should not be modified, when the callback is needed,
            the HAL_FLASH_EndOfOperationCallback could be implemented in the user file
   */ 
}
 8000e60:	bf00      	nop
 8000e62:	370c      	adds	r7, #12
 8000e64:	46bd      	mov	sp, r7
 8000e66:	f85d 7b04 	ldr.w	r7, [sp], #4
 8000e6a:	4770      	bx	lr

08000e6c <HAL_FLASH_OperationErrorCallback>:
  *                 Sectors Erase: Sector number which returned an error
  *                 Program: Address which was selected for data program
  * @retval None
  */
__weak void HAL_FLASH_OperationErrorCallback(uint32_t ReturnValue)
{
 8000e6c:	b480      	push	{r7}
 8000e6e:	b083      	sub	sp, #12
 8000e70:	af00      	add	r7, sp, #0
 8000e72:	6078      	str	r0, [r7, #4]
  /* Prevent unused argument(s) compilation warning */
  UNUSED(ReturnValue);
  /* NOTE : This function Should not be modified, when the callback is needed,
            the HAL_FLASH_OperationErrorCallback could be implemented in the user file
   */ 
}
 8000e74:	bf00      	nop
 8000e76:	370c      	adds	r7, #12
 8000e78:	46bd      	mov	sp, r7
 8000e7a:	f85d 7b04 	ldr.w	r7, [sp], #4
 8000e7e:	4770      	bx	lr

08000e80 <FLASH_SetErrorCode>:
/**
  * @brief  Set the specific FLASH error flag.
  * @retval None
  */
static void FLASH_SetErrorCode(void)
{ 
 8000e80:	b480      	push	{r7}
 8000e82:	af00      	add	r7, sp, #0
  if(__HAL_FLASH_GET_FLAG(FLASH_FLAG_WRPERR) != RESET)
 8000e84:	4b2f      	ldr	r3, [pc, #188]	; (8000f44 <FLASH_SetErrorCode+0xc4>)
 8000e86:	68db      	ldr	r3, [r3, #12]
 8000e88:	f003 0310 	and.w	r3, r3, #16
 8000e8c:	2b00      	cmp	r3, #0
 8000e8e:	d008      	beq.n	8000ea2 <FLASH_SetErrorCode+0x22>
  {
   pFlash.ErrorCode |= HAL_FLASH_ERROR_WRP;
 8000e90:	4b2d      	ldr	r3, [pc, #180]	; (8000f48 <FLASH_SetErrorCode+0xc8>)
 8000e92:	69db      	ldr	r3, [r3, #28]
 8000e94:	f043 0310 	orr.w	r3, r3, #16
 8000e98:	4a2b      	ldr	r2, [pc, #172]	; (8000f48 <FLASH_SetErrorCode+0xc8>)
 8000e9a:	61d3      	str	r3, [r2, #28]
   
   /* Clear FLASH write protection error pending bit */
   __HAL_FLASH_CLEAR_FLAG(FLASH_FLAG_WRPERR);
 8000e9c:	4b29      	ldr	r3, [pc, #164]	; (8000f44 <FLASH_SetErrorCode+0xc4>)
 8000e9e:	2210      	movs	r2, #16
 8000ea0:	60da      	str	r2, [r3, #12]
  }
  
  if(__HAL_FLASH_GET_FLAG(FLASH_FLAG_PGAERR) != RESET)
 8000ea2:	4b28      	ldr	r3, [pc, #160]	; (8000f44 <FLASH_SetErrorCode+0xc4>)
 8000ea4:	68db      	ldr	r3, [r3, #12]
 8000ea6:	f003 0320 	and.w	r3, r3, #32
 8000eaa:	2b00      	cmp	r3, #0
 8000eac:	d008      	beq.n	8000ec0 <FLASH_SetErrorCode+0x40>
  {
   pFlash.ErrorCode |= HAL_FLASH_ERROR_PGA;
 8000eae:	4b26      	ldr	r3, [pc, #152]	; (8000f48 <FLASH_SetErrorCode+0xc8>)
 8000eb0:	69db      	ldr	r3, [r3, #28]
 8000eb2:	f043 0308 	orr.w	r3, r3, #8
 8000eb6:	4a24      	ldr	r2, [pc, #144]	; (8000f48 <FLASH_SetErrorCode+0xc8>)
 8000eb8:	61d3      	str	r3, [r2, #28]
   
   /* Clear FLASH Programming alignment error pending bit */
   __HAL_FLASH_CLEAR_FLAG(FLASH_FLAG_PGAERR);
 8000eba:	4b22      	ldr	r3, [pc, #136]	; (8000f44 <FLASH_SetErrorCode+0xc4>)
 8000ebc:	2220      	movs	r2, #32
 8000ebe:	60da      	str	r2, [r3, #12]
  }
  
  if(__HAL_FLASH_GET_FLAG(FLASH_FLAG_PGPERR) != RESET)
 8000ec0:	4b20      	ldr	r3, [pc, #128]	; (8000f44 <FLASH_SetErrorCode+0xc4>)
 8000ec2:	68db      	ldr	r3, [r3, #12]
 8000ec4:	f003 0340 	and.w	r3, r3, #64	; 0x40
 8000ec8:	2b00      	cmp	r3, #0
 8000eca:	d008      	beq.n	8000ede <FLASH_SetErrorCode+0x5e>
  {
    pFlash.ErrorCode |= HAL_FLASH_ERROR_PGP;
 8000ecc:	4b1e      	ldr	r3, [pc, #120]	; (8000f48 <FLASH_SetErrorCode+0xc8>)
 8000ece:	69db      	ldr	r3, [r3, #28]
 8000ed0:	f043 0304 	orr.w	r3, r3, #4
 8000ed4:	4a1c      	ldr	r2, [pc, #112]	; (8000f48 <FLASH_SetErrorCode+0xc8>)
 8000ed6:	61d3      	str	r3, [r2, #28]
    
    /* Clear FLASH Programming parallelism error pending bit */
    __HAL_FLASH_CLEAR_FLAG(FLASH_FLAG_PGPERR);
 8000ed8:	4b1a      	ldr	r3, [pc, #104]	; (8000f44 <FLASH_SetErrorCode+0xc4>)
 8000eda:	2240      	movs	r2, #64	; 0x40
 8000edc:	60da      	str	r2, [r3, #12]
  }
  
  if(__HAL_FLASH_GET_FLAG(FLASH_FLAG_PGSERR) != RESET)
 8000ede:	4b19      	ldr	r3, [pc, #100]	; (8000f44 <FLASH_SetErrorCode+0xc4>)
 8000ee0:	68db      	ldr	r3, [r3, #12]
 8000ee2:	f003 0380 	and.w	r3, r3, #128	; 0x80
 8000ee6:	2b00      	cmp	r3, #0
 8000ee8:	d008      	beq.n	8000efc <FLASH_SetErrorCode+0x7c>
  {
    pFlash.ErrorCode |= HAL_FLASH_ERROR_PGS;
 8000eea:	4b17      	ldr	r3, [pc, #92]	; (8000f48 <FLASH_SetErrorCode+0xc8>)
 8000eec:	69db      	ldr	r3, [r3, #28]
 8000eee:	f043 0302 	orr.w	r3, r3, #2
 8000ef2:	4a15      	ldr	r2, [pc, #84]	; (8000f48 <FLASH_SetErrorCode+0xc8>)
 8000ef4:	61d3      	str	r3, [r2, #28]
    
    /* Clear FLASH Programming sequence error pending bit */
    __HAL_FLASH_CLEAR_FLAG(FLASH_FLAG_PGSERR);
 8000ef6:	4b13      	ldr	r3, [pc, #76]	; (8000f44 <FLASH_SetErrorCode+0xc4>)
 8000ef8:	2280      	movs	r2, #128	; 0x80
 8000efa:	60da      	str	r2, [r3, #12]
  }
#if defined(FLASH_SR_RDERR) 
  if(__HAL_FLASH_GET_FLAG(FLASH_FLAG_RDERR) != RESET)
 8000efc:	4b11      	ldr	r3, [pc, #68]	; (8000f44 <FLASH_SetErrorCode+0xc4>)
 8000efe:	68db      	ldr	r3, [r3, #12]
 8000f00:	f403 7380 	and.w	r3, r3, #256	; 0x100
 8000f04:	2b00      	cmp	r3, #0
 8000f06:	d009      	beq.n	8000f1c <FLASH_SetErrorCode+0x9c>
  {
    pFlash.ErrorCode |= HAL_FLASH_ERROR_RD;
 8000f08:	4b0f      	ldr	r3, [pc, #60]	; (8000f48 <FLASH_SetErrorCode+0xc8>)
 8000f0a:	69db      	ldr	r3, [r3, #28]
 8000f0c:	f043 0301 	orr.w	r3, r3, #1
 8000f10:	4a0d      	ldr	r2, [pc, #52]	; (8000f48 <FLASH_SetErrorCode+0xc8>)
 8000f12:	61d3      	str	r3, [r2, #28]
    
    /* Clear FLASH Proprietary readout protection error pending bit */
    __HAL_FLASH_CLEAR_FLAG(FLASH_FLAG_RDERR);
 8000f14:	4b0b      	ldr	r3, [pc, #44]	; (8000f44 <FLASH_SetErrorCode+0xc4>)
 8000f16:	f44f 7280 	mov.w	r2, #256	; 0x100
 8000f1a:	60da      	str	r2, [r3, #12]
  }
#endif /* FLASH_SR_RDERR */  
  if(__HAL_FLASH_GET_FLAG(FLASH_FLAG_OPERR) != RESET)
 8000f1c:	4b09      	ldr	r3, [pc, #36]	; (8000f44 <FLASH_SetErrorCode+0xc4>)
 8000f1e:	68db      	ldr	r3, [r3, #12]
 8000f20:	f003 0302 	and.w	r3, r3, #2
 8000f24:	2b00      	cmp	r3, #0
 8000f26:	d008      	beq.n	8000f3a <FLASH_SetErrorCode+0xba>
  {
    pFlash.ErrorCode |= HAL_FLASH_ERROR_OPERATION;
 8000f28:	4b07      	ldr	r3, [pc, #28]	; (8000f48 <FLASH_SetErrorCode+0xc8>)
 8000f2a:	69db      	ldr	r3, [r3, #28]
 8000f2c:	f043 0320 	orr.w	r3, r3, #32
 8000f30:	4a05      	ldr	r2, [pc, #20]	; (8000f48 <FLASH_SetErrorCode+0xc8>)
 8000f32:	61d3      	str	r3, [r2, #28]
    
    /* Clear FLASH Operation error pending bit */
    __HAL_FLASH_CLEAR_FLAG(FLASH_FLAG_OPERR);
 8000f34:	4b03      	ldr	r3, [pc, #12]	; (8000f44 <FLASH_SetErrorCode+0xc4>)
 8000f36:	2202      	movs	r2, #2
 8000f38:	60da      	str	r2, [r3, #12]
  }
}
 8000f3a:	bf00      	nop
 8000f3c:	46bd      	mov	sp, r7
 8000f3e:	f85d 7b04 	ldr.w	r7, [sp], #4
 8000f42:	4770      	bx	lr
 8000f44:	40023c00 	.word	0x40023c00
 8000f48:	200049c4 	.word	0x200049c4

08000f4c <FLASH_Erase_Sector>:
  *                                  the operation will be done by double word (64-bit)
  * 
  * @retval None
  */
void FLASH_Erase_Sector(uint32_t Sector, uint8_t VoltageRange)
{
 8000f4c:	b480      	push	{r7}
 8000f4e:	b085      	sub	sp, #20
 8000f50:	af00      	add	r7, sp, #0
 8000f52:	6078      	str	r0, [r7, #4]
 8000f54:	460b      	mov	r3, r1
 8000f56:	70fb      	strb	r3, [r7, #3]
  uint32_t tmp_psize = 0U;
 8000f58:	2300      	movs	r3, #0
 8000f5a:	60fb      	str	r3, [r7, #12]

  /* Check the parameters */
  assert_param(IS_FLASH_SECTOR(Sector));
  assert_param(IS_VOLTAGERANGE(VoltageRange));
  
  if(VoltageRange == FLASH_VOLTAGE_RANGE_1)
 8000f5c:	78fb      	ldrb	r3, [r7, #3]
 8000f5e:	2b00      	cmp	r3, #0
 8000f60:	d102      	bne.n	8000f68 <FLASH_Erase_Sector+0x1c>
  {
     tmp_psize = FLASH_PSIZE_BYTE;
 8000f62:	2300      	movs	r3, #0
 8000f64:	60fb      	str	r3, [r7, #12]
 8000f66:	e010      	b.n	8000f8a <FLASH_Erase_Sector+0x3e>
  }
  else if(VoltageRange == FLASH_VOLTAGE_RANGE_2)
 8000f68:	78fb      	ldrb	r3, [r7, #3]
 8000f6a:	2b01      	cmp	r3, #1
 8000f6c:	d103      	bne.n	8000f76 <FLASH_Erase_Sector+0x2a>
  {
    tmp_psize = FLASH_PSIZE_HALF_WORD;
 8000f6e:	f44f 7380 	mov.w	r3, #256	; 0x100
 8000f72:	60fb      	str	r3, [r7, #12]
 8000f74:	e009      	b.n	8000f8a <FLASH_Erase_Sector+0x3e>
  }
  else if(VoltageRange == FLASH_VOLTAGE_RANGE_3)
 8000f76:	78fb      	ldrb	r3, [r7, #3]
 8000f78:	2b02      	cmp	r3, #2
 8000f7a:	d103      	bne.n	8000f84 <FLASH_Erase_Sector+0x38>
  {
    tmp_psize = FLASH_PSIZE_WORD;
 8000f7c:	f44f 7300 	mov.w	r3, #512	; 0x200
 8000f80:	60fb      	str	r3, [r7, #12]
 8000f82:	e002      	b.n	8000f8a <FLASH_Erase_Sector+0x3e>
  }
  else
  {
    tmp_psize = FLASH_PSIZE_DOUBLE_WORD;
 8000f84:	f44f 7340 	mov.w	r3, #768	; 0x300
 8000f88:	60fb      	str	r3, [r7, #12]
  }

  /* If the previous operation is completed, proceed to erase the sector */
  CLEAR_BIT(FLASH->CR, FLASH_CR_PSIZE);
 8000f8a:	4b13      	ldr	r3, [pc, #76]	; (8000fd8 <FLASH_Erase_Sector+0x8c>)
 8000f8c:	691b      	ldr	r3, [r3, #16]
 8000f8e:	4a12      	ldr	r2, [pc, #72]	; (8000fd8 <FLASH_Erase_Sector+0x8c>)
 8000f90:	f423 7340 	bic.w	r3, r3, #768	; 0x300
 8000f94:	6113      	str	r3, [r2, #16]
  FLASH->CR |= tmp_psize;
 8000f96:	4b10      	ldr	r3, [pc, #64]	; (8000fd8 <FLASH_Erase_Sector+0x8c>)
 8000f98:	691a      	ldr	r2, [r3, #16]
 8000f9a:	490f      	ldr	r1, [pc, #60]	; (8000fd8 <FLASH_Erase_Sector+0x8c>)
 8000f9c:	68fb      	ldr	r3, [r7, #12]
 8000f9e:	4313      	orrs	r3, r2
 8000fa0:	610b      	str	r3, [r1, #16]
  CLEAR_BIT(FLASH->CR, FLASH_CR_SNB);
 8000fa2:	4b0d      	ldr	r3, [pc, #52]	; (8000fd8 <FLASH_Erase_Sector+0x8c>)
 8000fa4:	691b      	ldr	r3, [r3, #16]
 8000fa6:	4a0c      	ldr	r2, [pc, #48]	; (8000fd8 <FLASH_Erase_Sector+0x8c>)
 8000fa8:	f023 03f8 	bic.w	r3, r3, #248	; 0xf8
 8000fac:	6113      	str	r3, [r2, #16]
  FLASH->CR |= FLASH_CR_SER | (Sector << FLASH_CR_SNB_Pos);
 8000fae:	4b0a      	ldr	r3, [pc, #40]	; (8000fd8 <FLASH_Erase_Sector+0x8c>)
 8000fb0:	691a      	ldr	r2, [r3, #16]
 8000fb2:	687b      	ldr	r3, [r7, #4]
 8000fb4:	00db      	lsls	r3, r3, #3
 8000fb6:	4313      	orrs	r3, r2
 8000fb8:	4a07      	ldr	r2, [pc, #28]	; (8000fd8 <FLASH_Erase_Sector+0x8c>)
 8000fba:	f043 0302 	orr.w	r3, r3, #2
 8000fbe:	6113      	str	r3, [r2, #16]
  FLASH->CR |= FLASH_CR_STRT;
 8000fc0:	4b05      	ldr	r3, [pc, #20]	; (8000fd8 <FLASH_Erase_Sector+0x8c>)
 8000fc2:	691b      	ldr	r3, [r3, #16]
 8000fc4:	4a04      	ldr	r2, [pc, #16]	; (8000fd8 <FLASH_Erase_Sector+0x8c>)
 8000fc6:	f443 3380 	orr.w	r3, r3, #65536	; 0x10000
 8000fca:	6113      	str	r3, [r2, #16]
}
 8000fcc:	bf00      	nop
 8000fce:	3714      	adds	r7, #20
 8000fd0:	46bd      	mov	sp, r7
 8000fd2:	f85d 7b04 	ldr.w	r7, [sp], #4
 8000fd6:	4770      	bx	lr
 8000fd8:	40023c00 	.word	0x40023c00

08000fdc <FLASH_FlushCaches>:
/**
  * @brief  Flush the instruction and data caches
  * @retval None
  */
void FLASH_FlushCaches(void)
{
 8000fdc:	b480      	push	{r7}
 8000fde:	af00      	add	r7, sp, #0
  /* Flush instruction cache  */
  if(READ_BIT(FLASH->ACR, FLASH_ACR_ICEN)!= RESET)
 8000fe0:	4b20      	ldr	r3, [pc, #128]	; (8001064 <FLASH_FlushCaches+0x88>)
 8000fe2:	681b      	ldr	r3, [r3, #0]
 8000fe4:	f403 7300 	and.w	r3, r3, #512	; 0x200
 8000fe8:	2b00      	cmp	r3, #0
 8000fea:	d017      	beq.n	800101c <FLASH_FlushCaches+0x40>
  {
    /* Disable instruction cache  */
    __HAL_FLASH_INSTRUCTION_CACHE_DISABLE();
 8000fec:	4b1d      	ldr	r3, [pc, #116]	; (8001064 <FLASH_FlushCaches+0x88>)
 8000fee:	681b      	ldr	r3, [r3, #0]
 8000ff0:	4a1c      	ldr	r2, [pc, #112]	; (8001064 <FLASH_FlushCaches+0x88>)
 8000ff2:	f423 7300 	bic.w	r3, r3, #512	; 0x200
 8000ff6:	6013      	str	r3, [r2, #0]
    /* Reset instruction cache */
    __HAL_FLASH_INSTRUCTION_CACHE_RESET();
 8000ff8:	4b1a      	ldr	r3, [pc, #104]	; (8001064 <FLASH_FlushCaches+0x88>)
 8000ffa:	681b      	ldr	r3, [r3, #0]
 8000ffc:	4a19      	ldr	r2, [pc, #100]	; (8001064 <FLASH_FlushCaches+0x88>)
 8000ffe:	f443 6300 	orr.w	r3, r3, #2048	; 0x800
 8001002:	6013      	str	r3, [r2, #0]
 8001004:	4b17      	ldr	r3, [pc, #92]	; (8001064 <FLASH_FlushCaches+0x88>)
 8001006:	681b      	ldr	r3, [r3, #0]
 8001008:	4a16      	ldr	r2, [pc, #88]	; (8001064 <FLASH_FlushCaches+0x88>)
 800100a:	f423 6300 	bic.w	r3, r3, #2048	; 0x800
 800100e:	6013      	str	r3, [r2, #0]
    /* Enable instruction cache */
    __HAL_FLASH_INSTRUCTION_CACHE_ENABLE();
 8001010:	4b14      	ldr	r3, [pc, #80]	; (8001064 <FLASH_FlushCaches+0x88>)
 8001012:	681b      	ldr	r3, [r3, #0]
 8001014:	4a13      	ldr	r2, [pc, #76]	; (8001064 <FLASH_FlushCaches+0x88>)
 8001016:	f443 7300 	orr.w	r3, r3, #512	; 0x200
 800101a:	6013      	str	r3, [r2, #0]
  }
  
  /* Flush data cache */
  if(READ_BIT(FLASH->ACR, FLASH_ACR_DCEN) != RESET)
 800101c:	4b11      	ldr	r3, [pc, #68]	; (8001064 <FLASH_FlushCaches+0x88>)
 800101e:	681b      	ldr	r3, [r3, #0]
 8001020:	f403 6380 	and.w	r3, r3, #1024	; 0x400
 8001024:	2b00      	cmp	r3, #0
 8001026:	d017      	beq.n	8001058 <FLASH_FlushCaches+0x7c>
  {
    /* Disable data cache  */
    __HAL_FLASH_DATA_CACHE_DISABLE();
 8001028:	4b0e      	ldr	r3, [pc, #56]	; (8001064 <FLASH_FlushCaches+0x88>)
 800102a:	681b      	ldr	r3, [r3, #0]
 800102c:	4a0d      	ldr	r2, [pc, #52]	; (8001064 <FLASH_FlushCaches+0x88>)
 800102e:	f423 6380 	bic.w	r3, r3, #1024	; 0x400
 8001032:	6013      	str	r3, [r2, #0]
    /* Reset data cache */
    __HAL_FLASH_DATA_CACHE_RESET();
 8001034:	4b0b      	ldr	r3, [pc, #44]	; (8001064 <FLASH_FlushCaches+0x88>)
 8001036:	681b      	ldr	r3, [r3, #0]
 8001038:	4a0a      	ldr	r2, [pc, #40]	; (8001064 <FLASH_FlushCaches+0x88>)
 800103a:	f443 5380 	orr.w	r3, r3, #4096	; 0x1000
 800103e:	6013      	str	r3, [r2, #0]
 8001040:	4b08      	ldr	r3, [pc, #32]	; (8001064 <FLASH_FlushCaches+0x88>)
 8001042:	681b      	ldr	r3, [r3, #0]
 8001044:	4a07      	ldr	r2, [pc, #28]	; (8001064 <FLASH_FlushCaches+0x88>)
 8001046:	f423 5380 	bic.w	r3, r3, #4096	; 0x1000
 800104a:	6013      	str	r3, [r2, #0]
    /* Enable data cache */
    __HAL_FLASH_DATA_CACHE_ENABLE();
 800104c:	4b05      	ldr	r3, [pc, #20]	; (8001064 <FLASH_FlushCaches+0x88>)
 800104e:	681b      	ldr	r3, [r3, #0]
 8001050:	4a04      	ldr	r2, [pc, #16]	; (8001064 <FLASH_FlushCaches+0x88>)
 8001052:	f443 6380 	orr.w	r3, r3, #1024	; 0x400
 8001056:	6013      	str	r3, [r2, #0]
  }
}
 8001058:	bf00      	nop
 800105a:	46bd      	mov	sp, r7
 800105c:	f85d 7b04 	ldr.w	r7, [sp], #4
 8001060:	4770      	bx	lr
 8001062:	bf00      	nop
 8001064:	40023c00 	.word	0x40023c00

08001068 <HAL_GPIO_Init>:
  * @param  GPIO_Init pointer to a GPIO_InitTypeDef structure that contains
  *         the configuration information for the specified GPIO peripheral.
  * @retval None
  */
void HAL_GPIO_Init(GPIO_TypeDef  *GPIOx, GPIO_InitTypeDef *GPIO_Init)
{
 8001068:	b480      	push	{r7}
 800106a:	b089      	sub	sp, #36	; 0x24
 800106c:	af00      	add	r7, sp, #0
 800106e:	6078      	str	r0, [r7, #4]
 8001070:	6039      	str	r1, [r7, #0]
  uint32_t position;
  uint32_t ioposition = 0x00U;
 8001072:	2300      	movs	r3, #0
 8001074:	617b      	str	r3, [r7, #20]
  uint32_t iocurrent = 0x00U;
 8001076:	2300      	movs	r3, #0
 8001078:	613b      	str	r3, [r7, #16]
  uint32_t temp = 0x00U;
 800107a:	2300      	movs	r3, #0
 800107c:	61bb      	str	r3, [r7, #24]
  assert_param(IS_GPIO_PIN(GPIO_Init->Pin));
  assert_param(IS_GPIO_MODE(GPIO_Init->Mode));
  assert_param(IS_GPIO_PULL(GPIO_Init->Pull));

  /* Configure the port pins */
  for(position = 0U; position < GPIO_NUMBER; position++)
 800107e:	2300      	movs	r3, #0
 8001080:	61fb      	str	r3, [r7, #28]
 8001082:	e159      	b.n	8001338 <HAL_GPIO_Init+0x2d0>
  {
    /* Get the IO position */
    ioposition = 0x01U << position;
 8001084:	2201      	movs	r2, #1
 8001086:	69fb      	ldr	r3, [r7, #28]
 8001088:	fa02 f303 	lsl.w	r3, r2, r3
 800108c:	617b      	str	r3, [r7, #20]
    /* Get the current IO position */
    iocurrent = (uint32_t)(GPIO_Init->Pin) & ioposition;
 800108e:	683b      	ldr	r3, [r7, #0]
 8001090:	681b      	ldr	r3, [r3, #0]
 8001092:	697a      	ldr	r2, [r7, #20]
 8001094:	4013      	ands	r3, r2
 8001096:	613b      	str	r3, [r7, #16]

    if(iocurrent == ioposition)
 8001098:	693a      	ldr	r2, [r7, #16]
 800109a:	697b      	ldr	r3, [r7, #20]
 800109c:	429a      	cmp	r2, r3
 800109e:	f040 8148 	bne.w	8001332 <HAL_GPIO_Init+0x2ca>
    {
      /*--------------------- GPIO Mode Configuration ------------------------*/
      /* In case of Output or Alternate function mode selection */
      if((GPIO_Init->Mode == GPIO_MODE_OUTPUT_PP) || (GPIO_Init->Mode == GPIO_MODE_AF_PP) ||
 80010a2:	683b      	ldr	r3, [r7, #0]
 80010a4:	685b      	ldr	r3, [r3, #4]
 80010a6:	2b01      	cmp	r3, #1
 80010a8:	d00b      	beq.n	80010c2 <HAL_GPIO_Init+0x5a>
 80010aa:	683b      	ldr	r3, [r7, #0]
 80010ac:	685b      	ldr	r3, [r3, #4]
 80010ae:	2b02      	cmp	r3, #2
 80010b0:	d007      	beq.n	80010c2 <HAL_GPIO_Init+0x5a>
         (GPIO_Init->Mode == GPIO_MODE_OUTPUT_OD) || (GPIO_Init->Mode == GPIO_MODE_AF_OD))
 80010b2:	683b      	ldr	r3, [r7, #0]
 80010b4:	685b      	ldr	r3, [r3, #4]
      if((GPIO_Init->Mode == GPIO_MODE_OUTPUT_PP) || (GPIO_Init->Mode == GPIO_MODE_AF_PP) ||
 80010b6:	2b11      	cmp	r3, #17
 80010b8:	d003      	beq.n	80010c2 <HAL_GPIO_Init+0x5a>
         (GPIO_Init->Mode == GPIO_MODE_OUTPUT_OD) || (GPIO_Init->Mode == GPIO_MODE_AF_OD))
 80010ba:	683b      	ldr	r3, [r7, #0]
 80010bc:	685b      	ldr	r3, [r3, #4]
 80010be:	2b12      	cmp	r3, #18
 80010c0:	d130      	bne.n	8001124 <HAL_GPIO_Init+0xbc>
      {
        /* Check the Speed parameter */
        assert_param(IS_GPIO_SPEED(GPIO_Init->Speed));
        /* Configure the IO Speed */
        temp = GPIOx->OSPEEDR; 
 80010c2:	687b      	ldr	r3, [r7, #4]
 80010c4:	689b      	ldr	r3, [r3, #8]
 80010c6:	61bb      	str	r3, [r7, #24]
        temp &= ~(GPIO_OSPEEDER_OSPEEDR0 << (position * 2U));
 80010c8:	69fb      	ldr	r3, [r7, #28]
 80010ca:	005b      	lsls	r3, r3, #1
 80010cc:	2203      	movs	r2, #3
 80010ce:	fa02 f303 	lsl.w	r3, r2, r3
 80010d2:	43db      	mvns	r3, r3
 80010d4:	69ba      	ldr	r2, [r7, #24]
 80010d6:	4013      	ands	r3, r2
 80010d8:	61bb      	str	r3, [r7, #24]
        temp |= (GPIO_Init->Speed << (position * 2U));
 80010da:	683b      	ldr	r3, [r7, #0]
 80010dc:	68da      	ldr	r2, [r3, #12]
 80010de:	69fb      	ldr	r3, [r7, #28]
 80010e0:	005b      	lsls	r3, r3, #1
 80010e2:	fa02 f303 	lsl.w	r3, r2, r3
 80010e6:	69ba      	ldr	r2, [r7, #24]
 80010e8:	4313      	orrs	r3, r2
 80010ea:	61bb      	str	r3, [r7, #24]
        GPIOx->OSPEEDR = temp;
 80010ec:	687b      	ldr	r3, [r7, #4]
 80010ee:	69ba      	ldr	r2, [r7, #24]
 80010f0:	609a      	str	r2, [r3, #8]

        /* Configure the IO Output Type */
        temp = GPIOx->OTYPER;
 80010f2:	687b      	ldr	r3, [r7, #4]
 80010f4:	685b      	ldr	r3, [r3, #4]
 80010f6:	61bb      	str	r3, [r7, #24]
        temp &= ~(GPIO_OTYPER_OT_0 << position) ;
 80010f8:	2201      	movs	r2, #1
 80010fa:	69fb      	ldr	r3, [r7, #28]
 80010fc:	fa02 f303 	lsl.w	r3, r2, r3
 8001100:	43db      	mvns	r3, r3
 8001102:	69ba      	ldr	r2, [r7, #24]
 8001104:	4013      	ands	r3, r2
 8001106:	61bb      	str	r3, [r7, #24]
        temp |= (((GPIO_Init->Mode & GPIO_OUTPUT_TYPE) >> 4U) << position);
 8001108:	683b      	ldr	r3, [r7, #0]
 800110a:	685b      	ldr	r3, [r3, #4]
 800110c:	091b      	lsrs	r3, r3, #4
 800110e:	f003 0201 	and.w	r2, r3, #1
 8001112:	69fb      	ldr	r3, [r7, #28]
 8001114:	fa02 f303 	lsl.w	r3, r2, r3
 8001118:	69ba      	ldr	r2, [r7, #24]
 800111a:	4313      	orrs	r3, r2
 800111c:	61bb      	str	r3, [r7, #24]
        GPIOx->OTYPER = temp;
 800111e:	687b      	ldr	r3, [r7, #4]
 8001120:	69ba      	ldr	r2, [r7, #24]
 8001122:	605a      	str	r2, [r3, #4]
       }

      /* Activate the Pull-up or Pull down resistor for the current IO */
      temp = GPIOx->PUPDR;
 8001124:	687b      	ldr	r3, [r7, #4]
 8001126:	68db      	ldr	r3, [r3, #12]
 8001128:	61bb      	str	r3, [r7, #24]
      temp &= ~(GPIO_PUPDR_PUPDR0 << (position * 2U));
 800112a:	69fb      	ldr	r3, [r7, #28]
 800112c:	005b      	lsls	r3, r3, #1
 800112e:	2203      	movs	r2, #3
 8001130:	fa02 f303 	lsl.w	r3, r2, r3
 8001134:	43db      	mvns	r3, r3
 8001136:	69ba      	ldr	r2, [r7, #24]
 8001138:	4013      	ands	r3, r2
 800113a:	61bb      	str	r3, [r7, #24]
      temp |= ((GPIO_Init->Pull) << (position * 2U));
 800113c:	683b      	ldr	r3, [r7, #0]
 800113e:	689a      	ldr	r2, [r3, #8]
 8001140:	69fb      	ldr	r3, [r7, #28]
 8001142:	005b      	lsls	r3, r3, #1
 8001144:	fa02 f303 	lsl.w	r3, r2, r3
 8001148:	69ba      	ldr	r2, [r7, #24]
 800114a:	4313      	orrs	r3, r2
 800114c:	61bb      	str	r3, [r7, #24]
      GPIOx->PUPDR = temp;
 800114e:	687b      	ldr	r3, [r7, #4]
 8001150:	69ba      	ldr	r2, [r7, #24]
 8001152:	60da      	str	r2, [r3, #12]

      /* In case of Alternate function mode selection */
      if((GPIO_Init->Mode == GPIO_MODE_AF_PP) || (GPIO_Init->Mode == GPIO_MODE_AF_OD))
 8001154:	683b      	ldr	r3, [r7, #0]
 8001156:	685b      	ldr	r3, [r3, #4]
 8001158:	2b02      	cmp	r3, #2
 800115a:	d003      	beq.n	8001164 <HAL_GPIO_Init+0xfc>
 800115c:	683b      	ldr	r3, [r7, #0]
 800115e:	685b      	ldr	r3, [r3, #4]
 8001160:	2b12      	cmp	r3, #18
 8001162:	d123      	bne.n	80011ac <HAL_GPIO_Init+0x144>
      {
        /* Check the Alternate function parameter */
        assert_param(IS_GPIO_AF(GPIO_Init->Alternate));
        /* Configure Alternate function mapped with the current IO */
        temp = GPIOx->AFR[position >> 3U];
 8001164:	69fb      	ldr	r3, [r7, #28]
 8001166:	08da      	lsrs	r2, r3, #3
 8001168:	687b      	ldr	r3, [r7, #4]
 800116a:	3208      	adds	r2, #8
 800116c:	f853 3022 	ldr.w	r3, [r3, r2, lsl #2]
 8001170:	61bb      	str	r3, [r7, #24]
        temp &= ~(0xFU << ((uint32_t)(position & 0x07U) * 4U)) ;
 8001172:	69fb      	ldr	r3, [r7, #28]
 8001174:	f003 0307 	and.w	r3, r3, #7
 8001178:	009b      	lsls	r3, r3, #2
 800117a:	220f      	movs	r2, #15
 800117c:	fa02 f303 	lsl.w	r3, r2, r3
 8001180:	43db      	mvns	r3, r3
 8001182:	69ba      	ldr	r2, [r7, #24]
 8001184:	4013      	ands	r3, r2
 8001186:	61bb      	str	r3, [r7, #24]
        temp |= ((uint32_t)(GPIO_Init->Alternate) << (((uint32_t)position & 0x07U) * 4U));
 8001188:	683b      	ldr	r3, [r7, #0]
 800118a:	691a      	ldr	r2, [r3, #16]
 800118c:	69fb      	ldr	r3, [r7, #28]
 800118e:	f003 0307 	and.w	r3, r3, #7
 8001192:	009b      	lsls	r3, r3, #2
 8001194:	fa02 f303 	lsl.w	r3, r2, r3
 8001198:	69ba      	ldr	r2, [r7, #24]
 800119a:	4313      	orrs	r3, r2
 800119c:	61bb      	str	r3, [r7, #24]
        GPIOx->AFR[position >> 3U] = temp;
 800119e:	69fb      	ldr	r3, [r7, #28]
 80011a0:	08da      	lsrs	r2, r3, #3
 80011a2:	687b      	ldr	r3, [r7, #4]
 80011a4:	3208      	adds	r2, #8
 80011a6:	69b9      	ldr	r1, [r7, #24]
 80011a8:	f843 1022 	str.w	r1, [r3, r2, lsl #2]
      }

      /* Configure IO Direction mode (Input, Output, Alternate or Analog) */
      temp = GPIOx->MODER;
 80011ac:	687b      	ldr	r3, [r7, #4]
 80011ae:	681b      	ldr	r3, [r3, #0]
 80011b0:	61bb      	str	r3, [r7, #24]
      temp &= ~(GPIO_MODER_MODER0 << (position * 2U));
 80011b2:	69fb      	ldr	r3, [r7, #28]
 80011b4:	005b      	lsls	r3, r3, #1
 80011b6:	2203      	movs	r2, #3
 80011b8:	fa02 f303 	lsl.w	r3, r2, r3
 80011bc:	43db      	mvns	r3, r3
 80011be:	69ba      	ldr	r2, [r7, #24]
 80011c0:	4013      	ands	r3, r2
 80011c2:	61bb      	str	r3, [r7, #24]
      temp |= ((GPIO_Init->Mode & GPIO_MODE) << (position * 2U));
 80011c4:	683b      	ldr	r3, [r7, #0]
 80011c6:	685b      	ldr	r3, [r3, #4]
 80011c8:	f003 0203 	and.w	r2, r3, #3
 80011cc:	69fb      	ldr	r3, [r7, #28]
 80011ce:	005b      	lsls	r3, r3, #1
 80011d0:	fa02 f303 	lsl.w	r3, r2, r3
 80011d4:	69ba      	ldr	r2, [r7, #24]
 80011d6:	4313      	orrs	r3, r2
 80011d8:	61bb      	str	r3, [r7, #24]
      GPIOx->MODER = temp;
 80011da:	687b      	ldr	r3, [r7, #4]
 80011dc:	69ba      	ldr	r2, [r7, #24]
 80011de:	601a      	str	r2, [r3, #0]

      /*--------------------- EXTI Mode Configuration ------------------------*/
      /* Configure the External Interrupt or event for the current IO */
      if((GPIO_Init->Mode & EXTI_MODE) == EXTI_MODE)
 80011e0:	683b      	ldr	r3, [r7, #0]
 80011e2:	685b      	ldr	r3, [r3, #4]
 80011e4:	f003 5380 	and.w	r3, r3, #268435456	; 0x10000000
 80011e8:	2b00      	cmp	r3, #0
 80011ea:	f000 80a2 	beq.w	8001332 <HAL_GPIO_Init+0x2ca>
      {
        /* Enable SYSCFG Clock */
        __HAL_RCC_SYSCFG_CLK_ENABLE();
 80011ee:	2300      	movs	r3, #0
 80011f0:	60fb      	str	r3, [r7, #12]
 80011f2:	4b56      	ldr	r3, [pc, #344]	; (800134c <HAL_GPIO_Init+0x2e4>)
 80011f4:	6c5b      	ldr	r3, [r3, #68]	; 0x44
 80011f6:	4a55      	ldr	r2, [pc, #340]	; (800134c <HAL_GPIO_Init+0x2e4>)
 80011f8:	f443 4380 	orr.w	r3, r3, #16384	; 0x4000
 80011fc:	6453      	str	r3, [r2, #68]	; 0x44
 80011fe:	4b53      	ldr	r3, [pc, #332]	; (800134c <HAL_GPIO_Init+0x2e4>)
 8001200:	6c5b      	ldr	r3, [r3, #68]	; 0x44
 8001202:	f403 4380 	and.w	r3, r3, #16384	; 0x4000
 8001206:	60fb      	str	r3, [r7, #12]
 8001208:	68fb      	ldr	r3, [r7, #12]

        temp = SYSCFG->EXTICR[position >> 2U];
 800120a:	4a51      	ldr	r2, [pc, #324]	; (8001350 <HAL_GPIO_Init+0x2e8>)
 800120c:	69fb      	ldr	r3, [r7, #28]
 800120e:	089b      	lsrs	r3, r3, #2
 8001210:	3302      	adds	r3, #2
 8001212:	f852 3023 	ldr.w	r3, [r2, r3, lsl #2]
 8001216:	61bb      	str	r3, [r7, #24]
        temp &= ~(0x0FU << (4U * (position & 0x03U)));
 8001218:	69fb      	ldr	r3, [r7, #28]
 800121a:	f003 0303 	and.w	r3, r3, #3
 800121e:	009b      	lsls	r3, r3, #2
 8001220:	220f      	movs	r2, #15
 8001222:	fa02 f303 	lsl.w	r3, r2, r3
 8001226:	43db      	mvns	r3, r3
 8001228:	69ba      	ldr	r2, [r7, #24]
 800122a:	4013      	ands	r3, r2
 800122c:	61bb      	str	r3, [r7, #24]
        temp |= ((uint32_t)(GPIO_GET_INDEX(GPIOx)) << (4U * (position & 0x03U)));
 800122e:	687b      	ldr	r3, [r7, #4]
 8001230:	4a48      	ldr	r2, [pc, #288]	; (8001354 <HAL_GPIO_Init+0x2ec>)
 8001232:	4293      	cmp	r3, r2
 8001234:	d019      	beq.n	800126a <HAL_GPIO_Init+0x202>
 8001236:	687b      	ldr	r3, [r7, #4]
 8001238:	4a47      	ldr	r2, [pc, #284]	; (8001358 <HAL_GPIO_Init+0x2f0>)
 800123a:	4293      	cmp	r3, r2
 800123c:	d013      	beq.n	8001266 <HAL_GPIO_Init+0x1fe>
 800123e:	687b      	ldr	r3, [r7, #4]
 8001240:	4a46      	ldr	r2, [pc, #280]	; (800135c <HAL_GPIO_Init+0x2f4>)
 8001242:	4293      	cmp	r3, r2
 8001244:	d00d      	beq.n	8001262 <HAL_GPIO_Init+0x1fa>
 8001246:	687b      	ldr	r3, [r7, #4]
 8001248:	4a45      	ldr	r2, [pc, #276]	; (8001360 <HAL_GPIO_Init+0x2f8>)
 800124a:	4293      	cmp	r3, r2
 800124c:	d007      	beq.n	800125e <HAL_GPIO_Init+0x1f6>
 800124e:	687b      	ldr	r3, [r7, #4]
 8001250:	4a44      	ldr	r2, [pc, #272]	; (8001364 <HAL_GPIO_Init+0x2fc>)
 8001252:	4293      	cmp	r3, r2
 8001254:	d101      	bne.n	800125a <HAL_GPIO_Init+0x1f2>
 8001256:	2304      	movs	r3, #4
 8001258:	e008      	b.n	800126c <HAL_GPIO_Init+0x204>
 800125a:	2307      	movs	r3, #7
 800125c:	e006      	b.n	800126c <HAL_GPIO_Init+0x204>
 800125e:	2303      	movs	r3, #3
 8001260:	e004      	b.n	800126c <HAL_GPIO_Init+0x204>
 8001262:	2302      	movs	r3, #2
 8001264:	e002      	b.n	800126c <HAL_GPIO_Init+0x204>
 8001266:	2301      	movs	r3, #1
 8001268:	e000      	b.n	800126c <HAL_GPIO_Init+0x204>
 800126a:	2300      	movs	r3, #0
 800126c:	69fa      	ldr	r2, [r7, #28]
 800126e:	f002 0203 	and.w	r2, r2, #3
 8001272:	0092      	lsls	r2, r2, #2
 8001274:	4093      	lsls	r3, r2
 8001276:	69ba      	ldr	r2, [r7, #24]
 8001278:	4313      	orrs	r3, r2
 800127a:	61bb      	str	r3, [r7, #24]
        SYSCFG->EXTICR[position >> 2U] = temp;
 800127c:	4934      	ldr	r1, [pc, #208]	; (8001350 <HAL_GPIO_Init+0x2e8>)
 800127e:	69fb      	ldr	r3, [r7, #28]
 8001280:	089b      	lsrs	r3, r3, #2
 8001282:	3302      	adds	r3, #2
 8001284:	69ba      	ldr	r2, [r7, #24]
 8001286:	f841 2023 	str.w	r2, [r1, r3, lsl #2]

        /* Clear EXTI line configuration */
        temp = EXTI->IMR;
 800128a:	4b37      	ldr	r3, [pc, #220]	; (8001368 <HAL_GPIO_Init+0x300>)
 800128c:	681b      	ldr	r3, [r3, #0]
 800128e:	61bb      	str	r3, [r7, #24]
        temp &= ~((uint32_t)iocurrent);
 8001290:	693b      	ldr	r3, [r7, #16]
 8001292:	43db      	mvns	r3, r3
 8001294:	69ba      	ldr	r2, [r7, #24]
 8001296:	4013      	ands	r3, r2
 8001298:	61bb      	str	r3, [r7, #24]
        if((GPIO_Init->Mode & GPIO_MODE_IT) == GPIO_MODE_IT)
 800129a:	683b      	ldr	r3, [r7, #0]
 800129c:	685b      	ldr	r3, [r3, #4]
 800129e:	f403 3380 	and.w	r3, r3, #65536	; 0x10000
 80012a2:	2b00      	cmp	r3, #0
 80012a4:	d003      	beq.n	80012ae <HAL_GPIO_Init+0x246>
        {
          temp |= iocurrent;
 80012a6:	69ba      	ldr	r2, [r7, #24]
 80012a8:	693b      	ldr	r3, [r7, #16]
 80012aa:	4313      	orrs	r3, r2
 80012ac:	61bb      	str	r3, [r7, #24]
        }
        EXTI->IMR = temp;
 80012ae:	4a2e      	ldr	r2, [pc, #184]	; (8001368 <HAL_GPIO_Init+0x300>)
 80012b0:	69bb      	ldr	r3, [r7, #24]
 80012b2:	6013      	str	r3, [r2, #0]

        temp = EXTI->EMR;
 80012b4:	4b2c      	ldr	r3, [pc, #176]	; (8001368 <HAL_GPIO_Init+0x300>)
 80012b6:	685b      	ldr	r3, [r3, #4]
 80012b8:	61bb      	str	r3, [r7, #24]
        temp &= ~((uint32_t)iocurrent);
 80012ba:	693b      	ldr	r3, [r7, #16]
 80012bc:	43db      	mvns	r3, r3
 80012be:	69ba      	ldr	r2, [r7, #24]
 80012c0:	4013      	ands	r3, r2
 80012c2:	61bb      	str	r3, [r7, #24]
        if((GPIO_Init->Mode & GPIO_MODE_EVT) == GPIO_MODE_EVT)
 80012c4:	683b      	ldr	r3, [r7, #0]
 80012c6:	685b      	ldr	r3, [r3, #4]
 80012c8:	f403 3300 	and.w	r3, r3, #131072	; 0x20000
 80012cc:	2b00      	cmp	r3, #0
 80012ce:	d003      	beq.n	80012d8 <HAL_GPIO_Init+0x270>
        {
          temp |= iocurrent;
 80012d0:	69ba      	ldr	r2, [r7, #24]
 80012d2:	693b      	ldr	r3, [r7, #16]
 80012d4:	4313      	orrs	r3, r2
 80012d6:	61bb      	str	r3, [r7, #24]
        }
        EXTI->EMR = temp;
 80012d8:	4a23      	ldr	r2, [pc, #140]	; (8001368 <HAL_GPIO_Init+0x300>)
 80012da:	69bb      	ldr	r3, [r7, #24]
 80012dc:	6053      	str	r3, [r2, #4]

        /* Clear Rising Falling edge configuration */
        temp = EXTI->RTSR;
 80012de:	4b22      	ldr	r3, [pc, #136]	; (8001368 <HAL_GPIO_Init+0x300>)
 80012e0:	689b      	ldr	r3, [r3, #8]
 80012e2:	61bb      	str	r3, [r7, #24]
        temp &= ~((uint32_t)iocurrent);
 80012e4:	693b      	ldr	r3, [r7, #16]
 80012e6:	43db      	mvns	r3, r3
 80012e8:	69ba      	ldr	r2, [r7, #24]
 80012ea:	4013      	ands	r3, r2
 80012ec:	61bb      	str	r3, [r7, #24]
        if((GPIO_Init->Mode & RISING_EDGE) == RISING_EDGE)
 80012ee:	683b      	ldr	r3, [r7, #0]
 80012f0:	685b      	ldr	r3, [r3, #4]
 80012f2:	f403 1380 	and.w	r3, r3, #1048576	; 0x100000
 80012f6:	2b00      	cmp	r3, #0
 80012f8:	d003      	beq.n	8001302 <HAL_GPIO_Init+0x29a>
        {
          temp |= iocurrent;
 80012fa:	69ba      	ldr	r2, [r7, #24]
 80012fc:	693b      	ldr	r3, [r7, #16]
 80012fe:	4313      	orrs	r3, r2
 8001300:	61bb      	str	r3, [r7, #24]
        }
        EXTI->RTSR = temp;
 8001302:	4a19      	ldr	r2, [pc, #100]	; (8001368 <HAL_GPIO_Init+0x300>)
 8001304:	69bb      	ldr	r3, [r7, #24]
 8001306:	6093      	str	r3, [r2, #8]

        temp = EXTI->FTSR;
 8001308:	4b17      	ldr	r3, [pc, #92]	; (8001368 <HAL_GPIO_Init+0x300>)
 800130a:	68db      	ldr	r3, [r3, #12]
 800130c:	61bb      	str	r3, [r7, #24]
        temp &= ~((uint32_t)iocurrent);
 800130e:	693b      	ldr	r3, [r7, #16]
 8001310:	43db      	mvns	r3, r3
 8001312:	69ba      	ldr	r2, [r7, #24]
 8001314:	4013      	ands	r3, r2
 8001316:	61bb      	str	r3, [r7, #24]
        if((GPIO_Init->Mode & FALLING_EDGE) == FALLING_EDGE)
 8001318:	683b      	ldr	r3, [r7, #0]
 800131a:	685b      	ldr	r3, [r3, #4]
 800131c:	f403 1300 	and.w	r3, r3, #2097152	; 0x200000
 8001320:	2b00      	cmp	r3, #0
 8001322:	d003      	beq.n	800132c <HAL_GPIO_Init+0x2c4>
        {
          temp |= iocurrent;
 8001324:	69ba      	ldr	r2, [r7, #24]
 8001326:	693b      	ldr	r3, [r7, #16]
 8001328:	4313      	orrs	r3, r2
 800132a:	61bb      	str	r3, [r7, #24]
        }
        EXTI->FTSR = temp;
 800132c:	4a0e      	ldr	r2, [pc, #56]	; (8001368 <HAL_GPIO_Init+0x300>)
 800132e:	69bb      	ldr	r3, [r7, #24]
 8001330:	60d3      	str	r3, [r2, #12]
  for(position = 0U; position < GPIO_NUMBER; position++)
 8001332:	69fb      	ldr	r3, [r7, #28]
 8001334:	3301      	adds	r3, #1
 8001336:	61fb      	str	r3, [r7, #28]
 8001338:	69fb      	ldr	r3, [r7, #28]
 800133a:	2b0f      	cmp	r3, #15
 800133c:	f67f aea2 	bls.w	8001084 <HAL_GPIO_Init+0x1c>
      }
    }
  }
}
 8001340:	bf00      	nop
 8001342:	3724      	adds	r7, #36	; 0x24
 8001344:	46bd      	mov	sp, r7
 8001346:	f85d 7b04 	ldr.w	r7, [sp], #4
 800134a:	4770      	bx	lr
 800134c:	40023800 	.word	0x40023800
 8001350:	40013800 	.word	0x40013800
 8001354:	40020000 	.word	0x40020000
 8001358:	40020400 	.word	0x40020400
 800135c:	40020800 	.word	0x40020800
 8001360:	40020c00 	.word	0x40020c00
 8001364:	40021000 	.word	0x40021000
 8001368:	40013c00 	.word	0x40013c00

0800136c <HAL_GPIO_WritePin>:
  *            @arg GPIO_PIN_RESET: to clear the port pin
  *            @arg GPIO_PIN_SET: to set the port pin
  * @retval None
  */
void HAL_GPIO_WritePin(GPIO_TypeDef* GPIOx, uint16_t GPIO_Pin, GPIO_PinState PinState)
{
 800136c:	b480      	push	{r7}
 800136e:	b083      	sub	sp, #12
 8001370:	af00      	add	r7, sp, #0
 8001372:	6078      	str	r0, [r7, #4]
 8001374:	460b      	mov	r3, r1
 8001376:	807b      	strh	r3, [r7, #2]
 8001378:	4613      	mov	r3, r2
 800137a:	707b      	strb	r3, [r7, #1]
  /* Check the parameters */
  assert_param(IS_GPIO_PIN(GPIO_Pin));
  assert_param(IS_GPIO_PIN_ACTION(PinState));

  if(PinState != GPIO_PIN_RESET)
 800137c:	787b      	ldrb	r3, [r7, #1]
 800137e:	2b00      	cmp	r3, #0
 8001380:	d003      	beq.n	800138a <HAL_GPIO_WritePin+0x1e>
  {
    GPIOx->BSRR = GPIO_Pin;
 8001382:	887a      	ldrh	r2, [r7, #2]
 8001384:	687b      	ldr	r3, [r7, #4]
 8001386:	619a      	str	r2, [r3, #24]
  }
  else
  {
    GPIOx->BSRR = (uint32_t)GPIO_Pin << 16U;
  }
}
 8001388:	e003      	b.n	8001392 <HAL_GPIO_WritePin+0x26>
    GPIOx->BSRR = (uint32_t)GPIO_Pin << 16U;
 800138a:	887b      	ldrh	r3, [r7, #2]
 800138c:	041a      	lsls	r2, r3, #16
 800138e:	687b      	ldr	r3, [r7, #4]
 8001390:	619a      	str	r2, [r3, #24]
}
 8001392:	bf00      	nop
 8001394:	370c      	adds	r7, #12
 8001396:	46bd      	mov	sp, r7
 8001398:	f85d 7b04 	ldr.w	r7, [sp], #4
 800139c:	4770      	bx	lr

0800139e <HAL_GPIO_TogglePin>:
  *                      x can be (A..I) to select the GPIO peripheral for STM32F40XX and STM32F427X devices.
  * @param  GPIO_Pin Specifies the pins to be toggled.
  * @retval None
  */
void HAL_GPIO_TogglePin(GPIO_TypeDef* GPIOx, uint16_t GPIO_Pin)
{
 800139e:	b480      	push	{r7}
 80013a0:	b083      	sub	sp, #12
 80013a2:	af00      	add	r7, sp, #0
 80013a4:	6078      	str	r0, [r7, #4]
 80013a6:	460b      	mov	r3, r1
 80013a8:	807b      	strh	r3, [r7, #2]
  /* Check the parameters */
  assert_param(IS_GPIO_PIN(GPIO_Pin));

  if ((GPIOx->ODR & GPIO_Pin) == GPIO_Pin)
 80013aa:	687b      	ldr	r3, [r7, #4]
 80013ac:	695a      	ldr	r2, [r3, #20]
 80013ae:	887b      	ldrh	r3, [r7, #2]
 80013b0:	401a      	ands	r2, r3
 80013b2:	887b      	ldrh	r3, [r7, #2]
 80013b4:	429a      	cmp	r2, r3
 80013b6:	d104      	bne.n	80013c2 <HAL_GPIO_TogglePin+0x24>
  {
    GPIOx->BSRR = (uint32_t)GPIO_Pin << GPIO_NUMBER;
 80013b8:	887b      	ldrh	r3, [r7, #2]
 80013ba:	041a      	lsls	r2, r3, #16
 80013bc:	687b      	ldr	r3, [r7, #4]
 80013be:	619a      	str	r2, [r3, #24]
  }
  else
  {
    GPIOx->BSRR = GPIO_Pin;
  }
}
 80013c0:	e002      	b.n	80013c8 <HAL_GPIO_TogglePin+0x2a>
    GPIOx->BSRR = GPIO_Pin;
 80013c2:	887a      	ldrh	r2, [r7, #2]
 80013c4:	687b      	ldr	r3, [r7, #4]
 80013c6:	619a      	str	r2, [r3, #24]
}
 80013c8:	bf00      	nop
 80013ca:	370c      	adds	r7, #12
 80013cc:	46bd      	mov	sp, r7
 80013ce:	f85d 7b04 	ldr.w	r7, [sp], #4
 80013d2:	4770      	bx	lr

080013d4 <HAL_PWR_PVD_IRQHandler>:
  * @brief This function handles the PWR PVD interrupt request.
  * @note This API should be called under the PVD_IRQHandler().
  * @retval None
  */
void HAL_PWR_PVD_IRQHandler(void)
{
 80013d4:	b580      	push	{r7, lr}
 80013d6:	af00      	add	r7, sp, #0
  /* Check PWR Exti flag */
  if(__HAL_PWR_PVD_EXTI_GET_FLAG() != RESET)
 80013d8:	4b06      	ldr	r3, [pc, #24]	; (80013f4 <HAL_PWR_PVD_IRQHandler+0x20>)
 80013da:	695b      	ldr	r3, [r3, #20]
 80013dc:	f403 3380 	and.w	r3, r3, #65536	; 0x10000
 80013e0:	2b00      	cmp	r3, #0
 80013e2:	d005      	beq.n	80013f0 <HAL_PWR_PVD_IRQHandler+0x1c>
  {
    /* PWR PVD interrupt user callback */
    HAL_PWR_PVDCallback();
 80013e4:	f000 f808 	bl	80013f8 <HAL_PWR_PVDCallback>
    
    /* Clear PWR Exti pending bit */
    __HAL_PWR_PVD_EXTI_CLEAR_FLAG();
 80013e8:	4b02      	ldr	r3, [pc, #8]	; (80013f4 <HAL_PWR_PVD_IRQHandler+0x20>)
 80013ea:	f44f 3280 	mov.w	r2, #65536	; 0x10000
 80013ee:	615a      	str	r2, [r3, #20]
  }
}
 80013f0:	bf00      	nop
 80013f2:	bd80      	pop	{r7, pc}
 80013f4:	40013c00 	.word	0x40013c00

080013f8 <HAL_PWR_PVDCallback>:
/**
  * @brief  PWR PVD interrupt callback
  * @retval None
  */
__weak void HAL_PWR_PVDCallback(void)
{
 80013f8:	b480      	push	{r7}
 80013fa:	af00      	add	r7, sp, #0
  /* NOTE : This function Should not be modified, when the callback is needed,
            the HAL_PWR_PVDCallback could be implemented in the user file
   */ 
}
 80013fc:	bf00      	nop
 80013fe:	46bd      	mov	sp, r7
 8001400:	f85d 7b04 	ldr.w	r7, [sp], #4
 8001404:	4770      	bx	lr
	...

08001408 <HAL_RCC_OscConfig>:
  *         supported by this API. User should request a transition to HSE Off
  *         first and then HSE On or HSE Bypass.
  * @retval HAL status
  */
__weak HAL_StatusTypeDef HAL_RCC_OscConfig(RCC_OscInitTypeDef  *RCC_OscInitStruct)
{
 8001408:	b580      	push	{r7, lr}
 800140a:	b086      	sub	sp, #24
 800140c:	af00      	add	r7, sp, #0
 800140e:	6078      	str	r0, [r7, #4]
  uint32_t tickstart, pll_config;

  /* Check Null pointer */
  if(RCC_OscInitStruct == NULL)
 8001410:	687b      	ldr	r3, [r7, #4]
 8001412:	2b00      	cmp	r3, #0
 8001414:	d101      	bne.n	800141a <HAL_RCC_OscConfig+0x12>
  {
    return HAL_ERROR;
 8001416:	2301      	movs	r3, #1
 8001418:	e25b      	b.n	80018d2 <HAL_RCC_OscConfig+0x4ca>
  }

  /* Check the parameters */
  assert_param(IS_RCC_OSCILLATORTYPE(RCC_OscInitStruct->OscillatorType));
  /*------------------------------- HSE Configuration ------------------------*/
  if(((RCC_OscInitStruct->OscillatorType) & RCC_OSCILLATORTYPE_HSE) == RCC_OSCILLATORTYPE_HSE)
 800141a:	687b      	ldr	r3, [r7, #4]
 800141c:	681b      	ldr	r3, [r3, #0]
 800141e:	f003 0301 	and.w	r3, r3, #1
 8001422:	2b00      	cmp	r3, #0
 8001424:	d075      	beq.n	8001512 <HAL_RCC_OscConfig+0x10a>
  {
    /* Check the parameters */
    assert_param(IS_RCC_HSE(RCC_OscInitStruct->HSEState));
    /* When the HSE is used as system clock or clock source for PLL in these cases HSE will not disabled */
    if((__HAL_RCC_GET_SYSCLK_SOURCE() == RCC_CFGR_SWS_HSE) ||\
 8001426:	4ba3      	ldr	r3, [pc, #652]	; (80016b4 <HAL_RCC_OscConfig+0x2ac>)
 8001428:	689b      	ldr	r3, [r3, #8]
 800142a:	f003 030c 	and.w	r3, r3, #12
 800142e:	2b04      	cmp	r3, #4
 8001430:	d00c      	beq.n	800144c <HAL_RCC_OscConfig+0x44>
      ((__HAL_RCC_GET_SYSCLK_SOURCE() == RCC_CFGR_SWS_PLL) && ((RCC->PLLCFGR & RCC_PLLCFGR_PLLSRC) == RCC_PLLCFGR_PLLSRC_HSE)))
 8001432:	4ba0      	ldr	r3, [pc, #640]	; (80016b4 <HAL_RCC_OscConfig+0x2ac>)
 8001434:	689b      	ldr	r3, [r3, #8]
 8001436:	f003 030c 	and.w	r3, r3, #12
    if((__HAL_RCC_GET_SYSCLK_SOURCE() == RCC_CFGR_SWS_HSE) ||\
 800143a:	2b08      	cmp	r3, #8
 800143c:	d112      	bne.n	8001464 <HAL_RCC_OscConfig+0x5c>
      ((__HAL_RCC_GET_SYSCLK_SOURCE() == RCC_CFGR_SWS_PLL) && ((RCC->PLLCFGR & RCC_PLLCFGR_PLLSRC) == RCC_PLLCFGR_PLLSRC_HSE)))
 800143e:	4b9d      	ldr	r3, [pc, #628]	; (80016b4 <HAL_RCC_OscConfig+0x2ac>)
 8001440:	685b      	ldr	r3, [r3, #4]
 8001442:	f403 0380 	and.w	r3, r3, #4194304	; 0x400000
 8001446:	f5b3 0f80 	cmp.w	r3, #4194304	; 0x400000
 800144a:	d10b      	bne.n	8001464 <HAL_RCC_OscConfig+0x5c>
    {
      if((__HAL_RCC_GET_FLAG(RCC_FLAG_HSERDY) != RESET) && (RCC_OscInitStruct->HSEState == RCC_HSE_OFF))
 800144c:	4b99      	ldr	r3, [pc, #612]	; (80016b4 <HAL_RCC_OscConfig+0x2ac>)
 800144e:	681b      	ldr	r3, [r3, #0]
 8001450:	f403 3300 	and.w	r3, r3, #131072	; 0x20000
 8001454:	2b00      	cmp	r3, #0
 8001456:	d05b      	beq.n	8001510 <HAL_RCC_OscConfig+0x108>
 8001458:	687b      	ldr	r3, [r7, #4]
 800145a:	685b      	ldr	r3, [r3, #4]
 800145c:	2b00      	cmp	r3, #0
 800145e:	d157      	bne.n	8001510 <HAL_RCC_OscConfig+0x108>
      {
        return HAL_ERROR;
 8001460:	2301      	movs	r3, #1
 8001462:	e236      	b.n	80018d2 <HAL_RCC_OscConfig+0x4ca>
      }
    }
    else
    {
      /* Set the new HSE configuration ---------------------------------------*/
      __HAL_RCC_HSE_CONFIG(RCC_OscInitStruct->HSEState);
 8001464:	687b      	ldr	r3, [r7, #4]
 8001466:	685b      	ldr	r3, [r3, #4]
 8001468:	f5b3 3f80 	cmp.w	r3, #65536	; 0x10000
 800146c:	d106      	bne.n	800147c <HAL_RCC_OscConfig+0x74>
 800146e:	4b91      	ldr	r3, [pc, #580]	; (80016b4 <HAL_RCC_OscConfig+0x2ac>)
 8001470:	681b      	ldr	r3, [r3, #0]
 8001472:	4a90      	ldr	r2, [pc, #576]	; (80016b4 <HAL_RCC_OscConfig+0x2ac>)
 8001474:	f443 3380 	orr.w	r3, r3, #65536	; 0x10000
 8001478:	6013      	str	r3, [r2, #0]
 800147a:	e01d      	b.n	80014b8 <HAL_RCC_OscConfig+0xb0>
 800147c:	687b      	ldr	r3, [r7, #4]
 800147e:	685b      	ldr	r3, [r3, #4]
 8001480:	f5b3 2fa0 	cmp.w	r3, #327680	; 0x50000
 8001484:	d10c      	bne.n	80014a0 <HAL_RCC_OscConfig+0x98>
 8001486:	4b8b      	ldr	r3, [pc, #556]	; (80016b4 <HAL_RCC_OscConfig+0x2ac>)
 8001488:	681b      	ldr	r3, [r3, #0]
 800148a:	4a8a      	ldr	r2, [pc, #552]	; (80016b4 <HAL_RCC_OscConfig+0x2ac>)
 800148c:	f443 2380 	orr.w	r3, r3, #262144	; 0x40000
 8001490:	6013      	str	r3, [r2, #0]
 8001492:	4b88      	ldr	r3, [pc, #544]	; (80016b4 <HAL_RCC_OscConfig+0x2ac>)
 8001494:	681b      	ldr	r3, [r3, #0]
 8001496:	4a87      	ldr	r2, [pc, #540]	; (80016b4 <HAL_RCC_OscConfig+0x2ac>)
 8001498:	f443 3380 	orr.w	r3, r3, #65536	; 0x10000
 800149c:	6013      	str	r3, [r2, #0]
 800149e:	e00b      	b.n	80014b8 <HAL_RCC_OscConfig+0xb0>
 80014a0:	4b84      	ldr	r3, [pc, #528]	; (80016b4 <HAL_RCC_OscConfig+0x2ac>)
 80014a2:	681b      	ldr	r3, [r3, #0]
 80014a4:	4a83      	ldr	r2, [pc, #524]	; (80016b4 <HAL_RCC_OscConfig+0x2ac>)
 80014a6:	f423 3380 	bic.w	r3, r3, #65536	; 0x10000
 80014aa:	6013      	str	r3, [r2, #0]
 80014ac:	4b81      	ldr	r3, [pc, #516]	; (80016b4 <HAL_RCC_OscConfig+0x2ac>)
 80014ae:	681b      	ldr	r3, [r3, #0]
 80014b0:	4a80      	ldr	r2, [pc, #512]	; (80016b4 <HAL_RCC_OscConfig+0x2ac>)
 80014b2:	f423 2380 	bic.w	r3, r3, #262144	; 0x40000
 80014b6:	6013      	str	r3, [r2, #0]

      /* Check the HSE State */
      if((RCC_OscInitStruct->HSEState) != RCC_HSE_OFF)
 80014b8:	687b      	ldr	r3, [r7, #4]
 80014ba:	685b      	ldr	r3, [r3, #4]
 80014bc:	2b00      	cmp	r3, #0
 80014be:	d013      	beq.n	80014e8 <HAL_RCC_OscConfig+0xe0>
      {
        /* Get Start Tick */
        tickstart = HAL_GetTick();
 80014c0:	f7ff fb3c 	bl	8000b3c <HAL_GetTick>
 80014c4:	6138      	str	r0, [r7, #16]

        /* Wait till HSE is ready */
        while(__HAL_RCC_GET_FLAG(RCC_FLAG_HSERDY) == RESET)
 80014c6:	e008      	b.n	80014da <HAL_RCC_OscConfig+0xd2>
        {
          if((HAL_GetTick() - tickstart ) > HSE_TIMEOUT_VALUE)
 80014c8:	f7ff fb38 	bl	8000b3c <HAL_GetTick>
 80014cc:	4602      	mov	r2, r0
 80014ce:	693b      	ldr	r3, [r7, #16]
 80014d0:	1ad3      	subs	r3, r2, r3
 80014d2:	2b64      	cmp	r3, #100	; 0x64
 80014d4:	d901      	bls.n	80014da <HAL_RCC_OscConfig+0xd2>
          {
            return HAL_TIMEOUT;
 80014d6:	2303      	movs	r3, #3
 80014d8:	e1fb      	b.n	80018d2 <HAL_RCC_OscConfig+0x4ca>
        while(__HAL_RCC_GET_FLAG(RCC_FLAG_HSERDY) == RESET)
 80014da:	4b76      	ldr	r3, [pc, #472]	; (80016b4 <HAL_RCC_OscConfig+0x2ac>)
 80014dc:	681b      	ldr	r3, [r3, #0]
 80014de:	f403 3300 	and.w	r3, r3, #131072	; 0x20000
 80014e2:	2b00      	cmp	r3, #0
 80014e4:	d0f0      	beq.n	80014c8 <HAL_RCC_OscConfig+0xc0>
 80014e6:	e014      	b.n	8001512 <HAL_RCC_OscConfig+0x10a>
        }
      }
      else
      {
        /* Get Start Tick */
        tickstart = HAL_GetTick();
 80014e8:	f7ff fb28 	bl	8000b3c <HAL_GetTick>
 80014ec:	6138      	str	r0, [r7, #16]

        /* Wait till HSE is bypassed or disabled */
        while(__HAL_RCC_GET_FLAG(RCC_FLAG_HSERDY) != RESET)
 80014ee:	e008      	b.n	8001502 <HAL_RCC_OscConfig+0xfa>
        {
          if((HAL_GetTick() - tickstart ) > HSE_TIMEOUT_VALUE)
 80014f0:	f7ff fb24 	bl	8000b3c <HAL_GetTick>
 80014f4:	4602      	mov	r2, r0
 80014f6:	693b      	ldr	r3, [r7, #16]
 80014f8:	1ad3      	subs	r3, r2, r3
 80014fa:	2b64      	cmp	r3, #100	; 0x64
 80014fc:	d901      	bls.n	8001502 <HAL_RCC_OscConfig+0xfa>
          {
            return HAL_TIMEOUT;
 80014fe:	2303      	movs	r3, #3
 8001500:	e1e7      	b.n	80018d2 <HAL_RCC_OscConfig+0x4ca>
        while(__HAL_RCC_GET_FLAG(RCC_FLAG_HSERDY) != RESET)
 8001502:	4b6c      	ldr	r3, [pc, #432]	; (80016b4 <HAL_RCC_OscConfig+0x2ac>)
 8001504:	681b      	ldr	r3, [r3, #0]
 8001506:	f403 3300 	and.w	r3, r3, #131072	; 0x20000
 800150a:	2b00      	cmp	r3, #0
 800150c:	d1f0      	bne.n	80014f0 <HAL_RCC_OscConfig+0xe8>
 800150e:	e000      	b.n	8001512 <HAL_RCC_OscConfig+0x10a>
      if((__HAL_RCC_GET_FLAG(RCC_FLAG_HSERDY) != RESET) && (RCC_OscInitStruct->HSEState == RCC_HSE_OFF))
 8001510:	bf00      	nop
        }
      }
    }
  }
  /*----------------------------- HSI Configuration --------------------------*/
  if(((RCC_OscInitStruct->OscillatorType) & RCC_OSCILLATORTYPE_HSI) == RCC_OSCILLATORTYPE_HSI)
 8001512:	687b      	ldr	r3, [r7, #4]
 8001514:	681b      	ldr	r3, [r3, #0]
 8001516:	f003 0302 	and.w	r3, r3, #2
 800151a:	2b00      	cmp	r3, #0
 800151c:	d063      	beq.n	80015e6 <HAL_RCC_OscConfig+0x1de>
    /* Check the parameters */
    assert_param(IS_RCC_HSI(RCC_OscInitStruct->HSIState));
    assert_param(IS_RCC_CALIBRATION_VALUE(RCC_OscInitStruct->HSICalibrationValue));

    /* Check if HSI is used as system clock or as PLL source when PLL is selected as system clock */
    if((__HAL_RCC_GET_SYSCLK_SOURCE() == RCC_CFGR_SWS_HSI) ||\
 800151e:	4b65      	ldr	r3, [pc, #404]	; (80016b4 <HAL_RCC_OscConfig+0x2ac>)
 8001520:	689b      	ldr	r3, [r3, #8]
 8001522:	f003 030c 	and.w	r3, r3, #12
 8001526:	2b00      	cmp	r3, #0
 8001528:	d00b      	beq.n	8001542 <HAL_RCC_OscConfig+0x13a>
      ((__HAL_RCC_GET_SYSCLK_SOURCE() == RCC_CFGR_SWS_PLL) && ((RCC->PLLCFGR & RCC_PLLCFGR_PLLSRC) == RCC_PLLCFGR_PLLSRC_HSI)))
 800152a:	4b62      	ldr	r3, [pc, #392]	; (80016b4 <HAL_RCC_OscConfig+0x2ac>)
 800152c:	689b      	ldr	r3, [r3, #8]
 800152e:	f003 030c 	and.w	r3, r3, #12
    if((__HAL_RCC_GET_SYSCLK_SOURCE() == RCC_CFGR_SWS_HSI) ||\
 8001532:	2b08      	cmp	r3, #8
 8001534:	d11c      	bne.n	8001570 <HAL_RCC_OscConfig+0x168>
      ((__HAL_RCC_GET_SYSCLK_SOURCE() == RCC_CFGR_SWS_PLL) && ((RCC->PLLCFGR & RCC_PLLCFGR_PLLSRC) == RCC_PLLCFGR_PLLSRC_HSI)))
 8001536:	4b5f      	ldr	r3, [pc, #380]	; (80016b4 <HAL_RCC_OscConfig+0x2ac>)
 8001538:	685b      	ldr	r3, [r3, #4]
 800153a:	f403 0380 	and.w	r3, r3, #4194304	; 0x400000
 800153e:	2b00      	cmp	r3, #0
 8001540:	d116      	bne.n	8001570 <HAL_RCC_OscConfig+0x168>
    {
      /* When HSI is used as system clock it will not disabled */
      if((__HAL_RCC_GET_FLAG(RCC_FLAG_HSIRDY) != RESET) && (RCC_OscInitStruct->HSIState != RCC_HSI_ON))
 8001542:	4b5c      	ldr	r3, [pc, #368]	; (80016b4 <HAL_RCC_OscConfig+0x2ac>)
 8001544:	681b      	ldr	r3, [r3, #0]
 8001546:	f003 0302 	and.w	r3, r3, #2
 800154a:	2b00      	cmp	r3, #0
 800154c:	d005      	beq.n	800155a <HAL_RCC_OscConfig+0x152>
 800154e:	687b      	ldr	r3, [r7, #4]
 8001550:	68db      	ldr	r3, [r3, #12]
 8001552:	2b01      	cmp	r3, #1
 8001554:	d001      	beq.n	800155a <HAL_RCC_OscConfig+0x152>
      {
        return HAL_ERROR;
 8001556:	2301      	movs	r3, #1
 8001558:	e1bb      	b.n	80018d2 <HAL_RCC_OscConfig+0x4ca>
      }
      /* Otherwise, just the calibration is allowed */
      else
      {
        /* Adjusts the Internal High Speed oscillator (HSI) calibration value.*/
        __HAL_RCC_HSI_CALIBRATIONVALUE_ADJUST(RCC_OscInitStruct->HSICalibrationValue);
 800155a:	4b56      	ldr	r3, [pc, #344]	; (80016b4 <HAL_RCC_OscConfig+0x2ac>)
 800155c:	681b      	ldr	r3, [r3, #0]
 800155e:	f023 02f8 	bic.w	r2, r3, #248	; 0xf8
 8001562:	687b      	ldr	r3, [r7, #4]
 8001564:	691b      	ldr	r3, [r3, #16]
 8001566:	00db      	lsls	r3, r3, #3
 8001568:	4952      	ldr	r1, [pc, #328]	; (80016b4 <HAL_RCC_OscConfig+0x2ac>)
 800156a:	4313      	orrs	r3, r2
 800156c:	600b      	str	r3, [r1, #0]
      if((__HAL_RCC_GET_FLAG(RCC_FLAG_HSIRDY) != RESET) && (RCC_OscInitStruct->HSIState != RCC_HSI_ON))
 800156e:	e03a      	b.n	80015e6 <HAL_RCC_OscConfig+0x1de>
      }
    }
    else
    {
      /* Check the HSI State */
      if((RCC_OscInitStruct->HSIState)!= RCC_HSI_OFF)
 8001570:	687b      	ldr	r3, [r7, #4]
 8001572:	68db      	ldr	r3, [r3, #12]
 8001574:	2b00      	cmp	r3, #0
 8001576:	d020      	beq.n	80015ba <HAL_RCC_OscConfig+0x1b2>
      {
        /* Enable the Internal High Speed oscillator (HSI). */
        __HAL_RCC_HSI_ENABLE();
 8001578:	4b4f      	ldr	r3, [pc, #316]	; (80016b8 <HAL_RCC_OscConfig+0x2b0>)
 800157a:	2201      	movs	r2, #1
 800157c:	601a      	str	r2, [r3, #0]

        /* Get Start Tick*/
        tickstart = HAL_GetTick();
 800157e:	f7ff fadd 	bl	8000b3c <HAL_GetTick>
 8001582:	6138      	str	r0, [r7, #16]

        /* Wait till HSI is ready */
        while(__HAL_RCC_GET_FLAG(RCC_FLAG_HSIRDY) == RESET)
 8001584:	e008      	b.n	8001598 <HAL_RCC_OscConfig+0x190>
        {
          if((HAL_GetTick() - tickstart ) > HSI_TIMEOUT_VALUE)
 8001586:	f7ff fad9 	bl	8000b3c <HAL_GetTick>
 800158a:	4602      	mov	r2, r0
 800158c:	693b      	ldr	r3, [r7, #16]
 800158e:	1ad3      	subs	r3, r2, r3
 8001590:	2b02      	cmp	r3, #2
 8001592:	d901      	bls.n	8001598 <HAL_RCC_OscConfig+0x190>
          {
            return HAL_TIMEOUT;
 8001594:	2303      	movs	r3, #3
 8001596:	e19c      	b.n	80018d2 <HAL_RCC_OscConfig+0x4ca>
        while(__HAL_RCC_GET_FLAG(RCC_FLAG_HSIRDY) == RESET)
 8001598:	4b46      	ldr	r3, [pc, #280]	; (80016b4 <HAL_RCC_OscConfig+0x2ac>)
 800159a:	681b      	ldr	r3, [r3, #0]
 800159c:	f003 0302 	and.w	r3, r3, #2
 80015a0:	2b00      	cmp	r3, #0
 80015a2:	d0f0      	beq.n	8001586 <HAL_RCC_OscConfig+0x17e>
          }
        }

        /* Adjusts the Internal High Speed oscillator (HSI) calibration value. */
        __HAL_RCC_HSI_CALIBRATIONVALUE_ADJUST(RCC_OscInitStruct->HSICalibrationValue);
 80015a4:	4b43      	ldr	r3, [pc, #268]	; (80016b4 <HAL_RCC_OscConfig+0x2ac>)
 80015a6:	681b      	ldr	r3, [r3, #0]
 80015a8:	f023 02f8 	bic.w	r2, r3, #248	; 0xf8
 80015ac:	687b      	ldr	r3, [r7, #4]
 80015ae:	691b      	ldr	r3, [r3, #16]
 80015b0:	00db      	lsls	r3, r3, #3
 80015b2:	4940      	ldr	r1, [pc, #256]	; (80016b4 <HAL_RCC_OscConfig+0x2ac>)
 80015b4:	4313      	orrs	r3, r2
 80015b6:	600b      	str	r3, [r1, #0]
 80015b8:	e015      	b.n	80015e6 <HAL_RCC_OscConfig+0x1de>
      }
      else
      {
        /* Disable the Internal High Speed oscillator (HSI). */
        __HAL_RCC_HSI_DISABLE();
 80015ba:	4b3f      	ldr	r3, [pc, #252]	; (80016b8 <HAL_RCC_OscConfig+0x2b0>)
 80015bc:	2200      	movs	r2, #0
 80015be:	601a      	str	r2, [r3, #0]

        /* Get Start Tick*/
        tickstart = HAL_GetTick();
 80015c0:	f7ff fabc 	bl	8000b3c <HAL_GetTick>
 80015c4:	6138      	str	r0, [r7, #16]

        /* Wait till HSI is ready */
        while(__HAL_RCC_GET_FLAG(RCC_FLAG_HSIRDY) != RESET)
 80015c6:	e008      	b.n	80015da <HAL_RCC_OscConfig+0x1d2>
        {
          if((HAL_GetTick() - tickstart ) > HSI_TIMEOUT_VALUE)
 80015c8:	f7ff fab8 	bl	8000b3c <HAL_GetTick>
 80015cc:	4602      	mov	r2, r0
 80015ce:	693b      	ldr	r3, [r7, #16]
 80015d0:	1ad3      	subs	r3, r2, r3
 80015d2:	2b02      	cmp	r3, #2
 80015d4:	d901      	bls.n	80015da <HAL_RCC_OscConfig+0x1d2>
          {
            return HAL_TIMEOUT;
 80015d6:	2303      	movs	r3, #3
 80015d8:	e17b      	b.n	80018d2 <HAL_RCC_OscConfig+0x4ca>
        while(__HAL_RCC_GET_FLAG(RCC_FLAG_HSIRDY) != RESET)
 80015da:	4b36      	ldr	r3, [pc, #216]	; (80016b4 <HAL_RCC_OscConfig+0x2ac>)
 80015dc:	681b      	ldr	r3, [r3, #0]
 80015de:	f003 0302 	and.w	r3, r3, #2
 80015e2:	2b00      	cmp	r3, #0
 80015e4:	d1f0      	bne.n	80015c8 <HAL_RCC_OscConfig+0x1c0>
        }
      }
    }
  }
  /*------------------------------ LSI Configuration -------------------------*/
  if(((RCC_OscInitStruct->OscillatorType) & RCC_OSCILLATORTYPE_LSI) == RCC_OSCILLATORTYPE_LSI)
 80015e6:	687b      	ldr	r3, [r7, #4]
 80015e8:	681b      	ldr	r3, [r3, #0]
 80015ea:	f003 0308 	and.w	r3, r3, #8
 80015ee:	2b00      	cmp	r3, #0
 80015f0:	d030      	beq.n	8001654 <HAL_RCC_OscConfig+0x24c>
  {
    /* Check the parameters */
    assert_param(IS_RCC_LSI(RCC_OscInitStruct->LSIState));

    /* Check the LSI State */
    if((RCC_OscInitStruct->LSIState)!= RCC_LSI_OFF)
 80015f2:	687b      	ldr	r3, [r7, #4]
 80015f4:	695b      	ldr	r3, [r3, #20]
 80015f6:	2b00      	cmp	r3, #0
 80015f8:	d016      	beq.n	8001628 <HAL_RCC_OscConfig+0x220>
    {
      /* Enable the Internal Low Speed oscillator (LSI). */
      __HAL_RCC_LSI_ENABLE();
 80015fa:	4b30      	ldr	r3, [pc, #192]	; (80016bc <HAL_RCC_OscConfig+0x2b4>)
 80015fc:	2201      	movs	r2, #1
 80015fe:	601a      	str	r2, [r3, #0]

      /* Get Start Tick*/
      tickstart = HAL_GetTick();
 8001600:	f7ff fa9c 	bl	8000b3c <HAL_GetTick>
 8001604:	6138      	str	r0, [r7, #16]

      /* Wait till LSI is ready */
      while(__HAL_RCC_GET_FLAG(RCC_FLAG_LSIRDY) == RESET)
 8001606:	e008      	b.n	800161a <HAL_RCC_OscConfig+0x212>
      {
        if((HAL_GetTick() - tickstart ) > LSI_TIMEOUT_VALUE)
 8001608:	f7ff fa98 	bl	8000b3c <HAL_GetTick>
 800160c:	4602      	mov	r2, r0
 800160e:	693b      	ldr	r3, [r7, #16]
 8001610:	1ad3      	subs	r3, r2, r3
 8001612:	2b02      	cmp	r3, #2
 8001614:	d901      	bls.n	800161a <HAL_RCC_OscConfig+0x212>
        {
          return HAL_TIMEOUT;
 8001616:	2303      	movs	r3, #3
 8001618:	e15b      	b.n	80018d2 <HAL_RCC_OscConfig+0x4ca>
      while(__HAL_RCC_GET_FLAG(RCC_FLAG_LSIRDY) == RESET)
 800161a:	4b26      	ldr	r3, [pc, #152]	; (80016b4 <HAL_RCC_OscConfig+0x2ac>)
 800161c:	6f5b      	ldr	r3, [r3, #116]	; 0x74
 800161e:	f003 0302 	and.w	r3, r3, #2
 8001622:	2b00      	cmp	r3, #0
 8001624:	d0f0      	beq.n	8001608 <HAL_RCC_OscConfig+0x200>
 8001626:	e015      	b.n	8001654 <HAL_RCC_OscConfig+0x24c>
      }
    }
    else
    {
      /* Disable the Internal Low Speed oscillator (LSI). */
      __HAL_RCC_LSI_DISABLE();
 8001628:	4b24      	ldr	r3, [pc, #144]	; (80016bc <HAL_RCC_OscConfig+0x2b4>)
 800162a:	2200      	movs	r2, #0
 800162c:	601a      	str	r2, [r3, #0]

      /* Get Start Tick */
      tickstart = HAL_GetTick();
 800162e:	f7ff fa85 	bl	8000b3c <HAL_GetTick>
 8001632:	6138      	str	r0, [r7, #16]

      /* Wait till LSI is ready */
      while(__HAL_RCC_GET_FLAG(RCC_FLAG_LSIRDY) != RESET)
 8001634:	e008      	b.n	8001648 <HAL_RCC_OscConfig+0x240>
      {
        if((HAL_GetTick() - tickstart ) > LSI_TIMEOUT_VALUE)
 8001636:	f7ff fa81 	bl	8000b3c <HAL_GetTick>
 800163a:	4602      	mov	r2, r0
 800163c:	693b      	ldr	r3, [r7, #16]
 800163e:	1ad3      	subs	r3, r2, r3
 8001640:	2b02      	cmp	r3, #2
 8001642:	d901      	bls.n	8001648 <HAL_RCC_OscConfig+0x240>
        {
          return HAL_TIMEOUT;
 8001644:	2303      	movs	r3, #3
 8001646:	e144      	b.n	80018d2 <HAL_RCC_OscConfig+0x4ca>
      while(__HAL_RCC_GET_FLAG(RCC_FLAG_LSIRDY) != RESET)
 8001648:	4b1a      	ldr	r3, [pc, #104]	; (80016b4 <HAL_RCC_OscConfig+0x2ac>)
 800164a:	6f5b      	ldr	r3, [r3, #116]	; 0x74
 800164c:	f003 0302 	and.w	r3, r3, #2
 8001650:	2b00      	cmp	r3, #0
 8001652:	d1f0      	bne.n	8001636 <HAL_RCC_OscConfig+0x22e>
        }
      }
    }
  }
  /*------------------------------ LSE Configuration -------------------------*/
  if(((RCC_OscInitStruct->OscillatorType) & RCC_OSCILLATORTYPE_LSE) == RCC_OSCILLATORTYPE_LSE)
 8001654:	687b      	ldr	r3, [r7, #4]
 8001656:	681b      	ldr	r3, [r3, #0]
 8001658:	f003 0304 	and.w	r3, r3, #4
 800165c:	2b00      	cmp	r3, #0
 800165e:	f000 80a0 	beq.w	80017a2 <HAL_RCC_OscConfig+0x39a>
  {
    FlagStatus       pwrclkchanged = RESET;
 8001662:	2300      	movs	r3, #0
 8001664:	75fb      	strb	r3, [r7, #23]
    /* Check the parameters */
    assert_param(IS_RCC_LSE(RCC_OscInitStruct->LSEState));

    /* Update LSE configuration in Backup Domain control register    */
    /* Requires to enable write access to Backup Domain of necessary */
    if(__HAL_RCC_PWR_IS_CLK_DISABLED())
 8001666:	4b13      	ldr	r3, [pc, #76]	; (80016b4 <HAL_RCC_OscConfig+0x2ac>)
 8001668:	6c1b      	ldr	r3, [r3, #64]	; 0x40
 800166a:	f003 5380 	and.w	r3, r3, #268435456	; 0x10000000
 800166e:	2b00      	cmp	r3, #0
 8001670:	d10f      	bne.n	8001692 <HAL_RCC_OscConfig+0x28a>
    {
      __HAL_RCC_PWR_CLK_ENABLE();
 8001672:	2300      	movs	r3, #0
 8001674:	60bb      	str	r3, [r7, #8]
 8001676:	4b0f      	ldr	r3, [pc, #60]	; (80016b4 <HAL_RCC_OscConfig+0x2ac>)
 8001678:	6c1b      	ldr	r3, [r3, #64]	; 0x40
 800167a:	4a0e      	ldr	r2, [pc, #56]	; (80016b4 <HAL_RCC_OscConfig+0x2ac>)
 800167c:	f043 5380 	orr.w	r3, r3, #268435456	; 0x10000000
 8001680:	6413      	str	r3, [r2, #64]	; 0x40
 8001682:	4b0c      	ldr	r3, [pc, #48]	; (80016b4 <HAL_RCC_OscConfig+0x2ac>)
 8001684:	6c1b      	ldr	r3, [r3, #64]	; 0x40
 8001686:	f003 5380 	and.w	r3, r3, #268435456	; 0x10000000
 800168a:	60bb      	str	r3, [r7, #8]
 800168c:	68bb      	ldr	r3, [r7, #8]
      pwrclkchanged = SET;
 800168e:	2301      	movs	r3, #1
 8001690:	75fb      	strb	r3, [r7, #23]
    }

    if(HAL_IS_BIT_CLR(PWR->CR, PWR_CR_DBP))
 8001692:	4b0b      	ldr	r3, [pc, #44]	; (80016c0 <HAL_RCC_OscConfig+0x2b8>)
 8001694:	681b      	ldr	r3, [r3, #0]
 8001696:	f403 7380 	and.w	r3, r3, #256	; 0x100
 800169a:	2b00      	cmp	r3, #0
 800169c:	d121      	bne.n	80016e2 <HAL_RCC_OscConfig+0x2da>
    {
      /* Enable write access to Backup domain */
      SET_BIT(PWR->CR, PWR_CR_DBP);
 800169e:	4b08      	ldr	r3, [pc, #32]	; (80016c0 <HAL_RCC_OscConfig+0x2b8>)
 80016a0:	681b      	ldr	r3, [r3, #0]
 80016a2:	4a07      	ldr	r2, [pc, #28]	; (80016c0 <HAL_RCC_OscConfig+0x2b8>)
 80016a4:	f443 7380 	orr.w	r3, r3, #256	; 0x100
 80016a8:	6013      	str	r3, [r2, #0]

      /* Wait for Backup domain Write protection disable */
      tickstart = HAL_GetTick();
 80016aa:	f7ff fa47 	bl	8000b3c <HAL_GetTick>
 80016ae:	6138      	str	r0, [r7, #16]

      while(HAL_IS_BIT_CLR(PWR->CR, PWR_CR_DBP))
 80016b0:	e011      	b.n	80016d6 <HAL_RCC_OscConfig+0x2ce>
 80016b2:	bf00      	nop
 80016b4:	40023800 	.word	0x40023800
 80016b8:	42470000 	.word	0x42470000
 80016bc:	42470e80 	.word	0x42470e80
 80016c0:	40007000 	.word	0x40007000
      {
        if((HAL_GetTick() - tickstart) > RCC_DBP_TIMEOUT_VALUE)
 80016c4:	f7ff fa3a 	bl	8000b3c <HAL_GetTick>
 80016c8:	4602      	mov	r2, r0
 80016ca:	693b      	ldr	r3, [r7, #16]
 80016cc:	1ad3      	subs	r3, r2, r3
 80016ce:	2b02      	cmp	r3, #2
 80016d0:	d901      	bls.n	80016d6 <HAL_RCC_OscConfig+0x2ce>
        {
          return HAL_TIMEOUT;
 80016d2:	2303      	movs	r3, #3
 80016d4:	e0fd      	b.n	80018d2 <HAL_RCC_OscConfig+0x4ca>
      while(HAL_IS_BIT_CLR(PWR->CR, PWR_CR_DBP))
 80016d6:	4b81      	ldr	r3, [pc, #516]	; (80018dc <HAL_RCC_OscConfig+0x4d4>)
 80016d8:	681b      	ldr	r3, [r3, #0]
 80016da:	f403 7380 	and.w	r3, r3, #256	; 0x100
 80016de:	2b00      	cmp	r3, #0
 80016e0:	d0f0      	beq.n	80016c4 <HAL_RCC_OscConfig+0x2bc>
        }
      }
    }

    /* Set the new LSE configuration -----------------------------------------*/
    __HAL_RCC_LSE_CONFIG(RCC_OscInitStruct->LSEState);
 80016e2:	687b      	ldr	r3, [r7, #4]
 80016e4:	689b      	ldr	r3, [r3, #8]
 80016e6:	2b01      	cmp	r3, #1
 80016e8:	d106      	bne.n	80016f8 <HAL_RCC_OscConfig+0x2f0>
 80016ea:	4b7d      	ldr	r3, [pc, #500]	; (80018e0 <HAL_RCC_OscConfig+0x4d8>)
 80016ec:	6f1b      	ldr	r3, [r3, #112]	; 0x70
 80016ee:	4a7c      	ldr	r2, [pc, #496]	; (80018e0 <HAL_RCC_OscConfig+0x4d8>)
 80016f0:	f043 0301 	orr.w	r3, r3, #1
 80016f4:	6713      	str	r3, [r2, #112]	; 0x70
 80016f6:	e01c      	b.n	8001732 <HAL_RCC_OscConfig+0x32a>
 80016f8:	687b      	ldr	r3, [r7, #4]
 80016fa:	689b      	ldr	r3, [r3, #8]
 80016fc:	2b05      	cmp	r3, #5
 80016fe:	d10c      	bne.n	800171a <HAL_RCC_OscConfig+0x312>
 8001700:	4b77      	ldr	r3, [pc, #476]	; (80018e0 <HAL_RCC_OscConfig+0x4d8>)
 8001702:	6f1b      	ldr	r3, [r3, #112]	; 0x70
 8001704:	4a76      	ldr	r2, [pc, #472]	; (80018e0 <HAL_RCC_OscConfig+0x4d8>)
 8001706:	f043 0304 	orr.w	r3, r3, #4
 800170a:	6713      	str	r3, [r2, #112]	; 0x70
 800170c:	4b74      	ldr	r3, [pc, #464]	; (80018e0 <HAL_RCC_OscConfig+0x4d8>)
 800170e:	6f1b      	ldr	r3, [r3, #112]	; 0x70
 8001710:	4a73      	ldr	r2, [pc, #460]	; (80018e0 <HAL_RCC_OscConfig+0x4d8>)
 8001712:	f043 0301 	orr.w	r3, r3, #1
 8001716:	6713      	str	r3, [r2, #112]	; 0x70
 8001718:	e00b      	b.n	8001732 <HAL_RCC_OscConfig+0x32a>
 800171a:	4b71      	ldr	r3, [pc, #452]	; (80018e0 <HAL_RCC_OscConfig+0x4d8>)
 800171c:	6f1b      	ldr	r3, [r3, #112]	; 0x70
 800171e:	4a70      	ldr	r2, [pc, #448]	; (80018e0 <HAL_RCC_OscConfig+0x4d8>)
 8001720:	f023 0301 	bic.w	r3, r3, #1
 8001724:	6713      	str	r3, [r2, #112]	; 0x70
 8001726:	4b6e      	ldr	r3, [pc, #440]	; (80018e0 <HAL_RCC_OscConfig+0x4d8>)
 8001728:	6f1b      	ldr	r3, [r3, #112]	; 0x70
 800172a:	4a6d      	ldr	r2, [pc, #436]	; (80018e0 <HAL_RCC_OscConfig+0x4d8>)
 800172c:	f023 0304 	bic.w	r3, r3, #4
 8001730:	6713      	str	r3, [r2, #112]	; 0x70
    /* Check the LSE State */
    if((RCC_OscInitStruct->LSEState) != RCC_LSE_OFF)
 8001732:	687b      	ldr	r3, [r7, #4]
 8001734:	689b      	ldr	r3, [r3, #8]
 8001736:	2b00      	cmp	r3, #0
 8001738:	d015      	beq.n	8001766 <HAL_RCC_OscConfig+0x35e>
    {
      /* Get Start Tick*/
      tickstart = HAL_GetTick();
 800173a:	f7ff f9ff 	bl	8000b3c <HAL_GetTick>
 800173e:	6138      	str	r0, [r7, #16]

      /* Wait till LSE is ready */
      while(__HAL_RCC_GET_FLAG(RCC_FLAG_LSERDY) == RESET)
 8001740:	e00a      	b.n	8001758 <HAL_RCC_OscConfig+0x350>
      {
        if((HAL_GetTick() - tickstart ) > RCC_LSE_TIMEOUT_VALUE)
 8001742:	f7ff f9fb 	bl	8000b3c <HAL_GetTick>
 8001746:	4602      	mov	r2, r0
 8001748:	693b      	ldr	r3, [r7, #16]
 800174a:	1ad3      	subs	r3, r2, r3
 800174c:	f241 3288 	movw	r2, #5000	; 0x1388
 8001750:	4293      	cmp	r3, r2
 8001752:	d901      	bls.n	8001758 <HAL_RCC_OscConfig+0x350>
        {
          return HAL_TIMEOUT;
 8001754:	2303      	movs	r3, #3
 8001756:	e0bc      	b.n	80018d2 <HAL_RCC_OscConfig+0x4ca>
      while(__HAL_RCC_GET_FLAG(RCC_FLAG_LSERDY) == RESET)
 8001758:	4b61      	ldr	r3, [pc, #388]	; (80018e0 <HAL_RCC_OscConfig+0x4d8>)
 800175a:	6f1b      	ldr	r3, [r3, #112]	; 0x70
 800175c:	f003 0302 	and.w	r3, r3, #2
 8001760:	2b00      	cmp	r3, #0
 8001762:	d0ee      	beq.n	8001742 <HAL_RCC_OscConfig+0x33a>
 8001764:	e014      	b.n	8001790 <HAL_RCC_OscConfig+0x388>
      }
    }
    else
    {
      /* Get Start Tick */
      tickstart = HAL_GetTick();
 8001766:	f7ff f9e9 	bl	8000b3c <HAL_GetTick>
 800176a:	6138      	str	r0, [r7, #16]

      /* Wait till LSE is ready */
      while(__HAL_RCC_GET_FLAG(RCC_FLAG_LSERDY) != RESET)
 800176c:	e00a      	b.n	8001784 <HAL_RCC_OscConfig+0x37c>
      {
        if((HAL_GetTick() - tickstart ) > RCC_LSE_TIMEOUT_VALUE)
 800176e:	f7ff f9e5 	bl	8000b3c <HAL_GetTick>
 8001772:	4602      	mov	r2, r0
 8001774:	693b      	ldr	r3, [r7, #16]
 8001776:	1ad3      	subs	r3, r2, r3
 8001778:	f241 3288 	movw	r2, #5000	; 0x1388
 800177c:	4293      	cmp	r3, r2
 800177e:	d901      	bls.n	8001784 <HAL_RCC_OscConfig+0x37c>
        {
          return HAL_TIMEOUT;
 8001780:	2303      	movs	r3, #3
 8001782:	e0a6      	b.n	80018d2 <HAL_RCC_OscConfig+0x4ca>
      while(__HAL_RCC_GET_FLAG(RCC_FLAG_LSERDY) != RESET)
 8001784:	4b56      	ldr	r3, [pc, #344]	; (80018e0 <HAL_RCC_OscConfig+0x4d8>)
 8001786:	6f1b      	ldr	r3, [r3, #112]	; 0x70
 8001788:	f003 0302 	and.w	r3, r3, #2
 800178c:	2b00      	cmp	r3, #0
 800178e:	d1ee      	bne.n	800176e <HAL_RCC_OscConfig+0x366>
        }
      }
    }

    /* Restore clock configuration if changed */
    if(pwrclkchanged == SET)
 8001790:	7dfb      	ldrb	r3, [r7, #23]
 8001792:	2b01      	cmp	r3, #1
 8001794:	d105      	bne.n	80017a2 <HAL_RCC_OscConfig+0x39a>
    {
      __HAL_RCC_PWR_CLK_DISABLE();
 8001796:	4b52      	ldr	r3, [pc, #328]	; (80018e0 <HAL_RCC_OscConfig+0x4d8>)
 8001798:	6c1b      	ldr	r3, [r3, #64]	; 0x40
 800179a:	4a51      	ldr	r2, [pc, #324]	; (80018e0 <HAL_RCC_OscConfig+0x4d8>)
 800179c:	f023 5380 	bic.w	r3, r3, #268435456	; 0x10000000
 80017a0:	6413      	str	r3, [r2, #64]	; 0x40
    }
  }
  /*-------------------------------- PLL Configuration -----------------------*/
  /* Check the parameters */
  assert_param(IS_RCC_PLL(RCC_OscInitStruct->PLL.PLLState));
  if ((RCC_OscInitStruct->PLL.PLLState) != RCC_PLL_NONE)
 80017a2:	687b      	ldr	r3, [r7, #4]
 80017a4:	699b      	ldr	r3, [r3, #24]
 80017a6:	2b00      	cmp	r3, #0
 80017a8:	f000 8092 	beq.w	80018d0 <HAL_RCC_OscConfig+0x4c8>
  {
    /* Check if the PLL is used as system clock or not */
    if(__HAL_RCC_GET_SYSCLK_SOURCE() != RCC_CFGR_SWS_PLL)
 80017ac:	4b4c      	ldr	r3, [pc, #304]	; (80018e0 <HAL_RCC_OscConfig+0x4d8>)
 80017ae:	689b      	ldr	r3, [r3, #8]
 80017b0:	f003 030c 	and.w	r3, r3, #12
 80017b4:	2b08      	cmp	r3, #8
 80017b6:	d05c      	beq.n	8001872 <HAL_RCC_OscConfig+0x46a>
    {
      if((RCC_OscInitStruct->PLL.PLLState) == RCC_PLL_ON)
 80017b8:	687b      	ldr	r3, [r7, #4]
 80017ba:	699b      	ldr	r3, [r3, #24]
 80017bc:	2b02      	cmp	r3, #2
 80017be:	d141      	bne.n	8001844 <HAL_RCC_OscConfig+0x43c>
        assert_param(IS_RCC_PLLN_VALUE(RCC_OscInitStruct->PLL.PLLN));
        assert_param(IS_RCC_PLLP_VALUE(RCC_OscInitStruct->PLL.PLLP));
        assert_param(IS_RCC_PLLQ_VALUE(RCC_OscInitStruct->PLL.PLLQ));

        /* Disable the main PLL. */
        __HAL_RCC_PLL_DISABLE();
 80017c0:	4b48      	ldr	r3, [pc, #288]	; (80018e4 <HAL_RCC_OscConfig+0x4dc>)
 80017c2:	2200      	movs	r2, #0
 80017c4:	601a      	str	r2, [r3, #0]

        /* Get Start Tick */
        tickstart = HAL_GetTick();
 80017c6:	f7ff f9b9 	bl	8000b3c <HAL_GetTick>
 80017ca:	6138      	str	r0, [r7, #16]

        /* Wait till PLL is ready */
        while(__HAL_RCC_GET_FLAG(RCC_FLAG_PLLRDY) != RESET)
 80017cc:	e008      	b.n	80017e0 <HAL_RCC_OscConfig+0x3d8>
        {
          if((HAL_GetTick() - tickstart ) > PLL_TIMEOUT_VALUE)
 80017ce:	f7ff f9b5 	bl	8000b3c <HAL_GetTick>
 80017d2:	4602      	mov	r2, r0
 80017d4:	693b      	ldr	r3, [r7, #16]
 80017d6:	1ad3      	subs	r3, r2, r3
 80017d8:	2b02      	cmp	r3, #2
 80017da:	d901      	bls.n	80017e0 <HAL_RCC_OscConfig+0x3d8>
          {
            return HAL_TIMEOUT;
 80017dc:	2303      	movs	r3, #3
 80017de:	e078      	b.n	80018d2 <HAL_RCC_OscConfig+0x4ca>
        while(__HAL_RCC_GET_FLAG(RCC_FLAG_PLLRDY) != RESET)
 80017e0:	4b3f      	ldr	r3, [pc, #252]	; (80018e0 <HAL_RCC_OscConfig+0x4d8>)
 80017e2:	681b      	ldr	r3, [r3, #0]
 80017e4:	f003 7300 	and.w	r3, r3, #33554432	; 0x2000000
 80017e8:	2b00      	cmp	r3, #0
 80017ea:	d1f0      	bne.n	80017ce <HAL_RCC_OscConfig+0x3c6>
          }
        }

        /* Configure the main PLL clock source, multiplication and division factors. */
        WRITE_REG(RCC->PLLCFGR, (RCC_OscInitStruct->PLL.PLLSource                                            | \
 80017ec:	687b      	ldr	r3, [r7, #4]
 80017ee:	69da      	ldr	r2, [r3, #28]
 80017f0:	687b      	ldr	r3, [r7, #4]
 80017f2:	6a1b      	ldr	r3, [r3, #32]
 80017f4:	431a      	orrs	r2, r3
 80017f6:	687b      	ldr	r3, [r7, #4]
 80017f8:	6a5b      	ldr	r3, [r3, #36]	; 0x24
 80017fa:	019b      	lsls	r3, r3, #6
 80017fc:	431a      	orrs	r2, r3
 80017fe:	687b      	ldr	r3, [r7, #4]
 8001800:	6a9b      	ldr	r3, [r3, #40]	; 0x28
 8001802:	085b      	lsrs	r3, r3, #1
 8001804:	3b01      	subs	r3, #1
 8001806:	041b      	lsls	r3, r3, #16
 8001808:	431a      	orrs	r2, r3
 800180a:	687b      	ldr	r3, [r7, #4]
 800180c:	6adb      	ldr	r3, [r3, #44]	; 0x2c
 800180e:	061b      	lsls	r3, r3, #24
 8001810:	4933      	ldr	r1, [pc, #204]	; (80018e0 <HAL_RCC_OscConfig+0x4d8>)
 8001812:	4313      	orrs	r3, r2
 8001814:	604b      	str	r3, [r1, #4]
                                 RCC_OscInitStruct->PLL.PLLM                                                 | \
                                 (RCC_OscInitStruct->PLL.PLLN << RCC_PLLCFGR_PLLN_Pos)             | \
                                 (((RCC_OscInitStruct->PLL.PLLP >> 1U) - 1U) << RCC_PLLCFGR_PLLP_Pos) | \
                                 (RCC_OscInitStruct->PLL.PLLQ << RCC_PLLCFGR_PLLQ_Pos)));
        /* Enable the main PLL. */
        __HAL_RCC_PLL_ENABLE();
 8001816:	4b33      	ldr	r3, [pc, #204]	; (80018e4 <HAL_RCC_OscConfig+0x4dc>)
 8001818:	2201      	movs	r2, #1
 800181a:	601a      	str	r2, [r3, #0]

        /* Get Start Tick */
        tickstart = HAL_GetTick();
 800181c:	f7ff f98e 	bl	8000b3c <HAL_GetTick>
 8001820:	6138      	str	r0, [r7, #16]

        /* Wait till PLL is ready */
        while(__HAL_RCC_GET_FLAG(RCC_FLAG_PLLRDY) == RESET)
 8001822:	e008      	b.n	8001836 <HAL_RCC_OscConfig+0x42e>
        {
          if((HAL_GetTick() - tickstart ) > PLL_TIMEOUT_VALUE)
 8001824:	f7ff f98a 	bl	8000b3c <HAL_GetTick>
 8001828:	4602      	mov	r2, r0
 800182a:	693b      	ldr	r3, [r7, #16]
 800182c:	1ad3      	subs	r3, r2, r3
 800182e:	2b02      	cmp	r3, #2
 8001830:	d901      	bls.n	8001836 <HAL_RCC_OscConfig+0x42e>
          {
            return HAL_TIMEOUT;
 8001832:	2303      	movs	r3, #3
 8001834:	e04d      	b.n	80018d2 <HAL_RCC_OscConfig+0x4ca>
        while(__HAL_RCC_GET_FLAG(RCC_FLAG_PLLRDY) == RESET)
 8001836:	4b2a      	ldr	r3, [pc, #168]	; (80018e0 <HAL_RCC_OscConfig+0x4d8>)
 8001838:	681b      	ldr	r3, [r3, #0]
 800183a:	f003 7300 	and.w	r3, r3, #33554432	; 0x2000000
 800183e:	2b00      	cmp	r3, #0
 8001840:	d0f0      	beq.n	8001824 <HAL_RCC_OscConfig+0x41c>
 8001842:	e045      	b.n	80018d0 <HAL_RCC_OscConfig+0x4c8>
        }
      }
      else
      {
        /* Disable the main PLL. */
        __HAL_RCC_PLL_DISABLE();
 8001844:	4b27      	ldr	r3, [pc, #156]	; (80018e4 <HAL_RCC_OscConfig+0x4dc>)
 8001846:	2200      	movs	r2, #0
 8001848:	601a      	str	r2, [r3, #0]

        /* Get Start Tick */
        tickstart = HAL_GetTick();
 800184a:	f7ff f977 	bl	8000b3c <HAL_GetTick>
 800184e:	6138      	str	r0, [r7, #16]

        /* Wait till PLL is ready */
        while(__HAL_RCC_GET_FLAG(RCC_FLAG_PLLRDY) != RESET)
 8001850:	e008      	b.n	8001864 <HAL_RCC_OscConfig+0x45c>
        {
          if((HAL_GetTick() - tickstart ) > PLL_TIMEOUT_VALUE)
 8001852:	f7ff f973 	bl	8000b3c <HAL_GetTick>
 8001856:	4602      	mov	r2, r0
 8001858:	693b      	ldr	r3, [r7, #16]
 800185a:	1ad3      	subs	r3, r2, r3
 800185c:	2b02      	cmp	r3, #2
 800185e:	d901      	bls.n	8001864 <HAL_RCC_OscConfig+0x45c>
          {
            return HAL_TIMEOUT;
 8001860:	2303      	movs	r3, #3
 8001862:	e036      	b.n	80018d2 <HAL_RCC_OscConfig+0x4ca>
        while(__HAL_RCC_GET_FLAG(RCC_FLAG_PLLRDY) != RESET)
 8001864:	4b1e      	ldr	r3, [pc, #120]	; (80018e0 <HAL_RCC_OscConfig+0x4d8>)
 8001866:	681b      	ldr	r3, [r3, #0]
 8001868:	f003 7300 	and.w	r3, r3, #33554432	; 0x2000000
 800186c:	2b00      	cmp	r3, #0
 800186e:	d1f0      	bne.n	8001852 <HAL_RCC_OscConfig+0x44a>
 8001870:	e02e      	b.n	80018d0 <HAL_RCC_OscConfig+0x4c8>
      }
    }
    else
    {
      /* Check if there is a request to disable the PLL used as System clock source */
      if((RCC_OscInitStruct->PLL.PLLState) == RCC_PLL_OFF)
 8001872:	687b      	ldr	r3, [r7, #4]
 8001874:	699b      	ldr	r3, [r3, #24]
 8001876:	2b01      	cmp	r3, #1
 8001878:	d101      	bne.n	800187e <HAL_RCC_OscConfig+0x476>
      {
        return HAL_ERROR;
 800187a:	2301      	movs	r3, #1
 800187c:	e029      	b.n	80018d2 <HAL_RCC_OscConfig+0x4ca>
      }
      else
      {
        /* Do not return HAL_ERROR if request repeats the current configuration */
        pll_config = RCC->PLLCFGR;
 800187e:	4b18      	ldr	r3, [pc, #96]	; (80018e0 <HAL_RCC_OscConfig+0x4d8>)
 8001880:	685b      	ldr	r3, [r3, #4]
 8001882:	60fb      	str	r3, [r7, #12]
        if((READ_BIT(pll_config, RCC_PLLCFGR_PLLSRC) != RCC_OscInitStruct->PLL.PLLSource) ||
 8001884:	68fb      	ldr	r3, [r7, #12]
 8001886:	f403 0280 	and.w	r2, r3, #4194304	; 0x400000
 800188a:	687b      	ldr	r3, [r7, #4]
 800188c:	69db      	ldr	r3, [r3, #28]
 800188e:	429a      	cmp	r2, r3
 8001890:	d11c      	bne.n	80018cc <HAL_RCC_OscConfig+0x4c4>
           (READ_BIT(pll_config, RCC_PLLCFGR_PLLM) != RCC_OscInitStruct->PLL.PLLM) ||
 8001892:	68fb      	ldr	r3, [r7, #12]
 8001894:	f003 023f 	and.w	r2, r3, #63	; 0x3f
 8001898:	687b      	ldr	r3, [r7, #4]
 800189a:	6a1b      	ldr	r3, [r3, #32]
        if((READ_BIT(pll_config, RCC_PLLCFGR_PLLSRC) != RCC_OscInitStruct->PLL.PLLSource) ||
 800189c:	429a      	cmp	r2, r3
 800189e:	d115      	bne.n	80018cc <HAL_RCC_OscConfig+0x4c4>
           (READ_BIT(pll_config, RCC_PLLCFGR_PLLN) != RCC_OscInitStruct->PLL.PLLN) ||
 80018a0:	68fa      	ldr	r2, [r7, #12]
 80018a2:	f647 73c0 	movw	r3, #32704	; 0x7fc0
 80018a6:	4013      	ands	r3, r2
 80018a8:	687a      	ldr	r2, [r7, #4]
 80018aa:	6a52      	ldr	r2, [r2, #36]	; 0x24
           (READ_BIT(pll_config, RCC_PLLCFGR_PLLM) != RCC_OscInitStruct->PLL.PLLM) ||
 80018ac:	4293      	cmp	r3, r2
 80018ae:	d10d      	bne.n	80018cc <HAL_RCC_OscConfig+0x4c4>
           (READ_BIT(pll_config, RCC_PLLCFGR_PLLP) != RCC_OscInitStruct->PLL.PLLP) ||
 80018b0:	68fb      	ldr	r3, [r7, #12]
 80018b2:	f403 3240 	and.w	r2, r3, #196608	; 0x30000
 80018b6:	687b      	ldr	r3, [r7, #4]
 80018b8:	6a9b      	ldr	r3, [r3, #40]	; 0x28
           (READ_BIT(pll_config, RCC_PLLCFGR_PLLN) != RCC_OscInitStruct->PLL.PLLN) ||
 80018ba:	429a      	cmp	r2, r3
 80018bc:	d106      	bne.n	80018cc <HAL_RCC_OscConfig+0x4c4>
           (READ_BIT(pll_config, RCC_PLLCFGR_PLLQ) != RCC_OscInitStruct->PLL.PLLQ))
 80018be:	68fb      	ldr	r3, [r7, #12]
 80018c0:	f003 6270 	and.w	r2, r3, #251658240	; 0xf000000
 80018c4:	687b      	ldr	r3, [r7, #4]
 80018c6:	6adb      	ldr	r3, [r3, #44]	; 0x2c
           (READ_BIT(pll_config, RCC_PLLCFGR_PLLP) != RCC_OscInitStruct->PLL.PLLP) ||
 80018c8:	429a      	cmp	r2, r3
 80018ca:	d001      	beq.n	80018d0 <HAL_RCC_OscConfig+0x4c8>
        {
          return HAL_ERROR;
 80018cc:	2301      	movs	r3, #1
 80018ce:	e000      	b.n	80018d2 <HAL_RCC_OscConfig+0x4ca>
        }
      }
    }
  }
  return HAL_OK;
 80018d0:	2300      	movs	r3, #0
}
 80018d2:	4618      	mov	r0, r3
 80018d4:	3718      	adds	r7, #24
 80018d6:	46bd      	mov	sp, r7
 80018d8:	bd80      	pop	{r7, pc}
 80018da:	bf00      	nop
 80018dc:	40007000 	.word	0x40007000
 80018e0:	40023800 	.word	0x40023800
 80018e4:	42470060 	.word	0x42470060

080018e8 <HAL_RCC_ClockConfig>:
  *         HPRE[3:0] bits to ensure that HCLK not exceed the maximum allowed frequency
  *         (for more details refer to section above "Initialization/de-initialization functions")
  * @retval None
  */
HAL_StatusTypeDef HAL_RCC_ClockConfig(RCC_ClkInitTypeDef  *RCC_ClkInitStruct, uint32_t FLatency)
{
 80018e8:	b580      	push	{r7, lr}
 80018ea:	b084      	sub	sp, #16
 80018ec:	af00      	add	r7, sp, #0
 80018ee:	6078      	str	r0, [r7, #4]
 80018f0:	6039      	str	r1, [r7, #0]
  uint32_t tickstart;

  /* Check Null pointer */
  if(RCC_ClkInitStruct == NULL)
 80018f2:	687b      	ldr	r3, [r7, #4]
 80018f4:	2b00      	cmp	r3, #0
 80018f6:	d101      	bne.n	80018fc <HAL_RCC_ClockConfig+0x14>
  {
    return HAL_ERROR;
 80018f8:	2301      	movs	r3, #1
 80018fa:	e0cc      	b.n	8001a96 <HAL_RCC_ClockConfig+0x1ae>
  /* To correctly read data from FLASH memory, the number of wait states (LATENCY)
    must be correctly programmed according to the frequency of the CPU clock
    (HCLK) and the supply voltage of the device. */

  /* Increasing the number of wait states because of higher CPU frequency */
  if(FLatency > __HAL_FLASH_GET_LATENCY())
 80018fc:	4b68      	ldr	r3, [pc, #416]	; (8001aa0 <HAL_RCC_ClockConfig+0x1b8>)
 80018fe:	681b      	ldr	r3, [r3, #0]
 8001900:	f003 030f 	and.w	r3, r3, #15
 8001904:	683a      	ldr	r2, [r7, #0]
 8001906:	429a      	cmp	r2, r3
 8001908:	d90c      	bls.n	8001924 <HAL_RCC_ClockConfig+0x3c>
  {
    /* Program the new number of wait states to the LATENCY bits in the FLASH_ACR register */
    __HAL_FLASH_SET_LATENCY(FLatency);
 800190a:	4b65      	ldr	r3, [pc, #404]	; (8001aa0 <HAL_RCC_ClockConfig+0x1b8>)
 800190c:	683a      	ldr	r2, [r7, #0]
 800190e:	b2d2      	uxtb	r2, r2
 8001910:	701a      	strb	r2, [r3, #0]

    /* Check that the new number of wait states is taken into account to access the Flash
    memory by reading the FLASH_ACR register */
    if(__HAL_FLASH_GET_LATENCY() != FLatency)
 8001912:	4b63      	ldr	r3, [pc, #396]	; (8001aa0 <HAL_RCC_ClockConfig+0x1b8>)
 8001914:	681b      	ldr	r3, [r3, #0]
 8001916:	f003 030f 	and.w	r3, r3, #15
 800191a:	683a      	ldr	r2, [r7, #0]
 800191c:	429a      	cmp	r2, r3
 800191e:	d001      	beq.n	8001924 <HAL_RCC_ClockConfig+0x3c>
    {
      return HAL_ERROR;
 8001920:	2301      	movs	r3, #1
 8001922:	e0b8      	b.n	8001a96 <HAL_RCC_ClockConfig+0x1ae>
    }
  }

  /*-------------------------- HCLK Configuration --------------------------*/
  if(((RCC_ClkInitStruct->ClockType) & RCC_CLOCKTYPE_HCLK) == RCC_CLOCKTYPE_HCLK)
 8001924:	687b      	ldr	r3, [r7, #4]
 8001926:	681b      	ldr	r3, [r3, #0]
 8001928:	f003 0302 	and.w	r3, r3, #2
 800192c:	2b00      	cmp	r3, #0
 800192e:	d020      	beq.n	8001972 <HAL_RCC_ClockConfig+0x8a>
  {
    /* Set the highest APBx dividers in order to ensure that we do not go through
       a non-spec phase whatever we decrease or increase HCLK. */
    if(((RCC_ClkInitStruct->ClockType) & RCC_CLOCKTYPE_PCLK1) == RCC_CLOCKTYPE_PCLK1)
 8001930:	687b      	ldr	r3, [r7, #4]
 8001932:	681b      	ldr	r3, [r3, #0]
 8001934:	f003 0304 	and.w	r3, r3, #4
 8001938:	2b00      	cmp	r3, #0
 800193a:	d005      	beq.n	8001948 <HAL_RCC_ClockConfig+0x60>
    {
      MODIFY_REG(RCC->CFGR, RCC_CFGR_PPRE1, RCC_HCLK_DIV16);
 800193c:	4b59      	ldr	r3, [pc, #356]	; (8001aa4 <HAL_RCC_ClockConfig+0x1bc>)
 800193e:	689b      	ldr	r3, [r3, #8]
 8001940:	4a58      	ldr	r2, [pc, #352]	; (8001aa4 <HAL_RCC_ClockConfig+0x1bc>)
 8001942:	f443 53e0 	orr.w	r3, r3, #7168	; 0x1c00
 8001946:	6093      	str	r3, [r2, #8]
    }

    if(((RCC_ClkInitStruct->ClockType) & RCC_CLOCKTYPE_PCLK2) == RCC_CLOCKTYPE_PCLK2)
 8001948:	687b      	ldr	r3, [r7, #4]
 800194a:	681b      	ldr	r3, [r3, #0]
 800194c:	f003 0308 	and.w	r3, r3, #8
 8001950:	2b00      	cmp	r3, #0
 8001952:	d005      	beq.n	8001960 <HAL_RCC_ClockConfig+0x78>
    {
      MODIFY_REG(RCC->CFGR, RCC_CFGR_PPRE2, (RCC_HCLK_DIV16 << 3));
 8001954:	4b53      	ldr	r3, [pc, #332]	; (8001aa4 <HAL_RCC_ClockConfig+0x1bc>)
 8001956:	689b      	ldr	r3, [r3, #8]
 8001958:	4a52      	ldr	r2, [pc, #328]	; (8001aa4 <HAL_RCC_ClockConfig+0x1bc>)
 800195a:	f443 4360 	orr.w	r3, r3, #57344	; 0xe000
 800195e:	6093      	str	r3, [r2, #8]
    }

    assert_param(IS_RCC_HCLK(RCC_ClkInitStruct->AHBCLKDivider));
    MODIFY_REG(RCC->CFGR, RCC_CFGR_HPRE, RCC_ClkInitStruct->AHBCLKDivider);
 8001960:	4b50      	ldr	r3, [pc, #320]	; (8001aa4 <HAL_RCC_ClockConfig+0x1bc>)
 8001962:	689b      	ldr	r3, [r3, #8]
 8001964:	f023 02f0 	bic.w	r2, r3, #240	; 0xf0
 8001968:	687b      	ldr	r3, [r7, #4]
 800196a:	689b      	ldr	r3, [r3, #8]
 800196c:	494d      	ldr	r1, [pc, #308]	; (8001aa4 <HAL_RCC_ClockConfig+0x1bc>)
 800196e:	4313      	orrs	r3, r2
 8001970:	608b      	str	r3, [r1, #8]
  }

  /*------------------------- SYSCLK Configuration ---------------------------*/
  if(((RCC_ClkInitStruct->ClockType) & RCC_CLOCKTYPE_SYSCLK) == RCC_CLOCKTYPE_SYSCLK)
 8001972:	687b      	ldr	r3, [r7, #4]
 8001974:	681b      	ldr	r3, [r3, #0]
 8001976:	f003 0301 	and.w	r3, r3, #1
 800197a:	2b00      	cmp	r3, #0
 800197c:	d044      	beq.n	8001a08 <HAL_RCC_ClockConfig+0x120>
  {
    assert_param(IS_RCC_SYSCLKSOURCE(RCC_ClkInitStruct->SYSCLKSource));

    /* HSE is selected as System Clock Source */
    if(RCC_ClkInitStruct->SYSCLKSource == RCC_SYSCLKSOURCE_HSE)
 800197e:	687b      	ldr	r3, [r7, #4]
 8001980:	685b      	ldr	r3, [r3, #4]
 8001982:	2b01      	cmp	r3, #1
 8001984:	d107      	bne.n	8001996 <HAL_RCC_ClockConfig+0xae>
    {
      /* Check the HSE ready flag */
      if(__HAL_RCC_GET_FLAG(RCC_FLAG_HSERDY) == RESET)
 8001986:	4b47      	ldr	r3, [pc, #284]	; (8001aa4 <HAL_RCC_ClockConfig+0x1bc>)
 8001988:	681b      	ldr	r3, [r3, #0]
 800198a:	f403 3300 	and.w	r3, r3, #131072	; 0x20000
 800198e:	2b00      	cmp	r3, #0
 8001990:	d119      	bne.n	80019c6 <HAL_RCC_ClockConfig+0xde>
      {
        return HAL_ERROR;
 8001992:	2301      	movs	r3, #1
 8001994:	e07f      	b.n	8001a96 <HAL_RCC_ClockConfig+0x1ae>
      }
    }
    /* PLL is selected as System Clock Source */
    else if((RCC_ClkInitStruct->SYSCLKSource == RCC_SYSCLKSOURCE_PLLCLK)   ||
 8001996:	687b      	ldr	r3, [r7, #4]
 8001998:	685b      	ldr	r3, [r3, #4]
 800199a:	2b02      	cmp	r3, #2
 800199c:	d003      	beq.n	80019a6 <HAL_RCC_ClockConfig+0xbe>
            (RCC_ClkInitStruct->SYSCLKSource == RCC_SYSCLKSOURCE_PLLRCLK))
 800199e:	687b      	ldr	r3, [r7, #4]
 80019a0:	685b      	ldr	r3, [r3, #4]
    else if((RCC_ClkInitStruct->SYSCLKSource == RCC_SYSCLKSOURCE_PLLCLK)   ||
 80019a2:	2b03      	cmp	r3, #3
 80019a4:	d107      	bne.n	80019b6 <HAL_RCC_ClockConfig+0xce>
    {
      /* Check the PLL ready flag */
      if(__HAL_RCC_GET_FLAG(RCC_FLAG_PLLRDY) == RESET)
 80019a6:	4b3f      	ldr	r3, [pc, #252]	; (8001aa4 <HAL_RCC_ClockConfig+0x1bc>)
 80019a8:	681b      	ldr	r3, [r3, #0]
 80019aa:	f003 7300 	and.w	r3, r3, #33554432	; 0x2000000
 80019ae:	2b00      	cmp	r3, #0
 80019b0:	d109      	bne.n	80019c6 <HAL_RCC_ClockConfig+0xde>
      {
        return HAL_ERROR;
 80019b2:	2301      	movs	r3, #1
 80019b4:	e06f      	b.n	8001a96 <HAL_RCC_ClockConfig+0x1ae>
    }
    /* HSI is selected as System Clock Source */
    else
    {
      /* Check the HSI ready flag */
      if(__HAL_RCC_GET_FLAG(RCC_FLAG_HSIRDY) == RESET)
 80019b6:	4b3b      	ldr	r3, [pc, #236]	; (8001aa4 <HAL_RCC_ClockConfig+0x1bc>)
 80019b8:	681b      	ldr	r3, [r3, #0]
 80019ba:	f003 0302 	and.w	r3, r3, #2
 80019be:	2b00      	cmp	r3, #0
 80019c0:	d101      	bne.n	80019c6 <HAL_RCC_ClockConfig+0xde>
      {
        return HAL_ERROR;
 80019c2:	2301      	movs	r3, #1
 80019c4:	e067      	b.n	8001a96 <HAL_RCC_ClockConfig+0x1ae>
      }
    }

    __HAL_RCC_SYSCLK_CONFIG(RCC_ClkInitStruct->SYSCLKSource);
 80019c6:	4b37      	ldr	r3, [pc, #220]	; (8001aa4 <HAL_RCC_ClockConfig+0x1bc>)
 80019c8:	689b      	ldr	r3, [r3, #8]
 80019ca:	f023 0203 	bic.w	r2, r3, #3
 80019ce:	687b      	ldr	r3, [r7, #4]
 80019d0:	685b      	ldr	r3, [r3, #4]
 80019d2:	4934      	ldr	r1, [pc, #208]	; (8001aa4 <HAL_RCC_ClockConfig+0x1bc>)
 80019d4:	4313      	orrs	r3, r2
 80019d6:	608b      	str	r3, [r1, #8]

    /* Get Start Tick */
    tickstart = HAL_GetTick();
 80019d8:	f7ff f8b0 	bl	8000b3c <HAL_GetTick>
 80019dc:	60f8      	str	r0, [r7, #12]

    while (__HAL_RCC_GET_SYSCLK_SOURCE() != (RCC_ClkInitStruct->SYSCLKSource << RCC_CFGR_SWS_Pos))
 80019de:	e00a      	b.n	80019f6 <HAL_RCC_ClockConfig+0x10e>
    {
      if ((HAL_GetTick() - tickstart) > CLOCKSWITCH_TIMEOUT_VALUE)
 80019e0:	f7ff f8ac 	bl	8000b3c <HAL_GetTick>
 80019e4:	4602      	mov	r2, r0
 80019e6:	68fb      	ldr	r3, [r7, #12]
 80019e8:	1ad3      	subs	r3, r2, r3
 80019ea:	f241 3288 	movw	r2, #5000	; 0x1388
 80019ee:	4293      	cmp	r3, r2
 80019f0:	d901      	bls.n	80019f6 <HAL_RCC_ClockConfig+0x10e>
      {
        return HAL_TIMEOUT;
 80019f2:	2303      	movs	r3, #3
 80019f4:	e04f      	b.n	8001a96 <HAL_RCC_ClockConfig+0x1ae>
    while (__HAL_RCC_GET_SYSCLK_SOURCE() != (RCC_ClkInitStruct->SYSCLKSource << RCC_CFGR_SWS_Pos))
 80019f6:	4b2b      	ldr	r3, [pc, #172]	; (8001aa4 <HAL_RCC_ClockConfig+0x1bc>)
 80019f8:	689b      	ldr	r3, [r3, #8]
 80019fa:	f003 020c 	and.w	r2, r3, #12
 80019fe:	687b      	ldr	r3, [r7, #4]
 8001a00:	685b      	ldr	r3, [r3, #4]
 8001a02:	009b      	lsls	r3, r3, #2
 8001a04:	429a      	cmp	r2, r3
 8001a06:	d1eb      	bne.n	80019e0 <HAL_RCC_ClockConfig+0xf8>
      }
    }
  }

  /* Decreasing the number of wait states because of lower CPU frequency */
  if(FLatency < __HAL_FLASH_GET_LATENCY())
 8001a08:	4b25      	ldr	r3, [pc, #148]	; (8001aa0 <HAL_RCC_ClockConfig+0x1b8>)
 8001a0a:	681b      	ldr	r3, [r3, #0]
 8001a0c:	f003 030f 	and.w	r3, r3, #15
 8001a10:	683a      	ldr	r2, [r7, #0]
 8001a12:	429a      	cmp	r2, r3
 8001a14:	d20c      	bcs.n	8001a30 <HAL_RCC_ClockConfig+0x148>
  {
     /* Program the new number of wait states to the LATENCY bits in the FLASH_ACR register */
    __HAL_FLASH_SET_LATENCY(FLatency);
 8001a16:	4b22      	ldr	r3, [pc, #136]	; (8001aa0 <HAL_RCC_ClockConfig+0x1b8>)
 8001a18:	683a      	ldr	r2, [r7, #0]
 8001a1a:	b2d2      	uxtb	r2, r2
 8001a1c:	701a      	strb	r2, [r3, #0]

    /* Check that the new number of wait states is taken into account to access the Flash
    memory by reading the FLASH_ACR register */
    if(__HAL_FLASH_GET_LATENCY() != FLatency)
 8001a1e:	4b20      	ldr	r3, [pc, #128]	; (8001aa0 <HAL_RCC_ClockConfig+0x1b8>)
 8001a20:	681b      	ldr	r3, [r3, #0]
 8001a22:	f003 030f 	and.w	r3, r3, #15
 8001a26:	683a      	ldr	r2, [r7, #0]
 8001a28:	429a      	cmp	r2, r3
 8001a2a:	d001      	beq.n	8001a30 <HAL_RCC_ClockConfig+0x148>
    {
      return HAL_ERROR;
 8001a2c:	2301      	movs	r3, #1
 8001a2e:	e032      	b.n	8001a96 <HAL_RCC_ClockConfig+0x1ae>
    }
  }

  /*-------------------------- PCLK1 Configuration ---------------------------*/
  if(((RCC_ClkInitStruct->ClockType) & RCC_CLOCKTYPE_PCLK1) == RCC_CLOCKTYPE_PCLK1)
 8001a30:	687b      	ldr	r3, [r7, #4]
 8001a32:	681b      	ldr	r3, [r3, #0]
 8001a34:	f003 0304 	and.w	r3, r3, #4
 8001a38:	2b00      	cmp	r3, #0
 8001a3a:	d008      	beq.n	8001a4e <HAL_RCC_ClockConfig+0x166>
  {
    assert_param(IS_RCC_PCLK(RCC_ClkInitStruct->APB1CLKDivider));
    MODIFY_REG(RCC->CFGR, RCC_CFGR_PPRE1, RCC_ClkInitStruct->APB1CLKDivider);
 8001a3c:	4b19      	ldr	r3, [pc, #100]	; (8001aa4 <HAL_RCC_ClockConfig+0x1bc>)
 8001a3e:	689b      	ldr	r3, [r3, #8]
 8001a40:	f423 52e0 	bic.w	r2, r3, #7168	; 0x1c00
 8001a44:	687b      	ldr	r3, [r7, #4]
 8001a46:	68db      	ldr	r3, [r3, #12]
 8001a48:	4916      	ldr	r1, [pc, #88]	; (8001aa4 <HAL_RCC_ClockConfig+0x1bc>)
 8001a4a:	4313      	orrs	r3, r2
 8001a4c:	608b      	str	r3, [r1, #8]
  }

  /*-------------------------- PCLK2 Configuration ---------------------------*/
  if(((RCC_ClkInitStruct->ClockType) & RCC_CLOCKTYPE_PCLK2) == RCC_CLOCKTYPE_PCLK2)
 8001a4e:	687b      	ldr	r3, [r7, #4]
 8001a50:	681b      	ldr	r3, [r3, #0]
 8001a52:	f003 0308 	and.w	r3, r3, #8
 8001a56:	2b00      	cmp	r3, #0
 8001a58:	d009      	beq.n	8001a6e <HAL_RCC_ClockConfig+0x186>
  {
    assert_param(IS_RCC_PCLK(RCC_ClkInitStruct->APB2CLKDivider));
    MODIFY_REG(RCC->CFGR, RCC_CFGR_PPRE2, ((RCC_ClkInitStruct->APB2CLKDivider) << 3U));
 8001a5a:	4b12      	ldr	r3, [pc, #72]	; (8001aa4 <HAL_RCC_ClockConfig+0x1bc>)
 8001a5c:	689b      	ldr	r3, [r3, #8]
 8001a5e:	f423 4260 	bic.w	r2, r3, #57344	; 0xe000
 8001a62:	687b      	ldr	r3, [r7, #4]
 8001a64:	691b      	ldr	r3, [r3, #16]
 8001a66:	00db      	lsls	r3, r3, #3
 8001a68:	490e      	ldr	r1, [pc, #56]	; (8001aa4 <HAL_RCC_ClockConfig+0x1bc>)
 8001a6a:	4313      	orrs	r3, r2
 8001a6c:	608b      	str	r3, [r1, #8]
  }

  /* Update the SystemCoreClock global variable */
  SystemCoreClock = HAL_RCC_GetSysClockFreq() >> AHBPrescTable[(RCC->CFGR & RCC_CFGR_HPRE)>> RCC_CFGR_HPRE_Pos];
 8001a6e:	f000 f821 	bl	8001ab4 <HAL_RCC_GetSysClockFreq>
 8001a72:	4601      	mov	r1, r0
 8001a74:	4b0b      	ldr	r3, [pc, #44]	; (8001aa4 <HAL_RCC_ClockConfig+0x1bc>)
 8001a76:	689b      	ldr	r3, [r3, #8]
 8001a78:	091b      	lsrs	r3, r3, #4
 8001a7a:	f003 030f 	and.w	r3, r3, #15
 8001a7e:	4a0a      	ldr	r2, [pc, #40]	; (8001aa8 <HAL_RCC_ClockConfig+0x1c0>)
 8001a80:	5cd3      	ldrb	r3, [r2, r3]
 8001a82:	fa21 f303 	lsr.w	r3, r1, r3
 8001a86:	4a09      	ldr	r2, [pc, #36]	; (8001aac <HAL_RCC_ClockConfig+0x1c4>)
 8001a88:	6013      	str	r3, [r2, #0]

  /* Configure the source of time base considering new system clocks settings */
  HAL_InitTick (uwTickPrio);
 8001a8a:	4b09      	ldr	r3, [pc, #36]	; (8001ab0 <HAL_RCC_ClockConfig+0x1c8>)
 8001a8c:	681b      	ldr	r3, [r3, #0]
 8001a8e:	4618      	mov	r0, r3
 8001a90:	f7fe fee0 	bl	8000854 <HAL_InitTick>

  return HAL_OK;
 8001a94:	2300      	movs	r3, #0
}
 8001a96:	4618      	mov	r0, r3
 8001a98:	3710      	adds	r7, #16
 8001a9a:	46bd      	mov	sp, r7
 8001a9c:	bd80      	pop	{r7, pc}
 8001a9e:	bf00      	nop
 8001aa0:	40023c00 	.word	0x40023c00
 8001aa4:	40023800 	.word	0x40023800
 8001aa8:	0800555c 	.word	0x0800555c
 8001aac:	20000000 	.word	0x20000000
 8001ab0:	20000004 	.word	0x20000004

08001ab4 <HAL_RCC_GetSysClockFreq>:
  *
  *
  * @retval SYSCLK frequency
  */
__weak uint32_t HAL_RCC_GetSysClockFreq(void)
{
 8001ab4:	b5f0      	push	{r4, r5, r6, r7, lr}
 8001ab6:	b085      	sub	sp, #20
 8001ab8:	af00      	add	r7, sp, #0
  uint32_t pllm = 0U, pllvco = 0U, pllp = 0U;
 8001aba:	2300      	movs	r3, #0
 8001abc:	607b      	str	r3, [r7, #4]
 8001abe:	2300      	movs	r3, #0
 8001ac0:	60fb      	str	r3, [r7, #12]
 8001ac2:	2300      	movs	r3, #0
 8001ac4:	603b      	str	r3, [r7, #0]
  uint32_t sysclockfreq = 0U;
 8001ac6:	2300      	movs	r3, #0
 8001ac8:	60bb      	str	r3, [r7, #8]

  /* Get SYSCLK source -------------------------------------------------------*/
  switch (RCC->CFGR & RCC_CFGR_SWS)
 8001aca:	4b63      	ldr	r3, [pc, #396]	; (8001c58 <HAL_RCC_GetSysClockFreq+0x1a4>)
 8001acc:	689b      	ldr	r3, [r3, #8]
 8001ace:	f003 030c 	and.w	r3, r3, #12
 8001ad2:	2b04      	cmp	r3, #4
 8001ad4:	d007      	beq.n	8001ae6 <HAL_RCC_GetSysClockFreq+0x32>
 8001ad6:	2b08      	cmp	r3, #8
 8001ad8:	d008      	beq.n	8001aec <HAL_RCC_GetSysClockFreq+0x38>
 8001ada:	2b00      	cmp	r3, #0
 8001adc:	f040 80b4 	bne.w	8001c48 <HAL_RCC_GetSysClockFreq+0x194>
  {
    case RCC_CFGR_SWS_HSI:  /* HSI used as system clock source */
    {
      sysclockfreq = HSI_VALUE;
 8001ae0:	4b5e      	ldr	r3, [pc, #376]	; (8001c5c <HAL_RCC_GetSysClockFreq+0x1a8>)
 8001ae2:	60bb      	str	r3, [r7, #8]
       break;
 8001ae4:	e0b3      	b.n	8001c4e <HAL_RCC_GetSysClockFreq+0x19a>
    }
    case RCC_CFGR_SWS_HSE:  /* HSE used as system clock  source */
    {
      sysclockfreq = HSE_VALUE;
 8001ae6:	4b5e      	ldr	r3, [pc, #376]	; (8001c60 <HAL_RCC_GetSysClockFreq+0x1ac>)
 8001ae8:	60bb      	str	r3, [r7, #8]
      break;
 8001aea:	e0b0      	b.n	8001c4e <HAL_RCC_GetSysClockFreq+0x19a>
    }
    case RCC_CFGR_SWS_PLL:  /* PLL used as system clock  source */
    {
      /* PLL_VCO = (HSE_VALUE or HSI_VALUE / PLLM) * PLLN
      SYSCLK = PLL_VCO / PLLP */
      pllm = RCC->PLLCFGR & RCC_PLLCFGR_PLLM;
 8001aec:	4b5a      	ldr	r3, [pc, #360]	; (8001c58 <HAL_RCC_GetSysClockFreq+0x1a4>)
 8001aee:	685b      	ldr	r3, [r3, #4]
 8001af0:	f003 033f 	and.w	r3, r3, #63	; 0x3f
 8001af4:	607b      	str	r3, [r7, #4]
      if(__HAL_RCC_GET_PLL_OSCSOURCE() != RCC_PLLSOURCE_HSI)
 8001af6:	4b58      	ldr	r3, [pc, #352]	; (8001c58 <HAL_RCC_GetSysClockFreq+0x1a4>)
 8001af8:	685b      	ldr	r3, [r3, #4]
 8001afa:	f403 0380 	and.w	r3, r3, #4194304	; 0x400000
 8001afe:	2b00      	cmp	r3, #0
 8001b00:	d04a      	beq.n	8001b98 <HAL_RCC_GetSysClockFreq+0xe4>
      {
        /* HSE used as PLL clock source */
        pllvco = (uint32_t) ((((uint64_t) HSE_VALUE * ((uint64_t) ((RCC->PLLCFGR & RCC_PLLCFGR_PLLN) >> RCC_PLLCFGR_PLLN_Pos)))) / (uint64_t)pllm);
 8001b02:	4b55      	ldr	r3, [pc, #340]	; (8001c58 <HAL_RCC_GetSysClockFreq+0x1a4>)
 8001b04:	685b      	ldr	r3, [r3, #4]
 8001b06:	099b      	lsrs	r3, r3, #6
 8001b08:	f04f 0400 	mov.w	r4, #0
 8001b0c:	f240 11ff 	movw	r1, #511	; 0x1ff
 8001b10:	f04f 0200 	mov.w	r2, #0
 8001b14:	ea03 0501 	and.w	r5, r3, r1
 8001b18:	ea04 0602 	and.w	r6, r4, r2
 8001b1c:	4629      	mov	r1, r5
 8001b1e:	4632      	mov	r2, r6
 8001b20:	f04f 0300 	mov.w	r3, #0
 8001b24:	f04f 0400 	mov.w	r4, #0
 8001b28:	0154      	lsls	r4, r2, #5
 8001b2a:	ea44 64d1 	orr.w	r4, r4, r1, lsr #27
 8001b2e:	014b      	lsls	r3, r1, #5
 8001b30:	4619      	mov	r1, r3
 8001b32:	4622      	mov	r2, r4
 8001b34:	1b49      	subs	r1, r1, r5
 8001b36:	eb62 0206 	sbc.w	r2, r2, r6
 8001b3a:	f04f 0300 	mov.w	r3, #0
 8001b3e:	f04f 0400 	mov.w	r4, #0
 8001b42:	0194      	lsls	r4, r2, #6
 8001b44:	ea44 6491 	orr.w	r4, r4, r1, lsr #26
 8001b48:	018b      	lsls	r3, r1, #6
 8001b4a:	1a5b      	subs	r3, r3, r1
 8001b4c:	eb64 0402 	sbc.w	r4, r4, r2
 8001b50:	f04f 0100 	mov.w	r1, #0
 8001b54:	f04f 0200 	mov.w	r2, #0
 8001b58:	00e2      	lsls	r2, r4, #3
 8001b5a:	ea42 7253 	orr.w	r2, r2, r3, lsr #29
 8001b5e:	00d9      	lsls	r1, r3, #3
 8001b60:	460b      	mov	r3, r1
 8001b62:	4614      	mov	r4, r2
 8001b64:	195b      	adds	r3, r3, r5
 8001b66:	eb44 0406 	adc.w	r4, r4, r6
 8001b6a:	f04f 0100 	mov.w	r1, #0
 8001b6e:	f04f 0200 	mov.w	r2, #0
 8001b72:	0262      	lsls	r2, r4, #9
 8001b74:	ea42 52d3 	orr.w	r2, r2, r3, lsr #23
 8001b78:	0259      	lsls	r1, r3, #9
 8001b7a:	460b      	mov	r3, r1
 8001b7c:	4614      	mov	r4, r2
 8001b7e:	4618      	mov	r0, r3
 8001b80:	4621      	mov	r1, r4
 8001b82:	687b      	ldr	r3, [r7, #4]
 8001b84:	f04f 0400 	mov.w	r4, #0
 8001b88:	461a      	mov	r2, r3
 8001b8a:	4623      	mov	r3, r4
 8001b8c:	f7fe fb28 	bl	80001e0 <__aeabi_uldivmod>
 8001b90:	4603      	mov	r3, r0
 8001b92:	460c      	mov	r4, r1
 8001b94:	60fb      	str	r3, [r7, #12]
 8001b96:	e049      	b.n	8001c2c <HAL_RCC_GetSysClockFreq+0x178>
      }
      else
      {
        /* HSI used as PLL clock source */
        pllvco = (uint32_t) ((((uint64_t) HSI_VALUE * ((uint64_t) ((RCC->PLLCFGR & RCC_PLLCFGR_PLLN) >> RCC_PLLCFGR_PLLN_Pos)))) / (uint64_t)pllm);
 8001b98:	4b2f      	ldr	r3, [pc, #188]	; (8001c58 <HAL_RCC_GetSysClockFreq+0x1a4>)
 8001b9a:	685b      	ldr	r3, [r3, #4]
 8001b9c:	099b      	lsrs	r3, r3, #6
 8001b9e:	f04f 0400 	mov.w	r4, #0
 8001ba2:	f240 11ff 	movw	r1, #511	; 0x1ff
 8001ba6:	f04f 0200 	mov.w	r2, #0
 8001baa:	ea03 0501 	and.w	r5, r3, r1
 8001bae:	ea04 0602 	and.w	r6, r4, r2
 8001bb2:	4629      	mov	r1, r5
 8001bb4:	4632      	mov	r2, r6
 8001bb6:	f04f 0300 	mov.w	r3, #0
 8001bba:	f04f 0400 	mov.w	r4, #0
 8001bbe:	0154      	lsls	r4, r2, #5
 8001bc0:	ea44 64d1 	orr.w	r4, r4, r1, lsr #27
 8001bc4:	014b      	lsls	r3, r1, #5
 8001bc6:	4619      	mov	r1, r3
 8001bc8:	4622      	mov	r2, r4
 8001bca:	1b49      	subs	r1, r1, r5
 8001bcc:	eb62 0206 	sbc.w	r2, r2, r6
 8001bd0:	f04f 0300 	mov.w	r3, #0
 8001bd4:	f04f 0400 	mov.w	r4, #0
 8001bd8:	0194      	lsls	r4, r2, #6
 8001bda:	ea44 6491 	orr.w	r4, r4, r1, lsr #26
 8001bde:	018b      	lsls	r3, r1, #6
 8001be0:	1a5b      	subs	r3, r3, r1
 8001be2:	eb64 0402 	sbc.w	r4, r4, r2
 8001be6:	f04f 0100 	mov.w	r1, #0
 8001bea:	f04f 0200 	mov.w	r2, #0
 8001bee:	00e2      	lsls	r2, r4, #3
 8001bf0:	ea42 7253 	orr.w	r2, r2, r3, lsr #29
 8001bf4:	00d9      	lsls	r1, r3, #3
 8001bf6:	460b      	mov	r3, r1
 8001bf8:	4614      	mov	r4, r2
 8001bfa:	195b      	adds	r3, r3, r5
 8001bfc:	eb44 0406 	adc.w	r4, r4, r6
 8001c00:	f04f 0100 	mov.w	r1, #0
 8001c04:	f04f 0200 	mov.w	r2, #0
 8001c08:	02a2      	lsls	r2, r4, #10
 8001c0a:	ea42 5293 	orr.w	r2, r2, r3, lsr #22
 8001c0e:	0299      	lsls	r1, r3, #10
 8001c10:	460b      	mov	r3, r1
 8001c12:	4614      	mov	r4, r2
 8001c14:	4618      	mov	r0, r3
 8001c16:	4621      	mov	r1, r4
 8001c18:	687b      	ldr	r3, [r7, #4]
 8001c1a:	f04f 0400 	mov.w	r4, #0
 8001c1e:	461a      	mov	r2, r3
 8001c20:	4623      	mov	r3, r4
 8001c22:	f7fe fadd 	bl	80001e0 <__aeabi_uldivmod>
 8001c26:	4603      	mov	r3, r0
 8001c28:	460c      	mov	r4, r1
 8001c2a:	60fb      	str	r3, [r7, #12]
      }
      pllp = ((((RCC->PLLCFGR & RCC_PLLCFGR_PLLP) >> RCC_PLLCFGR_PLLP_Pos) + 1U) *2U);
 8001c2c:	4b0a      	ldr	r3, [pc, #40]	; (8001c58 <HAL_RCC_GetSysClockFreq+0x1a4>)
 8001c2e:	685b      	ldr	r3, [r3, #4]
 8001c30:	0c1b      	lsrs	r3, r3, #16
 8001c32:	f003 0303 	and.w	r3, r3, #3
 8001c36:	3301      	adds	r3, #1
 8001c38:	005b      	lsls	r3, r3, #1
 8001c3a:	603b      	str	r3, [r7, #0]

      sysclockfreq = pllvco/pllp;
 8001c3c:	68fa      	ldr	r2, [r7, #12]
 8001c3e:	683b      	ldr	r3, [r7, #0]
 8001c40:	fbb2 f3f3 	udiv	r3, r2, r3
 8001c44:	60bb      	str	r3, [r7, #8]
      break;
 8001c46:	e002      	b.n	8001c4e <HAL_RCC_GetSysClockFreq+0x19a>
    }
    default:
    {
      sysclockfreq = HSI_VALUE;
 8001c48:	4b04      	ldr	r3, [pc, #16]	; (8001c5c <HAL_RCC_GetSysClockFreq+0x1a8>)
 8001c4a:	60bb      	str	r3, [r7, #8]
      break;
 8001c4c:	bf00      	nop
    }
  }
  return sysclockfreq;
 8001c4e:	68bb      	ldr	r3, [r7, #8]
}
 8001c50:	4618      	mov	r0, r3
 8001c52:	3714      	adds	r7, #20
 8001c54:	46bd      	mov	sp, r7
 8001c56:	bdf0      	pop	{r4, r5, r6, r7, pc}
 8001c58:	40023800 	.word	0x40023800
 8001c5c:	00f42400 	.word	0x00f42400
 8001c60:	007a1200 	.word	0x007a1200

08001c64 <HAL_RCC_GetHCLKFreq>:
  * @note   The SystemCoreClock CMSIS variable is used to store System Clock Frequency
  *         and updated within this function
  * @retval HCLK frequency
  */
uint32_t HAL_RCC_GetHCLKFreq(void)
{
 8001c64:	b480      	push	{r7}
 8001c66:	af00      	add	r7, sp, #0
  return SystemCoreClock;
 8001c68:	4b03      	ldr	r3, [pc, #12]	; (8001c78 <HAL_RCC_GetHCLKFreq+0x14>)
 8001c6a:	681b      	ldr	r3, [r3, #0]
}
 8001c6c:	4618      	mov	r0, r3
 8001c6e:	46bd      	mov	sp, r7
 8001c70:	f85d 7b04 	ldr.w	r7, [sp], #4
 8001c74:	4770      	bx	lr
 8001c76:	bf00      	nop
 8001c78:	20000000 	.word	0x20000000

08001c7c <HAL_RCC_GetPCLK1Freq>:
  * @note   Each time PCLK1 changes, this function must be called to update the
  *         right PCLK1 value. Otherwise, any configuration based on this function will be incorrect.
  * @retval PCLK1 frequency
  */
uint32_t HAL_RCC_GetPCLK1Freq(void)
{
 8001c7c:	b580      	push	{r7, lr}
 8001c7e:	af00      	add	r7, sp, #0
  /* Get HCLK source and Compute PCLK1 frequency ---------------------------*/
  return (HAL_RCC_GetHCLKFreq() >> APBPrescTable[(RCC->CFGR & RCC_CFGR_PPRE1)>> RCC_CFGR_PPRE1_Pos]);
 8001c80:	f7ff fff0 	bl	8001c64 <HAL_RCC_GetHCLKFreq>
 8001c84:	4601      	mov	r1, r0
 8001c86:	4b05      	ldr	r3, [pc, #20]	; (8001c9c <HAL_RCC_GetPCLK1Freq+0x20>)
 8001c88:	689b      	ldr	r3, [r3, #8]
 8001c8a:	0a9b      	lsrs	r3, r3, #10
 8001c8c:	f003 0307 	and.w	r3, r3, #7
 8001c90:	4a03      	ldr	r2, [pc, #12]	; (8001ca0 <HAL_RCC_GetPCLK1Freq+0x24>)
 8001c92:	5cd3      	ldrb	r3, [r2, r3]
 8001c94:	fa21 f303 	lsr.w	r3, r1, r3
}
 8001c98:	4618      	mov	r0, r3
 8001c9a:	bd80      	pop	{r7, pc}
 8001c9c:	40023800 	.word	0x40023800
 8001ca0:	0800556c 	.word	0x0800556c

08001ca4 <HAL_RCC_GetPCLK2Freq>:
  * @note   Each time PCLK2 changes, this function must be called to update the
  *         right PCLK2 value. Otherwise, any configuration based on this function will be incorrect.
  * @retval PCLK2 frequency
  */
uint32_t HAL_RCC_GetPCLK2Freq(void)
{
 8001ca4:	b580      	push	{r7, lr}
 8001ca6:	af00      	add	r7, sp, #0
  /* Get HCLK source and Compute PCLK2 frequency ---------------------------*/
  return (HAL_RCC_GetHCLKFreq()>> APBPrescTable[(RCC->CFGR & RCC_CFGR_PPRE2)>> RCC_CFGR_PPRE2_Pos]);
 8001ca8:	f7ff ffdc 	bl	8001c64 <HAL_RCC_GetHCLKFreq>
 8001cac:	4601      	mov	r1, r0
 8001cae:	4b05      	ldr	r3, [pc, #20]	; (8001cc4 <HAL_RCC_GetPCLK2Freq+0x20>)
 8001cb0:	689b      	ldr	r3, [r3, #8]
 8001cb2:	0b5b      	lsrs	r3, r3, #13
 8001cb4:	f003 0307 	and.w	r3, r3, #7
 8001cb8:	4a03      	ldr	r2, [pc, #12]	; (8001cc8 <HAL_RCC_GetPCLK2Freq+0x24>)
 8001cba:	5cd3      	ldrb	r3, [r2, r3]
 8001cbc:	fa21 f303 	lsr.w	r3, r1, r3
}
 8001cc0:	4618      	mov	r0, r3
 8001cc2:	bd80      	pop	{r7, pc}
 8001cc4:	40023800 	.word	0x40023800
 8001cc8:	0800556c 	.word	0x0800556c

08001ccc <HAL_RCC_GetClockConfig>:
  * will be configured.
  * @param  pFLatency Pointer on the Flash Latency.
  * @retval None
  */
void HAL_RCC_GetClockConfig(RCC_ClkInitTypeDef  *RCC_ClkInitStruct, uint32_t *pFLatency)
{
 8001ccc:	b480      	push	{r7}
 8001cce:	b083      	sub	sp, #12
 8001cd0:	af00      	add	r7, sp, #0
 8001cd2:	6078      	str	r0, [r7, #4]
 8001cd4:	6039      	str	r1, [r7, #0]
  /* Set all possible values for the Clock type parameter --------------------*/
  RCC_ClkInitStruct->ClockType = RCC_CLOCKTYPE_SYSCLK | RCC_CLOCKTYPE_HCLK | RCC_CLOCKTYPE_PCLK1 | RCC_CLOCKTYPE_PCLK2;
 8001cd6:	687b      	ldr	r3, [r7, #4]
 8001cd8:	220f      	movs	r2, #15
 8001cda:	601a      	str	r2, [r3, #0]

  /* Get the SYSCLK configuration --------------------------------------------*/
  RCC_ClkInitStruct->SYSCLKSource = (uint32_t)(RCC->CFGR & RCC_CFGR_SW);
 8001cdc:	4b12      	ldr	r3, [pc, #72]	; (8001d28 <HAL_RCC_GetClockConfig+0x5c>)
 8001cde:	689b      	ldr	r3, [r3, #8]
 8001ce0:	f003 0203 	and.w	r2, r3, #3
 8001ce4:	687b      	ldr	r3, [r7, #4]
 8001ce6:	605a      	str	r2, [r3, #4]

  /* Get the HCLK configuration ----------------------------------------------*/
  RCC_ClkInitStruct->AHBCLKDivider = (uint32_t)(RCC->CFGR & RCC_CFGR_HPRE);
 8001ce8:	4b0f      	ldr	r3, [pc, #60]	; (8001d28 <HAL_RCC_GetClockConfig+0x5c>)
 8001cea:	689b      	ldr	r3, [r3, #8]
 8001cec:	f003 02f0 	and.w	r2, r3, #240	; 0xf0
 8001cf0:	687b      	ldr	r3, [r7, #4]
 8001cf2:	609a      	str	r2, [r3, #8]

  /* Get the APB1 configuration ----------------------------------------------*/
  RCC_ClkInitStruct->APB1CLKDivider = (uint32_t)(RCC->CFGR & RCC_CFGR_PPRE1);
 8001cf4:	4b0c      	ldr	r3, [pc, #48]	; (8001d28 <HAL_RCC_GetClockConfig+0x5c>)
 8001cf6:	689b      	ldr	r3, [r3, #8]
 8001cf8:	f403 52e0 	and.w	r2, r3, #7168	; 0x1c00
 8001cfc:	687b      	ldr	r3, [r7, #4]
 8001cfe:	60da      	str	r2, [r3, #12]

  /* Get the APB2 configuration ----------------------------------------------*/
  RCC_ClkInitStruct->APB2CLKDivider = (uint32_t)((RCC->CFGR & RCC_CFGR_PPRE2) >> 3U);
 8001d00:	4b09      	ldr	r3, [pc, #36]	; (8001d28 <HAL_RCC_GetClockConfig+0x5c>)
 8001d02:	689b      	ldr	r3, [r3, #8]
 8001d04:	08db      	lsrs	r3, r3, #3
 8001d06:	f403 52e0 	and.w	r2, r3, #7168	; 0x1c00
 8001d0a:	687b      	ldr	r3, [r7, #4]
 8001d0c:	611a      	str	r2, [r3, #16]

  /* Get the Flash Wait State (Latency) configuration ------------------------*/
  *pFLatency = (uint32_t)(FLASH->ACR & FLASH_ACR_LATENCY);
 8001d0e:	4b07      	ldr	r3, [pc, #28]	; (8001d2c <HAL_RCC_GetClockConfig+0x60>)
 8001d10:	681b      	ldr	r3, [r3, #0]
 8001d12:	f003 020f 	and.w	r2, r3, #15
 8001d16:	683b      	ldr	r3, [r7, #0]
 8001d18:	601a      	str	r2, [r3, #0]
}
 8001d1a:	bf00      	nop
 8001d1c:	370c      	adds	r7, #12
 8001d1e:	46bd      	mov	sp, r7
 8001d20:	f85d 7b04 	ldr.w	r7, [sp], #4
 8001d24:	4770      	bx	lr
 8001d26:	bf00      	nop
 8001d28:	40023800 	.word	0x40023800
 8001d2c:	40023c00 	.word	0x40023c00

08001d30 <HAL_TIM_Base_Init>:
  *         Ex: call @ref HAL_TIM_Base_DeInit() before HAL_TIM_Base_Init()
  * @param  htim TIM Base handle
  * @retval HAL status
  */
HAL_StatusTypeDef HAL_TIM_Base_Init(TIM_HandleTypeDef *htim)
{
 8001d30:	b580      	push	{r7, lr}
 8001d32:	b082      	sub	sp, #8
 8001d34:	af00      	add	r7, sp, #0
 8001d36:	6078      	str	r0, [r7, #4]
  /* Check the TIM handle allocation */
  if (htim == NULL)
 8001d38:	687b      	ldr	r3, [r7, #4]
 8001d3a:	2b00      	cmp	r3, #0
 8001d3c:	d101      	bne.n	8001d42 <HAL_TIM_Base_Init+0x12>
  {
    return HAL_ERROR;
 8001d3e:	2301      	movs	r3, #1
 8001d40:	e01d      	b.n	8001d7e <HAL_TIM_Base_Init+0x4e>
  assert_param(IS_TIM_INSTANCE(htim->Instance));
  assert_param(IS_TIM_COUNTER_MODE(htim->Init.CounterMode));
  assert_param(IS_TIM_CLOCKDIVISION_DIV(htim->Init.ClockDivision));
  assert_param(IS_TIM_AUTORELOAD_PRELOAD(htim->Init.AutoReloadPreload));

  if (htim->State == HAL_TIM_STATE_RESET)
 8001d42:	687b      	ldr	r3, [r7, #4]
 8001d44:	f893 303d 	ldrb.w	r3, [r3, #61]	; 0x3d
 8001d48:	b2db      	uxtb	r3, r3
 8001d4a:	2b00      	cmp	r3, #0
 8001d4c:	d106      	bne.n	8001d5c <HAL_TIM_Base_Init+0x2c>
  {
    /* Allocate lock resource and initialize it */
    htim->Lock = HAL_UNLOCKED;
 8001d4e:	687b      	ldr	r3, [r7, #4]
 8001d50:	2200      	movs	r2, #0
 8001d52:	f883 203c 	strb.w	r2, [r3, #60]	; 0x3c
    }
    /* Init the low level hardware : GPIO, CLOCK, NVIC */
    htim->Base_MspInitCallback(htim);
#else
    /* Init the low level hardware : GPIO, CLOCK, NVIC */
    HAL_TIM_Base_MspInit(htim);
 8001d56:	6878      	ldr	r0, [r7, #4]
 8001d58:	f000 f815 	bl	8001d86 <HAL_TIM_Base_MspInit>
#endif /* USE_HAL_TIM_REGISTER_CALLBACKS */
  }

  /* Set the TIM state */
  htim->State = HAL_TIM_STATE_BUSY;
 8001d5c:	687b      	ldr	r3, [r7, #4]
 8001d5e:	2202      	movs	r2, #2
 8001d60:	f883 203d 	strb.w	r2, [r3, #61]	; 0x3d

  /* Set the Time Base configuration */
  TIM_Base_SetConfig(htim->Instance, &htim->Init);
 8001d64:	687b      	ldr	r3, [r7, #4]
 8001d66:	681a      	ldr	r2, [r3, #0]
 8001d68:	687b      	ldr	r3, [r7, #4]
 8001d6a:	3304      	adds	r3, #4
 8001d6c:	4619      	mov	r1, r3
 8001d6e:	4610      	mov	r0, r2
 8001d70:	f000 f968 	bl	8002044 <TIM_Base_SetConfig>

  /* Initialize the TIM state*/
  htim->State = HAL_TIM_STATE_READY;
 8001d74:	687b      	ldr	r3, [r7, #4]
 8001d76:	2201      	movs	r2, #1
 8001d78:	f883 203d 	strb.w	r2, [r3, #61]	; 0x3d

  return HAL_OK;
 8001d7c:	2300      	movs	r3, #0
}
 8001d7e:	4618      	mov	r0, r3
 8001d80:	3708      	adds	r7, #8
 8001d82:	46bd      	mov	sp, r7
 8001d84:	bd80      	pop	{r7, pc}

08001d86 <HAL_TIM_Base_MspInit>:
  * @brief  Initializes the TIM Base MSP.
  * @param  htim TIM Base handle
  * @retval None
  */
__weak void HAL_TIM_Base_MspInit(TIM_HandleTypeDef *htim)
{
 8001d86:	b480      	push	{r7}
 8001d88:	b083      	sub	sp, #12
 8001d8a:	af00      	add	r7, sp, #0
 8001d8c:	6078      	str	r0, [r7, #4]
  UNUSED(htim);

  /* NOTE : This function should not be modified, when the callback is needed,
            the HAL_TIM_Base_MspInit could be implemented in the user file
   */
}
 8001d8e:	bf00      	nop
 8001d90:	370c      	adds	r7, #12
 8001d92:	46bd      	mov	sp, r7
 8001d94:	f85d 7b04 	ldr.w	r7, [sp], #4
 8001d98:	4770      	bx	lr

08001d9a <HAL_TIM_Base_Start_IT>:
  * @brief  Starts the TIM Base generation in interrupt mode.
  * @param  htim TIM Base handle
  * @retval HAL status
  */
HAL_StatusTypeDef HAL_TIM_Base_Start_IT(TIM_HandleTypeDef *htim)
{
 8001d9a:	b480      	push	{r7}
 8001d9c:	b085      	sub	sp, #20
 8001d9e:	af00      	add	r7, sp, #0
 8001da0:	6078      	str	r0, [r7, #4]

  /* Check the parameters */
  assert_param(IS_TIM_INSTANCE(htim->Instance));

  /* Enable the TIM Update interrupt */
  __HAL_TIM_ENABLE_IT(htim, TIM_IT_UPDATE);
 8001da2:	687b      	ldr	r3, [r7, #4]
 8001da4:	681b      	ldr	r3, [r3, #0]
 8001da6:	68da      	ldr	r2, [r3, #12]
 8001da8:	687b      	ldr	r3, [r7, #4]
 8001daa:	681b      	ldr	r3, [r3, #0]
 8001dac:	f042 0201 	orr.w	r2, r2, #1
 8001db0:	60da      	str	r2, [r3, #12]

  /* Enable the Peripheral, except in trigger mode where enable is automatically done with trigger */
  tmpsmcr = htim->Instance->SMCR & TIM_SMCR_SMS;
 8001db2:	687b      	ldr	r3, [r7, #4]
 8001db4:	681b      	ldr	r3, [r3, #0]
 8001db6:	689b      	ldr	r3, [r3, #8]
 8001db8:	f003 0307 	and.w	r3, r3, #7
 8001dbc:	60fb      	str	r3, [r7, #12]
  if (!IS_TIM_SLAVEMODE_TRIGGER_ENABLED(tmpsmcr))
 8001dbe:	68fb      	ldr	r3, [r7, #12]
 8001dc0:	2b06      	cmp	r3, #6
 8001dc2:	d007      	beq.n	8001dd4 <HAL_TIM_Base_Start_IT+0x3a>
  {
    __HAL_TIM_ENABLE(htim);
 8001dc4:	687b      	ldr	r3, [r7, #4]
 8001dc6:	681b      	ldr	r3, [r3, #0]
 8001dc8:	681a      	ldr	r2, [r3, #0]
 8001dca:	687b      	ldr	r3, [r7, #4]
 8001dcc:	681b      	ldr	r3, [r3, #0]
 8001dce:	f042 0201 	orr.w	r2, r2, #1
 8001dd2:	601a      	str	r2, [r3, #0]
  }

  /* Return function status */
  return HAL_OK;
 8001dd4:	2300      	movs	r3, #0
}
 8001dd6:	4618      	mov	r0, r3
 8001dd8:	3714      	adds	r7, #20
 8001dda:	46bd      	mov	sp, r7
 8001ddc:	f85d 7b04 	ldr.w	r7, [sp], #4
 8001de0:	4770      	bx	lr

08001de2 <HAL_TIM_IRQHandler>:
  * @brief  This function handles TIM interrupts requests.
  * @param  htim TIM  handle
  * @retval None
  */
void HAL_TIM_IRQHandler(TIM_HandleTypeDef *htim)
{
 8001de2:	b580      	push	{r7, lr}
 8001de4:	b082      	sub	sp, #8
 8001de6:	af00      	add	r7, sp, #0
 8001de8:	6078      	str	r0, [r7, #4]
  /* Capture compare 1 event */
  if (__HAL_TIM_GET_FLAG(htim, TIM_FLAG_CC1) != RESET)
 8001dea:	687b      	ldr	r3, [r7, #4]
 8001dec:	681b      	ldr	r3, [r3, #0]
 8001dee:	691b      	ldr	r3, [r3, #16]
 8001df0:	f003 0302 	and.w	r3, r3, #2
 8001df4:	2b02      	cmp	r3, #2
 8001df6:	d122      	bne.n	8001e3e <HAL_TIM_IRQHandler+0x5c>
  {
    if (__HAL_TIM_GET_IT_SOURCE(htim, TIM_IT_CC1) != RESET)
 8001df8:	687b      	ldr	r3, [r7, #4]
 8001dfa:	681b      	ldr	r3, [r3, #0]
 8001dfc:	68db      	ldr	r3, [r3, #12]
 8001dfe:	f003 0302 	and.w	r3, r3, #2
 8001e02:	2b02      	cmp	r3, #2
 8001e04:	d11b      	bne.n	8001e3e <HAL_TIM_IRQHandler+0x5c>
    {
      {
        __HAL_TIM_CLEAR_IT(htim, TIM_IT_CC1);
 8001e06:	687b      	ldr	r3, [r7, #4]
 8001e08:	681b      	ldr	r3, [r3, #0]
 8001e0a:	f06f 0202 	mvn.w	r2, #2
 8001e0e:	611a      	str	r2, [r3, #16]
        htim->Channel = HAL_TIM_ACTIVE_CHANNEL_1;
 8001e10:	687b      	ldr	r3, [r7, #4]
 8001e12:	2201      	movs	r2, #1
 8001e14:	771a      	strb	r2, [r3, #28]

        /* Input capture event */
        if ((htim->Instance->CCMR1 & TIM_CCMR1_CC1S) != 0x00U)
 8001e16:	687b      	ldr	r3, [r7, #4]
 8001e18:	681b      	ldr	r3, [r3, #0]
 8001e1a:	699b      	ldr	r3, [r3, #24]
 8001e1c:	f003 0303 	and.w	r3, r3, #3
 8001e20:	2b00      	cmp	r3, #0
 8001e22:	d003      	beq.n	8001e2c <HAL_TIM_IRQHandler+0x4a>
        {
#if (USE_HAL_TIM_REGISTER_CALLBACKS == 1)
          htim->IC_CaptureCallback(htim);
#else
          HAL_TIM_IC_CaptureCallback(htim);
 8001e24:	6878      	ldr	r0, [r7, #4]
 8001e26:	f000 f8ee 	bl	8002006 <HAL_TIM_IC_CaptureCallback>
 8001e2a:	e005      	b.n	8001e38 <HAL_TIM_IRQHandler+0x56>
        {
#if (USE_HAL_TIM_REGISTER_CALLBACKS == 1)
          htim->OC_DelayElapsedCallback(htim);
          htim->PWM_PulseFinishedCallback(htim);
#else
          HAL_TIM_OC_DelayElapsedCallback(htim);
 8001e2c:	6878      	ldr	r0, [r7, #4]
 8001e2e:	f000 f8e0 	bl	8001ff2 <HAL_TIM_OC_DelayElapsedCallback>
          HAL_TIM_PWM_PulseFinishedCallback(htim);
 8001e32:	6878      	ldr	r0, [r7, #4]
 8001e34:	f000 f8f1 	bl	800201a <HAL_TIM_PWM_PulseFinishedCallback>
#endif /* USE_HAL_TIM_REGISTER_CALLBACKS */
        }
        htim->Channel = HAL_TIM_ACTIVE_CHANNEL_CLEARED;
 8001e38:	687b      	ldr	r3, [r7, #4]
 8001e3a:	2200      	movs	r2, #0
 8001e3c:	771a      	strb	r2, [r3, #28]
      }
    }
  }
  /* Capture compare 2 event */
  if (__HAL_TIM_GET_FLAG(htim, TIM_FLAG_CC2) != RESET)
 8001e3e:	687b      	ldr	r3, [r7, #4]
 8001e40:	681b      	ldr	r3, [r3, #0]
 8001e42:	691b      	ldr	r3, [r3, #16]
 8001e44:	f003 0304 	and.w	r3, r3, #4
 8001e48:	2b04      	cmp	r3, #4
 8001e4a:	d122      	bne.n	8001e92 <HAL_TIM_IRQHandler+0xb0>
  {
    if (__HAL_TIM_GET_IT_SOURCE(htim, TIM_IT_CC2) != RESET)
 8001e4c:	687b      	ldr	r3, [r7, #4]
 8001e4e:	681b      	ldr	r3, [r3, #0]
 8001e50:	68db      	ldr	r3, [r3, #12]
 8001e52:	f003 0304 	and.w	r3, r3, #4
 8001e56:	2b04      	cmp	r3, #4
 8001e58:	d11b      	bne.n	8001e92 <HAL_TIM_IRQHandler+0xb0>
    {
      __HAL_TIM_CLEAR_IT(htim, TIM_IT_CC2);
 8001e5a:	687b      	ldr	r3, [r7, #4]
 8001e5c:	681b      	ldr	r3, [r3, #0]
 8001e5e:	f06f 0204 	mvn.w	r2, #4
 8001e62:	611a      	str	r2, [r3, #16]
      htim->Channel = HAL_TIM_ACTIVE_CHANNEL_2;
 8001e64:	687b      	ldr	r3, [r7, #4]
 8001e66:	2202      	movs	r2, #2
 8001e68:	771a      	strb	r2, [r3, #28]
      /* Input capture event */
      if ((htim->Instance->CCMR1 & TIM_CCMR1_CC2S) != 0x00U)
 8001e6a:	687b      	ldr	r3, [r7, #4]
 8001e6c:	681b      	ldr	r3, [r3, #0]
 8001e6e:	699b      	ldr	r3, [r3, #24]
 8001e70:	f403 7340 	and.w	r3, r3, #768	; 0x300
 8001e74:	2b00      	cmp	r3, #0
 8001e76:	d003      	beq.n	8001e80 <HAL_TIM_IRQHandler+0x9e>
      {
#if (USE_HAL_TIM_REGISTER_CALLBACKS == 1)
        htim->IC_CaptureCallback(htim);
#else
        HAL_TIM_IC_CaptureCallback(htim);
 8001e78:	6878      	ldr	r0, [r7, #4]
 8001e7a:	f000 f8c4 	bl	8002006 <HAL_TIM_IC_CaptureCallback>
 8001e7e:	e005      	b.n	8001e8c <HAL_TIM_IRQHandler+0xaa>
      {
#if (USE_HAL_TIM_REGISTER_CALLBACKS == 1)
        htim->OC_DelayElapsedCallback(htim);
        htim->PWM_PulseFinishedCallback(htim);
#else
        HAL_TIM_OC_DelayElapsedCallback(htim);
 8001e80:	6878      	ldr	r0, [r7, #4]
 8001e82:	f000 f8b6 	bl	8001ff2 <HAL_TIM_OC_DelayElapsedCallback>
        HAL_TIM_PWM_PulseFinishedCallback(htim);
 8001e86:	6878      	ldr	r0, [r7, #4]
 8001e88:	f000 f8c7 	bl	800201a <HAL_TIM_PWM_PulseFinishedCallback>
#endif /* USE_HAL_TIM_REGISTER_CALLBACKS */
      }
      htim->Channel = HAL_TIM_ACTIVE_CHANNEL_CLEARED;
 8001e8c:	687b      	ldr	r3, [r7, #4]
 8001e8e:	2200      	movs	r2, #0
 8001e90:	771a      	strb	r2, [r3, #28]
    }
  }
  /* Capture compare 3 event */
  if (__HAL_TIM_GET_FLAG(htim, TIM_FLAG_CC3) != RESET)
 8001e92:	687b      	ldr	r3, [r7, #4]
 8001e94:	681b      	ldr	r3, [r3, #0]
 8001e96:	691b      	ldr	r3, [r3, #16]
 8001e98:	f003 0308 	and.w	r3, r3, #8
 8001e9c:	2b08      	cmp	r3, #8
 8001e9e:	d122      	bne.n	8001ee6 <HAL_TIM_IRQHandler+0x104>
  {
    if (__HAL_TIM_GET_IT_SOURCE(htim, TIM_IT_CC3) != RESET)
 8001ea0:	687b      	ldr	r3, [r7, #4]
 8001ea2:	681b      	ldr	r3, [r3, #0]
 8001ea4:	68db      	ldr	r3, [r3, #12]
 8001ea6:	f003 0308 	and.w	r3, r3, #8
 8001eaa:	2b08      	cmp	r3, #8
 8001eac:	d11b      	bne.n	8001ee6 <HAL_TIM_IRQHandler+0x104>
    {
      __HAL_TIM_CLEAR_IT(htim, TIM_IT_CC3);
 8001eae:	687b      	ldr	r3, [r7, #4]
 8001eb0:	681b      	ldr	r3, [r3, #0]
 8001eb2:	f06f 0208 	mvn.w	r2, #8
 8001eb6:	611a      	str	r2, [r3, #16]
      htim->Channel = HAL_TIM_ACTIVE_CHANNEL_3;
 8001eb8:	687b      	ldr	r3, [r7, #4]
 8001eba:	2204      	movs	r2, #4
 8001ebc:	771a      	strb	r2, [r3, #28]
      /* Input capture event */
      if ((htim->Instance->CCMR2 & TIM_CCMR2_CC3S) != 0x00U)
 8001ebe:	687b      	ldr	r3, [r7, #4]
 8001ec0:	681b      	ldr	r3, [r3, #0]
 8001ec2:	69db      	ldr	r3, [r3, #28]
 8001ec4:	f003 0303 	and.w	r3, r3, #3
 8001ec8:	2b00      	cmp	r3, #0
 8001eca:	d003      	beq.n	8001ed4 <HAL_TIM_IRQHandler+0xf2>
      {
#if (USE_HAL_TIM_REGISTER_CALLBACKS == 1)
        htim->IC_CaptureCallback(htim);
#else
        HAL_TIM_IC_CaptureCallback(htim);
 8001ecc:	6878      	ldr	r0, [r7, #4]
 8001ece:	f000 f89a 	bl	8002006 <HAL_TIM_IC_CaptureCallback>
 8001ed2:	e005      	b.n	8001ee0 <HAL_TIM_IRQHandler+0xfe>
      {
#if (USE_HAL_TIM_REGISTER_CALLBACKS == 1)
        htim->OC_DelayElapsedCallback(htim);
        htim->PWM_PulseFinishedCallback(htim);
#else
        HAL_TIM_OC_DelayElapsedCallback(htim);
 8001ed4:	6878      	ldr	r0, [r7, #4]
 8001ed6:	f000 f88c 	bl	8001ff2 <HAL_TIM_OC_DelayElapsedCallback>
        HAL_TIM_PWM_PulseFinishedCallback(htim);
 8001eda:	6878      	ldr	r0, [r7, #4]
 8001edc:	f000 f89d 	bl	800201a <HAL_TIM_PWM_PulseFinishedCallback>
#endif /* USE_HAL_TIM_REGISTER_CALLBACKS */
      }
      htim->Channel = HAL_TIM_ACTIVE_CHANNEL_CLEARED;
 8001ee0:	687b      	ldr	r3, [r7, #4]
 8001ee2:	2200      	movs	r2, #0
